{
  "_format": "hh-sol-artifact-1",
  "contractName": "BoingGovernor",
  "sourceName": "contracts/BoingGovernor.sol",
  "abi": [
    {
      "inputs": [
        {
          "internalType": "contract IVotes",
          "name": "_token",
          "type": "address"
        },
        {
          "internalType": "contract TimelockController",
          "name": "_timelock",
          "type": "address"
        }
      ],
      "stateMutability": "nonpayable",
      "type": "constructor"
    },
    {
      "inputs": [],
      "name": "CheckpointUnorderedInsertion",
      "type": "error"
    },
    {
      "inputs": [],
      "name": "FailedCall",
      "type": "error"
    },
    {
      "inputs": [
        {
          "internalType": "address",
          "name": "voter",
          "type": "address"
        }
      ],
      "name": "GovernorAlreadyCastVote",
      "type": "error"
    },
    {
      "inputs": [
        {
          "internalType": "uint256",
          "name": "proposalId",
          "type": "uint256"
        }
      ],
      "name": "GovernorAlreadyQueuedProposal",
      "type": "error"
    },
    {
      "inputs": [],
      "name": "GovernorDisabledDeposit",
      "type": "error"
    },
    {
      "inputs": [
        {
          "internalType": "address",
          "name": "proposer",
          "type": "address"
        },
        {
          "internalType": "uint256",
          "name": "votes",
          "type": "uint256"
        },
        {
          "internalType": "uint256",
          "name": "threshold",
          "type": "uint256"
        }
      ],
      "name": "GovernorInsufficientProposerVotes",
      "type": "error"
    },
    {
      "inputs": [
        {
          "internalType": "uint256",
          "name": "targets",
          "type": "uint256"
        },
        {
          "internalType": "uint256",
          "name": "calldatas",
          "type": "uint256"
        },
        {
          "internalType": "uint256",
          "name": "values",
          "type": "uint256"
        }
      ],
      "name": "GovernorInvalidProposalLength",
      "type": "error"
    },
    {
      "inputs": [
        {
          "internalType": "uint256",
          "name": "quorumNumerator",
          "type": "uint256"
        },
        {
          "internalType": "uint256",
          "name": "quorumDenominator",
          "type": "uint256"
        }
      ],
      "name": "GovernorInvalidQuorumFraction",
      "type": "error"
    },
    {
      "inputs": [
        {
          "internalType": "address",
          "name": "voter",
          "type": "address"
        }
      ],
      "name": "GovernorInvalidSignature",
      "type": "error"
    },
    {
      "inputs": [],
      "name": "GovernorInvalidVoteParams",
      "type": "error"
    },
    {
      "inputs": [],
      "name": "GovernorInvalidVoteType",
      "type": "error"
    },
    {
      "inputs": [
        {
          "internalType": "uint256",
          "name": "votingPeriod",
          "type": "uint256"
        }
      ],
      "name": "GovernorInvalidVotingPeriod",
      "type": "error"
    },
    {
      "inputs": [
        {
          "internalType": "uint256",
          "name": "proposalId",
          "type": "uint256"
        }
      ],
      "name": "GovernorNonexistentProposal",
      "type": "error"
    },
    {
      "inputs": [
        {
          "internalType": "uint256",
          "name": "proposalId",
          "type": "uint256"
        }
      ],
      "name": "GovernorNotQueuedProposal",
      "type": "error"
    },
    {
      "inputs": [
        {
          "internalType": "address",
          "name": "account",
          "type": "address"
        }
      ],
      "name": "GovernorOnlyExecutor",
      "type": "error"
    },
    {
      "inputs": [],
      "name": "GovernorQueueNotImplemented",
      "type": "error"
    },
    {
      "inputs": [
        {
          "internalType": "address",
          "name": "proposer",
          "type": "address"
        }
      ],
      "name": "GovernorRestrictedProposer",
      "type": "error"
    },
    {
      "inputs": [
        {
          "internalType": "uint256",
          "name": "proposalId",
          "type": "uint256"
        },
        {
          "internalType": "address",
          "name": "account",
          "type": "address"
        }
      ],
      "name": "GovernorUnableToCancel",
      "type": "error"
    },
    {
      "inputs": [
        {
          "internalType": "uint256",
          "name": "proposalId",
          "type": "uint256"
        },
        {
          "internalType": "enum IGovernor.ProposalState",
          "name": "current",
          "type": "uint8"
        },
        {
          "internalType": "bytes32",
          "name": "expectedStates",
          "type": "bytes32"
        }
      ],
      "name": "GovernorUnexpectedProposalState",
      "type": "error"
    },
    {
      "inputs": [
        {
          "internalType": "address",
          "name": "account",
          "type": "address"
        },
        {
          "internalType": "uint256",
          "name": "currentNonce",
          "type": "uint256"
        }
      ],
      "name": "InvalidAccountNonce",
      "type": "error"
    },
    {
      "inputs": [],
      "name": "InvalidShortString",
      "type": "error"
    },
    {
      "inputs": [
        {
          "internalType": "uint8",
          "name": "bits",
          "type": "uint8"
        },
        {
          "internalType": "uint256",
          "name": "value",
          "type": "uint256"
        }
      ],
      "name": "SafeCastOverflowedUintDowncast",
      "type": "error"
    },
    {
      "inputs": [
        {
          "internalType": "string",
          "name": "str",
          "type": "string"
        }
      ],
      "name": "StringTooLong",
      "type": "error"
    },
    {
      "anonymous": false,
      "inputs": [],
      "name": "EIP712DomainChanged",
      "type": "event"
    },
    {
      "anonymous": false,
      "inputs": [
        {
          "indexed": false,
          "internalType": "uint256",
          "name": "proposalId",
          "type": "uint256"
        }
      ],
      "name": "ProposalCanceled",
      "type": "event"
    },
    {
      "anonymous": false,
      "inputs": [
        {
          "indexed": false,
          "internalType": "uint256",
          "name": "proposalId",
          "type": "uint256"
        },
        {
          "indexed": false,
          "internalType": "address",
          "name": "proposer",
          "type": "address"
        },
        {
          "indexed": false,
          "internalType": "address[]",
          "name": "targets",
          "type": "address[]"
        },
        {
          "indexed": false,
          "internalType": "uint256[]",
          "name": "values",
          "type": "uint256[]"
        },
        {
          "indexed": false,
          "internalType": "string[]",
          "name": "signatures",
          "type": "string[]"
        },
        {
          "indexed": false,
          "internalType": "bytes[]",
          "name": "calldatas",
          "type": "bytes[]"
        },
        {
          "indexed": false,
          "internalType": "uint256",
          "name": "voteStart",
          "type": "uint256"
        },
        {
          "indexed": false,
          "internalType": "uint256",
          "name": "voteEnd",
          "type": "uint256"
        },
        {
          "indexed": false,
          "internalType": "string",
          "name": "description",
          "type": "string"
        }
      ],
      "name": "ProposalCreated",
      "type": "event"
    },
    {
      "anonymous": false,
      "inputs": [
        {
          "indexed": false,
          "internalType": "uint256",
          "name": "proposalId",
          "type": "uint256"
        }
      ],
      "name": "ProposalExecuted",
      "type": "event"
    },
    {
      "anonymous": false,
      "inputs": [
        {
          "indexed": false,
          "internalType": "uint256",
          "name": "proposalId",
          "type": "uint256"
        },
        {
          "indexed": false,
          "internalType": "uint256",
          "name": "etaSeconds",
          "type": "uint256"
        }
      ],
      "name": "ProposalQueued",
      "type": "event"
    },
    {
      "anonymous": false,
      "inputs": [
        {
          "indexed": false,
          "internalType": "uint256",
          "name": "oldQuorumNumerator",
          "type": "uint256"
        },
        {
          "indexed": false,
          "internalType": "uint256",
          "name": "newQuorumNumerator",
          "type": "uint256"
        }
      ],
      "name": "QuorumNumeratorUpdated",
      "type": "event"
    },
    {
      "anonymous": false,
      "inputs": [
        {
          "indexed": false,
          "internalType": "address",
          "name": "oldTimelock",
          "type": "address"
        },
        {
          "indexed": false,
          "internalType": "address",
          "name": "newTimelock",
          "type": "address"
        }
      ],
      "name": "TimelockChange",
      "type": "event"
    },
    {
      "anonymous": false,
      "inputs": [
        {
          "indexed": true,
          "internalType": "address",
          "name": "voter",
          "type": "address"
        },
        {
          "indexed": false,
          "internalType": "uint256",
          "name": "proposalId",
          "type": "uint256"
        },
        {
          "indexed": false,
          "internalType": "uint8",
          "name": "support",
          "type": "uint8"
        },
        {
          "indexed": false,
          "internalType": "uint256",
          "name": "weight",
          "type": "uint256"
        },
        {
          "indexed": false,
          "internalType": "string",
          "name": "reason",
          "type": "string"
        }
      ],
      "name": "VoteCast",
      "type": "event"
    },
    {
      "anonymous": false,
      "inputs": [
        {
          "indexed": true,
          "internalType": "address",
          "name": "voter",
          "type": "address"
        },
        {
          "indexed": false,
          "internalType": "uint256",
          "name": "proposalId",
          "type": "uint256"
        },
        {
          "indexed": false,
          "internalType": "uint8",
          "name": "support",
          "type": "uint8"
        },
        {
          "indexed": false,
          "internalType": "uint256",
          "name": "weight",
          "type": "uint256"
        },
        {
          "indexed": false,
          "internalType": "string",
          "name": "reason",
          "type": "string"
        },
        {
          "indexed": false,
          "internalType": "bytes",
          "name": "params",
          "type": "bytes"
        }
      ],
      "name": "VoteCastWithParams",
      "type": "event"
    },
    {
      "inputs": [],
      "name": "BALLOT_TYPEHASH",
      "outputs": [
        {
          "internalType": "bytes32",
          "name": "",
          "type": "bytes32"
        }
      ],
      "stateMutability": "view",
      "type": "function"
    },
    {
      "inputs": [],
      "name": "CLOCK_MODE",
      "outputs": [
        {
          "internalType": "string",
          "name": "",
          "type": "string"
        }
      ],
      "stateMutability": "view",
      "type": "function"
    },
    {
      "inputs": [],
      "name": "COUNTING_MODE",
      "outputs": [
        {
          "internalType": "string",
          "name": "",
          "type": "string"
        }
      ],
      "stateMutability": "pure",
      "type": "function"
    },
    {
      "inputs": [],
      "name": "EXTENDED_BALLOT_TYPEHASH",
      "outputs": [
        {
          "internalType": "bytes32",
          "name": "",
          "type": "bytes32"
        }
      ],
      "stateMutability": "view",
      "type": "function"
    },
    {
      "inputs": [
        {
          "internalType": "address[]",
          "name": "targets",
          "type": "address[]"
        },
        {
          "internalType": "uint256[]",
          "name": "values",
          "type": "uint256[]"
        },
        {
          "internalType": "bytes[]",
          "name": "calldatas",
          "type": "bytes[]"
        },
        {
          "internalType": "bytes32",
          "name": "descriptionHash",
          "type": "bytes32"
        }
      ],
      "name": "cancel",
      "outputs": [
        {
          "internalType": "uint256",
          "name": "",
          "type": "uint256"
        }
      ],
      "stateMutability": "nonpayable",
      "type": "function"
    },
    {
      "inputs": [
        {
          "internalType": "uint256",
          "name": "proposalId",
          "type": "uint256"
        },
        {
          "internalType": "uint8",
          "name": "support",
          "type": "uint8"
        }
      ],
      "name": "castVote",
      "outputs": [
        {
          "internalType": "uint256",
          "name": "",
          "type": "uint256"
        }
      ],
      "stateMutability": "nonpayable",
      "type": "function"
    },
    {
      "inputs": [
        {
          "internalType": "uint256",
          "name": "proposalId",
          "type": "uint256"
        },
        {
          "internalType": "uint8",
          "name": "support",
          "type": "uint8"
        },
        {
          "internalType": "address",
          "name": "voter",
          "type": "address"
        },
        {
          "internalType": "bytes",
          "name": "signature",
          "type": "bytes"
        }
      ],
      "name": "castVoteBySig",
      "outputs": [
        {
          "internalType": "uint256",
          "name": "",
          "type": "uint256"
        }
      ],
      "stateMutability": "nonpayable",
      "type": "function"
    },
    {
      "inputs": [
        {
          "internalType": "uint256",
          "name": "proposalId",
          "type": "uint256"
        },
        {
          "internalType": "uint8",
          "name": "support",
          "type": "uint8"
        },
        {
          "internalType": "string",
          "name": "reason",
          "type": "string"
        }
      ],
      "name": "castVoteWithReason",
      "outputs": [
        {
          "internalType": "uint256",
          "name": "",
          "type": "uint256"
        }
      ],
      "stateMutability": "nonpayable",
      "type": "function"
    },
    {
      "inputs": [
        {
          "internalType": "uint256",
          "name": "proposalId",
          "type": "uint256"
        },
        {
          "internalType": "uint8",
          "name": "support",
          "type": "uint8"
        },
        {
          "internalType": "string",
          "name": "reason",
          "type": "string"
        },
        {
          "internalType": "bytes",
          "name": "params",
          "type": "bytes"
        }
      ],
      "name": "castVoteWithReasonAndParams",
      "outputs": [
        {
          "internalType": "uint256",
          "name": "",
          "type": "uint256"
        }
      ],
      "stateMutability": "nonpayable",
      "type": "function"
    },
    {
      "inputs": [
        {
          "internalType": "uint256",
          "name": "proposalId",
          "type": "uint256"
        },
        {
          "internalType": "uint8",
          "name": "support",
          "type": "uint8"
        },
        {
          "internalType": "address",
          "name": "voter",
          "type": "address"
        },
        {
          "internalType": "string",
          "name": "reason",
          "type": "string"
        },
        {
          "internalType": "bytes",
          "name": "params",
          "type": "bytes"
        },
        {
          "internalType": "bytes",
          "name": "signature",
          "type": "bytes"
        }
      ],
      "name": "castVoteWithReasonAndParamsBySig",
      "outputs": [
        {
          "internalType": "uint256",
          "name": "",
          "type": "uint256"
        }
      ],
      "stateMutability": "nonpayable",
      "type": "function"
    },
    {
      "inputs": [],
      "name": "clock",
      "outputs": [
        {
          "internalType": "uint48",
          "name": "",
          "type": "uint48"
        }
      ],
      "stateMutability": "view",
      "type": "function"
    },
    {
      "inputs": [],
      "name": "eip712Domain",
      "outputs": [
        {
          "internalType": "bytes1",
          "name": "fields",
          "type": "bytes1"
        },
        {
          "internalType": "string",
          "name": "name",
          "type": "string"
        },
        {
          "internalType": "string",
          "name": "version",
          "type": "string"
        },
        {
          "internalType": "uint256",
          "name": "chainId",
          "type": "uint256"
        },
        {
          "internalType": "address",
          "name": "verifyingContract",
          "type": "address"
        },
        {
          "internalType": "bytes32",
          "name": "salt",
          "type": "bytes32"
        },
        {
          "internalType": "uint256[]",
          "name": "extensions",
          "type": "uint256[]"
        }
      ],
      "stateMutability": "view",
      "type": "function"
    },
    {
      "inputs": [
        {
          "internalType": "address[]",
          "name": "targets",
          "type": "address[]"
        },
        {
          "internalType": "uint256[]",
          "name": "values",
          "type": "uint256[]"
        },
        {
          "internalType": "bytes[]",
          "name": "calldatas",
          "type": "bytes[]"
        },
        {
          "internalType": "bytes32",
          "name": "descriptionHash",
          "type": "bytes32"
        }
      ],
      "name": "execute",
      "outputs": [
        {
          "internalType": "uint256",
          "name": "",
          "type": "uint256"
        }
      ],
      "stateMutability": "payable",
      "type": "function"
    },
    {
      "inputs": [
        {
          "internalType": "address[]",
          "name": "targets",
          "type": "address[]"
        },
        {
          "internalType": "uint256[]",
          "name": "values",
          "type": "uint256[]"
        },
        {
          "internalType": "bytes[]",
          "name": "calldatas",
          "type": "bytes[]"
        },
        {
          "internalType": "bytes32",
          "name": "descriptionHash",
          "type": "bytes32"
        }
      ],
      "name": "getProposalId",
      "outputs": [
        {
          "internalType": "uint256",
          "name": "",
          "type": "uint256"
        }
      ],
      "stateMutability": "view",
      "type": "function"
    },
    {
      "inputs": [
        {
          "internalType": "address",
          "name": "account",
          "type": "address"
        },
        {
          "internalType": "uint256",
          "name": "timepoint",
          "type": "uint256"
        }
      ],
      "name": "getVotes",
      "outputs": [
        {
          "internalType": "uint256",
          "name": "",
          "type": "uint256"
        }
      ],
      "stateMutability": "view",
      "type": "function"
    },
    {
      "inputs": [
        {
          "internalType": "address",
          "name": "account",
          "type": "address"
        },
        {
          "internalType": "uint256",
          "name": "timepoint",
          "type": "uint256"
        },
        {
          "internalType": "bytes",
          "name": "params",
          "type": "bytes"
        }
      ],
      "name": "getVotesWithParams",
      "outputs": [
        {
          "internalType": "uint256",
          "name": "",
          "type": "uint256"
        }
      ],
      "stateMutability": "view",
      "type": "function"
    },
    {
      "inputs": [
        {
          "internalType": "uint256",
          "name": "proposalId",
          "type": "uint256"
        },
        {
          "internalType": "address",
          "name": "account",
          "type": "address"
        }
      ],
      "name": "hasVoted",
      "outputs": [
        {
          "internalType": "bool",
          "name": "",
          "type": "bool"
        }
      ],
      "stateMutability": "view",
      "type": "function"
    },
    {
      "inputs": [
        {
          "internalType": "address[]",
          "name": "targets",
          "type": "address[]"
        },
        {
          "internalType": "uint256[]",
          "name": "values",
          "type": "uint256[]"
        },
        {
          "internalType": "bytes[]",
          "name": "calldatas",
          "type": "bytes[]"
        },
        {
          "internalType": "bytes32",
          "name": "descriptionHash",
          "type": "bytes32"
        }
      ],
      "name": "hashProposal",
      "outputs": [
        {
          "internalType": "uint256",
          "name": "",
          "type": "uint256"
        }
      ],
      "stateMutability": "pure",
      "type": "function"
    },
    {
      "inputs": [],
      "name": "name",
      "outputs": [
        {
          "internalType": "string",
          "name": "",
          "type": "string"
        }
      ],
      "stateMutability": "view",
      "type": "function"
    },
    {
      "inputs": [
        {
          "internalType": "address",
          "name": "owner",
          "type": "address"
        }
      ],
      "name": "nonces",
      "outputs": [
        {
          "internalType": "uint256",
          "name": "",
          "type": "uint256"
        }
      ],
      "stateMutability": "view",
      "type": "function"
    },
    {
      "inputs": [
        {
          "internalType": "address",
          "name": "",
          "type": "address"
        },
        {
          "internalType": "address",
          "name": "",
          "type": "address"
        },
        {
          "internalType": "uint256[]",
          "name": "",
          "type": "uint256[]"
        },
        {
          "internalType": "uint256[]",
          "name": "",
          "type": "uint256[]"
        },
        {
          "internalType": "bytes",
          "name": "",
          "type": "bytes"
        }
      ],
      "name": "onERC1155BatchReceived",
      "outputs": [
        {
          "internalType": "bytes4",
          "name": "",
          "type": "bytes4"
        }
      ],
      "stateMutability": "nonpayable",
      "type": "function"
    },
    {
      "inputs": [
        {
          "internalType": "address",
          "name": "",
          "type": "address"
        },
        {
          "internalType": "address",
          "name": "",
          "type": "address"
        },
        {
          "internalType": "uint256",
          "name": "",
          "type": "uint256"
        },
        {
          "internalType": "uint256",
          "name": "",
          "type": "uint256"
        },
        {
          "internalType": "bytes",
          "name": "",
          "type": "bytes"
        }
      ],
      "name": "onERC1155Received",
      "outputs": [
        {
          "internalType": "bytes4",
          "name": "",
          "type": "bytes4"
        }
      ],
      "stateMutability": "nonpayable",
      "type": "function"
    },
    {
      "inputs": [
        {
          "internalType": "address",
          "name": "",
          "type": "address"
        },
        {
          "internalType": "address",
          "name": "",
          "type": "address"
        },
        {
          "internalType": "uint256",
          "name": "",
          "type": "uint256"
        },
        {
          "internalType": "bytes",
          "name": "",
          "type": "bytes"
        }
      ],
      "name": "onERC721Received",
      "outputs": [
        {
          "internalType": "bytes4",
          "name": "",
          "type": "bytes4"
        }
      ],
      "stateMutability": "nonpayable",
      "type": "function"
    },
    {
      "inputs": [
        {
          "internalType": "uint256",
          "name": "proposalId",
          "type": "uint256"
        }
      ],
      "name": "proposalDeadline",
      "outputs": [
        {
          "internalType": "uint256",
          "name": "",
          "type": "uint256"
        }
      ],
      "stateMutability": "view",
      "type": "function"
    },
    {
      "inputs": [
        {
          "internalType": "uint256",
          "name": "proposalId",
          "type": "uint256"
        }
      ],
      "name": "proposalEta",
      "outputs": [
        {
          "internalType": "uint256",
          "name": "",
          "type": "uint256"
        }
      ],
      "stateMutability": "view",
      "type": "function"
    },
    {
      "inputs": [
        {
          "internalType": "uint256",
          "name": "proposalId",
          "type": "uint256"
        }
      ],
      "name": "proposalNeedsQueuing",
      "outputs": [
        {
          "internalType": "bool",
          "name": "",
          "type": "bool"
        }
      ],
      "stateMutability": "view",
      "type": "function"
    },
    {
      "inputs": [
        {
          "internalType": "uint256",
          "name": "proposalId",
          "type": "uint256"
        }
      ],
      "name": "proposalProposer",
      "outputs": [
        {
          "internalType": "address",
          "name": "",
          "type": "address"
        }
      ],
      "stateMutability": "view",
      "type": "function"
    },
    {
      "inputs": [
        {
          "internalType": "uint256",
          "name": "proposalId",
          "type": "uint256"
        }
      ],
      "name": "proposalSnapshot",
      "outputs": [
        {
          "internalType": "uint256",
          "name": "",
          "type": "uint256"
        }
      ],
      "stateMutability": "view",
      "type": "function"
    },
    {
      "inputs": [],
      "name": "proposalThreshold",
      "outputs": [
        {
          "internalType": "uint256",
          "name": "",
          "type": "uint256"
        }
      ],
      "stateMutability": "pure",
      "type": "function"
    },
    {
      "inputs": [
        {
          "internalType": "uint256",
          "name": "proposalId",
          "type": "uint256"
        }
      ],
      "name": "proposalVotes",
      "outputs": [
        {
          "internalType": "uint256",
          "name": "againstVotes",
          "type": "uint256"
        },
        {
          "internalType": "uint256",
          "name": "forVotes",
          "type": "uint256"
        },
        {
          "internalType": "uint256",
          "name": "abstainVotes",
          "type": "uint256"
        }
      ],
      "stateMutability": "view",
      "type": "function"
    },
    {
      "inputs": [
        {
          "internalType": "address[]",
          "name": "targets",
          "type": "address[]"
        },
        {
          "internalType": "uint256[]",
          "name": "values",
          "type": "uint256[]"
        },
        {
          "internalType": "bytes[]",
          "name": "calldatas",
          "type": "bytes[]"
        },
        {
          "internalType": "string",
          "name": "description",
          "type": "string"
        }
      ],
      "name": "propose",
      "outputs": [
        {
          "internalType": "uint256",
          "name": "",
          "type": "uint256"
        }
      ],
      "stateMutability": "nonpayable",
      "type": "function"
    },
    {
      "inputs": [
        {
          "internalType": "address[]",
          "name": "targets",
          "type": "address[]"
        },
        {
          "internalType": "uint256[]",
          "name": "values",
          "type": "uint256[]"
        },
        {
          "internalType": "bytes[]",
          "name": "calldatas",
          "type": "bytes[]"
        },
        {
          "internalType": "bytes32",
          "name": "descriptionHash",
          "type": "bytes32"
        }
      ],
      "name": "queue",
      "outputs": [
        {
          "internalType": "uint256",
          "name": "",
          "type": "uint256"
        }
      ],
      "stateMutability": "nonpayable",
      "type": "function"
    },
    {
      "inputs": [
        {
          "internalType": "uint256",
          "name": "timepoint",
          "type": "uint256"
        }
      ],
      "name": "quorum",
      "outputs": [
        {
          "internalType": "uint256",
          "name": "",
          "type": "uint256"
        }
      ],
      "stateMutability": "view",
      "type": "function"
    },
    {
      "inputs": [],
      "name": "quorumDenominator",
      "outputs": [
        {
          "internalType": "uint256",
          "name": "",
          "type": "uint256"
        }
      ],
      "stateMutability": "view",
      "type": "function"
    },
    {
      "inputs": [
        {
          "internalType": "uint256",
          "name": "timepoint",
          "type": "uint256"
        }
      ],
      "name": "quorumNumerator",
      "outputs": [
        {
          "internalType": "uint256",
          "name": "",
          "type": "uint256"
        }
      ],
      "stateMutability": "view",
      "type": "function"
    },
    {
      "inputs": [],
      "name": "quorumNumerator",
      "outputs": [
        {
          "internalType": "uint256",
          "name": "",
          "type": "uint256"
        }
      ],
      "stateMutability": "view",
      "type": "function"
    },
    {
      "inputs": [
        {
          "internalType": "address",
          "name": "target",
          "type": "address"
        },
        {
          "internalType": "uint256",
          "name": "value",
          "type": "uint256"
        },
        {
          "internalType": "bytes",
          "name": "data",
          "type": "bytes"
        }
      ],
      "name": "relay",
      "outputs": [],
      "stateMutability": "payable",
      "type": "function"
    },
    {
      "inputs": [
        {
          "internalType": "uint256",
          "name": "proposalId",
          "type": "uint256"
        }
      ],
      "name": "state",
      "outputs": [
        {
          "internalType": "enum IGovernor.ProposalState",
          "name": "",
          "type": "uint8"
        }
      ],
      "stateMutability": "view",
      "type": "function"
    },
    {
      "inputs": [
        {
          "internalType": "bytes4",
          "name": "interfaceId",
          "type": "bytes4"
        }
      ],
      "name": "supportsInterface",
      "outputs": [
        {
          "internalType": "bool",
          "name": "",
          "type": "bool"
        }
      ],
      "stateMutability": "view",
      "type": "function"
    },
    {
      "inputs": [],
      "name": "timelock",
      "outputs": [
        {
          "internalType": "address",
          "name": "",
          "type": "address"
        }
      ],
      "stateMutability": "view",
      "type": "function"
    },
    {
      "inputs": [],
      "name": "token",
      "outputs": [
        {
          "internalType": "contract IERC5805",
          "name": "",
          "type": "address"
        }
      ],
      "stateMutability": "view",
      "type": "function"
    },
    {
      "inputs": [
        {
          "internalType": "uint256",
          "name": "newQuorumNumerator",
          "type": "uint256"
        }
      ],
      "name": "updateQuorumNumerator",
      "outputs": [],
      "stateMutability": "nonpayable",
      "type": "function"
    },
    {
      "inputs": [
        {
          "internalType": "contract TimelockController",
          "name": "newTimelock",
          "type": "address"
        }
      ],
      "name": "updateTimelock",
      "outputs": [],
      "stateMutability": "nonpayable",
      "type": "function"
    },
    {
      "inputs": [],
      "name": "version",
      "outputs": [
        {
          "internalType": "string",
          "name": "",
          "type": "string"
        }
      ],
      "stateMutability": "view",
      "type": "function"
    },
    {
      "inputs": [],
      "name": "votingDelay",
      "outputs": [
        {
          "internalType": "uint256",
          "name": "",
          "type": "uint256"
        }
      ],
      "stateMutability": "pure",
      "type": "function"
    },
    {
      "inputs": [],
      "name": "votingPeriod",
      "outputs": [
        {
          "internalType": "uint256",
          "name": "",
          "type": "uint256"
        }
      ],
      "stateMutability": "pure",
      "type": "function"
    },
    {
      "stateMutability": "payable",
      "type": "receive"
    }
  ],
  "bytecode": "0x610180604052346200009a5762000020620000196200014f565b90620001f2565b60405161567762000ec38239608051816139cb015260a051816139f8015260c05181613998015260e05181613a7601526101005181613a5201526101205181613b9301526101405181613d1e01526101605181818161135e01528181613012015281816131560152818161322c015261331a015261567790f35b600080fd5b634e487b7160e01b600052604160045260246000fd5b90601f01601f191681019081106001600160401b03821117620000d757604052565b6200009f565b90620000f4620000ec60405190565b9283620000b5565b565b6001600160a01b031690565b90565b6001600160a01b0381165b036200009a57565b90505190620000f48262000105565b91906040838203126200009a57620001029062000145818562000118565b9360200162000118565b620001726200653a803803806200016681620000dd565b92833981019062000127565b9091565b6200010262000102620001029290565b6001600160401b038111620000d757602090601f01601f19160190565b0190565b90620001bd620001b78362000186565b620000dd565b918252565b620001ce600e620001a7565b6d2137b4b7339023b7bb32b93737b960911b602082015290565b62000102620001c2565b90620000f49162000204600462000176565b6200020e620001e8565b620000f493926200021f9262000225565b620005ce565b90620000f492620002369162000268565b62000652565b6200010290620000f6906001600160a01b031682565b62000102906200023c565b620001029062000252565b6200027c906200027c620002829362000288565b6200025d565b61016052565b620000f4906200049a565b634e487b7160e01b600052600060045260246000fd5b634e487b7160e01b600052602260045260246000fd5b9060016002830492168015620002e2575b6020831014620002dc57565b620002a9565b91607f1691620002d0565b9160001960089290920291821b911b5b9181191691161790565b91906200031c62000102620003259362000176565b908354620002ed565b9055565b620000f49160009162000307565b81811062000343575050565b8062000353600060019362000329565b0162000337565b9190601f81116200036a57505050565b6200037e620000f493600052602060002090565b906020601f840181900483019310620003a2575b6020601f90910104019062000337565b909150819062000392565b90620003b7815190565b906001600160401b038211620000d757620003df82620003d88554620002bf565b856200035a565b602090601f83116001146200041e576200032592916000918362000412575b5050600019600883021c1916906002021790565b015190503880620003fe565b601f198316916200043485600052602060002090565b9260005b81811062000475575091600293918560019694106200045b575b50505002019055565b01516000196008601f8516021c1916905538808062000452565b9193602060018192878701518155019501920162000438565b90620000f491620003ad565b620000f490620004b4620004ad62000569565b82620004bc565b60036200048e565b620000f49182918291829182916200051391620004f890620004e060008262000814565b61012052620004f160018462000814565b6101405290565b6200050c62000505825190565b9160200190565b2060e05290565b6200052062000505825190565b20610100524660a05262000533620009d0565b60805262000541306200025d565b60c052565b620005526001620001a7565b603160f81b602082015290565b6200010262000546565b620001026200055f565b9052565b6001600160a01b039091168152604081019291620000f4916020905b01906001600160a01b03169052565b906001600160a01b0390620002fd565b90620005c66200010262000325926200025d565b8254620005a2565b620000f490620005ea6200027c6009546001600160a01b031690565b620005f5826200025d565b7f08f74ea46ef7894f65eabfb5e6e695de773a000b47c529ab559178069b226401916200062f6200062560405190565b9283928362000577565b0390a16009620005b2565b908152604081019291620000f49160200152565b0152565b6200065c620007fc565b808211620006d357506200066f620007e6565b906200069260086200068062000732565b6200068b8462000aa7565b9162000af2565b50507f0553476bf02ef2726e8ce5ced78d63e26e602e4a2257b1f559418e24b463399791620006ce620006c460405190565b928392836200063a565b0390a1565b90620006f9620006e260405190565b63243e544560e01b8152928392600484016200063a565b0390fd5b65ffffffffffff811662000110565b90505190620000f482620006fd565b906020828203126200009a5762000102916200070c565b600090620007626020620007496200027c620007c3565b6391ddadf4906200075960405190565b93849260e01b90565b825260049082905afa600091816200078c575b5062000788575090506200010262000e5c565b9150565b620007b391925060203d8111620007bb575b620007aa8183620000b5565b8101906200071b565b903862000775565b503d6200079e565b610160516001600160a01b031690565b620001029081906001600160d01b031681565b62000102620007f6600862000b57565b620007d3565b62000102606462000176565b6200010260ff62000176565b80516200082a62000826602062000176565b9190565b10156200083d576200010291506200091d565b60006200084b620008529390565b016200048e565b620001026200010262000808565b60005b838110620008745750506000910152565b818101518382015260200162000863565b620008aa620008b4602093620001a3936200089e815190565b80835293849260200190565b9586910162000860565b601f01601f191690565b6020808252620001029291019062000885565b620008ed620008e9620008e2835190565b9260200190565b5190565b9060208110620008fb575090565b6200090e90600019906020036008021b90565b1690565b620001029062000176565b8062000927825190565b6200093762000826601f62000176565b116200096c5750620001028162000965620009606200095a6200010295620008d1565b62000912565b915190565b1762000176565b620006f9906200097b60405190565b63305a27a960e01b815291829160048301620008be565b90959492620000f494620009c96200059392620009c2608096620009bb60a088019c6000890152565b6020870152565b6040850152565b6060830152565b7f8b73c3c69bb8fe3d512ecc4cf759cc79239f7b179b0ffacaa9a75d522b39400f62000a3b620009ff60e05190565b610100519262000a2e4662000a14306200025d565b9062000a1f60405190565b96879560208701958662000992565b90810382520382620000b5565b62000a4862000505825190565b2090565b62000a5c62000102620001029290565b60ff1690565b620005739062000a4c565b916020620000f49294936200064e6040820196600083019062000a62565b62000a9b62000102620001029290565b6001600160d01b031690565b62000ab96001600160d01b03620007d3565b811162000acb57620001029062000a8b565b60d0620006f962000adb60405190565b6306dfcc6560e41b81529283926004840162000a6d565b9062000b0d600062000172949362000b08600090565b500190565b62000d37565b634e487b7160e01b600052601160045260246000fd5b9190820391821162000b3757565b62000b13565b620001029060301c62000a9b565b62000102905462000b3d565b80549060009062000b688262000176565b830362000b7c575062000102915062000a8b565b620001029262000ba4620008268462000bb094019262000b9d600162000176565b9062000b29565b60005260206000200190565b0162000b4b565b620001026040620000dd565b634e487b7160e01b600052603260045260246000fd5b805482101562000bfe5762000bf5600191600052602060002090565b91020190600090565b62000bc3565b9065ffffffffffff90620002fd565b62000c2b62000102620001029265ffffffffffff1690565b65ffffffffffff1690565b9062000c4a62000102620003259262000c13565b825462000c04565b9065ffffffffffff199060301b620002fd565b620001029062000a9b906001600160d01b031682565b9062000c8f62000102620003259262000c65565b825462000c52565b620000f49162000cce9060209062000cc062000cb9825165ffffffffffff1690565b8562000c36565b01516001600160d01b031690565b9062000c7b565b919062000ce757620000f49162000c97565b62000293565b9081549168010000000000000000831015620000d7578262000d19916001620000f49501815562000bd9565b9062000cd5565b620001029062000c2b565b62000102905462000d20565b91929190815460009062000d4b8262000176565b81111562000e175762000d7662000d69839262000b9d600162000176565b8560005260206000200190565b0162000d828162000d2b565b9162000d8e8262000b4b565b9465ffffffffffff851665ffffffffffff85161162000e0557879365ffffffffffff86811691160362000dc957505062000826925062000c7b565b9150915062000df0620008269362000de062000bb7565b9384019065ffffffffffff169052565b6001600160d01b038616602083015262000ced565b604051632520601d60e01b8152600490fd5b509062000e5690620008269362000e4162000e3162000bb7565b65ffffffffffff90931685840152565b6001600160d01b038716602083015262000ced565b62000a8b565b620001024362000e8f565b6200010262000102620001029265ffffffffffff1690565b62000c2b62000102620001029290565b62000ea065ffffffffffff62000e67565b811162000eb257620001029062000e7f565b6030620006f962000adb6040519056fe60806040526004361015610023575b361561001957600080fd5b610021611383565b005b60003560e01c806301ffc9a71461030357806302a251a3146102fe57806306f3f9e6146102f957806306fdde03146102f4578063143489d0146102ef578063150b7a02146102ea578063160cbed7146102e55780632656227d146102e05780632d63f693146102db5780632fe3e261146102d65780633932abb1146102d15780633e4f49e6146102cc57806343859632146102c7578063452115d6146102c25780634bf5d7e9146102bd578063544ffc9c146102b857806354fd4d50146102b357806356781388146102ae5780635b8d0e0d146102a95780635f398a14146102a457806360c4247f1461029f5780637b3c71d31461029a5780637d5e81e2146102955780637ecebe001461029057806384b0196e1461028b5780638ff262e31461028657806391ddadf41461028157806397c3d3341461027c5780639a802a6d14610277578063a7713a7014610272578063a890c9101461026d578063a8f8a66814610268578063a9a9529414610263578063ab58fb8e1461025e578063b58131b014610259578063bc197c8114610254578063c01f9e371461024f578063c28bc2fa1461024a578063c59057e414610245578063d33219b414610240578063dd4e2ba51461023b578063deaaa7cc14610236578063eb9019d414610231578063f23a6e611461022c578063f8ce560a146102275763fc0c546a0361000e57611345565b6112dc565b6112bd565b611260565b611204565b6111e9565b6111ce565b6111af565b611198565b61115a565b61113b565b61109a565b61107f565b611063565b611044565b61102c565b611011565b610ff5565b610f98565b610f64565b610f45565b610ee0565b610dce565b610d9b565b610d12565b610cb1565b610c92565b610c0a565b610b29565b610ad5565b610aab565b610a6e565b610a4f565b610a33565b6109e9565b610964565b61092b565b610910565b6108f6565b6108d7565b6106ab565b6104d7565b610497565b6103f0565b61039e565b610362565b7fffffffff0000000000000000000000000000000000000000000000000000000081165b0361033357565b600080fd5b9050359061034582610308565b565b906020828203126103335761035b91610338565b90565b9052565b346103335761038f61037d610378366004610347565b6113ea565b60405191829182901515815260200190565b0390f35b600091031261033357565b34610333576103ae366004610393565b61038f6103b9614d29565b6040519182918290815260200190565b8061032c565b90503590610345826103c9565b906020828203126103335761035b916103cf565b34610333576104086104033660046103dc565b6133ca565b604051005b60005b8381106104205750506000910152565b8181015183820152602001610410565b61045161045a60209361048293610445815190565b80835293849260200190565b9586910161040d565b601f017fffffffffffffffffffffffffffffffffffffffffffffffffffffffffffffffe01690565b0190565b602080825261035b92910190610430565b34610333576104a7366004610393565b61038f6104b261166c565b60405191829182610486565b73ffffffffffffffffffffffffffffffffffffffff1690565b346103335761038f6104f26104ed3660046103dc565b611988565b6040519182918273ffffffffffffffffffffffffffffffffffffffff909116815260200190565b73ffffffffffffffffffffffffffffffffffffffff811661032c565b9050359061034582610519565b7f4e487b7100000000000000000000000000000000000000000000000000000000600052604160045260246000fd5b90601f017fffffffffffffffffffffffffffffffffffffffffffffffffffffffffffffffe016810190811067ffffffffffffffff8211176105b157604052565b610542565b906103456105c360405190565b9283610571565b67ffffffffffffffff81116105b157602090601f017fffffffffffffffffffffffffffffffffffffffffffffffffffffffffffffffe0160190565b90826000939282370152565b90929192610626610621826105ca565b6105b6565b938185526020850190828401116103335761034592610605565b9080601f830112156103335781602061035b93359101610611565b90608082820312610333576106708183610535565b9261067e8260208501610535565b9261068c83604083016103cf565b92606082013567ffffffffffffffff81116103335761035b9201610640565b346103335761038f6106ca6106c136600461065b565b929190916129ac565b604051918291827fffffffff00000000000000000000000000000000000000000000000000000000909116815260200190565b67ffffffffffffffff81116105b15760208091020190565b90929192610725610621826106fd565b938185526020808601920283019281841161033357915b8383106107495750505050565b602080916107578486610535565b81520192019161073c565b9080601f830112156103335781602061035b93359101610715565b9092919261078d610621826106fd565b938185526020808601920283019281841161033357915b8383106107b15750505050565b602080916107bf84866103cf565b8152019201916107a4565b9080601f830112156103335781602061035b9335910161077d565b9291906107f4610621826106fd565b93818552602080860192028101918383116103335781905b83821061081a575050505050565b813567ffffffffffffffff81116103335760209161083b8784938701610640565b81520191019061080c565b9080601f830112156103335781602061035b933591016107e5565b60808183031261033357803567ffffffffffffffff81116103335782610888918301610762565b92602082013567ffffffffffffffff811161033357836108a99184016107ca565b9260408301359067ffffffffffffffff8211610333576108ce8161035b938601610846565b936060016103cf565b346103335761038f6103b96108ed366004610861565b92919091612009565b61038f6103b9610907366004610861565b929190916121a3565b346103335761038f6103b96109263660046103dc565b611892565b346103335761093b366004610393565b61038f7f3e83946653575f9a39005e1545185629e92736b7528ab20ca3816f315424a8116103b9565b3461033357610974366004610393565b61038f6103b9614d1e565b7f4e487b7100000000000000000000000000000000000000000000000000000000600052602160045260246000fd5b600811156109b857565b61097f565b90610345826109ae565b61035b906109bd565b61035e906109c7565b60208101929161034591906109d0565b346103335761038f610a046109ff3660046103dc565b614d47565b604051918291826109d9565b91906040838203126103335761035b90610a2a81856103cf565b93602001610535565b346103335761038f61037d610a49366004610a10565b90612cad565b346103335761038f6103b9610a65366004610861565b92919091612388565b3461033357610a7e366004610393565b61038f6104b2613149565b908152606081019392610345929091604091610aa7905b6020830152565b0152565b346103335761038f610ac6610ac13660046103dc565b612ce6565b60405191939193849384610a89565b3461033357610ae5366004610393565b61038f6104b26116c3565b60ff811661032c565b9050359061034582610af0565b91906040838203126103335761035b90610b2081856103cf565b93602001610af9565b346103335761038f6103b9610b3f366004610b06565b9061242c565b909182601f830112156103335781359167ffffffffffffffff831161033357602001926001830284011161033357565b919060c08382031261033357610b8b81846103cf565b92610b998260208301610af9565b92610ba78360408401610535565b92606083013567ffffffffffffffff81116103335781610bc8918501610b45565b929093608081013567ffffffffffffffff81116103335783610beb918301610640565b9260a082013567ffffffffffffffff81116103335761035b9201610640565b346103335761038f6103b9610c20366004610b75565b959490949391936125ab565b919060808382031261033357610c4281846103cf565b92610c508260208301610af9565b92604082013567ffffffffffffffff81116103335783610c71918401610b45565b929093606082013567ffffffffffffffff81116103335761035b9201610640565b346103335761038f6103b9610ca8366004610c2c565b93929092612462565b346103335761038f6103b9610cc73660046103dc565b6132fa565b9160608383031261033357610ce182846103cf565b92610cef8360208301610af9565b92604082013567ffffffffffffffff811161033357610d0e9201610b45565b9091565b346103335761038f6103b9610d28366004610ccc565b9291909161244a565b9060808282031261033357813567ffffffffffffffff81116103335781610d59918401610762565b92602083013567ffffffffffffffff81116103335782610d7a9185016107ca565b92604081013567ffffffffffffffff8111610333578361068c918301610846565b346103335761038f6103b9610db1366004610d31565b92919091611a43565b906020828203126103335761035b91610535565b346103335761038f6103b9610de4366004610dba565b61351a565b90610e09610e02610df8845190565b8084529260200190565b9260200190565b9060005b818110610e1a5750505090565b909192610e37610e306001928651815260200190565b9460200190565b929101610e0d565b93959194610eaf610ea7610ed395610e99610ecc9561035b9c9a610e8c60e08c019260008d01907fff00000000000000000000000000000000000000000000000000000000000000169052565b8a820360208c0152610430565b9088820360408a0152610430565b976060870152565b73ffffffffffffffffffffffffffffffffffffffff166080850152565b60a0830152565b60c0818403910152610de9565b3461033357610ef0366004610393565b61038f610efb613b2a565b93610f0b97959793919360405190565b97889788610e3f565b9060808282031261033357610f2981836103cf565b92610f378260208501610af9565b9261068c8360408301610535565b346103335761038f6103b9610f5b366004610f14565b929190916124cb565b3461033357610f74366004610393565b61038f610f7f613005565b6040519182918265ffffffffffff909116815260200190565b3461033357610fa8366004610393565b61038f6103b9613305565b9160608383031261033357610fc88284610535565b92610fd683602083016103cf565b92604082013567ffffffffffffffff81116103335761035b9201610640565b346103335761038f6103b961100b366004610fb3565b91612421565b3461033357611021366004610393565b61038f6103b96132e8565b346103335761040861103f366004610dba565b612f25565b346103335761038f6103b961105a366004610861565b9291909161183c565b346103335761038f61037d6110793660046103dc565b50600190565b346103335761038f6103b96110953660046103dc565b6119c7565b34610333576110aa366004610393565b61038f6103b9614d34565b91909160a081840312610333576110cc8382610535565b926110da8160208401610535565b92604083013567ffffffffffffffff811161033357826110fb9185016107ca565b92606081013567ffffffffffffffff8111610333578361111c9183016107ca565b92608082013567ffffffffffffffff81116103335761035b9201610640565b346103335761038f6106ca6111513660046110b5565b93929092612a19565b346103335761038f6103b96111703660046103dc565b611945565b916060838303126103335761118a8284610535565b92610cef83602083016103cf565b6104086111a6366004611175565b929190916128a8565b346103335761038f6103b96111c5366004610861565b929190916117f2565b34610333576111de366004610393565b61038f6104f2612ee9565b34610333576111f9366004610393565b61038f6104b2612c86565b3461033357611214366004610393565b61038f7ff2aad550cf55f045cb27e9c559f9889fdfb6e6cdaa032301d6ea397784ae51d76103b9565b91906040838203126103335761035b906112578185610535565b936020016103cf565b346103335761038f6103b961127636600461123d565b906123f5565b91909160a081840312610333576112938382610535565b926112a18160208401610535565b926112af82604085016103cf565b9261111c83606083016103cf565b346103335761038f6106ca6112d336600461127c565b939290926129e2565b346103335761038f6103b96112f23660046103dc565b61330f565b6104be61035b61035b9273ffffffffffffffffffffffffffffffffffffffff1690565b61035b906112f7565b61035b9061131a565b61035e90611323565b602081019291610345919061132c565b3461033357611355366004610393565b6040518061038f7f000000000000000000000000000000000000000000000000000000000000000082611335565b61138b615639565b6113b461139a6104be30611323565b9173ffffffffffffffffffffffffffffffffffffffff1690565b036113bb57565b6040517fe90a651e000000000000000000000000000000000000000000000000000000008152600490fd5b0390fd5b7fcdbdfcee0000000000000000000000000000000000000000000000000000000090817fffffffff000000000000000000000000000000000000000000000000000000008216149182156114e3575b508115611497575b811561144b575090565b61035b91507fffffffff00000000000000000000000000000000000000000000000000000000167f01ffc9a7000000000000000000000000000000000000000000000000000000001490565b7fffffffff0000000000000000000000000000000000000000000000000000000081167f4e2312e000000000000000000000000000000000000000000000000000000000149150611441565b6115309192507fa8f8a66800000000000000000000000000000000000000000000000000000000187fffffffff000000000000000000000000000000000000000000000000000000001690565b7fffffffff000000000000000000000000000000000000000000000000000000008216149038611439565b7f4e487b7100000000000000000000000000000000000000000000000000000000600052602260045260246000fd5b90600160028304921680156115aa575b60208310146115a557565b61155b565b91607f169161159a565b805460009392916115d16115c78361158a565b8085529360200190565b916001811690811561162357506001146115ea57505050565b6115fd9192939450600052602060002090565b916000925b81841061160f5750500190565b805484840152602090930192600101611602565b92949550505060ff1916825215156020020190565b9061035b916115b4565b9061034561165c9261165360405190565b93848092611638565b0383610571565b61035b90611642565b61035b6003611663565b90611683610621836105ca565b918252565b6116926001611676565b7f3100000000000000000000000000000000000000000000000000000000000000602082015290565b61035b611688565b61035b6116bb565b906116da610e02610df8845190565b9060005b8181106116eb5750505090565b909192611717610e30600192865173ffffffffffffffffffffffffffffffffffffffff16815260200190565b9291016116de565b9061035b91610430565b9061173f611735835190565b8083529160200190565b90816117516020830284019460200190565b926000915b83831061176557505050505090565b909192939460206117886117818385600195038752895161171f565b9760200190565b9301930191939290611756565b949391610345936117c96117d7926117bb60609560808b01908b820360008d01526116cb565b9089820360208b0152610de9565b908782036040890152611729565b940152565b61035b61035b61035b9290565b61035b906117dc565b906118249161181861035b95611806600090565b50604051958694602086019485611795565b90810382520382610571565b61183661182f825190565b9160200190565b206117e9565b61035b939291906117f2565b90611852906117dc565b600052602052604060002090565b61035b9060a01c5b65ffffffffffff1690565b61035b9054611860565b61035b61035b61035b9265ffffffffffff1690565b6118b460006118ae61035b936118a6600090565b506004611848565b01611873565b61187d565b61035b9060d01c5b63ffffffff1690565b61035b90546118b9565b61186861035b61035b9263ffffffff1690565b7f4e487b7100000000000000000000000000000000000000000000000000000000600052601160045260246000fd5b61192f9065ffffffffffff165b9165ffffffffffff1690565b019065ffffffffffff821161194057565b6118e7565b6118b461035b91611954600090565b5061198261197d6000611977600494611971836118ae8389611848565b95611848565b016118ca565b6118d4565b90611916565b600061199961035b926118a6600090565b015473ffffffffffffffffffffffffffffffffffffffff1690565b61035b90611868565b61035b90546119b4565b6118b460016119db61035b936118a6600090565b016119bd565b61186861035b61035b9290565b6119ff9065ffffffffffff16611923565b90039065ffffffffffff821161194057565b73ffffffffffffffffffffffffffffffffffffffff9091168152606081019392610345929091604091610aa790610aa0565b939290913392611a5a611a568486612afc565b1590565b611af657611a66614d34565b95611a7160006117dc565b8711611a83575b61035b959650611dcf565b611aaa611aa46118b4611a94613005565b611a9e60016119e1565b906119ee565b866123f5565b96808810611ab85750611a78565b856113e68992611ac760405190565b9384937fc242ee1600000000000000000000000000000000000000000000000000000000855260048501611a11565b6113e684611b0360405190565b9182917fd9b395570000000000000000000000000000000000000000000000000000000083526004830173ffffffffffffffffffffffffffffffffffffffff909116815260200190565b908152606081019392610345929091604091610aa79060208301906109d0565b9190611b78565b9290565b820180921161194057565b9073ffffffffffffffffffffffffffffffffffffffff905b9181191691161790565b90611bb561035b611bbc92611323565b8254611b83565b9055565b9079ffffffffffff00000000000000000000000000000000000000009060a01b611b9b565b61186861035b61035b9265ffffffffffff1690565b90611c0a61035b611bbc92611be5565b8254611bc0565b907dffffffff00000000000000000000000000000000000000000000000000009060d01b611b9b565b6118c161035b61035b9263ffffffff1690565b90611c5d61035b611bbc92611c3a565b8254611c11565b90611683610621836106fd565b60005b828110611c8057505050565b606082820152602001611c74565b90610345611ca4611c9e84611c64565b936106fd565b7fffffffffffffffffffffffffffffffffffffffffffffffffffffffffffffffe00160208401611c71565b90611cdb611735835190565b9081611ced6020830284019460200190565b926000915b838310611d0157505050505090565b90919293946020611d1d6117818385600195038752895161171f565b9301930191939290611cf2565b9590611dc195611d9661035b9b999a96611d88611da494611dba98611d7b611db29960208f611d5f6101208201966000830152565b019073ffffffffffffffffffffffffffffffffffffffff169052565b8c820360408e01526116cb565b908a820360608c0152610de9565b9088820360808a0152611ccf565b9086820360a0880152611729565b9560c0850152565b60e0830152565b610100818403910152610430565b9194939192611dec81611de361182f825190565b2087848761183c565b918296611df7865190565b611e09611e0561035b855190565b9190565b14158015611fad575b8015611f97575b611f4f57600490611e2f60006118ae8785611848565b91600092611e3f611923856119e1565b03611f005790611efb94939291611eac611e70611e5a613005565b611e6b611e65614d1e565b9161187d565b611b6d565b93611e8061035b8a611971614d29565b01611e8b8a82611ba5565b611e9d611e97866142a2565b82611bfa565b611ea6836142ee565b90611c4d565b611ec6611ebf611eba8b5190565b611c8e565b9184611b6d565b937f7d84a6263ae0d98d3329bd7b46bb4e8d6f98cd35a7adb45c274c8b7fd5ebd5e099611ef260405190565b998a998a611d2a565b0390a1565b85906113e684611f18611f1285614d47565b916117dc565b90611f2260405190565b9485947f31b75e4d0000000000000000000000000000000000000000000000000000000086528501611b4d565b6113e6611f65611f60611f60895190565b935190565b6040519384937f447b05d000000000000000000000000000000000000000000000000000000000855260048501610a89565b508551611fa7611e0560006117dc565b14611e19565b508551611fbe611e0561035b845190565b1415611e12565b9065ffffffffffff90611b9b565b90611fe361035b611bbc92611be5565b8254611fc5565b61035e9061187d565b9081526040810192916103459160200190611fea565b91926120429193612018600090565b506120258282878761183c565b9460049461203b61203587612a69565b88612a91565b5086615090565b9061204d60006119e1565b65ffffffffffff8316146120af5781600161206b8561207194611848565b01611fd3565b6120a97f9a2e42fd6722813d69113e7d0079d3d940171428df7373df9c7f7617cfda28929161209f60405190565b9182918583611ff3565b0390a190565b6113e6906120bc60405190565b7f90884a46000000000000000000000000000000000000000000000000000000008152918291820190565b907eff0000000000000000000000000000000000000000000000000000000000009060f01b611b9b565b9061212161035b611bbc92151590565b82546120e7565b7fffffffffffffffffffffffffffffffffffffffffffffffffffffffffffffffff81146119405760010190565b7f4e487b7100000000000000000000000000000000000000000000000000000000600052603260045260246000fd5b9061218d825190565b81101561219e576020809102010190565b612155565b91926121b18185848661183c565b9384926004946121f06121c387612a69565b966121da6005986121d38a612a69565b1788612a91565b5060006121ea6001988993611848565b01612111565b6121f8615639565b9461220230611323565b9561222273ffffffffffffffffffffffffffffffffffffffff881661139a565b036122c4575b5090612236939291876153a7565b61225e61139a612244615639565b9273ffffffffffffffffffffffffffffffffffffffff1690565b1415806122b2575b6122a3575b507f712ae1383f79ac853f8d882153778e0260ef8f03b504e2866e0593e04d2b291f61229660405190565b82815280602081016120a9565b6122ac90614ccc565b3861226b565b506122bf611a5682614ce7565b612266565b806122cf60006117dc565b905b6122dc575b50612228565b6122e761035b845190565b81101561236e57806123196122ff6123429386612184565b5173ffffffffffffffffffffffffffffffffffffffff1690565b61233873ffffffffffffffffffffffffffffffffffffffff8a1661139a565b1461234857612128565b816122d1565b612369896123568389612184565b5161236261182f825190565b2090614b34565b612128565b6122d6565b90815260408101929161034591602090611d5f565b939291906123988383838861183c565b9433956123a8611a568883612c10565b6123b8575061035b949550615451565b86906113e66123c660405190565b9283927f8fe5d8a900000000000000000000000000000000000000000000000000000000845260048401612373565b61035b91612401612419565b91613219565b61035b6000611676565b61035b612407565b61035b612411565b61035b929190613219565b61035b9133612439612411565b926126a9565b61035b913691610611565b9161243961035b9461245a600090565b50339261243f565b9161247361035b959461245a600090565b9261274c565b90959492610345946124ae610aa7926124a460809661249d60a088019c6000890152565b6020870152565b60ff166040850152565b73ffffffffffffffffffffffffffffffffffffffff166060830152565b919392611a56612543916124dd600090565b5061253d61181861252c7ff2aad550cf55f045cb27e9c559f9889fdfb6e6cdaa032301d6ea397784ae51d76125118b613536565b9061251b60405190565b9384928d8b8d602087019586612479565b61253761182f825190565b20613931565b87613d58565b6125545761035b9293612439612411565b6113e68461256160405190565b9182917f94ab6c070000000000000000000000000000000000000000000000000000000083526004830173ffffffffffffffffffffffffffffffffffffffff909116815260200190565b93919695611a56612689916126838461252c89886118188f8e9c9a9c6125cf600090565b508b61260c6126067f3e83946653575f9a39005e1545185629e92736b7528ab20ca3816f315424a8119661260286613536565b9391565b9061243f565b61261761182f825190565b209161262461182f825190565b209261262f60405190565b988997602089019788908152602081019190915260ff909116604082015273ffffffffffffffffffffffffffffffffffffffff909116606082015260e081019493929091608083015260a082015260c00152565b8a613d58565b61269c5761035b9596916124739161243f565b6113e68761256160405190565b9161035b93916126b7600090565b506126c0612419565b9361274c565b936126f661035b96946126ef612703956126e560a08a019660008b0152565b60ff166020890152565b6040870152565b8482036060860152610430565b916080818403910152610430565b909261273f9061273861035b969461272e60808601976000870152565b60ff166020850152565b6040830152565b6060818403910152610430565b90919061276261275c6001612a69565b82612a91565b506127828561277a8161277485611892565b87613219565b848685612d9a565b9461278b815190565b612798611e0560006117dc565b036127e557506127df6127cb7fb8e138887d0aa13bab447e82de9d5c1777041ecd21ca36ba824ff1e6c07ddda494611323565b94866127d660405190565b94859485612711565b0390a290565b6127df906128137fe2babfbac5889a709b63bb7f598b324e08bc5a4fb9ec647fb3cbc9ec07eb871295611323565b958761281e60405190565b958695866126c6565b906103459392916128366128b4565b612874565b90916104829083908093610605565b909161035b9261283b565b3d1561286f576128643d611676565b903d6000602084013e565b606090565b6128a59360009392849361289361288a60405190565b9384928361284a565b03925af161289f612855565b906134ca565b50565b90610345939291612827565b6128bc615639565b33906128c78261139a565b0361291757506128d5615639565b6128e461139a6104be30611323565b036128eb57565b6128f6600036612606565b61290161182f825190565b205b61290d6005614c42565b8190036129035750565b6113e69061292460405190565b9182917f47096e470000000000000000000000000000000000000000000000000000000083526004830173ffffffffffffffffffffffffffffffffffffffff909116815260200190565b61298761298161035b9263ffffffff1690565b60e01b90565b7fffffffff000000000000000000000000000000000000000000000000000000001690565b505050506129b8600090565b506129c1615639565b6129d061139a6104be30611323565b036113bb5761035b63150b7a0261296e565b50505050506129ef600090565b506129f8615639565b612a0761139a6104be30611323565b036113bb5761035b63f23a6e6161296e565b5050505050612a26600090565b50612a2f615639565b612a3e61139a6104be30611323565b036113bb5761035b63bc197c8161296e565b61035b90612a64611e0561035b9460ff1690565b901b90565b612a8c61035b91612a78600090565b50612a87611f126001926109c7565b612a50565b6117dc565b612a9a81614d47565b9180612aa584612a69565b16612ab6611e0561035b60006117dc565b14612ac057505090565b6113e690612acd60405190565b9384937f31b75e4d00000000000000000000000000000000000000000000000000000000855260048501611b4d565b9080612b06825190565b916034612b12816117dc565b8410612c0657612b5d91612b30612b2b612b38936117dc565b860390565b016020015190565b7fffffffffffffffffffff000000000000000000000000000000000000000000001690565b7f2370726f706f7365723d00000000000000000000000000000000000000000000907fffffffffffffffffffff000000000000000000000000000000000000000000001603612bfe57612bcc91612bc691612bc0612bbb602a6117dc565b830390565b906135b2565b91901590565b918215612bd857505090565b909150612bfa9073ffffffffffffffffffffffffffffffffffffffff1661139a565b1490565b505050600190565b5050505050600190565b90612c1a82614d47565b612c2d612c2760006109bd565b916109bd565b149182612c3957505090565b612bfa9192506104be61139a91611988565b612c556020611676565b7f737570706f72743d627261766f2671756f72756d3d666f722c6162737461696e602082015290565b61035b612c4b565b61035b612c7e565b9061185290611323565b61035b905b60ff1690565b61035b9054612c98565b61035b916003612cca612cd093612cc2600090565b506007611848565b01612c8e565b612ca3565b61035b9081565b61035b9054612cd5565b61035b612cf591612cc2600090565b90612cff82612cdc565b90612d186002612d1160018601612cdc565b9401612cdc565b91929190565b9060ff90611b9b565b90612d3761035b611bbc92151590565b8254612d1e565b600311156109b857565b9061034582612d3e565b61035b90612d48565b907fffffffffffffffffffffffffffffffffffffffffffffffffffffffffffffffff90611b9b565b90612d9361035b611bbc926117dc565b8254612d5b565b612dad9193945061035b90612cc2600090565b9160038301612dbf612cd08383612c8e565b612e9257612dd990612dd46001938492612c8e565b612d27565b600091612de8612c9d84612d52565b60ff821603612e0b57505061035b9101612e0583611e6b83612cdc565b90612d83565b909150612e1a612c9d83612d52565b60ff821603612e36575061035b9101612e0583611e6b83612cdc565b60029150612e50612e49612c9d84612d52565b9160ff1690565b03612e675761035b9101612e0583611e6b83612cdc565b6040517f06b337c2000000000000000000000000000000000000000000000000000000008152600490fd5b6113e682612e9f60405190565b9182917f71c6af490000000000000000000000000000000000000000000000000000000083526004830173ffffffffffffffffffffffffffffffffffffffff909116815260200190565b61035b612f0b60095473ffffffffffffffffffffffffffffffffffffffff1690565b611323565b61034590612f1c6128b4565b61034590612f5a565b61034590612f10565b73ffffffffffffffffffffffffffffffffffffffff909116815260408101929161034591602090611d5f565b61034590612f80612f0b60095473ffffffffffffffffffffffffffffffffffffffff1690565b612f8982611323565b7f08f74ea46ef7894f65eabfb5e6e695de773a000b47c529ab559178069b22640191612fc0612fb760405190565b92839283612f2e565b0390a16009611ba5565b65ffffffffffff811661032c565b9050519061034582612fca565b906020828203126103335761035b91612fd8565b6040513d6000823e3d90fd5b60009061304e60206130367f0000000000000000000000000000000000000000000000000000000000000000611323565b6391ddadf49061304560405190565b93849260e01b90565b825260049082905afa60009181613074575b506130705750905061035b614d15565b9150565b61309691925060203d811161309d575b61308e8183610571565b810190612fe5565b9038613060565b503d613084565b909291926130b4610621826105ca565b93818552602085019082840111610333576103459261040d565b9080601f8301121561033357815161035b926020016130a4565b9060208282031261033357815167ffffffffffffffff81116103335761035b92016130ce565b613118601d611676565b7f6d6f64653d626c6f636b6e756d6265722666726f6d3d64656661756c74000000602082015290565b61035b61310e565b606090613189600061317a7f0000000000000000000000000000000000000000000000000000000000000000611323565b634bf5d7e99061304560405190565b825260049082905afa600091816131ab575b506130705750905061035b613141565b6131c791923d8091833e6131bf8183610571565b8101906130e8565b903861319b565b90505190610345826103c9565b906020828203126103335761035b916131ce565b73ffffffffffffffffffffffffffffffffffffffff90911681526040810192916103459160200152565b6020919250613226600090565b506132507f0000000000000000000000000000000000000000000000000000000000000000611323565b613271633a46b1a861327c61326460405190565b9687958694859460e01b90565b8452600484016131ef565b03915afa9081156132ba57600091613292575090565b61035b915060203d81116132b3575b6132ab8183610571565b8101906131db565b503d6132a1565b612ff9565b61035b61035b61035b9279ffffffffffffffffffffffffffffffffffffffffffffffffffff1690565b61035b6132f5600861469a565b6132bf565b61035b906008613490565b61035b60646117dc565b61335690602061333e7f0000000000000000000000000000000000000000000000000000000000000000611323565b638e539e8c9061334d60405190565b94859260e01b90565b82526004820184905260249082905afa9081156132ba5761035b92600092613391575b50613383906132fa565b61338b613305565b91614052565b6133839192506133ae9060203d81116132b3576132ab8183610571565b9190613379565b610345906133c16128b4565b610345906133e6565b610345906133b5565b9081526040810192916103459160200152565b6133ee613305565b80821161345457506133fe6132e8565b9061341b600861340c613005565b61341584614233565b91614318565b50507f0553476bf02ef2726e8ce5ced78d63e26e602e4a2257b1f559418e24b463399791611efb61344b60405190565b928392836133d3565b906113e661346160405190565b9283927f243e5445000000000000000000000000000000000000000000000000000000008452600484016133d3565b61035b919061349e816146d5565b9391506134aa82611e65565b116134b65750506132bf565b6132f592506134c4906142a2565b9061434b565b909190610345575080516134e1611e0560006117dc565b11156134ef57805190602001fd5b6040517fd6bda275000000000000000000000000000000000000000000000000000000008152600490fd5b61353161035b91613529600090565b506002612c8e565b612cdc565b613541906000613529565b61035b61354d82612cdc565b9160018301612e05565b6104be61035b61035b9290565b61035b90613557565b7fffff0000000000000000000000000000000000000000000000000000000000001690565b8181029291811591840414171561194057565b9190820391821161194057565b806135be61035b825190565b841180156136c7575b6136b75761361290836135e661035b6135e060016117dc565b83611b6d565b86119182613655575b5050611e6b611f12613602602893151590565b61360c60026117dc565b90613592565b613622611e05611b7485876135a5565b0361364657613641939261035b92613639926136ed565b939093613557565b61131a565b50505060009061035b82613564565b0160200151613664915061356d565b6136af7f30780000000000000000000000000000000000000000000000000000000000005b917fffff0000000000000000000000000000000000000000000000000000000000001690565b1483386135ef565b5050505060009061035b82613564565b508383116135c7565b612c9d61035b61035b9290565b61035b61035b61035b9260ff1690565b909291906136fc9060005b5090565b600191829161371661035b613710856117dc565b88611b6d565b8211806137f7575b613729901515613602565b9161373f600093613739856117dc565b98611b6d565b935b61374e575b505050509190565b909192956137598290565b8710156137f15761379d6137986137738986016020015190565b7fff000000000000000000000000000000000000000000000000000000000000001690565b61385f565b906137a8600f6136d0565b60ff8316116137df576137d386959493926104826137cd6137d99461360c60106117dc565b916136dd565b97612128565b93613741565b5050505080935061035b9150926117dc565b95613746565b5061372961360261380e61356d8985016020015190565b61383a6136897f307800000000000000000000000000000000000000000000000000000000000061356d565b1491505061371e565b612c9d61035b61035b9260ff1690565b61035b9060f81c613843565b61386890613853565b80613873602f6136d0565b60ff8316118061391c575b1561389a5761035b915061389260306136d0565b900360ff1690565b6138a460606136d0565b60ff83161180613907575b156138c35761035b915061389260576136d0565b506138ce60406136d0565b60ff821611806138f2575b156138ec5761035b9061389260376136d0565b5060ff90565b506138fd60476136d0565b60ff8216106138d9565b5061391260676136d0565b60ff8316106138af565b50613927603a6136d0565b60ff83161061387e565b61035b9061393d613975565b604291604051917f19010000000000000000000000000000000000000000000000000000000000008352600283015260228201522090565b61397e30611323565b6139bd73ffffffffffffffffffffffffffffffffffffffff7f00000000000000000000000000000000000000000000000000000000000000001661139a565b14806139f5575b156139ed577f000000000000000000000000000000000000000000000000000000000000000090565b61035b613a50565b507f000000000000000000000000000000000000000000000000000000000000000046146139c4565b9095949261034594613a49611d5f92613a4260809661249d60a088019c6000890152565b6040850152565b6060830152565b7f0000000000000000000000000000000000000000000000000000000000000000613adb7f00000000000000000000000000000000000000000000000000000000000000007f8b73c3c69bb8fe3d512ecc4cf759cc79239f7b179b0ffacaa9a75d522b39400f61181846613ac330611323565b90613acd60405190565b968795602087019586613a1e565b613ae661182f825190565b2090565b369037565b90610345613aff611c9e84611c64565b7fffffffffffffffffffffffffffffffffffffffffffffffffffffffffffffffe00160208401613aea565b613b32613b8e565b90613b3b613d19565b904690613b4730611323565b90600090613b65613b60613b5a846117dc565b936117dc565b613aef565b7f0f00000000000000000000000000000000000000000000000000000000000000969594939291565b61035b7f000000000000000000000000000000000000000000000000000000000000000060005b90613c57565b61035b60ff6117dc565b80546000939291613bd86115c78361158a565b91600181169081156116235750600114613bf157505050565b613c049192939450600052602060002090565b916000925b818410613c165750500190565b805484840152602090930192600101613c09565b9061035b91613bc5565b9061034561165c92613c4560405190565b93848092613c2a565b61035b90613c34565b9081613c67611e0561035b613bbb565b14613c76575061035b90613c96565b61035b9150613c4e565b90610345613aff613c9084611676565b936105ca565b613c9f81613cbc565b906020613cb3613cae826117dc565b613c80565b92835282015290565b613ccb613cd0916136f8600090565b6117e9565b613cda60ff6117dc565b16613ce5601f6117dc565b8111613cee5790565b6040517fb3512b0c000000000000000000000000000000000000000000000000000000008152600490fd5b61035b7f00000000000000000000000000000000000000000000000000000000000000006001613bb5565b600411156109b857565b9061034582613d44565b91600091833b613d6a611e05856117dc565b03613d9a57613d7f613d8892613d8e92613da6565b50929093613d4e565b91613d4e565b149182612bd857505090565b90915061035b92613f1a565b9190600092613db3825190565b613dc0611e0560416117dc565b03613df457613ded929350613dd3600090565b506020820151906060604084015193015160001a90613e2e565b9192909190565b509150613e016000613564565b90612d18612a8c6002945190565b610aa76103459461273860609498979561272e608086019a6000870152565b9091613e39846117e9565b613e65611e057f7fffffffffffffffffffffffffffffff5d576e7357a4501ddfe92f46681b20a06117dc565b11613eee5790613e8760209460009493613e7e60405190565b94859485613e0f565b838052039060015afa156132ba57600051600091613ea483613564565b73ffffffffffffffffffffffffffffffffffffffff811673ffffffffffffffffffffffffffffffffffffffff841614613ee15750612d18836117dc565b9150612d186001936117dc565b505050613efb6000613564565b9160039190565b90815260406020820181905261035b92910190610430565b600092613f788493613f2a600090565b50613f69613f3760405190565b9384926004602085017f1626ba7e00000000000000000000000000000000000000000000000000000000815201613f02565b60208201810382520382610571565b602081019051915afa613f89612855565b81613fe1575b81613f98575090565b613fb291506020613fa7825190565b8183010191016131db565b612bfa611e0561035b7f1626ba7e00000000000000000000000000000000000000000000000000000000612987565b9050613feb815190565b613ff8611e0560206117dc565b101590613f8f565b7f4e487b7100000000000000000000000000000000000000000000000000000000600052601260045260246000fd5b8115614039570490565b614000565b61035b60126117dc565b61035b60116117dc565b906000916140608282614195565b92909160009461406f866117dc565b841461417557838711156141495786959361035b976140bf946140d2979460019450099083821190039203956140ac816140a8876117dc565b0390565b8116908180928192049804950304010290565b17916140d26140d6826140d260036117dc565b0290565b6140a8611f126141436141346141256141166141076002976140f7896117dc565b186140d28b82026140a88b6117dc565b6140d28a82026140a88a6117dc565b6140d28982026140a8896117dc565b6140d28882026140a8886117dc565b6140d28782026140a8876117dc565b80950290565b61417087614159611e05896117dc565b1461416261403e565b61416a614048565b916141c7565b614184565b5050505061035b92915061402f565b634e487b716000526020526024601cfd5b907fffffffffffffffffffffffffffffffffffffffffffffffffffffffffffffffff8183099102908180821091030391565b6140d2836141df936141d7600090565b501891151590565b1890565b61035e906136d0565b916020610345929493610aa7604082019660008301906141e3565b61421461035b61035b9290565b79ffffffffffffffffffffffffffffffffffffffffffffffffffff1690565b61425679ffffffffffffffffffffffffffffffffffffffffffffffffffff6132bf565b81116142655761035b90614207565b60d06113e661427360405190565b9283927f6dfcc650000000000000000000000000000000000000000000000000000000008452600484016141ec565b6142b165ffffffffffff61187d565b81116142c05761035b906119e1565b60306113e661427360405190565b61035b61035b61035b9263ffffffff1690565b6118c161035b61035b9290565b6142fb63ffffffff6142ce565b811161430a5761035b906142e1565b60206113e661427360405190565b906143306000610d0e949361432b600090565b500190565b614881565b61035b9060301c614214565b61035b9054614335565b80546143799060009361435d856117dc565b908261436960056117dc565b81116143cd575b508486016149cf565b614382836117dc565b8160009391036143985750505061035b90614207565b61035b9350906143bb611e05846143c79401926143b560016117dc565b906135a5565b60005260206000200190565b01614341565b806143b56143dd9295939561443f565b906143f1611868886119db858a83016143bb565b65ffffffffffff851610156144095750915b38614370565b9291506144209061441a60016117dc565b90611b6d565b90614403565b61035b9061443a611e0561035b9460ff1690565b901c90565b600161444a816117dc565b8211156136f857906145a56145a061035b61459961456561456561458f61456a6145656145856145656145658c61048261035b9f61455b61456561457461457e9361454b6145458861449b846117dc565b906144b67001000000000000000000000000000000006117dc565b8b1015614672575b6144d0680100000000000000006117dc565b811015614650575b6144e66401000000006117dc565b81101561462e575b6144fa620100006117dc565b81101561460c575b61450d6101006117dc565b8110156145ea575b61451f60106117dc565b8110156145c2575b614534611e0560046117dc565b10156145aa575b6140d260036117dc565b916136d0565b9e8f9c8d809b8197828096614426565b610482818d61402f565b614426565b610482818a61402f565b610482818761402f565b809261402f565b610482818c61402f565b610482818961402f565b809461402f565b821190565b900390565b6145bd906145b7856136d0565b90612a50565b61453b565b6145d96145e4916145d360046136d0565b90614426565b916145b760026136d0565b90614527565b6145fb614606916145d360086136d0565b916145b760046136d0565b90614515565b61461d614628916145d360106136d0565b916145b760086136d0565b90614502565b61463f61464a916145d360206136d0565b916145b760106136d0565b906144ee565b61466161466c916145d360406136d0565b916145b760206136d0565b906144d8565b5061469461468961468360806136d0565b8c614426565b916145b760406136d0565b906144be565b8054906000906146a9826117dc565b83036146ba575061035b9150614207565b61035b926143bb611e05846143c79401926143b560016117dc565b8054906000906146e4826117dc565b830361470157508091509161035b6146fb836119e1565b92614207565b8161471991016143bb611e056001956143b5876117dc565b0191612d18614727846119bd565b93614341565b61035b60406105b6565b805482101561219e57614751600191600052602060002090565b91020190600090565b7f4e487b7100000000000000000000000000000000000000000000000000000000600052600060045260246000fd5b907fffffffffffffffffffffffffffffffffffffffffffffffffffff0000000000009060301b611b9b565b61421461035b61035b9279ffffffffffffffffffffffffffffffffffffffffffffffffffff1690565b906147ed61035b611bbc926147b4565b8254614789565b6103459161483990602090614818614812825165ffffffffffff1690565b85611fd3565b015179ffffffffffffffffffffffffffffffffffffffffffffffffffff1690565b906147dd565b919061484e57610345916147f4565b61475a565b90815491680100000000000000008310156105b1578261487b91600161034595018155614737565b9061483f565b919291908154600090614893826117dc565b81111561497e576148b96148ac83926143b560016117dc565b8560005260206000200190565b016148c3816119bd565b916148cd82614341565b9465ffffffffffff851665ffffffffffff8516116149535787936148f865ffffffffffff8716611923565b03614909575050611e0592506147dd565b9150915061492c611e059361491c61472d565b9384019065ffffffffffff169052565b79ffffffffffffffffffffffffffffffffffffffffffffffffffff86166020830152614853565b6040517f2520601d000000000000000000000000000000000000000000000000000000008152600490fd5b50906149ca90611e05936149a361499361472d565b65ffffffffffff90931685840152565b79ffffffffffffffffffffffffffffffffffffffffffffffffffff87166020830152614853565b614207565b939190926149db600090565b505b80821015614a3d576149ef8183614a45565b90614a0660006119db848960005260206000200190565b614a1765ffffffffffff8716611923565b1115614a265750915b916149dd565b929150614a379061441a60016117dc565b90614a20565b925050915090565b61441a61035b92614a54600090565b508083169218614a6460026117dc565b9061402f565b61035b9060801c5b6fffffffffffffffffffffffffffffffff1690565b61035b9054614a6a565b614a7261035b61035b9290565b61035b90614a72565b61035b9054614a9e565b61035b60416117dc565b614a7261035b61035b926fffffffffffffffffffffffffffffffff1690565b9061185290614abb565b90612d9361035b611bbc9290565b907fffffffffffffffffffffffffffffffff000000000000000000000000000000009060801b611b9b565b90614b2d61035b611bbc92614abb565b8254614af2565b80614b3e81614a87565b92600190614b65614b4e83614a91565b86016fffffffffffffffffffffffffffffffff1690565b93614b72614a7285614aa7565b6fffffffffffffffffffffffffffffffff861614614ba65761034595614ba193614b9c9201614ada565b614ae4565b614b1d565b614170614ab1565b61035b60316117dc565b91906008611b9b910291614beb7fffffffffffffffffffffffffffffffffffffffffffffffffffffffffffffffff841b90565b921b90565b9190614bff61035b611bbc9390565b908354614bb8565b61034591600091614bf0565b906fffffffffffffffffffffffffffffffff90611b9b565b90614c3b61035b611bbc92614abb565b8254614c13565b9081614c4d81614aa7565b92614c5a614a7282614a87565b6fffffffffffffffffffffffffffffffff851614614cc457614cbe6001610345930194614c9e6000614c9983614c93613531828c614ada565b99614ada565b614c07565b614ca86001614a91565b016fffffffffffffffffffffffffffffffff1690565b90614c2b565b614170614bae565b610345906000614cdb81614a91565b9101614ba18282614c2b565b612bfa614cff614a72614cf984614a87565b93614aa7565b916fffffffffffffffffffffffffffffffff1690565b61035b436142a2565b61035b611c206117dc565b61035b61c4e06117dc565b61035b69152d02c7e14af68000006117dc565b61035b90614d79565b80151561032c565b9050519061034582614d50565b906020828203126103335761035b91614d58565b614d8281614f02565b90600591614d8f836109bd565b614d98826109bd565b03614ed05750613531614dac91600a611848565b614de26020614dd3612f0b60095473ffffffffffffffffffffffffffffffffffffffff1690565b63584b153e9061304560405190565b82526004820185905260249082905afa9081156132ba57600091614eb2575b5015614e0b575090565b614e619150602090614e35612f0b60095473ffffffffffffffffffffffffffffffffffffffff1690565b614e53632ab0f529614e4660405190565b9586948593849360e01b90565b835260048301526024820190565b03915afa9081156132ba57600091614e84575b5015614e7f57600790565b600290565b614ea5915060203d8111614eab575b614e9d8183610571565b810190614d65565b38614e74565b503d614e93565b614eca915060203d8111614eab57614e9d8183610571565b38614e01565b91505090565b61035b9060f01c612c9d565b61035b9054614ed6565b61035b9060f81c612c9d565b61035b9054614eec565b6004906000614f1461035b8385611848565b01614f27614f2182614ee2565b91614ef8565b9061501d5761501657614f3981611892565b90600091614f46836117dc565b8114614fd757614f576118b4613005565b90811115614fd057614f6e611e05611b7484611945565b10614f7b57505050600190565b614f87611a5682615025565b8015614fbe575b15614f9b57505050600390565b611e05614faa614fb0926119c7565b926117dc565b03614fb85790565b50600590565b50614fcb611a5682615066565b614f8e565b5050905090565b50826113e6614fe560405190565b9283927f6ad06075000000000000000000000000000000000000000000000000000000008452830190815260200190565b5050600290565b505050600790565b615061611e0561035b6150486112f261504261035b876007611848565b95611892565b9361441a600261505a60018401612cdc565b9201612cdc565b111590565b61035b61507591612cc2600090565b61508c611e0561035b6000612d1160018601612cdc565b1190565b61035b9493929190615154565b61035e906117dc565b906150ec610345959796946150de6080956150d0610aa79560a088019088820360008a01526116cb565b908682036020880152610de9565b908482036040860152611729565b96606083019061509d565b919461514d61514260a09561513461034599615126610aa7979d9c9a9d60c08a01908a820360008c01526116cb565b9088820360208a0152610de9565b908682036040880152611729565b98606085019061509d565b6080830152565b92906151a09294615163600090565b506020615188612f0b60095473ffffffffffffffffffffffffffffffffffffffff1690565b63f27a0c929061519760405190565b96879260e01b90565b825260049082905afa9384156132ba57600094615313575b506151c29061538e565b826151e5612f0b60095473ffffffffffffffffffffffffffffffffffffffff1690565b9560208863b1c5f4279861521060009a61521c888d61520360405190565b998a978896879660e01b90565b86528d600487016150a6565b03915afa9081156132ba5761523f926000926152ef575b50614b9c90600a611848565b615261612f0b60095473ffffffffffffffffffffffffffffffffffffffff1690565b90638f2a0bb093823b1561033357869461529d876152929488809561528560405190565b9d8e9a8b998a9860e01b90565b8852600488016150f7565b03925af19182156132ba5761035b936152bd936152c2575b505042611b6d565b6142a2565b816152e192903d106152e8575b6152d98183610571565b810190610393565b38806152b5565b503d6152cf565b614b9c91925061530c9060203d81116132b3576132ab8183610571565b9190615233565b6151c29194506153309060203d81116132b3576132ab8183610571565b93906151b8565b61536061535a61035b9273ffffffffffffffffffffffffffffffffffffffff1690565b60601b90565b7fffffffffffffffffffffffffffffffffffffffff0000000000000000000000001690565b61035b90615337565b6141df6153a261539d30611323565b615385565b615360565b61034594929390916153d1612f0b60095473ffffffffffffffffffffffffffffffffffffffff1690565b63e38335e5346153e260009761538e565b91833b156103335761541561540a938980986153fd60405190565b9c8d998a98899760e01b90565b8752600487016150a6565b03925af19081156132ba5761034593614c9992615435575b50600a611848565b61544b90843d86116152e8576152d98183610571565b3861542d565b61035b9361546293909290916155b8565b600a6154716135318383611848565b60009061547d826117dc565b810361548a575b50505090565b6154ac612f0b60095473ffffffffffffffffffffffffffffffffffffffff1690565b9063c4d252f590823b15610333576154da92614e538580946154cd60405190565b9687958694859360e01b90565b03925af180156132ba576154f993614c99928692615501575b50611848565b388080615484565b61551790853d87116152e8576152d98183610571565b386154f3565b6155299060ff16612e49565b019060ff821161194057565b60ff1660ff81116119405760020a90565b61035b612a8c61555660076109c7565b6143b5611f1261557160019361556b856136d0565b9061551d565b615535565b907fff000000000000000000000000000000000000000000000000000000000000009060f81b611b9b565b906155b161035b611bbc92151590565b8254615576565b6155c49392919061183c565b6155f66155cf615546565b6155d96002612a69565b186155e46006612a69565b186155ef6007612a69565b1882612a91565b5061560f60016000615609846004611848565b016155a1565b7f789cf55be980739dad1d0699b93b58e806b51c9d96619bfa8fe0a28abaa7b30c61229660405190565b61035b612ee956fea26469706673582212205fdcec8c505f4bd2d2c19eeb0cc06c9468b77d18ca8f1e5a1818c12ee27adc6364736f6c63430008140033",
  "linkReferences": {},
  "deployedLinkReferences": {}
}