{
  "_format": "hh-sol-artifact-1",
  "contractName": "BoingToken",
  "sourceName": "contracts/BoingToken.sol",
  "abi": [
    {
      "inputs": [
        {
          "internalType": "address",
          "name": "initialOwner",
          "type": "address"
        }
      ],
      "stateMutability": "nonpayable",
      "type": "constructor"
    },
    {
      "inputs": [],
      "name": "CheckpointUnorderedInsertion",
      "type": "error"
    },
    {
      "inputs": [],
      "name": "ECDSAInvalidSignature",
      "type": "error"
    },
    {
      "inputs": [
        {
          "internalType": "uint256",
          "name": "length",
          "type": "uint256"
        }
      ],
      "name": "ECDSAInvalidSignatureLength",
      "type": "error"
    },
    {
      "inputs": [
        {
          "internalType": "bytes32",
          "name": "s",
          "type": "bytes32"
        }
      ],
      "name": "ECDSAInvalidSignatureS",
      "type": "error"
    },
    {
      "inputs": [
        {
          "internalType": "uint256",
          "name": "increasedSupply",
          "type": "uint256"
        },
        {
          "internalType": "uint256",
          "name": "cap",
          "type": "uint256"
        }
      ],
      "name": "ERC20ExceededSafeSupply",
      "type": "error"
    },
    {
      "inputs": [
        {
          "internalType": "address",
          "name": "spender",
          "type": "address"
        },
        {
          "internalType": "uint256",
          "name": "allowance",
          "type": "uint256"
        },
        {
          "internalType": "uint256",
          "name": "needed",
          "type": "uint256"
        }
      ],
      "name": "ERC20InsufficientAllowance",
      "type": "error"
    },
    {
      "inputs": [
        {
          "internalType": "address",
          "name": "sender",
          "type": "address"
        },
        {
          "internalType": "uint256",
          "name": "balance",
          "type": "uint256"
        },
        {
          "internalType": "uint256",
          "name": "needed",
          "type": "uint256"
        }
      ],
      "name": "ERC20InsufficientBalance",
      "type": "error"
    },
    {
      "inputs": [
        {
          "internalType": "address",
          "name": "approver",
          "type": "address"
        }
      ],
      "name": "ERC20InvalidApprover",
      "type": "error"
    },
    {
      "inputs": [
        {
          "internalType": "address",
          "name": "receiver",
          "type": "address"
        }
      ],
      "name": "ERC20InvalidReceiver",
      "type": "error"
    },
    {
      "inputs": [
        {
          "internalType": "address",
          "name": "sender",
          "type": "address"
        }
      ],
      "name": "ERC20InvalidSender",
      "type": "error"
    },
    {
      "inputs": [
        {
          "internalType": "address",
          "name": "spender",
          "type": "address"
        }
      ],
      "name": "ERC20InvalidSpender",
      "type": "error"
    },
    {
      "inputs": [
        {
          "internalType": "uint256",
          "name": "deadline",
          "type": "uint256"
        }
      ],
      "name": "ERC2612ExpiredSignature",
      "type": "error"
    },
    {
      "inputs": [
        {
          "internalType": "address",
          "name": "signer",
          "type": "address"
        },
        {
          "internalType": "address",
          "name": "owner",
          "type": "address"
        }
      ],
      "name": "ERC2612InvalidSigner",
      "type": "error"
    },
    {
      "inputs": [
        {
          "internalType": "uint256",
          "name": "timepoint",
          "type": "uint256"
        },
        {
          "internalType": "uint48",
          "name": "clock",
          "type": "uint48"
        }
      ],
      "name": "ERC5805FutureLookup",
      "type": "error"
    },
    {
      "inputs": [],
      "name": "ERC6372InconsistentClock",
      "type": "error"
    },
    {
      "inputs": [
        {
          "internalType": "address",
          "name": "account",
          "type": "address"
        },
        {
          "internalType": "uint256",
          "name": "currentNonce",
          "type": "uint256"
        }
      ],
      "name": "InvalidAccountNonce",
      "type": "error"
    },
    {
      "inputs": [],
      "name": "InvalidShortString",
      "type": "error"
    },
    {
      "inputs": [
        {
          "internalType": "address",
          "name": "owner",
          "type": "address"
        }
      ],
      "name": "OwnableInvalidOwner",
      "type": "error"
    },
    {
      "inputs": [
        {
          "internalType": "address",
          "name": "account",
          "type": "address"
        }
      ],
      "name": "OwnableUnauthorizedAccount",
      "type": "error"
    },
    {
      "inputs": [
        {
          "internalType": "uint8",
          "name": "bits",
          "type": "uint8"
        },
        {
          "internalType": "uint256",
          "name": "value",
          "type": "uint256"
        }
      ],
      "name": "SafeCastOverflowedUintDowncast",
      "type": "error"
    },
    {
      "inputs": [
        {
          "internalType": "string",
          "name": "str",
          "type": "string"
        }
      ],
      "name": "StringTooLong",
      "type": "error"
    },
    {
      "inputs": [
        {
          "internalType": "uint256",
          "name": "expiry",
          "type": "uint256"
        }
      ],
      "name": "VotesExpiredSignature",
      "type": "error"
    },
    {
      "anonymous": false,
      "inputs": [
        {
          "indexed": true,
          "internalType": "address",
          "name": "owner",
          "type": "address"
        },
        {
          "indexed": true,
          "internalType": "address",
          "name": "spender",
          "type": "address"
        },
        {
          "indexed": false,
          "internalType": "uint256",
          "name": "value",
          "type": "uint256"
        }
      ],
      "name": "Approval",
      "type": "event"
    },
    {
      "anonymous": false,
      "inputs": [
        {
          "indexed": true,
          "internalType": "address",
          "name": "delegator",
          "type": "address"
        },
        {
          "indexed": true,
          "internalType": "address",
          "name": "fromDelegate",
          "type": "address"
        },
        {
          "indexed": true,
          "internalType": "address",
          "name": "toDelegate",
          "type": "address"
        }
      ],
      "name": "DelegateChanged",
      "type": "event"
    },
    {
      "anonymous": false,
      "inputs": [
        {
          "indexed": true,
          "internalType": "address",
          "name": "delegate",
          "type": "address"
        },
        {
          "indexed": false,
          "internalType": "uint256",
          "name": "previousVotes",
          "type": "uint256"
        },
        {
          "indexed": false,
          "internalType": "uint256",
          "name": "newVotes",
          "type": "uint256"
        }
      ],
      "name": "DelegateVotesChanged",
      "type": "event"
    },
    {
      "anonymous": false,
      "inputs": [],
      "name": "EIP712DomainChanged",
      "type": "event"
    },
    {
      "anonymous": false,
      "inputs": [
        {
          "indexed": true,
          "internalType": "address",
          "name": "previousOwner",
          "type": "address"
        },
        {
          "indexed": true,
          "internalType": "address",
          "name": "newOwner",
          "type": "address"
        }
      ],
      "name": "OwnershipTransferred",
      "type": "event"
    },
    {
      "anonymous": false,
      "inputs": [
        {
          "indexed": true,
          "internalType": "address",
          "name": "from",
          "type": "address"
        },
        {
          "indexed": true,
          "internalType": "address",
          "name": "to",
          "type": "address"
        },
        {
          "indexed": false,
          "internalType": "uint256",
          "name": "value",
          "type": "uint256"
        }
      ],
      "name": "Transfer",
      "type": "event"
    },
    {
      "inputs": [],
      "name": "CLOCK_MODE",
      "outputs": [
        {
          "internalType": "string",
          "name": "",
          "type": "string"
        }
      ],
      "stateMutability": "view",
      "type": "function"
    },
    {
      "inputs": [],
      "name": "DOMAIN_SEPARATOR",
      "outputs": [
        {
          "internalType": "bytes32",
          "name": "",
          "type": "bytes32"
        }
      ],
      "stateMutability": "view",
      "type": "function"
    },
    {
      "inputs": [],
      "name": "MAX_SUPPLY",
      "outputs": [
        {
          "internalType": "uint256",
          "name": "",
          "type": "uint256"
        }
      ],
      "stateMutability": "view",
      "type": "function"
    },
    {
      "inputs": [
        {
          "internalType": "address",
          "name": "owner",
          "type": "address"
        },
        {
          "internalType": "address",
          "name": "spender",
          "type": "address"
        }
      ],
      "name": "allowance",
      "outputs": [
        {
          "internalType": "uint256",
          "name": "",
          "type": "uint256"
        }
      ],
      "stateMutability": "view",
      "type": "function"
    },
    {
      "inputs": [
        {
          "internalType": "address",
          "name": "spender",
          "type": "address"
        },
        {
          "internalType": "uint256",
          "name": "value",
          "type": "uint256"
        }
      ],
      "name": "approve",
      "outputs": [
        {
          "internalType": "bool",
          "name": "",
          "type": "bool"
        }
      ],
      "stateMutability": "nonpayable",
      "type": "function"
    },
    {
      "inputs": [
        {
          "internalType": "address",
          "name": "account",
          "type": "address"
        }
      ],
      "name": "balanceOf",
      "outputs": [
        {
          "internalType": "uint256",
          "name": "",
          "type": "uint256"
        }
      ],
      "stateMutability": "view",
      "type": "function"
    },
    {
      "inputs": [
        {
          "internalType": "address",
          "name": "account",
          "type": "address"
        },
        {
          "internalType": "uint32",
          "name": "pos",
          "type": "uint32"
        }
      ],
      "name": "checkpoints",
      "outputs": [
        {
          "components": [
            {
              "internalType": "uint48",
              "name": "_key",
              "type": "uint48"
            },
            {
              "internalType": "uint208",
              "name": "_value",
              "type": "uint208"
            }
          ],
          "internalType": "struct Checkpoints.Checkpoint208",
          "name": "",
          "type": "tuple"
        }
      ],
      "stateMutability": "view",
      "type": "function"
    },
    {
      "inputs": [],
      "name": "clock",
      "outputs": [
        {
          "internalType": "uint48",
          "name": "",
          "type": "uint48"
        }
      ],
      "stateMutability": "view",
      "type": "function"
    },
    {
      "inputs": [],
      "name": "decimals",
      "outputs": [
        {
          "internalType": "uint8",
          "name": "",
          "type": "uint8"
        }
      ],
      "stateMutability": "view",
      "type": "function"
    },
    {
      "inputs": [
        {
          "internalType": "address",
          "name": "delegatee",
          "type": "address"
        }
      ],
      "name": "delegate",
      "outputs": [],
      "stateMutability": "nonpayable",
      "type": "function"
    },
    {
      "inputs": [
        {
          "internalType": "address",
          "name": "delegatee",
          "type": "address"
        },
        {
          "internalType": "uint256",
          "name": "nonce",
          "type": "uint256"
        },
        {
          "internalType": "uint256",
          "name": "expiry",
          "type": "uint256"
        },
        {
          "internalType": "uint8",
          "name": "v",
          "type": "uint8"
        },
        {
          "internalType": "bytes32",
          "name": "r",
          "type": "bytes32"
        },
        {
          "internalType": "bytes32",
          "name": "s",
          "type": "bytes32"
        }
      ],
      "name": "delegateBySig",
      "outputs": [],
      "stateMutability": "nonpayable",
      "type": "function"
    },
    {
      "inputs": [
        {
          "internalType": "address",
          "name": "account",
          "type": "address"
        }
      ],
      "name": "delegates",
      "outputs": [
        {
          "internalType": "address",
          "name": "",
          "type": "address"
        }
      ],
      "stateMutability": "view",
      "type": "function"
    },
    {
      "inputs": [],
      "name": "eip712Domain",
      "outputs": [
        {
          "internalType": "bytes1",
          "name": "fields",
          "type": "bytes1"
        },
        {
          "internalType": "string",
          "name": "name",
          "type": "string"
        },
        {
          "internalType": "string",
          "name": "version",
          "type": "string"
        },
        {
          "internalType": "uint256",
          "name": "chainId",
          "type": "uint256"
        },
        {
          "internalType": "address",
          "name": "verifyingContract",
          "type": "address"
        },
        {
          "internalType": "bytes32",
          "name": "salt",
          "type": "bytes32"
        },
        {
          "internalType": "uint256[]",
          "name": "extensions",
          "type": "uint256[]"
        }
      ],
      "stateMutability": "view",
      "type": "function"
    },
    {
      "inputs": [
        {
          "internalType": "uint256",
          "name": "timepoint",
          "type": "uint256"
        }
      ],
      "name": "getPastTotalSupply",
      "outputs": [
        {
          "internalType": "uint256",
          "name": "",
          "type": "uint256"
        }
      ],
      "stateMutability": "view",
      "type": "function"
    },
    {
      "inputs": [
        {
          "internalType": "address",
          "name": "account",
          "type": "address"
        },
        {
          "internalType": "uint256",
          "name": "timepoint",
          "type": "uint256"
        }
      ],
      "name": "getPastVotes",
      "outputs": [
        {
          "internalType": "uint256",
          "name": "",
          "type": "uint256"
        }
      ],
      "stateMutability": "view",
      "type": "function"
    },
    {
      "inputs": [
        {
          "internalType": "address",
          "name": "account",
          "type": "address"
        }
      ],
      "name": "getVotes",
      "outputs": [
        {
          "internalType": "uint256",
          "name": "",
          "type": "uint256"
        }
      ],
      "stateMutability": "view",
      "type": "function"
    },
    {
      "inputs": [],
      "name": "name",
      "outputs": [
        {
          "internalType": "string",
          "name": "",
          "type": "string"
        }
      ],
      "stateMutability": "view",
      "type": "function"
    },
    {
      "inputs": [
        {
          "internalType": "address",
          "name": "owner",
          "type": "address"
        }
      ],
      "name": "nonces",
      "outputs": [
        {
          "internalType": "uint256",
          "name": "",
          "type": "uint256"
        }
      ],
      "stateMutability": "view",
      "type": "function"
    },
    {
      "inputs": [
        {
          "internalType": "address",
          "name": "account",
          "type": "address"
        }
      ],
      "name": "numCheckpoints",
      "outputs": [
        {
          "internalType": "uint32",
          "name": "",
          "type": "uint32"
        }
      ],
      "stateMutability": "view",
      "type": "function"
    },
    {
      "inputs": [],
      "name": "owner",
      "outputs": [
        {
          "internalType": "address",
          "name": "",
          "type": "address"
        }
      ],
      "stateMutability": "view",
      "type": "function"
    },
    {
      "inputs": [
        {
          "internalType": "address",
          "name": "owner",
          "type": "address"
        },
        {
          "internalType": "address",
          "name": "spender",
          "type": "address"
        },
        {
          "internalType": "uint256",
          "name": "value",
          "type": "uint256"
        },
        {
          "internalType": "uint256",
          "name": "deadline",
          "type": "uint256"
        },
        {
          "internalType": "uint8",
          "name": "v",
          "type": "uint8"
        },
        {
          "internalType": "bytes32",
          "name": "r",
          "type": "bytes32"
        },
        {
          "internalType": "bytes32",
          "name": "s",
          "type": "bytes32"
        }
      ],
      "name": "permit",
      "outputs": [],
      "stateMutability": "nonpayable",
      "type": "function"
    },
    {
      "inputs": [],
      "name": "renounceOwnership",
      "outputs": [],
      "stateMutability": "nonpayable",
      "type": "function"
    },
    {
      "inputs": [],
      "name": "symbol",
      "outputs": [
        {
          "internalType": "string",
          "name": "",
          "type": "string"
        }
      ],
      "stateMutability": "view",
      "type": "function"
    },
    {
      "inputs": [],
      "name": "totalSupply",
      "outputs": [
        {
          "internalType": "uint256",
          "name": "",
          "type": "uint256"
        }
      ],
      "stateMutability": "view",
      "type": "function"
    },
    {
      "inputs": [
        {
          "internalType": "address",
          "name": "to",
          "type": "address"
        },
        {
          "internalType": "uint256",
          "name": "value",
          "type": "uint256"
        }
      ],
      "name": "transfer",
      "outputs": [
        {
          "internalType": "bool",
          "name": "",
          "type": "bool"
        }
      ],
      "stateMutability": "nonpayable",
      "type": "function"
    },
    {
      "inputs": [
        {
          "internalType": "address",
          "name": "from",
          "type": "address"
        },
        {
          "internalType": "address",
          "name": "to",
          "type": "address"
        },
        {
          "internalType": "uint256",
          "name": "value",
          "type": "uint256"
        }
      ],
      "name": "transferFrom",
      "outputs": [
        {
          "internalType": "bool",
          "name": "",
          "type": "bool"
        }
      ],
      "stateMutability": "nonpayable",
      "type": "function"
    },
    {
      "inputs": [
        {
          "internalType": "address",
          "name": "newOwner",
          "type": "address"
        }
      ],
      "name": "transferOwnership",
      "outputs": [],
      "stateMutability": "nonpayable",
      "type": "function"
    }
  ],
  "bytecode": "0x6101606040523462000073576200001f6200001962000116565b620001ea565b604051613079620013eb823960805181611f13015260a05181611f40015260c05181611ee0015260e05181611fc501526101005181611fa101526101205181612151015261014051816122e0015261307990f35b600080fd5b634e487b7160e01b600052604160045260246000fd5b90601f01601f191681019081106001600160401b03821117620000b057604052565b62000078565b90620000cd620000c560405190565b92836200008e565b565b6001600160a01b031690565b90565b6001600160a01b038116036200007357565b90505190620000cd82620000de565b906020828203126200007357620000db91620000f0565b620000db62004484803803806200012d81620000b6565b928339810190620000ff565b6001600160401b038111620000b057602090601f01601f19160190565b0190565b90620001706200016a8362000139565b620000b6565b918252565b6200018160056200015a565b64426f696e6760d81b602082015290565b620000db62000175565b620001a860056200015a565b64424f494e4760d81b602082015290565b620000db6200019c565b620000db620000db620000db9290565b620000db6b033b2e3c9fd0803ce8000000620001c3565b620000cd9062000219620001fd62000192565b6200020762000192565b62000211620001b9565b918462000249565b62000223620001d3565b906200069f565b620000cf620000db620000db9290565b620000db906200022a565b9052565b9290916200025792620002c0565b6200026360006200023a565b6001600160a01b0381166001600160a01b03831614620002895750620000cd906200063b565b620002bc906200029860405190565b631e4fbdf760e01b8152918291600483016001600160a01b03909116815260200190565b0390fd5b620000cd9283928392839283929091620002f8565b620002e160016200015a565b603160f81b602082015290565b620000db620002d5565b90620000cd929162000309620002ee565b620000cd93929162000342565b620000db90620000cf906001600160a01b031682565b620000db9062000316565b620000db906200032c565b6200035762000397946200037c9394620003ca565b6200036460058262000713565b610120526200037560068462000713565b6101405290565b6200039062000389825190565b9160200190565b2060e05290565b620003a462000389825190565b20610100524660a052620003b7620008de565b608052620003c53062000337565b60c052565b620000cd918291620005de565b634e487b7160e01b600052600060045260246000fd5b634e487b7160e01b600052602260045260246000fd5b906001600283049216801562000426575b60208310146200042057565b620003ed565b91607f169162000414565b9160001960089290920291821b911b5b9181191691161790565b919062000460620000db6200046993620001c3565b90835462000431565b9055565b620000cd916000916200044b565b81811062000487575050565b806200049760006001936200046d565b016200047b565b9190601f8111620004ae57505050565b620004c2620000cd93600052602060002090565b906020601f840181900483019310620004e6575b6020601f9091010401906200047b565b9091508190620004d6565b90620004fb815190565b906001600160401b038211620000b05762000523826200051c855462000403565b856200049e565b602090601f831160011462000562576200046992916000918362000556575b5050600019600883021c1916906002021790565b01519050388062000542565b601f198316916200057885600052602060002090565b9260005b818110620005b9575091600293918560019694106200059f575b50505002019055565b01516000196008601f8516021c1916905538808062000596565b919360206001819287870151815501950192016200057c565b90620000cd91620004f1565b90620005f0620000cd926003620005d2565b6004620005d2565b620000db90620000cf565b620000db9054620005f8565b906001600160a01b039062000441565b9062000633620000db620004699262000337565b82546200060f565b62000647600b62000603565b906200065581600b6200061f565b6200068c620006857f8be0079c531659141344cd1fd0a4f28419497f9722a3daafe3b4186f6b6457e09362000337565b9162000337565b916200069760405190565b80805b0390a3565b9190620006ad60006200023a565b926001600160a01b0384166001600160a01b03821614620006d457620000cd92936200095a565b620002bc84620006e360405190565b63ec442f0560e01b8152918291600483016001600160a01b03909116815260200190565b620000db60ff620001c3565b805162000729620007256020620001c3565b9190565b10156200073c57620000db91506200081c565b60006200074a620007519390565b01620005d2565b620000db620000db62000707565b60005b838110620007735750506000910152565b818101518382015260200162000762565b620007a9620007b360209362000156936200079d815190565b80835293849260200190565b958691016200075f565b601f01601f191690565b6020808252620000db9291019062000784565b620007ec620007e8620007e1835190565b9260200190565b5190565b9060208110620007fa575090565b6200080d90600019906020036008021b90565b1690565b620000db90620001c3565b8062000826825190565b6200083662000725601f620001c3565b116200086b5750620000db81620008646200085f62000859620000db95620007d0565b62000811565b915190565b17620001c3565b620002bc906200087a60405190565b63305a27a960e01b815291829160048301620007bd565b90959492620000cd94620008c8620008cf92620008c1608096620008ba60a088019c6000890152565b6020870152565b6040850152565b6060830152565b01906001600160a01b03169052565b7f8b73c3c69bb8fe3d512ecc4cf759cc79239f7b179b0ffacaa9a75d522b39400f620009496200090d60e05190565b61010051926200093c46620009223062000337565b906200092d60405190565b96879560208701958662000891565b908103825203826200008e565b6200095662000389825190565b2090565b90620000cd92916200097f565b908152604081019291620000cd9160200152565b0152565b9291906200098f82828662000dcc565b6200099f620000cf60006200023a565b6001600160a01b03851614620009bc575b620000cd929362000a0a565b620009c662000d62565b93620009d162000f36565b94858111620009e357509350620009b0565b8590620002bc620009f360405190565b630e58ae9360e11b81529283926004840162000967565b9062000a6c62000a65620000cd949362000a4f62000a2960006200023a565b6001600160a01b0381166001600160a01b0384161462000aa1576001600160a01b031690565b6001600160a01b0385161462000a735762000ae4565b9162000ae4565b9062000b18565b62000a99600a600262000a926200072562000a8e8a62000fa3565b9390565b9062000c7d565b505062000ae4565b62000abc600a600162000a926200072562000a8e8c62000fa3565b50506001600160a01b031690565b9062000ad69062000337565b600052602052604060002090565b62000aff620000db9162000af6600090565b50600862000aca565b62000603565b620000db9081906001600160d01b031681565b6001600160a01b0382166001600160a01b03821614158062000c68575b62000b3f57505050565b62000b799062000b5060006200023a565b906001600160a01b0382166001600160a01b0382160362000c05575b506001600160a01b031690565b6001600160a01b0382160362000b8d575050565b62000bcc62000bbd62000bc59362000ba784600962000aca565b9062000a926200072562000a8e60019362000fa3565b939062000b05565b9262000b05565b62000be7600080516020620044648339815191529262000337565b9262000c0062000bf660405190565b9283928362000967565b0390a2565b8062000c3462000bbd62000c1f62000bc594600962000aca565b600262000a926200072562000a8e8c62000fa3565b62000c4f600080516020620044648339815191529262000337565b9262000c5e62000bf660405190565b0390a23862000b6c565b5062000c756000620001c3565b831162000b35565b9062000cae62000cb59362000c90600090565b5062000c9b62000cb9565b9262000ca78562001037565b90620013bf565b9162000fee565b9091565b620000db62001343565b634e487b7160e01b600052601160045260246000fd5b62000cf5906001600160d01b03165b916001600160d01b031690565b01906001600160d01b03821162000d0857565b62000cc3565b620000db919062000cd9565b62000d2e906001600160d01b031662000ce8565b9003906001600160d01b03821162000d0857565b620000db919062000d1a565b620000db9081565b620000db905462000d4e565b620000db600262000d56565b6001600160a01b039091168152606081019392620000cd9290916040916200097b906020830152565b906000199062000441565b9062000db6620000db6200046992620001c3565b825462000d97565b9190820180921162000d0857565b81600062000dda816200023a565b6001600160a01b0381166001600160a01b0385160362000ec75762000e1c90620000cf62000e148862000e0e600262000d56565b62000dbe565b600262000da2565b6001600160a01b0383160362000e9a57505062000e4762000e148462000e43600262000d56565b0390565b6200069a62000e8262000e7b7fddf252ad1be2c89b69c2b068fc378daa952ba7f163c4a11628f55a4df523b3ef9362000337565b9362000337565b9362000e8d60405190565b9182918290815260200190565b62000ec19162000eaa9162000aca565b62000eba85620001568362000d56565b9062000da2565b62000e47565b90915062000ee062000eda848462000aca565b62000d56565b85811062000f0f57849291620000cf62000efd8862000e1c940390565b62000f09878662000aca565b62000da2565b83620002bc8762000f1f60405190565b63391434e360e21b81529384936004850162000d6e565b620000db6001600160d01b0362000b05565b62000f58620000db620000db9290565b60ff1690565b620002459062000f48565b916020620000cd9294936200097b6040820196600083019062000f5e565b62000f97620000db620000db9290565b6001600160d01b031690565b62000fb56001600160d01b0362000b05565b811162000fc757620000db9062000f87565b60d0620002bc62000fd760405190565b6306dfcc6560e41b81529283926004840162000f69565b9062001009600062000cb5949362001004600090565b500190565b6200121e565b9190820391821162000d0857565b620000db9060301c62000f97565b620000db90546200101d565b8054906000916200104883620001c3565b8160009391036200106157505050620000db9062000f87565b620000db9350906200108b620007258462001097940192620010846001620001c3565b906200100f565b60005260206000200190565b016200102b565b620000db6040620000b6565b634e487b7160e01b600052603260045260246000fd5b8054821015620010e557620010dc600191600052602060002090565b91020190600090565b620010aa565b9065ffffffffffff9062000441565b62001112620000db620000db9265ffffffffffff1690565b65ffffffffffff1690565b9062001131620000db6200046992620010fa565b8254620010eb565b9065ffffffffffff199060301b62000441565b620000db9062000f97906001600160d01b031682565b9062001176620000db62000469926200114c565b825462001139565b620000cd91620011b590602090620011a7620011a0825165ffffffffffff1690565b856200111d565b01516001600160d01b031690565b9062001162565b9190620011ce57620000cd916200117e565b620003d7565b9081549168010000000000000000831015620000b0578262001200916001620000cd95018155620010c0565b90620011bc565b620000db9062001112565b620000db905462001207565b9192919081546000906200123282620001c3565b811115620012fe576200125d620012508392620010846001620001c3565b8560005260206000200190565b01620012698162001212565b9162001275826200102b565b9465ffffffffffff851665ffffffffffff851611620012ec57879365ffffffffffff868116911603620012b057505062000725925062001162565b91509150620012d76200072593620012c76200109e565b9384019065ffffffffffff169052565b6001600160d01b0386166020830152620011d4565b604051632520601d60e01b8152600490fd5b50906200133d90620007259362001328620013186200109e565b65ffffffffffff90931685840152565b6001600160d01b0387166020830152620011d4565b62000f87565b620000db4362001376565b620000db620000db620000db9265ffffffffffff1690565b62001112620000db620000db9290565b6200138765ffffffffffff6200134e565b81116200139957620000db9062001366565b6030620002bc62000fd760405190565b634e487b7160e01b600052605160045260246000fd5b91909180600114620013de57600203620013a957620000db9162000d42565b50620000db9162000d0e56fe6080604052600436101561001257600080fd5b60003560e01c806306fdde03146101c2578063095ea7b3146101bd57806318160ddd146101b857806323b872dd146101b3578063313ce567146101ae57806332cb6b0c146101a95780633644e515146101a45780633a46b1a81461019f5780634bf5d7e91461019a578063587cde1e146101955780635c19a95c146101905780636fcfff451461018b57806370a0823114610186578063715018a6146101815780637ecebe001461017c57806384b0196e146101775780638da5cb5b146101725780638e539e8c1461016d57806391ddadf41461016857806395d89b41146101635780639ab24eb01461015e578063a9059cbb14610159578063c3cda52014610154578063d505accf1461014f578063dd62ed3e1461014a578063f1127ed8146101455763f2fde38b036101d257610976565b61094e565b6108b8565b610876565b6107f1565b610765565b61074a565b61072f565b6106fb565b6106e0565b61069a565b610666565b610554565b61053c565b610521565b6104ef565b6104d2565b610490565b610461565b610445565b61042a565b61040f565b6103b6565b61039a565b61033e565b610310565b610264565b60009103126101d257565b600080fd5b60005b8381106101ea5750506000910152565b81810151838201526020016101da565b61021b61022460209361024c9361020f815190565b80835293849260200190565b958691016101d7565b601f017fffffffffffffffffffffffffffffffffffffffffffffffffffffffffffffffe01690565b0190565b6020808252610261929101906101fa565b90565b346101d2576102743660046101c7565b61028b61027f611491565b60405191829182610250565b0390f35b73ffffffffffffffffffffffffffffffffffffffff1690565b73ffffffffffffffffffffffffffffffffffffffff81165b036101d257565b905035906102d4826102a8565b565b806102c0565b905035906102d4826102d6565b91906040838203126101d2576102619061030381856102c7565b936020016102dc565b9052565b346101d25761028b61032c6103263660046102e9565b9061152e565b60405191829182901515815260200190565b346101d25761034e3660046101c7565b61028b6103596114d3565b6040515b9182918290815260200190565b90916060828403126101d25761026161038384846102c7565b9361039181602086016102c7565b936040016102dc565b346101d25761028b61032c6103b036600461036a565b91611539565b346101d2576103c63660046101c7565b61028b6103d16114b8565b6040519182918260ff909116815260200190565b6102616102616102619290565b6102616b033b2e3c9fd0803ce80000006103e5565b6102616103f2565b346101d25761041f3660046101c7565b61028b610359610407565b346101d25761043a3660046101c7565b61028b610359611b00565b346101d25761028b61035961045b3660046102e9565b90610de4565b346101d2576104713660046101c7565b61028b61027f610d17565b906020828203126101d257610261916102c7565b346101d25761028b6104ab6104a636600461047c565b610ea9565b6040519182918273ffffffffffffffffffffffffffffffffffffffff909116815260200190565b346101d2576104ea6104e536600461047c565b610eda565b604051005b346101d25761028b61050a61050536600461047c565b611b11565b6040519182918263ffffffff909116815260200190565b346101d25761028b61035961053736600461047c565b6114dd565b346101d25761054c3660046101c7565b6104ea6109c6565b346101d25761028b61035961056a36600461047c565b612fd8565b9061058f61058861057e845190565b8084529260200190565b9260200190565b9060005b8181106105a05750505090565b9091926105bd6105b66001928651815260200190565b9460200190565b929101610593565b9395919461063561062d6106599561061f610652956102619c9a61061260e08c019260008d01907fff00000000000000000000000000000000000000000000000000000000000000169052565b8a820360208c01526101fa565b9088820360408a01526101fa565b976060870152565b73ffffffffffffffffffffffffffffffffffffffff166080850152565b60a0830152565b60c081840391015261056f565b346101d2576106763660046101c7565b61028b6106816120e8565b9361069197959793919360405190565b978897886105c5565b346101d2576106aa3660046101c7565b61028b6104ab600b5473ffffffffffffffffffffffffffffffffffffffff1690565b906020828203126101d257610261916102dc565b346101d25761028b6103596106f63660046106cc565b610e8f565b346101d25761070b3660046101c7565b61028b610716610bfa565b6040519182918265ffffffffffff909116815260200190565b346101d25761073f3660046101c7565b61028b61027f61149b565b346101d25761028b61035961076036600461047c565b610dbd565b346101d25761028b61032c61077b3660046102e9565b906114f9565b60ff81166102c0565b905035906102d482610781565b909160c0828403126101d2576107ad83836102c7565b926107bb81602085016102dc565b926107c982604083016102dc565b926102616107da846060850161078a565b936107e881608086016102dc565b9360a0016102dc565b346101d2576104ea610804366004610797565b94939093929192610f30565b60e0818303126101d25761082482826102c7565b9261083283602084016102c7565b9261084081604085016102dc565b9261084e82606083016102dc565b9261026161085f846080850161078a565b9361086d8160a086016102dc565b9360c0016102dc565b346101d2576104ea610889366004610810565b959490949391936119d1565b91906040838203126101d257610261906108af81856102c7565b936020016102c7565b346101d25761028b6103596108ce366004610895565b9061150e565b63ffffffff81166102c0565b905035906102d4826108d4565b91906040838203126101d2576102619061090781856102c7565b936020016108e0565b6040810192916102d49190805165ffffffffffff16825260209081015179ffffffffffffffffffffffffffffffffffffffffffffffffffff16910152565b346101d25761028b61096a6109643660046108ed565b90611b5c565b60405191829182610910565b346101d2576104ea61098936600461047c565b610b15565b6109966109ce565b6102d46109b4565b61028f6102616102619290565b6102619061099e565b6102d46109c160006109ab565b610b90565b6102d461098e565b600b5473ffffffffffffffffffffffffffffffffffffffff163390610a08825b9173ffffffffffffffffffffffffffffffffffffffff1690565b03610a105750565b610a6790610a1d60405190565b9182917f118cdaa70000000000000000000000000000000000000000000000000000000083526004830173ffffffffffffffffffffffffffffffffffffffff909116815260200190565b0390fd5b6102d490610a776109ce565b610a8160006109ab565b73ffffffffffffffffffffffffffffffffffffffff811673ffffffffffffffffffffffffffffffffffffffff831614610abe57506102d490610b90565b610a6790610acb60405190565b9182917f1e4fbdf70000000000000000000000000000000000000000000000000000000083526004830173ffffffffffffffffffffffffffffffffffffffff909116815260200190565b6102d490610a6b565b9073ffffffffffffffffffffffffffffffffffffffff905b9181191691161790565b61028f6102616102619273ffffffffffffffffffffffffffffffffffffffff1690565b61026190610b40565b61026190610b63565b90610b85610261610b8c92610b6c565b8254610b1e565b9055565b600b5473ffffffffffffffffffffffffffffffffffffffff1690610bb581600b610b75565b610be8610be27f8be0079c531659141344cd1fd0a4f28419497f9722a3daafe3b4186f6b6457e093610b6c565b91610b6c565b91610bf260405190565b80805b0390a3565b610261612cd8565b7f4e487b7100000000000000000000000000000000000000000000000000000000600052604160045260246000fd5b90601f017fffffffffffffffffffffffffffffffffffffffffffffffffffffffffffffffe016810190811067ffffffffffffffff821117610c7157604052565b610c02565b906102d4610c8360405190565b9283610c31565b67ffffffffffffffff8111610c7157602090601f017fffffffffffffffffffffffffffffffffffffffffffffffffffffffffffffffe0160190565b90610cd7610cd283610c8a565b610c76565b918252565b610ce6601d610cc5565b7f6d6f64653d626c6f636b6e756d6265722666726f6d3d64656661756c74000000602082015290565b610261610cdc565b610d1f610bfa565b610d44610d38610d2d612cd8565b65ffffffffffff1690565b9165ffffffffffff1690565b03610d5157610261610d0f565b6040517f6ff07140000000000000000000000000000000000000000000000000000000008152600490fd5b90610d8690610b6c565b600052602052604060002090565b6102616102616102619279ffffffffffffffffffffffffffffffffffffffffffffffffffff1690565b610ddf610dda61026161026193610dd2600090565b506009610d7c565b61286f565b610d94565b61026191610e03610dfd610261610ddf94610dd2600090565b91610e1e565b906124b1565b6102616102616102619265ffffffffffff1690565b610e26610bfa565b610e2f81610e09565b821015610e405750610261906123d2565b90610a67610e4d60405190565b9283927fecd3f81e0000000000000000000000000000000000000000000000000000000084526004840190815265ffffffffffff909116602082015260400190565b610ddf61026191610e9e600090565b50610e03600a610dfd565b610ec061026191610eb8600090565b506008610d7c565b5473ffffffffffffffffffffffffffffffffffffffff1690565b6102d4903361100f565b61100f565b610f2c6102d494610f25606094989795610f08608086019a6000870152565b73ffffffffffffffffffffffffffffffffffffffff166020850152565b6040830152565b0152565b919594919390928642610f42565b9190565b11610fcf5791610fc891610ee493610fc386610fab896102d49b9c610f9f610f877fe48329057bfd03d55e49b547132e39cffd9c1820ad7b9d4c5307691425d15adf90565b91610f9160405190565b958694602086019485610ee9565b90810382520382610c31565b610fbd610fb6825190565b9160200190565b20612039565b611c23565b9182611bd3565b610a6787610fdc60405190565b9182917f4683af0e0000000000000000000000000000000000000000000000000000000083526004830190815260200190565b6102d49161108461101f83610ea9565b926110348361102f836008610d7c565b610b75565b7f3134e8a2e6d97e929a7e54011ea5485d7d196dd5f0ba4d4ef95803e8e3fc257f61105e82610b6c565b61106786610b6c565b9061107186610b6c565b9261107b60405190565b600090a4611b08565b9161109d565b9081526040810192916102d49160200152565b73ffffffffffffffffffffffffffffffffffffffff821673ffffffffffffffffffffffffffffffffffffffff8216141580611242575b6110dc57505050565b611139906110ea60006109ab565b9073ffffffffffffffffffffffffffffffffffffffff821673ffffffffffffffffffffffffffffffffffffffff8216036111dc575b5073ffffffffffffffffffffffffffffffffffffffff1690565b73ffffffffffffffffffffffffffffffffffffffff821603611159575050565b61119761118a6111919361116e846009610d7c565b90611184610f3e611180600193612356565b9390565b90611254565b9390610d94565b92610d94565b6111c17fdec2bacdd2f05b59de34da9b523dff8be42e5e38e818c82fdb0bae774387a72492610b6c565b926111d76111ce60405190565b9283928361108a565b0390a2565b8061120261118a6111f1611191946009610d7c565b6002611184610f3e6111808c612356565b61122c7fdec2bacdd2f05b59de34da9b523dff8be42e5e38e818c82fdb0bae774387a72492610b6c565b926112396111ce60405190565b0390a23861111f565b5061124d60006103e5565b83116110d3565b9061127d61128393611264600090565b5061126d610bfa565b926112778561286f565b9061301e565b91612451565b9091565b7f4e487b7100000000000000000000000000000000000000000000000000000000600052601160045260246000fd5b6112f79079ffffffffffffffffffffffffffffffffffffffffffffffffffff165b9179ffffffffffffffffffffffffffffffffffffffffffffffffffff1690565b019079ffffffffffffffffffffffffffffffffffffffffffffffffffff821161131c57565b611287565b61026191906112b6565b6113509079ffffffffffffffffffffffffffffffffffffffffffffffffffff166112d7565b90039079ffffffffffffffffffffffffffffffffffffffffffffffffffff821161131c57565b610261919061132b565b7f4e487b7100000000000000000000000000000000000000000000000000000000600052602260045260246000fd5b90600160028304921680156113cf575b60208310146113ca57565b611380565b91607f16916113bf565b805460009392916113f66113ec836113af565b8085529360200190565b9160018116908115611448575060011461140f57505050565b6114229192939450600052602060002090565b916000925b8184106114345750500190565b805484840152602090930192600101611427565b92949550505060ff1916825215156020020190565b90610261916113d9565b906102d46114819261147860405190565b9384809261145d565b0383610c31565b61026190611467565b6102616003611488565b6102616004611488565b6114b26102616102619290565b60ff1690565b61026160126114a5565b6102619081565b61026190546114c2565b61026160026114c9565b6114f4610261916114ec600090565b506000610d7c565b6114c9565b61150991903361154a565b61154a565b600190565b610261916115296114f492611521600090565b506001610d7c565b610d7c565b611509919033611677565b61150992919061150483338361187b565b92919061155760006109ab565b9373ffffffffffffffffffffffffffffffffffffffff851673ffffffffffffffffffffffffffffffffffffffff8216146116205773ffffffffffffffffffffffffffffffffffffffff851673ffffffffffffffffffffffffffffffffffffffff8316146115c9576102d4939450612ce1565b610a67856115d660405190565b9182917fec442f050000000000000000000000000000000000000000000000000000000083526004830173ffffffffffffffffffffffffffffffffffffffff909116815260200190565b610a678561162d60405190565b9182917f96c6fd1e0000000000000000000000000000000000000000000000000000000083526004830173ffffffffffffffffffffffffffffffffffffffff909116815260200190565b90916102d4926001926116c4565b907fffffffffffffffffffffffffffffffffffffffffffffffffffffffffffffffff90610b36565b906116bd610261610b8c926103e5565b8254611685565b9091926116d160006109ab565b73ffffffffffffffffffffffffffffffffffffffff811673ffffffffffffffffffffffffffffffffffffffff8416146117f05773ffffffffffffffffffffffffffffffffffffffff811673ffffffffffffffffffffffffffffffffffffffff85161461179957506117508461174b85611529866001610d7c565b6116ad565b61175957505050565b610bf561178f6117897f8c5be1e5ebec7d5bd14f71427d1e84f3dd0314c0f7b2291e5b200ac8c7c3b92593610b6c565b93610b6c565b9361035d60405190565b610a67906117a660405190565b9182917f94280d620000000000000000000000000000000000000000000000000000000083526004830173ffffffffffffffffffffffffffffffffffffffff909116815260200190565b610a67906117fd60405190565b9182917fe602df050000000000000000000000000000000000000000000000000000000083526004830173ffffffffffffffffffffffffffffffffffffffff909116815260200190565b73ffffffffffffffffffffffffffffffffffffffff90911681526060810193926102d4929091604091610f2c906020830152565b90929192611889818361150e565b937fffffffffffffffffffffffffffffffffffffffffffffffffffffffffffffffff85106118b9575b5050509050565b8085106118df576118cd906118d694950390565b906000926116c4565b803880806118b2565b90610a6785926118ee60405190565b9384937ffb8f41b200000000000000000000000000000000000000000000000000000000855260048501611847565b9194611986610f2c9298979561197f60a0966119626102d49a61194560c08a019e60008b0152565b73ffffffffffffffffffffffffffffffffffffffff166020890152565b73ffffffffffffffffffffffffffffffffffffffff166040870152565b6060850152565b6080830152565b73ffffffffffffffffffffffffffffffffffffffff90911681526040810192916102d4916020905b019073ffffffffffffffffffffffffffffffffffffffff169052565b969592949194939093426119e5610f3e8390565b11611ac05790610fc385610fab8a611a45979695610f9f611a237f6e71edae12b1b97f4d1f60370fef10105fa2faae0126114a169c64845d6126c990565b91611a2d84611b82565b8d611a3760405190565b97889660208801968761191d565b73ffffffffffffffffffffffffffffffffffffffff851673ffffffffffffffffffffffffffffffffffffffff821603611a8357506102d49293611677565b8490610a67611a9160405190565b9283927f4b800e460000000000000000000000000000000000000000000000000000000084526004840161198d565b610a6790611acd60405190565b9182917f627913020000000000000000000000000000000000000000000000000000000083526004830190815260200190565b610261611ebd565b610261906114dd565b61026190611b2f611b2a61026161026193610dd2600090565b6128aa565b612427565b6102616040610c76565b611b46611b34565b906000825260006020830152565b610261611b3e565b9061026191611b69611b54565b5090611b7d61026161026193610dd2611b54565b61296f565b611b919060005b506007610d7c565b610261611b9d826114c9565b91600183015b906116ad565b73ffffffffffffffffffffffffffffffffffffffff90911681526040810192916102d49160200152565b611bdc81611b82565b91829003611be8575050565b610a67611bf460405190565b9283927f752d88c000000000000000000000000000000000000000000000000000000000845260048401611ba9565b916102619391611c3b93611c35600090565b50611c82565b90929192611da9565b610261906103e5565b610f2c6102d494610f25606094989795611c6c608086019a6000870152565b60ff166020850152565b6040513d6000823e3d90fd5b9091611c8d84611c44565b611cb9610f3e7f7fffffffffffffffffffffffffffffff5d576e7357a4501ddfe92f46681b20a06103e5565b11611d4d5790611cdb60209460009493611cd260405190565b94859485611c4d565b838052039060015afa15611d4857600051600091611cf8836109ab565b73ffffffffffffffffffffffffffffffffffffffff811673ffffffffffffffffffffffffffffffffffffffff841614611d3b5750611d35836103e5565b91929190565b9150611d356001936103e5565b611c76565b505050611d5a60006109ab565b9160039190565b7f4e487b7100000000000000000000000000000000000000000000000000000000600052602160045260246000fd5b60041115611d9a57565b611d61565b906102d482611d90565b611db36000611d9f565b611dbc82611d9f565b03611dc5575050565b611dcf6001611d9f565b611dd882611d9f565b03611e08576040517ff645eedf000000000000000000000000000000000000000000000000000000008152600490fd5b611e126002611d9f565b611e1b82611d9f565b03611e6257610a67611e2c83611c44565b6040519182917ffce698f70000000000000000000000000000000000000000000000000000000083526004830190815260200190565b611e75611e6f6003611d9f565b91611d9f565b14611e7d5750565b610a6790611e8a60405190565b9182917fd78bce0c0000000000000000000000000000000000000000000000000000000083526004830190815260200190565b611ec630610b6c565b611f0573ffffffffffffffffffffffffffffffffffffffff7f0000000000000000000000000000000000000000000000000000000000000000166109ee565b1480611f3d575b15611f35577f000000000000000000000000000000000000000000000000000000000000000090565b610261611f9f565b507f00000000000000000000000000000000000000000000000000000000000000004614611f0c565b909594926102d494611f986119b592611f91608096611f8a60a088019c6000890152565b6020870152565b6040850152565b6060830152565b7f000000000000000000000000000000000000000000000000000000000000000061202a7f00000000000000000000000000000000000000000000000000000000000000007f8b73c3c69bb8fe3d512ecc4cf759cc79239f7b179b0ffacaa9a75d522b39400f610f9f4661201230610b6c565b9061201c60405190565b968795602087019586611f66565b612035610fb6825190565b2090565b61026190612045611ebd565b604291604051917f19010000000000000000000000000000000000000000000000000000000000008352600283015260228201522090565b67ffffffffffffffff8111610c715760208091020190565b90610cd7610cd28361207d565b369037565b906102d46120bd6120b784612095565b9361207d565b7fffffffffffffffffffffffffffffffffffffffffffffffffffffffffffffffe001602084016120a2565b6120f061214c565b906120f96122db565b90469061210530610b6c565b9060009061212361211e612118846103e5565b936103e5565b6120a7565b7f0f00000000000000000000000000000000000000000000000000000000000000969594939291565b6102617f000000000000000000000000000000000000000000000000000000000000000060055b90612215565b61026160ff6103e5565b805460009392916121966113ec836113af565b916001811690811561144857506001146121af57505050565b6121c29192939450600052602060002090565b916000925b8184106121d45750500190565b8054848401526020909301926001016121c7565b9061026191612183565b906102d46114819261220360405190565b938480926121e8565b610261906121f2565b9081612225610f3e610261612179565b14612234575061026190612254565b610261915061220c565b906102d46120bd61224e84610cc5565b93610c8a565b61225d8161227a565b90602061227161226c826103e5565b61223e565b92835282015290565b61228d61229291612289600090565b5090565b611c44565b61229c60ff6103e5565b166122a7601f6103e5565b81116122b05790565b6040517fb3512b0c000000000000000000000000000000000000000000000000000000008152600490fd5b6102617f00000000000000000000000000000000000000000000000000000000000000006006612173565b61030c906114a5565b9160206102d4929493610f2c60408201966000830190612306565b6123376102616102619290565b79ffffffffffffffffffffffffffffffffffffffffffffffffffff1690565b61237979ffffffffffffffffffffffffffffffffffffffffffffffffffff610d94565b8111612388576102619061232a565b60d0610a6761239660405190565b9283927f6dfcc6500000000000000000000000000000000000000000000000000000000084526004840161230f565b610d2d6102616102619290565b6123e165ffffffffffff610e09565b81116123f057610261906123c5565b6030610a6761239660405190565b6102616102616102619263ffffffff1690565b61241e6102616102619290565b63ffffffff1690565b61243463ffffffff6123fe565b81116124435761026190612411565b6020610a6761239660405190565b9061246960006112839493612464600090565b500190565b612aef565b9190820391821161131c57565b61026190610d2d565b610261905461247b565b9190820180921161131c57565b6102619060301c612337565b610261905461249b565b80546000916124bf836103e5565b908383916124cd60056103e5565b851161252f575b0192506124e391839586612c3d565b906124ed836103e5565b82036124ff575050610261915061232a565b9261251c61252992610261955061251660016103e5565b9061246e565b9060005260206000200190565b016124a7565b91938061251661253e92612610565b93612560610d2d8361255a888783015b60005260206000200190565b01612484565b65ffffffffffff8816101561257f57506124e39293915b8493506124d4565b91936124e3935061259a9061259460016103e5565b9061248e565b93612577565b610261906125b4610f3e6102619460ff1690565b901c90565b610261906125cd610f3e6102619460ff1690565b901b90565b7f4e487b7100000000000000000000000000000000000000000000000000000000600052601260045260246000fd5b811561260b570490565b6125d2565b600161261b816103e5565b821115612289579061277a61277561026161276e61273a61273a61276461273f61273a61275a61273a61273a8c61024c6102619f61273061273a6127496127539361272061271a8861266c846103e5565b906126877001000000000000000000000000000000006103e5565b8b1015612847575b6126a1680100000000000000006103e5565b811015612825575b6126b76401000000006103e5565b811015612803575b6126cb620100006103e5565b8110156127e1575b6126de6101006103e5565b8110156127bf575b6126f060106103e5565b811015612797575b612705610f3e60046103e5565b101561277f575b61271660036103e5565b0290565b916114a5565b9e8f9c8d809b81978280966125a0565b61024c818d612601565b6125a0565b61024c818a612601565b61024c8187612601565b8092612601565b61024c818c612601565b61024c8189612601565b8094612601565b821190565b900390565b6127929061278c856114a5565b906125b9565b61270c565b6127ae6127b9916127a860046114a5565b906125a0565b9161278c60026114a5565b906126f8565b6127d06127db916127a860086114a5565b9161278c60046114a5565b906126e6565b6127f26127fd916127a860106114a5565b9161278c60086114a5565b906126d3565b61281461281f916127a860206114a5565b9161278c60106114a5565b906126bf565b612836612841916127a860406114a5565b9161278c60206114a5565b906126a9565b5061286961285e61285860806114a5565b8c6125a0565b9161278c60406114a5565b9061268f565b80549060009061287e826103e5565b830361288f5750610261915061232a565b6102619261254e610f3e8461252994019261251660016103e5565b6000610261916128b8600090565b50015490565b7f4e487b7100000000000000000000000000000000000000000000000000000000600052603260045260246000fd5b805482101561291057612907600191600052602060002090565b91020190600090565b6128be565b906102d46129436000612926611b34565b94612529612935838301612484565b65ffffffffffff1687840152565b79ffffffffffffffffffffffffffffffffffffffffffffffffffff166020840152565b61026190612915565b61026191600061298892612981611b54565b50016128ed565b50612966565b7f4e487b7100000000000000000000000000000000000000000000000000000000600052600060045260246000fd5b9065ffffffffffff90610b36565b610d2d6102616102619265ffffffffffff1690565b906129f0610261610b8c926129cb565b82546129bd565b907fffffffffffffffffffffffffffffffffffffffffffffffffffff0000000000009060301b610b36565b6123376102616102619279ffffffffffffffffffffffffffffffffffffffffffffffffffff1690565b90612a5b610261610b8c92612a22565b82546129f7565b6102d491612aa790602090612a86612a80825165ffffffffffff1690565b856129e0565b015179ffffffffffffffffffffffffffffffffffffffffffffffffffff1690565b90612a4b565b9190612abc576102d491612a62565b61298e565b9081549168010000000000000000831015610c715782612ae99160016102d4950181556128ed565b90612aad565b919291908154600090612b01826103e5565b811115612bec57612b27612b1a839261251660016103e5565b8560005260206000200190565b01612b3181612484565b91612b3b826124a7565b9465ffffffffffff851665ffffffffffff851611612bc1578793612b6665ffffffffffff8716610d38565b03612b77575050610f3e9250612a4b565b91509150612b9a610f3e93612b8a611b34565b9384019065ffffffffffff169052565b79ffffffffffffffffffffffffffffffffffffffffffffffffffff86166020830152612ac1565b6040517f2520601d000000000000000000000000000000000000000000000000000000008152600490fd5b5090612c3890610f3e93612c11612c01611b34565b65ffffffffffff90931685840152565b79ffffffffffffffffffffffffffffffffffffffffffffffffffff87166020830152612ac1565b61232a565b93919092612c49600090565b505b80821015612cab57612c5d8183612cb3565b90612c74600061255a848960005260206000200190565b612c8565ffffffffffff8716610d38565b1115612c945750915b91612c4b565b929150612ca59061259460016103e5565b90612c8e565b925050915090565b61259461026192612cc2600090565b508083169218612cd260026103e5565b90612601565b610261436123d2565b916102d491612cf1828286612e63565b612cfe61028f60006109ab565b73ffffffffffffffffffffffffffffffffffffffff851614612d25575b6102d49293612d83565b612d2d6114d3565b93612d36612fb5565b94858111612d4657509350612d1b565b8590610a67612d5460405190565b9283927f1cb15d260000000000000000000000000000000000000000000000000000000084526004840161108a565b90612e0f612e096102d49493612de8612d9c60006109ab565b73ffffffffffffffffffffffffffffffffffffffff811673ffffffffffffffffffffffffffffffffffffffff841614612e325773ffffffffffffffffffffffffffffffffffffffff1690565b73ffffffffffffffffffffffffffffffffffffffff851614612e1557610ea9565b91610ea9565b9061109d565b612e2b600a6002611184610f3e6111808a612356565b5050610ea9565b612e48600a6001611184610f3e6111808c612356565b505073ffffffffffffffffffffffffffffffffffffffff1690565b816000612e6f816109ab565b73ffffffffffffffffffffffffffffffffffffffff811673ffffffffffffffffffffffffffffffffffffffff851603612f4557612ec39061028f612ebc88612eb760026114c9565b61248e565b60026116ad565b73ffffffffffffffffffffffffffffffffffffffff831603612f26575050612ef6612ebc84612ef260026114c9565b0390565b610bf561178f6117897fddf252ad1be2c89b69c2b068fc378daa952ba7f163c4a11628f55a4df523b3ef93610b6c565b612f4091612f3391610d7c565b611ba38561024c836114c9565b612ef6565b909150612f556114f48484610d7c565b858110612f785784929161028f612f6e88612ec3940390565b61174b8786610d7c565b83610a6787612f8660405190565b9384937fe450d38c00000000000000000000000000000000000000000000000000000000855260048501611847565b61026179ffffffffffffffffffffffffffffffffffffffffffffffffffff610d94565b61026190610261906114f461026191611b89600090565b7f4e487b7100000000000000000000000000000000000000000000000000000000600052605160045260246000fd5b9190918060011461303957600203612fef5761026191611376565b506102619161132156fea26469706673582212207e3021bc50304a19b5537b439e7a4dde2e051127a281902e068abe54e6bbaa1764736f6c63430008140033dec2bacdd2f05b59de34da9b523dff8be42e5e38e818c82fdb0bae774387a724",
  "linkReferences": {},
  "deployedLinkReferences": {}
}