{
  "_format": "hh-sol-artifact-1",
  "contractName": "DEXRouter",
  "sourceName": "contracts/DEXRouter.sol",
  "abi": [
    {
      "inputs": [
        {
          "internalType": "address",
          "name": "_factory",
          "type": "address"
        },
        {
          "internalType": "address",
          "name": "_WETH",
          "type": "address"
        }
      ],
      "stateMutability": "nonpayable",
      "type": "constructor"
    },
    {
      "inputs": [],
      "name": "BlacklistedToken",
      "type": "error"
    },
    {
      "inputs": [],
      "name": "EmergencyStopActive",
      "type": "error"
    },
    {
      "inputs": [],
      "name": "EnforcedPause",
      "type": "error"
    },
    {
      "inputs": [],
      "name": "EthTransferFailed",
      "type": "error"
    },
    {
      "inputs": [],
      "name": "ExcessiveInputAmount",
      "type": "error"
    },
    {
      "inputs": [],
      "name": "ExpectedPause",
      "type": "error"
    },
    {
      "inputs": [],
      "name": "Expired",
      "type": "error"
    },
    {
      "inputs": [],
      "name": "InsufficientAAmount",
      "type": "error"
    },
    {
      "inputs": [],
      "name": "InsufficientAmounts",
      "type": "error"
    },
    {
      "inputs": [],
      "name": "InsufficientBAmount",
      "type": "error"
    },
    {
      "inputs": [],
      "name": "InsufficientInputAmount",
      "type": "error"
    },
    {
      "inputs": [],
      "name": "InsufficientLiquidity",
      "type": "error"
    },
    {
      "inputs": [],
      "name": "InsufficientOutputAmount",
      "type": "error"
    },
    {
      "inputs": [],
      "name": "InvalidFactory",
      "type": "error"
    },
    {
      "inputs": [],
      "name": "InvalidPath",
      "type": "error"
    },
    {
      "inputs": [],
      "name": "InvalidTo",
      "type": "error"
    },
    {
      "inputs": [],
      "name": "InvalidToken",
      "type": "error"
    },
    {
      "inputs": [],
      "name": "InvalidWeth",
      "type": "error"
    },
    {
      "inputs": [],
      "name": "LimitTooHigh",
      "type": "error"
    },
    {
      "inputs": [],
      "name": "ManagerAccessRequired",
      "type": "error"
    },
    {
      "inputs": [],
      "name": "NotAuthorized",
      "type": "error"
    },
    {
      "inputs": [
        {
          "internalType": "address",
          "name": "owner",
          "type": "address"
        }
      ],
      "name": "OwnableInvalidOwner",
      "type": "error"
    },
    {
      "inputs": [
        {
          "internalType": "address",
          "name": "account",
          "type": "address"
        }
      ],
      "name": "OwnableUnauthorizedAccount",
      "type": "error"
    },
    {
      "inputs": [],
      "name": "PriceImpactTooHigh",
      "type": "error"
    },
    {
      "inputs": [],
      "name": "RateLimitExceeded",
      "type": "error"
    },
    {
      "inputs": [],
      "name": "ReentrancyGuardReentrantCall",
      "type": "error"
    },
    {
      "inputs": [
        {
          "internalType": "address",
          "name": "token",
          "type": "address"
        }
      ],
      "name": "SafeERC20FailedOperation",
      "type": "error"
    },
    {
      "inputs": [],
      "name": "TokenNotWhitelisted",
      "type": "error"
    },
    {
      "inputs": [],
      "name": "ToleranceTooHigh",
      "type": "error"
    },
    {
      "anonymous": false,
      "inputs": [
        {
          "indexed": false,
          "internalType": "bool",
          "name": "stopped",
          "type": "bool"
        }
      ],
      "name": "EmergencyStopUpdated",
      "type": "event"
    },
    {
      "anonymous": false,
      "inputs": [
        {
          "indexed": true,
          "internalType": "address",
          "name": "previousOwner",
          "type": "address"
        },
        {
          "indexed": true,
          "internalType": "address",
          "name": "newOwner",
          "type": "address"
        }
      ],
      "name": "OwnershipTransferred",
      "type": "event"
    },
    {
      "anonymous": false,
      "inputs": [
        {
          "indexed": false,
          "internalType": "address",
          "name": "account",
          "type": "address"
        }
      ],
      "name": "Paused",
      "type": "event"
    },
    {
      "anonymous": false,
      "inputs": [
        {
          "indexed": false,
          "internalType": "uint256",
          "name": "oldLimit",
          "type": "uint256"
        },
        {
          "indexed": false,
          "internalType": "uint256",
          "name": "newLimit",
          "type": "uint256"
        }
      ],
      "name": "PriceImpactLimitUpdated",
      "type": "event"
    },
    {
      "anonymous": false,
      "inputs": [
        {
          "indexed": false,
          "internalType": "uint256",
          "name": "oldTolerance",
          "type": "uint256"
        },
        {
          "indexed": false,
          "internalType": "uint256",
          "name": "newTolerance",
          "type": "uint256"
        }
      ],
      "name": "SlippageToleranceUpdated",
      "type": "event"
    },
    {
      "anonymous": false,
      "inputs": [
        {
          "indexed": true,
          "internalType": "address",
          "name": "sender",
          "type": "address"
        },
        {
          "indexed": false,
          "internalType": "uint256",
          "name": "amountIn",
          "type": "uint256"
        },
        {
          "indexed": false,
          "internalType": "uint256",
          "name": "amountOutMin",
          "type": "uint256"
        },
        {
          "indexed": false,
          "internalType": "address[]",
          "name": "path",
          "type": "address[]"
        },
        {
          "indexed": true,
          "internalType": "address",
          "name": "to",
          "type": "address"
        },
        {
          "indexed": false,
          "internalType": "uint256",
          "name": "deadline",
          "type": "uint256"
        },
        {
          "indexed": false,
          "internalType": "uint256",
          "name": "amountOut",
          "type": "uint256"
        },
        {
          "indexed": false,
          "internalType": "uint256",
          "name": "priceImpact",
          "type": "uint256"
        }
      ],
      "name": "SwapExactETHForTokens",
      "type": "event"
    },
    {
      "anonymous": false,
      "inputs": [
        {
          "indexed": true,
          "internalType": "address",
          "name": "sender",
          "type": "address"
        },
        {
          "indexed": false,
          "internalType": "uint256",
          "name": "amountIn",
          "type": "uint256"
        },
        {
          "indexed": false,
          "internalType": "uint256",
          "name": "amountOutMin",
          "type": "uint256"
        },
        {
          "indexed": false,
          "internalType": "address[]",
          "name": "path",
          "type": "address[]"
        },
        {
          "indexed": true,
          "internalType": "address",
          "name": "to",
          "type": "address"
        },
        {
          "indexed": false,
          "internalType": "uint256",
          "name": "deadline",
          "type": "uint256"
        },
        {
          "indexed": false,
          "internalType": "uint256",
          "name": "amountOut",
          "type": "uint256"
        },
        {
          "indexed": false,
          "internalType": "uint256",
          "name": "priceImpact",
          "type": "uint256"
        }
      ],
      "name": "SwapExactTokensForTokens",
      "type": "event"
    },
    {
      "anonymous": false,
      "inputs": [
        {
          "indexed": true,
          "internalType": "address",
          "name": "sender",
          "type": "address"
        },
        {
          "indexed": false,
          "internalType": "uint256",
          "name": "amountOut",
          "type": "uint256"
        },
        {
          "indexed": false,
          "internalType": "uint256",
          "name": "amountInMax",
          "type": "uint256"
        },
        {
          "indexed": false,
          "internalType": "address[]",
          "name": "path",
          "type": "address[]"
        },
        {
          "indexed": true,
          "internalType": "address",
          "name": "to",
          "type": "address"
        },
        {
          "indexed": false,
          "internalType": "uint256",
          "name": "deadline",
          "type": "uint256"
        },
        {
          "indexed": false,
          "internalType": "uint256",
          "name": "amountIn",
          "type": "uint256"
        },
        {
          "indexed": false,
          "internalType": "uint256",
          "name": "priceImpact",
          "type": "uint256"
        }
      ],
      "name": "SwapTokensForExactETH",
      "type": "event"
    },
    {
      "anonymous": false,
      "inputs": [
        {
          "indexed": true,
          "internalType": "address",
          "name": "sender",
          "type": "address"
        },
        {
          "indexed": false,
          "internalType": "uint256",
          "name": "amountOut",
          "type": "uint256"
        },
        {
          "indexed": false,
          "internalType": "uint256",
          "name": "amountInMax",
          "type": "uint256"
        },
        {
          "indexed": false,
          "internalType": "address[]",
          "name": "path",
          "type": "address[]"
        },
        {
          "indexed": true,
          "internalType": "address",
          "name": "to",
          "type": "address"
        },
        {
          "indexed": false,
          "internalType": "uint256",
          "name": "deadline",
          "type": "uint256"
        },
        {
          "indexed": false,
          "internalType": "uint256",
          "name": "amountIn",
          "type": "uint256"
        },
        {
          "indexed": false,
          "internalType": "uint256",
          "name": "priceImpact",
          "type": "uint256"
        }
      ],
      "name": "SwapTokensForExactTokens",
      "type": "event"
    },
    {
      "anonymous": false,
      "inputs": [
        {
          "indexed": true,
          "internalType": "address",
          "name": "token",
          "type": "address"
        },
        {
          "indexed": false,
          "internalType": "bool",
          "name": "blacklisted",
          "type": "bool"
        }
      ],
      "name": "TokenBlacklisted",
      "type": "event"
    },
    {
      "anonymous": false,
      "inputs": [
        {
          "indexed": true,
          "internalType": "address",
          "name": "token",
          "type": "address"
        },
        {
          "indexed": false,
          "internalType": "bool",
          "name": "whitelisted",
          "type": "bool"
        }
      ],
      "name": "TokenWhitelisted",
      "type": "event"
    },
    {
      "anonymous": false,
      "inputs": [
        {
          "indexed": false,
          "internalType": "address",
          "name": "account",
          "type": "address"
        }
      ],
      "name": "Unpaused",
      "type": "event"
    },
    {
      "anonymous": false,
      "inputs": [
        {
          "indexed": false,
          "internalType": "bool",
          "name": "enabled",
          "type": "bool"
        }
      ],
      "name": "WhitelistEnabled",
      "type": "event"
    },
    {
      "inputs": [],
      "name": "MAX_PRICE_IMPACT",
      "outputs": [
        {
          "internalType": "uint256",
          "name": "",
          "type": "uint256"
        }
      ],
      "stateMutability": "view",
      "type": "function"
    },
    {
      "inputs": [],
      "name": "MAX_SLIPPAGE_TOLERANCE",
      "outputs": [
        {
          "internalType": "uint256",
          "name": "",
          "type": "uint256"
        }
      ],
      "stateMutability": "view",
      "type": "function"
    },
    {
      "inputs": [],
      "name": "SWAP_COOLDOWN",
      "outputs": [
        {
          "internalType": "uint256",
          "name": "",
          "type": "uint256"
        }
      ],
      "stateMutability": "view",
      "type": "function"
    },
    {
      "inputs": [],
      "name": "WETH",
      "outputs": [
        {
          "internalType": "address",
          "name": "",
          "type": "address"
        }
      ],
      "stateMutability": "view",
      "type": "function"
    },
    {
      "inputs": [
        {
          "internalType": "address",
          "name": "tokenA",
          "type": "address"
        },
        {
          "internalType": "address",
          "name": "tokenB",
          "type": "address"
        },
        {
          "internalType": "uint256",
          "name": "amountADesired",
          "type": "uint256"
        },
        {
          "internalType": "uint256",
          "name": "amountBDesired",
          "type": "uint256"
        },
        {
          "internalType": "uint256",
          "name": "amountAMin",
          "type": "uint256"
        },
        {
          "internalType": "uint256",
          "name": "amountBMin",
          "type": "uint256"
        },
        {
          "internalType": "address",
          "name": "to",
          "type": "address"
        },
        {
          "internalType": "uint256",
          "name": "deadline",
          "type": "uint256"
        }
      ],
      "name": "addLiquidity",
      "outputs": [
        {
          "internalType": "uint256",
          "name": "amountA",
          "type": "uint256"
        },
        {
          "internalType": "uint256",
          "name": "amountB",
          "type": "uint256"
        },
        {
          "internalType": "uint256",
          "name": "liquidity",
          "type": "uint256"
        }
      ],
      "stateMutability": "nonpayable",
      "type": "function"
    },
    {
      "inputs": [
        {
          "internalType": "address",
          "name": "",
          "type": "address"
        }
      ],
      "name": "blacklistedTokens",
      "outputs": [
        {
          "internalType": "bool",
          "name": "",
          "type": "bool"
        }
      ],
      "stateMutability": "view",
      "type": "function"
    },
    {
      "inputs": [],
      "name": "defaultSlippageTolerance",
      "outputs": [
        {
          "internalType": "uint256",
          "name": "",
          "type": "uint256"
        }
      ],
      "stateMutability": "view",
      "type": "function"
    },
    {
      "inputs": [],
      "name": "emergencyStop",
      "outputs": [
        {
          "internalType": "bool",
          "name": "",
          "type": "bool"
        }
      ],
      "stateMutability": "view",
      "type": "function"
    },
    {
      "inputs": [
        {
          "internalType": "address",
          "name": "token",
          "type": "address"
        },
        {
          "internalType": "address",
          "name": "to",
          "type": "address"
        },
        {
          "internalType": "uint256",
          "name": "amount",
          "type": "uint256"
        }
      ],
      "name": "emergencyWithdraw",
      "outputs": [],
      "stateMutability": "nonpayable",
      "type": "function"
    },
    {
      "inputs": [],
      "name": "factory",
      "outputs": [
        {
          "internalType": "address",
          "name": "",
          "type": "address"
        }
      ],
      "stateMutability": "view",
      "type": "function"
    },
    {
      "inputs": [
        {
          "internalType": "uint256",
          "name": "amountOut",
          "type": "uint256"
        },
        {
          "internalType": "uint256",
          "name": "reserveIn",
          "type": "uint256"
        },
        {
          "internalType": "uint256",
          "name": "reserveOut",
          "type": "uint256"
        }
      ],
      "name": "getAmountIn",
      "outputs": [
        {
          "internalType": "uint256",
          "name": "amountIn",
          "type": "uint256"
        }
      ],
      "stateMutability": "pure",
      "type": "function"
    },
    {
      "inputs": [
        {
          "internalType": "uint256",
          "name": "amountIn",
          "type": "uint256"
        },
        {
          "internalType": "uint256",
          "name": "reserveIn",
          "type": "uint256"
        },
        {
          "internalType": "uint256",
          "name": "reserveOut",
          "type": "uint256"
        }
      ],
      "name": "getAmountOut",
      "outputs": [
        {
          "internalType": "uint256",
          "name": "amountOut",
          "type": "uint256"
        }
      ],
      "stateMutability": "pure",
      "type": "function"
    },
    {
      "inputs": [
        {
          "internalType": "uint256",
          "name": "amountOut",
          "type": "uint256"
        },
        {
          "internalType": "address[]",
          "name": "path",
          "type": "address[]"
        }
      ],
      "name": "getAmountsIn",
      "outputs": [
        {
          "internalType": "uint256[]",
          "name": "amounts",
          "type": "uint256[]"
        }
      ],
      "stateMutability": "view",
      "type": "function"
    },
    {
      "inputs": [
        {
          "internalType": "uint256",
          "name": "amountIn",
          "type": "uint256"
        },
        {
          "internalType": "address[]",
          "name": "path",
          "type": "address[]"
        }
      ],
      "name": "getAmountsOut",
      "outputs": [
        {
          "internalType": "uint256[]",
          "name": "amounts",
          "type": "uint256[]"
        }
      ],
      "stateMutability": "view",
      "type": "function"
    },
    {
      "inputs": [
        {
          "internalType": "address",
          "name": "",
          "type": "address"
        }
      ],
      "name": "isManager",
      "outputs": [
        {
          "internalType": "bool",
          "name": "",
          "type": "bool"
        }
      ],
      "stateMutability": "view",
      "type": "function"
    },
    {
      "inputs": [
        {
          "internalType": "address",
          "name": "",
          "type": "address"
        }
      ],
      "name": "isOperator",
      "outputs": [
        {
          "internalType": "bool",
          "name": "",
          "type": "bool"
        }
      ],
      "stateMutability": "view",
      "type": "function"
    },
    {
      "inputs": [
        {
          "internalType": "address",
          "name": "",
          "type": "address"
        }
      ],
      "name": "lastSwapTime",
      "outputs": [
        {
          "internalType": "uint256",
          "name": "",
          "type": "uint256"
        }
      ],
      "stateMutability": "view",
      "type": "function"
    },
    {
      "inputs": [],
      "name": "maxPriceImpact",
      "outputs": [
        {
          "internalType": "uint256",
          "name": "",
          "type": "uint256"
        }
      ],
      "stateMutability": "view",
      "type": "function"
    },
    {
      "inputs": [],
      "name": "owner",
      "outputs": [
        {
          "internalType": "address",
          "name": "",
          "type": "address"
        }
      ],
      "stateMutability": "view",
      "type": "function"
    },
    {
      "inputs": [],
      "name": "pause",
      "outputs": [],
      "stateMutability": "nonpayable",
      "type": "function"
    },
    {
      "inputs": [],
      "name": "paused",
      "outputs": [
        {
          "internalType": "bool",
          "name": "",
          "type": "bool"
        }
      ],
      "stateMutability": "view",
      "type": "function"
    },
    {
      "inputs": [
        {
          "internalType": "uint256",
          "name": "amountA",
          "type": "uint256"
        },
        {
          "internalType": "uint256",
          "name": "reserveA",
          "type": "uint256"
        },
        {
          "internalType": "uint256",
          "name": "reserveB",
          "type": "uint256"
        }
      ],
      "name": "quote",
      "outputs": [
        {
          "internalType": "uint256",
          "name": "amountB",
          "type": "uint256"
        }
      ],
      "stateMutability": "pure",
      "type": "function"
    },
    {
      "inputs": [
        {
          "internalType": "address",
          "name": "tokenA",
          "type": "address"
        },
        {
          "internalType": "address",
          "name": "tokenB",
          "type": "address"
        },
        {
          "internalType": "uint256",
          "name": "liquidity",
          "type": "uint256"
        },
        {
          "internalType": "uint256",
          "name": "amountAMin",
          "type": "uint256"
        },
        {
          "internalType": "uint256",
          "name": "amountBMin",
          "type": "uint256"
        },
        {
          "internalType": "address",
          "name": "to",
          "type": "address"
        },
        {
          "internalType": "uint256",
          "name": "deadline",
          "type": "uint256"
        }
      ],
      "name": "removeLiquidity",
      "outputs": [
        {
          "internalType": "uint256",
          "name": "amountA",
          "type": "uint256"
        },
        {
          "internalType": "uint256",
          "name": "amountB",
          "type": "uint256"
        }
      ],
      "stateMutability": "nonpayable",
      "type": "function"
    },
    {
      "inputs": [],
      "name": "renounceOwnership",
      "outputs": [],
      "stateMutability": "nonpayable",
      "type": "function"
    },
    {
      "inputs": [
        {
          "internalType": "bool",
          "name": "stopped",
          "type": "bool"
        }
      ],
      "name": "setEmergencyStop",
      "outputs": [],
      "stateMutability": "nonpayable",
      "type": "function"
    },
    {
      "inputs": [
        {
          "internalType": "address",
          "name": "manager",
          "type": "address"
        },
        {
          "internalType": "bool",
          "name": "authorized",
          "type": "bool"
        }
      ],
      "name": "setManager",
      "outputs": [],
      "stateMutability": "nonpayable",
      "type": "function"
    },
    {
      "inputs": [
        {
          "internalType": "address",
          "name": "operator",
          "type": "address"
        },
        {
          "internalType": "bool",
          "name": "authorized",
          "type": "bool"
        }
      ],
      "name": "setOperator",
      "outputs": [],
      "stateMutability": "nonpayable",
      "type": "function"
    },
    {
      "inputs": [
        {
          "internalType": "address",
          "name": "token",
          "type": "address"
        },
        {
          "internalType": "bool",
          "name": "blacklisted",
          "type": "bool"
        }
      ],
      "name": "setTokenBlacklisted",
      "outputs": [],
      "stateMutability": "nonpayable",
      "type": "function"
    },
    {
      "inputs": [
        {
          "internalType": "address",
          "name": "token",
          "type": "address"
        },
        {
          "internalType": "bool",
          "name": "whitelisted",
          "type": "bool"
        }
      ],
      "name": "setTokenWhitelisted",
      "outputs": [],
      "stateMutability": "nonpayable",
      "type": "function"
    },
    {
      "inputs": [
        {
          "internalType": "bool",
          "name": "enabled",
          "type": "bool"
        }
      ],
      "name": "setWhitelistEnabled",
      "outputs": [],
      "stateMutability": "nonpayable",
      "type": "function"
    },
    {
      "inputs": [
        {
          "internalType": "address",
          "name": "tokenA",
          "type": "address"
        },
        {
          "internalType": "address",
          "name": "tokenB",
          "type": "address"
        }
      ],
      "name": "sortTokens",
      "outputs": [
        {
          "internalType": "address",
          "name": "token0",
          "type": "address"
        },
        {
          "internalType": "address",
          "name": "token1",
          "type": "address"
        }
      ],
      "stateMutability": "pure",
      "type": "function"
    },
    {
      "inputs": [
        {
          "internalType": "uint256",
          "name": "amountOutMin",
          "type": "uint256"
        },
        {
          "internalType": "address[]",
          "name": "path",
          "type": "address[]"
        },
        {
          "internalType": "address",
          "name": "to",
          "type": "address"
        },
        {
          "internalType": "uint256",
          "name": "deadline",
          "type": "uint256"
        }
      ],
      "name": "swapExactETHForTokens",
      "outputs": [
        {
          "internalType": "uint256[]",
          "name": "amounts",
          "type": "uint256[]"
        }
      ],
      "stateMutability": "payable",
      "type": "function"
    },
    {
      "inputs": [
        {
          "internalType": "uint256",
          "name": "amountIn",
          "type": "uint256"
        },
        {
          "internalType": "uint256",
          "name": "amountOutMin",
          "type": "uint256"
        },
        {
          "internalType": "address[]",
          "name": "path",
          "type": "address[]"
        },
        {
          "internalType": "address",
          "name": "to",
          "type": "address"
        },
        {
          "internalType": "uint256",
          "name": "deadline",
          "type": "uint256"
        }
      ],
      "name": "swapExactTokensForTokens",
      "outputs": [
        {
          "internalType": "uint256[]",
          "name": "amounts",
          "type": "uint256[]"
        }
      ],
      "stateMutability": "nonpayable",
      "type": "function"
    },
    {
      "inputs": [
        {
          "internalType": "uint256",
          "name": "amountOut",
          "type": "uint256"
        },
        {
          "internalType": "uint256",
          "name": "amountInMax",
          "type": "uint256"
        },
        {
          "internalType": "address[]",
          "name": "path",
          "type": "address[]"
        },
        {
          "internalType": "address",
          "name": "to",
          "type": "address"
        },
        {
          "internalType": "uint256",
          "name": "deadline",
          "type": "uint256"
        }
      ],
      "name": "swapTokensForExactETH",
      "outputs": [
        {
          "internalType": "uint256[]",
          "name": "amounts",
          "type": "uint256[]"
        }
      ],
      "stateMutability": "nonpayable",
      "type": "function"
    },
    {
      "inputs": [
        {
          "internalType": "uint256",
          "name": "amountOut",
          "type": "uint256"
        },
        {
          "internalType": "uint256",
          "name": "amountInMax",
          "type": "uint256"
        },
        {
          "internalType": "address[]",
          "name": "path",
          "type": "address[]"
        },
        {
          "internalType": "address",
          "name": "to",
          "type": "address"
        },
        {
          "internalType": "uint256",
          "name": "deadline",
          "type": "uint256"
        }
      ],
      "name": "swapTokensForExactTokens",
      "outputs": [
        {
          "internalType": "uint256[]",
          "name": "amounts",
          "type": "uint256[]"
        }
      ],
      "stateMutability": "nonpayable",
      "type": "function"
    },
    {
      "inputs": [
        {
          "internalType": "address",
          "name": "newOwner",
          "type": "address"
        }
      ],
      "name": "transferOwnership",
      "outputs": [],
      "stateMutability": "nonpayable",
      "type": "function"
    },
    {
      "inputs": [],
      "name": "unpause",
      "outputs": [],
      "stateMutability": "nonpayable",
      "type": "function"
    },
    {
      "inputs": [
        {
          "internalType": "uint256",
          "name": "newLimit",
          "type": "uint256"
        }
      ],
      "name": "updatePriceImpactLimit",
      "outputs": [],
      "stateMutability": "nonpayable",
      "type": "function"
    },
    {
      "inputs": [
        {
          "internalType": "uint256",
          "name": "newTolerance",
          "type": "uint256"
        }
      ],
      "name": "updateSlippageTolerance",
      "outputs": [],
      "stateMutability": "nonpayable",
      "type": "function"
    },
    {
      "inputs": [],
      "name": "whitelistEnabled",
      "outputs": [
        {
          "internalType": "bool",
          "name": "",
          "type": "bool"
        }
      ],
      "stateMutability": "view",
      "type": "function"
    },
    {
      "inputs": [
        {
          "internalType": "address",
          "name": "",
          "type": "address"
        }
      ],
      "name": "whitelistedTokens",
      "outputs": [
        {
          "internalType": "bool",
          "name": "",
          "type": "bool"
        }
      ],
      "stateMutability": "view",
      "type": "function"
    },
    {
      "stateMutability": "payable",
      "type": "receive"
    }
  ],
  "bytecode": "0x60c06040523462000090576200001f6200001862000144565b90620001eb565b6040516141d36200041c8239608051818181610b550152818161278901528181612b3101528181612ec5015281816130ee0152818161344f015281816134ee01528181613608015261386c015260a051818181610a2001528181610fff01528181611e6f015261225701526141d390f35b600080fd5b634e487b7160e01b600052604160045260246000fd5b90601f01601f191681019081106001600160401b03821117620000cd57604052565b62000095565b90620000ea620000e260405190565b9283620000ab565b565b6001600160a01b031690565b90565b6001600160a01b038116036200009057565b90505190620000ea82620000fb565b91906040838203126200009057620000f8906200013a81856200010d565b936020016200010d565b62000167620045ef803803806200015b81620000d3565b9283398101906200011c565b9091565b90600019905b9181191691161790565b620000f8620000f8620000f89290565b906200019f620000f8620001a7926200017b565b82546200016b565b9055565b620000ec620000f8620000f89290565b620000f890620001ab565b9060ff9062000171565b90620001e3620000f8620001a792151590565b8254620001c6565b90620001f733620002b1565b620002066101f460036200018b565b620002156103e860046200018b565b6000906200022382620001bb565b6001600160a01b0381166001600160a01b038516146200028c576001600160a01b03166001600160a01b038216146200027657620000ea9260805260a0526200026e816005620001d0565b6008620001d0565b604051637c39320360e11b8152600490fd5b0390fd5b604051637a44db9560e01b8152600490fd5b6001600160a01b03909116815260200190565b620002bb62000313565b620002c76000620001bb565b6001600160a01b0381166001600160a01b03831614620002ed5750620000ea90620003b9565b6200028890620002fc60405190565b631e4fbdf760e01b8152918291600483016200029e565b620000ea620000ea6200032d565b620000f860016200017b565b620000ea6200033b62000321565b60006200018b565b620000f89060081c620000ec565b620000f8905462000343565b90610100600160a81b039060081b62000171565b620000f890620000ec906001600160a01b031682565b620000f89062000371565b620000f89062000387565b90620003b1620000f8620001a79262000392565b82546200035d565b620003c5600162000351565b90620003d38160016200039d565b6200040a620004037f8be0079c531659141344cd1fd0a4f28419497f9722a3daafe3b4186f6b6457e09362000392565b9162000392565b916200041560405190565b600090a356fe60806040526004361015610023575b361561001957600080fd5b610021610fe1565b005b60003560e01c8063052d9e7e146102b3578063054d50d4146102ae5780630f9da743146102a957806316c8357f146102a45780631f00ca741461029f57806338ed17391461029a5780633a9c5712146102955780633f4ba83a146102905780634a25d94a1461028b5780634a48d057146102865780634ece7c061461028157806351fb012d1461027c578063544caa5614610277578063558a7297146102725780635c8b5f441461026d5780635c975abb1461026857806363a599a4146102635780636839b5fa1461025e57806369cbae24146102595780636d70f7ae14610254578063715018a61461024f5780637ff36ab51461024a5780638456cb591461024557806385f8c259146102405780638803dbee1461023b5780638da5cb5b146102365780639d7b8ce214610231578063a5e90eee1461022c578063ad5c464814610227578063ad615dec14610222578063baa2abde1461021d578063c30e659b14610218578063c45a015514610213578063c73d7c7b1461020e578063d06ca61f14610209578063daf9c21014610204578063de0f4ddb146101ff578063e63ea408146101fa578063e8e33700146101f5578063f2fde38b146101f05763f3ae24150361000e57610d33565b610d09565b610cd5565b610c28565b610be6565b610bbf565b610b91565b610b79565b610b40565b610b25565b610add565b610a44565b610a0b565b6109f2565b6109da565b610997565b610975565b610959565b610941565b610927565b6108bc565b6108a1565b610874565b610847565b61080c565b6107e5565b6107ca565b61079a565b610749565b6106f8565b6106b7565b610626565b610604565b6105ec565b6105d3565b61058e565b6104c3565b6103d7565b610392565b610352565b6102ee565b8015155b036102c357565b600080fd5b905035906102d5826102b8565b565b906020828203126102c3576102eb916102c8565b90565b346102c3576103066103013660046102d7565b613f28565b604051005b0390f35b806102bc565b905035906102d58261030f565b90916060828403126102c3576102eb61033b8484610315565b936103498160208601610315565b93604001610315565b346102c35761030b61036e610368366004610322565b9161322c565b6040519182918290815260200190565b906020828203126102c3576102eb91610315565b346102c3576103066103a536600461037e565b613b27565b60009103126102c357565b6102eb916008021c81565b906102eb91546103b5565b6102eb600060046103c0565b346102c3576103e73660046103aa565b61030b61036e6103cb565b909182601f830112156102c35781359167ffffffffffffffff83116102c35760200192602083028401116102c357565b9190916040818403126102c3576104398382610315565b92602082013567ffffffffffffffff81116102c35761045892016103f2565b9091565b9061047c61047561046b845190565b8084529260200190565b9260200190565b9060005b81811061048d5750505090565b9091926104aa6104a36001928651815260200190565b9460200190565b929101610480565b60208082526102eb9291019061045c565b346102c35761030b6104df6104d9366004610422565b91613074565b604051918291826104b2565b73ffffffffffffffffffffffffffffffffffffffff1690565b73ffffffffffffffffffffffffffffffffffffffff81166102bc565b905035906102d582610504565b9060a0828203126102c3576105428183610315565b926105508260208501610315565b9260408101359167ffffffffffffffff83116102c357610575846102eb9484016103f2565b9390946105858160608601610520565b93608001610315565b346102c35761030b6104df6105a436600461052d565b949390939291926118a9565b91906040838203126102c3576102eb906105ca8185610520565b936020016102c8565b346102c3576103066105e63660046105b0565b90613e92565b346102c3576105fc3660046103aa565b61030661410b565b346102c35761030b6104df61061a36600461052d565b9493909392919261258e565b346102c3576103066106393660046105b0565b90613df8565b906020828203126102c3576102eb91610520565b6104eb6102eb6102eb9273ffffffffffffffffffffffffffffffffffffffff1690565b6102eb90610653565b6102eb90610676565b906106929061067f565b600052602052604060002090565b6102eb906106b2600291600092610688565b6103c0565b346102c35761030b61036e6106cd36600461063f565b6106a0565b6102eb916008021c5b60ff1690565b906102eb91546106d2565b6102eb600060086106e1565b346102c3576107083660046103aa565b61030b6107136106ec565b6040515b91829182901515815260200190565b91906040838203126102c3576102eb906107408185610520565b93602001610520565b346102c35761076261075c366004610726565b90613824565b9061030b61076f60405190565b9283928373ffffffffffffffffffffffffffffffffffffffff91821681529116602082015260400190565b346102c3576103066107ad3660046105b0565b90613d4f565b6102eb906107c5600691600092610688565b6106e1565b346102c35761030b6107136107e036600461063f565b6107b3565b346102c3576107f53660046103aa565b61030b610713610f9c565b6102eb600060056106e1565b346102c35761081c3660046103aa565b61030b610713610800565b6102eb6102eb6102eb9290565b6102eb611388610827565b6102eb610834565b346102c3576108573660046103aa565b61030b61036e61083f565b6102eb601e610827565b6102eb610862565b346102c3576108843660046103aa565b61030b61036e61086c565b6102eb906107c5600a91600092610688565b346102c35761030b6107136108b736600461063f565b61088f565b346102c3576108cc3660046103aa565b610306610da6565b916080838303126102c3576108e98284610315565b9260208101359167ffffffffffffffff83116102c35761090e846102eb9484016103f2565b93909461091e8160408601610520565b93606001610315565b61030b6104df6109383660046108d4565b93929092612127565b346102c3576109513660046103aa565b61030661405c565b346102c35761030b61036e61096f366004610322565b916132a1565b346102c35761030b6104df61098b36600461052d565b94939093929192611dba565b346102c3576109a73660046103aa565b61030b6109b2610d64565b6040515b9182918273ffffffffffffffffffffffffffffffffffffffff909116815260200190565b346102c3576103066109ed36600461037e565b613c03565b346102c357610306610a053660046105b0565b90613ce2565b346102c357610a1b3660046103aa565b61030b7f00000000000000000000000000000000000000000000000000000000000000006109b2565b346102c35761030b61036e610a5a366004610322565b916137d7565b60e0818303126102c357610a748282610520565b92610a828360208401610520565b92610a908160408501610315565b92610a9e8260608301610315565b926102eb610aaf8460808501610315565b93610abd8160a08601610520565b9360c001610315565b9081526040810192916102d59160200152565b0152565b346102c357610afc610af0366004610a60565b95949094939193612d7b565b9061030b610b0960405190565b92839283610ac6565b6102eb6107d0610827565b6102eb610b12565b346102c357610b353660046103aa565b61030b61036e610b1d565b346102c357610b503660046103aa565b61030b7f00000000000000000000000000000000000000000000000000000000000000006109b2565b346102c357610306610b8c3660046102d7565b613cb8565b346102c35761030b6104df610ba7366004610422565b91612e69565b6102eb906107c5600791600092610688565b346102c35761030b610713610bd536600461063f565b610bad565b6102eb600060036103c0565b346102c357610bf63660046103aa565b61030b61036e610bda565b90916060828403126102c3576102eb610c1a8484610520565b936103498160208601610520565b346102c357610306610c3b366004610c01565b91613f99565b9190610100838203126102c357610c588184610520565b92610c668260208301610520565b92610c748360408401610315565b92610c828160608501610315565b92610c908260808301610315565b926102eb610ca18460a08501610315565b93610caf8160c08601610520565b9360e001610315565b9081526060810193926102d5929091604091610ad9906020830152565b346102c35761030b610cfa610ceb366004610c41565b9695909594919493929361295d565b60405191939193849384610cb8565b346102c357610306610d1c36600461063f565b610ee4565b6102eb906107c5600991600092610688565b346102c35761030b610713610d4936600461063f565b610d21565b6102eb9060081c6104eb565b6102eb9054610d4e565b6102eb6001610d5a565b610d76610dae565b6102d5610d94565b6104eb6102eb6102eb9290565b6102eb90610d7e565b6102d5610da16000610d8b565b610f2e565b6102d5610d6e565b610db6610d64565b3390610dd7825b9173ffffffffffffffffffffffffffffffffffffffff1690565b03610ddf5750565b610e3690610dec60405190565b9182917f118cdaa70000000000000000000000000000000000000000000000000000000083526004830173ffffffffffffffffffffffffffffffffffffffff909116815260200190565b0390fd5b6102d590610e46610dae565b610e506000610d8b565b73ffffffffffffffffffffffffffffffffffffffff811673ffffffffffffffffffffffffffffffffffffffff831614610e8d57506102d590610f2e565b610e3690610e9a60405190565b9182917f1e4fbdf70000000000000000000000000000000000000000000000000000000083526004830173ffffffffffffffffffffffffffffffffffffffff909116815260200190565b6102d590610e3a565b9074ffffffffffffffffffffffffffffffffffffffff009060081b5b9181191691161790565b90610f236102eb610f2a9261067f565b8254610eed565b9055565b610f386001610d5a565b90610f44816001610f13565b610f77610f717f8be0079c531659141344cd1fd0a4f28419497f9722a3daafe3b4186f6b6457e09361067f565b9161067f565b91610f8160405190565b80805b0390a3565b6102eb906106db565b6102eb9054610f89565b6102eb6001610f92565b7f4e487b7100000000000000000000000000000000000000000000000000000000600052600160045260246000fd5b15610fdc57565b610fa6565b6102d53361102473ffffffffffffffffffffffffffffffffffffffff7f000000000000000000000000000000000000000000000000000000000000000016610dbd565b14610fd5565b9061104196959493929161103c611a7e565b61104a565b906102d5611ad7565b906102eb96959493929161105c611a3b565b95949392919061106c6005610f92565b611079576102eb96611135565b6040517f3bfc1f04000000000000000000000000000000000000000000000000000000008152600490fd5b6102eb9081565b6102eb90546110a4565b7f4e487b7100000000000000000000000000000000000000000000000000000000600052601160045260246000fd5b919082018092116110f157565b6110b5565b907fffffffffffffffffffffffffffffffffffffffffffffffffffffffffffffffff90610f09565b9061112e6102eb610f2a92610827565b82546110f6565b909291949396954294600298899461116a6102eb61115c61115733809a610688565b6110ab565b611164610862565b906110e4565b881061118c576102d598611187976111819661146f565b95610688565b61111e565b6040517fa74c1c5f000000000000000000000000000000000000000000000000000000008152600490fd5b7fffffffffffffffffffffffffffffffffffffffffffffffffffffffffffffffff81146110f15760010190565b7f4e487b7100000000000000000000000000000000000000000000000000000000600052603260045260246000fd5b9190811015611223576020020190565b6111e4565b356102eb81610504565b919082039182116110f157565b90611248825190565b811015611223576020809102010190565b818102929181159184041417156110f157565b7f4e487b7100000000000000000000000000000000000000000000000000000000600052601260045260246000fd5b906112a5565b9190565b9081156112b0570490565b61126c565b7f4e487b7100000000000000000000000000000000000000000000000000000000600052604160045260246000fd5b90601f017fffffffffffffffffffffffffffffffffffffffffffffffffffffffffffffffe016810190811067ffffffffffffffff82111761132457604052565b6112b5565b906102d561133660405190565b92836112e4565b67ffffffffffffffff81116113245760208091020190565b9092919261136a6113658261133d565b611329565b93818552602080860192028301928184116102c357915b83831061138e5750505050565b6020809161139c8486610520565b815201920191611381565b6102eb913691611355565b506102eb906020810190610520565b818352602090920191906000825b8282106113dd575050505090565b909192936114196114126001926113f488866113b2565b73ffffffffffffffffffffffffffffffffffffffff16815260200190565b9560200190565b939201906113cf565b926114606102d5979260a09661146893611453610ad9979d9c9a9d61144c60c08b019560008c0152565b60208a0152565b87830360408901526113c1565b986060850152565b6080830152565b5090959294919390929042831061187e57859661148c6002610827565b88106118535760009461149e86610d8b565b9573ffffffffffffffffffffffffffffffffffffffff871673ffffffffffffffffffffffffffffffffffffffff851614611828576114db81610827565b82146117fd576114ea81610827565b8a81101561161f57611505611500828c8c611213565b611228565b61152473ffffffffffffffffffffffffffffffffffffffff8a16610dbd565b146115f45761154a611545600661153f611500858f8f611213565b90610688565b610f92565b6115c9576115586008610f92565b89828c836115a1575b50505061157657611571906111b7565b6114ea565b6040517ff84835a0000000000000000000000000000000000000000000000000000000008152600490fd5b6115c193509161153f611500611545936115bd95600794611213565b1590565b89828c611561565b6040517f1230cf7a000000000000000000000000000000000000000000000000000000008152600490fd5b6040517fc1ab6dc1000000000000000000000000000000000000000000000000000000008152600490fd5b5091949890929550969296611635848885612e69565b908199611640835190565b9561166661166261165c6001996116568b610827565b90611232565b8661123f565b5190565b9233986116728a613a19565b61167b88610827565b8211156117c55750975b88851061179a57846116c26115008e866116bc6116c9976116566116b68f6116af61150091610827565b8688611213565b98610827565b91611213565b918961385f565b936116d76102eb60046110ab565b851161176f578961172991611723848e61171e8c8f61170e611709610f849f61170261150091610827565b8888611213565b61067f565b906117183061067f565b91611928565b6113a7565b90613368565b61175c6117567f7a5736f42ff467846f1acb611f138e0ada2779176256f502007d29b8e3bb0f1a9961067f565b9961067f565b9961176660405190565b97889788611422565b6040517ffb30d03a000000000000000000000000000000000000000000000000000000008152600490fd5b6040517f42301c23000000000000000000000000000000000000000000000000000000008152600490fd5b6117f791506117f16117eb6117e5612710936117e085610827565b611232565b88611259565b91610827565b9061129b565b97611685565b6040517f098fb561000000000000000000000000000000000000000000000000000000008152600490fd5b6040517f290fa188000000000000000000000000000000000000000000000000000000008152600490fd5b6040517f20db8267000000000000000000000000000000000000000000000000000000008152600490fd5b6040517f203d82d8000000000000000000000000000000000000000000000000000000008152600490fd5b6102eb959493929190606061102a565b6118d26118cc6102eb9263ffffffff1690565b60e01b90565b7fffffffff000000000000000000000000000000000000000000000000000000001690565b73ffffffffffffffffffffffffffffffffffffffff9182168152911660208201526060810192916102d59160400152565b9061196d9061195e6102d5956004956119446323b872dd6118b9565b9361194e60405190565b97889560208701908152016118f7565b602082018103825203836112e4565b90600060209161197b600090565b50828151910182855af115611a2f57600080513d61199b6112a184610827565b03611a1957506119b76112a16119b08461067f565b3b92610827565b145b6119c05750565b6119cc610e369161067f565b6040519182917f5274afe70000000000000000000000000000000000000000000000000000000083526004830173ffffffffffffffffffffffffffffffffffffffff909116815260200190565b9050611a286112a16001610827565b14156119b9565b6040513d6000823e3d90fd5b611a43610f9c565b611a4957565b6040517fd93c0665000000000000000000000000000000000000000000000000000000008152600490fd5b6102eb6002610827565b611a8860006110ab565b611a90611a74565b908114611aa2576102d590600061111e565b6040517f3ee5aeb5000000000000000000000000000000000000000000000000000000008152600490fd5b6102eb6001610827565b6102d5611ae2611acd565b600061111e565b90611041969594939291611afb611a7e565b906102eb969594939291611b0d611a3b565b959493929190611b1d6005610f92565b611079576002966102eb969295429592943394929390611b448a61115c611157898f610688565b881061118c576102d59861118797909550919390926111819042831061187e5785611b6f6002610827565b811061185357600097611b8189610d8b565b9573ffffffffffffffffffffffffffffffffffffffff871673ffffffffffffffffffffffffffffffffffffffff85161461182857611bbe8a610827565b811461179a57611bcd8a610827565b83811015611c6d57611be3611500828c8c611213565b611c0273ffffffffffffffffffffffffffffffffffffffff8a16610dbd565b146115f457611c1d611545600661153f611500858f8f611213565b6115c957611c2b6008610f92565b89828c83611c49575b50505061157657611c44906111b7565b611bcd565b611c6593509161153f611500611545936115bd95600794611213565b89828c611c34565b509194989092955096959296611c84878584613074565b948599611c9c611662611c9685610827565b8961123f565b91858311611d8f57611cdd9085611cd66115008d611ccf611cc46115008e846116bc8e610827565b956116566001610827565b908c611213565b918561385f565b92611ceb6102eb60046110ab565b841161176f57611cfa90610827565b611d05908a88611213565b611d0e90611228565b611d179061067f565b3397908389611d253061067f565b90611d2f93611928565b88611d3a8b896113a7565b611d4392613368565b7f7348e893a94619017e9abb4d083928e049571c66dfb692f4bfa473851ae17ae196611d6e9061067f565b97611d789061067f565b98611d8260405190565b968796610f849688611422565b6040517fe1b0da4f000000000000000000000000000000000000000000000000000000008152600490fd5b6102eb9594939291906060611ae9565b906110419594939291611ddb611a7e565b906102eb9594939291611dec611a3b565b9493929190611dfb6005610f92565b611079576102eb94929091939542936002978893611e236102eb61115c611157338099610688565b871061118c576102d597611187969450909290916111819042831061187e578495611e4e6002610827565b871061185357600093611e6d611500611e6687610827565b8989611213565b7f000000000000000000000000000000000000000000000000000000000000000090611eae73ffffffffffffffffffffffffffffffffffffffff8316610dbd565b0361185357611ebc86610d8b565b9573ffffffffffffffffffffffffffffffffffffffff871673ffffffffffffffffffffffffffffffffffffffff861614611828573491611efb82610827565b83146117fd57611f0a82610827565b8b811015611fac57611f20611500828d8d611213565b611f3f73ffffffffffffffffffffffffffffffffffffffff8b16610dbd565b146115f457611f5c6115458b61153f6115008f8690600694611213565b6115c957611f6a6008610f92565b8a828d83611f88575b50505061157657611f83906111b7565b611f0a565b611fa493509161153f611500611545936115bd95600794611213565b8a828d611f73565b5091939598999092949650611fc28a8986612e69565b94859a611fcd875190565b96611fe9611662611fe360019a6116568c610827565b8361123f565b933399611ff58b613a19565b611ffe89610827565b8211156121005750985b89861061179a576115008d856116bc61202f9561165661202796610827565b85878a61385f565b9461203d6102eb60046110ab565b861161176f5761170961204f9161067f565b63d0e30db090803b156102c35761207491889161206b60405190565b93849260e01b90565b825260049082908c905af19182156120fb57611723848e610f849a8f956120a1976120ce575b50506113a7565b61175c6117567f884ff4613f3cf774e31959174fd629144a90c667e3022f774f577c7241e34d939961067f565b816120ed92903d106120f4575b6120e581836112e4565b8101906103aa565b388061209a565b503d6120db565b611a2f565b61212191506117f16117eb61211b612710936117e085610827565b89611259565b98612008565b6102eb94939291906060611dca565b90611041969594939291612148611a7e565b906102eb96959493929161215a611a3b565b95949392919061216a6005610f92565b611079576002966102eb9692954295929433949293906121918a61115c611157898f610688565b881061118c576102d5986111879761118196612214565b67ffffffffffffffff811161132457602090601f017fffffffffffffffffffffffffffffffffffffffffffffffffffffffffffffffe0160190565b906121f0611365836121a8565b918252565b3d1561220f576122043d6121e3565b903d6000602084013e565b606090565b509495949193929142871061187e578261222e6002610827565b811061185357600161225561150061224e61224884610827565b85611232565b878a611213565b7f0000000000000000000000000000000000000000000000000000000000000000929061229773ffffffffffffffffffffffffffffffffffffffff8516610dbd565b03611853576000906122a882610d8b565b73ffffffffffffffffffffffffffffffffffffffff811673ffffffffffffffffffffffffffffffffffffffff8a1614611828576122e483610827565b861461179a5783916122f584610827565b925b6124e2575b50505061230a868986613074565b998a61231b611662611fe385610827565b92878411611d8f5761233f86886123396115008f8e6116bc88610827565b8761385f565b9461234d6102eb60046110ab565b861161176f5789968c8861236085610827565b9061236a92611213565b61237390611228565b61237c9061067f565b8d339c8d92893061238c9061067f565b809561239793611928565b6123a0916113a7565b906123ab9186613368565b6123b49061067f565b6123bd9061067f565b90632e1a7d4d6123cb855190565b6123d483610827565b6123dd91611232565b6123e7908661123f565b51833b156102c35761241d9361240f86809461240260405190565b9788958694859360e01b90565b835260048301526024820190565b03925af19182156120fb576124669461244a612450936116629387966124c6575b506116566117eb845190565b9061123f565b6040516000918d5af16124616121f5565b501590565b61249b57610f849361175c6117567fe305e4738612b170121c021ca201f2329e5f1c085fdf5a14c2776f86cef8fd519961067f565b6040517f6d963f88000000000000000000000000000000000000000000000000000000008152600490fd5b6124dc90873d89116120f4576120e581836112e4565b3861243e565b8a89828510156125875784611500916124fa93611213565b61251973ffffffffffffffffffffffffffffffffffffffff8416610dbd565b146115f4576125356115458c61153f611500878e600694611213565b6115c9576125436008610f92565b8b848b83612563575b5050506115765761255d85936111b7565b926122f7565b61257f93509161153f611500611545936115bd95600794611213565b8b848b61254c565b50506122fc565b6102eb9594939291906060612136565b906125b99a9998979695949392916125b4611a7e565b6125c4565b9091926102d5611ad7565b906125df9a9998979695949392916125da611a3b565b6125e4565b909192565b999897969594939291906125f86005610f92565b611079576125df9a612647565b905051906102d582610504565b906020828203126102c3576102eb91612605565b905051906102d58261030f565b906020828203126102c3576102eb91612626565b9a98979495969399929a50505061265e6112a14290565b1061187e5760009361266f85610d8b565b73ffffffffffffffffffffffffffffffffffffffff811673ffffffffffffffffffffffffffffffffffffffff881614611828576126ab86610827565b8514801561294c575b6129215773ffffffffffffffffffffffffffffffffffffffff811673ffffffffffffffffffffffffffffffffffffffff8b16146115f4576006906126fb6115458c84610688565b6115c9576127096008610f92565b8061290a575b6115765773ffffffffffffffffffffffffffffffffffffffff1673ffffffffffffffffffffffffffffffffffffffff8a16146115f4576115458961275292610688565b6115c9576127606008610f92565b806128f3575b6115765761277593888a6135f1565b929091839583976127bc60206127ad6117097f000000000000000000000000000000000000000000000000000000000000000061067f565b63b4f69a2f9061206b60405190565b825273ffffffffffffffffffffffffffffffffffffffff85811660048401528616602483015260449082905afa80156120fb576128709760209761284c9561283095611709956000956128ae575b509161282b8592611709612821611709979661067f565b9385338096611928565b611928565b91636a62784261283f60405190565b9687958694859360e01b90565b835273ffffffffffffffffffffffffffffffffffffffff1660048301526024820190565b03925af19081156120fb57600091612886575090565b6102eb915060203d81116128a7575b61289f81836112e4565b810190612633565b503d612895565b6128219550611709949391926117096128df61282b938f3d81116128ec575b6128d781836112e4565b810190612612565b975050929193945061280a565b503d6128cd565b506129056115bd6115458a6007610688565b612766565b5061291c6115bd6115458d6007610688565b61270f565b6040517f5c6779c4000000000000000000000000000000000000000000000000000000008152600490fd5b5061295686610827565b82146126b4565b6125df97969594939291906000808061259e565b9061298a9897969594939291612985611a7e565b612994565b90916102d5611ad7565b9061045898979695949392916129a8611a3b565b97969594939291906129ba6005610f92565b6110795761045898612a0b565b905051906102d5826102b8565b906020828203126102c3576102eb916129c7565b91906040838203126102c3576102eb90612a028185612626565b93602001612626565b989693929498979195975050612a216112a14290565b1061187e57600093612a3285610d8b565b73ffffffffffffffffffffffffffffffffffffffff811673ffffffffffffffffffffffffffffffffffffffff85161461182857612a6e86610827565b8314612d505773ffffffffffffffffffffffffffffffffffffffff811673ffffffffffffffffffffffffffffffffffffffff8316146115f457600690612ab76115458484610688565b6115c957612ac56008610f92565b80612d39575b6115765773ffffffffffffffffffffffffffffffffffffffff1673ffffffffffffffffffffffffffffffffffffffff8616146115f45761154585612b0e92610688565b6115c957612b1c6008610f92565b80612d22575b61157657602090612b556117097f000000000000000000000000000000000000000000000000000000000000000061067f565b612b7663b4f69a2f612ba2612b6960405190565b9889958694859460e01b90565b845273ffffffffffffffffffffffffffffffffffffffff90811660048501521660248301526044820190565b03915afa9283156120fb57600093612d02575b506020612be7612bc76117098661067f565b92612bf26323b872dd913397612bdc60405190565b988995869560e01b90565b8552600485016118f7565b038187855af180156120fb57612c1d9460409461284c92612cd6575b506389afcb4461283f60405190565b03925af19283156120fb57600080929094612ca3575b508193612c416112a1829790565b10612c785711612c4d57565b6040517fef71d091000000000000000000000000000000000000000000000000000000008152600490fd5b6040517f8dc525d1000000000000000000000000000000000000000000000000000000008152600490fd5b909350612cc7915060403d8111612ccf575b612cbf81836112e4565b8101906129e8565b909238612c33565b503d612cb5565b612cf69060203d8111612cfb575b612cee81836112e4565b8101906129d4565b612c0e565b503d612ce4565b612d1b91935060203d81116128ec576128d781836112e4565b9138612bb5565b50612d346115bd611545866007610688565b612b22565b50612d4b6115bd611545856007610688565b612acb565b6040517fbb55fd27000000000000000000000000000000000000000000000000000000008152600490fd5b61045896959493929190600080612971565b906121f06113658361133d565b369037565b906102d5612db5612daf84612d8d565b9361133d565b7fffffffffffffffffffffffffffffffffffffffffffffffffffffffffffffffe00160208401612d9a565b6dffffffffffffffffffffffffffff81166102bc565b905051906102d582612de0565b63ffffffff81166102bc565b905051906102d582612e03565b90916060828403126102c3576102eb612e358484612df6565b93612e438160208601612df6565b93604001612e0f565b6102eb6102eb6102eb926dffffffffffffffffffffffffffff1690565b929180612e766002610827565b821061185357612e8582612d9f565b94612e9b8691612e98611c966000610827565b52565b60005b600190612eb66102eb612eb084610827565b87611232565b81101561304057612ee96117097f000000000000000000000000000000000000000000000000000000000000000061067f565b602063b4f69a2f91612eff61150085898c611213565b90612b76612f1d6115008c8b6116bc612f178c610827565b8b6110e4565b94612f37612f2a60405190565b9687958694859460e01b90565b03915afa9081156120fb57612f5d611709612f6c93606093600091613022575b5061067f565b630902f1ac9061206b60405190565b825260049082905afa9283156120fb57612e98612fce612fc8612fc28d612fd49688612fd99a600080939091612fde575b50612fbd91612fb7612fb161166293612e4c565b94612e4c565b9461123f565b61322c565b93610827565b856110e4565b8b61123f565b6111b7565b612e9e565b612fb19350611662915091612fb761300f612fbd9460603d811161301b575b61300781836112e4565b810190612e1c565b50955092505091612f9d565b503d612ffd565b61303a915060203d81116128ec576128d781836112e4565b38612f57565b50509450505050565b80156110f1577fffffffffffffffffffffffffffffffffffffffffffffffffffffffffffffffff0190565b919291836130826002610827565b8510611853576130b89161309586612d9f565b936130c785976130be6130a6885190565b94612e98600198899761165689610827565b8a61123f565b61165684610827565b915b6130d5575b5050505050565b6130df6000610827565b821115613227576131126117097f000000000000000000000000000000000000000000000000000000000000000061067f565b91602063b4f69a2f9361313a61150061313361312d8a610827565b86611232565b8887611213565b90612b7661314c611500868a89611213565b96613159612b6960405190565b03915afa9283156120fb5761317e61170961319695606093600091613022575061067f565b630902f1ac9061318d60405190565b95869260e01b90565b825260049082905afa9081156120fb576131f26131e387956131f7946000809290916131fd575b506131ca6131d091612e4c565b91612e4c565b906131de611662868d61123f565b6132a1565b612e986130b861224888610827565b613049565b916130c9565b6131ca92506131d0915061321e9060603d811161301b5761300781836112e4565b509250906131bd565b6130ce565b600061323781610827565b82146117fd5761324681610827565b831490811561328f575b50612d50576102eb9261328a61327e6132776117f1946132716103e5610827565b90611259565b9283611259565b936132716103e8610827565b6110e4565b6132999150610827565b831438613250565b9160006132ad81610827565b841461179a576132bc81610827565b831490811561330b575b50612d50576117f16132f6846132f06132e56102eb9761330197611259565b6132716103e8610827565b93611232565b6132716103e5610827565b6111646001610827565b6133159150610827565b8114386132c6565b9081526102eb9260808201926133569190613339906020850152565b73ffffffffffffffffffffffffffffffffffffffff166040830152565b60608183039101526000815260200190565b919092613373600090565b8451906133886102eb60019361165685610827565b8110156135e9576133b661339c828861123f565b5173ffffffffffffffffffffffffffffffffffffffff1690565b6133c861339c611c96612fc886610827565b926133ef610dbd6116626130b86133e96133e28988613824565b5095610827565b876110e4565b73ffffffffffffffffffffffffffffffffffffffff8316600091036135da57506134196000610827565b90935b88516134306102eb60029261165684610827565b8510156135d05760206134ce918b6134a261348b61339c6134736117097f000000000000000000000000000000000000000000000000000000000000000061067f565b9361244a61348563b4f69a2f97610827565b8d6110e4565b9261349560405190565b9586948593849360e01b90565b835273ffffffffffffffffffffffffffffffffffffffff808a1660048501521660248301526044820190565b03915afa80156120fb576020916000916135b3575b50935b6135126117097f000000000000000000000000000000000000000000000000000000000000000061067f565b612b7663b4f69a2f613526612f2a60405190565b03915afa9081156120fb576135469161170991600091613022575061067f565b63022c0d9f813b156102c35760006135739161357e829661356660405190565b998a978896879560e01b90565b85526004850161331d565b03925af19182156120fb576135989261359d575b506111b7565b613373565b6135ad9060006120e581836112e4565b38613592565b6135ca9150823d81116128ec576128d781836112e4565b386134e3565b50602087936134e6565b6135e390610827565b9361341c565b505092505050565b9293909491946135ff600090565b5061362c6117097f000000000000000000000000000000000000000000000000000000000000000061067f565b9363b4f69a2f9061363c60405190565b956136478360e01b90565b875273ffffffffffffffffffffffffffffffffffffffff828116600489015284166024880152602087604481845afa9687156120fb576000976137b7575b50600096613698610dbd6104eb8a610d8b565b036136a857505050505050509091565b612b766020936136ba612f2a60405190565b03915afa9081156120fb57612f5d6117096136df93606093600091613022575061067f565b825260049082905afa80156120fb57600091829161378d575b506131ca61370591612e4c565b9361370f81610827565b8214908161377b575b501561372657505050509091565b613735848288979596976137d7565b9483861161374b57505050508110612c4d579091565b839550613771945061376991613765916102eb94956137d7565b9590565b851115610fd5565b8210612c78579091565b6137859150610827565b841438613718565b6131ca925061370591506137ae9060603d811161301b5761300781836112e4565b509250906136f8565b6137d091975060203d81116128ec576128d781836112e4565b9538613685565b60006137e281610827565b8214612921576137f181610827565b8314908115613812575b50612d50576102eb9261380d91611259565b61129b565b61381c9150610827565b8314386137fb565b90919073ffffffffffffffffffffffffffffffffffffffff831673ffffffffffffffffffffffffffffffffffffffff821610156102eb579190565b91906020906138906117097f000000000000000000000000000000000000000000000000000000000000000061067f565b612b7663b4f69a2f6138a4612b6960405190565b03915afa9283156120fb576000936139f9575b506000916138c76104eb84610d8b565b73ffffffffffffffffffffffffffffffffffffffff8516146139ed57606061317e6117096138f5959661067f565b825260049082905afa80156120fb5760009384916139c3575b5061391b61392191612e4c565b93612e4c565b9161392b85610827565b841480156139b2575b6139a55761397692916132716117eb61380d93613970670de0b6b3a76400009461396a8a61380d61396489610827565b8b611259565b996110e4565b95611232565b8082116139885750506102eb90610827565b6102eb925061399a61380d9183611232565b613271612710610827565b505050506102eb90610827565b506139bc85610827565b8314613934565b61391b945061392191506139e49060603d811161301b5761300781836112e4565b5094509061390e565b50506102eb9150610827565b613a1291935060203d81116128ec576128d781836112e4565b91386138b7565b506102eb60036110ab565b33613a306104eb610d64565b73ffffffffffffffffffffffffffffffffffffffff821614159081613a89575b50613a5e576102d590613aa2565b6040517f3f0ee087000000000000000000000000000000000000000000000000000000008152600490fd5b613a9c91506115456115bd916009610688565b38613a50565b613aad6102eb610b12565b8111613afc57613abd60036110ab565b90613ac981600361111e565b7fddd31550b26e9ef8ade466958be83ff8a014d9b4f36d546b61a6847a4530657591613af7610b0960405190565b0390a1565b6040517fa1153ba2000000000000000000000000000000000000000000000000000000008152600490fd5b6102d590613a24565b33613b3c6104eb610d64565b73ffffffffffffffffffffffffffffffffffffffff821614159081613b6a575b50613a5e576102d590613b83565b613b7d91506115456115bd916009610688565b38613b5c565b613b8e6102eb610834565b8111613bd857613b9e60046110ab565b90613baa81600461111e565b7f57ec73c88f6c24a621d861de661e82ca919672df2db5b972c317b19563182bc591613af7610b0960405190565b6040517f8404f626000000000000000000000000000000000000000000000000000000008152600490fd5b6102d590613b30565b33613c186104eb610d64565b73ffffffffffffffffffffffffffffffffffffffff821614159081613c46575b50613a5e576102d590613c7f565b613c5991506115456115bd916009610688565b38613c38565b9060ff90610f09565b90613c786102eb610f2a92151590565b8254613c5f565b613c8a816005613c68565b613af77f4820cf6e28a8a9bda5092cad96ea0573beef6a2127028bf975724a36c365fbac9161071760405190565b6102d590613c0c565b906102d591613cce610dae565b90613cdd6102d5926009610688565b613c68565b906102d591613cc1565b9033613cf96104eb610d64565b73ffffffffffffffffffffffffffffffffffffffff821614159081613d27575b50613a5e576102d591613d40565b613d3a91506115456115bd916009610688565b38613d19565b90613cdd6102d592600a610688565b906102d591613cec565b9033613d666104eb610d64565b73ffffffffffffffffffffffffffffffffffffffff821614159081613d94575b50613a5e576102d591613dad565b613da791506115456115bd916009610688565b38613d86565b613dbc82613cdd836006610688565b613df3613de97fced2684241c29578df8f7fbab74348d0053114fa157b900b2f1f4a1d4a2b33959261067f565b9261071760405190565b0390a2565b906102d591613d59565b9033613e0f6104eb610d64565b73ffffffffffffffffffffffffffffffffffffffff821614159081613e3d575b50613a5e576102d591613e56565b613e5091506115456115bd916009610688565b38613e2f565b613e6582613cdd836007610688565b613df3613de97fef81a9943b96c8df4ef243401c9bf5159146166211356898b52d382086168d929261067f565b906102d591613e02565b33613ea86104eb610d64565b73ffffffffffffffffffffffffffffffffffffffff821614159081613ed6575b50613a5e576102d590613eef565b613ee991506115456115bd916009610688565b38613ec8565b613efa816008613c68565b613af77f9bea0dd3cae4438dc4c54c3110002aedc380f4075b6edae73ae0536105a2008a9161071760405190565b6102d590613e9c565b919033613f3f6104eb610d64565b73ffffffffffffffffffffffffffffffffffffffff821614159081613f6d575b50613a5e576102d592613f86565b613f8091506115456115bd916009610688565b38613f5f565b90613f946102d5939261067f565b613fce565b906102d59291613f31565b73ffffffffffffffffffffffffffffffffffffffff90911681526040810192916102d59160200152565b61196d60049261195e6102d595613fe863a9059cbb6118b9565b92613ff260405190565b9687946020860190815201613fa4565b3361400e6104eb610d64565b73ffffffffffffffffffffffffffffffffffffffff82161415908161403b575b50613a5e576102d5614054565b61404e91506115456115bd916009610688565b3861402e565b6102d56140a9565b6102d5614002565b61406c611a3b565b6102d561407a600180613c68565b33613af77f62e78cea01bee320cd4e420270b5ea74000d11b0c9f74754ebdbfc544b05a258916109b660405190565b6102d5614064565b336140bd6104eb610d64565b73ffffffffffffffffffffffffffffffffffffffff8216141590816140ea575b50613a5e576102d5614103565b6140fd91506115456115bd916009610688565b386140dd565b6102d5614159565b6102d56140b1565b61411b614161565b6102d561412a60006001613c68565b33613af77f5db9ee0a495bf2e6ff9c91a7834c1ba4fdd244a5e8aa4e537bd38aeae4b073aa916109b660405190565b6102d5614113565b61416c6115bd610f9c565b61417257565b6040517f8dfc202b000000000000000000000000000000000000000000000000000000008152600490fdfea26469706673582212209081a5f41a9bf183ad05e44eaf4aed1d8abcc86f34d171299ab46ebb4809c82164736f6c63430008140033",
  "linkReferences": {},
  "deployedLinkReferences": {}
}