{
  "_format": "hh-sol-artifact-1",
  "contractName": "DEXRouter",
  "sourceName": "contracts/DEXRouter.sol",
  "abi": [
    {
      "inputs": [
        {
          "internalType": "address",
          "name": "_factory",
          "type": "address"
        },
        {
          "internalType": "address",
          "name": "_WETH",
          "type": "address"
        }
      ],
      "stateMutability": "nonpayable",
      "type": "constructor"
    },
    {
      "inputs": [],
      "name": "EnforcedPause",
      "type": "error"
    },
    {
      "inputs": [],
      "name": "ExpectedPause",
      "type": "error"
    },
    {
      "inputs": [
        {
          "internalType": "address",
          "name": "owner",
          "type": "address"
        }
      ],
      "name": "OwnableInvalidOwner",
      "type": "error"
    },
    {
      "inputs": [
        {
          "internalType": "address",
          "name": "account",
          "type": "address"
        }
      ],
      "name": "OwnableUnauthorizedAccount",
      "type": "error"
    },
    {
      "inputs": [],
      "name": "ReentrancyGuardReentrantCall",
      "type": "error"
    },
    {
      "inputs": [
        {
          "internalType": "address",
          "name": "token",
          "type": "address"
        }
      ],
      "name": "SafeERC20FailedOperation",
      "type": "error"
    },
    {
      "anonymous": false,
      "inputs": [
        {
          "indexed": true,
          "internalType": "address",
          "name": "previousOwner",
          "type": "address"
        },
        {
          "indexed": true,
          "internalType": "address",
          "name": "newOwner",
          "type": "address"
        }
      ],
      "name": "OwnershipTransferred",
      "type": "event"
    },
    {
      "anonymous": false,
      "inputs": [
        {
          "indexed": false,
          "internalType": "address",
          "name": "account",
          "type": "address"
        }
      ],
      "name": "Paused",
      "type": "event"
    },
    {
      "anonymous": false,
      "inputs": [
        {
          "indexed": true,
          "internalType": "address",
          "name": "sender",
          "type": "address"
        },
        {
          "indexed": false,
          "internalType": "uint256",
          "name": "amountIn",
          "type": "uint256"
        },
        {
          "indexed": false,
          "internalType": "uint256",
          "name": "amountOutMin",
          "type": "uint256"
        },
        {
          "indexed": false,
          "internalType": "address[]",
          "name": "path",
          "type": "address[]"
        },
        {
          "indexed": true,
          "internalType": "address",
          "name": "to",
          "type": "address"
        },
        {
          "indexed": false,
          "internalType": "uint256",
          "name": "deadline",
          "type": "uint256"
        }
      ],
      "name": "SwapExactETHForTokens",
      "type": "event"
    },
    {
      "anonymous": false,
      "inputs": [
        {
          "indexed": true,
          "internalType": "address",
          "name": "sender",
          "type": "address"
        },
        {
          "indexed": false,
          "internalType": "uint256",
          "name": "amountIn",
          "type": "uint256"
        },
        {
          "indexed": false,
          "internalType": "uint256",
          "name": "amountOutMin",
          "type": "uint256"
        },
        {
          "indexed": false,
          "internalType": "address[]",
          "name": "path",
          "type": "address[]"
        },
        {
          "indexed": true,
          "internalType": "address",
          "name": "to",
          "type": "address"
        },
        {
          "indexed": false,
          "internalType": "uint256",
          "name": "deadline",
          "type": "uint256"
        }
      ],
      "name": "SwapExactTokensForTokens",
      "type": "event"
    },
    {
      "anonymous": false,
      "inputs": [
        {
          "indexed": true,
          "internalType": "address",
          "name": "sender",
          "type": "address"
        },
        {
          "indexed": false,
          "internalType": "uint256",
          "name": "amountOut",
          "type": "uint256"
        },
        {
          "indexed": false,
          "internalType": "uint256",
          "name": "amountInMax",
          "type": "uint256"
        },
        {
          "indexed": false,
          "internalType": "address[]",
          "name": "path",
          "type": "address[]"
        },
        {
          "indexed": true,
          "internalType": "address",
          "name": "to",
          "type": "address"
        },
        {
          "indexed": false,
          "internalType": "uint256",
          "name": "deadline",
          "type": "uint256"
        }
      ],
      "name": "SwapTokensForExactETH",
      "type": "event"
    },
    {
      "anonymous": false,
      "inputs": [
        {
          "indexed": true,
          "internalType": "address",
          "name": "sender",
          "type": "address"
        },
        {
          "indexed": false,
          "internalType": "uint256",
          "name": "amountOut",
          "type": "uint256"
        },
        {
          "indexed": false,
          "internalType": "uint256",
          "name": "amountInMax",
          "type": "uint256"
        },
        {
          "indexed": false,
          "internalType": "address[]",
          "name": "path",
          "type": "address[]"
        },
        {
          "indexed": true,
          "internalType": "address",
          "name": "to",
          "type": "address"
        },
        {
          "indexed": false,
          "internalType": "uint256",
          "name": "deadline",
          "type": "uint256"
        }
      ],
      "name": "SwapTokensForExactTokens",
      "type": "event"
    },
    {
      "anonymous": false,
      "inputs": [
        {
          "indexed": false,
          "internalType": "address",
          "name": "account",
          "type": "address"
        }
      ],
      "name": "Unpaused",
      "type": "event"
    },
    {
      "inputs": [],
      "name": "WETH",
      "outputs": [
        {
          "internalType": "address",
          "name": "",
          "type": "address"
        }
      ],
      "stateMutability": "view",
      "type": "function"
    },
    {
      "inputs": [
        {
          "internalType": "address",
          "name": "tokenA",
          "type": "address"
        },
        {
          "internalType": "address",
          "name": "tokenB",
          "type": "address"
        },
        {
          "internalType": "uint256",
          "name": "amountADesired",
          "type": "uint256"
        },
        {
          "internalType": "uint256",
          "name": "amountBDesired",
          "type": "uint256"
        },
        {
          "internalType": "uint256",
          "name": "amountAMin",
          "type": "uint256"
        },
        {
          "internalType": "uint256",
          "name": "amountBMin",
          "type": "uint256"
        },
        {
          "internalType": "address",
          "name": "to",
          "type": "address"
        },
        {
          "internalType": "uint256",
          "name": "deadline",
          "type": "uint256"
        }
      ],
      "name": "addLiquidity",
      "outputs": [
        {
          "internalType": "uint256",
          "name": "amountA",
          "type": "uint256"
        },
        {
          "internalType": "uint256",
          "name": "amountB",
          "type": "uint256"
        },
        {
          "internalType": "uint256",
          "name": "liquidity",
          "type": "uint256"
        }
      ],
      "stateMutability": "nonpayable",
      "type": "function"
    },
    {
      "inputs": [
        {
          "internalType": "address",
          "name": "token",
          "type": "address"
        },
        {
          "internalType": "address",
          "name": "to",
          "type": "address"
        },
        {
          "internalType": "uint256",
          "name": "amount",
          "type": "uint256"
        }
      ],
      "name": "emergencyWithdraw",
      "outputs": [],
      "stateMutability": "nonpayable",
      "type": "function"
    },
    {
      "inputs": [],
      "name": "factory",
      "outputs": [
        {
          "internalType": "address",
          "name": "",
          "type": "address"
        }
      ],
      "stateMutability": "view",
      "type": "function"
    },
    {
      "inputs": [
        {
          "internalType": "uint256",
          "name": "amountOut",
          "type": "uint256"
        },
        {
          "internalType": "uint256",
          "name": "reserveIn",
          "type": "uint256"
        },
        {
          "internalType": "uint256",
          "name": "reserveOut",
          "type": "uint256"
        }
      ],
      "name": "getAmountIn",
      "outputs": [
        {
          "internalType": "uint256",
          "name": "amountIn",
          "type": "uint256"
        }
      ],
      "stateMutability": "pure",
      "type": "function"
    },
    {
      "inputs": [
        {
          "internalType": "uint256",
          "name": "amountIn",
          "type": "uint256"
        },
        {
          "internalType": "uint256",
          "name": "reserveIn",
          "type": "uint256"
        },
        {
          "internalType": "uint256",
          "name": "reserveOut",
          "type": "uint256"
        }
      ],
      "name": "getAmountOut",
      "outputs": [
        {
          "internalType": "uint256",
          "name": "amountOut",
          "type": "uint256"
        }
      ],
      "stateMutability": "pure",
      "type": "function"
    },
    {
      "inputs": [
        {
          "internalType": "uint256",
          "name": "amountOut",
          "type": "uint256"
        },
        {
          "internalType": "address[]",
          "name": "path",
          "type": "address[]"
        }
      ],
      "name": "getAmountsIn",
      "outputs": [
        {
          "internalType": "uint256[]",
          "name": "amounts",
          "type": "uint256[]"
        }
      ],
      "stateMutability": "view",
      "type": "function"
    },
    {
      "inputs": [
        {
          "internalType": "uint256",
          "name": "amountIn",
          "type": "uint256"
        },
        {
          "internalType": "address[]",
          "name": "path",
          "type": "address[]"
        }
      ],
      "name": "getAmountsOut",
      "outputs": [
        {
          "internalType": "uint256[]",
          "name": "amounts",
          "type": "uint256[]"
        }
      ],
      "stateMutability": "view",
      "type": "function"
    },
    {
      "inputs": [],
      "name": "owner",
      "outputs": [
        {
          "internalType": "address",
          "name": "",
          "type": "address"
        }
      ],
      "stateMutability": "view",
      "type": "function"
    },
    {
      "inputs": [],
      "name": "pause",
      "outputs": [],
      "stateMutability": "nonpayable",
      "type": "function"
    },
    {
      "inputs": [],
      "name": "paused",
      "outputs": [
        {
          "internalType": "bool",
          "name": "",
          "type": "bool"
        }
      ],
      "stateMutability": "view",
      "type": "function"
    },
    {
      "inputs": [
        {
          "internalType": "uint256",
          "name": "amountA",
          "type": "uint256"
        },
        {
          "internalType": "uint256",
          "name": "reserveA",
          "type": "uint256"
        },
        {
          "internalType": "uint256",
          "name": "reserveB",
          "type": "uint256"
        }
      ],
      "name": "quote",
      "outputs": [
        {
          "internalType": "uint256",
          "name": "amountB",
          "type": "uint256"
        }
      ],
      "stateMutability": "pure",
      "type": "function"
    },
    {
      "inputs": [
        {
          "internalType": "address",
          "name": "tokenA",
          "type": "address"
        },
        {
          "internalType": "address",
          "name": "tokenB",
          "type": "address"
        },
        {
          "internalType": "uint256",
          "name": "liquidity",
          "type": "uint256"
        },
        {
          "internalType": "uint256",
          "name": "amountAMin",
          "type": "uint256"
        },
        {
          "internalType": "uint256",
          "name": "amountBMin",
          "type": "uint256"
        },
        {
          "internalType": "address",
          "name": "to",
          "type": "address"
        },
        {
          "internalType": "uint256",
          "name": "deadline",
          "type": "uint256"
        }
      ],
      "name": "removeLiquidity",
      "outputs": [
        {
          "internalType": "uint256",
          "name": "amountA",
          "type": "uint256"
        },
        {
          "internalType": "uint256",
          "name": "amountB",
          "type": "uint256"
        }
      ],
      "stateMutability": "nonpayable",
      "type": "function"
    },
    {
      "inputs": [],
      "name": "renounceOwnership",
      "outputs": [],
      "stateMutability": "nonpayable",
      "type": "function"
    },
    {
      "inputs": [
        {
          "internalType": "address",
          "name": "tokenA",
          "type": "address"
        },
        {
          "internalType": "address",
          "name": "tokenB",
          "type": "address"
        }
      ],
      "name": "sortTokens",
      "outputs": [
        {
          "internalType": "address",
          "name": "token0",
          "type": "address"
        },
        {
          "internalType": "address",
          "name": "token1",
          "type": "address"
        }
      ],
      "stateMutability": "pure",
      "type": "function"
    },
    {
      "inputs": [
        {
          "internalType": "uint256",
          "name": "amountOutMin",
          "type": "uint256"
        },
        {
          "internalType": "address[]",
          "name": "path",
          "type": "address[]"
        },
        {
          "internalType": "address",
          "name": "to",
          "type": "address"
        },
        {
          "internalType": "uint256",
          "name": "deadline",
          "type": "uint256"
        }
      ],
      "name": "swapExactETHForTokens",
      "outputs": [
        {
          "internalType": "uint256[]",
          "name": "amounts",
          "type": "uint256[]"
        }
      ],
      "stateMutability": "payable",
      "type": "function"
    },
    {
      "inputs": [
        {
          "internalType": "uint256",
          "name": "amountIn",
          "type": "uint256"
        },
        {
          "internalType": "uint256",
          "name": "amountOutMin",
          "type": "uint256"
        },
        {
          "internalType": "address[]",
          "name": "path",
          "type": "address[]"
        },
        {
          "internalType": "address",
          "name": "to",
          "type": "address"
        },
        {
          "internalType": "uint256",
          "name": "deadline",
          "type": "uint256"
        }
      ],
      "name": "swapExactTokensForTokens",
      "outputs": [
        {
          "internalType": "uint256[]",
          "name": "amounts",
          "type": "uint256[]"
        }
      ],
      "stateMutability": "nonpayable",
      "type": "function"
    },
    {
      "inputs": [
        {
          "internalType": "uint256",
          "name": "amountOut",
          "type": "uint256"
        },
        {
          "internalType": "uint256",
          "name": "amountInMax",
          "type": "uint256"
        },
        {
          "internalType": "address[]",
          "name": "path",
          "type": "address[]"
        },
        {
          "internalType": "address",
          "name": "to",
          "type": "address"
        },
        {
          "internalType": "uint256",
          "name": "deadline",
          "type": "uint256"
        }
      ],
      "name": "swapTokensForExactETH",
      "outputs": [
        {
          "internalType": "uint256[]",
          "name": "amounts",
          "type": "uint256[]"
        }
      ],
      "stateMutability": "nonpayable",
      "type": "function"
    },
    {
      "inputs": [
        {
          "internalType": "uint256",
          "name": "amountOut",
          "type": "uint256"
        },
        {
          "internalType": "uint256",
          "name": "amountInMax",
          "type": "uint256"
        },
        {
          "internalType": "address[]",
          "name": "path",
          "type": "address[]"
        },
        {
          "internalType": "address",
          "name": "to",
          "type": "address"
        },
        {
          "internalType": "uint256",
          "name": "deadline",
          "type": "uint256"
        }
      ],
      "name": "swapTokensForExactTokens",
      "outputs": [
        {
          "internalType": "uint256[]",
          "name": "amounts",
          "type": "uint256[]"
        }
      ],
      "stateMutability": "nonpayable",
      "type": "function"
    },
    {
      "inputs": [
        {
          "internalType": "address",
          "name": "newOwner",
          "type": "address"
        }
      ],
      "name": "transferOwnership",
      "outputs": [],
      "stateMutability": "nonpayable",
      "type": "function"
    },
    {
      "inputs": [],
      "name": "unpause",
      "outputs": [],
      "stateMutability": "nonpayable",
      "type": "function"
    },
    {
      "stateMutability": "payable",
      "type": "receive"
    }
  ],
  "bytecode": "0x60c0346200013857601f6200219338819003918201601f19168301916001600160401b038311848410176200013d57808492604094855283398101031262000138576200005a6020620000528362000153565b920162000153565b600160005533156200011f5760018054610100600160a81b0319811633600881811b610100600160a81b031692909217909355604051949291901c6001600160a01b03167f8be0079c531659141344cd1fd0a4f28419497f9722a3daafe3b4186f6b6457e0600080a360805260a05261202a9081620001698239608051818181610287015281816106620152818161072f0152818161187901528181611a3c0152611d59015260a0518181816024015281816108ee01528181610b640152610dd30152f35b604051631e4fbdf760e01b815260006004820152602490fd5b600080fd5b634e487b7160e01b600052604160045260246000fd5b51906001600160a01b0382168203620001385756fe60406080815260049081361015610054575b5050361561001e57600080fd5b610052337f00000000000000000000000000000000000000000000000000000000000000006001600160a01b031614611306565b005b600091823560e01c8063054d50d4146111725780631f00ca741461115557806338ed17391461106c5780633f4ba83a146110035780634a25d94a14610d62578063544caa5614610d135780635c975abb14610cef578063715018a614610c8d5780637ff36ab514610ada5780638456cb5914610a8057806385f8c25914610a645780638803dbee1461094a5780638da5cb5b1461091d578063ad5c4648146108d9578063ad615dec146108b6578063baa2abde14610691578063c45a01551461064d578063d06ca61f14610621578063e63ea40814610589578063e8e33700146101e85763f2fde38b146101485750610011565b346101e45760203660031901126101e457610161611248565b6101696112d7565b6001600160a01b038181169390929084156101ce57505060018054610100600160a81b03198116600893841b610100600160a81b031617909155901c167f8be0079c531659141344cd1fd0a4f28419497f9722a3daafe3b4186f6b6457e0600080a380f35b51631e4fbdf760e01b8152908101859052602490fd5b8280fd5b50346101e4576101003660031901126101e457610203611248565b61020b61125e565b90604435906001600160a01b0360c43560643582821682036105845787958991610233611683565b61023b611665565b6102494260e4351015611323565b61025685851615156113a4565b875163b4f69a2f60e01b8082526001600160a01b038089168c840190815290851660208281019190915298919392907f00000000000000000000000000000000000000000000000000000000000000008916908a90839081906040010381845afa801561053e578c9587958f928c908e968c91610567575b501661040d57859697509493949c9f61030e905b519182526001600160a01b03948516928201928352939097166020820152869283918291604090910190565b03915afa928315610403578695938986948a99948f94602499946103c7575b509061034384958561034c9694893391166115b2565b853391166115b2565b89519a8b9687956335313c2160e11b87521690850152165af19384156103bd578694610387575b506001606096558251948552840152820152f35b9593508086813d83116103b6575b61039f81836114c1565b810103126103b257945192946001610373565b8380fd5b503d610395565b83513d88823e3d90fd5b61034c94506103f2610343918d80959495903d106103fc575b6103ea81836114c1565b8101906116f2565b945091909161032d565b503d6103e0565b89513d86823e3d90fd5b96518181526001600160a01b038087169382019384529096166020830152959394939290849081906040010381845afa92831561053e5789938e8e6060938e8c94610548575b505051630240bc6b60e21b81529586928391165afa801561053e5786958c8f929487958e978c908d9261050c575b506001600160701b03809116911692811580610504575b156104ac57505090509c9f61030e906102e2565b83826104b792611f67565b928284116104dc5750505060a4358110156104d19061175d565b9c9f61030e906102e2565b826104e8939450611f67565b9d8e11156104f590611306565b8d60843511156104d190611711565b508315610498565b905061052f915060603d8111610537575b61052781836114c1565b810190611814565b509038610481565b503d61051d565b8c513d89823e3d90fd5b61055f929450803d106103fc576103ea81836114c1565b91388e610453565b61057e9150873d89116103fc576103ea81836114c1565b386102ce565b600080fd5b5091903461061d57606036600319011261061d576105a5611248565b6105ad61125e565b906105b66112d7565b825163a9059cbb60e01b60208201526001600160a01b0392831660248201526044803581830152815292608084019067ffffffffffffffff8211858310176106085761060595965052166115fd565b80f35b604187634e487b7160e01b6000525260246000fd5b5080fd5b50503461061d576106499061063e610638366111d9565b9161184a565b90519182918261120d565b0390f35b50503461061d578160031936011261061d57517f00000000000000000000000000000000000000000000000000000000000000006001600160a01b03168152602090f35b5082346108b35760e03660031901126108b3576106ac611248565b916106b561125e565b9060a4356001600160a01b038181169291839003610584576106d5611683565b6106dd611665565b6106eb4260c4351015611323565b6106f68315156113a4565b865163b4f69a2f60e01b81526001600160a01b0396871683820190815294909616602080860191909152938490879081906040010381847f0000000000000000000000000000000000000000000000000000000000000000165afa95861561088457859661088e575b5086516323b872dd60e01b8152338382019081526001600160a01b0388166020820152604435604082015296909116958490829081906060015b0381888a5af18015610884579087939291610846575b50602490858451978894859363226bf2d160e21b85528401525af191821561083b5780938193610805575b506001906107ec606435861015611711565b6107fa60843585101561175d565b558351928352820152f35b935091508383813d8111610834575b61081e81836114c1565b8101031261061d578251928101519160016107da565b503d610814565b8451903d90823e3d90fd5b909192508381813d831161087d575b61085f81836114c1565b810103126108795751801515036103b257908591876107af565b8480fd5b503d610855565b87513d87823e3d90fd5b6107999196506108ab8591823d84116103fc576103ea81836114c1565b96915061075f565b80fd5b50503461061d576020906108d26108cc3661118e565b91611f67565b9051908152f35b50503461061d578160031936011261061d57517f00000000000000000000000000000000000000000000000000000000000000006001600160a01b03168152602090f35b50503461061d578160031936011261061d57600154905160089190911c6001600160a01b03168152602090f35b5091903461061d5761095b36611288565b61096b9795939297949194611683565b610973611665565b61097f42821015611323565b61098c6002891015611361565b6001600160a01b0397858916956109a48715156113a4565b6109af8286886119f0565b996109c5856109bd8d6113e5565b5111156116a6565b8215610a5157946106499894610a438c99958c9995610a367f1ba792fba367b7c68c21a8e98bcbfe1eb5c5d66c174d06036543884d2cf731b296610a248e610a1960019e610a128b611483565b16916113e5565b5190309033906115b2565b8d610a3036858a6114fb565b90611d4b565b8a51948594339886611551565b0390a355519182918261120d565b634e487b7160e01b895260328c52602489fd5b50503461061d576020906108d2610a7a3661118e565b91611cd1565b50503461061d578160031936011261061d5760207f62e78cea01bee320cd4e420270b5ea74000d11b0c9f74754ebdbfc544b05a25891610abe6112d7565b610ac6611665565b600160ff198154161760015551338152a180f35b509060803660031901126101e457813560243567ffffffffffffffff811161087957610b0990369085016111a8565b6001600160a01b0394604435868116949391908581036105845760643591610b2f611683565b610b37611665565b610b4342841015611323565b610b506002861015611361565b8415610c7a57610b8e610b6285611483565b7f00000000000000000000000000000000000000000000000000000000000000008b169a168a14611361565b610b998715156113a4565b610ba485853461184a565b9889516000198101908111610c675790610bcb88610bc38e948e611408565b51101561141c565b803b1561061d578951630d0e30db60e41b8152928391829034905af18015610c5d57610c45575b5092610649989492610a437f4a09c949897c823e95a423cb04be9f9f04dc8a90db429f8f29f8cf4cd72c58c093610c3760019997610c313687876114fb565b8d611d4b565b895193849333973486611551565b610c4f8a91611497565b610c595738610bf2565b8880fd5b88513d8c823e3d90fd5b634e487b7160e01b8c526011835260248cfd5b634e487b7160e01b8a5260329052602489fd5b83346108b357806003193601126108b357610ca66112d7565b60018054610100600160a81b0319811690915560009060081c6001600160a01b03167f8be0079c531659141344cd1fd0a4f28419497f9722a3daafe3b4186f6b6457e08280a380f35b50503461061d578160031936011261061d5760209060ff6001541690519015158152f35b50503461061d578060031936011261061d5761064990610d42610d34611248565b610d3c61125e565b90611fd9565b91516001600160a01b039182168152911660208201529081906040820190565b5082346108b357610d7236611288565b9190949396610d7f611683565b610d87611665565b610d9342841015611323565b610da06002831015611361565b60001995828701838111610ff05790610dbe8493928b969588611473565b610dc790611483565b6001600160a01b0398907f00000000000000000000000000000000000000000000000000000000000000008a1690610e02908b168214611361565b828a1699610e118b15156113a4565b610e1c868a8c6119f0565b9c610e268e6113e5565b511115610e32906116a6565b8515610fdd578c610a19610e4992610a128c611483565b610e59308d610a3036898d6114fb565b8b51828101908111610fca57610e6f908d611408565b51813b15610fc6578b9160248f928493519485938492632e1a7d4d60e01b84528a8401525af18015610fbc57610fa9575b508a51908101908111610f965789808093610ebc82948f611408565b51905af13d15610f91573d67ffffffffffffffff8111610f7e578b5190610eed601f8201601f1916602001836114c1565b81528960203d92013e5b15610f3b57509288969492610a437f040395736841bb0286394ba5c4c75e83625493424434165cfbee4d3a0bd3ea1d93600198966106499c51948594339886611551565b60649060208b519162461bcd60e51b8352820152601b60248201527f526f757465723a204554485f5452414e534645525f4641494c454400000000006044820152fd5b634e487b7160e01b8a526041835260248afd5b610ef7565b634e487b7160e01b8a526011835260248afd5b610fb5909a919a611497565b988c610ea0565b8d513d8d823e3d90fd5b8b80fd5b634e487b7160e01b8c526011855260248cfd5b634e487b7160e01b8c526032855260248cfd5b634e487b7160e01b895260118352602489fd5b50346101e457826003193601126101e45761101c6112d7565b6001549060ff82161561105e575060ff1916600155513381527f5db9ee0a495bf2e6ff9c91a7834c1ba4fdd244a5e8aa4e537bd38aeae4b073aa90602090a180f35b8251638dfc202b60e01b8152fd5b5091903461061d5761107d36611288565b61108d9795939297949194611683565b611095611665565b6110a142821015611323565b6110ae6002891015611361565b6001600160a01b0397858916956110c68715156113a4565b6110d182868861184a565b998a5160001981019081116111425785610bc36110ee928e611408565b8215610a51576106499b50927f7c3dd00493dbe3c97d0b9e0736022670e9c90a44bc37d20c9795a7c3c05843449492610a36610a4393610a248a8a9861113860019f9e9d9c611483565b16309033906115b2565b634e487b7160e01b8a5260118d5260248afd5b50503461061d576106499061063e61116c366111d9565b916119f0565b50503461061d576020906108d26111883661118e565b91611c21565b606090600319011261058457600435906024359060443590565b9181601f840112156105845782359167ffffffffffffffff8311610584576020808501948460051b01011161058457565b90604060031983011261058457600435916024359067ffffffffffffffff821161058457611209916004016111a8565b9091565b6020908160408183019282815285518094520193019160005b828110611234575050505090565b835185529381019392810192600101611226565b600435906001600160a01b038216820361058457565b602435906001600160a01b038216820361058457565b35906001600160a01b038216820361058457565b60a06003198201126105845760043591602435916044359067ffffffffffffffff8211610584576112bb916004016111a8565b90916064356001600160a01b0381168103610584579060843590565b60015460081c6001600160a01b031633036112ee57565b60405163118cdaa760e01b8152336004820152602490fd5b1561130d57565b634e487b7160e01b600052600160045260246000fd5b1561132a57565b60405162461bcd60e51b815260206004820152600f60248201526e149bdd5d195c8e8811561412549151608a1b6044820152606490fd5b1561136857565b60405162461bcd60e51b81526020600482015260146024820152730a4deeae8cae47440929cac82989288bea082a8960631b6044820152606490fd5b156113ab57565b60405162461bcd60e51b8152602060048201526012602482015271526f757465723a20494e56414c49445f544f60701b6044820152606490fd5b8051156113f25760200190565b634e487b7160e01b600052603260045260246000fd5b80518210156113f25760209160051b010190565b1561142357565b60405162461bcd60e51b815260206004820152602260248201527f526f757465723a20494e53554646494349454e545f4f55545055545f414d4f55604482015261139560f21b6064820152608490fd5b91908110156113f25760051b0190565b356001600160a01b03811681036105845790565b67ffffffffffffffff81116114ab57604052565b634e487b7160e01b600052604160045260246000fd5b90601f8019910116810190811067ffffffffffffffff8211176114ab57604052565b67ffffffffffffffff81116114ab5760051b60200190565b9291611506826114e3565b9161151460405193846114c1565b829481845260208094019160051b810192831161058457905b82821061153a5750505050565b83809161154684611274565b81520191019061152d565b908152602080820192909252608060408201819052810184905294939260a086019160005b8281106115895750505060609150930152565b9091928280600192838060a01b036115a089611274565b16815201950191019392919093611576565b6040516323b872dd60e01b60208201526001600160a01b0392831660248201529290911660448301526064808301939093529181526115fb916115f66084836114c1565b6115fd565b565b906000602091828151910182855af115611659576000513d61165057506001600160a01b0381163b155b61162e5750565b604051635274afe760e01b81526001600160a01b039091166004820152602490fd5b60011415611627565b6040513d6000823e3d90fd5b60ff6001541661167157565b60405163d93c066560e01b8152600490fd5b600260005414611694576002600055565b604051633ee5aeb560e01b8152600490fd5b156116ad57565b60405162461bcd60e51b815260206004820152601e60248201527f526f757465723a204558434553534956455f494e5055545f414d4f554e5400006044820152606490fd5b9081602091031261058457516001600160a01b03811681036105845790565b1561171857565b60405162461bcd60e51b815260206004820152601d60248201527f526f757465723a20494e53554646494349454e545f415f414d4f554e540000006044820152606490fd5b1561176457565b60405162461bcd60e51b815260206004820152601d60248201527f526f757465723a20494e53554646494349454e545f425f414d4f554e540000006044820152606490fd5b906117b3826114e3565b6117c060405191826114c1565b82815280926117d1601f19916114e3565b0190602036910137565b60001981146117ea5760010190565b634e487b7160e01b600052601160045260246000fd5b51906001600160701b038216820361058457565b908160609103126105845761182881611800565b91604061183760208401611800565b92015163ffffffff811681036105845790565b90929161185a6002821015611361565b611863816117a9565b9161186d836113e5565b526001600160a01b03907f000000000000000000000000000000000000000000000000000000000000000082169060005b60001982018281116117ea578110156119e8576118c46118bf82848a611473565b611483565b60018201908183116117ea576118de6118bf83868c611473565b6040805163b4f69a2f60e01b81526001600160a01b039384166004808301919091529290931660248401529160209081816044818b5afa9182156119dd579089949392916000926119c0575b505082518092630240bc6b60e21b8252816060968794165afa9182156119b6575061198f94939261198992611982926000928392611994575b50506001600160701b03809116911661197c868c611408565b51611c21565b9188611408565b526117db565b61189e565b6119ae935080919250903d106105375761052781836114c1565b503880611963565b513d6000823e3d90fd5b6119d69250803d106103fc576103ea81836114c1565b388061192a565b84513d6000823e3d90fd5b505050509150565b90929192611a016002851015611361565b611a0a846117a9565b93845192600019938481019081116117ea57611a269087611408565b528281018181116117ea576001600160a01b03907f0000000000000000000000000000000000000000000000000000000000000000821690805b611a6c57505050505050565b858101818111611b4a57611a846118bf828789611473565b611a926118bf84888a611473565b6040805163b4f69a2f60e01b81526001600160a01b039384166004808301919091529290931660248401529160209081816044818a5afa9182156119dd57908894939291600092611b85575b505082518092630240bc6b60e21b8252816060968794165afa9182156119b65750918b85611b3493611b3b956000948592611b5f575b505090611b2e916001600160701b03809116941692611408565b51611cd1565b918a611408565b528015611b4a57850180611a60565b60246000634e487b7160e01b81526011600452fd5b611b2e939550611b7b9250803d106105375761052781836114c1565b5090939138611b14565b611b9b9250803d106103fc576103ea81836114c1565b3880611ade565b15611ba957565b60405162461bcd60e51b815260206004820152601e60248201527f526f757465723a20494e53554646494349454e545f4c495155494449545900006044820152606490fd5b818102929181159184041417156117ea57565b8115611c0b570490565b634e487b7160e01b600052601260045260246000fd5b8015611c8257811592831580611c79575b611c3b90611ba2565b6103e5808302928304036117ea57611c539082611bee565b926103e88084029384041417156117ea5781018091116117ea57611c7691611c01565b90565b50801515611c32565b60405162461bcd60e51b815260206004820152602160248201527f526f757465723a20494e53554646494349454e545f494e5055545f414d4f554e6044820152601560fa1b6064820152608490fd5b9081611cf991611ce282151561141c565b80151580611d42575b611cf490611ba2565b611bee565b916103e8928381029381850414901517156117ea57818103918183116117ea576103e580840293840414911417156117ea57611d3491611c01565b600181018091116117ea5790565b50841515611ceb565b909291906001600160a01b037f00000000000000000000000000000000000000000000000000000000000000008116919060005b865160001981019081116117ea57811015611f5e5781611d9f8289611408565b511660018201908183116117ea5783611db8838b611408565b51169084611dd1611dc98484611fd9565b509488611408565b5193168103611f565760005b8a5160011981019081116117ea57851015611f4f57600285018086116117ea57611e0887918d611408565b516040805163b4f69a2f60e01b81526001600160a01b038781166004830152939092169092166024820152602080826044818e5afa9283156119b65750600092611f32575b5050915b6040805163b4f69a2f60e01b81526001600160a01b03928316600480830191909152959092166024830152939060209081816044818e5afa918215611f275790899291600092611f0a575b50501690813b1561058457600060a4928982968851998a97889663022c0d9f60e01b88528701526024860152166044840152608060648401528160848401525af19081156119b6575090611ef69291611efb575b506117db565b611d7f565b611f0490611497565b38611ef0565b611f209250803d106103fc576103ea81836114c1565b3880611e9c565b86513d6000823e3d90fd5b611f489250803d106103fc576103ea81836114c1565b3880611e4d565b8891611e51565b600092611ddd565b50505050509050565b8015611f9457611c7692611f869183151580611f8b57611cf490611ba2565b611c01565b50811515611ceb565b60405162461bcd60e51b815260206004820152601b60248201527f526f757465723a20494e53554646494349454e545f414d4f554e5400000000006044820152606490fd5b9091906001600160a01b038084169082161015611c7657919056fea26469706673582212202669e19956ef98b409d9c4890b77ef02924d66850cda26f12ea946759556d0e764736f6c63430008140033",
  "linkReferences": {},
  "deployedLinkReferences": {}
}