{
  "_format": "hh-sol-artifact-1",
  "contractName": "DEXRouter",
  "sourceName": "contracts/DEXRouter.sol",
  "abi": [
    {
      "inputs": [
        {
          "internalType": "address",
          "name": "_factory",
          "type": "address"
        },
        {
          "internalType": "address",
          "name": "_WETH",
          "type": "address"
        }
      ],
      "stateMutability": "nonpayable",
      "type": "constructor"
    },
    {
      "inputs": [],
      "name": "EnforcedPause",
      "type": "error"
    },
    {
      "inputs": [],
      "name": "ExpectedPause",
      "type": "error"
    },
    {
      "inputs": [
        {
          "internalType": "address",
          "name": "owner",
          "type": "address"
        }
      ],
      "name": "OwnableInvalidOwner",
      "type": "error"
    },
    {
      "inputs": [
        {
          "internalType": "address",
          "name": "account",
          "type": "address"
        }
      ],
      "name": "OwnableUnauthorizedAccount",
      "type": "error"
    },
    {
      "inputs": [],
      "name": "ReentrancyGuardReentrantCall",
      "type": "error"
    },
    {
      "inputs": [
        {
          "internalType": "address",
          "name": "token",
          "type": "address"
        }
      ],
      "name": "SafeERC20FailedOperation",
      "type": "error"
    },
    {
      "anonymous": false,
      "inputs": [
        {
          "indexed": false,
          "internalType": "bool",
          "name": "stopped",
          "type": "bool"
        }
      ],
      "name": "EmergencyStopUpdated",
      "type": "event"
    },
    {
      "anonymous": false,
      "inputs": [
        {
          "indexed": true,
          "internalType": "address",
          "name": "previousOwner",
          "type": "address"
        },
        {
          "indexed": true,
          "internalType": "address",
          "name": "newOwner",
          "type": "address"
        }
      ],
      "name": "OwnershipTransferred",
      "type": "event"
    },
    {
      "anonymous": false,
      "inputs": [
        {
          "indexed": false,
          "internalType": "address",
          "name": "account",
          "type": "address"
        }
      ],
      "name": "Paused",
      "type": "event"
    },
    {
      "anonymous": false,
      "inputs": [
        {
          "indexed": false,
          "internalType": "uint256",
          "name": "oldLimit",
          "type": "uint256"
        },
        {
          "indexed": false,
          "internalType": "uint256",
          "name": "newLimit",
          "type": "uint256"
        }
      ],
      "name": "PriceImpactLimitUpdated",
      "type": "event"
    },
    {
      "anonymous": false,
      "inputs": [
        {
          "indexed": false,
          "internalType": "uint256",
          "name": "oldTolerance",
          "type": "uint256"
        },
        {
          "indexed": false,
          "internalType": "uint256",
          "name": "newTolerance",
          "type": "uint256"
        }
      ],
      "name": "SlippageToleranceUpdated",
      "type": "event"
    },
    {
      "anonymous": false,
      "inputs": [
        {
          "indexed": true,
          "internalType": "address",
          "name": "sender",
          "type": "address"
        },
        {
          "indexed": false,
          "internalType": "uint256",
          "name": "amountIn",
          "type": "uint256"
        },
        {
          "indexed": false,
          "internalType": "uint256",
          "name": "amountOutMin",
          "type": "uint256"
        },
        {
          "indexed": false,
          "internalType": "address[]",
          "name": "path",
          "type": "address[]"
        },
        {
          "indexed": true,
          "internalType": "address",
          "name": "to",
          "type": "address"
        },
        {
          "indexed": false,
          "internalType": "uint256",
          "name": "deadline",
          "type": "uint256"
        },
        {
          "indexed": false,
          "internalType": "uint256",
          "name": "amountOut",
          "type": "uint256"
        },
        {
          "indexed": false,
          "internalType": "uint256",
          "name": "priceImpact",
          "type": "uint256"
        }
      ],
      "name": "SwapExactETHForTokens",
      "type": "event"
    },
    {
      "anonymous": false,
      "inputs": [
        {
          "indexed": true,
          "internalType": "address",
          "name": "sender",
          "type": "address"
        },
        {
          "indexed": false,
          "internalType": "uint256",
          "name": "amountIn",
          "type": "uint256"
        },
        {
          "indexed": false,
          "internalType": "uint256",
          "name": "amountOutMin",
          "type": "uint256"
        },
        {
          "indexed": false,
          "internalType": "address[]",
          "name": "path",
          "type": "address[]"
        },
        {
          "indexed": true,
          "internalType": "address",
          "name": "to",
          "type": "address"
        },
        {
          "indexed": false,
          "internalType": "uint256",
          "name": "deadline",
          "type": "uint256"
        },
        {
          "indexed": false,
          "internalType": "uint256",
          "name": "amountOut",
          "type": "uint256"
        },
        {
          "indexed": false,
          "internalType": "uint256",
          "name": "priceImpact",
          "type": "uint256"
        }
      ],
      "name": "SwapExactTokensForTokens",
      "type": "event"
    },
    {
      "anonymous": false,
      "inputs": [
        {
          "indexed": true,
          "internalType": "address",
          "name": "sender",
          "type": "address"
        },
        {
          "indexed": false,
          "internalType": "uint256",
          "name": "amountOut",
          "type": "uint256"
        },
        {
          "indexed": false,
          "internalType": "uint256",
          "name": "amountInMax",
          "type": "uint256"
        },
        {
          "indexed": false,
          "internalType": "address[]",
          "name": "path",
          "type": "address[]"
        },
        {
          "indexed": true,
          "internalType": "address",
          "name": "to",
          "type": "address"
        },
        {
          "indexed": false,
          "internalType": "uint256",
          "name": "deadline",
          "type": "uint256"
        },
        {
          "indexed": false,
          "internalType": "uint256",
          "name": "amountIn",
          "type": "uint256"
        },
        {
          "indexed": false,
          "internalType": "uint256",
          "name": "priceImpact",
          "type": "uint256"
        }
      ],
      "name": "SwapTokensForExactETH",
      "type": "event"
    },
    {
      "anonymous": false,
      "inputs": [
        {
          "indexed": true,
          "internalType": "address",
          "name": "sender",
          "type": "address"
        },
        {
          "indexed": false,
          "internalType": "uint256",
          "name": "amountOut",
          "type": "uint256"
        },
        {
          "indexed": false,
          "internalType": "uint256",
          "name": "amountInMax",
          "type": "uint256"
        },
        {
          "indexed": false,
          "internalType": "address[]",
          "name": "path",
          "type": "address[]"
        },
        {
          "indexed": true,
          "internalType": "address",
          "name": "to",
          "type": "address"
        },
        {
          "indexed": false,
          "internalType": "uint256",
          "name": "deadline",
          "type": "uint256"
        },
        {
          "indexed": false,
          "internalType": "uint256",
          "name": "amountIn",
          "type": "uint256"
        },
        {
          "indexed": false,
          "internalType": "uint256",
          "name": "priceImpact",
          "type": "uint256"
        }
      ],
      "name": "SwapTokensForExactTokens",
      "type": "event"
    },
    {
      "anonymous": false,
      "inputs": [
        {
          "indexed": true,
          "internalType": "address",
          "name": "token",
          "type": "address"
        },
        {
          "indexed": false,
          "internalType": "bool",
          "name": "blacklisted",
          "type": "bool"
        }
      ],
      "name": "TokenBlacklisted",
      "type": "event"
    },
    {
      "anonymous": false,
      "inputs": [
        {
          "indexed": true,
          "internalType": "address",
          "name": "token",
          "type": "address"
        },
        {
          "indexed": false,
          "internalType": "bool",
          "name": "whitelisted",
          "type": "bool"
        }
      ],
      "name": "TokenWhitelisted",
      "type": "event"
    },
    {
      "anonymous": false,
      "inputs": [
        {
          "indexed": false,
          "internalType": "address",
          "name": "account",
          "type": "address"
        }
      ],
      "name": "Unpaused",
      "type": "event"
    },
    {
      "anonymous": false,
      "inputs": [
        {
          "indexed": false,
          "internalType": "bool",
          "name": "enabled",
          "type": "bool"
        }
      ],
      "name": "WhitelistEnabled",
      "type": "event"
    },
    {
      "inputs": [],
      "name": "MAX_PRICE_IMPACT",
      "outputs": [
        {
          "internalType": "uint256",
          "name": "",
          "type": "uint256"
        }
      ],
      "stateMutability": "view",
      "type": "function"
    },
    {
      "inputs": [],
      "name": "MAX_SLIPPAGE_TOLERANCE",
      "outputs": [
        {
          "internalType": "uint256",
          "name": "",
          "type": "uint256"
        }
      ],
      "stateMutability": "view",
      "type": "function"
    },
    {
      "inputs": [],
      "name": "SWAP_COOLDOWN",
      "outputs": [
        {
          "internalType": "uint256",
          "name": "",
          "type": "uint256"
        }
      ],
      "stateMutability": "view",
      "type": "function"
    },
    {
      "inputs": [],
      "name": "WETH",
      "outputs": [
        {
          "internalType": "address",
          "name": "",
          "type": "address"
        }
      ],
      "stateMutability": "view",
      "type": "function"
    },
    {
      "inputs": [
        {
          "internalType": "address",
          "name": "tokenA",
          "type": "address"
        },
        {
          "internalType": "address",
          "name": "tokenB",
          "type": "address"
        },
        {
          "internalType": "uint256",
          "name": "amountADesired",
          "type": "uint256"
        },
        {
          "internalType": "uint256",
          "name": "amountBDesired",
          "type": "uint256"
        },
        {
          "internalType": "uint256",
          "name": "amountAMin",
          "type": "uint256"
        },
        {
          "internalType": "uint256",
          "name": "amountBMin",
          "type": "uint256"
        },
        {
          "internalType": "address",
          "name": "to",
          "type": "address"
        },
        {
          "internalType": "uint256",
          "name": "deadline",
          "type": "uint256"
        }
      ],
      "name": "addLiquidity",
      "outputs": [
        {
          "internalType": "uint256",
          "name": "amountA",
          "type": "uint256"
        },
        {
          "internalType": "uint256",
          "name": "amountB",
          "type": "uint256"
        },
        {
          "internalType": "uint256",
          "name": "liquidity",
          "type": "uint256"
        }
      ],
      "stateMutability": "nonpayable",
      "type": "function"
    },
    {
      "inputs": [
        {
          "internalType": "address",
          "name": "",
          "type": "address"
        }
      ],
      "name": "blacklistedTokens",
      "outputs": [
        {
          "internalType": "bool",
          "name": "",
          "type": "bool"
        }
      ],
      "stateMutability": "view",
      "type": "function"
    },
    {
      "inputs": [],
      "name": "defaultSlippageTolerance",
      "outputs": [
        {
          "internalType": "uint256",
          "name": "",
          "type": "uint256"
        }
      ],
      "stateMutability": "view",
      "type": "function"
    },
    {
      "inputs": [],
      "name": "emergencyStop",
      "outputs": [
        {
          "internalType": "bool",
          "name": "",
          "type": "bool"
        }
      ],
      "stateMutability": "view",
      "type": "function"
    },
    {
      "inputs": [
        {
          "internalType": "address",
          "name": "token",
          "type": "address"
        },
        {
          "internalType": "address",
          "name": "to",
          "type": "address"
        },
        {
          "internalType": "uint256",
          "name": "amount",
          "type": "uint256"
        }
      ],
      "name": "emergencyWithdraw",
      "outputs": [],
      "stateMutability": "nonpayable",
      "type": "function"
    },
    {
      "inputs": [],
      "name": "factory",
      "outputs": [
        {
          "internalType": "address",
          "name": "",
          "type": "address"
        }
      ],
      "stateMutability": "view",
      "type": "function"
    },
    {
      "inputs": [
        {
          "internalType": "uint256",
          "name": "amountOut",
          "type": "uint256"
        },
        {
          "internalType": "uint256",
          "name": "reserveIn",
          "type": "uint256"
        },
        {
          "internalType": "uint256",
          "name": "reserveOut",
          "type": "uint256"
        }
      ],
      "name": "getAmountIn",
      "outputs": [
        {
          "internalType": "uint256",
          "name": "amountIn",
          "type": "uint256"
        }
      ],
      "stateMutability": "pure",
      "type": "function"
    },
    {
      "inputs": [
        {
          "internalType": "uint256",
          "name": "amountIn",
          "type": "uint256"
        },
        {
          "internalType": "uint256",
          "name": "reserveIn",
          "type": "uint256"
        },
        {
          "internalType": "uint256",
          "name": "reserveOut",
          "type": "uint256"
        }
      ],
      "name": "getAmountOut",
      "outputs": [
        {
          "internalType": "uint256",
          "name": "amountOut",
          "type": "uint256"
        }
      ],
      "stateMutability": "pure",
      "type": "function"
    },
    {
      "inputs": [
        {
          "internalType": "uint256",
          "name": "amountOut",
          "type": "uint256"
        },
        {
          "internalType": "address[]",
          "name": "path",
          "type": "address[]"
        }
      ],
      "name": "getAmountsIn",
      "outputs": [
        {
          "internalType": "uint256[]",
          "name": "amounts",
          "type": "uint256[]"
        }
      ],
      "stateMutability": "view",
      "type": "function"
    },
    {
      "inputs": [
        {
          "internalType": "uint256",
          "name": "amountIn",
          "type": "uint256"
        },
        {
          "internalType": "address[]",
          "name": "path",
          "type": "address[]"
        }
      ],
      "name": "getAmountsOut",
      "outputs": [
        {
          "internalType": "uint256[]",
          "name": "amounts",
          "type": "uint256[]"
        }
      ],
      "stateMutability": "view",
      "type": "function"
    },
    {
      "inputs": [
        {
          "internalType": "address",
          "name": "",
          "type": "address"
        }
      ],
      "name": "isManager",
      "outputs": [
        {
          "internalType": "bool",
          "name": "",
          "type": "bool"
        }
      ],
      "stateMutability": "view",
      "type": "function"
    },
    {
      "inputs": [
        {
          "internalType": "address",
          "name": "",
          "type": "address"
        }
      ],
      "name": "isOperator",
      "outputs": [
        {
          "internalType": "bool",
          "name": "",
          "type": "bool"
        }
      ],
      "stateMutability": "view",
      "type": "function"
    },
    {
      "inputs": [
        {
          "internalType": "address",
          "name": "",
          "type": "address"
        }
      ],
      "name": "lastSwapTime",
      "outputs": [
        {
          "internalType": "uint256",
          "name": "",
          "type": "uint256"
        }
      ],
      "stateMutability": "view",
      "type": "function"
    },
    {
      "inputs": [],
      "name": "maxPriceImpact",
      "outputs": [
        {
          "internalType": "uint256",
          "name": "",
          "type": "uint256"
        }
      ],
      "stateMutability": "view",
      "type": "function"
    },
    {
      "inputs": [],
      "name": "owner",
      "outputs": [
        {
          "internalType": "address",
          "name": "",
          "type": "address"
        }
      ],
      "stateMutability": "view",
      "type": "function"
    },
    {
      "inputs": [],
      "name": "pause",
      "outputs": [],
      "stateMutability": "nonpayable",
      "type": "function"
    },
    {
      "inputs": [],
      "name": "paused",
      "outputs": [
        {
          "internalType": "bool",
          "name": "",
          "type": "bool"
        }
      ],
      "stateMutability": "view",
      "type": "function"
    },
    {
      "inputs": [
        {
          "internalType": "uint256",
          "name": "amountA",
          "type": "uint256"
        },
        {
          "internalType": "uint256",
          "name": "reserveA",
          "type": "uint256"
        },
        {
          "internalType": "uint256",
          "name": "reserveB",
          "type": "uint256"
        }
      ],
      "name": "quote",
      "outputs": [
        {
          "internalType": "uint256",
          "name": "amountB",
          "type": "uint256"
        }
      ],
      "stateMutability": "pure",
      "type": "function"
    },
    {
      "inputs": [
        {
          "internalType": "address",
          "name": "tokenA",
          "type": "address"
        },
        {
          "internalType": "address",
          "name": "tokenB",
          "type": "address"
        },
        {
          "internalType": "uint256",
          "name": "liquidity",
          "type": "uint256"
        },
        {
          "internalType": "uint256",
          "name": "amountAMin",
          "type": "uint256"
        },
        {
          "internalType": "uint256",
          "name": "amountBMin",
          "type": "uint256"
        },
        {
          "internalType": "address",
          "name": "to",
          "type": "address"
        },
        {
          "internalType": "uint256",
          "name": "deadline",
          "type": "uint256"
        }
      ],
      "name": "removeLiquidity",
      "outputs": [
        {
          "internalType": "uint256",
          "name": "amountA",
          "type": "uint256"
        },
        {
          "internalType": "uint256",
          "name": "amountB",
          "type": "uint256"
        }
      ],
      "stateMutability": "nonpayable",
      "type": "function"
    },
    {
      "inputs": [],
      "name": "renounceOwnership",
      "outputs": [],
      "stateMutability": "nonpayable",
      "type": "function"
    },
    {
      "inputs": [
        {
          "internalType": "bool",
          "name": "stopped",
          "type": "bool"
        }
      ],
      "name": "setEmergencyStop",
      "outputs": [],
      "stateMutability": "nonpayable",
      "type": "function"
    },
    {
      "inputs": [
        {
          "internalType": "address",
          "name": "manager",
          "type": "address"
        },
        {
          "internalType": "bool",
          "name": "authorized",
          "type": "bool"
        }
      ],
      "name": "setManager",
      "outputs": [],
      "stateMutability": "nonpayable",
      "type": "function"
    },
    {
      "inputs": [
        {
          "internalType": "address",
          "name": "operator",
          "type": "address"
        },
        {
          "internalType": "bool",
          "name": "authorized",
          "type": "bool"
        }
      ],
      "name": "setOperator",
      "outputs": [],
      "stateMutability": "nonpayable",
      "type": "function"
    },
    {
      "inputs": [
        {
          "internalType": "address",
          "name": "token",
          "type": "address"
        },
        {
          "internalType": "bool",
          "name": "blacklisted",
          "type": "bool"
        }
      ],
      "name": "setTokenBlacklisted",
      "outputs": [],
      "stateMutability": "nonpayable",
      "type": "function"
    },
    {
      "inputs": [
        {
          "internalType": "address",
          "name": "token",
          "type": "address"
        },
        {
          "internalType": "bool",
          "name": "whitelisted",
          "type": "bool"
        }
      ],
      "name": "setTokenWhitelisted",
      "outputs": [],
      "stateMutability": "nonpayable",
      "type": "function"
    },
    {
      "inputs": [
        {
          "internalType": "bool",
          "name": "enabled",
          "type": "bool"
        }
      ],
      "name": "setWhitelistEnabled",
      "outputs": [],
      "stateMutability": "nonpayable",
      "type": "function"
    },
    {
      "inputs": [
        {
          "internalType": "address",
          "name": "tokenA",
          "type": "address"
        },
        {
          "internalType": "address",
          "name": "tokenB",
          "type": "address"
        }
      ],
      "name": "sortTokens",
      "outputs": [
        {
          "internalType": "address",
          "name": "token0",
          "type": "address"
        },
        {
          "internalType": "address",
          "name": "token1",
          "type": "address"
        }
      ],
      "stateMutability": "pure",
      "type": "function"
    },
    {
      "inputs": [
        {
          "internalType": "uint256",
          "name": "amountOutMin",
          "type": "uint256"
        },
        {
          "internalType": "address[]",
          "name": "path",
          "type": "address[]"
        },
        {
          "internalType": "address",
          "name": "to",
          "type": "address"
        },
        {
          "internalType": "uint256",
          "name": "deadline",
          "type": "uint256"
        }
      ],
      "name": "swapExactETHForTokens",
      "outputs": [
        {
          "internalType": "uint256[]",
          "name": "amounts",
          "type": "uint256[]"
        }
      ],
      "stateMutability": "payable",
      "type": "function"
    },
    {
      "inputs": [
        {
          "internalType": "uint256",
          "name": "amountIn",
          "type": "uint256"
        },
        {
          "internalType": "uint256",
          "name": "amountOutMin",
          "type": "uint256"
        },
        {
          "internalType": "address[]",
          "name": "path",
          "type": "address[]"
        },
        {
          "internalType": "address",
          "name": "to",
          "type": "address"
        },
        {
          "internalType": "uint256",
          "name": "deadline",
          "type": "uint256"
        }
      ],
      "name": "swapExactTokensForTokens",
      "outputs": [
        {
          "internalType": "uint256[]",
          "name": "amounts",
          "type": "uint256[]"
        }
      ],
      "stateMutability": "nonpayable",
      "type": "function"
    },
    {
      "inputs": [
        {
          "internalType": "uint256",
          "name": "amountOut",
          "type": "uint256"
        },
        {
          "internalType": "uint256",
          "name": "amountInMax",
          "type": "uint256"
        },
        {
          "internalType": "address[]",
          "name": "path",
          "type": "address[]"
        },
        {
          "internalType": "address",
          "name": "to",
          "type": "address"
        },
        {
          "internalType": "uint256",
          "name": "deadline",
          "type": "uint256"
        }
      ],
      "name": "swapTokensForExactETH",
      "outputs": [
        {
          "internalType": "uint256[]",
          "name": "amounts",
          "type": "uint256[]"
        }
      ],
      "stateMutability": "nonpayable",
      "type": "function"
    },
    {
      "inputs": [
        {
          "internalType": "uint256",
          "name": "amountOut",
          "type": "uint256"
        },
        {
          "internalType": "uint256",
          "name": "amountInMax",
          "type": "uint256"
        },
        {
          "internalType": "address[]",
          "name": "path",
          "type": "address[]"
        },
        {
          "internalType": "address",
          "name": "to",
          "type": "address"
        },
        {
          "internalType": "uint256",
          "name": "deadline",
          "type": "uint256"
        }
      ],
      "name": "swapTokensForExactTokens",
      "outputs": [
        {
          "internalType": "uint256[]",
          "name": "amounts",
          "type": "uint256[]"
        }
      ],
      "stateMutability": "nonpayable",
      "type": "function"
    },
    {
      "inputs": [
        {
          "internalType": "address",
          "name": "newOwner",
          "type": "address"
        }
      ],
      "name": "transferOwnership",
      "outputs": [],
      "stateMutability": "nonpayable",
      "type": "function"
    },
    {
      "inputs": [],
      "name": "unpause",
      "outputs": [],
      "stateMutability": "nonpayable",
      "type": "function"
    },
    {
      "inputs": [
        {
          "internalType": "uint256",
          "name": "newLimit",
          "type": "uint256"
        }
      ],
      "name": "updatePriceImpactLimit",
      "outputs": [],
      "stateMutability": "nonpayable",
      "type": "function"
    },
    {
      "inputs": [
        {
          "internalType": "uint256",
          "name": "newTolerance",
          "type": "uint256"
        }
      ],
      "name": "updateSlippageTolerance",
      "outputs": [],
      "stateMutability": "nonpayable",
      "type": "function"
    },
    {
      "inputs": [],
      "name": "whitelistEnabled",
      "outputs": [
        {
          "internalType": "bool",
          "name": "",
          "type": "bool"
        }
      ],
      "stateMutability": "view",
      "type": "function"
    },
    {
      "inputs": [
        {
          "internalType": "address",
          "name": "",
          "type": "address"
        }
      ],
      "name": "whitelistedTokens",
      "outputs": [
        {
          "internalType": "bool",
          "name": "",
          "type": "bool"
        }
      ],
      "stateMutability": "view",
      "type": "function"
    },
    {
      "stateMutability": "payable",
      "type": "receive"
    }
  ],
  "bytecode": "0x60c06040523462000090576200001f6200001862000144565b9062000289565b604051614568620004928239608051818181610b5501528181612b7401528181613020015281816133510152818161357d015281816138f50152818161399401528181613aae0152613d7b015260a051818181610a2001528181610fff015281816121810152612613015261456890f35b600080fd5b634e487b7160e01b600052604160045260246000fd5b90601f01601f191681019081106001600160401b03821117620000cd57604052565b62000095565b90620000ea620000e260405190565b9283620000ab565b565b6001600160a01b031690565b90565b6001600160a01b038116036200009057565b90505190620000ea82620000fb565b91906040838203126200009057620000f8906200013a81856200010d565b936020016200010d565b62000167620049fa803803806200015b81620000d3565b9283398101906200011c565b9091565b90600019905b9181191691161790565b620000f8620000f8620000f89290565b906200019f620000f8620001a7926200017b565b82546200016b565b9055565b620000ec620000f8620000f89290565b620000f890620001ab565b15620001ce57565b60405162461bcd60e51b815260206004820152601760248201527f526f757465723a20494e56414c49445f464143544f52590000000000000000006044820152606490fd5b0390fd5b156200021f57565b60405162461bcd60e51b815260206004820152601460248201527f526f757465723a20494e56414c49445f574554480000000000000000000000006044820152606490fd5b9060ff9062000171565b9062000281620000f8620001a792151590565b825462000264565b620000ea9162000299336200031a565b620002a86101f460036200018b565b620002b76103e860046200018b565b600091620002ff620002ed620002cd85620001bb565b620000ec6001600160a01b0382166001600160a01b0386161415620001c6565b6001600160a01b038416141562000217565b60805260a052620003128160056200026e565b60086200026e565b6200032462000389565b620003306000620001bb565b6001600160a01b0381166001600160a01b03831614620003565750620000ea906200042f565b62000213906200036560405190565b631e4fbdf760e01b8152918291600483016001600160a01b03909116815260200190565b620000ea620000ea620003a3565b620000f860016200017b565b620000ea620003b162000397565b60006200018b565b620000f89060081c620000ec565b620000f89054620003b9565b90610100600160a81b039060081b62000171565b620000f890620000ec906001600160a01b031682565b620000f890620003e7565b620000f890620003fd565b9062000427620000f8620001a79262000408565b8254620003d3565b6200043b6001620003c7565b906200044981600162000413565b62000480620004797f8be0079c531659141344cd1fd0a4f28419497f9722a3daafe3b4186f6b6457e09362000408565b9162000408565b916200048b60405190565b600090a356fe60806040526004361015610023575b361561001957600080fd5b610021610fe1565b005b60003560e01c8063052d9e7e146102b3578063054d50d4146102ae5780630f9da743146102a957806316c8357f146102a45780631f00ca741461029f57806338ed17391461029a5780633a9c5712146102955780633f4ba83a146102905780634a25d94a1461028b5780634a48d057146102865780634ece7c061461028157806351fb012d1461027c578063544caa5614610277578063558a7297146102725780635c8b5f441461026d5780635c975abb1461026857806363a599a4146102635780636839b5fa1461025e57806369cbae24146102595780636d70f7ae14610254578063715018a61461024f5780637ff36ab51461024a5780638456cb591461024557806385f8c259146102405780638803dbee1461023b5780638da5cb5b146102365780639d7b8ce214610231578063a5e90eee1461022c578063ad5c464814610227578063ad615dec14610222578063baa2abde1461021d578063c30e659b14610218578063c45a015514610213578063c73d7c7b1461020e578063d06ca61f14610209578063daf9c21014610204578063de0f4ddb146101ff578063e63ea408146101fa578063e8e33700146101f5578063f2fde38b146101f05763f3ae24150361000e57610d33565b610d09565b610cd5565b610c28565b610be6565b610bbf565b610b91565b610b79565b610b40565b610b25565b610add565b610a44565b610a0b565b6109f2565b6109da565b610997565b610975565b610959565b610941565b610927565b6108bc565b6108a1565b610874565b610847565b61080c565b6107e5565b6107ca565b61079a565b610749565b6106f8565b6106b7565b610626565b610604565b6105ec565b6105d3565b61058e565b6104c3565b6103d7565b610392565b610352565b6102ee565b8015155b036102c357565b600080fd5b905035906102d5826102b8565b565b906020828203126102c3576102eb916102c8565b90565b346102c3576103066103013660046102d7565b61437d565b604051005b0390f35b806102bc565b905035906102d58261030f565b90916060828403126102c3576102eb61033b8484610315565b936103498160208601610315565b93604001610315565b346102c35761030b61036e610368366004610322565b916136c1565b6040519182918290815260200190565b906020828203126102c3576102eb91610315565b346102c3576103066103a536600461037e565b6140b2565b60009103126102c357565b6102eb916008021c81565b906102eb91546103b5565b6102eb600060046103c0565b346102c3576103e73660046103aa565b61030b61036e6103cb565b909182601f830112156102c35781359167ffffffffffffffff83116102c35760200192602083028401116102c357565b9190916040818403126102c3576104398382610315565b92602082013567ffffffffffffffff81116102c35761045892016103f2565b9091565b9061047c61047561046b845190565b8084529260200190565b9260200190565b9060005b81811061048d5750505090565b9091926104aa6104a36001928651815260200190565b9460200190565b929101610480565b60208082526102eb9291019061045c565b346102c35761030b6104df6104d9366004610422565b91613500565b604051918291826104b2565b73ffffffffffffffffffffffffffffffffffffffff1690565b73ffffffffffffffffffffffffffffffffffffffff81166102bc565b905035906102d582610504565b9060a0828203126102c3576105428183610315565b926105508260208501610315565b9260408101359167ffffffffffffffff83116102c357610575846102eb9484016103f2565b9390946105858160608601610520565b93608001610315565b346102c35761030b6104df6105a436600461052d565b94939093929192611bd8565b91906040838203126102c3576102eb906105ca8185610520565b936020016102c8565b346102c3576103066105e63660046105b0565b90614327565b346102c3576105fc3660046103aa565b6103066144a0565b346102c35761030b6104df61061a36600461052d565b94939093929192612916565b346102c3576103066106393660046105b0565b906142cd565b906020828203126102c3576102eb91610520565b6104eb6102eb6102eb9273ffffffffffffffffffffffffffffffffffffffff1690565b6102eb90610653565b6102eb90610676565b906106929061067f565b600052602052604060002090565b6102eb906106b2600291600092610688565b6103c0565b346102c35761030b61036e6106cd36600461063f565b6106a0565b6102eb916008021c5b60ff1690565b906102eb91546106d2565b6102eb600060086106e1565b346102c3576107083660046103aa565b61030b6107136106ec565b6040515b91829182901515815260200190565b91906040838203126102c3576102eb906107408185610520565b93602001610520565b346102c35761076261075c366004610726565b90613d33565b9061030b61076f60405190565b9283928373ffffffffffffffffffffffffffffffffffffffff91821681529116602082015260400190565b346102c3576103066107ad3660046105b0565b90614264565b6102eb906107c5600691600092610688565b6106e1565b346102c35761030b6107136107e036600461063f565b6107b3565b346102c3576107f53660046103aa565b61030b610713610f9c565b6102eb600060056106e1565b346102c35761081c3660046103aa565b61030b610713610800565b6102eb6102eb6102eb9290565b6102eb611388610827565b6102eb610834565b346102c3576108573660046103aa565b61030b61036e61083f565b6102eb601e610827565b6102eb610862565b346102c3576108843660046103aa565b61030b61036e61086c565b6102eb906107c5600a91600092610688565b346102c35761030b6107136108b736600461063f565b61088f565b346102c3576108cc3660046103aa565b610306610da6565b916080838303126102c3576108e98284610315565b9260208101359167ffffffffffffffff83116102c35761090e846102eb9484016103f2565b93909461091e8160408601610520565b93606001610315565b61030b6104df6109383660046108d4565b93929092612478565b346102c3576109513660046103aa565b610306614431565b346102c35761030b61036e61096f366004610322565b91613746565b346102c35761030b6104df61098b36600461052d565b949390939291926120be565b346102c3576109a73660046103aa565b61030b6109b2610d64565b6040515b9182918273ffffffffffffffffffffffffffffffffffffffff909116815260200190565b346102c3576103066109ed36600461037e565b614193565b346102c357610306610a053660046105b0565b90614237565b346102c357610a1b3660046103aa565b61030b7f00000000000000000000000000000000000000000000000000000000000000006109b2565b346102c35761030b61036e610a5a366004610322565b91613ce7565b60e0818303126102c357610a748282610520565b92610a828360208401610520565b92610a908160408501610315565b92610a9e8260608301610315565b926102eb610aaf8460808501610315565b93610abd8160a08601610520565b9360c001610315565b9081526040810192916102d59160200152565b0152565b346102c357610afc610af0366004610a60565b959490949391936131fe565b9061030b610b0960405190565b92839283610ac6565b6102eb6107d0610827565b6102eb610b12565b346102c357610b353660046103aa565b61030b61036e610b1d565b346102c357610b503660046103aa565b61030b7f00000000000000000000000000000000000000000000000000000000000000006109b2565b346102c357610306610b8c3660046102d7565b61420d565b346102c35761030b6104df610ba7366004610422565b916132ec565b6102eb906107c5600791600092610688565b346102c35761030b610713610bd536600461063f565b610bad565b6102eb600060036103c0565b346102c357610bf63660046103aa565b61030b61036e610bda565b90916060828403126102c3576102eb610c1a8484610520565b936103498160208601610520565b346102c357610306610c3b366004610c01565b916143ae565b9190610100838203126102c357610c588184610520565b92610c668260208301610520565b92610c748360408401610315565b92610c828160608501610315565b92610c908260808301610315565b926102eb610ca18460a08501610315565b93610caf8160c08601610520565b9360e001610315565b9081526060810193926102d5929091604091610ad9906020830152565b346102c35761030b610cfa610ceb366004610c41565b96959095949194939293612d26565b60405191939193849384610cb8565b346102c357610306610d1c36600461063f565b610ee4565b6102eb906107c5600991600092610688565b346102c35761030b610713610d4936600461063f565b610d21565b6102eb9060081c6104eb565b6102eb9054610d4e565b6102eb6001610d5a565b610d76610dae565b6102d5610d94565b6104eb6102eb6102eb9290565b6102eb90610d7e565b6102d5610da16000610d8b565b610f2e565b6102d5610d6e565b610db6610d64565b3390610dd7825b9173ffffffffffffffffffffffffffffffffffffffff1690565b03610ddf5750565b610e3690610dec60405190565b9182917f118cdaa70000000000000000000000000000000000000000000000000000000083526004830173ffffffffffffffffffffffffffffffffffffffff909116815260200190565b0390fd5b6102d590610e46610dae565b610e506000610d8b565b73ffffffffffffffffffffffffffffffffffffffff811673ffffffffffffffffffffffffffffffffffffffff831614610e8d57506102d590610f2e565b610e3690610e9a60405190565b9182917f1e4fbdf70000000000000000000000000000000000000000000000000000000083526004830173ffffffffffffffffffffffffffffffffffffffff909116815260200190565b6102d590610e3a565b9074ffffffffffffffffffffffffffffffffffffffff009060081b5b9181191691161790565b90610f236102eb610f2a9261067f565b8254610eed565b9055565b610f386001610d5a565b90610f44816001610f13565b610f77610f717f8be0079c531659141344cd1fd0a4f28419497f9722a3daafe3b4186f6b6457e09361067f565b9161067f565b91610f8160405190565b80805b0390a3565b6102eb906106db565b6102eb9054610f89565b6102eb6001610f92565b7f4e487b7100000000000000000000000000000000000000000000000000000000600052600160045260246000fd5b15610fdc57565b610fa6565b6102d53361102473ffffffffffffffffffffffffffffffffffffffff7f000000000000000000000000000000000000000000000000000000000000000016610dbd565b14610fd5565b9061104196959493929161103c611dad565b61104a565b906102d5611e06565b906102eb96959493929161105c611d6a565b6110c7565b1561106857565b6040517f08c379a000000000000000000000000000000000000000000000000000000000815260206004820152601d60248201527f526f757465723a20456d657267656e63792073746f70206163746976650000006044820152606490fd5b906102eb9695949392916110ea6110e56110e16005610f92565b1590565b611061565b6111e6565b6102eb9081565b6102eb90546110ef565b7f4e487b7100000000000000000000000000000000000000000000000000000000600052601160045260246000fd5b9190820180921161113c57565b611100565b1561114857565b6040517f08c379a000000000000000000000000000000000000000000000000000000000815260206004820152601b60248201527f526f757465723a2052617465206c696d697420657863656564656400000000006044820152606490fd5b907fffffffffffffffffffffffffffffffffffffffffffffffffffffffffffffffff90610f09565b906111df6102eb610f2a92610827565b82546111a7565b9193956102d59561123692989761123c95429760029b8c976112316112286102eb61121a61121533809e610688565b6110f6565b611222610862565b9061112f565b8c5b1015611141565b6118db565b95610688565b6111cf565b1561124857565b6040517f08c379a000000000000000000000000000000000000000000000000000000000815260206004820152600f60248201527f526f757465723a204558504952454400000000000000000000000000000000006044820152606490fd5b156112ae57565b6040517f08c379a000000000000000000000000000000000000000000000000000000000815260206004820152601460248201527f526f757465723a20494e56414c49445f504154480000000000000000000000006044820152606490fd5b1561131457565b6040517f08c379a000000000000000000000000000000000000000000000000000000000815260206004820152601260248201527f526f757465723a20494e56414c49445f544f00000000000000000000000000006044820152606490fd5b1561137a57565b6040517f08c379a000000000000000000000000000000000000000000000000000000000815260206004820152602160248201527f526f757465723a20494e53554646494349454e545f494e5055545f414d4f554e60448201527f54000000000000000000000000000000000000000000000000000000000000006064820152608490fd5b7fffffffffffffffffffffffffffffffffffffffffffffffffffffffffffffffff811461113c5760010190565b7f4e487b7100000000000000000000000000000000000000000000000000000000600052603260045260246000fd5b919081101561146b576020020190565b61142c565b356102eb81610504565b1561148157565b6040517f08c379a000000000000000000000000000000000000000000000000000000000815260206004820152601560248201527f526f757465723a20496e76616c696420746f6b656e00000000000000000000006044820152606490fd5b156114e757565b6040517f08c379a000000000000000000000000000000000000000000000000000000000815260206004820152601960248201527f526f757465723a20546f6b656e20626c61636b6c6973746564000000000000006044820152606490fd5b1561154d57565b6040517f08c379a000000000000000000000000000000000000000000000000000000000815260206004820152601d60248201527f526f757465723a20546f6b656e206e6f742077686974656c69737465640000006044820152606490fd5b9190820391821161113c57565b906115c2825190565b81101561146b576020809102010190565b8181029291811591840414171561113c57565b7f4e487b7100000000000000000000000000000000000000000000000000000000600052601260045260246000fd5b9061161f565b9190565b90811561162a570490565b6115e6565b1561163657565b6040517f08c379a000000000000000000000000000000000000000000000000000000000815260206004820152602260248201527f526f757465723a20494e53554646494349454e545f4f55545055545f414d4f5560448201527f4e540000000000000000000000000000000000000000000000000000000000006064820152608490fd5b156116c257565b6040517f08c379a000000000000000000000000000000000000000000000000000000000815260206004820152601d60248201527f526f757465723a2050524943455f494d504143545f544f4f5f484947480000006044820152606490fd5b7f4e487b7100000000000000000000000000000000000000000000000000000000600052604160045260246000fd5b90601f017fffffffffffffffffffffffffffffffffffffffffffffffffffffffffffffffe016810190811067ffffffffffffffff82111761179057604052565b611721565b906102d56117a260405190565b9283611750565b67ffffffffffffffff81116117905760208091020190565b909291926117d66117d1826117a9565b611795565b93818552602080860192028301928184116102c357915b8383106117fa5750505050565b602080916118088486610520565b8152019201916117ed565b6102eb9136916117c1565b506102eb906020810190610520565b818352602090920191906000825b828210611849575050505090565b9091929361188561187e600192611860888661181e565b73ffffffffffffffffffffffffffffffffffffffff16815260200190565b9560200190565b9392019061183b565b926118cc6102d5979260a0966118d4936118bf610ad9979d9c9a9d6118b860c08b019560008c0152565b60208a0152565b878303604089015261182d565b986060850152565b6080830152565b509195909492939192916118f3425b845b1015611241565b849561190b6119026002610827565b885b10156112a7565b60009661191788610d8b565b9561195273ffffffffffffffffffffffffffffffffffffffff88165b73ffffffffffffffffffffffffffffffffffffffff86165b141561130d565b61196661195e8a610827565b825b11611373565b61196f89610827565b82811015611a2e57806119e86119e36110e16119de8f6119d88f8f98816119d0611a029b6119c9610dbd6119af6119aa876119aa998c61145b565b611470565b9273ffffffffffffffffffffffffffffffffffffffff1690565b141561147a565b60069461145b565b90610688565b610f92565b6114e0565b8b818b6119f56008610f92565b611a07575b5050506113ff565b61196f565b611a26926119d86119aa611a21946119de9460079461145b565b611546565b8b818b6119fa565b50919498939790929550611a438785846132ec565b8099611a4d825190565b91611a73611a6f611a69600195611a6387610827565b906115ac565b836115b9565b5190565b92833399611a808b613f28565b611a8988610827565b821115611ba05750975b611a9f8983101561162f565b8c611aa988610827565b611ab3918c61145b565b611abc90611470565b92611ac690610827565b611acf916115ac565b611ada908d8b61145b565b611ae390611470565b90611aee9288613d6e565b93611af960046110f6565b851115611b05906116bb565b611b0e90610827565b611b19908b8961145b565b611b2290611470565b611b2b9061067f565b8589611b363061067f565b90611b4093611c57565b88611b4b8b89611813565b611b549261380e565b7f7a5736f42ff467846f1acb611f138e0ada2779176256f502007d29b8e3bb0f1a96611b7f9061067f565b97611b899061067f565b98611b9360405190565b968796610f84968861188e565b611bd29150611bcc611bc6611bc061271093611bbb85610827565b6115ac565b856115d3565b91610827565b90611615565b97611a93565b6102eb959493929190606061102a565b611c01611bfb6102eb9263ffffffff1690565b60e01b90565b7fffffffff000000000000000000000000000000000000000000000000000000001690565b73ffffffffffffffffffffffffffffffffffffffff9182168152911660208201526060810192916102d59160400152565b90611c9c90611c8d6102d595600495611c736323b872dd611be8565b93611c7d60405190565b9788956020870190815201611c26565b60208201810382520383611750565b906000602091611caa600090565b50828151910182855af115611d5e57600080513d611cca61161b84610827565b03611d485750611ce661161b611cdf8461067f565b3b92610827565b145b611cef5750565b611cfb610e369161067f565b6040519182917f5274afe70000000000000000000000000000000000000000000000000000000083526004830173ffffffffffffffffffffffffffffffffffffffff909116815260200190565b9050611d5761161b6001610827565b1415611ce8565b6040513d6000823e3d90fd5b611d72610f9c565b611d7857565b6040517fd93c0665000000000000000000000000000000000000000000000000000000008152600490fd5b6102eb6002610827565b611db760006110f6565b611dbf611da3565b908114611dd1576102d59060006111cf565b6040517f3ee5aeb5000000000000000000000000000000000000000000000000000000008152600490fd5b6102eb6001610827565b6102d5611e11611dfc565b60006111cf565b90611041969594939291611e2a611dad565b906102eb969594939291611e3c611d6a565b906102eb969594939291611e566110e56110e16005610f92565b9193956102d59561123692989761123c95429760029b8c97611e856112286102eb61121a61121533809e610688565b611ef0565b15611e9157565b6040517f08c379a000000000000000000000000000000000000000000000000000000000815260206004820152601e60248201527f526f757465723a204558434553534956455f494e5055545f414d4f554e5400006044820152606490fd5b50919590949293919291611f03426118ea565b84611f17611f116002610827565b82611904565b600096611f2388610d8b565b95611f4373ffffffffffffffffffffffffffffffffffffffff8816611933565b611f57611f4f8a610827565b825b1161162f565b611f6089610827565b83811015611fa057806119e86119e36110e16119de8f6119d88f8f98816119d0611f9b9b6119c9610dbd6119af6119aa876119aa998c61145b565b611f60565b50919498939790929550611fb5878584613500565b948599611fc183610827565b611fcb90886115b9565b5191611fd986841115611e8a565b84611fe385610827565b611fee908c8a61145b565b611ff790611470565b916120026001610827565b61200b916115ac565b612016908c8a61145b565b61201f90611470565b9061202a9285613d6e565b9261203560046110f6565b841115612041906116bb565b61204a90610827565b612055908a8861145b565b61205e90611470565b6120679061067f565b33979083896120753061067f565b9061207f93611c57565b8861208a8b89611813565b6120939261380e565b7f7348e893a94619017e9abb4d083928e049571c66dfb692f4bfa473851ae17ae196611b7f9061067f565b6102eb9594939291906060611e18565b9061104195949392916120df611dad565b906102eb95949392916120f0611d6a565b906102eb95949392916121096110e56110e16005610f92565b909594611236906102d59561123c9495429660029a8b9661213d6121376102eb61121a61121533809d610688565b8b61122a565b50919490929061214d42866118ec565b859161216261215c6002610827565b84611904565b60009361217b6119aa61217487610827565b8a8961145b565b946121c77f0000000000000000000000000000000000000000000000000000000000000000966121c1610dbd8973ffffffffffffffffffffffffffffffffffffffff1690565b146112a7565b6121d081610d8b565b956121f073ffffffffffffffffffffffffffffffffffffffff8816611933565b34926122046121fe84610827565b85611960565b61220d83610827565b8781101561228d57808a818e6122348d6119c9610dbd6119af6119aa6122669a878a61145b565b6122506119e36110e16119de60066119d86119aa88888b61145b565b61225a6008610f92565b61226b575050506113ff565b61220d565b612285926119d86119aa611a21946119de9460079461145b565b8a818e6119fa565b50909192939650611a6394986122d8969a6122a9818b886132ec565b8a82829e6122cd611a6f6122c76122be875190565b60019e8f610827565b866115b9565b9a8b97339d8e613f28565b6122e18c610827565b82111561241a57509b61234a946123459461231e8f95611a63612324966123196119aa9761231261161b61232c9c90565b101561162f565b610827565b9161145b565b87898c613d6e565b9661234561233d6102eb60046110f6565b8911156116bb565b61067f565b63d0e30db090803b156102c35761236f91889161236660405190565b93849260e01b90565b825260049082908c905af19182156124155761239c848e610f849a8f956123a2976123e8575b5050611813565b9061380e565b6123d56123cf7f884ff4613f3cf774e31959174fd629144a90c667e3022f774f577c7241e34d939961067f565b9961067f565b996123df60405190565b9788978861188e565b8161240792903d1061240e575b6123ff8183611750565b8101906103aa565b3880612395565b503d6123f5565b611d5e565b612710915061242882610827565b90612432916115ac565b61243c908a6115d3565b9061244690610827565b61244f91611615565b9b61234a946123459461231e8f95611a63612324966123196119aa9761231261161b61232c9c90565b6102eb949392919060606120ce565b90611041969594939291612499611dad565b906102eb9695949392916124ab611d6a565b906102eb9695949392916124c56110e56110e16005610f92565b9193956102d59561123692989761123c95429760029b8c976124f46112286102eb61121a61121533809e610688565b6125cb565b67ffffffffffffffff811161179057602090601f017fffffffffffffffffffffffffffffffffffffffffffffffffffffffffffffffe0160190565b906125416117d1836124f9565b918252565b3d15612560576125553d612534565b903d6000602084013e565b606090565b1561256c57565b6040517f08c379a000000000000000000000000000000000000000000000000000000000815260206004820152601b60248201527f526f757465723a204554485f5452414e534645525f4641494c454400000000006044820152606490fd5b50949594919392916125dd42886118ec565b826125eb611f116002610827565b60019061260d6119aa61260661260085610827565b846115ac565b878a61145b565b906126537f0000000000000000000000000000000000000000000000000000000000000000926121c1610dbd8573ffffffffffffffffffffffffffffffffffffffff1690565b6000908361266083610d8b565b9161269873ffffffffffffffffffffffffffffffffffffffff84165b73ffffffffffffffffffffffffffffffffffffffff8c1661194b565b6126aa6126a485610827565b88611f51565b88826126b586610827565b905b612892575b509150506126cc91508986613500565b99868b6126d884610827565b6126e290826115b9565b51936126f089861115611e8a565b87868d856126fd85610827565b906127079261145b565b61271090611470565b9161271b9288613d6e565b9561272660046110f6565b871115612732906116bb565b8c8461273d84610827565b906127479261145b565b61275090611470565b6127599061067f565b8d339c8d9289306127699061067f565b809561277493611c57565b61277d91611813565b90612788918561380e565b6127919061067f565b61279a9061067f565b91632e1a7d4d6127a8825190565b6127b18a610827565b6127ba916115ac565b6127c490836115b9565b51843b156102c3576127fa946127ec8580946127df60405190565b9889958694859360e01b90565b835260048301526024820190565b03925af1801561241557612831611a6f84938f93610f849c6128499861282b92612876575b50611a63611bc6845190565b906115b9565b60405190818003925af1612843612546565b50612565565b6123d56123cf7fe305e4738612b170121c021ca201f2329e5f1c085fdf5a14c2776f86cef8fd519961067f565b61288c90883d8a1161240e576123ff8183611750565b3861281f565b8c83821015612910576119e36110e16119de836119d86119aa87896119d08e6119c9610dbd6119af6128e69f876128cd9f916119aa9261145b565b8c818c6128da6008610f92565b6128ee575050506113ff565b8990836126b7565b612908926119d86119aa611a21946119de9460079461145b565b8c818c6119fa565b506126bc565b6102eb9594939291906060612487565b906129419a99989796959493929161293c611dad565b61294c565b9091926102d5611e06565b906129679a999897969594939291612962611d6a565b61296c565b909192565b906129679a99989796959493929161298a6110e56110e16005610f92565b612a37565b1561299657565b6040517f08c379a000000000000000000000000000000000000000000000000000000000815260206004820152601c60248201527f526f757465723a20494e53554646494349454e545f414d4f554e5453000000006044820152606490fd5b905051906102d582610504565b906020828203126102c3576102eb916129f5565b905051906102d58261030f565b906020828203126102c3576102eb91612a16565b98612af36119e36110e16119de849c9a989f9d979e8f90612a6e90612b3699612b609f9d9b99612b1a9a5050506118ec61161b4290565b612a9b612a7b6000610d8b565b9661194b73ffffffffffffffffffffffffffffffffffffffff8916610dbd565b612aa56000610827565b891180612d0f575b612ab69061298f565b612aec73ffffffffffffffffffffffffffffffffffffffff871673ffffffffffffffffffffffffffffffffffffffff83166119c9565b6006610688565b612afd6008610f92565b612cfe5773ffffffffffffffffffffffffffffffffffffffff1690565b73ffffffffffffffffffffffffffffffffffffffff8b166119c9565b612b4a6119e36110e16119de8c6006610688565b612b546008610f92565b612ce8575b8888613a97565b9490918594612bb084976020612b986123457f000000000000000000000000000000000000000000000000000000000000000061067f565b63b4f69a2f90612ba760405190565b94859260e01b90565b825273ffffffffffffffffffffffffffffffffffffffff86811660048401528816602483015260449082905afa90811561241557612c6596602096612c219561234595600095612ca3575b5091612c1c8592612345612c12612345979661067f565b9385338096611c57565b611c57565b612c416000636a627842612c3460405190565b9687958694859360e01b90565b835273ffffffffffffffffffffffffffffffffffffffff1660048301526024820190565b03925af190811561241557600091612c7b575090565b6102eb915060203d8111612c9c575b612c948183611750565b810190612a23565b503d612c8a565b612c12955061234594939192612345612cd4612c1c938d3d8111612ce1575b612ccc8183611750565b810190612a02565b9750509291939450612bfb565b503d612cc2565b612cf9611a216119de8b6007610688565b612b59565b6104eb611a216119de8d6007610688565b50612ab6612d1d6000610827565b8b119050612aad565b612967979695949392919060008080612926565b90612d539897969594939291612d4e611dad565b612d5d565b90916102d5611e06565b906104589897969594939291612d71611d6a565b906104589897969594939291612d8d6110e56110e16005610f92565b612f08565b15612d9957565b6040517f08c379a000000000000000000000000000000000000000000000000000000000815260206004820152601e60248201527f526f757465723a20494e53554646494349454e545f4c495155494449545900006044820152606490fd5b905051906102d5826102b8565b906020828203126102c3576102eb91612df8565b91906040838203126102c3576102eb90612e338185612a16565b93602001612a16565b15612e4357565b6040517f08c379a000000000000000000000000000000000000000000000000000000000815260206004820152601d60248201527f526f757465723a20494e53554646494349454e545f415f414d4f554e540000006044820152606490fd5b15612ea957565b6040517f08c379a000000000000000000000000000000000000000000000000000000000815260206004820152601d60248201527f526f757465723a20494e53554646494349454e545f425f414d4f554e540000006044820152606490fd5b90612f229296989199979493959950506118ec61161b4290565b60206000946130096119e36110e16119de88612f3d8b610d8b565b612f5c73ffffffffffffffffffffffffffffffffffffffff821661267c565b612f6f612f688d610827565b8a11612d92565b612fa573ffffffffffffffffffffffffffffffffffffffff821673ffffffffffffffffffffffffffffffffffffffff89166119c9565b613004612fe8600692612fc16119e36110e16119de8d88610688565b612fcb6008610f92565b6131ed5773ffffffffffffffffffffffffffffffffffffffff1690565b73ffffffffffffffffffffffffffffffffffffffff84166119c9565b610688565b6130136008610f92565b6131d7575b6130446123457f000000000000000000000000000000000000000000000000000000000000000061067f565b61306563b4f69a2f61309161305860405190565b9889958694859460e01b90565b845273ffffffffffffffffffffffffffffffffffffffff90811660048501521660248301526044820190565b03915afa928315612415576000936131b7575b5060206130d66130b66123458661067f565b926130e16323b872dd9133976130cb60405190565b988995869560e01b90565b855260048501611c26565b038187855af180156124155761310c94604094612c419261318b575b506389afcb44612c3460405190565b03925af19283156124155760008092909461314c575b509061314561161b6102d5936102eb849761313e61161b829b90565b1015612e3c565b1015612ea2565b61161b9194506102d5925061317a6131459160403d8111613184575b6131728183611750565b810190612e19565b9350949150613122565b503d613168565b6131ab9060203d81116131b0575b6131a38183611750565b810190612e05565b6130fd565b503d613199565b6131d091935060203d8111612ce157612ccc8183611750565b91386130a4565b6131e8611a216119de876007610688565b613018565b6104eb611a216119de8c6007610688565b61045896959493929190600080612d3a565b906125416117d1836117a9565b369037565b906102d561323861323284613210565b936117a9565b7fffffffffffffffffffffffffffffffffffffffffffffffffffffffffffffffe0016020840161321d565b6dffffffffffffffffffffffffffff81166102bc565b905051906102d582613263565b63ffffffff81166102bc565b905051906102d582613286565b90916060828403126102c3576102eb6132b88484613279565b936132c68160208601613279565b93604001613292565b6102eb6102eb6102eb926dffffffffffffffffffffffffffff1690565b9291806133026132fc6002610827565b83611904565b61330b82613222565b94613327869161332461331e6000610827565b896115b9565b52565b60005b6001906133426102eb61333c84610827565b876115ac565b8110156134cc576133756123457f000000000000000000000000000000000000000000000000000000000000000061067f565b602063b4f69a2f9161338b6119aa85898c61145b565b906130656133a96119aa8c8b61231e6133a38c610827565b8b61112f565b946133c36133b660405190565b9687958694859460e01b90565b03915afa908115612415576133e96123456133f8936060936000916134ae575b5061067f565b630902f1ac9061236660405190565b825260049082905afa9283156124155761332461345a61345461344e8d61346096886134659a60008093909161346a575b506134499161344361343d611a6f936132cf565b946132cf565b946115b9565b6136c1565b93610827565b8561112f565b8b6115b9565b6113ff565b61332a565b61343d9350611a6f91509161344361349b6134499460603d81116134a7575b6134938183611750565b81019061329f565b50955092505091613429565b503d613489565b6134c6915060203d8111612ce157612ccc8183611750565b386133e3565b50509450505050565b801561113c577fffffffffffffffffffffffffffffffffffffffffffffffffffffffffffffffff0190565b929161354790809461351b6135156002610827565b87611904565b61352486613222565b93613556859761354d613535885190565b946133246001988997611a6389610827565b8a6115b9565b611a6384610827565b915b613564575b5050505050565b61356e6000610827565b8211156136bc576135a16123457f000000000000000000000000000000000000000000000000000000000000000061067f565b91602063b4f69a2f936135c96119aa6135c26135bc8a610827565b866115ac565b888761145b565b906130656135db6119aa868a8961145b565b966135e861305860405190565b03915afa9283156124155761360d612345613625956060936000916134ae575061067f565b630902f1ac9061361c60405190565b95869260e01b90565b825260049082905afa90811561241557613687613672879561368c94600080929091613692575b5061365961365f916132cf565b916132cf565b9061366d611a6f868d6115b9565b613746565b61332461354761368188610827565b856115ac565b6134d5565b91613558565b613659925061365f91506136b39060603d81116134a7576134938183611750565b5092509061364c565b61355d565b6102eb9261372e61372261371b611bcc946136da600090565b5061370a60006136f26136ec82610827565b84611960565b6136fb81610827565b89119081613733575b50612d92565b6137156103e5610827565b906115d3565b92836115d3565b936137156103e8610827565b61112f565b61373d9150610827565b865b1138613704565b91611bcc61370a846137a36137986102eb976137a997613764600090565b50613793600061377c61377682610827565b85611f51565b61378581610827565b831190816137b35750612d92565b6115d3565b6137156103e8610827565b936115ac565b6112226001610827565b6137bd9150610827565b8961373f565b9081526102eb9260808201926137fc91906137df906020850152565b73ffffffffffffffffffffffffffffffffffffffff166040830152565b60608183039101526000815260200190565b919092613819600090565b84519061382e6102eb600193611a6385610827565b811015613a8f5761385c61384282886115b9565b5173ffffffffffffffffffffffffffffffffffffffff1690565b61386e61384261331e61345486610827565b92613895610dbd611a6f61354761388f6138888988613d33565b5095610827565b8761112f565b73ffffffffffffffffffffffffffffffffffffffff831660009103613a8057506138bf6000610827565b90935b88516138d66102eb600292611a6384610827565b851015613a76576020613974918b6139486139316138426139196123457f000000000000000000000000000000000000000000000000000000000000000061067f565b9361282b61392b63b4f69a2f97610827565b8d61112f565b9261393b60405190565b9586948593849360e01b90565b835273ffffffffffffffffffffffffffffffffffffffff808a1660048501521660248301526044820190565b03915afa801561241557602091600091613a59575b50935b6139b86123457f000000000000000000000000000000000000000000000000000000000000000061067f565b61306563b4f69a2f6139cc6133b660405190565b03915afa908115612415576139ec91612345916000916134ae575061067f565b63022c0d9f813b156102c3576000613a1991613a248296613a0c60405190565b998a978896879560e01b90565b8552600485016137c3565b03925af191821561241557613a3e92613a43575b506113ff565b613819565b613a539060006123ff8183611750565b38613a38565b613a709150823d8111612ce157612ccc8183611750565b38613989565b506020879361398c565b613a8990610827565b936138c2565b505092505050565b929390949194613aa5600090565b50613ad26123457f000000000000000000000000000000000000000000000000000000000000000061067f565b9363b4f69a2f90613ae260405190565b95613aed8360e01b90565b875273ffffffffffffffffffffffffffffffffffffffff828116600489015284166024880152602087604481845afa96871561241557600097613c61575b50600096613b3e610dbd6104eb8a610d8b565b03613b4e57505050505050509091565b613065602093613b606133b660405190565b03915afa908115612415576133e9612345613b85936060936000916134ae575061067f565b825260049082905afa8015612415576000918291613c37575b50613659613bab916132cf565b93613bb581610827565b82149081613c25575b5015613bcc57505050509091565b613bdb84828897959697613ce7565b94838611613bf75750505050613bf16104589190565b82613145565b8395506104589450613c136102eb92613c1792613c1f96613ce7565b9690565b861115610fd5565b8361313e565b613c2f9150610827565b841438613bbe565b6136599250613bab9150613c589060603d81116134a7576134938183611750565b50925090613b9e565b613c7a91975060203d8111612ce157612ccc8183611750565b9538613b2b565b15613c8857565b6040517f08c379a000000000000000000000000000000000000000000000000000000000815260206004820152601b60248201527f526f757465723a20494e53554646494349454e545f414d4f554e5400000000006044820152606490fd5b6102eb92613d1e916137936000613d07613d0082610827565b8411613c81565b613d1081610827565b86119081613d235750612d92565b611615565b613d2d9150610827565b8361373f565b90919073ffffffffffffffffffffffffffffffffffffffff831673ffffffffffffffffffffffffffffffffffffffff821610156102eb579190565b9190602090613d9f6123457f000000000000000000000000000000000000000000000000000000000000000061067f565b61306563b4f69a2f613db361305860405190565b03915afa92831561241557600093613f08575b50600091613dd66104eb84610d8b565b73ffffffffffffffffffffffffffffffffffffffff851614613efc57606061360d612345613e04959661067f565b825260049082905afa8015612415576000938491613ed2575b50613e2a613e30916132cf565b936132cf565b91613e3a85610827565b84148015613ec1575b613eb457613e859291613715611bc6613d1e93613e7f670de0b6b3a764000094613e798a613d1e613e7389610827565b8b6115d3565b9961112f565b956115ac565b808211613e975750506102eb90610827565b6102eb9250613ea9613d1e91836115ac565b613715612710610827565b505050506102eb90610827565b50613ecb85610827565b8314613e43565b613e2a9450613e309150613ef39060603d81116134a7576134938183611750565b50945090613e1d565b50506102eb9150610827565b613f2191935060203d8111612ce157612ccc8183611750565b9138613dc6565b506102eb60036110f6565b15613f3a57565b6040517f08c379a000000000000000000000000000000000000000000000000000000000815260206004820152601f60248201527f526f757465723a204d616e6167657220616363657373207265717569726564006044820152606490fd5b6102d590613fd233613fac6104eb610d64565b73ffffffffffffffffffffffffffffffffffffffff821614908115613fd7575b50613f33565b614053565b613fe791506119de906009610688565b38613fcc565b15613ff457565b6040517f08c379a000000000000000000000000000000000000000000000000000000000815260206004820152601a60248201527f526f757465723a20546f6c6572616e636520746f6f20686967680000000000006044820152606490fd5b6140696140616102eb610b12565b821115613fed565b61407360036110f6565b9061407f8160036111cf565b7fddd31550b26e9ef8ade466958be83ff8a014d9b4f36d546b61a6847a45306575916140ad610b0960405190565b0390a1565b6102d590613f99565b6102d5906140ce33613fac6104eb610d64565b614139565b156140da57565b6040517f08c379a000000000000000000000000000000000000000000000000000000000815260206004820152601660248201527f526f757465723a204c696d697420746f6f2068696768000000000000000000006044820152606490fd5b61414f6141476102eb610834565b8211156140d3565b61415960046110f6565b906141658160046111cf565b7f57ec73c88f6c24a621d861de661e82ca919672df2db5b972c317b19563182bc5916140ad610b0960405190565b6102d5906140bb565b6102d5906141af33613fac6104eb610d64565b6141d4565b9060ff90610f09565b906141cd6102eb610f2a92151590565b82546141b4565b6141df8160056141bd565b6140ad7f4820cf6e28a8a9bda5092cad96ea0573beef6a2127028bf975724a36c365fbac9161071760405190565b6102d59061419c565b906102d591614223610dae565b906142326102d5926009610688565b6141bd565b906102d591614216565b906102d59161425533613fac6104eb610d64565b906142326102d592600a610688565b906102d591614241565b906102d59161428233613fac6104eb610d64565b61429182614232836006610688565b6142c86142be7fced2684241c29578df8f7fbab74348d0053114fa157b900b2f1f4a1d4a2b33959261067f565b9261071760405190565b0390a2565b906102d59161426e565b906102d5916142eb33613fac6104eb610d64565b6142fa82614232836007610688565b6142c86142be7fef81a9943b96c8df4ef243401c9bf5159146166211356898b52d382086168d929261067f565b906102d5916142d7565b6102d59061434433613fac6104eb610d64565b61434f8160086141bd565b6140ad7f9bea0dd3cae4438dc4c54c3110002aedc380f4075b6edae73ae0536105a2008a9161071760405190565b6102d590614331565b906102d5929161439b33613fac6104eb610d64565b906143a96102d5939261067f565b6143e3565b906102d59291614386565b73ffffffffffffffffffffffffffffffffffffffff90911681526040810192916102d59160200152565b611c9c600492611c8d6102d5956143fd63a9059cbb611be8565b9261440760405190565b96879460208601908152016143b9565b61442633613fac6104eb610d64565b6102d56102d561447e565b6102d5614417565b614441611d6a565b6102d561444f6001806141bd565b336140ad7f62e78cea01bee320cd4e420270b5ea74000d11b0c9f74754ebdbfc544b05a258916109b660405190565b6102d5614439565b61449533613fac6104eb610d64565b6102d56102d56144ee565b6102d5614486565b6144b06144f6565b6102d56144bf600060016141bd565b336140ad7f5db9ee0a495bf2e6ff9c91a7834c1ba4fdd244a5e8aa4e537bd38aeae4b073aa916109b660405190565b6102d56144a8565b6145016110e1610f9c565b61450757565b6040517f8dfc202b000000000000000000000000000000000000000000000000000000008152600490fdfea264697066735822122050e66f295b0a4a605f3bf1a3b5ac31efd0757a2bbae39c14047faa3fe427170764736f6c63430008140033",
  "linkReferences": {},
  "deployedLinkReferences": {}
}