{
  "_format": "hh-sol-artifact-1",
  "contractName": "TokenFactory",
  "sourceName": "contracts/TokenFactory.sol",
  "abi": [
    {
      "inputs": [
        {
          "internalType": "address",
          "name": "_platformWallet",
          "type": "address"
        },
        {
          "internalType": "address",
          "name": "_implementation",
          "type": "address"
        }
      ],
      "stateMutability": "nonpayable",
      "type": "constructor"
    },
    {
      "inputs": [],
      "name": "EnforcedPause",
      "type": "error"
    },
    {
      "inputs": [],
      "name": "ExpectedPause",
      "type": "error"
    },
    {
      "inputs": [],
      "name": "FailedDeployment",
      "type": "error"
    },
    {
      "inputs": [
        {
          "internalType": "uint256",
          "name": "balance",
          "type": "uint256"
        },
        {
          "internalType": "uint256",
          "name": "needed",
          "type": "uint256"
        }
      ],
      "name": "InsufficientBalance",
      "type": "error"
    },
    {
      "inputs": [
        {
          "internalType": "address",
          "name": "owner",
          "type": "address"
        }
      ],
      "name": "OwnableInvalidOwner",
      "type": "error"
    },
    {
      "inputs": [
        {
          "internalType": "address",
          "name": "account",
          "type": "address"
        }
      ],
      "name": "OwnableUnauthorizedAccount",
      "type": "error"
    },
    {
      "inputs": [],
      "name": "ReentrancyGuardReentrantCall",
      "type": "error"
    },
    {
      "inputs": [
        {
          "internalType": "address",
          "name": "token",
          "type": "address"
        }
      ],
      "name": "SafeERC20FailedOperation",
      "type": "error"
    },
    {
      "anonymous": false,
      "inputs": [
        {
          "indexed": true,
          "internalType": "address",
          "name": "pauser",
          "type": "address"
        }
      ],
      "name": "FactoryPaused",
      "type": "event"
    },
    {
      "anonymous": false,
      "inputs": [
        {
          "indexed": true,
          "internalType": "address",
          "name": "unpauser",
          "type": "address"
        }
      ],
      "name": "FactoryUnpaused",
      "type": "event"
    },
    {
      "anonymous": false,
      "inputs": [
        {
          "indexed": true,
          "internalType": "address",
          "name": "oldImplementation",
          "type": "address"
        },
        {
          "indexed": true,
          "internalType": "address",
          "name": "newImplementation",
          "type": "address"
        },
        {
          "indexed": true,
          "internalType": "address",
          "name": "updater",
          "type": "address"
        }
      ],
      "name": "ImplementationUpdated",
      "type": "event"
    },
    {
      "anonymous": false,
      "inputs": [
        {
          "indexed": true,
          "internalType": "address",
          "name": "previousOwner",
          "type": "address"
        },
        {
          "indexed": true,
          "internalType": "address",
          "name": "newOwner",
          "type": "address"
        }
      ],
      "name": "OwnershipTransferred",
      "type": "event"
    },
    {
      "anonymous": false,
      "inputs": [
        {
          "indexed": false,
          "internalType": "address",
          "name": "account",
          "type": "address"
        }
      ],
      "name": "Paused",
      "type": "event"
    },
    {
      "anonymous": false,
      "inputs": [
        {
          "indexed": true,
          "internalType": "address",
          "name": "oldWallet",
          "type": "address"
        },
        {
          "indexed": true,
          "internalType": "address",
          "name": "newWallet",
          "type": "address"
        },
        {
          "indexed": true,
          "internalType": "address",
          "name": "updater",
          "type": "address"
        }
      ],
      "name": "PlatformWalletUpdated",
      "type": "event"
    },
    {
      "anonymous": false,
      "inputs": [
        {
          "indexed": true,
          "internalType": "uint256",
          "name": "chainId",
          "type": "uint256"
        },
        {
          "indexed": false,
          "internalType": "enum TokenFactory.Plan",
          "name": "plan",
          "type": "uint8"
        },
        {
          "indexed": false,
          "internalType": "uint256",
          "name": "oldFee",
          "type": "uint256"
        },
        {
          "indexed": false,
          "internalType": "uint256",
          "name": "newFee",
          "type": "uint256"
        },
        {
          "indexed": true,
          "internalType": "address",
          "name": "updater",
          "type": "address"
        }
      ],
      "name": "ServiceFeeUpdated",
      "type": "event"
    },
    {
      "anonymous": false,
      "inputs": [
        {
          "indexed": true,
          "internalType": "address",
          "name": "tokenAddress",
          "type": "address"
        },
        {
          "indexed": true,
          "internalType": "address",
          "name": "owner",
          "type": "address"
        },
        {
          "indexed": false,
          "internalType": "string",
          "name": "name",
          "type": "string"
        },
        {
          "indexed": false,
          "internalType": "string",
          "name": "symbol",
          "type": "string"
        },
        {
          "indexed": false,
          "internalType": "enum TokenFactory.Plan",
          "name": "plan",
          "type": "uint8"
        },
        {
          "indexed": false,
          "internalType": "uint256",
          "name": "serviceFee",
          "type": "uint256"
        },
        {
          "indexed": false,
          "internalType": "uint256",
          "name": "chainId",
          "type": "uint256"
        },
        {
          "indexed": false,
          "internalType": "uint256",
          "name": "timestamp",
          "type": "uint256"
        }
      ],
      "name": "TokenDeployed",
      "type": "event"
    },
    {
      "anonymous": false,
      "inputs": [
        {
          "indexed": false,
          "internalType": "address",
          "name": "account",
          "type": "address"
        }
      ],
      "name": "Unpaused",
      "type": "event"
    },
    {
      "inputs": [
        {
          "internalType": "uint256",
          "name": "",
          "type": "uint256"
        }
      ],
      "name": "allDeployedTokens",
      "outputs": [
        {
          "internalType": "address",
          "name": "",
          "type": "address"
        }
      ],
      "stateMutability": "view",
      "type": "function"
    },
    {
      "inputs": [
        {
          "internalType": "string",
          "name": "name",
          "type": "string"
        },
        {
          "internalType": "string",
          "name": "symbol",
          "type": "string"
        },
        {
          "internalType": "uint8",
          "name": "decimals",
          "type": "uint8"
        },
        {
          "internalType": "uint256",
          "name": "initialSupply",
          "type": "uint256"
        },
        {
          "components": [
            {
              "internalType": "string",
              "name": "logo",
              "type": "string"
            },
            {
              "internalType": "string",
              "name": "website",
              "type": "string"
            },
            {
              "internalType": "string",
              "name": "description",
              "type": "string"
            },
            {
              "internalType": "string",
              "name": "twitter",
              "type": "string"
            },
            {
              "internalType": "string",
              "name": "telegram",
              "type": "string"
            },
            {
              "internalType": "string",
              "name": "discord",
              "type": "string"
            },
            {
              "internalType": "string",
              "name": "github",
              "type": "string"
            },
            {
              "internalType": "string",
              "name": "medium",
              "type": "string"
            },
            {
              "internalType": "string",
              "name": "reddit",
              "type": "string"
            }
          ],
          "internalType": "struct TokenStructs.TokenMetadata",
          "name": "meta",
          "type": "tuple"
        },
        {
          "components": [
            {
              "internalType": "bool",
              "name": "enableBlacklist",
              "type": "bool"
            },
            {
              "internalType": "bool",
              "name": "enableAntiBot",
              "type": "bool"
            },
            {
              "internalType": "bool",
              "name": "enableAntiWhale",
              "type": "bool"
            },
            {
              "internalType": "bool",
              "name": "enablePause",
              "type": "bool"
            },
            {
              "internalType": "bool",
              "name": "enableTimelock",
              "type": "bool"
            },
            {
              "internalType": "uint256",
              "name": "maxTxAmount",
              "type": "uint256"
            },
            {
              "internalType": "uint256",
              "name": "maxWalletAmount",
              "type": "uint256"
            },
            {
              "internalType": "uint256",
              "name": "cooldownPeriod",
              "type": "uint256"
            },
            {
              "internalType": "uint256",
              "name": "timelockDelay",
              "type": "uint256"
            }
          ],
          "internalType": "struct TokenStructs.TokenConfig",
          "name": "config",
          "type": "tuple"
        },
        {
          "internalType": "bool",
          "name": "renounceMint",
          "type": "bool"
        },
        {
          "internalType": "address",
          "name": "freezingAuthority",
          "type": "address"
        }
      ],
      "name": "deployToken",
      "outputs": [],
      "stateMutability": "payable",
      "type": "function"
    },
    {
      "inputs": [
        {
          "internalType": "string",
          "name": "name",
          "type": "string"
        },
        {
          "internalType": "string",
          "name": "symbol",
          "type": "string"
        },
        {
          "internalType": "uint8",
          "name": "decimals",
          "type": "uint8"
        },
        {
          "internalType": "uint256",
          "name": "initialSupply",
          "type": "uint256"
        },
        {
          "components": [
            {
              "internalType": "string",
              "name": "logo",
              "type": "string"
            },
            {
              "internalType": "string",
              "name": "website",
              "type": "string"
            },
            {
              "internalType": "string",
              "name": "description",
              "type": "string"
            },
            {
              "internalType": "string",
              "name": "twitter",
              "type": "string"
            },
            {
              "internalType": "string",
              "name": "telegram",
              "type": "string"
            },
            {
              "internalType": "string",
              "name": "discord",
              "type": "string"
            },
            {
              "internalType": "string",
              "name": "github",
              "type": "string"
            },
            {
              "internalType": "string",
              "name": "medium",
              "type": "string"
            },
            {
              "internalType": "string",
              "name": "reddit",
              "type": "string"
            }
          ],
          "internalType": "struct TokenStructs.TokenMetadata",
          "name": "meta",
          "type": "tuple"
        },
        {
          "internalType": "enum TokenFactory.Plan",
          "name": "plan",
          "type": "uint8"
        },
        {
          "internalType": "bool",
          "name": "renounceMint",
          "type": "bool"
        }
      ],
      "name": "deployTokenWithPlan",
      "outputs": [],
      "stateMutability": "payable",
      "type": "function"
    },
    {
      "inputs": [
        {
          "internalType": "address",
          "name": "",
          "type": "address"
        }
      ],
      "name": "deployedTokens",
      "outputs": [
        {
          "internalType": "bool",
          "name": "",
          "type": "bool"
        }
      ],
      "stateMutability": "view",
      "type": "function"
    },
    {
      "inputs": [
        {
          "components": [
            {
              "internalType": "bool",
              "name": "enableBlacklist",
              "type": "bool"
            },
            {
              "internalType": "bool",
              "name": "enableAntiBot",
              "type": "bool"
            },
            {
              "internalType": "bool",
              "name": "enableAntiWhale",
              "type": "bool"
            },
            {
              "internalType": "bool",
              "name": "enablePause",
              "type": "bool"
            },
            {
              "internalType": "bool",
              "name": "enableTimelock",
              "type": "bool"
            },
            {
              "internalType": "uint256",
              "name": "maxTxAmount",
              "type": "uint256"
            },
            {
              "internalType": "uint256",
              "name": "maxWalletAmount",
              "type": "uint256"
            },
            {
              "internalType": "uint256",
              "name": "cooldownPeriod",
              "type": "uint256"
            },
            {
              "internalType": "uint256",
              "name": "timelockDelay",
              "type": "uint256"
            }
          ],
          "internalType": "struct TokenStructs.TokenConfig",
          "name": "config",
          "type": "tuple"
        }
      ],
      "name": "determinePlan",
      "outputs": [
        {
          "internalType": "enum TokenFactory.Plan",
          "name": "plan",
          "type": "uint8"
        }
      ],
      "stateMutability": "pure",
      "type": "function"
    },
    {
      "inputs": [
        {
          "internalType": "address",
          "name": "tokenAddress",
          "type": "address"
        },
        {
          "internalType": "address",
          "name": "to",
          "type": "address"
        },
        {
          "internalType": "uint256",
          "name": "amount",
          "type": "uint256"
        }
      ],
      "name": "emergencyRecover",
      "outputs": [],
      "stateMutability": "nonpayable",
      "type": "function"
    },
    {
      "inputs": [
        {
          "internalType": "address",
          "name": "to",
          "type": "address"
        },
        {
          "internalType": "uint256",
          "name": "amount",
          "type": "uint256"
        }
      ],
      "name": "emergencyRecoverETH",
      "outputs": [],
      "stateMutability": "nonpayable",
      "type": "function"
    },
    {
      "inputs": [],
      "name": "getAllDeployedTokens",
      "outputs": [
        {
          "internalType": "address[]",
          "name": "",
          "type": "address[]"
        }
      ],
      "stateMutability": "view",
      "type": "function"
    },
    {
      "inputs": [],
      "name": "getDeployedTokensCount",
      "outputs": [
        {
          "internalType": "uint256",
          "name": "",
          "type": "uint256"
        }
      ],
      "stateMutability": "view",
      "type": "function"
    },
    {
      "inputs": [],
      "name": "getFactoryStats",
      "outputs": [
        {
          "internalType": "uint256",
          "name": "_totalTokensDeployed",
          "type": "uint256"
        },
        {
          "internalType": "uint256",
          "name": "_totalServiceFeesCollected",
          "type": "uint256"
        },
        {
          "internalType": "uint256",
          "name": "_deployedTokensCount",
          "type": "uint256"
        },
        {
          "internalType": "uint256",
          "name": "_chainId",
          "type": "uint256"
        },
        {
          "internalType": "address",
          "name": "_platformWallet",
          "type": "address"
        },
        {
          "internalType": "address",
          "name": "_implementation",
          "type": "address"
        }
      ],
      "stateMutability": "view",
      "type": "function"
    },
    {
      "inputs": [
        {
          "internalType": "uint256",
          "name": "chainId",
          "type": "uint256"
        },
        {
          "internalType": "enum TokenFactory.Plan",
          "name": "plan",
          "type": "uint8"
        }
      ],
      "name": "getServiceFee",
      "outputs": [
        {
          "internalType": "uint256",
          "name": "",
          "type": "uint256"
        }
      ],
      "stateMutability": "view",
      "type": "function"
    },
    {
      "inputs": [
        {
          "internalType": "address",
          "name": "tokenAddress",
          "type": "address"
        }
      ],
      "name": "getTokenMetadata",
      "outputs": [
        {
          "components": [
            {
              "internalType": "string",
              "name": "logo",
              "type": "string"
            },
            {
              "internalType": "string",
              "name": "website",
              "type": "string"
            },
            {
              "internalType": "string",
              "name": "description",
              "type": "string"
            },
            {
              "internalType": "string",
              "name": "twitter",
              "type": "string"
            },
            {
              "internalType": "string",
              "name": "telegram",
              "type": "string"
            },
            {
              "internalType": "string",
              "name": "discord",
              "type": "string"
            },
            {
              "internalType": "string",
              "name": "github",
              "type": "string"
            },
            {
              "internalType": "string",
              "name": "medium",
              "type": "string"
            },
            {
              "internalType": "string",
              "name": "reddit",
              "type": "string"
            }
          ],
          "internalType": "struct TokenStructs.TokenMetadata",
          "name": "",
          "type": "tuple"
        }
      ],
      "stateMutability": "view",
      "type": "function"
    },
    {
      "inputs": [
        {
          "internalType": "address",
          "name": "owner",
          "type": "address"
        }
      ],
      "name": "getTokensByOwner",
      "outputs": [
        {
          "internalType": "address[]",
          "name": "",
          "type": "address[]"
        }
      ],
      "stateMutability": "view",
      "type": "function"
    },
    {
      "inputs": [],
      "name": "implementation",
      "outputs": [
        {
          "internalType": "address",
          "name": "",
          "type": "address"
        }
      ],
      "stateMutability": "view",
      "type": "function"
    },
    {
      "inputs": [
        {
          "internalType": "address",
          "name": "tokenAddress",
          "type": "address"
        }
      ],
      "name": "isDeployedToken",
      "outputs": [
        {
          "internalType": "bool",
          "name": "",
          "type": "bool"
        }
      ],
      "stateMutability": "view",
      "type": "function"
    },
    {
      "inputs": [
        {
          "internalType": "uint256",
          "name": "",
          "type": "uint256"
        },
        {
          "internalType": "enum TokenFactory.Plan",
          "name": "",
          "type": "uint8"
        }
      ],
      "name": "networkServiceFees",
      "outputs": [
        {
          "internalType": "uint256",
          "name": "",
          "type": "uint256"
        }
      ],
      "stateMutability": "view",
      "type": "function"
    },
    {
      "inputs": [],
      "name": "owner",
      "outputs": [
        {
          "internalType": "address",
          "name": "",
          "type": "address"
        }
      ],
      "stateMutability": "view",
      "type": "function"
    },
    {
      "inputs": [],
      "name": "pause",
      "outputs": [],
      "stateMutability": "nonpayable",
      "type": "function"
    },
    {
      "inputs": [],
      "name": "paused",
      "outputs": [
        {
          "internalType": "bool",
          "name": "",
          "type": "bool"
        }
      ],
      "stateMutability": "view",
      "type": "function"
    },
    {
      "inputs": [],
      "name": "platformWallet",
      "outputs": [
        {
          "internalType": "address",
          "name": "",
          "type": "address"
        }
      ],
      "stateMutability": "view",
      "type": "function"
    },
    {
      "inputs": [],
      "name": "renounceOwnership",
      "outputs": [],
      "stateMutability": "nonpayable",
      "type": "function"
    },
    {
      "inputs": [
        {
          "internalType": "address",
          "name": "",
          "type": "address"
        }
      ],
      "name": "tokenMetadata",
      "outputs": [
        {
          "internalType": "string",
          "name": "logo",
          "type": "string"
        },
        {
          "internalType": "string",
          "name": "website",
          "type": "string"
        },
        {
          "internalType": "string",
          "name": "description",
          "type": "string"
        },
        {
          "internalType": "string",
          "name": "twitter",
          "type": "string"
        },
        {
          "internalType": "string",
          "name": "telegram",
          "type": "string"
        },
        {
          "internalType": "string",
          "name": "discord",
          "type": "string"
        },
        {
          "internalType": "string",
          "name": "github",
          "type": "string"
        },
        {
          "internalType": "string",
          "name": "medium",
          "type": "string"
        },
        {
          "internalType": "string",
          "name": "reddit",
          "type": "string"
        }
      ],
      "stateMutability": "view",
      "type": "function"
    },
    {
      "inputs": [
        {
          "internalType": "address",
          "name": "",
          "type": "address"
        }
      ],
      "name": "tokenOwners",
      "outputs": [
        {
          "internalType": "address",
          "name": "",
          "type": "address"
        }
      ],
      "stateMutability": "view",
      "type": "function"
    },
    {
      "inputs": [],
      "name": "totalServiceFeesCollected",
      "outputs": [
        {
          "internalType": "uint256",
          "name": "",
          "type": "uint256"
        }
      ],
      "stateMutability": "view",
      "type": "function"
    },
    {
      "inputs": [],
      "name": "totalTokensDeployed",
      "outputs": [
        {
          "internalType": "uint256",
          "name": "",
          "type": "uint256"
        }
      ],
      "stateMutability": "view",
      "type": "function"
    },
    {
      "inputs": [
        {
          "internalType": "address",
          "name": "newOwner",
          "type": "address"
        }
      ],
      "name": "transferOwnership",
      "outputs": [],
      "stateMutability": "nonpayable",
      "type": "function"
    },
    {
      "inputs": [],
      "name": "unpause",
      "outputs": [],
      "stateMutability": "nonpayable",
      "type": "function"
    },
    {
      "inputs": [
        {
          "internalType": "address",
          "name": "newImplementation",
          "type": "address"
        }
      ],
      "name": "updateImplementation",
      "outputs": [],
      "stateMutability": "nonpayable",
      "type": "function"
    },
    {
      "inputs": [
        {
          "internalType": "uint256",
          "name": "chainId",
          "type": "uint256"
        },
        {
          "internalType": "enum TokenFactory.Plan",
          "name": "plan",
          "type": "uint8"
        },
        {
          "internalType": "uint256",
          "name": "newFee",
          "type": "uint256"
        }
      ],
      "name": "updateServiceFee",
      "outputs": [],
      "stateMutability": "nonpayable",
      "type": "function"
    }
  ],
  "bytecode": "0x60a0604052346200004f576200001f6200001862000103565b9062000267565b6040516137c162000a038239608051818181611237015281816122950152818161237d0152612dc901526137c190f35b600080fd5b634e487b7160e01b600052604160045260246000fd5b90601f01601f191681019081106001600160401b038211176200008c57604052565b62000054565b90620000a9620000a160405190565b92836200006a565b565b6001600160a01b031690565b90565b6001600160a01b038116036200004f57565b90505190620000a982620000ba565b91906040838203126200004f57620000b790620000f98185620000cc565b93602001620000cc565b62000126620041c4803803806200011a8162000092565b928339810190620000db565b9091565b620000ab620000b7620000b79290565b620000b7906200012a565b156200014d57565b60405162461bcd60e51b815260206004820152602560248201527f546f6b656e466163746f72793a20496e76616c696420706c6174666f726d2077604482015264185b1b195d60da1b6064820152608490fd5b0390fd5b15620001ac57565b60405162461bcd60e51b815260206004820152602c60248201527f546f6b656e466163746f72793a20496e76616c696420696d706c656d656e746160448201526b74696f6e206164647265737360a01b6064820152608490fd5b906001600160a01b03905b9181191691161790565b620000b790620000ab906001600160a01b031682565b620000b7906200021b565b620000b79062000231565b906200025b620000b762000263926200023c565b825462000206565b9055565b90620002c9916200027833620002d3565b620002be620002ac6200028c60006200013a565b620000ab6001600160a01b0382166001600160a01b038616141562000145565b6001600160a01b0384161415620001a4565b608052600462000247565b620000a962000484565b620000a99062000321565b620000b7620000b7620000b79290565b620000b76001620002de565b906000199062000211565b9062000319620000b76200026392620002de565b8254620002fa565b6200032c9062000342565b620000a96200033a620002ee565b600162000305565b6200034e60006200013a565b6001600160a01b0381166001600160a01b03831614620003745750620000a990620003be565b620001a0906200038360405190565b631e4fbdf760e01b8152918291600483016001600160a01b03909116815260200190565b620000b790620000ab565b620000b79054620003a7565b620003ca6000620003b2565b90620003d881600062000247565b6200040f620004087f8be0079c531659141344cd1fd0a4f28419497f9722a3daafe3b4186f6b6457e0936200023c565b916200023c565b916200041a60405190565b600090a3565b906200042c90620002de565b600052602052604060002090565b634e487b7160e01b600052602160045260246000fd5b600311156200045b57565b6200043a565b90620000a98262000450565b620000b79062000461565b906200042c906200046d565b6200049666b1a2bc2ec50000620002de565b6001906003620004a7838262000420565b8260009182620004b79162000478565b90620004c39162000305565b620004d6670214e8348c4f0000620002de565b928385620004e5818662000420565b90620004f19162000478565b90620004fd9162000305565b62000510670429d069189e0000620002de565b9384916200051f878662000420565b916002966200053088809562000478565b906200053c9162000305565b6200055068015af1d78b58c40000620002de565b6089908662000560838a62000420565b906200056c9162000478565b90620005789162000305565b6200058c680410d586a20a4c0000620002de565b8962000599838a62000420565b90620005a59162000478565b90620005b19162000305565b83620005c6680821ab0d4414980000620002de565b91620005d3908962000420565b90620005df9162000478565b90620005eb9162000305565b60389185620005fb848962000420565b90620006079162000478565b90620006139162000305565b8762000620838862000420565b906200062c9162000478565b90620006389162000305565b62000644908562000420565b90620006509162000478565b906200065c9162000305565b6200066e662386f26fc10000620002de565b61a4b194818362000680888762000420565b906200068c9162000478565b90620006989162000305565b84620006ab666a94d74f430000620002de565b968783620006ba838962000420565b90620006c69162000478565b90620006d29162000305565b620006e466d529ae9e860000620002de565b91620006f283928862000420565b90620006fe9162000478565b906200070a9162000305565b856200071d66354a6ba7a18000620002de565b93600a85876200072e838b62000420565b906200073a9162000478565b90620007469162000305565b62000758669fdf42f6e48000620002de565b8562000765838b62000420565b90620007719162000478565b906200077d9162000305565b826200079167013fbe85edc90000620002de565b916200079e908a62000420565b90620007aa9162000478565b90620007b69162000305565b6121059086620007c7838a62000420565b90620007d39162000478565b90620007df9162000305565b8884620007ed838a62000420565b90620007f99162000478565b90620008059162000305565b62000811908762000420565b906200081d9162000478565b90620008299162000305565b6200083b66038d7ea4c68000620002de565b62aa36a790846200084d838862000420565b90620008599162000478565b90620008659162000305565b62000877660aa87bee538000620002de565b8262000884838862000420565b90620008909162000478565b906200089c9162000305565b85620008af661550f7dca70000620002de565b91620008bc908762000420565b90620008c89162000478565b90620008d49162000305565b620008e7671bc16d674ec80000620002de565b620138819084620008f9838862000420565b90620009059162000478565b90620009119162000305565b620009246753444835ec580000620002de565b8262000931838862000420565b906200093d9162000478565b90620009499162000305565b856200095d67a688906bd8b00000620002de565b916200096a908762000420565b90620009769162000478565b90620009829162000305565b620009946611c37937e08000620002de565b606193620009a3858762000420565b90620009af9162000478565b90620009bb9162000305565b620009c7838562000420565b90620009d39162000478565b90620009df9162000305565b620009ea9162000420565b90620009f69162000478565b90620000a9916200030556fe6080604052600436101561001257600080fd5b60003560e01c8063025b22bc146101e257806307fe2adf146101dd57806312bc8db1146101d857806325f1be1f146101d35780632a871ea9146101ce5780633d5394b1146101c95780633f4ba83a146101c457806340398d67146101bf5780634c1c7ddf146101ba5780635c60da1b146101b55780635c975abb146101b057806364fec30a146101ab5780636b5e8946146101a65780636fecdf24146101a1578063706c77291461019c578063715018a61461019757806371d277e714610192578063822f694b1461018d5780638456cb59146101885780638be38013146101835780638da5cb5b1461017e57806393d0aead146101795780639e03c65314610174578063ad1329d11461016f578063ad79e94b1461016a578063c00f14ab14610165578063c922644514610160578063f2fde38b1461015b5763fa2af9da0361022257611222565b61120a565b6111d6565b611139565b611047565b611017565b610fd4565b610f79565b610f2d565b610f12565b610eee565b610ed3565b610eba565b610e7f565b610e64565b610d98565b610a82565b6109e9565b61092f565b6108ec565b610887565b610860565b6107cb565b6107b2565b610766565b610710565b6106f3565b61029c565b61024a565b73ffffffffffffffffffffffffffffffffffffffff1690565b90565b73ffffffffffffffffffffffffffffffffffffffff81165b0361022257565b600080fd5b9050359061023482610203565b565b906020828203126102225761020091610227565b346102225761026261025d366004610236565b613095565b604051005b0390f35b600091031261022257565b610200916008021c81565b906102009154610276565b61020060006009610281565b9052565b34610222576102ac36600461026b565b6102676102b761028c565b6040519182918290815260200190565b7f4e487b7100000000000000000000000000000000000000000000000000000000600052604160045260246000fd5b90601f017fffffffffffffffffffffffffffffffffffffffffffffffffffffffffffffffe016810190811067ffffffffffffffff82111761033657604052565b6102c7565b9061023461034860405190565b92836102f6565b67ffffffffffffffff811161033657602090601f017fffffffffffffffffffffffffffffffffffffffffffffffffffffffffffffffe0160190565b0190565b90826000939282370152565b909291926103af6103aa8261034f565b61033b565b93818552602085019082840111610222576102349261038e565b9080601f83011215610222578160206102009335910161039a565b60ff811661021b565b90503590610234826103e4565b8061021b565b90503590610234826103fa565b919091610120818403126102225761042661012061033b565b92813567ffffffffffffffff811161022257816104449184016103c9565b8452602082013567ffffffffffffffff811161022257816104669184016103c9565b6020850152604082013567ffffffffffffffff8111610222578161048b9184016103c9565b6040850152606082013567ffffffffffffffff811161022257816104b09184016103c9565b6060850152608082013567ffffffffffffffff811161022257816104d59184016103c9565b608085015260a082013567ffffffffffffffff811161022257816104fa9184016103c9565b60a085015260c082013567ffffffffffffffff8111610222578161051f9184016103c9565b60c085015260e082013567ffffffffffffffff811161022257816105449184016103c9565b60e085015261010082013567ffffffffffffffff81116102225761056892016103c9565b610100830152565b80151561021b565b9050359061023482610570565b919091610120818403126102225761063b6105a161012061033b565b9360006105ae8285610578565b9086015260206105c082828601610578565b9086015260406105d282828601610578565b9086015260606105e482828601610578565b9086015260806105f682828601610578565b9086015260a061060882828601610400565b9086015260c061061a82828601610400565b9086015260e061062c82828601610400565b90860152610100809301610400565b90830152565b91906102008382031261022257823567ffffffffffffffff8111610222578161066b9185016103c9565b92602081013567ffffffffffffffff8111610222578261068c9183016103c9565b9261069a83604084016103ed565b926106a88160608501610400565b92608081013567ffffffffffffffff811161022257826106c991830161040d565b926102006106da8460a08501610585565b936106e9816101c08601610578565b936101e001610227565b610262610701366004610641565b9695909594919493929361249c565b346102225761072036600461026b565b6102676102b760065490565b6003111561022257565b905035906102348261072c565b9190604083820312610222576102009061075d8185610400565b93602001610736565b34610222576102676102b761077c366004610743565b90611595565b90916060828403126102225761020061079b8484610400565b936107a98160208601610736565b93604001610400565b34610222576102626107c5366004610782565b91612f61565b34610222576107db36600461026b565b610262613183565b906108036107fc6107f2845190565b8084529260200190565b9260200190565b9060005b8181106108145750505090565b909192610847610840600192865173ffffffffffffffffffffffffffffffffffffffff16815260200190565b9460200190565b929101610807565b6020808252610200929101906107e3565b346102225761026761087b610876366004610236565b612cd1565b6040519182918261084f565b34610222576102676108a261089d366004610236565b612a7a565b60405191829182901515815260200190565b610200916008021c73ffffffffffffffffffffffffffffffffffffffff1690565b9061020091546108b4565b610200600060046108d5565b34610222576108fc36600461026b565b6102676109076108e0565b6040515b9182918273ffffffffffffffffffffffffffffffffffffffff909116815260200190565b346102225761093f36600461026b565b6102676108a26114a2565b60e08183031261022257803567ffffffffffffffff811161022257826109719183016103c9565b92602082013567ffffffffffffffff811161022257836109929184016103c9565b926109a081604085016103ed565b926109ae8260608301610400565b92608082013567ffffffffffffffff8111610222576109d28461020092850161040d565b936109e08160a08601610736565b9360c001610578565b6102626109f736600461094a565b959490949391936129c6565b90610120828203126102225761020091610585565b7f4e487b7100000000000000000000000000000000000000000000000000000000600052602160045260246000fd5b60031115610a5157565b610a18565b9061023482610a47565b61020090610a56565b61029890610a60565b6020810192916102349190610a69565b3461022257610267610a9d610a98366004610a03565b6114ac565b60405191829182610a72565b6101e76102006102009273ffffffffffffffffffffffffffffffffffffffff1690565b61020090610aa9565b61020090610acc565b90610ae890610ad5565b600052602052604060002090565b7f4e487b7100000000000000000000000000000000000000000000000000000000600052602260045260246000fd5b9060016002830492168015610b45575b6020831014610b4057565b610af6565b91607f1691610b35565b80546000939291610b6c610b6283610b25565b8085529360200190565b9160018116908115610bbe5750600114610b8557505050565b610b989192939450600052602060002090565b916000925b818410610baa5750500190565b805484840152602090930192600101610b9d565b92949550505060ff1916825215156020020190565b9061020091610b4f565b90610234610bf792610bee60405190565b93848092610bd3565b03836102f6565b610c09906007610ade565b610c1281610bdd565b91610c1f60018301610bdd565b91610c2c60028201610bdd565b91610c3960038301610bdd565b91610c4660048201610bdd565b91610c5360058301610bdd565b91610c6060068201610bdd565b916102006008610c7260078501610bdd565b9301610bdd565b60005b838110610c8c5750506000910152565b8181015183820152602001610c7c565b610cbd610cc660209361038a93610cb1815190565b80835293849260200190565b95869101610c79565b601f017fffffffffffffffffffffffffffffffffffffffffffffffffffffffffffffffe01690565b9794610d5f90610d51610d7b96610d438c6102009e9c98610d35610d6d99610d27610d899f9a6101208601908682036000880152610c9c565b908482036020860152610c9c565b916040818403910152610c9c565b8c810360608e015290610c9c565b908a820360808c0152610c9c565b9088820360a08a0152610c9c565b9086820360c0880152610c9c565b9084820360e0860152610c9c565b91610100818403910152610c9c565b3461022257610267610db3610dae366004610236565b610bfe565b95610dc699979995919594929460405190565b998a998a610cee565b906020828203126102225761020091610400565b7f4e487b7100000000000000000000000000000000000000000000000000000000600052603260045260246000fd5b8054821015610e3557610e2c600191600052602060002090565b91020190600090565b610de3565b60066000610e46825490565b831015610e61575061020091610e5b91610e12565b906108d5565b80fd5b3461022257610267610907610e7a366004610dcf565b610e3a565b3461022257610e8f36600461026b565b6102626112b0565b91906040838203126102225761020090610eb18185610227565b93602001610400565b3461022257610262610ecd366004610e97565b90613781565b3461022257610ee336600461026b565b61026761087b612a70565b3461022257610efe36600461026b565b6102626130eb565b6102006000600a610281565b3461022257610f2236600461026b565b6102676102b7610f06565b3461022257610f3d36600461026b565b61026761090761126e565b610200916008021c5b60ff1690565b906102009154610f48565b61020090610f74600591600092610ade565b610f57565b34610222576102676108a2610f8f366004610236565b610f62565b6102006102006102009290565b90610ae890610f94565b90610ae890610a60565b610fcf61020092610fca600393600094610fa1565b610fab565b610281565b34610222576102676102b7610fea366004610743565b90610fb5565b9091606082840312610222576102006110098484610227565b936107a98160208601610227565b346102225761026261102a366004610ff0565b9161345a565b61020090611042600891600092610ade565b6108d5565b346102225761026761090761105d366004610236565b611030565b610200916101006111166111046110f26110e06110ce6110bc6110aa6110986101208a0160008c01518b820360008d0152610c9c565b60208b01518a820360208c0152610c9c565b60408a015189820360408b0152610c9c565b606089015188820360608a0152610c9c565b60808801518782036080890152610c9c565b60a087015186820360a0880152610c9c565b60c086015185820360c0870152610c9c565b60e085015184820360e0860152610c9c565b92015190610100818403910152610c9c565b602080825261020092910190611062565b346102225761026761115461114f366004610236565b612c1a565b60405191829182611128565b919461119d6111ba9298979561119660a09661118f6102349a61118860c08a019e60008b0152565b6020890152565b6040870152565b6060850152565b73ffffffffffffffffffffffffffffffffffffffff166080830152565b019073ffffffffffffffffffffffffffffffffffffffff169052565b34610222576111e636600461026b565b6102676111f1612da5565b9261120196949692919260405190565b96879687611160565b346102225761026261121d366004610236565b6113ee565b346102225761123236600461026b565b6102677f0000000000000000000000000000000000000000000000000000000000000000610907565b610200906101e7565b610200905461125b565b6102006000611264565b6112806112b8565b61023461129e565b6101e76102006102009290565b61020090611288565b6102346112ab6000611295565b611434565b610234611278565b6112c061126e565b33906112e1825b9173ffffffffffffffffffffffffffffffffffffffff1690565b036112e95750565b611340906112f660405190565b9182917f118cdaa70000000000000000000000000000000000000000000000000000000083526004830173ffffffffffffffffffffffffffffffffffffffff909116815260200190565b0390fd5b610234906113506112b8565b61135a6000611295565b73ffffffffffffffffffffffffffffffffffffffff811673ffffffffffffffffffffffffffffffffffffffff831614611397575061023490611434565b611340906113a460405190565b9182917f1e4fbdf70000000000000000000000000000000000000000000000000000000083526004830173ffffffffffffffffffffffffffffffffffffffff909116815260200190565b61023490611344565b9073ffffffffffffffffffffffffffffffffffffffff905b9181191691161790565b9061142961020061143092610ad5565b82546113f7565b9055565b61143e6000611264565b9061144a816000611419565b61147d6114777f8be0079c531659141344cd1fd0a4f28419497f9722a3daafe3b4186f6b6457e093610ad5565b91610ad5565b9161148760405190565b80805b0390a3565b61020090610f51565b610200905461148f565b6102006002611498565b604081015115158015611577575b801561156a575b8015611551575b156114d35750600290565b80511515908115611530575b811561151b575b81156114fd575b50156114f857600190565b600090565b60e0015190506115146115106000610f94565b9190565b11386114ed565b905061152a6020820151151590565b906114e6565b905061153d60a082015190565b61154a6115106000610f94565b11906114df565b5060c08101516115646115106000610f94565b116114c8565b50608081015115156114c1565b50606081015115156114ba565b6102009081565b6102009054611584565b906115ae6115a982610fca60039586610fa1565b61158b565b91826115bd6115106000610f94565b146115c757505090565b610200925090610fca6115a992600190610fa1565b906115f4979695949392916115ef6125fe565b6115fc565b610234612657565b906102349796959493929161160f6125bb565b6121a9565b1561161b57565b6040517f08c379a000000000000000000000000000000000000000000000000000000000815260206004820152602260248201527f546f6b656e466163746f72793a204e616d652063616e6e6f7420626520656d7060448201527f74790000000000000000000000000000000000000000000000000000000000006064820152608490fd5b156116a757565b6040517f08c379a0000000000000000000000000000000000000000000000000000000008152602060048201526024808201527f546f6b656e466163746f72793a2053796d626f6c2063616e6e6f74206265206560448201527f6d707479000000000000000000000000000000000000000000000000000000006064820152608490fd5b610f516102006102009290565b1561173f57565b6040517f08c379a000000000000000000000000000000000000000000000000000000000815260206004820152602760248201527f546f6b656e466163746f72793a20446563696d616c732063616e6e6f7420657860448201527f63656564203138000000000000000000000000000000000000000000000000006064820152608490fd5b156117cb57565b6040517f08c379a000000000000000000000000000000000000000000000000000000000815260206004820152603360248201527f546f6b656e466163746f72793a20496e697469616c20737570706c79206d757360448201527f742062652067726561746572207468616e2030000000000000000000000000006064820152608490fd5b1561185757565b6040517f08c379a000000000000000000000000000000000000000000000000000000000815260206004820152603f60248201527f546f6b656e466163746f72793a204d6178207472616e73616374696f6e20616d60448201527f6f756e742063616e6e6f742065786365656420746f74616c20737570706c79006064820152608490fd5b156118e357565b6040517f08c379a000000000000000000000000000000000000000000000000000000000815260206004820152603a60248201527f546f6b656e466163746f72793a204d61782077616c6c657420616d6f756e742060448201527f63616e6e6f742065786365656420746f74616c20737570706c790000000000006064820152608490fd5b1561196f57565b6040517f08c379a000000000000000000000000000000000000000000000000000000000815260206004820152603260248201527f546f6b656e466163746f72793a20436f6f6c646f776e20706572696f6420636160448201527f6e6e6f7420657863656564203120686f757200000000000000000000000000006064820152608490fd5b156119fb57565b6040517f08c379a000000000000000000000000000000000000000000000000000000000815260206004820152603160248201527f546f6b656e466163746f72793a2054696d656c6f636b2064656c61792063616e60448201527f6e6f7420657863656564203720646179730000000000000000000000000000006064820152608490fd5b15611a8757565b6040517f08c379a000000000000000000000000000000000000000000000000000000000815260206004820152602e60248201527f546f6b656e466163746f72793a205365727669636520666565206d757374206260448201527f6520657861637420616d6f756e740000000000000000000000000000000000006064820152608490fd5b90611b196103aa8361034f565b918252565b3d15611b3857611b2d3d611b0c565b903d6000602084013e565b606090565b15611b4457565b6040517f08c379a000000000000000000000000000000000000000000000000000000000815260206004820152602b60248201527f546f6b656e466163746f72793a204661696c656420746f20666f72776172642060448201527f73657276696365206665650000000000000000000000000000000000000000006064820152608490fd5b8051151582526102349190610100908190602081810151151590850152604081810151151590850152606081810151151590850152608081810151151590850152611c1960a082015160a0860152565b611c2860c082015160c0860152565b611c3760e082015160e0860152565b0151910152565b97611cc2611cb86111ba999f9e9c96956102349e99611cab611cf29a6102609f988f6111ba611cea9c611ca4611c98608095611c8a611ccc9f61028088019088820360008a0152610c9c565b908682036020880152610c9c565b60ff9099166040850152565b6060830152565b8c820360a08e0152611062565b9e151560c08b0152565b60e0890190611bc9565b73ffffffffffffffffffffffffffffffffffffffff16610200870152565b610220850152565b610240830152565b15611d0157565b6040517f08c379a000000000000000000000000000000000000000000000000000000000815260206004820152602360248201527f546f6b656e466163746f72793a20496e697469616c697a6174696f6e2066616960448201527f6c656400000000000000000000000000000000000000000000000000000000006064820152608490fd5b9060ff9061140f565b90611d9f61020061143092151590565b8254611d86565b9190600861140f910291611dcd73ffffffffffffffffffffffffffffffffffffffff841b90565b921b90565b9190611de361020061143093610ad5565b908354611da6565b90815491680100000000000000008310156103365782611e1391600161023495018155610e12565b90611dd2565b9190600861140f910291611dcd7fffffffffffffffffffffffffffffffffffffffffffffffffffffffffffffffff841b90565b9190611e5d61020061143093610f94565b908354611e19565b61023491600091611e4c565b818110611e7c575050565b80611e8a6000600193611e65565b01611e71565b9190601f8111611e9f57505050565b611eb161023493600052602060002090565b906020601f840181900483019310611ed3575b6020601f909101040190611e71565b9091508190611ec4565b90611ee6815190565b9067ffffffffffffffff821161033657611f0a82611f048554610b25565b85611e90565b602090601f8311600114611f6357611430929160009183611f58575b50507fffffffffffffffffffffffffffffffffffffffffffffffffffffffffffffffff600883021c1916906002021790565b015190503880611f26565b601f19831691611f7885600052602060002090565b9260005b818110611fd457509160029391856001969410611f9d575b50505002019055565b01517fffffffffffffffffffffffffffffffffffffffffffffffffffffffffffffffff6008601f8516021c19169055388080611f94565b91936020600181928787015181550195019201611f7c565b9061023491611edd565b9061201561010060086102349461201b60008201612015600088015190565b90611fec565b61202d60018201612015602088015190565b61203f60028201612015604088015190565b61205160038201612015606088015190565b61206360048201612015608088015190565b6120756005820161201560a088015190565b6120876006820161201560c088015190565b6120996007820161201560e088015190565b0192015190565b9061023491611ff6565b7f4e487b7100000000000000000000000000000000000000000000000000000000600052601160045260246000fd5b7fffffffffffffffffffffffffffffffffffffffffffffffffffffffffffffffff81146121065760010190565b6120aa565b907fffffffffffffffffffffffffffffffffffffffffffffffffffffffffffffffff9061140f565b9061214361020061143092610f94565b825461210b565b9190820180921161210657565b919461219e60a094989795611196612193610234996121856121a59760c08a01908a820360008c0152610c9c565b9088820360208a0152610c9c565b9a6040870190610a69565b6080830152565b0152565b819381979592939896986121ba8390565b516121c56000610f94565b106121cf90611614565b84516121db6000610f94565b106121e5906116a0565b6121ef601261172b565b60ff821611156121fe90611738565b6122086000610f94565b8211612213906117c4565b60a08a015182101561222490611850565b60c08a0151821015612235906118dc565b60e08a0151612245610e10610f94565b101561225090611968565b6101008a015161226262093a80610f94565b101561226d906119f4565b6122768a6114ac565b966122818846611595565b9a8b9334612290818714611a80565b6040517f0000000000000000000000000000000000000000000000000000000000000000906000905a93600094938594f16122c9611b1e565b506122d390611b3d565b6122dd6004611264565b6122e6906124ac565b9a6122f16000611295565b73ffffffffffffffffffffffffffffffffffffffff1673ffffffffffffffffffffffffffffffffffffffff82161415600014986123c99760009788976123b1966123a2956123f99e61249457985b8d61234960405190565b9a8b99600460208c017f0af5807e0000000000000000000000000000000000000000000000000000000081520195339946997f000000000000000000000000000000000000000000000000000000000000000098611c3e565b602082018103825203826102f6565b805190602001828a5af16123c3611b1e565b50611cfa565b6123de60016123d9876005610ade565b611d8f565b6123e9856006611deb565b6123f4856007610ade565b6120a0565b61240e612407846008610ade565b3390611419565b61242a61242361241e600961158b565b6120d9565b6009612133565b6124476124408661243b600a61158b565b61214a565b600a612133565b61148a426124757f6f43298285dc392ab9fab6633b0d24ae274546495fb1ec45b11a59ab1fc97a3695610ad5565b9561247f33610ad5565b9761248960405190565b958695469387612157565b50339861233f565b90610234979695949392916115dc565b610200906124ba6000610f94565b906124d3565b9081526040810192916102349160200152565b6124dc30610ad5565b8281311061257d57506037916e5af43d82803e903d91602b57fd5bf382763d602d80600a3d3981f3363d3d373d3d3d363d7300000060099460601b60e81c1760005260781b17602052f0906125346101e76000611295565b73ffffffffffffffffffffffffffffffffffffffff83161461255257565b6040517fb06ebf3d000000000000000000000000000000000000000000000000000000008152600490fd5b90503161134061258c60405190565b9283927fcf479181000000000000000000000000000000000000000000000000000000008452600484016124c0565b6125c36114a2565b6125c957565b6040517fd93c0665000000000000000000000000000000000000000000000000000000008152600490fd5b6102006002610f94565b612608600161158b565b6126106125f4565b90811461262257610234906001612133565b6040517f3ee5aeb5000000000000000000000000000000000000000000000000000000008152600490fd5b6102006001610f94565b61023461266261264d565b6001612133565b906115f496959493929161267b6125fe565b9061023496959493929161268d6125bb565b61274e565b1561269957565b6040517f08c379a000000000000000000000000000000000000000000000000000000000815260206004820152601a60248201527f546f6b656e466163746f72793a20496e76616c696420706c616e0000000000006044820152606490fd5b61020061012061033b565b61270b6126f8565b9060008252602080808080808080808a0160008152016000815201600081520160008152016000815201600081520160008152016000905250565b610200612703565b9495939092909161275d865190565b61277560009161276f61151084610f94565b11611614565b612792612780865190565b61278c61151084610f94565b116116a0565b6127aa61279f601261172b565b60ff84161115611738565b6127bd6127b682610f94565b84116117c4565b6002976127dc6127cc8a610a56565b6127d583610a56565b1115612692565b6127e4612746565b906127ee83610a56565b6127f782610a56565b03612869575050610234975061286061283f6128116126f8565b831515818501819052602082018190526040820181905260608201819052608082015292610f94565b610f94565b61284a8160a0850152565b6128558160c0850152565b6105688160e0850152565b935b339661249c565b6001996128758b610a56565b61287e83610a56565b0361290857505050612902610234986105686128fb6128ef8561283a6128e869021e19e0c9bab24000006128cd601e986128c4816128ba6126f8565b9d8e019015159052565b151560208c0152565b83151560408b0181905260608b0181905260808b0152610f94565b60a0890152565b9261283a8460c0880152565b60e0850152565b93612862565b61291861291e919b93989b610a56565b91610a56565b1461292f575b505061023496612862565b9091945069010f0cf064dd59200000690a968163f0a57b400000603c9162015180938061295a6126f8565b96870190612969919015159052565b1515602086018190526040860181905260608601819052608086015261298e90610f94565b60a085015261299c90610f94565b60c08401526129aa90610f94565b60e08301526129b890610f94565b610100820152923880612924565b90610234969594939291612669565b906129f06129e46107f2845490565b92600052602060002090565b9060005b818110612a015750505090565b909192612a3b612a34600192612a1687611264565b73ffffffffffffffffffffffffffffffffffffffff16815260200190565b9460010190565b9291016129f4565b90610200916129d5565b90610234610bf792612a5e60405190565b93848092612a43565b61020090612a4d565b6102006006612a67565b612a9161020091612a89600090565b506005610ade565b611498565b612a9e6126f8565b9060608252602080808080808080808a0160608152016060815201606081520160608152016060815201606081520160608152016060905250565b610200612a96565b15612ae857565b6040517f08c379a000000000000000000000000000000000000000000000000000000000815260206004820152601d60248201527f546f6b656e466163746f72793a20546f6b656e206e6f7420666f756e640000006044820152606490fd5b90610234612c096008612b586126f8565b94612b69612b6582610bdd565b8752565b612b7f612b7860018301610bdd565b6020880152565b612b95612b8e60028301610bdd565b6040880152565b612bab612ba460038301610bdd565b6060880152565b612bc1612bba60048301610bdd565b6080880152565b612bd7612bd060058301610bdd565b60a0880152565b612bed612be660068301610bdd565b60c0880152565b612c03612bfc60078301610bdd565b60e0880152565b01610bdd565b610100840152565b61020090612b47565b612c4761020091612c29612ad9565b50612c40612c3b612a91836005610ade565b612ae1565b6007610ade565b612c11565b67ffffffffffffffff81116103365760208091020190565b90611b196103aa83612c4c565b369037565b90610234612c8c612c8684612c64565b93612c4c565b7fffffffffffffffffffffffffffffffffffffffffffffffffffffffffffffffe00160208401612c71565b90612cc0825190565b811015610e35576020809102010190565b90600691612ce5612ce0845490565b612c76565b612cef6000610f94565b91825b612cfd610200875490565b811015612d9c57612d24612d1f6008612d19610e5b858b610e12565b90610ade565b611264565b612d4373ffffffffffffffffffffffffffffffffffffffff84166112c7565b14612d57575b612d52906120d9565b612cf2565b92612d94612d529161241e612d6f610e5b888b610e12565b612d798388612cb7565b9073ffffffffffffffffffffffffffffffffffffffff169052565b939050612d49565b50509081529150565b612daf600961158b565b90612dba600a61158b565b91612dc460065490565b9146917f000000000000000000000000000000000000000000000000000000000000000091612df36004611264565b91959493929190565b906102349291612e0a6112b8565b612ec2565b15612e1657565b6040517f08c379a000000000000000000000000000000000000000000000000000000000815260206004820152602860248201527f546f6b656e466163746f72793a20466565206d7573742062652067726561746560448201527f72207468616e20300000000000000000000000000000000000000000000000006064820152608490fd5b6040906121a56102349496959396612ebb60608401986000850190610a69565b6020830152565b612ed8612ecf6002610a56565b6127d584610a56565b612eec612ee56000610f94565b8411612e0f565b6003612f1684612f1185610fca86612f0b6115a984610fca848b610fa1565b96610fa1565b612133565b339261148a612f4e612f487f6128db0733876ce7843ffc8b55e7f2df898e17c6663e33e64b9bd54a90fb55ac95610f94565b95610ad5565b95612f5860405190565b93849384612e9b565b906102349291612dfc565b61023490612f786112b8565b613009565b15612f8457565b6040517f08c379a000000000000000000000000000000000000000000000000000000000815260206004820152602c60248201527f546f6b656e466163746f72793a20496e76616c696420696d706c656d656e746160448201527f74696f6e206164647265737300000000000000000000000000000000000000006064820152608490fd5b6130376130196101e76000611295565b73ffffffffffffffffffffffffffffffffffffffff83161415612f7d565b6130416004611264565b9061304d816004611419565b339061308561307f61307f7f69ac7086f25179201a0cb39e4ffd8b5dd8224e2c7df939db65cb77311a0c030e95610ad5565b92610ad5565b9261308f60405190565b600090a4565b61023490612f6c565b6130a66112b8565b6102346130b161313e565b7ff7ab4f18771ba1e5f8db30e61ceed7bc8096937655edc7b3cae25a61921f4a1e6130db33610ad5565b906130e560405190565b600090a2565b61023461309e565b6130fb6125bb565b61023461310a60016002611d8f565b336131397f62e78cea01bee320cd4e420270b5ea74000d11b0c9f74754ebdbfc544b05a2589161090b60405190565b0390a1565b6102346130f3565b61314e6112b8565b6102346131596131d1565b7f5dd33ddbee1b2bb2cfe2e04a15fcc4e2071c141d15e24d1fe1b5d6b80f355c0c6130db33610ad5565b610234613146565b6131936131d9565b6102346131a260006002611d8f565b336131397f5db9ee0a495bf2e6ff9c91a7834c1ba4fdd244a5e8aa4e537bd38aeae4b073aa9161090b60405190565b61023461318b565b6131e86131e46114a2565b1590565b6131ee57565b6040517f8dfc202b000000000000000000000000000000000000000000000000000000008152600490fd5b9061023492916132276112b8565b6133d0565b1561323357565b6040517f08c379a000000000000000000000000000000000000000000000000000000000815260206004820152602760248201527f546f6b656e466163746f72793a20496e76616c696420726563697069656e742060448201527f61646472657373000000000000000000000000000000000000000000000000006064820152608490fd5b156132bf57565b6040517f08c379a000000000000000000000000000000000000000000000000000000000815260206004820152602b60248201527f546f6b656e466163746f72793a20416d6f756e74206d7573742062652067726560448201527f61746572207468616e20300000000000000000000000000000000000000000006064820152608490fd5b1561334b57565b6040517f08c379a000000000000000000000000000000000000000000000000000000000815260206004820152602d60248201527f546f6b656e466163746f72793a2055736520656d657267656e63795265636f7660448201527f657245544820666f7220455448000000000000000000000000000000000000006064820152608490fd5b90613455610234939261345061343260006101e761342a6133f083611295565b9261283a73ffffffffffffffffffffffffffffffffffffffff851673ffffffffffffffffffffffffffffffffffffffff8b165b141561322c565b885b116132b8565b73ffffffffffffffffffffffffffffffffffffffff83161415613344565b610ad5565b6134cd565b906102349291613219565b61347e6134786102009263ffffffff1690565b60e01b90565b7fffffffff000000000000000000000000000000000000000000000000000000001690565b73ffffffffffffffffffffffffffffffffffffffff90911681526040810192916102349160200152565b613510600492613501610234956134e763a9059cbb613465565b926134f160405190565b96879460208601908152016134a3565b602082018103825203836102f6565b90600060209161351e600090565b50828151910182855af1156135d257600080513d61353e61151084610f94565b036135bc575061355a61151061355384610ad5565b3b92610f94565b145b6135635750565b61356f61134091610ad5565b6040519182917f5274afe70000000000000000000000000000000000000000000000000000000083526004830173ffffffffffffffffffffffffffffffffffffffff909116815260200190565b90506135cb6115106001610f94565b141561355c565b6040513d6000823e3d90fd5b90610234916135eb6112b8565b613708565b156135f757565b6040517f08c379a000000000000000000000000000000000000000000000000000000000815260206004820152602260248201527f546f6b656e466163746f72793a20496e73756666696369656e742062616c616e60448201527f63650000000000000000000000000000000000000000000000000000000000006064820152608490fd5b1561368357565b6040517f08c379a000000000000000000000000000000000000000000000000000000000815260206004820152602160248201527f546f6b656e466163746f72793a20455448207472616e73666572206661696c6560448201527f64000000000000000000000000000000000000000000000000000000000000006064820152608490fd5b61023491600091829161373c6137206101e785611295565b73ffffffffffffffffffffffffffffffffffffffff8416613423565b61374e61374884610f94565b8261342c565b61376961376161375d30610ad5565b3190565b8211156135f0565b60405190818003925af161377b611b1e565b5061367c565b90610234916135de56fea26469706673582212200920601571d9469512c24a5a6df5396242ab083045c1e3f51209bd3a656d9ed864736f6c63430008140033",
  "linkReferences": {},
  "deployedLinkReferences": {}
}