{
  "_format": "hh-sol-artifact-1",
  "contractName": "NetworkAwareDEXFactory",
  "sourceName": "contracts/NetworkAwareDEXFactory.sol",
  "abi": [
    {
      "inputs": [],
      "stateMutability": "nonpayable",
      "type": "constructor"
    },
    {
      "inputs": [],
      "name": "EnforcedPause",
      "type": "error"
    },
    {
      "inputs": [],
      "name": "ExpectedPause",
      "type": "error"
    },
    {
      "inputs": [
        {
          "internalType": "address",
          "name": "owner",
          "type": "address"
        }
      ],
      "name": "OwnableInvalidOwner",
      "type": "error"
    },
    {
      "inputs": [
        {
          "internalType": "address",
          "name": "account",
          "type": "address"
        }
      ],
      "name": "OwnableUnauthorizedAccount",
      "type": "error"
    },
    {
      "inputs": [],
      "name": "ReentrancyGuardReentrantCall",
      "type": "error"
    },
    {
      "anonymous": false,
      "inputs": [
        {
          "indexed": false,
          "internalType": "uint256",
          "name": "chainId",
          "type": "uint256"
        },
        {
          "indexed": false,
          "internalType": "address",
          "name": "bridgeAddress",
          "type": "address"
        }
      ],
      "name": "BridgeAddressUpdated",
      "type": "event"
    },
    {
      "anonymous": false,
      "inputs": [
        {
          "indexed": true,
          "internalType": "uint256",
          "name": "chainId",
          "type": "uint256"
        },
        {
          "indexed": false,
          "internalType": "uint256",
          "name": "newFeeRate",
          "type": "uint256"
        }
      ],
      "name": "FeeUpdated",
      "type": "event"
    },
    {
      "anonymous": false,
      "inputs": [
        {
          "indexed": false,
          "internalType": "uint256",
          "name": "newFeeRate",
          "type": "uint256"
        }
      ],
      "name": "FeeUpdated",
      "type": "event"
    },
    {
      "anonymous": false,
      "inputs": [
        {
          "indexed": true,
          "internalType": "uint256",
          "name": "chainId",
          "type": "uint256"
        },
        {
          "indexed": false,
          "internalType": "bool",
          "name": "enabled",
          "type": "bool"
        }
      ],
      "name": "GasOptimizationEnabled",
      "type": "event"
    },
    {
      "anonymous": false,
      "inputs": [
        {
          "indexed": true,
          "internalType": "uint256",
          "name": "chainId",
          "type": "uint256"
        },
        {
          "components": [
            {
              "internalType": "bool",
              "name": "supported",
              "type": "bool"
            },
            {
              "internalType": "uint256",
              "name": "feeRate",
              "type": "uint256"
            },
            {
              "internalType": "uint256",
              "name": "feeDenominator",
              "type": "uint256"
            },
            {
              "internalType": "uint256",
              "name": "gasLimit",
              "type": "uint256"
            },
            {
              "internalType": "uint256",
              "name": "blockTime",
              "type": "uint256"
            },
            {
              "internalType": "bool",
              "name": "gasOptimizationEnabled",
              "type": "bool"
            },
            {
              "internalType": "uint256",
              "name": "maxPairsPerToken",
              "type": "uint256"
            },
            {
              "internalType": "uint256",
              "name": "minLiquidity",
              "type": "uint256"
            },
            {
              "internalType": "bool",
              "name": "adaptiveFees",
              "type": "bool"
            },
            {
              "internalType": "uint256",
              "name": "volumeThreshold",
              "type": "uint256"
            },
            {
              "internalType": "uint256",
              "name": "highVolumeFee",
              "type": "uint256"
            },
            {
              "internalType": "uint256",
              "name": "lowVolumeFee",
              "type": "uint256"
            }
          ],
          "indexed": false,
          "internalType": "struct NetworkAwareDEXFactory.NetworkConfig",
          "name": "config",
          "type": "tuple"
        }
      ],
      "name": "NetworkConfigured",
      "type": "event"
    },
    {
      "anonymous": false,
      "inputs": [
        {
          "indexed": true,
          "internalType": "address",
          "name": "previousOwner",
          "type": "address"
        },
        {
          "indexed": true,
          "internalType": "address",
          "name": "newOwner",
          "type": "address"
        }
      ],
      "name": "OwnershipTransferred",
      "type": "event"
    },
    {
      "anonymous": false,
      "inputs": [
        {
          "indexed": true,
          "internalType": "address",
          "name": "token0",
          "type": "address"
        },
        {
          "indexed": true,
          "internalType": "address",
          "name": "token1",
          "type": "address"
        },
        {
          "indexed": false,
          "internalType": "address",
          "name": "pair",
          "type": "address"
        },
        {
          "indexed": false,
          "internalType": "uint256",
          "name": "allPairsLength",
          "type": "uint256"
        }
      ],
      "name": "PairCreated",
      "type": "event"
    },
    {
      "anonymous": false,
      "inputs": [
        {
          "indexed": false,
          "internalType": "address",
          "name": "account",
          "type": "address"
        }
      ],
      "name": "Paused",
      "type": "event"
    },
    {
      "anonymous": false,
      "inputs": [
        {
          "indexed": false,
          "internalType": "address",
          "name": "account",
          "type": "address"
        }
      ],
      "name": "Unpaused",
      "type": "event"
    },
    {
      "inputs": [
        {
          "internalType": "uint256",
          "name": "",
          "type": "uint256"
        }
      ],
      "name": "allPairs",
      "outputs": [
        {
          "internalType": "address",
          "name": "",
          "type": "address"
        }
      ],
      "stateMutability": "view",
      "type": "function"
    },
    {
      "inputs": [],
      "name": "allPairsLength",
      "outputs": [
        {
          "internalType": "uint256",
          "name": "",
          "type": "uint256"
        }
      ],
      "stateMutability": "view",
      "type": "function"
    },
    {
      "inputs": [
        {
          "internalType": "uint256",
          "name": "",
          "type": "uint256"
        }
      ],
      "name": "bridgeAddresses",
      "outputs": [
        {
          "internalType": "address",
          "name": "",
          "type": "address"
        }
      ],
      "stateMutability": "view",
      "type": "function"
    },
    {
      "inputs": [
        {
          "internalType": "uint256",
          "name": "chainId",
          "type": "uint256"
        },
        {
          "internalType": "bool",
          "name": "supported",
          "type": "bool"
        },
        {
          "internalType": "uint256",
          "name": "_feeRate",
          "type": "uint256"
        },
        {
          "internalType": "uint256",
          "name": "gasLimit",
          "type": "uint256"
        },
        {
          "internalType": "uint256",
          "name": "blockTime",
          "type": "uint256"
        },
        {
          "internalType": "bool",
          "name": "gasOptimizationEnabled",
          "type": "bool"
        },
        {
          "internalType": "uint256",
          "name": "maxPairsPerToken",
          "type": "uint256"
        },
        {
          "internalType": "uint256",
          "name": "minLiquidity",
          "type": "uint256"
        },
        {
          "internalType": "bool",
          "name": "adaptiveFees",
          "type": "bool"
        },
        {
          "internalType": "uint256",
          "name": "volumeThreshold",
          "type": "uint256"
        },
        {
          "internalType": "uint256",
          "name": "highVolumeFee",
          "type": "uint256"
        },
        {
          "internalType": "uint256",
          "name": "lowVolumeFee",
          "type": "uint256"
        }
      ],
      "name": "configureNetwork",
      "outputs": [],
      "stateMutability": "nonpayable",
      "type": "function"
    },
    {
      "inputs": [
        {
          "internalType": "address",
          "name": "tokenA",
          "type": "address"
        },
        {
          "internalType": "address",
          "name": "tokenB",
          "type": "address"
        }
      ],
      "name": "createPair",
      "outputs": [
        {
          "internalType": "address",
          "name": "pair",
          "type": "address"
        }
      ],
      "stateMutability": "nonpayable",
      "type": "function"
    },
    {
      "inputs": [
        {
          "internalType": "uint256",
          "name": "chainId",
          "type": "uint256"
        }
      ],
      "name": "estimateGasForPairCreation",
      "outputs": [
        {
          "internalType": "uint256",
          "name": "",
          "type": "uint256"
        }
      ],
      "stateMutability": "view",
      "type": "function"
    },
    {
      "inputs": [],
      "name": "feeDenominator",
      "outputs": [
        {
          "internalType": "uint256",
          "name": "",
          "type": "uint256"
        }
      ],
      "stateMutability": "view",
      "type": "function"
    },
    {
      "inputs": [],
      "name": "feeRate",
      "outputs": [
        {
          "internalType": "uint256",
          "name": "",
          "type": "uint256"
        }
      ],
      "stateMutability": "view",
      "type": "function"
    },
    {
      "inputs": [
        {
          "internalType": "address",
          "name": "token0",
          "type": "address"
        },
        {
          "internalType": "address",
          "name": "token1",
          "type": "address"
        }
      ],
      "name": "getAdaptiveFee",
      "outputs": [
        {
          "internalType": "uint256",
          "name": "",
          "type": "uint256"
        }
      ],
      "stateMutability": "view",
      "type": "function"
    },
    {
      "inputs": [],
      "name": "getCurrentNetworkConfig",
      "outputs": [
        {
          "components": [
            {
              "internalType": "bool",
              "name": "supported",
              "type": "bool"
            },
            {
              "internalType": "uint256",
              "name": "feeRate",
              "type": "uint256"
            },
            {
              "internalType": "uint256",
              "name": "feeDenominator",
              "type": "uint256"
            },
            {
              "internalType": "uint256",
              "name": "gasLimit",
              "type": "uint256"
            },
            {
              "internalType": "uint256",
              "name": "blockTime",
              "type": "uint256"
            },
            {
              "internalType": "bool",
              "name": "gasOptimizationEnabled",
              "type": "bool"
            },
            {
              "internalType": "uint256",
              "name": "maxPairsPerToken",
              "type": "uint256"
            },
            {
              "internalType": "uint256",
              "name": "minLiquidity",
              "type": "uint256"
            },
            {
              "internalType": "bool",
              "name": "adaptiveFees",
              "type": "bool"
            },
            {
              "internalType": "uint256",
              "name": "volumeThreshold",
              "type": "uint256"
            },
            {
              "internalType": "uint256",
              "name": "highVolumeFee",
              "type": "uint256"
            },
            {
              "internalType": "uint256",
              "name": "lowVolumeFee",
              "type": "uint256"
            }
          ],
          "internalType": "struct NetworkAwareDEXFactory.NetworkConfig",
          "name": "",
          "type": "tuple"
        }
      ],
      "stateMutability": "view",
      "type": "function"
    },
    {
      "inputs": [
        {
          "internalType": "uint256",
          "name": "chainId",
          "type": "uint256"
        }
      ],
      "name": "getNetworkConfig",
      "outputs": [
        {
          "components": [
            {
              "internalType": "bool",
              "name": "supported",
              "type": "bool"
            },
            {
              "internalType": "uint256",
              "name": "feeRate",
              "type": "uint256"
            },
            {
              "internalType": "uint256",
              "name": "feeDenominator",
              "type": "uint256"
            },
            {
              "internalType": "uint256",
              "name": "gasLimit",
              "type": "uint256"
            },
            {
              "internalType": "uint256",
              "name": "blockTime",
              "type": "uint256"
            },
            {
              "internalType": "bool",
              "name": "gasOptimizationEnabled",
              "type": "bool"
            },
            {
              "internalType": "uint256",
              "name": "maxPairsPerToken",
              "type": "uint256"
            },
            {
              "internalType": "uint256",
              "name": "minLiquidity",
              "type": "uint256"
            },
            {
              "internalType": "bool",
              "name": "adaptiveFees",
              "type": "bool"
            },
            {
              "internalType": "uint256",
              "name": "volumeThreshold",
              "type": "uint256"
            },
            {
              "internalType": "uint256",
              "name": "highVolumeFee",
              "type": "uint256"
            },
            {
              "internalType": "uint256",
              "name": "lowVolumeFee",
              "type": "uint256"
            }
          ],
          "internalType": "struct NetworkAwareDEXFactory.NetworkConfig",
          "name": "",
          "type": "tuple"
        }
      ],
      "stateMutability": "view",
      "type": "function"
    },
    {
      "inputs": [
        {
          "internalType": "address",
          "name": "tokenA",
          "type": "address"
        },
        {
          "internalType": "address",
          "name": "tokenB",
          "type": "address"
        }
      ],
      "name": "getPair",
      "outputs": [
        {
          "internalType": "address",
          "name": "pair",
          "type": "address"
        }
      ],
      "stateMutability": "view",
      "type": "function"
    },
    {
      "inputs": [
        {
          "internalType": "address",
          "name": "tokenA",
          "type": "address"
        },
        {
          "internalType": "address",
          "name": "tokenB",
          "type": "address"
        }
      ],
      "name": "getPairAddress",
      "outputs": [
        {
          "internalType": "address",
          "name": "",
          "type": "address"
        }
      ],
      "stateMutability": "view",
      "type": "function"
    },
    {
      "inputs": [
        {
          "internalType": "uint256",
          "name": "",
          "type": "uint256"
        }
      ],
      "name": "networkConfigs",
      "outputs": [
        {
          "internalType": "bool",
          "name": "supported",
          "type": "bool"
        },
        {
          "internalType": "uint256",
          "name": "feeRate",
          "type": "uint256"
        },
        {
          "internalType": "uint256",
          "name": "feeDenominator",
          "type": "uint256"
        },
        {
          "internalType": "uint256",
          "name": "gasLimit",
          "type": "uint256"
        },
        {
          "internalType": "uint256",
          "name": "blockTime",
          "type": "uint256"
        },
        {
          "internalType": "bool",
          "name": "gasOptimizationEnabled",
          "type": "bool"
        },
        {
          "internalType": "uint256",
          "name": "maxPairsPerToken",
          "type": "uint256"
        },
        {
          "internalType": "uint256",
          "name": "minLiquidity",
          "type": "uint256"
        },
        {
          "internalType": "bool",
          "name": "adaptiveFees",
          "type": "bool"
        },
        {
          "internalType": "uint256",
          "name": "volumeThreshold",
          "type": "uint256"
        },
        {
          "internalType": "uint256",
          "name": "highVolumeFee",
          "type": "uint256"
        },
        {
          "internalType": "uint256",
          "name": "lowVolumeFee",
          "type": "uint256"
        }
      ],
      "stateMutability": "view",
      "type": "function"
    },
    {
      "inputs": [],
      "name": "owner",
      "outputs": [
        {
          "internalType": "address",
          "name": "",
          "type": "address"
        }
      ],
      "stateMutability": "view",
      "type": "function"
    },
    {
      "inputs": [
        {
          "internalType": "address",
          "name": "tokenA",
          "type": "address"
        },
        {
          "internalType": "address",
          "name": "tokenB",
          "type": "address"
        }
      ],
      "name": "pairExists",
      "outputs": [
        {
          "internalType": "bool",
          "name": "",
          "type": "bool"
        }
      ],
      "stateMutability": "view",
      "type": "function"
    },
    {
      "inputs": [],
      "name": "pause",
      "outputs": [],
      "stateMutability": "nonpayable",
      "type": "function"
    },
    {
      "inputs": [],
      "name": "paused",
      "outputs": [
        {
          "internalType": "bool",
          "name": "",
          "type": "bool"
        }
      ],
      "stateMutability": "view",
      "type": "function"
    },
    {
      "inputs": [],
      "name": "renounceOwnership",
      "outputs": [],
      "stateMutability": "nonpayable",
      "type": "function"
    },
    {
      "inputs": [
        {
          "internalType": "uint256",
          "name": "chainId",
          "type": "uint256"
        },
        {
          "internalType": "address",
          "name": "bridgeAddress",
          "type": "address"
        }
      ],
      "name": "setBridgeAddress",
      "outputs": [],
      "stateMutability": "nonpayable",
      "type": "function"
    },
    {
      "inputs": [
        {
          "internalType": "uint256",
          "name": "_feeRate",
          "type": "uint256"
        }
      ],
      "name": "setFeeRate",
      "outputs": [],
      "stateMutability": "nonpayable",
      "type": "function"
    },
    {
      "inputs": [
        {
          "internalType": "uint256",
          "name": "chainId",
          "type": "uint256"
        },
        {
          "internalType": "bool",
          "name": "enabled",
          "type": "bool"
        }
      ],
      "name": "setGasOptimization",
      "outputs": [],
      "stateMutability": "nonpayable",
      "type": "function"
    },
    {
      "inputs": [
        {
          "internalType": "uint256",
          "name": "chainId",
          "type": "uint256"
        },
        {
          "internalType": "uint256",
          "name": "_feeRate",
          "type": "uint256"
        }
      ],
      "name": "setNetworkFeeRate",
      "outputs": [],
      "stateMutability": "nonpayable",
      "type": "function"
    },
    {
      "inputs": [
        {
          "internalType": "address",
          "name": "newOwner",
          "type": "address"
        }
      ],
      "name": "transferOwnership",
      "outputs": [],
      "stateMutability": "nonpayable",
      "type": "function"
    },
    {
      "inputs": [],
      "name": "unpause",
      "outputs": [],
      "stateMutability": "nonpayable",
      "type": "function"
    }
  ],
  "bytecode": "0x6080806040523462002e1b57331562002e055760008054336001600160a01b0319821681178355916001600160a01b03909116907f8be0079c531659141344cd1fd0a4f28419497f9722a3daafe3b4186f6b6457e09080a3600180556040516101808101906001600160401b0382118183101762002def5761018060008051602062005eda83398151915291600193604052838152601e60208201526127106040820152620493e06060820152600c6080820152600060a0820152606460c0820152670de0b6b3a764000060e08201528361010082015269d3c21bcecceda1000000610120820152601961014082015260236101608201528360005260056020526040600020906200012081511515839060ff801983541691151516179055565b6020810151858301556040810151600283015560608101516003830155608081015160048301556200016760a08201511515600584019060ff801983541691151516179055565b60c0810151600683015560e081015160078301556200019c6101008201511515600884019060ff801983541691151516179055565b610120810151908160098401556101606101408201519182600a86015501519182600b85015560ff600860405195828154161515875289810154602088015260028101546040880152600381015460608801526004810154608088015282600582015416151560a0880152600681015460c0880152600781015460e08801520154161515610100850152610120840152610140830152610160820152a26040516001600160401b0361018082019081119082111762002def5760008051602062005eda83398151915261018082816089940160405260018152601960208201526127106040820152620493e0606082015260026080820152600160a0820152603260c0820152670de0b6b3a764000060e082015260016101008201526a0422ca8b0a00a4250000006101208201526014610140820152601e6101608201528360005260056020526040600020906200030381511515839060ff801983541691151516179055565b602081015160018301556040810151600283015560608101516003830155608081015160048301556200034b60a08201511515600584019060ff801983541691151516179055565b60c0810151600683015560e08101516007830155620003806101008201511515600884019060ff801983541691151516179055565b610120810151908160098401556101606101408201519182600a86015501519182600b85015560ff60086040519582815416151587526001810154602088015260028101546040880152600381015460608801526004810154608088015282600582015416151560a0880152600681015460c0880152600781015460e08801520154161515610100850152610120840152610140830152610160820152a26040516001600160401b0361018082019081119082111762002def5760008051602062005eda83398151915261018082816038940160405260018152601960208201526127106040820152620493e0606082015260036080820152600160a0820152603260c0820152670de0b6b3a764000060e082015260016101008201526a0422ca8b0a00a4250000006101208201526014610140820152601e610160820152836000526005602052604060002090620004e881511515839060ff801983541691151516179055565b602081015160018301556040810151600283015560608101516003830155608081015160048301556200053060a08201511515600584019060ff801983541691151516179055565b60c0810151600683015560e08101516007830155620005656101008201511515600884019060ff801983541691151516179055565b610120810151908160098401556101606101408201519182600a86015501519182600b85015560ff60086040519582815416151587526001810154602088015260028101546040880152600381015460608801526004810154608088015282600582015416151560a0880152600681015460c0880152600781015460e08801520154161515610100850152610120840152610140830152610160820152a26040516001600160401b0361018082019081119082111762002def5760008051602062005eda833981519152610180828160fa9401604052600181526014602082015261271060408201526203d090606082015260016080820152600160a0820152601e60c0820152670de0b6b3a764000060e082015260016101008201526a027b46536c66c8e3000000610120820152600f6101408201526019610160820152836000526005602052604060002090620006cd81511515839060ff801983541691151516179055565b602081015160018301556040810151600283015560608101516003830155608081015160048301556200071560a08201511515600584019060ff801983541691151516179055565b60c0810151600683015560e081015160078301556200074a6101008201511515600884019060ff801983541691151516179055565b610120810151908160098401556101606101408201519182600a86015501519182600b85015560ff60086040519582815416151587526001810154602088015260028101546040880152600381015460608801526004810154608088015282600582015416151560a0880152600681015460c0880152600781015460e08801520154161515610100850152610120840152610140830152610160820152a26040516001600160401b0361018082019081119082111762002def5760008051602062005eda833981519152610180828161a86a940160405260018152601960208201526127106040820152620c3500606082015260026080820152600160a0820152602860c0820152670de0b6b3a764000060e082015260016101008201526a027b46536c66c8e30000006101208201526014610140820152601e610160820152836000526005602052604060002090620008b381511515839060ff801983541691151516179055565b60208101516001830155604081015160028301556060810151600383015560808101516004830155620008fb60a08201511515600584019060ff801983541691151516179055565b60c0810151600683015560e08101516007830155620009306101008201511515600884019060ff801983541691151516179055565b610120810151908160098401556101606101408201519182600a86015501519182600b85015560ff60086040519582815416151587526001810154602088015260028101546040880152600381015460608801526004810154608088015282600582015416151560a0880152600681015460c0880152600781015460e08801520154161515610100850152610120840152610140830152610160820152a26040516001600160401b0361018082019081119082111762002def5760008051602062005eda833981519152610180828161a4b1940160405260018152601460208201526127106040820152620f4240606082015260016080820152600160a0820152603c60c0820152670de0b6b3a764000060e082015260016101008201526a0422ca8b0a00a425000000610120820152600f610140820152601961016082015283600052600560205260406000209062000a9981511515839060ff801983541691151516179055565b6020810151600183015560408101516002830155606081015160038301556080810151600483015562000ae160a08201511515600584019060ff801983541691151516179055565b60c0810151600683015560e0810151600783015562000b166101008201511515600884019060ff801983541691151516179055565b610120810151908160098401556101606101408201519182600a86015501519182600b85015560ff60086040519582815416151587526001810154602088015260028101546040880152600381015460608801526004810154608088015282600582015416151560a0880152600681015460c0880152600781015460e08801520154161515610100850152610120840152610140830152610160820152a26040516001600160401b0361018082019081119082111762002def5760008051602062005eda8339815191526101808281600a940160405260018152601460208201526127106040820152620493e0606082015260026080820152600160a0820152603c60c0820152670de0b6b3a764000060e082015260016101008201526a0422ca8b0a00a425000000610120820152600f610140820152601961016082015283600052600560205260406000209062000c7e81511515839060ff801983541691151516179055565b6020810151600183015560408101516002830155606081015160038301556080810151600483015562000cc660a08201511515600584019060ff801983541691151516179055565b60c0810151600683015560e0810151600783015562000cfb6101008201511515600884019060ff801983541691151516179055565b6101208101519081600984015561016061014082015191828886015501519182600b85015560ff60086040519582815416151587526001810154602088015260028101546040880152600381015460608801526004810154608088015282600582015416151560a0880152600681015460c0880152600781015460e08801520154161515610100850152610120840152610140830152610160820152a26040516001600160401b0361018082019081119082111762002def5760008051602062005eda8339815191526101808281612105940160405260018152601960208201526127106040820152620493e0606082015260026080820152600160a0820152602860c0820152670de0b6b3a764000060e082015260016101008201526a01a784379d99db420000006101208201526014610140820152601e61016082015283600052600560205260406000209062000e6381511515839060ff801983541691151516179055565b6020810151600183015560408101516002830155606081015160038301556080810151600483015562000eab60a08201511515600584019060ff801983541691151516179055565b60c0810151600683015560e0810151600783015562000ee06101008201511515600884019060ff801983541691151516179055565b610120810151908160098401556101606101408201519182600a86015501519182600b85015560ff60086040519582815416151587526001810154602088015260028101546040880152600381015460608801526004810154608088015282600582015416151560a0880152600681015460c0880152600781015460e08801520154161515610100850152610120840152610140830152610160820152a26040516001600160401b0361018082019081119082111762002def5760008051602062005eda833981519152610180828161e708940160405260018152601960208201526127106040820152620493e06060820152600c6080820152600160a0820152602860c0820152670de0b6b3a764000060e082015260016101008201526a01a784379d99db420000006101208201526014610140820152601e6101608201528360005260056020526040600020906200104981511515839060ff801983541691151516179055565b602081015160018301556040810151600283015560608101516003830155608081015160048301556200109160a08201511515600584019060ff801983541691151516179055565b60c0810151600683015560e08101516007830155620010c66101008201511515600884019060ff801983541691151516179055565b610120810151908160098401556101606101408201519182600a86015501519182600b85015560ff60086040519582815416151587526001810154602088015260028101546040880152600381015460608801526004810154608088015282600582015416151560a0880152600681015460c0880152600781015460e08801520154161515610100850152610120840152610140830152610160820152a26040516001600160401b0361018082019081119082111762002def5760008051602062005eda833981519152610180828161044d940160405260018152601460208201526127106040820152620493e0606082015260016080820152600160a0820152603260c0820152670de0b6b3a764000060e082015260016101008201526a027b46536c66c8e3000000610120820152600f61014082015260196101608201528360005260056020526040600020906200122f81511515839060ff801983541691151516179055565b602081015160018301556040810151600283015560608101516003830155608081015160048301556200127760a08201511515600584019060ff801983541691151516179055565b60c0810151600683015560e08101516007830155620012ac6101008201511515600884019060ff801983541691151516179055565b610120810151908160098401556101606101408201519182600a86015501519182600b85015560ff60086040519582815416151587526001810154602088015260028101546040880152600381015460608801526004810154608088015282600582015416151560a0880152600681015460c0880152600781015460e08801520154161515610100850152610120840152610140830152610160820152a26040516001600160401b0361018082019081119082111762002def5760008051602062005eda8339815191526101808281610144940160405260018152601460208201526127106040820152620493e0606082015260016080820152600160a0820152603260c0820152670de0b6b3a764000060e082015260016101008201526a027b46536c66c8e3000000610120820152600f61014082015260196101608201528360005260056020526040600020906200141581511515839060ff801983541691151516179055565b602081015160018301556040810151600283015560608101516003830155608081015160048301556200145d60a08201511515600584019060ff801983541691151516179055565b60c0810151600683015560e08101516007830155620014926101008201511515600884019060ff801983541691151516179055565b610120810151908160098401556101606101408201519182600a86015501519182600b85015560ff60086040519582815416151587526001810154602088015260028101546040880152600381015460608801526004810154608088015282600582015416151560a0880152600681015460c0880152600781015460e08801520154161515610100850152610120840152610140830152610160820152a26040516001600160401b0361018082019081119082111762002def5760008051602062005eda833981519152610180828162082750940160405260018152601460208201526127106040820152620493e0606082015260026080820152600160a0820152603260c0820152670de0b6b3a764000060e082015260016101008201526a027b46536c66c8e3000000610120820152600f6101408201526019610160820152836000526005602052604060002090620015fc81511515839060ff801983541691151516179055565b602081015160018301556040810151600283015560608101516003830155608081015160048301556200164460a08201511515600584019060ff801983541691151516179055565b60c0810151600683015560e08101516007830155620016796101008201511515600884019060ff801983541691151516179055565b610120810151908160098401556101606101408201519182600a86015501519182600b85015560ff60086040519582815416151587526001810154602088015260028101546040880152600381015460608801526004810154608088015282600582015416151560a0880152600681015460c0880152600781015460e08801520154161515610100850152610120840152610140830152610160820152a26040516001600160401b0361018082019081119082111762002def5760008051602062005eda8339815191526101808281610504940160405260018152601960208201526127106040820152620249f06060820152600c6080820152600160a0820152601e60c0820152670de0b6b3a764000060e0820152600161010082015269d3c21bcecceda10000006101208201526014610140820152601e610160820152836000526005602052604060002090620017e181511515839060ff801983541691151516179055565b602081015160018301556040810151600283015560608101516003830155608081015160048301556200182960a08201511515600584019060ff801983541691151516179055565b60c0810151600683015560e081015160078301556200185e6101008201511515600884019060ff801983541691151516179055565b610120810151908160098401556101606101408201519182600a86015501519182600b85015560ff60086040519582815416151587526001810154602088015260028101546040880152600381015460608801526004810154608088015282600582015416151560a0880152600681015460c0880152600781015460e08801520154161515610100850152610120840152610140830152610160820152a26040516001600160401b0361018082019081119082111762002def5760008051602062005eda8339815191526101808281610505940160405260018152601960208201526127106040820152620249f06060820152600c6080820152600160a0820152601e60c0820152670de0b6b3a764000060e0820152600161010082015269d3c21bcecceda10000006101208201526014610140820152601e610160820152836000526005602052604060002090620019c681511515839060ff801983541691151516179055565b6020810151600183015560408101516002830155606081015160038301556080810151600483015562001a0e60a08201511515600584019060ff801983541691151516179055565b60c0810151600683015560e0810151600783015562001a436101008201511515600884019060ff801983541691151516179055565b610120810151908160098401556101606101408201519182600a86015501519182600b85015560ff60086040519582815416151587526001810154602088015260028101546040880152600381015460608801526004810154608088015282600582015416151560a0880152600681015460c0880152600781015460e08801520154161515610100850152610120840152610140830152610160820152a26040516001600160401b0361018082019081119082111762002def5760008051602062005eda8339815191526101808281610324940160405260018152601960208201526127106040820152620493e0606082015260036080820152600160a0820152603260c0820152670de0b6b3a764000060e082015260016101008201526a0422ca8b0a00a4250000006101208201526014610140820152601e61016082015283600052600560205260406000209062001bac81511515839060ff801983541691151516179055565b6020810151600183015560408101516002830155606081015160038301556080810151600483015562001bf460a08201511515600584019060ff801983541691151516179055565b60c0810151600683015560e0810151600783015562001c296101008201511515600884019060ff801983541691151516179055565b610120810151908160098401556101606101408201519182600a86015501519182600b85015560ff60086040519582815416151587526001810154602088015260028101546040880152600381015460608801526004810154608088015282600582015416151560a0880152600681015460c0880152600781015460e08801520154161515610100850152610120840152610140830152610160820152a26040516001600160401b0361018082019081119082111762002def5760008051602062005eda83398151915261018082816064940160405260018152601960208201526127106040820152620493e0606082015260056080820152600160a0820152602860c0820152670de0b6b3a764000060e082015260016101008201526a01a784379d99db420000006101208201526014610140820152601e61016082015283600052600560205260406000209062001d9181511515839060ff801983541691151516179055565b6020810151600183015560408101516002830155606081015160038301556080810151600483015562001dd960a08201511515600584019060ff801983541691151516179055565b60c0810151600683015560e0810151600783015562001e0e6101008201511515600884019060ff801983541691151516179055565b610120810151908160098401556101606101408201519182600a86015501519182600b85015560ff60086040519582815416151587526001810154602088015260028101546040880152600381015460608801526004810154608088015282600582015416151560a0880152600681015460c0880152600781015460e08801520154161515610100850152610120840152610140830152610160820152a26040516001600160401b0361018082019081119082111762002def5760008051602062005eda833981519152610180828162aa36a7940160405260018152601e60208201526127106040820152620493e06060820152600c6080820152600060a0820152606460c0820152670de0b6b3a764000060e0820152600161010082015269d3c21bcecceda10000006101208201526019610140820152602361016082015283600052600560205260406000209062001f7781511515839060ff801983541691151516179055565b6020810151600183015560408101516002830155606081015160038301556080810151600483015562001fbf60a08201511515600584019060ff801983541691151516179055565b60c0810151600683015560e0810151600783015562001ff46101008201511515600884019060ff801983541691151516179055565b610120810151908160098401556101606101408201519182600a86015501519182600b85015560ff60086040519582815416151587526001810154602088015260028101546040880152600381015460608801526004810154608088015282600582015416151560a0880152600681015460c0880152600781015460e08801520154161515610100850152610120840152610140830152610160820152a26040516001600160401b0361018082019081119082111762002def5760008051602062005eda833981519152610180828162013881940160405260018152601960208201526127106040820152620493e0606082015260026080820152600160a0820152603260c0820152670de0b6b3a764000060e082015260016101008201526a0422ca8b0a00a4250000006101208201526014610140820152601e6101608201528360005260056020526040600020906200215e81511515839060ff801983541691151516179055565b60208101516001830155604081015160028301556060810151600383015560808101516004830155620021a660a08201511515600584019060ff801983541691151516179055565b60c0810151600683015560e08101516007830155620021db6101008201511515600884019060ff801983541691151516179055565b610120810151908160098401556101606101408201519182600a86015501519182600b85015560ff60086040519582815416151587526001810154602088015260028101546040880152600381015460608801526004810154608088015282600582015416151560a0880152600681015460c0880152600781015460e08801520154161515610100850152610120840152610140830152610160820152a26040516001600160401b0361018082019081119082111762002def5760008051602062005eda83398151915261018082816061940160405260018152601960208201526127106040820152620493e0606082015260036080820152600160a0820152603260c0820152670de0b6b3a764000060e082015260016101008201526a0422ca8b0a00a4250000006101208201526014610140820152601e6101608201528360005260056020526040600020906200234381511515839060ff801983541691151516179055565b602081015160018301556040810151600283015560608101516003830155608081015160048301556200238b60a08201511515600584019060ff801983541691151516179055565b60c0810151600683015560e08101516007830155620023c06101008201511515600884019060ff801983541691151516179055565b610120810151908160098401556101606101408201519182600a86015501519182600b85015560ff60086040519582815416151587526001810154602088015260028101546040880152600381015460608801526004810154608088015282600582015416151560a0880152600681015460c0880152600781015460e08801520154161515610100850152610120840152610140830152610160820152a26040516001600160401b0361018082019081119082111762002def5760008051602062005eda833981519152610180828162aa37dc940160405260018152601460208201526127106040820152620493e0606082015260026080820152600160a0820152603c60c0820152670de0b6b3a764000060e082015260016101008201526a0422ca8b0a00a425000000610120820152600f61014082015260196101608201528360005260056020526040600020906200252a81511515839060ff801983541691151516179055565b602081015160018301556040810151600283015560608101516003830155608081015160048301556200257260a08201511515600584019060ff801983541691151516179055565b60c0810151600683015560e08101516007830155620025a76101008201511515600884019060ff801983541691151516179055565b610120810151908160098401556101606101408201519182600a86015501519182600b85015560ff60086040519582815416151587526001810154602088015260028101546040880152600381015460608801526004810154608088015282600582015416151560a0880152600681015460c0880152600781015460e08801520154161515610100850152610120840152610140830152610160820152a26040516001600160401b0361018082019081119082111762002def5760008051602062005eda833981519152610180828162066eee940160405260018152601460208201526127106040820152620f4240606082015260016080820152600160a0820152603c60c0820152670de0b6b3a764000060e082015260016101008201526a0422ca8b0a00a425000000610120820152600f61014082015260196101608201528360005260056020526040600020906200271181511515839060ff801983541691151516179055565b602081015160018301556040810151600283015560608101516003830155608081015160048301556200275960a08201511515600584019060ff801983541691151516179055565b60c0810151600683015560e081015160078301556200278e6101008201511515600884019060ff801983541691151516179055565b610120810151908160098401556101606101408201519182600a86015501519182600b85015560ff60086040519582815416151587526001810154602088015260028101546040880152600381015460608801526004810154608088015282600582015416151560a0880152600681015460c0880152600781015460e08801520154161515610100850152610120840152610140830152610160820152a26040516001600160401b0361018082019081119082111762002def5760008051602062005eda833981519152610180828162014a34940160405260018152601960208201526127106040820152620493e0606082015260026080820152600160a0820152602860c0820152670de0b6b3a764000060e082015260016101008201526a01a784379d99db420000006101208201526014610140820152601e610160820152836000526005602052604060002090620028f881511515839060ff801983541691151516179055565b602081015160018301556040810151600283015560608101516003830155608081015160048301556200294060a08201511515600584019060ff801983541691151516179055565b60c0810151600683015560e08101516007830155620029756101008201511515600884019060ff801983541691151516179055565b610120810151908160098401556101606101408201519182600a86015501519182600b85015560ff60086040519582815416151587526001810154602088015260028101546040880152600381015460608801526004810154608088015282600582015416151560a0880152600681015460c0880152600781015460e08801520154161515610100850152610120840152610140830152610160820152a26040516001600160401b0361018082019081119082111762002def5760008051602062005eda8339815191526101808281610171940160405260018152601960208201526127106040820152620493e0606082015260036080820152600160a0820152603260c0820152670de0b6b3a764000060e082015260016101008201526a0422ca8b0a00a4250000006101208201526014610140820152601e61016082015283600052600560205260406000209062002ade81511515839060ff801983541691151516179055565b6020810151600183015560408101516002830155606081015160038301556080810151600483015562002b2660a08201511515600584019060ff801983541691151516179055565b60c0810151600683015560e0810151600783015562002b5b6101008201511515600884019060ff801983541691151516179055565b610120810151908160098401556101606101408201519182600a86015501519182600b85015560ff60086040519582815416151587526001810154602088015260028101546040880152600381015460608801526004810154608088015282600582015416151560a0880152600681015460c0880152600781015460e08801520154161515610100850152610120840152610140830152610160820152a26040516001600160401b0361018082019081119082111762002def5760008051602062005eda83398151915261018082816127d8940160405260018152601960208201526127106040820152620493e0606082015260056080820152600160a0820152602860c0820152670de0b6b3a764000060e082015260016101008201526a01a784379d99db420000006101208201526014610140820152601e61016082015283600052600560205260406000209062002cc481511515839060ff801983541691151516179055565b6020810151600183015560408101516002830155606081015160038301556080810151600483015562002d0c60a08201511515600584019060ff801983541691151516179055565b60c0810151600683015560e0810151600783015562002d416101008201511515600884019060ff801983541691151516179055565b610120810151908160098401556101606101408201519182600a86015501519182600b85015560ff60086040519582815416151587526001810154602088015260028101546040880152600381015460608801526004810154608088015282600582015416151560a0880152600681015460c0880152600781015460e08801520154161515610100850152610120840152610140830152610160820152a26040516130b9908162002e218239f35b634e487b7160e01b600052604160045260246000fd5b631e4fbdf760e01b815260006004820152602490fd5b600080fdfe6080604052600436101561001257600080fd5b60003560e01c80630475db80146101a257806306566faa1461019d578063180b0d7e1461019857806319f63b0d146101935780631e3dd18b1461018e5780633f4ba83a1461018957806345596e2e146101845780634994d93a1461017f578063574f2ba31461017a5780635c975abb1461017557806366a7bc4b14610170578063715018a61461016b5780637b99b60314610166578063831db29b146101615780638456cb591461015c5780638da5cb5b14610157578063978bbdb914610152578063a8fd97b41461014d578063b4f69a2f14610139578063bdaff20414610148578063c9c6539614610143578063d39957c61461013e578063e6a4390514610139578063eabd2417146101345763f2fde38b1461012f57600080fd5b610c93565b610c02565b6108c8565b610bcb565b61097c565b6108f8565b61089c565b61086f565b610846565b6107ec565b610707565b6105a1565b610543565b6104cf565b6104ac565b61048e565b610468565b610400565b610396565b61033b565b610307565b6102da565b61024c565b6101bb565b6024359081151582036101b657565b600080fd5b346101b6576101803660031901126101b6576101d56101a7565b60a43580151581036101b657610104359081151582036101b65761021e9261016435926101443592610124359260e4359160c43591608435906064359060443590600435610fb5565b005b602435906001600160a01b03821682036101b657565b600435906001600160a01b03821682036101b657565b346101b65760403660031901126101b6577f7d3ed3db7a40004ef70047557a8d9704bd8fbad6df7a5f1e72e4fbf3b402fd2f604060043561028b610220565b610293610d1b565b6000828152600660205283902080546001600160a01b0319166001600160a01b03831617905582519182526001600160a01b03166020820152a1005b60009103126101b657565b346101b65760003660031901126101b6574660005260056020526020600260406000200154604051908152f35b346101b65760203660031901126101b6576004356000526006602052602060018060a01b0360406000205416604051908152f35b346101b65760203660031901126101b6576004356004548110156101b65760046000527f8a35acfbc15ff81a39ae7d344fd709f28e8600b4aa8c65c6b64bfe7fe36bd19b01546040516001600160a01b039091168152602090f35b346101b65760003660031901126101b6576103af610d1b565b60025460ff8116156103ee5760ff19166002557f5db9ee0a495bf2e6ff9c91a7834c1ba4fdd244a5e8aa4e537bd38aeae4b073aa6020604051338152a1005b604051638dfc202b60e01b8152600490fd5b346101b65760203660031901126101b6577f8c4d35e54a3f2ef1134138fd8ea3daee6a3c89e10d2665996babdf70261e2c76602060043561043f610d1b565b61044d6103e8821115611365565b466000526005825280600160406000200155604051908152a1005b346101b65760203660031901126101b657602061048660043561131f565b604051908152f35b346101b65760003660031901126101b6576020600454604051908152f35b346101b65760003660031901126101b657602060ff600254166040519015158152f35b346101b65760403660031901126101b65760206104ea610236565b6105316104f5610220565b6001600160a01b03928390828216818316101561053d575b166000526003845260406000209060018060a01b0316600052602052604060002090565b54161515604051908152f35b9161050d565b346101b65760008060031936011261059e5761055d610d1b565b80546001600160a01b03198116825581906001600160a01b03167f8be0079c531659141344cd1fd0a4f28419497f9722a3daafe3b4186f6b6457e08280a380f35b80fd5b346101b65760203660031901126101b6576004356000526005602052604060002060ff8154166106716001830154926002810154906003810154600482015460ff6005840154166006840154600785015491610601600887015460ff1690565b93600987015495600b600a890154980154986040519c8d9c8d9895926101609a9794919d9c9b9895926101808b019e15158b5260208b015260408a015260608901526080880152151560a087015260c086015260e085015215156101008401526101208301526101408201520152565b0390f35b81511515815261018081019291602081015160208301526040810151604083015260608101516060830152608081015160808301526106bd60a082015160a084019015159052565b60c081015160c083015260e081015160e08301526106e5610100808301519084019015159052565b6101208082015190830152610140808201519083015261016080910151910152565b346101b65760003660031901126101b657610720611287565b504660005260056020526106716040600020600b61073c610eef565b9161075161074b825460ff1690565b15158452565b6001810154602084015260028101546040840152600381015460608401526004810154608084015261079361078a600583015460ff1690565b151560a0850152565b600681015460c0840152600781015460e08401526107c26107b8600883015460ff1690565b1515610100850152565b6009810154610120840152600a810154610140840152015461016082015260405191829182610675565b346101b65760003660031901126101b657610805610d1b565b61080d610f97565b600160ff1960025416176002557f62e78cea01bee320cd4e420270b5ea74000d11b0c9f74754ebdbfc544b05a2586020604051338152a1005b346101b65760003660031901126101b6576000546040516001600160a01b039091168152602090f35b346101b65760003660031901126101b6574660005260056020526020600160406000200154604051908152f35b346101b65760403660031901126101b65760206104866108ba610236565b6108c2610220565b9061120d565b346101b65760403660031901126101b65760206108e3610236565b6108ee6104f5610220565b5416604051908152f35b346101b65760403660031901126101b657602435600435610917610d1b565b7f528d9479e9f9889a87a3c30c7f7ba537e5e59c4c85a37733b16e57c62df6130260206000938385526005825261095460ff604087205416610e2b565b6109626103e8821115611365565b83855260058252806001604087200155604051908152a280f35b346101b65760403660031901126101b657610995610236565b61099d610220565b906109a6610f97565b6001600160a01b03908282168183166109c181831415610d47565b1015610bc657915b6109d68284161515610d93565b610a35610a2f610a23610a16846109ff8860018060a01b03166000526003602052604060002090565b9060018060a01b0316600052602052604060002090565b546001600160a01b031690565b6001600160a01b031690565b15610ddf565b610a64610a4c466000526005602052604060002090565b610a5f610a5a825460ff1690565b610e2b565b6113b1565b611c40610a7360208201610efe565b9080825260208201906114448239604051606086811b6bffffffffffffffffffffffff19908116602084019081529186901b16603483015246604880840191909152825290610ac3606882610ecd565b5190209151906000f591821690813b156101b65760405163485cc95560e01b81526001600160a01b03858116600483015282166024820152916000908390604490829084905af1918215610bc157610671946109ff8593610b4c93610b8596610ba8575b50610b6b85610b4c836109ff8760018060a01b03166000526003602052604060002090565b80546001600160a01b0319166001600160a01b03909216919091179055565b6001600160a01b0316600090815260036020526040902090565b610b8e81610f18565b6040516001600160a01b0390911681529081906020820190565b80610bb5610bbb92610e97565b806102cf565b38610b27565b610f0c565b6109c9565b346101b65760203660031901126101b657610be4611287565b5060043560005260056020526106716040600020600b61073c610eef565b346101b65760403660031901126101b657600435610c1e6101a7565b90610c27610d1b565b7f9d2252acf0642dade0048f8cc7cb9554293248fcc090d8e39275c81e43a2a9ac602060009383855260058252610c6460ff604087205416610e2b565b83855260058252610c8781600560408820019060ff801983541691151516179055565b6040519015158152a280f35b346101b65760203660031901126101b657610cac610236565b610cb4610d1b565b6001600160a01b039081168015610d0257600080546001600160a01b03198116831782559092167f8be0079c531659141344cd1fd0a4f28419497f9722a3daafe3b4186f6b6457e08380a380f35b604051631e4fbdf760e01b815260006004820152602490fd5b6000546001600160a01b03163303610d2f57565b60405163118cdaa760e01b8152336004820152602490fd5b15610d4e57565b60405162461bcd60e51b815260206004820152601f60248201527f444558466163746f72793a204944454e544943414c5f414444524553534553006044820152606490fd5b15610d9a57565b60405162461bcd60e51b815260206004820152601860248201527f444558466163746f72793a205a45524f5f4144445245535300000000000000006044820152606490fd5b15610de657565b60405162461bcd60e51b815260206004820152601760248201527f444558466163746f72793a20504149525f4558495354530000000000000000006044820152606490fd5b15610e3257565b60405162461bcd60e51b815260206004820152602160248201527f444558466163746f72793a204e6574776f726b206e6f7420737570706f7274656044820152601960fa1b6064820152608490fd5b634e487b7160e01b600052604160045260246000fd5b67ffffffffffffffff8111610eab57604052565b610e81565b610180810190811067ffffffffffffffff821117610eab57604052565b90601f8019910116810190811067ffffffffffffffff821117610eab57604052565b60405190610efc82610eb0565b565b90610efc6040519283610ecd565b6040513d6000823e3d90fd5b60045468010000000000000000811015610eab576001810180600455811015610f815760046000527f8a35acfbc15ff81a39ae7d344fd709f28e8600b4aa8c65c6b64bfe7fe36bd19b0180546001600160a01b0319166001600160a01b03909216919091179055565b634e487b7160e01b600052603260045260246000fd5b60ff60025416610fa357565b60405163d93c066560e01b8152600490fd5b9a97939461101e956110499b989461100a939b9894610fd2610d1b565b610fea6040519d8e610fe381610eb0565b9015159052565b60208d015261271060408d015260608c015260808b0152151560a08a0152565b60c088015260e08701521515610100860152565b610120840152610140830152610160820152611044836000526005602052604060002090565b611092565b7f9685d1199f1eaa66f3f727d7f597fe75d3c00155694d90ff57824c617be6ae9b61108d611081836000526005602052604060002090565b6040519182918261115c565b0390a2565b90610160600b916110b86110a68251151590565b859060ff801983541691151516179055565b602081015160018501556040810151600285015560608101516003850155608081015160048501556111056110f060a0830151151590565b600586019060ff801983541691151516179055565b60c0810151600685015560e0810151600785015561113f61112a610100830151151590565b600886019060ff801983541691151516179055565b6101208101516009850155610140810151600a8501550151910155565b919091610160600b61018083019461117f84611179835460ff1690565b15159052565b600181015460208501526002810154604085015260038101546060850152600481015460808501526111c16111b8600583015460ff1690565b151560a0860152565b600681015460c0850152600781015460e08501526111f06111e6600883015460ff1690565b1515610100860152565b6009810154610120850152600a8101546101408501520154910152565b46600052600560205260406000209160ff6008840154161561127e576001600160a01b039161125f91908382168185161015611274576001600160a01b031660009081526003602052604090206109ff565b54161561126d576001015490565b600b015490565b906109ff90610b6b565b50506001015490565b60405190610180820182811067ffffffffffffffff821117610eab57604052816101606000918281528260208201528260408201528260608201528260808201528260a08201528260c08201528260e08201528261010082015282610120820152826101408201520152565b634e487b7160e01b600052601160045260246000fd5b906207a12091820180921161131a57565b6112f3565b6000526005602052604060002060ff8154161561135f5760ff60056003830154920154166113535761135090611309565b90565b6113509060011c611309565b50600090565b1561136c57565b60405162461bcd60e51b815260206004820152601860248201527f444558466163746f72793a204645455f544f4f5f4849474800000000000000006044820152606490fd5b600090816004928354915b82811061142f575050506006015415158061142a575b156113da5750565b60849060206040519162461bcd60e51b83528201526024808201527f444558466163746f72793a20546f6f206d616e7920706169727320666f72207460448201526337b5b2b760e11b6064820152fd5b6113d2565b848252600019811461131a576001016113bc56fe6080806040523461002d576001600055600480546001600160a01b03191633179055611c0d90816100338239f35b600080fdfe6080604052600436101561001257600080fd5b6000803560e01c8063022c0d9f146111d057806306fdde031461118b5780630902f1ac14611132578063095ea7b3146110b95780630dfe16811461108c57806318160ddd1461106e57806323b872dd14610f9257806330adf81f14610f57578063313ce56714610f3b5780633644e51514610f20578063485cc95514610e205780635909c0d514610e025780635a3d549314610de45780635c975abb14610dc15780636a62784214610adc57806370a0823114610aa35780637464fc3d14610a6d5780637ecebe0014610a3457806389afcb441461077957806395d89b411461073a578063a9059cbb146106a9578063ba9a7a561461068c578063bc25cf771461054f578063c45a015514610526578063d21220a7146104fd578063d505accf146102cb578063dd62ed3e1461027c5763fff6cae91461015157600080fd5b3461027957806003193601126102795761016961188f565b6001546040516370a0823160e01b808252306004830152916020916001600160a01b039183908290602490829060081c86165afa91821561026e578391869361023d575b50600254169360246040518096819382523060048301525afa9182156102325784926101fb575b506101f49250600354916001600160701b03808460701c169316916118bf565b6001815580f35b90915082813d831161022b575b61021281836117f9565b81010312610226576101f4915190386101d4565b600080fd5b503d610208565b6040513d86823e3d90fd5b8281939294503d8311610267575b61025581836117f9565b810103126102265782905191386101ad565b503d61024b565b6040513d87823e3d90fd5b80fd5b50346102795760403660031901126102795761029661174c565b60406102a0611762565b9260018060a01b03809316815260096020522091166000526020526020604060002054604051908152f35b50346102795760e0366003190112610279576102e561174c565b6102ed611762565b604435606435906084359360ff85168095036104f9574283106104c15760018060a01b0380911693848752602093600a8552604088209687549760001989146104ad576001890190556040519184878401947f6e71edae12b1b97f4d1f60370fef10105fa2faae0126114a169c64845d6126c98652896040860152169889606085015286608085015260a084015260c083015260c0825260e082019082821067ffffffffffffffff8311176104975786938a936080936040525190206103b1611aa6565b90604051908682019261190160f01b845260228301526042820152604281526103d9816117dd565b519020906040519182528482015260a435604082015260c435606082015282805260015afa1561026e5783908651160361045257907f8c5be1e5ebec7d5bd14f71427d1e84f3dd0314c0f7b2291e5b200ac8c7c3b92591838652600982526040862085600052825280604060002055604051908152a380f35b60405162461bcd60e51b815260048101839052601a60248201527f444558506169723a20494e56414c49445f5349474e41545552450000000000006044820152606490fd5b634e487b7160e01b600052604160045260246000fd5b634e487b7160e01b8a52601160045260248afd5b60405162461bcd60e51b815260206004820152601060248201526f11115614185a5c8e881156141254915160821b6044820152606490fd5b8580fd5b50346102795780600319360112610279576002546040516001600160a01b039091168152602090f35b50346102795780600319360112610279576004546040516001600160a01b039091168152602090f35b5034610279576020806003193601126106885761056a61174c565b6001546002546040516370a0823160e01b80825230600483015290946001600160a01b039283169493909260089190911c168286602481845afa95861561067d57879661064c575b506105d590846105cf6001600160701b039889600354169061181b565b91611a1d565b6040519081523060048201528181602481875afa918215610641578692610611575b50506105cf9061060e9460035460701c169061181b565b80f35b90809250813d831161063a575b61062881836117f9565b810103126102265751836105cf6105f7565b503d61061e565b6040513d88823e3d90fd5b9095508281813d8311610676575b61066481836117f9565b810103126102265751946105d56105b2565b503d61065a565b6040513d89823e3d90fd5b5080fd5b503461027957806003193601126102795760206040516103e88152f35b5034610279576040366003190112610279576106c361174c565b60406024359133845260076020528184206106df84825461181b565b90556001600160a01b03168084526007602052922080546107019083906118b2565b90556040519081527fddf252ad1be2c89b69c2b068fc378daa952ba7f163c4a11628f55a4df523b3ef60203392a3602060405160018152f35b503461027957806003193601126102795761077560405161075a816117c1565b600281526104c560f41b602082015260405191829182611778565b0390f35b5034610279576020806003193601126106885761079461174c565b9061079d61188f565b6107a5611871565b6107c46003546001600160701b0391828216928260701c169160e01c90565b5091909360018060a01b03928360015460081c169360025416604051946370a0823160e01b908187523060048801528587602481845afa96871561026e578597610a05575b50604051978289523060048a01528689602481875afa9889156106415786996109d6575b503086526007875261085f6040872054986108536108588b61085360085494859261183e565b611851565b9b8b61183e565b97891515806109cd575b1561097957916108b089899361089c60249796308c526007875260408c2061089282825461181b565b905560085461181b565b6008556108aa8d8286611a1d565b87611a1d565b604051938480928582523060048301525afa91821561026e579086918693610948575b5060246040518095819382523060048301525afa918215610232578492610912575b509160409761090792600195946118bf565b558351928352820152f35b915092918482813d8311610941575b61092b81836117f9565b81010312610226579051919290919060406108f5565b503d610921565b8281939294503d8311610972575b61096081836117f9565b810103126102265785905191386108d3565b503d610956565b60405162461bcd60e51b815260048101899052602660248201527f444558506169723a20494e53554646494349454e545f4c49515549444954595f60448201526510955493915160d21b6064820152608490fd5b50881515610869565b9098508681813d83116109fe575b6109ee81836117f9565b810103126102265751973861082d565b503d6109e4565b9096508581813d8311610a2d575b610a1d81836117f9565b8101031261022657519538610809565b503d610a13565b5034610279576020366003190112610279576020906040906001600160a01b03610a5c61174c565b168152600a83522054604051908152f35b50346102795780600319360112610279576020610a9b6003546001600160701b03808260701c16911661183e565b604051908152f35b5034610279576020366003190112610279576020906040906001600160a01b03610acb61174c565b168152600783522054604051908152f35b50346102795760208060031936011261068857610af761174c565b610aff61188f565b610b07611871565b610b266003546001600160701b0391828216928260701c169160e01c90565b5090936001918254956040516370a0823160e01b9081815230600482015260249888828b8160018060a01b03809560081c165afa918215610641578692610d92575b50888160025416938b6040518096819382523060048301525afa928315610641578693610d63575b506001600160701b039788851698610ba88a8561181b565b90871690610bb6828761181b565b916008549b8c15600014610d2e57505090610bd09161183e565b876003821115610d21575080808a1c8a8101809111610d0e57905b828210610cf05750505b6103e7198101908111610cdd57986103e890818101809111610cc8576008556000805260078b5260406000208054918201809211610cc857555b8815610c755788999a50610c4a610c6c9798996008546118b2565b60085516600052600789526040600020610c658982546118b2565b90556118bf565b55604051908152f35b60405162461bcd60e51b8152600481018b90526026818d01527f444558506169723a20494e53554646494349454e545f4c49515549444954595f60448201526513525395115160d21b6064820152608490fd5b8c634e487b7160e01b60005260116004526000fd5b634e487b7160e01b885260116004528b88fd5b909150610d0682610d018184611851565b6118b2565b8a1c90610beb565b634e487b7160e01b8a5260116004528d8afd5b9015610bf5575087610bf5565b9b610d46610d4c94959d61085383610853959661183e565b9461183e565b80821015610d5c57505b97610c2f565b9050610d56565b9092508881813d8311610d8b575b610d7b81836117f9565b8101031261022657519138610b90565b503d610d71565b9091508881813d8311610dba575b610daa81836117f9565b8101031261022657519038610b68565b503d610da0565b5034610279578060031936011261027957602060ff600154166040519015158152f35b50346102795780600319360112610279576020600654604051908152f35b50346102795780600319360112610279576020600554604051908152f35b503461027957604036600319011261027957610e3a61174c565b610e42611762565b6004546001600160a01b03929083163303610ee65760015490838260081c16610ea157610100600160a81b031990911660089190911b610100600160a81b031617600155600280546001600160a01b0319169290911691909117905580f35b60405162461bcd60e51b815260206004820152601c60248201527f444558506169723a20414c52454144595f494e495449414c495a4544000000006044820152606490fd5b60405162461bcd60e51b81526020600482015260126024820152712222ac2830b4b91d102327a92124a22222a760711b6044820152606490fd5b50346102795780600319360112610279576020610a9b611aa6565b5034610279578060031936011261027957602060405160128152f35b503461027957806003193601126102795760206040517f6e71edae12b1b97f4d1f60370fef10105fa2faae0126114a169c64845d6126c98152f35b503461027957606036600319011261027957610fac61174c565b90610fb5611762565b7fddf252ad1be2c89b69c2b068fc378daa952ba7f163c4a11628f55a4df523b3ef6044359160018060a01b03809516928385526040602096879360098552828820336000528552600019836000205403611048575b8688526007855282882061101f85825461181b565b9055169586815260078452206110368282546118b2565b9055604051908152a360405160018152f35b868852600985528288203360005285528260002061106785825461181b565b905561100a565b50346102795780600319360112610279576020600854604051908152f35b503461027957806003193601126102795760015460405160089190911c6001600160a01b03168152602090f35b5034610279576040366003190112610279576110d361174c565b906040602435913381526009602052209160018060a01b03169182600052602052806040600020556040519081527f8c5be1e5ebec7d5bd14f71427d1e84f3dd0314c0f7b2291e5b200ac8c7c3b92560203392a3602060405160018152f35b5034610279578060031936011261027957606063ffffffff6111696003546001600160701b0391828216928260701c169160e01c90565b909291604051936001600160701b038092168552166020840152166040820152f35b50346102795780600319360112610279576107756040516111ab816117c1565b600c81526b2222ac102628102a37b5b2b760a11b602082015260405191829182611778565b5034610279576080366003190112610279576001600160a01b039060443582811681036106885760643567ffffffffffffffff811161174857366023820112156117485767ffffffffffffffff816004013511611748573660248260040135830101116117485761123f61188f565b611247611871565b600435158015809161173d575b156116ec576112786003546001600160701b0391828216928260701c169160e01c90565b509390926001600160701b03841660043510806116d8575b15611693578660015460081c169187600254169383898316141580611687575b1561164c5761163a575b602435978861162a575b8260040135611574575b5050506040519586916370a0823160e01b9081845230600485015283602460209a8b935afa92831561067d579088918894611543575b5060246040518096819382523060048301525afa928315610641578693611514575b5061133c6004356001600160701b03861661181b565b82111561150e5761136161135b6004356001600160701b03871661181b565b8361181b565b6001600160701b03861691611376818461181b565b8511156115075761138a611390918461181b565b8561181b565b8115918215836114fe575b156114ae576103e8928386029086820485148715171561149a576003830292830460031417156104ad57906113cf9161181b565b9180860290868204148615171561148657600382029180830460031490151715611486579161140461140a9261141a9461181b565b9061183e565b916001600160701b03861661183e565b90620f4240918281029281840414901517156114725710611440576101f49495506118bf565b60405162461bcd60e51b815260048101879052600a602482015269444558506169723a204b60b01b6044820152606490fd5b634e487b7160e01b87526011600452602487fd5b634e487b7160e01b89526011600452602489fd5b634e487b7160e01b8b52601160045260248bfd5b60405162461bcd60e51b8152600481018b9052602260248201527f444558506169723a20494e53554646494349454e545f494e5055545f414d4f55604482015261139560f21b6064820152608490fd5b5081151561139b565b5086611390565b85611361565b9092508681813d831161153c575b61152c81836117f9565b8101031261022657519138611326565b503d611522565b8281939295503d831161156d575b61155b81836117f9565b81010312610226578790519238611304565b503d611551565b8082163b1561162657918791898360a495604051968780968195635f54e79b60e11b835233600484015260043560248401526044830152608060648301528060040135608483015280600401356024820184840137600401358181018301859052601f01601f19168101030193165af18015610641576115f6575b80806112ce565b67ffffffffffffffff81969296116116125760405293386115ef565b634e487b7160e01b82526041600452602482fd5b8780fd5b611635898387611a1d565b6112c4565b6116476004358285611a1d565b6112ba565b60405162461bcd60e51b8152602060048201526013602482015272444558506169723a20494e56414c49445f544f60681b6044820152606490fd5b508489831614156112b0565b60405162461bcd60e51b815260206004820152601f60248201527f444558506169723a20494e53554646494349454e545f4c4951554944495459006044820152606490fd5b506001600160701b03851660243510611290565b60405162461bcd60e51b815260206004820152602360248201527f444558506169723a20494e53554646494349454e545f4f55545055545f414d4f60448201526215539560ea1b6064820152608490fd5b506024351515611254565b8280fd5b600435906001600160a01b038216820361022657565b602435906001600160a01b038216820361022657565b6020808252825181830181905290939260005b8281106117ad57505060409293506000838284010152601f8019910116010190565b81810186015184820160400152850161178b565b6040810190811067ffffffffffffffff82111761049757604052565b6080810190811067ffffffffffffffff82111761049757604052565b90601f8019910116810190811067ffffffffffffffff82111761049757604052565b9190820391821161182857565b634e487b7160e01b600052601160045260246000fd5b8181029291811591840414171561182857565b811561185b570490565b634e487b7160e01b600052601260045260246000fd5b60ff6001541661187d57565b60405163d93c066560e01b8152600490fd5b6002600054146118a0576002600055565b604051633ee5aeb560e01b8152600490fd5b9190820180921161182857565b916001600160701b03908184111580611a13575b156119da576003549363ffffffff9460e01c8542160391858311611828577fcf2aa50876cdfbb541206f89af0ee78d44a2abf8d328e37fa4917f982149848a96604096859416801515806119cf575b806119c4575b61196b575b505050607093841b600160701b600160e01b031691169081174260e01b6001600160e01b031916176003819055845191825290921c166020820152a1565b6119b9926119b1926001600160e01b039161199b9190611996906119a96119a1878787858789611b8a565b611bb9565b1661183e565b6005546118b2565b600555611b8a565b6006546118b2565b60065538808061192d565b508482161515611928565b508483161515611922565b60405162461bcd60e51b8152602060048201526011602482015270444558506169723a204f564552464c4f5760781b6044820152606490fd5b50818311156118d3565b9160006020916040518381019163a9059cbb60e01b835260018060a01b038096166024830152604482015260448152611a55816117dd565b519082865af115611a9a576000513d611a9157508082163b155b611a77575050565b604051635274afe760e01b81529116600482015260249150fd5b60011415611a6f565b6040513d6000823e3d90fd5b6b2222ac102628102a37b5b2b760a11b6020604051611ac4816117c1565b600c81520152603160f81b6020604051611add816117c1565b60018152015260405160208101907f8b73c3c69bb8fe3d512ecc4cf759cc79239f7b179b0ffacaa9a75d522b39400f82527f03cdc1b3942c53ee9c2070aaa3b60e6c18aae77653867f02fd9cd306602f723660408201527fc89efdaa54c0f20c7adf612882df0950f5a951637e0307cdcb4c672f298b8bc660608201524660808201523060a082015260a0815260c0810181811067ffffffffffffffff8211176104975760405251902090565b600160701b600160e01b03607082901b16906001600160701b0316808204600160701b14901517156118285790565b906001600160701b031690811561185b576001600160e01b0316049056fea2646970667358221220a736efa643460f74cd7bfaf932cb92cfe394ed36a4679ffb07a83a763cc5266f64736f6c63430008140033a26469706673582212205d0998af8938bbf14fd2d448a68ffb8162ff5c0a3b9ec351ad6f5c292b36463464736f6c634300081400339685d1199f1eaa66f3f727d7f597fe75d3c00155694d90ff57824c617be6ae9b",
  "linkReferences": {},
  "deployedLinkReferences": {}
}