{
  "_format": "hh-sol-artifact-1",
  "contractName": "Treasury",
  "sourceName": "contracts/Treasury.sol",
  "abi": [
    {
      "inputs": [
        {
          "internalType": "address",
          "name": "initialOwner",
          "type": "address"
        }
      ],
      "stateMutability": "nonpayable",
      "type": "constructor"
    },
    {
      "inputs": [
        {
          "internalType": "address",
          "name": "owner",
          "type": "address"
        }
      ],
      "name": "OwnableInvalidOwner",
      "type": "error"
    },
    {
      "inputs": [
        {
          "internalType": "address",
          "name": "account",
          "type": "address"
        }
      ],
      "name": "OwnableUnauthorizedAccount",
      "type": "error"
    },
    {
      "inputs": [],
      "name": "ReentrancyGuardReentrantCall",
      "type": "error"
    },
    {
      "inputs": [
        {
          "internalType": "address",
          "name": "token",
          "type": "address"
        }
      ],
      "name": "SafeERC20FailedOperation",
      "type": "error"
    },
    {
      "anonymous": false,
      "inputs": [
        {
          "indexed": true,
          "internalType": "address",
          "name": "previousOwner",
          "type": "address"
        },
        {
          "indexed": true,
          "internalType": "address",
          "name": "newOwner",
          "type": "address"
        }
      ],
      "name": "OwnershipTransferred",
      "type": "event"
    },
    {
      "anonymous": false,
      "inputs": [
        {
          "indexed": true,
          "internalType": "address",
          "name": "from",
          "type": "address"
        },
        {
          "indexed": false,
          "internalType": "uint256",
          "name": "amount",
          "type": "uint256"
        }
      ],
      "name": "Received",
      "type": "event"
    },
    {
      "anonymous": false,
      "inputs": [
        {
          "indexed": true,
          "internalType": "address",
          "name": "to",
          "type": "address"
        },
        {
          "indexed": false,
          "internalType": "uint256",
          "name": "amount",
          "type": "uint256"
        }
      ],
      "name": "WithdrawnETH",
      "type": "event"
    },
    {
      "anonymous": false,
      "inputs": [
        {
          "indexed": true,
          "internalType": "address",
          "name": "token",
          "type": "address"
        },
        {
          "indexed": true,
          "internalType": "address",
          "name": "to",
          "type": "address"
        },
        {
          "indexed": false,
          "internalType": "uint256",
          "name": "amount",
          "type": "uint256"
        }
      ],
      "name": "WithdrawnToken",
      "type": "event"
    },
    {
      "inputs": [],
      "name": "balanceETH",
      "outputs": [
        {
          "internalType": "uint256",
          "name": "",
          "type": "uint256"
        }
      ],
      "stateMutability": "view",
      "type": "function"
    },
    {
      "inputs": [
        {
          "internalType": "address",
          "name": "token",
          "type": "address"
        }
      ],
      "name": "balanceToken",
      "outputs": [
        {
          "internalType": "uint256",
          "name": "",
          "type": "uint256"
        }
      ],
      "stateMutability": "view",
      "type": "function"
    },
    {
      "inputs": [],
      "name": "owner",
      "outputs": [
        {
          "internalType": "address",
          "name": "",
          "type": "address"
        }
      ],
      "stateMutability": "view",
      "type": "function"
    },
    {
      "inputs": [],
      "name": "renounceOwnership",
      "outputs": [],
      "stateMutability": "nonpayable",
      "type": "function"
    },
    {
      "inputs": [
        {
          "internalType": "address",
          "name": "newOwner",
          "type": "address"
        }
      ],
      "name": "transferOwnership",
      "outputs": [],
      "stateMutability": "nonpayable",
      "type": "function"
    },
    {
      "inputs": [
        {
          "internalType": "address payable",
          "name": "to",
          "type": "address"
        },
        {
          "internalType": "uint256",
          "name": "amount",
          "type": "uint256"
        }
      ],
      "name": "withdrawETH",
      "outputs": [],
      "stateMutability": "nonpayable",
      "type": "function"
    },
    {
      "inputs": [
        {
          "internalType": "address",
          "name": "token",
          "type": "address"
        },
        {
          "internalType": "address",
          "name": "to",
          "type": "address"
        },
        {
          "internalType": "uint256",
          "name": "amount",
          "type": "uint256"
        }
      ],
      "name": "withdrawToken",
      "outputs": [],
      "stateMutability": "nonpayable",
      "type": "function"
    },
    {
      "stateMutability": "payable",
      "type": "receive"
    }
  ],
  "bytecode": "0x60806040523462000030576200001e62000018620000d3565b620000f6565b604051610c4e620002ca8239610c4e90f35b600080fd5b634e487b7160e01b600052604160045260246000fd5b90601f01601f191681019081106001600160401b038211176200006d57604052565b62000035565b906200008a6200008260405190565b92836200004b565b565b6001600160a01b031690565b90565b6001600160a01b038116036200003057565b905051906200008a826200009b565b9060208282031262000030576200009891620000ad565b6200009862000f1880380380620000ea8162000073565b928339810190620000bc565b6200008a906200014d565b6200009862000098620000989290565b62000098600162000101565b90600019905b9181191691161790565b906200014162000098620001499262000101565b82546200011d565b9055565b62000158906200019c565b6200008a6200016662000111565b60016200012d565b6200008c62000098620000989290565b62000098906200016e565b6001600160a01b03909116815260200190565b620001a860006200017e565b6001600160a01b0381166001600160a01b03831614620001ce57506200008a9062000267565b620001f490620001dd60405190565b631e4fbdf760e01b81529182916004830162000189565b0390fd5b62000098906200008c565b620000989054620001f8565b906001600160a01b039062000123565b62000098906200008c906001600160a01b031682565b62000098906200021f565b620000989062000235565b906200025f62000098620001499262000240565b82546200020f565b62000273600062000203565b90620002818160006200024b565b620002b8620002b17f8be0079c531659141344cd1fd0a4f28419497f9722a3daafe3b4186f6b6457e09362000240565b9162000240565b91620002c360405190565b600090a356fe60806040526004361015610023575b361561001957600080fd5b6100216104c6565b005b60003560e01c806301e3366714610093578063045990121461008e5780634782f77914610089578063715018a6146100845780638da5cb5b1461007f578063ecbdbb321461007a5763f2fde38b0361000e5761025f565b610244565b6101eb565b6101d3565b6101af565b610160565b61012a565b73ffffffffffffffffffffffffffffffffffffffff1690565b90565b73ffffffffffffffffffffffffffffffffffffffff81165b036100d357565b600080fd5b905035906100e5826100b4565b565b806100cc565b905035906100e5826100e7565b90916060828403126100d3576100b161011384846100d8565b9361012181602086016100d8565b936040016100ed565b346100d35761014361013d3660046100fa565b916109bc565b604051005b0390f35b906020828203126100d3576100b1916100d8565b346100d35761014861017b61017636600461014c565b610b6e565b6040515b9182918290815260200190565b91906040838203126100d3576100b1906101a681856100d8565b936020016100ed565b346100d3576101436101c236600461018c565b906107f0565b60009103126100d357565b346100d3576101e33660046101c8565b6101436102af565b346100d3576101fb3660046101c8565b61014861021d60005473ffffffffffffffffffffffffffffffffffffffff1690565b6040519182918273ffffffffffffffffffffffffffffffffffffffff909116815260200190565b346100d3576102543660046101c8565b61014861017b610b40565b346100d35761014361027236600461014c565b6103e1565b61027f6102b7565b6100e561029d565b6100986100b16100b19290565b6100b190610287565b6100e56102aa6000610294565b61045c565b6100e5610277565b600054339073ffffffffffffffffffffffffffffffffffffffff168190036102dc5750565b610333906102e960405190565b9182917f118cdaa70000000000000000000000000000000000000000000000000000000083526004830173ffffffffffffffffffffffffffffffffffffffff909116815260200190565b0390fd5b6100e5906103436102b7565b61034d6000610294565b73ffffffffffffffffffffffffffffffffffffffff811673ffffffffffffffffffffffffffffffffffffffff83161461038a57506100e59061045c565b6103339061039760405190565b9182917f1e4fbdf70000000000000000000000000000000000000000000000000000000083526004830173ffffffffffffffffffffffffffffffffffffffff909116815260200190565b6100e590610337565b9073ffffffffffffffffffffffffffffffffffffffff905b9181191691161790565b6100986100b16100b19273ffffffffffffffffffffffffffffffffffffffff1690565b6100b19061040c565b6100b19061042f565b906104516100b161045892610438565b82546103ea565b9055565b60005473ffffffffffffffffffffffffffffffffffffffff1690610481816000610441565b6104b46104ae7f8be0079c531659141344cd1fd0a4f28419497f9722a3daafe3b4186f6b6457e093610438565b91610438565b916104be60405190565b80805b0390a3565b347f88a5966d370b9919b20f3e2c13ff65706f196a4e32cc2c12bf57088f885258746104fe6104f433610438565b9261017f60405190565b0390a2565b906100e5916105106102b7565b906105229161051d610861565b610755565b6100e56108ba565b1561053157565b6040517f08c379a000000000000000000000000000000000000000000000000000000000815260206004820152601660248201527f54726561737572793a207a65726f2061646472657373000000000000000000006044820152606490fd5b1561059757565b6040517f08c379a000000000000000000000000000000000000000000000000000000000815260206004820152601e60248201527f54726561737572793a20696e73756666696369656e742062616c616e636500006044820152606490fd5b7f4e487b7100000000000000000000000000000000000000000000000000000000600052604160045260246000fd5b90601f017fffffffffffffffffffffffffffffffffffffffffffffffffffffffffffffffe016810190811067ffffffffffffffff82111761066557604052565b6105f6565b906100e561067760405190565b9283610625565b67ffffffffffffffff811161066557602090601f017fffffffffffffffffffffffffffffffffffffffffffffffffffffffffffffffe0160190565b906106cb6106c68361067e565b61066a565b918252565b3d156106ea576106df3d6106b9565b903d6000602084013e565b606090565b156106f657565b6040517f08c379a000000000000000000000000000000000000000000000000000000000815260206004820152601d60248201527f54726561737572793a20455448207472616e73666572206661696c65640000006044820152606490fd5b906107c26107a260009361077e61076e61009887610294565b61077783610438565b141561052a565b61079d61078a30610438565b859031610796565b9190565b1015610590565b610438565b92806107ad60405190565b60009085875af16107bc6106d0565b506106ef565b6104fe7f5817fe91d2748c33f168d8a78037fc073adaf6ec8e3613a758d44a2cfae4563d9161017f60405190565b906100e591610503565b6100b19081565b6100b190546107fa565b6100b16100b16100b19290565b6100b1600261080b565b907fffffffffffffffffffffffffffffffffffffffffffffffffffffffffffffffff90610402565b9061085a6100b16104589261080b565b8254610822565b61086b6001610801565b610873610818565b908114610885576100e590600161084a565b6040517f3ee5aeb5000000000000000000000000000000000000000000000000000000008152600490fd5b6100b1600161080b565b6100e56108c56108b0565b600161084a565b906100e592916108da6102b7565b9061052292916108e8610861565b6109326108f56000610294565b73ffffffffffffffffffffffffffffffffffffffff811673ffffffffffffffffffffffffffffffffffffffff841614159081610985575b5061052a565b610945838361094084610438565b610a2f565b6104c161097b6109757f11dd463c4f2edd676b85f050130c7ab2f5832f52becb5444b09a92404aa1498a93610438565b93610438565b9361017f60405190565b73ffffffffffffffffffffffffffffffffffffffff16905073ffffffffffffffffffffffffffffffffffffffff841614153861092c565b906100e592916108cc565b6109e06109da6100b19263ffffffff1690565b60e01b90565b7fffffffff000000000000000000000000000000000000000000000000000000001690565b73ffffffffffffffffffffffffffffffffffffffff90911681526040810192916100e59160200152565b610a72600492610a636100e595610a4963a9059cbb6109c7565b92610a5360405190565b9687946020860190815201610a05565b60208201810382520383610625565b906000602091610a80600090565b50828151910182855af115610b3457600080513d610aa06107928461080b565b03610b1e5750610abc610792610ab584610438565b3b9261080b565b145b610ac55750565b610ad161033391610438565b6040519182917f5274afe70000000000000000000000000000000000000000000000000000000083526004830173ffffffffffffffffffffffffffffffffffffffff909116815260200190565b9050610b2d610792600161080b565b1415610abe565b6040513d6000823e3d90fd5b610b4930610438565b3190565b905051906100e5826100e7565b906020828203126100d3576100b191610b4d565b6020610b8861079d610bd593610b82600090565b50610438565b6370a0823190610bb1610b9a30610438565b92610ba460405190565b9586948593849360e01b90565b835273ffffffffffffffffffffffffffffffffffffffff1660048301526024820190565b03915afa908115610c1357600091610beb575090565b6100b1915060203d8111610c0c575b610c048183610625565b810190610b5a565b503d610bfa565b610b3456fea26469706673582212208686be0256e71e59a3097d86d11204e9761cd0b6cee1961da7d50166341c378564736f6c63430008140033",
  "linkReferences": {},
  "deployedLinkReferences": {}
}