{
  "_format": "hh-sol-artifact-1",
  "contractName": "AdvancedERC20",
  "sourceName": "contracts/AdvancedERC20.sol",
  "abi": [
    {
      "inputs": [
        {
          "internalType": "string",
          "name": "name",
          "type": "string"
        },
        {
          "internalType": "string",
          "name": "symbol",
          "type": "string"
        },
        {
          "internalType": "uint8",
          "name": "decimals_",
          "type": "uint8"
        },
        {
          "internalType": "uint256",
          "name": "initialSupply",
          "type": "uint256"
        },
        {
          "internalType": "address",
          "name": "freezingAuthority_",
          "type": "address"
        },
        {
          "internalType": "string",
          "name": "logo_",
          "type": "string"
        },
        {
          "internalType": "string",
          "name": "website_",
          "type": "string"
        },
        {
          "internalType": "string",
          "name": "description_",
          "type": "string"
        },
        {
          "internalType": "string",
          "name": "twitter_",
          "type": "string"
        },
        {
          "internalType": "string",
          "name": "telegram_",
          "type": "string"
        },
        {
          "internalType": "string",
          "name": "discord_",
          "type": "string"
        },
        {
          "internalType": "string",
          "name": "github_",
          "type": "string"
        },
        {
          "internalType": "string",
          "name": "medium_",
          "type": "string"
        },
        {
          "internalType": "string",
          "name": "reddit_",
          "type": "string"
        },
        {
          "internalType": "bool",
          "name": "renounceMint",
          "type": "bool"
        },
        {
          "internalType": "bool",
          "name": "enableBlacklist",
          "type": "bool"
        },
        {
          "internalType": "uint256",
          "name": "maxTxAmount_",
          "type": "uint256"
        },
        {
          "internalType": "address",
          "name": "platformWallet_",
          "type": "address"
        },
        {
          "internalType": "uint256",
          "name": "serviceFee_",
          "type": "uint256"
        },
        {
          "internalType": "bool",
          "name": "enableAntiBot",
          "type": "bool"
        },
        {
          "internalType": "uint256",
          "name": "cooldownPeriod_",
          "type": "uint256"
        },
        {
          "internalType": "bool",
          "name": "enableAntiWhale",
          "type": "bool"
        },
        {
          "internalType": "uint256",
          "name": "maxWalletAmount_",
          "type": "uint256"
        },
        {
          "internalType": "bool",
          "name": "enablePause",
          "type": "bool"
        },
        {
          "internalType": "bool",
          "name": "enableTimelock",
          "type": "bool"
        },
        {
          "internalType": "uint256",
          "name": "timelockDelay_",
          "type": "uint256"
        }
      ],
      "stateMutability": "payable",
      "type": "constructor"
    },
    {
      "inputs": [
        {
          "internalType": "address",
          "name": "spender",
          "type": "address"
        },
        {
          "internalType": "uint256",
          "name": "allowance",
          "type": "uint256"
        },
        {
          "internalType": "uint256",
          "name": "needed",
          "type": "uint256"
        }
      ],
      "name": "ERC20InsufficientAllowance",
      "type": "error"
    },
    {
      "inputs": [
        {
          "internalType": "address",
          "name": "sender",
          "type": "address"
        },
        {
          "internalType": "uint256",
          "name": "balance",
          "type": "uint256"
        },
        {
          "internalType": "uint256",
          "name": "needed",
          "type": "uint256"
        }
      ],
      "name": "ERC20InsufficientBalance",
      "type": "error"
    },
    {
      "inputs": [
        {
          "internalType": "address",
          "name": "approver",
          "type": "address"
        }
      ],
      "name": "ERC20InvalidApprover",
      "type": "error"
    },
    {
      "inputs": [
        {
          "internalType": "address",
          "name": "receiver",
          "type": "address"
        }
      ],
      "name": "ERC20InvalidReceiver",
      "type": "error"
    },
    {
      "inputs": [
        {
          "internalType": "address",
          "name": "sender",
          "type": "address"
        }
      ],
      "name": "ERC20InvalidSender",
      "type": "error"
    },
    {
      "inputs": [
        {
          "internalType": "address",
          "name": "spender",
          "type": "address"
        }
      ],
      "name": "ERC20InvalidSpender",
      "type": "error"
    },
    {
      "inputs": [],
      "name": "EnforcedPause",
      "type": "error"
    },
    {
      "inputs": [],
      "name": "ExpectedPause",
      "type": "error"
    },
    {
      "inputs": [
        {
          "internalType": "address",
          "name": "owner",
          "type": "address"
        }
      ],
      "name": "OwnableInvalidOwner",
      "type": "error"
    },
    {
      "inputs": [
        {
          "internalType": "address",
          "name": "account",
          "type": "address"
        }
      ],
      "name": "OwnableUnauthorizedAccount",
      "type": "error"
    },
    {
      "anonymous": false,
      "inputs": [
        {
          "indexed": true,
          "internalType": "address",
          "name": "owner",
          "type": "address"
        },
        {
          "indexed": true,
          "internalType": "address",
          "name": "spender",
          "type": "address"
        },
        {
          "indexed": false,
          "internalType": "uint256",
          "name": "value",
          "type": "uint256"
        }
      ],
      "name": "Approval",
      "type": "event"
    },
    {
      "anonymous": false,
      "inputs": [
        {
          "indexed": true,
          "internalType": "address",
          "name": "account",
          "type": "address"
        },
        {
          "indexed": false,
          "internalType": "bool",
          "name": "blacklisted",
          "type": "bool"
        }
      ],
      "name": "Blacklist",
      "type": "event"
    },
    {
      "anonymous": false,
      "inputs": [
        {
          "indexed": false,
          "internalType": "uint256",
          "name": "newCooldown",
          "type": "uint256"
        }
      ],
      "name": "CooldownUpdated",
      "type": "event"
    },
    {
      "anonymous": false,
      "inputs": [
        {
          "indexed": true,
          "internalType": "address",
          "name": "account",
          "type": "address"
        },
        {
          "indexed": false,
          "internalType": "bool",
          "name": "frozen",
          "type": "bool"
        }
      ],
      "name": "Freeze",
      "type": "event"
    },
    {
      "anonymous": false,
      "inputs": [
        {
          "indexed": false,
          "internalType": "uint256",
          "name": "newMaxWallet",
          "type": "uint256"
        }
      ],
      "name": "MaxWalletUpdated",
      "type": "event"
    },
    {
      "anonymous": false,
      "inputs": [
        {
          "indexed": true,
          "internalType": "address",
          "name": "previousOwner",
          "type": "address"
        },
        {
          "indexed": true,
          "internalType": "address",
          "name": "newOwner",
          "type": "address"
        }
      ],
      "name": "OwnershipTransferred",
      "type": "event"
    },
    {
      "anonymous": false,
      "inputs": [
        {
          "indexed": false,
          "internalType": "address",
          "name": "account",
          "type": "address"
        }
      ],
      "name": "Paused",
      "type": "event"
    },
    {
      "anonymous": false,
      "inputs": [
        {
          "indexed": false,
          "internalType": "string",
          "name": "plan",
          "type": "string"
        }
      ],
      "name": "PlanUpgraded",
      "type": "event"
    },
    {
      "anonymous": false,
      "inputs": [
        {
          "indexed": true,
          "internalType": "address",
          "name": "payer",
          "type": "address"
        },
        {
          "indexed": false,
          "internalType": "uint256",
          "name": "amount",
          "type": "uint256"
        }
      ],
      "name": "ServiceFeePaid",
      "type": "event"
    },
    {
      "anonymous": false,
      "inputs": [
        {
          "indexed": true,
          "internalType": "bytes32",
          "name": "actionId",
          "type": "bytes32"
        }
      ],
      "name": "TimelockActionExecuted",
      "type": "event"
    },
    {
      "anonymous": false,
      "inputs": [
        {
          "indexed": true,
          "internalType": "bytes32",
          "name": "actionId",
          "type": "bytes32"
        },
        {
          "indexed": false,
          "internalType": "uint256",
          "name": "executeTime",
          "type": "uint256"
        }
      ],
      "name": "TimelockActionScheduled",
      "type": "event"
    },
    {
      "anonymous": false,
      "inputs": [
        {
          "indexed": true,
          "internalType": "address",
          "name": "from",
          "type": "address"
        },
        {
          "indexed": true,
          "internalType": "address",
          "name": "to",
          "type": "address"
        },
        {
          "indexed": false,
          "internalType": "uint256",
          "name": "value",
          "type": "uint256"
        }
      ],
      "name": "Transfer",
      "type": "event"
    },
    {
      "anonymous": false,
      "inputs": [
        {
          "indexed": false,
          "internalType": "address",
          "name": "account",
          "type": "address"
        }
      ],
      "name": "Unpaused",
      "type": "event"
    },
    {
      "inputs": [
        {
          "internalType": "address",
          "name": "owner",
          "type": "address"
        },
        {
          "internalType": "address",
          "name": "spender",
          "type": "address"
        }
      ],
      "name": "allowance",
      "outputs": [
        {
          "internalType": "uint256",
          "name": "",
          "type": "uint256"
        }
      ],
      "stateMutability": "view",
      "type": "function"
    },
    {
      "inputs": [],
      "name": "antiBotEnabled",
      "outputs": [
        {
          "internalType": "bool",
          "name": "",
          "type": "bool"
        }
      ],
      "stateMutability": "view",
      "type": "function"
    },
    {
      "inputs": [],
      "name": "antiWhaleEnabled",
      "outputs": [
        {
          "internalType": "bool",
          "name": "",
          "type": "bool"
        }
      ],
      "stateMutability": "view",
      "type": "function"
    },
    {
      "inputs": [
        {
          "internalType": "address",
          "name": "spender",
          "type": "address"
        },
        {
          "internalType": "uint256",
          "name": "amount",
          "type": "uint256"
        }
      ],
      "name": "approve",
      "outputs": [
        {
          "internalType": "bool",
          "name": "",
          "type": "bool"
        }
      ],
      "stateMutability": "nonpayable",
      "type": "function"
    },
    {
      "inputs": [
        {
          "internalType": "address",
          "name": "account",
          "type": "address"
        }
      ],
      "name": "balanceOf",
      "outputs": [
        {
          "internalType": "uint256",
          "name": "",
          "type": "uint256"
        }
      ],
      "stateMutability": "view",
      "type": "function"
    },
    {
      "inputs": [
        {
          "internalType": "address",
          "name": "account",
          "type": "address"
        },
        {
          "internalType": "bool",
          "name": "blacklistAccount",
          "type": "bool"
        }
      ],
      "name": "blacklist",
      "outputs": [
        {
          "internalType": "bool",
          "name": "",
          "type": "bool"
        }
      ],
      "stateMutability": "nonpayable",
      "type": "function"
    },
    {
      "inputs": [],
      "name": "blacklistAuthority",
      "outputs": [
        {
          "internalType": "address",
          "name": "",
          "type": "address"
        }
      ],
      "stateMutability": "view",
      "type": "function"
    },
    {
      "inputs": [],
      "name": "cooldownPeriod",
      "outputs": [
        {
          "internalType": "uint256",
          "name": "",
          "type": "uint256"
        }
      ],
      "stateMutability": "view",
      "type": "function"
    },
    {
      "inputs": [],
      "name": "decimals",
      "outputs": [
        {
          "internalType": "uint8",
          "name": "",
          "type": "uint8"
        }
      ],
      "stateMutability": "view",
      "type": "function"
    },
    {
      "inputs": [],
      "name": "description",
      "outputs": [
        {
          "internalType": "string",
          "name": "",
          "type": "string"
        }
      ],
      "stateMutability": "view",
      "type": "function"
    },
    {
      "inputs": [],
      "name": "discord",
      "outputs": [
        {
          "internalType": "string",
          "name": "",
          "type": "string"
        }
      ],
      "stateMutability": "view",
      "type": "function"
    },
    {
      "inputs": [],
      "name": "emergencyWithdraw",
      "outputs": [],
      "stateMutability": "nonpayable",
      "type": "function"
    },
    {
      "inputs": [
        {
          "internalType": "address",
          "name": "account",
          "type": "address"
        },
        {
          "internalType": "bool",
          "name": "excluded",
          "type": "bool"
        }
      ],
      "name": "excludeFromLimits",
      "outputs": [],
      "stateMutability": "nonpayable",
      "type": "function"
    },
    {
      "inputs": [
        {
          "internalType": "bytes32",
          "name": "actionId",
          "type": "bytes32"
        }
      ],
      "name": "executeAction",
      "outputs": [],
      "stateMutability": "nonpayable",
      "type": "function"
    },
    {
      "inputs": [
        {
          "internalType": "address",
          "name": "account",
          "type": "address"
        },
        {
          "internalType": "bool",
          "name": "freezeAccount",
          "type": "bool"
        }
      ],
      "name": "freeze",
      "outputs": [
        {
          "internalType": "bool",
          "name": "",
          "type": "bool"
        }
      ],
      "stateMutability": "nonpayable",
      "type": "function"
    },
    {
      "inputs": [],
      "name": "freezingAuthority",
      "outputs": [
        {
          "internalType": "address",
          "name": "",
          "type": "address"
        }
      ],
      "stateMutability": "view",
      "type": "function"
    },
    {
      "inputs": [],
      "name": "github",
      "outputs": [
        {
          "internalType": "string",
          "name": "",
          "type": "string"
        }
      ],
      "stateMutability": "view",
      "type": "function"
    },
    {
      "inputs": [
        {
          "internalType": "address",
          "name": "account",
          "type": "address"
        }
      ],
      "name": "isBlacklisted",
      "outputs": [
        {
          "internalType": "bool",
          "name": "",
          "type": "bool"
        }
      ],
      "stateMutability": "view",
      "type": "function"
    },
    {
      "inputs": [],
      "name": "isEnterprisePlan",
      "outputs": [
        {
          "internalType": "bool",
          "name": "",
          "type": "bool"
        }
      ],
      "stateMutability": "view",
      "type": "function"
    },
    {
      "inputs": [
        {
          "internalType": "address",
          "name": "account",
          "type": "address"
        }
      ],
      "name": "isExcludedFromLimits",
      "outputs": [
        {
          "internalType": "bool",
          "name": "",
          "type": "bool"
        }
      ],
      "stateMutability": "view",
      "type": "function"
    },
    {
      "inputs": [
        {
          "internalType": "address",
          "name": "account",
          "type": "address"
        }
      ],
      "name": "isFrozen",
      "outputs": [
        {
          "internalType": "bool",
          "name": "",
          "type": "bool"
        }
      ],
      "stateMutability": "view",
      "type": "function"
    },
    {
      "inputs": [],
      "name": "isProfessionalPlan",
      "outputs": [
        {
          "internalType": "bool",
          "name": "",
          "type": "bool"
        }
      ],
      "stateMutability": "view",
      "type": "function"
    },
    {
      "inputs": [],
      "name": "logo",
      "outputs": [
        {
          "internalType": "string",
          "name": "",
          "type": "string"
        }
      ],
      "stateMutability": "view",
      "type": "function"
    },
    {
      "inputs": [],
      "name": "maxTxAmount",
      "outputs": [
        {
          "internalType": "uint256",
          "name": "",
          "type": "uint256"
        }
      ],
      "stateMutability": "view",
      "type": "function"
    },
    {
      "inputs": [],
      "name": "maxWalletAmount",
      "outputs": [
        {
          "internalType": "uint256",
          "name": "",
          "type": "uint256"
        }
      ],
      "stateMutability": "view",
      "type": "function"
    },
    {
      "inputs": [],
      "name": "maxWalletEnabled",
      "outputs": [
        {
          "internalType": "bool",
          "name": "",
          "type": "bool"
        }
      ],
      "stateMutability": "view",
      "type": "function"
    },
    {
      "inputs": [],
      "name": "medium",
      "outputs": [
        {
          "internalType": "string",
          "name": "",
          "type": "string"
        }
      ],
      "stateMutability": "view",
      "type": "function"
    },
    {
      "inputs": [
        {
          "internalType": "address",
          "name": "to",
          "type": "address"
        },
        {
          "internalType": "uint256",
          "name": "amount",
          "type": "uint256"
        }
      ],
      "name": "mint",
      "outputs": [],
      "stateMutability": "nonpayable",
      "type": "function"
    },
    {
      "inputs": [],
      "name": "mintAuthorityRemoved",
      "outputs": [
        {
          "internalType": "bool",
          "name": "",
          "type": "bool"
        }
      ],
      "stateMutability": "view",
      "type": "function"
    },
    {
      "inputs": [],
      "name": "name",
      "outputs": [
        {
          "internalType": "string",
          "name": "",
          "type": "string"
        }
      ],
      "stateMutability": "view",
      "type": "function"
    },
    {
      "inputs": [],
      "name": "owner",
      "outputs": [
        {
          "internalType": "address",
          "name": "",
          "type": "address"
        }
      ],
      "stateMutability": "view",
      "type": "function"
    },
    {
      "inputs": [],
      "name": "pause",
      "outputs": [],
      "stateMutability": "nonpayable",
      "type": "function"
    },
    {
      "inputs": [],
      "name": "paused",
      "outputs": [
        {
          "internalType": "bool",
          "name": "",
          "type": "bool"
        }
      ],
      "stateMutability": "view",
      "type": "function"
    },
    {
      "inputs": [],
      "name": "platformWallet",
      "outputs": [
        {
          "internalType": "address",
          "name": "",
          "type": "address"
        }
      ],
      "stateMutability": "view",
      "type": "function"
    },
    {
      "inputs": [],
      "name": "reddit",
      "outputs": [
        {
          "internalType": "string",
          "name": "",
          "type": "string"
        }
      ],
      "stateMutability": "view",
      "type": "function"
    },
    {
      "inputs": [],
      "name": "removeMintAuthority",
      "outputs": [],
      "stateMutability": "nonpayable",
      "type": "function"
    },
    {
      "inputs": [],
      "name": "renounceOwnership",
      "outputs": [],
      "stateMutability": "nonpayable",
      "type": "function"
    },
    {
      "inputs": [
        {
          "internalType": "bytes32",
          "name": "actionId",
          "type": "bytes32"
        }
      ],
      "name": "scheduleAction",
      "outputs": [],
      "stateMutability": "nonpayable",
      "type": "function"
    },
    {
      "inputs": [],
      "name": "serviceFee",
      "outputs": [
        {
          "internalType": "uint256",
          "name": "",
          "type": "uint256"
        }
      ],
      "stateMutability": "view",
      "type": "function"
    },
    {
      "inputs": [
        {
          "internalType": "address",
          "name": "newAuthority",
          "type": "address"
        }
      ],
      "name": "setBlacklistAuthority",
      "outputs": [],
      "stateMutability": "nonpayable",
      "type": "function"
    },
    {
      "inputs": [
        {
          "internalType": "uint256",
          "name": "newCooldown",
          "type": "uint256"
        }
      ],
      "name": "setCooldownPeriod",
      "outputs": [],
      "stateMutability": "nonpayable",
      "type": "function"
    },
    {
      "inputs": [
        {
          "internalType": "address",
          "name": "newAuthority",
          "type": "address"
        }
      ],
      "name": "setFreezingAuthority",
      "outputs": [],
      "stateMutability": "nonpayable",
      "type": "function"
    },
    {
      "inputs": [
        {
          "internalType": "uint256",
          "name": "newMaxWallet",
          "type": "uint256"
        }
      ],
      "name": "setMaxWalletAmount",
      "outputs": [],
      "stateMutability": "nonpayable",
      "type": "function"
    },
    {
      "inputs": [],
      "name": "symbol",
      "outputs": [
        {
          "internalType": "string",
          "name": "",
          "type": "string"
        }
      ],
      "stateMutability": "view",
      "type": "function"
    },
    {
      "inputs": [],
      "name": "telegram",
      "outputs": [
        {
          "internalType": "string",
          "name": "",
          "type": "string"
        }
      ],
      "stateMutability": "view",
      "type": "function"
    },
    {
      "inputs": [],
      "name": "timelockDelay",
      "outputs": [
        {
          "internalType": "uint256",
          "name": "",
          "type": "uint256"
        }
      ],
      "stateMutability": "view",
      "type": "function"
    },
    {
      "inputs": [],
      "name": "timelockEnabled",
      "outputs": [
        {
          "internalType": "bool",
          "name": "",
          "type": "bool"
        }
      ],
      "stateMutability": "view",
      "type": "function"
    },
    {
      "inputs": [],
      "name": "totalSupply",
      "outputs": [
        {
          "internalType": "uint256",
          "name": "",
          "type": "uint256"
        }
      ],
      "stateMutability": "view",
      "type": "function"
    },
    {
      "inputs": [
        {
          "internalType": "address",
          "name": "to",
          "type": "address"
        },
        {
          "internalType": "uint256",
          "name": "amount",
          "type": "uint256"
        }
      ],
      "name": "transfer",
      "outputs": [
        {
          "internalType": "bool",
          "name": "",
          "type": "bool"
        }
      ],
      "stateMutability": "nonpayable",
      "type": "function"
    },
    {
      "inputs": [
        {
          "internalType": "address",
          "name": "from",
          "type": "address"
        },
        {
          "internalType": "address",
          "name": "to",
          "type": "address"
        },
        {
          "internalType": "uint256",
          "name": "amount",
          "type": "uint256"
        }
      ],
      "name": "transferFrom",
      "outputs": [
        {
          "internalType": "bool",
          "name": "",
          "type": "bool"
        }
      ],
      "stateMutability": "nonpayable",
      "type": "function"
    },
    {
      "inputs": [
        {
          "internalType": "address",
          "name": "newOwner",
          "type": "address"
        }
      ],
      "name": "transferOwnership",
      "outputs": [],
      "stateMutability": "nonpayable",
      "type": "function"
    },
    {
      "inputs": [],
      "name": "twitter",
      "outputs": [
        {
          "internalType": "string",
          "name": "",
          "type": "string"
        }
      ],
      "stateMutability": "view",
      "type": "function"
    },
    {
      "inputs": [],
      "name": "unpause",
      "outputs": [],
      "stateMutability": "nonpayable",
      "type": "function"
    },
    {
      "inputs": [],
      "name": "upgradeToEnterprise",
      "outputs": [],
      "stateMutability": "nonpayable",
      "type": "function"
    },
    {
      "inputs": [],
      "name": "upgradeToProfessional",
      "outputs": [],
      "stateMutability": "nonpayable",
      "type": "function"
    },
    {
      "inputs": [],
      "name": "website",
      "outputs": [
        {
          "internalType": "string",
          "name": "",
          "type": "string"
        }
      ],
      "stateMutability": "view",
      "type": "function"
    }
  ],
  "bytecode": "0x610260604052620040a380380380916200001982620016cd565b8060c0523960c051610340818381010312620016c85780516001600160401b038111620016c85762000051908383019083016200170f565b6102405260c0516020810151906001600160401b038211620016c8576200007d9184840191016200170f565b6101205260c0516040810151806101605260ff811603620016c857606081015161020052620000af608082016200176e565b6101805260a0810151906001600160401b038211620016c857620000d89184840191016200170f565b6101405260c0805190810151906001600160401b038211620016c857620001049184840191016200170f565b60c05160e0810151919291906001600160401b038211620016c8576200012f9185840191016200170f565b60c051610100810151906001600160401b038211620016c857620001589186850191016200170f565b60c051610120810151919391906001600160401b038211620016c857620001849187840191016200170f565b60c051610140810151919591906001600160401b038211620016c857620001b09188850191016200170f565b60c051610160810151919791906001600160401b038211620016c857620001dc9183860191016200170f565b60c051610180810151919491906001600160401b038211620016c857620002089184840191016200170f565b60c0516101a081015191939091906001600160401b038211620016c85762000233930191016200170f565b9060c05193620002476101c0860162001783565b98620002576101e0870162001783565b6101e05261020086015160e0526200027361022087016200176e565b610220526102408601516101005262000290610260870162001783565b986102808701516101c052620002aa6102a0880162001783565b6101a0526102c087015198620002c46102e0890162001783565b98610320620002d76103008b0162001783565b990151610240518051919991906001600160401b03821162000c705760035490600182811c92168015620016bd575b602083101462000c4f5781601f8493116200164b575b50602090601f8311600114620015bc5750600091620015ad575b508160011b916000199060031b1c1916176003555b610120518051906001600160401b03821162000c705760045490600182811c92168015620015a2575b602083101462000c4f5781601f84931162001530575b50602090601f8311600114620014a1575060009162001492575b508160011b916000199060031b1c1916176004555b33156200147957600554336001600160a01b0382167f8be0079c531659141344cd1fd0a4f28419497f9722a3daafe3b4186f6b6457e0600080a361016051600161ff0160a01b03199091163360ff60a81b19161760a89190911b60ff60a81b1617600555610140518051906001600160401b03821162000c705760065490600182811c921680156200146e575b602083101462000c4f5781601f8493116200140d575b50602090601f83116001146200138f575060009162001380575b508160011b916000199060031b1c1916176006555b8051906001600160401b03821162000c705760075490600182811c9216801562001375575b602083101462000c4f5781601f84931162001314575b50602090601f831160011462001296576000926200128a575b50508160011b916000199060031b1c1916176007555b8051906001600160401b03821162000c705760085490600182811c921680156200127f575b602083101462000c4f5781601f8493116200121e575b50602090601f8311600114620011a05760009262001194575b50508160011b916000199060031b1c1916176008555b8051906001600160401b03821162000c705760095490600182811c9216801562001189575b602083101462000c4f5781601f84931162001128575b50602090601f8311600114620010ae57600092620010a2575b50508160011b916000199060031b1c1916176009555b8051906001600160401b03821162000c7057600a5490600182811c9216801562001097575b602083101462000c4f5781601f84931162001036575b50602090601f831160011462000fb85760009262000fac575b50508160011b916000199060031b1c191617600a555b8051906001600160401b03821162000c7057600b5490600182811c9216801562000fa1575b602083101462000c4f5781601f84931162000f2f575b50602090601f831160011462000ea05760009262000e94575b50508160011b916000199060031b1c191617600b555b8051906001600160401b03821162000c7057600c5490600182811c9216801562000e89575b602083101462000c4f5781601f84931162000e17575b50602090601f831160011462000d885760009262000d7c575b50508160011b916000199060031b1c191617600c555b8051906001600160401b03821162000c7057600d5490600182811c9216801562000d71575b602083101462000c4f5781601f84931162000d10575b50602090601f831160011462000c925760009262000c86575b50508160011b916000199060031b1c191617600d555b8051906001600160401b03821162000c7057600e5490600182811c9216801562000c65575b602083101462000c4f5781601f84931162000bee575b50602090601f831160011462000b705760009262000b64575b50508160011b916000199060031b1c191617600e555b60e051600f55836010556101c05160115560125561022051608052610100518060a052341062000b1f573462000a60575b6101e05180801562000a54575b801562000a4c575b801562000a3f575b62000a2c575b6101a0518015938462000a23575b50801562000a1b575b801562000a11575b620009fc575b60135460ff81168015620009ee575b6200098d575b50506014805493151560c01b60ff60c01b16921560b01b60ff60b01b1663ffffffff60a81b1990941694151560a81b60ff60a81b1694909417929092171790151560b81b60ff60b81b16179055336000908152601860205260409020805460ff1916600117905561020051806200091d575b5062000904575b6040516128319081620017928239608051816103e9015260a051816115050152f35b6014805460ff60a01b1916600160a01b179055620008e2565b6002548181018091116200097757600255336000526000602052604060002081815401905560405190815260007fddf252ad1be2c89b69c2b068fc378daa952ba7f163c4a11628f55a4df523b3ef60203393a338620008db565b634e487b7160e01b600052601160045260246000fd5b6101805162010000600160b01b031990911660109190911b62010000600160b01b03161760135560009015620009e85750335b601480546001600160a01b0319166001600160a01b0392909216919091179055388062000869565b620009c0565b5060ff8160081c1662000863565b61010161ffff19601354161760135562000854565b508315156200084e565b508162000846565b9050386200083d565b600160ff1960135416176013556200082f565b506101c051151562000829565b508462000821565b5060e051151562000819565b60008080803460018060a01b03608051165af13d1562000b19573d62000a9062000a8a82620016f3565b620016cd565b908152600060203d92013e5b1562000ad4576040513481527fa70c9ef1994019c7c70e8134256a652460b545755ed8aad140daeaccc30446b360203392a26200080c565b60405162461bcd60e51b815260206004820152601d60248201527f4661696c656420746f20666f72776172642073657276696365206665650000006044820152606490fd5b62000a9c565b60405162461bcd60e51b815260206004820152601860248201527f496e73756666696369656e7420736572766963652066656500000000000000006044820152606490fd5b015190503880620007c5565b600e6000908152935060008051602062003fc383398151915291905b601f198416851062000bd2576001945083601f1981161062000bb8575b505050811b01600e55620007db565b015160001960f88460031b161c1916905538808062000ba9565b8181015183556020948501946001909301929091019062000b8c565b600e60005290915060008051602062003fc3833981519152601f840160051c81016020851062000c47575b90849392915b601f830160051c8201811062000c37575050620007ac565b6000815585945060010162000c1f565b508062000c19565b634e487b7160e01b600052602260045260246000fd5b91607f169162000796565b634e487b7160e01b600052604160045260246000fd5b0151905038806200075b565b600d600090815293506000805160206200400383398151915291905b601f198416851062000cf4576001945083601f1981161062000cda575b505050811b01600d5562000771565b015160001960f88460031b161c1916905538808062000ccb565b8181015183556020948501946001909301929091019062000cae565b600d60005290915060008051602062004003833981519152601f840160051c81016020851062000d69575b90849392915b601f830160051c8201811062000d5957505062000742565b6000815585945060010162000d41565b508062000d3b565b91607f16916200072c565b015190503880620006f1565b600c600090815293507fdf6966c971051c3d54ec59162606531493a51404a002842f56009d7e5cf4a8c791905b601f198416851062000dfb576001945083601f1981161062000de1575b505050811b01600c5562000707565b015160001960f88460031b161c1916905538808062000dd2565b8181015183556020948501946001909301929091019062000db5565b600c6000529091507fdf6966c971051c3d54ec59162606531493a51404a002842f56009d7e5cf4a8c7601f840160051c81016020851062000e81575b90849392915b601f830160051c8201811062000e71575050620006d8565b6000815585945060010162000e59565b508062000e53565b91607f1691620006c2565b01519050388062000687565b600b600090815293507f0175b7a638427703f0dbe7bb9bbf987a2551717b34e79f33b5b1008d1fa01db991905b601f198416851062000f13576001945083601f1981161062000ef9575b505050811b01600b556200069d565b015160001960f88460031b161c1916905538808062000eea565b8181015183556020948501946001909301929091019062000ecd565b600b6000529091507f0175b7a638427703f0dbe7bb9bbf987a2551717b34e79f33b5b1008d1fa01db9601f840160051c81016020851062000f99575b90849392915b601f830160051c8201811062000f895750506200066e565b6000815585945060010162000f71565b508062000f6b565b91607f169162000658565b0151905038806200061d565b600a6000908152935060008051602062003fe383398151915291905b601f19841685106200101a576001945083601f1981161062001000575b505050811b01600a5562000633565b015160001960f88460031b161c1916905538808062000ff1565b8181015183556020948501946001909301929091019062000fd4565b600a60005290915060008051602062003fe3833981519152601f840160051c8101602085106200108f575b90849392915b601f830160051c820181106200107f57505062000604565b6000815585945060010162001067565b508062001061565b91607f1691620005ee565b015190503880620005b3565b60096000908152600080516020620040638339815191529350601f198516905b8181106200110f5750908460019594939210620010f5575b505050811b01600955620005c9565b015160001960f88460031b161c19169055388080620010e6565b92936020600181928786015181550195019301620010ce565b600960005290915060008051602062004063833981519152601f840160051c81016020851062001181575b90849392915b601f830160051c82018110620011715750506200059a565b6000815585945060010162001159565b508062001153565b91607f169162000584565b01519050388062000549565b6008600090815293506000805160206200404383398151915291905b601f198416851062001202576001945083601f19811610620011e8575b505050811b016008556200055f565b015160001960f88460031b161c19169055388080620011d9565b81810151835560209485019460019093019290910190620011bc565b600860005290915060008051602062004043833981519152601f840160051c81016020851062001277575b90849392915b601f830160051c820181106200126757505062000530565b600081558594506001016200124f565b508062001249565b91607f16916200051a565b015190503880620004df565b6007600090815293506000805160206200402383398151915291905b601f1984168510620012f8576001945083601f19811610620012de575b505050811b01600755620004f5565b015160001960f88460031b161c19169055388080620012cf565b81810151835560209485019460019093019290910190620012b2565b600760005290915060008051602062004023833981519152601f840160051c8101602085106200136d575b90849392915b601f830160051c820181106200135d575050620004c6565b6000815585945060010162001345565b50806200133f565b91607f1691620004b0565b90506101405101513862000476565b6006600090815293506000805160206200408383398151915291905b601f1984168510620013f1576001945083601f19811610620013d7575b505050811b016006556200048b565b015160001960f88460031b161c19169055388080620013c8565b81810151835560209485019460019093019290910190620013ab565b600660005290915060008051602062004083833981519152601f840160051c81016020851062001466575b90849392915b601f830160051c82018110620014565750506200045c565b600081558594506001016200143e565b508062001438565b91607f169162000446565b604051631e4fbdf760e01b815260006004820152602490fd5b905061012051015138620003a4565b6004600090815293507f8a35acfbc15ff81a39ae7d344fd709f28e8600b4aa8c65c6b64bfe7fe36bd19b91905b601f198416851062001514576001945083601f19811610620014fa575b505050811b01600455620003b9565b015160001960f88460031b161c19169055388080620014eb565b81810151835560209485019460019093019290910190620014ce565b60046000529091507f8a35acfbc15ff81a39ae7d344fd709f28e8600b4aa8c65c6b64bfe7fe36bd19b601f840160051c8101602085106200159a575b90849392915b601f830160051c820181106200158a5750506200038a565b6000815585945060010162001572565b50806200156c565b91607f169162000374565b90506102405101513862000336565b6003600090815293507fc2575a0e9e593c00f959f8c92f12db2869c3395a3b0502d05e2516446f71f85b91905b601f19841685106200162f576001945083601f1981161062001615575b505050811b016003556200034b565b015160001960f88460031b161c1916905538808062001606565b81810151835560209485019460019093019290910190620015e9565b60036000529091507fc2575a0e9e593c00f959f8c92f12db2869c3395a3b0502d05e2516446f71f85b601f840160051c810160208510620016b5575b90849392915b601f830160051c82018110620016a55750506200031c565b600081558594506001016200168d565b508062001687565b91607f169162000306565b600080fd5b6040519190601f01601f191682016001600160401b0381118382101762000c7057604052565b6001600160401b03811162000c7057601f01601f191660200190565b919080601f84011215620016c8578251906200172f62000a8a83620016f3565b91808352602091828287010111620016c85760005b8181106200175a57508260009394955001015290565b858101830151848201840152820162001744565b51906001600160a01b0382168203620016c857565b51908115158203620016c85756fe608060408181526004918236101561001657600080fd5b600092833560e01c91826304646a49146123685750816306fdde03146122a9578163095ea7b3146121025781630c54c079146120db57816318160ddd146120bc57816323b872dd14611d9d57816327a14fc214611d3e578163313ce56714611d195781633f4ba83a14611c98578163404e512914611b2a57816340c10f1914611a47578163469ad5ab146119c657816347ecb6651461190757816356a3d2ff14611848578163577195101461182457816357d87f0d146117fd5781635c975abb146117d65781635cce86cd146117985781635ea547b61461177157816370a082311461173a578163715018a6146116cc5781637284e4161461160d57816380ea3de11461159a5781638456cb59146115285781638abdf5aa146114ed5781638c0b5e22146114ce5781638da5cb5b146114a557816395d89b41146113b057816397ccd07b146112f15781639bc2c27414611232578163a328b61514611174578163a9059cbb14610f1a578163aa4bde2814610efb578163abfaeee014610e3c578163aff36efe14610d24578163b320f6a914610cfd578163bbb35bed14610cd4578163beb0a41614610c15578163bf120ae514610aa4578163c08fea9214610a36578163c0a904a2146109f3578163d045a329146109cc578163d8c6404b146109a5578163db2e21bc146108a1578163dcff0d3514610833578163dd62ed3e146107ea578163e125ab9c146106da578163e58398361461069c578163e596ad4f1461066f578163e8bd71e1146105b0578163eccf9ee1146104c7578163eef09bad146104a8578163f2fde38b14610418578163fa2af9da146103d4578163fb7f21eb146102cd575063fe575a871461028d57600080fd5b346102c95760203660031901126102c95760209160ff9082906001600160a01b036102b66123cd565b1681526016855220541690519015158152f35b5080fd5b919050346103d057826003193601126103d057805191836006549060019082821c9282811680156103c6575b60209586861082146103b357508488529081156103915750600114610338575b610334868661032a828b0383612459565b5191829182612384565b0390f35b929550600683527ff652222313e28459528d920b65115c16c04f3efc82aaedc97be59f3f377c0d3f5b82841061037e57505050826103349461032a928201019438610319565b8054868501880152928601928101610361565b60ff191687860152505050151560051b830101925061032a8261033438610319565b634e487b7160e01b845260229052602483fd5b93607f16936102f9565b8280fd5b5050346102c957816003193601126102c957517f00000000000000000000000000000000000000000000000000000000000000006001600160a01b03168152602090f35b9050346103d05760203660031901126103d0576104336123cd565b9061043c61242d565b6001600160a01b03918216928315610492575050600554826bffffffffffffffffffffffff60a01b821617600555167f8be0079c531659141344cd1fd0a4f28419497f9722a3daafe3b4186f6b6457e08380a380f35b51631e4fbdf760e01b8152908101849052602490fd5b5050346102c957816003193601126102c9576020906012549051908152f35b919050346103d05760203660031901126103d0578135916104e661242d565b60ff60145460b81c16806105a1575b6104fe90612544565b82845260196020528184205461055f575060207f6b2185564015ad9f2aa720f7fba5cb208447d7d07cac8fad38fa0709eedb86019161053f60125442612491565b848652601983528186205561055660125442612491565b9051908152a280f35b6020606492519162461bcd60e51b8352820152601860248201527f416374696f6e20616c7265616479207363686564756c656400000000000000006044820152fd5b5060135460081c60ff166104f5565b919050346103d057826003193601126103d05780519183600b549060019082821c928281168015610665575b60209586861082146103b35750848852908115610391575060011461060c57610334868661032a828b0383612459565b929550600b83527f0175b7a638427703f0dbe7bb9bbf987a2551717b34e79f33b5b1008d1fa01db95b82841061065257505050826103349461032a928201019438610319565b8054868501880152928601928101610635565b93607f16936105dc565b5050346102c957816003193601126102c957601354905160109190911c6001600160a01b03168152602090f35b5050346102c95760203660031901126102c95760209160ff9082906001600160a01b036106c76123cd565b1681526015855220541690519015158152f35b919050346103d0576020806003193601126107e6578235926106fa61242d565b60ff60145460b81c16806107d7575b61071290612544565b83855260198252828520541561079f578385526019825282852054421061076757509060198492848452528120557fd41e77ef19d1471d6752564e522f060aa3dfe28c928162c6d39776b151994a1f8280a280f35b915162461bcd60e51b8152918201526014602482015273151a5b595b1bd8dac81b9bdd08195b185c1cd95960621b6044820152606490fd5b915162461bcd60e51b81529182015260146024820152731058dd1a5bdb881b9bdd081cd8da19591d5b195960621b6044820152606490fd5b5060135460081c60ff16610709565b8380fd5b5050346102c957806003193601126102c957806020926108086123cd565b6108106123e8565b6001600160a01b0391821683526001865283832091168252845220549051908152f35b833461089e57602036600319011261089e5761084d6123cd565b61085561242d565b61086d60135460ff8116908115610890575b506124b4565b60018060a01b03166bffffffffffffffffffffffff60a01b601454161760145580f35b60ff915060081c1684610867565b80fd5b919050346103d057826003193601126103d0576108bc61242d565b47801561096d5760055484918291829182916001600160a01b03165af13d15610968573d67ffffffffffffffff811161095557825190610906601f8201601f191660200183612459565b81528460203d92013e5b15610919578280f35b906020606492519162461bcd60e51b8352820152601660248201527508cc2d2d8cac840e8de40eed2e8d0c8e4c2ee408aa8960531b6044820152fd5b634e487b7160e01b855260418452602485fd5b610910565b815162461bcd60e51b815260208185015260126024820152714e6f2045544820746f20776974686472617760701b6044820152606490fd5b5050346102c957816003193601126102c95760209060ff60145460a81c1690519015158152f35b5050346102c957816003193601126102c95760209060ff60145460c01c1690519015158152f35b5050346102c957610a3390610a07366123fe565b9190610a1161242d565b60018060a01b03168452601860205283209060ff801983541691151516179055565b80f35b833461089e57602036600319011261089e57610a506123cd565b610a5861242d565b6013549060ff82168015610a96575b610a70906124b4565b62010000600160b01b031990911660109190911b62010000600160b01b03161760135580f35b50600882901c60ff16610a67565b82843461089e57610ab4366123fe565b906013549060ff82168015610c08575b15610bb9576001600160a01b039160101c82163303610b7d5716918215610b3a576020945081610b2b7ff022c1fbc00daf4d2e6cdc62e0338b967bd3be38ccc3d7f8e0168bd668c7bcfe938684878a965260158652209060ff801983541691151516179055565b84519015158152a25160018152f35b835162461bcd60e51b8152602081870152601a60248201527f43616e6e6f7420667265657a65207a65726f20616464726573730000000000006044820152606490fd5b845162461bcd60e51b815260208188015260166024820152754e6f7420667265657a696e6720617574686f7269747960501b6044820152606490fd5b845162461bcd60e51b81526020818801526024808201527f467265657a696e67206e6f7420617661696c61626c6520696e20626173696320604482015263383630b760e11b6064820152608490fd5b5060ff8260081c16610ac4565b919050346103d057826003193601126103d057805191836007549060019082821c928281168015610cca575b60209586861082146103b357508488529081156103915750600114610c7157610334868661032a828b0383612459565b929550600783527fa66cc928b5edb82af9bd49922954155ab7b0942694bea4ce44661d9a8736c6885b828410610cb757505050826103349461032a928201019438610319565b8054868501880152928601928101610c9a565b93607f1693610c41565b5050346102c957816003193601126102c95760145490516001600160a01b039091168152602090f35b5050346102c957816003193601126102c95760209060ff60145460b81c1690519015158152f35b9050346103d057826003193601126103d057610d3e61242d565b6013549060ff8260081c16610df95760ff821615610dab57507f8142fda290c652a0a12743cd43d92889aed46f078a573e636220e66beada38809161010060609261ff0019161760135569456e746572707269736560b01b81519160208352600a6020840152820152a180f35b608490602084519162461bcd60e51b8352820152602260248201527f4d757374207570677261646520746f2070726f66657373696f6e616c206669726044820152611cdd60f21b6064820152fd5b606490602084519162461bcd60e51b8352820152601760248201527f416c726561647920656e746572707269736520706c616e0000000000000000006044820152fd5b919050346103d057826003193601126103d057805191836009549060019082821c928281168015610ef1575b60209586861082146103b357508488529081156103915750600114610e9857610334868661032a828b0383612459565b929550600983527f6e1540171b6c0c960b71a7020d9f60077f6af931a8bbf590da0223dacf75c7af5b828410610ede57505050826103349461032a928201019438610319565b8054868501880152928601928101610ec1565b93607f1693610e68565b5050346102c957816003193601126102c9576020906010549051908152f35b5050346102c957806003193601126102c957610fd4602092610f3a6123cd565b8360243592610f476127da565b8360135460ff9081811682819282159283611168575b61114d575b8383611141575b611126575b838361111a575b6110f5575b83836110e9575b6110c4575b8160145460a81c1693846110a3575b50505050611070575b600f548015158061104c575b61103a575b508060145460c01c16908161102b575b8161100d575b50610fdb575b505050336126fc565b5160018152f35b6001600160a01b03841682528188529190205461100591610ffb91612491565b60105410156126b0565b833883610fcb565b6001600160a01b038616845260188a52848420541615905038610fc5565b60135460081c81169150610fbf565b61104690831115612658565b38610faf565b5060135482808216918215611063575b5050610faa565b60081c169050823861105c565b3383526017895261109261108a8585205460115490612491565b42101561260c565b338352601789524284842055610f9e565b935090916110b7575b505038828180610f95565b60081c16905081386110ac565b6001600160a01b038916875260168d52878720546110e4908316156125c7565b610f86565b50818160081c16610f81565b6001600160a01b038916875260158d528787205461111590831615612587565b610f7a565b50818160081c16610f75565b33875260168d5261113c828989205416156125c7565b610f6e565b50818160081c16610f69565b33875260158d5261116382898920541615612587565b610f62565b50818160081c16610f5d565b9050346103d057826003193601126103d05761118e61242d565b6013549060ff82166111ef57507f8142fda290c652a0a12743cd43d92889aed46f078a573e636220e66beada388091600160609260ff1916176013556b141c9bd9995cdcda5bdb985b60a21b81519160208352600c6020840152820152a180f35b606490602084519162461bcd60e51b8352820152601960248201527f416c72656164792070726f66657373696f6e616c20706c616e000000000000006044820152fd5b919050346103d057826003193601126103d05780519183600c549060019082821c9282811680156112e7575b60209586861082146103b35750848852908115610391575060011461128e57610334868661032a828b0383612459565b929550600c83527fdf6966c971051c3d54ec59162606531493a51404a002842f56009d7e5cf4a8c75b8284106112d457505050826103349461032a928201019438610319565b80548685018801529286019281016112b7565b93607f169361125e565b919050346103d057826003193601126103d05780519183600d549060019082821c9282811680156113a6575b60209586861082146103b35750848852908115610391575060011461134d57610334868661032a828b0383612459565b929550600d83527fd7b6990105719101dabeb77144f2a3385c8033acd3af97e9423a695e81ad1eb55b82841061139357505050826103349461032a928201019438610319565b8054868501880152928601928101611376565b93607f169361131d565b8383346102c957816003193601126102c957805191809380549160019083821c9282851694851561149b575b602095868610811461148857858952908115611464575060011461140c575b610334878761032a828c0383612459565b81529295507f8a35acfbc15ff81a39ae7d344fd709f28e8600b4aa8c65c6b64bfe7fe36bd19b5b82841061145157505050826103349461032a928201019486806113fb565b8054868501880152928601928101611433565b60ff19168887015250505050151560051b830101925061032a8261033486806113fb565b634e487b7160e01b845260228352602484fd5b93607f16936113dc565b5050346102c957816003193601126102c95760055490516001600160a01b039091168152602090f35b5050346102c957816003193601126102c957602090600f549051908152f35b5050346102c957816003193601126102c957602090517f00000000000000000000000000000000000000000000000000000000000000008152f35b5050346102c957816003193601126102c95760207f62e78cea01bee320cd4e420270b5ea74000d11b0c9f74754ebdbfc544b05a2589161156661242d565b61157760ff60135460081c166124f8565b61157f6127da565b6005805460ff60a01b1916600160a01b17905551338152a180f35b9050346103d05760203660031901126103d0577f583d8b24c5439ab7d810e51e37e8db41ba66f1168fd7b752ceae0c7681c5272c9160209135906115dc61242d565b6115f360135460ff81169081156115ff57506124b4565b8160115551908152a180f35b60ff915060081c1638610867565b919050346103d057826003193601126103d057805191836008549060019082821c9282811680156116c2575b60209586861082146103b35750848852908115610391575060011461166957610334868661032a828b0383612459565b929550600883527ff3f7a9fe364faab93b216da50a3214154f22a0a2b415b23a84c8169e8b636ee35b8284106116af57505050826103349461032a928201019438610319565b8054868501880152928601928101611692565b93607f1693611639565b833461089e578060031936011261089e576116ee60ff60135460081c166124f8565b6116f661242d565b600580546001600160a01b0319811690915581906001600160a01b03167f8be0079c531659141344cd1fd0a4f28419497f9722a3daafe3b4186f6b6457e08280a380f35b5050346102c95760203660031901126102c95760209181906001600160a01b036117626123cd565b16815280845220549051908152f35b5050346102c957816003193601126102c95760209060ff60135460081c1690519015158152f35b5050346102c95760203660031901126102c95760209160ff9082906001600160a01b036117c36123cd565b1681526018855220541690519015158152f35b5050346102c957816003193601126102c95760209060ff60055460a01c1690519015158152f35b5050346102c957816003193601126102c95760209060ff60145460b01c1690519015158152f35b5050346102c957816003193601126102c95760209060ff6013541690519015158152f35b919050346103d057826003193601126103d05780519183600e549060019082821c9282811680156118fd575b60209586861082146103b3575084885290811561039157506001146118a457610334868661032a828b0383612459565b929550600e83527fbb7b4a454dc3493923482f07822329ed19e8244eff582cc204f8554c3620c3fd5b8284106118ea57505050826103349461032a928201019438610319565b80548685018801529286019281016118cd565b93607f1693611874565b919050346103d057826003193601126103d05780519183600a549060019082821c9282811680156119bc575b60209586861082146103b35750848852908115610391575060011461196357610334868661032a828b0383612459565b929550600a83527fc65a7bb8d6351c1cf70c95a316cc6a92839c986682d98bc35f958f4883f9d2a85b8284106119a957505050826103349461032a928201019438610319565b805486850188015292860192810161198c565b93607f1693611933565b9050346103d057826003193601126103d0576119e061242d565b6014549160ff8360a01c16611a0457505060ff60a01b1916600160a01b1760145580f35b906020606492519162461bcd60e51b8352820152601e60248201527f4d696e7420617574686f7269747920616c72656164792072656d6f76656400006044820152fd5b919050346103d057806003193601126103d057611a626123cd565b9060243591611a6f61242d565b60ff60145460a01c16611aee576001600160a01b0316928315611ad957506020827fddf252ad1be2c89b69c2b068fc378daa952ba7f163c4a11628f55a4df523b3ef92611abf8795600254612491565b60025585855284835280852082815401905551908152a380f35b84602492519163ec442f0560e01b8352820152fd5b815162461bcd60e51b81526020818601526016602482015275135a5b9d08185d5d1a1bdc9a5d1e481c995b5bdd995960521b6044820152606490fd5b82843461089e57611b3a366123fe565b9060135460ff8116908115611c8a575b5015611c39576014546001600160a01b03919082163303611bf65716918215611bb3576020945081610b2b7ff7e58a63a036e3a7ef7921f83b6ae47930cf5c293dd3bfe7a857c6863409046d938684878a965260168652209060ff801983541691151516179055565b835162461bcd60e51b8152602081870152601d60248201527f43616e6e6f7420626c61636b6c697374207a65726f20616464726573730000006044820152606490fd5b845162461bcd60e51b8152602081880152601760248201527f4e6f7420626c61636b6c69737420617574686f726974790000000000000000006044820152606490fd5b835162461bcd60e51b8152602081870152602560248201527f426c61636b6c697374206e6f7420617661696c61626c6520696e20626173696360448201526410383630b760d91b6064820152608490fd5b60ff915060081c1686611b4a565b9050346103d057826003193601126103d057611cb261242d565b611cc360ff60135460081c166124f8565b6005549060ff8260a01c1615611d0b575060ff60a01b1916600555513381527f5db9ee0a495bf2e6ff9c91a7834c1ba4fdd244a5e8aa4e537bd38aeae4b073aa90602090a180f35b8251638dfc202b60e01b8152fd5b5050346102c957816003193601126102c95760209060ff60055460a81c169051908152f35b9050346103d05760203660031901126103d0577f12528a3c61e0f3b2d6fc707a9fc58b1af86e252cad0d7f4c154ebeabb162dace916020913590611d8061242d565b611d9160ff60135460081c166124f8565b8160105551908152a180f35b9050823461089e57606036600319011261089e57611db96123cd565b611dc16123e8565b9160443593611dce6127da565b60135460ff90818116828192821592836120b0575b61208a575b838361207e575b612058575b838361204c575b612026575b838361201a575b611ff4575b8160145460a81c169384611fd3575b50505050611fa6575b600f5480151580611f82575b611f70575b508060145460c01c169081611f61575b81611f42575b50611f1e575b6001600160a01b03831680835260016020908152878420338552905286832054916000198310611e8a575b602088610fd48989896126fc565b868310611ef2578115611edb573315611ec457508252600160209081528683203384528152918690209085900390558290610fd487611e7c565b8751634a1406b160e11b8152908101849052602490fd5b875163e602df0560e01b8152908101849052602490fd5b8751637dc7a0d960e11b8152339181019182526020820193909352604081018790528291506060010390fd5b60018060a01b038416825281602052611f3d610ffb8688852054612491565b611e51565b6001600160a01b03861684526018602052878420541615905087611e4b565b60135460081c81169150611e45565b611f7c90871115612658565b87611e35565b5060135482808216918215611f99575b5050611e30565b60081c169050828a611f92565b3383526017602052611fc161108a8885205460115490612491565b33835260176020524287842055611e24565b93509091611fe7575b505088828180611e1b565b60081c1690508189611fdc565b6001600160a01b038916875260166020528a872054612015908316156125c7565b611e0c565b50818160081c16611e07565b6001600160a01b038916875260156020528a87205461204790831615612587565b611e00565b50818160081c16611dfb565b6001600160a01b038816875260166020528a872054612079908316156125c7565b611df4565b50818160081c16611def565b6001600160a01b038816875260156020528a8720546120ab90831615612587565b611de8565b50818160081c16611de3565b5050346102c957816003193601126102c9576020906002549051908152f35b5050346102c957816003193601126102c95760209060ff60145460a01c1690519015158152f35b9050346103d057816003193601126103d05761211c6123cd565b602435906121286127da565b60135460ff908180821691828315938461229d575b612281575b8084612275575b612259575b808461224d575b612227575b9261221a575b50506121f4575b5033156121dd576001600160a01b03169182156121c657508083602095338152600187528181208582528752205582519081527f8c5be1e5ebec7d5bd14f71427d1e84f3dd0314c0f7b2291e5b200ac8c7c3b925843392a35160018152f35b8351634a1406b160e11b8152908101859052602490fd5b835163e602df0560e01b8152808401869052602490fd5b6001600160a01b03821686526016602052848620546122149116156125c7565b38612167565b60081c1690508138612160565b6001600160a01b0386168a526015602052888a205461224890841615612587565b61215a565b50828260081c16612155565b338a526016602052612270838a8c205416156125c7565b61214e565b50828260081c16612149565b338a526015602052612298838a8c20541615612587565b612142565b50828260081c1661213d565b919050346103d057826003193601126103d057805191836003549060019082821c92828116801561235e575b60209586861082146103b35750848852908115610391575060011461230557610334868661032a828b0383612459565b929550600383527fc2575a0e9e593c00f959f8c92f12db2869c3395a3b0502d05e2516446f71f85b5b82841061234b57505050826103349461032a928201019438610319565b805486850188015292860192810161232e565b93607f16936122d5565b8490346102c957816003193601126102c9576020906011548152f35b6020808252825181830181905290939260005b8281106123b957505060409293506000838284010152601f8019910116010190565b818101860151848201604001528501612397565b600435906001600160a01b03821682036123e357565b600080fd5b602435906001600160a01b03821682036123e357565b60409060031901126123e3576004356001600160a01b03811681036123e3579060243580151581036123e35790565b6005546001600160a01b0316330361244157565b60405163118cdaa760e01b8152336004820152602490fd5b90601f8019910116810190811067ffffffffffffffff82111761247b57604052565b634e487b7160e01b600052604160045260246000fd5b9190820180921161249e57565b634e487b7160e01b600052601160045260246000fd5b156124bb57565b60405162461bcd60e51b8152602060048201526015602482015274141b185b881d5c19dc985919481c995c5d5a5c9959605a1b6044820152606490fd5b156124ff57565b60405162461bcd60e51b815260206004820152601860248201527f456e746572707269736520706c616e20726571756972656400000000000000006044820152606490fd5b1561254b57565b60405162461bcd60e51b8152602060048201526014602482015273151a5b595b1bd8dac81b9bdd08195b98589b195960621b6044820152606490fd5b1561258e57565b60405162461bcd60e51b815260206004820152601160248201527020b1b1b7bab73a1034b990333937bd32b760791b6044820152606490fd5b156125ce57565b60405162461bcd60e51b81526020600482015260166024820152751058d8dbdd5b9d081a5cc8189b1858dadb1a5cdd195960521b6044820152606490fd5b1561261357565b60405162461bcd60e51b815260206004820152601b60248201527f436f6f6c646f776e20706572696f64206e6f7420656c617073656400000000006044820152606490fd5b1561265f57565b60405162461bcd60e51b8152602060048201526024808201527f416d6f756e742065786365656473206d6178207472616e73616374696f6e206c6044820152631a5b5a5d60e21b6064820152608490fd5b156126b757565b60405162461bcd60e51b815260206004820152601960248201527f4d61782077616c6c6574206c696d6974206578636565646564000000000000006044820152606490fd5b916001600160a01b038084169283156127c157169283156127a85760009083825281602052604082205490838210612776575091604082827fddf252ad1be2c89b69c2b068fc378daa952ba7f163c4a11628f55a4df523b3ef958760209652828652038282205586815220818154019055604051908152a3565b60405163391434e360e21b81526001600160a01b03919091166004820152602481019190915260448101839052606490fd5b60405163ec442f0560e01b815260006004820152602490fd5b604051634b637e8f60e11b815260006004820152602490fd5b60ff60055460a01c166127e957565b60405163d93c066560e01b8152600490fdfea2646970667358221220fdf395bf8e6036130780a1d547189fbc1385e90e84c81ea5dc6079670d89e8e564736f6c63430008140033bb7b4a454dc3493923482f07822329ed19e8244eff582cc204f8554c3620c3fdc65a7bb8d6351c1cf70c95a316cc6a92839c986682d98bc35f958f4883f9d2a8d7b6990105719101dabeb77144f2a3385c8033acd3af97e9423a695e81ad1eb5a66cc928b5edb82af9bd49922954155ab7b0942694bea4ce44661d9a8736c688f3f7a9fe364faab93b216da50a3214154f22a0a2b415b23a84c8169e8b636ee36e1540171b6c0c960b71a7020d9f60077f6af931a8bbf590da0223dacf75c7aff652222313e28459528d920b65115c16c04f3efc82aaedc97be59f3f377c0d3f",
  "linkReferences": {},
  "deployedLinkReferences": {}
}