{
  "_format": "hh-sol-artifact-1",
  "contractName": "DEXFactoryV2",
  "sourceName": "contracts/DEXFactoryV2.sol",
  "abi": [
    {
      "inputs": [
        {
          "internalType": "address",
          "name": "_liquidityLocker",
          "type": "address"
        }
      ],
      "stateMutability": "nonpayable",
      "type": "constructor"
    },
    {
      "inputs": [
        {
          "internalType": "address",
          "name": "owner",
          "type": "address"
        }
      ],
      "name": "OwnableInvalidOwner",
      "type": "error"
    },
    {
      "inputs": [
        {
          "internalType": "address",
          "name": "account",
          "type": "address"
        }
      ],
      "name": "OwnableUnauthorizedAccount",
      "type": "error"
    },
    {
      "anonymous": false,
      "inputs": [
        {
          "indexed": false,
          "internalType": "bool",
          "name": "stopped",
          "type": "bool"
        },
        {
          "indexed": true,
          "internalType": "address",
          "name": "updater",
          "type": "address"
        }
      ],
      "name": "EmergencyStopUpdated",
      "type": "event"
    },
    {
      "anonymous": false,
      "inputs": [
        {
          "indexed": false,
          "internalType": "uint256",
          "name": "oldFee",
          "type": "uint256"
        },
        {
          "indexed": false,
          "internalType": "uint256",
          "name": "newFee",
          "type": "uint256"
        }
      ],
      "name": "FeeRateUpdated",
      "type": "event"
    },
    {
      "anonymous": false,
      "inputs": [
        {
          "indexed": false,
          "internalType": "uint256",
          "name": "oldFee",
          "type": "uint256"
        },
        {
          "indexed": false,
          "internalType": "uint256",
          "name": "newFee",
          "type": "uint256"
        },
        {
          "indexed": true,
          "internalType": "address",
          "name": "updater",
          "type": "address"
        }
      ],
      "name": "FeeUpdated",
      "type": "event"
    },
    {
      "anonymous": false,
      "inputs": [
        {
          "indexed": true,
          "internalType": "address",
          "name": "pair",
          "type": "address"
        },
        {
          "indexed": true,
          "internalType": "address",
          "name": "user",
          "type": "address"
        },
        {
          "indexed": false,
          "internalType": "uint256",
          "name": "amount",
          "type": "uint256"
        },
        {
          "indexed": false,
          "internalType": "uint256",
          "name": "lockDuration",
          "type": "uint256"
        }
      ],
      "name": "InitialLiquidityLocked",
      "type": "event"
    },
    {
      "anonymous": false,
      "inputs": [
        {
          "indexed": true,
          "internalType": "address",
          "name": "pair",
          "type": "address"
        },
        {
          "indexed": true,
          "internalType": "address",
          "name": "owner",
          "type": "address"
        },
        {
          "indexed": false,
          "internalType": "uint256",
          "name": "amount",
          "type": "uint256"
        },
        {
          "indexed": false,
          "internalType": "uint256",
          "name": "unlockTime",
          "type": "uint256"
        },
        {
          "indexed": false,
          "internalType": "string",
          "name": "description",
          "type": "string"
        },
        {
          "indexed": false,
          "internalType": "uint256",
          "name": "lockFee",
          "type": "uint256"
        }
      ],
      "name": "LiquidityLocked",
      "type": "event"
    },
    {
      "anonymous": false,
      "inputs": [
        {
          "indexed": true,
          "internalType": "address",
          "name": "oldLocker",
          "type": "address"
        },
        {
          "indexed": true,
          "internalType": "address",
          "name": "newLocker",
          "type": "address"
        }
      ],
      "name": "LiquidityLockerUpdated",
      "type": "event"
    },
    {
      "anonymous": false,
      "inputs": [
        {
          "indexed": true,
          "internalType": "address",
          "name": "pair",
          "type": "address"
        },
        {
          "indexed": true,
          "internalType": "address",
          "name": "owner",
          "type": "address"
        },
        {
          "indexed": false,
          "internalType": "uint256",
          "name": "amount",
          "type": "uint256"
        },
        {
          "indexed": false,
          "internalType": "uint256",
          "name": "timestamp",
          "type": "uint256"
        }
      ],
      "name": "LiquidityUnlocked",
      "type": "event"
    },
    {
      "anonymous": false,
      "inputs": [
        {
          "indexed": true,
          "internalType": "address",
          "name": "user",
          "type": "address"
        },
        {
          "indexed": false,
          "internalType": "uint256",
          "name": "amount",
          "type": "uint256"
        },
        {
          "indexed": false,
          "internalType": "uint256",
          "name": "timestamp",
          "type": "uint256"
        }
      ],
      "name": "LockFeeCollected",
      "type": "event"
    },
    {
      "anonymous": false,
      "inputs": [
        {
          "indexed": false,
          "internalType": "uint256",
          "name": "oldBasicFee",
          "type": "uint256"
        },
        {
          "indexed": false,
          "internalType": "uint256",
          "name": "newBasicFee",
          "type": "uint256"
        },
        {
          "indexed": false,
          "internalType": "uint256",
          "name": "oldPremiumFee",
          "type": "uint256"
        },
        {
          "indexed": false,
          "internalType": "uint256",
          "name": "newPremiumFee",
          "type": "uint256"
        }
      ],
      "name": "LockFeeUpdated",
      "type": "event"
    },
    {
      "anonymous": false,
      "inputs": [
        {
          "indexed": true,
          "internalType": "address",
          "name": "operator",
          "type": "address"
        },
        {
          "indexed": false,
          "internalType": "bool",
          "name": "authorized",
          "type": "bool"
        }
      ],
      "name": "OperatorAuthorized",
      "type": "event"
    },
    {
      "anonymous": false,
      "inputs": [
        {
          "indexed": true,
          "internalType": "address",
          "name": "previousOwner",
          "type": "address"
        },
        {
          "indexed": true,
          "internalType": "address",
          "name": "newOwner",
          "type": "address"
        }
      ],
      "name": "OwnershipTransferred",
      "type": "event"
    },
    {
      "anonymous": false,
      "inputs": [
        {
          "indexed": true,
          "internalType": "address",
          "name": "token0",
          "type": "address"
        },
        {
          "indexed": true,
          "internalType": "address",
          "name": "token1",
          "type": "address"
        },
        {
          "indexed": false,
          "internalType": "address",
          "name": "pair",
          "type": "address"
        },
        {
          "indexed": false,
          "internalType": "uint256",
          "name": "",
          "type": "uint256"
        }
      ],
      "name": "PairCreated",
      "type": "event"
    },
    {
      "anonymous": false,
      "inputs": [
        {
          "indexed": true,
          "internalType": "address",
          "name": "token0",
          "type": "address"
        },
        {
          "indexed": true,
          "internalType": "address",
          "name": "token1",
          "type": "address"
        },
        {
          "indexed": false,
          "internalType": "address",
          "name": "pair",
          "type": "address"
        },
        {
          "indexed": false,
          "internalType": "uint256",
          "name": "allPairsLength",
          "type": "uint256"
        },
        {
          "indexed": false,
          "internalType": "uint256",
          "name": "timestamp",
          "type": "uint256"
        },
        {
          "components": [
            {
              "internalType": "bool",
              "name": "emergencyStop",
              "type": "bool"
            }
          ],
          "indexed": false,
          "internalType": "struct IDEXFactory.PoolSecurityConfig",
          "name": "securityConfig",
          "type": "tuple"
        }
      ],
      "name": "PairCreated",
      "type": "event"
    },
    {
      "anonymous": false,
      "inputs": [
        {
          "indexed": false,
          "internalType": "uint256",
          "name": "oldShare",
          "type": "uint256"
        },
        {
          "indexed": false,
          "internalType": "uint256",
          "name": "newShare",
          "type": "uint256"
        }
      ],
      "name": "PlatformFeeShareUpdated",
      "type": "event"
    },
    {
      "anonymous": false,
      "inputs": [
        {
          "indexed": true,
          "internalType": "address",
          "name": "pair",
          "type": "address"
        },
        {
          "indexed": false,
          "internalType": "uint256",
          "name": "amount",
          "type": "uint256"
        },
        {
          "indexed": false,
          "internalType": "uint256",
          "name": "platformShare",
          "type": "uint256"
        },
        {
          "indexed": false,
          "internalType": "uint256",
          "name": "timestamp",
          "type": "uint256"
        }
      ],
      "name": "TradingFeeCollected",
      "type": "event"
    },
    {
      "inputs": [],
      "name": "FEE_DENOMINATOR",
      "outputs": [
        {
          "internalType": "uint256",
          "name": "",
          "type": "uint256"
        }
      ],
      "stateMutability": "view",
      "type": "function"
    },
    {
      "inputs": [],
      "name": "MAX_FEE_RATE",
      "outputs": [
        {
          "internalType": "uint256",
          "name": "",
          "type": "uint256"
        }
      ],
      "stateMutability": "view",
      "type": "function"
    },
    {
      "inputs": [
        {
          "internalType": "address",
          "name": "",
          "type": "address"
        },
        {
          "internalType": "address",
          "name": "",
          "type": "address"
        }
      ],
      "name": "_getPair",
      "outputs": [
        {
          "internalType": "address",
          "name": "",
          "type": "address"
        }
      ],
      "stateMutability": "view",
      "type": "function"
    },
    {
      "inputs": [
        {
          "internalType": "uint256",
          "name": "",
          "type": "uint256"
        }
      ],
      "name": "allPairs",
      "outputs": [
        {
          "internalType": "address",
          "name": "",
          "type": "address"
        }
      ],
      "stateMutability": "view",
      "type": "function"
    },
    {
      "inputs": [],
      "name": "allPairsLength",
      "outputs": [
        {
          "internalType": "uint256",
          "name": "",
          "type": "uint256"
        }
      ],
      "stateMutability": "view",
      "type": "function"
    },
    {
      "inputs": [
        {
          "internalType": "address",
          "name": "pair",
          "type": "address"
        },
        {
          "internalType": "uint256",
          "name": "amount",
          "type": "uint256"
        }
      ],
      "name": "collectTradingFees",
      "outputs": [],
      "stateMutability": "nonpayable",
      "type": "function"
    },
    {
      "inputs": [
        {
          "internalType": "address",
          "name": "tokenA",
          "type": "address"
        },
        {
          "internalType": "address",
          "name": "tokenB",
          "type": "address"
        }
      ],
      "name": "createPair",
      "outputs": [
        {
          "internalType": "address",
          "name": "pair",
          "type": "address"
        }
      ],
      "stateMutability": "nonpayable",
      "type": "function"
    },
    {
      "inputs": [
        {
          "internalType": "address",
          "name": "tokenA",
          "type": "address"
        },
        {
          "internalType": "address",
          "name": "tokenB",
          "type": "address"
        },
        {
          "components": [
            {
              "internalType": "bool",
              "name": "emergencyStop",
              "type": "bool"
            }
          ],
          "internalType": "struct IDEXFactory.PoolSecurityConfig",
          "name": "securityConfig",
          "type": "tuple"
        }
      ],
      "name": "createPair",
      "outputs": [
        {
          "internalType": "address",
          "name": "pair",
          "type": "address"
        }
      ],
      "stateMutability": "nonpayable",
      "type": "function"
    },
    {
      "inputs": [
        {
          "internalType": "address",
          "name": "tokenA",
          "type": "address"
        },
        {
          "internalType": "address",
          "name": "tokenB",
          "type": "address"
        },
        {
          "internalType": "uint256",
          "name": "amountA",
          "type": "uint256"
        },
        {
          "internalType": "uint256",
          "name": "amountB",
          "type": "uint256"
        },
        {
          "internalType": "bool",
          "name": "shouldLockLiquidity",
          "type": "bool"
        },
        {
          "internalType": "uint256",
          "name": "lockDuration",
          "type": "uint256"
        },
        {
          "internalType": "string",
          "name": "lockDescription",
          "type": "string"
        }
      ],
      "name": "createPairWithLiquidity",
      "outputs": [
        {
          "internalType": "address",
          "name": "pair",
          "type": "address"
        },
        {
          "internalType": "uint256",
          "name": "liquidity",
          "type": "uint256"
        }
      ],
      "stateMutability": "nonpayable",
      "type": "function"
    },
    {
      "inputs": [],
      "name": "feeDenominator",
      "outputs": [
        {
          "internalType": "uint256",
          "name": "",
          "type": "uint256"
        }
      ],
      "stateMutability": "pure",
      "type": "function"
    },
    {
      "inputs": [],
      "name": "feeRate",
      "outputs": [
        {
          "internalType": "uint256",
          "name": "",
          "type": "uint256"
        }
      ],
      "stateMutability": "view",
      "type": "function"
    },
    {
      "inputs": [],
      "name": "getFeeDenominator",
      "outputs": [
        {
          "internalType": "uint256",
          "name": "",
          "type": "uint256"
        }
      ],
      "stateMutability": "pure",
      "type": "function"
    },
    {
      "inputs": [],
      "name": "getFeeRate",
      "outputs": [
        {
          "internalType": "uint256",
          "name": "",
          "type": "uint256"
        }
      ],
      "stateMutability": "view",
      "type": "function"
    },
    {
      "inputs": [
        {
          "internalType": "address",
          "name": "tokenA",
          "type": "address"
        },
        {
          "internalType": "address",
          "name": "tokenB",
          "type": "address"
        }
      ],
      "name": "getPair",
      "outputs": [
        {
          "internalType": "address",
          "name": "pair",
          "type": "address"
        }
      ],
      "stateMutability": "view",
      "type": "function"
    },
    {
      "inputs": [
        {
          "internalType": "address",
          "name": "tokenA",
          "type": "address"
        },
        {
          "internalType": "address",
          "name": "tokenB",
          "type": "address"
        }
      ],
      "name": "getPairAddress",
      "outputs": [
        {
          "internalType": "address",
          "name": "",
          "type": "address"
        }
      ],
      "stateMutability": "view",
      "type": "function"
    },
    {
      "inputs": [],
      "name": "liquidityLocker",
      "outputs": [
        {
          "internalType": "address",
          "name": "",
          "type": "address"
        }
      ],
      "stateMutability": "view",
      "type": "function"
    },
    {
      "inputs": [
        {
          "internalType": "address",
          "name": "pair",
          "type": "address"
        },
        {
          "internalType": "address",
          "name": "user",
          "type": "address"
        },
        {
          "internalType": "uint256",
          "name": "lockDuration",
          "type": "uint256"
        },
        {
          "internalType": "string",
          "name": "description",
          "type": "string"
        }
      ],
      "name": "lockInitialLiquidity",
      "outputs": [],
      "stateMutability": "nonpayable",
      "type": "function"
    },
    {
      "inputs": [
        {
          "internalType": "address",
          "name": "pair",
          "type": "address"
        },
        {
          "internalType": "address",
          "name": "user",
          "type": "address"
        },
        {
          "internalType": "uint256",
          "name": "amount",
          "type": "uint256"
        },
        {
          "internalType": "uint256",
          "name": "lockDuration",
          "type": "uint256"
        },
        {
          "internalType": "string",
          "name": "description",
          "type": "string"
        },
        {
          "internalType": "uint256",
          "name": "lockFee",
          "type": "uint256"
        }
      ],
      "name": "lockLiquidity",
      "outputs": [],
      "stateMutability": "nonpayable",
      "type": "function"
    },
    {
      "inputs": [
        {
          "internalType": "address",
          "name": "pair",
          "type": "address"
        },
        {
          "internalType": "uint256",
          "name": "amount",
          "type": "uint256"
        },
        {
          "internalType": "uint256",
          "name": "lockDuration",
          "type": "uint256"
        },
        {
          "internalType": "string",
          "name": "description",
          "type": "string"
        }
      ],
      "name": "lockLiquidity",
      "outputs": [],
      "stateMutability": "payable",
      "type": "function"
    },
    {
      "inputs": [],
      "name": "owner",
      "outputs": [
        {
          "internalType": "address",
          "name": "",
          "type": "address"
        }
      ],
      "stateMutability": "view",
      "type": "function"
    },
    {
      "inputs": [],
      "name": "pause",
      "outputs": [],
      "stateMutability": "nonpayable",
      "type": "function"
    },
    {
      "inputs": [],
      "name": "renounceOwnership",
      "outputs": [],
      "stateMutability": "nonpayable",
      "type": "function"
    },
    {
      "inputs": [
        {
          "internalType": "address",
          "name": "operator",
          "type": "address"
        },
        {
          "internalType": "bool",
          "name": "authorized",
          "type": "bool"
        }
      ],
      "name": "setAuthorizedOperator",
      "outputs": [],
      "stateMutability": "nonpayable",
      "type": "function"
    },
    {
      "inputs": [
        {
          "internalType": "bool",
          "name": "stopped",
          "type": "bool"
        }
      ],
      "name": "setEmergencyStop",
      "outputs": [],
      "stateMutability": "nonpayable",
      "type": "function"
    },
    {
      "inputs": [
        {
          "internalType": "uint256",
          "name": "newFeeRate",
          "type": "uint256"
        }
      ],
      "name": "setFeeRate",
      "outputs": [],
      "stateMutability": "nonpayable",
      "type": "function"
    },
    {
      "inputs": [
        {
          "internalType": "address",
          "name": "_liquidityLocker",
          "type": "address"
        }
      ],
      "name": "setLiquidityLocker",
      "outputs": [],
      "stateMutability": "nonpayable",
      "type": "function"
    },
    {
      "inputs": [],
      "name": "totalPairsCreated",
      "outputs": [
        {
          "internalType": "uint256",
          "name": "",
          "type": "uint256"
        }
      ],
      "stateMutability": "view",
      "type": "function"
    },
    {
      "inputs": [
        {
          "internalType": "address",
          "name": "newOwner",
          "type": "address"
        }
      ],
      "name": "transferOwnership",
      "outputs": [],
      "stateMutability": "nonpayable",
      "type": "function"
    },
    {
      "inputs": [
        {
          "internalType": "address",
          "name": "pair",
          "type": "address"
        },
        {
          "internalType": "uint256",
          "name": "lockIndex",
          "type": "uint256"
        },
        {
          "internalType": "address",
          "name": "user",
          "type": "address"
        }
      ],
      "name": "unlockLiquidity",
      "outputs": [],
      "stateMutability": "nonpayable",
      "type": "function"
    },
    {
      "inputs": [
        {
          "internalType": "address",
          "name": "pair",
          "type": "address"
        },
        {
          "internalType": "uint256",
          "name": "lockIndex",
          "type": "uint256"
        }
      ],
      "name": "unlockLiquidity",
      "outputs": [],
      "stateMutability": "nonpayable",
      "type": "function"
    },
    {
      "inputs": [],
      "name": "unpause",
      "outputs": [],
      "stateMutability": "nonpayable",
      "type": "function"
    },
    {
      "inputs": [
        {
          "internalType": "uint256",
          "name": "newFeeRate",
          "type": "uint256"
        }
      ],
      "name": "updateFeeRate",
      "outputs": [],
      "stateMutability": "nonpayable",
      "type": "function"
    },
    {
      "inputs": [],
      "name": "withdrawFees",
      "outputs": [],
      "stateMutability": "nonpayable",
      "type": "function"
    }
  ],
  "bytecode": "0x60806040523462000030576200001e62000018620000d3565b620001e7565b6040516158ea6200031282396158ea90f35b600080fd5b634e487b7160e01b600052604160045260246000fd5b90601f01601f191681019081106001600160401b038211176200006d57604052565b62000035565b906200008a6200008260405190565b92836200004b565b565b6001600160a01b031690565b90565b6001600160a01b038116036200003057565b905051906200008a826200009b565b9060208282031262000030576200009891620000ad565b6200009862005bfc80380380620000ea8162000073565b928339810190620000bc565b90600019905b9181191691161790565b6200009862000098620000989290565b906200012a62000098620001329262000106565b8254620000f6565b9055565b6200008c62000098620000989290565b620000989062000136565b156200015957565b60405162461bcd60e51b815260206004820152600a60248201526924a72b2fa627a1a5a2a960b11b6044820152606490fd5b0390fd5b906001600160a01b0390620000fc565b62000098906200008c906001600160a01b031682565b62000098906200019f565b6200009890620001b5565b90620001df620000986200013292620001c0565b82546200018f565b6200008a90620001f73362000233565b62000205601e600562000116565b6200022b620002196200008c600062000146565b6001600160a01b038316141562000151565b6004620001cb565b6200023f600062000146565b6001600160a01b0381166001600160a01b038316146200026557506200008a90620002af565b6200018b906200027460405190565b631e4fbdf760e01b8152918291600483016001600160a01b03909116815260200190565b62000098906200008c565b62000098905462000298565b620002bb6000620002a3565b90620002c9816000620001cb565b62000300620002f97f8be0079c531659141344cd1fd0a4f28419497f9722a3daafe3b4186f6b6457e093620001c0565b91620001c0565b916200030b60405190565b600090a356fe608060405260043610156200001357600080fd5b60003560e01c8063180b0d7e14620001aa5780631e3dd18b146200024c5780633f4ba83a146200021057806344e5550f146200024657806345596e2e1462000240578063476343ee14620002105780634bfc2e0b146200023a578063573044e31462000234578063574f2ba3146200022e5780636d49dfc31462000228578063715018a61462000222578063788f737d146200021c5780637b84fda514620002165780638456cb59146200021057806384e5eed0146200020a5780638da5cb5b146200020457806390c833f414620001fe57806392f6576e14620001f85780639759164a14620001f2578063978bbdb914620001ec578063a293e03c14620001e6578063ac44962914620001e0578063b2094a1014620001da578063b4f69a2f14620001d4578063be8796c114620001ce578063c73d7c7b14620001c8578063c9c6539614620001c2578063ce3b527314620001bc578063d73792a914620001aa578063e6a4390514620001b6578063f2fde38b14620001b0578063f4e1fc4114620001aa5763ff255efb036200025e5762000c35565b62000269565b62000c0a565b62000be8565b62000baf565b62000b47565b62000b34565b62000b03565b62000ae1565b62000ac4565b62000a70565b620009ad565b62000964565b6200091c565b620008ed565b620008a4565b620007e0565b620007bf565b620003d6565b620007a2565b62000788565b6200072b565b6200070a565b6200068f565b62000671565b62000620565b620005db565b620005b2565b620003a8565b60009103126200025e57565b600080fd5b9052565b565b346200025e576200027c36600462000252565b6200029a6200028a62000bde565b6040519182918290815260200190565b0390f35b805b036200025e57565b9050359062000267826200029e565b906020828203126200025e57620002ce91620002a8565b90565b7f4e487b7100000000000000000000000000000000000000000000000000000000600052603260045260246000fd5b805482101562000325576200031c600191600052602060002090565b91020190600090565b620002d1565b620002ce916008021c5b73ffffffffffffffffffffffffffffffffffffffff1690565b90620002ce91546200032b565b6002600062000368825490565b831015620003885750620002ce91620003819162000300565b906200034e565b80fd5b620002639062000335565b6020810192916200026791906200038b565b346200025e576200029a620003c9620003c3366004620002b7565b6200035b565b6040519182918262000396565b346200025e57620003e936600462000252565b6200256a565b620002a08162000335565b905035906200026782620003ef565b7f4e487b7100000000000000000000000000000000000000000000000000000000600052604160045260246000fd5b90601f017fffffffffffffffffffffffffffffffffffffffffffffffffffffffffffffffe016810190811067ffffffffffffffff8211176200047957604052565b62000409565b90620002676200048e60405190565b928362000438565b67ffffffffffffffff81116200047957602090601f017fffffffffffffffffffffffffffffffffffffffffffffffffffffffffffffffe0160190565b0190565b90826000939282370152565b90929192620004fb620004f58262000496565b6200047f565b938185526020850190828401116200025e576200026792620004d6565b9080601f830112156200025e57816020620002ce93359101620004e2565b909160c0828403126200025e576200054f8383620003fa565b926200055f8160208501620003fa565b926200056f8260408301620002a8565b926200057f8360608401620002a8565b9260808301359067ffffffffffffffff82116200025e57620005a881620002ce93860162000518565b9360a001620002a8565b346200025e57620005d6620005c936600462000536565b9493909392919262001e79565b604051005b346200025e57620005d6620005f2366004620002b7565b620024c5565b91906040838203126200025e57620002ce90620006168185620003fa565b93602001620002a8565b346200025e5762000633366004620005f8565b906200250b565b90916060828403126200025e57620002ce620006578484620003fa565b93620006678160208601620002a8565b93604001620003fa565b346200025e57620005d6620006883660046200063a565b916200224b565b346200025e57620006a236600462000252565b6200029a6200028a60025490565b906080828203126200025e57620006c88183620003fa565b92620006d88260208501620003fa565b92620006e88360408301620002a8565b92606082013567ffffffffffffffff81116200025e57620002ce920162000518565b346200025e57620005d662000721366004620006b0565b9291909162001ff8565b346200025e576200073e36600462000252565b620005d662000cbe565b801515620002a0565b90503590620002678262000748565b91906040838203126200025e57620002ce906200077e8185620003fa565b9360200162000751565b346200025e576200079b36600462000760565b906200256a565b346200025e57620005d6620007b9366004620002b7565b620024f6565b346200025e57620007d236600462000252565b6200029a6200028a620024d0565b346200025e57620007f336600462000252565b6200029a620003c962000c6d565b91906040838203126200025e57620002ce906200081f8185620003fa565b93602001620003fa565b62000335620002ce620002ce9273ffffffffffffffffffffffffffffffffffffffff1690565b620002ce9062000829565b620002ce906200084f565b9062000871906200085a565b600052602052604060002090565b6200089e620002ce926200089860019360009462000865565b62000865565b6200034e565b346200025e576200029a620003c9620008bf36600462000801565b906200087f565b620002ce620002ce620002ce9290565b620002ce6103e8620008c6565b620002ce620008d6565b346200025e576200090036600462000252565b6200029a6200028a620008e3565b620002ce600060046200034e565b346200025e576200092f36600462000252565b6200029a620003c96200090e565b620002ce916008021c81565b90620002ce91546200093d565b620002ce6000600562000949565b346200025e576200097736600462000252565b6200029a6200028a62000956565b906080828203126200025e576200099d8183620003fa565b92620006d88260208501620002a8565b620009ba36600462000985565b9291909162002628565b9060e0828203126200025e57620009dc8183620003fa565b92620009ec8260208501620003fa565b92620009fc8360408301620002a8565b9262000a0c8160608401620002a8565b9262000a1c826080850162000751565b9262000a2c8360a08301620002a8565b9260c082013567ffffffffffffffff81116200025e57620002ce920162000518565b9160206200026792949362000a6c604082019660008301906200038b565b0152565b346200025e5762000a9462000a87366004620009c4565b95949094939193620019a0565b906200029a62000aa360405190565b9283928362000a4e565b906020828203126200025e57620002ce91620003fa565b346200025e57620005d662000adb36600462000aad565b620023d4565b346200025e576200029a620003c962000afc36600462000801565b9062001e59565b346200025e5762000b16366004620005f8565b9062002687565b906020828203126200025e57620002ce9162000751565b346200025e57620003e936600462000b1d565b346200025e576200029a620003c962000b6236600462000801565b9062000e69565b908160209103126200025e5790565b90916060828403126200025e57620002ce62000b958484620003fa565b9362000ba58160208601620003fa565b9360400162000b69565b346200025e576200029a620003c962000bca36600462000b78565b9162002596565b620002ce612710620008c6565b620002ce62000bd1565b346200025e576200029a620003c962000c0336600462000801565b9062001e18565b346200025e57620005d662000c2136600462000aad565b62000db8565b620002ce6000600362000949565b346200025e5762000c4836600462000252565b6200029a6200028a62000c27565b620002ce9062000335565b620002ce905462000c56565b620002ce600062000c61565b62000c8362000cc8565b6200026762000ca8565b62000335620002ce620002ce9290565b620002ce9062000c8d565b6200026762000cb8600062000c9d565b62000e05565b6200026762000c79565b62000cd262000c6d565b339062000cea62000ce38362000335565b9162000335565b0362000cf35750565b62000d329062000d0260405190565b9182917f118cdaa70000000000000000000000000000000000000000000000000000000083526004830162000396565b0390fd5b620002679062000d4562000cc8565b62000d51600062000c9d565b62000d5c8162000335565b62000d678362000335565b1462000d795750620002679062000e05565b62000d329062000d8860405190565b9182917f1e4fbdf70000000000000000000000000000000000000000000000000000000083526004830162000396565b620002679062000d36565b9073ffffffffffffffffffffffffffffffffffffffff905b9181191691161790565b9062000df9620002ce62000e01926200085a565b825462000dc3565b9055565b62000e11600062000c61565b9062000e1f81600062000de5565b62000e5662000e4f7f8be0079c531659141344cd1fd0a4f28419497f9722a3daafe3b4186f6b6457e0936200085a565b916200085a565b9162000e6160405190565b80805b0390a3565b620002ce9190620011b1565b1562000e7d57565b6040517f08c379a000000000000000000000000000000000000000000000000000000000815260206004820152600260248201527f49440000000000000000000000000000000000000000000000000000000000006044820152606490fd5b1562000ee457565b6040517f08c379a000000000000000000000000000000000000000000000000000000000815260206004820152600260248201527f5a410000000000000000000000000000000000000000000000000000000000006044820152606490fd5b1562000f4b57565b6040517f08c379a000000000000000000000000000000000000000000000000000000000815260206004820152600260248201527f50430000000000000000000000000000000000000000000000000000000000006044820152606490fd5b62000fb9620002639162000335565b60601b90565b60148162000fd4620004d29383969562000faa565b01809262000faa565b1562000fe557565b6040517f08c379a000000000000000000000000000000000000000000000000000000000815260206004820152600360248201527f43324600000000000000000000000000000000000000000000000000000000006044820152606490fd5b9160206200026792949362001062604082019660008301906200038b565b01906200038b565b6040513d6000823e3d90fd5b9190600862000ddb9102916200109f73ffffffffffffffffffffffffffffffffffffffff841b90565b921b90565b9190620010b9620002ce62000e01936200085a565b90835462001076565b9081549168010000000000000000831015620004795782620010ee916001620002679501815562000300565b90620010a4565b620002ce9081565b620002ce9054620010f5565b7f4e487b7100000000000000000000000000000000000000000000000000000000600052601160045260246000fd5b7fffffffffffffffffffffffffffffffffffffffffffffffffffffffffffffffff8114620011665760010190565b62001109565b907fffffffffffffffffffffffffffffffffffffffffffffffffffffffffffffffff9062000ddb565b90620011a9620002ce62000e0192620008c6565b82546200116c565b9190620011d5620011c28262000335565b620011cd8562000335565b141562000e75565b6000620011e28162000c9d565b93620011ee8562000335565b620011f98262000335565b1415806200144a575b6200120d9062000edc565b620012188362000335565b620012238262000335565b1015620014435791905b600190620012656200124f620012498562000898888762000865565b62000c61565b6200125e62000ce38962000335565b1462000f43565b620012e9620012d66131a86200127e602082016200047f565b908082526200270d6020830139604051620012b18160208101620012a48a8c8362000fbf565b9081038252038262000438565b620012c5620012be825190565b9160200190565b209060208151910185f59762000335565b620012e18862000335565b141562000fdd565b620012fe620012f8876200085a565b6200085a565b9163485cc95592803b156200025e57620013279383916200131e60405190565b95869260e01b90565b82528183816200133c8a8c6004840162001044565b03925af19182156200143d576200089885620013799388936200137f978c9762001409575b50506200089886620013798462000898888662000865565b62000de5565b620013b76002620013918682620010c2565b620013b3620013ab620013a56003620010fd565b62001138565b600362001195565b5490565b9162000e64620013f3620013ec7f0d3648bd0f6ba80134a33ba9275ac585d9d315f0ad8355cddefde31afa28d0e9936200085a565b936200085a565b93620013fe60405190565b918291888362000a4e565b816200142d92903d1062001435575b62001424818362000438565b81019062000252565b388062001361565b503d62001418565b6200106a565b906200122d565b506200120d6200145a8662000335565b620014658562000335565b1415905062001202565b156200147757565b6040517f08c379a000000000000000000000000000000000000000000000000000000000815260206004820152600b60248201527f494e565f414d4f554e54530000000000000000000000000000000000000000006044820152606490fd5b90505190620002678262000748565b906020828203126200025e57620002ce91620014d6565b60409062000a6c62000267949695939662001520606084019860008501906200038b565b60208301906200038b565b156200153357565b6040517f08c379a000000000000000000000000000000000000000000000000000000000815260206004820152600b60248201527f54465f415f4641494c45440000000000000000000000000000000000000000006044820152606490fd5b156200159a57565b6040517f08c379a000000000000000000000000000000000000000000000000000000000815260206004820152600b60248201527f54465f425f4641494c45440000000000000000000000000000000000000000006044820152606490fd5b9050519062000267826200029e565b906020828203126200025e57620002ce91620015f9565b156200162757565b6040517f08c379a000000000000000000000000000000000000000000000000000000000815260206004820152600b60248201527f4d494e545f4641494c45440000000000000000000000000000000000000000006044820152606490fd5b156200168e57565b6040517f08c379a000000000000000000000000000000000000000000000000000000000815260206004820152600960248201527f4e4f5f4c4f434b455200000000000000000000000000000000000000000000006044820152606490fd5b15620016f557565b6040517f08c379a000000000000000000000000000000000000000000000000000000000815260206004820152600c60248201527f494e565f4455524154494f4e00000000000000000000000000000000000000006044820152606490fd5b818102929181159184041417156200116657565b7f4e487b7100000000000000000000000000000000000000000000000000000000600052601260045260246000fd5b8115620017a2570490565b62001768565b919082039182116200116657565b15620017be57565b6040517f08c379a000000000000000000000000000000000000000000000000000000000815260206004820152600c60248201527f54465f4c505f4641494c454400000000000000000000000000000000000000006044820152606490fd5b60005b838110620018315750506000910152565b818101518382015260200162001820565b6200186762001871602093620004d2936200185b815190565b80835293849260200190565b958691016200181d565b601f017fffffffffffffffffffffffffffffffffffffffffffffffffffffffffffffffe01690565b96959394620018db6200026796620018d460a096620018cd620018e99760208e6200106260c082019a60008301906200038b565b60408c0152565b60608a0152565b878203608089015262001842565b940152565b90620018fe620004f58362000496565b918252565b3d156200192057620019153d620018ee565b903d6000602084013e565b606090565b156200192d57565b6040517f08c379a000000000000000000000000000000000000000000000000000000000815260206004820152600b60248201527f4c4f434b5f4641494c45440000000000000000000000000000000000000000006044820152606490fd5b908152604081019291620002679160200152565b96949062001a7a93929496620019b4600090565b50620019cf620019c48362000335565b620011cd8b62000335565b620019db600062000c9d565b620019e68162000335565b620019f18b62000335565b14158062001df3575b62001a059062000edc565b62001a116000620008c6565b87118062001dd8575b62001a25906200146f565b62001a31838b620011b1565b8095602062001a45620012f8849e6200085a565b996323b872dd9a62001a6e60008d339d8e9562001a6160405190565b998a978896879560e01b90565b855260048501620014fc565b03925af19081156200143d5762001a6e60008b62001acc62001ab4620012f88d9b8f98620012f89060209b889162001db6575b506200152b565b9462001abf60405190565b9a8b978896879560e01b90565b03925af19283156200143d5762001b139362001af29160009162001d93575b5062001592565b602062001b03620012f8876200085a565b636a627842906200131e60405190565b82528160008162001b288c6004830162000396565b03925af19283156200143d5760009362001d5c575b50829862001b5862001b506000620008c6565b85116200161f565b62001b67575b50505050505050565b62001b8f9062001b8762000ce362001b80600462000c61565b9262000335565b141562001686565b62001ba762001b9f6000620008c6565b8411620016ed565b62001bd662001bc262001bbb600a620008c6565b8462001754565b62001bcf612710620008c6565b9062001797565b9160208662001be68584620017a8565b9862001a6e600062001bfc620012f88b6200085a565b9262001c2462001c0c306200085a565b9762001c1760405190565b9889978896879560e01b90565b03925af180156200143d578662001cb38762001ca362001cce9760009762001c588e978a998a9162001d27575b50620017b6565b8a62001c65600462000c61565b9762001c7060405190565b9788966004602089017f44e5550f0000000000000000000000000000000000000000000000000000000081520162001899565b6020820181038252038262000438565b82602082019151925af162001cc762001903565b5062001925565b62001cfe620013ec7f1888a9947a0ba12fbcaea833c7145e4ae63c88020edc424d7eda6753fc3411e0936200085a565b9362001d1762001d0d60405190565b928392836200198c565b0390a33880808080808062001b5e565b62001d4d915060203d811162001d54575b62001d44818362000438565b810190620014e5565b3862001c51565b503d62001d38565b62001d8391935060203d811162001d8b575b62001d7a818362000438565b81019062001608565b913862001b3d565b503d62001d6e565b62001daf915060203d811162001d545762001d44818362000438565b3862001aeb565b62001dd191508c3d811162001d545762001d44818362000438565b3862001aad565b5062001a2562001de96000620008c6565b8611905062001a1a565b5062001a0562001e038262000335565b62001e0e8562000335565b14159050620019fa565b620002ce91620012499162001e2d8262000335565b62001e388262000335565b101562001e4d5762000898905b600162000865565b90620008989062001e45565b620002ce9162000898620012499262001e70600090565b50600162000865565b62001cb39062001ca3620002679762001eb79762001e98600462000c61565b976000998a9962001b8762000ce362001eb18d62000c9d565b62000335565b62001c65600462000c61565b1562001ecb57565b6040517f08c379a000000000000000000000000000000000000000000000000000000000815260206004820152600860248201527f494e565f504149520000000000000000000000000000000000000000000000006044820152606490fd5b1562001f3257565b6040517f08c379a000000000000000000000000000000000000000000000000000000000815260206004820152600560248201527f4e4f5f4c500000000000000000000000000000000000000000000000000000006044820152606490fd5b1562001f9957565b6040517f08c379a000000000000000000000000000000000000000000000000000000000815260206004820152600960248201527f54465f4641494c454400000000000000000000000000000000000000000000006044820152606490fd5b909162002006600462000c61565b93620020446200203160009662001eb1620020218962000c9d565b9162001b8762000ce38462000335565b6200203c8562000335565b141562001ec3565b62002053620012f8846200085a565b946370a082316200206e6200206760405190565b9160e01b90565b81526020818062002083896004830162000396565b03818a5afa9081156200143d5760009162002196575b50620020b1620020a983620008c6565b821162001f2a565b620020cc62001bc2620020c5600a620008c6565b8362001754565b602087620020db8385620017a8565b9962001a6e866323b872dd62002100620020f5306200085a565b9862001a6160405190565b03925af19081156200143d5762001cb38762001ca38a93620021349862001c588e978a9960009162002173575b5062001f91565b62002164620013ec7f1888a9947a0ba12fbcaea833c7145e4ae63c88020edc424d7eda6753fc3411e0936200085a565b9362000e6462001d0d60405190565b6200218f915060203d811162001d545762001d44818362000438565b386200212d565b620021b2915060203d811162001d8b5762001d7a818362000438565b3862002099565b60409062001062620002679496959396620021dd606084019860008501906200038b565b6020830152565b15620021ec57565b6040517f08c379a000000000000000000000000000000000000000000000000000000000815260206004820152600d60248201527f554e4c4f434b5f4641494c4544000000000000000000000000000000000000006044820152606490fd5b62000267926200227e92620022cc62002265600462000c61565b93600095869562001b8762000ce362001eb18962000c9d565b62001ca36200228e600462000c61565b946200229960405190565b9485936004602086017f573044e300000000000000000000000000000000000000000000000000000000815201620021b9565b82602082019151925af1620022e062001903565b50620021e4565b6200026790620022f662000cc8565b62002363565b156200230457565b6040517f08c379a000000000000000000000000000000000000000000000000000000000815260206004820152600a60248201527f494e565f4c4f434b4552000000000000000000000000000000000000000000006044820152606490fd5b6200238a6200237762001eb1600062000c9d565b620023828362000335565b1415620022fc565b62002396600462000c61565b90620023a481600462000de5565b62000e5662000e4f7f98816c25fdd38fe4567b76858ce644a62161b5272648b051b397055a72506892936200085a565b6200026790620022e7565b6200026790620023ee62000cc8565b6200245b565b15620023fc57565b6040517f08c379a000000000000000000000000000000000000000000000000000000000815260206004820152600c60248201527f4645455f544f4f5f4849474800000000000000000000000000000000000000006044820152606490fd5b620024766200246d620002ce620008d6565b821115620023f4565b620024826005620010fd565b906200249081600562001195565b7f14914da2bf76024616fbe1859783fcd4dbddcb179b1f3a854949fbf920dcb95791620024c062001d0d60405190565b0390a1565b6200026790620023df565b620002ce6005620010fd565b6200026790620024eb62000cc8565b6200026790620024c5565b6200026790620024dc565b6200250b62000cc8565b6040517f08c379a000000000000000000000000000000000000000000000000000000000815260206004820152600f60248201527f4e4f545f494d504c454d454e54454400000000000000000000000000000000006044820152606490fd5b62002501565b905051906200026782620003ef565b906020828203126200025e57620002ce9162002570565b6020919250620025a4600090565b50620025b0306200085a565b620025d6600063c9c65396620025e2620025c960405190565b9788968795869460e01b90565b84526004840162001044565b03925af19081156200143d57600091620025fa575090565b620002ce915060203d811162002620575b62002617818362000438565b8101906200257f565b503d6200260b565b6040517f08c379a000000000000000000000000000000000000000000000000000000000815260206004820152601f60248201527f557365206e6577206c6f636b4c6971756964697479207369676e6174757265006044820152606490fd5b6040517f08c379a000000000000000000000000000000000000000000000000000000000815260206004820152602160248201527f557365206e657720756e6c6f636b4c6971756964697479207369676e6174757260448201527f65000000000000000000000000000000000000000000000000000000000000006064820152608490fdfe6080604052346200002657620000146200009b565b60405161308c6200011c823961308c90f35b600080fd5b906001600160a01b03905b9181191691161790565b620000569062000059906001600160a01b031682565b90565b6001600160a01b031690565b620000569062000040565b620000569062000065565b906200008f62000056620000979262000070565b82546200002b565b9055565b620000a5620000b4565b620000b23360046200007b565b565b620000b2620000b262000105565b6200005662000056620000569290565b620000566001620000c2565b906000199062000036565b90620000fd620000566200009792620000c2565b8254620000de565b620000b262000113620000d2565b6000620000e956fe6080604052600436101561001257600080fd5b60003560e01c8063022c0d9f1461021257806306fdde031461020d5780630902f1ac14610208578063095ea7b3146102035780630dfe1681146101fe57806318160ddd146101f957806323b872dd146101f457806330adf81f146101ef578063313ce567146101ea5780633566414c146101e55780633644e515146101e0578063485cc955146101db5780635909c0d5146101d65780635a3d5493146101d15780635c975abb146101cc5780636a627842146101c757806370a08231146101c25780637174b568146101bd5780637464fc3d146101b85780637ecebe00146101b3578063820d25a8146101ae57806389afcb44146101a957806395d89b41146101a4578063a9059cbb1461019f578063ba9a7a561461019a578063bc25cf7714610195578063be11b1d014610190578063c45a01551461018b578063d21220a714610186578063d505accf14610181578063dd62ed3e1461017c5763fff6cae90361022057610ac0565b610aa4565b610a6b565b6109d4565b6109ad565b610986565b610951565b610936565b6108fa565b6108df565b6108b1565b610881565b610828565b6107fb565b6107e0565b6107b3565b610742565b610713565b6106f8565b6106d1565b6106ac565b61066e565b610653565b6105cf565b610596565b61057a565b61051e565b6104ba565b610455565b6103e2565b6103b7565b6102fd565b805b0361022057565b600080fd5b9050359061023282610217565b565b73ffffffffffffffffffffffffffffffffffffffff1690565b90565b73ffffffffffffffffffffffffffffffffffffffff8116610219565b9050359061023282610250565b909182601f830112156102205781359167ffffffffffffffff831161022057602001926001830284011161022057565b90608082820312610220576102be8183610225565b926102cc8260208501610225565b926102da836040830161026c565b92606082013567ffffffffffffffff8111610220576102f99201610279565b9091565b34610220576103196103103660046102a9565b9392909261253a565b604051005b0390f35b600091031261022057565b60005b8381106103405750506000910152565b8181015183820152602001610330565b61037161037a6020936103a293610365815190565b80835293849260200190565b9586910161032d565b601f017fffffffffffffffffffffffffffffffffffffffffffffffffffffffffffffffe01690565b0190565b602080825261024d92910190610350565b34610220576103c7366004610322565b61031e6103d2612951565b604051918291826103a6565b9052565b34610220576103f2366004610322565b61031e6103fd610e80565b604080516dffffffffffffffffffffffffffff948516815293909216602084015263ffffffff16908201529081906060820190565b91906040838203126102205761024d9061044c818561026c565b93602001610225565b346102205761031e61047161046b366004610432565b906127a1565b60405191829182901515815260200190565b61024d916008021c73ffffffffffffffffffffffffffffffffffffffff1690565b9061024d9154610483565b61024d6001806104a4565b34610220576104ca366004610322565b61031e6104d56104af565b6040519182918273ffffffffffffffffffffffffffffffffffffffff909116815260200190565b61024d916008021c81565b9061024d91546104fc565b61024d60006008610507565b346102205761052e366004610322565b61031e610539610512565b6040515b9182918290815260200190565b90916060828403126102205761024d610563848461026c565b93610571816020860161026c565b93604001610225565b346102205761031e61047161059036600461054a565b91612863565b34610220576105a6366004610322565b61031e7f6e71edae12b1b97f4d1f60370fef10105fa2faae0126114a169c64845d6126c9610539565b34610220576105df366004610322565b61031e6105ea6129a9565b6040519182918260ff909116815260200190565b906020828203126102205761024d91610225565b905b600052602052604060002090565b61024d916008021c5b60ff1690565b9061024d9154610622565b61024d9061064e600b91600092610612565b610631565b346102205761031e6104716106693660046105fe565b61063c565b346102205761067e366004610322565b61031e6105396129b3565b91906040838203126102205761024d906106a3818561026c565b9360200161026c565b34610220576103196106bf366004610689565b90610b74565b61024d60006005610507565b34610220576106e1366004610322565b61031e6105396106c5565b61024d60006006610507565b3461022057610708366004610322565b61031e6105396106ec565b3461022057610723366004610322565b61031e610471610ad8565b906020828203126102205761024d9161026c565b346102205761031e61053961075836600461072e565b611504565b61023461024d61024d9273ffffffffffffffffffffffffffffffffffffffff1690565b61024d9061075d565b61024d90610780565b9061061490610789565b61024d906107ae600791600092610792565b610507565b346102205761031e6105396107c936600461072e565b61079c565b61024d906107ae600a91600092610612565b346102205761031e6105396107f63660046105fe565b6107ce565b346102205761080b366004610322565b61031e610539612f2d565b61024d906107ae600d91600092610792565b346102205761031e61053961083e36600461072e565b610816565b908160209103126102205790565b90916060828403126102205761024d61086a848461026c565b93610878816020860161026c565b93604001610843565b3461022057610319610894366004610851565b91610e75565b9081526040810192916102329160200152565b0152565b34610220576108c96108c436600461072e565b611d20565b9061031e6108d660405190565b9283928361089a565b34610220576108ef366004610322565b61031e6103d2612994565b346102205761031e610471610910366004610432565b90612802565b61024d61024d61024d9290565b61024d6103e8610916565b61024d610923565b3461022057610946366004610322565b61031e61053961092e565b346102205761031961096436600461072e565b612df7565b61024d9061062b565b61024d9054610969565b61024d6009610972565b3461022057610996366004610322565b61031e61047161097c565b61024d600060046104a4565b34610220576109bd366004610322565b61031e6104d56109a1565b61024d600060026104a4565b34610220576109e4366004610322565b61031e6104d56109c8565b60ff8116610219565b90503590610232826109ef565b60e08183031261022057610a19828261026c565b92610a27836020840161026c565b92610a358160408501610225565b92610a438260608301610225565b9261024d610a5484608085016109f8565b93610a628160a08601610225565b9360c001610225565b3461022057610319610a7e366004610a05565b95949094939193612caf565b6107ae61024d92610a9f600c93600094610792565b610792565b346102205761031e610539610aba366004610689565b90610a8a565b3461022057610ad0366004610322565b610319612626565b61024d6001610972565b7f4e487b7100000000000000000000000000000000000000000000000000000000600052604160045260246000fd5b90601f017fffffffffffffffffffffffffffffffffffffffffffffffffffffffffffffffe016810190811067ffffffffffffffff821117610b5157604052565b610ae2565b90610232610b6360405190565b9283610b11565b61024d6020610b56565b61023291600191610b8d610b86610b6a565b9315158452565b610cda565b61024d9060081c610234565b61024d9054610b92565b61023461024d61024d9290565b61024d90610ba8565b15610bc557565b6040517f08c379a000000000000000000000000000000000000000000000000000000000815260206004820152601c60248201527f444558506169723a20414c52454144595f494e495449414c495a4544000000006044820152606490fd5b0390fd5b9074ffffffffffffffffffffffffffffffffffffffff009060081b5b9181191691161790565b90610c5e61024d610c6592610789565b8254610c28565b9055565b9073ffffffffffffffffffffffffffffffffffffffff90610c44565b90610c9561024d610c6592610789565b8254610c69565b9060ff90610c44565b90610cb561024d610c6592151590565b8254610c9c565b61023291610cca9051151590565b90610ca5565b9061023291610cbc565b90610d26610d2d92610d1f610cef6001610b9e565b610d19610cff6102346000610bb5565b9173ffffffffffffffffffffffffffffffffffffffff1690565b14610bbe565b6001610c4e565b6002610c85565b610d38816009610cd0565b610d767fb1102bf8599badf4360419344e57744751c4d685c0864e807454e60f8e6addbc91610d6660405190565b9182918290511515815260200190565b0390a1565b61024d90610234565b61024d9054610d7b565b15610d9557565b6040517f08c379a000000000000000000000000000000000000000000000000000000000815260206004820152601260248201527f444558506169723a20464f5242494444454e00000000000000000000000000006044820152606490fd5b906102329291610e1433610e0e610cff6102346004610d84565b14610d8e565b610e62565b801515610219565b9050359061023282610e19565b91909160208184031261022057610e51610e486020610b56565b93600092610e21565b90830152565b61024d903690610e2e565b90610e6f61023293610e57565b91610cda565b906102329291610df4565b610e88610ee2565b9192909190565b61024d905b6dffffffffffffffffffffffffffff1690565b61024d9054610e8f565b61024d9060701c610e94565b61024d9054610eb1565b61024d9060e01c5b63ffffffff1690565b61024d9054610ec7565b610eec6003610ea7565b90610ef76003610ebd565b9061024d6003610ed8565b90610f1491610f0f611591565b610f1d565b906102326115ea565b9061024d91610f2a61150f565b9061024d91611220565b9050519061023282610217565b906020828203126102205761024d91610f34565b6040513d6000823e3d90fd5b61024d61024d61024d926dffffffffffffffffffffffffffff1690565b7f4e487b7100000000000000000000000000000000000000000000000000000000600052601160045260246000fd5b91908203918211610fba57565b610f7e565b15610fc657565b6040517f08c379a000000000000000000000000000000000000000000000000000000000815260206004820152602260248201527f444558506169723a20494e53554646494349454e545f494e5055545f414d4f5560448201527f4e540000000000000000000000000000000000000000000000000000000000006064820152608490fd5b61024d9081565b61024d905461104b565b610e9461024d61024d9290565b1561107057565b6040517f08c379a000000000000000000000000000000000000000000000000000000000815260206004820152601e60248201527f444558506169723a20494e53554646494349454e545f524553455256455300006044820152606490fd5b9190918083025b928184041490151715610fba57565b7f4e487b7100000000000000000000000000000000000000000000000000000000600052601260045260246000fd5b9061111e565b9190565b908115611129570490565b6110e5565b1561113557565b6040517f08c379a000000000000000000000000000000000000000000000000000000000815260206004820152602660248201527f444558506169723a20494e53554646494349454e545f4c49515549444954595f60448201527f4d494e54454400000000000000000000000000000000000000000000000000006064820152608490fd5b156111c157565b6040517f08c379a000000000000000000000000000000000000000000000000000000000815260206004820152601c60248201527f444558506169723a204c49515549444954595f544f4f5f4c41524745000000006044820152606490fd5b509061122a610ee2565b509061124161123c61123c6001610b9e565b610789565b6370a0823161124f30610789565b602061125a60405190565b80946112668560e01b90565b825273ffffffffffffffffffffffffffffffffffffffff8416600483015260249082905afa9081156114df576112f1936000926114e4575b50602091926112cd6112b661123c61123c6002610d84565b916112c060405190565b9687948593849360e01b90565b835273ffffffffffffffffffffffffffffffffffffffff1660048301526024820190565b03915afa9182156114df576000926114af575b5061131761131184610f61565b82610fad565b61132961132386610f61565b84610fad565b906113346000610916565b811180611498575b61134590610fbf565b61134f6008611052565b6113596000610916565b810361140057506113a59761138061137b61023298979695946113fb946110cf565b6126f5565b9061139361138c610923565b8093610fad565b998a926113a06000610bb5565b61262e565b6113b96113b26000610916565b831161112e565b6113a06113f361024d7fffffffffffffffffffffffffffffffffffffffffffffffffffffffffffffffff6113ed6008611052565b90610fad565b8311156111ba565b6117e6565b8594939261147561146c8361146661145761147b966113fb986114526102329f9e8f90611444611430600061105c565b916dffffffffffffffffffffffffffff1690565b119081611482575b50611069565b6110cf565b6114608b610f61565b90611114565b936110cf565b61146089610f61565b906126e3565b80986113a5565b9050611491611430600061105c565b118f61144c565b506113456114a66000610916565b8311905061133c565b6114d191925060203d81116114d8575b6114c98183610b11565b810190610f41565b9038611304565b503d6114bf565b610f55565b602092506114fe90833d81116114d8576114c98183610b11565b9161129e565b61024d906000610f02565b611517610ad8565b61151d57565b6040517fd93c0665000000000000000000000000000000000000000000000000000000008152600490fd5b61024d6002610916565b907fffffffffffffffffffffffffffffffffffffffffffffffffffffffffffffffff90610c44565b9061158a61024d610c6592610916565b8254611552565b61159b6000611052565b6115a3611548565b9081146115b55761023290600061157a565b6040517f3ee5aeb5000000000000000000000000000000000000000000000000000000008152600490fd5b61024d6001610916565b6102326115f56115e0565b600061157a565b1561160357565b6040517f08c379a000000000000000000000000000000000000000000000000000000000815260206004820152601160248201527f444558506169723a204f564552464c4f570000000000000000000000000000006044820152606490fd5b8115611129570690565b610ecf61024d61024d9290565b63ffffffff908116911690039063ffffffff8211610fba57565b61024d61024d61024d927bffffffffffffffffffffffffffffffffffffffffffffffffffffffff1690565b61024d61024d61024d9263ffffffff1690565b91908201809211610fba57565b906dffffffffffffffffffffffffffff90610c44565b610e9461024d61024d926dffffffffffffffffffffffffffff1690565b9061172161024d610c65926116f4565b82546116de565b907bffffffffffffffffffffffffffff00000000000000000000000000009060701b610c44565b9061175f61024d610c65926116f4565b8254611728565b907fffffffff000000000000000000000000000000000000000000000000000000009060e01b610c44565b610ecf61024d61024d9263ffffffff1690565b906117b461024d610c6592611791565b8254611766565b6103de90610f61565b9160206102329294936117df604082019660008301906117bb565b01906117bb565b6118999161188d611886611892936118a0976118236dffffffffffffffffffffffffffff61181381610f61565b84111590816119b6575b506115fc565b61184361183e42611838640100000000610916565b90611662565b61166c565b976118576118516003610ed8565b8a611679565b9160006118638161166c565b63ffffffff8516119081611992575b8161196f575b506118eb575b50505061105c565b6003611711565b61105c565b600361174f565b60036117a4565b6118aa6003610ea7565b6118b46003610ebd565b7fcf2aa50876cdfbb541206f89af0ee78d44a2abf8d328e37fa4917f982149848a91610d766118e260405190565b928392836117c4565b6119679261192f6119506119218461191c8761194b6119446119356119266119216119609d61191c6119569e612ff7565b613041565b611693565b61192f8b6116be565b906110cf565b61193f6005611052565b6116d1565b600561157a565b612ff7565b916116be565b61193f6006611052565b600661157a565b38808061187e565b611979915061105c565b6dffffffffffffffffffffffffffff8216141538611878565b905061199d8161105c565b6dffffffffffffffffffffffffffff8416141590611872565b6119c09150610f61565b8611153861181d565b906119dc92916119d7611591565b6119e6565b90916102326115ea565b906102f992916119f461150f565b906102f99291611a8b565b15611a0657565b6040517f08c379a000000000000000000000000000000000000000000000000000000000815260206004820152602660248201527f444558506169723a20494e53554646494349454e545f4c49515549444954595f60448201527f4255524e454400000000000000000000000000000000000000000000000000006064820152608490fd5b9291925050611a98610ee2565b509190611aa56001610b9e565b92611ab9611ab36002610d84565b94610789565b91611ac383610789565b926370a0823190611ad330610789565b60405197611ae18460e01b90565b895273ffffffffffffffffffffffffffffffffffffffff821660048a01526020896024818a5afa9889156114df57600099611cfc575b50611b2190610789565b611b2a81610789565b92611b3460405190565b9a611b3f8660e01b90565b8c5273ffffffffffffffffffffffffffffffffffffffff841660048d015260208c602481885afa9b8c156114df5760009c611cdc575b50611b81846007610792565b611b8a90611052565b92611b956008611052565b611ba0819d866110cf565b90611baa91611114565b9b8c9d611bb790866110cf565b90611bc191611114565b92839c83600092611bd184610916565b83118098611bef611bfa9a611bf597611bf594611cca575b506119ff565b8a6126b7565b611d94565b6020611c0560405190565b8097611c118660e01b90565b825273ffffffffffffffffffffffffffffffffffffffff8416600483015260249082905afa9182156114df57611c6996600093611ca6575b506112cd839460209450611c5c60405190565b9889948593849360e01b90565b03915afa9081156114df5761023294600092611c86575b506117e6565b611c9f91925060203d81116114d8576114c98183610b11565b9038611c80565b60209350611cc36112cd91853d81116114d8576114c98183610b11565b9350611c49565b611cd49150610916565b8a1138611be9565b611cf5919c5060203d81116114d8576114c98183610b11565b9a38611b75565b611b21919950611d199060203d81116114d8576114c98183610b11565b9890611b17565b6102f9906000806119c9565b611d45611d3f61024d9263ffffffff1690565b60e01b90565b7fffffffff000000000000000000000000000000000000000000000000000000001690565b73ffffffffffffffffffffffffffffffffffffffff90911681526040810192916102329160200152565b611dd7600492611dc861023295611dae63a9059cbb611d2c565b92611db860405190565b9687946020860190815201611d6a565b60208201810382520383610b11565b906000602091611de5600090565b50828151910182855af115610f5557600080513d611e0561111a84610916565b03611e835750611e2161111a611e1a84610789565b3b92610916565b145b611e2a5750565b611e36610c2491610789565b6040519182917f5274afe70000000000000000000000000000000000000000000000000000000083526004830173ffffffffffffffffffffffffffffffffffffffff909116815260200190565b9050611e9261111a6001610916565b1415611e23565b90611eae94939291611ea9611591565b611eb6565b6102326115ea565b9061023294939291611ec661150f565b906102329493929161210c565b15611eda57565b6040517f08c379a000000000000000000000000000000000000000000000000000000000815260206004820152602360248201527f444558506169723a20494e53554646494349454e545f4f55545055545f414d4f60448201527f554e5400000000000000000000000000000000000000000000000000000000006064820152608490fd5b15611f6657565b6040517f08c379a000000000000000000000000000000000000000000000000000000000815260206004820152601f60248201527f444558506169723a20494e53554646494349454e545f4c4951554944495459006044820152606490fd5b15611fcc57565b6040517f08c379a000000000000000000000000000000000000000000000000000000000815260206004820152601360248201527f444558506169723a20494e56414c49445f544f000000000000000000000000006044820152606490fd5b90826000939282370152565b919061037a8161204e816103a29560209181520190565b809561202b565b90939161024d95936120926120999261208b6080860198600087019073ffffffffffffffffffffffffffffffffffffffff169052565b6020850152565b6040830152565b6060818503910152612037565b156120ad57565b6040517f08c379a000000000000000000000000000000000000000000000000000000000815260206004820152600a60248201527f444558506169723a204b000000000000000000000000000000000000000000006044820152606490fd5b93929192600061211b81610916565b861191828315612524575b61212f90611ed3565b612137610ee2565b5096909561214487610f61565b89108061250e575b61215590611f5f565b61215f6001610b9e565b9161216a6002610d84565b9573ffffffffffffffffffffffffffffffffffffffff841673ffffffffffffffffffffffffffffffffffffffff83161415806124eb575b6121aa90611fc5565b6124d8575b6121b885610916565b87116124c5575b836121cc61111a87610916565b1161242f575b50506121e2915061123c90610789565b956370a082316121f130610789565b9060206121fd60405190565b809a6122098460e01b90565b825273ffffffffffffffffffffffffffffffffffffffff8516600483015260249082905afa9485156114df5761226c996000966123fd575b50906112cd61225561123c60209594610789565b9161225f60405190565b9b8c948593849360e01b90565b03915afa9384156114df57858792610232996000976123c5575b50926123166113fb959361192f9361235c96826122ae61024d836122a986610f61565b610fad565b8b11156123af576122a96122d46122ce61024d946122a96122da97610f61565b8d610fad565b96610f61565b6000908a111561239f57506122f56122fb916122a98d610f61565b89610fad565b935b61230681610916565b831190811561238d575b50610fbf565b6113ed6103e89361192f61235661235061234a61233b6123358a610916565b8d6110cf565b6113ed60039861192f8a610916565b97610916565b8b6110cf565b93610916565b61238661111a61024d61237a61237189610f61565b61192f8b610f61565b61192f620f4240610916565b10156120a6565b6123979150610916565b841138612310565b6123a99150610916565b936122fd565b6122da925061024d91506122a96122d489610916565b61235c949197506113fb959361192f936123ef6123169360203d81116114d8576114c98183610b11565b999396509350939550612286565b6020939291965061225561123c6124236112cd93873d81116114d8576114c98183610b11565b98939495505050612241565b61123c61243b91610789565b9063bea9cf36913391813b15610220578680946124798e9861246e948d61246160405190565b9b8c998a98899760e01b90565b875260048701612055565b03925af19081156114df576121e29261123c92612499575b8192506121d2565b6124b890853d87116124be575b6124b08183610b11565b810190610322565b38612491565b503d6124a6565b6124d38782611bf589610789565b6121bf565b6124e68a82611bf586610789565b6121af565b5073ffffffffffffffffffffffffffffffffffffffff82811690881614156121a1565b5061215561251b89610f61565b8710905061214c565b5061212f61253183610916565b85119050612126565b9061023294939291611e99565b61254f611591565b611eae61256261123c61123c6001610b9e565b6370a0823161257030610789565b602061257b60405190565b80946125878560e01b90565b825273ffffffffffffffffffffffffffffffffffffffff8416600483015260249082905afa9081156114df576125d6936000926114e45750602091926112cd6112b661123c61123c6002610d84565b03915afa80156114df5761023292600091612608575b506125f76003610ea7565b906126026003610ebd565b926117e6565b612620915060203d81116114d8576114c98183610b11565b386125ec565b610232612547565b906126b16126a76102329361266161264a8561193f6008611052565b61265a61111a61024d6008611052565b10156115fc565b600761268f61267c8661193f6126778686610792565b611052565b61265a61111a61024d6126778787610792565b610a9f6126a08661193f6008611052565b600861157a565b9161193f83611052565b9061157a565b610232916126d96126cc6126a0936007610792565b6126b1836122a983611052565b6122a96008611052565b90808210156126f0575090565b905090565b9060006127026003610916565b831115612780575061273782600261272261271c82610916565b83611114565b91600193849361273185610916565b906116d1565b935b612744575b50505050565b9091929461274f8190565b86101561277a57506127716127688661193f8185611114565b61146084610916565b92919082612739565b9461273e565b9161278e61111a6000610916565b0361279557565b905061024d6001610916565b336127ba836127b584610a9f85600c610792565b61157a565b6127fa6127f06127ea7f8c5be1e5ebec7d5bd14f71427d1e84f3dd0314c0f7b2291e5b200ac8c7c3b92593610789565b93610789565b9361053d60405190565b0390a3600190565b33612833612826836007610a9f6128198683610792565b6126b1896122a983611052565b6126b18561193f83611052565b6127fa6127f06127ea7fddf252ad1be2c89b69c2b068fc378daa952ba7f163c4a11628f55a4df523b3ef93610789565b600c816128708183610792565b61287e612677338093610792565b60010161289f575b505050612833612826836007610a9f6128198683610792565b610a9f6128af926128bc94610792565b6126b1856122a983611052565b388181612886565b67ffffffffffffffff8111610b5157602090601f017fffffffffffffffffffffffffffffffffffffffffffffffffffffffffffffffe0160190565b9061291161290c836128c4565b610b56565b918252565b612920600c6128ff565b7f444558204c5020546f6b656e0000000000000000000000000000000000000000602082015290565b61024d612916565b61024d612949565b61296360026128ff565b7f4c50000000000000000000000000000000000000000000000000000000000000602082015290565b61024d612959565b61024d61298c565b61062b61024d61024d9290565b61024d601261299c565b61024d612a4b565b6129c560016128ff565b7f3100000000000000000000000000000000000000000000000000000000000000602082015290565b61024d6129bb565b9095949261023294612a28612a2f92612a21608096612a1a60a088019c6000890152565b6020870152565b6040850152565b6060830152565b019073ffffffffffffffffffffffffffffffffffffffff169052565b7f8b73c3c69bb8fe3d512ecc4cf759cc79239f7b179b0ffacaa9a75d522b39400f612ad0612a77612949565b612a89612a82825190565b9160200190565b20612a926129ee565b612a9d612a82825190565b2092612ac446612aac30610789565b90612ab660405190565b9687956020870195866129f6565b90810382520382610b11565b612adb612a82825190565b2090565b15612ae657565b6040517f08c379a000000000000000000000000000000000000000000000000000000000815260206004820152601060248201527f444558506169723a2045585049524544000000000000000000000000000000006044820152606490fd5b7fffffffffffffffffffffffffffffffffffffffffffffffffffffffffffffffff8114610fba5760010190565b9194612bdb6108ad92989795612bd460a096612bb76102329a612b9a60c08a019e60008b0152565b73ffffffffffffffffffffffffffffffffffffffff166020890152565b73ffffffffffffffffffffffffffffffffffffffff166040870152565b6060850152565b6080830152565b6020809392612c1a6129116103a2947f1901000000000000000000000000000000000000000000000000000000000000815260020190565b01918252565b6108ad61023294612092606094989795612c3f608086019a6000870152565b60ff166020850152565b15612c5057565b6040517f08c379a000000000000000000000000000000000000000000000000000000000815260206004820152601a60248201527f444558506169723a20494e56414c49445f5349474e41545552450000000000006044820152606490fd5b939094612d758397612ac4612d5689612d328a600099612ac460209c612cdd612cd54290565b821015612adf565b7f6e71edae12b1b97f4d1f60370fef10105fa2faae0126114a169c64845d6126c992612d0a85600d610792565b90612d21612d1783611052565b926126b184612b45565b604051978896602088019687612b72565b612d3d612a82825190565b20612d46612a4b565b6040519384928b84019283612be2565b612d61612a82825190565b2092612d6c60405190565b94859485612c20565b838052039060015afa156114df57600051612daf90612da973ffffffffffffffffffffffffffffffffffffffff8416610cff565b14612c49565b612dc2836127b584610a9f85600c610792565b612df26127f06127ea7f8c5be1e5ebec7d5bd14f71427d1e84f3dd0314c0f7b2291e5b200ac8c7c3b92593610789565b0390a3565b612e016001610b9e565b612e14612e0e6002610d84565b91610789565b91612e1e83610789565b926370a0823192612e2e30610789565b906020612e3a60405190565b8097612e468860e01b90565b825273ffffffffffffffffffffffffffffffffffffffff8516600483015260249082905afa9081156114df5761123c60209486612e9f612ea595612ec99b600091612f10575b506113ed612e9a6003610ea7565b610f61565b91611d94565b936112cd612eb286610789565b91612ebc60405190565b9788948593849360e01b90565b03915afa9283156114df5761023293612e9f91600091612ef2575b506113ed612e9a6003610ebd565b612f0a915060203d81116114d8576114c98183610b11565b38612ee4565b612f279150893d81116114d8576114c98183610b11565b38612e8c565b61024d612f3d612e9a6003610ea7565b61192f612e9a6003610ebd565b612f6761024d61024d926dffffffffffffffffffffffffffff1690565b7bffffffffffffffffffffffffffffffffffffffffffffffffffffffff1690565b612f6761024d61024d9290565b61024d6e010000000000000000000000000000612f88565b7bffffffffffffffffffffffffffffffffffffffffffffffffffffffff908116929116917bffffffffffffffffffffffffffffffffffffffffffffffffffffffff818402166110d6565b61300c61024d91613006600090565b50612f4a565b613014612f95565b90612fad565b7bffffffffffffffffffffffffffffffffffffffffffffffffffffffff908116911661111e565b61305061024d92613006600090565b9061301a56fea2646970667358221220f97c6b03d65fa8a1506faf19a15a9d4f78db4f4f2bacd67ae49e023b274442a664736f6c63430008140033a2646970667358221220f31654b4ca1e500ba8069dc3a55b601c574c1a201ff4f68c38039965cbbbb0e664736f6c63430008140033",
  "linkReferences": {},
  "deployedLinkReferences": {}
}