{
  "_format": "hh-sol-artifact-1",
  "contractName": "DEXPair",
  "sourceName": "contracts/DEXPair.sol",
  "abi": [
    {
      "inputs": [],
      "stateMutability": "nonpayable",
      "type": "constructor"
    },
    {
      "inputs": [],
      "name": "EnforcedPause",
      "type": "error"
    },
    {
      "inputs": [],
      "name": "ExpectedPause",
      "type": "error"
    },
    {
      "inputs": [],
      "name": "ReentrancyGuardReentrantCall",
      "type": "error"
    },
    {
      "inputs": [
        {
          "internalType": "address",
          "name": "token",
          "type": "address"
        }
      ],
      "name": "SafeERC20FailedOperation",
      "type": "error"
    },
    {
      "anonymous": false,
      "inputs": [
        {
          "indexed": true,
          "internalType": "address",
          "name": "owner",
          "type": "address"
        },
        {
          "indexed": true,
          "internalType": "address",
          "name": "spender",
          "type": "address"
        },
        {
          "indexed": false,
          "internalType": "uint256",
          "name": "value",
          "type": "uint256"
        }
      ],
      "name": "Approval",
      "type": "event"
    },
    {
      "anonymous": false,
      "inputs": [
        {
          "indexed": true,
          "internalType": "address",
          "name": "sender",
          "type": "address"
        },
        {
          "indexed": false,
          "internalType": "uint256",
          "name": "amount0",
          "type": "uint256"
        },
        {
          "indexed": false,
          "internalType": "uint256",
          "name": "amount1",
          "type": "uint256"
        },
        {
          "indexed": true,
          "internalType": "address",
          "name": "to",
          "type": "address"
        }
      ],
      "name": "Burn",
      "type": "event"
    },
    {
      "anonymous": false,
      "inputs": [
        {
          "indexed": true,
          "internalType": "address",
          "name": "sender",
          "type": "address"
        },
        {
          "indexed": false,
          "internalType": "uint256",
          "name": "amount0",
          "type": "uint256"
        },
        {
          "indexed": false,
          "internalType": "uint256",
          "name": "amount1",
          "type": "uint256"
        }
      ],
      "name": "Mint",
      "type": "event"
    },
    {
      "anonymous": false,
      "inputs": [
        {
          "indexed": false,
          "internalType": "address",
          "name": "account",
          "type": "address"
        }
      ],
      "name": "Paused",
      "type": "event"
    },
    {
      "anonymous": false,
      "inputs": [
        {
          "components": [
            {
              "internalType": "bool",
              "name": "emergencyStop",
              "type": "bool"
            }
          ],
          "indexed": false,
          "internalType": "struct IDEXFactory.PoolSecurityConfig",
          "name": "config",
          "type": "tuple"
        }
      ],
      "name": "SecurityConfigUpdated",
      "type": "event"
    },
    {
      "anonymous": false,
      "inputs": [
        {
          "indexed": true,
          "internalType": "address",
          "name": "sender",
          "type": "address"
        },
        {
          "indexed": false,
          "internalType": "uint256",
          "name": "amount0In",
          "type": "uint256"
        },
        {
          "indexed": false,
          "internalType": "uint256",
          "name": "amount1In",
          "type": "uint256"
        },
        {
          "indexed": false,
          "internalType": "uint256",
          "name": "amount0Out",
          "type": "uint256"
        },
        {
          "indexed": false,
          "internalType": "uint256",
          "name": "amount1Out",
          "type": "uint256"
        },
        {
          "indexed": true,
          "internalType": "address",
          "name": "to",
          "type": "address"
        }
      ],
      "name": "Swap",
      "type": "event"
    },
    {
      "anonymous": false,
      "inputs": [
        {
          "indexed": false,
          "internalType": "uint256",
          "name": "reserve0",
          "type": "uint256"
        },
        {
          "indexed": false,
          "internalType": "uint256",
          "name": "reserve1",
          "type": "uint256"
        }
      ],
      "name": "Sync",
      "type": "event"
    },
    {
      "anonymous": false,
      "inputs": [
        {
          "indexed": true,
          "internalType": "bytes32",
          "name": "proposalId",
          "type": "bytes32"
        },
        {
          "indexed": true,
          "internalType": "address",
          "name": "proposer",
          "type": "address"
        },
        {
          "indexed": false,
          "internalType": "uint256",
          "name": "executionTime",
          "type": "uint256"
        }
      ],
      "name": "TimelockProposalCreated",
      "type": "event"
    },
    {
      "anonymous": false,
      "inputs": [
        {
          "indexed": true,
          "internalType": "bytes32",
          "name": "proposalId",
          "type": "bytes32"
        }
      ],
      "name": "TimelockProposalExecuted",
      "type": "event"
    },
    {
      "anonymous": false,
      "inputs": [
        {
          "indexed": true,
          "internalType": "address",
          "name": "from",
          "type": "address"
        },
        {
          "indexed": true,
          "internalType": "address",
          "name": "to",
          "type": "address"
        },
        {
          "indexed": false,
          "internalType": "uint256",
          "name": "value",
          "type": "uint256"
        }
      ],
      "name": "Transfer",
      "type": "event"
    },
    {
      "anonymous": false,
      "inputs": [
        {
          "indexed": false,
          "internalType": "address",
          "name": "account",
          "type": "address"
        }
      ],
      "name": "Unpaused",
      "type": "event"
    },
    {
      "inputs": [],
      "name": "DOMAIN_SEPARATOR",
      "outputs": [
        {
          "internalType": "bytes32",
          "name": "",
          "type": "bytes32"
        }
      ],
      "stateMutability": "view",
      "type": "function"
    },
    {
      "inputs": [],
      "name": "MINIMUM_LIQUIDITY",
      "outputs": [
        {
          "internalType": "uint256",
          "name": "",
          "type": "uint256"
        }
      ],
      "stateMutability": "view",
      "type": "function"
    },
    {
      "inputs": [],
      "name": "PERMIT_TYPEHASH",
      "outputs": [
        {
          "internalType": "bytes32",
          "name": "",
          "type": "bytes32"
        }
      ],
      "stateMutability": "view",
      "type": "function"
    },
    {
      "inputs": [
        {
          "internalType": "address",
          "name": "",
          "type": "address"
        },
        {
          "internalType": "address",
          "name": "",
          "type": "address"
        }
      ],
      "name": "allowance",
      "outputs": [
        {
          "internalType": "uint256",
          "name": "",
          "type": "uint256"
        }
      ],
      "stateMutability": "view",
      "type": "function"
    },
    {
      "inputs": [
        {
          "internalType": "address",
          "name": "spender",
          "type": "address"
        },
        {
          "internalType": "uint256",
          "name": "value",
          "type": "uint256"
        }
      ],
      "name": "approve",
      "outputs": [
        {
          "internalType": "bool",
          "name": "",
          "type": "bool"
        }
      ],
      "stateMutability": "nonpayable",
      "type": "function"
    },
    {
      "inputs": [
        {
          "internalType": "address",
          "name": "",
          "type": "address"
        }
      ],
      "name": "balanceOf",
      "outputs": [
        {
          "internalType": "uint256",
          "name": "",
          "type": "uint256"
        }
      ],
      "stateMutability": "view",
      "type": "function"
    },
    {
      "inputs": [
        {
          "internalType": "address",
          "name": "to",
          "type": "address"
        }
      ],
      "name": "burn",
      "outputs": [
        {
          "internalType": "uint256",
          "name": "amount0",
          "type": "uint256"
        },
        {
          "internalType": "uint256",
          "name": "amount1",
          "type": "uint256"
        }
      ],
      "stateMutability": "nonpayable",
      "type": "function"
    },
    {
      "inputs": [],
      "name": "decimals",
      "outputs": [
        {
          "internalType": "uint8",
          "name": "",
          "type": "uint8"
        }
      ],
      "stateMutability": "pure",
      "type": "function"
    },
    {
      "inputs": [
        {
          "internalType": "bytes32",
          "name": "",
          "type": "bytes32"
        }
      ],
      "name": "executedProposals",
      "outputs": [
        {
          "internalType": "bool",
          "name": "",
          "type": "bool"
        }
      ],
      "stateMutability": "view",
      "type": "function"
    },
    {
      "inputs": [],
      "name": "factory",
      "outputs": [
        {
          "internalType": "address",
          "name": "",
          "type": "address"
        }
      ],
      "stateMutability": "view",
      "type": "function"
    },
    {
      "inputs": [],
      "name": "getReserves",
      "outputs": [
        {
          "internalType": "uint112",
          "name": "_reserve0",
          "type": "uint112"
        },
        {
          "internalType": "uint112",
          "name": "_reserve1",
          "type": "uint112"
        },
        {
          "internalType": "uint32",
          "name": "_blockTimestampLast",
          "type": "uint32"
        }
      ],
      "stateMutability": "view",
      "type": "function"
    },
    {
      "inputs": [
        {
          "internalType": "address",
          "name": "_token0",
          "type": "address"
        },
        {
          "internalType": "address",
          "name": "_token1",
          "type": "address"
        }
      ],
      "name": "initialize",
      "outputs": [],
      "stateMutability": "nonpayable",
      "type": "function"
    },
    {
      "inputs": [
        {
          "internalType": "address",
          "name": "_token0",
          "type": "address"
        },
        {
          "internalType": "address",
          "name": "_token1",
          "type": "address"
        },
        {
          "components": [
            {
              "internalType": "bool",
              "name": "emergencyStop",
              "type": "bool"
            }
          ],
          "internalType": "struct IDEXFactory.PoolSecurityConfig",
          "name": "_securityConfig",
          "type": "tuple"
        }
      ],
      "name": "initialize",
      "outputs": [],
      "stateMutability": "nonpayable",
      "type": "function"
    },
    {
      "inputs": [],
      "name": "kLast",
      "outputs": [
        {
          "internalType": "uint256",
          "name": "",
          "type": "uint256"
        }
      ],
      "stateMutability": "view",
      "type": "function"
    },
    {
      "inputs": [
        {
          "internalType": "address",
          "name": "to",
          "type": "address"
        }
      ],
      "name": "mint",
      "outputs": [
        {
          "internalType": "uint256",
          "name": "liquidity",
          "type": "uint256"
        }
      ],
      "stateMutability": "nonpayable",
      "type": "function"
    },
    {
      "inputs": [],
      "name": "name",
      "outputs": [
        {
          "internalType": "string",
          "name": "",
          "type": "string"
        }
      ],
      "stateMutability": "pure",
      "type": "function"
    },
    {
      "inputs": [
        {
          "internalType": "address",
          "name": "",
          "type": "address"
        }
      ],
      "name": "nonces",
      "outputs": [
        {
          "internalType": "uint256",
          "name": "",
          "type": "uint256"
        }
      ],
      "stateMutability": "view",
      "type": "function"
    },
    {
      "inputs": [],
      "name": "paused",
      "outputs": [
        {
          "internalType": "bool",
          "name": "",
          "type": "bool"
        }
      ],
      "stateMutability": "view",
      "type": "function"
    },
    {
      "inputs": [
        {
          "internalType": "address",
          "name": "owner",
          "type": "address"
        },
        {
          "internalType": "address",
          "name": "spender",
          "type": "address"
        },
        {
          "internalType": "uint256",
          "name": "value",
          "type": "uint256"
        },
        {
          "internalType": "uint256",
          "name": "deadline",
          "type": "uint256"
        },
        {
          "internalType": "uint8",
          "name": "v",
          "type": "uint8"
        },
        {
          "internalType": "bytes32",
          "name": "r",
          "type": "bytes32"
        },
        {
          "internalType": "bytes32",
          "name": "s",
          "type": "bytes32"
        }
      ],
      "name": "permit",
      "outputs": [],
      "stateMutability": "nonpayable",
      "type": "function"
    },
    {
      "inputs": [],
      "name": "price0CumulativeLast",
      "outputs": [
        {
          "internalType": "uint256",
          "name": "",
          "type": "uint256"
        }
      ],
      "stateMutability": "view",
      "type": "function"
    },
    {
      "inputs": [],
      "name": "price1CumulativeLast",
      "outputs": [
        {
          "internalType": "uint256",
          "name": "",
          "type": "uint256"
        }
      ],
      "stateMutability": "view",
      "type": "function"
    },
    {
      "inputs": [],
      "name": "securityConfig",
      "outputs": [
        {
          "internalType": "bool",
          "name": "emergencyStop",
          "type": "bool"
        }
      ],
      "stateMutability": "view",
      "type": "function"
    },
    {
      "inputs": [
        {
          "internalType": "address",
          "name": "to",
          "type": "address"
        }
      ],
      "name": "skim",
      "outputs": [],
      "stateMutability": "nonpayable",
      "type": "function"
    },
    {
      "inputs": [
        {
          "internalType": "uint256",
          "name": "amount0Out",
          "type": "uint256"
        },
        {
          "internalType": "uint256",
          "name": "amount1Out",
          "type": "uint256"
        },
        {
          "internalType": "address",
          "name": "to",
          "type": "address"
        },
        {
          "internalType": "bytes",
          "name": "data",
          "type": "bytes"
        }
      ],
      "name": "swap",
      "outputs": [],
      "stateMutability": "nonpayable",
      "type": "function"
    },
    {
      "inputs": [],
      "name": "symbol",
      "outputs": [
        {
          "internalType": "string",
          "name": "",
          "type": "string"
        }
      ],
      "stateMutability": "pure",
      "type": "function"
    },
    {
      "inputs": [],
      "name": "sync",
      "outputs": [],
      "stateMutability": "nonpayable",
      "type": "function"
    },
    {
      "inputs": [
        {
          "internalType": "bytes32",
          "name": "",
          "type": "bytes32"
        }
      ],
      "name": "timelockProposals",
      "outputs": [
        {
          "internalType": "uint256",
          "name": "",
          "type": "uint256"
        }
      ],
      "stateMutability": "view",
      "type": "function"
    },
    {
      "inputs": [],
      "name": "token0",
      "outputs": [
        {
          "internalType": "address",
          "name": "",
          "type": "address"
        }
      ],
      "stateMutability": "view",
      "type": "function"
    },
    {
      "inputs": [],
      "name": "token1",
      "outputs": [
        {
          "internalType": "address",
          "name": "",
          "type": "address"
        }
      ],
      "stateMutability": "view",
      "type": "function"
    },
    {
      "inputs": [],
      "name": "totalSupply",
      "outputs": [
        {
          "internalType": "uint256",
          "name": "",
          "type": "uint256"
        }
      ],
      "stateMutability": "view",
      "type": "function"
    },
    {
      "inputs": [
        {
          "internalType": "address",
          "name": "to",
          "type": "address"
        },
        {
          "internalType": "uint256",
          "name": "value",
          "type": "uint256"
        }
      ],
      "name": "transfer",
      "outputs": [
        {
          "internalType": "bool",
          "name": "",
          "type": "bool"
        }
      ],
      "stateMutability": "nonpayable",
      "type": "function"
    },
    {
      "inputs": [
        {
          "internalType": "address",
          "name": "from",
          "type": "address"
        },
        {
          "internalType": "address",
          "name": "to",
          "type": "address"
        },
        {
          "internalType": "uint256",
          "name": "value",
          "type": "uint256"
        }
      ],
      "name": "transferFrom",
      "outputs": [
        {
          "internalType": "bool",
          "name": "",
          "type": "bool"
        }
      ],
      "stateMutability": "nonpayable",
      "type": "function"
    }
  ],
  "bytecode": "0x6080604052346200002657620000146200009b565b604051612eb96200011c8239612eb990f35b600080fd5b906001600160a01b03905b9181191691161790565b620000569062000059906001600160a01b031682565b90565b6001600160a01b031690565b620000569062000040565b620000569062000065565b906200008f62000056620000979262000070565b82546200002b565b9055565b620000a5620000b4565b620000b23360046200007b565b565b620000b2620000b262000105565b6200005662000056620000569290565b620000566001620000c2565b906000199062000036565b90620000fd620000566200009792620000c2565b8254620000de565b620000b262000113620000d2565b6000620000e956fe6080604052600436101561001257600080fd5b60003560e01c8063022c0d9f1461021257806306fdde031461020d5780630902f1ac14610208578063095ea7b3146102035780630dfe1681146101fe57806318160ddd146101f957806323b872dd146101f457806330adf81f146101ef578063313ce567146101ea5780633566414c146101e55780633644e515146101e0578063485cc955146101db5780635909c0d5146101d65780635a3d5493146101d15780635c975abb146101cc5780636a627842146101c757806370a08231146101c25780637174b568146101bd5780637464fc3d146101b85780637ecebe00146101b3578063820d25a8146101ae57806389afcb44146101a957806395d89b41146101a4578063a9059cbb1461019f578063ba9a7a561461019a578063bc25cf7714610195578063be11b1d014610190578063c45a01551461018b578063d21220a714610186578063d505accf14610181578063dd62ed3e1461017c5763fff6cae90361022057610ac0565b610aa4565b610a6b565b6109d4565b6109ad565b610986565b610951565b610936565b6108fa565b6108df565b6108b1565b610881565b610828565b6107fb565b6107e0565b6107b3565b610742565b610713565b6106f8565b6106d1565b6106ac565b61066e565b610653565b6105cf565b610596565b61057a565b61051e565b6104ba565b610455565b6103e2565b6103b7565b6102fd565b805b0361022057565b600080fd5b9050359061023282610217565b565b73ffffffffffffffffffffffffffffffffffffffff1690565b90565b73ffffffffffffffffffffffffffffffffffffffff8116610219565b9050359061023282610250565b909182601f830112156102205781359167ffffffffffffffff831161022057602001926001830284011161022057565b90608082820312610220576102be8183610225565b926102cc8260208501610225565b926102da836040830161026c565b92606082013567ffffffffffffffff8111610220576102f99201610279565b9091565b34610220576103196103103660046102a9565b939290926123b1565b604051005b0390f35b600091031261022057565b60005b8381106103405750506000910152565b8181015183820152602001610330565b61037161037a6020936103a293610365815190565b80835293849260200190565b9586910161032d565b601f017fffffffffffffffffffffffffffffffffffffffffffffffffffffffffffffffe01690565b0190565b602080825261024d92910190610350565b34610220576103c7366004610322565b61031e6103d261277e565b604051918291826103a6565b9052565b34610220576103f2366004610322565b61031e6103fd610e80565b604080516dffffffffffffffffffffffffffff948516815293909216602084015263ffffffff16908201529081906060820190565b91906040838203126102205761024d9061044c818561026c565b93602001610225565b346102205761031e61047161046b366004610432565b906125c9565b60405191829182901515815260200190565b61024d916008021c73ffffffffffffffffffffffffffffffffffffffff1690565b9061024d9154610483565b61024d6001806104a4565b34610220576104ca366004610322565b61031e6104d56104af565b6040519182918273ffffffffffffffffffffffffffffffffffffffff909116815260200190565b61024d916008021c81565b9061024d91546104fc565b61024d60006008610507565b346102205761052e366004610322565b61031e610539610512565b6040515b9182918290815260200190565b90916060828403126102205761024d610563848461026c565b93610571816020860161026c565b93604001610225565b346102205761031e61047161059036600461054a565b9161268b565b34610220576105a6366004610322565b61031e7f6e71edae12b1b97f4d1f60370fef10105fa2faae0126114a169c64845d6126c9610539565b34610220576105df366004610322565b61031e6105ea6127d6565b6040519182918260ff909116815260200190565b906020828203126102205761024d91610225565b905b600052602052604060002090565b61024d916008021c5b60ff1690565b9061024d9154610622565b61024d9061064e600b91600092610612565b610631565b346102205761031e6104716106693660046105fe565b61063c565b346102205761067e366004610322565b61031e6105396127e0565b91906040838203126102205761024d906106a3818561026c565b9360200161026c565b34610220576103196106bf366004610689565b90610b74565b61024d60006005610507565b34610220576106e1366004610322565b61031e6105396106c5565b61024d60006006610507565b3461022057610708366004610322565b61031e6105396106ec565b3461022057610723366004610322565b61031e610471610ad8565b906020828203126102205761024d9161026c565b346102205761031e61053961075836600461072e565b6112ec565b61023461024d61024d9273ffffffffffffffffffffffffffffffffffffffff1690565b61024d9061075d565b61024d90610780565b9061061490610789565b61024d906107ae600791600092610792565b610507565b346102205761031e6105396107c936600461072e565b61079c565b61024d906107ae600a91600092610612565b346102205761031e6105396107f63660046105fe565b6107ce565b346102205761080b366004610322565b61031e610539612d5a565b61024d906107ae600d91600092610792565b346102205761031e61053961083e36600461072e565b610816565b908160209103126102205790565b90916060828403126102205761024d61086a848461026c565b93610878816020860161026c565b93604001610843565b3461022057610319610894366004610851565b91610e75565b9081526040810192916102329160200152565b0152565b34610220576108c96108c436600461072e565b611b15565b9061031e6108d660405190565b9283928361089a565b34610220576108ef366004610322565b61031e6103d26127c1565b346102205761031e610471610910366004610432565b9061262a565b61024d61024d61024d9290565b61024d6103e8610916565b61024d610923565b3461022057610946366004610322565b61031e61053961092e565b346102205761031961096436600461072e565b612c24565b61024d9061062b565b61024d9054610969565b61024d6009610972565b3461022057610996366004610322565b61031e61047161097c565b61024d600060046104a4565b34610220576109bd366004610322565b61031e6104d56109a1565b61024d600060026104a4565b34610220576109e4366004610322565b61031e6104d56109c8565b60ff8116610219565b90503590610232826109ef565b60e08183031261022057610a19828261026c565b92610a27836020840161026c565b92610a358160408501610225565b92610a438260608301610225565b9261024d610a5484608085016109f8565b93610a628160a08601610225565b9360c001610225565b3461022057610319610a7e366004610a05565b95949094939193612adc565b6107ae61024d92610a9f600c93600094610792565b610792565b346102205761031e610539610aba366004610689565b90610a8a565b3461022057610ad0366004610322565b61031961249d565b61024d6001610972565b7f4e487b7100000000000000000000000000000000000000000000000000000000600052604160045260246000fd5b90601f017fffffffffffffffffffffffffffffffffffffffffffffffffffffffffffffffe016810190811067ffffffffffffffff821117610b5157604052565b610ae2565b90610232610b6360405190565b9283610b11565b61024d6020610b56565b61023291600191610b8d610b86610b6a565b9315158452565b610cda565b61024d9060081c610234565b61024d9054610b92565b61023461024d61024d9290565b61024d90610ba8565b15610bc557565b6040517f08c379a000000000000000000000000000000000000000000000000000000000815260206004820152601c60248201527f444558506169723a20414c52454144595f494e495449414c495a4544000000006044820152606490fd5b0390fd5b9074ffffffffffffffffffffffffffffffffffffffff009060081b5b9181191691161790565b90610c5e61024d610c6592610789565b8254610c28565b9055565b9073ffffffffffffffffffffffffffffffffffffffff90610c44565b90610c9561024d610c6592610789565b8254610c69565b9060ff90610c44565b90610cb561024d610c6592151590565b8254610c9c565b61023291610cca9051151590565b90610ca5565b9061023291610cbc565b90610d26610d2d92610d1f610cef6001610b9e565b610d19610cff6102346000610bb5565b9173ffffffffffffffffffffffffffffffffffffffff1690565b14610bbe565b6001610c4e565b6002610c85565b610d38816009610cd0565b610d767fb1102bf8599badf4360419344e57744751c4d685c0864e807454e60f8e6addbc91610d6660405190565b9182918290511515815260200190565b0390a1565b61024d90610234565b61024d9054610d7b565b15610d9557565b6040517f08c379a000000000000000000000000000000000000000000000000000000000815260206004820152601260248201527f444558506169723a20464f5242494444454e00000000000000000000000000006044820152606490fd5b906102329291610e1433610e0e610cff6102346004610d84565b14610d8e565b610e62565b801515610219565b9050359061023282610e19565b91909160208184031261022057610e51610e486020610b56565b93600092610e21565b90830152565b61024d903690610e2e565b90610e6f61023293610e57565b91610cda565b906102329291610df4565b610e88610ee2565b9192909190565b61024d905b6dffffffffffffffffffffffffffff1690565b61024d9054610e8f565b61024d9060701c610e94565b61024d9054610eb1565b61024d9060e01c5b63ffffffff1690565b61024d9054610ec7565b610eec6003610ea7565b90610ef76003610ebd565b9061024d6003610ed8565b90610f1491610f0f611379565b610f1d565b906102326113d2565b9061024d91610f2a6112f7565b9061024d916110bb565b9050519061023282610217565b906020828203126102205761024d91610f34565b6040513d6000823e3d90fd5b61024d61024d61024d926dffffffffffffffffffffffffffff1690565b7f4e487b7100000000000000000000000000000000000000000000000000000000600052601160045260246000fd5b91908203918211610fba57565b610f7e565b61024d9081565b61024d9054610fbf565b9190918083025b928184041490151715610fba57565b7f4e487b7100000000000000000000000000000000000000000000000000000000600052601260045260246000fd5b9061101f565b9190565b90811561102a570490565b610fe6565b1561103657565b6040517f08c379a000000000000000000000000000000000000000000000000000000000815260206004820152602660248201527f444558506169723a20494e53554646494349454e545f4c49515549444954595f60448201527f4d494e54454400000000000000000000000000000000000000000000000000006064820152608490fd5b50906110c5610ee2565b50906110dc6110d76110d76001610b9e565b610789565b6370a082316110ea30610789565b60206110f560405190565b80946111018560e01b90565b825273ffffffffffffffffffffffffffffffffffffffff8416600483015260249082905afa9081156112c75761118c936000926112cc575b50602091926111686111516110d76110d76002610d84565b9161115b60405190565b9687948593849360e01b90565b835273ffffffffffffffffffffffffffffffffffffffff1660048301526024820190565b03915afa9182156112c757600092611297575b506111b26111ac84610f61565b82610fad565b6111c46111be86610f61565b84610fad565b966111cf6008610fc6565b916000926111dc84610916565b810361123f57509161123a9161122961123361120a61120561122e9d6102329c9b9a9998610fd0565b61251d565b9361121d611216610923565b8096610fad565b9c8d9561122983610bb5565b6124a5565b610916565b831161102f565b6115db565b9161122961128f6112339b6112896112808761127a8d6102329f9e9d9c9b9961126e61123a9c61127492610fd0565b91610f61565b90611015565b93610fd0565b6112748c610f61565b9061250b565b9a8b93610916565b6112b991925060203d81116112c0575b6112b18183610b11565b810190610f41565b903861119f565b503d6112a7565b610f55565b602092506112e690833d81116112c0576112b18183610b11565b91611139565b61024d906000610f02565b6112ff610ad8565b61130557565b6040517fd93c0665000000000000000000000000000000000000000000000000000000008152600490fd5b61024d6002610916565b907fffffffffffffffffffffffffffffffffffffffffffffffffffffffffffffffff90610c44565b9061137261024d610c6592610916565b825461133a565b6113836000610fc6565b61138b611330565b90811461139d57610232906000611362565b6040517f3ee5aeb5000000000000000000000000000000000000000000000000000000008152600490fd5b61024d6001610916565b6102326113dd6113c8565b6000611362565b156113eb57565b6040517f08c379a000000000000000000000000000000000000000000000000000000000815260206004820152601160248201527f444558506169723a204f564552464c4f570000000000000000000000000000006044820152606490fd5b811561102a570690565b610ecf61024d61024d9290565b63ffffffff908116911690039063ffffffff8211610fba57565b610e9461024d61024d9290565b61024d61024d61024d927bffffffffffffffffffffffffffffffffffffffffffffffffffffffff1690565b61024d61024d61024d9263ffffffff1690565b91908201809211610fba57565b906dffffffffffffffffffffffffffff90610c44565b610e9461024d61024d926dffffffffffffffffffffffffffff1690565b9061151661024d610c65926114e9565b82546114d3565b907bffffffffffffffffffffffffffff00000000000000000000000000009060701b610c44565b9061155461024d610c65926114e9565b825461151d565b907fffffffff000000000000000000000000000000000000000000000000000000009060e01b610c44565b610ecf61024d61024d9263ffffffff1690565b906115a961024d610c6592611586565b825461155b565b6103de90610f61565b9160206102329294936115d4604082019660008301906115b0565b01906115b0565b61168e9161168261167b61168793611695976116186dffffffffffffffffffffffffffff61160881610f61565b84111590816117ab575b506113e4565b6116386116334261162d640100000000610916565b9061144a565b611454565b9761164c6116466003610ed8565b8a611461565b91600061165881611454565b63ffffffff8516119081611787575b81611764575b506116e0575b50505061147b565b6003611506565b61147b565b6003611544565b6003611599565b61169f6003610ea7565b6116a96003610ebd565b7fcf2aa50876cdfbb541206f89af0ee78d44a2abf8d328e37fa4917f982149848a91610d766116d760405190565b928392836115b9565b61175c92611724611745611716846117118761174061173961172a61171b6117166117559d61171161174b9e612e24565b612e6e565b611488565b6117248b6114b3565b90610fd0565b6117346005610fc6565b6114c6565b6005611362565b612e24565b916114b3565b6117346006610fc6565b6006611362565b388080611673565b61176e915061147b565b6dffffffffffffffffffffffffffff821614153861166d565b90506117928161147b565b6dffffffffffffffffffffffffffff8416141590611667565b6117b59150610f61565b86111538611612565b906117d192916117cc611379565b6117db565b90916102326113d2565b906102f992916117e96112f7565b906102f99291611880565b156117fb57565b6040517f08c379a000000000000000000000000000000000000000000000000000000000815260206004820152602660248201527f444558506169723a20494e53554646494349454e545f4c49515549444954595f60448201527f4255524e454400000000000000000000000000000000000000000000000000006064820152608490fd5b929192505061188d610ee2565b50919061189a6001610b9e565b926118ae6118a86002610d84565b94610789565b916118b883610789565b926370a08231906118c830610789565b604051976118d68460e01b90565b895273ffffffffffffffffffffffffffffffffffffffff821660048a01526020896024818a5afa9889156112c757600099611af1575b5061191690610789565b61191f81610789565b9261192960405190565b9a6119348660e01b90565b8c5273ffffffffffffffffffffffffffffffffffffffff841660048d015260208c602481885afa9b8c156112c75760009c611ad1575b50611976846007610792565b61197f90610fc6565b9261198a6008610fc6565b611995819d86610fd0565b9061199f91611015565b9b8c9d6119ac9086610fd0565b906119b691611015565b92839c836000926119c684610916565b831180986119e46119ef9a6119ea976119ea94611abf575b506117f4565b8a6124df565b611b89565b60206119fa60405190565b8097611a068660e01b90565b825273ffffffffffffffffffffffffffffffffffffffff8416600483015260249082905afa9182156112c757611a5e96600093611a9b575b50611168839460209450611a5160405190565b9889948593849360e01b90565b03915afa9081156112c75761023294600092611a7b575b506115db565b611a9491925060203d81116112c0576112b18183610b11565b9038611a75565b60209350611ab861116891853d81116112c0576112b18183610b11565b9350611a3e565b611ac99150610916565b8a11386119de565b611aea919c5060203d81116112c0576112b18183610b11565b9a3861196a565b611916919950611b0e9060203d81116112c0576112b18183610b11565b989061190c565b6102f9906000806117be565b611b3a611b3461024d9263ffffffff1690565b60e01b90565b7fffffffff000000000000000000000000000000000000000000000000000000001690565b73ffffffffffffffffffffffffffffffffffffffff90911681526040810192916102329160200152565b611bcc600492611bbd61023295611ba363a9059cbb611b21565b92611bad60405190565b9687946020860190815201611b5f565b60208201810382520383610b11565b906000602091611bda600090565b50828151910182855af115610f5557600080513d611bfa61101b84610916565b03611c785750611c1661101b611c0f84610789565b3b92610916565b145b611c1f5750565b611c2b610c2491610789565b6040519182917f5274afe70000000000000000000000000000000000000000000000000000000083526004830173ffffffffffffffffffffffffffffffffffffffff909116815260200190565b9050611c8761101b6001610916565b1415611c18565b90611ca394939291611c9e611379565b611cab565b6102326113d2565b9061023294939291611cbb6112f7565b9061023294939291611f8d565b15611ccf57565b6040517f08c379a000000000000000000000000000000000000000000000000000000000815260206004820152602360248201527f444558506169723a20494e53554646494349454e545f4f55545055545f414d4f60448201527f554e5400000000000000000000000000000000000000000000000000000000006064820152608490fd5b15611d5b57565b6040517f08c379a000000000000000000000000000000000000000000000000000000000815260206004820152601f60248201527f444558506169723a20494e53554646494349454e545f4c4951554944495459006044820152606490fd5b15611dc157565b6040517f08c379a000000000000000000000000000000000000000000000000000000000815260206004820152601360248201527f444558506169723a20494e56414c49445f544f000000000000000000000000006044820152606490fd5b90826000939282370152565b919061037a81611e43816103a29560209181520190565b8095611e20565b90939161024d9593611e87611e8e92611e806080860198600087019073ffffffffffffffffffffffffffffffffffffffff169052565b6020850152565b6040830152565b6060818503910152611e2c565b15611ea257565b6040517f08c379a000000000000000000000000000000000000000000000000000000000815260206004820152602260248201527f444558506169723a20494e53554646494349454e545f494e5055545f414d4f5560448201527f4e540000000000000000000000000000000000000000000000000000000000006064820152608490fd5b15611f2e57565b6040517f08c379a000000000000000000000000000000000000000000000000000000000815260206004820152600a60248201527f444558506169723a204b000000000000000000000000000000000000000000006044820152606490fd5b90939291926000611f9d81610916565b83119182831561239b575b611fb190611cc8565b611fb9610ee2565b50969095611fc687610f61565b861080612385575b611fd790611d54565b611fe16001610b9e565b91611fec6002610d84565b9573ffffffffffffffffffffffffffffffffffffffff841673ffffffffffffffffffffffffffffffffffffffff8316141580612362575b61202c90611dba565b61234f575b61203a85610916565b8a1161233c575b8361204e61101b87610916565b116122a5575b505061206491506110d790610789565b956370a0823161207330610789565b90602061207f60405190565b809a61208b8460e01b90565b825273ffffffffffffffffffffffffffffffffffffffff8516600483015260249082905afa9485156112c7576120ee99600096612273575b50906111686120d76110d760209594610789565b916120e160405190565b9b8c948593849360e01b90565b03915afa9384156112c75761023297600095612243575b50916117246121dd9261123a9461212761024d826121228c610f61565b610fad565b8711156122335761213e612144916121228b610f61565b87610fad565b905b61215661024d826121228d610f61565b88111561222057612176612170612191926121228d610f61565b89610fad565b935b61218181610916565b831190811561220e575b50611e9b565b6121c56103e8936117246121d76121d16121cb6121b66121b08a610916565b8d610fd0565b6121c56003986117248a610916565b90610fad565b97610916565b8b610fd0565b93610916565b61220761101b61024d6121fb6121f289610f61565b6117248b610f61565b611724620f4240610916565b1015611f27565b6122189150610916565b84113861218b565b5061219161222d84610916565b93612178565b5061223d83610916565b90612146565b61123a939195506121dd926122686117249260203d81116112c0576112b18183610b11565b969294509250612105565b602093929196506120d76110d761229961116893873d81116112c0576112b18183610b11565b989394955050506120c3565b6110d76122b191610789565b9063bea9cf36913391813b15610220578680946122f08b988f946122e5956122d860405190565b9b8c998a98899760e01b90565b875260048701611e4a565b03925af19081156112c757612064926110d792612310575b819250612054565b61232f90853d8711612335575b6123278183610b11565b810190610322565b38612308565b503d61231d565b61234a8a826119ea89610789565b612041565b61235d87826119ea86610789565b612031565b5073ffffffffffffffffffffffffffffffffffffffff8281169088161415612023565b50611fd761239289610f61565b8a109050611fce565b50611fb16123a883610916565b88119050611fa8565b9061023294939291611c8e565b6123c6611379565b611ca36123d96110d76110d76001610b9e565b6370a082316123e730610789565b60206123f260405190565b80946123fe8560e01b90565b825273ffffffffffffffffffffffffffffffffffffffff8416600483015260249082905afa9081156112c75761244d936000926112cc5750602091926111686111516110d76110d76002610d84565b03915afa80156112c7576102329260009161247f575b5061246e6003610ea7565b906124796003610ebd565b926115db565b612497915060203d81116112c0576112b18183610b11565b38612463565b6102326123be565b906124d96124cf610232936124c86124c1856117346008610fc6565b6008611362565b6007610792565b9161173483610fc6565b90611362565b610232916125016124f46124c1936007610792565b6124d98361212283610fc6565b6121226008610fc6565b9080821015612518575090565b905090565b90600061252a6003610916565b8311156125a8575061255f82600261254a61254482610916565b83611015565b91600193849361255985610916565b906114c6565b935b61256c575b50505050565b909192946125778190565b8610156125a25750612599612590866117348185611015565b61127484610916565b92919082612561565b94612566565b916125b661101b6000610916565b036125bd57565b905061024d6001610916565b336125e2836125dd84610a9f85600c610792565b611362565b6126226126186126127f8c5be1e5ebec7d5bd14f71427d1e84f3dd0314c0f7b2291e5b200ac8c7c3b92593610789565b93610789565b9361053d60405190565b0390a3600190565b3361265b61264e836007610a9f6126418683610792565b6124d98961212283610fc6565b6124d98561173483610fc6565b6126226126186126127fddf252ad1be2c89b69c2b068fc378daa952ba7f163c4a11628f55a4df523b3ef93610789565b600c816126988183610792565b6126ab6126a6338093610792565b610fc6565b6001016126cc575b50505061265b61264e836007610a9f6126418683610792565b610a9f6126dc926126e994610792565b6124d98561212283610fc6565b3881816126b3565b67ffffffffffffffff8111610b5157602090601f017fffffffffffffffffffffffffffffffffffffffffffffffffffffffffffffffe0160190565b9061273e612739836126f1565b610b56565b918252565b61274d600c61272c565b7f444558204c5020546f6b656e0000000000000000000000000000000000000000602082015290565b61024d612743565b61024d612776565b612790600261272c565b7f4c50000000000000000000000000000000000000000000000000000000000000602082015290565b61024d612786565b61024d6127b9565b61062b61024d61024d9290565b61024d60126127c9565b61024d612878565b6127f2600161272c565b7f3100000000000000000000000000000000000000000000000000000000000000602082015290565b61024d6127e8565b909594926102329461285561285c9261284e60809661284760a088019c6000890152565b6020870152565b6040850152565b6060830152565b019073ffffffffffffffffffffffffffffffffffffffff169052565b7f8b73c3c69bb8fe3d512ecc4cf759cc79239f7b179b0ffacaa9a75d522b39400f6128fd6128a4612776565b6128b66128af825190565b9160200190565b206128bf61281b565b6128ca6128af825190565b20926128f1466128d930610789565b906128e360405190565b968795602087019586612823565b90810382520382610b11565b6129086128af825190565b2090565b1561291357565b6040517f08c379a000000000000000000000000000000000000000000000000000000000815260206004820152601060248201527f444558506169723a2045585049524544000000000000000000000000000000006044820152606490fd5b7fffffffffffffffffffffffffffffffffffffffffffffffffffffffffffffffff8114610fba5760010190565b9194612a086108ad92989795612a0160a0966129e46102329a6129c760c08a019e60008b0152565b73ffffffffffffffffffffffffffffffffffffffff166020890152565b73ffffffffffffffffffffffffffffffffffffffff166040870152565b6060850152565b6080830152565b6020809392612a4761273e6103a2947f1901000000000000000000000000000000000000000000000000000000000000815260020190565b01918252565b6108ad61023294611e87606094989795612a6c608086019a6000870152565b60ff166020850152565b15612a7d57565b6040517f08c379a000000000000000000000000000000000000000000000000000000000815260206004820152601a60248201527f444558506169723a20494e56414c49445f5349474e41545552450000000000006044820152606490fd5b939094612ba283976128f1612b8389612b5f8a6000996128f160209c612b0a612b024290565b82101561290c565b7f6e71edae12b1b97f4d1f60370fef10105fa2faae0126114a169c64845d6126c992612b3785600d610792565b90612b4e612b4483610fc6565b926124d984612972565b60405197889660208801968761299f565b612b6a6128af825190565b20612b73612878565b6040519384928b84019283612a0f565b612b8e6128af825190565b2092612b9960405190565b94859485612a4d565b838052039060015afa156112c757600051612bdc90612bd673ffffffffffffffffffffffffffffffffffffffff8416610cff565b14612a76565b612bef836125dd84610a9f85600c610792565b612c1f6126186126127f8c5be1e5ebec7d5bd14f71427d1e84f3dd0314c0f7b2291e5b200ac8c7c3b92593610789565b0390a3565b612c2e6001610b9e565b612c41612c3b6002610d84565b91610789565b91612c4b83610789565b926370a0823192612c5b30610789565b906020612c6760405190565b8097612c738860e01b90565b825273ffffffffffffffffffffffffffffffffffffffff8516600483015260249082905afa9081156112c7576110d760209486612ccc612cd295612cf69b600091612d3d575b506121c5612cc76003610ea7565b610f61565b91611b89565b93611168612cdf86610789565b91612ce960405190565b9788948593849360e01b90565b03915afa9283156112c75761023293612ccc91600091612d1f575b506121c5612cc76003610ebd565b612d37915060203d81116112c0576112b18183610b11565b38612d11565b612d549150893d81116112c0576112b18183610b11565b38612cb9565b61024d612d6a612cc76003610ea7565b611724612cc76003610ebd565b612d9461024d61024d926dffffffffffffffffffffffffffff1690565b7bffffffffffffffffffffffffffffffffffffffffffffffffffffffff1690565b612d9461024d61024d9290565b61024d6e010000000000000000000000000000612db5565b7bffffffffffffffffffffffffffffffffffffffffffffffffffffffff908116929116917bffffffffffffffffffffffffffffffffffffffffffffffffffffffff81840216610fd7565b612e3961024d91612e33600090565b50612d77565b612e41612dc2565b90612dda565b7bffffffffffffffffffffffffffffffffffffffffffffffffffffffff908116911661101f565b612e7d61024d92612e33600090565b90612e4756fea264697066735822122059d4ce57750bba2ddd4532f5d73fb6421878214079e4243eff64c173274af40f64736f6c63430008140033",
  "linkReferences": {},
  "deployedLinkReferences": {}
}