{
  "_format": "hh-sol-artifact-1",
  "contractName": "WETH",
  "sourceName": "contracts/WETH.sol",
  "abi": [
    {
      "inputs": [],
      "stateMutability": "nonpayable",
      "type": "constructor"
    },
    {
      "inputs": [
        {
          "internalType": "address",
          "name": "spender",
          "type": "address"
        },
        {
          "internalType": "uint256",
          "name": "allowance",
          "type": "uint256"
        },
        {
          "internalType": "uint256",
          "name": "needed",
          "type": "uint256"
        }
      ],
      "name": "ERC20InsufficientAllowance",
      "type": "error"
    },
    {
      "inputs": [
        {
          "internalType": "address",
          "name": "sender",
          "type": "address"
        },
        {
          "internalType": "uint256",
          "name": "balance",
          "type": "uint256"
        },
        {
          "internalType": "uint256",
          "name": "needed",
          "type": "uint256"
        }
      ],
      "name": "ERC20InsufficientBalance",
      "type": "error"
    },
    {
      "inputs": [
        {
          "internalType": "address",
          "name": "approver",
          "type": "address"
        }
      ],
      "name": "ERC20InvalidApprover",
      "type": "error"
    },
    {
      "inputs": [
        {
          "internalType": "address",
          "name": "receiver",
          "type": "address"
        }
      ],
      "name": "ERC20InvalidReceiver",
      "type": "error"
    },
    {
      "inputs": [
        {
          "internalType": "address",
          "name": "sender",
          "type": "address"
        }
      ],
      "name": "ERC20InvalidSender",
      "type": "error"
    },
    {
      "inputs": [
        {
          "internalType": "address",
          "name": "spender",
          "type": "address"
        }
      ],
      "name": "ERC20InvalidSpender",
      "type": "error"
    },
    {
      "inputs": [],
      "name": "EnforcedPause",
      "type": "error"
    },
    {
      "inputs": [],
      "name": "ExpectedPause",
      "type": "error"
    },
    {
      "inputs": [
        {
          "internalType": "address",
          "name": "owner",
          "type": "address"
        }
      ],
      "name": "OwnableInvalidOwner",
      "type": "error"
    },
    {
      "inputs": [
        {
          "internalType": "address",
          "name": "account",
          "type": "address"
        }
      ],
      "name": "OwnableUnauthorizedAccount",
      "type": "error"
    },
    {
      "inputs": [],
      "name": "ReentrancyGuardReentrantCall",
      "type": "error"
    },
    {
      "inputs": [
        {
          "internalType": "address",
          "name": "token",
          "type": "address"
        }
      ],
      "name": "SafeERC20FailedOperation",
      "type": "error"
    },
    {
      "anonymous": false,
      "inputs": [
        {
          "indexed": true,
          "internalType": "address",
          "name": "account",
          "type": "address"
        },
        {
          "indexed": false,
          "internalType": "bool",
          "name": "blacklisted",
          "type": "bool"
        }
      ],
      "name": "AddressBlacklisted",
      "type": "event"
    },
    {
      "anonymous": false,
      "inputs": [
        {
          "indexed": true,
          "internalType": "address",
          "name": "account",
          "type": "address"
        },
        {
          "indexed": false,
          "internalType": "bool",
          "name": "whitelisted",
          "type": "bool"
        }
      ],
      "name": "AddressWhitelisted",
      "type": "event"
    },
    {
      "anonymous": false,
      "inputs": [
        {
          "indexed": true,
          "internalType": "address",
          "name": "owner",
          "type": "address"
        },
        {
          "indexed": true,
          "internalType": "address",
          "name": "spender",
          "type": "address"
        },
        {
          "indexed": false,
          "internalType": "uint256",
          "name": "value",
          "type": "uint256"
        }
      ],
      "name": "Approval",
      "type": "event"
    },
    {
      "anonymous": false,
      "inputs": [
        {
          "indexed": false,
          "internalType": "uint256",
          "name": "depositLimit",
          "type": "uint256"
        },
        {
          "indexed": false,
          "internalType": "uint256",
          "name": "withdrawLimit",
          "type": "uint256"
        }
      ],
      "name": "DailyLimitUpdated",
      "type": "event"
    },
    {
      "anonymous": false,
      "inputs": [
        {
          "indexed": true,
          "internalType": "address",
          "name": "dst",
          "type": "address"
        },
        {
          "indexed": false,
          "internalType": "uint256",
          "name": "wad",
          "type": "uint256"
        },
        {
          "indexed": false,
          "internalType": "uint256",
          "name": "fee",
          "type": "uint256"
        }
      ],
      "name": "Deposit",
      "type": "event"
    },
    {
      "anonymous": false,
      "inputs": [
        {
          "indexed": false,
          "internalType": "bool",
          "name": "stopped",
          "type": "bool"
        }
      ],
      "name": "EmergencyStopUpdated",
      "type": "event"
    },
    {
      "anonymous": false,
      "inputs": [
        {
          "indexed": false,
          "internalType": "uint256",
          "name": "depositFee",
          "type": "uint256"
        },
        {
          "indexed": false,
          "internalType": "uint256",
          "name": "withdrawFee",
          "type": "uint256"
        }
      ],
      "name": "FeesUpdated",
      "type": "event"
    },
    {
      "anonymous": false,
      "inputs": [
        {
          "indexed": true,
          "internalType": "address",
          "name": "previousOwner",
          "type": "address"
        },
        {
          "indexed": true,
          "internalType": "address",
          "name": "newOwner",
          "type": "address"
        }
      ],
      "name": "OwnershipTransferred",
      "type": "event"
    },
    {
      "anonymous": false,
      "inputs": [
        {
          "indexed": false,
          "internalType": "address",
          "name": "account",
          "type": "address"
        }
      ],
      "name": "Paused",
      "type": "event"
    },
    {
      "anonymous": false,
      "inputs": [
        {
          "indexed": true,
          "internalType": "address",
          "name": "from",
          "type": "address"
        },
        {
          "indexed": true,
          "internalType": "address",
          "name": "to",
          "type": "address"
        },
        {
          "indexed": false,
          "internalType": "uint256",
          "name": "value",
          "type": "uint256"
        }
      ],
      "name": "Transfer",
      "type": "event"
    },
    {
      "anonymous": false,
      "inputs": [
        {
          "indexed": false,
          "internalType": "address",
          "name": "account",
          "type": "address"
        }
      ],
      "name": "Unpaused",
      "type": "event"
    },
    {
      "anonymous": false,
      "inputs": [
        {
          "indexed": false,
          "internalType": "bool",
          "name": "enabled",
          "type": "bool"
        }
      ],
      "name": "WhitelistEnabled",
      "type": "event"
    },
    {
      "anonymous": false,
      "inputs": [
        {
          "indexed": true,
          "internalType": "address",
          "name": "src",
          "type": "address"
        },
        {
          "indexed": false,
          "internalType": "uint256",
          "name": "wad",
          "type": "uint256"
        },
        {
          "indexed": false,
          "internalType": "uint256",
          "name": "fee",
          "type": "uint256"
        }
      ],
      "name": "Withdrawal",
      "type": "event"
    },
    {
      "inputs": [],
      "name": "DAILY_DEPOSIT_LIMIT",
      "outputs": [
        {
          "internalType": "uint256",
          "name": "",
          "type": "uint256"
        }
      ],
      "stateMutability": "view",
      "type": "function"
    },
    {
      "inputs": [],
      "name": "DAILY_WITHDRAW_LIMIT",
      "outputs": [
        {
          "internalType": "uint256",
          "name": "",
          "type": "uint256"
        }
      ],
      "stateMutability": "view",
      "type": "function"
    },
    {
      "inputs": [],
      "name": "DEPOSIT_COOLDOWN",
      "outputs": [
        {
          "internalType": "uint256",
          "name": "",
          "type": "uint256"
        }
      ],
      "stateMutability": "view",
      "type": "function"
    },
    {
      "inputs": [],
      "name": "FEE_DENOMINATOR",
      "outputs": [
        {
          "internalType": "uint256",
          "name": "",
          "type": "uint256"
        }
      ],
      "stateMutability": "view",
      "type": "function"
    },
    {
      "inputs": [],
      "name": "MAX_FEE",
      "outputs": [
        {
          "internalType": "uint256",
          "name": "",
          "type": "uint256"
        }
      ],
      "stateMutability": "view",
      "type": "function"
    },
    {
      "inputs": [],
      "name": "WITHDRAW_COOLDOWN",
      "outputs": [
        {
          "internalType": "uint256",
          "name": "",
          "type": "uint256"
        }
      ],
      "stateMutability": "view",
      "type": "function"
    },
    {
      "inputs": [
        {
          "internalType": "address",
          "name": "owner",
          "type": "address"
        },
        {
          "internalType": "address",
          "name": "spender",
          "type": "address"
        }
      ],
      "name": "allowance",
      "outputs": [
        {
          "internalType": "uint256",
          "name": "",
          "type": "uint256"
        }
      ],
      "stateMutability": "view",
      "type": "function"
    },
    {
      "inputs": [
        {
          "internalType": "address",
          "name": "spender",
          "type": "address"
        },
        {
          "internalType": "uint256",
          "name": "value",
          "type": "uint256"
        }
      ],
      "name": "approve",
      "outputs": [
        {
          "internalType": "bool",
          "name": "",
          "type": "bool"
        }
      ],
      "stateMutability": "nonpayable",
      "type": "function"
    },
    {
      "inputs": [
        {
          "internalType": "address",
          "name": "account",
          "type": "address"
        }
      ],
      "name": "balanceOf",
      "outputs": [
        {
          "internalType": "uint256",
          "name": "",
          "type": "uint256"
        }
      ],
      "stateMutability": "view",
      "type": "function"
    },
    {
      "inputs": [
        {
          "internalType": "address[]",
          "name": "recipients",
          "type": "address[]"
        },
        {
          "internalType": "uint256[]",
          "name": "amounts",
          "type": "uint256[]"
        }
      ],
      "name": "batchDeposit",
      "outputs": [],
      "stateMutability": "payable",
      "type": "function"
    },
    {
      "inputs": [
        {
          "internalType": "address",
          "name": "",
          "type": "address"
        }
      ],
      "name": "blacklistedAddresses",
      "outputs": [
        {
          "internalType": "bool",
          "name": "",
          "type": "bool"
        }
      ],
      "stateMutability": "view",
      "type": "function"
    },
    {
      "inputs": [
        {
          "internalType": "address",
          "name": "",
          "type": "address"
        }
      ],
      "name": "dailyDeposits",
      "outputs": [
        {
          "internalType": "uint256",
          "name": "",
          "type": "uint256"
        }
      ],
      "stateMutability": "view",
      "type": "function"
    },
    {
      "inputs": [
        {
          "internalType": "address",
          "name": "",
          "type": "address"
        }
      ],
      "name": "dailyWithdrawals",
      "outputs": [
        {
          "internalType": "uint256",
          "name": "",
          "type": "uint256"
        }
      ],
      "stateMutability": "view",
      "type": "function"
    },
    {
      "inputs": [],
      "name": "decimals",
      "outputs": [
        {
          "internalType": "uint8",
          "name": "",
          "type": "uint8"
        }
      ],
      "stateMutability": "view",
      "type": "function"
    },
    {
      "inputs": [],
      "name": "deposit",
      "outputs": [],
      "stateMutability": "payable",
      "type": "function"
    },
    {
      "inputs": [],
      "name": "depositFee",
      "outputs": [
        {
          "internalType": "uint256",
          "name": "",
          "type": "uint256"
        }
      ],
      "stateMutability": "view",
      "type": "function"
    },
    {
      "inputs": [
        {
          "internalType": "address",
          "name": "recipient",
          "type": "address"
        }
      ],
      "name": "depositFor",
      "outputs": [],
      "stateMutability": "payable",
      "type": "function"
    },
    {
      "inputs": [
        {
          "internalType": "address",
          "name": "token",
          "type": "address"
        },
        {
          "internalType": "address",
          "name": "to",
          "type": "address"
        },
        {
          "internalType": "uint256",
          "name": "amount",
          "type": "uint256"
        }
      ],
      "name": "emergencyRecover",
      "outputs": [],
      "stateMutability": "nonpayable",
      "type": "function"
    },
    {
      "inputs": [
        {
          "internalType": "address",
          "name": "to",
          "type": "address"
        },
        {
          "internalType": "uint256",
          "name": "amount",
          "type": "uint256"
        }
      ],
      "name": "emergencyRecoverWETH",
      "outputs": [],
      "stateMutability": "nonpayable",
      "type": "function"
    },
    {
      "inputs": [],
      "name": "emergencyStop",
      "outputs": [
        {
          "internalType": "bool",
          "name": "",
          "type": "bool"
        }
      ],
      "stateMutability": "view",
      "type": "function"
    },
    {
      "inputs": [],
      "name": "getBalance",
      "outputs": [
        {
          "internalType": "uint256",
          "name": "",
          "type": "uint256"
        }
      ],
      "stateMutability": "view",
      "type": "function"
    },
    {
      "inputs": [
        {
          "internalType": "address",
          "name": "account",
          "type": "address"
        }
      ],
      "name": "getDailyLimits",
      "outputs": [
        {
          "internalType": "uint256",
          "name": "deposits",
          "type": "uint256"
        },
        {
          "internalType": "uint256",
          "name": "withdrawals",
          "type": "uint256"
        },
        {
          "internalType": "uint256",
          "name": "depositLimit",
          "type": "uint256"
        },
        {
          "internalType": "uint256",
          "name": "withdrawLimit",
          "type": "uint256"
        }
      ],
      "stateMutability": "view",
      "type": "function"
    },
    {
      "inputs": [
        {
          "internalType": "address",
          "name": "",
          "type": "address"
        }
      ],
      "name": "isManager",
      "outputs": [
        {
          "internalType": "bool",
          "name": "",
          "type": "bool"
        }
      ],
      "stateMutability": "view",
      "type": "function"
    },
    {
      "inputs": [
        {
          "internalType": "address",
          "name": "",
          "type": "address"
        }
      ],
      "name": "isOperator",
      "outputs": [
        {
          "internalType": "bool",
          "name": "",
          "type": "bool"
        }
      ],
      "stateMutability": "view",
      "type": "function"
    },
    {
      "inputs": [
        {
          "internalType": "address",
          "name": "",
          "type": "address"
        }
      ],
      "name": "lastDepositTime",
      "outputs": [
        {
          "internalType": "uint256",
          "name": "",
          "type": "uint256"
        }
      ],
      "stateMutability": "view",
      "type": "function"
    },
    {
      "inputs": [
        {
          "internalType": "address",
          "name": "",
          "type": "address"
        }
      ],
      "name": "lastResetTime",
      "outputs": [
        {
          "internalType": "uint256",
          "name": "",
          "type": "uint256"
        }
      ],
      "stateMutability": "view",
      "type": "function"
    },
    {
      "inputs": [
        {
          "internalType": "address",
          "name": "",
          "type": "address"
        }
      ],
      "name": "lastWithdrawTime",
      "outputs": [
        {
          "internalType": "uint256",
          "name": "",
          "type": "uint256"
        }
      ],
      "stateMutability": "view",
      "type": "function"
    },
    {
      "inputs": [],
      "name": "name",
      "outputs": [
        {
          "internalType": "string",
          "name": "",
          "type": "string"
        }
      ],
      "stateMutability": "view",
      "type": "function"
    },
    {
      "inputs": [],
      "name": "owner",
      "outputs": [
        {
          "internalType": "address",
          "name": "",
          "type": "address"
        }
      ],
      "stateMutability": "view",
      "type": "function"
    },
    {
      "inputs": [],
      "name": "pause",
      "outputs": [],
      "stateMutability": "nonpayable",
      "type": "function"
    },
    {
      "inputs": [],
      "name": "paused",
      "outputs": [
        {
          "internalType": "bool",
          "name": "",
          "type": "bool"
        }
      ],
      "stateMutability": "view",
      "type": "function"
    },
    {
      "inputs": [],
      "name": "renounceOwnership",
      "outputs": [],
      "stateMutability": "nonpayable",
      "type": "function"
    },
    {
      "inputs": [
        {
          "internalType": "address",
          "name": "account",
          "type": "address"
        },
        {
          "internalType": "bool",
          "name": "blacklisted",
          "type": "bool"
        }
      ],
      "name": "setAddressBlacklisted",
      "outputs": [],
      "stateMutability": "nonpayable",
      "type": "function"
    },
    {
      "inputs": [
        {
          "internalType": "address",
          "name": "account",
          "type": "address"
        },
        {
          "internalType": "bool",
          "name": "whitelisted",
          "type": "bool"
        }
      ],
      "name": "setAddressWhitelisted",
      "outputs": [],
      "stateMutability": "nonpayable",
      "type": "function"
    },
    {
      "inputs": [
        {
          "internalType": "bool",
          "name": "stopped",
          "type": "bool"
        }
      ],
      "name": "setEmergencyStop",
      "outputs": [],
      "stateMutability": "nonpayable",
      "type": "function"
    },
    {
      "inputs": [
        {
          "internalType": "address",
          "name": "manager",
          "type": "address"
        },
        {
          "internalType": "bool",
          "name": "authorized",
          "type": "bool"
        }
      ],
      "name": "setManager",
      "outputs": [],
      "stateMutability": "nonpayable",
      "type": "function"
    },
    {
      "inputs": [
        {
          "internalType": "address",
          "name": "operator",
          "type": "address"
        },
        {
          "internalType": "bool",
          "name": "authorized",
          "type": "bool"
        }
      ],
      "name": "setOperator",
      "outputs": [],
      "stateMutability": "nonpayable",
      "type": "function"
    },
    {
      "inputs": [
        {
          "internalType": "bool",
          "name": "enabled",
          "type": "bool"
        }
      ],
      "name": "setWhitelistEnabled",
      "outputs": [],
      "stateMutability": "nonpayable",
      "type": "function"
    },
    {
      "inputs": [],
      "name": "symbol",
      "outputs": [
        {
          "internalType": "string",
          "name": "",
          "type": "string"
        }
      ],
      "stateMutability": "view",
      "type": "function"
    },
    {
      "inputs": [],
      "name": "totalDeposits",
      "outputs": [
        {
          "internalType": "uint256",
          "name": "",
          "type": "uint256"
        }
      ],
      "stateMutability": "view",
      "type": "function"
    },
    {
      "inputs": [],
      "name": "totalFeesCollected",
      "outputs": [
        {
          "internalType": "uint256",
          "name": "",
          "type": "uint256"
        }
      ],
      "stateMutability": "view",
      "type": "function"
    },
    {
      "inputs": [],
      "name": "totalSupply",
      "outputs": [
        {
          "internalType": "uint256",
          "name": "",
          "type": "uint256"
        }
      ],
      "stateMutability": "view",
      "type": "function"
    },
    {
      "inputs": [],
      "name": "totalWithdrawals",
      "outputs": [
        {
          "internalType": "uint256",
          "name": "",
          "type": "uint256"
        }
      ],
      "stateMutability": "view",
      "type": "function"
    },
    {
      "inputs": [
        {
          "internalType": "address",
          "name": "to",
          "type": "address"
        },
        {
          "internalType": "uint256",
          "name": "value",
          "type": "uint256"
        }
      ],
      "name": "transfer",
      "outputs": [
        {
          "internalType": "bool",
          "name": "",
          "type": "bool"
        }
      ],
      "stateMutability": "nonpayable",
      "type": "function"
    },
    {
      "inputs": [
        {
          "internalType": "address",
          "name": "from",
          "type": "address"
        },
        {
          "internalType": "address",
          "name": "to",
          "type": "address"
        },
        {
          "internalType": "uint256",
          "name": "value",
          "type": "uint256"
        }
      ],
      "name": "transferFrom",
      "outputs": [
        {
          "internalType": "bool",
          "name": "",
          "type": "bool"
        }
      ],
      "stateMutability": "nonpayable",
      "type": "function"
    },
    {
      "inputs": [
        {
          "internalType": "address",
          "name": "newOwner",
          "type": "address"
        }
      ],
      "name": "transferOwnership",
      "outputs": [],
      "stateMutability": "nonpayable",
      "type": "function"
    },
    {
      "inputs": [],
      "name": "unpause",
      "outputs": [],
      "stateMutability": "nonpayable",
      "type": "function"
    },
    {
      "inputs": [
        {
          "internalType": "uint256",
          "name": "newDepositFee",
          "type": "uint256"
        },
        {
          "internalType": "uint256",
          "name": "newWithdrawFee",
          "type": "uint256"
        }
      ],
      "name": "updateFees",
      "outputs": [],
      "stateMutability": "nonpayable",
      "type": "function"
    },
    {
      "inputs": [],
      "name": "whitelistEnabled",
      "outputs": [
        {
          "internalType": "bool",
          "name": "",
          "type": "bool"
        }
      ],
      "stateMutability": "view",
      "type": "function"
    },
    {
      "inputs": [
        {
          "internalType": "address",
          "name": "",
          "type": "address"
        }
      ],
      "name": "whitelistedAddresses",
      "outputs": [
        {
          "internalType": "bool",
          "name": "",
          "type": "bool"
        }
      ],
      "stateMutability": "view",
      "type": "function"
    },
    {
      "inputs": [
        {
          "internalType": "uint256",
          "name": "wad",
          "type": "uint256"
        }
      ],
      "name": "withdraw",
      "outputs": [],
      "stateMutability": "nonpayable",
      "type": "function"
    },
    {
      "inputs": [],
      "name": "withdrawFee",
      "outputs": [
        {
          "internalType": "uint256",
          "name": "",
          "type": "uint256"
        }
      ],
      "stateMutability": "view",
      "type": "function"
    },
    {
      "inputs": [],
      "name": "withdrawFees",
      "outputs": [],
      "stateMutability": "nonpayable",
      "type": "function"
    }
  ],
  "bytecode": "0x60806040523462000026576200001462000177565b60405161322e6200058e823961322e90f35b600080fd5b634e487b7160e01b600052604160045260246000fd5b90601f01601f191681019081106001600160401b038211176200006357604052565b6200002b565b90620000806200007860405190565b928362000041565b565b6001600160401b0381116200006357602090601f01601f19160190565b90620000b5620000af8362000082565b62000069565b918252565b620000c6600d6200009f565b6c2bb930b83832b21022ba3432b960991b602082015290565b620000e9620000ba565b90565b620000f860046200009f565b630ae8aa8960e31b602082015290565b620000e9620000ec565b90600019905b9181191691161790565b620000e9620000e9620000e99290565b9062000146620000e96200014e9262000122565b825462000112565b9055565b9060ff9062000118565b906200016f620000e96200014e92151590565b825462000152565b620001973362000186620000df565b6200019062000108565b91620001cc565b620000806000620001aa81601662000132565b620001b781601762000132565b620001c481600d6200015c565b60106200015c565b90620000809291620001e5565b620000e9600162000122565b90620001f2929162000250565b6200008062000200620001d9565b600662000132565b62000218620000e9620000e99290565b6001600160a01b031690565b620000e99062000208565b6200023a9062000218565b9052565b6020810192916200008091906200022f565b916200025c91620004a2565b62000268600062000224565b620002738162000218565b6200027e8362000218565b1462000290575062000080906200052b565b620002b6906200029f60405190565b631e4fbdf760e01b8152918291600483016200023e565b0390fd5b634e487b7160e01b600052602260045260246000fd5b9060016002830492168015620002f3575b6020831014620002ed57565b620002ba565b91607f1691620002e1565b9160001960089290920291821b911b62000118565b919062000328620000e96200014e9362000122565b908354620002fe565b620000809160009162000313565b8181106200034b575050565b806200035b600060019362000331565b016200033f565b9190601f81116200037257505050565b620003866200008093600052602060002090565b906020601f840181900483019310620003aa575b6020601f9091010401906200033f565b90915081906200039a565b90620003bf815190565b906001600160401b0382116200006357620003e782620003e08554620002d0565b8562000362565b602090601f831160011462000426576200014e9291600091836200041a575b5050600019600883021c1916906002021790565b01519050388062000406565b601f198316916200043c85600052602060002090565b9260005b8181106200047d5750916002939185600196941062000463575b50505002019055565b01516000196008601f8516021c191690553880806200045a565b9193602060018192878701518155019501920162000440565b906200008091620003b5565b90620004b46200008092600362000496565b600462000496565b620000e99062000218565b620000e99054620004bc565b906001600160a01b039062000118565b620000e99062000218906001600160a01b031682565b620000e990620004e3565b620000e990620004f9565b9062000523620000e96200014e9262000504565b8254620004d3565b620005376005620004c7565b90620005458160056200050f565b6200057c620005757f8be0079c531659141344cd1fd0a4f28419497f9722a3daafe3b4186f6b6457e09362000504565b9162000504565b916200058760405190565b600090a356fe6080604052600436101561001257600080fd5b60003560e01c806301a7e5d9146102d65780630252775314610358578063052d9e7e1461035357806306c933d81461034e57806306fdde0314610349578063095ea7b3146103445780631031ec311461033f57806312065fe01461033a57806318160ddd1461033557806323b872dd146103305780632e1a7d4d1461032b57806330a9073614610326578063313ce567146103215780633f4ba83a1461031c57806341d636a214610317578063476343ee1461031257806351fb012d1461030d578063558a7297146103085780635c975abb1461030357806360464627146102fe57806360c6d8ae146102f957806363a599a4146102f457806365ab6714146102bd57806367a52793146102ef5780636d70f7ae146102ea5780636db79437146102e557806370a08231146102e0578063715018a6146102db57806373412857146102d65780637780f6c8146102d15780637d882097146102cc5780638456cb59146102c75780638da5cb5b146102c2578063950d91e9146102bd57806395d89b41146102b8578063a5e90eee146102b3578063a7120f41146102ae578063a9059cbb146102a9578063aa67c919146102a4578063ad1329d11461029f578063ae6d125d1461029a578063bc063e1a14610295578063c73d7c7b14610290578063d0e30db01461028b578063d5749d4214610286578063d73792a914610281578063dd2054901461027c578063dd62ed3e14610277578063e354a0a814610272578063e941fa781461026d578063eb03040c14610268578063f2fde38b146102635763f3ae24150361036857610d70565b610d46565b610d15565b610cc9565b610ca4565b610c88565b610c4a565b610c1d565b610bef565b610bca565b610bb2565b610b97565b610b6c565b610b53565b610b40565b610b24565b610b0b565b610af2565b610ad7565b610955565b610aaf565b610a7e565b610a63565b610a3c565b61039d565b610a12565b6109f7565b6109de565b6109a9565b61097c565b610928565b610901565b6108da565b6108b3565b61089a565b61085c565b610838565b61081d565b6107f3565b6107c4565b6107ad565b610717565b6106e7565b61069c565b610681565b610666565b610638565b6105db565b610523565b6104d5565b610491565b600091031261036857565b600080fd5b61037a61037a61037a9290565b90565b61037a683635c9adc5dea0000061036d565b61037a61037d565b9052565b565b34610368576103ad36600461035d565b6103c96103b861038f565b6040515b9182918290815260200190565b0390f35b73ffffffffffffffffffffffffffffffffffffffff1690565b6103ef816103cd565b0361036857565b9050359061039b826103e6565b906020828203126103685761037a916103f6565b6103cd61037a61037a9273ffffffffffffffffffffffffffffffffffffffff1690565b61037a90610417565b61037a9061043a565b9061045690610443565b600052602052604060002090565b61037a916008021c81565b9061037a9154610464565b61037a9061048c60089160009261044c565b61046f565b34610368576103c96103b86104a7366004610403565b61047a565b8015156103ef565b9050359061039b826104ac565b906020828203126103685761037a916104b4565b34610368576104ed6104e83660046104c1565b612aeb565b604051005b61037a916008021c5b60ff1690565b9061037a91546104f2565b61037a9061051e600f9160009261044c565b610501565b34610368576103c961053e610539366004610403565b61050c565b6040515b91829182901515815260200190565b60005b8381106105645750506000910152565b8181015183820152602001610554565b61059561059e6020936105c693610589815190565b80835293849260200190565b95869101610551565b601f017fffffffffffffffffffffffffffffffffffffffffffffffffffffffffffffffe01690565b0190565b602080825261037a92910190610574565b34610368576105eb36600461035d565b6103c96105f66110e5565b604051918291826105ca565b806103ef565b9050359061039b82610602565b91906040838203126103685761037a9061062f81856103f6565b93602001610608565b34610368576103c961053e61064e366004610615565b9061117c565b61037a9061048c60099160009261044c565b34610368576103c96103b861067c366004610403565b610654565b346103685761069136600461035d565b6103c96103b86127b8565b34610368576106ac36600461035d565b6103c96103b8611121565b90916060828403126103685761037a6106d084846103f6565b936106de81602086016103f6565b93604001610608565b34610368576103c961053e6106fd3660046106b7565b91611187565b906020828203126103685761037a91610608565b34610368576104ed61072a366004610703565b6121c3565b909182601f830112156103685781359167ffffffffffffffff831161036857602001926020830284011161036857565b909160408284031261036857813567ffffffffffffffff8111610368578361078891840161072f565b929093602082013567ffffffffffffffff8111610368576107a9920161072f565b9091565b6104ed6107bb36600461075f565b929190916127ac565b34610368576107d436600461035d565b6103c96107df611106565b6040519182918260ff909116815260200190565b346103685761080336600461035d565b6104ed612cea565b61037a9061048c600b9160009261044c565b34610368576103c96103b8610833366004610403565b61080b565b346103685761084836600461035d565b6104ed612ec8565b61037a60006010610501565b346103685761086c36600461035d565b6103c961053e610850565b91906040838203126103685761037a9061089181856103f6565b936020016104b4565b34610368576104ed6108ad366004610877565b906129d7565b34610368576108c336600461035d565b6103c961053e61160c565b61037a6000601461046f565b34610368576108ea36600461035d565b6103c96103b86108ce565b61037a6000601561046f565b346103685761091136600461035d565b6103c96103b86108f5565b61037a6000600d610501565b346103685761093836600461035d565b6103c961053e61091c565b61037a600a61036d565b61037a610943565b346103685761096536600461035d565b6103c96103b861094d565b61037a6000601661046f565b346103685761098c36600461035d565b6103c96103b8610970565b61037a9061051e60129160009261044c565b34610368576103c961053e6109bf366004610403565b610997565b91906040838203126103685761037a9061062f8185610608565b34610368576104ed6109f13660046109c4565b90612c56565b34610368576103c96103b8610a0d366004610403565b61112b565b3461036857610a2236600461035d565b6104ed610de0565b61037a9061048c600c9160009261044c565b34610368576103c96103b8610a52366004610403565b610a2a565b61037a6000601361046f565b3461036857610a7336600461035d565b6103c96103b8610a57565b3461036857610a8e36600461035d565b6104ed612c7a565b610397906103cd565b60208101929161039b9190610a96565b3461036857610abf36600461035d565b6103c9610aca610d9e565b6040515b91829182610a9f565b3461036857610ae736600461035d565b6103c96105f66110ef565b34610368576104ed610b05366004610877565b906129aa565b34610368576104ed610b1e366004610877565b90612a95565b34610368576103c961053e610b3a366004610615565b90611147565b6104ed610b4e366004610403565b611df1565b34610368576104ed610b663660046106b7565b91612fd3565b34610368576104ed610b7f366004610877565b90612a3b565b61037a606461036d565b61037a610b85565b3461036857610ba736600461035d565b6103c96103b8610b8f565b34610368576104ed610bc53660046104c1565b612980565b610bd536600461035d565b6104ed611bf2565b61037a9061051e600e9160009261044c565b34610368576103c961053e610c05366004610403565b610bdd565b61037a61271061036d565b61037a610c0a565b3461036857610c2d36600461035d565b6103c96103b8610c15565b61037a9061048c600a9160009261044c565b34610368576103c96103b8610c60366004610403565b610c38565b91906040838203126103685761037a90610c7f81856103f6565b936020016103f6565b34610368576103c96103b8610c9e366004610c65565b9061115c565b34610368576104ed610cb7366004610615565b906131ee565b61037a6000601761046f565b3461036857610cd936600461035d565b6103c96103b8610cbd565b610d1161039b94610d0a606094989795610d03608086019a6000870152565b6020850152565b6040830152565b0152565b34610368576103c9610d30610d2b366004610403565b6127c5565b90610d3d94929460405190565b94859485610ce4565b34610368576104ed610d59366004610403565b610ebf565b61037a9061051e60119160009261044c565b34610368576103c961053e610d86366004610403565b610d5e565b61037a906103cd565b61037a9054610d8b565b61037a6005610d94565b610db0610de8565b61039b610dce565b6103cd61037a61037a9290565b61037a90610db8565b61039b610ddb6000610dc5565b610f05565b61039b610da8565b610df0610d9e565b3390610e04610dfe836103cd565b916103cd565b03610e0c5750565b610e4890610e1960405190565b9182917f118cdaa700000000000000000000000000000000000000000000000000000000835260048301610a9f565b0390fd5b61039b90610e58610de8565b610e626000610dc5565b610e6b816103cd565b610e74836103cd565b14610e83575061039b90610f05565b610e4890610e9060405190565b9182917f1e4fbdf700000000000000000000000000000000000000000000000000000000835260048301610a9f565b61039b90610e4c565b9073ffffffffffffffffffffffffffffffffffffffff905b9181191691161790565b90610efa61037a610f0192610443565b8254610ec8565b9055565b610f0f6005610d94565b90610f1b816005610eea565b610f4e610f487f8be0079c531659141344cd1fd0a4f28419497f9722a3daafe3b4186f6b6457e093610443565b91610443565b91610f5860405190565b80805b0390a3565b7f4e487b7100000000000000000000000000000000000000000000000000000000600052602260045260246000fd5b9060016002830492168015610faf575b6020831014610faa57565b610f60565b91607f1691610f9f565b80546000939291610fd6610fcc83610f8f565b8085529360200190565b91600181169081156110285750600114610fef57505050565b6110029192939450600052602060002090565b916000925b8184106110145750500190565b805484840152602090930192600101611007565b92949550505060ff1916825215156020020190565b9061037a91610fb9565b7f4e487b7100000000000000000000000000000000000000000000000000000000600052604160045260246000fd5b90601f017fffffffffffffffffffffffffffffffffffffffffffffffffffffffffffffffe016810190811067ffffffffffffffff8211176110b657604052565b611047565b9061039b6110d5926110cc60405190565b9384809261103d565b0383611076565b61037a906110bb565b61037a60036110dc565b61037a60046110dc565b6104fb61037a61037a9290565b61037a60126110f9565b61037a9081565b61037a9054611110565b61037a6002611117565b61114261037a9161113a600090565b50600061044c565b611117565b611157919033611198565b611198565b600190565b61037a916111776111429261116f600090565b50600161044c565b61044c565b61115791903361144c565b611157929190611152833383611556565b9291906111a56000610dc5565b936111af856103cd565b6111b8826103cd565b1461121b576111c6856103cd565b6111cf836103cd565b146111df5761039b939450611302565b610e48856111ec60405190565b9182917fec442f0500000000000000000000000000000000000000000000000000000000835260048301610a9f565b610e488561122860405190565b9182917f96c6fd1e00000000000000000000000000000000000000000000000000000000835260048301610a9f565b604090610d1161039b949695939661127760608401986000850190610a96565b6020830152565b0390565b907fffffffffffffffffffffffffffffffffffffffffffffffffffffffffffffffff90610ee0565b906112ba61037a610f019261036d565b8254611282565b7f4e487b7100000000000000000000000000000000000000000000000000000000600052601160045260246000fd5b919082018092116112fd57565b6112c1565b81600061130e81610dc5565b611317816103cd565b611320856103cd565b036113d65761134b9061134661133f8861133a6002611117565b6112f0565b60026112aa565b6103cd565b611354836103cd565b036113b157505061137161133f8461136c6002611117565b61127e565b610f5b6113a76113a17fddf252ad1be2c89b69c2b068fc378daa952ba7f163c4a11628f55a4df523b3ef93610443565b93610443565b936103bc60405190565b6113d1916113be9161044c565b6113cb856105c683611117565b906112aa565b611371565b9091506113e6611142848461044c565b85811061140f578492916113466114008861134b9461127e565b61140a878661044c565b6112aa565b83610e488761141d60405190565b9384937fe450d38c00000000000000000000000000000000000000000000000000000000855260048501611257565b909161039b926001925b9091926114636000610dc5565b61146c816103cd565b611475846103cd565b1461151a57611483816103cd565b61148c856103cd565b146114de57506114a58461140a8561117786600161044c565b6114ae57505050565b610f5b6113a76113a17f8c5be1e5ebec7d5bd14f71427d1e84f3dd0314c0f7b2291e5b200ac8c7c3b92593610443565b610e48906114eb60405190565b9182917f94280d6200000000000000000000000000000000000000000000000000000000835260048301610a9f565b610e489061152760405190565b9182917fe602df0500000000000000000000000000000000000000000000000000000000835260048301610a9f565b90929192611564818361115c565b937fffffffffffffffffffffffffffffffffffffffffffffffffffffffffffffffff8510611594575b5050509050565b8085106115bb576115a9906115b2949561127e565b90600092611456565b8038808061158d565b90610e4885926115ca60405190565b9384937ffb8f41b200000000000000000000000000000000000000000000000000000000855260048501611257565b61037a906104fb565b61037a90546115f9565b61037a6007611602565b61161e611c78565b61162661162e565b61039b611cd1565b611636611c35565b61039b6116af565b6020808252601b908201527f574554483a20456d657267656e63792073746f70206163746976650000000000604082015260600190565b1561167c57565b6040517f08c379a000000000000000000000000000000000000000000000000000000000815280610e486004820161163e565b6116c86116c36116bf600d611602565b1590565b611675565b61039b611741565b60208082526019908201527f574554483a2052617465206c696d697420657863656564656400000000000000604082015260600190565b1561170e57565b6040517f08c379a000000000000000000000000000000000000000000000000000000000815280610e48600482016116d0565b61039b4261140a33600861177861176f61037a611761611142868661044c565b611769610943565b906112f0565b855b1015611707565b6111776118d3565b60208082526015908201527f574554483a20496e76616c696420616464726573730000000000000000000000604082015260600190565b156117be57565b6040517f08c379a000000000000000000000000000000000000000000000000000000000815280610e4860048201611780565b6020808252601c908201527f574554483a204164647265737320697320626c61636b6c697374656400000000604082015260600190565b1561182f57565b6040517f08c379a000000000000000000000000000000000000000000000000000000000815280610e48600482016117f1565b6020808252601d908201527f574554483a2041646472657373206e6f742077686974656c6973746564000000604082015260600190565b156118a057565b6040517f08c379a000000000000000000000000000000000000000000000000000000000815280610e4860048201611862565b336118f46118e46113466000610dc5565b6118ed836103cd565b14156117b7565b61191261190d6116bf61190884600e61044c565b611602565b611828565b61191c6010611602565b61192a575b5061039b611aca565b61193b61190861194092600f61044c565b611899565b38611921565b60208082526019908201527f574554483a20494e53554646494349454e545f414d4f554e5400000000000000604082015260600190565b1561198457565b6040517f08c379a000000000000000000000000000000000000000000000000000000000815280610e4860048201611946565b60208082526022908201527f574554483a204461696c79206465706f736974206c696d69742065786365656460408201527f6564000000000000000000000000000000000000000000000000000000000000606082015260800190565b15611a1b57565b6040517f08c379a000000000000000000000000000000000000000000000000000000000815280610e48600482016119b7565b818102929181159184041417156112fd57565b7f4e487b7100000000000000000000000000000000000000000000000000000000600052601260045260246000fd5b90611a9a565b9190565b908115611aa5570490565b611a61565b919082039182116112fd57565b90815260408101929161039b9160200152565b600034611ae0611ad98361036d565b821161197d565b3390611aeb826127fe565b611b7f600a93611b1a611b058461133a611142888a61044c565b611b13611a9661037a61037d565b1115611a14565b611b7a611b73611b44611b36611b306016611117565b87611a4e565b611b3e610c0a565b90611a90565b94611b69611b5c88611b568985611aaa565b9a61044c565b6113cb8361133a83611117565b61133a6013611117565b60136112aa565b61036d565b8111611bd5575b611b908383611bfa565b611bba7f90890809c654f11d6e72a28fa60149770a0d11ec6c92319d6ceb2bb0a4ea1a1592610443565b92611bd0611bc760405190565b92839283611ab7565b0390a2565b611bed611be68261133a6015611117565b60156112aa565b611b86565b61039b611616565b9190611c066000610dc5565b92611c10846103cd565b611c19826103cd565b14611c285761039b9293611302565b610e48846111ec60405190565b611c3d61160c565b611c4357565b6040517fd93c0665000000000000000000000000000000000000000000000000000000008152600490fd5b61037a600261036d565b611c826006611117565b611c8a611c6e565b908114611c9c5761039b9060066112aa565b6040517f3ee5aeb5000000000000000000000000000000000000000000000000000000008152600490fd5b61037a600161036d565b61039b611cdc611cc7565b60066112aa565b61162690611cef611c78565b61039b90611cfb611c35565b61039b90611d0f6116c36116bf600d611602565b61039b9061140a429160086111773392611d3b611d3561037a611761611142888861044c565b87611771565b61039b9033611d506118e46113466000610dc5565b611d6461190d6116bf61190884600e61044c565b611d6e6010611602565b611d79575b50611d90565b61193b611908611d8a92600f61044c565b38611d73565b61039b90611da46118e46113466000610dc5565b611db861190d6116bf61190884600e61044c565b611dc26010611602565b15611dd857611dd861193b61190883600f61044c565b60009034611de8611ad98461036d565b611aeb826127fe565b61039b90611ce3565b61162690611e06611c78565b61039b90611e12611c35565b61039b90611e266116c36116bf600d611602565b61039b9061140a429160096111773392611e4c611d3561037a611761611142888861044c565b61039b9033611e616118e46113466000610dc5565b611e7561190d6116bf61190884600e61044c565b611e7f6010611602565b611e8a575b5061209f565b61193b611908611e9b92600f61044c565b38611e84565b6020808252601a908201527f574554483a20494e53554646494349454e545f42414c414e4345000000000000604082015260600190565b15611edf57565b6040517f08c379a000000000000000000000000000000000000000000000000000000000815280610e4860048201611ea1565b60208082526025908201527f574554483a204461696c79207769746864726177616c206c696d69742065786360408201527f6565646564000000000000000000000000000000000000000000000000000000606082015260800190565b15611f7657565b6040517f08c379a000000000000000000000000000000000000000000000000000000000815280610e4860048201611f12565b9061039b611fb660405190565b9283611076565b67ffffffffffffffff81116110b657602090601f017fffffffffffffffffffffffffffffffffffffffffffffffffffffffffffffffe0160190565b9061200a61200583611fbd565b611fa9565b918252565b3d156120295761201e3d611ff8565b903d6000602084013e565b606090565b60208082526019908201527f574554483a204554485f5452414e534645525f4641494c454400000000000000604082015260600190565b1561206c57565b6040517f08c379a000000000000000000000000000000000000000000000000000000000815280610e486004820161202e565b6000906120ae611ad98361036d565b33906120c46120bc8361112b565b821115611ed8565b6120cd826127fe565b612183600b936120fc6120e78461133a611142888a61044c565b6120f5611a9661037a61037d565b1115611f6f565b61215b612115611b3661210f6017611117565b86611a4e565b9361212d611b5c876121278885611aaa565b9961044c565b61214561213e8261133a6014611117565b60146112aa565b61214e8361036d565b85116121ad575b856121cc565b8061216560405190565b8061216f8161037a565b039087875af161217d61200f565b50612065565b611bba7fdf273cb619d95419a9cd0ec88123a0538c85064229baa6363788f743fff90deb92610443565b6121be611be68661133a6015611117565b612155565b61039b90611dfa565b91906121d86000610dc5565b926121e2846103cd565b6121eb826103cd565b146121fb579261039b9293611302565b610e488461122860405190565b90611626939291612217611c78565b9061039b939291612226611c35565b9061039b93929161223d6116c36116bf600d611602565b9061039b939291336122556118e46113466000610dc5565b61226961190d6116bf61190884600e61044c565b6122736010611602565b61227e575b506125c0565b61193b61190861228f92600f61044c565b38612278565b6020808252601b908201527f574554483a204172726179206c656e677468206d69736d617463680000000000604082015260600190565b156122d357565b6040517f08c379a000000000000000000000000000000000000000000000000000000000815280610e4860048201612295565b60208082526012908201527f574554483a20456d707479206172726179730000000000000000000000000000604082015260600190565b1561234457565b6040517f08c379a000000000000000000000000000000000000000000000000000000000815280610e4860048201612306565b60208082526019908201527f574554483a20546f6f206d616e7920726563697069656e747300000000000000604082015260600190565b156123b557565b6040517f08c379a000000000000000000000000000000000000000000000000000000000815280610e4860048201612377565b7fffffffffffffffffffffffffffffffffffffffffffffffffffffffffffffffff81146112fd5760010190565b7f4e487b7100000000000000000000000000000000000000000000000000000000600052603260045260246000fd5b9190811015612454576020020190565b612415565b3561037a81610602565b6020808252601a908201527f574554483a20496e636f72726563742045544820616d6f756e74000000000000604082015260600190565b156124a157565b6040517f08c379a000000000000000000000000000000000000000000000000000000000815280610e4860048201612463565b3561037a816103e6565b60208082526017908201527f574554483a20496e76616c696420726563697069656e74000000000000000000604082015260600190565b1561251c57565b6040517f08c379a000000000000000000000000000000000000000000000000000000000815280610e48600482016124de565b60208082526014908201527f574554483a20496e76616c696420616d6f756e74000000000000000000000000604082015260600190565b1561258d57565b6040517f08c379a000000000000000000000000000000000000000000000000000000000815280610e486004820161254f565b93839291806125d08582146122cc565b6000966125e66125df8961036d565b841161233d565b6125fb6125f3606461036d565b8411156123ae565b6126048861036d565b97885b885b8a101561263b5761263361262d612609926117696126288e8d8d612444565b612459565b9a6123e8565b999050612607565b909294985061265891939750612652611a96349290565b1461249a565b6126618161036d565b865b8110156127a3576127868161269d612687612682612663958989612444565b6124d4565b612696610dfe61134688610dc5565b1415612515565b6126c06126ae612628838b8b612444565b6126ba611a968761036d565b11612586565b8688612711611b73611b69612628866126f3611b366126e3612628848a8c612444565b6126ed6016611117565b90611a4e565b9561270b8761270661262885858d612444565b611aaa565b97612444565b61271a8661036d565b811161278d575b61273882612733612682868c8c612444565b611bfa565b612746612682848a8a612444565b906127717f90890809c654f11d6e72a28fa60149770a0d11ec6c92319d6ceb2bb0a4ea1a1592610443565b9261277e611bc760405190565b0390a26123e8565b9050612661565b61279e611be68261133a6015611117565b612721565b50505050505050565b9061039b939291612208565b6127c130610443565b3190565b906127e26111426127da61114285600a61044c565b93600b61044c565b906127eb61037d565b9061037a61037d565b8115611aa5570690565b61281d426128176128116201518061036d565b826127f4565b90611aaa565b600c61282c611142848361044c565b821161283757505050565b61039b9261140a9161117761284c600061036d565b61285b8161140a86600a61044c565b61140a84600b61044c565b6020808252601d908201527f574554483a204d616e6167657220616363657373207265717569726564000000604082015260600190565b156128a457565b6040517f08c379a000000000000000000000000000000000000000000000000000000000815280610e4860048201612866565b61039b90612902336128ea611346610d9e565b6128f3826103cd565b14908115612907575b5061289d565b612942565b612917915061190890601161044c565b386128fc565b9060ff90610ee0565b151590565b9061293b61037a610f0192612926565b825461291d565b61294d81600d61292b565b61297b7f4820cf6e28a8a9bda5092cad96ea0573beef6a2127028bf975724a36c365fbac9161054260405190565b0390a1565b61039b906128d7565b9061039b91612996610de8565b906129a561039b92601161044c565b61292b565b9061039b91612989565b9061039b916129c8336128ea611346610d9e565b906129a561039b92601261044c565b9061039b916129b4565b9061039b916129f5336128ea611346610d9e565b612a04826129a583600e61044c565b611bd0612a317f97b7af35c8c05eca90f543eb78b16fdf2664d3e6c9a907286f310647d9813b7192610443565b9261054260405190565b9061039b916129e1565b9061039b91612a59336128ea611346610d9e565b612a68826129a583600f61044c565b611bd0612a317faf367c7d20ce5b2ab6da56afd0c9c39b00ba995263c60292a3e1ee3781fd488592610443565b9061039b91612a45565b61039b90612ab2336128ea611346610d9e565b612abd81601061292b565b61297b7f9bea0dd3cae4438dc4c54c3110002aedc380f4075b6edae73ae0536105a2008a9161054260405190565b61039b90612a9f565b9061039b91612b08336128ea611346610d9e565b612bef565b6020808252601a908201527f574554483a204465706f7369742066656520746f6f2068696768000000000000604082015260600190565b15612b4b57565b6040517f08c379a000000000000000000000000000000000000000000000000000000000815280610e4860048201612b0d565b6020808252601b908201527f574554483a2057697468647261772066656520746f6f20686967680000000000604082015260600190565b15612bbc57565b6040517f08c379a000000000000000000000000000000000000000000000000000000000815280610e4860048201612b7e565b90612c12612c0a612bfe610b85565b61037a81861115612b44565b821115612bb5565b612c1d8260166112aa565b612c288160176112aa565b7f5c6323bf1c2d7aaea2c091a4751c1c87af7f2864650c336507a77d0557af37a19161297b611bc760405190565b9061039b91612af4565b612c6f336128ea611346610d9e565b61039b61039b612cc8565b61039b612c60565b612c8a611c35565b61039b612c996001600761292b565b3361297b7f62e78cea01bee320cd4e420270b5ea74000d11b0c9f74754ebdbfc544b05a25891610ace60405190565b61039b612c82565b612cdf336128ea611346610d9e565b61039b61039b612d38565b61039b612cd0565b612cfa612d40565b61039b612d096000600761292b565b3361297b7f5db9ee0a495bf2e6ff9c91a7834c1ba4fdd244a5e8aa4e537bd38aeae4b073aa91610ace60405190565b61039b612cf2565b612d4b6116bf61160c565b612d5157565b6040517f8dfc202b000000000000000000000000000000000000000000000000000000008152600490fd5b612d8b336128ea611346610d9e565b61039b612e75565b60208082526019908201527f574554483a204e6f206665657320746f20776974686472617700000000000000604082015260600190565b15612dd157565b6040517f08c379a000000000000000000000000000000000000000000000000000000000815280610e4860048201612d93565b6020808252601b908201527f574554483a20466565207769746864726177616c206661696c65640000000000604082015260600190565b15612e4257565b6040517f08c379a000000000000000000000000000000000000000000000000000000000815280610e4860048201612e04565b61039b612e8130610443565b3160008091612e99612e928361036d565b8211612dca565b612ea1610d9e565b90612eab60405190565b9081612eb68161037a565b03925af1612ec261200f565b50612e3b565b61039b612d7c565b9061039b9291612ede610de8565b612f54565b6020808252601e908201527f574554483a20496e73756666696369656e74204554482062616c616e63650000604082015260600190565b15612f2157565b6040517f08c379a000000000000000000000000000000000000000000000000000000000815280610e4860048201612ee3565b90600091612f79612f6484610dc5565b611346612f70826103cd565b612696866103cd565b612f82826103cd565b03612fbf5750819061039b93612fa5612f9d6127c130610443565b821115612f1a565b6040519081612fb38161037a565b03925af161217d61200f565b61039b939250612fce90610443565b613037565b9061039b9291612ed0565b612ff7612ff161037a9263ffffffff1690565b60e01b90565b7fffffffff000000000000000000000000000000000000000000000000000000001690565b91602061039b929493610d1160408201966000830190610a96565b61307a60049261306b61039b9561305163a9059cbb612fde565b9261305b60405190565b968794602086019081520161301c565b60208201810382520383611076565b906000602091613088600090565b50828151910182855af11561312157600080513d6130a8611a968461036d565b0361310b57506130c4611a966130bd84610443565b3b9261036d565b145b6130cd5750565b6130d9610e4891610443565b6040519182917f5274afe700000000000000000000000000000000000000000000000000000000835260048301610a9f565b905061311a611a96600161036d565b14156130c6565b6040513d6000823e3d90fd5b9061039b9161313a610de8565b6131b0565b6020808252601f908201527f574554483a20496e73756666696369656e7420574554482062616c616e636500604082015260600190565b1561317d57565b6040517f08c379a000000000000000000000000000000000000000000000000000000000815280610e486004820161313f565b9061039b916131ce6131c56113466000610dc5565b612696836103cd565b6131d730610443565b6111526131e661037a8361112b565b841115613176565b9061039b9161312d56fea26469706673582212206b0f383a5187834311af22e2a66f71d38fea6902597f01c33f2ed31d6ae3615864736f6c63430008140033",
  "linkReferences": {},
  "deployedLinkReferences": {}
}