{
  "_format": "hh-sol-artifact-1",
  "contractName": "DEXFactory",
  "sourceName": "contracts/DEXFactory.sol",
  "abi": [
    {
      "inputs": [
        {
          "internalType": "address",
          "name": "locker",
          "type": "address"
        }
      ],
      "stateMutability": "nonpayable",
      "type": "constructor"
    },
    {
      "inputs": [],
      "name": "EnforcedPause",
      "type": "error"
    },
    {
      "inputs": [],
      "name": "ExpectedPause",
      "type": "error"
    },
    {
      "inputs": [
        {
          "internalType": "address",
          "name": "owner",
          "type": "address"
        }
      ],
      "name": "OwnableInvalidOwner",
      "type": "error"
    },
    {
      "inputs": [
        {
          "internalType": "address",
          "name": "account",
          "type": "address"
        }
      ],
      "name": "OwnableUnauthorizedAccount",
      "type": "error"
    },
    {
      "inputs": [],
      "name": "ReentrancyGuardReentrantCall",
      "type": "error"
    },
    {
      "inputs": [
        {
          "internalType": "address",
          "name": "token",
          "type": "address"
        }
      ],
      "name": "SafeERC20FailedOperation",
      "type": "error"
    },
    {
      "anonymous": false,
      "inputs": [
        {
          "indexed": true,
          "internalType": "address",
          "name": "account",
          "type": "address"
        },
        {
          "indexed": false,
          "internalType": "bool",
          "name": "blacklisted",
          "type": "bool"
        }
      ],
      "name": "BlacklistUpdated",
      "type": "event"
    },
    {
      "anonymous": false,
      "inputs": [
        {
          "indexed": false,
          "internalType": "bool",
          "name": "stopped",
          "type": "bool"
        },
        {
          "indexed": true,
          "internalType": "address",
          "name": "updater",
          "type": "address"
        }
      ],
      "name": "EmergencyStopUpdated",
      "type": "event"
    },
    {
      "anonymous": false,
      "inputs": [
        {
          "indexed": false,
          "internalType": "uint256",
          "name": "oldFee",
          "type": "uint256"
        },
        {
          "indexed": false,
          "internalType": "uint256",
          "name": "newFee",
          "type": "uint256"
        },
        {
          "indexed": true,
          "internalType": "address",
          "name": "updater",
          "type": "address"
        }
      ],
      "name": "FeeUpdated",
      "type": "event"
    },
    {
      "anonymous": false,
      "inputs": [
        {
          "indexed": true,
          "internalType": "address",
          "name": "pair",
          "type": "address"
        },
        {
          "indexed": true,
          "internalType": "address",
          "name": "owner",
          "type": "address"
        },
        {
          "indexed": false,
          "internalType": "uint256",
          "name": "amount",
          "type": "uint256"
        },
        {
          "indexed": false,
          "internalType": "uint256",
          "name": "unlockTime",
          "type": "uint256"
        },
        {
          "indexed": false,
          "internalType": "string",
          "name": "description",
          "type": "string"
        },
        {
          "indexed": false,
          "internalType": "uint256",
          "name": "lockFee",
          "type": "uint256"
        }
      ],
      "name": "LiquidityLocked",
      "type": "event"
    },
    {
      "anonymous": false,
      "inputs": [
        {
          "indexed": true,
          "internalType": "address",
          "name": "pair",
          "type": "address"
        },
        {
          "indexed": true,
          "internalType": "address",
          "name": "owner",
          "type": "address"
        },
        {
          "indexed": false,
          "internalType": "uint256",
          "name": "amount",
          "type": "uint256"
        },
        {
          "indexed": false,
          "internalType": "uint256",
          "name": "timestamp",
          "type": "uint256"
        }
      ],
      "name": "LiquidityUnlocked",
      "type": "event"
    },
    {
      "anonymous": false,
      "inputs": [
        {
          "indexed": true,
          "internalType": "address",
          "name": "user",
          "type": "address"
        },
        {
          "indexed": false,
          "internalType": "uint256",
          "name": "amount",
          "type": "uint256"
        },
        {
          "indexed": false,
          "internalType": "uint256",
          "name": "timestamp",
          "type": "uint256"
        }
      ],
      "name": "LockFeeCollected",
      "type": "event"
    },
    {
      "anonymous": false,
      "inputs": [
        {
          "indexed": false,
          "internalType": "uint256",
          "name": "oldBasicFee",
          "type": "uint256"
        },
        {
          "indexed": false,
          "internalType": "uint256",
          "name": "newBasicFee",
          "type": "uint256"
        },
        {
          "indexed": false,
          "internalType": "uint256",
          "name": "oldPremiumFee",
          "type": "uint256"
        },
        {
          "indexed": false,
          "internalType": "uint256",
          "name": "newPremiumFee",
          "type": "uint256"
        }
      ],
      "name": "LockFeeUpdated",
      "type": "event"
    },
    {
      "anonymous": false,
      "inputs": [
        {
          "indexed": true,
          "internalType": "address",
          "name": "manager",
          "type": "address"
        },
        {
          "indexed": false,
          "internalType": "bool",
          "name": "authorized",
          "type": "bool"
        }
      ],
      "name": "ManagerUpdated",
      "type": "event"
    },
    {
      "anonymous": false,
      "inputs": [
        {
          "indexed": true,
          "internalType": "address",
          "name": "operator",
          "type": "address"
        },
        {
          "indexed": false,
          "internalType": "bool",
          "name": "authorized",
          "type": "bool"
        }
      ],
      "name": "OperatorAuthorized",
      "type": "event"
    },
    {
      "anonymous": false,
      "inputs": [
        {
          "indexed": true,
          "internalType": "address",
          "name": "previousOwner",
          "type": "address"
        },
        {
          "indexed": true,
          "internalType": "address",
          "name": "newOwner",
          "type": "address"
        }
      ],
      "name": "OwnershipTransferred",
      "type": "event"
    },
    {
      "anonymous": false,
      "inputs": [
        {
          "indexed": true,
          "internalType": "address",
          "name": "token0",
          "type": "address"
        },
        {
          "indexed": true,
          "internalType": "address",
          "name": "token1",
          "type": "address"
        },
        {
          "indexed": false,
          "internalType": "address",
          "name": "pair",
          "type": "address"
        },
        {
          "indexed": false,
          "internalType": "uint256",
          "name": "allPairsLength",
          "type": "uint256"
        },
        {
          "indexed": false,
          "internalType": "uint256",
          "name": "timestamp",
          "type": "uint256"
        },
        {
          "components": [
            {
              "internalType": "bool",
              "name": "emergencyStop",
              "type": "bool"
            }
          ],
          "indexed": false,
          "internalType": "struct IDEXFactory.PoolSecurityConfig",
          "name": "securityConfig",
          "type": "tuple"
        }
      ],
      "name": "PairCreated",
      "type": "event"
    },
    {
      "anonymous": false,
      "inputs": [
        {
          "indexed": false,
          "internalType": "address",
          "name": "account",
          "type": "address"
        }
      ],
      "name": "Paused",
      "type": "event"
    },
    {
      "anonymous": false,
      "inputs": [
        {
          "indexed": false,
          "internalType": "uint256",
          "name": "oldShare",
          "type": "uint256"
        },
        {
          "indexed": false,
          "internalType": "uint256",
          "name": "newShare",
          "type": "uint256"
        }
      ],
      "name": "PlatformFeeShareUpdated",
      "type": "event"
    },
    {
      "anonymous": false,
      "inputs": [
        {
          "indexed": true,
          "internalType": "address",
          "name": "pair",
          "type": "address"
        },
        {
          "indexed": false,
          "internalType": "uint256",
          "name": "amount",
          "type": "uint256"
        },
        {
          "indexed": false,
          "internalType": "uint256",
          "name": "platformShare",
          "type": "uint256"
        },
        {
          "indexed": false,
          "internalType": "uint256",
          "name": "timestamp",
          "type": "uint256"
        }
      ],
      "name": "TradingFeeCollected",
      "type": "event"
    },
    {
      "anonymous": false,
      "inputs": [
        {
          "indexed": false,
          "internalType": "address",
          "name": "account",
          "type": "address"
        }
      ],
      "name": "Unpaused",
      "type": "event"
    },
    {
      "inputs": [],
      "name": "FEE_DENOMINATOR",
      "outputs": [
        {
          "internalType": "uint256",
          "name": "",
          "type": "uint256"
        }
      ],
      "stateMutability": "view",
      "type": "function"
    },
    {
      "inputs": [],
      "name": "MAX_FEE_RATE",
      "outputs": [
        {
          "internalType": "uint256",
          "name": "",
          "type": "uint256"
        }
      ],
      "stateMutability": "view",
      "type": "function"
    },
    {
      "inputs": [
        {
          "internalType": "uint256",
          "name": "",
          "type": "uint256"
        }
      ],
      "name": "allPairs",
      "outputs": [
        {
          "internalType": "address",
          "name": "",
          "type": "address"
        }
      ],
      "stateMutability": "view",
      "type": "function"
    },
    {
      "inputs": [],
      "name": "allPairsLength",
      "outputs": [
        {
          "internalType": "uint256",
          "name": "",
          "type": "uint256"
        }
      ],
      "stateMutability": "view",
      "type": "function"
    },
    {
      "inputs": [
        {
          "internalType": "address",
          "name": "",
          "type": "address"
        }
      ],
      "name": "authorizedOperators",
      "outputs": [
        {
          "internalType": "bool",
          "name": "",
          "type": "bool"
        }
      ],
      "stateMutability": "view",
      "type": "function"
    },
    {
      "inputs": [
        {
          "internalType": "address",
          "name": "",
          "type": "address"
        }
      ],
      "name": "blacklistedAddresses",
      "outputs": [
        {
          "internalType": "bool",
          "name": "",
          "type": "bool"
        }
      ],
      "stateMutability": "view",
      "type": "function"
    },
    {
      "inputs": [
        {
          "internalType": "address",
          "name": "pair",
          "type": "address"
        },
        {
          "internalType": "uint256",
          "name": "amount",
          "type": "uint256"
        }
      ],
      "name": "collectTradingFees",
      "outputs": [],
      "stateMutability": "nonpayable",
      "type": "function"
    },
    {
      "inputs": [
        {
          "internalType": "address",
          "name": "tokenA",
          "type": "address"
        },
        {
          "internalType": "address",
          "name": "tokenB",
          "type": "address"
        }
      ],
      "name": "createPair",
      "outputs": [
        {
          "internalType": "address",
          "name": "pair",
          "type": "address"
        }
      ],
      "stateMutability": "nonpayable",
      "type": "function"
    },
    {
      "inputs": [
        {
          "internalType": "address",
          "name": "tokenA",
          "type": "address"
        },
        {
          "internalType": "address",
          "name": "tokenB",
          "type": "address"
        },
        {
          "components": [
            {
              "internalType": "bool",
              "name": "emergencyStop",
              "type": "bool"
            }
          ],
          "internalType": "struct IDEXFactory.PoolSecurityConfig",
          "name": "securityConfig",
          "type": "tuple"
        }
      ],
      "name": "createPair",
      "outputs": [
        {
          "internalType": "address",
          "name": "pair",
          "type": "address"
        }
      ],
      "stateMutability": "nonpayable",
      "type": "function"
    },
    {
      "inputs": [
        {
          "internalType": "address",
          "name": "tokenA",
          "type": "address"
        },
        {
          "internalType": "address",
          "name": "tokenB",
          "type": "address"
        },
        {
          "internalType": "uint256",
          "name": "amountA",
          "type": "uint256"
        },
        {
          "internalType": "uint256",
          "name": "amountB",
          "type": "uint256"
        },
        {
          "internalType": "bool",
          "name": "shouldLockLiquidity",
          "type": "bool"
        },
        {
          "internalType": "uint256",
          "name": "lockDuration",
          "type": "uint256"
        },
        {
          "internalType": "string",
          "name": "lockDescription",
          "type": "string"
        }
      ],
      "name": "createPairWithLiquidity",
      "outputs": [
        {
          "internalType": "address",
          "name": "",
          "type": "address"
        },
        {
          "internalType": "uint256",
          "name": "",
          "type": "uint256"
        }
      ],
      "stateMutability": "pure",
      "type": "function"
    },
    {
      "inputs": [
        {
          "internalType": "address",
          "name": "token",
          "type": "address"
        },
        {
          "internalType": "address",
          "name": "to",
          "type": "address"
        },
        {
          "internalType": "uint256",
          "name": "amount",
          "type": "uint256"
        }
      ],
      "name": "emergencyRecover",
      "outputs": [],
      "stateMutability": "nonpayable",
      "type": "function"
    },
    {
      "inputs": [],
      "name": "emergencyStop",
      "outputs": [
        {
          "internalType": "bool",
          "name": "",
          "type": "bool"
        }
      ],
      "stateMutability": "view",
      "type": "function"
    },
    {
      "inputs": [],
      "name": "feeDenominator",
      "outputs": [
        {
          "internalType": "uint256",
          "name": "",
          "type": "uint256"
        }
      ],
      "stateMutability": "pure",
      "type": "function"
    },
    {
      "inputs": [],
      "name": "feeRate",
      "outputs": [
        {
          "internalType": "uint256",
          "name": "",
          "type": "uint256"
        }
      ],
      "stateMutability": "view",
      "type": "function"
    },
    {
      "inputs": [
        {
          "internalType": "address",
          "name": "tokenA",
          "type": "address"
        },
        {
          "internalType": "address",
          "name": "tokenB",
          "type": "address"
        }
      ],
      "name": "getPair",
      "outputs": [
        {
          "internalType": "address",
          "name": "pair",
          "type": "address"
        }
      ],
      "stateMutability": "view",
      "type": "function"
    },
    {
      "inputs": [
        {
          "internalType": "address",
          "name": "tokenA",
          "type": "address"
        },
        {
          "internalType": "address",
          "name": "tokenB",
          "type": "address"
        }
      ],
      "name": "getPairAddress",
      "outputs": [
        {
          "internalType": "address",
          "name": "",
          "type": "address"
        }
      ],
      "stateMutability": "view",
      "type": "function"
    },
    {
      "inputs": [
        {
          "internalType": "address",
          "name": "",
          "type": "address"
        }
      ],
      "name": "isManager",
      "outputs": [
        {
          "internalType": "bool",
          "name": "",
          "type": "bool"
        }
      ],
      "stateMutability": "view",
      "type": "function"
    },
    {
      "inputs": [],
      "name": "liquidityLocker",
      "outputs": [
        {
          "internalType": "contract LiquidityLocker",
          "name": "",
          "type": "address"
        }
      ],
      "stateMutability": "view",
      "type": "function"
    },
    {
      "inputs": [
        {
          "internalType": "address",
          "name": "pair",
          "type": "address"
        },
        {
          "internalType": "uint256",
          "name": "amount",
          "type": "uint256"
        },
        {
          "internalType": "uint256",
          "name": "lockDuration",
          "type": "uint256"
        },
        {
          "internalType": "string",
          "name": "description",
          "type": "string"
        }
      ],
      "name": "lockLiquidity",
      "outputs": [],
      "stateMutability": "payable",
      "type": "function"
    },
    {
      "inputs": [],
      "name": "owner",
      "outputs": [
        {
          "internalType": "address",
          "name": "",
          "type": "address"
        }
      ],
      "stateMutability": "view",
      "type": "function"
    },
    {
      "inputs": [],
      "name": "pause",
      "outputs": [],
      "stateMutability": "nonpayable",
      "type": "function"
    },
    {
      "inputs": [],
      "name": "paused",
      "outputs": [
        {
          "internalType": "bool",
          "name": "",
          "type": "bool"
        }
      ],
      "stateMutability": "view",
      "type": "function"
    },
    {
      "inputs": [
        {
          "internalType": "address",
          "name": "",
          "type": "address"
        }
      ],
      "name": "poolSecurityConfigs",
      "outputs": [
        {
          "internalType": "bool",
          "name": "emergencyStop",
          "type": "bool"
        }
      ],
      "stateMutability": "view",
      "type": "function"
    },
    {
      "inputs": [],
      "name": "renounceOwnership",
      "outputs": [],
      "stateMutability": "nonpayable",
      "type": "function"
    },
    {
      "inputs": [
        {
          "internalType": "address",
          "name": "operator",
          "type": "address"
        },
        {
          "internalType": "bool",
          "name": "authorized",
          "type": "bool"
        }
      ],
      "name": "setAuthorizedOperator",
      "outputs": [],
      "stateMutability": "nonpayable",
      "type": "function"
    },
    {
      "inputs": [
        {
          "internalType": "address",
          "name": "account",
          "type": "address"
        },
        {
          "internalType": "bool",
          "name": "blacklisted",
          "type": "bool"
        }
      ],
      "name": "setBlacklisted",
      "outputs": [],
      "stateMutability": "nonpayable",
      "type": "function"
    },
    {
      "inputs": [
        {
          "internalType": "bool",
          "name": "stopped",
          "type": "bool"
        }
      ],
      "name": "setEmergencyStop",
      "outputs": [],
      "stateMutability": "nonpayable",
      "type": "function"
    },
    {
      "inputs": [
        {
          "internalType": "address",
          "name": "manager",
          "type": "address"
        },
        {
          "internalType": "bool",
          "name": "authorized",
          "type": "bool"
        }
      ],
      "name": "setManager",
      "outputs": [],
      "stateMutability": "nonpayable",
      "type": "function"
    },
    {
      "inputs": [],
      "name": "totalPairsCreated",
      "outputs": [
        {
          "internalType": "uint256",
          "name": "",
          "type": "uint256"
        }
      ],
      "stateMutability": "view",
      "type": "function"
    },
    {
      "inputs": [
        {
          "internalType": "address",
          "name": "newOwner",
          "type": "address"
        }
      ],
      "name": "transferOwnership",
      "outputs": [],
      "stateMutability": "nonpayable",
      "type": "function"
    },
    {
      "inputs": [
        {
          "internalType": "address",
          "name": "pair",
          "type": "address"
        },
        {
          "internalType": "uint256",
          "name": "lockIndex",
          "type": "uint256"
        }
      ],
      "name": "unlockLiquidity",
      "outputs": [],
      "stateMutability": "nonpayable",
      "type": "function"
    },
    {
      "inputs": [],
      "name": "unpause",
      "outputs": [],
      "stateMutability": "nonpayable",
      "type": "function"
    },
    {
      "inputs": [
        {
          "internalType": "uint256",
          "name": "newFeeRate",
          "type": "uint256"
        }
      ],
      "name": "updateFeeRate",
      "outputs": [],
      "stateMutability": "nonpayable",
      "type": "function"
    },
    {
      "inputs": [],
      "name": "withdrawFees",
      "outputs": [],
      "stateMutability": "nonpayable",
      "type": "function"
    }
  ],
  "bytecode": "0x60806040523462000030576200001e62000018620000d3565b6200020c565b60405161625262000386823961625290f35b600080fd5b634e487b7160e01b600052604160045260246000fd5b90601f01601f191681019081106001600160401b038211176200006d57604052565b62000035565b906200008a6200008260405190565b92836200004b565b565b6001600160a01b031690565b90565b6001600160a01b038116036200003057565b905051906200008a826200009b565b9060208282031262000030576200009891620000ad565b62000098620065d880380380620000ea8162000073565b928339810190620000bc565b90600019905b9181191691161790565b6200009862000098620000989290565b906200012a62000098620001329262000106565b8254620000f6565b9055565b6200008c62000098620000989290565b620000989062000136565b156200015957565b60405162461bcd60e51b815260206004820152600a60248201526924a72b2fa627a1a5a2a960b11b6044820152606490fd5b0390fd5b9060ff90620000fc565b90620001ac620000986200013292151590565b82546200018f565b62000098906200008c906001600160a01b031682565b6200009890620001b4565b6200009890620001ca565b906001600160a01b0390620000fc565b9062000204620000986200013292620001d5565b8254620001e0565b620002676200008a9162000220336200026f565b6200022e601e600562000116565b62000261600062000259620002476200008c8362000146565b6001600160a01b038516141562000151565b600762000199565b620001d5565b600c620001f0565b6200008a9062000286565b62000098600162000106565b6200029190620002a7565b6200008a6200029f6200027a565b600162000116565b620002b3600062000146565b6001600160a01b0381166001600160a01b03831614620002d957506200008a9062000323565b6200018b90620002e860405190565b631e4fbdf760e01b8152918291600483016001600160a01b03909116815260200190565b62000098906200008c565b6200009890546200030c565b6200032f600062000317565b906200033d816000620001f0565b620003746200036d7f8be0079c531659141344cd1fd0a4f28419497f9722a3daafe3b4186f6b6457e093620001d5565b91620001d5565b916200037f60405190565b600090a356fe608060405260043610156200001357600080fd5b60003560e01c8063180b0d7e14620001c8578063181d989b14620002705780631e3dd18b146200026a5780633f4ba83a1462000264578063476343ee146200025e5780634bfc2e0b1462000258578063574f2ba314620002525780635c975abb146200024c57806363a599a41462000246578063715018a61462000240578063788f737d146200023a5780637935f9a314620002345780637b84fda5146200022e5780638456cb5914620002285780638da5cb5b146200022257806392f6576e146200021c5780639759164a1462000216578063978bbdb91462000210578063a293e03c146200020a578063a5e90eee1462000204578063ac44962914620001fe578063ad1329d114620001f8578063b4f69a2f14620001f2578063be8796c114620001ec578063c73d7c7b14620001e6578063c9c6539614620001e0578063ce3b527314620001da578063d01dd6d214620001d4578063d5749d4214620001ce578063d73792a914620001c8578063e6a4390514620001c2578063f2fde38b14620001bc578063f3ae241514620001b65763ff255efb03620002825762000d0b565b62000cdc565b62000caa565b62000c88565b6200028d565b62000c50565b62000c1d565b62000bfb565b62000b93565b62000b76565b62000b41565b62000b1f565b62000ad9565b62000a82565b620009ab565b62000990565b620007e8565b62000793565b62000747565b620006ff565b620006e2565b620006c5565b620006a4565b62000655565b620005f8565b620005d7565b620005a8565b62000587565b62000569565b62000524565b62000502565b620004b9565b620003b2565b60009103126200028257565b600080fd5b9052565b565b346200028257620002a036600462000276565b620002be620002ae62000c7e565b6040519182918290815260200190565b0390f35b73ffffffffffffffffffffffffffffffffffffffff1690565b90565b73ffffffffffffffffffffffffffffffffffffffff81165b036200028257565b905035906200028b82620002de565b906020828203126200028257620002db91620002fe565b620002c2620002db620002db9273ffffffffffffffffffffffffffffffffffffffff1690565b620002db9062000324565b620002db906200034a565b906200036c9062000355565b600052602052604060002090565b620002db916008021c5b60ff1690565b90620002db91546200037a565b620002db90620003ac60089160009262000360565b6200038a565b346200028257620002be620003d3620003cd3660046200030d565b62000397565b6040515b91829182901515815260200190565b80620002f6565b905035906200028b82620003e6565b906020828203126200028257620002db91620003ed565b7f4e487b7100000000000000000000000000000000000000000000000000000000600052603260045260246000fd5b805482101562000467576200045e600191600052602060002090565b91020190600090565b62000413565b620002db916008021c620002c2565b90620002db91546200046d565b6004600062000496825490565b831015620004b65750620002db91620004af9162000442565b906200047c565b80fd5b346200028257620002be620004da620004d4366004620003fc565b62000489565b6040515b9182918273ffffffffffffffffffffffffffffffffffffffff909116815260200190565b3462000282576200051536600462000276565b6200051f62002bc9565b604051005b3462000282576200053736600462000276565b6200051f62002dad565b91906040838203126200028257620002db906200055f8185620002fe565b93602001620003ed565b3462000282576200051f6200058036600462000541565b906200264f565b3462000282576200059a36600462000276565b620002be620002ae60045490565b346200028257620005bb36600462000276565b620002be620003d362000f95565b620002db600060076200038a565b346200028257620005ea36600462000276565b620002be620003d3620005c9565b3462000282576200060b36600462000276565b6200051f62000d94565b801515620002f6565b905035906200028b8262000615565b91906040838203126200028257620002db906200064b8185620002fe565b936020016200061e565b3462000282576200051f6200066c3660046200062d565b9062002a50565b620002db9062000384565b620002db905462000673565b60006200069d620002db92600a62000360565b016200067e565b346200028257620002be620003d3620006bf3660046200030d565b6200068a565b3462000282576200051f620006dc366004620003fc565b62002979565b346200028257620006f536600462000276565b6200051f62002b42565b3462000282576200071236600462000276565b620002be620004da62000d43565b620002db620002db620002db9290565b620002db6103e862000720565b620002db62000730565b3462000282576200075a36600462000276565b620002be620002ae6200073d565b620002db6000600c6200047c565b620002879062000355565b6020810192916200028b919062000776565b346200028257620007a636600462000276565b620002be620007b462000768565b6040519182918262000781565b620002db916008021c81565b90620002db9154620007c1565b620002db60006005620007cd565b346200028257620007fb36600462000276565b620002be620002ae620007da565b7f4e487b7100000000000000000000000000000000000000000000000000000000600052604160045260246000fd5b90601f017fffffffffffffffffffffffffffffffffffffffffffffffffffffffffffffffe016810190811067ffffffffffffffff8211176200087957604052565b62000809565b906200028b6200088e60405190565b928362000838565b67ffffffffffffffff81116200087957602090601f017fffffffffffffffffffffffffffffffffffffffffffffffffffffffffffffffe0160190565b0190565b90826000939282370152565b90929192620008fb620008f58262000896565b6200087f565b9381855260208501908284011162000282576200028b92620008d6565b9080601f830112156200028257816020620002db93359101620008e2565b9060808282031262000282576200094e8183620002fe565b926200095e8260208501620003ed565b926200096e8360408301620003ed565b92606082013567ffffffffffffffff81116200028257620002db920162000918565b6200051f620009a136600462000936565b929190916200208b565b3462000282576200051f620009c23660046200062d565b9062002aae565b9060e0828203126200028257620009e18183620002fe565b92620009f18260208501620002fe565b9262000a018360408301620003ed565b9262000a118160608401620003ed565b9262000a2182608085016200061e565b9262000a318360a08301620003ed565b9260c082013567ffffffffffffffff81116200028257620002db920162000918565b73ffffffffffffffffffffffffffffffffffffffff90911681526040810192916200028b9160200152565b0152565b34620002825762000a95366004620009c9565b9594909493919362003015565b90916060828403126200028257620002db62000abf8484620002fe565b9362000acf8160208601620002fe565b93604001620003ed565b3462000282576200051f62000af036600462000aa2565b9162002ea7565b91906040838203126200028257620002db9062000b158185620002fe565b93602001620002fe565b346200028257620002be620004da62000b3a36600462000af7565b9062002766565b3462000282576200051f62000b5836600462000541565b906200249f565b906020828203126200028257620002db916200061e565b3462000282576200051f62000b8d36600462000b5f565b620029e4565b346200028257620002be620004da62000bae36600462000af7565b9062001adb565b90816020910312620002825790565b90916060828403126200028257620002db62000be18484620002fe565b9362000bf18160208601620002fe565b9360400162000bb5565b346200028257620002be620004da62000c1636600462000bc4565b916200192e565b3462000282576200051f62000c343660046200062d565b9062002b15565b620002db90620003ac60099160009262000360565b346200028257620002be620003d362000c6b3660046200030d565b62000c3b565b620002db61271062000720565b620002db62000c71565b346200028257620002be620004da62000ca336600462000af7565b90620026df565b3462000282576200051f62000cc13660046200030d565b62000ee4565b620002db90620003ac600b9160009262000360565b346200028257620002be620003d362000cf73660046200030d565b62000cc7565b620002db60006006620007cd565b34620002825762000d1e36600462000276565b620002be620002ae62000cfd565b620002db90620002c2565b620002db905462000d2c565b620002db600062000d37565b62000d5962000d9e565b6200028b62000d7e565b620002c2620002db620002db9290565b620002db9062000d63565b6200028b62000d8e600062000d73565b62000f31565b6200028b62000d4f565b62000da862000d43565b339062000dca825b9173ffffffffffffffffffffffffffffffffffffffff1690565b0362000dd35750565b62000e2c9062000de260405190565b9182917f118cdaa70000000000000000000000000000000000000000000000000000000083526004830173ffffffffffffffffffffffffffffffffffffffff909116815260200190565b0390fd5b6200028b9062000e3f62000d9e565b62000e4b600062000d73565b73ffffffffffffffffffffffffffffffffffffffff811673ffffffffffffffffffffffffffffffffffffffff83161462000e8b57506200028b9062000f31565b62000e2c9062000e9a60405190565b9182917f1e4fbdf70000000000000000000000000000000000000000000000000000000083526004830173ffffffffffffffffffffffffffffffffffffffff909116815260200190565b6200028b9062000e30565b9073ffffffffffffffffffffffffffffffffffffffff905b9181191691161790565b9062000f25620002db62000f2d9262000355565b825462000eef565b9055565b62000f3d600062000d37565b9062000f4b81600062000f11565b62000f8262000f7b7f8be0079c531659141344cd1fd0a4f28419497f9722a3daafe3b4186f6b6457e09362000355565b9162000355565b9162000f8d60405190565b80805b0390a3565b620002db60026200067e565b90620002db93929162000fb36200193d565b62001020565b1562000fc157565b6040517f08c379a000000000000000000000000000000000000000000000000000000000815260206004820152601360248201527f4445583a20454d455247454e43595f53544f50000000000000000000000000006044820152606490fd5b90620002db93929162001046620010406200103c60076200067e565b1590565b62000fb9565b620010b3565b156200105457565b6040517f08c379a000000000000000000000000000000000000000000000000000000000815260206004820152601060248201527f4445583a20424c41434b4c4953544544000000000000000000000000000000006044820152606490fd5b90620002db939291620010e0620010da6200103c620010d433600962000360565b6200067e565b6200104c565b6200158e565b15620010ee57565b6040517f08c379a000000000000000000000000000000000000000000000000000000000815260206004820152601860248201527f4445583a204944454e544943414c5f41444452455353455300000000000000006044820152606490fd5b156200115557565b6040517f08c379a000000000000000000000000000000000000000000000000000000000815260206004820152601160248201527f4445583a205a45524f5f414444524553530000000000000000000000000000006044820152606490fd5b15620011bc57565b6040517f08c379a000000000000000000000000000000000000000000000000000000000815260206004820152601160248201527f4445583a204e4f545f434f4e54524143540000000000000000000000000000006044820152606490fd5b156200122357565b6040517f08c379a000000000000000000000000000000000000000000000000000000000815260206004820152601060248201527f4445583a20504149525f455849535453000000000000000000000000000000006044820152606490fd5b620002879073ffffffffffffffffffffffffffffffffffffffff1660601b90565b601481620012b8620008d29383969562001282565b01809262001282565b15620012c957565b6040517f08c379a000000000000000000000000000000000000000000000000000000000815260206004820152601360248201527f4445583a20435245415445325f4641494c4544000000000000000000000000006044820152606490fd5b50620002db9060208101906200061e565b6200028b91906000906200134e908062001328565b1515910152565b73ffffffffffffffffffffffffffffffffffffffff90911681526060810193926200028b929091604091620013a2905b73ffffffffffffffffffffffffffffffffffffffff166020830152565b019062001339565b6040513d6000823e3d90fd5b35620002db8162000615565b9060ff9062000f07565b90620013df620002db62000f2d92151590565b8254620013c2565b6200028b91620013f790620013b6565b90620013cc565b906200028b91620013e7565b9190600862000f079102916200143373ffffffffffffffffffffffffffffffffffffffff841b90565b921b90565b91906200144d620002db62000f2d9362000355565b9083546200140a565b9081549168010000000000000000831015620008795782620014829160016200028b9501815562000442565b9062001438565b620002db9081565b620002db905462001489565b7f4e487b7100000000000000000000000000000000000000000000000000000000600052601160045260246000fd5b7fffffffffffffffffffffffffffffffffffffffffffffffffffffffffffffffff8114620014fa5760010190565b6200149d565b907fffffffffffffffffffffffffffffffffffffffffffffffffffffffffffffffff9062000f07565b906200153d620002db62000f2d9262000720565b825462001500565b620013a26200028b946200158760609498979562001580608086019a600087019073ffffffffffffffffffffffffffffffffffffffff169052565b6020850152565b6040830152565b50929190620015cc73ffffffffffffffffffffffffffffffffffffffff821673ffffffffffffffffffffffffffffffffffffffff86161415620010e6565b600090620015da8262000d73565b9473ffffffffffffffffffffffffffffffffffffffff861673ffffffffffffffffffffffffffffffffffffffff82161415806200190a575b6200161d906200114d565b803b620016326200162e8562000720565b9190565b1180620018eb575b6200164590620011b4565b73ffffffffffffffffffffffffffffffffffffffff821673ffffffffffffffffffffffffffffffffffffffff82161015620018e45790915b600390620016cd620016a56200169f8662001699878762000360565b62000360565b62000d37565b620016c673ffffffffffffffffffffffffffffffffffffffff8a1662000db0565b146200121b565b62001770620017516131a8620016e6602082016200087f565b908082526200307560208301396040516200171981602081016200170c8b8b83620012a3565b9081038252038262000838565b6200172d62001726825190565b9160200190565b209060208151910185f59873ffffffffffffffffffffffffffffffffffffffff1690565b73ffffffffffffffffffffffffffffffffffffffff89161415620012c1565b620017856200177f8862000355565b62000355565b9163820d25a892803b156200028257620017ae938391620017a560405190565b95869260e01b90565b8252818381620017c48c8c8c6004850162001355565b03925af1918215620018de576200169986620018199387936200181f978d97620018aa575b5050620018038a620017fd88600a62000360565b620013fe565b6200169986620018198462001699888662000360565b62000f11565b62001857600462001831878262001456565b620018536200184b62001845600662001491565b620014cc565b600662001529565b5490565b429062000f90620018946200188d7f51896478037ff16b2c1085711156bd706fc275ca11914222527eb160248755e99562000355565b9562000355565b956200189f60405190565b9384938a8562001545565b81620018ce92903d10620018d6575b620018c5818362000838565b81019062000276565b3880620017e9565b503d620018b9565b620013aa565b916200167d565b5062001645823b620019016200162e8662000720565b1190506200163a565b5073ffffffffffffffffffffffffffffffffffffffff828116908716141562001612565b620002db929190600062000fa1565b6200194762000f95565b6200194e57565b6040517fd93c0665000000000000000000000000000000000000000000000000000000008152600490fd5b90620002db92916200198a6200193d565b90620002db9291620019a5620010406200103c60076200067e565b90620002db9291620019c5620010da6200103c620010d433600962000360565b62001a3b565b620002db60206200087f565b905051906200028b82620002de565b906020828203126200028257620002db91620019d7565b73ffffffffffffffffffffffffffffffffffffffff90911681526060810193926200028b92909160409162001a329062001385565b01905115159052565b50602090600162001a5662001a4f620019cb565b9115158252565b62001a89600062001a673062000355565b9262001a9563ce3b52739162001a7c60405190565b9889978896879560e01b90565b855260048501620019fd565b03925af1908115620018de5760009162001aad575090565b620002db915060203d811162001ad3575b62001aca818362000838565b810190620019e6565b503d62001abe565b620002db9190600062001979565b1562001af157565b6040517f08c379a000000000000000000000000000000000000000000000000000000000815260206004820152600860248201527f494e565f504149520000000000000000000000000000000000000000000000006044820152606490fd5b1562001b5857565b6040517f08c379a000000000000000000000000000000000000000000000000000000000815260206004820152600760248201527f494e565f414d54000000000000000000000000000000000000000000000000006044820152606490fd5b1562001bbf57565b6040517f08c379a000000000000000000000000000000000000000000000000000000000815260206004820152600760248201527f494e565f445552000000000000000000000000000000000000000000000000006044820152606490fd5b1562001c2657565b6040517f08c379a00000000000000000000000000000000000000000000000000000000081528062000e2c6004820160208082526004908201527f4c4f4e4700000000000000000000000000000000000000000000000000000000604082015260600190565b1562001c9457565b6040517f08c379a00000000000000000000000000000000000000000000000000000000081528062000e2c6004820160208082526004908201527f4e464e4400000000000000000000000000000000000000000000000000000000604082015260600190565b81810292918115918404141715620014fa57565b7f4e487b7100000000000000000000000000000000000000000000000000000000600052601260045260246000fd5b811562001d48570490565b62001d0e565b905051906200028b8262000615565b906020828203126200028257620002db9162001d4e565b73ffffffffffffffffffffffffffffffffffffffff90911681526060810193926200028b92909160409162000a7e9062001385565b1562001db157565b6040517f08c379a000000000000000000000000000000000000000000000000000000000815260206004820152600660248201527f4645455f544600000000000000000000000000000000000000000000000000006044820152606490fd5b1562001e1857565b6040517f08c379a000000000000000000000000000000000000000000000000000000000815260206004820152600360248201527f46454500000000000000000000000000000000000000000000000000000000006044820152606490fd5b91908203918211620014fa57565b9062001e95620008f58362000896565b918252565b3d1562001eb75762001eac3d62001e85565b903d6000602084013e565b606090565b1562001ec457565b6040517f08c379a000000000000000000000000000000000000000000000000000000000815260206004820152600560248201527f5245464e440000000000000000000000000000000000000000000000000000006044820152606490fd5b1562001f2b57565b6040517f08c379a000000000000000000000000000000000000000000000000000000000815260206004820152600260248201527f54460000000000000000000000000000000000000000000000000000000000006044820152606490fd5b60005b83811062001f9e5750506000910152565b818101518382015260200162001f8d565b62001fd462001fde602093620008d29362001fc8815190565b80835293849260200190565b9586910162001f8a565b601f017fffffffffffffffffffffffffffffffffffffffffffffffffffffffffffffffe01690565b96959394620020786200028b966200207160a0966200206a620020869760208e6200204e60c082019a600083019073ffffffffffffffffffffffffffffffffffffffff169052565b019073ffffffffffffffffffffffffffffffffffffffff169052565b60408c0152565b60608a0152565b878203608089015262001faf565b940152565b600093620020c0620020a1620002c28762000d73565b73ffffffffffffffffffffffffffffffffffffffff8416141562001ae9565b620020d7620020cf8662000720565b841162001b50565b620020ee620020e68662000720565b851162001bb7565b6200210a620021016301e1338062000720565b85111562001c1e565b60036200211b6200177f8462000355565b630dfe168191620021366200212f60405190565b9360e01b90565b8352602083600481855afa928315620018de57620021809360209262002166926000926200244d575b5062000360565b9163d21220a7906200217760405190565b94859260e01b90565b825260049082905afa918215620018de57620021d792620021af926200169f9260009262002428575062000360565b620021d073ffffffffffffffffffffffffffffffffffffffff851662000db0565b1462001c8c565b62002203620021f2620021eb600562001491565b8562001cfa565b620021fc62000c71565b9062001d3d565b928334620022118862000720565b8111156200238f576200223f92906200222d8382101562001e10565b8883821162002359575b505062001e77565b906200224f6200177f8462000355565b946323b872dd60203380986200227a8b6200226a3062000355565b95620022868a62001a7c60405190565b85526004850162001d74565b03925af18015620018de57620022a69160009162002324575b5062001f23565b620022b66200177f600c62000d37565b926344e5550f90843b1562000282578896620022ea948894620022f693620022dd60405190565b9b8c9a8b998a9860e01b90565b88526004880162002006565b03925af18015620018de576200230a575050565b816200028b92903d10620018d657620018c5818362000838565b6200234a915060203d811162002351575b62002341818362000838565b81019062001d5d565b386200229f565b503d62002335565b8062002387926200236c86339262001e77565b60405190818003925af16200238062001e9a565b5062001ebc565b388862002237565b5050620023a06200177f8462000355565b9060206323b872dd9233906200227a8a620023bb3062000355565b96620023d88b620023cb60405190565b998a978896879560e01b90565b03925af1908115620018de57620023ff86926200223f9460009162002405575b5062001da9565b62001e77565b62002421915060203d8111620023515762002341818362000838565b38620023f8565b6200244591925060203d811162001ad35762001aca818362000838565b90386200215f565b62002445919250843d811162001ad35762001aca818362000838565b73ffffffffffffffffffffffffffffffffffffffff90911681526060810193926200028b9290916040916200204e906020830152565b620024af6200177f600c62000d37565b33919063573044e3813b1562000282576000620024d691620024e2829662001a7c60405190565b85526004850162002469565b03925af18015620018de57620024f55750565b6200028b906000620018c5818362000838565b906200251e916200251862002667565b62002556565b6200028b620026c9565b620002879062000720565b9081526060810193926200028b92909160409162000a7e90602083019062002528565b6003620025676200177f8362000355565b630dfe1681916200257b6200212f60405190565b8352602083600481855afa928315620018de57620025aa9360209262002166926000926200244d575062000360565b825260049082905afa918215620018de576200260192620025d9926200169f9260009262002428575062000360565b620025fa73ffffffffffffffffffffffffffffffffffffffff841662000db0565b1462001ae9565b600042926200264a620026357f188ae8c4a730b5b9aa94fe78353d0493b8d62cc6c7f90897da6987a8d42458599462000355565b946200264060405190565b9384938462002533565b0390a2565b906200028b9162002508565b620002db600262000720565b62002673600162001491565b6200267d6200265b565b90811462002692576200028b90600162001529565b6040517f3ee5aeb5000000000000000000000000000000000000000000000000000000008152600490fd5b620002db600162000720565b6200028b620026d7620026bd565b600162001529565b620002db916200169f9173ffffffffffffffffffffffffffffffffffffffff821673ffffffffffffffffffffffffffffffffffffffff821610156200272c5762001699905b600362000360565b90620016999062002724565b73ffffffffffffffffffffffffffffffffffffffff90911681526040810192916200028b916020906200204e565b602090620027743062000355565b6200279863e6a43905620027a46200278b60405190565b9687958694859460e01b90565b84526004840162002738565b03915afa908115620018de5760009162001aad575090565b15620027c457565b6040517f08c379a000000000000000000000000000000000000000000000000000000000815260206004820152601160248201527f4445583a204d414e414745525f4f4e4c590000000000000000000000000000006044820152606490fd5b6200028b9062002863336200283b620002c262000d43565b73ffffffffffffffffffffffffffffffffffffffff82161490811562002869575b50620027bc565b620028fe565b6200287c9150620010d490600b62000360565b386200285c565b156200288b57565b6040517f08c379a000000000000000000000000000000000000000000000000000000000815260206004820152601160248201527f4445583a204645455f544f4f5f484947480000000000000000000000000000006044820152606490fd5b9081526040810192916200028b9160200152565b6200291962002910620002db62000730565b82111562002883565b62002925600562001491565b906200293381600562001529565b7f8d6ad40ad37637106f0ca2d682205c774e73f8cf7789162ce1c0b6ac0791a48490620029603362000355565b926200264a6200296f60405190565b92839283620028ea565b6200028b9062002823565b6200028b906200299c336200283b620002c262000d43565b620029a9816007620013cc565b7f15e19397fdb558931f7e7a6f81ead6c2b575d5553e63ac39db41d1a802e678bc6200264a620029d93362000355565b92620003d760405190565b6200028b9062002984565b906200028b9162002a08336200283b620002c262000d43565b62002a208262002a1a83600862000360565b620013cc565b6200264a620029d97fc176fcf7d48a6aca0d96d3b3201f7add47c4af04ce9a51f5f4eb15d528c46e219262000355565b906200028b91620029ef565b906200028b9162002a6c62000d9e565b62002a7e8262002a1a83600b62000360565b6200264a620029d97fdbb9ed174593e4f785d50b5333b66e44e8ccfb28737fa34896411100a93d100e9262000355565b906200028b9162002a5c565b906200028b9162002ad3336200283b620002c262000d43565b62002ae58262002a1a83600962000360565b6200264a620029d97f6a12b3df6cba4203bd7fd06b816789f87de8c594299aed5717ae070fac781bac9262000355565b906200028b9162002aba565b62002b34336200283b620002c262000d43565b6200028b6200028b62002b9e565b6200028b62002b21565b62002b566200193d565b6200028b62002b6860016002620013cc565b3362002b997f62e78cea01bee320cd4e420270b5ea74000d11b0c9f74754ebdbfc544b05a25891620004de60405190565b0390a1565b6200028b62002b4c565b62002bbb336200283b620002c262000d43565b6200028b6200028b62002c20565b6200028b62002ba8565b62002bdd62002c2a565b6200028b62002bef60006002620013cc565b3362002b997f5db9ee0a495bf2e6ff9c91a7834c1ba4fdd244a5e8aa4e537bd38aeae4b073aa91620004de60405190565b6200028b62002bd3565b62002c386200103c62000f95565b62002c3f57565b6040517f8dfc202b000000000000000000000000000000000000000000000000000000008152600490fd5b62002c7d336200283b620002c262000d43565b6200028b62002d55565b1562002c8f57565b6040517f08c379a000000000000000000000000000000000000000000000000000000000815260206004820152600c60248201527f4445583a204e4f5f4645455300000000000000000000000000000000000000006044820152606490fd5b1562002cf657565b6040517f08c379a000000000000000000000000000000000000000000000000000000000815260206004820152601660248201527f4445583a205749544844524157414c5f4641494c4544000000000000000000006044820152606490fd5b6200028b62002d643062000355565b316000809162002d8062002d788362000720565b821162002c87565b62002d8a62000d43565b9062002d9560405190565b90818003925af162002da662001e9a565b5062002cee565b6200028b62002c6a565b906200028b929162002dc862000d9e565b62002e35565b1562002dd657565b6040517f08c379a000000000000000000000000000000000000000000000000000000000815260206004820152601860248201527f4445583a204554485f5452414e534645525f4641494c454400000000000000006044820152606490fd5b9060009162002e48620002c28462000d73565b73ffffffffffffffffffffffffffffffffffffffff82160362002e8f575081906200028b9362002e7760405190565b90818003925af162002e8862001e9a565b5062002dce565b6200028b93925062002ea19062000355565b62002ef5565b906200028b929162002db7565b62002ed062002eca620002db9263ffffffff1690565b60e01b90565b7fffffffff000000000000000000000000000000000000000000000000000000001690565b62002f4060049262002f306200028b9562002f1463a9059cbb62002eb4565b9262002f1f60405190565b968794602086019081520162000a53565b6020820181038252038362000838565b90600060209162002f4f600090565b50828151910182855af115620013aa57600080513d62002f736200162e8462000720565b0362002ffb575062002f956200162e62002f8d8462000355565b3b9262000720565b145b62002f9f5750565b62002fae62000e2c9162000355565b6040519182917f5274afe70000000000000000000000000000000000000000000000000000000083526004830173ffffffffffffffffffffffffffffffffffffffff909116815260200190565b90506200300d6200162e600162000720565b141562002f97565b6040517f08c379a000000000000000000000000000000000000000000000000000000000815260206004820152600f60248201527f4e4f545f494d504c454d454e54454400000000000000000000000000000000006044820152606490fdfe6080604052346200002657620000146200009b565b60405161308c6200011c823961308c90f35b600080fd5b906001600160a01b03905b9181191691161790565b620000569062000059906001600160a01b031682565b90565b6001600160a01b031690565b620000569062000040565b620000569062000065565b906200008f62000056620000979262000070565b82546200002b565b9055565b620000a5620000b4565b620000b23360046200007b565b565b620000b2620000b262000105565b6200005662000056620000569290565b620000566001620000c2565b906000199062000036565b90620000fd620000566200009792620000c2565b8254620000de565b620000b262000113620000d2565b6000620000e956fe6080604052600436101561001257600080fd5b60003560e01c8063022c0d9f1461021257806306fdde031461020d5780630902f1ac14610208578063095ea7b3146102035780630dfe1681146101fe57806318160ddd146101f957806323b872dd146101f457806330adf81f146101ef578063313ce567146101ea5780633566414c146101e55780633644e515146101e0578063485cc955146101db5780635909c0d5146101d65780635a3d5493146101d15780635c975abb146101cc5780636a627842146101c757806370a08231146101c25780637174b568146101bd5780637464fc3d146101b85780637ecebe00146101b3578063820d25a8146101ae57806389afcb44146101a957806395d89b41146101a4578063a9059cbb1461019f578063ba9a7a561461019a578063bc25cf7714610195578063be11b1d014610190578063c45a01551461018b578063d21220a714610186578063d505accf14610181578063dd62ed3e1461017c5763fff6cae90361022057610ac0565b610aa4565b610a6b565b6109d4565b6109ad565b610986565b610951565b610936565b6108fa565b6108df565b6108b1565b610881565b610828565b6107fb565b6107e0565b6107b3565b610742565b610713565b6106f8565b6106d1565b6106ac565b61066e565b610653565b6105cf565b610596565b61057a565b61051e565b6104ba565b610455565b6103e2565b6103b7565b6102fd565b805b0361022057565b600080fd5b9050359061023282610217565b565b73ffffffffffffffffffffffffffffffffffffffff1690565b90565b73ffffffffffffffffffffffffffffffffffffffff8116610219565b9050359061023282610250565b909182601f830112156102205781359167ffffffffffffffff831161022057602001926001830284011161022057565b90608082820312610220576102be8183610225565b926102cc8260208501610225565b926102da836040830161026c565b92606082013567ffffffffffffffff8111610220576102f99201610279565b9091565b34610220576103196103103660046102a9565b9392909261253a565b604051005b0390f35b600091031261022057565b60005b8381106103405750506000910152565b8181015183820152602001610330565b61037161037a6020936103a293610365815190565b80835293849260200190565b9586910161032d565b601f017fffffffffffffffffffffffffffffffffffffffffffffffffffffffffffffffe01690565b0190565b602080825261024d92910190610350565b34610220576103c7366004610322565b61031e6103d2612951565b604051918291826103a6565b9052565b34610220576103f2366004610322565b61031e6103fd610e80565b604080516dffffffffffffffffffffffffffff948516815293909216602084015263ffffffff16908201529081906060820190565b91906040838203126102205761024d9061044c818561026c565b93602001610225565b346102205761031e61047161046b366004610432565b906127a1565b60405191829182901515815260200190565b61024d916008021c73ffffffffffffffffffffffffffffffffffffffff1690565b9061024d9154610483565b61024d6001806104a4565b34610220576104ca366004610322565b61031e6104d56104af565b6040519182918273ffffffffffffffffffffffffffffffffffffffff909116815260200190565b61024d916008021c81565b9061024d91546104fc565b61024d60006008610507565b346102205761052e366004610322565b61031e610539610512565b6040515b9182918290815260200190565b90916060828403126102205761024d610563848461026c565b93610571816020860161026c565b93604001610225565b346102205761031e61047161059036600461054a565b91612863565b34610220576105a6366004610322565b61031e7f6e71edae12b1b97f4d1f60370fef10105fa2faae0126114a169c64845d6126c9610539565b34610220576105df366004610322565b61031e6105ea6129a9565b6040519182918260ff909116815260200190565b906020828203126102205761024d91610225565b905b600052602052604060002090565b61024d916008021c5b60ff1690565b9061024d9154610622565b61024d9061064e600b91600092610612565b610631565b346102205761031e6104716106693660046105fe565b61063c565b346102205761067e366004610322565b61031e6105396129b3565b91906040838203126102205761024d906106a3818561026c565b9360200161026c565b34610220576103196106bf366004610689565b90610b74565b61024d60006005610507565b34610220576106e1366004610322565b61031e6105396106c5565b61024d60006006610507565b3461022057610708366004610322565b61031e6105396106ec565b3461022057610723366004610322565b61031e610471610ad8565b906020828203126102205761024d9161026c565b346102205761031e61053961075836600461072e565b611504565b61023461024d61024d9273ffffffffffffffffffffffffffffffffffffffff1690565b61024d9061075d565b61024d90610780565b9061061490610789565b61024d906107ae600791600092610792565b610507565b346102205761031e6105396107c936600461072e565b61079c565b61024d906107ae600a91600092610612565b346102205761031e6105396107f63660046105fe565b6107ce565b346102205761080b366004610322565b61031e610539612f2d565b61024d906107ae600d91600092610792565b346102205761031e61053961083e36600461072e565b610816565b908160209103126102205790565b90916060828403126102205761024d61086a848461026c565b93610878816020860161026c565b93604001610843565b3461022057610319610894366004610851565b91610e75565b9081526040810192916102329160200152565b0152565b34610220576108c96108c436600461072e565b611d20565b9061031e6108d660405190565b9283928361089a565b34610220576108ef366004610322565b61031e6103d2612994565b346102205761031e610471610910366004610432565b90612802565b61024d61024d61024d9290565b61024d6103e8610916565b61024d610923565b3461022057610946366004610322565b61031e61053961092e565b346102205761031961096436600461072e565b612df7565b61024d9061062b565b61024d9054610969565b61024d6009610972565b3461022057610996366004610322565b61031e61047161097c565b61024d600060046104a4565b34610220576109bd366004610322565b61031e6104d56109a1565b61024d600060026104a4565b34610220576109e4366004610322565b61031e6104d56109c8565b60ff8116610219565b90503590610232826109ef565b60e08183031261022057610a19828261026c565b92610a27836020840161026c565b92610a358160408501610225565b92610a438260608301610225565b9261024d610a5484608085016109f8565b93610a628160a08601610225565b9360c001610225565b3461022057610319610a7e366004610a05565b95949094939193612caf565b6107ae61024d92610a9f600c93600094610792565b610792565b346102205761031e610539610aba366004610689565b90610a8a565b3461022057610ad0366004610322565b610319612626565b61024d6001610972565b7f4e487b7100000000000000000000000000000000000000000000000000000000600052604160045260246000fd5b90601f017fffffffffffffffffffffffffffffffffffffffffffffffffffffffffffffffe016810190811067ffffffffffffffff821117610b5157604052565b610ae2565b90610232610b6360405190565b9283610b11565b61024d6020610b56565b61023291600191610b8d610b86610b6a565b9315158452565b610cda565b61024d9060081c610234565b61024d9054610b92565b61023461024d61024d9290565b61024d90610ba8565b15610bc557565b6040517f08c379a000000000000000000000000000000000000000000000000000000000815260206004820152601c60248201527f444558506169723a20414c52454144595f494e495449414c495a4544000000006044820152606490fd5b0390fd5b9074ffffffffffffffffffffffffffffffffffffffff009060081b5b9181191691161790565b90610c5e61024d610c6592610789565b8254610c28565b9055565b9073ffffffffffffffffffffffffffffffffffffffff90610c44565b90610c9561024d610c6592610789565b8254610c69565b9060ff90610c44565b90610cb561024d610c6592151590565b8254610c9c565b61023291610cca9051151590565b90610ca5565b9061023291610cbc565b90610d26610d2d92610d1f610cef6001610b9e565b610d19610cff6102346000610bb5565b9173ffffffffffffffffffffffffffffffffffffffff1690565b14610bbe565b6001610c4e565b6002610c85565b610d38816009610cd0565b610d767fb1102bf8599badf4360419344e57744751c4d685c0864e807454e60f8e6addbc91610d6660405190565b9182918290511515815260200190565b0390a1565b61024d90610234565b61024d9054610d7b565b15610d9557565b6040517f08c379a000000000000000000000000000000000000000000000000000000000815260206004820152601260248201527f444558506169723a20464f5242494444454e00000000000000000000000000006044820152606490fd5b906102329291610e1433610e0e610cff6102346004610d84565b14610d8e565b610e62565b801515610219565b9050359061023282610e19565b91909160208184031261022057610e51610e486020610b56565b93600092610e21565b90830152565b61024d903690610e2e565b90610e6f61023293610e57565b91610cda565b906102329291610df4565b610e88610ee2565b9192909190565b61024d905b6dffffffffffffffffffffffffffff1690565b61024d9054610e8f565b61024d9060701c610e94565b61024d9054610eb1565b61024d9060e01c5b63ffffffff1690565b61024d9054610ec7565b610eec6003610ea7565b90610ef76003610ebd565b9061024d6003610ed8565b90610f1491610f0f611591565b610f1d565b906102326115ea565b9061024d91610f2a61150f565b9061024d91611220565b9050519061023282610217565b906020828203126102205761024d91610f34565b6040513d6000823e3d90fd5b61024d61024d61024d926dffffffffffffffffffffffffffff1690565b7f4e487b7100000000000000000000000000000000000000000000000000000000600052601160045260246000fd5b91908203918211610fba57565b610f7e565b15610fc657565b6040517f08c379a000000000000000000000000000000000000000000000000000000000815260206004820152602260248201527f444558506169723a20494e53554646494349454e545f494e5055545f414d4f5560448201527f4e540000000000000000000000000000000000000000000000000000000000006064820152608490fd5b61024d9081565b61024d905461104b565b610e9461024d61024d9290565b1561107057565b6040517f08c379a000000000000000000000000000000000000000000000000000000000815260206004820152601e60248201527f444558506169723a20494e53554646494349454e545f524553455256455300006044820152606490fd5b9190918083025b928184041490151715610fba57565b7f4e487b7100000000000000000000000000000000000000000000000000000000600052601260045260246000fd5b9061111e565b9190565b908115611129570490565b6110e5565b1561113557565b6040517f08c379a000000000000000000000000000000000000000000000000000000000815260206004820152602660248201527f444558506169723a20494e53554646494349454e545f4c49515549444954595f60448201527f4d494e54454400000000000000000000000000000000000000000000000000006064820152608490fd5b156111c157565b6040517f08c379a000000000000000000000000000000000000000000000000000000000815260206004820152601c60248201527f444558506169723a204c49515549444954595f544f4f5f4c41524745000000006044820152606490fd5b509061122a610ee2565b509061124161123c61123c6001610b9e565b610789565b6370a0823161124f30610789565b602061125a60405190565b80946112668560e01b90565b825273ffffffffffffffffffffffffffffffffffffffff8416600483015260249082905afa9081156114df576112f1936000926114e4575b50602091926112cd6112b661123c61123c6002610d84565b916112c060405190565b9687948593849360e01b90565b835273ffffffffffffffffffffffffffffffffffffffff1660048301526024820190565b03915afa9182156114df576000926114af575b5061131761131184610f61565b82610fad565b61132961132386610f61565b84610fad565b906113346000610916565b811180611498575b61134590610fbf565b61134f6008611052565b6113596000610916565b810361140057506113a59761138061137b61023298979695946113fb946110cf565b6126f5565b9061139361138c610923565b8093610fad565b998a926113a06000610bb5565b61262e565b6113b96113b26000610916565b831161112e565b6113a06113f361024d7fffffffffffffffffffffffffffffffffffffffffffffffffffffffffffffffff6113ed6008611052565b90610fad565b8311156111ba565b6117e6565b8594939261147561146c8361146661145761147b966113fb986114526102329f9e8f90611444611430600061105c565b916dffffffffffffffffffffffffffff1690565b119081611482575b50611069565b6110cf565b6114608b610f61565b90611114565b936110cf565b61146089610f61565b906126e3565b80986113a5565b9050611491611430600061105c565b118f61144c565b506113456114a66000610916565b8311905061133c565b6114d191925060203d81116114d8575b6114c98183610b11565b810190610f41565b9038611304565b503d6114bf565b610f55565b602092506114fe90833d81116114d8576114c98183610b11565b9161129e565b61024d906000610f02565b611517610ad8565b61151d57565b6040517fd93c0665000000000000000000000000000000000000000000000000000000008152600490fd5b61024d6002610916565b907fffffffffffffffffffffffffffffffffffffffffffffffffffffffffffffffff90610c44565b9061158a61024d610c6592610916565b8254611552565b61159b6000611052565b6115a3611548565b9081146115b55761023290600061157a565b6040517f3ee5aeb5000000000000000000000000000000000000000000000000000000008152600490fd5b61024d6001610916565b6102326115f56115e0565b600061157a565b1561160357565b6040517f08c379a000000000000000000000000000000000000000000000000000000000815260206004820152601160248201527f444558506169723a204f564552464c4f570000000000000000000000000000006044820152606490fd5b8115611129570690565b610ecf61024d61024d9290565b63ffffffff908116911690039063ffffffff8211610fba57565b61024d61024d61024d927bffffffffffffffffffffffffffffffffffffffffffffffffffffffff1690565b61024d61024d61024d9263ffffffff1690565b91908201809211610fba57565b906dffffffffffffffffffffffffffff90610c44565b610e9461024d61024d926dffffffffffffffffffffffffffff1690565b9061172161024d610c65926116f4565b82546116de565b907bffffffffffffffffffffffffffff00000000000000000000000000009060701b610c44565b9061175f61024d610c65926116f4565b8254611728565b907fffffffff000000000000000000000000000000000000000000000000000000009060e01b610c44565b610ecf61024d61024d9263ffffffff1690565b906117b461024d610c6592611791565b8254611766565b6103de90610f61565b9160206102329294936117df604082019660008301906117bb565b01906117bb565b6118999161188d611886611892936118a0976118236dffffffffffffffffffffffffffff61181381610f61565b84111590816119b6575b506115fc565b61184361183e42611838640100000000610916565b90611662565b61166c565b976118576118516003610ed8565b8a611679565b9160006118638161166c565b63ffffffff8516119081611992575b8161196f575b506118eb575b50505061105c565b6003611711565b61105c565b600361174f565b60036117a4565b6118aa6003610ea7565b6118b46003610ebd565b7fcf2aa50876cdfbb541206f89af0ee78d44a2abf8d328e37fa4917f982149848a91610d766118e260405190565b928392836117c4565b6119679261192f6119506119218461191c8761194b6119446119356119266119216119609d61191c6119569e612ff7565b613041565b611693565b61192f8b6116be565b906110cf565b61193f6005611052565b6116d1565b600561157a565b612ff7565b916116be565b61193f6006611052565b600661157a565b38808061187e565b611979915061105c565b6dffffffffffffffffffffffffffff8216141538611878565b905061199d8161105c565b6dffffffffffffffffffffffffffff8416141590611872565b6119c09150610f61565b8611153861181d565b906119dc92916119d7611591565b6119e6565b90916102326115ea565b906102f992916119f461150f565b906102f99291611a8b565b15611a0657565b6040517f08c379a000000000000000000000000000000000000000000000000000000000815260206004820152602660248201527f444558506169723a20494e53554646494349454e545f4c49515549444954595f60448201527f4255524e454400000000000000000000000000000000000000000000000000006064820152608490fd5b9291925050611a98610ee2565b509190611aa56001610b9e565b92611ab9611ab36002610d84565b94610789565b91611ac383610789565b926370a0823190611ad330610789565b60405197611ae18460e01b90565b895273ffffffffffffffffffffffffffffffffffffffff821660048a01526020896024818a5afa9889156114df57600099611cfc575b50611b2190610789565b611b2a81610789565b92611b3460405190565b9a611b3f8660e01b90565b8c5273ffffffffffffffffffffffffffffffffffffffff841660048d015260208c602481885afa9b8c156114df5760009c611cdc575b50611b81846007610792565b611b8a90611052565b92611b956008611052565b611ba0819d866110cf565b90611baa91611114565b9b8c9d611bb790866110cf565b90611bc191611114565b92839c83600092611bd184610916565b83118098611bef611bfa9a611bf597611bf594611cca575b506119ff565b8a6126b7565b611d94565b6020611c0560405190565b8097611c118660e01b90565b825273ffffffffffffffffffffffffffffffffffffffff8416600483015260249082905afa9182156114df57611c6996600093611ca6575b506112cd839460209450611c5c60405190565b9889948593849360e01b90565b03915afa9081156114df5761023294600092611c86575b506117e6565b611c9f91925060203d81116114d8576114c98183610b11565b9038611c80565b60209350611cc36112cd91853d81116114d8576114c98183610b11565b9350611c49565b611cd49150610916565b8a1138611be9565b611cf5919c5060203d81116114d8576114c98183610b11565b9a38611b75565b611b21919950611d199060203d81116114d8576114c98183610b11565b9890611b17565b6102f9906000806119c9565b611d45611d3f61024d9263ffffffff1690565b60e01b90565b7fffffffff000000000000000000000000000000000000000000000000000000001690565b73ffffffffffffffffffffffffffffffffffffffff90911681526040810192916102329160200152565b611dd7600492611dc861023295611dae63a9059cbb611d2c565b92611db860405190565b9687946020860190815201611d6a565b60208201810382520383610b11565b906000602091611de5600090565b50828151910182855af115610f5557600080513d611e0561111a84610916565b03611e835750611e2161111a611e1a84610789565b3b92610916565b145b611e2a5750565b611e36610c2491610789565b6040519182917f5274afe70000000000000000000000000000000000000000000000000000000083526004830173ffffffffffffffffffffffffffffffffffffffff909116815260200190565b9050611e9261111a6001610916565b1415611e23565b90611eae94939291611ea9611591565b611eb6565b6102326115ea565b9061023294939291611ec661150f565b906102329493929161210c565b15611eda57565b6040517f08c379a000000000000000000000000000000000000000000000000000000000815260206004820152602360248201527f444558506169723a20494e53554646494349454e545f4f55545055545f414d4f60448201527f554e5400000000000000000000000000000000000000000000000000000000006064820152608490fd5b15611f6657565b6040517f08c379a000000000000000000000000000000000000000000000000000000000815260206004820152601f60248201527f444558506169723a20494e53554646494349454e545f4c4951554944495459006044820152606490fd5b15611fcc57565b6040517f08c379a000000000000000000000000000000000000000000000000000000000815260206004820152601360248201527f444558506169723a20494e56414c49445f544f000000000000000000000000006044820152606490fd5b90826000939282370152565b919061037a8161204e816103a29560209181520190565b809561202b565b90939161024d95936120926120999261208b6080860198600087019073ffffffffffffffffffffffffffffffffffffffff169052565b6020850152565b6040830152565b6060818503910152612037565b156120ad57565b6040517f08c379a000000000000000000000000000000000000000000000000000000000815260206004820152600a60248201527f444558506169723a204b000000000000000000000000000000000000000000006044820152606490fd5b93929192600061211b81610916565b861191828315612524575b61212f90611ed3565b612137610ee2565b5096909561214487610f61565b89108061250e575b61215590611f5f565b61215f6001610b9e565b9161216a6002610d84565b9573ffffffffffffffffffffffffffffffffffffffff841673ffffffffffffffffffffffffffffffffffffffff83161415806124eb575b6121aa90611fc5565b6124d8575b6121b885610916565b87116124c5575b836121cc61111a87610916565b1161242f575b50506121e2915061123c90610789565b956370a082316121f130610789565b9060206121fd60405190565b809a6122098460e01b90565b825273ffffffffffffffffffffffffffffffffffffffff8516600483015260249082905afa9485156114df5761226c996000966123fd575b50906112cd61225561123c60209594610789565b9161225f60405190565b9b8c948593849360e01b90565b03915afa9384156114df57858792610232996000976123c5575b50926123166113fb959361192f9361235c96826122ae61024d836122a986610f61565b610fad565b8b11156123af576122a96122d46122ce61024d946122a96122da97610f61565b8d610fad565b96610f61565b6000908a111561239f57506122f56122fb916122a98d610f61565b89610fad565b935b61230681610916565b831190811561238d575b50610fbf565b6113ed6103e89361192f61235661235061234a61233b6123358a610916565b8d6110cf565b6113ed60039861192f8a610916565b97610916565b8b6110cf565b93610916565b61238661111a61024d61237a61237189610f61565b61192f8b610f61565b61192f620f4240610916565b10156120a6565b6123979150610916565b841138612310565b6123a99150610916565b936122fd565b6122da925061024d91506122a96122d489610916565b61235c949197506113fb959361192f936123ef6123169360203d81116114d8576114c98183610b11565b999396509350939550612286565b6020939291965061225561123c6124236112cd93873d81116114d8576114c98183610b11565b98939495505050612241565b61123c61243b91610789565b9063bea9cf36913391813b15610220578680946124798e9861246e948d61246160405190565b9b8c998a98899760e01b90565b875260048701612055565b03925af19081156114df576121e29261123c92612499575b8192506121d2565b6124b890853d87116124be575b6124b08183610b11565b810190610322565b38612491565b503d6124a6565b6124d38782611bf589610789565b6121bf565b6124e68a82611bf586610789565b6121af565b5073ffffffffffffffffffffffffffffffffffffffff82811690881614156121a1565b5061215561251b89610f61565b8710905061214c565b5061212f61253183610916565b85119050612126565b9061023294939291611e99565b61254f611591565b611eae61256261123c61123c6001610b9e565b6370a0823161257030610789565b602061257b60405190565b80946125878560e01b90565b825273ffffffffffffffffffffffffffffffffffffffff8416600483015260249082905afa9081156114df576125d6936000926114e45750602091926112cd6112b661123c61123c6002610d84565b03915afa80156114df5761023292600091612608575b506125f76003610ea7565b906126026003610ebd565b926117e6565b612620915060203d81116114d8576114c98183610b11565b386125ec565b610232612547565b906126b16126a76102329361266161264a8561193f6008611052565b61265a61111a61024d6008611052565b10156115fc565b600761268f61267c8661193f6126778686610792565b611052565b61265a61111a61024d6126778787610792565b610a9f6126a08661193f6008611052565b600861157a565b9161193f83611052565b9061157a565b610232916126d96126cc6126a0936007610792565b6126b1836122a983611052565b6122a96008611052565b90808210156126f0575090565b905090565b9060006127026003610916565b831115612780575061273782600261272261271c82610916565b83611114565b91600193849361273185610916565b906116d1565b935b612744575b50505050565b9091929461274f8190565b86101561277a57506127716127688661193f8185611114565b61146084610916565b92919082612739565b9461273e565b9161278e61111a6000610916565b0361279557565b905061024d6001610916565b336127ba836127b584610a9f85600c610792565b61157a565b6127fa6127f06127ea7f8c5be1e5ebec7d5bd14f71427d1e84f3dd0314c0f7b2291e5b200ac8c7c3b92593610789565b93610789565b9361053d60405190565b0390a3600190565b33612833612826836007610a9f6128198683610792565b6126b1896122a983611052565b6126b18561193f83611052565b6127fa6127f06127ea7fddf252ad1be2c89b69c2b068fc378daa952ba7f163c4a11628f55a4df523b3ef93610789565b600c816128708183610792565b61287e612677338093610792565b60010161289f575b505050612833612826836007610a9f6128198683610792565b610a9f6128af926128bc94610792565b6126b1856122a983611052565b388181612886565b67ffffffffffffffff8111610b5157602090601f017fffffffffffffffffffffffffffffffffffffffffffffffffffffffffffffffe0160190565b9061291161290c836128c4565b610b56565b918252565b612920600c6128ff565b7f444558204c5020546f6b656e0000000000000000000000000000000000000000602082015290565b61024d612916565b61024d612949565b61296360026128ff565b7f4c50000000000000000000000000000000000000000000000000000000000000602082015290565b61024d612959565b61024d61298c565b61062b61024d61024d9290565b61024d601261299c565b61024d612a4b565b6129c560016128ff565b7f3100000000000000000000000000000000000000000000000000000000000000602082015290565b61024d6129bb565b9095949261023294612a28612a2f92612a21608096612a1a60a088019c6000890152565b6020870152565b6040850152565b6060830152565b019073ffffffffffffffffffffffffffffffffffffffff169052565b7f8b73c3c69bb8fe3d512ecc4cf759cc79239f7b179b0ffacaa9a75d522b39400f612ad0612a77612949565b612a89612a82825190565b9160200190565b20612a926129ee565b612a9d612a82825190565b2092612ac446612aac30610789565b90612ab660405190565b9687956020870195866129f6565b90810382520382610b11565b612adb612a82825190565b2090565b15612ae657565b6040517f08c379a000000000000000000000000000000000000000000000000000000000815260206004820152601060248201527f444558506169723a2045585049524544000000000000000000000000000000006044820152606490fd5b7fffffffffffffffffffffffffffffffffffffffffffffffffffffffffffffffff8114610fba5760010190565b9194612bdb6108ad92989795612bd460a096612bb76102329a612b9a60c08a019e60008b0152565b73ffffffffffffffffffffffffffffffffffffffff166020890152565b73ffffffffffffffffffffffffffffffffffffffff166040870152565b6060850152565b6080830152565b6020809392612c1a6129116103a2947f1901000000000000000000000000000000000000000000000000000000000000815260020190565b01918252565b6108ad61023294612092606094989795612c3f608086019a6000870152565b60ff166020850152565b15612c5057565b6040517f08c379a000000000000000000000000000000000000000000000000000000000815260206004820152601a60248201527f444558506169723a20494e56414c49445f5349474e41545552450000000000006044820152606490fd5b939094612d758397612ac4612d5689612d328a600099612ac460209c612cdd612cd54290565b821015612adf565b7f6e71edae12b1b97f4d1f60370fef10105fa2faae0126114a169c64845d6126c992612d0a85600d610792565b90612d21612d1783611052565b926126b184612b45565b604051978896602088019687612b72565b612d3d612a82825190565b20612d46612a4b565b6040519384928b84019283612be2565b612d61612a82825190565b2092612d6c60405190565b94859485612c20565b838052039060015afa156114df57600051612daf90612da973ffffffffffffffffffffffffffffffffffffffff8416610cff565b14612c49565b612dc2836127b584610a9f85600c610792565b612df26127f06127ea7f8c5be1e5ebec7d5bd14f71427d1e84f3dd0314c0f7b2291e5b200ac8c7c3b92593610789565b0390a3565b612e016001610b9e565b612e14612e0e6002610d84565b91610789565b91612e1e83610789565b926370a0823192612e2e30610789565b906020612e3a60405190565b8097612e468860e01b90565b825273ffffffffffffffffffffffffffffffffffffffff8516600483015260249082905afa9081156114df5761123c60209486612e9f612ea595612ec99b600091612f10575b506113ed612e9a6003610ea7565b610f61565b91611d94565b936112cd612eb286610789565b91612ebc60405190565b9788948593849360e01b90565b03915afa9283156114df5761023293612e9f91600091612ef2575b506113ed612e9a6003610ebd565b612f0a915060203d81116114d8576114c98183610b11565b38612ee4565b612f279150893d81116114d8576114c98183610b11565b38612e8c565b61024d612f3d612e9a6003610ea7565b61192f612e9a6003610ebd565b612f6761024d61024d926dffffffffffffffffffffffffffff1690565b7bffffffffffffffffffffffffffffffffffffffffffffffffffffffff1690565b612f6761024d61024d9290565b61024d6e010000000000000000000000000000612f88565b7bffffffffffffffffffffffffffffffffffffffffffffffffffffffff908116929116917bffffffffffffffffffffffffffffffffffffffffffffffffffffffff818402166110d6565b61300c61024d91613006600090565b50612f4a565b613014612f95565b90612fad565b7bffffffffffffffffffffffffffffffffffffffffffffffffffffffff908116911661111e565b61305061024d92613006600090565b9061301a56fea2646970667358221220f97c6b03d65fa8a1506faf19a15a9d4f78db4f4f2bacd67ae49e023b274442a664736f6c63430008140033a26469706673582212206d1d9550b45eb5b36d7ef519cc435425ad50c10627d92f641a4f629568a9e3fc64736f6c63430008140033",
  "linkReferences": {},
  "deployedLinkReferences": {}
}