{
  "_format": "hh-sol-artifact-1",
  "contractName": "DEXFactory",
  "sourceName": "contracts/DEXFactory.sol",
  "abi": [
    {
      "inputs": [],
      "stateMutability": "nonpayable",
      "type": "constructor"
    },
    {
      "inputs": [],
      "name": "EnforcedPause",
      "type": "error"
    },
    {
      "inputs": [],
      "name": "ExpectedPause",
      "type": "error"
    },
    {
      "inputs": [
        {
          "internalType": "address",
          "name": "owner",
          "type": "address"
        }
      ],
      "name": "OwnableInvalidOwner",
      "type": "error"
    },
    {
      "inputs": [
        {
          "internalType": "address",
          "name": "account",
          "type": "address"
        }
      ],
      "name": "OwnableUnauthorizedAccount",
      "type": "error"
    },
    {
      "inputs": [],
      "name": "ReentrancyGuardReentrantCall",
      "type": "error"
    },
    {
      "anonymous": false,
      "inputs": [
        {
          "indexed": false,
          "internalType": "uint256",
          "name": "chainId",
          "type": "uint256"
        },
        {
          "indexed": false,
          "internalType": "address",
          "name": "bridgeAddress",
          "type": "address"
        }
      ],
      "name": "BridgeAddressUpdated",
      "type": "event"
    },
    {
      "anonymous": false,
      "inputs": [
        {
          "indexed": false,
          "internalType": "uint256",
          "name": "newFeeRate",
          "type": "uint256"
        }
      ],
      "name": "FeeUpdated",
      "type": "event"
    },
    {
      "anonymous": false,
      "inputs": [
        {
          "indexed": true,
          "internalType": "address",
          "name": "previousOwner",
          "type": "address"
        },
        {
          "indexed": true,
          "internalType": "address",
          "name": "newOwner",
          "type": "address"
        }
      ],
      "name": "OwnershipTransferred",
      "type": "event"
    },
    {
      "anonymous": false,
      "inputs": [
        {
          "indexed": true,
          "internalType": "address",
          "name": "token0",
          "type": "address"
        },
        {
          "indexed": true,
          "internalType": "address",
          "name": "token1",
          "type": "address"
        },
        {
          "indexed": false,
          "internalType": "address",
          "name": "pair",
          "type": "address"
        },
        {
          "indexed": false,
          "internalType": "uint256",
          "name": "allPairsLength",
          "type": "uint256"
        }
      ],
      "name": "PairCreated",
      "type": "event"
    },
    {
      "anonymous": false,
      "inputs": [
        {
          "indexed": false,
          "internalType": "address",
          "name": "account",
          "type": "address"
        }
      ],
      "name": "Paused",
      "type": "event"
    },
    {
      "anonymous": false,
      "inputs": [
        {
          "indexed": false,
          "internalType": "address",
          "name": "account",
          "type": "address"
        }
      ],
      "name": "Unpaused",
      "type": "event"
    },
    {
      "inputs": [
        {
          "internalType": "uint256",
          "name": "",
          "type": "uint256"
        }
      ],
      "name": "allPairs",
      "outputs": [
        {
          "internalType": "address",
          "name": "",
          "type": "address"
        }
      ],
      "stateMutability": "view",
      "type": "function"
    },
    {
      "inputs": [],
      "name": "allPairsLength",
      "outputs": [
        {
          "internalType": "uint256",
          "name": "",
          "type": "uint256"
        }
      ],
      "stateMutability": "view",
      "type": "function"
    },
    {
      "inputs": [
        {
          "internalType": "uint256",
          "name": "",
          "type": "uint256"
        }
      ],
      "name": "bridgeAddresses",
      "outputs": [
        {
          "internalType": "address",
          "name": "",
          "type": "address"
        }
      ],
      "stateMutability": "view",
      "type": "function"
    },
    {
      "inputs": [
        {
          "internalType": "address",
          "name": "tokenA",
          "type": "address"
        },
        {
          "internalType": "address",
          "name": "tokenB",
          "type": "address"
        }
      ],
      "name": "createPair",
      "outputs": [
        {
          "internalType": "address",
          "name": "pair",
          "type": "address"
        }
      ],
      "stateMutability": "nonpayable",
      "type": "function"
    },
    {
      "inputs": [],
      "name": "feeDenominator",
      "outputs": [
        {
          "internalType": "uint256",
          "name": "",
          "type": "uint256"
        }
      ],
      "stateMutability": "view",
      "type": "function"
    },
    {
      "inputs": [],
      "name": "feeRate",
      "outputs": [
        {
          "internalType": "uint256",
          "name": "",
          "type": "uint256"
        }
      ],
      "stateMutability": "view",
      "type": "function"
    },
    {
      "inputs": [
        {
          "internalType": "address",
          "name": "tokenA",
          "type": "address"
        },
        {
          "internalType": "address",
          "name": "tokenB",
          "type": "address"
        }
      ],
      "name": "getPair",
      "outputs": [
        {
          "internalType": "address",
          "name": "pair",
          "type": "address"
        }
      ],
      "stateMutability": "view",
      "type": "function"
    },
    {
      "inputs": [
        {
          "internalType": "address",
          "name": "tokenA",
          "type": "address"
        },
        {
          "internalType": "address",
          "name": "tokenB",
          "type": "address"
        }
      ],
      "name": "getPairAddress",
      "outputs": [
        {
          "internalType": "address",
          "name": "",
          "type": "address"
        }
      ],
      "stateMutability": "view",
      "type": "function"
    },
    {
      "inputs": [],
      "name": "owner",
      "outputs": [
        {
          "internalType": "address",
          "name": "",
          "type": "address"
        }
      ],
      "stateMutability": "view",
      "type": "function"
    },
    {
      "inputs": [
        {
          "internalType": "address",
          "name": "tokenA",
          "type": "address"
        },
        {
          "internalType": "address",
          "name": "tokenB",
          "type": "address"
        }
      ],
      "name": "pairExists",
      "outputs": [
        {
          "internalType": "bool",
          "name": "",
          "type": "bool"
        }
      ],
      "stateMutability": "view",
      "type": "function"
    },
    {
      "inputs": [],
      "name": "pause",
      "outputs": [],
      "stateMutability": "nonpayable",
      "type": "function"
    },
    {
      "inputs": [],
      "name": "paused",
      "outputs": [
        {
          "internalType": "bool",
          "name": "",
          "type": "bool"
        }
      ],
      "stateMutability": "view",
      "type": "function"
    },
    {
      "inputs": [],
      "name": "renounceOwnership",
      "outputs": [],
      "stateMutability": "nonpayable",
      "type": "function"
    },
    {
      "inputs": [
        {
          "internalType": "uint256",
          "name": "chainId",
          "type": "uint256"
        },
        {
          "internalType": "address",
          "name": "bridgeAddress",
          "type": "address"
        }
      ],
      "name": "setBridgeAddress",
      "outputs": [],
      "stateMutability": "nonpayable",
      "type": "function"
    },
    {
      "inputs": [
        {
          "internalType": "uint256",
          "name": "_feeRate",
          "type": "uint256"
        }
      ],
      "name": "setFeeRate",
      "outputs": [],
      "stateMutability": "nonpayable",
      "type": "function"
    },
    {
      "inputs": [
        {
          "internalType": "address",
          "name": "newOwner",
          "type": "address"
        }
      ],
      "name": "transferOwnership",
      "outputs": [],
      "stateMutability": "nonpayable",
      "type": "function"
    },
    {
      "inputs": [],
      "name": "unpause",
      "outputs": [],
      "stateMutability": "nonpayable",
      "type": "function"
    }
  ],
  "bytecode": "0x608080604052346100895733156100735760008054336001600160a01b03198216811783556040519290916001600160a01b0316907f8be0079c531659141344cd1fd0a4f28419497f9722a3daafe3b4186f6b6457e09080a360018055601e600555612710600655612658908161008f8239f35b631e4fbdf760e01b815260006004820152602490fd5b600080fdfe6080604052600436101561001257600080fd5b60003560e01c806306566faa14610122578063180b0d7e1461011d57806319f63b0d146101185780631e3dd18b146101135780633f4ba83a1461010e57806345596e2e14610109578063574f2ba3146101045780635c975abb146100ff57806366a7bc4b146100fa578063715018a6146100f55780638456cb59146100f05780638da5cb5b146100eb578063978bbdb9146100e6578063b4f69a2f146100dc578063c9c65396146100e1578063e6a43905146100dc5763f2fde38b146100d757600080fd5b610740565b6104f4565b610524565b6104d6565b6104ad565b610453565b6103f5565b610381565b61035e565b610340565b6102d1565b610267565b61020c565b6101d8565b6101ba565b610158565b602435906001600160a01b038216820361013d57565b600080fd5b600435906001600160a01b038216820361013d57565b3461013d57604036600319011261013d576101ad610174610127565b61017c6107c8565b600435600052600760205260406000209060018060a01b03166bffffffffffffffffffffffff60a01b825416179055565b005b600091031261013d57565b3461013d57600036600319011261013d576020600654604051908152f35b3461013d57602036600319011261013d576004356000526007602052602060018060a01b0360406000205416604051908152f35b3461013d57602036600319011261013d5760043560045481101561013d5760046000527f8a35acfbc15ff81a39ae7d344fd709f28e8600b4aa8c65c6b64bfe7fe36bd19b01546040516001600160a01b039091168152602090f35b3461013d57600036600319011261013d576102806107c8565b60025460ff8116156102bf5760ff19166002557f5db9ee0a495bf2e6ff9c91a7834c1ba4fdd244a5e8aa4e537bd38aeae4b073aa6020604051338152a1005b604051638dfc202b60e01b8152600490fd5b3461013d57602036600319011261013d576004356102ed6107c8565b6103e881116102fb57600555005b60405162461bcd60e51b815260206004820152601860248201527f444558466163746f72793a204645455f544f4f5f4849474800000000000000006044820152606490fd5b3461013d57600036600319011261013d576020600454604051908152f35b3461013d57600036600319011261013d57602060ff600254166040519015158152f35b3461013d57604036600319011261013d57602061039c610142565b6103e36103a7610127565b6001600160a01b0392839082821681831610156103ef575b166000526003845260406000209060018060a01b0316600052602052604060002090565b54161515604051908152f35b916103bf565b3461013d576000806003193601126104505761040f6107c8565b80546001600160a01b03198116825581906001600160a01b03167f8be0079c531659141344cd1fd0a4f28419497f9722a3daafe3b4186f6b6457e08280a380f35b80fd5b3461013d57600036600319011261013d5761046c6107c8565b6104746109c4565b600160ff1960025416176002557f62e78cea01bee320cd4e420270b5ea74000d11b0c9f74754ebdbfc544b05a2586020604051338152a1005b3461013d57600036600319011261013d576000546040516001600160a01b039091168152602090f35b3461013d57600036600319011261013d576020600554604051908152f35b3461013d57604036600319011261013d57602061050f610142565b61051a6103a7610127565b5416604051908152f35b3461013d57604036600319011261013d5761053d610142565b610545610127565b9061054e6109c4565b6001600160a01b0390828216818316610569818314156107f4565b101561073b57915b61057e8284161515610840565b6105dd6105d76105cb6105be846105a78860018060a01b03166000526003602052604060002090565b9060018060a01b0316600052602052604060002090565b546001600160a01b031690565b6001600160a01b031690565b1561088c565b611c406105ec60208201610929565b9080825260208201906109e38239604051606086811b6bffffffffffffffffffffffff19908116602084019081529186901b1660348301526028825290610634604882610907565b5190209151906000f591821690813b1561013d5760405163485cc95560e01b81526001600160a01b03858116600483015282166024820152916000908390604490829084905af191821561073657610719946105a785936106bd936106f69661071d575b506106dc856106bd836105a78760018060a01b03166000526003602052604060002090565b80546001600160a01b0319166001600160a01b03909216919091179055565b6001600160a01b0316600090815260036020526040902090565b6106ff81610945565b6040516001600160a01b0390911681529081906020820190565b0390f35b8061072a610730926108ee565b806101af565b38610698565b610939565b610571565b3461013d57602036600319011261013d57610759610142565b6107616107c8565b6001600160a01b0390811680156107af57600080546001600160a01b03198116831782559092167f8be0079c531659141344cd1fd0a4f28419497f9722a3daafe3b4186f6b6457e08380a380f35b604051631e4fbdf760e01b815260006004820152602490fd5b6000546001600160a01b031633036107dc57565b60405163118cdaa760e01b8152336004820152602490fd5b156107fb57565b60405162461bcd60e51b815260206004820152601f60248201527f444558466163746f72793a204944454e544943414c5f414444524553534553006044820152606490fd5b1561084757565b60405162461bcd60e51b815260206004820152601860248201527f444558466163746f72793a205a45524f5f4144445245535300000000000000006044820152606490fd5b1561089357565b60405162461bcd60e51b815260206004820152601760248201527f444558466163746f72793a20504149525f4558495354530000000000000000006044820152606490fd5b634e487b7160e01b600052604160045260246000fd5b67ffffffffffffffff811161090257604052565b6108d8565b90601f8019910116810190811067ffffffffffffffff82111761090257604052565b906109376040519283610907565b565b6040513d6000823e3d90fd5b600454680100000000000000008110156109025760018101806004558110156109ae5760046000527f8a35acfbc15ff81a39ae7d344fd709f28e8600b4aa8c65c6b64bfe7fe36bd19b0180546001600160a01b0319166001600160a01b03909216919091179055565b634e487b7160e01b600052603260045260246000fd5b60ff600254166109d057565b60405163d93c066560e01b8152600490fdfe6080806040523461002d576001600055600480546001600160a01b03191633179055611c0d90816100338239f35b600080fdfe6080604052600436101561001257600080fd5b6000803560e01c8063022c0d9f146111d057806306fdde031461118b5780630902f1ac14611132578063095ea7b3146110b95780630dfe16811461108c57806318160ddd1461106e57806323b872dd14610f9257806330adf81f14610f57578063313ce56714610f3b5780633644e51514610f20578063485cc95514610e205780635909c0d514610e025780635a3d549314610de45780635c975abb14610dc15780636a62784214610adc57806370a0823114610aa35780637464fc3d14610a6d5780637ecebe0014610a3457806389afcb441461077957806395d89b411461073a578063a9059cbb146106a9578063ba9a7a561461068c578063bc25cf771461054f578063c45a015514610526578063d21220a7146104fd578063d505accf146102cb578063dd62ed3e1461027c5763fff6cae91461015157600080fd5b3461027957806003193601126102795761016961188f565b6001546040516370a0823160e01b808252306004830152916020916001600160a01b039183908290602490829060081c86165afa91821561026e578391869361023d575b50600254169360246040518096819382523060048301525afa9182156102325784926101fb575b506101f49250600354916001600160701b03808460701c169316916118bf565b6001815580f35b90915082813d831161022b575b61021281836117f9565b81010312610226576101f4915190386101d4565b600080fd5b503d610208565b6040513d86823e3d90fd5b8281939294503d8311610267575b61025581836117f9565b810103126102265782905191386101ad565b503d61024b565b6040513d87823e3d90fd5b80fd5b50346102795760403660031901126102795761029661174c565b60406102a0611762565b9260018060a01b03809316815260096020522091166000526020526020604060002054604051908152f35b50346102795760e0366003190112610279576102e561174c565b6102ed611762565b604435606435906084359360ff85168095036104f9574283106104c15760018060a01b0380911693848752602093600a8552604088209687549760001989146104ad576001890190556040519184878401947f6e71edae12b1b97f4d1f60370fef10105fa2faae0126114a169c64845d6126c98652896040860152169889606085015286608085015260a084015260c083015260c0825260e082019082821067ffffffffffffffff8311176104975786938a936080936040525190206103b1611aa6565b90604051908682019261190160f01b845260228301526042820152604281526103d9816117dd565b519020906040519182528482015260a435604082015260c435606082015282805260015afa1561026e5783908651160361045257907f8c5be1e5ebec7d5bd14f71427d1e84f3dd0314c0f7b2291e5b200ac8c7c3b92591838652600982526040862085600052825280604060002055604051908152a380f35b60405162461bcd60e51b815260048101839052601a60248201527f444558506169723a20494e56414c49445f5349474e41545552450000000000006044820152606490fd5b634e487b7160e01b600052604160045260246000fd5b634e487b7160e01b8a52601160045260248afd5b60405162461bcd60e51b815260206004820152601060248201526f11115614185a5c8e881156141254915160821b6044820152606490fd5b8580fd5b50346102795780600319360112610279576002546040516001600160a01b039091168152602090f35b50346102795780600319360112610279576004546040516001600160a01b039091168152602090f35b5034610279576020806003193601126106885761056a61174c565b6001546002546040516370a0823160e01b80825230600483015290946001600160a01b039283169493909260089190911c168286602481845afa95861561067d57879661064c575b506105d590846105cf6001600160701b039889600354169061181b565b91611a1d565b6040519081523060048201528181602481875afa918215610641578692610611575b50506105cf9061060e9460035460701c169061181b565b80f35b90809250813d831161063a575b61062881836117f9565b810103126102265751836105cf6105f7565b503d61061e565b6040513d88823e3d90fd5b9095508281813d8311610676575b61066481836117f9565b810103126102265751946105d56105b2565b503d61065a565b6040513d89823e3d90fd5b5080fd5b503461027957806003193601126102795760206040516103e88152f35b5034610279576040366003190112610279576106c361174c565b60406024359133845260076020528184206106df84825461181b565b90556001600160a01b03168084526007602052922080546107019083906118b2565b90556040519081527fddf252ad1be2c89b69c2b068fc378daa952ba7f163c4a11628f55a4df523b3ef60203392a3602060405160018152f35b503461027957806003193601126102795761077560405161075a816117c1565b600281526104c560f41b602082015260405191829182611778565b0390f35b5034610279576020806003193601126106885761079461174c565b9061079d61188f565b6107a5611871565b6107c46003546001600160701b0391828216928260701c169160e01c90565b5091909360018060a01b03928360015460081c169360025416604051946370a0823160e01b908187523060048801528587602481845afa96871561026e578597610a05575b50604051978289523060048a01528689602481875afa9889156106415786996109d6575b503086526007875261085f6040872054986108536108588b61085360085494859261183e565b611851565b9b8b61183e565b97891515806109cd575b1561097957916108b089899361089c60249796308c526007875260408c2061089282825461181b565b905560085461181b565b6008556108aa8d8286611a1d565b87611a1d565b604051938480928582523060048301525afa91821561026e579086918693610948575b5060246040518095819382523060048301525afa918215610232578492610912575b509160409761090792600195946118bf565b558351928352820152f35b915092918482813d8311610941575b61092b81836117f9565b81010312610226579051919290919060406108f5565b503d610921565b8281939294503d8311610972575b61096081836117f9565b810103126102265785905191386108d3565b503d610956565b60405162461bcd60e51b815260048101899052602660248201527f444558506169723a20494e53554646494349454e545f4c49515549444954595f60448201526510955493915160d21b6064820152608490fd5b50881515610869565b9098508681813d83116109fe575b6109ee81836117f9565b810103126102265751973861082d565b503d6109e4565b9096508581813d8311610a2d575b610a1d81836117f9565b8101031261022657519538610809565b503d610a13565b5034610279576020366003190112610279576020906040906001600160a01b03610a5c61174c565b168152600a83522054604051908152f35b50346102795780600319360112610279576020610a9b6003546001600160701b03808260701c16911661183e565b604051908152f35b5034610279576020366003190112610279576020906040906001600160a01b03610acb61174c565b168152600783522054604051908152f35b50346102795760208060031936011261068857610af761174c565b610aff61188f565b610b07611871565b610b266003546001600160701b0391828216928260701c169160e01c90565b5090936001918254956040516370a0823160e01b9081815230600482015260249888828b8160018060a01b03809560081c165afa918215610641578692610d92575b50888160025416938b6040518096819382523060048301525afa928315610641578693610d63575b506001600160701b039788851698610ba88a8561181b565b90871690610bb6828761181b565b916008549b8c15600014610d2e57505090610bd09161183e565b876003821115610d21575080808a1c8a8101809111610d0e57905b828210610cf05750505b6103e7198101908111610cdd57986103e890818101809111610cc8576008556000805260078b5260406000208054918201809211610cc857555b8815610c755788999a50610c4a610c6c9798996008546118b2565b60085516600052600789526040600020610c658982546118b2565b90556118bf565b55604051908152f35b60405162461bcd60e51b8152600481018b90526026818d01527f444558506169723a20494e53554646494349454e545f4c49515549444954595f60448201526513525395115160d21b6064820152608490fd5b8c634e487b7160e01b60005260116004526000fd5b634e487b7160e01b885260116004528b88fd5b909150610d0682610d018184611851565b6118b2565b8a1c90610beb565b634e487b7160e01b8a5260116004528d8afd5b9015610bf5575087610bf5565b9b610d46610d4c94959d61085383610853959661183e565b9461183e565b80821015610d5c57505b97610c2f565b9050610d56565b9092508881813d8311610d8b575b610d7b81836117f9565b8101031261022657519138610b90565b503d610d71565b9091508881813d8311610dba575b610daa81836117f9565b8101031261022657519038610b68565b503d610da0565b5034610279578060031936011261027957602060ff600154166040519015158152f35b50346102795780600319360112610279576020600654604051908152f35b50346102795780600319360112610279576020600554604051908152f35b503461027957604036600319011261027957610e3a61174c565b610e42611762565b6004546001600160a01b03929083163303610ee65760015490838260081c16610ea157610100600160a81b031990911660089190911b610100600160a81b031617600155600280546001600160a01b0319169290911691909117905580f35b60405162461bcd60e51b815260206004820152601c60248201527f444558506169723a20414c52454144595f494e495449414c495a4544000000006044820152606490fd5b60405162461bcd60e51b81526020600482015260126024820152712222ac2830b4b91d102327a92124a22222a760711b6044820152606490fd5b50346102795780600319360112610279576020610a9b611aa6565b5034610279578060031936011261027957602060405160128152f35b503461027957806003193601126102795760206040517f6e71edae12b1b97f4d1f60370fef10105fa2faae0126114a169c64845d6126c98152f35b503461027957606036600319011261027957610fac61174c565b90610fb5611762565b7fddf252ad1be2c89b69c2b068fc378daa952ba7f163c4a11628f55a4df523b3ef6044359160018060a01b03809516928385526040602096879360098552828820336000528552600019836000205403611048575b8688526007855282882061101f85825461181b565b9055169586815260078452206110368282546118b2565b9055604051908152a360405160018152f35b868852600985528288203360005285528260002061106785825461181b565b905561100a565b50346102795780600319360112610279576020600854604051908152f35b503461027957806003193601126102795760015460405160089190911c6001600160a01b03168152602090f35b5034610279576040366003190112610279576110d361174c565b906040602435913381526009602052209160018060a01b03169182600052602052806040600020556040519081527f8c5be1e5ebec7d5bd14f71427d1e84f3dd0314c0f7b2291e5b200ac8c7c3b92560203392a3602060405160018152f35b5034610279578060031936011261027957606063ffffffff6111696003546001600160701b0391828216928260701c169160e01c90565b909291604051936001600160701b038092168552166020840152166040820152f35b50346102795780600319360112610279576107756040516111ab816117c1565b600c81526b2222ac102628102a37b5b2b760a11b602082015260405191829182611778565b5034610279576080366003190112610279576001600160a01b039060443582811681036106885760643567ffffffffffffffff811161174857366023820112156117485767ffffffffffffffff816004013511611748573660248260040135830101116117485761123f61188f565b611247611871565b600435158015809161173d575b156116ec576112786003546001600160701b0391828216928260701c169160e01c90565b509390926001600160701b03841660043510806116d8575b15611693578660015460081c169187600254169383898316141580611687575b1561164c5761163a575b602435978861162a575b8260040135611574575b5050506040519586916370a0823160e01b9081845230600485015283602460209a8b935afa92831561067d579088918894611543575b5060246040518096819382523060048301525afa928315610641578693611514575b5061133c6004356001600160701b03861661181b565b82111561150e5761136161135b6004356001600160701b03871661181b565b8361181b565b6001600160701b03861691611376818461181b565b8511156115075761138a611390918461181b565b8561181b565b8115918215836114fe575b156114ae576103e8928386029086820485148715171561149a576003830292830460031417156104ad57906113cf9161181b565b9180860290868204148615171561148657600382029180830460031490151715611486579161140461140a9261141a9461181b565b9061183e565b916001600160701b03861661183e565b90620f4240918281029281840414901517156114725710611440576101f49495506118bf565b60405162461bcd60e51b815260048101879052600a602482015269444558506169723a204b60b01b6044820152606490fd5b634e487b7160e01b87526011600452602487fd5b634e487b7160e01b89526011600452602489fd5b634e487b7160e01b8b52601160045260248bfd5b60405162461bcd60e51b8152600481018b9052602260248201527f444558506169723a20494e53554646494349454e545f494e5055545f414d4f55604482015261139560f21b6064820152608490fd5b5081151561139b565b5086611390565b85611361565b9092508681813d831161153c575b61152c81836117f9565b8101031261022657519138611326565b503d611522565b8281939295503d831161156d575b61155b81836117f9565b81010312610226578790519238611304565b503d611551565b8082163b1561162657918791898360a495604051968780968195635f54e79b60e11b835233600484015260043560248401526044830152608060648301528060040135608483015280600401356024820184840137600401358181018301859052601f01601f19168101030193165af18015610641576115f6575b80806112ce565b67ffffffffffffffff81969296116116125760405293386115ef565b634e487b7160e01b82526041600452602482fd5b8780fd5b611635898387611a1d565b6112c4565b6116476004358285611a1d565b6112ba565b60405162461bcd60e51b8152602060048201526013602482015272444558506169723a20494e56414c49445f544f60681b6044820152606490fd5b508489831614156112b0565b60405162461bcd60e51b815260206004820152601f60248201527f444558506169723a20494e53554646494349454e545f4c4951554944495459006044820152606490fd5b506001600160701b03851660243510611290565b60405162461bcd60e51b815260206004820152602360248201527f444558506169723a20494e53554646494349454e545f4f55545055545f414d4f60448201526215539560ea1b6064820152608490fd5b506024351515611254565b8280fd5b600435906001600160a01b038216820361022657565b602435906001600160a01b038216820361022657565b6020808252825181830181905290939260005b8281106117ad57505060409293506000838284010152601f8019910116010190565b81810186015184820160400152850161178b565b6040810190811067ffffffffffffffff82111761049757604052565b6080810190811067ffffffffffffffff82111761049757604052565b90601f8019910116810190811067ffffffffffffffff82111761049757604052565b9190820391821161182857565b634e487b7160e01b600052601160045260246000fd5b8181029291811591840414171561182857565b811561185b570490565b634e487b7160e01b600052601260045260246000fd5b60ff6001541661187d57565b60405163d93c066560e01b8152600490fd5b6002600054146118a0576002600055565b604051633ee5aeb560e01b8152600490fd5b9190820180921161182857565b916001600160701b03908184111580611a13575b156119da576003549363ffffffff9460e01c8542160391858311611828577fcf2aa50876cdfbb541206f89af0ee78d44a2abf8d328e37fa4917f982149848a96604096859416801515806119cf575b806119c4575b61196b575b505050607093841b600160701b600160e01b031691169081174260e01b6001600160e01b031916176003819055845191825290921c166020820152a1565b6119b9926119b1926001600160e01b039161199b9190611996906119a96119a1878787858789611b8a565b611bb9565b1661183e565b6005546118b2565b600555611b8a565b6006546118b2565b60065538808061192d565b508482161515611928565b508483161515611922565b60405162461bcd60e51b8152602060048201526011602482015270444558506169723a204f564552464c4f5760781b6044820152606490fd5b50818311156118d3565b9160006020916040518381019163a9059cbb60e01b835260018060a01b038096166024830152604482015260448152611a55816117dd565b519082865af115611a9a576000513d611a9157508082163b155b611a77575050565b604051635274afe760e01b81529116600482015260249150fd5b60011415611a6f565b6040513d6000823e3d90fd5b6b2222ac102628102a37b5b2b760a11b6020604051611ac4816117c1565b600c81520152603160f81b6020604051611add816117c1565b60018152015260405160208101907f8b73c3c69bb8fe3d512ecc4cf759cc79239f7b179b0ffacaa9a75d522b39400f82527f03cdc1b3942c53ee9c2070aaa3b60e6c18aae77653867f02fd9cd306602f723660408201527fc89efdaa54c0f20c7adf612882df0950f5a951637e0307cdcb4c672f298b8bc660608201524660808201523060a082015260a0815260c0810181811067ffffffffffffffff8211176104975760405251902090565b600160701b600160e01b03607082901b16906001600160701b0316808204600160701b14901517156118285790565b906001600160701b031690811561185b576001600160e01b0316049056fea2646970667358221220a736efa643460f74cd7bfaf932cb92cfe394ed36a4679ffb07a83a763cc5266f64736f6c63430008140033a264697066735822122045301d32feb3c68f0fd0b8a85f5467496b15824bf8761bc7903ab27f0e71126a64736f6c63430008140033",
  "linkReferences": {},
  "deployedLinkReferences": {}
}