{
  "_format": "hh-sol-artifact-1",
  "contractName": "DEXFactoryV2",
  "sourceName": "contracts/DEXFactoryV2.sol",
  "abi": [
    {
      "inputs": [
        {
          "internalType": "address",
          "name": "_liquidityLocker",
          "type": "address"
        }
      ],
      "stateMutability": "nonpayable",
      "type": "constructor"
    },
    {
      "inputs": [],
      "name": "ApproveFailed",
      "type": "error"
    },
    {
      "inputs": [],
      "name": "Create2Failed",
      "type": "error"
    },
    {
      "inputs": [],
      "name": "FeeTooHigh",
      "type": "error"
    },
    {
      "inputs": [],
      "name": "IdenticalTokens",
      "type": "error"
    },
    {
      "inputs": [],
      "name": "InvalidAmounts",
      "type": "error"
    },
    {
      "inputs": [],
      "name": "InvalidDuration",
      "type": "error"
    },
    {
      "inputs": [],
      "name": "InvalidLocker",
      "type": "error"
    },
    {
      "inputs": [],
      "name": "InvalidPair",
      "type": "error"
    },
    {
      "inputs": [],
      "name": "LockFailed",
      "type": "error"
    },
    {
      "inputs": [],
      "name": "MintFailed",
      "type": "error"
    },
    {
      "inputs": [],
      "name": "NoLocker",
      "type": "error"
    },
    {
      "inputs": [],
      "name": "NoLpBalance",
      "type": "error"
    },
    {
      "inputs": [
        {
          "internalType": "address",
          "name": "owner",
          "type": "address"
        }
      ],
      "name": "OwnableInvalidOwner",
      "type": "error"
    },
    {
      "inputs": [
        {
          "internalType": "address",
          "name": "account",
          "type": "address"
        }
      ],
      "name": "OwnableUnauthorizedAccount",
      "type": "error"
    },
    {
      "inputs": [],
      "name": "PairExists",
      "type": "error"
    },
    {
      "inputs": [],
      "name": "TransferFailed",
      "type": "error"
    },
    {
      "inputs": [],
      "name": "UnlockFailed",
      "type": "error"
    },
    {
      "inputs": [],
      "name": "ZeroAddress",
      "type": "error"
    },
    {
      "anonymous": false,
      "inputs": [
        {
          "indexed": false,
          "internalType": "bool",
          "name": "stopped",
          "type": "bool"
        },
        {
          "indexed": true,
          "internalType": "address",
          "name": "updater",
          "type": "address"
        }
      ],
      "name": "EmergencyStopUpdated",
      "type": "event"
    },
    {
      "anonymous": false,
      "inputs": [
        {
          "indexed": false,
          "internalType": "uint256",
          "name": "oldFee",
          "type": "uint256"
        },
        {
          "indexed": false,
          "internalType": "uint256",
          "name": "newFee",
          "type": "uint256"
        }
      ],
      "name": "FeeRateUpdated",
      "type": "event"
    },
    {
      "anonymous": false,
      "inputs": [
        {
          "indexed": false,
          "internalType": "uint256",
          "name": "oldFee",
          "type": "uint256"
        },
        {
          "indexed": false,
          "internalType": "uint256",
          "name": "newFee",
          "type": "uint256"
        },
        {
          "indexed": true,
          "internalType": "address",
          "name": "updater",
          "type": "address"
        }
      ],
      "name": "FeeUpdated",
      "type": "event"
    },
    {
      "anonymous": false,
      "inputs": [
        {
          "indexed": true,
          "internalType": "address",
          "name": "pair",
          "type": "address"
        },
        {
          "indexed": true,
          "internalType": "address",
          "name": "user",
          "type": "address"
        },
        {
          "indexed": false,
          "internalType": "uint256",
          "name": "amount",
          "type": "uint256"
        },
        {
          "indexed": false,
          "internalType": "uint256",
          "name": "lockDuration",
          "type": "uint256"
        }
      ],
      "name": "InitialLiquidityLocked",
      "type": "event"
    },
    {
      "anonymous": false,
      "inputs": [
        {
          "indexed": true,
          "internalType": "address",
          "name": "pair",
          "type": "address"
        },
        {
          "indexed": true,
          "internalType": "address",
          "name": "owner",
          "type": "address"
        },
        {
          "indexed": false,
          "internalType": "uint256",
          "name": "amount",
          "type": "uint256"
        },
        {
          "indexed": false,
          "internalType": "uint256",
          "name": "unlockTime",
          "type": "uint256"
        },
        {
          "indexed": false,
          "internalType": "string",
          "name": "description",
          "type": "string"
        },
        {
          "indexed": false,
          "internalType": "uint256",
          "name": "lockFee",
          "type": "uint256"
        }
      ],
      "name": "LiquidityLocked",
      "type": "event"
    },
    {
      "anonymous": false,
      "inputs": [
        {
          "indexed": true,
          "internalType": "address",
          "name": "oldLocker",
          "type": "address"
        },
        {
          "indexed": true,
          "internalType": "address",
          "name": "newLocker",
          "type": "address"
        }
      ],
      "name": "LiquidityLockerUpdated",
      "type": "event"
    },
    {
      "anonymous": false,
      "inputs": [
        {
          "indexed": true,
          "internalType": "address",
          "name": "pair",
          "type": "address"
        },
        {
          "indexed": true,
          "internalType": "address",
          "name": "owner",
          "type": "address"
        },
        {
          "indexed": false,
          "internalType": "uint256",
          "name": "amount",
          "type": "uint256"
        },
        {
          "indexed": false,
          "internalType": "uint256",
          "name": "timestamp",
          "type": "uint256"
        }
      ],
      "name": "LiquidityUnlocked",
      "type": "event"
    },
    {
      "anonymous": false,
      "inputs": [
        {
          "indexed": true,
          "internalType": "address",
          "name": "user",
          "type": "address"
        },
        {
          "indexed": false,
          "internalType": "uint256",
          "name": "amount",
          "type": "uint256"
        },
        {
          "indexed": false,
          "internalType": "uint256",
          "name": "timestamp",
          "type": "uint256"
        }
      ],
      "name": "LockFeeCollected",
      "type": "event"
    },
    {
      "anonymous": false,
      "inputs": [
        {
          "indexed": false,
          "internalType": "uint256",
          "name": "oldBasicFee",
          "type": "uint256"
        },
        {
          "indexed": false,
          "internalType": "uint256",
          "name": "newBasicFee",
          "type": "uint256"
        },
        {
          "indexed": false,
          "internalType": "uint256",
          "name": "oldPremiumFee",
          "type": "uint256"
        },
        {
          "indexed": false,
          "internalType": "uint256",
          "name": "newPremiumFee",
          "type": "uint256"
        }
      ],
      "name": "LockFeeUpdated",
      "type": "event"
    },
    {
      "anonymous": false,
      "inputs": [
        {
          "indexed": true,
          "internalType": "address",
          "name": "operator",
          "type": "address"
        },
        {
          "indexed": false,
          "internalType": "bool",
          "name": "authorized",
          "type": "bool"
        }
      ],
      "name": "OperatorAuthorized",
      "type": "event"
    },
    {
      "anonymous": false,
      "inputs": [
        {
          "indexed": true,
          "internalType": "address",
          "name": "previousOwner",
          "type": "address"
        },
        {
          "indexed": true,
          "internalType": "address",
          "name": "newOwner",
          "type": "address"
        }
      ],
      "name": "OwnershipTransferred",
      "type": "event"
    },
    {
      "anonymous": false,
      "inputs": [
        {
          "indexed": true,
          "internalType": "address",
          "name": "token0",
          "type": "address"
        },
        {
          "indexed": true,
          "internalType": "address",
          "name": "token1",
          "type": "address"
        },
        {
          "indexed": false,
          "internalType": "address",
          "name": "pair",
          "type": "address"
        },
        {
          "indexed": false,
          "internalType": "uint256",
          "name": "",
          "type": "uint256"
        }
      ],
      "name": "PairCreated",
      "type": "event"
    },
    {
      "anonymous": false,
      "inputs": [
        {
          "indexed": true,
          "internalType": "address",
          "name": "token0",
          "type": "address"
        },
        {
          "indexed": true,
          "internalType": "address",
          "name": "token1",
          "type": "address"
        },
        {
          "indexed": false,
          "internalType": "address",
          "name": "pair",
          "type": "address"
        },
        {
          "indexed": false,
          "internalType": "uint256",
          "name": "allPairsLength",
          "type": "uint256"
        },
        {
          "indexed": false,
          "internalType": "uint256",
          "name": "timestamp",
          "type": "uint256"
        },
        {
          "components": [
            {
              "internalType": "bool",
              "name": "emergencyStop",
              "type": "bool"
            }
          ],
          "indexed": false,
          "internalType": "struct IDEXFactory.PoolSecurityConfig",
          "name": "securityConfig",
          "type": "tuple"
        }
      ],
      "name": "PairCreated",
      "type": "event"
    },
    {
      "anonymous": false,
      "inputs": [
        {
          "indexed": false,
          "internalType": "uint256",
          "name": "oldShare",
          "type": "uint256"
        },
        {
          "indexed": false,
          "internalType": "uint256",
          "name": "newShare",
          "type": "uint256"
        }
      ],
      "name": "PlatformFeeShareUpdated",
      "type": "event"
    },
    {
      "anonymous": false,
      "inputs": [
        {
          "indexed": true,
          "internalType": "address",
          "name": "pair",
          "type": "address"
        },
        {
          "indexed": false,
          "internalType": "uint256",
          "name": "amount",
          "type": "uint256"
        },
        {
          "indexed": false,
          "internalType": "uint256",
          "name": "platformShare",
          "type": "uint256"
        },
        {
          "indexed": false,
          "internalType": "uint256",
          "name": "timestamp",
          "type": "uint256"
        }
      ],
      "name": "TradingFeeCollected",
      "type": "event"
    },
    {
      "inputs": [],
      "name": "FEE_DENOMINATOR",
      "outputs": [
        {
          "internalType": "uint256",
          "name": "",
          "type": "uint256"
        }
      ],
      "stateMutability": "view",
      "type": "function"
    },
    {
      "inputs": [],
      "name": "MAX_FEE_RATE",
      "outputs": [
        {
          "internalType": "uint256",
          "name": "",
          "type": "uint256"
        }
      ],
      "stateMutability": "view",
      "type": "function"
    },
    {
      "inputs": [
        {
          "internalType": "address",
          "name": "",
          "type": "address"
        },
        {
          "internalType": "address",
          "name": "",
          "type": "address"
        }
      ],
      "name": "_getPair",
      "outputs": [
        {
          "internalType": "address",
          "name": "",
          "type": "address"
        }
      ],
      "stateMutability": "view",
      "type": "function"
    },
    {
      "inputs": [
        {
          "internalType": "uint256",
          "name": "",
          "type": "uint256"
        }
      ],
      "name": "allPairs",
      "outputs": [
        {
          "internalType": "address",
          "name": "",
          "type": "address"
        }
      ],
      "stateMutability": "view",
      "type": "function"
    },
    {
      "inputs": [],
      "name": "allPairsLength",
      "outputs": [
        {
          "internalType": "uint256",
          "name": "",
          "type": "uint256"
        }
      ],
      "stateMutability": "view",
      "type": "function"
    },
    {
      "inputs": [
        {
          "internalType": "address",
          "name": "pair",
          "type": "address"
        },
        {
          "internalType": "uint256",
          "name": "amount",
          "type": "uint256"
        }
      ],
      "name": "collectTradingFees",
      "outputs": [],
      "stateMutability": "nonpayable",
      "type": "function"
    },
    {
      "inputs": [
        {
          "internalType": "address",
          "name": "tokenA",
          "type": "address"
        },
        {
          "internalType": "address",
          "name": "tokenB",
          "type": "address"
        }
      ],
      "name": "createPair",
      "outputs": [
        {
          "internalType": "address",
          "name": "pair",
          "type": "address"
        }
      ],
      "stateMutability": "nonpayable",
      "type": "function"
    },
    {
      "inputs": [
        {
          "internalType": "address",
          "name": "tokenA",
          "type": "address"
        },
        {
          "internalType": "address",
          "name": "tokenB",
          "type": "address"
        },
        {
          "components": [
            {
              "internalType": "bool",
              "name": "emergencyStop",
              "type": "bool"
            }
          ],
          "internalType": "struct IDEXFactory.PoolSecurityConfig",
          "name": "securityConfig",
          "type": "tuple"
        }
      ],
      "name": "createPair",
      "outputs": [
        {
          "internalType": "address",
          "name": "pair",
          "type": "address"
        }
      ],
      "stateMutability": "nonpayable",
      "type": "function"
    },
    {
      "inputs": [
        {
          "internalType": "address",
          "name": "tokenA",
          "type": "address"
        },
        {
          "internalType": "address",
          "name": "tokenB",
          "type": "address"
        },
        {
          "internalType": "uint256",
          "name": "amountA",
          "type": "uint256"
        },
        {
          "internalType": "uint256",
          "name": "amountB",
          "type": "uint256"
        },
        {
          "internalType": "bool",
          "name": "shouldLockLiquidity",
          "type": "bool"
        },
        {
          "internalType": "uint256",
          "name": "lockDuration",
          "type": "uint256"
        },
        {
          "internalType": "string",
          "name": "lockDescription",
          "type": "string"
        }
      ],
      "name": "createPairWithLiquidity",
      "outputs": [
        {
          "internalType": "address",
          "name": "pair",
          "type": "address"
        },
        {
          "internalType": "uint256",
          "name": "liquidity",
          "type": "uint256"
        }
      ],
      "stateMutability": "nonpayable",
      "type": "function"
    },
    {
      "inputs": [
        {
          "internalType": "address",
          "name": "tokenA",
          "type": "address"
        },
        {
          "internalType": "address",
          "name": "tokenB",
          "type": "address"
        },
        {
          "internalType": "uint256",
          "name": "amountA",
          "type": "uint256"
        },
        {
          "internalType": "uint256",
          "name": "amountB",
          "type": "uint256"
        },
        {
          "internalType": "bool",
          "name": "shouldLockLiquidity",
          "type": "bool"
        },
        {
          "internalType": "uint256",
          "name": "lockDuration",
          "type": "uint256"
        },
        {
          "internalType": "string",
          "name": "lockDescription",
          "type": "string"
        },
        {
          "internalType": "uint256",
          "name": "deadlineA",
          "type": "uint256"
        },
        {
          "internalType": "uint8",
          "name": "vA",
          "type": "uint8"
        },
        {
          "internalType": "bytes32",
          "name": "rA",
          "type": "bytes32"
        },
        {
          "internalType": "bytes32",
          "name": "sA",
          "type": "bytes32"
        },
        {
          "internalType": "uint256",
          "name": "deadlineB",
          "type": "uint256"
        },
        {
          "internalType": "uint8",
          "name": "vB",
          "type": "uint8"
        },
        {
          "internalType": "bytes32",
          "name": "rB",
          "type": "bytes32"
        },
        {
          "internalType": "bytes32",
          "name": "sB",
          "type": "bytes32"
        }
      ],
      "name": "createPairWithLiquidityPermit",
      "outputs": [
        {
          "internalType": "address",
          "name": "pair",
          "type": "address"
        },
        {
          "internalType": "uint256",
          "name": "liquidity",
          "type": "uint256"
        }
      ],
      "stateMutability": "nonpayable",
      "type": "function"
    },
    {
      "inputs": [],
      "name": "feeDenominator",
      "outputs": [
        {
          "internalType": "uint256",
          "name": "",
          "type": "uint256"
        }
      ],
      "stateMutability": "pure",
      "type": "function"
    },
    {
      "inputs": [],
      "name": "feeRate",
      "outputs": [
        {
          "internalType": "uint256",
          "name": "",
          "type": "uint256"
        }
      ],
      "stateMutability": "view",
      "type": "function"
    },
    {
      "inputs": [],
      "name": "getFeeDenominator",
      "outputs": [
        {
          "internalType": "uint256",
          "name": "",
          "type": "uint256"
        }
      ],
      "stateMutability": "pure",
      "type": "function"
    },
    {
      "inputs": [],
      "name": "getFeeRate",
      "outputs": [
        {
          "internalType": "uint256",
          "name": "",
          "type": "uint256"
        }
      ],
      "stateMutability": "view",
      "type": "function"
    },
    {
      "inputs": [
        {
          "internalType": "address",
          "name": "tokenA",
          "type": "address"
        },
        {
          "internalType": "address",
          "name": "tokenB",
          "type": "address"
        }
      ],
      "name": "getPair",
      "outputs": [
        {
          "internalType": "address",
          "name": "pair",
          "type": "address"
        }
      ],
      "stateMutability": "view",
      "type": "function"
    },
    {
      "inputs": [
        {
          "internalType": "address",
          "name": "tokenA",
          "type": "address"
        },
        {
          "internalType": "address",
          "name": "tokenB",
          "type": "address"
        }
      ],
      "name": "getPairAddress",
      "outputs": [
        {
          "internalType": "address",
          "name": "",
          "type": "address"
        }
      ],
      "stateMutability": "view",
      "type": "function"
    },
    {
      "inputs": [],
      "name": "liquidityLocker",
      "outputs": [
        {
          "internalType": "address",
          "name": "",
          "type": "address"
        }
      ],
      "stateMutability": "view",
      "type": "function"
    },
    {
      "inputs": [
        {
          "internalType": "address",
          "name": "pair",
          "type": "address"
        },
        {
          "internalType": "address",
          "name": "user",
          "type": "address"
        },
        {
          "internalType": "uint256",
          "name": "lockDuration",
          "type": "uint256"
        },
        {
          "internalType": "string",
          "name": "description",
          "type": "string"
        }
      ],
      "name": "lockInitialLiquidity",
      "outputs": [],
      "stateMutability": "nonpayable",
      "type": "function"
    },
    {
      "inputs": [
        {
          "internalType": "address",
          "name": "pair",
          "type": "address"
        },
        {
          "internalType": "address",
          "name": "user",
          "type": "address"
        },
        {
          "internalType": "uint256",
          "name": "amount",
          "type": "uint256"
        },
        {
          "internalType": "uint256",
          "name": "lockDuration",
          "type": "uint256"
        },
        {
          "internalType": "string",
          "name": "description",
          "type": "string"
        },
        {
          "internalType": "uint256",
          "name": "lockFee",
          "type": "uint256"
        }
      ],
      "name": "lockLiquidity",
      "outputs": [],
      "stateMutability": "nonpayable",
      "type": "function"
    },
    {
      "inputs": [
        {
          "internalType": "address",
          "name": "pair",
          "type": "address"
        },
        {
          "internalType": "uint256",
          "name": "amount",
          "type": "uint256"
        },
        {
          "internalType": "uint256",
          "name": "lockDuration",
          "type": "uint256"
        },
        {
          "internalType": "string",
          "name": "description",
          "type": "string"
        }
      ],
      "name": "lockLiquidity",
      "outputs": [],
      "stateMutability": "payable",
      "type": "function"
    },
    {
      "inputs": [],
      "name": "owner",
      "outputs": [
        {
          "internalType": "address",
          "name": "",
          "type": "address"
        }
      ],
      "stateMutability": "view",
      "type": "function"
    },
    {
      "inputs": [],
      "name": "pause",
      "outputs": [],
      "stateMutability": "nonpayable",
      "type": "function"
    },
    {
      "inputs": [],
      "name": "renounceOwnership",
      "outputs": [],
      "stateMutability": "nonpayable",
      "type": "function"
    },
    {
      "inputs": [
        {
          "internalType": "address",
          "name": "operator",
          "type": "address"
        },
        {
          "internalType": "bool",
          "name": "authorized",
          "type": "bool"
        }
      ],
      "name": "setAuthorizedOperator",
      "outputs": [],
      "stateMutability": "nonpayable",
      "type": "function"
    },
    {
      "inputs": [
        {
          "internalType": "bool",
          "name": "stopped",
          "type": "bool"
        }
      ],
      "name": "setEmergencyStop",
      "outputs": [],
      "stateMutability": "nonpayable",
      "type": "function"
    },
    {
      "inputs": [
        {
          "internalType": "uint256",
          "name": "newFeeRate",
          "type": "uint256"
        }
      ],
      "name": "setFeeRate",
      "outputs": [],
      "stateMutability": "nonpayable",
      "type": "function"
    },
    {
      "inputs": [
        {
          "internalType": "address",
          "name": "_liquidityLocker",
          "type": "address"
        }
      ],
      "name": "setLiquidityLocker",
      "outputs": [],
      "stateMutability": "nonpayable",
      "type": "function"
    },
    {
      "inputs": [],
      "name": "totalPairsCreated",
      "outputs": [
        {
          "internalType": "uint256",
          "name": "",
          "type": "uint256"
        }
      ],
      "stateMutability": "view",
      "type": "function"
    },
    {
      "inputs": [
        {
          "internalType": "address",
          "name": "newOwner",
          "type": "address"
        }
      ],
      "name": "transferOwnership",
      "outputs": [],
      "stateMutability": "nonpayable",
      "type": "function"
    },
    {
      "inputs": [
        {
          "internalType": "address",
          "name": "pair",
          "type": "address"
        },
        {
          "internalType": "uint256",
          "name": "lockIndex",
          "type": "uint256"
        },
        {
          "internalType": "address",
          "name": "user",
          "type": "address"
        }
      ],
      "name": "unlockLiquidity",
      "outputs": [],
      "stateMutability": "nonpayable",
      "type": "function"
    },
    {
      "inputs": [
        {
          "internalType": "address",
          "name": "pair",
          "type": "address"
        },
        {
          "internalType": "uint256",
          "name": "lockIndex",
          "type": "uint256"
        }
      ],
      "name": "unlockLiquidity",
      "outputs": [],
      "stateMutability": "nonpayable",
      "type": "function"
    },
    {
      "inputs": [],
      "name": "unpause",
      "outputs": [],
      "stateMutability": "nonpayable",
      "type": "function"
    },
    {
      "inputs": [
        {
          "internalType": "uint256",
          "name": "newFeeRate",
          "type": "uint256"
        }
      ],
      "name": "updateFeeRate",
      "outputs": [],
      "stateMutability": "nonpayable",
      "type": "function"
    },
    {
      "inputs": [],
      "name": "withdrawFees",
      "outputs": [],
      "stateMutability": "nonpayable",
      "type": "function"
    }
  ],
  "bytecode": "0x60806040523462000030576200001e62000018620000d3565b620001a9565b604051615a80620002ea8239615a8090f35b600080fd5b634e487b7160e01b600052604160045260246000fd5b90601f01601f191681019081106001600160401b038211176200006d57604052565b62000035565b906200008a6200008260405190565b92836200004b565b565b6001600160a01b031690565b90565b6001600160a01b038116036200003057565b905051906200008a826200009b565b9060208282031262000030576200009891620000ad565b6200009862005d6a80380380620000ea8162000073565b928339810190620000bc565b90600019905b9181191691161790565b6200009862000098620000989290565b906200012a62000098620001329262000106565b8254620000f6565b9055565b6200008c62000098620000989290565b620000989062000136565b906001600160a01b0390620000fc565b62000098906200008c906001600160a01b031682565b620000989062000161565b620000989062000177565b90620001a162000098620001329262000182565b825462000151565b620001b43362000218565b620001c2601e600562000116565b620001d26200008c600062000146565b6001600160a01b03821614620001ef576200008a9060046200018d565b60405163ab54b81360e01b8152600490fd5b0390fd5b6001600160a01b03909116815260200190565b62000224600062000146565b6001600160a01b0381166001600160a01b038316146200024a57506200008a9062000287565b62000201906200025960405190565b631e4fbdf760e01b81529182916004830162000205565b62000098906200008c565b62000098905462000270565b6200029360006200027b565b90620002a18160006200018d565b620002d8620002d17f8be0079c531659141344cd1fd0a4f28419497f9722a3daafe3b4186f6b6457e09362000182565b9162000182565b91620002e360405190565b600090a356fe608060405260043610156200001357600080fd5b60003560e01c806308dfe05f1462000258578063180b0d7e14620001b65780631e3dd18b14620002525780633f4ba83a146200021657806344e5550f146200024c57806345596e2e1462000246578063476343ee14620002165780634bfc2e0b1462000240578063573044e3146200023a578063574f2ba314620002345780636d49dfc3146200022e578063715018a61462000228578063788f737d14620002225780637b84fda5146200021c5780638456cb59146200021657806384e5eed014620002105780638da5cb5b146200020a57806390c833f4146200020457806392f6576e14620001fe5780639759164a14620001f8578063978bbdb914620001f2578063a293e03c14620001ec578063ac44962914620001e6578063b2094a1014620001e0578063b4f69a2f14620001c2578063be8796c114620001da578063c73d7c7b14620001d4578063c9c6539614620001ce578063ce3b527314620001c8578063d73792a914620001b6578063e6a4390514620001c2578063f2fde38b14620001bc578063f4e1fc4114620001b65763ff255efb036200029a5762000dab565b620005bf565b62000d80565b62000c79565b62000d47565b62000cdf565b62000ccc565b62000c9b565b62000c5c565b62000c21565b62000b80565b62000b37565b62000aef565b62000ac0565b62000a77565b620009b3565b62000992565b62000708565b62000975565b6200095b565b62000916565b620008f5565b6200087a565b6200085c565b6200080b565b620007c6565b6200079d565b620006c0565b62000566565b73ffffffffffffffffffffffffffffffffffffffff1690565b90565b73ffffffffffffffffffffffffffffffffffffffff81165b036200029a57565b600080fd5b90503590620002ae826200027a565b565b8062000292565b90503590620002ae82620002b0565b80151562000292565b90503590620002ae82620002c6565b7f4e487b7100000000000000000000000000000000000000000000000000000000600052604160045260246000fd5b90601f017fffffffffffffffffffffffffffffffffffffffffffffffffffffffffffffffe016810190811067ffffffffffffffff8211176200034e57604052565b620002de565b90620002ae6200036360405190565b92836200030d565b67ffffffffffffffff81116200034e57602090601f017fffffffffffffffffffffffffffffffffffffffffffffffffffffffffffffffe0160190565b0190565b90826000939282370152565b90929192620003d0620003ca826200036b565b62000354565b938185526020850190828401116200029a57620002ae92620003ab565b9080601f830112156200029a578160206200027793359101620003b7565b60ff811662000292565b90503590620002ae826200040b565b90916101e0828403126200029a576200043e83836200029f565b926200044e81602085016200029f565b926200045e8260408301620002b7565b926200046e8360608401620002b7565b926200047e8160808501620002cf565b926200048e8260a08301620002b7565b9260c082013567ffffffffffffffff81116200029a5783620004b2918401620003ed565b92620004c28160e08501620002b7565b92620004d382610100830162000415565b92620004e4836101208401620002b7565b92620004f5816101408501620002b7565b9262000506826101608301620002b7565b92620002776200051b84610180850162000415565b936200052c816101a08601620002b7565b936101c001620002b7565b9052565b73ffffffffffffffffffffffffffffffffffffffff9091168152604081019291620002ae9160200152565b346200029a57620005966200057d36600462000424565b9d9c909c9b919b9a929a99939998949897959762001e0c565b90620005af620005a560405190565b928392836200053b565b0390f35b60009103126200029a57565b346200029a57620005d2366004620005b3565b620005af620005e062000d76565b6040519182918290815260200190565b906020828203126200029a576200027791620002b7565b7f4e487b7100000000000000000000000000000000000000000000000000000000600052603260045260246000fd5b80548210156200065b5762000652600191600052602060002090565b91020190600090565b62000607565b62000277916008021c73ffffffffffffffffffffffffffffffffffffffff1690565b9062000277915462000661565b600260006200069d825490565b831015620006bd57506200027791620006b69162000636565b9062000683565b80fd5b346200029a57620005af620006e1620006db366004620005f0565b62000690565b6040519182918273ffffffffffffffffffffffffffffffffffffffff909116815260200190565b346200029a576200071b366004620005b3565b62002933565b909160c0828403126200029a576200073a83836200029f565b926200074a81602085016200029f565b926200075a8260408301620002b7565b926200076a8360608401620002b7565b9260808301359067ffffffffffffffff82116200029a57620007938162000277938601620003ed565b9360a001620002b7565b346200029a57620007c1620007b436600462000721565b949390939291926200233d565b604051005b346200029a57620007c1620007dd366004620005f0565b6200288e565b91906040838203126200029a5762000277906200080181856200029f565b93602001620002b7565b346200029a576200081e366004620007e3565b90620028d4565b90916060828403126200029a57620002776200084284846200029f565b93620008528160208601620002b7565b936040016200029f565b346200029a57620007c16200087336600462000825565b91620026ba565b346200029a576200088d366004620005b3565b620005af620005e060025490565b906080828203126200029a57620008b381836200029f565b92620008c382602085016200029f565b92620008d38360408301620002b7565b92606082013567ffffffffffffffff81116200029a57620002779201620003ed565b346200029a57620007c16200090c3660046200089b565b929190916200247e565b346200029a5762000929366004620005b3565b620007c162000e34565b91906040838203126200029a5762000277906200095181856200029f565b93602001620002cf565b346200029a576200096e36600462000933565b9062002933565b346200029a57620007c16200098c366004620005f0565b620028bf565b346200029a57620009a5366004620005b3565b620005af620005e062002899565b346200029a57620009c6366004620005b3565b620005af620006e162000de3565b91906040838203126200029a576200027790620009f281856200029f565b936020016200029f565b6200025e62000277620002779273ffffffffffffffffffffffffffffffffffffffff1690565b6200027790620009fc565b620002779062000a22565b9062000a449062000a2d565b600052602052604060002090565b62000a71620002779262000a6b60019360009462000a38565b62000a38565b62000683565b346200029a57620005af620006e162000a92366004620009d4565b9062000a52565b6200027762000277620002779290565b620002776103e862000a99565b6200027762000aa9565b346200029a5762000ad3366004620005b3565b620005af620005e062000ab6565b620002776000600462000683565b346200029a5762000b02366004620005b3565b620005af620006e162000ae1565b62000277916008021c81565b9062000277915462000b10565b620002776000600562000b1c565b346200029a5762000b4a366004620005b3565b620005af620005e062000b29565b906080828203126200029a5762000b7081836200029f565b92620008c38260208501620002b7565b62000b8d36600462000b58565b92919091620029d8565b9060e0828203126200029a5762000baf81836200029f565b9262000bbf82602085016200029f565b9262000bcf8360408301620002b7565b9262000bdf8160608401620002b7565b9262000bef8260808501620002cf565b9262000bff8360a08301620002b7565b9260c082013567ffffffffffffffff81116200029a57620002779201620003ed565b346200029a576200059662000c3836600462000b97565b9594909493919362001641565b906020828203126200029a5762000277916200029f565b346200029a57620007c162000c7336600462000c45565b620027e5565b346200029a57620005af620006e162000c94366004620009d4565b90620022e4565b346200029a5762000cae366004620007e3565b9062002a37565b906020828203126200029a576200027791620002cf565b346200029a576200071b36600462000cb5565b346200029a57620005af620006e162000cfa366004620009d4565b9062001035565b908160209103126200029a5790565b90916060828403126200029a576200027762000d2d84846200029f565b9362000d3d81602086016200029f565b9360400162000d01565b346200029a57620005af620006e162000d6236600462000d10565b916200295f565b6200027761271062000a99565b6200027762000d69565b346200029a57620007c162000d9736600462000c45565b62000f84565b620002776000600362000b1c565b346200029a5762000dbe366004620005b3565b620005af620005e062000d9d565b62000277906200025e565b62000277905462000dcc565b62000277600062000dd7565b62000df962000e3e565b620002ae62000e1e565b6200025e62000277620002779290565b620002779062000e03565b620002ae62000e2e600062000e13565b62000fd1565b620002ae62000def565b62000e4862000de3565b339062000e6a825b9173ffffffffffffffffffffffffffffffffffffffff1690565b0362000e735750565b62000ecc9062000e8260405190565b9182917f118cdaa70000000000000000000000000000000000000000000000000000000083526004830173ffffffffffffffffffffffffffffffffffffffff909116815260200190565b0390fd5b620002ae9062000edf62000e3e565b62000eeb600062000e13565b73ffffffffffffffffffffffffffffffffffffffff811673ffffffffffffffffffffffffffffffffffffffff83161462000f2b5750620002ae9062000fd1565b62000ecc9062000f3a60405190565b9182917f1e4fbdf70000000000000000000000000000000000000000000000000000000083526004830173ffffffffffffffffffffffffffffffffffffffff909116815260200190565b620002ae9062000ed0565b9073ffffffffffffffffffffffffffffffffffffffff905b9181191691161790565b9062000fc56200027762000fcd9262000a2d565b825462000f8f565b9055565b62000fdd600062000dd7565b9062000feb81600062000fb1565b620010226200101b7f8be0079c531659141344cd1fd0a4f28419497f9722a3daafe3b4186f6b6457e09362000a2d565b9162000a2d565b916200102d60405190565b80805b0390a3565b6200027791906200120c565b620005379073ffffffffffffffffffffffffffffffffffffffff1660601b90565b60148162001077620003a79383969562001041565b01809262001041565b73ffffffffffffffffffffffffffffffffffffffff9091168152604081019291620002ae916020905b019073ffffffffffffffffffffffffffffffffffffffff169052565b6040513d6000823e3d90fd5b9190600862000fa7910291620010fa73ffffffffffffffffffffffffffffffffffffffff841b90565b921b90565b9190620011146200027762000fcd9362000a2d565b908354620010d1565b90815491680100000000000000008310156200034e578262001149916001620002ae9501815562000636565b90620010ff565b620002779081565b62000277905462001150565b7f4e487b7100000000000000000000000000000000000000000000000000000000600052601160045260246000fd5b7fffffffffffffffffffffffffffffffffffffffffffffffffffffffffffffffff8114620011c15760010190565b62001164565b907fffffffffffffffffffffffffffffffffffffffffffffffffffffffffffffffff9062000fa7565b90620012046200027762000fcd9262000a99565b8254620011c7565b919073ffffffffffffffffffffffffffffffffffffffff811673ffffffffffffffffffffffffffffffffffffffff841614620015be5760006200124f8162000e13565b9373ffffffffffffffffffffffffffffffffffffffff851673ffffffffffffffffffffffffffffffffffffffff821614801562001588575b6200155d5773ffffffffffffffffffffffffffffffffffffffff831673ffffffffffffffffffffffffffffffffffffffff82161015620015565791905b600190620012e2620012dc8462000a6b878662000a38565b62000dd7565b6200130373ffffffffffffffffffffffffffffffffffffffff881662000e50565b036200152b5762001389612f8e6200131e6020820162000354565b9080825262002abd602083013960405162001351816020810162001344898b8362001062565b908103825203826200030d565b620013656200135e825190565b9160200190565b209060208151910184f59673ffffffffffffffffffffffffffffffffffffffff1690565b73ffffffffffffffffffffffffffffffffffffffff8716146200150057620013bb620013b58762000a2d565b62000a2d565b9163485cc95592803b156200029a57620013e4938391620013db60405190565b95869260e01b90565b8252818381620013f98a8c6004840162001080565b03925af1918215620014fa5762000a6b85620014369388936200143c978c97620014c6575b505062000a6b86620014368462000a6b888662000a38565b62000fb1565b6200147460026200144e86826200111d565b620014706200146862001462600362001158565b62001193565b6003620011f0565b5490565b9162001030620014b0620014a97f0d3648bd0f6ba80134a33ba9275ac585d9d315f0ad8355cddefde31afa28d0e99362000a2d565b9362000a2d565b93620014bb60405190565b91829188836200053b565b81620014ea92903d10620014f2575b620014e181836200030d565b810190620005b3565b38806200141e565b503d620014d5565b620010c5565b6040517f04a5b3ee000000000000000000000000000000000000000000000000000000008152600490fd5b6040517f3d77e891000000000000000000000000000000000000000000000000000000008152600490fd5b90620012c4565b6040517fd92e233d000000000000000000000000000000000000000000000000000000008152600490fd5b5073ffffffffffffffffffffffffffffffffffffffff851673ffffffffffffffffffffffffffffffffffffffff84161462001287565b6040517f5c6d7b73000000000000000000000000000000000000000000000000000000008152600490fd5b90505190620002ae82620002c6565b906020828203126200029a576200027791620015e9565b73ffffffffffffffffffffffffffffffffffffffff918216815291166020820152606081019291620002ae9160400152565b9695929492939073ffffffffffffffffffffffffffffffffffffffff811673ffffffffffffffffffffffffffffffffffffffff891614620015be576000620016898162000e13565b73ffffffffffffffffffffffffffffffffffffffff811673ffffffffffffffffffffffffffffffffffffffff8b161490811562001877575b506200155d57620016d28162000a99565b8414801562001863575b6200183857620016ed828a6200120c565b96620016fe620013b5899b62000a2d565b946200173860206323b872dd9233988c878b6200171a60405190565b968795869485936200172c8c60e01b90565b8552600485016200160f565b03925af18015620014fa5762001755916000916200180657501590565b620017db576200178c60209362001774620013b56200179a9762000a2d565b926200177f60405190565b9687958694859360e01b90565b83528d8b600485016200160f565b03925af18015620014fa57620017b7916000916200180657501590565b620017db5715620017cd57620002779362001b2b565b9150506200027791620018d4565b6040517f90b8ec18000000000000000000000000000000000000000000000000000000008152600490fd5b6200182c915060203d811162001830575b6200182381836200030d565b810190620015f8565b1590565b503d62001817565b6040517fd856fc5a000000000000000000000000000000000000000000000000000000008152600490fd5b506200186f8162000a99565b8714620016dc565b73ffffffffffffffffffffffffffffffffffffffff16905073ffffffffffffffffffffffffffffffffffffffff83161438620016c1565b90505190620002ae82620002b0565b906020828203126200029a576200027791620018ae565b6200193b9291620018f5620013b5602093620018ee600090565b5062000a2d565b620019176000636a6278426200190a60405190565b9788958694859360e01b90565b835273ffffffffffffffffffffffffffffffffffffffff1660048301526024820190565b03925af1918215620014fa5760009262001999575b50816200196662001962600062000a99565b9190565b146200196e57565b6040517f07637bd8000000000000000000000000000000000000000000000000000000008152600490fd5b620019c091925060203d8111620019c8575b620019b781836200030d565b810190620018bd565b903862001950565b503d620019ab565b81810292918115918404141715620011c157565b7f4e487b7100000000000000000000000000000000000000000000000000000000600052601260045260246000fd5b811562001a1e570490565b620019e4565b91908203918211620011c157565b60005b83811062001a465750506000910152565b818101518382015260200162001a35565b62001a7c62001a86602093620003a79362001a70815190565b80835293849260200190565b9586910162001a32565b601f017fffffffffffffffffffffffffffffffffffffffffffffffffffffffffffffffe01690565b9695939462001b04620002ae9662001afd60a09662001af662001b129760208e620010a960c082019a600083019073ffffffffffffffffffffffffffffffffffffffff169052565b60408c0152565b60608a0152565b878203608089015262001a57565b940152565b908152604081019291620002ae9160200152565b92939262001b3a600462000dd7565b9260009362001b5162000e506200025e8762000e13565b1462001dd55762001b628462000a99565b811462001daa5762001bad93602062001b7f620013b58562000a2d565b636a62784290620019178462001b953062000a2d565b9362001ba060405190565b9a8b958694859360e01b90565b03925af1948515620014fa5760009562001d85575b50849662001bd08262000a99565b86146200196e5762001c1262001c0a62001bf662001bef600a62000a99565b89620019d0565b62001c0361271062000a99565b9062001a13565b809762001a24565b9586602062001c25620013b58862000a2d565b63095ea7b39062001c588762001c3c600462000dd7565b9362001c6462001c4b60405190565b9788968795869460e01b90565b8452600484016200053b565b03925af18015620014fa5762001c81916000916200180657501590565b62001d5a5762001c9a620013b5620013b5600462000dd7565b6344e5550f90803b156200029a5762001cd085889362001cdc82968c988b8f62001cc360405190565b9b8c9a8b998a9860e01b90565b88526004880162001aae565b03925af18015620014fa5762001d38575b505062001d1f620014a97f1888a9947a0ba12fbcaea833c7145e4ae63c88020edc424d7eda6753fc3411e09362000a2d565b936200103062001d2e60405190565b9283928362001b17565b8162001d5292903d10620014f257620014e181836200030d565b388062001ced565b6040517f3e3f8f73000000000000000000000000000000000000000000000000000000008152600490fd5b62001da291955060203d8111620019c857620019b781836200030d565b933862001bc2565b6040517f76166401000000000000000000000000000000000000000000000000000000008152600490fd5b6040517f05185ab0000000000000000000000000000000000000000000000000000000008152600490fd5b62000277608062000354565b9d949991969b92979c939890959a9c62001e24600090565b5062001e2f62001e00565b9c8d5260ff1660208d015260408c015260608b015262001e4e62001e00565b9a8b5260ff1660208b015260408a0152606089015262001e6e9862001eda565b9091565b949290979695939160e08601986000870162001ea29173ffffffffffffffffffffffffffffffffffffffff169052565b73ffffffffffffffffffffffffffffffffffffffff1660208601526040850152606084015260ff16608083015260a082015260c00152565b909193929897969862001eeb600090565b5073ffffffffffffffffffffffffffffffffffffffff831673ffffffffffffffffffffffffffffffffffffffff831614620015be5760009162001f2e8362000e13565b73ffffffffffffffffffffffffffffffffffffffff811673ffffffffffffffffffffffffffffffffffffffff831614908115620022ad575b506200155d5762001f778362000a99565b8614801562002299575b620018385762001f9284826200120c565b98899b8481019062001fa2825190565b62001fb1620019628862000a99565b1162002168575b50508381019062001fc7825190565b62001fd6620019628762000a99565b1162001fee575b5050620013b5620016fe9162000a2d565b62001ffd620013b58762000a2d565b63d505accf90339262002019620020143062000a2d565b955190565b9162002029602083015160ff1690565b916200204260606200203c604084015190565b92015190565b92823b156200029a57879562002081889562002075948e989489958f6200206860405190565b9c8d9b8c9a8b9960e01b90565b89526004890162001e72565b03925af1908162002147575b506200213657620020ac565b5050620013b5620016fe915b9162001fdd565b602090620020be620013b58862000a2d565b620020e263dd62ed3e620020ee620020d560405190565b9687958694859460e01b90565b84526004840162001080565b03915afa908115620014fa5760009162002113575b508211620017db57388062002099565b6200212f915060203d8111620019c857620019b781836200030d565b3862002103565b5050620013b5620016fe91620020a5565b6200216190873d8911620014f257620014e181836200030d565b386200208d565b62002177620013b58562000a2d565b63d505accf9033926200218e620020143062000a2d565b916200219e602083015160ff1690565b620021b66060620021b0604086015190565b94015190565b93823b156200029a5787958f8d96899662002075958995620021dc946200206860405190565b03925af1908162002278575b506200227057620021ff565b50505b388062001fb8565b60209062002211620013b58662000a2d565b620020e263dd62ed3e62002228620020d560405190565b03915afa908115620014fa576000916200224d575b508711620017db573880620021f4565b62002269915060203d8111620019c857620019b781836200030d565b386200223d565b5050620021f7565b6200229290883d8a11620014f257620014e181836200030d565b38620021e8565b50620022a58362000a99565b821462001f81565b73ffffffffffffffffffffffffffffffffffffffff16905073ffffffffffffffffffffffffffffffffffffffff8516143862001f66565b6200027791620012dc9173ffffffffffffffffffffffffffffffffffffffff821673ffffffffffffffffffffffffffffffffffffffff82161015620023315762000a6b905b600162000a38565b9062000a6b9062002329565b9190939492946200234f600462000dd7565b956000966200236662000e506200025e8a62000e13565b1462001dd5576200237b620013b58562000a2d565b3360206200172c6323b872dd620023a588620023973062000a2d565b604051968795869560e01b90565b03818c865af18015620014fa57620023c4916000916200180657501590565b620017db576020849163095ea7b39062001c588b620023e4600462000dd7565b93620023f362001c4b60405190565b03925af18015620014fa5762002410916000916200180657501590565b62001d5a5762002429620013b5620013b5600462000dd7565b926344e5550f90843b156200029a57889662001cd0948894620024509362001cc360405190565b03925af18015620014fa5762002464575050565b81620002ae92903d10620014f257620014e181836200030d565b90916200248c600462000dd7565b6000906200249a8262000e13565b90620024bc73ffffffffffffffffffffffffffffffffffffffff831662000e50565b1462001dd55773ffffffffffffffffffffffffffffffffffffffff1673ffffffffffffffffffffffffffffffffffffffff841614620026595762002504620013b58462000a2d565b946370a0823195620025206200251960405190565b9760e01b90565b875273ffffffffffffffffffffffffffffffffffffffff86166004880152602087602481845afa968715620014fa5760009762002634575b50620025648362000a99565b871462002609576200257f62001bf662001bef600a62000a99565b906200258c828962001a24565b976020620025bd6323b872dd620025ca620025a73062000a2d565b94620025b260405190565b958694859460e01b90565b84528d600485016200160f565b038188865af18015620014fa57620025e9916000916200180657501590565b620017db576020889163095ea7b39062001c588762001c3c600462000dd7565b6040517f962e4bcb000000000000000000000000000000000000000000000000000000008152600490fd5b6200265191975060203d8111620019c857620019b781836200030d565b953862002558565b6040517f1e4f7d8c000000000000000000000000000000000000000000000000000000008152600490fd5b73ffffffffffffffffffffffffffffffffffffffff9091168152606081019392620002ae929091604091620010a9906020830152565b91620026c7600462000dd7565b92600093620026de62000e506200025e8762000e13565b1462001dd557620026f8620013b5620013b5600462000dd7565b63573044e3813b156200029a578562002728916200245082966200271b60405190565b9889978896879560e01b90565b85526004850162002684565b620002ae906200274362000e3e565b620027536200025e600062000e13565b73ffffffffffffffffffffffffffffffffffffffff821614620027ba576200277c600462000dd7565b906200278a81600462000fb1565b620010226200101b7f98816c25fdd38fe4567b76858ce644a62161b5272648b051b397055a725068929362000a2d565b6040517fab54b813000000000000000000000000000000000000000000000000000000008152600490fd5b620002ae9062002734565b620002ae90620027ff62000e3e565b6200280d6200027762000aa9565b8111620028635762002820600562001158565b906200282e816005620011f0565b7f14914da2bf76024616fbe1859783fcd4dbddcb179b1f3a854949fbf920dcb957916200285e62001d2e60405190565b0390a1565b6040517fcd4e6167000000000000000000000000000000000000000000000000000000008152600490fd5b620002ae90620027f0565b62000277600562001158565b620002ae90620028b462000e3e565b620002ae906200288e565b620002ae90620028a5565b620028d462000e3e565b6040517f08c379a000000000000000000000000000000000000000000000000000000000815260206004820152600f60248201527f4e4f545f494d504c454d454e54454400000000000000000000000000000000006044820152606490fd5b620028ca565b90505190620002ae826200027a565b906020828203126200029a57620002779162002939565b60209192506200296d600090565b50620029793062000a2d565b620020e2600063c9c653966200299262001c4b60405190565b03925af1908115620014fa57600091620029aa575090565b62000277915060203d8111620029d0575b620029c781836200030d565b81019062002948565b503d620029bb565b6040517f08c379a000000000000000000000000000000000000000000000000000000000815260206004820152601f60248201527f557365206e6577206c6f636b4c6971756964697479207369676e6174757265006044820152606490fd5b6040517f08c379a000000000000000000000000000000000000000000000000000000000815260206004820152602160248201527f557365206e657720756e6c6f636b4c6971756964697479207369676e6174757260448201527f65000000000000000000000000000000000000000000000000000000000000006064820152608490fdfe6080604052346200002657620000146200009b565b604051612e726200011c8239612e7290f35b600080fd5b906001600160a01b03905b9181191691161790565b620000569062000059906001600160a01b031682565b90565b6001600160a01b031690565b620000569062000040565b620000569062000065565b906200008f62000056620000979262000070565b82546200002b565b9055565b620000a5620000b4565b620000b23360046200007b565b565b620000b2620000b262000105565b6200005662000056620000569290565b620000566001620000c2565b906000199062000036565b90620000fd620000566200009792620000c2565b8254620000de565b620000b262000113620000d2565b6000620000e956fe6080604052600436101561001257600080fd5b60003560e01c8063022c0d9f1461023257806306fdde031461022d5780630902f1ac14610228578063095ea7b3146102235780630dfe16811461021e57806318160ddd1461021957806323b872dd1461021457806330adf81f1461020f578063313ce5671461020a5780633566414c146102055780633644e515146102005780633f4ba83a146101fb578063485cc955146101f65780635909c0d5146101f15780635a3d5493146101ec5780635c975abb146101e75780636a627842146101e257806370a08231146101dd5780637174b568146101d85780637464fc3d146101d35780637ecebe00146101ce578063820d25a8146101c95780638456cb59146101c457806389afcb44146101bf57806395d89b41146101ba578063a9059cbb146101b5578063ba9a7a56146101b0578063bc25cf77146101ab578063be11b1d0146101a6578063c45a0155146101a1578063d21220a71461019c578063d505accf14610197578063dd62ed3e146101925763fff6cae90361024057610b11565b610af5565b610abc565b610a25565b6109fe565b6109d7565b6109a2565b610987565b61094b565b610930565b610902565b6108d3565b6108ba565b610861565b610834565b610819565b6107ec565b61077b565b61074c565b610731565b61070a565b6106e5565b6106aa565b61068f565b610674565b6105f0565b6105b7565b61059b565b61053f565b6104da565b610475565b610402565b6103d7565b61031d565b805b0361024057565b600080fd5b9050359061025282610237565b565b73ffffffffffffffffffffffffffffffffffffffff1690565b90565b73ffffffffffffffffffffffffffffffffffffffff8116610239565b9050359061025282610270565b909182601f830112156102405781359167ffffffffffffffff831161024057602001926001830284011161024057565b90608082820312610240576102de8183610245565b926102ec8260208501610245565b926102fa836040830161028c565b92606082013567ffffffffffffffff8111610240576103199201610299565b9091565b34610240576103396103303660046102c9565b93929092612358565b604051005b0390f35b600091031261024057565b60005b8381106103605750506000910152565b8181015183820152602001610350565b61039161039a6020936103c293610385815190565b80835293849260200190565b9586910161034d565b601f017fffffffffffffffffffffffffffffffffffffffffffffffffffffffffffffffe01690565b0190565b602080825261026d92910190610370565b34610240576103e7366004610342565b61033e6103f26127af565b604051918291826103c6565b9052565b3461024057610412366004610342565b61033e61041d610fc3565b604080516dffffffffffffffffffffffffffff948516815293909216602084015263ffffffff16908201529081906060820190565b91906040838203126102405761026d9061046c818561028c565b93602001610245565b346102405761033e61049161048b366004610452565b906125ff565b60405191829182901515815260200190565b61026d916008021c73ffffffffffffffffffffffffffffffffffffffff1690565b9061026d91546104a3565b61026d6001806104c4565b34610240576104ea366004610342565b61033e6104f56104cf565b6040515b9182918273ffffffffffffffffffffffffffffffffffffffff909116815260200190565b61026d916008021c81565b9061026d915461051d565b61026d60006008610528565b346102405761054f366004610342565b61033e61055a610533565b6040515b9182918290815260200190565b90916060828403126102405761026d610584848461028c565b93610592816020860161028c565b93604001610245565b346102405761033e6104916105b136600461056b565b916126c1565b34610240576105c7366004610342565b61033e7f6e71edae12b1b97f4d1f60370fef10105fa2faae0126114a169c64845d6126c961055a565b3461024057610600366004610342565b61033e61060b612807565b6040519182918260ff909116815260200190565b906020828203126102405761026d91610245565b905b600052602052604060002090565b61026d916008021c5b60ff1690565b9061026d9154610643565b61026d9061066f600b91600092610633565b610652565b346102405761033e61049161068a36600461061f565b61065d565b346102405761069f366004610342565b61033e61055a612811565b34610240576106ba366004610342565b610339610c98565b91906040838203126102405761026d906106dc818561028c565b9360200161028c565b34610240576103396106f83660046106c2565b90610dc0565b61026d60006005610528565b346102405761071a366004610342565b61033e61055a6106fe565b61026d60006006610528565b3461024057610741366004610342565b61033e61055a610725565b346102405761075c366004610342565b61033e610491610b29565b906020828203126102405761026d9161028c565b346102405761033e61055a610791366004610767565b6114f7565b61025461026d61026d9273ffffffffffffffffffffffffffffffffffffffff1690565b61026d90610796565b61026d906107b9565b90610635906107c2565b61026d906107e76007916000926107cb565b610528565b346102405761033e61055a610802366004610767565b6107d5565b61026d906107e7600a91600092610633565b346102405761033e61055a61082f36600461061f565b610807565b3461024057610844366004610342565b61033e61055a612d13565b61026d906107e7600d916000926107cb565b346102405761033e61055a610877366004610767565b61084f565b908160209103126102405790565b90916060828403126102405761026d6108a3848461028c565b936108b1816020860161028c565b9360400161087c565b34610240576103396108cd36600461088a565b91610fb8565b34610240576108e3366004610342565b610339610bb5565b9081526040810192916102529160200152565b0152565b346102405761091a610915366004610767565b611c7c565b9061033e61092760405190565b928392836108eb565b3461024057610940366004610342565b61033e6103f26127f2565b346102405761033e610491610961366004610452565b90612660565b61026d61026d61026d9290565b61026d6103e8610967565b61026d610974565b3461024057610997366004610342565b61033e61055a61097f565b34610240576103396109b5366004610767565b612bdd565b61026d9061064c565b61026d90546109ba565b61026d60096109c3565b34610240576109e7366004610342565b61033e6104916109cd565b61026d600060046104c4565b3461024057610a0e366004610342565b61033e6104f56109f2565b61026d600060026104c4565b3461024057610a35366004610342565b61033e6104f5610a19565b60ff8116610239565b9050359061025282610a40565b60e08183031261024057610a6a828261028c565b92610a78836020840161028c565b92610a868160408501610245565b92610a948260608301610245565b9261026d610aa58460808501610a49565b93610ab38160a08601610245565b9360c001610245565b3461024057610339610acf366004610a56565b95949094939193612a41565b6107e761026d92610af0600c936000946107cb565b6107cb565b346102405761033e61055a610b0b3660046106c2565b90610adb565b3461024057610b21366004610342565b61033961247c565b61026d60016109c3565b61026d90610254565b61026d9054610b33565b33610b71610b576102546004610b3c565b9173ffffffffffffffffffffffffffffffffffffffff1690565b03610b7e57610252610bad565b6040517fee90c468000000000000000000000000000000000000000000000000000000008152600490fd5b0390fd5b610252610c36565b610252610b46565b610bc5610c3e565b610252610bf7565b9060ff905b9181191691161790565b90610bec61026d610bf392151590565b8254610bcd565b9055565b610c02600180610bdc565b33610c317f62e78cea01bee320cd4e420270b5ea74000d11b0c9f74754ebdbfc544b05a258916104f960405190565b0390a1565b610252610bbd565b610c46610b29565b610c4c57565b6040517fd93c0665000000000000000000000000000000000000000000000000000000008152600490fd5b33610c88610b576102546004610b3c565b03610b7e57610252610252610ce6565b610252610c77565b610ca8610cee565b610252610cb760006001610bdc565b33610c317f5db9ee0a495bf2e6ff9c91a7834c1ba4fdd244a5e8aa4e537bd38aeae4b073aa916104f960405190565b610252610ca0565b610cfd610cf9610b29565b1590565b610d0357565b6040517f8dfc202b000000000000000000000000000000000000000000000000000000008152600490fd5b7f4e487b7100000000000000000000000000000000000000000000000000000000600052604160045260246000fd5b90601f017fffffffffffffffffffffffffffffffffffffffffffffffffffffffffffffffe016810190811067ffffffffffffffff821117610d9d57604052565b610d2e565b90610252610daf60405190565b9283610d5d565b61026d6020610da2565b61025291600191610dd9610dd2610db6565b9315158452565b610e92565b61026d9060081c610254565b61026d9054610dde565b61025461026d61026d9290565b61026d90610df4565b9074ffffffffffffffffffffffffffffffffffffffff009060081b610bd2565b90610e3a61026d610bf3926107c2565b8254610e0a565b9073ffffffffffffffffffffffffffffffffffffffff90610bd2565b90610e6d61026d610bf3926107c2565b8254610e41565b61025291610e829051151590565b90610bdc565b9061025291610e74565b90610e9d6001610dea565b610ead610b576102546000610e01565b03610f1057610ec0610ec7926001610e2a565b6002610e5d565b610ed2816009610e88565b610c317fb1102bf8599badf4360419344e57744751c4d685c0864e807454e60f8e6addbc91610f0060405190565b9182918290511515815260200190565b6040517f0dc149f0000000000000000000000000000000000000000000000000000000008152600490fd5b919033610f4e610b576102546004610b3c565b03610b7e5761025292610fa5565b801515610239565b9050359061025282610f5c565b91909160208184031261024057610f94610f8b6020610da2565b93600092610f64565b90830152565b61026d903690610f71565b90610fb261025293610f9a565b91610e92565b906102529291610f3b565b610fcb611025565b9192909190565b61026d905b6dffffffffffffffffffffffffffff1690565b61026d9054610fd2565b61026d9060701c610fd7565b61026d9054610ff4565b61026d9060e01c5b63ffffffff1690565b61026d905461100a565b61102f6003610fea565b9061103a6003611000565b9061026d600361101b565b906110579161105261154b565b611060565b906102526115a4565b9061026d9161106d610c3e565b9061026d9161117f565b9050519061025282610237565b906020828203126102405761026d91611077565b6040513d6000823e3d90fd5b61026d61026d61026d926dffffffffffffffffffffffffffff1690565b7f4e487b7100000000000000000000000000000000000000000000000000000000600052601160045260246000fd5b919082039182116110fd57565b6110c1565b61026d9081565b61026d9054611102565b610fd761026d61026d9290565b9190918083025b9281840414901517156110fd57565b7f4e487b7100000000000000000000000000000000000000000000000000000000600052601260045260246000fd5b9061116f565b9190565b90811561117a570490565b611136565b5090611189611025565b506111a261119d61119d6001969496610dea565b6107c2565b936370a082316111b1306107c2565b9060206111bd60405190565b80986111c98460e01b90565b825273ffffffffffffffffffffffffffffffffffffffff8516600483015260249082905afa9687156114ca576000976114cf575b506112539160209161122f61121861119d61119d6002610b3c565b9161122260405190565b9586948593849360e01b90565b835273ffffffffffffffffffffffffffffffffffffffff1660048301526024820190565b03915afa9081156114ca5760009161149c575b50611279611273836110a4565b876110f0565b9561128c611286856110a4565b836110f0565b60009761129889610967565b8114801561148b575b611460576112af6008611109565b6112b88a610967565b81036113a957506112cf6112fe926112d492611120565b612553565b976112f96112ea6112e3610974565b809b6110f0565b996112f483610e01565b612484565b610967565b871461137e5761133b61026d7fffffffffffffffffffffffffffffffffffffffffffffffffffffffffffffffff6113356008611109565b906110f0565b87116113535761134e8761025296612484565b61173a565b6040517f2124ec45000000000000000000000000000000000000000000000000000000008152600490fd5b6040517fd226f9d4000000000000000000000000000000000000000000000000000000008152600490fd5b916113b38a611113565b6dffffffffffffffffffffffffffff871614801561143f575b611414576114086113ff846113f96113ea6112fe9761140e97611120565b6113f38b6110a4565b90611165565b93611120565b6113f3896110a4565b90612541565b97610967565b6040517f945e9268000000000000000000000000000000000000000000000000000000008152600490fd5b506114498a611113565b6dffffffffffffffffffffffffffff8816146113cc565b6040517f098fb561000000000000000000000000000000000000000000000000000000008152600490fd5b5061149589610967565b82146112a1565b6114bd915060203d81116114c3575b6114b58183610d5d565b810190611084565b38611266565b503d6114ab565b611098565b6020919750916114ee61125393833d81116114c3576114b58183610d5d565b979150916111fd565b61026d906000611045565b61026d6002610967565b907fffffffffffffffffffffffffffffffffffffffffffffffffffffffffffffffff90610bd2565b9061154461026d610bf392610967565b825461150c565b6115556000611109565b61155d611502565b90811461156f57610252906000611534565b6040517f3ee5aeb5000000000000000000000000000000000000000000000000000000008152600490fd5b61026d6001610967565b6102526115af61159a565b6000611534565b811561117a570690565b61101261026d61026d9290565b63ffffffff908116911690039063ffffffff82116110fd57565b61026d61026d61026d927bffffffffffffffffffffffffffffffffffffffffffffffffffffffff1690565b61026d61026d61026d9263ffffffff1690565b919082018092116110fd57565b906dffffffffffffffffffffffffffff90610bd2565b610fd761026d61026d926dffffffffffffffffffffffffffff1690565b9061167561026d610bf392611648565b8254611632565b907bffffffffffffffffffffffffffff00000000000000000000000000009060701b610bd2565b906116b361026d610bf392611648565b825461167c565b907fffffffff000000000000000000000000000000000000000000000000000000009060e01b610bd2565b61101261026d61026d9263ffffffff1690565b9061170861026d610bf3926116e5565b82546116ba565b6103fe906110a4565b9160206102529294936117336040820196600083019061170f565b019061170f565b90926dffffffffffffffffffffffffffff611754816110a4565b8311908115611933575b50611908576117f2936117df6117d86117eb946117e4946117956117904261178a640100000000610967565b906115b6565b6115c0565b976117a96117a3600361101b565b8a6115cd565b9160006117b5816115c0565b63ffffffff85161190816118e4575b816118c1575b5061183d575b505050611113565b6003611665565b611113565b60036116a3565b60036116f8565b6117fc6003610fea565b6118066003611000565b7fcf2aa50876cdfbb541206f89af0ee78d44a2abf8d328e37fa4917f982149848a91610c3161183460405190565b92839283611718565b6118b9926118816118a26118738461186e8761189d6118966118876118786118736118b29d61186e6118a89e612ddd565b612e27565b6115e7565b6118818b611612565b90611120565b6118916005611109565b611625565b6005611534565b612ddd565b91611612565b6118916006611109565b6006611534565b3880806117d0565b6118cb9150611113565b6dffffffffffffffffffffffffffff82161415386117ca565b90506118ef81611113565b6dffffffffffffffffffffffffffff84161415906117c4565b6040517f35278d12000000000000000000000000000000000000000000000000000000008152600490fd5b61193d91506110a4565b84113861175e565b90611958929161195361154b565b611962565b90916102526115a4565b906103199291611970610c3e565b5061031991905061197f611025565b50929061198c6001610dea565b936119a061199a6002610b3c565b956107c2565b916119aa836107c2565b926119b4306107c2565b6040517f70a0823100000000000000000000000000000000000000000000000000000000815273ffffffffffffffffffffffffffffffffffffffff8216600482015297602089602481895afa9889156114ca57600099611c58575b50611a19906107c2565b97611a23896107c2565b92611a2d60405190565b7f70a0823100000000000000000000000000000000000000000000000000000000815273ffffffffffffffffffffffffffffffffffffffff841660048201529860208a602481885afa998a156114ca5760009a611c36575b50899a611aba9a50611acb611abf611aa6611aa18860076107cb565b611109565b95611ab16008611109565b9d8e9188611120565b611165565b9b611aba8d9e87611120565b92839b6000611ad981610967565b8214908115611c24575b50611bf95783611afa92611afa611aff988a612515565b611cf0565b6020611b0a60405190565b7f70a0823100000000000000000000000000000000000000000000000000000000815273ffffffffffffffffffffffffffffffffffffffff8316600482015295869060249082905afa9081156114ca57611b9c95600092611bd9575b506040519192602092968792839182917f70a082310000000000000000000000000000000000000000000000000000000061122f565b03915afa9081156114ca5761025294600092611bb9575b5061173a565b611bd291925060203d81116114c3576114b58183610d5d565b9038611bb3565b60209250611bf390833d81116114c3576114b58183610d5d565b91611b66565b6040517f749383ad000000000000000000000000000000000000000000000000000000008152600490fd5b611c2e9150610967565b851438611ae3565b611aba9a50611c529060203d81116114c3576114b58183610d5d565b99611a85565b611a19919950611c759060203d81116114c3576114b58183610d5d565b9890611a0f565b61031990600080611945565b611ca1611c9b61026d9263ffffffff1690565b60e01b90565b7fffffffff000000000000000000000000000000000000000000000000000000001690565b73ffffffffffffffffffffffffffffffffffffffff90911681526040810192916102529160200152565b611d33600492611d2461025295611d0a63a9059cbb611c88565b92611d1460405190565b9687946020860190815201611cc6565b60208201810382520383610d5d565b906000602091611d41600090565b50828151910182855af11561109857600080513d611d6161116b84610967565b03611ddf5750611d7d61116b611d76846107c2565b3b92610967565b145b611d865750565b611d92610ba9916107c2565b6040519182917f5274afe70000000000000000000000000000000000000000000000000000000083526004830173ffffffffffffffffffffffffffffffffffffffff909116815260200190565b9050611dee61116b6001610967565b1415611d7f565b90611e0a94939291611e0561154b565b611e12565b6102526115a4565b9061025294939291611e22610c3e565b9061025294939291611eaa565b90826000939282370152565b919061039a81611e52816103c29560209181520190565b8095611e2f565b90939161026d9593611e96611e9d92611e8f6080860198600087019073ffffffffffffffffffffffffffffffffffffffff169052565b6020850152565b6040830152565b6060818503910152611e3b565b9290939193600090611ebb82610967565b851480612347575b61231c57611ecf611025565b50949093611edc856110a4565b871015801561230a575b6122df57611ef46001610dea565b90611eff6002610b3c565b9873ffffffffffffffffffffffffffffffffffffffff831673ffffffffffffffffffffffffffffffffffffffff82161480156122aa575b61227f57611f4386610967565b891161226c575b611f5386610967565b8511612259575b83611f6761116b88610967565b116121c3575b5050611f7d915061119d906107c2565b946370a08231611f8c306107c2565b906020611f9860405190565b8099611fa48460e01b90565b825273ffffffffffffffffffffffffffffffffffffffff8516600483015260249082905afa9788156114ca5760009861218b575b509060209161122f611ff461119d8b9c61200b9a9b9c506107c2565b91611ffe60405190565b9889948593849360e01b90565b03915afa9384156114ca5760009461216b575b5061203461026d8261202f886110a4565b6110f0565b87111561215b5761127361204b9161202f876110a4565b905b61205d61026d8261202f896110a4565b84111561214b5761207461207a9161202f886110a4565b846110f0565b915b61208581610967565b82149081612139575b506114605761188186916113356120d6946118816120d06120ca61140e6120bb6103e8996118818b610967565b6113356003986118818a610967565b89611120565b93610967565b61210061116b61026d6120f46120eb876110a4565b611881896110a4565b611881620f4240610967565b1061210e576102529361173a565b6040517fa932492f000000000000000000000000000000000000000000000000000000008152600490fd5b6121439150610967565b82143861208e565b5061215582610967565b9161207c565b5061216582610967565b9061204d565b61218491945060203d81116114c3576114b58183610d5d565b923861201e565b61200b969798509061122f611ff461119d6121b560209695873d81116114c3576114b58183610d5d565b9b9a99505050509091611fd8565b61119d6121cf916107c2565b9063bea9cf36913391813b156102405787809461220d8d98612202948b6121f560405190565b9b8c998a98899760e01b90565b875260048701611e59565b03925af19081156114ca57611f7d9261119d9261222d575b819250611f6d565b61224c90863d8811612252575b6122448183610d5d565b810190610342565b38612225565b503d61223a565b6122678582611afa8d6107c2565b611f5a565b61227a8982611afa866107c2565b611f4a565b6040517f290fa188000000000000000000000000000000000000000000000000000000008152600490fd5b5073ffffffffffffffffffffffffffffffffffffffff8a1673ffffffffffffffffffffffffffffffffffffffff821614611f36565b6040517fbb55fd27000000000000000000000000000000000000000000000000000000008152600490fd5b50612314866110a4565b831015611ee6565b6040517f42301c23000000000000000000000000000000000000000000000000000000008152600490fd5b5061235182610967565b8114611ec3565b9061025294939291611df5565b61236d61154b565b611e0a61238061119d61119d6001610dea565b6370a0823161238e306107c2565b602061239960405190565b80946123a58560e01b90565b825273ffffffffffffffffffffffffffffffffffffffff8416600483015260249082905afa9081156114ca5761240c9360009261245c575b506020919261122f6123f561119d61119d6002610b3c565b916123ff60405190565b9687948593849360e01b90565b03915afa80156114ca576102529260009161243e575b5061242d6003610fea565b906124386003611000565b9261173a565b612456915060203d81116114c3576114b58183610d5d565b38612422565b6020925061247690833d81116114c3576114b58183610d5d565b916123dd565b610252612365565b90612493816118916008611109565b6124a361116b61026d6008611109565b1080156124e8575b611908576124e26124d8610252936124d16124ca856118916008611109565b6008611534565b60076107cb565b9161189183611109565b90611534565b50600761250f61116b61026d611aa18661250987611891611aa1848a6107cb565b956107cb565b106124ab565b6102529161253761252a6124ca9360076107cb565b6124e28361202f83611109565b61202f6008611109565b908082101561254e575090565b905090565b9060006125606003610967565b8311156125de575061259582600261258061257a82610967565b83611165565b91600193849361258f85610967565b90611625565b935b6125a2575b50505050565b909192946125ad8190565b8610156125d857506125cf6125c6866118918185611165565b6113f384610967565b92919082612597565b9461259c565b916125ec61116b6000610967565b036125f357565b905061026d6001610967565b336126188361261384610af085600c6107cb565b611534565b61265861264e6126487f8c5be1e5ebec7d5bd14f71427d1e84f3dd0314c0f7b2291e5b200ac8c7c3b925936107c2565b936107c2565b9361055e60405190565b0390a3600190565b33612691612684836007610af061267786836107cb565b6124e28961202f83611109565b6124e28561189183611109565b61265861264e6126487fddf252ad1be2c89b69c2b068fc378daa952ba7f163c4a11628f55a4df523b3ef936107c2565b600c816126ce81836107cb565b6126dc611aa13380936107cb565b6001016126fd575b505050612691612684836007610af061267786836107cb565b610af061270d9261271a946107cb565b6124e28561202f83611109565b3881816126e4565b67ffffffffffffffff8111610d9d57602090601f017fffffffffffffffffffffffffffffffffffffffffffffffffffffffffffffffe0160190565b9061276f61276a83612722565b610da2565b918252565b61277e600c61275d565b7f444558204c5020546f6b656e0000000000000000000000000000000000000000602082015290565b61026d612774565b61026d6127a7565b6127c1600261275d565b7f4c50000000000000000000000000000000000000000000000000000000000000602082015290565b61026d6127b7565b61026d6127ea565b61064c61026d61026d9290565b61026d60126127fa565b61026d6128a9565b612823600161275d565b7f3100000000000000000000000000000000000000000000000000000000000000602082015290565b61026d612819565b909594926102529461288661288d9261287f60809661287860a088019c6000890152565b6020870152565b6040850152565b6060830152565b019073ffffffffffffffffffffffffffffffffffffffff169052565b7f8b73c3c69bb8fe3d512ecc4cf759cc79239f7b179b0ffacaa9a75d522b39400f61292e6128d56127a7565b6128e76128e0825190565b9160200190565b206128f061284c565b6128fb6128e0825190565b20926129224661290a306107c2565b9061291460405190565b968795602087019586612854565b90810382520382610d5d565b6129396128e0825190565b2090565b7fffffffffffffffffffffffffffffffffffffffffffffffffffffffffffffffff81146110fd5760010190565b91946129d36108fe929897956129cc60a0966129af6102529a61299260c08a019e60008b0152565b73ffffffffffffffffffffffffffffffffffffffff166020890152565b73ffffffffffffffffffffffffffffffffffffffff166040870152565b6060850152565b6080830152565b6020809392612a1261276f6103c2947f1901000000000000000000000000000000000000000000000000000000000000815260020190565b01918252565b6108fe61025294611e96606094989795612a37608086019a6000870152565b60ff166020850152565b939094959195612a4e4290565b8410612bb257612b0a600093612922612aeb89612ac78a8d61292260209c612a937f6e71edae12b1b97f4d1f60370fef10105fa2faae0126114a169c64845d6126c990565b92612a9f85600d6107cb565b90612ab6612aac83611109565b926124e28461293d565b60405197889660208801968761296a565b612ad26128e0825190565b20612adb6128a9565b6040519384928b840192836129da565b612af66128e0825190565b2092612b0160405190565b94859485612a18565b838052039060015afa156114ca57600051612b3a73ffffffffffffffffffffffffffffffffffffffff8316610b57565b03612b8757612b528361261384610af085600c6107cb565b612b8261264e6126487f8c5be1e5ebec7d5bd14f71427d1e84f3dd0314c0f7b2291e5b200ac8c7c3b925936107c2565b0390a3565b6040517f8baa579f000000000000000000000000000000000000000000000000000000008152600490fd5b6040517f203d82d8000000000000000000000000000000000000000000000000000000008152600490fd5b612be76001610dea565b612bfa612bf46002610b3c565b916107c2565b91612c04836107c2565b926370a0823192612c14306107c2565b906020612c2060405190565b8097612c2c8860e01b90565b825273ffffffffffffffffffffffffffffffffffffffff8516600483015260249082905afa9081156114ca5761119d60209486612c85612c8b95612caf9b600091612cf6575b50611335612c806003610fea565b6110a4565b91611cf0565b9361122f612c98866107c2565b91612ca260405190565b9788948593849360e01b90565b03915afa9283156114ca5761025293612c8591600091612cd8575b50611335612c806003611000565b612cf0915060203d81116114c3576114b58183610d5d565b38612cca565b612d0d9150893d81116114c3576114b58183610d5d565b38612c72565b61026d612d23612c806003610fea565b611881612c806003611000565b612d4d61026d61026d926dffffffffffffffffffffffffffff1690565b7bffffffffffffffffffffffffffffffffffffffffffffffffffffffff1690565b612d4d61026d61026d9290565b61026d6e010000000000000000000000000000612d6e565b7bffffffffffffffffffffffffffffffffffffffffffffffffffffffff908116929116917bffffffffffffffffffffffffffffffffffffffffffffffffffffffff81840216611127565b612df261026d91612dec600090565b50612d30565b612dfa612d7b565b90612d93565b7bffffffffffffffffffffffffffffffffffffffffffffffffffffffff908116911661116f565b612e3661026d92612dec600090565b90612e0056fea264697066735822122040833ec7d6d81c156c9619b4ff95619f685146fcb52d6c7b245e5c73813b2a0964736f6c63430008140033a264697066735822122018fe48dae2871813537d0b49a82e03474de016b18ab117743d0abc982943857b64736f6c63430008140033",
  "linkReferences": {},
  "deployedLinkReferences": {}
}