{"contracts/DEXFactoryV2.sol":{"DEXFactoryV2":{"abi":[{"inputs":[{"internalType":"address","name":"_liquidityLocker","type":"address"}],"stateMutability":"nonpayable","type":"constructor"},{"inputs":[{"internalType":"address","name":"owner","type":"address"}],"name":"OwnableInvalidOwner","type":"error"},{"inputs":[{"internalType":"address","name":"account","type":"address"}],"name":"OwnableUnauthorizedAccount","type":"error"},{"anonymous":false,"inputs":[{"indexed":false,"internalType":"bool","name":"stopped","type":"bool"},{"indexed":true,"internalType":"address","name":"updater","type":"address"}],"name":"EmergencyStopUpdated","type":"event"},{"anonymous":false,"inputs":[{"indexed":false,"internalType":"uint256","name":"oldFee","type":"uint256"},{"indexed":false,"internalType":"uint256","name":"newFee","type":"uint256"}],"name":"FeeRateUpdated","type":"event"},{"anonymous":false,"inputs":[{"indexed":false,"internalType":"uint256","name":"oldFee","type":"uint256"},{"indexed":false,"internalType":"uint256","name":"newFee","type":"uint256"},{"indexed":true,"internalType":"address","name":"updater","type":"address"}],"name":"FeeUpdated","type":"event"},{"anonymous":false,"inputs":[{"indexed":true,"internalType":"address","name":"pair","type":"address"},{"indexed":true,"internalType":"address","name":"user","type":"address"},{"indexed":false,"internalType":"uint256","name":"amount","type":"uint256"},{"indexed":false,"internalType":"uint256","name":"lockDuration","type":"uint256"}],"name":"InitialLiquidityLocked","type":"event"},{"anonymous":false,"inputs":[{"indexed":true,"internalType":"address","name":"pair","type":"address"},{"indexed":true,"internalType":"address","name":"owner","type":"address"},{"indexed":false,"internalType":"uint256","name":"amount","type":"uint256"},{"indexed":false,"internalType":"uint256","name":"unlockTime","type":"uint256"},{"indexed":false,"internalType":"string","name":"description","type":"string"},{"indexed":false,"internalType":"uint256","name":"lockFee","type":"uint256"}],"name":"LiquidityLocked","type":"event"},{"anonymous":false,"inputs":[{"indexed":true,"internalType":"address","name":"oldLocker","type":"address"},{"indexed":true,"internalType":"address","name":"newLocker","type":"address"}],"name":"LiquidityLockerUpdated","type":"event"},{"anonymous":false,"inputs":[{"indexed":true,"internalType":"address","name":"pair","type":"address"},{"indexed":true,"internalType":"address","name":"owner","type":"address"},{"indexed":false,"internalType":"uint256","name":"amount","type":"uint256"},{"indexed":false,"internalType":"uint256","name":"timestamp","type":"uint256"}],"name":"LiquidityUnlocked","type":"event"},{"anonymous":false,"inputs":[{"indexed":true,"internalType":"address","name":"user","type":"address"},{"indexed":false,"internalType":"uint256","name":"amount","type":"uint256"},{"indexed":false,"internalType":"uint256","name":"timestamp","type":"uint256"}],"name":"LockFeeCollected","type":"event"},{"anonymous":false,"inputs":[{"indexed":false,"internalType":"uint256","name":"oldBasicFee","type":"uint256"},{"indexed":false,"internalType":"uint256","name":"newBasicFee","type":"uint256"},{"indexed":false,"internalType":"uint256","name":"oldPremiumFee","type":"uint256"},{"indexed":false,"internalType":"uint256","name":"newPremiumFee","type":"uint256"}],"name":"LockFeeUpdated","type":"event"},{"anonymous":false,"inputs":[{"indexed":true,"internalType":"address","name":"operator","type":"address"},{"indexed":false,"internalType":"bool","name":"authorized","type":"bool"}],"name":"OperatorAuthorized","type":"event"},{"anonymous":false,"inputs":[{"indexed":true,"internalType":"address","name":"previousOwner","type":"address"},{"indexed":true,"internalType":"address","name":"newOwner","type":"address"}],"name":"OwnershipTransferred","type":"event"},{"anonymous":false,"inputs":[{"indexed":true,"internalType":"address","name":"token0","type":"address"},{"indexed":true,"internalType":"address","name":"token1","type":"address"},{"indexed":false,"internalType":"address","name":"pair","type":"address"},{"indexed":false,"internalType":"uint256","name":"","type":"uint256"}],"name":"PairCreated","type":"event"},{"anonymous":false,"inputs":[{"indexed":true,"internalType":"address","name":"token0","type":"address"},{"indexed":true,"internalType":"address","name":"token1","type":"address"},{"indexed":false,"internalType":"address","name":"pair","type":"address"},{"indexed":false,"internalType":"uint256","name":"allPairsLength","type":"uint256"},{"indexed":false,"internalType":"uint256","name":"timestamp","type":"uint256"},{"components":[{"internalType":"bool","name":"emergencyStop","type":"bool"}],"indexed":false,"internalType":"struct IDEXFactory.PoolSecurityConfig","name":"securityConfig","type":"tuple"}],"name":"PairCreated","type":"event"},{"anonymous":false,"inputs":[{"indexed":false,"internalType":"uint256","name":"oldShare","type":"uint256"},{"indexed":false,"internalType":"uint256","name":"newShare","type":"uint256"}],"name":"PlatformFeeShareUpdated","type":"event"},{"anonymous":false,"inputs":[{"indexed":true,"internalType":"address","name":"pair","type":"address"},{"indexed":false,"internalType":"uint256","name":"amount","type":"uint256"},{"indexed":false,"internalType":"uint256","name":"platformShare","type":"uint256"},{"indexed":false,"internalType":"uint256","name":"timestamp","type":"uint256"}],"name":"TradingFeeCollected","type":"event"},{"inputs":[],"name":"FEE_DENOMINATOR","outputs":[{"internalType":"uint256","name":"","type":"uint256"}],"stateMutability":"view","type":"function"},{"inputs":[],"name":"MAX_FEE_RATE","outputs":[{"internalType":"uint256","name":"","type":"uint256"}],"stateMutability":"view","type":"function"},{"inputs":[{"internalType":"address","name":"","type":"address"},{"internalType":"address","name":"","type":"address"}],"name":"_getPair","outputs":[{"internalType":"address","name":"","type":"address"}],"stateMutability":"view","type":"function"},{"inputs":[{"internalType":"uint256","name":"","type":"uint256"}],"name":"allPairs","outputs":[{"internalType":"address","name":"","type":"address"}],"stateMutability":"view","type":"function"},{"inputs":[],"name":"allPairsLength","outputs":[{"internalType":"uint256","name":"","type":"uint256"}],"stateMutability":"view","type":"function"},{"inputs":[{"internalType":"address","name":"pair","type":"address"},{"internalType":"uint256","name":"amount","type":"uint256"}],"name":"collectTradingFees","outputs":[],"stateMutability":"nonpayable","type":"function"},{"inputs":[{"internalType":"address","name":"tokenA","type":"address"},{"internalType":"address","name":"tokenB","type":"address"}],"name":"createPair","outputs":[{"internalType":"address","name":"pair","type":"address"}],"stateMutability":"nonpayable","type":"function"},{"inputs":[{"internalType":"address","name":"tokenA","type":"address"},{"internalType":"address","name":"tokenB","type":"address"},{"components":[{"internalType":"bool","name":"emergencyStop","type":"bool"}],"internalType":"struct IDEXFactory.PoolSecurityConfig","name":"securityConfig","type":"tuple"}],"name":"createPair","outputs":[{"internalType":"address","name":"pair","type":"address"}],"stateMutability":"nonpayable","type":"function"},{"inputs":[{"internalType":"address","name":"tokenA","type":"address"},{"internalType":"address","name":"tokenB","type":"address"},{"internalType":"uint256","name":"amountA","type":"uint256"},{"internalType":"uint256","name":"amountB","type":"uint256"},{"internalType":"bool","name":"shouldLockLiquidity","type":"bool"},{"internalType":"uint256","name":"lockDuration","type":"uint256"},{"internalType":"string","name":"lockDescription","type":"string"}],"name":"createPairWithLiquidity","outputs":[{"internalType":"address","name":"pair","type":"address"},{"internalType":"uint256","name":"liquidity","type":"uint256"}],"stateMutability":"nonpayable","type":"function"},{"inputs":[],"name":"feeDenominator","outputs":[{"internalType":"uint256","name":"","type":"uint256"}],"stateMutability":"pure","type":"function"},{"inputs":[],"name":"feeRate","outputs":[{"internalType":"uint256","name":"","type":"uint256"}],"stateMutability":"view","type":"function"},{"inputs":[],"name":"getFeeDenominator","outputs":[{"internalType":"uint256","name":"","type":"uint256"}],"stateMutability":"pure","type":"function"},{"inputs":[],"name":"getFeeRate","outputs":[{"internalType":"uint256","name":"","type":"uint256"}],"stateMutability":"view","type":"function"},{"inputs":[{"internalType":"address","name":"tokenA","type":"address"},{"internalType":"address","name":"tokenB","type":"address"}],"name":"getPair","outputs":[{"internalType":"address","name":"pair","type":"address"}],"stateMutability":"view","type":"function"},{"inputs":[{"internalType":"address","name":"tokenA","type":"address"},{"internalType":"address","name":"tokenB","type":"address"}],"name":"getPairAddress","outputs":[{"internalType":"address","name":"","type":"address"}],"stateMutability":"view","type":"function"},{"inputs":[],"name":"liquidityLocker","outputs":[{"internalType":"address","name":"","type":"address"}],"stateMutability":"view","type":"function"},{"inputs":[{"internalType":"address","name":"pair","type":"address"},{"internalType":"address","name":"user","type":"address"},{"internalType":"uint256","name":"lockDuration","type":"uint256"},{"internalType":"string","name":"description","type":"string"}],"name":"lockInitialLiquidity","outputs":[],"stateMutability":"nonpayable","type":"function"},{"inputs":[{"internalType":"address","name":"pair","type":"address"},{"internalType":"address","name":"user","type":"address"},{"internalType":"uint256","name":"amount","type":"uint256"},{"internalType":"uint256","name":"lockDuration","type":"uint256"},{"internalType":"string","name":"description","type":"string"},{"internalType":"uint256","name":"lockFee","type":"uint256"}],"name":"lockLiquidity","outputs":[],"stateMutability":"nonpayable","type":"function"},{"inputs":[{"internalType":"address","name":"pair","type":"address"},{"internalType":"uint256","name":"amount","type":"uint256"},{"internalType":"uint256","name":"lockDuration","type":"uint256"},{"internalType":"string","name":"description","type":"string"}],"name":"lockLiquidity","outputs":[],"stateMutability":"payable","type":"function"},{"inputs":[],"name":"owner","outputs":[{"internalType":"address","name":"","type":"address"}],"stateMutability":"view","type":"function"},{"inputs":[],"name":"pause","outputs":[],"stateMutability":"nonpayable","type":"function"},{"inputs":[],"name":"renounceOwnership","outputs":[],"stateMutability":"nonpayable","type":"function"},{"inputs":[{"internalType":"address","name":"operator","type":"address"},{"internalType":"bool","name":"authorized","type":"bool"}],"name":"setAuthorizedOperator","outputs":[],"stateMutability":"nonpayable","type":"function"},{"inputs":[{"internalType":"bool","name":"stopped","type":"bool"}],"name":"setEmergencyStop","outputs":[],"stateMutability":"nonpayable","type":"function"},{"inputs":[{"internalType":"uint256","name":"newFeeRate","type":"uint256"}],"name":"setFeeRate","outputs":[],"stateMutability":"nonpayable","type":"function"},{"inputs":[{"internalType":"address","name":"_liquidityLocker","type":"address"}],"name":"setLiquidityLocker","outputs":[],"stateMutability":"nonpayable","type":"function"},{"inputs":[],"name":"totalPairsCreated","outputs":[{"internalType":"uint256","name":"","type":"uint256"}],"stateMutability":"view","type":"function"},{"inputs":[{"internalType":"address","name":"newOwner","type":"address"}],"name":"transferOwnership","outputs":[],"stateMutability":"nonpayable","type":"function"},{"inputs":[{"internalType":"address","name":"pair","type":"address"},{"internalType":"uint256","name":"lockIndex","type":"uint256"},{"internalType":"address","name":"user","type":"address"}],"name":"unlockLiquidity","outputs":[],"stateMutability":"nonpayable","type":"function"},{"inputs":[{"internalType":"address","name":"pair","type":"address"},{"internalType":"uint256","name":"lockIndex","type":"uint256"}],"name":"unlockLiquidity","outputs":[],"stateMutability":"nonpayable","type":"function"},{"inputs":[],"name":"unpause","outputs":[],"stateMutability":"nonpayable","type":"function"},{"inputs":[{"internalType":"uint256","name":"newFeeRate","type":"uint256"}],"name":"updateFeeRate","outputs":[],"stateMutability":"nonpayable","type":"function"},{"inputs":[],"name":"withdrawFees","outputs":[],"stateMutability":"nonpayable","type":"function"}],"evm":{"bytecode":{"linkReferences":{},"object":"60806040523462000030576200001e62000018620000d3565b620001e7565b60405161593462000312823961593490f35b600080fd5b634e487b7160e01b600052604160045260246000fd5b90601f01601f191681019081106001600160401b038211176200006d57604052565b62000035565b906200008a6200008260405190565b92836200004b565b565b6001600160a01b031690565b90565b6001600160a01b038116036200003057565b905051906200008a826200009b565b9060208282031262000030576200009891620000ad565b6200009862005c4680380380620000ea8162000073565b928339810190620000bc565b90600019905b9181191691161790565b6200009862000098620000989290565b906200012a62000098620001329262000106565b8254620000f6565b9055565b6200008c62000098620000989290565b620000989062000136565b156200015957565b60405162461bcd60e51b815260206004820152600a60248201526924a72b2fa627a1a5a2a960b11b6044820152606490fd5b0390fd5b906001600160a01b0390620000fc565b62000098906200008c906001600160a01b031682565b62000098906200019f565b6200009890620001b5565b90620001df620000986200013292620001c0565b82546200018f565b6200008a90620001f73362000233565b62000205601e600562000116565b6200022b620002196200008c600062000146565b6001600160a01b038316141562000151565b6004620001cb565b6200023f600062000146565b6001600160a01b0381166001600160a01b038316146200026557506200008a90620002af565b6200018b906200027460405190565b631e4fbdf760e01b8152918291600483016001600160a01b03909116815260200190565b62000098906200008c565b62000098905462000298565b620002bb6000620002a3565b90620002c9816000620001cb565b62000300620002f97f8be0079c531659141344cd1fd0a4f28419497f9722a3daafe3b4186f6b6457e093620001c0565b91620001c0565b916200030b60405190565b600090a356fe608060405260043610156200001357600080fd5b60003560e01c8063180b0d7e14620001aa5780631e3dd18b146200024c5780633f4ba83a146200021057806344e5550f146200024657806345596e2e1462000240578063476343ee14620002105780634bfc2e0b146200023a578063573044e31462000234578063574f2ba3146200022e5780636d49dfc31462000228578063715018a61462000222578063788f737d146200021c5780637b84fda514620002165780638456cb59146200021057806384e5eed0146200020a5780638da5cb5b146200020457806390c833f414620001fe57806392f6576e14620001f85780639759164a14620001f2578063978bbdb914620001ec578063a293e03c14620001e6578063ac44962914620001e0578063b2094a1014620001da578063b4f69a2f14620001d4578063be8796c114620001ce578063c73d7c7b14620001c8578063c9c6539614620001c2578063ce3b527314620001bc578063d73792a914620001aa578063e6a4390514620001b6578063f2fde38b14620001b0578063f4e1fc4114620001aa5763ff255efb036200025e5762000c35565b62000269565b62000c0a565b62000be8565b62000baf565b62000b47565b62000b34565b62000b03565b62000ae1565b62000ac4565b62000a70565b620009ad565b62000964565b6200091c565b620008ed565b620008a4565b620007e0565b620007bf565b620003d6565b620007a2565b62000788565b6200072b565b6200070a565b6200068f565b62000671565b62000620565b620005db565b620005b2565b620003a8565b60009103126200025e57565b600080fd5b9052565b565b346200025e576200027c36600462000252565b6200029a6200028a62000bde565b6040519182918290815260200190565b0390f35b805b036200025e57565b9050359062000267826200029e565b906020828203126200025e57620002ce91620002a8565b90565b7f4e487b7100000000000000000000000000000000000000000000000000000000600052603260045260246000fd5b805482101562000325576200031c600191600052602060002090565b91020190600090565b620002d1565b620002ce916008021c5b73ffffffffffffffffffffffffffffffffffffffff1690565b90620002ce91546200032b565b6002600062000368825490565b831015620003885750620002ce91620003819162000300565b906200034e565b80fd5b620002639062000335565b6020810192916200026791906200038b565b346200025e576200029a620003c9620003c3366004620002b7565b6200035b565b6040519182918262000396565b346200025e57620003e936600462000252565b620025b4565b620002a08162000335565b905035906200026782620003ef565b7f4e487b7100000000000000000000000000000000000000000000000000000000600052604160045260246000fd5b90601f017fffffffffffffffffffffffffffffffffffffffffffffffffffffffffffffffe016810190811067ffffffffffffffff8211176200047957604052565b62000409565b90620002676200048e60405190565b928362000438565b67ffffffffffffffff81116200047957602090601f017fffffffffffffffffffffffffffffffffffffffffffffffffffffffffffffffe0160190565b0190565b90826000939282370152565b90929192620004fb620004f58262000496565b6200047f565b938185526020850190828401116200025e576200026792620004d6565b9080601f830112156200025e57816020620002ce93359101620004e2565b909160c0828403126200025e576200054f8383620003fa565b926200055f8160208501620003fa565b926200056f8260408301620002a8565b926200057f8360608401620002a8565b9260808301359067ffffffffffffffff82116200025e57620005a881620002ce93860162000518565b9360a001620002a8565b346200025e57620005d6620005c936600462000536565b9493909392919262001e22565b604051005b346200025e57620005d6620005f2366004620002b7565b6200250f565b91906040838203126200025e57620002ce90620006168185620003fa565b93602001620002a8565b346200025e5762000633366004620005f8565b9062002555565b90916060828403126200025e57620002ce620006578484620003fa565b93620006678160208601620002a8565b93604001620003fa565b346200025e57620005d6620006883660046200063a565b9162002295565b346200025e57620006a236600462000252565b6200029a6200028a60025490565b906080828203126200025e57620006c88183620003fa565b92620006d88260208501620003fa565b92620006e88360408301620002a8565b92606082013567ffffffffffffffff81116200025e57620002ce920162000518565b346200025e57620005d662000721366004620006b0565b929190916200200a565b346200025e576200073e36600462000252565b620005d662000cbe565b801515620002a0565b90503590620002678262000748565b91906040838203126200025e57620002ce906200077e8185620003fa565b9360200162000751565b346200025e576200079b36600462000760565b90620025b4565b346200025e57620005d6620007b9366004620002b7565b62002540565b346200025e57620007d236600462000252565b6200029a6200028a6200251a565b346200025e57620007f336600462000252565b6200029a620003c962000c6d565b91906040838203126200025e57620002ce906200081f8185620003fa565b93602001620003fa565b62000335620002ce620002ce9273ffffffffffffffffffffffffffffffffffffffff1690565b620002ce9062000829565b620002ce906200084f565b9062000871906200085a565b600052602052604060002090565b6200089e620002ce926200089860019360009462000865565b62000865565b6200034e565b346200025e576200029a620003c9620008bf36600462000801565b906200087f565b620002ce620002ce620002ce9290565b620002ce6103e8620008c6565b620002ce620008d6565b346200025e576200090036600462000252565b6200029a6200028a620008e3565b620002ce600060046200034e565b346200025e576200092f36600462000252565b6200029a620003c96200090e565b620002ce916008021c81565b90620002ce91546200093d565b620002ce6000600562000949565b346200025e576200097736600462000252565b6200029a6200028a62000956565b906080828203126200025e576200099d8183620003fa565b92620006d88260208501620002a8565b620009ba36600462000985565b9291909162002672565b9060e0828203126200025e57620009dc8183620003fa565b92620009ec8260208501620003fa565b92620009fc8360408301620002a8565b9262000a0c8160608401620002a8565b9262000a1c826080850162000751565b9262000a2c8360a08301620002a8565b9260c082013567ffffffffffffffff81116200025e57620002ce920162000518565b9160206200026792949362000a6c604082019660008301906200038b565b0152565b346200025e5762000a9462000a87366004620009c4565b9594909493919362001945565b906200029a62000aa360405190565b9283928362000a4e565b906020828203126200025e57620002ce91620003fa565b346200025e57620005d662000adb36600462000aad565b6200241e565b346200025e576200029a620003c962000afc36600462000801565b9062001e02565b346200025e5762000b16366004620005f8565b90620026d1565b906020828203126200025e57620002ce9162000751565b346200025e57620003e936600462000b1d565b346200025e576200029a620003c962000b6236600462000801565b9062000e69565b908160209103126200025e5790565b90916060828403126200025e57620002ce62000b958484620003fa565b9362000ba58160208601620003fa565b9360400162000b69565b346200025e576200029a620003c962000bca36600462000b78565b91620025e0565b620002ce612710620008c6565b620002ce62000bd1565b346200025e576200029a620003c962000c0336600462000801565b9062001dc1565b346200025e57620005d662000c2136600462000aad565b62000db8565b620002ce6000600362000949565b346200025e5762000c4836600462000252565b6200029a6200028a62000c27565b620002ce9062000335565b620002ce905462000c56565b620002ce600062000c61565b62000c8362000cc8565b6200026762000ca8565b62000335620002ce620002ce9290565b620002ce9062000c8d565b6200026762000cb8600062000c9d565b62000e05565b6200026762000c79565b62000cd262000c6d565b339062000cea62000ce38362000335565b9162000335565b0362000cf35750565b62000d329062000d0260405190565b9182917f118cdaa70000000000000000000000000000000000000000000000000000000083526004830162000396565b0390fd5b620002679062000d4562000cc8565b62000d51600062000c9d565b62000d5c8162000335565b62000d678362000335565b1462000d795750620002679062000e05565b62000d329062000d8860405190565b9182917f1e4fbdf70000000000000000000000000000000000000000000000000000000083526004830162000396565b620002679062000d36565b9073ffffffffffffffffffffffffffffffffffffffff905b9181191691161790565b9062000df9620002ce62000e01926200085a565b825462000dc3565b9055565b62000e11600062000c61565b9062000e1f81600062000de5565b62000e5662000e4f7f8be0079c531659141344cd1fd0a4f28419497f9722a3daafe3b4186f6b6457e0936200085a565b916200085a565b9162000e6160405190565b80805b0390a3565b620002ce9190620011b1565b1562000e7d57565b6040517f08c379a000000000000000000000000000000000000000000000000000000000815260206004820152600260248201527f49440000000000000000000000000000000000000000000000000000000000006044820152606490fd5b1562000ee457565b6040517f08c379a000000000000000000000000000000000000000000000000000000000815260206004820152600260248201527f5a410000000000000000000000000000000000000000000000000000000000006044820152606490fd5b1562000f4b57565b6040517f08c379a000000000000000000000000000000000000000000000000000000000815260206004820152600260248201527f50430000000000000000000000000000000000000000000000000000000000006044820152606490fd5b62000fb9620002639162000335565b60601b90565b60148162000fd4620004d29383969562000faa565b01809262000faa565b1562000fe557565b6040517f08c379a000000000000000000000000000000000000000000000000000000000815260206004820152600360248201527f43324600000000000000000000000000000000000000000000000000000000006044820152606490fd5b9160206200026792949362001062604082019660008301906200038b565b01906200038b565b6040513d6000823e3d90fd5b9190600862000ddb9102916200109f73ffffffffffffffffffffffffffffffffffffffff841b90565b921b90565b9190620010b9620002ce62000e01936200085a565b90835462001076565b9081549168010000000000000000831015620004795782620010ee916001620002679501815562000300565b90620010a4565b620002ce9081565b620002ce9054620010f5565b7f4e487b7100000000000000000000000000000000000000000000000000000000600052601160045260246000fd5b7fffffffffffffffffffffffffffffffffffffffffffffffffffffffffffffffff8114620011665760010190565b62001109565b907fffffffffffffffffffffffffffffffffffffffffffffffffffffffffffffffff9062000ddb565b90620011a9620002ce62000e0192620008c6565b82546200116c565b9190620011d5620011c28262000335565b620011cd8562000335565b141562000e75565b6000620011e28162000c9d565b93620011ee8562000335565b620011f98262000335565b1415806200144a575b6200120d9062000edc565b620012188362000335565b620012238262000335565b1015620014435791905b600190620012656200124f620012498562000898888762000865565b62000c61565b6200125e62000ce38962000335565b1462000f43565b620012e9620012d66131a86200127e602082016200047f565b90808252620027576020830139604051620012b18160208101620012a48a8c8362000fbf565b9081038252038262000438565b620012c5620012be825190565b9160200190565b209060208151910185f59762000335565b620012e18862000335565b141562000fdd565b620012fe620012f8876200085a565b6200085a565b9163485cc95592803b156200025e57620013279383916200131e60405190565b95869260e01b90565b82528183816200133c8a8c6004840162001044565b03925af19182156200143d576200089885620013799388936200137f978c9762001409575b50506200089886620013798462000898888662000865565b62000de5565b620013b76002620013918682620010c2565b620013b3620013ab620013a56003620010fd565b62001138565b600362001195565b5490565b9162000e64620013f3620013ec7f0d3648bd0f6ba80134a33ba9275ac585d9d315f0ad8355cddefde31afa28d0e9936200085a565b936200085a565b93620013fe60405190565b918291888362000a4e565b816200142d92903d1062001435575b62001424818362000438565b81019062000252565b388062001361565b503d62001418565b6200106a565b906200122d565b506200120d6200145a8662000335565b620014658562000335565b1415905062001202565b156200147757565b6040517f08c379a000000000000000000000000000000000000000000000000000000000815260206004820152600b60248201527f494e565f414d4f554e54530000000000000000000000000000000000000000006044820152606490fd5b90505190620002678262000748565b906020828203126200025e57620002ce91620014d6565b60409062000a6c62000267949695939662001520606084019860008501906200038b565b60208301906200038b565b156200153357565b6040517f08c379a000000000000000000000000000000000000000000000000000000000815260206004820152600b60248201527f54465f415f4641494c45440000000000000000000000000000000000000000006044820152606490fd5b156200159a57565b6040517f08c379a000000000000000000000000000000000000000000000000000000000815260206004820152600b60248201527f54465f425f4641494c45440000000000000000000000000000000000000000006044820152606490fd5b9050519062000267826200029e565b906020828203126200025e57620002ce91620015f9565b156200162757565b6040517f08c379a000000000000000000000000000000000000000000000000000000000815260206004820152600b60248201527f4d494e545f4641494c45440000000000000000000000000000000000000000006044820152606490fd5b156200168e57565b6040517f08c379a000000000000000000000000000000000000000000000000000000000815260206004820152600960248201527f4e4f5f4c4f434b455200000000000000000000000000000000000000000000006044820152606490fd5b15620016f557565b6040517f08c379a000000000000000000000000000000000000000000000000000000000815260206004820152600c60248201527f494e565f4455524154494f4e00000000000000000000000000000000000000006044820152606490fd5b818102929181159184041417156200116657565b7f4e487b7100000000000000000000000000000000000000000000000000000000600052601260045260246000fd5b90620017a2565b9190565b908115620017ae570490565b62001768565b919082039182116200116657565b60005b838110620017d65750506000910152565b8181015183820152602001620017c5565b6200180c62001816602093620004d29362001800815190565b80835293849260200190565b95869101620017c2565b601f017fffffffffffffffffffffffffffffffffffffffffffffffffffffffffffffffe01690565b969593946200188062000267966200187960a096620018726200188e9760208e6200106260c082019a60008301906200038b565b60408c0152565b60608a0152565b8782036080890152620017e7565b940152565b90620018a3620004f58362000496565b918252565b3d15620018c557620018ba3d62001893565b903d6000602084013e565b606090565b15620018d257565b6040517f08c379a000000000000000000000000000000000000000000000000000000000815260206004820152600b60248201527f4c4f434b5f4641494c45440000000000000000000000000000000000000000006044820152606490fd5b908152604081019291620002679160200152565b969493909162001964620019598462000335565b620011cd8a62000335565b60009162001a13620019768462000c9d565b92620019828462000335565b6200198d8c62000335565b14158062001d9c575b620019a19062000edc565b620019ac85620008c6565b81118062001d82575b620019c0906200146f565b620019cc868c620011b1565b95620019dd620012f8889d6200085a565b9760206323b872dd93339a8a8a8d620019f560405190565b998a958694859362001a078d60e01b90565b855260048501620014fc565b03925af19384156200143d578760209462001a6462001a4c620012f88e97620012f88f9b62001a079860009162001d60575b506200152b565b9462001a5760405190565b9889978896879560e01b90565b03925af180156200143d5762001a849160009162001d2b575b5062001592565b1562001c9b579062001ab762001b199262001aaf62000ce362001aa8600462000c61565b9262000335565b141562001686565b62001ace62001ac682620008c6565b8611620016ed565b602062001adf620012f8856200085a565b636a6278429062001b0d8462001af5306200085a565b9362001b0060405190565b9788958694859360e01b90565b83526004830162000396565b03925af19182156200143d5760009262001c64575b5080829762001b3d82620008c6565b841162001b4a906200161f565b62001b56600a620008c6565b62001b62908562001754565b62001b6f612710620008c6565b62001b7a9162001797565b938462001b8791620017b4565b9362001b94600462000c61565b918662001ba060405190565b9283928b898c602087017f44e5550f0000000000000000000000000000000000000000000000000000000081526004019562001bdc966200183e565b60208201810382520362001bf1908262000438565b82602082019151925af162001c05620018a8565b5062001c1190620018ca565b7f1888a9947a0ba12fbcaea833c7145e4ae63c88020edc424d7eda6753fc3411e09162001c3e906200085a565b9262001c4a906200085a565b9362001c5560405190565b91829162000e64918362001931565b62001c8b91925060203d811162001c93575b62001c82818362000438565b81019062001608565b903862001b2e565b503d62001c76565b50945062001cd792509062001cb6620012f86020936200085a565b62001b0d86636a62784262001cca60405190565b9687958694859360e01b90565b03925af180156200143d57620002679160009162001d08575b5062001d016200179e8295620008c6565b116200161f565b62001d24915060203d811162001c935762001c82818362000438565b3862001cf0565b62001d51915060203d811162001d58575b62001d48818362000438565b810190620014e5565b3862001a7d565b503d62001d3c565b62001d7b91508c3d811162001d585762001d48818362000438565b3862001a45565b50620019c062001d9286620008c6565b88119050620019b5565b50620019a162001dac8562000335565b62001db78862000335565b1415905062001996565b620002ce91620012499162001dd68262000335565b62001de18262000335565b101562001df65762000898905b600162000865565b90620008989062001dee565b620002ce9162000898620012499262001e19600090565b50600162000865565b62001eba9062001eaa620002679762001e609762001e41600462000c61565b976000998a9962001aaf62000ce362001e5a8d62000c9d565b62000335565b62001e6c600462000c61565b9762001e7760405190565b9788966004602089017f44e5550f000000000000000000000000000000000000000000000000000000008152016200183e565b6020820181038252038262000438565b82602082019151925af162001ece620018a8565b50620018ca565b1562001edd57565b6040517f08c379a000000000000000000000000000000000000000000000000000000000815260206004820152600860248201527f494e565f504149520000000000000000000000000000000000000000000000006044820152606490fd5b1562001f4457565b6040517f08c379a000000000000000000000000000000000000000000000000000000000815260206004820152600560248201527f4e4f5f4c500000000000000000000000000000000000000000000000000000006044820152606490fd5b1562001fab57565b6040517f08c379a000000000000000000000000000000000000000000000000000000000815260206004820152600960248201527f54465f4641494c454400000000000000000000000000000000000000000000006044820152606490fd5b909162002018600462000c61565b93620020566200204360009662001e5a620020338962000c9d565b9162001aaf62000ce38462000335565b6200204e8562000335565b141562001ed5565b62002065620012f8846200085a565b946370a08231620020806200207960405190565b9160e01b90565b81526020818062002095896004830162000396565b03818a5afa9081156200143d57600091620021e0575b50620020c3620020bb83620008c6565b821162001f3c565b620020f2620020de620020d7600a620008c6565b8362001754565b620020eb612710620008c6565b9062001797565b602087620021018385620017b4565b9962001a07866323b872dd620021336200211b306200085a565b986200212660405190565b998a978896879560e01b90565b03925af19081156200143d5762001eba8762001eaa8a936200217498620021678e978a99600091620021bd575b5062001fa3565b8a62001e6c600462000c61565b620021a4620013ec7f1888a9947a0ba12fbcaea833c7145e4ae63c88020edc424d7eda6753fc3411e0936200085a565b9362000e64620021b360405190565b9283928362001931565b620021d9915060203d811162001d585762001d48818362000438565b3862002160565b620021fc915060203d811162001c935762001c82818362000438565b38620020ab565b6040906200106262000267949695939662002227606084019860008501906200038b565b6020830152565b156200223657565b6040517f08c379a000000000000000000000000000000000000000000000000000000000815260206004820152600d60248201527f554e4c4f434b5f4641494c4544000000000000000000000000000000000000006044820152606490fd5b6200026792620022c89262002316620022af600462000c61565b93600095869562001aaf62000ce362001e5a8962000c9d565b62001eaa620022d8600462000c61565b94620022e360405190565b9485936004602086017f573044e30000000000000000000000000000000000000000000000000000000081520162002203565b82602082019151925af16200232a620018a8565b506200222e565b62000267906200234062000cc8565b620023ad565b156200234e57565b6040517f08c379a000000000000000000000000000000000000000000000000000000000815260206004820152600a60248201527f494e565f4c4f434b4552000000000000000000000000000000000000000000006044820152606490fd5b620023d4620023c162001e5a600062000c9d565b620023cc8362000335565b141562002346565b620023e0600462000c61565b90620023ee81600462000de5565b62000e5662000e4f7f98816c25fdd38fe4567b76858ce644a62161b5272648b051b397055a72506892936200085a565b620002679062002331565b62000267906200243862000cc8565b620024a5565b156200244657565b6040517f08c379a000000000000000000000000000000000000000000000000000000000815260206004820152600c60248201527f4645455f544f4f5f4849474800000000000000000000000000000000000000006044820152606490fd5b620024c0620024b7620002ce620008d6565b8211156200243e565b620024cc6005620010fd565b90620024da81600562001195565b7f14914da2bf76024616fbe1859783fcd4dbddcb179b1f3a854949fbf920dcb957916200250a620021b360405190565b0390a1565b620002679062002429565b620002ce6005620010fd565b62000267906200253562000cc8565b62000267906200250f565b620002679062002526565b6200255562000cc8565b6040517f08c379a000000000000000000000000000000000000000000000000000000000815260206004820152600f60248201527f4e4f545f494d504c454d454e54454400000000000000000000000000000000006044820152606490fd5b6200254b565b905051906200026782620003ef565b906020828203126200025e57620002ce91620025ba565b6020919250620025ee600090565b50620025fa306200085a565b62002620600063c9c653966200262c6200261360405190565b9788968795869460e01b90565b84526004840162001044565b03925af19081156200143d5760009162002644575090565b620002ce915060203d81116200266a575b62002661818362000438565b810190620025c9565b503d62002655565b6040517f08c379a000000000000000000000000000000000000000000000000000000000815260206004820152601f60248201527f557365206e6577206c6f636b4c6971756964697479207369676e6174757265006044820152606490fd5b6040517f08c379a000000000000000000000000000000000000000000000000000000000815260206004820152602160248201527f557365206e657720756e6c6f636b4c6971756964697479207369676e6174757260448201527f65000000000000000000000000000000000000000000000000000000000000006064820152608490fdfe6080604052346200002657620000146200009b565b60405161308c6200011c823961308c90f35b600080fd5b906001600160a01b03905b9181191691161790565b620000569062000059906001600160a01b031682565b90565b6001600160a01b031690565b620000569062000040565b620000569062000065565b906200008f62000056620000979262000070565b82546200002b565b9055565b620000a5620000b4565b620000b23360046200007b565b565b620000b2620000b262000105565b6200005662000056620000569290565b620000566001620000c2565b906000199062000036565b90620000fd620000566200009792620000c2565b8254620000de565b620000b262000113620000d2565b6000620000e956fe6080604052600436101561001257600080fd5b60003560e01c8063022c0d9f1461021257806306fdde031461020d5780630902f1ac14610208578063095ea7b3146102035780630dfe1681146101fe57806318160ddd146101f957806323b872dd146101f457806330adf81f146101ef578063313ce567146101ea5780633566414c146101e55780633644e515146101e0578063485cc955146101db5780635909c0d5146101d65780635a3d5493146101d15780635c975abb146101cc5780636a627842146101c757806370a08231146101c25780637174b568146101bd5780637464fc3d146101b85780637ecebe00146101b3578063820d25a8146101ae57806389afcb44146101a957806395d89b41146101a4578063a9059cbb1461019f578063ba9a7a561461019a578063bc25cf7714610195578063be11b1d014610190578063c45a01551461018b578063d21220a714610186578063d505accf14610181578063dd62ed3e1461017c5763fff6cae90361022057610ac0565b610aa4565b610a6b565b6109d4565b6109ad565b610986565b610951565b610936565b6108fa565b6108df565b6108b1565b610881565b610828565b6107fb565b6107e0565b6107b3565b610742565b610713565b6106f8565b6106d1565b6106ac565b61066e565b610653565b6105cf565b610596565b61057a565b61051e565b6104ba565b610455565b6103e2565b6103b7565b6102fd565b805b0361022057565b600080fd5b9050359061023282610217565b565b73ffffffffffffffffffffffffffffffffffffffff1690565b90565b73ffffffffffffffffffffffffffffffffffffffff8116610219565b9050359061023282610250565b909182601f830112156102205781359167ffffffffffffffff831161022057602001926001830284011161022057565b90608082820312610220576102be8183610225565b926102cc8260208501610225565b926102da836040830161026c565b92606082013567ffffffffffffffff8111610220576102f99201610279565b9091565b34610220576103196103103660046102a9565b9392909261253a565b604051005b0390f35b600091031261022057565b60005b8381106103405750506000910152565b8181015183820152602001610330565b61037161037a6020936103a293610365815190565b80835293849260200190565b9586910161032d565b601f017fffffffffffffffffffffffffffffffffffffffffffffffffffffffffffffffe01690565b0190565b602080825261024d92910190610350565b34610220576103c7366004610322565b61031e6103d2612951565b604051918291826103a6565b9052565b34610220576103f2366004610322565b61031e6103fd610e80565b604080516dffffffffffffffffffffffffffff948516815293909216602084015263ffffffff16908201529081906060820190565b91906040838203126102205761024d9061044c818561026c565b93602001610225565b346102205761031e61047161046b366004610432565b906127a1565b60405191829182901515815260200190565b61024d916008021c73ffffffffffffffffffffffffffffffffffffffff1690565b9061024d9154610483565b61024d6001806104a4565b34610220576104ca366004610322565b61031e6104d56104af565b6040519182918273ffffffffffffffffffffffffffffffffffffffff909116815260200190565b61024d916008021c81565b9061024d91546104fc565b61024d60006008610507565b346102205761052e366004610322565b61031e610539610512565b6040515b9182918290815260200190565b90916060828403126102205761024d610563848461026c565b93610571816020860161026c565b93604001610225565b346102205761031e61047161059036600461054a565b91612863565b34610220576105a6366004610322565b61031e7f6e71edae12b1b97f4d1f60370fef10105fa2faae0126114a169c64845d6126c9610539565b34610220576105df366004610322565b61031e6105ea6129a9565b6040519182918260ff909116815260200190565b906020828203126102205761024d91610225565b905b600052602052604060002090565b61024d916008021c5b60ff1690565b9061024d9154610622565b61024d9061064e600b91600092610612565b610631565b346102205761031e6104716106693660046105fe565b61063c565b346102205761067e366004610322565b61031e6105396129b3565b91906040838203126102205761024d906106a3818561026c565b9360200161026c565b34610220576103196106bf366004610689565b90610b74565b61024d60006005610507565b34610220576106e1366004610322565b61031e6105396106c5565b61024d60006006610507565b3461022057610708366004610322565b61031e6105396106ec565b3461022057610723366004610322565b61031e610471610ad8565b906020828203126102205761024d9161026c565b346102205761031e61053961075836600461072e565b611504565b61023461024d61024d9273ffffffffffffffffffffffffffffffffffffffff1690565b61024d9061075d565b61024d90610780565b9061061490610789565b61024d906107ae600791600092610792565b610507565b346102205761031e6105396107c936600461072e565b61079c565b61024d906107ae600a91600092610612565b346102205761031e6105396107f63660046105fe565b6107ce565b346102205761080b366004610322565b61031e610539612f2d565b61024d906107ae600d91600092610792565b346102205761031e61053961083e36600461072e565b610816565b908160209103126102205790565b90916060828403126102205761024d61086a848461026c565b93610878816020860161026c565b93604001610843565b3461022057610319610894366004610851565b91610e75565b9081526040810192916102329160200152565b0152565b34610220576108c96108c436600461072e565b611d20565b9061031e6108d660405190565b9283928361089a565b34610220576108ef366004610322565b61031e6103d2612994565b346102205761031e610471610910366004610432565b90612802565b61024d61024d61024d9290565b61024d6103e8610916565b61024d610923565b3461022057610946366004610322565b61031e61053961092e565b346102205761031961096436600461072e565b612df7565b61024d9061062b565b61024d9054610969565b61024d6009610972565b3461022057610996366004610322565b61031e61047161097c565b61024d600060046104a4565b34610220576109bd366004610322565b61031e6104d56109a1565b61024d600060026104a4565b34610220576109e4366004610322565b61031e6104d56109c8565b60ff8116610219565b90503590610232826109ef565b60e08183031261022057610a19828261026c565b92610a27836020840161026c565b92610a358160408501610225565b92610a438260608301610225565b9261024d610a5484608085016109f8565b93610a628160a08601610225565b9360c001610225565b3461022057610319610a7e366004610a05565b95949094939193612caf565b6107ae61024d92610a9f600c93600094610792565b610792565b346102205761031e610539610aba366004610689565b90610a8a565b3461022057610ad0366004610322565b610319612626565b61024d6001610972565b7f4e487b7100000000000000000000000000000000000000000000000000000000600052604160045260246000fd5b90601f017fffffffffffffffffffffffffffffffffffffffffffffffffffffffffffffffe016810190811067ffffffffffffffff821117610b5157604052565b610ae2565b90610232610b6360405190565b9283610b11565b61024d6020610b56565b61023291600191610b8d610b86610b6a565b9315158452565b610cda565b61024d9060081c610234565b61024d9054610b92565b61023461024d61024d9290565b61024d90610ba8565b15610bc557565b6040517f08c379a000000000000000000000000000000000000000000000000000000000815260206004820152601c60248201527f444558506169723a20414c52454144595f494e495449414c495a4544000000006044820152606490fd5b0390fd5b9074ffffffffffffffffffffffffffffffffffffffff009060081b5b9181191691161790565b90610c5e61024d610c6592610789565b8254610c28565b9055565b9073ffffffffffffffffffffffffffffffffffffffff90610c44565b90610c9561024d610c6592610789565b8254610c69565b9060ff90610c44565b90610cb561024d610c6592151590565b8254610c9c565b61023291610cca9051151590565b90610ca5565b9061023291610cbc565b90610d26610d2d92610d1f610cef6001610b9e565b610d19610cff6102346000610bb5565b9173ffffffffffffffffffffffffffffffffffffffff1690565b14610bbe565b6001610c4e565b6002610c85565b610d38816009610cd0565b610d767fb1102bf8599badf4360419344e57744751c4d685c0864e807454e60f8e6addbc91610d6660405190565b9182918290511515815260200190565b0390a1565b61024d90610234565b61024d9054610d7b565b15610d9557565b6040517f08c379a000000000000000000000000000000000000000000000000000000000815260206004820152601260248201527f444558506169723a20464f5242494444454e00000000000000000000000000006044820152606490fd5b906102329291610e1433610e0e610cff6102346004610d84565b14610d8e565b610e62565b801515610219565b9050359061023282610e19565b91909160208184031261022057610e51610e486020610b56565b93600092610e21565b90830152565b61024d903690610e2e565b90610e6f61023293610e57565b91610cda565b906102329291610df4565b610e88610ee2565b9192909190565b61024d905b6dffffffffffffffffffffffffffff1690565b61024d9054610e8f565b61024d9060701c610e94565b61024d9054610eb1565b61024d9060e01c5b63ffffffff1690565b61024d9054610ec7565b610eec6003610ea7565b90610ef76003610ebd565b9061024d6003610ed8565b90610f1491610f0f611591565b610f1d565b906102326115ea565b9061024d91610f2a61150f565b9061024d91611220565b9050519061023282610217565b906020828203126102205761024d91610f34565b6040513d6000823e3d90fd5b61024d61024d61024d926dffffffffffffffffffffffffffff1690565b7f4e487b7100000000000000000000000000000000000000000000000000000000600052601160045260246000fd5b91908203918211610fba57565b610f7e565b15610fc657565b6040517f08c379a000000000000000000000000000000000000000000000000000000000815260206004820152602260248201527f444558506169723a20494e53554646494349454e545f494e5055545f414d4f5560448201527f4e540000000000000000000000000000000000000000000000000000000000006064820152608490fd5b61024d9081565b61024d905461104b565b610e9461024d61024d9290565b1561107057565b6040517f08c379a000000000000000000000000000000000000000000000000000000000815260206004820152601e60248201527f444558506169723a20494e53554646494349454e545f524553455256455300006044820152606490fd5b9190918083025b928184041490151715610fba57565b7f4e487b7100000000000000000000000000000000000000000000000000000000600052601260045260246000fd5b9061111e565b9190565b908115611129570490565b6110e5565b1561113557565b6040517f08c379a000000000000000000000000000000000000000000000000000000000815260206004820152602660248201527f444558506169723a20494e53554646494349454e545f4c49515549444954595f60448201527f4d494e54454400000000000000000000000000000000000000000000000000006064820152608490fd5b156111c157565b6040517f08c379a000000000000000000000000000000000000000000000000000000000815260206004820152601c60248201527f444558506169723a204c49515549444954595f544f4f5f4c41524745000000006044820152606490fd5b509061122a610ee2565b509061124161123c61123c6001610b9e565b610789565b6370a0823161124f30610789565b602061125a60405190565b80946112668560e01b90565b825273ffffffffffffffffffffffffffffffffffffffff8416600483015260249082905afa9081156114df576112f1936000926114e4575b50602091926112cd6112b661123c61123c6002610d84565b916112c060405190565b9687948593849360e01b90565b835273ffffffffffffffffffffffffffffffffffffffff1660048301526024820190565b03915afa9182156114df576000926114af575b5061131761131184610f61565b82610fad565b61132961132386610f61565b84610fad565b906113346000610916565b811180611498575b61134590610fbf565b61134f6008611052565b6113596000610916565b810361140057506113a59761138061137b61023298979695946113fb946110cf565b6126f5565b9061139361138c610923565b8093610fad565b998a926113a06000610bb5565b61262e565b6113b96113b26000610916565b831161112e565b6113a06113f361024d7fffffffffffffffffffffffffffffffffffffffffffffffffffffffffffffffff6113ed6008611052565b90610fad565b8311156111ba565b6117e6565b8594939261147561146c8361146661145761147b966113fb986114526102329f9e8f90611444611430600061105c565b916dffffffffffffffffffffffffffff1690565b119081611482575b50611069565b6110cf565b6114608b610f61565b90611114565b936110cf565b61146089610f61565b906126e3565b80986113a5565b9050611491611430600061105c565b118f61144c565b506113456114a66000610916565b8311905061133c565b6114d191925060203d81116114d8575b6114c98183610b11565b810190610f41565b9038611304565b503d6114bf565b610f55565b602092506114fe90833d81116114d8576114c98183610b11565b9161129e565b61024d906000610f02565b611517610ad8565b61151d57565b6040517fd93c0665000000000000000000000000000000000000000000000000000000008152600490fd5b61024d6002610916565b907fffffffffffffffffffffffffffffffffffffffffffffffffffffffffffffffff90610c44565b9061158a61024d610c6592610916565b8254611552565b61159b6000611052565b6115a3611548565b9081146115b55761023290600061157a565b6040517f3ee5aeb5000000000000000000000000000000000000000000000000000000008152600490fd5b61024d6001610916565b6102326115f56115e0565b600061157a565b1561160357565b6040517f08c379a000000000000000000000000000000000000000000000000000000000815260206004820152601160248201527f444558506169723a204f564552464c4f570000000000000000000000000000006044820152606490fd5b8115611129570690565b610ecf61024d61024d9290565b63ffffffff908116911690039063ffffffff8211610fba57565b61024d61024d61024d927bffffffffffffffffffffffffffffffffffffffffffffffffffffffff1690565b61024d61024d61024d9263ffffffff1690565b91908201809211610fba57565b906dffffffffffffffffffffffffffff90610c44565b610e9461024d61024d926dffffffffffffffffffffffffffff1690565b9061172161024d610c65926116f4565b82546116de565b907bffffffffffffffffffffffffffff00000000000000000000000000009060701b610c44565b9061175f61024d610c65926116f4565b8254611728565b907fffffffff000000000000000000000000000000000000000000000000000000009060e01b610c44565b610ecf61024d61024d9263ffffffff1690565b906117b461024d610c6592611791565b8254611766565b6103de90610f61565b9160206102329294936117df604082019660008301906117bb565b01906117bb565b6118999161188d611886611892936118a0976118236dffffffffffffffffffffffffffff61181381610f61565b84111590816119b6575b506115fc565b61184361183e42611838640100000000610916565b90611662565b61166c565b976118576118516003610ed8565b8a611679565b9160006118638161166c565b63ffffffff8516119081611992575b8161196f575b506118eb575b50505061105c565b6003611711565b61105c565b600361174f565b60036117a4565b6118aa6003610ea7565b6118b46003610ebd565b7fcf2aa50876cdfbb541206f89af0ee78d44a2abf8d328e37fa4917f982149848a91610d766118e260405190565b928392836117c4565b6119679261192f6119506119218461191c8761194b6119446119356119266119216119609d61191c6119569e612ff7565b613041565b611693565b61192f8b6116be565b906110cf565b61193f6005611052565b6116d1565b600561157a565b612ff7565b916116be565b61193f6006611052565b600661157a565b38808061187e565b611979915061105c565b6dffffffffffffffffffffffffffff8216141538611878565b905061199d8161105c565b6dffffffffffffffffffffffffffff8416141590611872565b6119c09150610f61565b8611153861181d565b906119dc92916119d7611591565b6119e6565b90916102326115ea565b906102f992916119f461150f565b906102f99291611a8b565b15611a0657565b6040517f08c379a000000000000000000000000000000000000000000000000000000000815260206004820152602660248201527f444558506169723a20494e53554646494349454e545f4c49515549444954595f60448201527f4255524e454400000000000000000000000000000000000000000000000000006064820152608490fd5b9291925050611a98610ee2565b509190611aa56001610b9e565b92611ab9611ab36002610d84565b94610789565b91611ac383610789565b926370a0823190611ad330610789565b60405197611ae18460e01b90565b895273ffffffffffffffffffffffffffffffffffffffff821660048a01526020896024818a5afa9889156114df57600099611cfc575b50611b2190610789565b611b2a81610789565b92611b3460405190565b9a611b3f8660e01b90565b8c5273ffffffffffffffffffffffffffffffffffffffff841660048d015260208c602481885afa9b8c156114df5760009c611cdc575b50611b81846007610792565b611b8a90611052565b92611b956008611052565b611ba0819d866110cf565b90611baa91611114565b9b8c9d611bb790866110cf565b90611bc191611114565b92839c83600092611bd184610916565b83118098611bef611bfa9a611bf597611bf594611cca575b506119ff565b8a6126b7565b611d94565b6020611c0560405190565b8097611c118660e01b90565b825273ffffffffffffffffffffffffffffffffffffffff8416600483015260249082905afa9182156114df57611c6996600093611ca6575b506112cd839460209450611c5c60405190565b9889948593849360e01b90565b03915afa9081156114df5761023294600092611c86575b506117e6565b611c9f91925060203d81116114d8576114c98183610b11565b9038611c80565b60209350611cc36112cd91853d81116114d8576114c98183610b11565b9350611c49565b611cd49150610916565b8a1138611be9565b611cf5919c5060203d81116114d8576114c98183610b11565b9a38611b75565b611b21919950611d199060203d81116114d8576114c98183610b11565b9890611b17565b6102f9906000806119c9565b611d45611d3f61024d9263ffffffff1690565b60e01b90565b7fffffffff000000000000000000000000000000000000000000000000000000001690565b73ffffffffffffffffffffffffffffffffffffffff90911681526040810192916102329160200152565b611dd7600492611dc861023295611dae63a9059cbb611d2c565b92611db860405190565b9687946020860190815201611d6a565b60208201810382520383610b11565b906000602091611de5600090565b50828151910182855af115610f5557600080513d611e0561111a84610916565b03611e835750611e2161111a611e1a84610789565b3b92610916565b145b611e2a5750565b611e36610c2491610789565b6040519182917f5274afe70000000000000000000000000000000000000000000000000000000083526004830173ffffffffffffffffffffffffffffffffffffffff909116815260200190565b9050611e9261111a6001610916565b1415611e23565b90611eae94939291611ea9611591565b611eb6565b6102326115ea565b9061023294939291611ec661150f565b906102329493929161210c565b15611eda57565b6040517f08c379a000000000000000000000000000000000000000000000000000000000815260206004820152602360248201527f444558506169723a20494e53554646494349454e545f4f55545055545f414d4f60448201527f554e5400000000000000000000000000000000000000000000000000000000006064820152608490fd5b15611f6657565b6040517f08c379a000000000000000000000000000000000000000000000000000000000815260206004820152601f60248201527f444558506169723a20494e53554646494349454e545f4c4951554944495459006044820152606490fd5b15611fcc57565b6040517f08c379a000000000000000000000000000000000000000000000000000000000815260206004820152601360248201527f444558506169723a20494e56414c49445f544f000000000000000000000000006044820152606490fd5b90826000939282370152565b919061037a8161204e816103a29560209181520190565b809561202b565b90939161024d95936120926120999261208b6080860198600087019073ffffffffffffffffffffffffffffffffffffffff169052565b6020850152565b6040830152565b6060818503910152612037565b156120ad57565b6040517f08c379a000000000000000000000000000000000000000000000000000000000815260206004820152600a60248201527f444558506169723a204b000000000000000000000000000000000000000000006044820152606490fd5b93929192600061211b81610916565b861191828315612524575b61212f90611ed3565b612137610ee2565b5096909561214487610f61565b89108061250e575b61215590611f5f565b61215f6001610b9e565b9161216a6002610d84565b9573ffffffffffffffffffffffffffffffffffffffff841673ffffffffffffffffffffffffffffffffffffffff83161415806124eb575b6121aa90611fc5565b6124d8575b6121b885610916565b87116124c5575b836121cc61111a87610916565b1161242f575b50506121e2915061123c90610789565b956370a082316121f130610789565b9060206121fd60405190565b809a6122098460e01b90565b825273ffffffffffffffffffffffffffffffffffffffff8516600483015260249082905afa9485156114df5761226c996000966123fd575b50906112cd61225561123c60209594610789565b9161225f60405190565b9b8c948593849360e01b90565b03915afa9384156114df57858792610232996000976123c5575b50926123166113fb959361192f9361235c96826122ae61024d836122a986610f61565b610fad565b8b11156123af576122a96122d46122ce61024d946122a96122da97610f61565b8d610fad565b96610f61565b6000908a111561239f57506122f56122fb916122a98d610f61565b89610fad565b935b61230681610916565b831190811561238d575b50610fbf565b6113ed6103e89361192f61235661235061234a61233b6123358a610916565b8d6110cf565b6113ed60039861192f8a610916565b97610916565b8b6110cf565b93610916565b61238661111a61024d61237a61237189610f61565b61192f8b610f61565b61192f620f4240610916565b10156120a6565b6123979150610916565b841138612310565b6123a99150610916565b936122fd565b6122da925061024d91506122a96122d489610916565b61235c949197506113fb959361192f936123ef6123169360203d81116114d8576114c98183610b11565b999396509350939550612286565b6020939291965061225561123c6124236112cd93873d81116114d8576114c98183610b11565b98939495505050612241565b61123c61243b91610789565b9063bea9cf36913391813b15610220578680946124798e9861246e948d61246160405190565b9b8c998a98899760e01b90565b875260048701612055565b03925af19081156114df576121e29261123c92612499575b8192506121d2565b6124b890853d87116124be575b6124b08183610b11565b810190610322565b38612491565b503d6124a6565b6124d38782611bf589610789565b6121bf565b6124e68a82611bf586610789565b6121af565b5073ffffffffffffffffffffffffffffffffffffffff82811690881614156121a1565b5061215561251b89610f61565b8710905061214c565b5061212f61253183610916565b85119050612126565b9061023294939291611e99565b61254f611591565b611eae61256261123c61123c6001610b9e565b6370a0823161257030610789565b602061257b60405190565b80946125878560e01b90565b825273ffffffffffffffffffffffffffffffffffffffff8416600483015260249082905afa9081156114df576125d6936000926114e45750602091926112cd6112b661123c61123c6002610d84565b03915afa80156114df5761023292600091612608575b506125f76003610ea7565b906126026003610ebd565b926117e6565b612620915060203d81116114d8576114c98183610b11565b386125ec565b610232612547565b906126b16126a76102329361266161264a8561193f6008611052565b61265a61111a61024d6008611052565b10156115fc565b600761268f61267c8661193f6126778686610792565b611052565b61265a61111a61024d6126778787610792565b610a9f6126a08661193f6008611052565b600861157a565b9161193f83611052565b9061157a565b610232916126d96126cc6126a0936007610792565b6126b1836122a983611052565b6122a96008611052565b90808210156126f0575090565b905090565b9060006127026003610916565b831115612780575061273782600261272261271c82610916565b83611114565b91600193849361273185610916565b906116d1565b935b612744575b50505050565b9091929461274f8190565b86101561277a57506127716127688661193f8185611114565b61146084610916565b92919082612739565b9461273e565b9161278e61111a6000610916565b0361279557565b905061024d6001610916565b336127ba836127b584610a9f85600c610792565b61157a565b6127fa6127f06127ea7f8c5be1e5ebec7d5bd14f71427d1e84f3dd0314c0f7b2291e5b200ac8c7c3b92593610789565b93610789565b9361053d60405190565b0390a3600190565b33612833612826836007610a9f6128198683610792565b6126b1896122a983611052565b6126b18561193f83611052565b6127fa6127f06127ea7fddf252ad1be2c89b69c2b068fc378daa952ba7f163c4a11628f55a4df523b3ef93610789565b600c816128708183610792565b61287e612677338093610792565b60010161289f575b505050612833612826836007610a9f6128198683610792565b610a9f6128af926128bc94610792565b6126b1856122a983611052565b388181612886565b67ffffffffffffffff8111610b5157602090601f017fffffffffffffffffffffffffffffffffffffffffffffffffffffffffffffffe0160190565b9061291161290c836128c4565b610b56565b918252565b612920600c6128ff565b7f444558204c5020546f6b656e0000000000000000000000000000000000000000602082015290565b61024d612916565b61024d612949565b61296360026128ff565b7f4c50000000000000000000000000000000000000000000000000000000000000602082015290565b61024d612959565b61024d61298c565b61062b61024d61024d9290565b61024d601261299c565b61024d612a4b565b6129c560016128ff565b7f3100000000000000000000000000000000000000000000000000000000000000602082015290565b61024d6129bb565b9095949261023294612a28612a2f92612a21608096612a1a60a088019c6000890152565b6020870152565b6040850152565b6060830152565b019073ffffffffffffffffffffffffffffffffffffffff169052565b7f8b73c3c69bb8fe3d512ecc4cf759cc79239f7b179b0ffacaa9a75d522b39400f612ad0612a77612949565b612a89612a82825190565b9160200190565b20612a926129ee565b612a9d612a82825190565b2092612ac446612aac30610789565b90612ab660405190565b9687956020870195866129f6565b90810382520382610b11565b612adb612a82825190565b2090565b15612ae657565b6040517f08c379a000000000000000000000000000000000000000000000000000000000815260206004820152601060248201527f444558506169723a2045585049524544000000000000000000000000000000006044820152606490fd5b7fffffffffffffffffffffffffffffffffffffffffffffffffffffffffffffffff8114610fba5760010190565b9194612bdb6108ad92989795612bd460a096612bb76102329a612b9a60c08a019e60008b0152565b73ffffffffffffffffffffffffffffffffffffffff166020890152565b73ffffffffffffffffffffffffffffffffffffffff166040870152565b6060850152565b6080830152565b6020809392612c1a6129116103a2947f1901000000000000000000000000000000000000000000000000000000000000815260020190565b01918252565b6108ad61023294612092606094989795612c3f608086019a6000870152565b60ff166020850152565b15612c5057565b6040517f08c379a000000000000000000000000000000000000000000000000000000000815260206004820152601a60248201527f444558506169723a20494e56414c49445f5349474e41545552450000000000006044820152606490fd5b939094612d758397612ac4612d5689612d328a600099612ac460209c612cdd612cd54290565b821015612adf565b7f6e71edae12b1b97f4d1f60370fef10105fa2faae0126114a169c64845d6126c992612d0a85600d610792565b90612d21612d1783611052565b926126b184612b45565b604051978896602088019687612b72565b612d3d612a82825190565b20612d46612a4b565b6040519384928b84019283612be2565b612d61612a82825190565b2092612d6c60405190565b94859485612c20565b838052039060015afa156114df57600051612daf90612da973ffffffffffffffffffffffffffffffffffffffff8416610cff565b14612c49565b612dc2836127b584610a9f85600c610792565b612df26127f06127ea7f8c5be1e5ebec7d5bd14f71427d1e84f3dd0314c0f7b2291e5b200ac8c7c3b92593610789565b0390a3565b612e016001610b9e565b612e14612e0e6002610d84565b91610789565b91612e1e83610789565b926370a0823192612e2e30610789565b906020612e3a60405190565b8097612e468860e01b90565b825273ffffffffffffffffffffffffffffffffffffffff8516600483015260249082905afa9081156114df5761123c60209486612e9f612ea595612ec99b600091612f10575b506113ed612e9a6003610ea7565b610f61565b91611d94565b936112cd612eb286610789565b91612ebc60405190565b9788948593849360e01b90565b03915afa9283156114df5761023293612e9f91600091612ef2575b506113ed612e9a6003610ebd565b612f0a915060203d81116114d8576114c98183610b11565b38612ee4565b612f279150893d81116114d8576114c98183610b11565b38612e8c565b61024d612f3d612e9a6003610ea7565b61192f612e9a6003610ebd565b612f6761024d61024d926dffffffffffffffffffffffffffff1690565b7bffffffffffffffffffffffffffffffffffffffffffffffffffffffff1690565b612f6761024d61024d9290565b61024d6e010000000000000000000000000000612f88565b7bffffffffffffffffffffffffffffffffffffffffffffffffffffffff908116929116917bffffffffffffffffffffffffffffffffffffffffffffffffffffffff818402166110d6565b61300c61024d91613006600090565b50612f4a565b613014612f95565b90612fad565b7bffffffffffffffffffffffffffffffffffffffffffffffffffffffff908116911661111e565b61305061024d92613006600090565b9061301a56fea2646970667358221220f97c6b03d65fa8a1506faf19a15a9d4f78db4f4f2bacd67ae49e023b274442a664736f6c63430008140033a264697066735822122021b49b79a50d671895e3939cddb4f73c0fe65eeba077fb3b08da21c5a9a0da9264736f6c63430008140033","opcodes":"PUSH1 0x80 PUSH1 0x40 MSTORE CALLVALUE PUSH3 0x30 JUMPI PUSH3 0x1E PUSH3 0x18 PUSH3 0xD3 JUMP JUMPDEST PUSH3 0x1E7 JUMP JUMPDEST PUSH1 0x40 MLOAD PUSH2 0x5934 PUSH3 0x312 DUP3 CODECOPY PUSH2 0x5934 SWAP1 RETURN JUMPDEST PUSH1 0x0 DUP1 REVERT JUMPDEST PUSH4 0x4E487B71 PUSH1 0xE0 SHL PUSH1 0x0 MSTORE PUSH1 0x41 PUSH1 0x4 MSTORE PUSH1 0x24 PUSH1 0x0 REVERT JUMPDEST SWAP1 PUSH1 0x1F ADD PUSH1 0x1F NOT AND DUP2 ADD SWAP1 DUP2 LT PUSH1 0x1 PUSH1 0x1 PUSH1 0x40 SHL SUB DUP3 GT OR PUSH3 0x6D JUMPI PUSH1 0x40 MSTORE JUMP JUMPDEST PUSH3 0x35 JUMP JUMPDEST SWAP1 PUSH3 0x8A PUSH3 0x82 PUSH1 0x40 MLOAD SWAP1 JUMP JUMPDEST SWAP3 DUP4 PUSH3 0x4B JUMP JUMPDEST JUMP JUMPDEST PUSH1 0x1 PUSH1 0x1 PUSH1 0xA0 SHL SUB AND SWAP1 JUMP JUMPDEST SWAP1 JUMP JUMPDEST PUSH1 0x1 PUSH1 0x1 PUSH1 0xA0 SHL SUB DUP2 AND SUB PUSH3 0x30 JUMPI JUMP JUMPDEST SWAP1 POP MLOAD SWAP1 PUSH3 0x8A DUP3 PUSH3 0x9B JUMP JUMPDEST SWAP1 PUSH1 0x20 DUP3 DUP3 SUB SLT PUSH3 0x30 JUMPI PUSH3 0x98 SWAP2 PUSH3 0xAD JUMP JUMPDEST PUSH3 0x98 PUSH3 0x5C46 DUP1 CODESIZE SUB DUP1 PUSH3 0xEA DUP2 PUSH3 0x73 JUMP JUMPDEST SWAP3 DUP4 CODECOPY DUP2 ADD SWAP1 PUSH3 0xBC JUMP JUMPDEST SWAP1 PUSH1 0x0 NOT SWAP1 JUMPDEST SWAP2 DUP2 NOT AND SWAP2 AND OR SWAP1 JUMP JUMPDEST PUSH3 0x98 PUSH3 0x98 PUSH3 0x98 SWAP3 SWAP1 JUMP JUMPDEST SWAP1 PUSH3 0x12A PUSH3 0x98 PUSH3 0x132 SWAP3 PUSH3 0x106 JUMP JUMPDEST DUP3 SLOAD PUSH3 0xF6 JUMP JUMPDEST SWAP1 SSTORE JUMP JUMPDEST PUSH3 0x8C PUSH3 0x98 PUSH3 0x98 SWAP3 SWAP1 JUMP JUMPDEST PUSH3 0x98 SWAP1 PUSH3 0x136 JUMP JUMPDEST ISZERO PUSH3 0x159 JUMPI JUMP JUMPDEST PUSH1 0x40 MLOAD PUSH3 0x461BCD PUSH1 0xE5 SHL DUP2 MSTORE PUSH1 0x20 PUSH1 0x4 DUP3 ADD MSTORE PUSH1 0xA PUSH1 0x24 DUP3 ADD MSTORE PUSH10 0x24A72B2FA627A1A5A2A9 PUSH1 0xB1 SHL PUSH1 0x44 DUP3 ADD MSTORE PUSH1 0x64 SWAP1 REVERT JUMPDEST SUB SWAP1 REVERT JUMPDEST SWAP1 PUSH1 0x1 PUSH1 0x1 PUSH1 0xA0 SHL SUB SWAP1 PUSH3 0xFC JUMP JUMPDEST PUSH3 0x98 SWAP1 PUSH3 0x8C SWAP1 PUSH1 0x1 PUSH1 0x1 PUSH1 0xA0 SHL SUB AND DUP3 JUMP JUMPDEST PUSH3 0x98 SWAP1 PUSH3 0x19F JUMP JUMPDEST PUSH3 0x98 SWAP1 PUSH3 0x1B5 JUMP JUMPDEST SWAP1 PUSH3 0x1DF PUSH3 0x98 PUSH3 0x132 SWAP3 PUSH3 0x1C0 JUMP JUMPDEST DUP3 SLOAD PUSH3 0x18F JUMP JUMPDEST PUSH3 0x8A SWAP1 PUSH3 0x1F7 CALLER PUSH3 0x233 JUMP JUMPDEST PUSH3 0x205 PUSH1 0x1E PUSH1 0x5 PUSH3 0x116 JUMP JUMPDEST PUSH3 0x22B PUSH3 0x219 PUSH3 0x8C PUSH1 0x0 PUSH3 0x146 JUMP JUMPDEST PUSH1 0x1 PUSH1 0x1 PUSH1 0xA0 SHL SUB DUP4 AND EQ ISZERO PUSH3 0x151 JUMP JUMPDEST PUSH1 0x4 PUSH3 0x1CB JUMP JUMPDEST PUSH3 0x23F PUSH1 0x0 PUSH3 0x146 JUMP JUMPDEST PUSH1 0x1 PUSH1 0x1 PUSH1 0xA0 SHL SUB DUP2 AND PUSH1 0x1 PUSH1 0x1 PUSH1 0xA0 SHL SUB DUP4 AND EQ PUSH3 0x265 JUMPI POP PUSH3 0x8A SWAP1 PUSH3 0x2AF JUMP JUMPDEST PUSH3 0x18B SWAP1 PUSH3 0x274 PUSH1 0x40 MLOAD SWAP1 JUMP JUMPDEST PUSH4 0x1E4FBDF7 PUSH1 0xE0 SHL DUP2 MSTORE SWAP2 DUP3 SWAP2 PUSH1 0x4 DUP4 ADD PUSH1 0x1 PUSH1 0x1 PUSH1 0xA0 SHL SUB SWAP1 SWAP2 AND DUP2 MSTORE PUSH1 0x20 ADD SWAP1 JUMP JUMPDEST PUSH3 0x98 SWAP1 PUSH3 0x8C JUMP JUMPDEST PUSH3 0x98 SWAP1 SLOAD PUSH3 0x298 JUMP JUMPDEST PUSH3 0x2BB PUSH1 0x0 PUSH3 0x2A3 JUMP JUMPDEST SWAP1 PUSH3 0x2C9 DUP2 PUSH1 0x0 PUSH3 0x1CB JUMP JUMPDEST PUSH3 0x300 PUSH3 0x2F9 PUSH32 0x8BE0079C531659141344CD1FD0A4F28419497F9722A3DAAFE3B4186F6B6457E0 SWAP4 PUSH3 0x1C0 JUMP JUMPDEST SWAP2 PUSH3 0x1C0 JUMP JUMPDEST SWAP2 PUSH3 0x30B PUSH1 0x40 MLOAD SWAP1 JUMP JUMPDEST PUSH1 0x0 SWAP1 LOG3 JUMP INVALID PUSH1 0x80 PUSH1 0x40 MSTORE PUSH1 0x4 CALLDATASIZE LT ISZERO PUSH3 0x13 JUMPI PUSH1 0x0 DUP1 REVERT JUMPDEST PUSH1 0x0 CALLDATALOAD PUSH1 0xE0 SHR DUP1 PUSH4 0x180B0D7E EQ PUSH3 0x1AA JUMPI DUP1 PUSH4 0x1E3DD18B EQ PUSH3 0x24C JUMPI DUP1 PUSH4 0x3F4BA83A EQ PUSH3 0x210 JUMPI DUP1 PUSH4 0x44E5550F EQ PUSH3 0x246 JUMPI DUP1 PUSH4 0x45596E2E EQ PUSH3 0x240 JUMPI DUP1 PUSH4 0x476343EE EQ PUSH3 0x210 JUMPI DUP1 PUSH4 0x4BFC2E0B EQ PUSH3 0x23A JUMPI DUP1 PUSH4 0x573044E3 EQ PUSH3 0x234 JUMPI DUP1 PUSH4 0x574F2BA3 EQ PUSH3 0x22E JUMPI DUP1 PUSH4 0x6D49DFC3 EQ PUSH3 0x228 JUMPI DUP1 PUSH4 0x715018A6 EQ PUSH3 0x222 JUMPI DUP1 PUSH4 0x788F737D EQ PUSH3 0x21C JUMPI DUP1 PUSH4 0x7B84FDA5 EQ PUSH3 0x216 JUMPI DUP1 PUSH4 0x8456CB59 EQ PUSH3 0x210 JUMPI DUP1 PUSH4 0x84E5EED0 EQ PUSH3 0x20A JUMPI DUP1 PUSH4 0x8DA5CB5B EQ PUSH3 0x204 JUMPI DUP1 PUSH4 0x90C833F4 EQ PUSH3 0x1FE JUMPI DUP1 PUSH4 0x92F6576E EQ PUSH3 0x1F8 JUMPI DUP1 PUSH4 0x9759164A EQ PUSH3 0x1F2 JUMPI DUP1 PUSH4 0x978BBDB9 EQ PUSH3 0x1EC JUMPI DUP1 PUSH4 0xA293E03C EQ PUSH3 0x1E6 JUMPI DUP1 PUSH4 0xAC449629 EQ PUSH3 0x1E0 JUMPI DUP1 PUSH4 0xB2094A10 EQ PUSH3 0x1DA JUMPI DUP1 PUSH4 0xB4F69A2F EQ PUSH3 0x1D4 JUMPI DUP1 PUSH4 0xBE8796C1 EQ PUSH3 0x1CE JUMPI DUP1 PUSH4 0xC73D7C7B EQ PUSH3 0x1C8 JUMPI DUP1 PUSH4 0xC9C65396 EQ PUSH3 0x1C2 JUMPI DUP1 PUSH4 0xCE3B5273 EQ PUSH3 0x1BC JUMPI DUP1 PUSH4 0xD73792A9 EQ PUSH3 0x1AA JUMPI DUP1 PUSH4 0xE6A43905 EQ PUSH3 0x1B6 JUMPI DUP1 PUSH4 0xF2FDE38B EQ PUSH3 0x1B0 JUMPI DUP1 PUSH4 0xF4E1FC41 EQ PUSH3 0x1AA JUMPI PUSH4 0xFF255EFB SUB PUSH3 0x25E JUMPI PUSH3 0xC35 JUMP JUMPDEST PUSH3 0x269 JUMP JUMPDEST PUSH3 0xC0A JUMP JUMPDEST PUSH3 0xBE8 JUMP JUMPDEST PUSH3 0xBAF JUMP JUMPDEST PUSH3 0xB47 JUMP JUMPDEST PUSH3 0xB34 JUMP JUMPDEST PUSH3 0xB03 JUMP JUMPDEST PUSH3 0xAE1 JUMP JUMPDEST PUSH3 0xAC4 JUMP JUMPDEST PUSH3 0xA70 JUMP JUMPDEST PUSH3 0x9AD JUMP JUMPDEST PUSH3 0x964 JUMP JUMPDEST PUSH3 0x91C JUMP JUMPDEST PUSH3 0x8ED JUMP JUMPDEST PUSH3 0x8A4 JUMP JUMPDEST PUSH3 0x7E0 JUMP JUMPDEST PUSH3 0x7BF JUMP JUMPDEST PUSH3 0x3D6 JUMP JUMPDEST PUSH3 0x7A2 JUMP JUMPDEST PUSH3 0x788 JUMP JUMPDEST PUSH3 0x72B JUMP JUMPDEST PUSH3 0x70A JUMP JUMPDEST PUSH3 0x68F JUMP JUMPDEST PUSH3 0x671 JUMP JUMPDEST PUSH3 0x620 JUMP JUMPDEST PUSH3 0x5DB JUMP JUMPDEST PUSH3 0x5B2 JUMP JUMPDEST PUSH3 0x3A8 JUMP JUMPDEST PUSH1 0x0 SWAP2 SUB SLT PUSH3 0x25E JUMPI JUMP JUMPDEST PUSH1 0x0 DUP1 REVERT JUMPDEST SWAP1 MSTORE JUMP JUMPDEST JUMP JUMPDEST CALLVALUE PUSH3 0x25E JUMPI PUSH3 0x27C CALLDATASIZE PUSH1 0x4 PUSH3 0x252 JUMP JUMPDEST PUSH3 0x29A PUSH3 0x28A PUSH3 0xBDE JUMP JUMPDEST PUSH1 0x40 MLOAD SWAP2 DUP3 SWAP2 DUP3 SWAP1 DUP2 MSTORE PUSH1 0x20 ADD SWAP1 JUMP JUMPDEST SUB SWAP1 RETURN JUMPDEST DUP1 JUMPDEST SUB PUSH3 0x25E JUMPI JUMP JUMPDEST SWAP1 POP CALLDATALOAD SWAP1 PUSH3 0x267 DUP3 PUSH3 0x29E JUMP JUMPDEST SWAP1 PUSH1 0x20 DUP3 DUP3 SUB SLT PUSH3 0x25E JUMPI PUSH3 0x2CE SWAP2 PUSH3 0x2A8 JUMP JUMPDEST SWAP1 JUMP JUMPDEST PUSH32 0x4E487B7100000000000000000000000000000000000000000000000000000000 PUSH1 0x0 MSTORE PUSH1 0x32 PUSH1 0x4 MSTORE PUSH1 0x24 PUSH1 0x0 REVERT JUMPDEST DUP1 SLOAD DUP3 LT ISZERO PUSH3 0x325 JUMPI PUSH3 0x31C PUSH1 0x1 SWAP2 PUSH1 0x0 MSTORE PUSH1 0x20 PUSH1 0x0 KECCAK256 SWAP1 JUMP JUMPDEST SWAP2 MUL ADD SWAP1 PUSH1 0x0 SWAP1 JUMP JUMPDEST PUSH3 0x2D1 JUMP JUMPDEST PUSH3 0x2CE SWAP2 PUSH1 0x8 MUL SHR JUMPDEST PUSH20 0xFFFFFFFFFFFFFFFFFFFFFFFFFFFFFFFFFFFFFFFF AND SWAP1 JUMP JUMPDEST SWAP1 PUSH3 0x2CE SWAP2 SLOAD PUSH3 0x32B JUMP JUMPDEST PUSH1 0x2 PUSH1 0x0 PUSH3 0x368 DUP3 SLOAD SWAP1 JUMP JUMPDEST DUP4 LT ISZERO PUSH3 0x388 JUMPI POP PUSH3 0x2CE SWAP2 PUSH3 0x381 SWAP2 PUSH3 0x300 JUMP JUMPDEST SWAP1 PUSH3 0x34E JUMP JUMPDEST DUP1 REVERT JUMPDEST PUSH3 0x263 SWAP1 PUSH3 0x335 JUMP JUMPDEST PUSH1 0x20 DUP2 ADD SWAP3 SWAP2 PUSH3 0x267 SWAP2 SWAP1 PUSH3 0x38B JUMP JUMPDEST CALLVALUE PUSH3 0x25E JUMPI PUSH3 0x29A PUSH3 0x3C9 PUSH3 0x3C3 CALLDATASIZE PUSH1 0x4 PUSH3 0x2B7 JUMP JUMPDEST PUSH3 0x35B JUMP JUMPDEST PUSH1 0x40 MLOAD SWAP2 DUP3 SWAP2 DUP3 PUSH3 0x396 JUMP JUMPDEST CALLVALUE PUSH3 0x25E JUMPI PUSH3 0x3E9 CALLDATASIZE PUSH1 0x4 PUSH3 0x252 JUMP JUMPDEST PUSH3 0x25B4 JUMP JUMPDEST PUSH3 0x2A0 DUP2 PUSH3 0x335 JUMP JUMPDEST SWAP1 POP CALLDATALOAD SWAP1 PUSH3 0x267 DUP3 PUSH3 0x3EF JUMP JUMPDEST PUSH32 0x4E487B7100000000000000000000000000000000000000000000000000000000 PUSH1 0x0 MSTORE PUSH1 0x41 PUSH1 0x4 MSTORE PUSH1 0x24 PUSH1 0x0 REVERT JUMPDEST SWAP1 PUSH1 0x1F ADD PUSH32 0xFFFFFFFFFFFFFFFFFFFFFFFFFFFFFFFFFFFFFFFFFFFFFFFFFFFFFFFFFFFFFFE0 AND DUP2 ADD SWAP1 DUP2 LT PUSH8 0xFFFFFFFFFFFFFFFF DUP3 GT OR PUSH3 0x479 JUMPI PUSH1 0x40 MSTORE JUMP JUMPDEST PUSH3 0x409 JUMP JUMPDEST SWAP1 PUSH3 0x267 PUSH3 0x48E PUSH1 0x40 MLOAD SWAP1 JUMP JUMPDEST SWAP3 DUP4 PUSH3 0x438 JUMP JUMPDEST PUSH8 0xFFFFFFFFFFFFFFFF DUP2 GT PUSH3 0x479 JUMPI PUSH1 0x20 SWAP1 PUSH1 0x1F ADD PUSH32 0xFFFFFFFFFFFFFFFFFFFFFFFFFFFFFFFFFFFFFFFFFFFFFFFFFFFFFFFFFFFFFFE0 AND ADD SWAP1 JUMP JUMPDEST ADD SWAP1 JUMP JUMPDEST SWAP1 DUP3 PUSH1 0x0 SWAP4 SWAP3 DUP3 CALLDATACOPY ADD MSTORE JUMP JUMPDEST SWAP1 SWAP3 SWAP2 SWAP3 PUSH3 0x4FB PUSH3 0x4F5 DUP3 PUSH3 0x496 JUMP JUMPDEST PUSH3 0x47F JUMP JUMPDEST SWAP4 DUP2 DUP6 MSTORE PUSH1 0x20 DUP6 ADD SWAP1 DUP3 DUP5 ADD GT PUSH3 0x25E JUMPI PUSH3 0x267 SWAP3 PUSH3 0x4D6 JUMP JUMPDEST SWAP1 DUP1 PUSH1 0x1F DUP4 ADD SLT ISZERO PUSH3 0x25E JUMPI DUP2 PUSH1 0x20 PUSH3 0x2CE SWAP4 CALLDATALOAD SWAP2 ADD PUSH3 0x4E2 JUMP JUMPDEST SWAP1 SWAP2 PUSH1 0xC0 DUP3 DUP5 SUB SLT PUSH3 0x25E JUMPI PUSH3 0x54F DUP4 DUP4 PUSH3 0x3FA JUMP JUMPDEST SWAP3 PUSH3 0x55F DUP2 PUSH1 0x20 DUP6 ADD PUSH3 0x3FA JUMP JUMPDEST SWAP3 PUSH3 0x56F DUP3 PUSH1 0x40 DUP4 ADD PUSH3 0x2A8 JUMP JUMPDEST SWAP3 PUSH3 0x57F DUP4 PUSH1 0x60 DUP5 ADD PUSH3 0x2A8 JUMP JUMPDEST SWAP3 PUSH1 0x80 DUP4 ADD CALLDATALOAD SWAP1 PUSH8 0xFFFFFFFFFFFFFFFF DUP3 GT PUSH3 0x25E JUMPI PUSH3 0x5A8 DUP2 PUSH3 0x2CE SWAP4 DUP7 ADD PUSH3 0x518 JUMP JUMPDEST SWAP4 PUSH1 0xA0 ADD PUSH3 0x2A8 JUMP JUMPDEST CALLVALUE PUSH3 0x25E JUMPI PUSH3 0x5D6 PUSH3 0x5C9 CALLDATASIZE PUSH1 0x4 PUSH3 0x536 JUMP JUMPDEST SWAP5 SWAP4 SWAP1 SWAP4 SWAP3 SWAP2 SWAP3 PUSH3 0x1E22 JUMP JUMPDEST PUSH1 0x40 MLOAD STOP JUMPDEST CALLVALUE PUSH3 0x25E JUMPI PUSH3 0x5D6 PUSH3 0x5F2 CALLDATASIZE PUSH1 0x4 PUSH3 0x2B7 JUMP JUMPDEST PUSH3 0x250F JUMP JUMPDEST SWAP2 SWAP1 PUSH1 0x40 DUP4 DUP3 SUB SLT PUSH3 0x25E JUMPI PUSH3 0x2CE SWAP1 PUSH3 0x616 DUP2 DUP6 PUSH3 0x3FA JUMP JUMPDEST SWAP4 PUSH1 0x20 ADD PUSH3 0x2A8 JUMP JUMPDEST CALLVALUE PUSH3 0x25E JUMPI PUSH3 0x633 CALLDATASIZE PUSH1 0x4 PUSH3 0x5F8 JUMP JUMPDEST SWAP1 PUSH3 0x2555 JUMP JUMPDEST SWAP1 SWAP2 PUSH1 0x60 DUP3 DUP5 SUB SLT PUSH3 0x25E JUMPI PUSH3 0x2CE PUSH3 0x657 DUP5 DUP5 PUSH3 0x3FA JUMP JUMPDEST SWAP4 PUSH3 0x667 DUP2 PUSH1 0x20 DUP7 ADD PUSH3 0x2A8 JUMP JUMPDEST SWAP4 PUSH1 0x40 ADD PUSH3 0x3FA JUMP JUMPDEST CALLVALUE PUSH3 0x25E JUMPI PUSH3 0x5D6 PUSH3 0x688 CALLDATASIZE PUSH1 0x4 PUSH3 0x63A JUMP JUMPDEST SWAP2 PUSH3 0x2295 JUMP JUMPDEST CALLVALUE PUSH3 0x25E JUMPI PUSH3 0x6A2 CALLDATASIZE PUSH1 0x4 PUSH3 0x252 JUMP JUMPDEST PUSH3 0x29A PUSH3 0x28A PUSH1 0x2 SLOAD SWAP1 JUMP JUMPDEST SWAP1 PUSH1 0x80 DUP3 DUP3 SUB SLT PUSH3 0x25E JUMPI PUSH3 0x6C8 DUP2 DUP4 PUSH3 0x3FA JUMP JUMPDEST SWAP3 PUSH3 0x6D8 DUP3 PUSH1 0x20 DUP6 ADD PUSH3 0x3FA JUMP JUMPDEST SWAP3 PUSH3 0x6E8 DUP4 PUSH1 0x40 DUP4 ADD PUSH3 0x2A8 JUMP JUMPDEST SWAP3 PUSH1 0x60 DUP3 ADD CALLDATALOAD PUSH8 0xFFFFFFFFFFFFFFFF DUP2 GT PUSH3 0x25E JUMPI PUSH3 0x2CE SWAP3 ADD PUSH3 0x518 JUMP JUMPDEST CALLVALUE PUSH3 0x25E JUMPI PUSH3 0x5D6 PUSH3 0x721 CALLDATASIZE PUSH1 0x4 PUSH3 0x6B0 JUMP JUMPDEST SWAP3 SWAP2 SWAP1 SWAP2 PUSH3 0x200A JUMP JUMPDEST CALLVALUE PUSH3 0x25E JUMPI PUSH3 0x73E CALLDATASIZE PUSH1 0x4 PUSH3 0x252 JUMP JUMPDEST PUSH3 0x5D6 PUSH3 0xCBE JUMP JUMPDEST DUP1 ISZERO ISZERO PUSH3 0x2A0 JUMP JUMPDEST SWAP1 POP CALLDATALOAD SWAP1 PUSH3 0x267 DUP3 PUSH3 0x748 JUMP JUMPDEST SWAP2 SWAP1 PUSH1 0x40 DUP4 DUP3 SUB SLT PUSH3 0x25E JUMPI PUSH3 0x2CE SWAP1 PUSH3 0x77E DUP2 DUP6 PUSH3 0x3FA JUMP JUMPDEST SWAP4 PUSH1 0x20 ADD PUSH3 0x751 JUMP JUMPDEST CALLVALUE PUSH3 0x25E JUMPI PUSH3 0x79B CALLDATASIZE PUSH1 0x4 PUSH3 0x760 JUMP JUMPDEST SWAP1 PUSH3 0x25B4 JUMP JUMPDEST CALLVALUE PUSH3 0x25E JUMPI PUSH3 0x5D6 PUSH3 0x7B9 CALLDATASIZE PUSH1 0x4 PUSH3 0x2B7 JUMP JUMPDEST PUSH3 0x2540 JUMP JUMPDEST CALLVALUE PUSH3 0x25E JUMPI PUSH3 0x7D2 CALLDATASIZE PUSH1 0x4 PUSH3 0x252 JUMP JUMPDEST PUSH3 0x29A PUSH3 0x28A PUSH3 0x251A JUMP JUMPDEST CALLVALUE PUSH3 0x25E JUMPI PUSH3 0x7F3 CALLDATASIZE PUSH1 0x4 PUSH3 0x252 JUMP JUMPDEST PUSH3 0x29A PUSH3 0x3C9 PUSH3 0xC6D JUMP JUMPDEST SWAP2 SWAP1 PUSH1 0x40 DUP4 DUP3 SUB SLT PUSH3 0x25E JUMPI PUSH3 0x2CE SWAP1 PUSH3 0x81F DUP2 DUP6 PUSH3 0x3FA JUMP JUMPDEST SWAP4 PUSH1 0x20 ADD PUSH3 0x3FA JUMP JUMPDEST PUSH3 0x335 PUSH3 0x2CE PUSH3 0x2CE SWAP3 PUSH20 0xFFFFFFFFFFFFFFFFFFFFFFFFFFFFFFFFFFFFFFFF AND SWAP1 JUMP JUMPDEST PUSH3 0x2CE SWAP1 PUSH3 0x829 JUMP JUMPDEST PUSH3 0x2CE SWAP1 PUSH3 0x84F JUMP JUMPDEST SWAP1 PUSH3 0x871 SWAP1 PUSH3 0x85A JUMP JUMPDEST PUSH1 0x0 MSTORE PUSH1 0x20 MSTORE PUSH1 0x40 PUSH1 0x0 KECCAK256 SWAP1 JUMP JUMPDEST PUSH3 0x89E PUSH3 0x2CE SWAP3 PUSH3 0x898 PUSH1 0x1 SWAP4 PUSH1 0x0 SWAP5 PUSH3 0x865 JUMP JUMPDEST PUSH3 0x865 JUMP JUMPDEST PUSH3 0x34E JUMP JUMPDEST CALLVALUE PUSH3 0x25E JUMPI PUSH3 0x29A PUSH3 0x3C9 PUSH3 0x8BF CALLDATASIZE PUSH1 0x4 PUSH3 0x801 JUMP JUMPDEST SWAP1 PUSH3 0x87F JUMP JUMPDEST PUSH3 0x2CE PUSH3 0x2CE PUSH3 0x2CE SWAP3 SWAP1 JUMP JUMPDEST PUSH3 0x2CE PUSH2 0x3E8 PUSH3 0x8C6 JUMP JUMPDEST PUSH3 0x2CE PUSH3 0x8D6 JUMP JUMPDEST CALLVALUE PUSH3 0x25E JUMPI PUSH3 0x900 CALLDATASIZE PUSH1 0x4 PUSH3 0x252 JUMP JUMPDEST PUSH3 0x29A PUSH3 0x28A PUSH3 0x8E3 JUMP JUMPDEST PUSH3 0x2CE PUSH1 0x0 PUSH1 0x4 PUSH3 0x34E JUMP JUMPDEST CALLVALUE PUSH3 0x25E JUMPI PUSH3 0x92F CALLDATASIZE PUSH1 0x4 PUSH3 0x252 JUMP JUMPDEST PUSH3 0x29A PUSH3 0x3C9 PUSH3 0x90E JUMP JUMPDEST PUSH3 0x2CE SWAP2 PUSH1 0x8 MUL SHR DUP2 JUMP JUMPDEST SWAP1 PUSH3 0x2CE SWAP2 SLOAD PUSH3 0x93D JUMP JUMPDEST PUSH3 0x2CE PUSH1 0x0 PUSH1 0x5 PUSH3 0x949 JUMP JUMPDEST CALLVALUE PUSH3 0x25E JUMPI PUSH3 0x977 CALLDATASIZE PUSH1 0x4 PUSH3 0x252 JUMP JUMPDEST PUSH3 0x29A PUSH3 0x28A PUSH3 0x956 JUMP JUMPDEST SWAP1 PUSH1 0x80 DUP3 DUP3 SUB SLT PUSH3 0x25E JUMPI PUSH3 0x99D DUP2 DUP4 PUSH3 0x3FA JUMP JUMPDEST SWAP3 PUSH3 0x6D8 DUP3 PUSH1 0x20 DUP6 ADD PUSH3 0x2A8 JUMP JUMPDEST PUSH3 0x9BA CALLDATASIZE PUSH1 0x4 PUSH3 0x985 JUMP JUMPDEST SWAP3 SWAP2 SWAP1 SWAP2 PUSH3 0x2672 JUMP JUMPDEST SWAP1 PUSH1 0xE0 DUP3 DUP3 SUB SLT PUSH3 0x25E JUMPI PUSH3 0x9DC DUP2 DUP4 PUSH3 0x3FA JUMP JUMPDEST SWAP3 PUSH3 0x9EC DUP3 PUSH1 0x20 DUP6 ADD PUSH3 0x3FA JUMP JUMPDEST SWAP3 PUSH3 0x9FC DUP4 PUSH1 0x40 DUP4 ADD PUSH3 0x2A8 JUMP JUMPDEST SWAP3 PUSH3 0xA0C DUP2 PUSH1 0x60 DUP5 ADD PUSH3 0x2A8 JUMP JUMPDEST SWAP3 PUSH3 0xA1C DUP3 PUSH1 0x80 DUP6 ADD PUSH3 0x751 JUMP JUMPDEST SWAP3 PUSH3 0xA2C DUP4 PUSH1 0xA0 DUP4 ADD PUSH3 0x2A8 JUMP JUMPDEST SWAP3 PUSH1 0xC0 DUP3 ADD CALLDATALOAD PUSH8 0xFFFFFFFFFFFFFFFF DUP2 GT PUSH3 0x25E JUMPI PUSH3 0x2CE SWAP3 ADD PUSH3 0x518 JUMP JUMPDEST SWAP2 PUSH1 0x20 PUSH3 0x267 SWAP3 SWAP5 SWAP4 PUSH3 0xA6C PUSH1 0x40 DUP3 ADD SWAP7 PUSH1 0x0 DUP4 ADD SWAP1 PUSH3 0x38B JUMP JUMPDEST ADD MSTORE JUMP JUMPDEST CALLVALUE PUSH3 0x25E JUMPI PUSH3 0xA94 PUSH3 0xA87 CALLDATASIZE PUSH1 0x4 PUSH3 0x9C4 JUMP JUMPDEST SWAP6 SWAP5 SWAP1 SWAP5 SWAP4 SWAP2 SWAP4 PUSH3 0x1945 JUMP JUMPDEST SWAP1 PUSH3 0x29A PUSH3 0xAA3 PUSH1 0x40 MLOAD SWAP1 JUMP JUMPDEST SWAP3 DUP4 SWAP3 DUP4 PUSH3 0xA4E JUMP JUMPDEST SWAP1 PUSH1 0x20 DUP3 DUP3 SUB SLT PUSH3 0x25E JUMPI PUSH3 0x2CE SWAP2 PUSH3 0x3FA JUMP JUMPDEST CALLVALUE PUSH3 0x25E JUMPI PUSH3 0x5D6 PUSH3 0xADB CALLDATASIZE PUSH1 0x4 PUSH3 0xAAD JUMP JUMPDEST PUSH3 0x241E JUMP JUMPDEST CALLVALUE PUSH3 0x25E JUMPI PUSH3 0x29A PUSH3 0x3C9 PUSH3 0xAFC CALLDATASIZE PUSH1 0x4 PUSH3 0x801 JUMP JUMPDEST SWAP1 PUSH3 0x1E02 JUMP JUMPDEST CALLVALUE PUSH3 0x25E JUMPI PUSH3 0xB16 CALLDATASIZE PUSH1 0x4 PUSH3 0x5F8 JUMP JUMPDEST SWAP1 PUSH3 0x26D1 JUMP JUMPDEST SWAP1 PUSH1 0x20 DUP3 DUP3 SUB SLT PUSH3 0x25E JUMPI PUSH3 0x2CE SWAP2 PUSH3 0x751 JUMP JUMPDEST CALLVALUE PUSH3 0x25E JUMPI PUSH3 0x3E9 CALLDATASIZE PUSH1 0x4 PUSH3 0xB1D JUMP JUMPDEST CALLVALUE PUSH3 0x25E JUMPI PUSH3 0x29A PUSH3 0x3C9 PUSH3 0xB62 CALLDATASIZE PUSH1 0x4 PUSH3 0x801 JUMP JUMPDEST SWAP1 PUSH3 0xE69 JUMP JUMPDEST SWAP1 DUP2 PUSH1 0x20 SWAP2 SUB SLT PUSH3 0x25E JUMPI SWAP1 JUMP JUMPDEST SWAP1 SWAP2 PUSH1 0x60 DUP3 DUP5 SUB SLT PUSH3 0x25E JUMPI PUSH3 0x2CE PUSH3 0xB95 DUP5 DUP5 PUSH3 0x3FA JUMP JUMPDEST SWAP4 PUSH3 0xBA5 DUP2 PUSH1 0x20 DUP7 ADD PUSH3 0x3FA JUMP JUMPDEST SWAP4 PUSH1 0x40 ADD PUSH3 0xB69 JUMP JUMPDEST CALLVALUE PUSH3 0x25E JUMPI PUSH3 0x29A PUSH3 0x3C9 PUSH3 0xBCA CALLDATASIZE PUSH1 0x4 PUSH3 0xB78 JUMP JUMPDEST SWAP2 PUSH3 0x25E0 JUMP JUMPDEST PUSH3 0x2CE PUSH2 0x2710 PUSH3 0x8C6 JUMP JUMPDEST PUSH3 0x2CE PUSH3 0xBD1 JUMP JUMPDEST CALLVALUE PUSH3 0x25E JUMPI PUSH3 0x29A PUSH3 0x3C9 PUSH3 0xC03 CALLDATASIZE PUSH1 0x4 PUSH3 0x801 JUMP JUMPDEST SWAP1 PUSH3 0x1DC1 JUMP JUMPDEST CALLVALUE PUSH3 0x25E JUMPI PUSH3 0x5D6 PUSH3 0xC21 CALLDATASIZE PUSH1 0x4 PUSH3 0xAAD JUMP JUMPDEST PUSH3 0xDB8 JUMP JUMPDEST PUSH3 0x2CE PUSH1 0x0 PUSH1 0x3 PUSH3 0x949 JUMP JUMPDEST CALLVALUE PUSH3 0x25E JUMPI PUSH3 0xC48 CALLDATASIZE PUSH1 0x4 PUSH3 0x252 JUMP JUMPDEST PUSH3 0x29A PUSH3 0x28A PUSH3 0xC27 JUMP JUMPDEST PUSH3 0x2CE SWAP1 PUSH3 0x335 JUMP JUMPDEST PUSH3 0x2CE SWAP1 SLOAD PUSH3 0xC56 JUMP JUMPDEST PUSH3 0x2CE PUSH1 0x0 PUSH3 0xC61 JUMP JUMPDEST PUSH3 0xC83 PUSH3 0xCC8 JUMP JUMPDEST PUSH3 0x267 PUSH3 0xCA8 JUMP JUMPDEST PUSH3 0x335 PUSH3 0x2CE PUSH3 0x2CE SWAP3 SWAP1 JUMP JUMPDEST PUSH3 0x2CE SWAP1 PUSH3 0xC8D JUMP JUMPDEST PUSH3 0x267 PUSH3 0xCB8 PUSH1 0x0 PUSH3 0xC9D JUMP JUMPDEST PUSH3 0xE05 JUMP JUMPDEST PUSH3 0x267 PUSH3 0xC79 JUMP JUMPDEST PUSH3 0xCD2 PUSH3 0xC6D JUMP JUMPDEST CALLER SWAP1 PUSH3 0xCEA PUSH3 0xCE3 DUP4 PUSH3 0x335 JUMP JUMPDEST SWAP2 PUSH3 0x335 JUMP JUMPDEST SUB PUSH3 0xCF3 JUMPI POP JUMP JUMPDEST PUSH3 0xD32 SWAP1 PUSH3 0xD02 PUSH1 0x40 MLOAD SWAP1 JUMP JUMPDEST SWAP2 DUP3 SWAP2 PUSH32 0x118CDAA700000000000000000000000000000000000000000000000000000000 DUP4 MSTORE PUSH1 0x4 DUP4 ADD PUSH3 0x396 JUMP JUMPDEST SUB SWAP1 REVERT JUMPDEST PUSH3 0x267 SWAP1 PUSH3 0xD45 PUSH3 0xCC8 JUMP JUMPDEST PUSH3 0xD51 PUSH1 0x0 PUSH3 0xC9D JUMP JUMPDEST PUSH3 0xD5C DUP2 PUSH3 0x335 JUMP JUMPDEST PUSH3 0xD67 DUP4 PUSH3 0x335 JUMP JUMPDEST EQ PUSH3 0xD79 JUMPI POP PUSH3 0x267 SWAP1 PUSH3 0xE05 JUMP JUMPDEST PUSH3 0xD32 SWAP1 PUSH3 0xD88 PUSH1 0x40 MLOAD SWAP1 JUMP JUMPDEST SWAP2 DUP3 SWAP2 PUSH32 0x1E4FBDF700000000000000000000000000000000000000000000000000000000 DUP4 MSTORE PUSH1 0x4 DUP4 ADD PUSH3 0x396 JUMP JUMPDEST PUSH3 0x267 SWAP1 PUSH3 0xD36 JUMP JUMPDEST SWAP1 PUSH20 0xFFFFFFFFFFFFFFFFFFFFFFFFFFFFFFFFFFFFFFFF SWAP1 JUMPDEST SWAP2 DUP2 NOT AND SWAP2 AND OR SWAP1 JUMP JUMPDEST SWAP1 PUSH3 0xDF9 PUSH3 0x2CE PUSH3 0xE01 SWAP3 PUSH3 0x85A JUMP JUMPDEST DUP3 SLOAD PUSH3 0xDC3 JUMP JUMPDEST SWAP1 SSTORE JUMP JUMPDEST PUSH3 0xE11 PUSH1 0x0 PUSH3 0xC61 JUMP JUMPDEST SWAP1 PUSH3 0xE1F DUP2 PUSH1 0x0 PUSH3 0xDE5 JUMP JUMPDEST PUSH3 0xE56 PUSH3 0xE4F PUSH32 0x8BE0079C531659141344CD1FD0A4F28419497F9722A3DAAFE3B4186F6B6457E0 SWAP4 PUSH3 0x85A JUMP JUMPDEST SWAP2 PUSH3 0x85A JUMP JUMPDEST SWAP2 PUSH3 0xE61 PUSH1 0x40 MLOAD SWAP1 JUMP JUMPDEST DUP1 DUP1 JUMPDEST SUB SWAP1 LOG3 JUMP JUMPDEST PUSH3 0x2CE SWAP2 SWAP1 PUSH3 0x11B1 JUMP JUMPDEST ISZERO PUSH3 0xE7D JUMPI JUMP JUMPDEST PUSH1 0x40 MLOAD PUSH32 0x8C379A000000000000000000000000000000000000000000000000000000000 DUP2 MSTORE PUSH1 0x20 PUSH1 0x4 DUP3 ADD MSTORE PUSH1 0x2 PUSH1 0x24 DUP3 ADD MSTORE PUSH32 0x4944000000000000000000000000000000000000000000000000000000000000 PUSH1 0x44 DUP3 ADD MSTORE PUSH1 0x64 SWAP1 REVERT JUMPDEST ISZERO PUSH3 0xEE4 JUMPI JUMP JUMPDEST PUSH1 0x40 MLOAD PUSH32 0x8C379A000000000000000000000000000000000000000000000000000000000 DUP2 MSTORE PUSH1 0x20 PUSH1 0x4 DUP3 ADD MSTORE PUSH1 0x2 PUSH1 0x24 DUP3 ADD MSTORE PUSH32 0x5A41000000000000000000000000000000000000000000000000000000000000 PUSH1 0x44 DUP3 ADD MSTORE PUSH1 0x64 SWAP1 REVERT JUMPDEST ISZERO PUSH3 0xF4B JUMPI JUMP JUMPDEST PUSH1 0x40 MLOAD PUSH32 0x8C379A000000000000000000000000000000000000000000000000000000000 DUP2 MSTORE PUSH1 0x20 PUSH1 0x4 DUP3 ADD MSTORE PUSH1 0x2 PUSH1 0x24 DUP3 ADD MSTORE PUSH32 0x5043000000000000000000000000000000000000000000000000000000000000 PUSH1 0x44 DUP3 ADD MSTORE PUSH1 0x64 SWAP1 REVERT JUMPDEST PUSH3 0xFB9 PUSH3 0x263 SWAP2 PUSH3 0x335 JUMP JUMPDEST PUSH1 0x60 SHL SWAP1 JUMP JUMPDEST PUSH1 0x14 DUP2 PUSH3 0xFD4 PUSH3 0x4D2 SWAP4 DUP4 SWAP7 SWAP6 PUSH3 0xFAA JUMP JUMPDEST ADD DUP1 SWAP3 PUSH3 0xFAA JUMP JUMPDEST ISZERO PUSH3 0xFE5 JUMPI JUMP JUMPDEST PUSH1 0x40 MLOAD PUSH32 0x8C379A000000000000000000000000000000000000000000000000000000000 DUP2 MSTORE PUSH1 0x20 PUSH1 0x4 DUP3 ADD MSTORE PUSH1 0x3 PUSH1 0x24 DUP3 ADD MSTORE PUSH32 0x4332460000000000000000000000000000000000000000000000000000000000 PUSH1 0x44 DUP3 ADD MSTORE PUSH1 0x64 SWAP1 REVERT JUMPDEST SWAP2 PUSH1 0x20 PUSH3 0x267 SWAP3 SWAP5 SWAP4 PUSH3 0x1062 PUSH1 0x40 DUP3 ADD SWAP7 PUSH1 0x0 DUP4 ADD SWAP1 PUSH3 0x38B JUMP JUMPDEST ADD SWAP1 PUSH3 0x38B JUMP JUMPDEST PUSH1 0x40 MLOAD RETURNDATASIZE PUSH1 0x0 DUP3 RETURNDATACOPY RETURNDATASIZE SWAP1 REVERT JUMPDEST SWAP2 SWAP1 PUSH1 0x8 PUSH3 0xDDB SWAP2 MUL SWAP2 PUSH3 0x109F PUSH20 0xFFFFFFFFFFFFFFFFFFFFFFFFFFFFFFFFFFFFFFFF DUP5 SHL SWAP1 JUMP JUMPDEST SWAP3 SHL SWAP1 JUMP JUMPDEST SWAP2 SWAP1 PUSH3 0x10B9 PUSH3 0x2CE PUSH3 0xE01 SWAP4 PUSH3 0x85A JUMP JUMPDEST SWAP1 DUP4 SLOAD PUSH3 0x1076 JUMP JUMPDEST SWAP1 DUP2 SLOAD SWAP2 PUSH9 0x10000000000000000 DUP4 LT ISZERO PUSH3 0x479 JUMPI DUP3 PUSH3 0x10EE SWAP2 PUSH1 0x1 PUSH3 0x267 SWAP6 ADD DUP2 SSTORE PUSH3 0x300 JUMP JUMPDEST SWAP1 PUSH3 0x10A4 JUMP JUMPDEST PUSH3 0x2CE SWAP1 DUP2 JUMP JUMPDEST PUSH3 0x2CE SWAP1 SLOAD PUSH3 0x10F5 JUMP JUMPDEST PUSH32 0x4E487B7100000000000000000000000000000000000000000000000000000000 PUSH1 0x0 MSTORE PUSH1 0x11 PUSH1 0x4 MSTORE PUSH1 0x24 PUSH1 0x0 REVERT JUMPDEST PUSH32 0xFFFFFFFFFFFFFFFFFFFFFFFFFFFFFFFFFFFFFFFFFFFFFFFFFFFFFFFFFFFFFFFF DUP2 EQ PUSH3 0x1166 JUMPI PUSH1 0x1 ADD SWAP1 JUMP JUMPDEST PUSH3 0x1109 JUMP JUMPDEST SWAP1 PUSH32 0xFFFFFFFFFFFFFFFFFFFFFFFFFFFFFFFFFFFFFFFFFFFFFFFFFFFFFFFFFFFFFFFF SWAP1 PUSH3 0xDDB JUMP JUMPDEST SWAP1 PUSH3 0x11A9 PUSH3 0x2CE PUSH3 0xE01 SWAP3 PUSH3 0x8C6 JUMP JUMPDEST DUP3 SLOAD PUSH3 0x116C JUMP JUMPDEST SWAP2 SWAP1 PUSH3 0x11D5 PUSH3 0x11C2 DUP3 PUSH3 0x335 JUMP JUMPDEST PUSH3 0x11CD DUP6 PUSH3 0x335 JUMP JUMPDEST EQ ISZERO PUSH3 0xE75 JUMP JUMPDEST PUSH1 0x0 PUSH3 0x11E2 DUP2 PUSH3 0xC9D JUMP JUMPDEST SWAP4 PUSH3 0x11EE DUP6 PUSH3 0x335 JUMP JUMPDEST PUSH3 0x11F9 DUP3 PUSH3 0x335 JUMP JUMPDEST EQ ISZERO DUP1 PUSH3 0x144A JUMPI JUMPDEST PUSH3 0x120D SWAP1 PUSH3 0xEDC JUMP JUMPDEST PUSH3 0x1218 DUP4 PUSH3 0x335 JUMP JUMPDEST PUSH3 0x1223 DUP3 PUSH3 0x335 JUMP JUMPDEST LT ISZERO PUSH3 0x1443 JUMPI SWAP2 SWAP1 JUMPDEST PUSH1 0x1 SWAP1 PUSH3 0x1265 PUSH3 0x124F PUSH3 0x1249 DUP6 PUSH3 0x898 DUP9 DUP8 PUSH3 0x865 JUMP JUMPDEST PUSH3 0xC61 JUMP JUMPDEST PUSH3 0x125E PUSH3 0xCE3 DUP10 PUSH3 0x335 JUMP JUMPDEST EQ PUSH3 0xF43 JUMP JUMPDEST PUSH3 0x12E9 PUSH3 0x12D6 PUSH2 0x31A8 PUSH3 0x127E PUSH1 0x20 DUP3 ADD PUSH3 0x47F JUMP JUMPDEST SWAP1 DUP1 DUP3 MSTORE PUSH3 0x2757 PUSH1 0x20 DUP4 ADD CODECOPY PUSH1 0x40 MLOAD PUSH3 0x12B1 DUP2 PUSH1 0x20 DUP2 ADD PUSH3 0x12A4 DUP11 DUP13 DUP4 PUSH3 0xFBF JUMP JUMPDEST SWAP1 DUP2 SUB DUP3 MSTORE SUB DUP3 PUSH3 0x438 JUMP JUMPDEST PUSH3 0x12C5 PUSH3 0x12BE DUP3 MLOAD SWAP1 JUMP JUMPDEST SWAP2 PUSH1 0x20 ADD SWAP1 JUMP JUMPDEST KECCAK256 SWAP1 PUSH1 0x20 DUP2 MLOAD SWAP2 ADD DUP6 CREATE2 SWAP8 PUSH3 0x335 JUMP JUMPDEST PUSH3 0x12E1 DUP9 PUSH3 0x335 JUMP JUMPDEST EQ ISZERO PUSH3 0xFDD JUMP JUMPDEST PUSH3 0x12FE PUSH3 0x12F8 DUP8 PUSH3 0x85A JUMP JUMPDEST PUSH3 0x85A JUMP JUMPDEST SWAP2 PUSH4 0x485CC955 SWAP3 DUP1 EXTCODESIZE ISZERO PUSH3 0x25E JUMPI PUSH3 0x1327 SWAP4 DUP4 SWAP2 PUSH3 0x131E PUSH1 0x40 MLOAD SWAP1 JUMP JUMPDEST SWAP6 DUP7 SWAP3 PUSH1 0xE0 SHL SWAP1 JUMP JUMPDEST DUP3 MSTORE DUP2 DUP4 DUP2 PUSH3 0x133C DUP11 DUP13 PUSH1 0x4 DUP5 ADD PUSH3 0x1044 JUMP JUMPDEST SUB SWAP3 GAS CALL SWAP2 DUP3 ISZERO PUSH3 0x143D JUMPI PUSH3 0x898 DUP6 PUSH3 0x1379 SWAP4 DUP9 SWAP4 PUSH3 0x137F SWAP8 DUP13 SWAP8 PUSH3 0x1409 JUMPI JUMPDEST POP POP PUSH3 0x898 DUP7 PUSH3 0x1379 DUP5 PUSH3 0x898 DUP9 DUP7 PUSH3 0x865 JUMP JUMPDEST PUSH3 0xDE5 JUMP JUMPDEST PUSH3 0x13B7 PUSH1 0x2 PUSH3 0x1391 DUP7 DUP3 PUSH3 0x10C2 JUMP JUMPDEST PUSH3 0x13B3 PUSH3 0x13AB PUSH3 0x13A5 PUSH1 0x3 PUSH3 0x10FD JUMP JUMPDEST PUSH3 0x1138 JUMP JUMPDEST PUSH1 0x3 PUSH3 0x1195 JUMP JUMPDEST SLOAD SWAP1 JUMP JUMPDEST SWAP2 PUSH3 0xE64 PUSH3 0x13F3 PUSH3 0x13EC PUSH32 0xD3648BD0F6BA80134A33BA9275AC585D9D315F0AD8355CDDEFDE31AFA28D0E9 SWAP4 PUSH3 0x85A JUMP JUMPDEST SWAP4 PUSH3 0x85A JUMP JUMPDEST SWAP4 PUSH3 0x13FE PUSH1 0x40 MLOAD SWAP1 JUMP JUMPDEST SWAP2 DUP3 SWAP2 DUP9 DUP4 PUSH3 0xA4E JUMP JUMPDEST DUP2 PUSH3 0x142D SWAP3 SWAP1 RETURNDATASIZE LT PUSH3 0x1435 JUMPI JUMPDEST PUSH3 0x1424 DUP2 DUP4 PUSH3 0x438 JUMP JUMPDEST DUP2 ADD SWAP1 PUSH3 0x252 JUMP JUMPDEST CODESIZE DUP1 PUSH3 0x1361 JUMP JUMPDEST POP RETURNDATASIZE PUSH3 0x1418 JUMP JUMPDEST PUSH3 0x106A JUMP JUMPDEST SWAP1 PUSH3 0x122D JUMP JUMPDEST POP PUSH3 0x120D PUSH3 0x145A DUP7 PUSH3 0x335 JUMP JUMPDEST PUSH3 0x1465 DUP6 PUSH3 0x335 JUMP JUMPDEST EQ ISZERO SWAP1 POP PUSH3 0x1202 JUMP JUMPDEST ISZERO PUSH3 0x1477 JUMPI JUMP JUMPDEST PUSH1 0x40 MLOAD PUSH32 0x8C379A000000000000000000000000000000000000000000000000000000000 DUP2 MSTORE PUSH1 0x20 PUSH1 0x4 DUP3 ADD MSTORE PUSH1 0xB PUSH1 0x24 DUP3 ADD MSTORE PUSH32 0x494E565F414D4F554E5453000000000000000000000000000000000000000000 PUSH1 0x44 DUP3 ADD MSTORE PUSH1 0x64 SWAP1 REVERT JUMPDEST SWAP1 POP MLOAD SWAP1 PUSH3 0x267 DUP3 PUSH3 0x748 JUMP JUMPDEST SWAP1 PUSH1 0x20 DUP3 DUP3 SUB SLT PUSH3 0x25E JUMPI PUSH3 0x2CE SWAP2 PUSH3 0x14D6 JUMP JUMPDEST PUSH1 0x40 SWAP1 PUSH3 0xA6C PUSH3 0x267 SWAP5 SWAP7 SWAP6 SWAP4 SWAP7 PUSH3 0x1520 PUSH1 0x60 DUP5 ADD SWAP9 PUSH1 0x0 DUP6 ADD SWAP1 PUSH3 0x38B JUMP JUMPDEST PUSH1 0x20 DUP4 ADD SWAP1 PUSH3 0x38B JUMP JUMPDEST ISZERO PUSH3 0x1533 JUMPI JUMP JUMPDEST PUSH1 0x40 MLOAD PUSH32 0x8C379A000000000000000000000000000000000000000000000000000000000 DUP2 MSTORE PUSH1 0x20 PUSH1 0x4 DUP3 ADD MSTORE PUSH1 0xB PUSH1 0x24 DUP3 ADD MSTORE PUSH32 0x54465F415F4641494C4544000000000000000000000000000000000000000000 PUSH1 0x44 DUP3 ADD MSTORE PUSH1 0x64 SWAP1 REVERT JUMPDEST ISZERO PUSH3 0x159A JUMPI JUMP JUMPDEST PUSH1 0x40 MLOAD PUSH32 0x8C379A000000000000000000000000000000000000000000000000000000000 DUP2 MSTORE PUSH1 0x20 PUSH1 0x4 DUP3 ADD MSTORE PUSH1 0xB PUSH1 0x24 DUP3 ADD MSTORE PUSH32 0x54465F425F4641494C4544000000000000000000000000000000000000000000 PUSH1 0x44 DUP3 ADD MSTORE PUSH1 0x64 SWAP1 REVERT JUMPDEST SWAP1 POP MLOAD SWAP1 PUSH3 0x267 DUP3 PUSH3 0x29E JUMP JUMPDEST SWAP1 PUSH1 0x20 DUP3 DUP3 SUB SLT PUSH3 0x25E JUMPI PUSH3 0x2CE SWAP2 PUSH3 0x15F9 JUMP JUMPDEST ISZERO PUSH3 0x1627 JUMPI JUMP JUMPDEST PUSH1 0x40 MLOAD PUSH32 0x8C379A000000000000000000000000000000000000000000000000000000000 DUP2 MSTORE PUSH1 0x20 PUSH1 0x4 DUP3 ADD MSTORE PUSH1 0xB PUSH1 0x24 DUP3 ADD MSTORE PUSH32 0x4D494E545F4641494C4544000000000000000000000000000000000000000000 PUSH1 0x44 DUP3 ADD MSTORE PUSH1 0x64 SWAP1 REVERT JUMPDEST ISZERO PUSH3 0x168E JUMPI JUMP JUMPDEST PUSH1 0x40 MLOAD PUSH32 0x8C379A000000000000000000000000000000000000000000000000000000000 DUP2 MSTORE PUSH1 0x20 PUSH1 0x4 DUP3 ADD MSTORE PUSH1 0x9 PUSH1 0x24 DUP3 ADD MSTORE PUSH32 0x4E4F5F4C4F434B45520000000000000000000000000000000000000000000000 PUSH1 0x44 DUP3 ADD MSTORE PUSH1 0x64 SWAP1 REVERT JUMPDEST ISZERO PUSH3 0x16F5 JUMPI JUMP JUMPDEST PUSH1 0x40 MLOAD PUSH32 0x8C379A000000000000000000000000000000000000000000000000000000000 DUP2 MSTORE PUSH1 0x20 PUSH1 0x4 DUP3 ADD MSTORE PUSH1 0xC PUSH1 0x24 DUP3 ADD MSTORE PUSH32 0x494E565F4455524154494F4E0000000000000000000000000000000000000000 PUSH1 0x44 DUP3 ADD MSTORE PUSH1 0x64 SWAP1 REVERT JUMPDEST DUP2 DUP2 MUL SWAP3 SWAP2 DUP2 ISZERO SWAP2 DUP5 DIV EQ OR ISZERO PUSH3 0x1166 JUMPI JUMP JUMPDEST PUSH32 0x4E487B7100000000000000000000000000000000000000000000000000000000 PUSH1 0x0 MSTORE PUSH1 0x12 PUSH1 0x4 MSTORE PUSH1 0x24 PUSH1 0x0 REVERT JUMPDEST SWAP1 PUSH3 0x17A2 JUMP JUMPDEST SWAP2 SWAP1 JUMP JUMPDEST SWAP1 DUP2 ISZERO PUSH3 0x17AE JUMPI DIV SWAP1 JUMP JUMPDEST PUSH3 0x1768 JUMP JUMPDEST SWAP2 SWAP1 DUP3 SUB SWAP2 DUP3 GT PUSH3 0x1166 JUMPI JUMP JUMPDEST PUSH1 0x0 JUMPDEST DUP4 DUP2 LT PUSH3 0x17D6 JUMPI POP POP PUSH1 0x0 SWAP2 ADD MSTORE JUMP JUMPDEST DUP2 DUP2 ADD MLOAD DUP4 DUP3 ADD MSTORE PUSH1 0x20 ADD PUSH3 0x17C5 JUMP JUMPDEST PUSH3 0x180C PUSH3 0x1816 PUSH1 0x20 SWAP4 PUSH3 0x4D2 SWAP4 PUSH3 0x1800 DUP2 MLOAD SWAP1 JUMP JUMPDEST DUP1 DUP4 MSTORE SWAP4 DUP5 SWAP3 PUSH1 0x20 ADD SWAP1 JUMP JUMPDEST SWAP6 DUP7 SWAP2 ADD PUSH3 0x17C2 JUMP JUMPDEST PUSH1 0x1F ADD PUSH32 0xFFFFFFFFFFFFFFFFFFFFFFFFFFFFFFFFFFFFFFFFFFFFFFFFFFFFFFFFFFFFFFE0 AND SWAP1 JUMP JUMPDEST SWAP7 SWAP6 SWAP4 SWAP5 PUSH3 0x1880 PUSH3 0x267 SWAP7 PUSH3 0x1879 PUSH1 0xA0 SWAP7 PUSH3 0x1872 PUSH3 0x188E SWAP8 PUSH1 0x20 DUP15 PUSH3 0x1062 PUSH1 0xC0 DUP3 ADD SWAP11 PUSH1 0x0 DUP4 ADD SWAP1 PUSH3 0x38B JUMP JUMPDEST PUSH1 0x40 DUP13 ADD MSTORE JUMP JUMPDEST PUSH1 0x60 DUP11 ADD MSTORE JUMP JUMPDEST DUP8 DUP3 SUB PUSH1 0x80 DUP10 ADD MSTORE PUSH3 0x17E7 JUMP JUMPDEST SWAP5 ADD MSTORE JUMP JUMPDEST SWAP1 PUSH3 0x18A3 PUSH3 0x4F5 DUP4 PUSH3 0x496 JUMP JUMPDEST SWAP2 DUP3 MSTORE JUMP JUMPDEST RETURNDATASIZE ISZERO PUSH3 0x18C5 JUMPI PUSH3 0x18BA RETURNDATASIZE PUSH3 0x1893 JUMP JUMPDEST SWAP1 RETURNDATASIZE PUSH1 0x0 PUSH1 0x20 DUP5 ADD RETURNDATACOPY JUMP JUMPDEST PUSH1 0x60 SWAP1 JUMP JUMPDEST ISZERO PUSH3 0x18D2 JUMPI JUMP JUMPDEST PUSH1 0x40 MLOAD PUSH32 0x8C379A000000000000000000000000000000000000000000000000000000000 DUP2 MSTORE PUSH1 0x20 PUSH1 0x4 DUP3 ADD MSTORE PUSH1 0xB PUSH1 0x24 DUP3 ADD MSTORE PUSH32 0x4C4F434B5F4641494C4544000000000000000000000000000000000000000000 PUSH1 0x44 DUP3 ADD MSTORE PUSH1 0x64 SWAP1 REVERT JUMPDEST SWAP1 DUP2 MSTORE PUSH1 0x40 DUP2 ADD SWAP3 SWAP2 PUSH3 0x267 SWAP2 PUSH1 0x20 ADD MSTORE JUMP JUMPDEST SWAP7 SWAP5 SWAP4 SWAP1 SWAP2 PUSH3 0x1964 PUSH3 0x1959 DUP5 PUSH3 0x335 JUMP JUMPDEST PUSH3 0x11CD DUP11 PUSH3 0x335 JUMP JUMPDEST PUSH1 0x0 SWAP2 PUSH3 0x1A13 PUSH3 0x1976 DUP5 PUSH3 0xC9D JUMP JUMPDEST SWAP3 PUSH3 0x1982 DUP5 PUSH3 0x335 JUMP JUMPDEST PUSH3 0x198D DUP13 PUSH3 0x335 JUMP JUMPDEST EQ ISZERO DUP1 PUSH3 0x1D9C JUMPI JUMPDEST PUSH3 0x19A1 SWAP1 PUSH3 0xEDC JUMP JUMPDEST PUSH3 0x19AC DUP6 PUSH3 0x8C6 JUMP JUMPDEST DUP2 GT DUP1 PUSH3 0x1D82 JUMPI JUMPDEST PUSH3 0x19C0 SWAP1 PUSH3 0x146F JUMP JUMPDEST PUSH3 0x19CC DUP7 DUP13 PUSH3 0x11B1 JUMP JUMPDEST SWAP6 PUSH3 0x19DD PUSH3 0x12F8 DUP9 SWAP14 PUSH3 0x85A JUMP JUMPDEST SWAP8 PUSH1 0x20 PUSH4 0x23B872DD SWAP4 CALLER SWAP11 DUP11 DUP11 DUP14 PUSH3 0x19F5 PUSH1 0x40 MLOAD SWAP1 JUMP JUMPDEST SWAP10 DUP11 SWAP6 DUP7 SWAP5 DUP6 SWAP4 PUSH3 0x1A07 DUP14 PUSH1 0xE0 SHL SWAP1 JUMP JUMPDEST DUP6 MSTORE PUSH1 0x4 DUP6 ADD PUSH3 0x14FC JUMP JUMPDEST SUB SWAP3 GAS CALL SWAP4 DUP5 ISZERO PUSH3 0x143D JUMPI DUP8 PUSH1 0x20 SWAP5 PUSH3 0x1A64 PUSH3 0x1A4C PUSH3 0x12F8 DUP15 SWAP8 PUSH3 0x12F8 DUP16 SWAP12 PUSH3 0x1A07 SWAP9 PUSH1 0x0 SWAP2 PUSH3 0x1D60 JUMPI JUMPDEST POP PUSH3 0x152B JUMP JUMPDEST SWAP5 PUSH3 0x1A57 PUSH1 0x40 MLOAD SWAP1 JUMP JUMPDEST SWAP9 DUP10 SWAP8 DUP9 SWAP7 DUP8 SWAP6 PUSH1 0xE0 SHL SWAP1 JUMP JUMPDEST SUB SWAP3 GAS CALL DUP1 ISZERO PUSH3 0x143D JUMPI PUSH3 0x1A84 SWAP2 PUSH1 0x0 SWAP2 PUSH3 0x1D2B JUMPI JUMPDEST POP PUSH3 0x1592 JUMP JUMPDEST ISZERO PUSH3 0x1C9B JUMPI SWAP1 PUSH3 0x1AB7 PUSH3 0x1B19 SWAP3 PUSH3 0x1AAF PUSH3 0xCE3 PUSH3 0x1AA8 PUSH1 0x4 PUSH3 0xC61 JUMP JUMPDEST SWAP3 PUSH3 0x335 JUMP JUMPDEST EQ ISZERO PUSH3 0x1686 JUMP JUMPDEST PUSH3 0x1ACE PUSH3 0x1AC6 DUP3 PUSH3 0x8C6 JUMP JUMPDEST DUP7 GT PUSH3 0x16ED JUMP JUMPDEST PUSH1 0x20 PUSH3 0x1ADF PUSH3 0x12F8 DUP6 PUSH3 0x85A JUMP JUMPDEST PUSH4 0x6A627842 SWAP1 PUSH3 0x1B0D DUP5 PUSH3 0x1AF5 ADDRESS PUSH3 0x85A JUMP JUMPDEST SWAP4 PUSH3 0x1B00 PUSH1 0x40 MLOAD SWAP1 JUMP JUMPDEST SWAP8 DUP9 SWAP6 DUP7 SWAP5 DUP6 SWAP4 PUSH1 0xE0 SHL SWAP1 JUMP JUMPDEST DUP4 MSTORE PUSH1 0x4 DUP4 ADD PUSH3 0x396 JUMP JUMPDEST SUB SWAP3 GAS CALL SWAP2 DUP3 ISZERO PUSH3 0x143D JUMPI PUSH1 0x0 SWAP3 PUSH3 0x1C64 JUMPI JUMPDEST POP DUP1 DUP3 SWAP8 PUSH3 0x1B3D DUP3 PUSH3 0x8C6 JUMP JUMPDEST DUP5 GT PUSH3 0x1B4A SWAP1 PUSH3 0x161F JUMP JUMPDEST PUSH3 0x1B56 PUSH1 0xA PUSH3 0x8C6 JUMP JUMPDEST PUSH3 0x1B62 SWAP1 DUP6 PUSH3 0x1754 JUMP JUMPDEST PUSH3 0x1B6F PUSH2 0x2710 PUSH3 0x8C6 JUMP JUMPDEST PUSH3 0x1B7A SWAP2 PUSH3 0x1797 JUMP JUMPDEST SWAP4 DUP5 PUSH3 0x1B87 SWAP2 PUSH3 0x17B4 JUMP JUMPDEST SWAP4 PUSH3 0x1B94 PUSH1 0x4 PUSH3 0xC61 JUMP JUMPDEST SWAP2 DUP7 PUSH3 0x1BA0 PUSH1 0x40 MLOAD SWAP1 JUMP JUMPDEST SWAP3 DUP4 SWAP3 DUP12 DUP10 DUP13 PUSH1 0x20 DUP8 ADD PUSH32 0x44E5550F00000000000000000000000000000000000000000000000000000000 DUP2 MSTORE PUSH1 0x4 ADD SWAP6 PUSH3 0x1BDC SWAP7 PUSH3 0x183E JUMP JUMPDEST PUSH1 0x20 DUP3 ADD DUP2 SUB DUP3 MSTORE SUB PUSH3 0x1BF1 SWAP1 DUP3 PUSH3 0x438 JUMP JUMPDEST DUP3 PUSH1 0x20 DUP3 ADD SWAP2 MLOAD SWAP3 GAS CALL PUSH3 0x1C05 PUSH3 0x18A8 JUMP JUMPDEST POP PUSH3 0x1C11 SWAP1 PUSH3 0x18CA JUMP JUMPDEST PUSH32 0x1888A9947A0BA12FBCAEA833C7145E4AE63C88020EDC424D7EDA6753FC3411E0 SWAP2 PUSH3 0x1C3E SWAP1 PUSH3 0x85A JUMP JUMPDEST SWAP3 PUSH3 0x1C4A SWAP1 PUSH3 0x85A JUMP JUMPDEST SWAP4 PUSH3 0x1C55 PUSH1 0x40 MLOAD SWAP1 JUMP JUMPDEST SWAP2 DUP3 SWAP2 PUSH3 0xE64 SWAP2 DUP4 PUSH3 0x1931 JUMP JUMPDEST PUSH3 0x1C8B SWAP2 SWAP3 POP PUSH1 0x20 RETURNDATASIZE DUP2 GT PUSH3 0x1C93 JUMPI JUMPDEST PUSH3 0x1C82 DUP2 DUP4 PUSH3 0x438 JUMP JUMPDEST DUP2 ADD SWAP1 PUSH3 0x1608 JUMP JUMPDEST SWAP1 CODESIZE PUSH3 0x1B2E JUMP JUMPDEST POP RETURNDATASIZE PUSH3 0x1C76 JUMP JUMPDEST POP SWAP5 POP PUSH3 0x1CD7 SWAP3 POP SWAP1 PUSH3 0x1CB6 PUSH3 0x12F8 PUSH1 0x20 SWAP4 PUSH3 0x85A JUMP JUMPDEST PUSH3 0x1B0D DUP7 PUSH4 0x6A627842 PUSH3 0x1CCA PUSH1 0x40 MLOAD SWAP1 JUMP JUMPDEST SWAP7 DUP8 SWAP6 DUP7 SWAP5 DUP6 SWAP4 PUSH1 0xE0 SHL SWAP1 JUMP JUMPDEST SUB SWAP3 GAS CALL DUP1 ISZERO PUSH3 0x143D JUMPI PUSH3 0x267 SWAP2 PUSH1 0x0 SWAP2 PUSH3 0x1D08 JUMPI JUMPDEST POP PUSH3 0x1D01 PUSH3 0x179E DUP3 SWAP6 PUSH3 0x8C6 JUMP JUMPDEST GT PUSH3 0x161F JUMP JUMPDEST PUSH3 0x1D24 SWAP2 POP PUSH1 0x20 RETURNDATASIZE DUP2 GT PUSH3 0x1C93 JUMPI PUSH3 0x1C82 DUP2 DUP4 PUSH3 0x438 JUMP JUMPDEST CODESIZE PUSH3 0x1CF0 JUMP JUMPDEST PUSH3 0x1D51 SWAP2 POP PUSH1 0x20 RETURNDATASIZE DUP2 GT PUSH3 0x1D58 JUMPI JUMPDEST PUSH3 0x1D48 DUP2 DUP4 PUSH3 0x438 JUMP JUMPDEST DUP2 ADD SWAP1 PUSH3 0x14E5 JUMP JUMPDEST CODESIZE PUSH3 0x1A7D JUMP JUMPDEST POP RETURNDATASIZE PUSH3 0x1D3C JUMP JUMPDEST PUSH3 0x1D7B SWAP2 POP DUP13 RETURNDATASIZE DUP2 GT PUSH3 0x1D58 JUMPI PUSH3 0x1D48 DUP2 DUP4 PUSH3 0x438 JUMP JUMPDEST CODESIZE PUSH3 0x1A45 JUMP JUMPDEST POP PUSH3 0x19C0 PUSH3 0x1D92 DUP7 PUSH3 0x8C6 JUMP JUMPDEST DUP9 GT SWAP1 POP PUSH3 0x19B5 JUMP JUMPDEST POP PUSH3 0x19A1 PUSH3 0x1DAC DUP6 PUSH3 0x335 JUMP JUMPDEST PUSH3 0x1DB7 DUP9 PUSH3 0x335 JUMP JUMPDEST EQ ISZERO SWAP1 POP PUSH3 0x1996 JUMP JUMPDEST PUSH3 0x2CE SWAP2 PUSH3 0x1249 SWAP2 PUSH3 0x1DD6 DUP3 PUSH3 0x335 JUMP JUMPDEST PUSH3 0x1DE1 DUP3 PUSH3 0x335 JUMP JUMPDEST LT ISZERO PUSH3 0x1DF6 JUMPI PUSH3 0x898 SWAP1 JUMPDEST PUSH1 0x1 PUSH3 0x865 JUMP JUMPDEST SWAP1 PUSH3 0x898 SWAP1 PUSH3 0x1DEE JUMP JUMPDEST PUSH3 0x2CE SWAP2 PUSH3 0x898 PUSH3 0x1249 SWAP3 PUSH3 0x1E19 PUSH1 0x0 SWAP1 JUMP JUMPDEST POP PUSH1 0x1 PUSH3 0x865 JUMP JUMPDEST PUSH3 0x1EBA SWAP1 PUSH3 0x1EAA PUSH3 0x267 SWAP8 PUSH3 0x1E60 SWAP8 PUSH3 0x1E41 PUSH1 0x4 PUSH3 0xC61 JUMP JUMPDEST SWAP8 PUSH1 0x0 SWAP10 DUP11 SWAP10 PUSH3 0x1AAF PUSH3 0xCE3 PUSH3 0x1E5A DUP14 PUSH3 0xC9D JUMP JUMPDEST PUSH3 0x335 JUMP JUMPDEST PUSH3 0x1E6C PUSH1 0x4 PUSH3 0xC61 JUMP JUMPDEST SWAP8 PUSH3 0x1E77 PUSH1 0x40 MLOAD SWAP1 JUMP JUMPDEST SWAP8 DUP9 SWAP7 PUSH1 0x4 PUSH1 0x20 DUP10 ADD PUSH32 0x44E5550F00000000000000000000000000000000000000000000000000000000 DUP2 MSTORE ADD PUSH3 0x183E JUMP JUMPDEST PUSH1 0x20 DUP3 ADD DUP2 SUB DUP3 MSTORE SUB DUP3 PUSH3 0x438 JUMP JUMPDEST DUP3 PUSH1 0x20 DUP3 ADD SWAP2 MLOAD SWAP3 GAS CALL PUSH3 0x1ECE PUSH3 0x18A8 JUMP JUMPDEST POP PUSH3 0x18CA JUMP JUMPDEST ISZERO PUSH3 0x1EDD JUMPI JUMP JUMPDEST PUSH1 0x40 MLOAD PUSH32 0x8C379A000000000000000000000000000000000000000000000000000000000 DUP2 MSTORE PUSH1 0x20 PUSH1 0x4 DUP3 ADD MSTORE PUSH1 0x8 PUSH1 0x24 DUP3 ADD MSTORE PUSH32 0x494E565F50414952000000000000000000000000000000000000000000000000 PUSH1 0x44 DUP3 ADD MSTORE PUSH1 0x64 SWAP1 REVERT JUMPDEST ISZERO PUSH3 0x1F44 JUMPI JUMP JUMPDEST PUSH1 0x40 MLOAD PUSH32 0x8C379A000000000000000000000000000000000000000000000000000000000 DUP2 MSTORE PUSH1 0x20 PUSH1 0x4 DUP3 ADD MSTORE PUSH1 0x5 PUSH1 0x24 DUP3 ADD MSTORE PUSH32 0x4E4F5F4C50000000000000000000000000000000000000000000000000000000 PUSH1 0x44 DUP3 ADD MSTORE PUSH1 0x64 SWAP1 REVERT JUMPDEST ISZERO PUSH3 0x1FAB JUMPI JUMP JUMPDEST PUSH1 0x40 MLOAD PUSH32 0x8C379A000000000000000000000000000000000000000000000000000000000 DUP2 MSTORE PUSH1 0x20 PUSH1 0x4 DUP3 ADD MSTORE PUSH1 0x9 PUSH1 0x24 DUP3 ADD MSTORE PUSH32 0x54465F4641494C45440000000000000000000000000000000000000000000000 PUSH1 0x44 DUP3 ADD MSTORE PUSH1 0x64 SWAP1 REVERT JUMPDEST SWAP1 SWAP2 PUSH3 0x2018 PUSH1 0x4 PUSH3 0xC61 JUMP JUMPDEST SWAP4 PUSH3 0x2056 PUSH3 0x2043 PUSH1 0x0 SWAP7 PUSH3 0x1E5A PUSH3 0x2033 DUP10 PUSH3 0xC9D JUMP JUMPDEST SWAP2 PUSH3 0x1AAF PUSH3 0xCE3 DUP5 PUSH3 0x335 JUMP JUMPDEST PUSH3 0x204E DUP6 PUSH3 0x335 JUMP JUMPDEST EQ ISZERO PUSH3 0x1ED5 JUMP JUMPDEST PUSH3 0x2065 PUSH3 0x12F8 DUP5 PUSH3 0x85A JUMP JUMPDEST SWAP5 PUSH4 0x70A08231 PUSH3 0x2080 PUSH3 0x2079 PUSH1 0x40 MLOAD SWAP1 JUMP JUMPDEST SWAP2 PUSH1 0xE0 SHL SWAP1 JUMP JUMPDEST DUP2 MSTORE PUSH1 0x20 DUP2 DUP1 PUSH3 0x2095 DUP10 PUSH1 0x4 DUP4 ADD PUSH3 0x396 JUMP JUMPDEST SUB DUP2 DUP11 GAS STATICCALL SWAP1 DUP2 ISZERO PUSH3 0x143D JUMPI PUSH1 0x0 SWAP2 PUSH3 0x21E0 JUMPI JUMPDEST POP PUSH3 0x20C3 PUSH3 0x20BB DUP4 PUSH3 0x8C6 JUMP JUMPDEST DUP3 GT PUSH3 0x1F3C JUMP JUMPDEST PUSH3 0x20F2 PUSH3 0x20DE PUSH3 0x20D7 PUSH1 0xA PUSH3 0x8C6 JUMP JUMPDEST DUP4 PUSH3 0x1754 JUMP JUMPDEST PUSH3 0x20EB PUSH2 0x2710 PUSH3 0x8C6 JUMP JUMPDEST SWAP1 PUSH3 0x1797 JUMP JUMPDEST PUSH1 0x20 DUP8 PUSH3 0x2101 DUP4 DUP6 PUSH3 0x17B4 JUMP JUMPDEST SWAP10 PUSH3 0x1A07 DUP7 PUSH4 0x23B872DD PUSH3 0x2133 PUSH3 0x211B ADDRESS PUSH3 0x85A JUMP JUMPDEST SWAP9 PUSH3 0x2126 PUSH1 0x40 MLOAD SWAP1 JUMP JUMPDEST SWAP10 DUP11 SWAP8 DUP9 SWAP7 DUP8 SWAP6 PUSH1 0xE0 SHL SWAP1 JUMP JUMPDEST SUB SWAP3 GAS CALL SWAP1 DUP2 ISZERO PUSH3 0x143D JUMPI PUSH3 0x1EBA DUP8 PUSH3 0x1EAA DUP11 SWAP4 PUSH3 0x2174 SWAP9 PUSH3 0x2167 DUP15 SWAP8 DUP11 SWAP10 PUSH1 0x0 SWAP2 PUSH3 0x21BD JUMPI JUMPDEST POP PUSH3 0x1FA3 JUMP JUMPDEST DUP11 PUSH3 0x1E6C PUSH1 0x4 PUSH3 0xC61 JUMP JUMPDEST PUSH3 0x21A4 PUSH3 0x13EC PUSH32 0x1888A9947A0BA12FBCAEA833C7145E4AE63C88020EDC424D7EDA6753FC3411E0 SWAP4 PUSH3 0x85A JUMP JUMPDEST SWAP4 PUSH3 0xE64 PUSH3 0x21B3 PUSH1 0x40 MLOAD SWAP1 JUMP JUMPDEST SWAP3 DUP4 SWAP3 DUP4 PUSH3 0x1931 JUMP JUMPDEST PUSH3 0x21D9 SWAP2 POP PUSH1 0x20 RETURNDATASIZE DUP2 GT PUSH3 0x1D58 JUMPI PUSH3 0x1D48 DUP2 DUP4 PUSH3 0x438 JUMP JUMPDEST CODESIZE PUSH3 0x2160 JUMP JUMPDEST PUSH3 0x21FC SWAP2 POP PUSH1 0x20 RETURNDATASIZE DUP2 GT PUSH3 0x1C93 JUMPI PUSH3 0x1C82 DUP2 DUP4 PUSH3 0x438 JUMP JUMPDEST CODESIZE PUSH3 0x20AB JUMP JUMPDEST PUSH1 0x40 SWAP1 PUSH3 0x1062 PUSH3 0x267 SWAP5 SWAP7 SWAP6 SWAP4 SWAP7 PUSH3 0x2227 PUSH1 0x60 DUP5 ADD SWAP9 PUSH1 0x0 DUP6 ADD SWAP1 PUSH3 0x38B JUMP JUMPDEST PUSH1 0x20 DUP4 ADD MSTORE JUMP JUMPDEST ISZERO PUSH3 0x2236 JUMPI JUMP JUMPDEST PUSH1 0x40 MLOAD PUSH32 0x8C379A000000000000000000000000000000000000000000000000000000000 DUP2 MSTORE PUSH1 0x20 PUSH1 0x4 DUP3 ADD MSTORE PUSH1 0xD PUSH1 0x24 DUP3 ADD MSTORE PUSH32 0x554E4C4F434B5F4641494C454400000000000000000000000000000000000000 PUSH1 0x44 DUP3 ADD MSTORE PUSH1 0x64 SWAP1 REVERT JUMPDEST PUSH3 0x267 SWAP3 PUSH3 0x22C8 SWAP3 PUSH3 0x2316 PUSH3 0x22AF PUSH1 0x4 PUSH3 0xC61 JUMP JUMPDEST SWAP4 PUSH1 0x0 SWAP6 DUP7 SWAP6 PUSH3 0x1AAF PUSH3 0xCE3 PUSH3 0x1E5A DUP10 PUSH3 0xC9D JUMP JUMPDEST PUSH3 0x1EAA PUSH3 0x22D8 PUSH1 0x4 PUSH3 0xC61 JUMP JUMPDEST SWAP5 PUSH3 0x22E3 PUSH1 0x40 MLOAD SWAP1 JUMP JUMPDEST SWAP5 DUP6 SWAP4 PUSH1 0x4 PUSH1 0x20 DUP7 ADD PUSH32 0x573044E300000000000000000000000000000000000000000000000000000000 DUP2 MSTORE ADD PUSH3 0x2203 JUMP JUMPDEST DUP3 PUSH1 0x20 DUP3 ADD SWAP2 MLOAD SWAP3 GAS CALL PUSH3 0x232A PUSH3 0x18A8 JUMP JUMPDEST POP PUSH3 0x222E JUMP JUMPDEST PUSH3 0x267 SWAP1 PUSH3 0x2340 PUSH3 0xCC8 JUMP JUMPDEST PUSH3 0x23AD JUMP JUMPDEST ISZERO PUSH3 0x234E JUMPI JUMP JUMPDEST PUSH1 0x40 MLOAD PUSH32 0x8C379A000000000000000000000000000000000000000000000000000000000 DUP2 MSTORE PUSH1 0x20 PUSH1 0x4 DUP3 ADD MSTORE PUSH1 0xA PUSH1 0x24 DUP3 ADD MSTORE PUSH32 0x494E565F4C4F434B455200000000000000000000000000000000000000000000 PUSH1 0x44 DUP3 ADD MSTORE PUSH1 0x64 SWAP1 REVERT JUMPDEST PUSH3 0x23D4 PUSH3 0x23C1 PUSH3 0x1E5A PUSH1 0x0 PUSH3 0xC9D JUMP JUMPDEST PUSH3 0x23CC DUP4 PUSH3 0x335 JUMP JUMPDEST EQ ISZERO PUSH3 0x2346 JUMP JUMPDEST PUSH3 0x23E0 PUSH1 0x4 PUSH3 0xC61 JUMP JUMPDEST SWAP1 PUSH3 0x23EE DUP2 PUSH1 0x4 PUSH3 0xDE5 JUMP JUMPDEST PUSH3 0xE56 PUSH3 0xE4F PUSH32 0x98816C25FDD38FE4567B76858CE644A62161B5272648B051B397055A72506892 SWAP4 PUSH3 0x85A JUMP JUMPDEST PUSH3 0x267 SWAP1 PUSH3 0x2331 JUMP JUMPDEST PUSH3 0x267 SWAP1 PUSH3 0x2438 PUSH3 0xCC8 JUMP JUMPDEST PUSH3 0x24A5 JUMP JUMPDEST ISZERO PUSH3 0x2446 JUMPI JUMP JUMPDEST PUSH1 0x40 MLOAD PUSH32 0x8C379A000000000000000000000000000000000000000000000000000000000 DUP2 MSTORE PUSH1 0x20 PUSH1 0x4 DUP3 ADD MSTORE PUSH1 0xC PUSH1 0x24 DUP3 ADD MSTORE PUSH32 0x4645455F544F4F5F484947480000000000000000000000000000000000000000 PUSH1 0x44 DUP3 ADD MSTORE PUSH1 0x64 SWAP1 REVERT JUMPDEST PUSH3 0x24C0 PUSH3 0x24B7 PUSH3 0x2CE PUSH3 0x8D6 JUMP JUMPDEST DUP3 GT ISZERO PUSH3 0x243E JUMP JUMPDEST PUSH3 0x24CC PUSH1 0x5 PUSH3 0x10FD JUMP JUMPDEST SWAP1 PUSH3 0x24DA DUP2 PUSH1 0x5 PUSH3 0x1195 JUMP JUMPDEST PUSH32 0x14914DA2BF76024616FBE1859783FCD4DBDDCB179B1F3A854949FBF920DCB957 SWAP2 PUSH3 0x250A PUSH3 0x21B3 PUSH1 0x40 MLOAD SWAP1 JUMP JUMPDEST SUB SWAP1 LOG1 JUMP JUMPDEST PUSH3 0x267 SWAP1 PUSH3 0x2429 JUMP JUMPDEST PUSH3 0x2CE PUSH1 0x5 PUSH3 0x10FD JUMP JUMPDEST PUSH3 0x267 SWAP1 PUSH3 0x2535 PUSH3 0xCC8 JUMP JUMPDEST PUSH3 0x267 SWAP1 PUSH3 0x250F JUMP JUMPDEST PUSH3 0x267 SWAP1 PUSH3 0x2526 JUMP JUMPDEST PUSH3 0x2555 PUSH3 0xCC8 JUMP JUMPDEST PUSH1 0x40 MLOAD PUSH32 0x8C379A000000000000000000000000000000000000000000000000000000000 DUP2 MSTORE PUSH1 0x20 PUSH1 0x4 DUP3 ADD MSTORE PUSH1 0xF PUSH1 0x24 DUP3 ADD MSTORE PUSH32 0x4E4F545F494D504C454D454E5445440000000000000000000000000000000000 PUSH1 0x44 DUP3 ADD MSTORE PUSH1 0x64 SWAP1 REVERT JUMPDEST PUSH3 0x254B JUMP JUMPDEST SWAP1 POP MLOAD SWAP1 PUSH3 0x267 DUP3 PUSH3 0x3EF JUMP JUMPDEST SWAP1 PUSH1 0x20 DUP3 DUP3 SUB SLT PUSH3 0x25E JUMPI PUSH3 0x2CE SWAP2 PUSH3 0x25BA JUMP JUMPDEST PUSH1 0x20 SWAP2 SWAP3 POP PUSH3 0x25EE PUSH1 0x0 SWAP1 JUMP JUMPDEST POP PUSH3 0x25FA ADDRESS PUSH3 0x85A JUMP JUMPDEST PUSH3 0x2620 PUSH1 0x0 PUSH4 0xC9C65396 PUSH3 0x262C PUSH3 0x2613 PUSH1 0x40 MLOAD SWAP1 JUMP JUMPDEST SWAP8 DUP9 SWAP7 DUP8 SWAP6 DUP7 SWAP5 PUSH1 0xE0 SHL SWAP1 JUMP JUMPDEST DUP5 MSTORE PUSH1 0x4 DUP5 ADD PUSH3 0x1044 JUMP JUMPDEST SUB SWAP3 GAS CALL SWAP1 DUP2 ISZERO PUSH3 0x143D JUMPI PUSH1 0x0 SWAP2 PUSH3 0x2644 JUMPI POP SWAP1 JUMP JUMPDEST PUSH3 0x2CE SWAP2 POP PUSH1 0x20 RETURNDATASIZE DUP2 GT PUSH3 0x266A JUMPI JUMPDEST PUSH3 0x2661 DUP2 DUP4 PUSH3 0x438 JUMP JUMPDEST DUP2 ADD SWAP1 PUSH3 0x25C9 JUMP JUMPDEST POP RETURNDATASIZE PUSH3 0x2655 JUMP JUMPDEST PUSH1 0x40 MLOAD PUSH32 0x8C379A000000000000000000000000000000000000000000000000000000000 DUP2 MSTORE PUSH1 0x20 PUSH1 0x4 DUP3 ADD MSTORE PUSH1 0x1F PUSH1 0x24 DUP3 ADD MSTORE PUSH32 0x557365206E6577206C6F636B4C6971756964697479207369676E617475726500 PUSH1 0x44 DUP3 ADD MSTORE PUSH1 0x64 SWAP1 REVERT JUMPDEST PUSH1 0x40 MLOAD PUSH32 0x8C379A000000000000000000000000000000000000000000000000000000000 DUP2 MSTORE PUSH1 0x20 PUSH1 0x4 DUP3 ADD MSTORE PUSH1 0x21 PUSH1 0x24 DUP3 ADD MSTORE PUSH32 0x557365206E657720756E6C6F636B4C6971756964697479207369676E61747572 PUSH1 0x44 DUP3 ADD MSTORE PUSH32 0x6500000000000000000000000000000000000000000000000000000000000000 PUSH1 0x64 DUP3 ADD MSTORE PUSH1 0x84 SWAP1 REVERT INVALID PUSH1 0x80 PUSH1 0x40 MSTORE CALLVALUE PUSH3 0x26 JUMPI PUSH3 0x14 PUSH3 0x9B JUMP JUMPDEST PUSH1 0x40 MLOAD PUSH2 0x308C PUSH3 0x11C DUP3 CODECOPY PUSH2 0x308C SWAP1 RETURN JUMPDEST PUSH1 0x0 DUP1 REVERT JUMPDEST SWAP1 PUSH1 0x1 PUSH1 0x1 PUSH1 0xA0 SHL SUB SWAP1 JUMPDEST SWAP2 DUP2 NOT AND SWAP2 AND OR SWAP1 JUMP JUMPDEST PUSH3 0x56 SWAP1 PUSH3 0x59 SWAP1 PUSH1 0x1 PUSH1 0x1 PUSH1 0xA0 SHL SUB AND DUP3 JUMP JUMPDEST SWAP1 JUMP JUMPDEST PUSH1 0x1 PUSH1 0x1 PUSH1 0xA0 SHL SUB AND SWAP1 JUMP JUMPDEST PUSH3 0x56 SWAP1 PUSH3 0x40 JUMP JUMPDEST PUSH3 0x56 SWAP1 PUSH3 0x65 JUMP JUMPDEST SWAP1 PUSH3 0x8F PUSH3 0x56 PUSH3 0x97 SWAP3 PUSH3 0x70 JUMP JUMPDEST DUP3 SLOAD PUSH3 0x2B JUMP JUMPDEST SWAP1 SSTORE JUMP JUMPDEST PUSH3 0xA5 PUSH3 0xB4 JUMP JUMPDEST PUSH3 0xB2 CALLER PUSH1 0x4 PUSH3 0x7B JUMP JUMPDEST JUMP JUMPDEST PUSH3 0xB2 PUSH3 0xB2 PUSH3 0x105 JUMP JUMPDEST PUSH3 0x56 PUSH3 0x56 PUSH3 0x56 SWAP3 SWAP1 JUMP JUMPDEST PUSH3 0x56 PUSH1 0x1 PUSH3 0xC2 JUMP JUMPDEST SWAP1 PUSH1 0x0 NOT SWAP1 PUSH3 0x36 JUMP JUMPDEST SWAP1 PUSH3 0xFD PUSH3 0x56 PUSH3 0x97 SWAP3 PUSH3 0xC2 JUMP JUMPDEST DUP3 SLOAD PUSH3 0xDE JUMP JUMPDEST PUSH3 0xB2 PUSH3 0x113 PUSH3 0xD2 JUMP JUMPDEST PUSH1 0x0 PUSH3 0xE9 JUMP INVALID PUSH1 0x80 PUSH1 0x40 MSTORE PUSH1 0x4 CALLDATASIZE LT ISZERO PUSH2 0x12 JUMPI PUSH1 0x0 DUP1 REVERT JUMPDEST PUSH1 0x0 CALLDATALOAD PUSH1 0xE0 SHR DUP1 PUSH4 0x22C0D9F EQ PUSH2 0x212 JUMPI DUP1 PUSH4 0x6FDDE03 EQ PUSH2 0x20D JUMPI DUP1 PUSH4 0x902F1AC EQ PUSH2 0x208 JUMPI DUP1 PUSH4 0x95EA7B3 EQ PUSH2 0x203 JUMPI DUP1 PUSH4 0xDFE1681 EQ PUSH2 0x1FE JUMPI DUP1 PUSH4 0x18160DDD EQ PUSH2 0x1F9 JUMPI DUP1 PUSH4 0x23B872DD EQ PUSH2 0x1F4 JUMPI DUP1 PUSH4 0x30ADF81F EQ PUSH2 0x1EF JUMPI DUP1 PUSH4 0x313CE567 EQ PUSH2 0x1EA JUMPI DUP1 PUSH4 0x3566414C EQ PUSH2 0x1E5 JUMPI DUP1 PUSH4 0x3644E515 EQ PUSH2 0x1E0 JUMPI DUP1 PUSH4 0x485CC955 EQ PUSH2 0x1DB JUMPI DUP1 PUSH4 0x5909C0D5 EQ PUSH2 0x1D6 JUMPI DUP1 PUSH4 0x5A3D5493 EQ PUSH2 0x1D1 JUMPI DUP1 PUSH4 0x5C975ABB EQ PUSH2 0x1CC JUMPI DUP1 PUSH4 0x6A627842 EQ PUSH2 0x1C7 JUMPI DUP1 PUSH4 0x70A08231 EQ PUSH2 0x1C2 JUMPI DUP1 PUSH4 0x7174B568 EQ PUSH2 0x1BD JUMPI DUP1 PUSH4 0x7464FC3D EQ PUSH2 0x1B8 JUMPI DUP1 PUSH4 0x7ECEBE00 EQ PUSH2 0x1B3 JUMPI DUP1 PUSH4 0x820D25A8 EQ PUSH2 0x1AE JUMPI DUP1 PUSH4 0x89AFCB44 EQ PUSH2 0x1A9 JUMPI DUP1 PUSH4 0x95D89B41 EQ PUSH2 0x1A4 JUMPI DUP1 PUSH4 0xA9059CBB EQ PUSH2 0x19F JUMPI DUP1 PUSH4 0xBA9A7A56 EQ PUSH2 0x19A JUMPI DUP1 PUSH4 0xBC25CF77 EQ PUSH2 0x195 JUMPI DUP1 PUSH4 0xBE11B1D0 EQ PUSH2 0x190 JUMPI DUP1 PUSH4 0xC45A0155 EQ PUSH2 0x18B JUMPI DUP1 PUSH4 0xD21220A7 EQ PUSH2 0x186 JUMPI DUP1 PUSH4 0xD505ACCF EQ PUSH2 0x181 JUMPI DUP1 PUSH4 0xDD62ED3E EQ PUSH2 0x17C JUMPI PUSH4 0xFFF6CAE9 SUB PUSH2 0x220 JUMPI PUSH2 0xAC0 JUMP JUMPDEST PUSH2 0xAA4 JUMP JUMPDEST PUSH2 0xA6B JUMP JUMPDEST PUSH2 0x9D4 JUMP JUMPDEST PUSH2 0x9AD JUMP JUMPDEST PUSH2 0x986 JUMP JUMPDEST PUSH2 0x951 JUMP JUMPDEST PUSH2 0x936 JUMP JUMPDEST PUSH2 0x8FA JUMP JUMPDEST PUSH2 0x8DF JUMP JUMPDEST PUSH2 0x8B1 JUMP JUMPDEST PUSH2 0x881 JUMP JUMPDEST PUSH2 0x828 JUMP JUMPDEST PUSH2 0x7FB JUMP JUMPDEST PUSH2 0x7E0 JUMP JUMPDEST PUSH2 0x7B3 JUMP JUMPDEST PUSH2 0x742 JUMP JUMPDEST PUSH2 0x713 JUMP JUMPDEST PUSH2 0x6F8 JUMP JUMPDEST PUSH2 0x6D1 JUMP JUMPDEST PUSH2 0x6AC JUMP JUMPDEST PUSH2 0x66E JUMP JUMPDEST PUSH2 0x653 JUMP JUMPDEST PUSH2 0x5CF JUMP JUMPDEST PUSH2 0x596 JUMP JUMPDEST PUSH2 0x57A JUMP JUMPDEST PUSH2 0x51E JUMP JUMPDEST PUSH2 0x4BA JUMP JUMPDEST PUSH2 0x455 JUMP JUMPDEST PUSH2 0x3E2 JUMP JUMPDEST PUSH2 0x3B7 JUMP JUMPDEST PUSH2 0x2FD JUMP JUMPDEST DUP1 JUMPDEST SUB PUSH2 0x220 JUMPI JUMP JUMPDEST PUSH1 0x0 DUP1 REVERT JUMPDEST SWAP1 POP CALLDATALOAD SWAP1 PUSH2 0x232 DUP3 PUSH2 0x217 JUMP JUMPDEST JUMP JUMPDEST PUSH20 0xFFFFFFFFFFFFFFFFFFFFFFFFFFFFFFFFFFFFFFFF AND SWAP1 JUMP JUMPDEST SWAP1 JUMP JUMPDEST PUSH20 0xFFFFFFFFFFFFFFFFFFFFFFFFFFFFFFFFFFFFFFFF DUP2 AND PUSH2 0x219 JUMP JUMPDEST SWAP1 POP CALLDATALOAD SWAP1 PUSH2 0x232 DUP3 PUSH2 0x250 JUMP JUMPDEST SWAP1 SWAP2 DUP3 PUSH1 0x1F DUP4 ADD SLT ISZERO PUSH2 0x220 JUMPI DUP2 CALLDATALOAD SWAP2 PUSH8 0xFFFFFFFFFFFFFFFF DUP4 GT PUSH2 0x220 JUMPI PUSH1 0x20 ADD SWAP3 PUSH1 0x1 DUP4 MUL DUP5 ADD GT PUSH2 0x220 JUMPI JUMP JUMPDEST SWAP1 PUSH1 0x80 DUP3 DUP3 SUB SLT PUSH2 0x220 JUMPI PUSH2 0x2BE DUP2 DUP4 PUSH2 0x225 JUMP JUMPDEST SWAP3 PUSH2 0x2CC DUP3 PUSH1 0x20 DUP6 ADD PUSH2 0x225 JUMP JUMPDEST SWAP3 PUSH2 0x2DA DUP4 PUSH1 0x40 DUP4 ADD PUSH2 0x26C JUMP JUMPDEST SWAP3 PUSH1 0x60 DUP3 ADD CALLDATALOAD PUSH8 0xFFFFFFFFFFFFFFFF DUP2 GT PUSH2 0x220 JUMPI PUSH2 0x2F9 SWAP3 ADD PUSH2 0x279 JUMP JUMPDEST SWAP1 SWAP2 JUMP JUMPDEST CALLVALUE PUSH2 0x220 JUMPI PUSH2 0x319 PUSH2 0x310 CALLDATASIZE PUSH1 0x4 PUSH2 0x2A9 JUMP JUMPDEST SWAP4 SWAP3 SWAP1 SWAP3 PUSH2 0x253A JUMP JUMPDEST PUSH1 0x40 MLOAD STOP JUMPDEST SUB SWAP1 RETURN JUMPDEST PUSH1 0x0 SWAP2 SUB SLT PUSH2 0x220 JUMPI JUMP JUMPDEST PUSH1 0x0 JUMPDEST DUP4 DUP2 LT PUSH2 0x340 JUMPI POP POP PUSH1 0x0 SWAP2 ADD MSTORE JUMP JUMPDEST DUP2 DUP2 ADD MLOAD DUP4 DUP3 ADD MSTORE PUSH1 0x20 ADD PUSH2 0x330 JUMP JUMPDEST PUSH2 0x371 PUSH2 0x37A PUSH1 0x20 SWAP4 PUSH2 0x3A2 SWAP4 PUSH2 0x365 DUP2 MLOAD SWAP1 JUMP JUMPDEST DUP1 DUP4 MSTORE SWAP4 DUP5 SWAP3 PUSH1 0x20 ADD SWAP1 JUMP JUMPDEST SWAP6 DUP7 SWAP2 ADD PUSH2 0x32D JUMP JUMPDEST PUSH1 0x1F ADD PUSH32 0xFFFFFFFFFFFFFFFFFFFFFFFFFFFFFFFFFFFFFFFFFFFFFFFFFFFFFFFFFFFFFFE0 AND SWAP1 JUMP JUMPDEST ADD SWAP1 JUMP JUMPDEST PUSH1 0x20 DUP1 DUP3 MSTORE PUSH2 0x24D SWAP3 SWAP2 ADD SWAP1 PUSH2 0x350 JUMP JUMPDEST CALLVALUE PUSH2 0x220 JUMPI PUSH2 0x3C7 CALLDATASIZE PUSH1 0x4 PUSH2 0x322 JUMP JUMPDEST PUSH2 0x31E PUSH2 0x3D2 PUSH2 0x2951 JUMP JUMPDEST PUSH1 0x40 MLOAD SWAP2 DUP3 SWAP2 DUP3 PUSH2 0x3A6 JUMP JUMPDEST SWAP1 MSTORE JUMP JUMPDEST CALLVALUE PUSH2 0x220 JUMPI PUSH2 0x3F2 CALLDATASIZE PUSH1 0x4 PUSH2 0x322 JUMP JUMPDEST PUSH2 0x31E PUSH2 0x3FD PUSH2 0xE80 JUMP JUMPDEST PUSH1 0x40 DUP1 MLOAD PUSH14 0xFFFFFFFFFFFFFFFFFFFFFFFFFFFF SWAP5 DUP6 AND DUP2 MSTORE SWAP4 SWAP1 SWAP3 AND PUSH1 0x20 DUP5 ADD MSTORE PUSH4 0xFFFFFFFF AND SWAP1 DUP3 ADD MSTORE SWAP1 DUP2 SWAP1 PUSH1 0x60 DUP3 ADD SWAP1 JUMP JUMPDEST SWAP2 SWAP1 PUSH1 0x40 DUP4 DUP3 SUB SLT PUSH2 0x220 JUMPI PUSH2 0x24D SWAP1 PUSH2 0x44C DUP2 DUP6 PUSH2 0x26C JUMP JUMPDEST SWAP4 PUSH1 0x20 ADD PUSH2 0x225 JUMP JUMPDEST CALLVALUE PUSH2 0x220 JUMPI PUSH2 0x31E PUSH2 0x471 PUSH2 0x46B CALLDATASIZE PUSH1 0x4 PUSH2 0x432 JUMP JUMPDEST SWAP1 PUSH2 0x27A1 JUMP JUMPDEST PUSH1 0x40 MLOAD SWAP2 DUP3 SWAP2 DUP3 SWAP1 ISZERO ISZERO DUP2 MSTORE PUSH1 0x20 ADD SWAP1 JUMP JUMPDEST PUSH2 0x24D SWAP2 PUSH1 0x8 MUL SHR PUSH20 0xFFFFFFFFFFFFFFFFFFFFFFFFFFFFFFFFFFFFFFFF AND SWAP1 JUMP JUMPDEST SWAP1 PUSH2 0x24D SWAP2 SLOAD PUSH2 0x483 JUMP JUMPDEST PUSH2 0x24D PUSH1 0x1 DUP1 PUSH2 0x4A4 JUMP JUMPDEST CALLVALUE PUSH2 0x220 JUMPI PUSH2 0x4CA CALLDATASIZE PUSH1 0x4 PUSH2 0x322 JUMP JUMPDEST PUSH2 0x31E PUSH2 0x4D5 PUSH2 0x4AF JUMP JUMPDEST PUSH1 0x40 MLOAD SWAP2 DUP3 SWAP2 DUP3 PUSH20 0xFFFFFFFFFFFFFFFFFFFFFFFFFFFFFFFFFFFFFFFF SWAP1 SWAP2 AND DUP2 MSTORE PUSH1 0x20 ADD SWAP1 JUMP JUMPDEST PUSH2 0x24D SWAP2 PUSH1 0x8 MUL SHR DUP2 JUMP JUMPDEST SWAP1 PUSH2 0x24D SWAP2 SLOAD PUSH2 0x4FC JUMP JUMPDEST PUSH2 0x24D PUSH1 0x0 PUSH1 0x8 PUSH2 0x507 JUMP JUMPDEST CALLVALUE PUSH2 0x220 JUMPI PUSH2 0x52E CALLDATASIZE PUSH1 0x4 PUSH2 0x322 JUMP JUMPDEST PUSH2 0x31E PUSH2 0x539 PUSH2 0x512 JUMP JUMPDEST PUSH1 0x40 MLOAD JUMPDEST SWAP2 DUP3 SWAP2 DUP3 SWAP1 DUP2 MSTORE PUSH1 0x20 ADD SWAP1 JUMP JUMPDEST SWAP1 SWAP2 PUSH1 0x60 DUP3 DUP5 SUB SLT PUSH2 0x220 JUMPI PUSH2 0x24D PUSH2 0x563 DUP5 DUP5 PUSH2 0x26C JUMP JUMPDEST SWAP4 PUSH2 0x571 DUP2 PUSH1 0x20 DUP7 ADD PUSH2 0x26C JUMP JUMPDEST SWAP4 PUSH1 0x40 ADD PUSH2 0x225 JUMP JUMPDEST CALLVALUE PUSH2 0x220 JUMPI PUSH2 0x31E PUSH2 0x471 PUSH2 0x590 CALLDATASIZE PUSH1 0x4 PUSH2 0x54A JUMP JUMPDEST SWAP2 PUSH2 0x2863 JUMP JUMPDEST CALLVALUE PUSH2 0x220 JUMPI PUSH2 0x5A6 CALLDATASIZE PUSH1 0x4 PUSH2 0x322 JUMP JUMPDEST PUSH2 0x31E PUSH32 0x6E71EDAE12B1B97F4D1F60370FEF10105FA2FAAE0126114A169C64845D6126C9 PUSH2 0x539 JUMP JUMPDEST CALLVALUE PUSH2 0x220 JUMPI PUSH2 0x5DF CALLDATASIZE PUSH1 0x4 PUSH2 0x322 JUMP JUMPDEST PUSH2 0x31E PUSH2 0x5EA PUSH2 0x29A9 JUMP JUMPDEST PUSH1 0x40 MLOAD SWAP2 DUP3 SWAP2 DUP3 PUSH1 0xFF SWAP1 SWAP2 AND DUP2 MSTORE PUSH1 0x20 ADD SWAP1 JUMP JUMPDEST SWAP1 PUSH1 0x20 DUP3 DUP3 SUB SLT PUSH2 0x220 JUMPI PUSH2 0x24D SWAP2 PUSH2 0x225 JUMP JUMPDEST SWAP1 JUMPDEST PUSH1 0x0 MSTORE PUSH1 0x20 MSTORE PUSH1 0x40 PUSH1 0x0 KECCAK256 SWAP1 JUMP JUMPDEST PUSH2 0x24D SWAP2 PUSH1 0x8 MUL SHR JUMPDEST PUSH1 0xFF AND SWAP1 JUMP JUMPDEST SWAP1 PUSH2 0x24D SWAP2 SLOAD PUSH2 0x622 JUMP JUMPDEST PUSH2 0x24D SWAP1 PUSH2 0x64E PUSH1 0xB SWAP2 PUSH1 0x0 SWAP3 PUSH2 0x612 JUMP JUMPDEST PUSH2 0x631 JUMP JUMPDEST CALLVALUE PUSH2 0x220 JUMPI PUSH2 0x31E PUSH2 0x471 PUSH2 0x669 CALLDATASIZE PUSH1 0x4 PUSH2 0x5FE JUMP JUMPDEST PUSH2 0x63C JUMP JUMPDEST CALLVALUE PUSH2 0x220 JUMPI PUSH2 0x67E CALLDATASIZE PUSH1 0x4 PUSH2 0x322 JUMP JUMPDEST PUSH2 0x31E PUSH2 0x539 PUSH2 0x29B3 JUMP JUMPDEST SWAP2 SWAP1 PUSH1 0x40 DUP4 DUP3 SUB SLT PUSH2 0x220 JUMPI PUSH2 0x24D SWAP1 PUSH2 0x6A3 DUP2 DUP6 PUSH2 0x26C JUMP JUMPDEST SWAP4 PUSH1 0x20 ADD PUSH2 0x26C JUMP JUMPDEST CALLVALUE PUSH2 0x220 JUMPI PUSH2 0x319 PUSH2 0x6BF CALLDATASIZE PUSH1 0x4 PUSH2 0x689 JUMP JUMPDEST SWAP1 PUSH2 0xB74 JUMP JUMPDEST PUSH2 0x24D PUSH1 0x0 PUSH1 0x5 PUSH2 0x507 JUMP JUMPDEST CALLVALUE PUSH2 0x220 JUMPI PUSH2 0x6E1 CALLDATASIZE PUSH1 0x4 PUSH2 0x322 JUMP JUMPDEST PUSH2 0x31E PUSH2 0x539 PUSH2 0x6C5 JUMP JUMPDEST PUSH2 0x24D PUSH1 0x0 PUSH1 0x6 PUSH2 0x507 JUMP JUMPDEST CALLVALUE PUSH2 0x220 JUMPI PUSH2 0x708 CALLDATASIZE PUSH1 0x4 PUSH2 0x322 JUMP JUMPDEST PUSH2 0x31E PUSH2 0x539 PUSH2 0x6EC JUMP JUMPDEST CALLVALUE PUSH2 0x220 JUMPI PUSH2 0x723 CALLDATASIZE PUSH1 0x4 PUSH2 0x322 JUMP JUMPDEST PUSH2 0x31E PUSH2 0x471 PUSH2 0xAD8 JUMP JUMPDEST SWAP1 PUSH1 0x20 DUP3 DUP3 SUB SLT PUSH2 0x220 JUMPI PUSH2 0x24D SWAP2 PUSH2 0x26C JUMP JUMPDEST CALLVALUE PUSH2 0x220 JUMPI PUSH2 0x31E PUSH2 0x539 PUSH2 0x758 CALLDATASIZE PUSH1 0x4 PUSH2 0x72E JUMP JUMPDEST PUSH2 0x1504 JUMP JUMPDEST PUSH2 0x234 PUSH2 0x24D PUSH2 0x24D SWAP3 PUSH20 0xFFFFFFFFFFFFFFFFFFFFFFFFFFFFFFFFFFFFFFFF AND SWAP1 JUMP JUMPDEST PUSH2 0x24D SWAP1 PUSH2 0x75D JUMP JUMPDEST PUSH2 0x24D SWAP1 PUSH2 0x780 JUMP JUMPDEST SWAP1 PUSH2 0x614 SWAP1 PUSH2 0x789 JUMP JUMPDEST PUSH2 0x24D SWAP1 PUSH2 0x7AE PUSH1 0x7 SWAP2 PUSH1 0x0 SWAP3 PUSH2 0x792 JUMP JUMPDEST PUSH2 0x507 JUMP JUMPDEST CALLVALUE PUSH2 0x220 JUMPI PUSH2 0x31E PUSH2 0x539 PUSH2 0x7C9 CALLDATASIZE PUSH1 0x4 PUSH2 0x72E JUMP JUMPDEST PUSH2 0x79C JUMP JUMPDEST PUSH2 0x24D SWAP1 PUSH2 0x7AE PUSH1 0xA SWAP2 PUSH1 0x0 SWAP3 PUSH2 0x612 JUMP JUMPDEST CALLVALUE PUSH2 0x220 JUMPI PUSH2 0x31E PUSH2 0x539 PUSH2 0x7F6 CALLDATASIZE PUSH1 0x4 PUSH2 0x5FE JUMP JUMPDEST PUSH2 0x7CE JUMP JUMPDEST CALLVALUE PUSH2 0x220 JUMPI PUSH2 0x80B CALLDATASIZE PUSH1 0x4 PUSH2 0x322 JUMP JUMPDEST PUSH2 0x31E PUSH2 0x539 PUSH2 0x2F2D JUMP JUMPDEST PUSH2 0x24D SWAP1 PUSH2 0x7AE PUSH1 0xD SWAP2 PUSH1 0x0 SWAP3 PUSH2 0x792 JUMP JUMPDEST CALLVALUE PUSH2 0x220 JUMPI PUSH2 0x31E PUSH2 0x539 PUSH2 0x83E CALLDATASIZE PUSH1 0x4 PUSH2 0x72E JUMP JUMPDEST PUSH2 0x816 JUMP JUMPDEST SWAP1 DUP2 PUSH1 0x20 SWAP2 SUB SLT PUSH2 0x220 JUMPI SWAP1 JUMP JUMPDEST SWAP1 SWAP2 PUSH1 0x60 DUP3 DUP5 SUB SLT PUSH2 0x220 JUMPI PUSH2 0x24D PUSH2 0x86A DUP5 DUP5 PUSH2 0x26C JUMP JUMPDEST SWAP4 PUSH2 0x878 DUP2 PUSH1 0x20 DUP7 ADD PUSH2 0x26C JUMP JUMPDEST SWAP4 PUSH1 0x40 ADD PUSH2 0x843 JUMP JUMPDEST CALLVALUE PUSH2 0x220 JUMPI PUSH2 0x319 PUSH2 0x894 CALLDATASIZE PUSH1 0x4 PUSH2 0x851 JUMP JUMPDEST SWAP2 PUSH2 0xE75 JUMP JUMPDEST SWAP1 DUP2 MSTORE PUSH1 0x40 DUP2 ADD SWAP3 SWAP2 PUSH2 0x232 SWAP2 PUSH1 0x20 ADD MSTORE JUMP JUMPDEST ADD MSTORE JUMP JUMPDEST CALLVALUE PUSH2 0x220 JUMPI PUSH2 0x8C9 PUSH2 0x8C4 CALLDATASIZE PUSH1 0x4 PUSH2 0x72E JUMP JUMPDEST PUSH2 0x1D20 JUMP JUMPDEST SWAP1 PUSH2 0x31E PUSH2 0x8D6 PUSH1 0x40 MLOAD SWAP1 JUMP JUMPDEST SWAP3 DUP4 SWAP3 DUP4 PUSH2 0x89A JUMP JUMPDEST CALLVALUE PUSH2 0x220 JUMPI PUSH2 0x8EF CALLDATASIZE PUSH1 0x4 PUSH2 0x322 JUMP JUMPDEST PUSH2 0x31E PUSH2 0x3D2 PUSH2 0x2994 JUMP JUMPDEST CALLVALUE PUSH2 0x220 JUMPI PUSH2 0x31E PUSH2 0x471 PUSH2 0x910 CALLDATASIZE PUSH1 0x4 PUSH2 0x432 JUMP JUMPDEST SWAP1 PUSH2 0x2802 JUMP JUMPDEST PUSH2 0x24D PUSH2 0x24D PUSH2 0x24D SWAP3 SWAP1 JUMP JUMPDEST PUSH2 0x24D PUSH2 0x3E8 PUSH2 0x916 JUMP JUMPDEST PUSH2 0x24D PUSH2 0x923 JUMP JUMPDEST CALLVALUE PUSH2 0x220 JUMPI PUSH2 0x946 CALLDATASIZE PUSH1 0x4 PUSH2 0x322 JUMP JUMPDEST PUSH2 0x31E PUSH2 0x539 PUSH2 0x92E JUMP JUMPDEST CALLVALUE PUSH2 0x220 JUMPI PUSH2 0x319 PUSH2 0x964 CALLDATASIZE PUSH1 0x4 PUSH2 0x72E JUMP JUMPDEST PUSH2 0x2DF7 JUMP JUMPDEST PUSH2 0x24D SWAP1 PUSH2 0x62B JUMP JUMPDEST PUSH2 0x24D SWAP1 SLOAD PUSH2 0x969 JUMP JUMPDEST PUSH2 0x24D PUSH1 0x9 PUSH2 0x972 JUMP JUMPDEST CALLVALUE PUSH2 0x220 JUMPI PUSH2 0x996 CALLDATASIZE PUSH1 0x4 PUSH2 0x322 JUMP JUMPDEST PUSH2 0x31E PUSH2 0x471 PUSH2 0x97C JUMP JUMPDEST PUSH2 0x24D PUSH1 0x0 PUSH1 0x4 PUSH2 0x4A4 JUMP JUMPDEST CALLVALUE PUSH2 0x220 JUMPI PUSH2 0x9BD CALLDATASIZE PUSH1 0x4 PUSH2 0x322 JUMP JUMPDEST PUSH2 0x31E PUSH2 0x4D5 PUSH2 0x9A1 JUMP JUMPDEST PUSH2 0x24D PUSH1 0x0 PUSH1 0x2 PUSH2 0x4A4 JUMP JUMPDEST CALLVALUE PUSH2 0x220 JUMPI PUSH2 0x9E4 CALLDATASIZE PUSH1 0x4 PUSH2 0x322 JUMP JUMPDEST PUSH2 0x31E PUSH2 0x4D5 PUSH2 0x9C8 JUMP JUMPDEST PUSH1 0xFF DUP2 AND PUSH2 0x219 JUMP JUMPDEST SWAP1 POP CALLDATALOAD SWAP1 PUSH2 0x232 DUP3 PUSH2 0x9EF JUMP JUMPDEST PUSH1 0xE0 DUP2 DUP4 SUB SLT PUSH2 0x220 JUMPI PUSH2 0xA19 DUP3 DUP3 PUSH2 0x26C JUMP JUMPDEST SWAP3 PUSH2 0xA27 DUP4 PUSH1 0x20 DUP5 ADD PUSH2 0x26C JUMP JUMPDEST SWAP3 PUSH2 0xA35 DUP2 PUSH1 0x40 DUP6 ADD PUSH2 0x225 JUMP JUMPDEST SWAP3 PUSH2 0xA43 DUP3 PUSH1 0x60 DUP4 ADD PUSH2 0x225 JUMP JUMPDEST SWAP3 PUSH2 0x24D PUSH2 0xA54 DUP5 PUSH1 0x80 DUP6 ADD PUSH2 0x9F8 JUMP JUMPDEST SWAP4 PUSH2 0xA62 DUP2 PUSH1 0xA0 DUP7 ADD PUSH2 0x225 JUMP JUMPDEST SWAP4 PUSH1 0xC0 ADD PUSH2 0x225 JUMP JUMPDEST CALLVALUE PUSH2 0x220 JUMPI PUSH2 0x319 PUSH2 0xA7E CALLDATASIZE PUSH1 0x4 PUSH2 0xA05 JUMP JUMPDEST SWAP6 SWAP5 SWAP1 SWAP5 SWAP4 SWAP2 SWAP4 PUSH2 0x2CAF JUMP JUMPDEST PUSH2 0x7AE PUSH2 0x24D SWAP3 PUSH2 0xA9F PUSH1 0xC SWAP4 PUSH1 0x0 SWAP5 PUSH2 0x792 JUMP JUMPDEST PUSH2 0x792 JUMP JUMPDEST CALLVALUE PUSH2 0x220 JUMPI PUSH2 0x31E PUSH2 0x539 PUSH2 0xABA CALLDATASIZE PUSH1 0x4 PUSH2 0x689 JUMP JUMPDEST SWAP1 PUSH2 0xA8A JUMP JUMPDEST CALLVALUE PUSH2 0x220 JUMPI PUSH2 0xAD0 CALLDATASIZE PUSH1 0x4 PUSH2 0x322 JUMP JUMPDEST PUSH2 0x319 PUSH2 0x2626 JUMP JUMPDEST PUSH2 0x24D PUSH1 0x1 PUSH2 0x972 JUMP JUMPDEST PUSH32 0x4E487B7100000000000000000000000000000000000000000000000000000000 PUSH1 0x0 MSTORE PUSH1 0x41 PUSH1 0x4 MSTORE PUSH1 0x24 PUSH1 0x0 REVERT JUMPDEST SWAP1 PUSH1 0x1F ADD PUSH32 0xFFFFFFFFFFFFFFFFFFFFFFFFFFFFFFFFFFFFFFFFFFFFFFFFFFFFFFFFFFFFFFE0 AND DUP2 ADD SWAP1 DUP2 LT PUSH8 0xFFFFFFFFFFFFFFFF DUP3 GT OR PUSH2 0xB51 JUMPI PUSH1 0x40 MSTORE JUMP JUMPDEST PUSH2 0xAE2 JUMP JUMPDEST SWAP1 PUSH2 0x232 PUSH2 0xB63 PUSH1 0x40 MLOAD SWAP1 JUMP JUMPDEST SWAP3 DUP4 PUSH2 0xB11 JUMP JUMPDEST PUSH2 0x24D PUSH1 0x20 PUSH2 0xB56 JUMP JUMPDEST PUSH2 0x232 SWAP2 PUSH1 0x1 SWAP2 PUSH2 0xB8D PUSH2 0xB86 PUSH2 0xB6A JUMP JUMPDEST SWAP4 ISZERO ISZERO DUP5 MSTORE JUMP JUMPDEST PUSH2 0xCDA JUMP JUMPDEST PUSH2 0x24D SWAP1 PUSH1 0x8 SHR PUSH2 0x234 JUMP JUMPDEST PUSH2 0x24D SWAP1 SLOAD PUSH2 0xB92 JUMP JUMPDEST PUSH2 0x234 PUSH2 0x24D PUSH2 0x24D SWAP3 SWAP1 JUMP JUMPDEST PUSH2 0x24D SWAP1 PUSH2 0xBA8 JUMP JUMPDEST ISZERO PUSH2 0xBC5 JUMPI JUMP JUMPDEST PUSH1 0x40 MLOAD PUSH32 0x8C379A000000000000000000000000000000000000000000000000000000000 DUP2 MSTORE PUSH1 0x20 PUSH1 0x4 DUP3 ADD MSTORE PUSH1 0x1C PUSH1 0x24 DUP3 ADD MSTORE PUSH32 0x444558506169723A20414C52454144595F494E495449414C495A454400000000 PUSH1 0x44 DUP3 ADD MSTORE PUSH1 0x64 SWAP1 REVERT JUMPDEST SUB SWAP1 REVERT JUMPDEST SWAP1 PUSH21 0xFFFFFFFFFFFFFFFFFFFFFFFFFFFFFFFFFFFFFFFF00 SWAP1 PUSH1 0x8 SHL JUMPDEST SWAP2 DUP2 NOT AND SWAP2 AND OR SWAP1 JUMP JUMPDEST SWAP1 PUSH2 0xC5E PUSH2 0x24D PUSH2 0xC65 SWAP3 PUSH2 0x789 JUMP JUMPDEST DUP3 SLOAD PUSH2 0xC28 JUMP JUMPDEST SWAP1 SSTORE JUMP JUMPDEST SWAP1 PUSH20 0xFFFFFFFFFFFFFFFFFFFFFFFFFFFFFFFFFFFFFFFF SWAP1 PUSH2 0xC44 JUMP JUMPDEST SWAP1 PUSH2 0xC95 PUSH2 0x24D PUSH2 0xC65 SWAP3 PUSH2 0x789 JUMP JUMPDEST DUP3 SLOAD PUSH2 0xC69 JUMP JUMPDEST SWAP1 PUSH1 0xFF SWAP1 PUSH2 0xC44 JUMP JUMPDEST SWAP1 PUSH2 0xCB5 PUSH2 0x24D PUSH2 0xC65 SWAP3 ISZERO ISZERO SWAP1 JUMP JUMPDEST DUP3 SLOAD PUSH2 0xC9C JUMP JUMPDEST PUSH2 0x232 SWAP2 PUSH2 0xCCA SWAP1 MLOAD ISZERO ISZERO SWAP1 JUMP JUMPDEST SWAP1 PUSH2 0xCA5 JUMP JUMPDEST SWAP1 PUSH2 0x232 SWAP2 PUSH2 0xCBC JUMP JUMPDEST SWAP1 PUSH2 0xD26 PUSH2 0xD2D SWAP3 PUSH2 0xD1F PUSH2 0xCEF PUSH1 0x1 PUSH2 0xB9E JUMP JUMPDEST PUSH2 0xD19 PUSH2 0xCFF PUSH2 0x234 PUSH1 0x0 PUSH2 0xBB5 JUMP JUMPDEST SWAP2 PUSH20 0xFFFFFFFFFFFFFFFFFFFFFFFFFFFFFFFFFFFFFFFF AND SWAP1 JUMP JUMPDEST EQ PUSH2 0xBBE JUMP JUMPDEST PUSH1 0x1 PUSH2 0xC4E JUMP JUMPDEST PUSH1 0x2 PUSH2 0xC85 JUMP JUMPDEST PUSH2 0xD38 DUP2 PUSH1 0x9 PUSH2 0xCD0 JUMP JUMPDEST PUSH2 0xD76 PUSH32 0xB1102BF8599BADF4360419344E57744751C4D685C0864E807454E60F8E6ADDBC SWAP2 PUSH2 0xD66 PUSH1 0x40 MLOAD SWAP1 JUMP JUMPDEST SWAP2 DUP3 SWAP2 DUP3 SWAP1 MLOAD ISZERO ISZERO DUP2 MSTORE PUSH1 0x20 ADD SWAP1 JUMP JUMPDEST SUB SWAP1 LOG1 JUMP JUMPDEST PUSH2 0x24D SWAP1 PUSH2 0x234 JUMP JUMPDEST PUSH2 0x24D SWAP1 SLOAD PUSH2 0xD7B JUMP JUMPDEST ISZERO PUSH2 0xD95 JUMPI JUMP JUMPDEST PUSH1 0x40 MLOAD PUSH32 0x8C379A000000000000000000000000000000000000000000000000000000000 DUP2 MSTORE PUSH1 0x20 PUSH1 0x4 DUP3 ADD MSTORE PUSH1 0x12 PUSH1 0x24 DUP3 ADD MSTORE PUSH32 0x444558506169723A20464F5242494444454E0000000000000000000000000000 PUSH1 0x44 DUP3 ADD MSTORE PUSH1 0x64 SWAP1 REVERT JUMPDEST SWAP1 PUSH2 0x232 SWAP3 SWAP2 PUSH2 0xE14 CALLER PUSH2 0xE0E PUSH2 0xCFF PUSH2 0x234 PUSH1 0x4 PUSH2 0xD84 JUMP JUMPDEST EQ PUSH2 0xD8E JUMP JUMPDEST PUSH2 0xE62 JUMP JUMPDEST DUP1 ISZERO ISZERO PUSH2 0x219 JUMP JUMPDEST SWAP1 POP CALLDATALOAD SWAP1 PUSH2 0x232 DUP3 PUSH2 0xE19 JUMP JUMPDEST SWAP2 SWAP1 SWAP2 PUSH1 0x20 DUP2 DUP5 SUB SLT PUSH2 0x220 JUMPI PUSH2 0xE51 PUSH2 0xE48 PUSH1 0x20 PUSH2 0xB56 JUMP JUMPDEST SWAP4 PUSH1 0x0 SWAP3 PUSH2 0xE21 JUMP JUMPDEST SWAP1 DUP4 ADD MSTORE JUMP JUMPDEST PUSH2 0x24D SWAP1 CALLDATASIZE SWAP1 PUSH2 0xE2E JUMP JUMPDEST SWAP1 PUSH2 0xE6F PUSH2 0x232 SWAP4 PUSH2 0xE57 JUMP JUMPDEST SWAP2 PUSH2 0xCDA JUMP JUMPDEST SWAP1 PUSH2 0x232 SWAP3 SWAP2 PUSH2 0xDF4 JUMP JUMPDEST PUSH2 0xE88 PUSH2 0xEE2 JUMP JUMPDEST SWAP2 SWAP3 SWAP1 SWAP2 SWAP1 JUMP JUMPDEST PUSH2 0x24D SWAP1 JUMPDEST PUSH14 0xFFFFFFFFFFFFFFFFFFFFFFFFFFFF AND SWAP1 JUMP JUMPDEST PUSH2 0x24D SWAP1 SLOAD PUSH2 0xE8F JUMP JUMPDEST PUSH2 0x24D SWAP1 PUSH1 0x70 SHR PUSH2 0xE94 JUMP JUMPDEST PUSH2 0x24D SWAP1 SLOAD PUSH2 0xEB1 JUMP JUMPDEST PUSH2 0x24D SWAP1 PUSH1 0xE0 SHR JUMPDEST PUSH4 0xFFFFFFFF AND SWAP1 JUMP JUMPDEST PUSH2 0x24D SWAP1 SLOAD PUSH2 0xEC7 JUMP JUMPDEST PUSH2 0xEEC PUSH1 0x3 PUSH2 0xEA7 JUMP JUMPDEST SWAP1 PUSH2 0xEF7 PUSH1 0x3 PUSH2 0xEBD JUMP JUMPDEST SWAP1 PUSH2 0x24D PUSH1 0x3 PUSH2 0xED8 JUMP JUMPDEST SWAP1 PUSH2 0xF14 SWAP2 PUSH2 0xF0F PUSH2 0x1591 JUMP JUMPDEST PUSH2 0xF1D JUMP JUMPDEST SWAP1 PUSH2 0x232 PUSH2 0x15EA JUMP JUMPDEST SWAP1 PUSH2 0x24D SWAP2 PUSH2 0xF2A PUSH2 0x150F JUMP JUMPDEST SWAP1 PUSH2 0x24D SWAP2 PUSH2 0x1220 JUMP JUMPDEST SWAP1 POP MLOAD SWAP1 PUSH2 0x232 DUP3 PUSH2 0x217 JUMP JUMPDEST SWAP1 PUSH1 0x20 DUP3 DUP3 SUB SLT PUSH2 0x220 JUMPI PUSH2 0x24D SWAP2 PUSH2 0xF34 JUMP JUMPDEST PUSH1 0x40 MLOAD RETURNDATASIZE PUSH1 0x0 DUP3 RETURNDATACOPY RETURNDATASIZE SWAP1 REVERT JUMPDEST PUSH2 0x24D PUSH2 0x24D PUSH2 0x24D SWAP3 PUSH14 0xFFFFFFFFFFFFFFFFFFFFFFFFFFFF AND SWAP1 JUMP JUMPDEST PUSH32 0x4E487B7100000000000000000000000000000000000000000000000000000000 PUSH1 0x0 MSTORE PUSH1 0x11 PUSH1 0x4 MSTORE PUSH1 0x24 PUSH1 0x0 REVERT JUMPDEST SWAP2 SWAP1 DUP3 SUB SWAP2 DUP3 GT PUSH2 0xFBA JUMPI JUMP JUMPDEST PUSH2 0xF7E JUMP JUMPDEST ISZERO PUSH2 0xFC6 JUMPI JUMP JUMPDEST PUSH1 0x40 MLOAD PUSH32 0x8C379A000000000000000000000000000000000000000000000000000000000 DUP2 MSTORE PUSH1 0x20 PUSH1 0x4 DUP3 ADD MSTORE PUSH1 0x22 PUSH1 0x24 DUP3 ADD MSTORE PUSH32 0x444558506169723A20494E53554646494349454E545F494E5055545F414D4F55 PUSH1 0x44 DUP3 ADD MSTORE PUSH32 0x4E54000000000000000000000000000000000000000000000000000000000000 PUSH1 0x64 DUP3 ADD MSTORE PUSH1 0x84 SWAP1 REVERT JUMPDEST PUSH2 0x24D SWAP1 DUP2 JUMP JUMPDEST PUSH2 0x24D SWAP1 SLOAD PUSH2 0x104B JUMP JUMPDEST PUSH2 0xE94 PUSH2 0x24D PUSH2 0x24D SWAP3 SWAP1 JUMP JUMPDEST ISZERO PUSH2 0x1070 JUMPI JUMP JUMPDEST PUSH1 0x40 MLOAD PUSH32 0x8C379A000000000000000000000000000000000000000000000000000000000 DUP2 MSTORE PUSH1 0x20 PUSH1 0x4 DUP3 ADD MSTORE PUSH1 0x1E PUSH1 0x24 DUP3 ADD MSTORE PUSH32 0x444558506169723A20494E53554646494349454E545F52455345525645530000 PUSH1 0x44 DUP3 ADD MSTORE PUSH1 0x64 SWAP1 REVERT JUMPDEST SWAP2 SWAP1 SWAP2 DUP1 DUP4 MUL JUMPDEST SWAP3 DUP2 DUP5 DIV EQ SWAP1 ISZERO OR ISZERO PUSH2 0xFBA JUMPI JUMP JUMPDEST PUSH32 0x4E487B7100000000000000000000000000000000000000000000000000000000 PUSH1 0x0 MSTORE PUSH1 0x12 PUSH1 0x4 MSTORE PUSH1 0x24 PUSH1 0x0 REVERT JUMPDEST SWAP1 PUSH2 0x111E JUMP JUMPDEST SWAP2 SWAP1 JUMP JUMPDEST SWAP1 DUP2 ISZERO PUSH2 0x1129 JUMPI DIV SWAP1 JUMP JUMPDEST PUSH2 0x10E5 JUMP JUMPDEST ISZERO PUSH2 0x1135 JUMPI JUMP JUMPDEST PUSH1 0x40 MLOAD PUSH32 0x8C379A000000000000000000000000000000000000000000000000000000000 DUP2 MSTORE PUSH1 0x20 PUSH1 0x4 DUP3 ADD MSTORE PUSH1 0x26 PUSH1 0x24 DUP3 ADD MSTORE PUSH32 0x444558506169723A20494E53554646494349454E545F4C49515549444954595F PUSH1 0x44 DUP3 ADD MSTORE PUSH32 0x4D494E5445440000000000000000000000000000000000000000000000000000 PUSH1 0x64 DUP3 ADD MSTORE PUSH1 0x84 SWAP1 REVERT JUMPDEST ISZERO PUSH2 0x11C1 JUMPI JUMP JUMPDEST PUSH1 0x40 MLOAD PUSH32 0x8C379A000000000000000000000000000000000000000000000000000000000 DUP2 MSTORE PUSH1 0x20 PUSH1 0x4 DUP3 ADD MSTORE PUSH1 0x1C PUSH1 0x24 DUP3 ADD MSTORE PUSH32 0x444558506169723A204C49515549444954595F544F4F5F4C4152474500000000 PUSH1 0x44 DUP3 ADD MSTORE PUSH1 0x64 SWAP1 REVERT JUMPDEST POP SWAP1 PUSH2 0x122A PUSH2 0xEE2 JUMP JUMPDEST POP SWAP1 PUSH2 0x1241 PUSH2 0x123C PUSH2 0x123C PUSH1 0x1 PUSH2 0xB9E JUMP JUMPDEST PUSH2 0x789 JUMP JUMPDEST PUSH4 0x70A08231 PUSH2 0x124F ADDRESS PUSH2 0x789 JUMP JUMPDEST PUSH1 0x20 PUSH2 0x125A PUSH1 0x40 MLOAD SWAP1 JUMP JUMPDEST DUP1 SWAP5 PUSH2 0x1266 DUP6 PUSH1 0xE0 SHL SWAP1 JUMP JUMPDEST DUP3 MSTORE PUSH20 0xFFFFFFFFFFFFFFFFFFFFFFFFFFFFFFFFFFFFFFFF DUP5 AND PUSH1 0x4 DUP4 ADD MSTORE PUSH1 0x24 SWAP1 DUP3 SWAP1 GAS STATICCALL SWAP1 DUP2 ISZERO PUSH2 0x14DF JUMPI PUSH2 0x12F1 SWAP4 PUSH1 0x0 SWAP3 PUSH2 0x14E4 JUMPI JUMPDEST POP PUSH1 0x20 SWAP2 SWAP3 PUSH2 0x12CD PUSH2 0x12B6 PUSH2 0x123C PUSH2 0x123C PUSH1 0x2 PUSH2 0xD84 JUMP JUMPDEST SWAP2 PUSH2 0x12C0 PUSH1 0x40 MLOAD SWAP1 JUMP JUMPDEST SWAP7 DUP8 SWAP5 DUP6 SWAP4 DUP5 SWAP4 PUSH1 0xE0 SHL SWAP1 JUMP JUMPDEST DUP4 MSTORE PUSH20 0xFFFFFFFFFFFFFFFFFFFFFFFFFFFFFFFFFFFFFFFF AND PUSH1 0x4 DUP4 ADD MSTORE PUSH1 0x24 DUP3 ADD SWAP1 JUMP JUMPDEST SUB SWAP2 GAS STATICCALL SWAP2 DUP3 ISZERO PUSH2 0x14DF JUMPI PUSH1 0x0 SWAP3 PUSH2 0x14AF JUMPI JUMPDEST POP PUSH2 0x1317 PUSH2 0x1311 DUP5 PUSH2 0xF61 JUMP JUMPDEST DUP3 PUSH2 0xFAD JUMP JUMPDEST PUSH2 0x1329 PUSH2 0x1323 DUP7 PUSH2 0xF61 JUMP JUMPDEST DUP5 PUSH2 0xFAD JUMP JUMPDEST SWAP1 PUSH2 0x1334 PUSH1 0x0 PUSH2 0x916 JUMP JUMPDEST DUP2 GT DUP1 PUSH2 0x1498 JUMPI JUMPDEST PUSH2 0x1345 SWAP1 PUSH2 0xFBF JUMP JUMPDEST PUSH2 0x134F PUSH1 0x8 PUSH2 0x1052 JUMP JUMPDEST PUSH2 0x1359 PUSH1 0x0 PUSH2 0x916 JUMP JUMPDEST DUP2 SUB PUSH2 0x1400 JUMPI POP PUSH2 0x13A5 SWAP8 PUSH2 0x1380 PUSH2 0x137B PUSH2 0x232 SWAP9 SWAP8 SWAP7 SWAP6 SWAP5 PUSH2 0x13FB SWAP5 PUSH2 0x10CF JUMP JUMPDEST PUSH2 0x26F5 JUMP JUMPDEST SWAP1 PUSH2 0x1393 PUSH2 0x138C PUSH2 0x923 JUMP JUMPDEST DUP1 SWAP4 PUSH2 0xFAD JUMP JUMPDEST SWAP10 DUP11 SWAP3 PUSH2 0x13A0 PUSH1 0x0 PUSH2 0xBB5 JUMP JUMPDEST PUSH2 0x262E JUMP JUMPDEST PUSH2 0x13B9 PUSH2 0x13B2 PUSH1 0x0 PUSH2 0x916 JUMP JUMPDEST DUP4 GT PUSH2 0x112E JUMP JUMPDEST PUSH2 0x13A0 PUSH2 0x13F3 PUSH2 0x24D PUSH32 0xFFFFFFFFFFFFFFFFFFFFFFFFFFFFFFFFFFFFFFFFFFFFFFFFFFFFFFFFFFFFFFFF PUSH2 0x13ED PUSH1 0x8 PUSH2 0x1052 JUMP JUMPDEST SWAP1 PUSH2 0xFAD JUMP JUMPDEST DUP4 GT ISZERO PUSH2 0x11BA JUMP JUMPDEST PUSH2 0x17E6 JUMP JUMPDEST DUP6 SWAP5 SWAP4 SWAP3 PUSH2 0x1475 PUSH2 0x146C DUP4 PUSH2 0x1466 PUSH2 0x1457 PUSH2 0x147B SWAP7 PUSH2 0x13FB SWAP9 PUSH2 0x1452 PUSH2 0x232 SWAP16 SWAP15 DUP16 SWAP1 PUSH2 0x1444 PUSH2 0x1430 PUSH1 0x0 PUSH2 0x105C JUMP JUMPDEST SWAP2 PUSH14 0xFFFFFFFFFFFFFFFFFFFFFFFFFFFF AND SWAP1 JUMP JUMPDEST GT SWAP1 DUP2 PUSH2 0x1482 JUMPI JUMPDEST POP PUSH2 0x1069 JUMP JUMPDEST PUSH2 0x10CF JUMP JUMPDEST PUSH2 0x1460 DUP12 PUSH2 0xF61 JUMP JUMPDEST SWAP1 PUSH2 0x1114 JUMP JUMPDEST SWAP4 PUSH2 0x10CF JUMP JUMPDEST PUSH2 0x1460 DUP10 PUSH2 0xF61 JUMP JUMPDEST SWAP1 PUSH2 0x26E3 JUMP JUMPDEST DUP1 SWAP9 PUSH2 0x13A5 JUMP JUMPDEST SWAP1 POP PUSH2 0x1491 PUSH2 0x1430 PUSH1 0x0 PUSH2 0x105C JUMP JUMPDEST GT DUP16 PUSH2 0x144C JUMP JUMPDEST POP PUSH2 0x1345 PUSH2 0x14A6 PUSH1 0x0 PUSH2 0x916 JUMP JUMPDEST DUP4 GT SWAP1 POP PUSH2 0x133C JUMP JUMPDEST PUSH2 0x14D1 SWAP2 SWAP3 POP PUSH1 0x20 RETURNDATASIZE DUP2 GT PUSH2 0x14D8 JUMPI JUMPDEST PUSH2 0x14C9 DUP2 DUP4 PUSH2 0xB11 JUMP JUMPDEST DUP2 ADD SWAP1 PUSH2 0xF41 JUMP JUMPDEST SWAP1 CODESIZE PUSH2 0x1304 JUMP JUMPDEST POP RETURNDATASIZE PUSH2 0x14BF JUMP JUMPDEST PUSH2 0xF55 JUMP JUMPDEST PUSH1 0x20 SWAP3 POP PUSH2 0x14FE SWAP1 DUP4 RETURNDATASIZE DUP2 GT PUSH2 0x14D8 JUMPI PUSH2 0x14C9 DUP2 DUP4 PUSH2 0xB11 JUMP JUMPDEST SWAP2 PUSH2 0x129E JUMP JUMPDEST PUSH2 0x24D SWAP1 PUSH1 0x0 PUSH2 0xF02 JUMP JUMPDEST PUSH2 0x1517 PUSH2 0xAD8 JUMP JUMPDEST PUSH2 0x151D JUMPI JUMP JUMPDEST PUSH1 0x40 MLOAD PUSH32 0xD93C066500000000000000000000000000000000000000000000000000000000 DUP2 MSTORE PUSH1 0x4 SWAP1 REVERT JUMPDEST PUSH2 0x24D PUSH1 0x2 PUSH2 0x916 JUMP JUMPDEST SWAP1 PUSH32 0xFFFFFFFFFFFFFFFFFFFFFFFFFFFFFFFFFFFFFFFFFFFFFFFFFFFFFFFFFFFFFFFF SWAP1 PUSH2 0xC44 JUMP JUMPDEST SWAP1 PUSH2 0x158A PUSH2 0x24D PUSH2 0xC65 SWAP3 PUSH2 0x916 JUMP JUMPDEST DUP3 SLOAD PUSH2 0x1552 JUMP JUMPDEST PUSH2 0x159B PUSH1 0x0 PUSH2 0x1052 JUMP JUMPDEST PUSH2 0x15A3 PUSH2 0x1548 JUMP JUMPDEST SWAP1 DUP2 EQ PUSH2 0x15B5 JUMPI PUSH2 0x232 SWAP1 PUSH1 0x0 PUSH2 0x157A JUMP JUMPDEST PUSH1 0x40 MLOAD PUSH32 0x3EE5AEB500000000000000000000000000000000000000000000000000000000 DUP2 MSTORE PUSH1 0x4 SWAP1 REVERT JUMPDEST PUSH2 0x24D PUSH1 0x1 PUSH2 0x916 JUMP JUMPDEST PUSH2 0x232 PUSH2 0x15F5 PUSH2 0x15E0 JUMP JUMPDEST PUSH1 0x0 PUSH2 0x157A JUMP JUMPDEST ISZERO PUSH2 0x1603 JUMPI JUMP JUMPDEST PUSH1 0x40 MLOAD PUSH32 0x8C379A000000000000000000000000000000000000000000000000000000000 DUP2 MSTORE PUSH1 0x20 PUSH1 0x4 DUP3 ADD MSTORE PUSH1 0x11 PUSH1 0x24 DUP3 ADD MSTORE PUSH32 0x444558506169723A204F564552464C4F57000000000000000000000000000000 PUSH1 0x44 DUP3 ADD MSTORE PUSH1 0x64 SWAP1 REVERT JUMPDEST DUP2 ISZERO PUSH2 0x1129 JUMPI MOD SWAP1 JUMP JUMPDEST PUSH2 0xECF PUSH2 0x24D PUSH2 0x24D SWAP3 SWAP1 JUMP JUMPDEST PUSH4 0xFFFFFFFF SWAP1 DUP2 AND SWAP2 AND SWAP1 SUB SWAP1 PUSH4 0xFFFFFFFF DUP3 GT PUSH2 0xFBA JUMPI JUMP JUMPDEST PUSH2 0x24D PUSH2 0x24D PUSH2 0x24D SWAP3 PUSH28 0xFFFFFFFFFFFFFFFFFFFFFFFFFFFFFFFFFFFFFFFFFFFFFFFFFFFFFFFF AND SWAP1 JUMP JUMPDEST PUSH2 0x24D PUSH2 0x24D PUSH2 0x24D SWAP3 PUSH4 0xFFFFFFFF AND SWAP1 JUMP JUMPDEST SWAP2 SWAP1 DUP3 ADD DUP1 SWAP3 GT PUSH2 0xFBA JUMPI JUMP JUMPDEST SWAP1 PUSH14 0xFFFFFFFFFFFFFFFFFFFFFFFFFFFF SWAP1 PUSH2 0xC44 JUMP JUMPDEST PUSH2 0xE94 PUSH2 0x24D PUSH2 0x24D SWAP3 PUSH14 0xFFFFFFFFFFFFFFFFFFFFFFFFFFFF AND SWAP1 JUMP JUMPDEST SWAP1 PUSH2 0x1721 PUSH2 0x24D PUSH2 0xC65 SWAP3 PUSH2 0x16F4 JUMP JUMPDEST DUP3 SLOAD PUSH2 0x16DE JUMP JUMPDEST SWAP1 PUSH28 0xFFFFFFFFFFFFFFFFFFFFFFFFFFFF0000000000000000000000000000 SWAP1 PUSH1 0x70 SHL PUSH2 0xC44 JUMP JUMPDEST SWAP1 PUSH2 0x175F PUSH2 0x24D PUSH2 0xC65 SWAP3 PUSH2 0x16F4 JUMP JUMPDEST DUP3 SLOAD PUSH2 0x1728 JUMP JUMPDEST SWAP1 PUSH32 0xFFFFFFFF00000000000000000000000000000000000000000000000000000000 SWAP1 PUSH1 0xE0 SHL PUSH2 0xC44 JUMP JUMPDEST PUSH2 0xECF PUSH2 0x24D PUSH2 0x24D SWAP3 PUSH4 0xFFFFFFFF AND SWAP1 JUMP JUMPDEST SWAP1 PUSH2 0x17B4 PUSH2 0x24D PUSH2 0xC65 SWAP3 PUSH2 0x1791 JUMP JUMPDEST DUP3 SLOAD PUSH2 0x1766 JUMP JUMPDEST PUSH2 0x3DE SWAP1 PUSH2 0xF61 JUMP JUMPDEST SWAP2 PUSH1 0x20 PUSH2 0x232 SWAP3 SWAP5 SWAP4 PUSH2 0x17DF PUSH1 0x40 DUP3 ADD SWAP7 PUSH1 0x0 DUP4 ADD SWAP1 PUSH2 0x17BB JUMP JUMPDEST ADD SWAP1 PUSH2 0x17BB JUMP JUMPDEST PUSH2 0x1899 SWAP2 PUSH2 0x188D PUSH2 0x1886 PUSH2 0x1892 SWAP4 PUSH2 0x18A0 SWAP8 PUSH2 0x1823 PUSH14 0xFFFFFFFFFFFFFFFFFFFFFFFFFFFF PUSH2 0x1813 DUP2 PUSH2 0xF61 JUMP JUMPDEST DUP5 GT ISZERO SWAP1 DUP2 PUSH2 0x19B6 JUMPI JUMPDEST POP PUSH2 0x15FC JUMP JUMPDEST PUSH2 0x1843 PUSH2 0x183E TIMESTAMP PUSH2 0x1838 PUSH5 0x100000000 PUSH2 0x916 JUMP JUMPDEST SWAP1 PUSH2 0x1662 JUMP JUMPDEST PUSH2 0x166C JUMP JUMPDEST SWAP8 PUSH2 0x1857 PUSH2 0x1851 PUSH1 0x3 PUSH2 0xED8 JUMP JUMPDEST DUP11 PUSH2 0x1679 JUMP JUMPDEST SWAP2 PUSH1 0x0 PUSH2 0x1863 DUP2 PUSH2 0x166C JUMP JUMPDEST PUSH4 0xFFFFFFFF DUP6 AND GT SWAP1 DUP2 PUSH2 0x1992 JUMPI JUMPDEST DUP2 PUSH2 0x196F JUMPI JUMPDEST POP PUSH2 0x18EB JUMPI JUMPDEST POP POP POP PUSH2 0x105C JUMP JUMPDEST PUSH1 0x3 PUSH2 0x1711 JUMP JUMPDEST PUSH2 0x105C JUMP JUMPDEST PUSH1 0x3 PUSH2 0x174F JUMP JUMPDEST PUSH1 0x3 PUSH2 0x17A4 JUMP JUMPDEST PUSH2 0x18AA PUSH1 0x3 PUSH2 0xEA7 JUMP JUMPDEST PUSH2 0x18B4 PUSH1 0x3 PUSH2 0xEBD JUMP JUMPDEST PUSH32 0xCF2AA50876CDFBB541206F89AF0EE78D44A2ABF8D328E37FA4917F982149848A SWAP2 PUSH2 0xD76 PUSH2 0x18E2 PUSH1 0x40 MLOAD SWAP1 JUMP JUMPDEST SWAP3 DUP4 SWAP3 DUP4 PUSH2 0x17C4 JUMP JUMPDEST PUSH2 0x1967 SWAP3 PUSH2 0x192F PUSH2 0x1950 PUSH2 0x1921 DUP5 PUSH2 0x191C DUP8 PUSH2 0x194B PUSH2 0x1944 PUSH2 0x1935 PUSH2 0x1926 PUSH2 0x1921 PUSH2 0x1960 SWAP14 PUSH2 0x191C PUSH2 0x1956 SWAP15 PUSH2 0x2FF7 JUMP JUMPDEST PUSH2 0x3041 JUMP JUMPDEST PUSH2 0x1693 JUMP JUMPDEST PUSH2 0x192F DUP12 PUSH2 0x16BE JUMP JUMPDEST SWAP1 PUSH2 0x10CF JUMP JUMPDEST PUSH2 0x193F PUSH1 0x5 PUSH2 0x1052 JUMP JUMPDEST PUSH2 0x16D1 JUMP JUMPDEST PUSH1 0x5 PUSH2 0x157A JUMP JUMPDEST PUSH2 0x2FF7 JUMP JUMPDEST SWAP2 PUSH2 0x16BE JUMP JUMPDEST PUSH2 0x193F PUSH1 0x6 PUSH2 0x1052 JUMP JUMPDEST PUSH1 0x6 PUSH2 0x157A JUMP JUMPDEST CODESIZE DUP1 DUP1 PUSH2 0x187E JUMP JUMPDEST PUSH2 0x1979 SWAP2 POP PUSH2 0x105C JUMP JUMPDEST PUSH14 0xFFFFFFFFFFFFFFFFFFFFFFFFFFFF DUP3 AND EQ ISZERO CODESIZE PUSH2 0x1878 JUMP JUMPDEST SWAP1 POP PUSH2 0x199D DUP2 PUSH2 0x105C JUMP JUMPDEST PUSH14 0xFFFFFFFFFFFFFFFFFFFFFFFFFFFF DUP5 AND EQ ISZERO SWAP1 PUSH2 0x1872 JUMP JUMPDEST PUSH2 0x19C0 SWAP2 POP PUSH2 0xF61 JUMP JUMPDEST DUP7 GT ISZERO CODESIZE PUSH2 0x181D JUMP JUMPDEST SWAP1 PUSH2 0x19DC SWAP3 SWAP2 PUSH2 0x19D7 PUSH2 0x1591 JUMP JUMPDEST PUSH2 0x19E6 JUMP JUMPDEST SWAP1 SWAP2 PUSH2 0x232 PUSH2 0x15EA JUMP JUMPDEST SWAP1 PUSH2 0x2F9 SWAP3 SWAP2 PUSH2 0x19F4 PUSH2 0x150F JUMP JUMPDEST SWAP1 PUSH2 0x2F9 SWAP3 SWAP2 PUSH2 0x1A8B JUMP JUMPDEST ISZERO PUSH2 0x1A06 JUMPI JUMP JUMPDEST PUSH1 0x40 MLOAD PUSH32 0x8C379A000000000000000000000000000000000000000000000000000000000 DUP2 MSTORE PUSH1 0x20 PUSH1 0x4 DUP3 ADD MSTORE PUSH1 0x26 PUSH1 0x24 DUP3 ADD MSTORE PUSH32 0x444558506169723A20494E53554646494349454E545F4C49515549444954595F PUSH1 0x44 DUP3 ADD MSTORE PUSH32 0x4255524E45440000000000000000000000000000000000000000000000000000 PUSH1 0x64 DUP3 ADD MSTORE PUSH1 0x84 SWAP1 REVERT JUMPDEST SWAP3 SWAP2 SWAP3 POP POP PUSH2 0x1A98 PUSH2 0xEE2 JUMP JUMPDEST POP SWAP2 SWAP1 PUSH2 0x1AA5 PUSH1 0x1 PUSH2 0xB9E JUMP JUMPDEST SWAP3 PUSH2 0x1AB9 PUSH2 0x1AB3 PUSH1 0x2 PUSH2 0xD84 JUMP JUMPDEST SWAP5 PUSH2 0x789 JUMP JUMPDEST SWAP2 PUSH2 0x1AC3 DUP4 PUSH2 0x789 JUMP JUMPDEST SWAP3 PUSH4 0x70A08231 SWAP1 PUSH2 0x1AD3 ADDRESS PUSH2 0x789 JUMP JUMPDEST PUSH1 0x40 MLOAD SWAP8 PUSH2 0x1AE1 DUP5 PUSH1 0xE0 SHL SWAP1 JUMP JUMPDEST DUP10 MSTORE PUSH20 0xFFFFFFFFFFFFFFFFFFFFFFFFFFFFFFFFFFFFFFFF DUP3 AND PUSH1 0x4 DUP11 ADD MSTORE PUSH1 0x20 DUP10 PUSH1 0x24 DUP2 DUP11 GAS STATICCALL SWAP9 DUP10 ISZERO PUSH2 0x14DF JUMPI PUSH1 0x0 SWAP10 PUSH2 0x1CFC JUMPI JUMPDEST POP PUSH2 0x1B21 SWAP1 PUSH2 0x789 JUMP JUMPDEST PUSH2 0x1B2A DUP2 PUSH2 0x789 JUMP JUMPDEST SWAP3 PUSH2 0x1B34 PUSH1 0x40 MLOAD SWAP1 JUMP JUMPDEST SWAP11 PUSH2 0x1B3F DUP7 PUSH1 0xE0 SHL SWAP1 JUMP JUMPDEST DUP13 MSTORE PUSH20 0xFFFFFFFFFFFFFFFFFFFFFFFFFFFFFFFFFFFFFFFF DUP5 AND PUSH1 0x4 DUP14 ADD MSTORE PUSH1 0x20 DUP13 PUSH1 0x24 DUP2 DUP9 GAS STATICCALL SWAP12 DUP13 ISZERO PUSH2 0x14DF JUMPI PUSH1 0x0 SWAP13 PUSH2 0x1CDC JUMPI JUMPDEST POP PUSH2 0x1B81 DUP5 PUSH1 0x7 PUSH2 0x792 JUMP JUMPDEST PUSH2 0x1B8A SWAP1 PUSH2 0x1052 JUMP JUMPDEST SWAP3 PUSH2 0x1B95 PUSH1 0x8 PUSH2 0x1052 JUMP JUMPDEST PUSH2 0x1BA0 DUP2 SWAP14 DUP7 PUSH2 0x10CF JUMP JUMPDEST SWAP1 PUSH2 0x1BAA SWAP2 PUSH2 0x1114 JUMP JUMPDEST SWAP12 DUP13 SWAP14 PUSH2 0x1BB7 SWAP1 DUP7 PUSH2 0x10CF JUMP JUMPDEST SWAP1 PUSH2 0x1BC1 SWAP2 PUSH2 0x1114 JUMP JUMPDEST SWAP3 DUP4 SWAP13 DUP4 PUSH1 0x0 SWAP3 PUSH2 0x1BD1 DUP5 PUSH2 0x916 JUMP JUMPDEST DUP4 GT DUP1 SWAP9 PUSH2 0x1BEF PUSH2 0x1BFA SWAP11 PUSH2 0x1BF5 SWAP8 PUSH2 0x1BF5 SWAP5 PUSH2 0x1CCA JUMPI JUMPDEST POP PUSH2 0x19FF JUMP JUMPDEST DUP11 PUSH2 0x26B7 JUMP JUMPDEST PUSH2 0x1D94 JUMP JUMPDEST PUSH1 0x20 PUSH2 0x1C05 PUSH1 0x40 MLOAD SWAP1 JUMP JUMPDEST DUP1 SWAP8 PUSH2 0x1C11 DUP7 PUSH1 0xE0 SHL SWAP1 JUMP JUMPDEST DUP3 MSTORE PUSH20 0xFFFFFFFFFFFFFFFFFFFFFFFFFFFFFFFFFFFFFFFF DUP5 AND PUSH1 0x4 DUP4 ADD MSTORE PUSH1 0x24 SWAP1 DUP3 SWAP1 GAS STATICCALL SWAP2 DUP3 ISZERO PUSH2 0x14DF JUMPI PUSH2 0x1C69 SWAP7 PUSH1 0x0 SWAP4 PUSH2 0x1CA6 JUMPI JUMPDEST POP PUSH2 0x12CD DUP4 SWAP5 PUSH1 0x20 SWAP5 POP PUSH2 0x1C5C PUSH1 0x40 MLOAD SWAP1 JUMP JUMPDEST SWAP9 DUP10 SWAP5 DUP6 SWAP4 DUP5 SWAP4 PUSH1 0xE0 SHL SWAP1 JUMP JUMPDEST SUB SWAP2 GAS STATICCALL SWAP1 DUP2 ISZERO PUSH2 0x14DF JUMPI PUSH2 0x232 SWAP5 PUSH1 0x0 SWAP3 PUSH2 0x1C86 JUMPI JUMPDEST POP PUSH2 0x17E6 JUMP JUMPDEST PUSH2 0x1C9F SWAP2 SWAP3 POP PUSH1 0x20 RETURNDATASIZE DUP2 GT PUSH2 0x14D8 JUMPI PUSH2 0x14C9 DUP2 DUP4 PUSH2 0xB11 JUMP JUMPDEST SWAP1 CODESIZE PUSH2 0x1C80 JUMP JUMPDEST PUSH1 0x20 SWAP4 POP PUSH2 0x1CC3 PUSH2 0x12CD SWAP2 DUP6 RETURNDATASIZE DUP2 GT PUSH2 0x14D8 JUMPI PUSH2 0x14C9 DUP2 DUP4 PUSH2 0xB11 JUMP JUMPDEST SWAP4 POP PUSH2 0x1C49 JUMP JUMPDEST PUSH2 0x1CD4 SWAP2 POP PUSH2 0x916 JUMP JUMPDEST DUP11 GT CODESIZE PUSH2 0x1BE9 JUMP JUMPDEST PUSH2 0x1CF5 SWAP2 SWAP13 POP PUSH1 0x20 RETURNDATASIZE DUP2 GT PUSH2 0x14D8 JUMPI PUSH2 0x14C9 DUP2 DUP4 PUSH2 0xB11 JUMP JUMPDEST SWAP11 CODESIZE PUSH2 0x1B75 JUMP JUMPDEST PUSH2 0x1B21 SWAP2 SWAP10 POP PUSH2 0x1D19 SWAP1 PUSH1 0x20 RETURNDATASIZE DUP2 GT PUSH2 0x14D8 JUMPI PUSH2 0x14C9 DUP2 DUP4 PUSH2 0xB11 JUMP JUMPDEST SWAP9 SWAP1 PUSH2 0x1B17 JUMP JUMPDEST PUSH2 0x2F9 SWAP1 PUSH1 0x0 DUP1 PUSH2 0x19C9 JUMP JUMPDEST PUSH2 0x1D45 PUSH2 0x1D3F PUSH2 0x24D SWAP3 PUSH4 0xFFFFFFFF AND SWAP1 JUMP JUMPDEST PUSH1 0xE0 SHL SWAP1 JUMP JUMPDEST PUSH32 0xFFFFFFFF00000000000000000000000000000000000000000000000000000000 AND SWAP1 JUMP JUMPDEST PUSH20 0xFFFFFFFFFFFFFFFFFFFFFFFFFFFFFFFFFFFFFFFF SWAP1 SWAP2 AND DUP2 MSTORE PUSH1 0x40 DUP2 ADD SWAP3 SWAP2 PUSH2 0x232 SWAP2 PUSH1 0x20 ADD MSTORE JUMP JUMPDEST PUSH2 0x1DD7 PUSH1 0x4 SWAP3 PUSH2 0x1DC8 PUSH2 0x232 SWAP6 PUSH2 0x1DAE PUSH4 0xA9059CBB PUSH2 0x1D2C JUMP JUMPDEST SWAP3 PUSH2 0x1DB8 PUSH1 0x40 MLOAD SWAP1 JUMP JUMPDEST SWAP7 DUP8 SWAP5 PUSH1 0x20 DUP7 ADD SWAP1 DUP2 MSTORE ADD PUSH2 0x1D6A JUMP JUMPDEST PUSH1 0x20 DUP3 ADD DUP2 SUB DUP3 MSTORE SUB DUP4 PUSH2 0xB11 JUMP JUMPDEST SWAP1 PUSH1 0x0 PUSH1 0x20 SWAP2 PUSH2 0x1DE5 PUSH1 0x0 SWAP1 JUMP JUMPDEST POP DUP3 DUP2 MLOAD SWAP2 ADD DUP3 DUP6 GAS CALL ISZERO PUSH2 0xF55 JUMPI PUSH1 0x0 DUP1 MLOAD RETURNDATASIZE PUSH2 0x1E05 PUSH2 0x111A DUP5 PUSH2 0x916 JUMP JUMPDEST SUB PUSH2 0x1E83 JUMPI POP PUSH2 0x1E21 PUSH2 0x111A PUSH2 0x1E1A DUP5 PUSH2 0x789 JUMP JUMPDEST EXTCODESIZE SWAP3 PUSH2 0x916 JUMP JUMPDEST EQ JUMPDEST PUSH2 0x1E2A JUMPI POP JUMP JUMPDEST PUSH2 0x1E36 PUSH2 0xC24 SWAP2 PUSH2 0x789 JUMP JUMPDEST PUSH1 0x40 MLOAD SWAP2 DUP3 SWAP2 PUSH32 0x5274AFE700000000000000000000000000000000000000000000000000000000 DUP4 MSTORE PUSH1 0x4 DUP4 ADD PUSH20 0xFFFFFFFFFFFFFFFFFFFFFFFFFFFFFFFFFFFFFFFF SWAP1 SWAP2 AND DUP2 MSTORE PUSH1 0x20 ADD SWAP1 JUMP JUMPDEST SWAP1 POP PUSH2 0x1E92 PUSH2 0x111A PUSH1 0x1 PUSH2 0x916 JUMP JUMPDEST EQ ISZERO PUSH2 0x1E23 JUMP JUMPDEST SWAP1 PUSH2 0x1EAE SWAP5 SWAP4 SWAP3 SWAP2 PUSH2 0x1EA9 PUSH2 0x1591 JUMP JUMPDEST PUSH2 0x1EB6 JUMP JUMPDEST PUSH2 0x232 PUSH2 0x15EA JUMP JUMPDEST SWAP1 PUSH2 0x232 SWAP5 SWAP4 SWAP3 SWAP2 PUSH2 0x1EC6 PUSH2 0x150F JUMP JUMPDEST SWAP1 PUSH2 0x232 SWAP5 SWAP4 SWAP3 SWAP2 PUSH2 0x210C JUMP JUMPDEST ISZERO PUSH2 0x1EDA JUMPI JUMP JUMPDEST PUSH1 0x40 MLOAD PUSH32 0x8C379A000000000000000000000000000000000000000000000000000000000 DUP2 MSTORE PUSH1 0x20 PUSH1 0x4 DUP3 ADD MSTORE PUSH1 0x23 PUSH1 0x24 DUP3 ADD MSTORE PUSH32 0x444558506169723A20494E53554646494349454E545F4F55545055545F414D4F PUSH1 0x44 DUP3 ADD MSTORE PUSH32 0x554E540000000000000000000000000000000000000000000000000000000000 PUSH1 0x64 DUP3 ADD MSTORE PUSH1 0x84 SWAP1 REVERT JUMPDEST ISZERO PUSH2 0x1F66 JUMPI JUMP JUMPDEST PUSH1 0x40 MLOAD PUSH32 0x8C379A000000000000000000000000000000000000000000000000000000000 DUP2 MSTORE PUSH1 0x20 PUSH1 0x4 DUP3 ADD MSTORE PUSH1 0x1F PUSH1 0x24 DUP3 ADD MSTORE PUSH32 0x444558506169723A20494E53554646494349454E545F4C495155494449545900 PUSH1 0x44 DUP3 ADD MSTORE PUSH1 0x64 SWAP1 REVERT JUMPDEST ISZERO PUSH2 0x1FCC JUMPI JUMP JUMPDEST PUSH1 0x40 MLOAD PUSH32 0x8C379A000000000000000000000000000000000000000000000000000000000 DUP2 MSTORE PUSH1 0x20 PUSH1 0x4 DUP3 ADD MSTORE PUSH1 0x13 PUSH1 0x24 DUP3 ADD MSTORE PUSH32 0x444558506169723A20494E56414C49445F544F00000000000000000000000000 PUSH1 0x44 DUP3 ADD MSTORE PUSH1 0x64 SWAP1 REVERT JUMPDEST SWAP1 DUP3 PUSH1 0x0 SWAP4 SWAP3 DUP3 CALLDATACOPY ADD MSTORE JUMP JUMPDEST SWAP2 SWAP1 PUSH2 0x37A DUP2 PUSH2 0x204E DUP2 PUSH2 0x3A2 SWAP6 PUSH1 0x20 SWAP2 DUP2 MSTORE ADD SWAP1 JUMP JUMPDEST DUP1 SWAP6 PUSH2 0x202B JUMP JUMPDEST SWAP1 SWAP4 SWAP2 PUSH2 0x24D SWAP6 SWAP4 PUSH2 0x2092 PUSH2 0x2099 SWAP3 PUSH2 0x208B PUSH1 0x80 DUP7 ADD SWAP9 PUSH1 0x0 DUP8 ADD SWAP1 PUSH20 0xFFFFFFFFFFFFFFFFFFFFFFFFFFFFFFFFFFFFFFFF AND SWAP1 MSTORE JUMP JUMPDEST PUSH1 0x20 DUP6 ADD MSTORE JUMP JUMPDEST PUSH1 0x40 DUP4 ADD MSTORE JUMP JUMPDEST PUSH1 0x60 DUP2 DUP6 SUB SWAP2 ADD MSTORE PUSH2 0x2037 JUMP JUMPDEST ISZERO PUSH2 0x20AD JUMPI JUMP JUMPDEST PUSH1 0x40 MLOAD PUSH32 0x8C379A000000000000000000000000000000000000000000000000000000000 DUP2 MSTORE PUSH1 0x20 PUSH1 0x4 DUP3 ADD MSTORE PUSH1 0xA PUSH1 0x24 DUP3 ADD MSTORE PUSH32 0x444558506169723A204B00000000000000000000000000000000000000000000 PUSH1 0x44 DUP3 ADD MSTORE PUSH1 0x64 SWAP1 REVERT JUMPDEST SWAP4 SWAP3 SWAP2 SWAP3 PUSH1 0x0 PUSH2 0x211B DUP2 PUSH2 0x916 JUMP JUMPDEST DUP7 GT SWAP2 DUP3 DUP4 ISZERO PUSH2 0x2524 JUMPI JUMPDEST PUSH2 0x212F SWAP1 PUSH2 0x1ED3 JUMP JUMPDEST PUSH2 0x2137 PUSH2 0xEE2 JUMP JUMPDEST POP SWAP7 SWAP1 SWAP6 PUSH2 0x2144 DUP8 PUSH2 0xF61 JUMP JUMPDEST DUP10 LT DUP1 PUSH2 0x250E JUMPI JUMPDEST PUSH2 0x2155 SWAP1 PUSH2 0x1F5F JUMP JUMPDEST PUSH2 0x215F PUSH1 0x1 PUSH2 0xB9E JUMP JUMPDEST SWAP2 PUSH2 0x216A PUSH1 0x2 PUSH2 0xD84 JUMP JUMPDEST SWAP6 PUSH20 0xFFFFFFFFFFFFFFFFFFFFFFFFFFFFFFFFFFFFFFFF DUP5 AND PUSH20 0xFFFFFFFFFFFFFFFFFFFFFFFFFFFFFFFFFFFFFFFF DUP4 AND EQ ISZERO DUP1 PUSH2 0x24EB JUMPI JUMPDEST PUSH2 0x21AA SWAP1 PUSH2 0x1FC5 JUMP JUMPDEST PUSH2 0x24D8 JUMPI JUMPDEST PUSH2 0x21B8 DUP6 PUSH2 0x916 JUMP JUMPDEST DUP8 GT PUSH2 0x24C5 JUMPI JUMPDEST DUP4 PUSH2 0x21CC PUSH2 0x111A DUP8 PUSH2 0x916 JUMP JUMPDEST GT PUSH2 0x242F JUMPI JUMPDEST POP POP PUSH2 0x21E2 SWAP2 POP PUSH2 0x123C SWAP1 PUSH2 0x789 JUMP JUMPDEST SWAP6 PUSH4 0x70A08231 PUSH2 0x21F1 ADDRESS PUSH2 0x789 JUMP JUMPDEST SWAP1 PUSH1 0x20 PUSH2 0x21FD PUSH1 0x40 MLOAD SWAP1 JUMP JUMPDEST DUP1 SWAP11 PUSH2 0x2209 DUP5 PUSH1 0xE0 SHL SWAP1 JUMP JUMPDEST DUP3 MSTORE PUSH20 0xFFFFFFFFFFFFFFFFFFFFFFFFFFFFFFFFFFFFFFFF DUP6 AND PUSH1 0x4 DUP4 ADD MSTORE PUSH1 0x24 SWAP1 DUP3 SWAP1 GAS STATICCALL SWAP5 DUP6 ISZERO PUSH2 0x14DF JUMPI PUSH2 0x226C SWAP10 PUSH1 0x0 SWAP7 PUSH2 0x23FD JUMPI JUMPDEST POP SWAP1 PUSH2 0x12CD PUSH2 0x2255 PUSH2 0x123C PUSH1 0x20 SWAP6 SWAP5 PUSH2 0x789 JUMP JUMPDEST SWAP2 PUSH2 0x225F PUSH1 0x40 MLOAD SWAP1 JUMP JUMPDEST SWAP12 DUP13 SWAP5 DUP6 SWAP4 DUP5 SWAP4 PUSH1 0xE0 SHL SWAP1 JUMP JUMPDEST SUB SWAP2 GAS STATICCALL SWAP4 DUP5 ISZERO PUSH2 0x14DF JUMPI DUP6 DUP8 SWAP3 PUSH2 0x232 SWAP10 PUSH1 0x0 SWAP8 PUSH2 0x23C5 JUMPI JUMPDEST POP SWAP3 PUSH2 0x2316 PUSH2 0x13FB SWAP6 SWAP4 PUSH2 0x192F SWAP4 PUSH2 0x235C SWAP7 DUP3 PUSH2 0x22AE PUSH2 0x24D DUP4 PUSH2 0x22A9 DUP7 PUSH2 0xF61 JUMP JUMPDEST PUSH2 0xFAD JUMP JUMPDEST DUP12 GT ISZERO PUSH2 0x23AF JUMPI PUSH2 0x22A9 PUSH2 0x22D4 PUSH2 0x22CE PUSH2 0x24D SWAP5 PUSH2 0x22A9 PUSH2 0x22DA SWAP8 PUSH2 0xF61 JUMP JUMPDEST DUP14 PUSH2 0xFAD JUMP JUMPDEST SWAP7 PUSH2 0xF61 JUMP JUMPDEST PUSH1 0x0 SWAP1 DUP11 GT ISZERO PUSH2 0x239F JUMPI POP PUSH2 0x22F5 PUSH2 0x22FB SWAP2 PUSH2 0x22A9 DUP14 PUSH2 0xF61 JUMP JUMPDEST DUP10 PUSH2 0xFAD JUMP JUMPDEST SWAP4 JUMPDEST PUSH2 0x2306 DUP2 PUSH2 0x916 JUMP JUMPDEST DUP4 GT SWAP1 DUP2 ISZERO PUSH2 0x238D JUMPI JUMPDEST POP PUSH2 0xFBF JUMP JUMPDEST PUSH2 0x13ED PUSH2 0x3E8 SWAP4 PUSH2 0x192F PUSH2 0x2356 PUSH2 0x2350 PUSH2 0x234A PUSH2 0x233B PUSH2 0x2335 DUP11 PUSH2 0x916 JUMP JUMPDEST DUP14 PUSH2 0x10CF JUMP JUMPDEST PUSH2 0x13ED PUSH1 0x3 SWAP9 PUSH2 0x192F DUP11 PUSH2 0x916 JUMP JUMPDEST SWAP8 PUSH2 0x916 JUMP JUMPDEST DUP12 PUSH2 0x10CF JUMP JUMPDEST SWAP4 PUSH2 0x916 JUMP JUMPDEST PUSH2 0x2386 PUSH2 0x111A PUSH2 0x24D PUSH2 0x237A PUSH2 0x2371 DUP10 PUSH2 0xF61 JUMP JUMPDEST PUSH2 0x192F DUP12 PUSH2 0xF61 JUMP JUMPDEST PUSH2 0x192F PUSH3 0xF4240 PUSH2 0x916 JUMP JUMPDEST LT ISZERO PUSH2 0x20A6 JUMP JUMPDEST PUSH2 0x2397 SWAP2 POP PUSH2 0x916 JUMP JUMPDEST DUP5 GT CODESIZE PUSH2 0x2310 JUMP JUMPDEST PUSH2 0x23A9 SWAP2 POP PUSH2 0x916 JUMP JUMPDEST SWAP4 PUSH2 0x22FD JUMP JUMPDEST PUSH2 0x22DA SWAP3 POP PUSH2 0x24D SWAP2 POP PUSH2 0x22A9 PUSH2 0x22D4 DUP10 PUSH2 0x916 JUMP JUMPDEST PUSH2 0x235C SWAP5 SWAP2 SWAP8 POP PUSH2 0x13FB SWAP6 SWAP4 PUSH2 0x192F SWAP4 PUSH2 0x23EF PUSH2 0x2316 SWAP4 PUSH1 0x20 RETURNDATASIZE DUP2 GT PUSH2 0x14D8 JUMPI PUSH2 0x14C9 DUP2 DUP4 PUSH2 0xB11 JUMP JUMPDEST SWAP10 SWAP4 SWAP7 POP SWAP4 POP SWAP4 SWAP6 POP PUSH2 0x2286 JUMP JUMPDEST PUSH1 0x20 SWAP4 SWAP3 SWAP2 SWAP7 POP PUSH2 0x2255 PUSH2 0x123C PUSH2 0x2423 PUSH2 0x12CD SWAP4 DUP8 RETURNDATASIZE DUP2 GT PUSH2 0x14D8 JUMPI PUSH2 0x14C9 DUP2 DUP4 PUSH2 0xB11 JUMP JUMPDEST SWAP9 SWAP4 SWAP5 SWAP6 POP POP POP PUSH2 0x2241 JUMP JUMPDEST PUSH2 0x123C PUSH2 0x243B SWAP2 PUSH2 0x789 JUMP JUMPDEST SWAP1 PUSH4 0xBEA9CF36 SWAP2 CALLER SWAP2 DUP2 EXTCODESIZE ISZERO PUSH2 0x220 JUMPI DUP7 DUP1 SWAP5 PUSH2 0x2479 DUP15 SWAP9 PUSH2 0x246E SWAP5 DUP14 PUSH2 0x2461 PUSH1 0x40 MLOAD SWAP1 JUMP JUMPDEST SWAP12 DUP13 SWAP10 DUP11 SWAP9 DUP10 SWAP8 PUSH1 0xE0 SHL SWAP1 JUMP JUMPDEST DUP8 MSTORE PUSH1 0x4 DUP8 ADD PUSH2 0x2055 JUMP JUMPDEST SUB SWAP3 GAS CALL SWAP1 DUP2 ISZERO PUSH2 0x14DF JUMPI PUSH2 0x21E2 SWAP3 PUSH2 0x123C SWAP3 PUSH2 0x2499 JUMPI JUMPDEST DUP2 SWAP3 POP PUSH2 0x21D2 JUMP JUMPDEST PUSH2 0x24B8 SWAP1 DUP6 RETURNDATASIZE DUP8 GT PUSH2 0x24BE JUMPI JUMPDEST PUSH2 0x24B0 DUP2 DUP4 PUSH2 0xB11 JUMP JUMPDEST DUP2 ADD SWAP1 PUSH2 0x322 JUMP JUMPDEST CODESIZE PUSH2 0x2491 JUMP JUMPDEST POP RETURNDATASIZE PUSH2 0x24A6 JUMP JUMPDEST PUSH2 0x24D3 DUP8 DUP3 PUSH2 0x1BF5 DUP10 PUSH2 0x789 JUMP JUMPDEST PUSH2 0x21BF JUMP JUMPDEST PUSH2 0x24E6 DUP11 DUP3 PUSH2 0x1BF5 DUP7 PUSH2 0x789 JUMP JUMPDEST PUSH2 0x21AF JUMP JUMPDEST POP PUSH20 0xFFFFFFFFFFFFFFFFFFFFFFFFFFFFFFFFFFFFFFFF DUP3 DUP2 AND SWAP1 DUP9 AND EQ ISZERO PUSH2 0x21A1 JUMP JUMPDEST POP PUSH2 0x2155 PUSH2 0x251B DUP10 PUSH2 0xF61 JUMP JUMPDEST DUP8 LT SWAP1 POP PUSH2 0x214C JUMP JUMPDEST POP PUSH2 0x212F PUSH2 0x2531 DUP4 PUSH2 0x916 JUMP JUMPDEST DUP6 GT SWAP1 POP PUSH2 0x2126 JUMP JUMPDEST SWAP1 PUSH2 0x232 SWAP5 SWAP4 SWAP3 SWAP2 PUSH2 0x1E99 JUMP JUMPDEST PUSH2 0x254F PUSH2 0x1591 JUMP JUMPDEST PUSH2 0x1EAE PUSH2 0x2562 PUSH2 0x123C PUSH2 0x123C PUSH1 0x1 PUSH2 0xB9E JUMP JUMPDEST PUSH4 0x70A08231 PUSH2 0x2570 ADDRESS PUSH2 0x789 JUMP JUMPDEST PUSH1 0x20 PUSH2 0x257B PUSH1 0x40 MLOAD SWAP1 JUMP JUMPDEST DUP1 SWAP5 PUSH2 0x2587 DUP6 PUSH1 0xE0 SHL SWAP1 JUMP JUMPDEST DUP3 MSTORE PUSH20 0xFFFFFFFFFFFFFFFFFFFFFFFFFFFFFFFFFFFFFFFF DUP5 AND PUSH1 0x4 DUP4 ADD MSTORE PUSH1 0x24 SWAP1 DUP3 SWAP1 GAS STATICCALL SWAP1 DUP2 ISZERO PUSH2 0x14DF JUMPI PUSH2 0x25D6 SWAP4 PUSH1 0x0 SWAP3 PUSH2 0x14E4 JUMPI POP PUSH1 0x20 SWAP2 SWAP3 PUSH2 0x12CD PUSH2 0x12B6 PUSH2 0x123C PUSH2 0x123C PUSH1 0x2 PUSH2 0xD84 JUMP JUMPDEST SUB SWAP2 GAS STATICCALL DUP1 ISZERO PUSH2 0x14DF JUMPI PUSH2 0x232 SWAP3 PUSH1 0x0 SWAP2 PUSH2 0x2608 JUMPI JUMPDEST POP PUSH2 0x25F7 PUSH1 0x3 PUSH2 0xEA7 JUMP JUMPDEST SWAP1 PUSH2 0x2602 PUSH1 0x3 PUSH2 0xEBD JUMP JUMPDEST SWAP3 PUSH2 0x17E6 JUMP JUMPDEST PUSH2 0x2620 SWAP2 POP PUSH1 0x20 RETURNDATASIZE DUP2 GT PUSH2 0x14D8 JUMPI PUSH2 0x14C9 DUP2 DUP4 PUSH2 0xB11 JUMP JUMPDEST CODESIZE PUSH2 0x25EC JUMP JUMPDEST PUSH2 0x232 PUSH2 0x2547 JUMP JUMPDEST SWAP1 PUSH2 0x26B1 PUSH2 0x26A7 PUSH2 0x232 SWAP4 PUSH2 0x2661 PUSH2 0x264A DUP6 PUSH2 0x193F PUSH1 0x8 PUSH2 0x1052 JUMP JUMPDEST PUSH2 0x265A PUSH2 0x111A PUSH2 0x24D PUSH1 0x8 PUSH2 0x1052 JUMP JUMPDEST LT ISZERO PUSH2 0x15FC JUMP JUMPDEST PUSH1 0x7 PUSH2 0x268F PUSH2 0x267C DUP7 PUSH2 0x193F PUSH2 0x2677 DUP7 DUP7 PUSH2 0x792 JUMP JUMPDEST PUSH2 0x1052 JUMP JUMPDEST PUSH2 0x265A PUSH2 0x111A PUSH2 0x24D PUSH2 0x2677 DUP8 DUP8 PUSH2 0x792 JUMP JUMPDEST PUSH2 0xA9F PUSH2 0x26A0 DUP7 PUSH2 0x193F PUSH1 0x8 PUSH2 0x1052 JUMP JUMPDEST PUSH1 0x8 PUSH2 0x157A JUMP JUMPDEST SWAP2 PUSH2 0x193F DUP4 PUSH2 0x1052 JUMP JUMPDEST SWAP1 PUSH2 0x157A JUMP JUMPDEST PUSH2 0x232 SWAP2 PUSH2 0x26D9 PUSH2 0x26CC PUSH2 0x26A0 SWAP4 PUSH1 0x7 PUSH2 0x792 JUMP JUMPDEST PUSH2 0x26B1 DUP4 PUSH2 0x22A9 DUP4 PUSH2 0x1052 JUMP JUMPDEST PUSH2 0x22A9 PUSH1 0x8 PUSH2 0x1052 JUMP JUMPDEST SWAP1 DUP1 DUP3 LT ISZERO PUSH2 0x26F0 JUMPI POP SWAP1 JUMP JUMPDEST SWAP1 POP SWAP1 JUMP JUMPDEST SWAP1 PUSH1 0x0 PUSH2 0x2702 PUSH1 0x3 PUSH2 0x916 JUMP JUMPDEST DUP4 GT ISZERO PUSH2 0x2780 JUMPI POP PUSH2 0x2737 DUP3 PUSH1 0x2 PUSH2 0x2722 PUSH2 0x271C DUP3 PUSH2 0x916 JUMP JUMPDEST DUP4 PUSH2 0x1114 JUMP JUMPDEST SWAP2 PUSH1 0x1 SWAP4 DUP5 SWAP4 PUSH2 0x2731 DUP6 PUSH2 0x916 JUMP JUMPDEST SWAP1 PUSH2 0x16D1 JUMP JUMPDEST SWAP4 JUMPDEST PUSH2 0x2744 JUMPI JUMPDEST POP POP POP POP JUMP JUMPDEST SWAP1 SWAP2 SWAP3 SWAP5 PUSH2 0x274F DUP2 SWAP1 JUMP JUMPDEST DUP7 LT ISZERO PUSH2 0x277A JUMPI POP PUSH2 0x2771 PUSH2 0x2768 DUP7 PUSH2 0x193F DUP2 DUP6 PUSH2 0x1114 JUMP JUMPDEST PUSH2 0x1460 DUP5 PUSH2 0x916 JUMP JUMPDEST SWAP3 SWAP2 SWAP1 DUP3 PUSH2 0x2739 JUMP JUMPDEST SWAP5 PUSH2 0x273E JUMP JUMPDEST SWAP2 PUSH2 0x278E PUSH2 0x111A PUSH1 0x0 PUSH2 0x916 JUMP JUMPDEST SUB PUSH2 0x2795 JUMPI JUMP JUMPDEST SWAP1 POP PUSH2 0x24D PUSH1 0x1 PUSH2 0x916 JUMP JUMPDEST CALLER PUSH2 0x27BA DUP4 PUSH2 0x27B5 DUP5 PUSH2 0xA9F DUP6 PUSH1 0xC PUSH2 0x792 JUMP JUMPDEST PUSH2 0x157A JUMP JUMPDEST PUSH2 0x27FA PUSH2 0x27F0 PUSH2 0x27EA PUSH32 0x8C5BE1E5EBEC7D5BD14F71427D1E84F3DD0314C0F7B2291E5B200AC8C7C3B925 SWAP4 PUSH2 0x789 JUMP JUMPDEST SWAP4 PUSH2 0x789 JUMP JUMPDEST SWAP4 PUSH2 0x53D PUSH1 0x40 MLOAD SWAP1 JUMP JUMPDEST SUB SWAP1 LOG3 PUSH1 0x1 SWAP1 JUMP JUMPDEST CALLER PUSH2 0x2833 PUSH2 0x2826 DUP4 PUSH1 0x7 PUSH2 0xA9F PUSH2 0x2819 DUP7 DUP4 PUSH2 0x792 JUMP JUMPDEST PUSH2 0x26B1 DUP10 PUSH2 0x22A9 DUP4 PUSH2 0x1052 JUMP JUMPDEST PUSH2 0x26B1 DUP6 PUSH2 0x193F DUP4 PUSH2 0x1052 JUMP JUMPDEST PUSH2 0x27FA PUSH2 0x27F0 PUSH2 0x27EA PUSH32 0xDDF252AD1BE2C89B69C2B068FC378DAA952BA7F163C4A11628F55A4DF523B3EF SWAP4 PUSH2 0x789 JUMP JUMPDEST PUSH1 0xC DUP2 PUSH2 0x2870 DUP2 DUP4 PUSH2 0x792 JUMP JUMPDEST PUSH2 0x287E PUSH2 0x2677 CALLER DUP1 SWAP4 PUSH2 0x792 JUMP JUMPDEST PUSH1 0x1 ADD PUSH2 0x289F JUMPI JUMPDEST POP POP POP PUSH2 0x2833 PUSH2 0x2826 DUP4 PUSH1 0x7 PUSH2 0xA9F PUSH2 0x2819 DUP7 DUP4 PUSH2 0x792 JUMP JUMPDEST PUSH2 0xA9F PUSH2 0x28AF SWAP3 PUSH2 0x28BC SWAP5 PUSH2 0x792 JUMP JUMPDEST PUSH2 0x26B1 DUP6 PUSH2 0x22A9 DUP4 PUSH2 0x1052 JUMP JUMPDEST CODESIZE DUP2 DUP2 PUSH2 0x2886 JUMP JUMPDEST PUSH8 0xFFFFFFFFFFFFFFFF DUP2 GT PUSH2 0xB51 JUMPI PUSH1 0x20 SWAP1 PUSH1 0x1F ADD PUSH32 0xFFFFFFFFFFFFFFFFFFFFFFFFFFFFFFFFFFFFFFFFFFFFFFFFFFFFFFFFFFFFFFE0 AND ADD SWAP1 JUMP JUMPDEST SWAP1 PUSH2 0x2911 PUSH2 0x290C DUP4 PUSH2 0x28C4 JUMP JUMPDEST PUSH2 0xB56 JUMP JUMPDEST SWAP2 DUP3 MSTORE JUMP JUMPDEST PUSH2 0x2920 PUSH1 0xC PUSH2 0x28FF JUMP JUMPDEST PUSH32 0x444558204C5020546F6B656E0000000000000000000000000000000000000000 PUSH1 0x20 DUP3 ADD MSTORE SWAP1 JUMP JUMPDEST PUSH2 0x24D PUSH2 0x2916 JUMP JUMPDEST PUSH2 0x24D PUSH2 0x2949 JUMP JUMPDEST PUSH2 0x2963 PUSH1 0x2 PUSH2 0x28FF JUMP JUMPDEST PUSH32 0x4C50000000000000000000000000000000000000000000000000000000000000 PUSH1 0x20 DUP3 ADD MSTORE SWAP1 JUMP JUMPDEST PUSH2 0x24D PUSH2 0x2959 JUMP JUMPDEST PUSH2 0x24D PUSH2 0x298C JUMP JUMPDEST PUSH2 0x62B PUSH2 0x24D PUSH2 0x24D SWAP3 SWAP1 JUMP JUMPDEST PUSH2 0x24D PUSH1 0x12 PUSH2 0x299C JUMP JUMPDEST PUSH2 0x24D PUSH2 0x2A4B JUMP JUMPDEST PUSH2 0x29C5 PUSH1 0x1 PUSH2 0x28FF JUMP JUMPDEST PUSH32 0x3100000000000000000000000000000000000000000000000000000000000000 PUSH1 0x20 DUP3 ADD MSTORE SWAP1 JUMP JUMPDEST PUSH2 0x24D PUSH2 0x29BB JUMP JUMPDEST SWAP1 SWAP6 SWAP5 SWAP3 PUSH2 0x232 SWAP5 PUSH2 0x2A28 PUSH2 0x2A2F SWAP3 PUSH2 0x2A21 PUSH1 0x80 SWAP7 PUSH2 0x2A1A PUSH1 0xA0 DUP9 ADD SWAP13 PUSH1 0x0 DUP10 ADD MSTORE JUMP JUMPDEST PUSH1 0x20 DUP8 ADD MSTORE JUMP JUMPDEST PUSH1 0x40 DUP6 ADD MSTORE JUMP JUMPDEST PUSH1 0x60 DUP4 ADD MSTORE JUMP JUMPDEST ADD SWAP1 PUSH20 0xFFFFFFFFFFFFFFFFFFFFFFFFFFFFFFFFFFFFFFFF AND SWAP1 MSTORE JUMP JUMPDEST PUSH32 0x8B73C3C69BB8FE3D512ECC4CF759CC79239F7B179B0FFACAA9A75D522B39400F PUSH2 0x2AD0 PUSH2 0x2A77 PUSH2 0x2949 JUMP JUMPDEST PUSH2 0x2A89 PUSH2 0x2A82 DUP3 MLOAD SWAP1 JUMP JUMPDEST SWAP2 PUSH1 0x20 ADD SWAP1 JUMP JUMPDEST KECCAK256 PUSH2 0x2A92 PUSH2 0x29EE JUMP JUMPDEST PUSH2 0x2A9D PUSH2 0x2A82 DUP3 MLOAD SWAP1 JUMP JUMPDEST KECCAK256 SWAP3 PUSH2 0x2AC4 CHAINID PUSH2 0x2AAC ADDRESS PUSH2 0x789 JUMP JUMPDEST SWAP1 PUSH2 0x2AB6 PUSH1 0x40 MLOAD SWAP1 JUMP JUMPDEST SWAP7 DUP8 SWAP6 PUSH1 0x20 DUP8 ADD SWAP6 DUP7 PUSH2 0x29F6 JUMP JUMPDEST SWAP1 DUP2 SUB DUP3 MSTORE SUB DUP3 PUSH2 0xB11 JUMP JUMPDEST PUSH2 0x2ADB PUSH2 0x2A82 DUP3 MLOAD SWAP1 JUMP JUMPDEST KECCAK256 SWAP1 JUMP JUMPDEST ISZERO PUSH2 0x2AE6 JUMPI JUMP JUMPDEST PUSH1 0x40 MLOAD PUSH32 0x8C379A000000000000000000000000000000000000000000000000000000000 DUP2 MSTORE PUSH1 0x20 PUSH1 0x4 DUP3 ADD MSTORE PUSH1 0x10 PUSH1 0x24 DUP3 ADD MSTORE PUSH32 0x444558506169723A204558504952454400000000000000000000000000000000 PUSH1 0x44 DUP3 ADD MSTORE PUSH1 0x64 SWAP1 REVERT JUMPDEST PUSH32 0xFFFFFFFFFFFFFFFFFFFFFFFFFFFFFFFFFFFFFFFFFFFFFFFFFFFFFFFFFFFFFFFF DUP2 EQ PUSH2 0xFBA JUMPI PUSH1 0x1 ADD SWAP1 JUMP JUMPDEST SWAP2 SWAP5 PUSH2 0x2BDB PUSH2 0x8AD SWAP3 SWAP9 SWAP8 SWAP6 PUSH2 0x2BD4 PUSH1 0xA0 SWAP7 PUSH2 0x2BB7 PUSH2 0x232 SWAP11 PUSH2 0x2B9A PUSH1 0xC0 DUP11 ADD SWAP15 PUSH1 0x0 DUP12 ADD MSTORE JUMP JUMPDEST PUSH20 0xFFFFFFFFFFFFFFFFFFFFFFFFFFFFFFFFFFFFFFFF AND PUSH1 0x20 DUP10 ADD MSTORE JUMP JUMPDEST PUSH20 0xFFFFFFFFFFFFFFFFFFFFFFFFFFFFFFFFFFFFFFFF AND PUSH1 0x40 DUP8 ADD MSTORE JUMP JUMPDEST PUSH1 0x60 DUP6 ADD MSTORE JUMP JUMPDEST PUSH1 0x80 DUP4 ADD MSTORE JUMP JUMPDEST PUSH1 0x20 DUP1 SWAP4 SWAP3 PUSH2 0x2C1A PUSH2 0x2911 PUSH2 0x3A2 SWAP5 PUSH32 0x1901000000000000000000000000000000000000000000000000000000000000 DUP2 MSTORE PUSH1 0x2 ADD SWAP1 JUMP JUMPDEST ADD SWAP2 DUP3 MSTORE JUMP JUMPDEST PUSH2 0x8AD PUSH2 0x232 SWAP5 PUSH2 0x2092 PUSH1 0x60 SWAP5 SWAP9 SWAP8 SWAP6 PUSH2 0x2C3F PUSH1 0x80 DUP7 ADD SWAP11 PUSH1 0x0 DUP8 ADD MSTORE JUMP JUMPDEST PUSH1 0xFF AND PUSH1 0x20 DUP6 ADD MSTORE JUMP JUMPDEST ISZERO PUSH2 0x2C50 JUMPI JUMP JUMPDEST PUSH1 0x40 MLOAD PUSH32 0x8C379A000000000000000000000000000000000000000000000000000000000 DUP2 MSTORE PUSH1 0x20 PUSH1 0x4 DUP3 ADD MSTORE PUSH1 0x1A PUSH1 0x24 DUP3 ADD MSTORE PUSH32 0x444558506169723A20494E56414C49445F5349474E4154555245000000000000 PUSH1 0x44 DUP3 ADD MSTORE PUSH1 0x64 SWAP1 REVERT JUMPDEST SWAP4 SWAP1 SWAP5 PUSH2 0x2D75 DUP4 SWAP8 PUSH2 0x2AC4 PUSH2 0x2D56 DUP10 PUSH2 0x2D32 DUP11 PUSH1 0x0 SWAP10 PUSH2 0x2AC4 PUSH1 0x20 SWAP13 PUSH2 0x2CDD PUSH2 0x2CD5 TIMESTAMP SWAP1 JUMP JUMPDEST DUP3 LT ISZERO PUSH2 0x2ADF JUMP JUMPDEST PUSH32 0x6E71EDAE12B1B97F4D1F60370FEF10105FA2FAAE0126114A169C64845D6126C9 SWAP3 PUSH2 0x2D0A DUP6 PUSH1 0xD PUSH2 0x792 JUMP JUMPDEST SWAP1 PUSH2 0x2D21 PUSH2 0x2D17 DUP4 PUSH2 0x1052 JUMP JUMPDEST SWAP3 PUSH2 0x26B1 DUP5 PUSH2 0x2B45 JUMP JUMPDEST PUSH1 0x40 MLOAD SWAP8 DUP9 SWAP7 PUSH1 0x20 DUP9 ADD SWAP7 DUP8 PUSH2 0x2B72 JUMP JUMPDEST PUSH2 0x2D3D PUSH2 0x2A82 DUP3 MLOAD SWAP1 JUMP JUMPDEST KECCAK256 PUSH2 0x2D46 PUSH2 0x2A4B JUMP JUMPDEST PUSH1 0x40 MLOAD SWAP4 DUP5 SWAP3 DUP12 DUP5 ADD SWAP3 DUP4 PUSH2 0x2BE2 JUMP JUMPDEST PUSH2 0x2D61 PUSH2 0x2A82 DUP3 MLOAD SWAP1 JUMP JUMPDEST KECCAK256 SWAP3 PUSH2 0x2D6C PUSH1 0x40 MLOAD SWAP1 JUMP JUMPDEST SWAP5 DUP6 SWAP5 DUP6 PUSH2 0x2C20 JUMP JUMPDEST DUP4 DUP1 MSTORE SUB SWAP1 PUSH1 0x1 GAS STATICCALL ISZERO PUSH2 0x14DF JUMPI PUSH1 0x0 MLOAD PUSH2 0x2DAF SWAP1 PUSH2 0x2DA9 PUSH20 0xFFFFFFFFFFFFFFFFFFFFFFFFFFFFFFFFFFFFFFFF DUP5 AND PUSH2 0xCFF JUMP JUMPDEST EQ PUSH2 0x2C49 JUMP JUMPDEST PUSH2 0x2DC2 DUP4 PUSH2 0x27B5 DUP5 PUSH2 0xA9F DUP6 PUSH1 0xC PUSH2 0x792 JUMP JUMPDEST PUSH2 0x2DF2 PUSH2 0x27F0 PUSH2 0x27EA PUSH32 0x8C5BE1E5EBEC7D5BD14F71427D1E84F3DD0314C0F7B2291E5B200AC8C7C3B925 SWAP4 PUSH2 0x789 JUMP JUMPDEST SUB SWAP1 LOG3 JUMP JUMPDEST PUSH2 0x2E01 PUSH1 0x1 PUSH2 0xB9E JUMP JUMPDEST PUSH2 0x2E14 PUSH2 0x2E0E PUSH1 0x2 PUSH2 0xD84 JUMP JUMPDEST SWAP2 PUSH2 0x789 JUMP JUMPDEST SWAP2 PUSH2 0x2E1E DUP4 PUSH2 0x789 JUMP JUMPDEST SWAP3 PUSH4 0x70A08231 SWAP3 PUSH2 0x2E2E ADDRESS PUSH2 0x789 JUMP JUMPDEST SWAP1 PUSH1 0x20 PUSH2 0x2E3A PUSH1 0x40 MLOAD SWAP1 JUMP JUMPDEST DUP1 SWAP8 PUSH2 0x2E46 DUP9 PUSH1 0xE0 SHL SWAP1 JUMP JUMPDEST DUP3 MSTORE PUSH20 0xFFFFFFFFFFFFFFFFFFFFFFFFFFFFFFFFFFFFFFFF DUP6 AND PUSH1 0x4 DUP4 ADD MSTORE PUSH1 0x24 SWAP1 DUP3 SWAP1 GAS STATICCALL SWAP1 DUP2 ISZERO PUSH2 0x14DF JUMPI PUSH2 0x123C PUSH1 0x20 SWAP5 DUP7 PUSH2 0x2E9F PUSH2 0x2EA5 SWAP6 PUSH2 0x2EC9 SWAP12 PUSH1 0x0 SWAP2 PUSH2 0x2F10 JUMPI JUMPDEST POP PUSH2 0x13ED PUSH2 0x2E9A PUSH1 0x3 PUSH2 0xEA7 JUMP JUMPDEST PUSH2 0xF61 JUMP JUMPDEST SWAP2 PUSH2 0x1D94 JUMP JUMPDEST SWAP4 PUSH2 0x12CD PUSH2 0x2EB2 DUP7 PUSH2 0x789 JUMP JUMPDEST SWAP2 PUSH2 0x2EBC PUSH1 0x40 MLOAD SWAP1 JUMP JUMPDEST SWAP8 DUP9 SWAP5 DUP6 SWAP4 DUP5 SWAP4 PUSH1 0xE0 SHL SWAP1 JUMP JUMPDEST SUB SWAP2 GAS STATICCALL SWAP3 DUP4 ISZERO PUSH2 0x14DF JUMPI PUSH2 0x232 SWAP4 PUSH2 0x2E9F SWAP2 PUSH1 0x0 SWAP2 PUSH2 0x2EF2 JUMPI JUMPDEST POP PUSH2 0x13ED PUSH2 0x2E9A PUSH1 0x3 PUSH2 0xEBD JUMP JUMPDEST PUSH2 0x2F0A SWAP2 POP PUSH1 0x20 RETURNDATASIZE DUP2 GT PUSH2 0x14D8 JUMPI PUSH2 0x14C9 DUP2 DUP4 PUSH2 0xB11 JUMP JUMPDEST CODESIZE PUSH2 0x2EE4 JUMP JUMPDEST PUSH2 0x2F27 SWAP2 POP DUP10 RETURNDATASIZE DUP2 GT PUSH2 0x14D8 JUMPI PUSH2 0x14C9 DUP2 DUP4 PUSH2 0xB11 JUMP JUMPDEST CODESIZE PUSH2 0x2E8C JUMP JUMPDEST PUSH2 0x24D PUSH2 0x2F3D PUSH2 0x2E9A PUSH1 0x3 PUSH2 0xEA7 JUMP JUMPDEST PUSH2 0x192F PUSH2 0x2E9A PUSH1 0x3 PUSH2 0xEBD JUMP JUMPDEST PUSH2 0x2F67 PUSH2 0x24D PUSH2 0x24D SWAP3 PUSH14 0xFFFFFFFFFFFFFFFFFFFFFFFFFFFF AND SWAP1 JUMP JUMPDEST PUSH28 0xFFFFFFFFFFFFFFFFFFFFFFFFFFFFFFFFFFFFFFFFFFFFFFFFFFFFFFFF AND SWAP1 JUMP JUMPDEST PUSH2 0x2F67 PUSH2 0x24D PUSH2 0x24D SWAP3 SWAP1 JUMP JUMPDEST PUSH2 0x24D PUSH15 0x10000000000000000000000000000 PUSH2 0x2F88 JUMP JUMPDEST PUSH28 0xFFFFFFFFFFFFFFFFFFFFFFFFFFFFFFFFFFFFFFFFFFFFFFFFFFFFFFFF SWAP1 DUP2 AND SWAP3 SWAP2 AND SWAP2 PUSH28 0xFFFFFFFFFFFFFFFFFFFFFFFFFFFFFFFFFFFFFFFFFFFFFFFFFFFFFFFF DUP2 DUP5 MUL AND PUSH2 0x10D6 JUMP JUMPDEST PUSH2 0x300C PUSH2 0x24D SWAP2 PUSH2 0x3006 PUSH1 0x0 SWAP1 JUMP JUMPDEST POP PUSH2 0x2F4A JUMP JUMPDEST PUSH2 0x3014 PUSH2 0x2F95 JUMP JUMPDEST SWAP1 PUSH2 0x2FAD JUMP JUMPDEST PUSH28 0xFFFFFFFFFFFFFFFFFFFFFFFFFFFFFFFFFFFFFFFFFFFFFFFFFFFFFFFF SWAP1 DUP2 AND SWAP2 AND PUSH2 0x111E JUMP JUMPDEST PUSH2 0x3050 PUSH2 0x24D SWAP3 PUSH2 0x3006 PUSH1 0x0 SWAP1 JUMP JUMPDEST SWAP1 PUSH2 0x301A JUMP INVALID LOG2 PUSH5 0x6970667358 0x22 SLT KECCAK256 0xF9 PUSH29 0x6B03D65FA8A1506FAF19A15A9D4F78DB4F4F2BACD67AE49E023B274442 0xA6 PUSH5 0x736F6C6343 STOP ADDMOD EQ STOP CALLER LOG2 PUSH5 0x6970667358 0x22 SLT KECCAK256 0x21 0xB4 SWAP12 PUSH26 0xA50D671895E3939CDDB4F73C0FE65EEBA077FB3B08DA21C5A9A0 0xDA SWAP3 PUSH5 0x736F6C6343 STOP ADDMOD EQ STOP CALLER "},"methodIdentifiers":{"FEE_DENOMINATOR()":"d73792a9","MAX_FEE_RATE()":"92f6576e","_getPair(address,address)":"90c833f4","allPairs(uint256)":"1e3dd18b","allPairsLength()":"574f2ba3","collectTradingFees(address,uint256)":"4bfc2e0b","createPair(address,address)":"c9c65396","createPair(address,address,(bool))":"ce3b5273","createPairWithLiquidity(address,address,uint256,uint256,bool,uint256,string)":"ac449629","feeDenominator()":"180b0d7e","feeRate()":"978bbdb9","getFeeDenominator()":"f4e1fc41","getFeeRate()":"84e5eed0","getPair(address,address)":"e6a43905","getPairAddress(address,address)":"b4f69a2f","liquidityLocker()":"9759164a","lockInitialLiquidity(address,address,uint256,string)":"6d49dfc3","lockLiquidity(address,address,uint256,uint256,string,uint256)":"44e5550f","lockLiquidity(address,uint256,uint256,string)":"a293e03c","owner()":"8da5cb5b","pause()":"8456cb59","renounceOwnership()":"715018a6","setAuthorizedOperator(address,bool)":"788f737d","setEmergencyStop(bool)":"c73d7c7b","setFeeRate(uint256)":"45596e2e","setLiquidityLocker(address)":"b2094a10","totalPairsCreated()":"ff255efb","transferOwnership(address)":"f2fde38b","unlockLiquidity(address,uint256)":"be8796c1","unlockLiquidity(address,uint256,address)":"573044e3","unpause()":"3f4ba83a","updateFeeRate(uint256)":"7b84fda5","withdrawFees()":"476343ee"}}}}}