{"contracts/DEXFactoryV2.sol":{"DEXFactoryV2":{"abi":[{"inputs":[{"internalType":"address","name":"_liquidityLocker","type":"address"}],"stateMutability":"nonpayable","type":"constructor"},{"inputs":[],"name":"ApproveFailed","type":"error"},{"inputs":[],"name":"Create2Failed","type":"error"},{"inputs":[],"name":"FeeTooHigh","type":"error"},{"inputs":[],"name":"IdenticalTokens","type":"error"},{"inputs":[],"name":"InvalidAmounts","type":"error"},{"inputs":[],"name":"InvalidDuration","type":"error"},{"inputs":[],"name":"InvalidLocker","type":"error"},{"inputs":[],"name":"InvalidPair","type":"error"},{"inputs":[],"name":"LockFailed","type":"error"},{"inputs":[],"name":"MintFailed","type":"error"},{"inputs":[],"name":"NoLocker","type":"error"},{"inputs":[],"name":"NoLpBalance","type":"error"},{"inputs":[{"internalType":"address","name":"owner","type":"address"}],"name":"OwnableInvalidOwner","type":"error"},{"inputs":[{"internalType":"address","name":"account","type":"address"}],"name":"OwnableUnauthorizedAccount","type":"error"},{"inputs":[],"name":"PairExists","type":"error"},{"inputs":[],"name":"TransferFailed","type":"error"},{"inputs":[],"name":"UnlockFailed","type":"error"},{"inputs":[],"name":"ZeroAddress","type":"error"},{"anonymous":false,"inputs":[{"indexed":false,"internalType":"bool","name":"stopped","type":"bool"},{"indexed":true,"internalType":"address","name":"updater","type":"address"}],"name":"EmergencyStopUpdated","type":"event"},{"anonymous":false,"inputs":[{"indexed":false,"internalType":"uint256","name":"oldFee","type":"uint256"},{"indexed":false,"internalType":"uint256","name":"newFee","type":"uint256"}],"name":"FeeRateUpdated","type":"event"},{"anonymous":false,"inputs":[{"indexed":false,"internalType":"uint256","name":"oldFee","type":"uint256"},{"indexed":false,"internalType":"uint256","name":"newFee","type":"uint256"},{"indexed":true,"internalType":"address","name":"updater","type":"address"}],"name":"FeeUpdated","type":"event"},{"anonymous":false,"inputs":[{"indexed":true,"internalType":"address","name":"pair","type":"address"},{"indexed":true,"internalType":"address","name":"user","type":"address"},{"indexed":false,"internalType":"uint256","name":"amount","type":"uint256"},{"indexed":false,"internalType":"uint256","name":"lockDuration","type":"uint256"}],"name":"InitialLiquidityLocked","type":"event"},{"anonymous":false,"inputs":[{"indexed":true,"internalType":"address","name":"pair","type":"address"},{"indexed":true,"internalType":"address","name":"owner","type":"address"},{"indexed":false,"internalType":"uint256","name":"amount","type":"uint256"},{"indexed":false,"internalType":"uint256","name":"unlockTime","type":"uint256"},{"indexed":false,"internalType":"string","name":"description","type":"string"},{"indexed":false,"internalType":"uint256","name":"lockFee","type":"uint256"}],"name":"LiquidityLocked","type":"event"},{"anonymous":false,"inputs":[{"indexed":true,"internalType":"address","name":"oldLocker","type":"address"},{"indexed":true,"internalType":"address","name":"newLocker","type":"address"}],"name":"LiquidityLockerUpdated","type":"event"},{"anonymous":false,"inputs":[{"indexed":true,"internalType":"address","name":"pair","type":"address"},{"indexed":true,"internalType":"address","name":"owner","type":"address"},{"indexed":false,"internalType":"uint256","name":"amount","type":"uint256"},{"indexed":false,"internalType":"uint256","name":"timestamp","type":"uint256"}],"name":"LiquidityUnlocked","type":"event"},{"anonymous":false,"inputs":[{"indexed":true,"internalType":"address","name":"user","type":"address"},{"indexed":false,"internalType":"uint256","name":"amount","type":"uint256"},{"indexed":false,"internalType":"uint256","name":"timestamp","type":"uint256"}],"name":"LockFeeCollected","type":"event"},{"anonymous":false,"inputs":[{"indexed":false,"internalType":"uint256","name":"oldBasicFee","type":"uint256"},{"indexed":false,"internalType":"uint256","name":"newBasicFee","type":"uint256"},{"indexed":false,"internalType":"uint256","name":"oldPremiumFee","type":"uint256"},{"indexed":false,"internalType":"uint256","name":"newPremiumFee","type":"uint256"}],"name":"LockFeeUpdated","type":"event"},{"anonymous":false,"inputs":[{"indexed":true,"internalType":"address","name":"operator","type":"address"},{"indexed":false,"internalType":"bool","name":"authorized","type":"bool"}],"name":"OperatorAuthorized","type":"event"},{"anonymous":false,"inputs":[{"indexed":true,"internalType":"address","name":"previousOwner","type":"address"},{"indexed":true,"internalType":"address","name":"newOwner","type":"address"}],"name":"OwnershipTransferred","type":"event"},{"anonymous":false,"inputs":[{"indexed":true,"internalType":"address","name":"token0","type":"address"},{"indexed":true,"internalType":"address","name":"token1","type":"address"},{"indexed":false,"internalType":"address","name":"pair","type":"address"},{"indexed":false,"internalType":"uint256","name":"","type":"uint256"}],"name":"PairCreated","type":"event"},{"anonymous":false,"inputs":[{"indexed":true,"internalType":"address","name":"token0","type":"address"},{"indexed":true,"internalType":"address","name":"token1","type":"address"},{"indexed":false,"internalType":"address","name":"pair","type":"address"},{"indexed":false,"internalType":"uint256","name":"allPairsLength","type":"uint256"},{"indexed":false,"internalType":"uint256","name":"timestamp","type":"uint256"},{"components":[{"internalType":"bool","name":"emergencyStop","type":"bool"}],"indexed":false,"internalType":"struct IDEXFactory.PoolSecurityConfig","name":"securityConfig","type":"tuple"}],"name":"PairCreated","type":"event"},{"anonymous":false,"inputs":[{"indexed":false,"internalType":"uint256","name":"oldShare","type":"uint256"},{"indexed":false,"internalType":"uint256","name":"newShare","type":"uint256"}],"name":"PlatformFeeShareUpdated","type":"event"},{"anonymous":false,"inputs":[{"indexed":true,"internalType":"address","name":"pair","type":"address"},{"indexed":false,"internalType":"uint256","name":"amount","type":"uint256"},{"indexed":false,"internalType":"uint256","name":"platformShare","type":"uint256"},{"indexed":false,"internalType":"uint256","name":"timestamp","type":"uint256"}],"name":"TradingFeeCollected","type":"event"},{"inputs":[],"name":"FEE_DENOMINATOR","outputs":[{"internalType":"uint256","name":"","type":"uint256"}],"stateMutability":"view","type":"function"},{"inputs":[],"name":"MAX_FEE_RATE","outputs":[{"internalType":"uint256","name":"","type":"uint256"}],"stateMutability":"view","type":"function"},{"inputs":[{"internalType":"address","name":"","type":"address"},{"internalType":"address","name":"","type":"address"}],"name":"_getPair","outputs":[{"internalType":"address","name":"","type":"address"}],"stateMutability":"view","type":"function"},{"inputs":[{"internalType":"uint256","name":"","type":"uint256"}],"name":"allPairs","outputs":[{"internalType":"address","name":"","type":"address"}],"stateMutability":"view","type":"function"},{"inputs":[],"name":"allPairsLength","outputs":[{"internalType":"uint256","name":"","type":"uint256"}],"stateMutability":"view","type":"function"},{"inputs":[{"internalType":"address","name":"pair","type":"address"},{"internalType":"uint256","name":"amount","type":"uint256"}],"name":"collectTradingFees","outputs":[],"stateMutability":"nonpayable","type":"function"},{"inputs":[{"internalType":"address","name":"tokenA","type":"address"},{"internalType":"address","name":"tokenB","type":"address"}],"name":"createPair","outputs":[{"internalType":"address","name":"pair","type":"address"}],"stateMutability":"nonpayable","type":"function"},{"inputs":[{"internalType":"address","name":"tokenA","type":"address"},{"internalType":"address","name":"tokenB","type":"address"},{"components":[{"internalType":"bool","name":"emergencyStop","type":"bool"}],"internalType":"struct IDEXFactory.PoolSecurityConfig","name":"securityConfig","type":"tuple"}],"name":"createPair","outputs":[{"internalType":"address","name":"pair","type":"address"}],"stateMutability":"nonpayable","type":"function"},{"inputs":[{"internalType":"address","name":"tokenA","type":"address"},{"internalType":"address","name":"tokenB","type":"address"},{"internalType":"uint256","name":"amountA","type":"uint256"},{"internalType":"uint256","name":"amountB","type":"uint256"},{"internalType":"bool","name":"shouldLockLiquidity","type":"bool"},{"internalType":"uint256","name":"lockDuration","type":"uint256"},{"internalType":"string","name":"lockDescription","type":"string"}],"name":"createPairWithLiquidity","outputs":[{"internalType":"address","name":"pair","type":"address"},{"internalType":"uint256","name":"liquidity","type":"uint256"}],"stateMutability":"nonpayable","type":"function"},{"inputs":[{"internalType":"address","name":"tokenA","type":"address"},{"internalType":"address","name":"tokenB","type":"address"},{"internalType":"uint256","name":"amountA","type":"uint256"},{"internalType":"uint256","name":"amountB","type":"uint256"},{"internalType":"bool","name":"shouldLockLiquidity","type":"bool"},{"internalType":"uint256","name":"lockDuration","type":"uint256"},{"internalType":"string","name":"lockDescription","type":"string"},{"internalType":"uint256","name":"deadlineA","type":"uint256"},{"internalType":"uint8","name":"vA","type":"uint8"},{"internalType":"bytes32","name":"rA","type":"bytes32"},{"internalType":"bytes32","name":"sA","type":"bytes32"},{"internalType":"uint256","name":"deadlineB","type":"uint256"},{"internalType":"uint8","name":"vB","type":"uint8"},{"internalType":"bytes32","name":"rB","type":"bytes32"},{"internalType":"bytes32","name":"sB","type":"bytes32"}],"name":"createPairWithLiquidityPermit","outputs":[{"internalType":"address","name":"pair","type":"address"},{"internalType":"uint256","name":"liquidity","type":"uint256"}],"stateMutability":"nonpayable","type":"function"},{"inputs":[],"name":"feeDenominator","outputs":[{"internalType":"uint256","name":"","type":"uint256"}],"stateMutability":"pure","type":"function"},{"inputs":[],"name":"feeRate","outputs":[{"internalType":"uint256","name":"","type":"uint256"}],"stateMutability":"view","type":"function"},{"inputs":[],"name":"getFeeDenominator","outputs":[{"internalType":"uint256","name":"","type":"uint256"}],"stateMutability":"pure","type":"function"},{"inputs":[],"name":"getFeeRate","outputs":[{"internalType":"uint256","name":"","type":"uint256"}],"stateMutability":"view","type":"function"},{"inputs":[{"internalType":"address","name":"tokenA","type":"address"},{"internalType":"address","name":"tokenB","type":"address"}],"name":"getPair","outputs":[{"internalType":"address","name":"pair","type":"address"}],"stateMutability":"view","type":"function"},{"inputs":[{"internalType":"address","name":"tokenA","type":"address"},{"internalType":"address","name":"tokenB","type":"address"}],"name":"getPairAddress","outputs":[{"internalType":"address","name":"","type":"address"}],"stateMutability":"view","type":"function"},{"inputs":[],"name":"liquidityLocker","outputs":[{"internalType":"address","name":"","type":"address"}],"stateMutability":"view","type":"function"},{"inputs":[{"internalType":"address","name":"pair","type":"address"},{"internalType":"address","name":"user","type":"address"},{"internalType":"uint256","name":"lockDuration","type":"uint256"},{"internalType":"string","name":"description","type":"string"}],"name":"lockInitialLiquidity","outputs":[],"stateMutability":"nonpayable","type":"function"},{"inputs":[{"internalType":"address","name":"pair","type":"address"},{"internalType":"address","name":"user","type":"address"},{"internalType":"uint256","name":"amount","type":"uint256"},{"internalType":"uint256","name":"lockDuration","type":"uint256"},{"internalType":"string","name":"description","type":"string"},{"internalType":"uint256","name":"lockFee","type":"uint256"}],"name":"lockLiquidity","outputs":[],"stateMutability":"nonpayable","type":"function"},{"inputs":[{"internalType":"address","name":"pair","type":"address"},{"internalType":"uint256","name":"amount","type":"uint256"},{"internalType":"uint256","name":"lockDuration","type":"uint256"},{"internalType":"string","name":"description","type":"string"}],"name":"lockLiquidity","outputs":[],"stateMutability":"payable","type":"function"},{"inputs":[],"name":"owner","outputs":[{"internalType":"address","name":"","type":"address"}],"stateMutability":"view","type":"function"},{"inputs":[],"name":"pause","outputs":[],"stateMutability":"nonpayable","type":"function"},{"inputs":[],"name":"renounceOwnership","outputs":[],"stateMutability":"nonpayable","type":"function"},{"inputs":[{"internalType":"address","name":"operator","type":"address"},{"internalType":"bool","name":"authorized","type":"bool"}],"name":"setAuthorizedOperator","outputs":[],"stateMutability":"nonpayable","type":"function"},{"inputs":[{"internalType":"bool","name":"stopped","type":"bool"}],"name":"setEmergencyStop","outputs":[],"stateMutability":"nonpayable","type":"function"},{"inputs":[{"internalType":"uint256","name":"newFeeRate","type":"uint256"}],"name":"setFeeRate","outputs":[],"stateMutability":"nonpayable","type":"function"},{"inputs":[{"internalType":"address","name":"_liquidityLocker","type":"address"}],"name":"setLiquidityLocker","outputs":[],"stateMutability":"nonpayable","type":"function"},{"inputs":[],"name":"totalPairsCreated","outputs":[{"internalType":"uint256","name":"","type":"uint256"}],"stateMutability":"view","type":"function"},{"inputs":[{"internalType":"address","name":"newOwner","type":"address"}],"name":"transferOwnership","outputs":[],"stateMutability":"nonpayable","type":"function"},{"inputs":[{"internalType":"address","name":"pair","type":"address"},{"internalType":"uint256","name":"lockIndex","type":"uint256"},{"internalType":"address","name":"user","type":"address"}],"name":"unlockLiquidity","outputs":[],"stateMutability":"nonpayable","type":"function"},{"inputs":[{"internalType":"address","name":"pair","type":"address"},{"internalType":"uint256","name":"lockIndex","type":"uint256"}],"name":"unlockLiquidity","outputs":[],"stateMutability":"nonpayable","type":"function"},{"inputs":[],"name":"unpause","outputs":[],"stateMutability":"nonpayable","type":"function"},{"inputs":[{"internalType":"uint256","name":"newFeeRate","type":"uint256"}],"name":"updateFeeRate","outputs":[],"stateMutability":"nonpayable","type":"function"},{"inputs":[],"name":"withdrawFees","outputs":[],"stateMutability":"nonpayable","type":"function"}],"evm":{"bytecode":{"linkReferences":{},"object":"60806040523462000030576200001e62000018620000d3565b620001a9565b604051615e29620002ea8239615e2990f35b600080fd5b634e487b7160e01b600052604160045260246000fd5b90601f01601f191681019081106001600160401b038211176200006d57604052565b62000035565b906200008a6200008260405190565b92836200004b565b565b6001600160a01b031690565b90565b6001600160a01b038116036200003057565b905051906200008a826200009b565b9060208282031262000030576200009891620000ad565b620000986200611380380380620000ea8162000073565b928339810190620000bc565b90600019905b9181191691161790565b6200009862000098620000989290565b906200012a62000098620001329262000106565b8254620000f6565b9055565b6200008c62000098620000989290565b620000989062000136565b906001600160a01b0390620000fc565b62000098906200008c906001600160a01b031682565b620000989062000161565b620000989062000177565b90620001a162000098620001329262000182565b825462000151565b620001b43362000218565b620001c2601e600562000116565b620001d26200008c600062000146565b6001600160a01b03821614620001ef576200008a9060046200018d565b60405163ab54b81360e01b8152600490fd5b0390fd5b6001600160a01b03909116815260200190565b62000224600062000146565b6001600160a01b0381166001600160a01b038316146200024a57506200008a9062000287565b62000201906200025960405190565b631e4fbdf760e01b81529182916004830162000205565b62000098906200008c565b62000098905462000270565b6200029360006200027b565b90620002a18160006200018d565b620002d8620002d17f8be0079c531659141344cd1fd0a4f28419497f9722a3daafe3b4186f6b6457e09362000182565b9162000182565b91620002e360405190565b600090a356fe608060405260043610156200001357600080fd5b60003560e01c806308dfe05f1462000258578063180b0d7e14620001b65780631e3dd18b14620002525780633f4ba83a146200021657806344e5550f146200024c57806345596e2e1462000246578063476343ee14620002165780634bfc2e0b1462000240578063573044e3146200023a578063574f2ba314620002345780636d49dfc3146200022e578063715018a61462000228578063788f737d14620002225780637b84fda5146200021c5780638456cb59146200021657806384e5eed014620002105780638da5cb5b146200020a57806390c833f4146200020457806392f6576e14620001fe5780639759164a14620001f8578063978bbdb914620001f2578063a293e03c14620001ec578063ac44962914620001e6578063b2094a1014620001e0578063b4f69a2f14620001c2578063be8796c114620001da578063c73d7c7b14620001d4578063c9c6539614620001ce578063ce3b527314620001c8578063d73792a914620001b6578063e6a4390514620001c2578063f2fde38b14620001bc578063f4e1fc4114620001b65763ff255efb036200029a5762000dab565b620005bf565b62000d80565b62000c79565b62000d47565b62000cdf565b62000ccc565b62000c9b565b62000c5c565b62000c21565b62000b80565b62000b37565b62000aef565b62000ac0565b62000a77565b620009b3565b62000992565b62000708565b62000975565b6200095b565b62000916565b620008f5565b6200087a565b6200085c565b6200080b565b620007c6565b6200079d565b620006c0565b62000566565b73ffffffffffffffffffffffffffffffffffffffff1690565b90565b73ffffffffffffffffffffffffffffffffffffffff81165b036200029a57565b600080fd5b90503590620002ae826200027a565b565b8062000292565b90503590620002ae82620002b0565b80151562000292565b90503590620002ae82620002c6565b7f4e487b7100000000000000000000000000000000000000000000000000000000600052604160045260246000fd5b90601f017fffffffffffffffffffffffffffffffffffffffffffffffffffffffffffffffe016810190811067ffffffffffffffff8211176200034e57604052565b620002de565b90620002ae6200036360405190565b92836200030d565b67ffffffffffffffff81116200034e57602090601f017fffffffffffffffffffffffffffffffffffffffffffffffffffffffffffffffe0160190565b0190565b90826000939282370152565b90929192620003d0620003ca826200036b565b62000354565b938185526020850190828401116200029a57620002ae92620003ab565b9080601f830112156200029a578160206200027793359101620003b7565b60ff811662000292565b90503590620002ae826200040b565b90916101e0828403126200029a576200043e83836200029f565b926200044e81602085016200029f565b926200045e8260408301620002b7565b926200046e8360608401620002b7565b926200047e8160808501620002cf565b926200048e8260a08301620002b7565b9260c082013567ffffffffffffffff81116200029a5783620004b2918401620003ed565b92620004c28160e08501620002b7565b92620004d382610100830162000415565b92620004e4836101208401620002b7565b92620004f5816101408501620002b7565b9262000506826101608301620002b7565b92620002776200051b84610180850162000415565b936200052c816101a08601620002b7565b936101c001620002b7565b9052565b73ffffffffffffffffffffffffffffffffffffffff9091168152604081019291620002ae9160200152565b346200029a57620005966200057d36600462000424565b9d9c909c9b919b9a929a99939998949897959762001e0c565b90620005af620005a560405190565b928392836200053b565b0390f35b60009103126200029a57565b346200029a57620005d2366004620005b3565b620005af620005e062000d76565b6040519182918290815260200190565b906020828203126200029a576200027791620002b7565b7f4e487b7100000000000000000000000000000000000000000000000000000000600052603260045260246000fd5b80548210156200065b5762000652600191600052602060002090565b91020190600090565b62000607565b62000277916008021c73ffffffffffffffffffffffffffffffffffffffff1690565b9062000277915462000661565b600260006200069d825490565b831015620006bd57506200027791620006b69162000636565b9062000683565b80fd5b346200029a57620005af620006e1620006db366004620005f0565b62000690565b6040519182918273ffffffffffffffffffffffffffffffffffffffff909116815260200190565b346200029a576200071b366004620005b3565b62002933565b909160c0828403126200029a576200073a83836200029f565b926200074a81602085016200029f565b926200075a8260408301620002b7565b926200076a8360608401620002b7565b9260808301359067ffffffffffffffff82116200029a57620007938162000277938601620003ed565b9360a001620002b7565b346200029a57620007c1620007b436600462000721565b949390939291926200233d565b604051005b346200029a57620007c1620007dd366004620005f0565b6200288e565b91906040838203126200029a5762000277906200080181856200029f565b93602001620002b7565b346200029a576200081e366004620007e3565b90620028d4565b90916060828403126200029a57620002776200084284846200029f565b93620008528160208601620002b7565b936040016200029f565b346200029a57620007c16200087336600462000825565b91620026ba565b346200029a576200088d366004620005b3565b620005af620005e060025490565b906080828203126200029a57620008b381836200029f565b92620008c382602085016200029f565b92620008d38360408301620002b7565b92606082013567ffffffffffffffff81116200029a57620002779201620003ed565b346200029a57620007c16200090c3660046200089b565b929190916200247e565b346200029a5762000929366004620005b3565b620007c162000e34565b91906040838203126200029a5762000277906200095181856200029f565b93602001620002cf565b346200029a576200096e36600462000933565b9062002933565b346200029a57620007c16200098c366004620005f0565b620028bf565b346200029a57620009a5366004620005b3565b620005af620005e062002899565b346200029a57620009c6366004620005b3565b620005af620006e162000de3565b91906040838203126200029a576200027790620009f281856200029f565b936020016200029f565b6200025e62000277620002779273ffffffffffffffffffffffffffffffffffffffff1690565b6200027790620009fc565b620002779062000a22565b9062000a449062000a2d565b600052602052604060002090565b62000a71620002779262000a6b60019360009462000a38565b62000a38565b62000683565b346200029a57620005af620006e162000a92366004620009d4565b9062000a52565b6200027762000277620002779290565b620002776103e862000a99565b6200027762000aa9565b346200029a5762000ad3366004620005b3565b620005af620005e062000ab6565b620002776000600462000683565b346200029a5762000b02366004620005b3565b620005af620006e162000ae1565b62000277916008021c81565b9062000277915462000b10565b620002776000600562000b1c565b346200029a5762000b4a366004620005b3565b620005af620005e062000b29565b906080828203126200029a5762000b7081836200029f565b92620008c38260208501620002b7565b62000b8d36600462000b58565b92919091620029d8565b9060e0828203126200029a5762000baf81836200029f565b9262000bbf82602085016200029f565b9262000bcf8360408301620002b7565b9262000bdf8160608401620002b7565b9262000bef8260808501620002cf565b9262000bff8360a08301620002b7565b9260c082013567ffffffffffffffff81116200029a57620002779201620003ed565b346200029a576200059662000c3836600462000b97565b9594909493919362001641565b906020828203126200029a5762000277916200029f565b346200029a57620007c162000c7336600462000c45565b620027e5565b346200029a57620005af620006e162000c94366004620009d4565b90620022e4565b346200029a5762000cae366004620007e3565b9062002a37565b906020828203126200029a576200027791620002cf565b346200029a576200071b36600462000cb5565b346200029a57620005af620006e162000cfa366004620009d4565b9062001035565b908160209103126200029a5790565b90916060828403126200029a576200027762000d2d84846200029f565b9362000d3d81602086016200029f565b9360400162000d01565b346200029a57620005af620006e162000d6236600462000d10565b916200295f565b6200027761271062000a99565b6200027762000d69565b346200029a57620007c162000d9736600462000c45565b62000f84565b620002776000600362000b1c565b346200029a5762000dbe366004620005b3565b620005af620005e062000d9d565b62000277906200025e565b62000277905462000dcc565b62000277600062000dd7565b62000df962000e3e565b620002ae62000e1e565b6200025e62000277620002779290565b620002779062000e03565b620002ae62000e2e600062000e13565b62000fd1565b620002ae62000def565b62000e4862000de3565b339062000e6a825b9173ffffffffffffffffffffffffffffffffffffffff1690565b0362000e735750565b62000ecc9062000e8260405190565b9182917f118cdaa70000000000000000000000000000000000000000000000000000000083526004830173ffffffffffffffffffffffffffffffffffffffff909116815260200190565b0390fd5b620002ae9062000edf62000e3e565b62000eeb600062000e13565b73ffffffffffffffffffffffffffffffffffffffff811673ffffffffffffffffffffffffffffffffffffffff83161462000f2b5750620002ae9062000fd1565b62000ecc9062000f3a60405190565b9182917f1e4fbdf70000000000000000000000000000000000000000000000000000000083526004830173ffffffffffffffffffffffffffffffffffffffff909116815260200190565b620002ae9062000ed0565b9073ffffffffffffffffffffffffffffffffffffffff905b9181191691161790565b9062000fc56200027762000fcd9262000a2d565b825462000f8f565b9055565b62000fdd600062000dd7565b9062000feb81600062000fb1565b620010226200101b7f8be0079c531659141344cd1fd0a4f28419497f9722a3daafe3b4186f6b6457e09362000a2d565b9162000a2d565b916200102d60405190565b80805b0390a3565b6200027791906200120c565b620005379073ffffffffffffffffffffffffffffffffffffffff1660601b90565b60148162001077620003a79383969562001041565b01809262001041565b73ffffffffffffffffffffffffffffffffffffffff9091168152604081019291620002ae916020905b019073ffffffffffffffffffffffffffffffffffffffff169052565b6040513d6000823e3d90fd5b9190600862000fa7910291620010fa73ffffffffffffffffffffffffffffffffffffffff841b90565b921b90565b9190620011146200027762000fcd9362000a2d565b908354620010d1565b90815491680100000000000000008310156200034e578262001149916001620002ae9501815562000636565b90620010ff565b620002779081565b62000277905462001150565b7f4e487b7100000000000000000000000000000000000000000000000000000000600052601160045260246000fd5b7fffffffffffffffffffffffffffffffffffffffffffffffffffffffffffffffff8114620011c15760010190565b62001164565b907fffffffffffffffffffffffffffffffffffffffffffffffffffffffffffffffff9062000fa7565b90620012046200027762000fcd9262000a99565b8254620011c7565b919073ffffffffffffffffffffffffffffffffffffffff811673ffffffffffffffffffffffffffffffffffffffff841614620015be5760006200124f8162000e13565b9373ffffffffffffffffffffffffffffffffffffffff851673ffffffffffffffffffffffffffffffffffffffff821614801562001588575b6200155d5773ffffffffffffffffffffffffffffffffffffffff831673ffffffffffffffffffffffffffffffffffffffff82161015620015565791905b600190620012e2620012dc8462000a6b878662000a38565b62000dd7565b6200130373ffffffffffffffffffffffffffffffffffffffff881662000e50565b036200152b57620013896133376200131e6020820162000354565b9080825262002abd602083013960405162001351816020810162001344898b8362001062565b908103825203826200030d565b620013656200135e825190565b9160200190565b209060208151910184f59673ffffffffffffffffffffffffffffffffffffffff1690565b73ffffffffffffffffffffffffffffffffffffffff8716146200150057620013bb620013b58762000a2d565b62000a2d565b9163485cc95592803b156200029a57620013e4938391620013db60405190565b95869260e01b90565b8252818381620013f98a8c6004840162001080565b03925af1918215620014fa5762000a6b85620014369388936200143c978c97620014c6575b505062000a6b86620014368462000a6b888662000a38565b62000fb1565b6200147460026200144e86826200111d565b620014706200146862001462600362001158565b62001193565b6003620011f0565b5490565b9162001030620014b0620014a97f0d3648bd0f6ba80134a33ba9275ac585d9d315f0ad8355cddefde31afa28d0e99362000a2d565b9362000a2d565b93620014bb60405190565b91829188836200053b565b81620014ea92903d10620014f2575b620014e181836200030d565b810190620005b3565b38806200141e565b503d620014d5565b620010c5565b6040517f04a5b3ee000000000000000000000000000000000000000000000000000000008152600490fd5b6040517f3d77e891000000000000000000000000000000000000000000000000000000008152600490fd5b90620012c4565b6040517fd92e233d000000000000000000000000000000000000000000000000000000008152600490fd5b5073ffffffffffffffffffffffffffffffffffffffff851673ffffffffffffffffffffffffffffffffffffffff84161462001287565b6040517f5c6d7b73000000000000000000000000000000000000000000000000000000008152600490fd5b90505190620002ae82620002c6565b906020828203126200029a576200027791620015e9565b73ffffffffffffffffffffffffffffffffffffffff918216815291166020820152606081019291620002ae9160400152565b9695929492939073ffffffffffffffffffffffffffffffffffffffff811673ffffffffffffffffffffffffffffffffffffffff891614620015be576000620016898162000e13565b73ffffffffffffffffffffffffffffffffffffffff811673ffffffffffffffffffffffffffffffffffffffff8b161490811562001877575b506200155d57620016d28162000a99565b8414801562001863575b6200183857620016ed828a6200120c565b96620016fe620013b5899b62000a2d565b946200173860206323b872dd9233988c878b6200171a60405190565b968795869485936200172c8c60e01b90565b8552600485016200160f565b03925af18015620014fa5762001755916000916200180657501590565b620017db576200178c60209362001774620013b56200179a9762000a2d565b926200177f60405190565b9687958694859360e01b90565b83528d8b600485016200160f565b03925af18015620014fa57620017b7916000916200180657501590565b620017db5715620017cd57620002779362001b2b565b9150506200027791620018d4565b6040517f90b8ec18000000000000000000000000000000000000000000000000000000008152600490fd5b6200182c915060203d811162001830575b6200182381836200030d565b810190620015f8565b1590565b503d62001817565b6040517fd856fc5a000000000000000000000000000000000000000000000000000000008152600490fd5b506200186f8162000a99565b8714620016dc565b73ffffffffffffffffffffffffffffffffffffffff16905073ffffffffffffffffffffffffffffffffffffffff83161438620016c1565b90505190620002ae82620002b0565b906020828203126200029a576200027791620018ae565b6200193b9291620018f5620013b5602093620018ee600090565b5062000a2d565b620019176000636a6278426200190a60405190565b9788958694859360e01b90565b835273ffffffffffffffffffffffffffffffffffffffff1660048301526024820190565b03925af1918215620014fa5760009262001999575b50816200196662001962600062000a99565b9190565b146200196e57565b6040517f07637bd8000000000000000000000000000000000000000000000000000000008152600490fd5b620019c091925060203d8111620019c8575b620019b781836200030d565b810190620018bd565b903862001950565b503d620019ab565b81810292918115918404141715620011c157565b7f4e487b7100000000000000000000000000000000000000000000000000000000600052601260045260246000fd5b811562001a1e570490565b620019e4565b91908203918211620011c157565b60005b83811062001a465750506000910152565b818101518382015260200162001a35565b62001a7c62001a86602093620003a79362001a70815190565b80835293849260200190565b9586910162001a32565b601f017fffffffffffffffffffffffffffffffffffffffffffffffffffffffffffffffe01690565b9695939462001b04620002ae9662001afd60a09662001af662001b129760208e620010a960c082019a600083019073ffffffffffffffffffffffffffffffffffffffff169052565b60408c0152565b60608a0152565b878203608089015262001a57565b940152565b908152604081019291620002ae9160200152565b92939262001b3a600462000dd7565b9260009362001b5162000e506200025e8762000e13565b1462001dd55762001b628462000a99565b811462001daa5762001bad93602062001b7f620013b58562000a2d565b636a62784290620019178462001b953062000a2d565b9362001ba060405190565b9a8b958694859360e01b90565b03925af1948515620014fa5760009562001d85575b50849662001bd08262000a99565b86146200196e5762001c1262001c0a62001bf662001bef600a62000a99565b89620019d0565b62001c0361271062000a99565b9062001a13565b809762001a24565b9586602062001c25620013b58862000a2d565b63095ea7b39062001c588762001c3c600462000dd7565b9362001c6462001c4b60405190565b9788968795869460e01b90565b8452600484016200053b565b03925af18015620014fa5762001c81916000916200180657501590565b62001d5a5762001c9a620013b5620013b5600462000dd7565b6344e5550f90803b156200029a5762001cd085889362001cdc82968c988b8f62001cc360405190565b9b8c9a8b998a9860e01b90565b88526004880162001aae565b03925af18015620014fa5762001d38575b505062001d1f620014a97f1888a9947a0ba12fbcaea833c7145e4ae63c88020edc424d7eda6753fc3411e09362000a2d565b936200103062001d2e60405190565b9283928362001b17565b8162001d5292903d10620014f257620014e181836200030d565b388062001ced565b6040517f3e3f8f73000000000000000000000000000000000000000000000000000000008152600490fd5b62001da291955060203d8111620019c857620019b781836200030d565b933862001bc2565b6040517f76166401000000000000000000000000000000000000000000000000000000008152600490fd5b6040517f05185ab0000000000000000000000000000000000000000000000000000000008152600490fd5b62000277608062000354565b9d949991969b92979c939890959a9c62001e24600090565b5062001e2f62001e00565b9c8d5260ff1660208d015260408c015260608b015262001e4e62001e00565b9a8b5260ff1660208b015260408a0152606089015262001e6e9862001eda565b9091565b949290979695939160e08601986000870162001ea29173ffffffffffffffffffffffffffffffffffffffff169052565b73ffffffffffffffffffffffffffffffffffffffff1660208601526040850152606084015260ff16608083015260a082015260c00152565b909193929897969862001eeb600090565b5073ffffffffffffffffffffffffffffffffffffffff831673ffffffffffffffffffffffffffffffffffffffff831614620015be5760009162001f2e8362000e13565b73ffffffffffffffffffffffffffffffffffffffff811673ffffffffffffffffffffffffffffffffffffffff831614908115620022ad575b506200155d5762001f778362000a99565b8614801562002299575b620018385762001f9284826200120c565b98899b8481019062001fa2825190565b62001fb1620019628862000a99565b1162002168575b50508381019062001fc7825190565b62001fd6620019628762000a99565b1162001fee575b5050620013b5620016fe9162000a2d565b62001ffd620013b58762000a2d565b63d505accf90339262002019620020143062000a2d565b955190565b9162002029602083015160ff1690565b916200204260606200203c604084015190565b92015190565b92823b156200029a57879562002081889562002075948e989489958f6200206860405190565b9c8d9b8c9a8b9960e01b90565b89526004890162001e72565b03925af1908162002147575b506200213657620020ac565b5050620013b5620016fe915b9162001fdd565b602090620020be620013b58862000a2d565b620020e263dd62ed3e620020ee620020d560405190565b9687958694859460e01b90565b84526004840162001080565b03915afa908115620014fa5760009162002113575b508211620017db57388062002099565b6200212f915060203d8111620019c857620019b781836200030d565b3862002103565b5050620013b5620016fe91620020a5565b6200216190873d8911620014f257620014e181836200030d565b386200208d565b62002177620013b58562000a2d565b63d505accf9033926200218e620020143062000a2d565b916200219e602083015160ff1690565b620021b66060620021b0604086015190565b94015190565b93823b156200029a5787958f8d96899662002075958995620021dc946200206860405190565b03925af1908162002278575b506200227057620021ff565b50505b388062001fb8565b60209062002211620013b58662000a2d565b620020e263dd62ed3e62002228620020d560405190565b03915afa908115620014fa576000916200224d575b508711620017db573880620021f4565b62002269915060203d8111620019c857620019b781836200030d565b386200223d565b5050620021f7565b6200229290883d8a11620014f257620014e181836200030d565b38620021e8565b50620022a58362000a99565b821462001f81565b73ffffffffffffffffffffffffffffffffffffffff16905073ffffffffffffffffffffffffffffffffffffffff8516143862001f66565b6200027791620012dc9173ffffffffffffffffffffffffffffffffffffffff821673ffffffffffffffffffffffffffffffffffffffff82161015620023315762000a6b905b600162000a38565b9062000a6b9062002329565b9190939492946200234f600462000dd7565b956000966200236662000e506200025e8a62000e13565b1462001dd5576200237b620013b58562000a2d565b3360206200172c6323b872dd620023a588620023973062000a2d565b604051968795869560e01b90565b03818c865af18015620014fa57620023c4916000916200180657501590565b620017db576020849163095ea7b39062001c588b620023e4600462000dd7565b93620023f362001c4b60405190565b03925af18015620014fa5762002410916000916200180657501590565b62001d5a5762002429620013b5620013b5600462000dd7565b926344e5550f90843b156200029a57889662001cd0948894620024509362001cc360405190565b03925af18015620014fa5762002464575050565b81620002ae92903d10620014f257620014e181836200030d565b90916200248c600462000dd7565b6000906200249a8262000e13565b90620024bc73ffffffffffffffffffffffffffffffffffffffff831662000e50565b1462001dd55773ffffffffffffffffffffffffffffffffffffffff1673ffffffffffffffffffffffffffffffffffffffff841614620026595762002504620013b58462000a2d565b946370a0823195620025206200251960405190565b9760e01b90565b875273ffffffffffffffffffffffffffffffffffffffff86166004880152602087602481845afa968715620014fa5760009762002634575b50620025648362000a99565b871462002609576200257f62001bf662001bef600a62000a99565b906200258c828962001a24565b976020620025bd6323b872dd620025ca620025a73062000a2d565b94620025b260405190565b958694859460e01b90565b84528d600485016200160f565b038188865af18015620014fa57620025e9916000916200180657501590565b620017db576020889163095ea7b39062001c588762001c3c600462000dd7565b6040517f962e4bcb000000000000000000000000000000000000000000000000000000008152600490fd5b6200265191975060203d8111620019c857620019b781836200030d565b953862002558565b6040517f1e4f7d8c000000000000000000000000000000000000000000000000000000008152600490fd5b73ffffffffffffffffffffffffffffffffffffffff9091168152606081019392620002ae929091604091620010a9906020830152565b91620026c7600462000dd7565b92600093620026de62000e506200025e8762000e13565b1462001dd557620026f8620013b5620013b5600462000dd7565b63573044e3813b156200029a578562002728916200245082966200271b60405190565b9889978896879560e01b90565b85526004850162002684565b620002ae906200274362000e3e565b620027536200025e600062000e13565b73ffffffffffffffffffffffffffffffffffffffff821614620027ba576200277c600462000dd7565b906200278a81600462000fb1565b620010226200101b7f98816c25fdd38fe4567b76858ce644a62161b5272648b051b397055a725068929362000a2d565b6040517fab54b813000000000000000000000000000000000000000000000000000000008152600490fd5b620002ae9062002734565b620002ae90620027ff62000e3e565b6200280d6200027762000aa9565b8111620028635762002820600562001158565b906200282e816005620011f0565b7f14914da2bf76024616fbe1859783fcd4dbddcb179b1f3a854949fbf920dcb957916200285e62001d2e60405190565b0390a1565b6040517fcd4e6167000000000000000000000000000000000000000000000000000000008152600490fd5b620002ae90620027f0565b62000277600562001158565b620002ae90620028b462000e3e565b620002ae906200288e565b620002ae90620028a5565b620028d462000e3e565b6040517f08c379a000000000000000000000000000000000000000000000000000000000815260206004820152600f60248201527f4e4f545f494d504c454d454e54454400000000000000000000000000000000006044820152606490fd5b620028ca565b90505190620002ae826200027a565b906020828203126200029a57620002779162002939565b60209192506200296d600090565b50620029793062000a2d565b620020e2600063c9c653966200299262001c4b60405190565b03925af1908115620014fa57600091620029aa575090565b62000277915060203d8111620029d0575b620029c781836200030d565b81019062002948565b503d620029bb565b6040517f08c379a000000000000000000000000000000000000000000000000000000000815260206004820152601f60248201527f557365206e6577206c6f636b4c6971756964697479207369676e6174757265006044820152606490fd5b6040517f08c379a000000000000000000000000000000000000000000000000000000000815260206004820152602160248201527f557365206e657720756e6c6f636b4c6971756964697479207369676e6174757260448201527f65000000000000000000000000000000000000000000000000000000000000006064820152608490fdfe6080604052346200002657620000146200009b565b60405161321b6200011c823961321b90f35b600080fd5b906001600160a01b03905b9181191691161790565b620000569062000059906001600160a01b031682565b90565b6001600160a01b031690565b620000569062000040565b620000569062000065565b906200008f62000056620000979262000070565b82546200002b565b9055565b620000a5620000b4565b620000b23360046200007b565b565b620000b2620000b262000105565b6200005662000056620000569290565b620000566001620000c2565b906000199062000036565b90620000fd620000566200009792620000c2565b8254620000de565b620000b262000113620000d2565b6000620000e956fe6080604052600436101561001257600080fd5b60003560e01c8063022c0d9f1461023257806306fdde031461022d5780630902f1ac14610228578063095ea7b3146102235780630dfe16811461021e57806318160ddd1461021957806323b872dd1461021457806330adf81f1461020f578063313ce5671461020a5780633566414c146102055780633644e515146102005780633f4ba83a146101fb578063485cc955146101f65780635909c0d5146101f15780635a3d5493146101ec5780635c975abb146101e75780636a627842146101e257806370a08231146101dd5780637174b568146101d85780637464fc3d146101d35780637ecebe00146101ce578063820d25a8146101c95780638456cb59146101c457806389afcb44146101bf57806395d89b41146101ba578063a9059cbb146101b5578063ba9a7a56146101b0578063bc25cf77146101ab578063be11b1d0146101a6578063c45a0155146101a1578063d21220a71461019c578063d505accf14610197578063dd62ed3e146101925763fff6cae90361024057610b11565b610af5565b610abc565b610a25565b6109fe565b6109d7565b6109a2565b610987565b61094b565b610930565b610902565b6108d3565b6108ba565b610861565b610834565b610819565b6107ec565b61077b565b61074c565b610731565b61070a565b6106e5565b6106aa565b61068f565b610674565b6105f0565b6105b7565b61059b565b61053f565b6104da565b610475565b610402565b6103d7565b61031d565b805b0361024057565b600080fd5b9050359061025282610237565b565b73ffffffffffffffffffffffffffffffffffffffff1690565b90565b73ffffffffffffffffffffffffffffffffffffffff8116610239565b9050359061025282610270565b909182601f830112156102405781359167ffffffffffffffff831161024057602001926001830284011161024057565b90608082820312610240576102de8183610245565b926102ec8260208501610245565b926102fa836040830161028c565b92606082013567ffffffffffffffff8111610240576103199201610299565b9091565b34610240576103396103303660046102c9565b939290926126c9565b604051005b0390f35b600091031261024057565b60005b8381106103605750506000910152565b8181015183820152602001610350565b61039161039a6020936103c293610385815190565b80835293849260200190565b9586910161034d565b601f017fffffffffffffffffffffffffffffffffffffffffffffffffffffffffffffffe01690565b0190565b602080825261026d92910190610370565b34610240576103e7366004610342565b61033e6103f2612ae0565b604051918291826103c6565b9052565b3461024057610412366004610342565b61033e61041d611038565b604080516dffffffffffffffffffffffffffff948516815293909216602084015263ffffffff16908201529081906060820190565b91906040838203126102405761026d9061046c818561028c565b93602001610245565b346102405761033e61049161048b366004610452565b90612930565b60405191829182901515815260200190565b61026d916008021c73ffffffffffffffffffffffffffffffffffffffff1690565b9061026d91546104a3565b61026d6001806104c4565b34610240576104ea366004610342565b61033e6104f56104cf565b6040515b9182918273ffffffffffffffffffffffffffffffffffffffff909116815260200190565b61026d916008021c81565b9061026d915461051d565b61026d60006008610528565b346102405761054f366004610342565b61033e61055a610533565b6040515b9182918290815260200190565b90916060828403126102405761026d610584848461028c565b93610592816020860161028c565b93604001610245565b346102405761033e6104916105b136600461056b565b916129f2565b34610240576105c7366004610342565b61033e7f6e71edae12b1b97f4d1f60370fef10105fa2faae0126114a169c64845d6126c961055a565b3461024057610600366004610342565b61033e61060b612b38565b6040519182918260ff909116815260200190565b906020828203126102405761026d91610245565b905b600052602052604060002090565b61026d916008021c5b60ff1690565b9061026d9154610643565b61026d9061066f600b91600092610633565b610652565b346102405761033e61049161068a36600461061f565b61065d565b346102405761069f366004610342565b61033e61055a612b42565b34610240576106ba366004610342565b610339610cd0565b91906040838203126102405761026d906106dc818561028c565b9360200161028c565b34610240576103396106f83660046106c2565b90610df8565b61026d60006005610528565b346102405761071a366004610342565b61033e61055a6106fe565b61026d60006006610528565b3461024057610741366004610342565b61033e61055a610725565b346102405761075c366004610342565b61033e610491610b29565b906020828203126102405761026d9161028c565b346102405761033e61055a610791366004610767565b6116bc565b61025461026d61026d9273ffffffffffffffffffffffffffffffffffffffff1690565b61026d90610796565b61026d906107b9565b90610635906107c2565b61026d906107e76007916000926107cb565b610528565b346102405761033e61055a610802366004610767565b6107d5565b61026d906107e7600a91600092610633565b346102405761033e61055a61082f36600461061f565b610807565b3461024057610844366004610342565b61033e61055a6130bc565b61026d906107e7600d916000926107cb565b346102405761033e61055a610877366004610767565b61084f565b908160209103126102405790565b90916060828403126102405761026d6108a3848461028c565b936108b1816020860161028c565b9360400161087c565b34610240576103396108cd36600461088a565b9161102d565b34610240576108e3366004610342565b610339610bef565b9081526040810192916102529160200152565b0152565b346102405761091a610915366004610767565b611e9f565b9061033e61092760405190565b928392836108eb565b3461024057610940366004610342565b61033e6103f2612b23565b346102405761033e610491610961366004610452565b90612991565b61026d61026d61026d9290565b61026d6103e8610967565b61026d610974565b3461024057610997366004610342565b61033e61055a61097f565b34610240576103396109b5366004610767565b612f86565b61026d9061064c565b61026d90546109ba565b61026d60096109c3565b34610240576109e7366004610342565b61033e6104916109cd565b61026d600060046104c4565b3461024057610a0e366004610342565b61033e6104f56109f2565b61026d600060026104c4565b3461024057610a35366004610342565b61033e6104f5610a19565b60ff8116610239565b9050359061025282610a40565b60e08183031261024057610a6a828261028c565b92610a78836020840161028c565b92610a868160408501610245565b92610a948260608301610245565b9261026d610aa58460808501610a49565b93610ab38160a08601610245565b9360c001610245565b3461024057610339610acf366004610a56565b95949094939193612e3e565b6107e761026d92610af0600c936000946107cb565b6107cb565b346102405761033e61055a610b0b3660046106c2565b90610adb565b3461024057610b21366004610342565b6103396127b5565b61026d60016109c3565b61026d90610254565b61026d9054610b33565b15610b4d57565b6040517f08c379a000000000000000000000000000000000000000000000000000000000815260206004820152601260248201527f444558506169723a20464f5242494444454e00000000000000000000000000006044820152606490fd5b0390fd5b610be433610bde610bc46102546004610b3c565b9173ffffffffffffffffffffffffffffffffffffffff1690565b14610b46565b610252610252610c70565b610252610bb0565b610bff610c78565b610252610c31565b9060ff905b9181191691161790565b90610c2661026d610c2d92151590565b8254610c07565b9055565b610c3c600180610c16565b33610c6b7f62e78cea01bee320cd4e420270b5ea74000d11b0c9f74754ebdbfc544b05a258916104f960405190565b0390a1565b610252610bf7565b610c80610b29565b610c8657565b6040517fd93c0665000000000000000000000000000000000000000000000000000000008152600490fd5b610cc533610bde610bc46102546004610b3c565b610252610252610d1e565b610252610cb1565b610ce0610d26565b610252610cef60006001610c16565b33610c6b7f5db9ee0a495bf2e6ff9c91a7834c1ba4fdd244a5e8aa4e537bd38aeae4b073aa916104f960405190565b610252610cd8565b610d35610d31610b29565b1590565b610d3b57565b6040517f8dfc202b000000000000000000000000000000000000000000000000000000008152600490fd5b7f4e487b7100000000000000000000000000000000000000000000000000000000600052604160045260246000fd5b90601f017fffffffffffffffffffffffffffffffffffffffffffffffffffffffffffffffe016810190811067ffffffffffffffff821117610dd557604052565b610d66565b90610252610de760405190565b9283610d95565b61026d6020610dda565b61025291600191610e11610e0a610dee565b9315158452565b610f30565b61026d9060081c610254565b61026d9054610e16565b61025461026d61026d9290565b61026d90610e2c565b15610e4957565b6040517f08c379a000000000000000000000000000000000000000000000000000000000815260206004820152601c60248201527f444558506169723a20414c52454144595f494e495449414c495a4544000000006044820152606490fd5b9074ffffffffffffffffffffffffffffffffffffffff009060081b610c0c565b90610ed861026d610c2d926107c2565b8254610ea8565b9073ffffffffffffffffffffffffffffffffffffffff90610c0c565b90610f0b61026d610c2d926107c2565b8254610edf565b61025291610f209051151590565b90610c16565b9061025291610f12565b90610f62610f6992610f5b610f456001610e22565b610f55610bc46102546000610e39565b14610e42565b6001610ec8565b6002610efb565b610f74816009610f26565b610c6b7fb1102bf8599badf4360419344e57744751c4d685c0864e807454e60f8e6addbc91610fa260405190565b9182918290511515815260200190565b906102529291610fcc33610bde610bc46102546004610b3c565b61101a565b801515610239565b9050359061025282610fd1565b919091602081840312610240576110096110006020610dda565b93600092610fd9565b90830152565b61026d903690610fe6565b906110276102529361100f565b91610f30565b906102529291610fb2565b61104061109a565b9192909190565b61026d905b6dffffffffffffffffffffffffffff1690565b61026d9054611047565b61026d9060701c61104c565b61026d9054611069565b61026d9060e01c5b63ffffffff1690565b61026d905461107f565b6110a4600361105f565b906110af6003611075565b9061026d6003611090565b906110cc916110c7611710565b6110d5565b90610252611769565b9061026d916110e2610c78565b9061026d916113d8565b9050519061025282610237565b906020828203126102405761026d916110ec565b6040513d6000823e3d90fd5b61026d61026d61026d926dffffffffffffffffffffffffffff1690565b7f4e487b7100000000000000000000000000000000000000000000000000000000600052601160045260246000fd5b9190820391821161117257565b611136565b1561117e57565b6040517f08c379a000000000000000000000000000000000000000000000000000000000815260206004820152602260248201527f444558506169723a20494e53554646494349454e545f494e5055545f414d4f5560448201527f4e540000000000000000000000000000000000000000000000000000000000006064820152608490fd5b61026d9081565b61026d9054611203565b61104c61026d61026d9290565b1561122857565b6040517f08c379a000000000000000000000000000000000000000000000000000000000815260206004820152601e60248201527f444558506169723a20494e53554646494349454e545f524553455256455300006044820152606490fd5b9190918083025b92818404149015171561117257565b7f4e487b7100000000000000000000000000000000000000000000000000000000600052601260045260246000fd5b906112d6565b9190565b9081156112e1570490565b61129d565b156112ed57565b6040517f08c379a000000000000000000000000000000000000000000000000000000000815260206004820152602660248201527f444558506169723a20494e53554646494349454e545f4c49515549444954595f60448201527f4d494e54454400000000000000000000000000000000000000000000000000006064820152608490fd5b1561137957565b6040517f08c379a000000000000000000000000000000000000000000000000000000000815260206004820152601c60248201527f444558506169723a204c49515549444954595f544f4f5f4c41524745000000006044820152606490fd5b50906113e261109a565b50906113f96113f46113f46001610e22565b6107c2565b6370a08231611407306107c2565b602061141260405190565b809461141e8560e01b90565b825273ffffffffffffffffffffffffffffffffffffffff8416600483015260249082905afa908115611697576114a99360009261169c575b506020919261148561146e6113f46113f46002610b3c565b9161147860405190565b9687948593849360e01b90565b835273ffffffffffffffffffffffffffffffffffffffff1660048301526024820190565b03915afa91821561169757600092611667575b506114cf6114c984611119565b82611165565b6114e16114db86611119565b84611165565b906114ec6000610967565b811180611650575b6114fd90611177565b611507600861120a565b6115116000610967565b81036115b8575061155d9761153861153361025298979695946115b394611287565b612884565b9061154b611544610974565b8093611165565b998a926115586000610e39565b6127bd565b61157161156a6000610967565b83116112e6565b6115586115ab61026d7fffffffffffffffffffffffffffffffffffffffffffffffffffffffffffffffff6115a5600861120a565b90611165565b831115611372565b611965565b8594939261162d6116248361161e61160f611633966115b39861160a6102529f9e8f906115fc6115e86000611214565b916dffffffffffffffffffffffffffff1690565b11908161163a575b50611221565b611287565b6116188b611119565b906112cc565b93611287565b61161889611119565b90612872565b809861155d565b90506116496115e86000611214565b118f611604565b506114fd61165e6000610967565b831190506114f4565b61168991925060203d8111611690575b6116818183610d95565b8101906110f9565b90386114bc565b503d611677565b61110d565b602092506116b690833d8111611690576116818183610d95565b91611456565b61026d9060006110ba565b61026d6002610967565b907fffffffffffffffffffffffffffffffffffffffffffffffffffffffffffffffff90610c0c565b9061170961026d610c2d92610967565b82546116d1565b61171a600061120a565b6117226116c7565b908114611734576102529060006116f9565b6040517f3ee5aeb5000000000000000000000000000000000000000000000000000000008152600490fd5b61026d6001610967565b61025261177461175f565b60006116f9565b1561178257565b6040517f08c379a000000000000000000000000000000000000000000000000000000000815260206004820152601160248201527f444558506169723a204f564552464c4f570000000000000000000000000000006044820152606490fd5b81156112e1570690565b61108761026d61026d9290565b63ffffffff908116911690039063ffffffff821161117257565b61026d61026d61026d927bffffffffffffffffffffffffffffffffffffffffffffffffffffffff1690565b61026d61026d61026d9263ffffffff1690565b9190820180921161117257565b906dffffffffffffffffffffffffffff90610c0c565b61104c61026d61026d926dffffffffffffffffffffffffffff1690565b906118a061026d610c2d92611873565b825461185d565b907bffffffffffffffffffffffffffff00000000000000000000000000009060701b610c0c565b906118de61026d610c2d92611873565b82546118a7565b907fffffffff000000000000000000000000000000000000000000000000000000009060e01b610c0c565b61108761026d61026d9263ffffffff1690565b9061193361026d610c2d92611910565b82546118e5565b6103fe90611119565b91602061025292949361195e6040820196600083019061193a565b019061193a565b611a1891611a0c611a05611a1193611a1f976119a26dffffffffffffffffffffffffffff61199281611119565b8411159081611b35575b5061177b565b6119c26119bd426119b7640100000000610967565b906117e1565b6117eb565b976119d66119d06003611090565b8a6117f8565b9160006119e2816117eb565b63ffffffff8516119081611b11575b81611aee575b50611a6a575b505050611214565b6003611890565b611214565b60036118ce565b6003611923565b611a29600361105f565b611a336003611075565b7fcf2aa50876cdfbb541206f89af0ee78d44a2abf8d328e37fa4917f982149848a91610c6b611a6160405190565b92839283611943565b611ae692611aae611acf611aa084611a9b87611aca611ac3611ab4611aa5611aa0611adf9d611a9b611ad59e613186565b6131d0565b611812565b611aae8b61183d565b90611287565b611abe600561120a565b611850565b60056116f9565b613186565b9161183d565b611abe600661120a565b60066116f9565b3880806119fd565b611af89150611214565b6dffffffffffffffffffffffffffff82161415386119f7565b9050611b1c81611214565b6dffffffffffffffffffffffffffff84161415906119f1565b611b3f9150611119565b8611153861199c565b90611b5b9291611b56611710565b611b65565b9091610252611769565b906103199291611b73610c78565b906103199291611c0a565b15611b8557565b6040517f08c379a000000000000000000000000000000000000000000000000000000000815260206004820152602660248201527f444558506169723a20494e53554646494349454e545f4c49515549444954595f60448201527f4255524e454400000000000000000000000000000000000000000000000000006064820152608490fd5b9291925050611c1761109a565b509190611c246001610e22565b92611c38611c326002610b3c565b946107c2565b91611c42836107c2565b926370a0823190611c52306107c2565b60405197611c608460e01b90565b895273ffffffffffffffffffffffffffffffffffffffff821660048a01526020896024818a5afa98891561169757600099611e7b575b50611ca0906107c2565b611ca9816107c2565b92611cb360405190565b9a611cbe8660e01b90565b8c5273ffffffffffffffffffffffffffffffffffffffff841660048d015260208c602481885afa9b8c156116975760009c611e5b575b50611d008460076107cb565b611d099061120a565b92611d14600861120a565b611d1f819d86611287565b90611d29916112cc565b9b8c9d611d369086611287565b90611d40916112cc565b92839c83600092611d5084610967565b83118098611d6e611d799a611d7497611d7494611e49575b50611b7e565b8a612846565b611f13565b6020611d8460405190565b8097611d908660e01b90565b825273ffffffffffffffffffffffffffffffffffffffff8416600483015260249082905afa91821561169757611de896600093611e25575b50611485839460209450611ddb60405190565b9889948593849360e01b90565b03915afa9081156116975761025294600092611e05575b50611965565b611e1e91925060203d8111611690576116818183610d95565b9038611dff565b60209350611e4261148591853d8111611690576116818183610d95565b9350611dc8565b611e539150610967565b8a1138611d68565b611e74919c5060203d8111611690576116818183610d95565b9a38611cf4565b611ca0919950611e989060203d8111611690576116818183610d95565b9890611c96565b61031990600080611b48565b611ec4611ebe61026d9263ffffffff1690565b60e01b90565b7fffffffff000000000000000000000000000000000000000000000000000000001690565b73ffffffffffffffffffffffffffffffffffffffff90911681526040810192916102529160200152565b611f56600492611f4761025295611f2d63a9059cbb611eab565b92611f3760405190565b9687946020860190815201611ee9565b60208201810382520383610d95565b906000602091611f64600090565b50828151910182855af11561110d57600080513d611f846112d284610967565b036120025750611fa06112d2611f99846107c2565b3b92610967565b145b611fa95750565b611fb5610bac916107c2565b6040519182917f5274afe70000000000000000000000000000000000000000000000000000000083526004830173ffffffffffffffffffffffffffffffffffffffff909116815260200190565b90506120116112d26001610967565b1415611fa2565b9061202d94939291612028611710565b612035565b610252611769565b9061025294939291612045610c78565b906102529493929161228b565b1561205957565b6040517f08c379a000000000000000000000000000000000000000000000000000000000815260206004820152602360248201527f444558506169723a20494e53554646494349454e545f4f55545055545f414d4f60448201527f554e5400000000000000000000000000000000000000000000000000000000006064820152608490fd5b156120e557565b6040517f08c379a000000000000000000000000000000000000000000000000000000000815260206004820152601f60248201527f444558506169723a20494e53554646494349454e545f4c4951554944495459006044820152606490fd5b1561214b57565b6040517f08c379a000000000000000000000000000000000000000000000000000000000815260206004820152601360248201527f444558506169723a20494e56414c49445f544f000000000000000000000000006044820152606490fd5b90826000939282370152565b919061039a816121cd816103c29560209181520190565b80956121aa565b90939161026d95936122116122189261220a6080860198600087019073ffffffffffffffffffffffffffffffffffffffff169052565b6020850152565b6040830152565b60608185039101526121b6565b1561222c57565b6040517f08c379a000000000000000000000000000000000000000000000000000000000815260206004820152600a60248201527f444558506169723a204b000000000000000000000000000000000000000000006044820152606490fd5b93929192600061229a81610967565b8611918283156126b3575b6122ae90612052565b6122b661109a565b509690956122c387611119565b89108061269d575b6122d4906120de565b6122de6001610e22565b916122e96002610b3c565b9573ffffffffffffffffffffffffffffffffffffffff841673ffffffffffffffffffffffffffffffffffffffff831614158061267a575b61232990612144565b612667575b61233785610967565b8711612654575b8361234b6112d287610967565b116125be575b505061236191506113f4906107c2565b916370a08231612370306107c2565b91602061237c60405190565b80966123888560e01b90565b825273ffffffffffffffffffffffffffffffffffffffff8616600483015260249082905afa94851561169757600095612588575b50916020916114856123d36113f46123ea966107c2565b916123dd60405190565b9586948593849360e01b90565b03915afa9384156116975761025297868893600097612542575b509261249d8361246161026d6115b39896612434611aae976124e39a8d6124396112d261026d8561243486611119565b611165565b11600090600014612536575061245b9161243461245592611119565b8d611165565b96611119565b6000908a1115612526575061247c612482916124348d611119565b89611165565b935b61248d81610967565b8311908115612514575b50611177565b6115a56103e893611aae6124dd6124d76124d16124c26124bc8a610967565b8d611287565b6115a5600398611aae8a610967565b97610967565b8b611287565b93610967565b61250d6112d261026d6125016124f889611119565b611aae8b611119565b611aae620f4240610967565b1015612225565b61251e9150610967565b841138612497565b6125309150610967565b93612484565b905061245b9150610967565b6124e3949197508361246161026d6115b39896612434611aae9761257661249d9760203d8111611690576116818183610d95565b9d979a50975050505050939550612404565b6123ea93919550916114856123d36113f46125b1602096873d8111611690576116818183610d95565b98949650505050916123bc565b6113f46125ca916107c2565b9063bea9cf36913391813b15610240578680946126088e986125fd948d6125f060405190565b9b8c998a98899760e01b90565b8752600487016121d4565b03925af190811561169757612361926113f492612628575b819250612351565b61264790853d871161264d575b61263f8183610d95565b810190610342565b38612620565b503d612635565b6126628782611d74896107c2565b61233e565b6126758a82611d74866107c2565b61232e565b5073ffffffffffffffffffffffffffffffffffffffff8281169088161415612320565b506122d46126aa89611119565b871090506122cb565b506122ae6126c083610967565b851190506122a5565b9061025294939291612018565b6126de611710565b61202d6126f16113f46113f46001610e22565b6370a082316126ff306107c2565b602061270a60405190565b80946127168560e01b90565b825273ffffffffffffffffffffffffffffffffffffffff8416600483015260249082905afa908115611697576127659360009261169c57506020919261148561146e6113f46113f46002610b3c565b03915afa80156116975761025292600091612797575b50612786600361105f565b906127916003611075565b92611965565b6127af915060203d8111611690576116818183610d95565b3861277b565b6102526126d6565b90612840612836610252936127f06127d985611abe600861120a565b6127e96112d261026d600861120a565b101561177b565b600761281e61280b86611abe61280686866107cb565b61120a565b6127e96112d261026d61280687876107cb565b610af061282f86611abe600861120a565b60086116f9565b91611abe8361120a565b906116f9565b6102529161286861285b61282f9360076107cb565b612840836124348361120a565b612434600861120a565b908082101561287f575090565b905090565b9060006128916003610967565b83111561290f57506128c68260026128b16128ab82610967565b836112cc565b9160019384936128c085610967565b90611850565b935b6128d3575b50505050565b909192946128de8190565b86101561290957506129006128f786611abe81856112cc565b61161884610967565b929190826128c8565b946128cd565b9161291d6112d26000610967565b0361292457565b905061026d6001610967565b336129498361294484610af085600c6107cb565b6116f9565b61298961297f6129797f8c5be1e5ebec7d5bd14f71427d1e84f3dd0314c0f7b2291e5b200ac8c7c3b925936107c2565b936107c2565b9361055e60405190565b0390a3600190565b336129c26129b5836007610af06129a886836107cb565b612840896124348361120a565b61284085611abe8361120a565b61298961297f6129797fddf252ad1be2c89b69c2b068fc378daa952ba7f163c4a11628f55a4df523b3ef936107c2565b600c816129ff81836107cb565b612a0d6128063380936107cb565b600101612a2e575b5050506129c26129b5836007610af06129a886836107cb565b610af0612a3e92612a4b946107cb565b612840856124348361120a565b388181612a15565b67ffffffffffffffff8111610dd557602090601f017fffffffffffffffffffffffffffffffffffffffffffffffffffffffffffffffe0160190565b90612aa0612a9b83612a53565b610dda565b918252565b612aaf600c612a8e565b7f444558204c5020546f6b656e0000000000000000000000000000000000000000602082015290565b61026d612aa5565b61026d612ad8565b612af26002612a8e565b7f4c50000000000000000000000000000000000000000000000000000000000000602082015290565b61026d612ae8565b61026d612b1b565b61064c61026d61026d9290565b61026d6012612b2b565b61026d612bda565b612b546001612a8e565b7f3100000000000000000000000000000000000000000000000000000000000000602082015290565b61026d612b4a565b9095949261025294612bb7612bbe92612bb0608096612ba960a088019c6000890152565b6020870152565b6040850152565b6060830152565b019073ffffffffffffffffffffffffffffffffffffffff169052565b7f8b73c3c69bb8fe3d512ecc4cf759cc79239f7b179b0ffacaa9a75d522b39400f612c5f612c06612ad8565b612c18612c11825190565b9160200190565b20612c21612b7d565b612c2c612c11825190565b2092612c5346612c3b306107c2565b90612c4560405190565b968795602087019586612b85565b90810382520382610d95565b612c6a612c11825190565b2090565b15612c7557565b6040517f08c379a000000000000000000000000000000000000000000000000000000000815260206004820152601060248201527f444558506169723a2045585049524544000000000000000000000000000000006044820152606490fd5b7fffffffffffffffffffffffffffffffffffffffffffffffffffffffffffffffff81146111725760010190565b9194612d6a6108fe92989795612d6360a096612d466102529a612d2960c08a019e60008b0152565b73ffffffffffffffffffffffffffffffffffffffff166020890152565b73ffffffffffffffffffffffffffffffffffffffff166040870152565b6060850152565b6080830152565b6020809392612da9612aa06103c2947f1901000000000000000000000000000000000000000000000000000000000000815260020190565b01918252565b6108fe61025294612211606094989795612dce608086019a6000870152565b60ff166020850152565b15612ddf57565b6040517f08c379a000000000000000000000000000000000000000000000000000000000815260206004820152601a60248201527f444558506169723a20494e56414c49445f5349474e41545552450000000000006044820152606490fd5b939094612f048397612c53612ee589612ec18a600099612c5360209c612e6c612e644290565b821015612c6e565b7f6e71edae12b1b97f4d1f60370fef10105fa2faae0126114a169c64845d6126c992612e9985600d6107cb565b90612eb0612ea68361120a565b9261284084612cd4565b604051978896602088019687612d01565b612ecc612c11825190565b20612ed5612bda565b6040519384928b84019283612d71565b612ef0612c11825190565b2092612efb60405190565b94859485612daf565b838052039060015afa1561169757600051612f3e90612f3873ffffffffffffffffffffffffffffffffffffffff8416610bc4565b14612dd8565b612f518361294484610af085600c6107cb565b612f8161297f6129797f8c5be1e5ebec7d5bd14f71427d1e84f3dd0314c0f7b2291e5b200ac8c7c3b925936107c2565b0390a3565b612f906001610e22565b612fa3612f9d6002610b3c565b916107c2565b91612fad836107c2565b926370a0823192612fbd306107c2565b906020612fc960405190565b8097612fd58860e01b90565b825273ffffffffffffffffffffffffffffffffffffffff8516600483015260249082905afa908115611697576113f46020948661302e613034956130589b60009161309f575b506115a5613029600361105f565b611119565b91611f13565b93611485613041866107c2565b9161304b60405190565b9788948593849360e01b90565b03915afa928315611697576102529361302e91600091613081575b506115a56130296003611075565b613099915060203d8111611690576116818183610d95565b38613073565b6130b69150893d8111611690576116818183610d95565b3861301b565b61026d6130cc613029600361105f565b611aae6130296003611075565b6130f661026d61026d926dffffffffffffffffffffffffffff1690565b7bffffffffffffffffffffffffffffffffffffffffffffffffffffffff1690565b6130f661026d61026d9290565b61026d6e010000000000000000000000000000613117565b7bffffffffffffffffffffffffffffffffffffffffffffffffffffffff908116929116917bffffffffffffffffffffffffffffffffffffffffffffffffffffffff8184021661128e565b61319b61026d91613195600090565b506130d9565b6131a3613124565b9061313c565b7bffffffffffffffffffffffffffffffffffffffffffffffffffffffff90811691166112d6565b6131df61026d92613195600090565b906131a956fea2646970667358221220fbe8002b7288da56709a46c5873ba32a4d86560996af1c9c8e74a181287ef8a864736f6c63430008140033a2646970667358221220e14bc374bc87f1dfd83467f1224e9968777aad74c3fac5913b0ea8bcc3fb537164736f6c63430008140033","opcodes":"PUSH1 0x80 PUSH1 0x40 MSTORE CALLVALUE PUSH3 0x30 JUMPI PUSH3 0x1E PUSH3 0x18 PUSH3 0xD3 JUMP JUMPDEST PUSH3 0x1A9 JUMP JUMPDEST PUSH1 0x40 MLOAD PUSH2 0x5E29 PUSH3 0x2EA DUP3 CODECOPY PUSH2 0x5E29 SWAP1 RETURN JUMPDEST PUSH1 0x0 DUP1 REVERT JUMPDEST PUSH4 0x4E487B71 PUSH1 0xE0 SHL PUSH1 0x0 MSTORE PUSH1 0x41 PUSH1 0x4 MSTORE PUSH1 0x24 PUSH1 0x0 REVERT JUMPDEST SWAP1 PUSH1 0x1F ADD PUSH1 0x1F NOT AND DUP2 ADD SWAP1 DUP2 LT PUSH1 0x1 PUSH1 0x1 PUSH1 0x40 SHL SUB DUP3 GT OR PUSH3 0x6D JUMPI PUSH1 0x40 MSTORE JUMP JUMPDEST PUSH3 0x35 JUMP JUMPDEST SWAP1 PUSH3 0x8A PUSH3 0x82 PUSH1 0x40 MLOAD SWAP1 JUMP JUMPDEST SWAP3 DUP4 PUSH3 0x4B JUMP JUMPDEST JUMP JUMPDEST PUSH1 0x1 PUSH1 0x1 PUSH1 0xA0 SHL SUB AND SWAP1 JUMP JUMPDEST SWAP1 JUMP JUMPDEST PUSH1 0x1 PUSH1 0x1 PUSH1 0xA0 SHL SUB DUP2 AND SUB PUSH3 0x30 JUMPI JUMP JUMPDEST SWAP1 POP MLOAD SWAP1 PUSH3 0x8A DUP3 PUSH3 0x9B JUMP JUMPDEST SWAP1 PUSH1 0x20 DUP3 DUP3 SUB SLT PUSH3 0x30 JUMPI PUSH3 0x98 SWAP2 PUSH3 0xAD JUMP JUMPDEST PUSH3 0x98 PUSH3 0x6113 DUP1 CODESIZE SUB DUP1 PUSH3 0xEA DUP2 PUSH3 0x73 JUMP JUMPDEST SWAP3 DUP4 CODECOPY DUP2 ADD SWAP1 PUSH3 0xBC JUMP JUMPDEST SWAP1 PUSH1 0x0 NOT SWAP1 JUMPDEST SWAP2 DUP2 NOT AND SWAP2 AND OR SWAP1 JUMP JUMPDEST PUSH3 0x98 PUSH3 0x98 PUSH3 0x98 SWAP3 SWAP1 JUMP JUMPDEST SWAP1 PUSH3 0x12A PUSH3 0x98 PUSH3 0x132 SWAP3 PUSH3 0x106 JUMP JUMPDEST DUP3 SLOAD PUSH3 0xF6 JUMP JUMPDEST SWAP1 SSTORE JUMP JUMPDEST PUSH3 0x8C PUSH3 0x98 PUSH3 0x98 SWAP3 SWAP1 JUMP JUMPDEST PUSH3 0x98 SWAP1 PUSH3 0x136 JUMP JUMPDEST SWAP1 PUSH1 0x1 PUSH1 0x1 PUSH1 0xA0 SHL SUB SWAP1 PUSH3 0xFC JUMP JUMPDEST PUSH3 0x98 SWAP1 PUSH3 0x8C SWAP1 PUSH1 0x1 PUSH1 0x1 PUSH1 0xA0 SHL SUB AND DUP3 JUMP JUMPDEST PUSH3 0x98 SWAP1 PUSH3 0x161 JUMP JUMPDEST PUSH3 0x98 SWAP1 PUSH3 0x177 JUMP JUMPDEST SWAP1 PUSH3 0x1A1 PUSH3 0x98 PUSH3 0x132 SWAP3 PUSH3 0x182 JUMP JUMPDEST DUP3 SLOAD PUSH3 0x151 JUMP JUMPDEST PUSH3 0x1B4 CALLER PUSH3 0x218 JUMP JUMPDEST PUSH3 0x1C2 PUSH1 0x1E PUSH1 0x5 PUSH3 0x116 JUMP JUMPDEST PUSH3 0x1D2 PUSH3 0x8C PUSH1 0x0 PUSH3 0x146 JUMP JUMPDEST PUSH1 0x1 PUSH1 0x1 PUSH1 0xA0 SHL SUB DUP3 AND EQ PUSH3 0x1EF JUMPI PUSH3 0x8A SWAP1 PUSH1 0x4 PUSH3 0x18D JUMP JUMPDEST PUSH1 0x40 MLOAD PUSH4 0xAB54B813 PUSH1 0xE0 SHL DUP2 MSTORE PUSH1 0x4 SWAP1 REVERT JUMPDEST SUB SWAP1 REVERT JUMPDEST PUSH1 0x1 PUSH1 0x1 PUSH1 0xA0 SHL SUB SWAP1 SWAP2 AND DUP2 MSTORE PUSH1 0x20 ADD SWAP1 JUMP JUMPDEST PUSH3 0x224 PUSH1 0x0 PUSH3 0x146 JUMP JUMPDEST PUSH1 0x1 PUSH1 0x1 PUSH1 0xA0 SHL SUB DUP2 AND PUSH1 0x1 PUSH1 0x1 PUSH1 0xA0 SHL SUB DUP4 AND EQ PUSH3 0x24A JUMPI POP PUSH3 0x8A SWAP1 PUSH3 0x287 JUMP JUMPDEST PUSH3 0x201 SWAP1 PUSH3 0x259 PUSH1 0x40 MLOAD SWAP1 JUMP JUMPDEST PUSH4 0x1E4FBDF7 PUSH1 0xE0 SHL DUP2 MSTORE SWAP2 DUP3 SWAP2 PUSH1 0x4 DUP4 ADD PUSH3 0x205 JUMP JUMPDEST PUSH3 0x98 SWAP1 PUSH3 0x8C JUMP JUMPDEST PUSH3 0x98 SWAP1 SLOAD PUSH3 0x270 JUMP JUMPDEST PUSH3 0x293 PUSH1 0x0 PUSH3 0x27B JUMP JUMPDEST SWAP1 PUSH3 0x2A1 DUP2 PUSH1 0x0 PUSH3 0x18D JUMP JUMPDEST PUSH3 0x2D8 PUSH3 0x2D1 PUSH32 0x8BE0079C531659141344CD1FD0A4F28419497F9722A3DAAFE3B4186F6B6457E0 SWAP4 PUSH3 0x182 JUMP JUMPDEST SWAP2 PUSH3 0x182 JUMP JUMPDEST SWAP2 PUSH3 0x2E3 PUSH1 0x40 MLOAD SWAP1 JUMP JUMPDEST PUSH1 0x0 SWAP1 LOG3 JUMP INVALID PUSH1 0x80 PUSH1 0x40 MSTORE PUSH1 0x4 CALLDATASIZE LT ISZERO PUSH3 0x13 JUMPI PUSH1 0x0 DUP1 REVERT JUMPDEST PUSH1 0x0 CALLDATALOAD PUSH1 0xE0 SHR DUP1 PUSH4 0x8DFE05F EQ PUSH3 0x258 JUMPI DUP1 PUSH4 0x180B0D7E EQ PUSH3 0x1B6 JUMPI DUP1 PUSH4 0x1E3DD18B EQ PUSH3 0x252 JUMPI DUP1 PUSH4 0x3F4BA83A EQ PUSH3 0x216 JUMPI DUP1 PUSH4 0x44E5550F EQ PUSH3 0x24C JUMPI DUP1 PUSH4 0x45596E2E EQ PUSH3 0x246 JUMPI DUP1 PUSH4 0x476343EE EQ PUSH3 0x216 JUMPI DUP1 PUSH4 0x4BFC2E0B EQ PUSH3 0x240 JUMPI DUP1 PUSH4 0x573044E3 EQ PUSH3 0x23A JUMPI DUP1 PUSH4 0x574F2BA3 EQ PUSH3 0x234 JUMPI DUP1 PUSH4 0x6D49DFC3 EQ PUSH3 0x22E JUMPI DUP1 PUSH4 0x715018A6 EQ PUSH3 0x228 JUMPI DUP1 PUSH4 0x788F737D EQ PUSH3 0x222 JUMPI DUP1 PUSH4 0x7B84FDA5 EQ PUSH3 0x21C JUMPI DUP1 PUSH4 0x8456CB59 EQ PUSH3 0x216 JUMPI DUP1 PUSH4 0x84E5EED0 EQ PUSH3 0x210 JUMPI DUP1 PUSH4 0x8DA5CB5B EQ PUSH3 0x20A JUMPI DUP1 PUSH4 0x90C833F4 EQ PUSH3 0x204 JUMPI DUP1 PUSH4 0x92F6576E EQ PUSH3 0x1FE JUMPI DUP1 PUSH4 0x9759164A EQ PUSH3 0x1F8 JUMPI DUP1 PUSH4 0x978BBDB9 EQ PUSH3 0x1F2 JUMPI DUP1 PUSH4 0xA293E03C EQ PUSH3 0x1EC JUMPI DUP1 PUSH4 0xAC449629 EQ PUSH3 0x1E6 JUMPI DUP1 PUSH4 0xB2094A10 EQ PUSH3 0x1E0 JUMPI DUP1 PUSH4 0xB4F69A2F EQ PUSH3 0x1C2 JUMPI DUP1 PUSH4 0xBE8796C1 EQ PUSH3 0x1DA JUMPI DUP1 PUSH4 0xC73D7C7B EQ PUSH3 0x1D4 JUMPI DUP1 PUSH4 0xC9C65396 EQ PUSH3 0x1CE JUMPI DUP1 PUSH4 0xCE3B5273 EQ PUSH3 0x1C8 JUMPI DUP1 PUSH4 0xD73792A9 EQ PUSH3 0x1B6 JUMPI DUP1 PUSH4 0xE6A43905 EQ PUSH3 0x1C2 JUMPI DUP1 PUSH4 0xF2FDE38B EQ PUSH3 0x1BC JUMPI DUP1 PUSH4 0xF4E1FC41 EQ PUSH3 0x1B6 JUMPI PUSH4 0xFF255EFB SUB PUSH3 0x29A JUMPI PUSH3 0xDAB JUMP JUMPDEST PUSH3 0x5BF JUMP JUMPDEST PUSH3 0xD80 JUMP JUMPDEST PUSH3 0xC79 JUMP JUMPDEST PUSH3 0xD47 JUMP JUMPDEST PUSH3 0xCDF JUMP JUMPDEST PUSH3 0xCCC JUMP JUMPDEST PUSH3 0xC9B JUMP JUMPDEST PUSH3 0xC5C JUMP JUMPDEST PUSH3 0xC21 JUMP JUMPDEST PUSH3 0xB80 JUMP JUMPDEST PUSH3 0xB37 JUMP JUMPDEST PUSH3 0xAEF JUMP JUMPDEST PUSH3 0xAC0 JUMP JUMPDEST PUSH3 0xA77 JUMP JUMPDEST PUSH3 0x9B3 JUMP JUMPDEST PUSH3 0x992 JUMP JUMPDEST PUSH3 0x708 JUMP JUMPDEST PUSH3 0x975 JUMP JUMPDEST PUSH3 0x95B JUMP JUMPDEST PUSH3 0x916 JUMP JUMPDEST PUSH3 0x8F5 JUMP JUMPDEST PUSH3 0x87A JUMP JUMPDEST PUSH3 0x85C JUMP JUMPDEST PUSH3 0x80B JUMP JUMPDEST PUSH3 0x7C6 JUMP JUMPDEST PUSH3 0x79D JUMP JUMPDEST PUSH3 0x6C0 JUMP JUMPDEST PUSH3 0x566 JUMP JUMPDEST PUSH20 0xFFFFFFFFFFFFFFFFFFFFFFFFFFFFFFFFFFFFFFFF AND SWAP1 JUMP JUMPDEST SWAP1 JUMP JUMPDEST PUSH20 0xFFFFFFFFFFFFFFFFFFFFFFFFFFFFFFFFFFFFFFFF DUP2 AND JUMPDEST SUB PUSH3 0x29A JUMPI JUMP JUMPDEST PUSH1 0x0 DUP1 REVERT JUMPDEST SWAP1 POP CALLDATALOAD SWAP1 PUSH3 0x2AE DUP3 PUSH3 0x27A JUMP JUMPDEST JUMP JUMPDEST DUP1 PUSH3 0x292 JUMP JUMPDEST SWAP1 POP CALLDATALOAD SWAP1 PUSH3 0x2AE DUP3 PUSH3 0x2B0 JUMP JUMPDEST DUP1 ISZERO ISZERO PUSH3 0x292 JUMP JUMPDEST SWAP1 POP CALLDATALOAD SWAP1 PUSH3 0x2AE DUP3 PUSH3 0x2C6 JUMP JUMPDEST PUSH32 0x4E487B7100000000000000000000000000000000000000000000000000000000 PUSH1 0x0 MSTORE PUSH1 0x41 PUSH1 0x4 MSTORE PUSH1 0x24 PUSH1 0x0 REVERT JUMPDEST SWAP1 PUSH1 0x1F ADD PUSH32 0xFFFFFFFFFFFFFFFFFFFFFFFFFFFFFFFFFFFFFFFFFFFFFFFFFFFFFFFFFFFFFFE0 AND DUP2 ADD SWAP1 DUP2 LT PUSH8 0xFFFFFFFFFFFFFFFF DUP3 GT OR PUSH3 0x34E JUMPI PUSH1 0x40 MSTORE JUMP JUMPDEST PUSH3 0x2DE JUMP JUMPDEST SWAP1 PUSH3 0x2AE PUSH3 0x363 PUSH1 0x40 MLOAD SWAP1 JUMP JUMPDEST SWAP3 DUP4 PUSH3 0x30D JUMP JUMPDEST PUSH8 0xFFFFFFFFFFFFFFFF DUP2 GT PUSH3 0x34E JUMPI PUSH1 0x20 SWAP1 PUSH1 0x1F ADD PUSH32 0xFFFFFFFFFFFFFFFFFFFFFFFFFFFFFFFFFFFFFFFFFFFFFFFFFFFFFFFFFFFFFFE0 AND ADD SWAP1 JUMP JUMPDEST ADD SWAP1 JUMP JUMPDEST SWAP1 DUP3 PUSH1 0x0 SWAP4 SWAP3 DUP3 CALLDATACOPY ADD MSTORE JUMP JUMPDEST SWAP1 SWAP3 SWAP2 SWAP3 PUSH3 0x3D0 PUSH3 0x3CA DUP3 PUSH3 0x36B JUMP JUMPDEST PUSH3 0x354 JUMP JUMPDEST SWAP4 DUP2 DUP6 MSTORE PUSH1 0x20 DUP6 ADD SWAP1 DUP3 DUP5 ADD GT PUSH3 0x29A JUMPI PUSH3 0x2AE SWAP3 PUSH3 0x3AB JUMP JUMPDEST SWAP1 DUP1 PUSH1 0x1F DUP4 ADD SLT ISZERO PUSH3 0x29A JUMPI DUP2 PUSH1 0x20 PUSH3 0x277 SWAP4 CALLDATALOAD SWAP2 ADD PUSH3 0x3B7 JUMP JUMPDEST PUSH1 0xFF DUP2 AND PUSH3 0x292 JUMP JUMPDEST SWAP1 POP CALLDATALOAD SWAP1 PUSH3 0x2AE DUP3 PUSH3 0x40B JUMP JUMPDEST SWAP1 SWAP2 PUSH2 0x1E0 DUP3 DUP5 SUB SLT PUSH3 0x29A JUMPI PUSH3 0x43E DUP4 DUP4 PUSH3 0x29F JUMP JUMPDEST SWAP3 PUSH3 0x44E DUP2 PUSH1 0x20 DUP6 ADD PUSH3 0x29F JUMP JUMPDEST SWAP3 PUSH3 0x45E DUP3 PUSH1 0x40 DUP4 ADD PUSH3 0x2B7 JUMP JUMPDEST SWAP3 PUSH3 0x46E DUP4 PUSH1 0x60 DUP5 ADD PUSH3 0x2B7 JUMP JUMPDEST SWAP3 PUSH3 0x47E DUP2 PUSH1 0x80 DUP6 ADD PUSH3 0x2CF JUMP JUMPDEST SWAP3 PUSH3 0x48E DUP3 PUSH1 0xA0 DUP4 ADD PUSH3 0x2B7 JUMP JUMPDEST SWAP3 PUSH1 0xC0 DUP3 ADD CALLDATALOAD PUSH8 0xFFFFFFFFFFFFFFFF DUP2 GT PUSH3 0x29A JUMPI DUP4 PUSH3 0x4B2 SWAP2 DUP5 ADD PUSH3 0x3ED JUMP JUMPDEST SWAP3 PUSH3 0x4C2 DUP2 PUSH1 0xE0 DUP6 ADD PUSH3 0x2B7 JUMP JUMPDEST SWAP3 PUSH3 0x4D3 DUP3 PUSH2 0x100 DUP4 ADD PUSH3 0x415 JUMP JUMPDEST SWAP3 PUSH3 0x4E4 DUP4 PUSH2 0x120 DUP5 ADD PUSH3 0x2B7 JUMP JUMPDEST SWAP3 PUSH3 0x4F5 DUP2 PUSH2 0x140 DUP6 ADD PUSH3 0x2B7 JUMP JUMPDEST SWAP3 PUSH3 0x506 DUP3 PUSH2 0x160 DUP4 ADD PUSH3 0x2B7 JUMP JUMPDEST SWAP3 PUSH3 0x277 PUSH3 0x51B DUP5 PUSH2 0x180 DUP6 ADD PUSH3 0x415 JUMP JUMPDEST SWAP4 PUSH3 0x52C DUP2 PUSH2 0x1A0 DUP7 ADD PUSH3 0x2B7 JUMP JUMPDEST SWAP4 PUSH2 0x1C0 ADD PUSH3 0x2B7 JUMP JUMPDEST SWAP1 MSTORE JUMP JUMPDEST PUSH20 0xFFFFFFFFFFFFFFFFFFFFFFFFFFFFFFFFFFFFFFFF SWAP1 SWAP2 AND DUP2 MSTORE PUSH1 0x40 DUP2 ADD SWAP3 SWAP2 PUSH3 0x2AE SWAP2 PUSH1 0x20 ADD MSTORE JUMP JUMPDEST CALLVALUE PUSH3 0x29A JUMPI PUSH3 0x596 PUSH3 0x57D CALLDATASIZE PUSH1 0x4 PUSH3 0x424 JUMP JUMPDEST SWAP14 SWAP13 SWAP1 SWAP13 SWAP12 SWAP2 SWAP12 SWAP11 SWAP3 SWAP11 SWAP10 SWAP4 SWAP10 SWAP9 SWAP5 SWAP9 SWAP8 SWAP6 SWAP8 PUSH3 0x1E0C JUMP JUMPDEST SWAP1 PUSH3 0x5AF PUSH3 0x5A5 PUSH1 0x40 MLOAD SWAP1 JUMP JUMPDEST SWAP3 DUP4 SWAP3 DUP4 PUSH3 0x53B JUMP JUMPDEST SUB SWAP1 RETURN JUMPDEST PUSH1 0x0 SWAP2 SUB SLT PUSH3 0x29A JUMPI JUMP JUMPDEST CALLVALUE PUSH3 0x29A JUMPI PUSH3 0x5D2 CALLDATASIZE PUSH1 0x4 PUSH3 0x5B3 JUMP JUMPDEST PUSH3 0x5AF PUSH3 0x5E0 PUSH3 0xD76 JUMP JUMPDEST PUSH1 0x40 MLOAD SWAP2 DUP3 SWAP2 DUP3 SWAP1 DUP2 MSTORE PUSH1 0x20 ADD SWAP1 JUMP JUMPDEST SWAP1 PUSH1 0x20 DUP3 DUP3 SUB SLT PUSH3 0x29A JUMPI PUSH3 0x277 SWAP2 PUSH3 0x2B7 JUMP JUMPDEST PUSH32 0x4E487B7100000000000000000000000000000000000000000000000000000000 PUSH1 0x0 MSTORE PUSH1 0x32 PUSH1 0x4 MSTORE PUSH1 0x24 PUSH1 0x0 REVERT JUMPDEST DUP1 SLOAD DUP3 LT ISZERO PUSH3 0x65B JUMPI PUSH3 0x652 PUSH1 0x1 SWAP2 PUSH1 0x0 MSTORE PUSH1 0x20 PUSH1 0x0 KECCAK256 SWAP1 JUMP JUMPDEST SWAP2 MUL ADD SWAP1 PUSH1 0x0 SWAP1 JUMP JUMPDEST PUSH3 0x607 JUMP JUMPDEST PUSH3 0x277 SWAP2 PUSH1 0x8 MUL SHR PUSH20 0xFFFFFFFFFFFFFFFFFFFFFFFFFFFFFFFFFFFFFFFF AND SWAP1 JUMP JUMPDEST SWAP1 PUSH3 0x277 SWAP2 SLOAD PUSH3 0x661 JUMP JUMPDEST PUSH1 0x2 PUSH1 0x0 PUSH3 0x69D DUP3 SLOAD SWAP1 JUMP JUMPDEST DUP4 LT ISZERO PUSH3 0x6BD JUMPI POP PUSH3 0x277 SWAP2 PUSH3 0x6B6 SWAP2 PUSH3 0x636 JUMP JUMPDEST SWAP1 PUSH3 0x683 JUMP JUMPDEST DUP1 REVERT JUMPDEST CALLVALUE PUSH3 0x29A JUMPI PUSH3 0x5AF PUSH3 0x6E1 PUSH3 0x6DB CALLDATASIZE PUSH1 0x4 PUSH3 0x5F0 JUMP JUMPDEST PUSH3 0x690 JUMP JUMPDEST PUSH1 0x40 MLOAD SWAP2 DUP3 SWAP2 DUP3 PUSH20 0xFFFFFFFFFFFFFFFFFFFFFFFFFFFFFFFFFFFFFFFF SWAP1 SWAP2 AND DUP2 MSTORE PUSH1 0x20 ADD SWAP1 JUMP JUMPDEST CALLVALUE PUSH3 0x29A JUMPI PUSH3 0x71B CALLDATASIZE PUSH1 0x4 PUSH3 0x5B3 JUMP JUMPDEST PUSH3 0x2933 JUMP JUMPDEST SWAP1 SWAP2 PUSH1 0xC0 DUP3 DUP5 SUB SLT PUSH3 0x29A JUMPI PUSH3 0x73A DUP4 DUP4 PUSH3 0x29F JUMP JUMPDEST SWAP3 PUSH3 0x74A DUP2 PUSH1 0x20 DUP6 ADD PUSH3 0x29F JUMP JUMPDEST SWAP3 PUSH3 0x75A DUP3 PUSH1 0x40 DUP4 ADD PUSH3 0x2B7 JUMP JUMPDEST SWAP3 PUSH3 0x76A DUP4 PUSH1 0x60 DUP5 ADD PUSH3 0x2B7 JUMP JUMPDEST SWAP3 PUSH1 0x80 DUP4 ADD CALLDATALOAD SWAP1 PUSH8 0xFFFFFFFFFFFFFFFF DUP3 GT PUSH3 0x29A JUMPI PUSH3 0x793 DUP2 PUSH3 0x277 SWAP4 DUP7 ADD PUSH3 0x3ED JUMP JUMPDEST SWAP4 PUSH1 0xA0 ADD PUSH3 0x2B7 JUMP JUMPDEST CALLVALUE PUSH3 0x29A JUMPI PUSH3 0x7C1 PUSH3 0x7B4 CALLDATASIZE PUSH1 0x4 PUSH3 0x721 JUMP JUMPDEST SWAP5 SWAP4 SWAP1 SWAP4 SWAP3 SWAP2 SWAP3 PUSH3 0x233D JUMP JUMPDEST PUSH1 0x40 MLOAD STOP JUMPDEST CALLVALUE PUSH3 0x29A JUMPI PUSH3 0x7C1 PUSH3 0x7DD CALLDATASIZE PUSH1 0x4 PUSH3 0x5F0 JUMP JUMPDEST PUSH3 0x288E JUMP JUMPDEST SWAP2 SWAP1 PUSH1 0x40 DUP4 DUP3 SUB SLT PUSH3 0x29A JUMPI PUSH3 0x277 SWAP1 PUSH3 0x801 DUP2 DUP6 PUSH3 0x29F JUMP JUMPDEST SWAP4 PUSH1 0x20 ADD PUSH3 0x2B7 JUMP JUMPDEST CALLVALUE PUSH3 0x29A JUMPI PUSH3 0x81E CALLDATASIZE PUSH1 0x4 PUSH3 0x7E3 JUMP JUMPDEST SWAP1 PUSH3 0x28D4 JUMP JUMPDEST SWAP1 SWAP2 PUSH1 0x60 DUP3 DUP5 SUB SLT PUSH3 0x29A JUMPI PUSH3 0x277 PUSH3 0x842 DUP5 DUP5 PUSH3 0x29F JUMP JUMPDEST SWAP4 PUSH3 0x852 DUP2 PUSH1 0x20 DUP7 ADD PUSH3 0x2B7 JUMP JUMPDEST SWAP4 PUSH1 0x40 ADD PUSH3 0x29F JUMP JUMPDEST CALLVALUE PUSH3 0x29A JUMPI PUSH3 0x7C1 PUSH3 0x873 CALLDATASIZE PUSH1 0x4 PUSH3 0x825 JUMP JUMPDEST SWAP2 PUSH3 0x26BA JUMP JUMPDEST CALLVALUE PUSH3 0x29A JUMPI PUSH3 0x88D CALLDATASIZE PUSH1 0x4 PUSH3 0x5B3 JUMP JUMPDEST PUSH3 0x5AF PUSH3 0x5E0 PUSH1 0x2 SLOAD SWAP1 JUMP JUMPDEST SWAP1 PUSH1 0x80 DUP3 DUP3 SUB SLT PUSH3 0x29A JUMPI PUSH3 0x8B3 DUP2 DUP4 PUSH3 0x29F JUMP JUMPDEST SWAP3 PUSH3 0x8C3 DUP3 PUSH1 0x20 DUP6 ADD PUSH3 0x29F JUMP JUMPDEST SWAP3 PUSH3 0x8D3 DUP4 PUSH1 0x40 DUP4 ADD PUSH3 0x2B7 JUMP JUMPDEST SWAP3 PUSH1 0x60 DUP3 ADD CALLDATALOAD PUSH8 0xFFFFFFFFFFFFFFFF DUP2 GT PUSH3 0x29A JUMPI PUSH3 0x277 SWAP3 ADD PUSH3 0x3ED JUMP JUMPDEST CALLVALUE PUSH3 0x29A JUMPI PUSH3 0x7C1 PUSH3 0x90C CALLDATASIZE PUSH1 0x4 PUSH3 0x89B JUMP JUMPDEST SWAP3 SWAP2 SWAP1 SWAP2 PUSH3 0x247E JUMP JUMPDEST CALLVALUE PUSH3 0x29A JUMPI PUSH3 0x929 CALLDATASIZE PUSH1 0x4 PUSH3 0x5B3 JUMP JUMPDEST PUSH3 0x7C1 PUSH3 0xE34 JUMP JUMPDEST SWAP2 SWAP1 PUSH1 0x40 DUP4 DUP3 SUB SLT PUSH3 0x29A JUMPI PUSH3 0x277 SWAP1 PUSH3 0x951 DUP2 DUP6 PUSH3 0x29F JUMP JUMPDEST SWAP4 PUSH1 0x20 ADD PUSH3 0x2CF JUMP JUMPDEST CALLVALUE PUSH3 0x29A JUMPI PUSH3 0x96E CALLDATASIZE PUSH1 0x4 PUSH3 0x933 JUMP JUMPDEST SWAP1 PUSH3 0x2933 JUMP JUMPDEST CALLVALUE PUSH3 0x29A JUMPI PUSH3 0x7C1 PUSH3 0x98C CALLDATASIZE PUSH1 0x4 PUSH3 0x5F0 JUMP JUMPDEST PUSH3 0x28BF JUMP JUMPDEST CALLVALUE PUSH3 0x29A JUMPI PUSH3 0x9A5 CALLDATASIZE PUSH1 0x4 PUSH3 0x5B3 JUMP JUMPDEST PUSH3 0x5AF PUSH3 0x5E0 PUSH3 0x2899 JUMP JUMPDEST CALLVALUE PUSH3 0x29A JUMPI PUSH3 0x9C6 CALLDATASIZE PUSH1 0x4 PUSH3 0x5B3 JUMP JUMPDEST PUSH3 0x5AF PUSH3 0x6E1 PUSH3 0xDE3 JUMP JUMPDEST SWAP2 SWAP1 PUSH1 0x40 DUP4 DUP3 SUB SLT PUSH3 0x29A JUMPI PUSH3 0x277 SWAP1 PUSH3 0x9F2 DUP2 DUP6 PUSH3 0x29F JUMP JUMPDEST SWAP4 PUSH1 0x20 ADD PUSH3 0x29F JUMP JUMPDEST PUSH3 0x25E PUSH3 0x277 PUSH3 0x277 SWAP3 PUSH20 0xFFFFFFFFFFFFFFFFFFFFFFFFFFFFFFFFFFFFFFFF AND SWAP1 JUMP JUMPDEST PUSH3 0x277 SWAP1 PUSH3 0x9FC JUMP JUMPDEST PUSH3 0x277 SWAP1 PUSH3 0xA22 JUMP JUMPDEST SWAP1 PUSH3 0xA44 SWAP1 PUSH3 0xA2D JUMP JUMPDEST PUSH1 0x0 MSTORE PUSH1 0x20 MSTORE PUSH1 0x40 PUSH1 0x0 KECCAK256 SWAP1 JUMP JUMPDEST PUSH3 0xA71 PUSH3 0x277 SWAP3 PUSH3 0xA6B PUSH1 0x1 SWAP4 PUSH1 0x0 SWAP5 PUSH3 0xA38 JUMP JUMPDEST PUSH3 0xA38 JUMP JUMPDEST PUSH3 0x683 JUMP JUMPDEST CALLVALUE PUSH3 0x29A JUMPI PUSH3 0x5AF PUSH3 0x6E1 PUSH3 0xA92 CALLDATASIZE PUSH1 0x4 PUSH3 0x9D4 JUMP JUMPDEST SWAP1 PUSH3 0xA52 JUMP JUMPDEST PUSH3 0x277 PUSH3 0x277 PUSH3 0x277 SWAP3 SWAP1 JUMP JUMPDEST PUSH3 0x277 PUSH2 0x3E8 PUSH3 0xA99 JUMP JUMPDEST PUSH3 0x277 PUSH3 0xAA9 JUMP JUMPDEST CALLVALUE PUSH3 0x29A JUMPI PUSH3 0xAD3 CALLDATASIZE PUSH1 0x4 PUSH3 0x5B3 JUMP JUMPDEST PUSH3 0x5AF PUSH3 0x5E0 PUSH3 0xAB6 JUMP JUMPDEST PUSH3 0x277 PUSH1 0x0 PUSH1 0x4 PUSH3 0x683 JUMP JUMPDEST CALLVALUE PUSH3 0x29A JUMPI PUSH3 0xB02 CALLDATASIZE PUSH1 0x4 PUSH3 0x5B3 JUMP JUMPDEST PUSH3 0x5AF PUSH3 0x6E1 PUSH3 0xAE1 JUMP JUMPDEST PUSH3 0x277 SWAP2 PUSH1 0x8 MUL SHR DUP2 JUMP JUMPDEST SWAP1 PUSH3 0x277 SWAP2 SLOAD PUSH3 0xB10 JUMP JUMPDEST PUSH3 0x277 PUSH1 0x0 PUSH1 0x5 PUSH3 0xB1C JUMP JUMPDEST CALLVALUE PUSH3 0x29A JUMPI PUSH3 0xB4A CALLDATASIZE PUSH1 0x4 PUSH3 0x5B3 JUMP JUMPDEST PUSH3 0x5AF PUSH3 0x5E0 PUSH3 0xB29 JUMP JUMPDEST SWAP1 PUSH1 0x80 DUP3 DUP3 SUB SLT PUSH3 0x29A JUMPI PUSH3 0xB70 DUP2 DUP4 PUSH3 0x29F JUMP JUMPDEST SWAP3 PUSH3 0x8C3 DUP3 PUSH1 0x20 DUP6 ADD PUSH3 0x2B7 JUMP JUMPDEST PUSH3 0xB8D CALLDATASIZE PUSH1 0x4 PUSH3 0xB58 JUMP JUMPDEST SWAP3 SWAP2 SWAP1 SWAP2 PUSH3 0x29D8 JUMP JUMPDEST SWAP1 PUSH1 0xE0 DUP3 DUP3 SUB SLT PUSH3 0x29A JUMPI PUSH3 0xBAF DUP2 DUP4 PUSH3 0x29F JUMP JUMPDEST SWAP3 PUSH3 0xBBF DUP3 PUSH1 0x20 DUP6 ADD PUSH3 0x29F JUMP JUMPDEST SWAP3 PUSH3 0xBCF DUP4 PUSH1 0x40 DUP4 ADD PUSH3 0x2B7 JUMP JUMPDEST SWAP3 PUSH3 0xBDF DUP2 PUSH1 0x60 DUP5 ADD PUSH3 0x2B7 JUMP JUMPDEST SWAP3 PUSH3 0xBEF DUP3 PUSH1 0x80 DUP6 ADD PUSH3 0x2CF JUMP JUMPDEST SWAP3 PUSH3 0xBFF DUP4 PUSH1 0xA0 DUP4 ADD PUSH3 0x2B7 JUMP JUMPDEST SWAP3 PUSH1 0xC0 DUP3 ADD CALLDATALOAD PUSH8 0xFFFFFFFFFFFFFFFF DUP2 GT PUSH3 0x29A JUMPI PUSH3 0x277 SWAP3 ADD PUSH3 0x3ED JUMP JUMPDEST CALLVALUE PUSH3 0x29A JUMPI PUSH3 0x596 PUSH3 0xC38 CALLDATASIZE PUSH1 0x4 PUSH3 0xB97 JUMP JUMPDEST SWAP6 SWAP5 SWAP1 SWAP5 SWAP4 SWAP2 SWAP4 PUSH3 0x1641 JUMP JUMPDEST SWAP1 PUSH1 0x20 DUP3 DUP3 SUB SLT PUSH3 0x29A JUMPI PUSH3 0x277 SWAP2 PUSH3 0x29F JUMP JUMPDEST CALLVALUE PUSH3 0x29A JUMPI PUSH3 0x7C1 PUSH3 0xC73 CALLDATASIZE PUSH1 0x4 PUSH3 0xC45 JUMP JUMPDEST PUSH3 0x27E5 JUMP JUMPDEST CALLVALUE PUSH3 0x29A JUMPI PUSH3 0x5AF PUSH3 0x6E1 PUSH3 0xC94 CALLDATASIZE PUSH1 0x4 PUSH3 0x9D4 JUMP JUMPDEST SWAP1 PUSH3 0x22E4 JUMP JUMPDEST CALLVALUE PUSH3 0x29A JUMPI PUSH3 0xCAE CALLDATASIZE PUSH1 0x4 PUSH3 0x7E3 JUMP JUMPDEST SWAP1 PUSH3 0x2A37 JUMP JUMPDEST SWAP1 PUSH1 0x20 DUP3 DUP3 SUB SLT PUSH3 0x29A JUMPI PUSH3 0x277 SWAP2 PUSH3 0x2CF JUMP JUMPDEST CALLVALUE PUSH3 0x29A JUMPI PUSH3 0x71B CALLDATASIZE PUSH1 0x4 PUSH3 0xCB5 JUMP JUMPDEST CALLVALUE PUSH3 0x29A JUMPI PUSH3 0x5AF PUSH3 0x6E1 PUSH3 0xCFA CALLDATASIZE PUSH1 0x4 PUSH3 0x9D4 JUMP JUMPDEST SWAP1 PUSH3 0x1035 JUMP JUMPDEST SWAP1 DUP2 PUSH1 0x20 SWAP2 SUB SLT PUSH3 0x29A JUMPI SWAP1 JUMP JUMPDEST SWAP1 SWAP2 PUSH1 0x60 DUP3 DUP5 SUB SLT PUSH3 0x29A JUMPI PUSH3 0x277 PUSH3 0xD2D DUP5 DUP5 PUSH3 0x29F JUMP JUMPDEST SWAP4 PUSH3 0xD3D DUP2 PUSH1 0x20 DUP7 ADD PUSH3 0x29F JUMP JUMPDEST SWAP4 PUSH1 0x40 ADD PUSH3 0xD01 JUMP JUMPDEST CALLVALUE PUSH3 0x29A JUMPI PUSH3 0x5AF PUSH3 0x6E1 PUSH3 0xD62 CALLDATASIZE PUSH1 0x4 PUSH3 0xD10 JUMP JUMPDEST SWAP2 PUSH3 0x295F JUMP JUMPDEST PUSH3 0x277 PUSH2 0x2710 PUSH3 0xA99 JUMP JUMPDEST PUSH3 0x277 PUSH3 0xD69 JUMP JUMPDEST CALLVALUE PUSH3 0x29A JUMPI PUSH3 0x7C1 PUSH3 0xD97 CALLDATASIZE PUSH1 0x4 PUSH3 0xC45 JUMP JUMPDEST PUSH3 0xF84 JUMP JUMPDEST PUSH3 0x277 PUSH1 0x0 PUSH1 0x3 PUSH3 0xB1C JUMP JUMPDEST CALLVALUE PUSH3 0x29A JUMPI PUSH3 0xDBE CALLDATASIZE PUSH1 0x4 PUSH3 0x5B3 JUMP JUMPDEST PUSH3 0x5AF PUSH3 0x5E0 PUSH3 0xD9D JUMP JUMPDEST PUSH3 0x277 SWAP1 PUSH3 0x25E JUMP JUMPDEST PUSH3 0x277 SWAP1 SLOAD PUSH3 0xDCC JUMP JUMPDEST PUSH3 0x277 PUSH1 0x0 PUSH3 0xDD7 JUMP JUMPDEST PUSH3 0xDF9 PUSH3 0xE3E JUMP JUMPDEST PUSH3 0x2AE PUSH3 0xE1E JUMP JUMPDEST PUSH3 0x25E PUSH3 0x277 PUSH3 0x277 SWAP3 SWAP1 JUMP JUMPDEST PUSH3 0x277 SWAP1 PUSH3 0xE03 JUMP JUMPDEST PUSH3 0x2AE PUSH3 0xE2E PUSH1 0x0 PUSH3 0xE13 JUMP JUMPDEST PUSH3 0xFD1 JUMP JUMPDEST PUSH3 0x2AE PUSH3 0xDEF JUMP JUMPDEST PUSH3 0xE48 PUSH3 0xDE3 JUMP JUMPDEST CALLER SWAP1 PUSH3 0xE6A DUP3 JUMPDEST SWAP2 PUSH20 0xFFFFFFFFFFFFFFFFFFFFFFFFFFFFFFFFFFFFFFFF AND SWAP1 JUMP JUMPDEST SUB PUSH3 0xE73 JUMPI POP JUMP JUMPDEST PUSH3 0xECC SWAP1 PUSH3 0xE82 PUSH1 0x40 MLOAD SWAP1 JUMP JUMPDEST SWAP2 DUP3 SWAP2 PUSH32 0x118CDAA700000000000000000000000000000000000000000000000000000000 DUP4 MSTORE PUSH1 0x4 DUP4 ADD PUSH20 0xFFFFFFFFFFFFFFFFFFFFFFFFFFFFFFFFFFFFFFFF SWAP1 SWAP2 AND DUP2 MSTORE PUSH1 0x20 ADD SWAP1 JUMP JUMPDEST SUB SWAP1 REVERT JUMPDEST PUSH3 0x2AE SWAP1 PUSH3 0xEDF PUSH3 0xE3E JUMP JUMPDEST PUSH3 0xEEB PUSH1 0x0 PUSH3 0xE13 JUMP JUMPDEST PUSH20 0xFFFFFFFFFFFFFFFFFFFFFFFFFFFFFFFFFFFFFFFF DUP2 AND PUSH20 0xFFFFFFFFFFFFFFFFFFFFFFFFFFFFFFFFFFFFFFFF DUP4 AND EQ PUSH3 0xF2B JUMPI POP PUSH3 0x2AE SWAP1 PUSH3 0xFD1 JUMP JUMPDEST PUSH3 0xECC SWAP1 PUSH3 0xF3A PUSH1 0x40 MLOAD SWAP1 JUMP JUMPDEST SWAP2 DUP3 SWAP2 PUSH32 0x1E4FBDF700000000000000000000000000000000000000000000000000000000 DUP4 MSTORE PUSH1 0x4 DUP4 ADD PUSH20 0xFFFFFFFFFFFFFFFFFFFFFFFFFFFFFFFFFFFFFFFF SWAP1 SWAP2 AND DUP2 MSTORE PUSH1 0x20 ADD SWAP1 JUMP JUMPDEST PUSH3 0x2AE SWAP1 PUSH3 0xED0 JUMP JUMPDEST SWAP1 PUSH20 0xFFFFFFFFFFFFFFFFFFFFFFFFFFFFFFFFFFFFFFFF SWAP1 JUMPDEST SWAP2 DUP2 NOT AND SWAP2 AND OR SWAP1 JUMP JUMPDEST SWAP1 PUSH3 0xFC5 PUSH3 0x277 PUSH3 0xFCD SWAP3 PUSH3 0xA2D JUMP JUMPDEST DUP3 SLOAD PUSH3 0xF8F JUMP JUMPDEST SWAP1 SSTORE JUMP JUMPDEST PUSH3 0xFDD PUSH1 0x0 PUSH3 0xDD7 JUMP JUMPDEST SWAP1 PUSH3 0xFEB DUP2 PUSH1 0x0 PUSH3 0xFB1 JUMP JUMPDEST PUSH3 0x1022 PUSH3 0x101B PUSH32 0x8BE0079C531659141344CD1FD0A4F28419497F9722A3DAAFE3B4186F6B6457E0 SWAP4 PUSH3 0xA2D JUMP JUMPDEST SWAP2 PUSH3 0xA2D JUMP JUMPDEST SWAP2 PUSH3 0x102D PUSH1 0x40 MLOAD SWAP1 JUMP JUMPDEST DUP1 DUP1 JUMPDEST SUB SWAP1 LOG3 JUMP JUMPDEST PUSH3 0x277 SWAP2 SWAP1 PUSH3 0x120C JUMP JUMPDEST PUSH3 0x537 SWAP1 PUSH20 0xFFFFFFFFFFFFFFFFFFFFFFFFFFFFFFFFFFFFFFFF AND PUSH1 0x60 SHL SWAP1 JUMP JUMPDEST PUSH1 0x14 DUP2 PUSH3 0x1077 PUSH3 0x3A7 SWAP4 DUP4 SWAP7 SWAP6 PUSH3 0x1041 JUMP JUMPDEST ADD DUP1 SWAP3 PUSH3 0x1041 JUMP JUMPDEST PUSH20 0xFFFFFFFFFFFFFFFFFFFFFFFFFFFFFFFFFFFFFFFF SWAP1 SWAP2 AND DUP2 MSTORE PUSH1 0x40 DUP2 ADD SWAP3 SWAP2 PUSH3 0x2AE SWAP2 PUSH1 0x20 SWAP1 JUMPDEST ADD SWAP1 PUSH20 0xFFFFFFFFFFFFFFFFFFFFFFFFFFFFFFFFFFFFFFFF AND SWAP1 MSTORE JUMP JUMPDEST PUSH1 0x40 MLOAD RETURNDATASIZE PUSH1 0x0 DUP3 RETURNDATACOPY RETURNDATASIZE SWAP1 REVERT JUMPDEST SWAP2 SWAP1 PUSH1 0x8 PUSH3 0xFA7 SWAP2 MUL SWAP2 PUSH3 0x10FA PUSH20 0xFFFFFFFFFFFFFFFFFFFFFFFFFFFFFFFFFFFFFFFF DUP5 SHL SWAP1 JUMP JUMPDEST SWAP3 SHL SWAP1 JUMP JUMPDEST SWAP2 SWAP1 PUSH3 0x1114 PUSH3 0x277 PUSH3 0xFCD SWAP4 PUSH3 0xA2D JUMP JUMPDEST SWAP1 DUP4 SLOAD PUSH3 0x10D1 JUMP JUMPDEST SWAP1 DUP2 SLOAD SWAP2 PUSH9 0x10000000000000000 DUP4 LT ISZERO PUSH3 0x34E JUMPI DUP3 PUSH3 0x1149 SWAP2 PUSH1 0x1 PUSH3 0x2AE SWAP6 ADD DUP2 SSTORE PUSH3 0x636 JUMP JUMPDEST SWAP1 PUSH3 0x10FF JUMP JUMPDEST PUSH3 0x277 SWAP1 DUP2 JUMP JUMPDEST PUSH3 0x277 SWAP1 SLOAD PUSH3 0x1150 JUMP JUMPDEST PUSH32 0x4E487B7100000000000000000000000000000000000000000000000000000000 PUSH1 0x0 MSTORE PUSH1 0x11 PUSH1 0x4 MSTORE PUSH1 0x24 PUSH1 0x0 REVERT JUMPDEST PUSH32 0xFFFFFFFFFFFFFFFFFFFFFFFFFFFFFFFFFFFFFFFFFFFFFFFFFFFFFFFFFFFFFFFF DUP2 EQ PUSH3 0x11C1 JUMPI PUSH1 0x1 ADD SWAP1 JUMP JUMPDEST PUSH3 0x1164 JUMP JUMPDEST SWAP1 PUSH32 0xFFFFFFFFFFFFFFFFFFFFFFFFFFFFFFFFFFFFFFFFFFFFFFFFFFFFFFFFFFFFFFFF SWAP1 PUSH3 0xFA7 JUMP JUMPDEST SWAP1 PUSH3 0x1204 PUSH3 0x277 PUSH3 0xFCD SWAP3 PUSH3 0xA99 JUMP JUMPDEST DUP3 SLOAD PUSH3 0x11C7 JUMP JUMPDEST SWAP2 SWAP1 PUSH20 0xFFFFFFFFFFFFFFFFFFFFFFFFFFFFFFFFFFFFFFFF DUP2 AND PUSH20 0xFFFFFFFFFFFFFFFFFFFFFFFFFFFFFFFFFFFFFFFF DUP5 AND EQ PUSH3 0x15BE JUMPI PUSH1 0x0 PUSH3 0x124F DUP2 PUSH3 0xE13 JUMP JUMPDEST SWAP4 PUSH20 0xFFFFFFFFFFFFFFFFFFFFFFFFFFFFFFFFFFFFFFFF DUP6 AND PUSH20 0xFFFFFFFFFFFFFFFFFFFFFFFFFFFFFFFFFFFFFFFF DUP3 AND EQ DUP1 ISZERO PUSH3 0x1588 JUMPI JUMPDEST PUSH3 0x155D JUMPI PUSH20 0xFFFFFFFFFFFFFFFFFFFFFFFFFFFFFFFFFFFFFFFF DUP4 AND PUSH20 0xFFFFFFFFFFFFFFFFFFFFFFFFFFFFFFFFFFFFFFFF DUP3 AND LT ISZERO PUSH3 0x1556 JUMPI SWAP2 SWAP1 JUMPDEST PUSH1 0x1 SWAP1 PUSH3 0x12E2 PUSH3 0x12DC DUP5 PUSH3 0xA6B DUP8 DUP7 PUSH3 0xA38 JUMP JUMPDEST PUSH3 0xDD7 JUMP JUMPDEST PUSH3 0x1303 PUSH20 0xFFFFFFFFFFFFFFFFFFFFFFFFFFFFFFFFFFFFFFFF DUP9 AND PUSH3 0xE50 JUMP JUMPDEST SUB PUSH3 0x152B JUMPI PUSH3 0x1389 PUSH2 0x3337 PUSH3 0x131E PUSH1 0x20 DUP3 ADD PUSH3 0x354 JUMP JUMPDEST SWAP1 DUP1 DUP3 MSTORE PUSH3 0x2ABD PUSH1 0x20 DUP4 ADD CODECOPY PUSH1 0x40 MLOAD PUSH3 0x1351 DUP2 PUSH1 0x20 DUP2 ADD PUSH3 0x1344 DUP10 DUP12 DUP4 PUSH3 0x1062 JUMP JUMPDEST SWAP1 DUP2 SUB DUP3 MSTORE SUB DUP3 PUSH3 0x30D JUMP JUMPDEST PUSH3 0x1365 PUSH3 0x135E DUP3 MLOAD SWAP1 JUMP JUMPDEST SWAP2 PUSH1 0x20 ADD SWAP1 JUMP JUMPDEST KECCAK256 SWAP1 PUSH1 0x20 DUP2 MLOAD SWAP2 ADD DUP5 CREATE2 SWAP7 PUSH20 0xFFFFFFFFFFFFFFFFFFFFFFFFFFFFFFFFFFFFFFFF AND SWAP1 JUMP JUMPDEST PUSH20 0xFFFFFFFFFFFFFFFFFFFFFFFFFFFFFFFFFFFFFFFF DUP8 AND EQ PUSH3 0x1500 JUMPI PUSH3 0x13BB PUSH3 0x13B5 DUP8 PUSH3 0xA2D JUMP JUMPDEST PUSH3 0xA2D JUMP JUMPDEST SWAP2 PUSH4 0x485CC955 SWAP3 DUP1 EXTCODESIZE ISZERO PUSH3 0x29A JUMPI PUSH3 0x13E4 SWAP4 DUP4 SWAP2 PUSH3 0x13DB PUSH1 0x40 MLOAD SWAP1 JUMP JUMPDEST SWAP6 DUP7 SWAP3 PUSH1 0xE0 SHL SWAP1 JUMP JUMPDEST DUP3 MSTORE DUP2 DUP4 DUP2 PUSH3 0x13F9 DUP11 DUP13 PUSH1 0x4 DUP5 ADD PUSH3 0x1080 JUMP JUMPDEST SUB SWAP3 GAS CALL SWAP2 DUP3 ISZERO PUSH3 0x14FA JUMPI PUSH3 0xA6B DUP6 PUSH3 0x1436 SWAP4 DUP9 SWAP4 PUSH3 0x143C SWAP8 DUP13 SWAP8 PUSH3 0x14C6 JUMPI JUMPDEST POP POP PUSH3 0xA6B DUP7 PUSH3 0x1436 DUP5 PUSH3 0xA6B DUP9 DUP7 PUSH3 0xA38 JUMP JUMPDEST PUSH3 0xFB1 JUMP JUMPDEST PUSH3 0x1474 PUSH1 0x2 PUSH3 0x144E DUP7 DUP3 PUSH3 0x111D JUMP JUMPDEST PUSH3 0x1470 PUSH3 0x1468 PUSH3 0x1462 PUSH1 0x3 PUSH3 0x1158 JUMP JUMPDEST PUSH3 0x1193 JUMP JUMPDEST PUSH1 0x3 PUSH3 0x11F0 JUMP JUMPDEST SLOAD SWAP1 JUMP JUMPDEST SWAP2 PUSH3 0x1030 PUSH3 0x14B0 PUSH3 0x14A9 PUSH32 0xD3648BD0F6BA80134A33BA9275AC585D9D315F0AD8355CDDEFDE31AFA28D0E9 SWAP4 PUSH3 0xA2D JUMP JUMPDEST SWAP4 PUSH3 0xA2D JUMP JUMPDEST SWAP4 PUSH3 0x14BB PUSH1 0x40 MLOAD SWAP1 JUMP JUMPDEST SWAP2 DUP3 SWAP2 DUP9 DUP4 PUSH3 0x53B JUMP JUMPDEST DUP2 PUSH3 0x14EA SWAP3 SWAP1 RETURNDATASIZE LT PUSH3 0x14F2 JUMPI JUMPDEST PUSH3 0x14E1 DUP2 DUP4 PUSH3 0x30D JUMP JUMPDEST DUP2 ADD SWAP1 PUSH3 0x5B3 JUMP JUMPDEST CODESIZE DUP1 PUSH3 0x141E JUMP JUMPDEST POP RETURNDATASIZE PUSH3 0x14D5 JUMP JUMPDEST PUSH3 0x10C5 JUMP JUMPDEST PUSH1 0x40 MLOAD PUSH32 0x4A5B3EE00000000000000000000000000000000000000000000000000000000 DUP2 MSTORE PUSH1 0x4 SWAP1 REVERT JUMPDEST PUSH1 0x40 MLOAD PUSH32 0x3D77E89100000000000000000000000000000000000000000000000000000000 DUP2 MSTORE PUSH1 0x4 SWAP1 REVERT JUMPDEST SWAP1 PUSH3 0x12C4 JUMP JUMPDEST PUSH1 0x40 MLOAD PUSH32 0xD92E233D00000000000000000000000000000000000000000000000000000000 DUP2 MSTORE PUSH1 0x4 SWAP1 REVERT JUMPDEST POP PUSH20 0xFFFFFFFFFFFFFFFFFFFFFFFFFFFFFFFFFFFFFFFF DUP6 AND PUSH20 0xFFFFFFFFFFFFFFFFFFFFFFFFFFFFFFFFFFFFFFFF DUP5 AND EQ PUSH3 0x1287 JUMP JUMPDEST PUSH1 0x40 MLOAD PUSH32 0x5C6D7B7300000000000000000000000000000000000000000000000000000000 DUP2 MSTORE PUSH1 0x4 SWAP1 REVERT JUMPDEST SWAP1 POP MLOAD SWAP1 PUSH3 0x2AE DUP3 PUSH3 0x2C6 JUMP JUMPDEST SWAP1 PUSH1 0x20 DUP3 DUP3 SUB SLT PUSH3 0x29A JUMPI PUSH3 0x277 SWAP2 PUSH3 0x15E9 JUMP JUMPDEST PUSH20 0xFFFFFFFFFFFFFFFFFFFFFFFFFFFFFFFFFFFFFFFF SWAP2 DUP3 AND DUP2 MSTORE SWAP2 AND PUSH1 0x20 DUP3 ADD MSTORE PUSH1 0x60 DUP2 ADD SWAP3 SWAP2 PUSH3 0x2AE SWAP2 PUSH1 0x40 ADD MSTORE JUMP JUMPDEST SWAP7 SWAP6 SWAP3 SWAP5 SWAP3 SWAP4 SWAP1 PUSH20 0xFFFFFFFFFFFFFFFFFFFFFFFFFFFFFFFFFFFFFFFF DUP2 AND PUSH20 0xFFFFFFFFFFFFFFFFFFFFFFFFFFFFFFFFFFFFFFFF DUP10 AND EQ PUSH3 0x15BE JUMPI PUSH1 0x0 PUSH3 0x1689 DUP2 PUSH3 0xE13 JUMP JUMPDEST PUSH20 0xFFFFFFFFFFFFFFFFFFFFFFFFFFFFFFFFFFFFFFFF DUP2 AND PUSH20 0xFFFFFFFFFFFFFFFFFFFFFFFFFFFFFFFFFFFFFFFF DUP12 AND EQ SWAP1 DUP2 ISZERO PUSH3 0x1877 JUMPI JUMPDEST POP PUSH3 0x155D JUMPI PUSH3 0x16D2 DUP2 PUSH3 0xA99 JUMP JUMPDEST DUP5 EQ DUP1 ISZERO PUSH3 0x1863 JUMPI JUMPDEST PUSH3 0x1838 JUMPI PUSH3 0x16ED DUP3 DUP11 PUSH3 0x120C JUMP JUMPDEST SWAP7 PUSH3 0x16FE PUSH3 0x13B5 DUP10 SWAP12 PUSH3 0xA2D JUMP JUMPDEST SWAP5 PUSH3 0x1738 PUSH1 0x20 PUSH4 0x23B872DD SWAP3 CALLER SWAP9 DUP13 DUP8 DUP12 PUSH3 0x171A PUSH1 0x40 MLOAD SWAP1 JUMP JUMPDEST SWAP7 DUP8 SWAP6 DUP7 SWAP5 DUP6 SWAP4 PUSH3 0x172C DUP13 PUSH1 0xE0 SHL SWAP1 JUMP JUMPDEST DUP6 MSTORE PUSH1 0x4 DUP6 ADD PUSH3 0x160F JUMP JUMPDEST SUB SWAP3 GAS CALL DUP1 ISZERO PUSH3 0x14FA JUMPI PUSH3 0x1755 SWAP2 PUSH1 0x0 SWAP2 PUSH3 0x1806 JUMPI POP ISZERO SWAP1 JUMP JUMPDEST PUSH3 0x17DB JUMPI PUSH3 0x178C PUSH1 0x20 SWAP4 PUSH3 0x1774 PUSH3 0x13B5 PUSH3 0x179A SWAP8 PUSH3 0xA2D JUMP JUMPDEST SWAP3 PUSH3 0x177F PUSH1 0x40 MLOAD SWAP1 JUMP JUMPDEST SWAP7 DUP8 SWAP6 DUP7 SWAP5 DUP6 SWAP4 PUSH1 0xE0 SHL SWAP1 JUMP JUMPDEST DUP4 MSTORE DUP14 DUP12 PUSH1 0x4 DUP6 ADD PUSH3 0x160F JUMP JUMPDEST SUB SWAP3 GAS CALL DUP1 ISZERO PUSH3 0x14FA JUMPI PUSH3 0x17B7 SWAP2 PUSH1 0x0 SWAP2 PUSH3 0x1806 JUMPI POP ISZERO SWAP1 JUMP JUMPDEST PUSH3 0x17DB JUMPI ISZERO PUSH3 0x17CD JUMPI PUSH3 0x277 SWAP4 PUSH3 0x1B2B JUMP JUMPDEST SWAP2 POP POP PUSH3 0x277 SWAP2 PUSH3 0x18D4 JUMP JUMPDEST PUSH1 0x40 MLOAD PUSH32 0x90B8EC1800000000000000000000000000000000000000000000000000000000 DUP2 MSTORE PUSH1 0x4 SWAP1 REVERT JUMPDEST PUSH3 0x182C SWAP2 POP PUSH1 0x20 RETURNDATASIZE DUP2 GT PUSH3 0x1830 JUMPI JUMPDEST PUSH3 0x1823 DUP2 DUP4 PUSH3 0x30D JUMP JUMPDEST DUP2 ADD SWAP1 PUSH3 0x15F8 JUMP JUMPDEST ISZERO SWAP1 JUMP JUMPDEST POP RETURNDATASIZE PUSH3 0x1817 JUMP JUMPDEST PUSH1 0x40 MLOAD PUSH32 0xD856FC5A00000000000000000000000000000000000000000000000000000000 DUP2 MSTORE PUSH1 0x4 SWAP1 REVERT JUMPDEST POP PUSH3 0x186F DUP2 PUSH3 0xA99 JUMP JUMPDEST DUP8 EQ PUSH3 0x16DC JUMP JUMPDEST PUSH20 0xFFFFFFFFFFFFFFFFFFFFFFFFFFFFFFFFFFFFFFFF AND SWAP1 POP PUSH20 0xFFFFFFFFFFFFFFFFFFFFFFFFFFFFFFFFFFFFFFFF DUP4 AND EQ CODESIZE PUSH3 0x16C1 JUMP JUMPDEST SWAP1 POP MLOAD SWAP1 PUSH3 0x2AE DUP3 PUSH3 0x2B0 JUMP JUMPDEST SWAP1 PUSH1 0x20 DUP3 DUP3 SUB SLT PUSH3 0x29A JUMPI PUSH3 0x277 SWAP2 PUSH3 0x18AE JUMP JUMPDEST PUSH3 0x193B SWAP3 SWAP2 PUSH3 0x18F5 PUSH3 0x13B5 PUSH1 0x20 SWAP4 PUSH3 0x18EE PUSH1 0x0 SWAP1 JUMP JUMPDEST POP PUSH3 0xA2D JUMP JUMPDEST PUSH3 0x1917 PUSH1 0x0 PUSH4 0x6A627842 PUSH3 0x190A PUSH1 0x40 MLOAD SWAP1 JUMP JUMPDEST SWAP8 DUP9 SWAP6 DUP7 SWAP5 DUP6 SWAP4 PUSH1 0xE0 SHL SWAP1 JUMP JUMPDEST DUP4 MSTORE PUSH20 0xFFFFFFFFFFFFFFFFFFFFFFFFFFFFFFFFFFFFFFFF AND PUSH1 0x4 DUP4 ADD MSTORE PUSH1 0x24 DUP3 ADD SWAP1 JUMP JUMPDEST SUB SWAP3 GAS CALL SWAP2 DUP3 ISZERO PUSH3 0x14FA JUMPI PUSH1 0x0 SWAP3 PUSH3 0x1999 JUMPI JUMPDEST POP DUP2 PUSH3 0x1966 PUSH3 0x1962 PUSH1 0x0 PUSH3 0xA99 JUMP JUMPDEST SWAP2 SWAP1 JUMP JUMPDEST EQ PUSH3 0x196E JUMPI JUMP JUMPDEST PUSH1 0x40 MLOAD PUSH32 0x7637BD800000000000000000000000000000000000000000000000000000000 DUP2 MSTORE PUSH1 0x4 SWAP1 REVERT JUMPDEST PUSH3 0x19C0 SWAP2 SWAP3 POP PUSH1 0x20 RETURNDATASIZE DUP2 GT PUSH3 0x19C8 JUMPI JUMPDEST PUSH3 0x19B7 DUP2 DUP4 PUSH3 0x30D JUMP JUMPDEST DUP2 ADD SWAP1 PUSH3 0x18BD JUMP JUMPDEST SWAP1 CODESIZE PUSH3 0x1950 JUMP JUMPDEST POP RETURNDATASIZE PUSH3 0x19AB JUMP JUMPDEST DUP2 DUP2 MUL SWAP3 SWAP2 DUP2 ISZERO SWAP2 DUP5 DIV EQ OR ISZERO PUSH3 0x11C1 JUMPI JUMP JUMPDEST PUSH32 0x4E487B7100000000000000000000000000000000000000000000000000000000 PUSH1 0x0 MSTORE PUSH1 0x12 PUSH1 0x4 MSTORE PUSH1 0x24 PUSH1 0x0 REVERT JUMPDEST DUP2 ISZERO PUSH3 0x1A1E JUMPI DIV SWAP1 JUMP JUMPDEST PUSH3 0x19E4 JUMP JUMPDEST SWAP2 SWAP1 DUP3 SUB SWAP2 DUP3 GT PUSH3 0x11C1 JUMPI JUMP JUMPDEST PUSH1 0x0 JUMPDEST DUP4 DUP2 LT PUSH3 0x1A46 JUMPI POP POP PUSH1 0x0 SWAP2 ADD MSTORE JUMP JUMPDEST DUP2 DUP2 ADD MLOAD DUP4 DUP3 ADD MSTORE PUSH1 0x20 ADD PUSH3 0x1A35 JUMP JUMPDEST PUSH3 0x1A7C PUSH3 0x1A86 PUSH1 0x20 SWAP4 PUSH3 0x3A7 SWAP4 PUSH3 0x1A70 DUP2 MLOAD SWAP1 JUMP JUMPDEST DUP1 DUP4 MSTORE SWAP4 DUP5 SWAP3 PUSH1 0x20 ADD SWAP1 JUMP JUMPDEST SWAP6 DUP7 SWAP2 ADD PUSH3 0x1A32 JUMP JUMPDEST PUSH1 0x1F ADD PUSH32 0xFFFFFFFFFFFFFFFFFFFFFFFFFFFFFFFFFFFFFFFFFFFFFFFFFFFFFFFFFFFFFFE0 AND SWAP1 JUMP JUMPDEST SWAP7 SWAP6 SWAP4 SWAP5 PUSH3 0x1B04 PUSH3 0x2AE SWAP7 PUSH3 0x1AFD PUSH1 0xA0 SWAP7 PUSH3 0x1AF6 PUSH3 0x1B12 SWAP8 PUSH1 0x20 DUP15 PUSH3 0x10A9 PUSH1 0xC0 DUP3 ADD SWAP11 PUSH1 0x0 DUP4 ADD SWAP1 PUSH20 0xFFFFFFFFFFFFFFFFFFFFFFFFFFFFFFFFFFFFFFFF AND SWAP1 MSTORE JUMP JUMPDEST PUSH1 0x40 DUP13 ADD MSTORE JUMP JUMPDEST PUSH1 0x60 DUP11 ADD MSTORE JUMP JUMPDEST DUP8 DUP3 SUB PUSH1 0x80 DUP10 ADD MSTORE PUSH3 0x1A57 JUMP JUMPDEST SWAP5 ADD MSTORE JUMP JUMPDEST SWAP1 DUP2 MSTORE PUSH1 0x40 DUP2 ADD SWAP3 SWAP2 PUSH3 0x2AE SWAP2 PUSH1 0x20 ADD MSTORE JUMP JUMPDEST SWAP3 SWAP4 SWAP3 PUSH3 0x1B3A PUSH1 0x4 PUSH3 0xDD7 JUMP JUMPDEST SWAP3 PUSH1 0x0 SWAP4 PUSH3 0x1B51 PUSH3 0xE50 PUSH3 0x25E DUP8 PUSH3 0xE13 JUMP JUMPDEST EQ PUSH3 0x1DD5 JUMPI PUSH3 0x1B62 DUP5 PUSH3 0xA99 JUMP JUMPDEST DUP2 EQ PUSH3 0x1DAA JUMPI PUSH3 0x1BAD SWAP4 PUSH1 0x20 PUSH3 0x1B7F PUSH3 0x13B5 DUP6 PUSH3 0xA2D JUMP JUMPDEST PUSH4 0x6A627842 SWAP1 PUSH3 0x1917 DUP5 PUSH3 0x1B95 ADDRESS PUSH3 0xA2D JUMP JUMPDEST SWAP4 PUSH3 0x1BA0 PUSH1 0x40 MLOAD SWAP1 JUMP JUMPDEST SWAP11 DUP12 SWAP6 DUP7 SWAP5 DUP6 SWAP4 PUSH1 0xE0 SHL SWAP1 JUMP JUMPDEST SUB SWAP3 GAS CALL SWAP5 DUP6 ISZERO PUSH3 0x14FA JUMPI PUSH1 0x0 SWAP6 PUSH3 0x1D85 JUMPI JUMPDEST POP DUP5 SWAP7 PUSH3 0x1BD0 DUP3 PUSH3 0xA99 JUMP JUMPDEST DUP7 EQ PUSH3 0x196E JUMPI PUSH3 0x1C12 PUSH3 0x1C0A PUSH3 0x1BF6 PUSH3 0x1BEF PUSH1 0xA PUSH3 0xA99 JUMP JUMPDEST DUP10 PUSH3 0x19D0 JUMP JUMPDEST PUSH3 0x1C03 PUSH2 0x2710 PUSH3 0xA99 JUMP JUMPDEST SWAP1 PUSH3 0x1A13 JUMP JUMPDEST DUP1 SWAP8 PUSH3 0x1A24 JUMP JUMPDEST SWAP6 DUP7 PUSH1 0x20 PUSH3 0x1C25 PUSH3 0x13B5 DUP9 PUSH3 0xA2D JUMP JUMPDEST PUSH4 0x95EA7B3 SWAP1 PUSH3 0x1C58 DUP8 PUSH3 0x1C3C PUSH1 0x4 PUSH3 0xDD7 JUMP JUMPDEST SWAP4 PUSH3 0x1C64 PUSH3 0x1C4B PUSH1 0x40 MLOAD SWAP1 JUMP JUMPDEST SWAP8 DUP9 SWAP7 DUP8 SWAP6 DUP7 SWAP5 PUSH1 0xE0 SHL SWAP1 JUMP JUMPDEST DUP5 MSTORE PUSH1 0x4 DUP5 ADD PUSH3 0x53B JUMP JUMPDEST SUB SWAP3 GAS CALL DUP1 ISZERO PUSH3 0x14FA JUMPI PUSH3 0x1C81 SWAP2 PUSH1 0x0 SWAP2 PUSH3 0x1806 JUMPI POP ISZERO SWAP1 JUMP JUMPDEST PUSH3 0x1D5A JUMPI PUSH3 0x1C9A PUSH3 0x13B5 PUSH3 0x13B5 PUSH1 0x4 PUSH3 0xDD7 JUMP JUMPDEST PUSH4 0x44E5550F SWAP1 DUP1 EXTCODESIZE ISZERO PUSH3 0x29A JUMPI PUSH3 0x1CD0 DUP6 DUP9 SWAP4 PUSH3 0x1CDC DUP3 SWAP7 DUP13 SWAP9 DUP12 DUP16 PUSH3 0x1CC3 PUSH1 0x40 MLOAD SWAP1 JUMP JUMPDEST SWAP12 DUP13 SWAP11 DUP12 SWAP10 DUP11 SWAP9 PUSH1 0xE0 SHL SWAP1 JUMP JUMPDEST DUP9 MSTORE PUSH1 0x4 DUP9 ADD PUSH3 0x1AAE JUMP JUMPDEST SUB SWAP3 GAS CALL DUP1 ISZERO PUSH3 0x14FA JUMPI PUSH3 0x1D38 JUMPI JUMPDEST POP POP PUSH3 0x1D1F PUSH3 0x14A9 PUSH32 0x1888A9947A0BA12FBCAEA833C7145E4AE63C88020EDC424D7EDA6753FC3411E0 SWAP4 PUSH3 0xA2D JUMP JUMPDEST SWAP4 PUSH3 0x1030 PUSH3 0x1D2E PUSH1 0x40 MLOAD SWAP1 JUMP JUMPDEST SWAP3 DUP4 SWAP3 DUP4 PUSH3 0x1B17 JUMP JUMPDEST DUP2 PUSH3 0x1D52 SWAP3 SWAP1 RETURNDATASIZE LT PUSH3 0x14F2 JUMPI PUSH3 0x14E1 DUP2 DUP4 PUSH3 0x30D JUMP JUMPDEST CODESIZE DUP1 PUSH3 0x1CED JUMP JUMPDEST PUSH1 0x40 MLOAD PUSH32 0x3E3F8F7300000000000000000000000000000000000000000000000000000000 DUP2 MSTORE PUSH1 0x4 SWAP1 REVERT JUMPDEST PUSH3 0x1DA2 SWAP2 SWAP6 POP PUSH1 0x20 RETURNDATASIZE DUP2 GT PUSH3 0x19C8 JUMPI PUSH3 0x19B7 DUP2 DUP4 PUSH3 0x30D JUMP JUMPDEST SWAP4 CODESIZE PUSH3 0x1BC2 JUMP JUMPDEST PUSH1 0x40 MLOAD PUSH32 0x7616640100000000000000000000000000000000000000000000000000000000 DUP2 MSTORE PUSH1 0x4 SWAP1 REVERT JUMPDEST PUSH1 0x40 MLOAD PUSH32 0x5185AB000000000000000000000000000000000000000000000000000000000 DUP2 MSTORE PUSH1 0x4 SWAP1 REVERT JUMPDEST PUSH3 0x277 PUSH1 0x80 PUSH3 0x354 JUMP JUMPDEST SWAP14 SWAP5 SWAP10 SWAP2 SWAP7 SWAP12 SWAP3 SWAP8 SWAP13 SWAP4 SWAP9 SWAP1 SWAP6 SWAP11 SWAP13 PUSH3 0x1E24 PUSH1 0x0 SWAP1 JUMP JUMPDEST POP PUSH3 0x1E2F PUSH3 0x1E00 JUMP JUMPDEST SWAP13 DUP14 MSTORE PUSH1 0xFF AND PUSH1 0x20 DUP14 ADD MSTORE PUSH1 0x40 DUP13 ADD MSTORE PUSH1 0x60 DUP12 ADD MSTORE PUSH3 0x1E4E PUSH3 0x1E00 JUMP JUMPDEST SWAP11 DUP12 MSTORE PUSH1 0xFF AND PUSH1 0x20 DUP12 ADD MSTORE PUSH1 0x40 DUP11 ADD MSTORE PUSH1 0x60 DUP10 ADD MSTORE PUSH3 0x1E6E SWAP9 PUSH3 0x1EDA JUMP JUMPDEST SWAP1 SWAP2 JUMP JUMPDEST SWAP5 SWAP3 SWAP1 SWAP8 SWAP7 SWAP6 SWAP4 SWAP2 PUSH1 0xE0 DUP7 ADD SWAP9 PUSH1 0x0 DUP8 ADD PUSH3 0x1EA2 SWAP2 PUSH20 0xFFFFFFFFFFFFFFFFFFFFFFFFFFFFFFFFFFFFFFFF AND SWAP1 MSTORE JUMP JUMPDEST PUSH20 0xFFFFFFFFFFFFFFFFFFFFFFFFFFFFFFFFFFFFFFFF AND PUSH1 0x20 DUP7 ADD MSTORE PUSH1 0x40 DUP6 ADD MSTORE PUSH1 0x60 DUP5 ADD MSTORE PUSH1 0xFF AND PUSH1 0x80 DUP4 ADD MSTORE PUSH1 0xA0 DUP3 ADD MSTORE PUSH1 0xC0 ADD MSTORE JUMP JUMPDEST SWAP1 SWAP2 SWAP4 SWAP3 SWAP9 SWAP8 SWAP7 SWAP9 PUSH3 0x1EEB PUSH1 0x0 SWAP1 JUMP JUMPDEST POP PUSH20 0xFFFFFFFFFFFFFFFFFFFFFFFFFFFFFFFFFFFFFFFF DUP4 AND PUSH20 0xFFFFFFFFFFFFFFFFFFFFFFFFFFFFFFFFFFFFFFFF DUP4 AND EQ PUSH3 0x15BE JUMPI PUSH1 0x0 SWAP2 PUSH3 0x1F2E DUP4 PUSH3 0xE13 JUMP JUMPDEST PUSH20 0xFFFFFFFFFFFFFFFFFFFFFFFFFFFFFFFFFFFFFFFF DUP2 AND PUSH20 0xFFFFFFFFFFFFFFFFFFFFFFFFFFFFFFFFFFFFFFFF DUP4 AND EQ SWAP1 DUP2 ISZERO PUSH3 0x22AD JUMPI JUMPDEST POP PUSH3 0x155D JUMPI PUSH3 0x1F77 DUP4 PUSH3 0xA99 JUMP JUMPDEST DUP7 EQ DUP1 ISZERO PUSH3 0x2299 JUMPI JUMPDEST PUSH3 0x1838 JUMPI PUSH3 0x1F92 DUP5 DUP3 PUSH3 0x120C JUMP JUMPDEST SWAP9 DUP10 SWAP12 DUP5 DUP2 ADD SWAP1 PUSH3 0x1FA2 DUP3 MLOAD SWAP1 JUMP JUMPDEST PUSH3 0x1FB1 PUSH3 0x1962 DUP9 PUSH3 0xA99 JUMP JUMPDEST GT PUSH3 0x2168 JUMPI JUMPDEST POP POP DUP4 DUP2 ADD SWAP1 PUSH3 0x1FC7 DUP3 MLOAD SWAP1 JUMP JUMPDEST PUSH3 0x1FD6 PUSH3 0x1962 DUP8 PUSH3 0xA99 JUMP JUMPDEST GT PUSH3 0x1FEE JUMPI JUMPDEST POP POP PUSH3 0x13B5 PUSH3 0x16FE SWAP2 PUSH3 0xA2D JUMP JUMPDEST PUSH3 0x1FFD PUSH3 0x13B5 DUP8 PUSH3 0xA2D JUMP JUMPDEST PUSH4 0xD505ACCF SWAP1 CALLER SWAP3 PUSH3 0x2019 PUSH3 0x2014 ADDRESS PUSH3 0xA2D JUMP JUMPDEST SWAP6 MLOAD SWAP1 JUMP JUMPDEST SWAP2 PUSH3 0x2029 PUSH1 0x20 DUP4 ADD MLOAD PUSH1 0xFF AND SWAP1 JUMP JUMPDEST SWAP2 PUSH3 0x2042 PUSH1 0x60 PUSH3 0x203C PUSH1 0x40 DUP5 ADD MLOAD SWAP1 JUMP JUMPDEST SWAP3 ADD MLOAD SWAP1 JUMP JUMPDEST SWAP3 DUP3 EXTCODESIZE ISZERO PUSH3 0x29A JUMPI DUP8 SWAP6 PUSH3 0x2081 DUP9 SWAP6 PUSH3 0x2075 SWAP5 DUP15 SWAP9 SWAP5 DUP10 SWAP6 DUP16 PUSH3 0x2068 PUSH1 0x40 MLOAD SWAP1 JUMP JUMPDEST SWAP13 DUP14 SWAP12 DUP13 SWAP11 DUP12 SWAP10 PUSH1 0xE0 SHL SWAP1 JUMP JUMPDEST DUP10 MSTORE PUSH1 0x4 DUP10 ADD PUSH3 0x1E72 JUMP JUMPDEST SUB SWAP3 GAS CALL SWAP1 DUP2 PUSH3 0x2147 JUMPI JUMPDEST POP PUSH3 0x2136 JUMPI PUSH3 0x20AC JUMP JUMPDEST POP POP PUSH3 0x13B5 PUSH3 0x16FE SWAP2 JUMPDEST SWAP2 PUSH3 0x1FDD JUMP JUMPDEST PUSH1 0x20 SWAP1 PUSH3 0x20BE PUSH3 0x13B5 DUP9 PUSH3 0xA2D JUMP JUMPDEST PUSH3 0x20E2 PUSH4 0xDD62ED3E PUSH3 0x20EE PUSH3 0x20D5 PUSH1 0x40 MLOAD SWAP1 JUMP JUMPDEST SWAP7 DUP8 SWAP6 DUP7 SWAP5 DUP6 SWAP5 PUSH1 0xE0 SHL SWAP1 JUMP JUMPDEST DUP5 MSTORE PUSH1 0x4 DUP5 ADD PUSH3 0x1080 JUMP JUMPDEST SUB SWAP2 GAS STATICCALL SWAP1 DUP2 ISZERO PUSH3 0x14FA JUMPI PUSH1 0x0 SWAP2 PUSH3 0x2113 JUMPI JUMPDEST POP DUP3 GT PUSH3 0x17DB JUMPI CODESIZE DUP1 PUSH3 0x2099 JUMP JUMPDEST PUSH3 0x212F SWAP2 POP PUSH1 0x20 RETURNDATASIZE DUP2 GT PUSH3 0x19C8 JUMPI PUSH3 0x19B7 DUP2 DUP4 PUSH3 0x30D JUMP JUMPDEST CODESIZE PUSH3 0x2103 JUMP JUMPDEST POP POP PUSH3 0x13B5 PUSH3 0x16FE SWAP2 PUSH3 0x20A5 JUMP JUMPDEST PUSH3 0x2161 SWAP1 DUP8 RETURNDATASIZE DUP10 GT PUSH3 0x14F2 JUMPI PUSH3 0x14E1 DUP2 DUP4 PUSH3 0x30D JUMP JUMPDEST CODESIZE PUSH3 0x208D JUMP JUMPDEST PUSH3 0x2177 PUSH3 0x13B5 DUP6 PUSH3 0xA2D JUMP JUMPDEST PUSH4 0xD505ACCF SWAP1 CALLER SWAP3 PUSH3 0x218E PUSH3 0x2014 ADDRESS PUSH3 0xA2D JUMP JUMPDEST SWAP2 PUSH3 0x219E PUSH1 0x20 DUP4 ADD MLOAD PUSH1 0xFF AND SWAP1 JUMP JUMPDEST PUSH3 0x21B6 PUSH1 0x60 PUSH3 0x21B0 PUSH1 0x40 DUP7 ADD MLOAD SWAP1 JUMP JUMPDEST SWAP5 ADD MLOAD SWAP1 JUMP JUMPDEST SWAP4 DUP3 EXTCODESIZE ISZERO PUSH3 0x29A JUMPI DUP8 SWAP6 DUP16 DUP14 SWAP7 DUP10 SWAP7 PUSH3 0x2075 SWAP6 DUP10 SWAP6 PUSH3 0x21DC SWAP5 PUSH3 0x2068 PUSH1 0x40 MLOAD SWAP1 JUMP JUMPDEST SUB SWAP3 GAS CALL SWAP1 DUP2 PUSH3 0x2278 JUMPI JUMPDEST POP PUSH3 0x2270 JUMPI PUSH3 0x21FF JUMP JUMPDEST POP POP JUMPDEST CODESIZE DUP1 PUSH3 0x1FB8 JUMP JUMPDEST PUSH1 0x20 SWAP1 PUSH3 0x2211 PUSH3 0x13B5 DUP7 PUSH3 0xA2D JUMP JUMPDEST PUSH3 0x20E2 PUSH4 0xDD62ED3E PUSH3 0x2228 PUSH3 0x20D5 PUSH1 0x40 MLOAD SWAP1 JUMP JUMPDEST SUB SWAP2 GAS STATICCALL SWAP1 DUP2 ISZERO PUSH3 0x14FA JUMPI PUSH1 0x0 SWAP2 PUSH3 0x224D JUMPI JUMPDEST POP DUP8 GT PUSH3 0x17DB JUMPI CODESIZE DUP1 PUSH3 0x21F4 JUMP JUMPDEST PUSH3 0x2269 SWAP2 POP PUSH1 0x20 RETURNDATASIZE DUP2 GT PUSH3 0x19C8 JUMPI PUSH3 0x19B7 DUP2 DUP4 PUSH3 0x30D JUMP JUMPDEST CODESIZE PUSH3 0x223D JUMP JUMPDEST POP POP PUSH3 0x21F7 JUMP JUMPDEST PUSH3 0x2292 SWAP1 DUP9 RETURNDATASIZE DUP11 GT PUSH3 0x14F2 JUMPI PUSH3 0x14E1 DUP2 DUP4 PUSH3 0x30D JUMP JUMPDEST CODESIZE PUSH3 0x21E8 JUMP JUMPDEST POP PUSH3 0x22A5 DUP4 PUSH3 0xA99 JUMP JUMPDEST DUP3 EQ PUSH3 0x1F81 JUMP JUMPDEST PUSH20 0xFFFFFFFFFFFFFFFFFFFFFFFFFFFFFFFFFFFFFFFF AND SWAP1 POP PUSH20 0xFFFFFFFFFFFFFFFFFFFFFFFFFFFFFFFFFFFFFFFF DUP6 AND EQ CODESIZE PUSH3 0x1F66 JUMP JUMPDEST PUSH3 0x277 SWAP2 PUSH3 0x12DC SWAP2 PUSH20 0xFFFFFFFFFFFFFFFFFFFFFFFFFFFFFFFFFFFFFFFF DUP3 AND PUSH20 0xFFFFFFFFFFFFFFFFFFFFFFFFFFFFFFFFFFFFFFFF DUP3 AND LT ISZERO PUSH3 0x2331 JUMPI PUSH3 0xA6B SWAP1 JUMPDEST PUSH1 0x1 PUSH3 0xA38 JUMP JUMPDEST SWAP1 PUSH3 0xA6B SWAP1 PUSH3 0x2329 JUMP JUMPDEST SWAP2 SWAP1 SWAP4 SWAP5 SWAP3 SWAP5 PUSH3 0x234F PUSH1 0x4 PUSH3 0xDD7 JUMP JUMPDEST SWAP6 PUSH1 0x0 SWAP7 PUSH3 0x2366 PUSH3 0xE50 PUSH3 0x25E DUP11 PUSH3 0xE13 JUMP JUMPDEST EQ PUSH3 0x1DD5 JUMPI PUSH3 0x237B PUSH3 0x13B5 DUP6 PUSH3 0xA2D JUMP JUMPDEST CALLER PUSH1 0x20 PUSH3 0x172C PUSH4 0x23B872DD PUSH3 0x23A5 DUP9 PUSH3 0x2397 ADDRESS PUSH3 0xA2D JUMP JUMPDEST PUSH1 0x40 MLOAD SWAP7 DUP8 SWAP6 DUP7 SWAP6 PUSH1 0xE0 SHL SWAP1 JUMP JUMPDEST SUB DUP2 DUP13 DUP7 GAS CALL DUP1 ISZERO PUSH3 0x14FA JUMPI PUSH3 0x23C4 SWAP2 PUSH1 0x0 SWAP2 PUSH3 0x1806 JUMPI POP ISZERO SWAP1 JUMP JUMPDEST PUSH3 0x17DB JUMPI PUSH1 0x20 DUP5 SWAP2 PUSH4 0x95EA7B3 SWAP1 PUSH3 0x1C58 DUP12 PUSH3 0x23E4 PUSH1 0x4 PUSH3 0xDD7 JUMP JUMPDEST SWAP4 PUSH3 0x23F3 PUSH3 0x1C4B PUSH1 0x40 MLOAD SWAP1 JUMP JUMPDEST SUB SWAP3 GAS CALL DUP1 ISZERO PUSH3 0x14FA JUMPI PUSH3 0x2410 SWAP2 PUSH1 0x0 SWAP2 PUSH3 0x1806 JUMPI POP ISZERO SWAP1 JUMP JUMPDEST PUSH3 0x1D5A JUMPI PUSH3 0x2429 PUSH3 0x13B5 PUSH3 0x13B5 PUSH1 0x4 PUSH3 0xDD7 JUMP JUMPDEST SWAP3 PUSH4 0x44E5550F SWAP1 DUP5 EXTCODESIZE ISZERO PUSH3 0x29A JUMPI DUP9 SWAP7 PUSH3 0x1CD0 SWAP5 DUP9 SWAP5 PUSH3 0x2450 SWAP4 PUSH3 0x1CC3 PUSH1 0x40 MLOAD SWAP1 JUMP JUMPDEST SUB SWAP3 GAS CALL DUP1 ISZERO PUSH3 0x14FA JUMPI PUSH3 0x2464 JUMPI POP POP JUMP JUMPDEST DUP2 PUSH3 0x2AE SWAP3 SWAP1 RETURNDATASIZE LT PUSH3 0x14F2 JUMPI PUSH3 0x14E1 DUP2 DUP4 PUSH3 0x30D JUMP JUMPDEST SWAP1 SWAP2 PUSH3 0x248C PUSH1 0x4 PUSH3 0xDD7 JUMP JUMPDEST PUSH1 0x0 SWAP1 PUSH3 0x249A DUP3 PUSH3 0xE13 JUMP JUMPDEST SWAP1 PUSH3 0x24BC PUSH20 0xFFFFFFFFFFFFFFFFFFFFFFFFFFFFFFFFFFFFFFFF DUP4 AND PUSH3 0xE50 JUMP JUMPDEST EQ PUSH3 0x1DD5 JUMPI PUSH20 0xFFFFFFFFFFFFFFFFFFFFFFFFFFFFFFFFFFFFFFFF AND PUSH20 0xFFFFFFFFFFFFFFFFFFFFFFFFFFFFFFFFFFFFFFFF DUP5 AND EQ PUSH3 0x2659 JUMPI PUSH3 0x2504 PUSH3 0x13B5 DUP5 PUSH3 0xA2D JUMP JUMPDEST SWAP5 PUSH4 0x70A08231 SWAP6 PUSH3 0x2520 PUSH3 0x2519 PUSH1 0x40 MLOAD SWAP1 JUMP JUMPDEST SWAP8 PUSH1 0xE0 SHL SWAP1 JUMP JUMPDEST DUP8 MSTORE PUSH20 0xFFFFFFFFFFFFFFFFFFFFFFFFFFFFFFFFFFFFFFFF DUP7 AND PUSH1 0x4 DUP9 ADD MSTORE PUSH1 0x20 DUP8 PUSH1 0x24 DUP2 DUP5 GAS STATICCALL SWAP7 DUP8 ISZERO PUSH3 0x14FA JUMPI PUSH1 0x0 SWAP8 PUSH3 0x2634 JUMPI JUMPDEST POP PUSH3 0x2564 DUP4 PUSH3 0xA99 JUMP JUMPDEST DUP8 EQ PUSH3 0x2609 JUMPI PUSH3 0x257F PUSH3 0x1BF6 PUSH3 0x1BEF PUSH1 0xA PUSH3 0xA99 JUMP JUMPDEST SWAP1 PUSH3 0x258C DUP3 DUP10 PUSH3 0x1A24 JUMP JUMPDEST SWAP8 PUSH1 0x20 PUSH3 0x25BD PUSH4 0x23B872DD PUSH3 0x25CA PUSH3 0x25A7 ADDRESS PUSH3 0xA2D JUMP JUMPDEST SWAP5 PUSH3 0x25B2 PUSH1 0x40 MLOAD SWAP1 JUMP JUMPDEST SWAP6 DUP7 SWAP5 DUP6 SWAP5 PUSH1 0xE0 SHL SWAP1 JUMP JUMPDEST DUP5 MSTORE DUP14 PUSH1 0x4 DUP6 ADD PUSH3 0x160F JUMP JUMPDEST SUB DUP2 DUP9 DUP7 GAS CALL DUP1 ISZERO PUSH3 0x14FA JUMPI PUSH3 0x25E9 SWAP2 PUSH1 0x0 SWAP2 PUSH3 0x1806 JUMPI POP ISZERO SWAP1 JUMP JUMPDEST PUSH3 0x17DB JUMPI PUSH1 0x20 DUP9 SWAP2 PUSH4 0x95EA7B3 SWAP1 PUSH3 0x1C58 DUP8 PUSH3 0x1C3C PUSH1 0x4 PUSH3 0xDD7 JUMP JUMPDEST PUSH1 0x40 MLOAD PUSH32 0x962E4BCB00000000000000000000000000000000000000000000000000000000 DUP2 MSTORE PUSH1 0x4 SWAP1 REVERT JUMPDEST PUSH3 0x2651 SWAP2 SWAP8 POP PUSH1 0x20 RETURNDATASIZE DUP2 GT PUSH3 0x19C8 JUMPI PUSH3 0x19B7 DUP2 DUP4 PUSH3 0x30D JUMP JUMPDEST SWAP6 CODESIZE PUSH3 0x2558 JUMP JUMPDEST PUSH1 0x40 MLOAD PUSH32 0x1E4F7D8C00000000000000000000000000000000000000000000000000000000 DUP2 MSTORE PUSH1 0x4 SWAP1 REVERT JUMPDEST PUSH20 0xFFFFFFFFFFFFFFFFFFFFFFFFFFFFFFFFFFFFFFFF SWAP1 SWAP2 AND DUP2 MSTORE PUSH1 0x60 DUP2 ADD SWAP4 SWAP3 PUSH3 0x2AE SWAP3 SWAP1 SWAP2 PUSH1 0x40 SWAP2 PUSH3 0x10A9 SWAP1 PUSH1 0x20 DUP4 ADD MSTORE JUMP JUMPDEST SWAP2 PUSH3 0x26C7 PUSH1 0x4 PUSH3 0xDD7 JUMP JUMPDEST SWAP3 PUSH1 0x0 SWAP4 PUSH3 0x26DE PUSH3 0xE50 PUSH3 0x25E DUP8 PUSH3 0xE13 JUMP JUMPDEST EQ PUSH3 0x1DD5 JUMPI PUSH3 0x26F8 PUSH3 0x13B5 PUSH3 0x13B5 PUSH1 0x4 PUSH3 0xDD7 JUMP JUMPDEST PUSH4 0x573044E3 DUP2 EXTCODESIZE ISZERO PUSH3 0x29A JUMPI DUP6 PUSH3 0x2728 SWAP2 PUSH3 0x2450 DUP3 SWAP7 PUSH3 0x271B PUSH1 0x40 MLOAD SWAP1 JUMP JUMPDEST SWAP9 DUP10 SWAP8 DUP9 SWAP7 DUP8 SWAP6 PUSH1 0xE0 SHL SWAP1 JUMP JUMPDEST DUP6 MSTORE PUSH1 0x4 DUP6 ADD PUSH3 0x2684 JUMP JUMPDEST PUSH3 0x2AE SWAP1 PUSH3 0x2743 PUSH3 0xE3E JUMP JUMPDEST PUSH3 0x2753 PUSH3 0x25E PUSH1 0x0 PUSH3 0xE13 JUMP JUMPDEST PUSH20 0xFFFFFFFFFFFFFFFFFFFFFFFFFFFFFFFFFFFFFFFF DUP3 AND EQ PUSH3 0x27BA JUMPI PUSH3 0x277C PUSH1 0x4 PUSH3 0xDD7 JUMP JUMPDEST SWAP1 PUSH3 0x278A DUP2 PUSH1 0x4 PUSH3 0xFB1 JUMP JUMPDEST PUSH3 0x1022 PUSH3 0x101B PUSH32 0x98816C25FDD38FE4567B76858CE644A62161B5272648B051B397055A72506892 SWAP4 PUSH3 0xA2D JUMP JUMPDEST PUSH1 0x40 MLOAD PUSH32 0xAB54B81300000000000000000000000000000000000000000000000000000000 DUP2 MSTORE PUSH1 0x4 SWAP1 REVERT JUMPDEST PUSH3 0x2AE SWAP1 PUSH3 0x2734 JUMP JUMPDEST PUSH3 0x2AE SWAP1 PUSH3 0x27FF PUSH3 0xE3E JUMP JUMPDEST PUSH3 0x280D PUSH3 0x277 PUSH3 0xAA9 JUMP JUMPDEST DUP2 GT PUSH3 0x2863 JUMPI PUSH3 0x2820 PUSH1 0x5 PUSH3 0x1158 JUMP JUMPDEST SWAP1 PUSH3 0x282E DUP2 PUSH1 0x5 PUSH3 0x11F0 JUMP JUMPDEST PUSH32 0x14914DA2BF76024616FBE1859783FCD4DBDDCB179B1F3A854949FBF920DCB957 SWAP2 PUSH3 0x285E PUSH3 0x1D2E PUSH1 0x40 MLOAD SWAP1 JUMP JUMPDEST SUB SWAP1 LOG1 JUMP JUMPDEST PUSH1 0x40 MLOAD PUSH32 0xCD4E616700000000000000000000000000000000000000000000000000000000 DUP2 MSTORE PUSH1 0x4 SWAP1 REVERT JUMPDEST PUSH3 0x2AE SWAP1 PUSH3 0x27F0 JUMP JUMPDEST PUSH3 0x277 PUSH1 0x5 PUSH3 0x1158 JUMP JUMPDEST PUSH3 0x2AE SWAP1 PUSH3 0x28B4 PUSH3 0xE3E JUMP JUMPDEST PUSH3 0x2AE SWAP1 PUSH3 0x288E JUMP JUMPDEST PUSH3 0x2AE SWAP1 PUSH3 0x28A5 JUMP JUMPDEST PUSH3 0x28D4 PUSH3 0xE3E JUMP JUMPDEST PUSH1 0x40 MLOAD PUSH32 0x8C379A000000000000000000000000000000000000000000000000000000000 DUP2 MSTORE PUSH1 0x20 PUSH1 0x4 DUP3 ADD MSTORE PUSH1 0xF PUSH1 0x24 DUP3 ADD MSTORE PUSH32 0x4E4F545F494D504C454D454E5445440000000000000000000000000000000000 PUSH1 0x44 DUP3 ADD MSTORE PUSH1 0x64 SWAP1 REVERT JUMPDEST PUSH3 0x28CA JUMP JUMPDEST SWAP1 POP MLOAD SWAP1 PUSH3 0x2AE DUP3 PUSH3 0x27A JUMP JUMPDEST SWAP1 PUSH1 0x20 DUP3 DUP3 SUB SLT PUSH3 0x29A JUMPI PUSH3 0x277 SWAP2 PUSH3 0x2939 JUMP JUMPDEST PUSH1 0x20 SWAP2 SWAP3 POP PUSH3 0x296D PUSH1 0x0 SWAP1 JUMP JUMPDEST POP PUSH3 0x2979 ADDRESS PUSH3 0xA2D JUMP JUMPDEST PUSH3 0x20E2 PUSH1 0x0 PUSH4 0xC9C65396 PUSH3 0x2992 PUSH3 0x1C4B PUSH1 0x40 MLOAD SWAP1 JUMP JUMPDEST SUB SWAP3 GAS CALL SWAP1 DUP2 ISZERO PUSH3 0x14FA JUMPI PUSH1 0x0 SWAP2 PUSH3 0x29AA JUMPI POP SWAP1 JUMP JUMPDEST PUSH3 0x277 SWAP2 POP PUSH1 0x20 RETURNDATASIZE DUP2 GT PUSH3 0x29D0 JUMPI JUMPDEST PUSH3 0x29C7 DUP2 DUP4 PUSH3 0x30D JUMP JUMPDEST DUP2 ADD SWAP1 PUSH3 0x2948 JUMP JUMPDEST POP RETURNDATASIZE PUSH3 0x29BB JUMP JUMPDEST PUSH1 0x40 MLOAD PUSH32 0x8C379A000000000000000000000000000000000000000000000000000000000 DUP2 MSTORE PUSH1 0x20 PUSH1 0x4 DUP3 ADD MSTORE PUSH1 0x1F PUSH1 0x24 DUP3 ADD MSTORE PUSH32 0x557365206E6577206C6F636B4C6971756964697479207369676E617475726500 PUSH1 0x44 DUP3 ADD MSTORE PUSH1 0x64 SWAP1 REVERT JUMPDEST PUSH1 0x40 MLOAD PUSH32 0x8C379A000000000000000000000000000000000000000000000000000000000 DUP2 MSTORE PUSH1 0x20 PUSH1 0x4 DUP3 ADD MSTORE PUSH1 0x21 PUSH1 0x24 DUP3 ADD MSTORE PUSH32 0x557365206E657720756E6C6F636B4C6971756964697479207369676E61747572 PUSH1 0x44 DUP3 ADD MSTORE PUSH32 0x6500000000000000000000000000000000000000000000000000000000000000 PUSH1 0x64 DUP3 ADD MSTORE PUSH1 0x84 SWAP1 REVERT INVALID PUSH1 0x80 PUSH1 0x40 MSTORE CALLVALUE PUSH3 0x26 JUMPI PUSH3 0x14 PUSH3 0x9B JUMP JUMPDEST PUSH1 0x40 MLOAD PUSH2 0x321B PUSH3 0x11C DUP3 CODECOPY PUSH2 0x321B SWAP1 RETURN JUMPDEST PUSH1 0x0 DUP1 REVERT JUMPDEST SWAP1 PUSH1 0x1 PUSH1 0x1 PUSH1 0xA0 SHL SUB SWAP1 JUMPDEST SWAP2 DUP2 NOT AND SWAP2 AND OR SWAP1 JUMP JUMPDEST PUSH3 0x56 SWAP1 PUSH3 0x59 SWAP1 PUSH1 0x1 PUSH1 0x1 PUSH1 0xA0 SHL SUB AND DUP3 JUMP JUMPDEST SWAP1 JUMP JUMPDEST PUSH1 0x1 PUSH1 0x1 PUSH1 0xA0 SHL SUB AND SWAP1 JUMP JUMPDEST PUSH3 0x56 SWAP1 PUSH3 0x40 JUMP JUMPDEST PUSH3 0x56 SWAP1 PUSH3 0x65 JUMP JUMPDEST SWAP1 PUSH3 0x8F PUSH3 0x56 PUSH3 0x97 SWAP3 PUSH3 0x70 JUMP JUMPDEST DUP3 SLOAD PUSH3 0x2B JUMP JUMPDEST SWAP1 SSTORE JUMP JUMPDEST PUSH3 0xA5 PUSH3 0xB4 JUMP JUMPDEST PUSH3 0xB2 CALLER PUSH1 0x4 PUSH3 0x7B JUMP JUMPDEST JUMP JUMPDEST PUSH3 0xB2 PUSH3 0xB2 PUSH3 0x105 JUMP JUMPDEST PUSH3 0x56 PUSH3 0x56 PUSH3 0x56 SWAP3 SWAP1 JUMP JUMPDEST PUSH3 0x56 PUSH1 0x1 PUSH3 0xC2 JUMP JUMPDEST SWAP1 PUSH1 0x0 NOT SWAP1 PUSH3 0x36 JUMP JUMPDEST SWAP1 PUSH3 0xFD PUSH3 0x56 PUSH3 0x97 SWAP3 PUSH3 0xC2 JUMP JUMPDEST DUP3 SLOAD PUSH3 0xDE JUMP JUMPDEST PUSH3 0xB2 PUSH3 0x113 PUSH3 0xD2 JUMP JUMPDEST PUSH1 0x0 PUSH3 0xE9 JUMP INVALID PUSH1 0x80 PUSH1 0x40 MSTORE PUSH1 0x4 CALLDATASIZE LT ISZERO PUSH2 0x12 JUMPI PUSH1 0x0 DUP1 REVERT JUMPDEST PUSH1 0x0 CALLDATALOAD PUSH1 0xE0 SHR DUP1 PUSH4 0x22C0D9F EQ PUSH2 0x232 JUMPI DUP1 PUSH4 0x6FDDE03 EQ PUSH2 0x22D JUMPI DUP1 PUSH4 0x902F1AC EQ PUSH2 0x228 JUMPI DUP1 PUSH4 0x95EA7B3 EQ PUSH2 0x223 JUMPI DUP1 PUSH4 0xDFE1681 EQ PUSH2 0x21E JUMPI DUP1 PUSH4 0x18160DDD EQ PUSH2 0x219 JUMPI DUP1 PUSH4 0x23B872DD EQ PUSH2 0x214 JUMPI DUP1 PUSH4 0x30ADF81F EQ PUSH2 0x20F JUMPI DUP1 PUSH4 0x313CE567 EQ PUSH2 0x20A JUMPI DUP1 PUSH4 0x3566414C EQ PUSH2 0x205 JUMPI DUP1 PUSH4 0x3644E515 EQ PUSH2 0x200 JUMPI DUP1 PUSH4 0x3F4BA83A EQ PUSH2 0x1FB JUMPI DUP1 PUSH4 0x485CC955 EQ PUSH2 0x1F6 JUMPI DUP1 PUSH4 0x5909C0D5 EQ PUSH2 0x1F1 JUMPI DUP1 PUSH4 0x5A3D5493 EQ PUSH2 0x1EC JUMPI DUP1 PUSH4 0x5C975ABB EQ PUSH2 0x1E7 JUMPI DUP1 PUSH4 0x6A627842 EQ PUSH2 0x1E2 JUMPI DUP1 PUSH4 0x70A08231 EQ PUSH2 0x1DD JUMPI DUP1 PUSH4 0x7174B568 EQ PUSH2 0x1D8 JUMPI DUP1 PUSH4 0x7464FC3D EQ PUSH2 0x1D3 JUMPI DUP1 PUSH4 0x7ECEBE00 EQ PUSH2 0x1CE JUMPI DUP1 PUSH4 0x820D25A8 EQ PUSH2 0x1C9 JUMPI DUP1 PUSH4 0x8456CB59 EQ PUSH2 0x1C4 JUMPI DUP1 PUSH4 0x89AFCB44 EQ PUSH2 0x1BF JUMPI DUP1 PUSH4 0x95D89B41 EQ PUSH2 0x1BA JUMPI DUP1 PUSH4 0xA9059CBB EQ PUSH2 0x1B5 JUMPI DUP1 PUSH4 0xBA9A7A56 EQ PUSH2 0x1B0 JUMPI DUP1 PUSH4 0xBC25CF77 EQ PUSH2 0x1AB JUMPI DUP1 PUSH4 0xBE11B1D0 EQ PUSH2 0x1A6 JUMPI DUP1 PUSH4 0xC45A0155 EQ PUSH2 0x1A1 JUMPI DUP1 PUSH4 0xD21220A7 EQ PUSH2 0x19C JUMPI DUP1 PUSH4 0xD505ACCF EQ PUSH2 0x197 JUMPI DUP1 PUSH4 0xDD62ED3E EQ PUSH2 0x192 JUMPI PUSH4 0xFFF6CAE9 SUB PUSH2 0x240 JUMPI PUSH2 0xB11 JUMP JUMPDEST PUSH2 0xAF5 JUMP JUMPDEST PUSH2 0xABC JUMP JUMPDEST PUSH2 0xA25 JUMP JUMPDEST PUSH2 0x9FE JUMP JUMPDEST PUSH2 0x9D7 JUMP JUMPDEST PUSH2 0x9A2 JUMP JUMPDEST PUSH2 0x987 JUMP JUMPDEST PUSH2 0x94B JUMP JUMPDEST PUSH2 0x930 JUMP JUMPDEST PUSH2 0x902 JUMP JUMPDEST PUSH2 0x8D3 JUMP JUMPDEST PUSH2 0x8BA JUMP JUMPDEST PUSH2 0x861 JUMP JUMPDEST PUSH2 0x834 JUMP JUMPDEST PUSH2 0x819 JUMP JUMPDEST PUSH2 0x7EC JUMP JUMPDEST PUSH2 0x77B JUMP JUMPDEST PUSH2 0x74C JUMP JUMPDEST PUSH2 0x731 JUMP JUMPDEST PUSH2 0x70A JUMP JUMPDEST PUSH2 0x6E5 JUMP JUMPDEST PUSH2 0x6AA JUMP JUMPDEST PUSH2 0x68F JUMP JUMPDEST PUSH2 0x674 JUMP JUMPDEST PUSH2 0x5F0 JUMP JUMPDEST PUSH2 0x5B7 JUMP JUMPDEST PUSH2 0x59B JUMP JUMPDEST PUSH2 0x53F JUMP JUMPDEST PUSH2 0x4DA JUMP JUMPDEST PUSH2 0x475 JUMP JUMPDEST PUSH2 0x402 JUMP JUMPDEST PUSH2 0x3D7 JUMP JUMPDEST PUSH2 0x31D JUMP JUMPDEST DUP1 JUMPDEST SUB PUSH2 0x240 JUMPI JUMP JUMPDEST PUSH1 0x0 DUP1 REVERT JUMPDEST SWAP1 POP CALLDATALOAD SWAP1 PUSH2 0x252 DUP3 PUSH2 0x237 JUMP JUMPDEST JUMP JUMPDEST PUSH20 0xFFFFFFFFFFFFFFFFFFFFFFFFFFFFFFFFFFFFFFFF AND SWAP1 JUMP JUMPDEST SWAP1 JUMP JUMPDEST PUSH20 0xFFFFFFFFFFFFFFFFFFFFFFFFFFFFFFFFFFFFFFFF DUP2 AND PUSH2 0x239 JUMP JUMPDEST SWAP1 POP CALLDATALOAD SWAP1 PUSH2 0x252 DUP3 PUSH2 0x270 JUMP JUMPDEST SWAP1 SWAP2 DUP3 PUSH1 0x1F DUP4 ADD SLT ISZERO PUSH2 0x240 JUMPI DUP2 CALLDATALOAD SWAP2 PUSH8 0xFFFFFFFFFFFFFFFF DUP4 GT PUSH2 0x240 JUMPI PUSH1 0x20 ADD SWAP3 PUSH1 0x1 DUP4 MUL DUP5 ADD GT PUSH2 0x240 JUMPI JUMP JUMPDEST SWAP1 PUSH1 0x80 DUP3 DUP3 SUB SLT PUSH2 0x240 JUMPI PUSH2 0x2DE DUP2 DUP4 PUSH2 0x245 JUMP JUMPDEST SWAP3 PUSH2 0x2EC DUP3 PUSH1 0x20 DUP6 ADD PUSH2 0x245 JUMP JUMPDEST SWAP3 PUSH2 0x2FA DUP4 PUSH1 0x40 DUP4 ADD PUSH2 0x28C JUMP JUMPDEST SWAP3 PUSH1 0x60 DUP3 ADD CALLDATALOAD PUSH8 0xFFFFFFFFFFFFFFFF DUP2 GT PUSH2 0x240 JUMPI PUSH2 0x319 SWAP3 ADD PUSH2 0x299 JUMP JUMPDEST SWAP1 SWAP2 JUMP JUMPDEST CALLVALUE PUSH2 0x240 JUMPI PUSH2 0x339 PUSH2 0x330 CALLDATASIZE PUSH1 0x4 PUSH2 0x2C9 JUMP JUMPDEST SWAP4 SWAP3 SWAP1 SWAP3 PUSH2 0x26C9 JUMP JUMPDEST PUSH1 0x40 MLOAD STOP JUMPDEST SUB SWAP1 RETURN JUMPDEST PUSH1 0x0 SWAP2 SUB SLT PUSH2 0x240 JUMPI JUMP JUMPDEST PUSH1 0x0 JUMPDEST DUP4 DUP2 LT PUSH2 0x360 JUMPI POP POP PUSH1 0x0 SWAP2 ADD MSTORE JUMP JUMPDEST DUP2 DUP2 ADD MLOAD DUP4 DUP3 ADD MSTORE PUSH1 0x20 ADD PUSH2 0x350 JUMP JUMPDEST PUSH2 0x391 PUSH2 0x39A PUSH1 0x20 SWAP4 PUSH2 0x3C2 SWAP4 PUSH2 0x385 DUP2 MLOAD SWAP1 JUMP JUMPDEST DUP1 DUP4 MSTORE SWAP4 DUP5 SWAP3 PUSH1 0x20 ADD SWAP1 JUMP JUMPDEST SWAP6 DUP7 SWAP2 ADD PUSH2 0x34D JUMP JUMPDEST PUSH1 0x1F ADD PUSH32 0xFFFFFFFFFFFFFFFFFFFFFFFFFFFFFFFFFFFFFFFFFFFFFFFFFFFFFFFFFFFFFFE0 AND SWAP1 JUMP JUMPDEST ADD SWAP1 JUMP JUMPDEST PUSH1 0x20 DUP1 DUP3 MSTORE PUSH2 0x26D SWAP3 SWAP2 ADD SWAP1 PUSH2 0x370 JUMP JUMPDEST CALLVALUE PUSH2 0x240 JUMPI PUSH2 0x3E7 CALLDATASIZE PUSH1 0x4 PUSH2 0x342 JUMP JUMPDEST PUSH2 0x33E PUSH2 0x3F2 PUSH2 0x2AE0 JUMP JUMPDEST PUSH1 0x40 MLOAD SWAP2 DUP3 SWAP2 DUP3 PUSH2 0x3C6 JUMP JUMPDEST SWAP1 MSTORE JUMP JUMPDEST CALLVALUE PUSH2 0x240 JUMPI PUSH2 0x412 CALLDATASIZE PUSH1 0x4 PUSH2 0x342 JUMP JUMPDEST PUSH2 0x33E PUSH2 0x41D PUSH2 0x1038 JUMP JUMPDEST PUSH1 0x40 DUP1 MLOAD PUSH14 0xFFFFFFFFFFFFFFFFFFFFFFFFFFFF SWAP5 DUP6 AND DUP2 MSTORE SWAP4 SWAP1 SWAP3 AND PUSH1 0x20 DUP5 ADD MSTORE PUSH4 0xFFFFFFFF AND SWAP1 DUP3 ADD MSTORE SWAP1 DUP2 SWAP1 PUSH1 0x60 DUP3 ADD SWAP1 JUMP JUMPDEST SWAP2 SWAP1 PUSH1 0x40 DUP4 DUP3 SUB SLT PUSH2 0x240 JUMPI PUSH2 0x26D SWAP1 PUSH2 0x46C DUP2 DUP6 PUSH2 0x28C JUMP JUMPDEST SWAP4 PUSH1 0x20 ADD PUSH2 0x245 JUMP JUMPDEST CALLVALUE PUSH2 0x240 JUMPI PUSH2 0x33E PUSH2 0x491 PUSH2 0x48B CALLDATASIZE PUSH1 0x4 PUSH2 0x452 JUMP JUMPDEST SWAP1 PUSH2 0x2930 JUMP JUMPDEST PUSH1 0x40 MLOAD SWAP2 DUP3 SWAP2 DUP3 SWAP1 ISZERO ISZERO DUP2 MSTORE PUSH1 0x20 ADD SWAP1 JUMP JUMPDEST PUSH2 0x26D SWAP2 PUSH1 0x8 MUL SHR PUSH20 0xFFFFFFFFFFFFFFFFFFFFFFFFFFFFFFFFFFFFFFFF AND SWAP1 JUMP JUMPDEST SWAP1 PUSH2 0x26D SWAP2 SLOAD PUSH2 0x4A3 JUMP JUMPDEST PUSH2 0x26D PUSH1 0x1 DUP1 PUSH2 0x4C4 JUMP JUMPDEST CALLVALUE PUSH2 0x240 JUMPI PUSH2 0x4EA CALLDATASIZE PUSH1 0x4 PUSH2 0x342 JUMP JUMPDEST PUSH2 0x33E PUSH2 0x4F5 PUSH2 0x4CF JUMP JUMPDEST PUSH1 0x40 MLOAD JUMPDEST SWAP2 DUP3 SWAP2 DUP3 PUSH20 0xFFFFFFFFFFFFFFFFFFFFFFFFFFFFFFFFFFFFFFFF SWAP1 SWAP2 AND DUP2 MSTORE PUSH1 0x20 ADD SWAP1 JUMP JUMPDEST PUSH2 0x26D SWAP2 PUSH1 0x8 MUL SHR DUP2 JUMP JUMPDEST SWAP1 PUSH2 0x26D SWAP2 SLOAD PUSH2 0x51D JUMP JUMPDEST PUSH2 0x26D PUSH1 0x0 PUSH1 0x8 PUSH2 0x528 JUMP JUMPDEST CALLVALUE PUSH2 0x240 JUMPI PUSH2 0x54F CALLDATASIZE PUSH1 0x4 PUSH2 0x342 JUMP JUMPDEST PUSH2 0x33E PUSH2 0x55A PUSH2 0x533 JUMP JUMPDEST PUSH1 0x40 MLOAD JUMPDEST SWAP2 DUP3 SWAP2 DUP3 SWAP1 DUP2 MSTORE PUSH1 0x20 ADD SWAP1 JUMP JUMPDEST SWAP1 SWAP2 PUSH1 0x60 DUP3 DUP5 SUB SLT PUSH2 0x240 JUMPI PUSH2 0x26D PUSH2 0x584 DUP5 DUP5 PUSH2 0x28C JUMP JUMPDEST SWAP4 PUSH2 0x592 DUP2 PUSH1 0x20 DUP7 ADD PUSH2 0x28C JUMP JUMPDEST SWAP4 PUSH1 0x40 ADD PUSH2 0x245 JUMP JUMPDEST CALLVALUE PUSH2 0x240 JUMPI PUSH2 0x33E PUSH2 0x491 PUSH2 0x5B1 CALLDATASIZE PUSH1 0x4 PUSH2 0x56B JUMP JUMPDEST SWAP2 PUSH2 0x29F2 JUMP JUMPDEST CALLVALUE PUSH2 0x240 JUMPI PUSH2 0x5C7 CALLDATASIZE PUSH1 0x4 PUSH2 0x342 JUMP JUMPDEST PUSH2 0x33E PUSH32 0x6E71EDAE12B1B97F4D1F60370FEF10105FA2FAAE0126114A169C64845D6126C9 PUSH2 0x55A JUMP JUMPDEST CALLVALUE PUSH2 0x240 JUMPI PUSH2 0x600 CALLDATASIZE PUSH1 0x4 PUSH2 0x342 JUMP JUMPDEST PUSH2 0x33E PUSH2 0x60B PUSH2 0x2B38 JUMP JUMPDEST PUSH1 0x40 MLOAD SWAP2 DUP3 SWAP2 DUP3 PUSH1 0xFF SWAP1 SWAP2 AND DUP2 MSTORE PUSH1 0x20 ADD SWAP1 JUMP JUMPDEST SWAP1 PUSH1 0x20 DUP3 DUP3 SUB SLT PUSH2 0x240 JUMPI PUSH2 0x26D SWAP2 PUSH2 0x245 JUMP JUMPDEST SWAP1 JUMPDEST PUSH1 0x0 MSTORE PUSH1 0x20 MSTORE PUSH1 0x40 PUSH1 0x0 KECCAK256 SWAP1 JUMP JUMPDEST PUSH2 0x26D SWAP2 PUSH1 0x8 MUL SHR JUMPDEST PUSH1 0xFF AND SWAP1 JUMP JUMPDEST SWAP1 PUSH2 0x26D SWAP2 SLOAD PUSH2 0x643 JUMP JUMPDEST PUSH2 0x26D SWAP1 PUSH2 0x66F PUSH1 0xB SWAP2 PUSH1 0x0 SWAP3 PUSH2 0x633 JUMP JUMPDEST PUSH2 0x652 JUMP JUMPDEST CALLVALUE PUSH2 0x240 JUMPI PUSH2 0x33E PUSH2 0x491 PUSH2 0x68A CALLDATASIZE PUSH1 0x4 PUSH2 0x61F JUMP JUMPDEST PUSH2 0x65D JUMP JUMPDEST CALLVALUE PUSH2 0x240 JUMPI PUSH2 0x69F CALLDATASIZE PUSH1 0x4 PUSH2 0x342 JUMP JUMPDEST PUSH2 0x33E PUSH2 0x55A PUSH2 0x2B42 JUMP JUMPDEST CALLVALUE PUSH2 0x240 JUMPI PUSH2 0x6BA CALLDATASIZE PUSH1 0x4 PUSH2 0x342 JUMP JUMPDEST PUSH2 0x339 PUSH2 0xCD0 JUMP JUMPDEST SWAP2 SWAP1 PUSH1 0x40 DUP4 DUP3 SUB SLT PUSH2 0x240 JUMPI PUSH2 0x26D SWAP1 PUSH2 0x6DC DUP2 DUP6 PUSH2 0x28C JUMP JUMPDEST SWAP4 PUSH1 0x20 ADD PUSH2 0x28C JUMP JUMPDEST CALLVALUE PUSH2 0x240 JUMPI PUSH2 0x339 PUSH2 0x6F8 CALLDATASIZE PUSH1 0x4 PUSH2 0x6C2 JUMP JUMPDEST SWAP1 PUSH2 0xDF8 JUMP JUMPDEST PUSH2 0x26D PUSH1 0x0 PUSH1 0x5 PUSH2 0x528 JUMP JUMPDEST CALLVALUE PUSH2 0x240 JUMPI PUSH2 0x71A CALLDATASIZE PUSH1 0x4 PUSH2 0x342 JUMP JUMPDEST PUSH2 0x33E PUSH2 0x55A PUSH2 0x6FE JUMP JUMPDEST PUSH2 0x26D PUSH1 0x0 PUSH1 0x6 PUSH2 0x528 JUMP JUMPDEST CALLVALUE PUSH2 0x240 JUMPI PUSH2 0x741 CALLDATASIZE PUSH1 0x4 PUSH2 0x342 JUMP JUMPDEST PUSH2 0x33E PUSH2 0x55A PUSH2 0x725 JUMP JUMPDEST CALLVALUE PUSH2 0x240 JUMPI PUSH2 0x75C CALLDATASIZE PUSH1 0x4 PUSH2 0x342 JUMP JUMPDEST PUSH2 0x33E PUSH2 0x491 PUSH2 0xB29 JUMP JUMPDEST SWAP1 PUSH1 0x20 DUP3 DUP3 SUB SLT PUSH2 0x240 JUMPI PUSH2 0x26D SWAP2 PUSH2 0x28C JUMP JUMPDEST CALLVALUE PUSH2 0x240 JUMPI PUSH2 0x33E PUSH2 0x55A PUSH2 0x791 CALLDATASIZE PUSH1 0x4 PUSH2 0x767 JUMP JUMPDEST PUSH2 0x16BC JUMP JUMPDEST PUSH2 0x254 PUSH2 0x26D PUSH2 0x26D SWAP3 PUSH20 0xFFFFFFFFFFFFFFFFFFFFFFFFFFFFFFFFFFFFFFFF AND SWAP1 JUMP JUMPDEST PUSH2 0x26D SWAP1 PUSH2 0x796 JUMP JUMPDEST PUSH2 0x26D SWAP1 PUSH2 0x7B9 JUMP JUMPDEST SWAP1 PUSH2 0x635 SWAP1 PUSH2 0x7C2 JUMP JUMPDEST PUSH2 0x26D SWAP1 PUSH2 0x7E7 PUSH1 0x7 SWAP2 PUSH1 0x0 SWAP3 PUSH2 0x7CB JUMP JUMPDEST PUSH2 0x528 JUMP JUMPDEST CALLVALUE PUSH2 0x240 JUMPI PUSH2 0x33E PUSH2 0x55A PUSH2 0x802 CALLDATASIZE PUSH1 0x4 PUSH2 0x767 JUMP JUMPDEST PUSH2 0x7D5 JUMP JUMPDEST PUSH2 0x26D SWAP1 PUSH2 0x7E7 PUSH1 0xA SWAP2 PUSH1 0x0 SWAP3 PUSH2 0x633 JUMP JUMPDEST CALLVALUE PUSH2 0x240 JUMPI PUSH2 0x33E PUSH2 0x55A PUSH2 0x82F CALLDATASIZE PUSH1 0x4 PUSH2 0x61F JUMP JUMPDEST PUSH2 0x807 JUMP JUMPDEST CALLVALUE PUSH2 0x240 JUMPI PUSH2 0x844 CALLDATASIZE PUSH1 0x4 PUSH2 0x342 JUMP JUMPDEST PUSH2 0x33E PUSH2 0x55A PUSH2 0x30BC JUMP JUMPDEST PUSH2 0x26D SWAP1 PUSH2 0x7E7 PUSH1 0xD SWAP2 PUSH1 0x0 SWAP3 PUSH2 0x7CB JUMP JUMPDEST CALLVALUE PUSH2 0x240 JUMPI PUSH2 0x33E PUSH2 0x55A PUSH2 0x877 CALLDATASIZE PUSH1 0x4 PUSH2 0x767 JUMP JUMPDEST PUSH2 0x84F JUMP JUMPDEST SWAP1 DUP2 PUSH1 0x20 SWAP2 SUB SLT PUSH2 0x240 JUMPI SWAP1 JUMP JUMPDEST SWAP1 SWAP2 PUSH1 0x60 DUP3 DUP5 SUB SLT PUSH2 0x240 JUMPI PUSH2 0x26D PUSH2 0x8A3 DUP5 DUP5 PUSH2 0x28C JUMP JUMPDEST SWAP4 PUSH2 0x8B1 DUP2 PUSH1 0x20 DUP7 ADD PUSH2 0x28C JUMP JUMPDEST SWAP4 PUSH1 0x40 ADD PUSH2 0x87C JUMP JUMPDEST CALLVALUE PUSH2 0x240 JUMPI PUSH2 0x339 PUSH2 0x8CD CALLDATASIZE PUSH1 0x4 PUSH2 0x88A JUMP JUMPDEST SWAP2 PUSH2 0x102D JUMP JUMPDEST CALLVALUE PUSH2 0x240 JUMPI PUSH2 0x8E3 CALLDATASIZE PUSH1 0x4 PUSH2 0x342 JUMP JUMPDEST PUSH2 0x339 PUSH2 0xBEF JUMP JUMPDEST SWAP1 DUP2 MSTORE PUSH1 0x40 DUP2 ADD SWAP3 SWAP2 PUSH2 0x252 SWAP2 PUSH1 0x20 ADD MSTORE JUMP JUMPDEST ADD MSTORE JUMP JUMPDEST CALLVALUE PUSH2 0x240 JUMPI PUSH2 0x91A PUSH2 0x915 CALLDATASIZE PUSH1 0x4 PUSH2 0x767 JUMP JUMPDEST PUSH2 0x1E9F JUMP JUMPDEST SWAP1 PUSH2 0x33E PUSH2 0x927 PUSH1 0x40 MLOAD SWAP1 JUMP JUMPDEST SWAP3 DUP4 SWAP3 DUP4 PUSH2 0x8EB JUMP JUMPDEST CALLVALUE PUSH2 0x240 JUMPI PUSH2 0x940 CALLDATASIZE PUSH1 0x4 PUSH2 0x342 JUMP JUMPDEST PUSH2 0x33E PUSH2 0x3F2 PUSH2 0x2B23 JUMP JUMPDEST CALLVALUE PUSH2 0x240 JUMPI PUSH2 0x33E PUSH2 0x491 PUSH2 0x961 CALLDATASIZE PUSH1 0x4 PUSH2 0x452 JUMP JUMPDEST SWAP1 PUSH2 0x2991 JUMP JUMPDEST PUSH2 0x26D PUSH2 0x26D PUSH2 0x26D SWAP3 SWAP1 JUMP JUMPDEST PUSH2 0x26D PUSH2 0x3E8 PUSH2 0x967 JUMP JUMPDEST PUSH2 0x26D PUSH2 0x974 JUMP JUMPDEST CALLVALUE PUSH2 0x240 JUMPI PUSH2 0x997 CALLDATASIZE PUSH1 0x4 PUSH2 0x342 JUMP JUMPDEST PUSH2 0x33E PUSH2 0x55A PUSH2 0x97F JUMP JUMPDEST CALLVALUE PUSH2 0x240 JUMPI PUSH2 0x339 PUSH2 0x9B5 CALLDATASIZE PUSH1 0x4 PUSH2 0x767 JUMP JUMPDEST PUSH2 0x2F86 JUMP JUMPDEST PUSH2 0x26D SWAP1 PUSH2 0x64C JUMP JUMPDEST PUSH2 0x26D SWAP1 SLOAD PUSH2 0x9BA JUMP JUMPDEST PUSH2 0x26D PUSH1 0x9 PUSH2 0x9C3 JUMP JUMPDEST CALLVALUE PUSH2 0x240 JUMPI PUSH2 0x9E7 CALLDATASIZE PUSH1 0x4 PUSH2 0x342 JUMP JUMPDEST PUSH2 0x33E PUSH2 0x491 PUSH2 0x9CD JUMP JUMPDEST PUSH2 0x26D PUSH1 0x0 PUSH1 0x4 PUSH2 0x4C4 JUMP JUMPDEST CALLVALUE PUSH2 0x240 JUMPI PUSH2 0xA0E CALLDATASIZE PUSH1 0x4 PUSH2 0x342 JUMP JUMPDEST PUSH2 0x33E PUSH2 0x4F5 PUSH2 0x9F2 JUMP JUMPDEST PUSH2 0x26D PUSH1 0x0 PUSH1 0x2 PUSH2 0x4C4 JUMP JUMPDEST CALLVALUE PUSH2 0x240 JUMPI PUSH2 0xA35 CALLDATASIZE PUSH1 0x4 PUSH2 0x342 JUMP JUMPDEST PUSH2 0x33E PUSH2 0x4F5 PUSH2 0xA19 JUMP JUMPDEST PUSH1 0xFF DUP2 AND PUSH2 0x239 JUMP JUMPDEST SWAP1 POP CALLDATALOAD SWAP1 PUSH2 0x252 DUP3 PUSH2 0xA40 JUMP JUMPDEST PUSH1 0xE0 DUP2 DUP4 SUB SLT PUSH2 0x240 JUMPI PUSH2 0xA6A DUP3 DUP3 PUSH2 0x28C JUMP JUMPDEST SWAP3 PUSH2 0xA78 DUP4 PUSH1 0x20 DUP5 ADD PUSH2 0x28C JUMP JUMPDEST SWAP3 PUSH2 0xA86 DUP2 PUSH1 0x40 DUP6 ADD PUSH2 0x245 JUMP JUMPDEST SWAP3 PUSH2 0xA94 DUP3 PUSH1 0x60 DUP4 ADD PUSH2 0x245 JUMP JUMPDEST SWAP3 PUSH2 0x26D PUSH2 0xAA5 DUP5 PUSH1 0x80 DUP6 ADD PUSH2 0xA49 JUMP JUMPDEST SWAP4 PUSH2 0xAB3 DUP2 PUSH1 0xA0 DUP7 ADD PUSH2 0x245 JUMP JUMPDEST SWAP4 PUSH1 0xC0 ADD PUSH2 0x245 JUMP JUMPDEST CALLVALUE PUSH2 0x240 JUMPI PUSH2 0x339 PUSH2 0xACF CALLDATASIZE PUSH1 0x4 PUSH2 0xA56 JUMP JUMPDEST SWAP6 SWAP5 SWAP1 SWAP5 SWAP4 SWAP2 SWAP4 PUSH2 0x2E3E JUMP JUMPDEST PUSH2 0x7E7 PUSH2 0x26D SWAP3 PUSH2 0xAF0 PUSH1 0xC SWAP4 PUSH1 0x0 SWAP5 PUSH2 0x7CB JUMP JUMPDEST PUSH2 0x7CB JUMP JUMPDEST CALLVALUE PUSH2 0x240 JUMPI PUSH2 0x33E PUSH2 0x55A PUSH2 0xB0B CALLDATASIZE PUSH1 0x4 PUSH2 0x6C2 JUMP JUMPDEST SWAP1 PUSH2 0xADB JUMP JUMPDEST CALLVALUE PUSH2 0x240 JUMPI PUSH2 0xB21 CALLDATASIZE PUSH1 0x4 PUSH2 0x342 JUMP JUMPDEST PUSH2 0x339 PUSH2 0x27B5 JUMP JUMPDEST PUSH2 0x26D PUSH1 0x1 PUSH2 0x9C3 JUMP JUMPDEST PUSH2 0x26D SWAP1 PUSH2 0x254 JUMP JUMPDEST PUSH2 0x26D SWAP1 SLOAD PUSH2 0xB33 JUMP JUMPDEST ISZERO PUSH2 0xB4D JUMPI JUMP JUMPDEST PUSH1 0x40 MLOAD PUSH32 0x8C379A000000000000000000000000000000000000000000000000000000000 DUP2 MSTORE PUSH1 0x20 PUSH1 0x4 DUP3 ADD MSTORE PUSH1 0x12 PUSH1 0x24 DUP3 ADD MSTORE PUSH32 0x444558506169723A20464F5242494444454E0000000000000000000000000000 PUSH1 0x44 DUP3 ADD MSTORE PUSH1 0x64 SWAP1 REVERT JUMPDEST SUB SWAP1 REVERT JUMPDEST PUSH2 0xBE4 CALLER PUSH2 0xBDE PUSH2 0xBC4 PUSH2 0x254 PUSH1 0x4 PUSH2 0xB3C JUMP JUMPDEST SWAP2 PUSH20 0xFFFFFFFFFFFFFFFFFFFFFFFFFFFFFFFFFFFFFFFF AND SWAP1 JUMP JUMPDEST EQ PUSH2 0xB46 JUMP JUMPDEST PUSH2 0x252 PUSH2 0x252 PUSH2 0xC70 JUMP JUMPDEST PUSH2 0x252 PUSH2 0xBB0 JUMP JUMPDEST PUSH2 0xBFF PUSH2 0xC78 JUMP JUMPDEST PUSH2 0x252 PUSH2 0xC31 JUMP JUMPDEST SWAP1 PUSH1 0xFF SWAP1 JUMPDEST SWAP2 DUP2 NOT AND SWAP2 AND OR SWAP1 JUMP JUMPDEST SWAP1 PUSH2 0xC26 PUSH2 0x26D PUSH2 0xC2D SWAP3 ISZERO ISZERO SWAP1 JUMP JUMPDEST DUP3 SLOAD PUSH2 0xC07 JUMP JUMPDEST SWAP1 SSTORE JUMP JUMPDEST PUSH2 0xC3C PUSH1 0x1 DUP1 PUSH2 0xC16 JUMP JUMPDEST CALLER PUSH2 0xC6B PUSH32 0x62E78CEA01BEE320CD4E420270B5EA74000D11B0C9F74754EBDBFC544B05A258 SWAP2 PUSH2 0x4F9 PUSH1 0x40 MLOAD SWAP1 JUMP JUMPDEST SUB SWAP1 LOG1 JUMP JUMPDEST PUSH2 0x252 PUSH2 0xBF7 JUMP JUMPDEST PUSH2 0xC80 PUSH2 0xB29 JUMP JUMPDEST PUSH2 0xC86 JUMPI JUMP JUMPDEST PUSH1 0x40 MLOAD PUSH32 0xD93C066500000000000000000000000000000000000000000000000000000000 DUP2 MSTORE PUSH1 0x4 SWAP1 REVERT JUMPDEST PUSH2 0xCC5 CALLER PUSH2 0xBDE PUSH2 0xBC4 PUSH2 0x254 PUSH1 0x4 PUSH2 0xB3C JUMP JUMPDEST PUSH2 0x252 PUSH2 0x252 PUSH2 0xD1E JUMP JUMPDEST PUSH2 0x252 PUSH2 0xCB1 JUMP JUMPDEST PUSH2 0xCE0 PUSH2 0xD26 JUMP JUMPDEST PUSH2 0x252 PUSH2 0xCEF PUSH1 0x0 PUSH1 0x1 PUSH2 0xC16 JUMP JUMPDEST CALLER PUSH2 0xC6B PUSH32 0x5DB9EE0A495BF2E6FF9C91A7834C1BA4FDD244A5E8AA4E537BD38AEAE4B073AA SWAP2 PUSH2 0x4F9 PUSH1 0x40 MLOAD SWAP1 JUMP JUMPDEST PUSH2 0x252 PUSH2 0xCD8 JUMP JUMPDEST PUSH2 0xD35 PUSH2 0xD31 PUSH2 0xB29 JUMP JUMPDEST ISZERO SWAP1 JUMP JUMPDEST PUSH2 0xD3B JUMPI JUMP JUMPDEST PUSH1 0x40 MLOAD PUSH32 0x8DFC202B00000000000000000000000000000000000000000000000000000000 DUP2 MSTORE PUSH1 0x4 SWAP1 REVERT JUMPDEST PUSH32 0x4E487B7100000000000000000000000000000000000000000000000000000000 PUSH1 0x0 MSTORE PUSH1 0x41 PUSH1 0x4 MSTORE PUSH1 0x24 PUSH1 0x0 REVERT JUMPDEST SWAP1 PUSH1 0x1F ADD PUSH32 0xFFFFFFFFFFFFFFFFFFFFFFFFFFFFFFFFFFFFFFFFFFFFFFFFFFFFFFFFFFFFFFE0 AND DUP2 ADD SWAP1 DUP2 LT PUSH8 0xFFFFFFFFFFFFFFFF DUP3 GT OR PUSH2 0xDD5 JUMPI PUSH1 0x40 MSTORE JUMP JUMPDEST PUSH2 0xD66 JUMP JUMPDEST SWAP1 PUSH2 0x252 PUSH2 0xDE7 PUSH1 0x40 MLOAD SWAP1 JUMP JUMPDEST SWAP3 DUP4 PUSH2 0xD95 JUMP JUMPDEST PUSH2 0x26D PUSH1 0x20 PUSH2 0xDDA JUMP JUMPDEST PUSH2 0x252 SWAP2 PUSH1 0x1 SWAP2 PUSH2 0xE11 PUSH2 0xE0A PUSH2 0xDEE JUMP JUMPDEST SWAP4 ISZERO ISZERO DUP5 MSTORE JUMP JUMPDEST PUSH2 0xF30 JUMP JUMPDEST PUSH2 0x26D SWAP1 PUSH1 0x8 SHR PUSH2 0x254 JUMP JUMPDEST PUSH2 0x26D SWAP1 SLOAD PUSH2 0xE16 JUMP JUMPDEST PUSH2 0x254 PUSH2 0x26D PUSH2 0x26D SWAP3 SWAP1 JUMP JUMPDEST PUSH2 0x26D SWAP1 PUSH2 0xE2C JUMP JUMPDEST ISZERO PUSH2 0xE49 JUMPI JUMP JUMPDEST PUSH1 0x40 MLOAD PUSH32 0x8C379A000000000000000000000000000000000000000000000000000000000 DUP2 MSTORE PUSH1 0x20 PUSH1 0x4 DUP3 ADD MSTORE PUSH1 0x1C PUSH1 0x24 DUP3 ADD MSTORE PUSH32 0x444558506169723A20414C52454144595F494E495449414C495A454400000000 PUSH1 0x44 DUP3 ADD MSTORE PUSH1 0x64 SWAP1 REVERT JUMPDEST SWAP1 PUSH21 0xFFFFFFFFFFFFFFFFFFFFFFFFFFFFFFFFFFFFFFFF00 SWAP1 PUSH1 0x8 SHL PUSH2 0xC0C JUMP JUMPDEST SWAP1 PUSH2 0xED8 PUSH2 0x26D PUSH2 0xC2D SWAP3 PUSH2 0x7C2 JUMP JUMPDEST DUP3 SLOAD PUSH2 0xEA8 JUMP JUMPDEST SWAP1 PUSH20 0xFFFFFFFFFFFFFFFFFFFFFFFFFFFFFFFFFFFFFFFF SWAP1 PUSH2 0xC0C JUMP JUMPDEST SWAP1 PUSH2 0xF0B PUSH2 0x26D PUSH2 0xC2D SWAP3 PUSH2 0x7C2 JUMP JUMPDEST DUP3 SLOAD PUSH2 0xEDF JUMP JUMPDEST PUSH2 0x252 SWAP2 PUSH2 0xF20 SWAP1 MLOAD ISZERO ISZERO SWAP1 JUMP JUMPDEST SWAP1 PUSH2 0xC16 JUMP JUMPDEST SWAP1 PUSH2 0x252 SWAP2 PUSH2 0xF12 JUMP JUMPDEST SWAP1 PUSH2 0xF62 PUSH2 0xF69 SWAP3 PUSH2 0xF5B PUSH2 0xF45 PUSH1 0x1 PUSH2 0xE22 JUMP JUMPDEST PUSH2 0xF55 PUSH2 0xBC4 PUSH2 0x254 PUSH1 0x0 PUSH2 0xE39 JUMP JUMPDEST EQ PUSH2 0xE42 JUMP JUMPDEST PUSH1 0x1 PUSH2 0xEC8 JUMP JUMPDEST PUSH1 0x2 PUSH2 0xEFB JUMP JUMPDEST PUSH2 0xF74 DUP2 PUSH1 0x9 PUSH2 0xF26 JUMP JUMPDEST PUSH2 0xC6B PUSH32 0xB1102BF8599BADF4360419344E57744751C4D685C0864E807454E60F8E6ADDBC SWAP2 PUSH2 0xFA2 PUSH1 0x40 MLOAD SWAP1 JUMP JUMPDEST SWAP2 DUP3 SWAP2 DUP3 SWAP1 MLOAD ISZERO ISZERO DUP2 MSTORE PUSH1 0x20 ADD SWAP1 JUMP JUMPDEST SWAP1 PUSH2 0x252 SWAP3 SWAP2 PUSH2 0xFCC CALLER PUSH2 0xBDE PUSH2 0xBC4 PUSH2 0x254 PUSH1 0x4 PUSH2 0xB3C JUMP JUMPDEST PUSH2 0x101A JUMP JUMPDEST DUP1 ISZERO ISZERO PUSH2 0x239 JUMP JUMPDEST SWAP1 POP CALLDATALOAD SWAP1 PUSH2 0x252 DUP3 PUSH2 0xFD1 JUMP JUMPDEST SWAP2 SWAP1 SWAP2 PUSH1 0x20 DUP2 DUP5 SUB SLT PUSH2 0x240 JUMPI PUSH2 0x1009 PUSH2 0x1000 PUSH1 0x20 PUSH2 0xDDA JUMP JUMPDEST SWAP4 PUSH1 0x0 SWAP3 PUSH2 0xFD9 JUMP JUMPDEST SWAP1 DUP4 ADD MSTORE JUMP JUMPDEST PUSH2 0x26D SWAP1 CALLDATASIZE SWAP1 PUSH2 0xFE6 JUMP JUMPDEST SWAP1 PUSH2 0x1027 PUSH2 0x252 SWAP4 PUSH2 0x100F JUMP JUMPDEST SWAP2 PUSH2 0xF30 JUMP JUMPDEST SWAP1 PUSH2 0x252 SWAP3 SWAP2 PUSH2 0xFB2 JUMP JUMPDEST PUSH2 0x1040 PUSH2 0x109A JUMP JUMPDEST SWAP2 SWAP3 SWAP1 SWAP2 SWAP1 JUMP JUMPDEST PUSH2 0x26D SWAP1 JUMPDEST PUSH14 0xFFFFFFFFFFFFFFFFFFFFFFFFFFFF AND SWAP1 JUMP JUMPDEST PUSH2 0x26D SWAP1 SLOAD PUSH2 0x1047 JUMP JUMPDEST PUSH2 0x26D SWAP1 PUSH1 0x70 SHR PUSH2 0x104C JUMP JUMPDEST PUSH2 0x26D SWAP1 SLOAD PUSH2 0x1069 JUMP JUMPDEST PUSH2 0x26D SWAP1 PUSH1 0xE0 SHR JUMPDEST PUSH4 0xFFFFFFFF AND SWAP1 JUMP JUMPDEST PUSH2 0x26D SWAP1 SLOAD PUSH2 0x107F JUMP JUMPDEST PUSH2 0x10A4 PUSH1 0x3 PUSH2 0x105F JUMP JUMPDEST SWAP1 PUSH2 0x10AF PUSH1 0x3 PUSH2 0x1075 JUMP JUMPDEST SWAP1 PUSH2 0x26D PUSH1 0x3 PUSH2 0x1090 JUMP JUMPDEST SWAP1 PUSH2 0x10CC SWAP2 PUSH2 0x10C7 PUSH2 0x1710 JUMP JUMPDEST PUSH2 0x10D5 JUMP JUMPDEST SWAP1 PUSH2 0x252 PUSH2 0x1769 JUMP JUMPDEST SWAP1 PUSH2 0x26D SWAP2 PUSH2 0x10E2 PUSH2 0xC78 JUMP JUMPDEST SWAP1 PUSH2 0x26D SWAP2 PUSH2 0x13D8 JUMP JUMPDEST SWAP1 POP MLOAD SWAP1 PUSH2 0x252 DUP3 PUSH2 0x237 JUMP JUMPDEST SWAP1 PUSH1 0x20 DUP3 DUP3 SUB SLT PUSH2 0x240 JUMPI PUSH2 0x26D SWAP2 PUSH2 0x10EC JUMP JUMPDEST PUSH1 0x40 MLOAD RETURNDATASIZE PUSH1 0x0 DUP3 RETURNDATACOPY RETURNDATASIZE SWAP1 REVERT JUMPDEST PUSH2 0x26D PUSH2 0x26D PUSH2 0x26D SWAP3 PUSH14 0xFFFFFFFFFFFFFFFFFFFFFFFFFFFF AND SWAP1 JUMP JUMPDEST PUSH32 0x4E487B7100000000000000000000000000000000000000000000000000000000 PUSH1 0x0 MSTORE PUSH1 0x11 PUSH1 0x4 MSTORE PUSH1 0x24 PUSH1 0x0 REVERT JUMPDEST SWAP2 SWAP1 DUP3 SUB SWAP2 DUP3 GT PUSH2 0x1172 JUMPI JUMP JUMPDEST PUSH2 0x1136 JUMP JUMPDEST ISZERO PUSH2 0x117E JUMPI JUMP JUMPDEST PUSH1 0x40 MLOAD PUSH32 0x8C379A000000000000000000000000000000000000000000000000000000000 DUP2 MSTORE PUSH1 0x20 PUSH1 0x4 DUP3 ADD MSTORE PUSH1 0x22 PUSH1 0x24 DUP3 ADD MSTORE PUSH32 0x444558506169723A20494E53554646494349454E545F494E5055545F414D4F55 PUSH1 0x44 DUP3 ADD MSTORE PUSH32 0x4E54000000000000000000000000000000000000000000000000000000000000 PUSH1 0x64 DUP3 ADD MSTORE PUSH1 0x84 SWAP1 REVERT JUMPDEST PUSH2 0x26D SWAP1 DUP2 JUMP JUMPDEST PUSH2 0x26D SWAP1 SLOAD PUSH2 0x1203 JUMP JUMPDEST PUSH2 0x104C PUSH2 0x26D PUSH2 0x26D SWAP3 SWAP1 JUMP JUMPDEST ISZERO PUSH2 0x1228 JUMPI JUMP JUMPDEST PUSH1 0x40 MLOAD PUSH32 0x8C379A000000000000000000000000000000000000000000000000000000000 DUP2 MSTORE PUSH1 0x20 PUSH1 0x4 DUP3 ADD MSTORE PUSH1 0x1E PUSH1 0x24 DUP3 ADD MSTORE PUSH32 0x444558506169723A20494E53554646494349454E545F52455345525645530000 PUSH1 0x44 DUP3 ADD MSTORE PUSH1 0x64 SWAP1 REVERT JUMPDEST SWAP2 SWAP1 SWAP2 DUP1 DUP4 MUL JUMPDEST SWAP3 DUP2 DUP5 DIV EQ SWAP1 ISZERO OR ISZERO PUSH2 0x1172 JUMPI JUMP JUMPDEST PUSH32 0x4E487B7100000000000000000000000000000000000000000000000000000000 PUSH1 0x0 MSTORE PUSH1 0x12 PUSH1 0x4 MSTORE PUSH1 0x24 PUSH1 0x0 REVERT JUMPDEST SWAP1 PUSH2 0x12D6 JUMP JUMPDEST SWAP2 SWAP1 JUMP JUMPDEST SWAP1 DUP2 ISZERO PUSH2 0x12E1 JUMPI DIV SWAP1 JUMP JUMPDEST PUSH2 0x129D JUMP JUMPDEST ISZERO PUSH2 0x12ED JUMPI JUMP JUMPDEST PUSH1 0x40 MLOAD PUSH32 0x8C379A000000000000000000000000000000000000000000000000000000000 DUP2 MSTORE PUSH1 0x20 PUSH1 0x4 DUP3 ADD MSTORE PUSH1 0x26 PUSH1 0x24 DUP3 ADD MSTORE PUSH32 0x444558506169723A20494E53554646494349454E545F4C49515549444954595F PUSH1 0x44 DUP3 ADD MSTORE PUSH32 0x4D494E5445440000000000000000000000000000000000000000000000000000 PUSH1 0x64 DUP3 ADD MSTORE PUSH1 0x84 SWAP1 REVERT JUMPDEST ISZERO PUSH2 0x1379 JUMPI JUMP JUMPDEST PUSH1 0x40 MLOAD PUSH32 0x8C379A000000000000000000000000000000000000000000000000000000000 DUP2 MSTORE PUSH1 0x20 PUSH1 0x4 DUP3 ADD MSTORE PUSH1 0x1C PUSH1 0x24 DUP3 ADD MSTORE PUSH32 0x444558506169723A204C49515549444954595F544F4F5F4C4152474500000000 PUSH1 0x44 DUP3 ADD MSTORE PUSH1 0x64 SWAP1 REVERT JUMPDEST POP SWAP1 PUSH2 0x13E2 PUSH2 0x109A JUMP JUMPDEST POP SWAP1 PUSH2 0x13F9 PUSH2 0x13F4 PUSH2 0x13F4 PUSH1 0x1 PUSH2 0xE22 JUMP JUMPDEST PUSH2 0x7C2 JUMP JUMPDEST PUSH4 0x70A08231 PUSH2 0x1407 ADDRESS PUSH2 0x7C2 JUMP JUMPDEST PUSH1 0x20 PUSH2 0x1412 PUSH1 0x40 MLOAD SWAP1 JUMP JUMPDEST DUP1 SWAP5 PUSH2 0x141E DUP6 PUSH1 0xE0 SHL SWAP1 JUMP JUMPDEST DUP3 MSTORE PUSH20 0xFFFFFFFFFFFFFFFFFFFFFFFFFFFFFFFFFFFFFFFF DUP5 AND PUSH1 0x4 DUP4 ADD MSTORE PUSH1 0x24 SWAP1 DUP3 SWAP1 GAS STATICCALL SWAP1 DUP2 ISZERO PUSH2 0x1697 JUMPI PUSH2 0x14A9 SWAP4 PUSH1 0x0 SWAP3 PUSH2 0x169C JUMPI JUMPDEST POP PUSH1 0x20 SWAP2 SWAP3 PUSH2 0x1485 PUSH2 0x146E PUSH2 0x13F4 PUSH2 0x13F4 PUSH1 0x2 PUSH2 0xB3C JUMP JUMPDEST SWAP2 PUSH2 0x1478 PUSH1 0x40 MLOAD SWAP1 JUMP JUMPDEST SWAP7 DUP8 SWAP5 DUP6 SWAP4 DUP5 SWAP4 PUSH1 0xE0 SHL SWAP1 JUMP JUMPDEST DUP4 MSTORE PUSH20 0xFFFFFFFFFFFFFFFFFFFFFFFFFFFFFFFFFFFFFFFF AND PUSH1 0x4 DUP4 ADD MSTORE PUSH1 0x24 DUP3 ADD SWAP1 JUMP JUMPDEST SUB SWAP2 GAS STATICCALL SWAP2 DUP3 ISZERO PUSH2 0x1697 JUMPI PUSH1 0x0 SWAP3 PUSH2 0x1667 JUMPI JUMPDEST POP PUSH2 0x14CF PUSH2 0x14C9 DUP5 PUSH2 0x1119 JUMP JUMPDEST DUP3 PUSH2 0x1165 JUMP JUMPDEST PUSH2 0x14E1 PUSH2 0x14DB DUP7 PUSH2 0x1119 JUMP JUMPDEST DUP5 PUSH2 0x1165 JUMP JUMPDEST SWAP1 PUSH2 0x14EC PUSH1 0x0 PUSH2 0x967 JUMP JUMPDEST DUP2 GT DUP1 PUSH2 0x1650 JUMPI JUMPDEST PUSH2 0x14FD SWAP1 PUSH2 0x1177 JUMP JUMPDEST PUSH2 0x1507 PUSH1 0x8 PUSH2 0x120A JUMP JUMPDEST PUSH2 0x1511 PUSH1 0x0 PUSH2 0x967 JUMP JUMPDEST DUP2 SUB PUSH2 0x15B8 JUMPI POP PUSH2 0x155D SWAP8 PUSH2 0x1538 PUSH2 0x1533 PUSH2 0x252 SWAP9 SWAP8 SWAP7 SWAP6 SWAP5 PUSH2 0x15B3 SWAP5 PUSH2 0x1287 JUMP JUMPDEST PUSH2 0x2884 JUMP JUMPDEST SWAP1 PUSH2 0x154B PUSH2 0x1544 PUSH2 0x974 JUMP JUMPDEST DUP1 SWAP4 PUSH2 0x1165 JUMP JUMPDEST SWAP10 DUP11 SWAP3 PUSH2 0x1558 PUSH1 0x0 PUSH2 0xE39 JUMP JUMPDEST PUSH2 0x27BD JUMP JUMPDEST PUSH2 0x1571 PUSH2 0x156A PUSH1 0x0 PUSH2 0x967 JUMP JUMPDEST DUP4 GT PUSH2 0x12E6 JUMP JUMPDEST PUSH2 0x1558 PUSH2 0x15AB PUSH2 0x26D PUSH32 0xFFFFFFFFFFFFFFFFFFFFFFFFFFFFFFFFFFFFFFFFFFFFFFFFFFFFFFFFFFFFFFFF PUSH2 0x15A5 PUSH1 0x8 PUSH2 0x120A JUMP JUMPDEST SWAP1 PUSH2 0x1165 JUMP JUMPDEST DUP4 GT ISZERO PUSH2 0x1372 JUMP JUMPDEST PUSH2 0x1965 JUMP JUMPDEST DUP6 SWAP5 SWAP4 SWAP3 PUSH2 0x162D PUSH2 0x1624 DUP4 PUSH2 0x161E PUSH2 0x160F PUSH2 0x1633 SWAP7 PUSH2 0x15B3 SWAP9 PUSH2 0x160A PUSH2 0x252 SWAP16 SWAP15 DUP16 SWAP1 PUSH2 0x15FC PUSH2 0x15E8 PUSH1 0x0 PUSH2 0x1214 JUMP JUMPDEST SWAP2 PUSH14 0xFFFFFFFFFFFFFFFFFFFFFFFFFFFF AND SWAP1 JUMP JUMPDEST GT SWAP1 DUP2 PUSH2 0x163A JUMPI JUMPDEST POP PUSH2 0x1221 JUMP JUMPDEST PUSH2 0x1287 JUMP JUMPDEST PUSH2 0x1618 DUP12 PUSH2 0x1119 JUMP JUMPDEST SWAP1 PUSH2 0x12CC JUMP JUMPDEST SWAP4 PUSH2 0x1287 JUMP JUMPDEST PUSH2 0x1618 DUP10 PUSH2 0x1119 JUMP JUMPDEST SWAP1 PUSH2 0x2872 JUMP JUMPDEST DUP1 SWAP9 PUSH2 0x155D JUMP JUMPDEST SWAP1 POP PUSH2 0x1649 PUSH2 0x15E8 PUSH1 0x0 PUSH2 0x1214 JUMP JUMPDEST GT DUP16 PUSH2 0x1604 JUMP JUMPDEST POP PUSH2 0x14FD PUSH2 0x165E PUSH1 0x0 PUSH2 0x967 JUMP JUMPDEST DUP4 GT SWAP1 POP PUSH2 0x14F4 JUMP JUMPDEST PUSH2 0x1689 SWAP2 SWAP3 POP PUSH1 0x20 RETURNDATASIZE DUP2 GT PUSH2 0x1690 JUMPI JUMPDEST PUSH2 0x1681 DUP2 DUP4 PUSH2 0xD95 JUMP JUMPDEST DUP2 ADD SWAP1 PUSH2 0x10F9 JUMP JUMPDEST SWAP1 CODESIZE PUSH2 0x14BC JUMP JUMPDEST POP RETURNDATASIZE PUSH2 0x1677 JUMP JUMPDEST PUSH2 0x110D JUMP JUMPDEST PUSH1 0x20 SWAP3 POP PUSH2 0x16B6 SWAP1 DUP4 RETURNDATASIZE DUP2 GT PUSH2 0x1690 JUMPI PUSH2 0x1681 DUP2 DUP4 PUSH2 0xD95 JUMP JUMPDEST SWAP2 PUSH2 0x1456 JUMP JUMPDEST PUSH2 0x26D SWAP1 PUSH1 0x0 PUSH2 0x10BA JUMP JUMPDEST PUSH2 0x26D PUSH1 0x2 PUSH2 0x967 JUMP JUMPDEST SWAP1 PUSH32 0xFFFFFFFFFFFFFFFFFFFFFFFFFFFFFFFFFFFFFFFFFFFFFFFFFFFFFFFFFFFFFFFF SWAP1 PUSH2 0xC0C JUMP JUMPDEST SWAP1 PUSH2 0x1709 PUSH2 0x26D PUSH2 0xC2D SWAP3 PUSH2 0x967 JUMP JUMPDEST DUP3 SLOAD PUSH2 0x16D1 JUMP JUMPDEST PUSH2 0x171A PUSH1 0x0 PUSH2 0x120A JUMP JUMPDEST PUSH2 0x1722 PUSH2 0x16C7 JUMP JUMPDEST SWAP1 DUP2 EQ PUSH2 0x1734 JUMPI PUSH2 0x252 SWAP1 PUSH1 0x0 PUSH2 0x16F9 JUMP JUMPDEST PUSH1 0x40 MLOAD PUSH32 0x3EE5AEB500000000000000000000000000000000000000000000000000000000 DUP2 MSTORE PUSH1 0x4 SWAP1 REVERT JUMPDEST PUSH2 0x26D PUSH1 0x1 PUSH2 0x967 JUMP JUMPDEST PUSH2 0x252 PUSH2 0x1774 PUSH2 0x175F JUMP JUMPDEST PUSH1 0x0 PUSH2 0x16F9 JUMP JUMPDEST ISZERO PUSH2 0x1782 JUMPI JUMP JUMPDEST PUSH1 0x40 MLOAD PUSH32 0x8C379A000000000000000000000000000000000000000000000000000000000 DUP2 MSTORE PUSH1 0x20 PUSH1 0x4 DUP3 ADD MSTORE PUSH1 0x11 PUSH1 0x24 DUP3 ADD MSTORE PUSH32 0x444558506169723A204F564552464C4F57000000000000000000000000000000 PUSH1 0x44 DUP3 ADD MSTORE PUSH1 0x64 SWAP1 REVERT JUMPDEST DUP2 ISZERO PUSH2 0x12E1 JUMPI MOD SWAP1 JUMP JUMPDEST PUSH2 0x1087 PUSH2 0x26D PUSH2 0x26D SWAP3 SWAP1 JUMP JUMPDEST PUSH4 0xFFFFFFFF SWAP1 DUP2 AND SWAP2 AND SWAP1 SUB SWAP1 PUSH4 0xFFFFFFFF DUP3 GT PUSH2 0x1172 JUMPI JUMP JUMPDEST PUSH2 0x26D PUSH2 0x26D PUSH2 0x26D SWAP3 PUSH28 0xFFFFFFFFFFFFFFFFFFFFFFFFFFFFFFFFFFFFFFFFFFFFFFFFFFFFFFFF AND SWAP1 JUMP JUMPDEST PUSH2 0x26D PUSH2 0x26D PUSH2 0x26D SWAP3 PUSH4 0xFFFFFFFF AND SWAP1 JUMP JUMPDEST SWAP2 SWAP1 DUP3 ADD DUP1 SWAP3 GT PUSH2 0x1172 JUMPI JUMP JUMPDEST SWAP1 PUSH14 0xFFFFFFFFFFFFFFFFFFFFFFFFFFFF SWAP1 PUSH2 0xC0C JUMP JUMPDEST PUSH2 0x104C PUSH2 0x26D PUSH2 0x26D SWAP3 PUSH14 0xFFFFFFFFFFFFFFFFFFFFFFFFFFFF AND SWAP1 JUMP JUMPDEST SWAP1 PUSH2 0x18A0 PUSH2 0x26D PUSH2 0xC2D SWAP3 PUSH2 0x1873 JUMP JUMPDEST DUP3 SLOAD PUSH2 0x185D JUMP JUMPDEST SWAP1 PUSH28 0xFFFFFFFFFFFFFFFFFFFFFFFFFFFF0000000000000000000000000000 SWAP1 PUSH1 0x70 SHL PUSH2 0xC0C JUMP JUMPDEST SWAP1 PUSH2 0x18DE PUSH2 0x26D PUSH2 0xC2D SWAP3 PUSH2 0x1873 JUMP JUMPDEST DUP3 SLOAD PUSH2 0x18A7 JUMP JUMPDEST SWAP1 PUSH32 0xFFFFFFFF00000000000000000000000000000000000000000000000000000000 SWAP1 PUSH1 0xE0 SHL PUSH2 0xC0C JUMP JUMPDEST PUSH2 0x1087 PUSH2 0x26D PUSH2 0x26D SWAP3 PUSH4 0xFFFFFFFF AND SWAP1 JUMP JUMPDEST SWAP1 PUSH2 0x1933 PUSH2 0x26D PUSH2 0xC2D SWAP3 PUSH2 0x1910 JUMP JUMPDEST DUP3 SLOAD PUSH2 0x18E5 JUMP JUMPDEST PUSH2 0x3FE SWAP1 PUSH2 0x1119 JUMP JUMPDEST SWAP2 PUSH1 0x20 PUSH2 0x252 SWAP3 SWAP5 SWAP4 PUSH2 0x195E PUSH1 0x40 DUP3 ADD SWAP7 PUSH1 0x0 DUP4 ADD SWAP1 PUSH2 0x193A JUMP JUMPDEST ADD SWAP1 PUSH2 0x193A JUMP JUMPDEST PUSH2 0x1A18 SWAP2 PUSH2 0x1A0C PUSH2 0x1A05 PUSH2 0x1A11 SWAP4 PUSH2 0x1A1F SWAP8 PUSH2 0x19A2 PUSH14 0xFFFFFFFFFFFFFFFFFFFFFFFFFFFF PUSH2 0x1992 DUP2 PUSH2 0x1119 JUMP JUMPDEST DUP5 GT ISZERO SWAP1 DUP2 PUSH2 0x1B35 JUMPI JUMPDEST POP PUSH2 0x177B JUMP JUMPDEST PUSH2 0x19C2 PUSH2 0x19BD TIMESTAMP PUSH2 0x19B7 PUSH5 0x100000000 PUSH2 0x967 JUMP JUMPDEST SWAP1 PUSH2 0x17E1 JUMP JUMPDEST PUSH2 0x17EB JUMP JUMPDEST SWAP8 PUSH2 0x19D6 PUSH2 0x19D0 PUSH1 0x3 PUSH2 0x1090 JUMP JUMPDEST DUP11 PUSH2 0x17F8 JUMP JUMPDEST SWAP2 PUSH1 0x0 PUSH2 0x19E2 DUP2 PUSH2 0x17EB JUMP JUMPDEST PUSH4 0xFFFFFFFF DUP6 AND GT SWAP1 DUP2 PUSH2 0x1B11 JUMPI JUMPDEST DUP2 PUSH2 0x1AEE JUMPI JUMPDEST POP PUSH2 0x1A6A JUMPI JUMPDEST POP POP POP PUSH2 0x1214 JUMP JUMPDEST PUSH1 0x3 PUSH2 0x1890 JUMP JUMPDEST PUSH2 0x1214 JUMP JUMPDEST PUSH1 0x3 PUSH2 0x18CE JUMP JUMPDEST PUSH1 0x3 PUSH2 0x1923 JUMP JUMPDEST PUSH2 0x1A29 PUSH1 0x3 PUSH2 0x105F JUMP JUMPDEST PUSH2 0x1A33 PUSH1 0x3 PUSH2 0x1075 JUMP JUMPDEST PUSH32 0xCF2AA50876CDFBB541206F89AF0EE78D44A2ABF8D328E37FA4917F982149848A SWAP2 PUSH2 0xC6B PUSH2 0x1A61 PUSH1 0x40 MLOAD SWAP1 JUMP JUMPDEST SWAP3 DUP4 SWAP3 DUP4 PUSH2 0x1943 JUMP JUMPDEST PUSH2 0x1AE6 SWAP3 PUSH2 0x1AAE PUSH2 0x1ACF PUSH2 0x1AA0 DUP5 PUSH2 0x1A9B DUP8 PUSH2 0x1ACA PUSH2 0x1AC3 PUSH2 0x1AB4 PUSH2 0x1AA5 PUSH2 0x1AA0 PUSH2 0x1ADF SWAP14 PUSH2 0x1A9B PUSH2 0x1AD5 SWAP15 PUSH2 0x3186 JUMP JUMPDEST PUSH2 0x31D0 JUMP JUMPDEST PUSH2 0x1812 JUMP JUMPDEST PUSH2 0x1AAE DUP12 PUSH2 0x183D JUMP JUMPDEST SWAP1 PUSH2 0x1287 JUMP JUMPDEST PUSH2 0x1ABE PUSH1 0x5 PUSH2 0x120A JUMP JUMPDEST PUSH2 0x1850 JUMP JUMPDEST PUSH1 0x5 PUSH2 0x16F9 JUMP JUMPDEST PUSH2 0x3186 JUMP JUMPDEST SWAP2 PUSH2 0x183D JUMP JUMPDEST PUSH2 0x1ABE PUSH1 0x6 PUSH2 0x120A JUMP JUMPDEST PUSH1 0x6 PUSH2 0x16F9 JUMP JUMPDEST CODESIZE DUP1 DUP1 PUSH2 0x19FD JUMP JUMPDEST PUSH2 0x1AF8 SWAP2 POP PUSH2 0x1214 JUMP JUMPDEST PUSH14 0xFFFFFFFFFFFFFFFFFFFFFFFFFFFF DUP3 AND EQ ISZERO CODESIZE PUSH2 0x19F7 JUMP JUMPDEST SWAP1 POP PUSH2 0x1B1C DUP2 PUSH2 0x1214 JUMP JUMPDEST PUSH14 0xFFFFFFFFFFFFFFFFFFFFFFFFFFFF DUP5 AND EQ ISZERO SWAP1 PUSH2 0x19F1 JUMP JUMPDEST PUSH2 0x1B3F SWAP2 POP PUSH2 0x1119 JUMP JUMPDEST DUP7 GT ISZERO CODESIZE PUSH2 0x199C JUMP JUMPDEST SWAP1 PUSH2 0x1B5B SWAP3 SWAP2 PUSH2 0x1B56 PUSH2 0x1710 JUMP JUMPDEST PUSH2 0x1B65 JUMP JUMPDEST SWAP1 SWAP2 PUSH2 0x252 PUSH2 0x1769 JUMP JUMPDEST SWAP1 PUSH2 0x319 SWAP3 SWAP2 PUSH2 0x1B73 PUSH2 0xC78 JUMP JUMPDEST SWAP1 PUSH2 0x319 SWAP3 SWAP2 PUSH2 0x1C0A JUMP JUMPDEST ISZERO PUSH2 0x1B85 JUMPI JUMP JUMPDEST PUSH1 0x40 MLOAD PUSH32 0x8C379A000000000000000000000000000000000000000000000000000000000 DUP2 MSTORE PUSH1 0x20 PUSH1 0x4 DUP3 ADD MSTORE PUSH1 0x26 PUSH1 0x24 DUP3 ADD MSTORE PUSH32 0x444558506169723A20494E53554646494349454E545F4C49515549444954595F PUSH1 0x44 DUP3 ADD MSTORE PUSH32 0x4255524E45440000000000000000000000000000000000000000000000000000 PUSH1 0x64 DUP3 ADD MSTORE PUSH1 0x84 SWAP1 REVERT JUMPDEST SWAP3 SWAP2 SWAP3 POP POP PUSH2 0x1C17 PUSH2 0x109A JUMP JUMPDEST POP SWAP2 SWAP1 PUSH2 0x1C24 PUSH1 0x1 PUSH2 0xE22 JUMP JUMPDEST SWAP3 PUSH2 0x1C38 PUSH2 0x1C32 PUSH1 0x2 PUSH2 0xB3C JUMP JUMPDEST SWAP5 PUSH2 0x7C2 JUMP JUMPDEST SWAP2 PUSH2 0x1C42 DUP4 PUSH2 0x7C2 JUMP JUMPDEST SWAP3 PUSH4 0x70A08231 SWAP1 PUSH2 0x1C52 ADDRESS PUSH2 0x7C2 JUMP JUMPDEST PUSH1 0x40 MLOAD SWAP8 PUSH2 0x1C60 DUP5 PUSH1 0xE0 SHL SWAP1 JUMP JUMPDEST DUP10 MSTORE PUSH20 0xFFFFFFFFFFFFFFFFFFFFFFFFFFFFFFFFFFFFFFFF DUP3 AND PUSH1 0x4 DUP11 ADD MSTORE PUSH1 0x20 DUP10 PUSH1 0x24 DUP2 DUP11 GAS STATICCALL SWAP9 DUP10 ISZERO PUSH2 0x1697 JUMPI PUSH1 0x0 SWAP10 PUSH2 0x1E7B JUMPI JUMPDEST POP PUSH2 0x1CA0 SWAP1 PUSH2 0x7C2 JUMP JUMPDEST PUSH2 0x1CA9 DUP2 PUSH2 0x7C2 JUMP JUMPDEST SWAP3 PUSH2 0x1CB3 PUSH1 0x40 MLOAD SWAP1 JUMP JUMPDEST SWAP11 PUSH2 0x1CBE DUP7 PUSH1 0xE0 SHL SWAP1 JUMP JUMPDEST DUP13 MSTORE PUSH20 0xFFFFFFFFFFFFFFFFFFFFFFFFFFFFFFFFFFFFFFFF DUP5 AND PUSH1 0x4 DUP14 ADD MSTORE PUSH1 0x20 DUP13 PUSH1 0x24 DUP2 DUP9 GAS STATICCALL SWAP12 DUP13 ISZERO PUSH2 0x1697 JUMPI PUSH1 0x0 SWAP13 PUSH2 0x1E5B JUMPI JUMPDEST POP PUSH2 0x1D00 DUP5 PUSH1 0x7 PUSH2 0x7CB JUMP JUMPDEST PUSH2 0x1D09 SWAP1 PUSH2 0x120A JUMP JUMPDEST SWAP3 PUSH2 0x1D14 PUSH1 0x8 PUSH2 0x120A JUMP JUMPDEST PUSH2 0x1D1F DUP2 SWAP14 DUP7 PUSH2 0x1287 JUMP JUMPDEST SWAP1 PUSH2 0x1D29 SWAP2 PUSH2 0x12CC JUMP JUMPDEST SWAP12 DUP13 SWAP14 PUSH2 0x1D36 SWAP1 DUP7 PUSH2 0x1287 JUMP JUMPDEST SWAP1 PUSH2 0x1D40 SWAP2 PUSH2 0x12CC JUMP JUMPDEST SWAP3 DUP4 SWAP13 DUP4 PUSH1 0x0 SWAP3 PUSH2 0x1D50 DUP5 PUSH2 0x967 JUMP JUMPDEST DUP4 GT DUP1 SWAP9 PUSH2 0x1D6E PUSH2 0x1D79 SWAP11 PUSH2 0x1D74 SWAP8 PUSH2 0x1D74 SWAP5 PUSH2 0x1E49 JUMPI JUMPDEST POP PUSH2 0x1B7E JUMP JUMPDEST DUP11 PUSH2 0x2846 JUMP JUMPDEST PUSH2 0x1F13 JUMP JUMPDEST PUSH1 0x20 PUSH2 0x1D84 PUSH1 0x40 MLOAD SWAP1 JUMP JUMPDEST DUP1 SWAP8 PUSH2 0x1D90 DUP7 PUSH1 0xE0 SHL SWAP1 JUMP JUMPDEST DUP3 MSTORE PUSH20 0xFFFFFFFFFFFFFFFFFFFFFFFFFFFFFFFFFFFFFFFF DUP5 AND PUSH1 0x4 DUP4 ADD MSTORE PUSH1 0x24 SWAP1 DUP3 SWAP1 GAS STATICCALL SWAP2 DUP3 ISZERO PUSH2 0x1697 JUMPI PUSH2 0x1DE8 SWAP7 PUSH1 0x0 SWAP4 PUSH2 0x1E25 JUMPI JUMPDEST POP PUSH2 0x1485 DUP4 SWAP5 PUSH1 0x20 SWAP5 POP PUSH2 0x1DDB PUSH1 0x40 MLOAD SWAP1 JUMP JUMPDEST SWAP9 DUP10 SWAP5 DUP6 SWAP4 DUP5 SWAP4 PUSH1 0xE0 SHL SWAP1 JUMP JUMPDEST SUB SWAP2 GAS STATICCALL SWAP1 DUP2 ISZERO PUSH2 0x1697 JUMPI PUSH2 0x252 SWAP5 PUSH1 0x0 SWAP3 PUSH2 0x1E05 JUMPI JUMPDEST POP PUSH2 0x1965 JUMP JUMPDEST PUSH2 0x1E1E SWAP2 SWAP3 POP PUSH1 0x20 RETURNDATASIZE DUP2 GT PUSH2 0x1690 JUMPI PUSH2 0x1681 DUP2 DUP4 PUSH2 0xD95 JUMP JUMPDEST SWAP1 CODESIZE PUSH2 0x1DFF JUMP JUMPDEST PUSH1 0x20 SWAP4 POP PUSH2 0x1E42 PUSH2 0x1485 SWAP2 DUP6 RETURNDATASIZE DUP2 GT PUSH2 0x1690 JUMPI PUSH2 0x1681 DUP2 DUP4 PUSH2 0xD95 JUMP JUMPDEST SWAP4 POP PUSH2 0x1DC8 JUMP JUMPDEST PUSH2 0x1E53 SWAP2 POP PUSH2 0x967 JUMP JUMPDEST DUP11 GT CODESIZE PUSH2 0x1D68 JUMP JUMPDEST PUSH2 0x1E74 SWAP2 SWAP13 POP PUSH1 0x20 RETURNDATASIZE DUP2 GT PUSH2 0x1690 JUMPI PUSH2 0x1681 DUP2 DUP4 PUSH2 0xD95 JUMP JUMPDEST SWAP11 CODESIZE PUSH2 0x1CF4 JUMP JUMPDEST PUSH2 0x1CA0 SWAP2 SWAP10 POP PUSH2 0x1E98 SWAP1 PUSH1 0x20 RETURNDATASIZE DUP2 GT PUSH2 0x1690 JUMPI PUSH2 0x1681 DUP2 DUP4 PUSH2 0xD95 JUMP JUMPDEST SWAP9 SWAP1 PUSH2 0x1C96 JUMP JUMPDEST PUSH2 0x319 SWAP1 PUSH1 0x0 DUP1 PUSH2 0x1B48 JUMP JUMPDEST PUSH2 0x1EC4 PUSH2 0x1EBE PUSH2 0x26D SWAP3 PUSH4 0xFFFFFFFF AND SWAP1 JUMP JUMPDEST PUSH1 0xE0 SHL SWAP1 JUMP JUMPDEST PUSH32 0xFFFFFFFF00000000000000000000000000000000000000000000000000000000 AND SWAP1 JUMP JUMPDEST PUSH20 0xFFFFFFFFFFFFFFFFFFFFFFFFFFFFFFFFFFFFFFFF SWAP1 SWAP2 AND DUP2 MSTORE PUSH1 0x40 DUP2 ADD SWAP3 SWAP2 PUSH2 0x252 SWAP2 PUSH1 0x20 ADD MSTORE JUMP JUMPDEST PUSH2 0x1F56 PUSH1 0x4 SWAP3 PUSH2 0x1F47 PUSH2 0x252 SWAP6 PUSH2 0x1F2D PUSH4 0xA9059CBB PUSH2 0x1EAB JUMP JUMPDEST SWAP3 PUSH2 0x1F37 PUSH1 0x40 MLOAD SWAP1 JUMP JUMPDEST SWAP7 DUP8 SWAP5 PUSH1 0x20 DUP7 ADD SWAP1 DUP2 MSTORE ADD PUSH2 0x1EE9 JUMP JUMPDEST PUSH1 0x20 DUP3 ADD DUP2 SUB DUP3 MSTORE SUB DUP4 PUSH2 0xD95 JUMP JUMPDEST SWAP1 PUSH1 0x0 PUSH1 0x20 SWAP2 PUSH2 0x1F64 PUSH1 0x0 SWAP1 JUMP JUMPDEST POP DUP3 DUP2 MLOAD SWAP2 ADD DUP3 DUP6 GAS CALL ISZERO PUSH2 0x110D JUMPI PUSH1 0x0 DUP1 MLOAD RETURNDATASIZE PUSH2 0x1F84 PUSH2 0x12D2 DUP5 PUSH2 0x967 JUMP JUMPDEST SUB PUSH2 0x2002 JUMPI POP PUSH2 0x1FA0 PUSH2 0x12D2 PUSH2 0x1F99 DUP5 PUSH2 0x7C2 JUMP JUMPDEST EXTCODESIZE SWAP3 PUSH2 0x967 JUMP JUMPDEST EQ JUMPDEST PUSH2 0x1FA9 JUMPI POP JUMP JUMPDEST PUSH2 0x1FB5 PUSH2 0xBAC SWAP2 PUSH2 0x7C2 JUMP JUMPDEST PUSH1 0x40 MLOAD SWAP2 DUP3 SWAP2 PUSH32 0x5274AFE700000000000000000000000000000000000000000000000000000000 DUP4 MSTORE PUSH1 0x4 DUP4 ADD PUSH20 0xFFFFFFFFFFFFFFFFFFFFFFFFFFFFFFFFFFFFFFFF SWAP1 SWAP2 AND DUP2 MSTORE PUSH1 0x20 ADD SWAP1 JUMP JUMPDEST SWAP1 POP PUSH2 0x2011 PUSH2 0x12D2 PUSH1 0x1 PUSH2 0x967 JUMP JUMPDEST EQ ISZERO PUSH2 0x1FA2 JUMP JUMPDEST SWAP1 PUSH2 0x202D SWAP5 SWAP4 SWAP3 SWAP2 PUSH2 0x2028 PUSH2 0x1710 JUMP JUMPDEST PUSH2 0x2035 JUMP JUMPDEST PUSH2 0x252 PUSH2 0x1769 JUMP JUMPDEST SWAP1 PUSH2 0x252 SWAP5 SWAP4 SWAP3 SWAP2 PUSH2 0x2045 PUSH2 0xC78 JUMP JUMPDEST SWAP1 PUSH2 0x252 SWAP5 SWAP4 SWAP3 SWAP2 PUSH2 0x228B JUMP JUMPDEST ISZERO PUSH2 0x2059 JUMPI JUMP JUMPDEST PUSH1 0x40 MLOAD PUSH32 0x8C379A000000000000000000000000000000000000000000000000000000000 DUP2 MSTORE PUSH1 0x20 PUSH1 0x4 DUP3 ADD MSTORE PUSH1 0x23 PUSH1 0x24 DUP3 ADD MSTORE PUSH32 0x444558506169723A20494E53554646494349454E545F4F55545055545F414D4F PUSH1 0x44 DUP3 ADD MSTORE PUSH32 0x554E540000000000000000000000000000000000000000000000000000000000 PUSH1 0x64 DUP3 ADD MSTORE PUSH1 0x84 SWAP1 REVERT JUMPDEST ISZERO PUSH2 0x20E5 JUMPI JUMP JUMPDEST PUSH1 0x40 MLOAD PUSH32 0x8C379A000000000000000000000000000000000000000000000000000000000 DUP2 MSTORE PUSH1 0x20 PUSH1 0x4 DUP3 ADD MSTORE PUSH1 0x1F PUSH1 0x24 DUP3 ADD MSTORE PUSH32 0x444558506169723A20494E53554646494349454E545F4C495155494449545900 PUSH1 0x44 DUP3 ADD MSTORE PUSH1 0x64 SWAP1 REVERT JUMPDEST ISZERO PUSH2 0x214B JUMPI JUMP JUMPDEST PUSH1 0x40 MLOAD PUSH32 0x8C379A000000000000000000000000000000000000000000000000000000000 DUP2 MSTORE PUSH1 0x20 PUSH1 0x4 DUP3 ADD MSTORE PUSH1 0x13 PUSH1 0x24 DUP3 ADD MSTORE PUSH32 0x444558506169723A20494E56414C49445F544F00000000000000000000000000 PUSH1 0x44 DUP3 ADD MSTORE PUSH1 0x64 SWAP1 REVERT JUMPDEST SWAP1 DUP3 PUSH1 0x0 SWAP4 SWAP3 DUP3 CALLDATACOPY ADD MSTORE JUMP JUMPDEST SWAP2 SWAP1 PUSH2 0x39A DUP2 PUSH2 0x21CD DUP2 PUSH2 0x3C2 SWAP6 PUSH1 0x20 SWAP2 DUP2 MSTORE ADD SWAP1 JUMP JUMPDEST DUP1 SWAP6 PUSH2 0x21AA JUMP JUMPDEST SWAP1 SWAP4 SWAP2 PUSH2 0x26D SWAP6 SWAP4 PUSH2 0x2211 PUSH2 0x2218 SWAP3 PUSH2 0x220A PUSH1 0x80 DUP7 ADD SWAP9 PUSH1 0x0 DUP8 ADD SWAP1 PUSH20 0xFFFFFFFFFFFFFFFFFFFFFFFFFFFFFFFFFFFFFFFF AND SWAP1 MSTORE JUMP JUMPDEST PUSH1 0x20 DUP6 ADD MSTORE JUMP JUMPDEST PUSH1 0x40 DUP4 ADD MSTORE JUMP JUMPDEST PUSH1 0x60 DUP2 DUP6 SUB SWAP2 ADD MSTORE PUSH2 0x21B6 JUMP JUMPDEST ISZERO PUSH2 0x222C JUMPI JUMP JUMPDEST PUSH1 0x40 MLOAD PUSH32 0x8C379A000000000000000000000000000000000000000000000000000000000 DUP2 MSTORE PUSH1 0x20 PUSH1 0x4 DUP3 ADD MSTORE PUSH1 0xA PUSH1 0x24 DUP3 ADD MSTORE PUSH32 0x444558506169723A204B00000000000000000000000000000000000000000000 PUSH1 0x44 DUP3 ADD MSTORE PUSH1 0x64 SWAP1 REVERT JUMPDEST SWAP4 SWAP3 SWAP2 SWAP3 PUSH1 0x0 PUSH2 0x229A DUP2 PUSH2 0x967 JUMP JUMPDEST DUP7 GT SWAP2 DUP3 DUP4 ISZERO PUSH2 0x26B3 JUMPI JUMPDEST PUSH2 0x22AE SWAP1 PUSH2 0x2052 JUMP JUMPDEST PUSH2 0x22B6 PUSH2 0x109A JUMP JUMPDEST POP SWAP7 SWAP1 SWAP6 PUSH2 0x22C3 DUP8 PUSH2 0x1119 JUMP JUMPDEST DUP10 LT DUP1 PUSH2 0x269D JUMPI JUMPDEST PUSH2 0x22D4 SWAP1 PUSH2 0x20DE JUMP JUMPDEST PUSH2 0x22DE PUSH1 0x1 PUSH2 0xE22 JUMP JUMPDEST SWAP2 PUSH2 0x22E9 PUSH1 0x2 PUSH2 0xB3C JUMP JUMPDEST SWAP6 PUSH20 0xFFFFFFFFFFFFFFFFFFFFFFFFFFFFFFFFFFFFFFFF DUP5 AND PUSH20 0xFFFFFFFFFFFFFFFFFFFFFFFFFFFFFFFFFFFFFFFF DUP4 AND EQ ISZERO DUP1 PUSH2 0x267A JUMPI JUMPDEST PUSH2 0x2329 SWAP1 PUSH2 0x2144 JUMP JUMPDEST PUSH2 0x2667 JUMPI JUMPDEST PUSH2 0x2337 DUP6 PUSH2 0x967 JUMP JUMPDEST DUP8 GT PUSH2 0x2654 JUMPI JUMPDEST DUP4 PUSH2 0x234B PUSH2 0x12D2 DUP8 PUSH2 0x967 JUMP JUMPDEST GT PUSH2 0x25BE JUMPI JUMPDEST POP POP PUSH2 0x2361 SWAP2 POP PUSH2 0x13F4 SWAP1 PUSH2 0x7C2 JUMP JUMPDEST SWAP2 PUSH4 0x70A08231 PUSH2 0x2370 ADDRESS PUSH2 0x7C2 JUMP JUMPDEST SWAP2 PUSH1 0x20 PUSH2 0x237C PUSH1 0x40 MLOAD SWAP1 JUMP JUMPDEST DUP1 SWAP7 PUSH2 0x2388 DUP6 PUSH1 0xE0 SHL SWAP1 JUMP JUMPDEST DUP3 MSTORE PUSH20 0xFFFFFFFFFFFFFFFFFFFFFFFFFFFFFFFFFFFFFFFF DUP7 AND PUSH1 0x4 DUP4 ADD MSTORE PUSH1 0x24 SWAP1 DUP3 SWAP1 GAS STATICCALL SWAP5 DUP6 ISZERO PUSH2 0x1697 JUMPI PUSH1 0x0 SWAP6 PUSH2 0x2588 JUMPI JUMPDEST POP SWAP2 PUSH1 0x20 SWAP2 PUSH2 0x1485 PUSH2 0x23D3 PUSH2 0x13F4 PUSH2 0x23EA SWAP7 PUSH2 0x7C2 JUMP JUMPDEST SWAP2 PUSH2 0x23DD PUSH1 0x40 MLOAD SWAP1 JUMP JUMPDEST SWAP6 DUP7 SWAP5 DUP6 SWAP4 DUP5 SWAP4 PUSH1 0xE0 SHL SWAP1 JUMP JUMPDEST SUB SWAP2 GAS STATICCALL SWAP4 DUP5 ISZERO PUSH2 0x1697 JUMPI PUSH2 0x252 SWAP8 DUP7 DUP9 SWAP4 PUSH1 0x0 SWAP8 PUSH2 0x2542 JUMPI JUMPDEST POP SWAP3 PUSH2 0x249D DUP4 PUSH2 0x2461 PUSH2 0x26D PUSH2 0x15B3 SWAP9 SWAP7 PUSH2 0x2434 PUSH2 0x1AAE SWAP8 PUSH2 0x24E3 SWAP11 DUP14 PUSH2 0x2439 PUSH2 0x12D2 PUSH2 0x26D DUP6 PUSH2 0x2434 DUP7 PUSH2 0x1119 JUMP JUMPDEST PUSH2 0x1165 JUMP JUMPDEST GT PUSH1 0x0 SWAP1 PUSH1 0x0 EQ PUSH2 0x2536 JUMPI POP PUSH2 0x245B SWAP2 PUSH2 0x2434 PUSH2 0x2455 SWAP3 PUSH2 0x1119 JUMP JUMPDEST DUP14 PUSH2 0x1165 JUMP JUMPDEST SWAP7 PUSH2 0x1119 JUMP JUMPDEST PUSH1 0x0 SWAP1 DUP11 GT ISZERO PUSH2 0x2526 JUMPI POP PUSH2 0x247C PUSH2 0x2482 SWAP2 PUSH2 0x2434 DUP14 PUSH2 0x1119 JUMP JUMPDEST DUP10 PUSH2 0x1165 JUMP JUMPDEST SWAP4 JUMPDEST PUSH2 0x248D DUP2 PUSH2 0x967 JUMP JUMPDEST DUP4 GT SWAP1 DUP2 ISZERO PUSH2 0x2514 JUMPI JUMPDEST POP PUSH2 0x1177 JUMP JUMPDEST PUSH2 0x15A5 PUSH2 0x3E8 SWAP4 PUSH2 0x1AAE PUSH2 0x24DD PUSH2 0x24D7 PUSH2 0x24D1 PUSH2 0x24C2 PUSH2 0x24BC DUP11 PUSH2 0x967 JUMP JUMPDEST DUP14 PUSH2 0x1287 JUMP JUMPDEST PUSH2 0x15A5 PUSH1 0x3 SWAP9 PUSH2 0x1AAE DUP11 PUSH2 0x967 JUMP JUMPDEST SWAP8 PUSH2 0x967 JUMP JUMPDEST DUP12 PUSH2 0x1287 JUMP JUMPDEST SWAP4 PUSH2 0x967 JUMP JUMPDEST PUSH2 0x250D PUSH2 0x12D2 PUSH2 0x26D PUSH2 0x2501 PUSH2 0x24F8 DUP10 PUSH2 0x1119 JUMP JUMPDEST PUSH2 0x1AAE DUP12 PUSH2 0x1119 JUMP JUMPDEST PUSH2 0x1AAE PUSH3 0xF4240 PUSH2 0x967 JUMP JUMPDEST LT ISZERO PUSH2 0x2225 JUMP JUMPDEST PUSH2 0x251E SWAP2 POP PUSH2 0x967 JUMP JUMPDEST DUP5 GT CODESIZE PUSH2 0x2497 JUMP JUMPDEST PUSH2 0x2530 SWAP2 POP PUSH2 0x967 JUMP JUMPDEST SWAP4 PUSH2 0x2484 JUMP JUMPDEST SWAP1 POP PUSH2 0x245B SWAP2 POP PUSH2 0x967 JUMP JUMPDEST PUSH2 0x24E3 SWAP5 SWAP2 SWAP8 POP DUP4 PUSH2 0x2461 PUSH2 0x26D PUSH2 0x15B3 SWAP9 SWAP7 PUSH2 0x2434 PUSH2 0x1AAE SWAP8 PUSH2 0x2576 PUSH2 0x249D SWAP8 PUSH1 0x20 RETURNDATASIZE DUP2 GT PUSH2 0x1690 JUMPI PUSH2 0x1681 DUP2 DUP4 PUSH2 0xD95 JUMP JUMPDEST SWAP14 SWAP8 SWAP11 POP SWAP8 POP POP POP POP POP SWAP4 SWAP6 POP PUSH2 0x2404 JUMP JUMPDEST PUSH2 0x23EA SWAP4 SWAP2 SWAP6 POP SWAP2 PUSH2 0x1485 PUSH2 0x23D3 PUSH2 0x13F4 PUSH2 0x25B1 PUSH1 0x20 SWAP7 DUP8 RETURNDATASIZE DUP2 GT PUSH2 0x1690 JUMPI PUSH2 0x1681 DUP2 DUP4 PUSH2 0xD95 JUMP JUMPDEST SWAP9 SWAP5 SWAP7 POP POP POP POP SWAP2 PUSH2 0x23BC JUMP JUMPDEST PUSH2 0x13F4 PUSH2 0x25CA SWAP2 PUSH2 0x7C2 JUMP JUMPDEST SWAP1 PUSH4 0xBEA9CF36 SWAP2 CALLER SWAP2 DUP2 EXTCODESIZE ISZERO PUSH2 0x240 JUMPI DUP7 DUP1 SWAP5 PUSH2 0x2608 DUP15 SWAP9 PUSH2 0x25FD SWAP5 DUP14 PUSH2 0x25F0 PUSH1 0x40 MLOAD SWAP1 JUMP JUMPDEST SWAP12 DUP13 SWAP10 DUP11 SWAP9 DUP10 SWAP8 PUSH1 0xE0 SHL SWAP1 JUMP JUMPDEST DUP8 MSTORE PUSH1 0x4 DUP8 ADD PUSH2 0x21D4 JUMP JUMPDEST SUB SWAP3 GAS CALL SWAP1 DUP2 ISZERO PUSH2 0x1697 JUMPI PUSH2 0x2361 SWAP3 PUSH2 0x13F4 SWAP3 PUSH2 0x2628 JUMPI JUMPDEST DUP2 SWAP3 POP PUSH2 0x2351 JUMP JUMPDEST PUSH2 0x2647 SWAP1 DUP6 RETURNDATASIZE DUP8 GT PUSH2 0x264D JUMPI JUMPDEST PUSH2 0x263F DUP2 DUP4 PUSH2 0xD95 JUMP JUMPDEST DUP2 ADD SWAP1 PUSH2 0x342 JUMP JUMPDEST CODESIZE PUSH2 0x2620 JUMP JUMPDEST POP RETURNDATASIZE PUSH2 0x2635 JUMP JUMPDEST PUSH2 0x2662 DUP8 DUP3 PUSH2 0x1D74 DUP10 PUSH2 0x7C2 JUMP JUMPDEST PUSH2 0x233E JUMP JUMPDEST PUSH2 0x2675 DUP11 DUP3 PUSH2 0x1D74 DUP7 PUSH2 0x7C2 JUMP JUMPDEST PUSH2 0x232E JUMP JUMPDEST POP PUSH20 0xFFFFFFFFFFFFFFFFFFFFFFFFFFFFFFFFFFFFFFFF DUP3 DUP2 AND SWAP1 DUP9 AND EQ ISZERO PUSH2 0x2320 JUMP JUMPDEST POP PUSH2 0x22D4 PUSH2 0x26AA DUP10 PUSH2 0x1119 JUMP JUMPDEST DUP8 LT SWAP1 POP PUSH2 0x22CB JUMP JUMPDEST POP PUSH2 0x22AE PUSH2 0x26C0 DUP4 PUSH2 0x967 JUMP JUMPDEST DUP6 GT SWAP1 POP PUSH2 0x22A5 JUMP JUMPDEST SWAP1 PUSH2 0x252 SWAP5 SWAP4 SWAP3 SWAP2 PUSH2 0x2018 JUMP JUMPDEST PUSH2 0x26DE PUSH2 0x1710 JUMP JUMPDEST PUSH2 0x202D PUSH2 0x26F1 PUSH2 0x13F4 PUSH2 0x13F4 PUSH1 0x1 PUSH2 0xE22 JUMP JUMPDEST PUSH4 0x70A08231 PUSH2 0x26FF ADDRESS PUSH2 0x7C2 JUMP JUMPDEST PUSH1 0x20 PUSH2 0x270A PUSH1 0x40 MLOAD SWAP1 JUMP JUMPDEST DUP1 SWAP5 PUSH2 0x2716 DUP6 PUSH1 0xE0 SHL SWAP1 JUMP JUMPDEST DUP3 MSTORE PUSH20 0xFFFFFFFFFFFFFFFFFFFFFFFFFFFFFFFFFFFFFFFF DUP5 AND PUSH1 0x4 DUP4 ADD MSTORE PUSH1 0x24 SWAP1 DUP3 SWAP1 GAS STATICCALL SWAP1 DUP2 ISZERO PUSH2 0x1697 JUMPI PUSH2 0x2765 SWAP4 PUSH1 0x0 SWAP3 PUSH2 0x169C JUMPI POP PUSH1 0x20 SWAP2 SWAP3 PUSH2 0x1485 PUSH2 0x146E PUSH2 0x13F4 PUSH2 0x13F4 PUSH1 0x2 PUSH2 0xB3C JUMP JUMPDEST SUB SWAP2 GAS STATICCALL DUP1 ISZERO PUSH2 0x1697 JUMPI PUSH2 0x252 SWAP3 PUSH1 0x0 SWAP2 PUSH2 0x2797 JUMPI JUMPDEST POP PUSH2 0x2786 PUSH1 0x3 PUSH2 0x105F JUMP JUMPDEST SWAP1 PUSH2 0x2791 PUSH1 0x3 PUSH2 0x1075 JUMP JUMPDEST SWAP3 PUSH2 0x1965 JUMP JUMPDEST PUSH2 0x27AF SWAP2 POP PUSH1 0x20 RETURNDATASIZE DUP2 GT PUSH2 0x1690 JUMPI PUSH2 0x1681 DUP2 DUP4 PUSH2 0xD95 JUMP JUMPDEST CODESIZE PUSH2 0x277B JUMP JUMPDEST PUSH2 0x252 PUSH2 0x26D6 JUMP JUMPDEST SWAP1 PUSH2 0x2840 PUSH2 0x2836 PUSH2 0x252 SWAP4 PUSH2 0x27F0 PUSH2 0x27D9 DUP6 PUSH2 0x1ABE PUSH1 0x8 PUSH2 0x120A JUMP JUMPDEST PUSH2 0x27E9 PUSH2 0x12D2 PUSH2 0x26D PUSH1 0x8 PUSH2 0x120A JUMP JUMPDEST LT ISZERO PUSH2 0x177B JUMP JUMPDEST PUSH1 0x7 PUSH2 0x281E PUSH2 0x280B DUP7 PUSH2 0x1ABE PUSH2 0x2806 DUP7 DUP7 PUSH2 0x7CB JUMP JUMPDEST PUSH2 0x120A JUMP JUMPDEST PUSH2 0x27E9 PUSH2 0x12D2 PUSH2 0x26D PUSH2 0x2806 DUP8 DUP8 PUSH2 0x7CB JUMP JUMPDEST PUSH2 0xAF0 PUSH2 0x282F DUP7 PUSH2 0x1ABE PUSH1 0x8 PUSH2 0x120A JUMP JUMPDEST PUSH1 0x8 PUSH2 0x16F9 JUMP JUMPDEST SWAP2 PUSH2 0x1ABE DUP4 PUSH2 0x120A JUMP JUMPDEST SWAP1 PUSH2 0x16F9 JUMP JUMPDEST PUSH2 0x252 SWAP2 PUSH2 0x2868 PUSH2 0x285B PUSH2 0x282F SWAP4 PUSH1 0x7 PUSH2 0x7CB JUMP JUMPDEST PUSH2 0x2840 DUP4 PUSH2 0x2434 DUP4 PUSH2 0x120A JUMP JUMPDEST PUSH2 0x2434 PUSH1 0x8 PUSH2 0x120A JUMP JUMPDEST SWAP1 DUP1 DUP3 LT ISZERO PUSH2 0x287F JUMPI POP SWAP1 JUMP JUMPDEST SWAP1 POP SWAP1 JUMP JUMPDEST SWAP1 PUSH1 0x0 PUSH2 0x2891 PUSH1 0x3 PUSH2 0x967 JUMP JUMPDEST DUP4 GT ISZERO PUSH2 0x290F JUMPI POP PUSH2 0x28C6 DUP3 PUSH1 0x2 PUSH2 0x28B1 PUSH2 0x28AB DUP3 PUSH2 0x967 JUMP JUMPDEST DUP4 PUSH2 0x12CC JUMP JUMPDEST SWAP2 PUSH1 0x1 SWAP4 DUP5 SWAP4 PUSH2 0x28C0 DUP6 PUSH2 0x967 JUMP JUMPDEST SWAP1 PUSH2 0x1850 JUMP JUMPDEST SWAP4 JUMPDEST PUSH2 0x28D3 JUMPI JUMPDEST POP POP POP POP JUMP JUMPDEST SWAP1 SWAP2 SWAP3 SWAP5 PUSH2 0x28DE DUP2 SWAP1 JUMP JUMPDEST DUP7 LT ISZERO PUSH2 0x2909 JUMPI POP PUSH2 0x2900 PUSH2 0x28F7 DUP7 PUSH2 0x1ABE DUP2 DUP6 PUSH2 0x12CC JUMP JUMPDEST PUSH2 0x1618 DUP5 PUSH2 0x967 JUMP JUMPDEST SWAP3 SWAP2 SWAP1 DUP3 PUSH2 0x28C8 JUMP JUMPDEST SWAP5 PUSH2 0x28CD JUMP JUMPDEST SWAP2 PUSH2 0x291D PUSH2 0x12D2 PUSH1 0x0 PUSH2 0x967 JUMP JUMPDEST SUB PUSH2 0x2924 JUMPI JUMP JUMPDEST SWAP1 POP PUSH2 0x26D PUSH1 0x1 PUSH2 0x967 JUMP JUMPDEST CALLER PUSH2 0x2949 DUP4 PUSH2 0x2944 DUP5 PUSH2 0xAF0 DUP6 PUSH1 0xC PUSH2 0x7CB JUMP JUMPDEST PUSH2 0x16F9 JUMP JUMPDEST PUSH2 0x2989 PUSH2 0x297F PUSH2 0x2979 PUSH32 0x8C5BE1E5EBEC7D5BD14F71427D1E84F3DD0314C0F7B2291E5B200AC8C7C3B925 SWAP4 PUSH2 0x7C2 JUMP JUMPDEST SWAP4 PUSH2 0x7C2 JUMP JUMPDEST SWAP4 PUSH2 0x55E PUSH1 0x40 MLOAD SWAP1 JUMP JUMPDEST SUB SWAP1 LOG3 PUSH1 0x1 SWAP1 JUMP JUMPDEST CALLER PUSH2 0x29C2 PUSH2 0x29B5 DUP4 PUSH1 0x7 PUSH2 0xAF0 PUSH2 0x29A8 DUP7 DUP4 PUSH2 0x7CB JUMP JUMPDEST PUSH2 0x2840 DUP10 PUSH2 0x2434 DUP4 PUSH2 0x120A JUMP JUMPDEST PUSH2 0x2840 DUP6 PUSH2 0x1ABE DUP4 PUSH2 0x120A JUMP JUMPDEST PUSH2 0x2989 PUSH2 0x297F PUSH2 0x2979 PUSH32 0xDDF252AD1BE2C89B69C2B068FC378DAA952BA7F163C4A11628F55A4DF523B3EF SWAP4 PUSH2 0x7C2 JUMP JUMPDEST PUSH1 0xC DUP2 PUSH2 0x29FF DUP2 DUP4 PUSH2 0x7CB JUMP JUMPDEST PUSH2 0x2A0D PUSH2 0x2806 CALLER DUP1 SWAP4 PUSH2 0x7CB JUMP JUMPDEST PUSH1 0x1 ADD PUSH2 0x2A2E JUMPI JUMPDEST POP POP POP PUSH2 0x29C2 PUSH2 0x29B5 DUP4 PUSH1 0x7 PUSH2 0xAF0 PUSH2 0x29A8 DUP7 DUP4 PUSH2 0x7CB JUMP JUMPDEST PUSH2 0xAF0 PUSH2 0x2A3E SWAP3 PUSH2 0x2A4B SWAP5 PUSH2 0x7CB JUMP JUMPDEST PUSH2 0x2840 DUP6 PUSH2 0x2434 DUP4 PUSH2 0x120A JUMP JUMPDEST CODESIZE DUP2 DUP2 PUSH2 0x2A15 JUMP JUMPDEST PUSH8 0xFFFFFFFFFFFFFFFF DUP2 GT PUSH2 0xDD5 JUMPI PUSH1 0x20 SWAP1 PUSH1 0x1F ADD PUSH32 0xFFFFFFFFFFFFFFFFFFFFFFFFFFFFFFFFFFFFFFFFFFFFFFFFFFFFFFFFFFFFFFE0 AND ADD SWAP1 JUMP JUMPDEST SWAP1 PUSH2 0x2AA0 PUSH2 0x2A9B DUP4 PUSH2 0x2A53 JUMP JUMPDEST PUSH2 0xDDA JUMP JUMPDEST SWAP2 DUP3 MSTORE JUMP JUMPDEST PUSH2 0x2AAF PUSH1 0xC PUSH2 0x2A8E JUMP JUMPDEST PUSH32 0x444558204C5020546F6B656E0000000000000000000000000000000000000000 PUSH1 0x20 DUP3 ADD MSTORE SWAP1 JUMP JUMPDEST PUSH2 0x26D PUSH2 0x2AA5 JUMP JUMPDEST PUSH2 0x26D PUSH2 0x2AD8 JUMP JUMPDEST PUSH2 0x2AF2 PUSH1 0x2 PUSH2 0x2A8E JUMP JUMPDEST PUSH32 0x4C50000000000000000000000000000000000000000000000000000000000000 PUSH1 0x20 DUP3 ADD MSTORE SWAP1 JUMP JUMPDEST PUSH2 0x26D PUSH2 0x2AE8 JUMP JUMPDEST PUSH2 0x26D PUSH2 0x2B1B JUMP JUMPDEST PUSH2 0x64C PUSH2 0x26D PUSH2 0x26D SWAP3 SWAP1 JUMP JUMPDEST PUSH2 0x26D PUSH1 0x12 PUSH2 0x2B2B JUMP JUMPDEST PUSH2 0x26D PUSH2 0x2BDA JUMP JUMPDEST PUSH2 0x2B54 PUSH1 0x1 PUSH2 0x2A8E JUMP JUMPDEST PUSH32 0x3100000000000000000000000000000000000000000000000000000000000000 PUSH1 0x20 DUP3 ADD MSTORE SWAP1 JUMP JUMPDEST PUSH2 0x26D PUSH2 0x2B4A JUMP JUMPDEST SWAP1 SWAP6 SWAP5 SWAP3 PUSH2 0x252 SWAP5 PUSH2 0x2BB7 PUSH2 0x2BBE SWAP3 PUSH2 0x2BB0 PUSH1 0x80 SWAP7 PUSH2 0x2BA9 PUSH1 0xA0 DUP9 ADD SWAP13 PUSH1 0x0 DUP10 ADD MSTORE JUMP JUMPDEST PUSH1 0x20 DUP8 ADD MSTORE JUMP JUMPDEST PUSH1 0x40 DUP6 ADD MSTORE JUMP JUMPDEST PUSH1 0x60 DUP4 ADD MSTORE JUMP JUMPDEST ADD SWAP1 PUSH20 0xFFFFFFFFFFFFFFFFFFFFFFFFFFFFFFFFFFFFFFFF AND SWAP1 MSTORE JUMP JUMPDEST PUSH32 0x8B73C3C69BB8FE3D512ECC4CF759CC79239F7B179B0FFACAA9A75D522B39400F PUSH2 0x2C5F PUSH2 0x2C06 PUSH2 0x2AD8 JUMP JUMPDEST PUSH2 0x2C18 PUSH2 0x2C11 DUP3 MLOAD SWAP1 JUMP JUMPDEST SWAP2 PUSH1 0x20 ADD SWAP1 JUMP JUMPDEST KECCAK256 PUSH2 0x2C21 PUSH2 0x2B7D JUMP JUMPDEST PUSH2 0x2C2C PUSH2 0x2C11 DUP3 MLOAD SWAP1 JUMP JUMPDEST KECCAK256 SWAP3 PUSH2 0x2C53 CHAINID PUSH2 0x2C3B ADDRESS PUSH2 0x7C2 JUMP JUMPDEST SWAP1 PUSH2 0x2C45 PUSH1 0x40 MLOAD SWAP1 JUMP JUMPDEST SWAP7 DUP8 SWAP6 PUSH1 0x20 DUP8 ADD SWAP6 DUP7 PUSH2 0x2B85 JUMP JUMPDEST SWAP1 DUP2 SUB DUP3 MSTORE SUB DUP3 PUSH2 0xD95 JUMP JUMPDEST PUSH2 0x2C6A PUSH2 0x2C11 DUP3 MLOAD SWAP1 JUMP JUMPDEST KECCAK256 SWAP1 JUMP JUMPDEST ISZERO PUSH2 0x2C75 JUMPI JUMP JUMPDEST PUSH1 0x40 MLOAD PUSH32 0x8C379A000000000000000000000000000000000000000000000000000000000 DUP2 MSTORE PUSH1 0x20 PUSH1 0x4 DUP3 ADD MSTORE PUSH1 0x10 PUSH1 0x24 DUP3 ADD MSTORE PUSH32 0x444558506169723A204558504952454400000000000000000000000000000000 PUSH1 0x44 DUP3 ADD MSTORE PUSH1 0x64 SWAP1 REVERT JUMPDEST PUSH32 0xFFFFFFFFFFFFFFFFFFFFFFFFFFFFFFFFFFFFFFFFFFFFFFFFFFFFFFFFFFFFFFFF DUP2 EQ PUSH2 0x1172 JUMPI PUSH1 0x1 ADD SWAP1 JUMP JUMPDEST SWAP2 SWAP5 PUSH2 0x2D6A PUSH2 0x8FE SWAP3 SWAP9 SWAP8 SWAP6 PUSH2 0x2D63 PUSH1 0xA0 SWAP7 PUSH2 0x2D46 PUSH2 0x252 SWAP11 PUSH2 0x2D29 PUSH1 0xC0 DUP11 ADD SWAP15 PUSH1 0x0 DUP12 ADD MSTORE JUMP JUMPDEST PUSH20 0xFFFFFFFFFFFFFFFFFFFFFFFFFFFFFFFFFFFFFFFF AND PUSH1 0x20 DUP10 ADD MSTORE JUMP JUMPDEST PUSH20 0xFFFFFFFFFFFFFFFFFFFFFFFFFFFFFFFFFFFFFFFF AND PUSH1 0x40 DUP8 ADD MSTORE JUMP JUMPDEST PUSH1 0x60 DUP6 ADD MSTORE JUMP JUMPDEST PUSH1 0x80 DUP4 ADD MSTORE JUMP JUMPDEST PUSH1 0x20 DUP1 SWAP4 SWAP3 PUSH2 0x2DA9 PUSH2 0x2AA0 PUSH2 0x3C2 SWAP5 PUSH32 0x1901000000000000000000000000000000000000000000000000000000000000 DUP2 MSTORE PUSH1 0x2 ADD SWAP1 JUMP JUMPDEST ADD SWAP2 DUP3 MSTORE JUMP JUMPDEST PUSH2 0x8FE PUSH2 0x252 SWAP5 PUSH2 0x2211 PUSH1 0x60 SWAP5 SWAP9 SWAP8 SWAP6 PUSH2 0x2DCE PUSH1 0x80 DUP7 ADD SWAP11 PUSH1 0x0 DUP8 ADD MSTORE JUMP JUMPDEST PUSH1 0xFF AND PUSH1 0x20 DUP6 ADD MSTORE JUMP JUMPDEST ISZERO PUSH2 0x2DDF JUMPI JUMP JUMPDEST PUSH1 0x40 MLOAD PUSH32 0x8C379A000000000000000000000000000000000000000000000000000000000 DUP2 MSTORE PUSH1 0x20 PUSH1 0x4 DUP3 ADD MSTORE PUSH1 0x1A PUSH1 0x24 DUP3 ADD MSTORE PUSH32 0x444558506169723A20494E56414C49445F5349474E4154555245000000000000 PUSH1 0x44 DUP3 ADD MSTORE PUSH1 0x64 SWAP1 REVERT JUMPDEST SWAP4 SWAP1 SWAP5 PUSH2 0x2F04 DUP4 SWAP8 PUSH2 0x2C53 PUSH2 0x2EE5 DUP10 PUSH2 0x2EC1 DUP11 PUSH1 0x0 SWAP10 PUSH2 0x2C53 PUSH1 0x20 SWAP13 PUSH2 0x2E6C PUSH2 0x2E64 TIMESTAMP SWAP1 JUMP JUMPDEST DUP3 LT ISZERO PUSH2 0x2C6E JUMP JUMPDEST PUSH32 0x6E71EDAE12B1B97F4D1F60370FEF10105FA2FAAE0126114A169C64845D6126C9 SWAP3 PUSH2 0x2E99 DUP6 PUSH1 0xD PUSH2 0x7CB JUMP JUMPDEST SWAP1 PUSH2 0x2EB0 PUSH2 0x2EA6 DUP4 PUSH2 0x120A JUMP JUMPDEST SWAP3 PUSH2 0x2840 DUP5 PUSH2 0x2CD4 JUMP JUMPDEST PUSH1 0x40 MLOAD SWAP8 DUP9 SWAP7 PUSH1 0x20 DUP9 ADD SWAP7 DUP8 PUSH2 0x2D01 JUMP JUMPDEST PUSH2 0x2ECC PUSH2 0x2C11 DUP3 MLOAD SWAP1 JUMP JUMPDEST KECCAK256 PUSH2 0x2ED5 PUSH2 0x2BDA JUMP JUMPDEST PUSH1 0x40 MLOAD SWAP4 DUP5 SWAP3 DUP12 DUP5 ADD SWAP3 DUP4 PUSH2 0x2D71 JUMP JUMPDEST PUSH2 0x2EF0 PUSH2 0x2C11 DUP3 MLOAD SWAP1 JUMP JUMPDEST KECCAK256 SWAP3 PUSH2 0x2EFB PUSH1 0x40 MLOAD SWAP1 JUMP JUMPDEST SWAP5 DUP6 SWAP5 DUP6 PUSH2 0x2DAF JUMP JUMPDEST DUP4 DUP1 MSTORE SUB SWAP1 PUSH1 0x1 GAS STATICCALL ISZERO PUSH2 0x1697 JUMPI PUSH1 0x0 MLOAD PUSH2 0x2F3E SWAP1 PUSH2 0x2F38 PUSH20 0xFFFFFFFFFFFFFFFFFFFFFFFFFFFFFFFFFFFFFFFF DUP5 AND PUSH2 0xBC4 JUMP JUMPDEST EQ PUSH2 0x2DD8 JUMP JUMPDEST PUSH2 0x2F51 DUP4 PUSH2 0x2944 DUP5 PUSH2 0xAF0 DUP6 PUSH1 0xC PUSH2 0x7CB JUMP JUMPDEST PUSH2 0x2F81 PUSH2 0x297F PUSH2 0x2979 PUSH32 0x8C5BE1E5EBEC7D5BD14F71427D1E84F3DD0314C0F7B2291E5B200AC8C7C3B925 SWAP4 PUSH2 0x7C2 JUMP JUMPDEST SUB SWAP1 LOG3 JUMP JUMPDEST PUSH2 0x2F90 PUSH1 0x1 PUSH2 0xE22 JUMP JUMPDEST PUSH2 0x2FA3 PUSH2 0x2F9D PUSH1 0x2 PUSH2 0xB3C JUMP JUMPDEST SWAP2 PUSH2 0x7C2 JUMP JUMPDEST SWAP2 PUSH2 0x2FAD DUP4 PUSH2 0x7C2 JUMP JUMPDEST SWAP3 PUSH4 0x70A08231 SWAP3 PUSH2 0x2FBD ADDRESS PUSH2 0x7C2 JUMP JUMPDEST SWAP1 PUSH1 0x20 PUSH2 0x2FC9 PUSH1 0x40 MLOAD SWAP1 JUMP JUMPDEST DUP1 SWAP8 PUSH2 0x2FD5 DUP9 PUSH1 0xE0 SHL SWAP1 JUMP JUMPDEST DUP3 MSTORE PUSH20 0xFFFFFFFFFFFFFFFFFFFFFFFFFFFFFFFFFFFFFFFF DUP6 AND PUSH1 0x4 DUP4 ADD MSTORE PUSH1 0x24 SWAP1 DUP3 SWAP1 GAS STATICCALL SWAP1 DUP2 ISZERO PUSH2 0x1697 JUMPI PUSH2 0x13F4 PUSH1 0x20 SWAP5 DUP7 PUSH2 0x302E PUSH2 0x3034 SWAP6 PUSH2 0x3058 SWAP12 PUSH1 0x0 SWAP2 PUSH2 0x309F JUMPI JUMPDEST POP PUSH2 0x15A5 PUSH2 0x3029 PUSH1 0x3 PUSH2 0x105F JUMP JUMPDEST PUSH2 0x1119 JUMP JUMPDEST SWAP2 PUSH2 0x1F13 JUMP JUMPDEST SWAP4 PUSH2 0x1485 PUSH2 0x3041 DUP7 PUSH2 0x7C2 JUMP JUMPDEST SWAP2 PUSH2 0x304B PUSH1 0x40 MLOAD SWAP1 JUMP JUMPDEST SWAP8 DUP9 SWAP5 DUP6 SWAP4 DUP5 SWAP4 PUSH1 0xE0 SHL SWAP1 JUMP JUMPDEST SUB SWAP2 GAS STATICCALL SWAP3 DUP4 ISZERO PUSH2 0x1697 JUMPI PUSH2 0x252 SWAP4 PUSH2 0x302E SWAP2 PUSH1 0x0 SWAP2 PUSH2 0x3081 JUMPI JUMPDEST POP PUSH2 0x15A5 PUSH2 0x3029 PUSH1 0x3 PUSH2 0x1075 JUMP JUMPDEST PUSH2 0x3099 SWAP2 POP PUSH1 0x20 RETURNDATASIZE DUP2 GT PUSH2 0x1690 JUMPI PUSH2 0x1681 DUP2 DUP4 PUSH2 0xD95 JUMP JUMPDEST CODESIZE PUSH2 0x3073 JUMP JUMPDEST PUSH2 0x30B6 SWAP2 POP DUP10 RETURNDATASIZE DUP2 GT PUSH2 0x1690 JUMPI PUSH2 0x1681 DUP2 DUP4 PUSH2 0xD95 JUMP JUMPDEST CODESIZE PUSH2 0x301B JUMP JUMPDEST PUSH2 0x26D PUSH2 0x30CC PUSH2 0x3029 PUSH1 0x3 PUSH2 0x105F JUMP JUMPDEST PUSH2 0x1AAE PUSH2 0x3029 PUSH1 0x3 PUSH2 0x1075 JUMP JUMPDEST PUSH2 0x30F6 PUSH2 0x26D PUSH2 0x26D SWAP3 PUSH14 0xFFFFFFFFFFFFFFFFFFFFFFFFFFFF AND SWAP1 JUMP JUMPDEST PUSH28 0xFFFFFFFFFFFFFFFFFFFFFFFFFFFFFFFFFFFFFFFFFFFFFFFFFFFFFFFF AND SWAP1 JUMP JUMPDEST PUSH2 0x30F6 PUSH2 0x26D PUSH2 0x26D SWAP3 SWAP1 JUMP JUMPDEST PUSH2 0x26D PUSH15 0x10000000000000000000000000000 PUSH2 0x3117 JUMP JUMPDEST PUSH28 0xFFFFFFFFFFFFFFFFFFFFFFFFFFFFFFFFFFFFFFFFFFFFFFFFFFFFFFFF SWAP1 DUP2 AND SWAP3 SWAP2 AND SWAP2 PUSH28 0xFFFFFFFFFFFFFFFFFFFFFFFFFFFFFFFFFFFFFFFFFFFFFFFFFFFFFFFF DUP2 DUP5 MUL AND PUSH2 0x128E JUMP JUMPDEST PUSH2 0x319B PUSH2 0x26D SWAP2 PUSH2 0x3195 PUSH1 0x0 SWAP1 JUMP JUMPDEST POP PUSH2 0x30D9 JUMP JUMPDEST PUSH2 0x31A3 PUSH2 0x3124 JUMP JUMPDEST SWAP1 PUSH2 0x313C JUMP JUMPDEST PUSH28 0xFFFFFFFFFFFFFFFFFFFFFFFFFFFFFFFFFFFFFFFFFFFFFFFFFFFFFFFF SWAP1 DUP2 AND SWAP2 AND PUSH2 0x12D6 JUMP JUMPDEST PUSH2 0x31DF PUSH2 0x26D SWAP3 PUSH2 0x3195 PUSH1 0x0 SWAP1 JUMP JUMPDEST SWAP1 PUSH2 0x31A9 JUMP INVALID LOG2 PUSH5 0x6970667358 0x22 SLT KECCAK256 0xFB 0xE8 STOP 0x2B PUSH19 0x88DA56709A46C5873BA32A4D86560996AF1C9C DUP15 PUSH21 0xA181287EF8A864736F6C63430008140033A2646970 PUSH7 0x7358221220E14B 0xC3 PUSH21 0xBC87F1DFD83467F1224E9968777AAD74C3FAC5913B 0xE 0xA8 0xBC 0xC3 0xFB MSTORE8 PUSH18 0x64736F6C6343000814003300000000000000 "},"methodIdentifiers":{"FEE_DENOMINATOR()":"d73792a9","MAX_FEE_RATE()":"92f6576e","_getPair(address,address)":"90c833f4","allPairs(uint256)":"1e3dd18b","allPairsLength()":"574f2ba3","collectTradingFees(address,uint256)":"4bfc2e0b","createPair(address,address)":"c9c65396","createPair(address,address,(bool))":"ce3b5273","createPairWithLiquidity(address,address,uint256,uint256,bool,uint256,string)":"ac449629","createPairWithLiquidityPermit(address,address,uint256,uint256,bool,uint256,string,uint256,uint8,bytes32,bytes32,uint256,uint8,bytes32,bytes32)":"08dfe05f","feeDenominator()":"180b0d7e","feeRate()":"978bbdb9","getFeeDenominator()":"f4e1fc41","getFeeRate()":"84e5eed0","getPair(address,address)":"e6a43905","getPairAddress(address,address)":"b4f69a2f","liquidityLocker()":"9759164a","lockInitialLiquidity(address,address,uint256,string)":"6d49dfc3","lockLiquidity(address,address,uint256,uint256,string,uint256)":"44e5550f","lockLiquidity(address,uint256,uint256,string)":"a293e03c","owner()":"8da5cb5b","pause()":"8456cb59","renounceOwnership()":"715018a6","setAuthorizedOperator(address,bool)":"788f737d","setEmergencyStop(bool)":"c73d7c7b","setFeeRate(uint256)":"45596e2e","setLiquidityLocker(address)":"b2094a10","totalPairsCreated()":"ff255efb","transferOwnership(address)":"f2fde38b","unlockLiquidity(address,uint256)":"be8796c1","unlockLiquidity(address,uint256,address)":"573044e3","unpause()":"3f4ba83a","updateFeeRate(uint256)":"7b84fda5","withdrawFees()":"476343ee"}}}}}