{"contracts/DEXFactory.sol":{"DEXFactory":{"abi":[{"inputs":[{"internalType":"address","name":"locker","type":"address"}],"stateMutability":"nonpayable","type":"constructor"},{"inputs":[],"name":"EnforcedPause","type":"error"},{"inputs":[],"name":"ExpectedPause","type":"error"},{"inputs":[{"internalType":"address","name":"owner","type":"address"}],"name":"OwnableInvalidOwner","type":"error"},{"inputs":[{"internalType":"address","name":"account","type":"address"}],"name":"OwnableUnauthorizedAccount","type":"error"},{"inputs":[],"name":"ReentrancyGuardReentrantCall","type":"error"},{"inputs":[{"internalType":"address","name":"token","type":"address"}],"name":"SafeERC20FailedOperation","type":"error"},{"anonymous":false,"inputs":[{"indexed":true,"internalType":"address","name":"account","type":"address"},{"indexed":false,"internalType":"bool","name":"blacklisted","type":"bool"}],"name":"BlacklistUpdated","type":"event"},{"anonymous":false,"inputs":[{"indexed":false,"internalType":"bool","name":"stopped","type":"bool"},{"indexed":true,"internalType":"address","name":"updater","type":"address"}],"name":"EmergencyStopUpdated","type":"event"},{"anonymous":false,"inputs":[{"indexed":false,"internalType":"uint256","name":"oldFee","type":"uint256"},{"indexed":false,"internalType":"uint256","name":"newFee","type":"uint256"},{"indexed":true,"internalType":"address","name":"updater","type":"address"}],"name":"FeeUpdated","type":"event"},{"anonymous":false,"inputs":[{"indexed":true,"internalType":"address","name":"pair","type":"address"},{"indexed":true,"internalType":"address","name":"owner","type":"address"},{"indexed":false,"internalType":"uint256","name":"amount","type":"uint256"},{"indexed":false,"internalType":"uint256","name":"unlockTime","type":"uint256"},{"indexed":false,"internalType":"string","name":"description","type":"string"},{"indexed":false,"internalType":"uint256","name":"lockFee","type":"uint256"}],"name":"LiquidityLocked","type":"event"},{"anonymous":false,"inputs":[{"indexed":true,"internalType":"address","name":"pair","type":"address"},{"indexed":true,"internalType":"address","name":"owner","type":"address"},{"indexed":false,"internalType":"uint256","name":"amount","type":"uint256"},{"indexed":false,"internalType":"uint256","name":"timestamp","type":"uint256"}],"name":"LiquidityUnlocked","type":"event"},{"anonymous":false,"inputs":[{"indexed":true,"internalType":"address","name":"user","type":"address"},{"indexed":false,"internalType":"uint256","name":"amount","type":"uint256"},{"indexed":false,"internalType":"uint256","name":"timestamp","type":"uint256"}],"name":"LockFeeCollected","type":"event"},{"anonymous":false,"inputs":[{"indexed":false,"internalType":"uint256","name":"oldBasicFee","type":"uint256"},{"indexed":false,"internalType":"uint256","name":"newBasicFee","type":"uint256"},{"indexed":false,"internalType":"uint256","name":"oldPremiumFee","type":"uint256"},{"indexed":false,"internalType":"uint256","name":"newPremiumFee","type":"uint256"}],"name":"LockFeeUpdated","type":"event"},{"anonymous":false,"inputs":[{"indexed":true,"internalType":"address","name":"manager","type":"address"},{"indexed":false,"internalType":"bool","name":"authorized","type":"bool"}],"name":"ManagerUpdated","type":"event"},{"anonymous":false,"inputs":[{"indexed":true,"internalType":"address","name":"operator","type":"address"},{"indexed":false,"internalType":"bool","name":"authorized","type":"bool"}],"name":"OperatorAuthorized","type":"event"},{"anonymous":false,"inputs":[{"indexed":true,"internalType":"address","name":"previousOwner","type":"address"},{"indexed":true,"internalType":"address","name":"newOwner","type":"address"}],"name":"OwnershipTransferred","type":"event"},{"anonymous":false,"inputs":[{"indexed":true,"internalType":"address","name":"token0","type":"address"},{"indexed":true,"internalType":"address","name":"token1","type":"address"},{"indexed":false,"internalType":"address","name":"pair","type":"address"},{"indexed":false,"internalType":"uint256","name":"allPairsLength","type":"uint256"},{"indexed":false,"internalType":"uint256","name":"timestamp","type":"uint256"},{"components":[{"internalType":"bool","name":"emergencyStop","type":"bool"}],"indexed":false,"internalType":"struct IDEXFactory.PoolSecurityConfig","name":"securityConfig","type":"tuple"}],"name":"PairCreated","type":"event"},{"anonymous":false,"inputs":[{"indexed":false,"internalType":"address","name":"account","type":"address"}],"name":"Paused","type":"event"},{"anonymous":false,"inputs":[{"indexed":false,"internalType":"uint256","name":"oldShare","type":"uint256"},{"indexed":false,"internalType":"uint256","name":"newShare","type":"uint256"}],"name":"PlatformFeeShareUpdated","type":"event"},{"anonymous":false,"inputs":[{"indexed":true,"internalType":"address","name":"pair","type":"address"},{"indexed":false,"internalType":"uint256","name":"amount","type":"uint256"},{"indexed":false,"internalType":"uint256","name":"platformShare","type":"uint256"},{"indexed":false,"internalType":"uint256","name":"timestamp","type":"uint256"}],"name":"TradingFeeCollected","type":"event"},{"anonymous":false,"inputs":[{"indexed":false,"internalType":"address","name":"account","type":"address"}],"name":"Unpaused","type":"event"},{"inputs":[],"name":"FEE_DENOMINATOR","outputs":[{"internalType":"uint256","name":"","type":"uint256"}],"stateMutability":"view","type":"function"},{"inputs":[],"name":"MAX_FEE_RATE","outputs":[{"internalType":"uint256","name":"","type":"uint256"}],"stateMutability":"view","type":"function"},{"inputs":[{"internalType":"uint256","name":"","type":"uint256"}],"name":"allPairs","outputs":[{"internalType":"address","name":"","type":"address"}],"stateMutability":"view","type":"function"},{"inputs":[],"name":"allPairsLength","outputs":[{"internalType":"uint256","name":"","type":"uint256"}],"stateMutability":"view","type":"function"},{"inputs":[{"internalType":"address","name":"","type":"address"}],"name":"authorizedOperators","outputs":[{"internalType":"bool","name":"","type":"bool"}],"stateMutability":"view","type":"function"},{"inputs":[{"internalType":"address","name":"","type":"address"}],"name":"blacklistedAddresses","outputs":[{"internalType":"bool","name":"","type":"bool"}],"stateMutability":"view","type":"function"},{"inputs":[{"internalType":"address","name":"pair","type":"address"},{"internalType":"uint256","name":"amount","type":"uint256"}],"name":"collectTradingFees","outputs":[],"stateMutability":"nonpayable","type":"function"},{"inputs":[{"internalType":"address","name":"tokenA","type":"address"},{"internalType":"address","name":"tokenB","type":"address"}],"name":"createPair","outputs":[{"internalType":"address","name":"pair","type":"address"}],"stateMutability":"nonpayable","type":"function"},{"inputs":[{"internalType":"address","name":"tokenA","type":"address"},{"internalType":"address","name":"tokenB","type":"address"},{"components":[{"internalType":"bool","name":"emergencyStop","type":"bool"}],"internalType":"struct IDEXFactory.PoolSecurityConfig","name":"securityConfig","type":"tuple"}],"name":"createPair","outputs":[{"internalType":"address","name":"pair","type":"address"}],"stateMutability":"nonpayable","type":"function"},{"inputs":[{"internalType":"address","name":"tokenA","type":"address"},{"internalType":"address","name":"tokenB","type":"address"},{"internalType":"uint256","name":"amountA","type":"uint256"},{"internalType":"uint256","name":"amountB","type":"uint256"},{"internalType":"bool","name":"shouldLockLiquidity","type":"bool"},{"internalType":"uint256","name":"lockDuration","type":"uint256"},{"internalType":"string","name":"lockDescription","type":"string"}],"name":"createPairWithLiquidity","outputs":[{"internalType":"address","name":"","type":"address"},{"internalType":"uint256","name":"","type":"uint256"}],"stateMutability":"pure","type":"function"},{"inputs":[{"internalType":"address","name":"token","type":"address"},{"internalType":"address","name":"to","type":"address"},{"internalType":"uint256","name":"amount","type":"uint256"}],"name":"emergencyRecover","outputs":[],"stateMutability":"nonpayable","type":"function"},{"inputs":[],"name":"emergencyStop","outputs":[{"internalType":"bool","name":"","type":"bool"}],"stateMutability":"view","type":"function"},{"inputs":[],"name":"feeDenominator","outputs":[{"internalType":"uint256","name":"","type":"uint256"}],"stateMutability":"pure","type":"function"},{"inputs":[],"name":"feeRate","outputs":[{"internalType":"uint256","name":"","type":"uint256"}],"stateMutability":"view","type":"function"},{"inputs":[{"internalType":"address","name":"tokenA","type":"address"},{"internalType":"address","name":"tokenB","type":"address"}],"name":"getPair","outputs":[{"internalType":"address","name":"pair","type":"address"}],"stateMutability":"view","type":"function"},{"inputs":[{"internalType":"address","name":"tokenA","type":"address"},{"internalType":"address","name":"tokenB","type":"address"}],"name":"getPairAddress","outputs":[{"internalType":"address","name":"","type":"address"}],"stateMutability":"view","type":"function"},{"inputs":[{"internalType":"address","name":"","type":"address"}],"name":"isManager","outputs":[{"internalType":"bool","name":"","type":"bool"}],"stateMutability":"view","type":"function"},{"inputs":[],"name":"liquidityLocker","outputs":[{"internalType":"contract LiquidityLocker","name":"","type":"address"}],"stateMutability":"view","type":"function"},{"inputs":[{"internalType":"address","name":"pair","type":"address"},{"internalType":"uint256","name":"amount","type":"uint256"},{"internalType":"uint256","name":"lockDuration","type":"uint256"},{"internalType":"string","name":"description","type":"string"}],"name":"lockLiquidity","outputs":[],"stateMutability":"payable","type":"function"},{"inputs":[],"name":"owner","outputs":[{"internalType":"address","name":"","type":"address"}],"stateMutability":"view","type":"function"},{"inputs":[],"name":"pause","outputs":[],"stateMutability":"nonpayable","type":"function"},{"inputs":[],"name":"paused","outputs":[{"internalType":"bool","name":"","type":"bool"}],"stateMutability":"view","type":"function"},{"inputs":[{"internalType":"address","name":"","type":"address"}],"name":"poolSecurityConfigs","outputs":[{"internalType":"bool","name":"emergencyStop","type":"bool"}],"stateMutability":"view","type":"function"},{"inputs":[],"name":"renounceOwnership","outputs":[],"stateMutability":"nonpayable","type":"function"},{"inputs":[{"internalType":"address","name":"operator","type":"address"},{"internalType":"bool","name":"authorized","type":"bool"}],"name":"setAuthorizedOperator","outputs":[],"stateMutability":"nonpayable","type":"function"},{"inputs":[{"internalType":"address","name":"account","type":"address"},{"internalType":"bool","name":"blacklisted","type":"bool"}],"name":"setBlacklisted","outputs":[],"stateMutability":"nonpayable","type":"function"},{"inputs":[{"internalType":"bool","name":"stopped","type":"bool"}],"name":"setEmergencyStop","outputs":[],"stateMutability":"nonpayable","type":"function"},{"inputs":[{"internalType":"address","name":"manager","type":"address"},{"internalType":"bool","name":"authorized","type":"bool"}],"name":"setManager","outputs":[],"stateMutability":"nonpayable","type":"function"},{"inputs":[],"name":"totalPairsCreated","outputs":[{"internalType":"uint256","name":"","type":"uint256"}],"stateMutability":"view","type":"function"},{"inputs":[{"internalType":"address","name":"newOwner","type":"address"}],"name":"transferOwnership","outputs":[],"stateMutability":"nonpayable","type":"function"},{"inputs":[{"internalType":"address","name":"pair","type":"address"},{"internalType":"uint256","name":"lockIndex","type":"uint256"}],"name":"unlockLiquidity","outputs":[],"stateMutability":"nonpayable","type":"function"},{"inputs":[],"name":"unpause","outputs":[],"stateMutability":"nonpayable","type":"function"},{"inputs":[{"internalType":"uint256","name":"newFeeRate","type":"uint256"}],"name":"updateFeeRate","outputs":[],"stateMutability":"nonpayable","type":"function"},{"inputs":[],"name":"withdrawFees","outputs":[],"stateMutability":"nonpayable","type":"function"}],"evm":{"bytecode":{"linkReferences":{},"object":"60806040523462000030576200001e62000018620000d3565b6200020c565b60405161625262000386823961625290f35b600080fd5b634e487b7160e01b600052604160045260246000fd5b90601f01601f191681019081106001600160401b038211176200006d57604052565b62000035565b906200008a6200008260405190565b92836200004b565b565b6001600160a01b031690565b90565b6001600160a01b038116036200003057565b905051906200008a826200009b565b9060208282031262000030576200009891620000ad565b62000098620065d880380380620000ea8162000073565b928339810190620000bc565b90600019905b9181191691161790565b6200009862000098620000989290565b906200012a62000098620001329262000106565b8254620000f6565b9055565b6200008c62000098620000989290565b620000989062000136565b156200015957565b60405162461bcd60e51b815260206004820152600a60248201526924a72b2fa627a1a5a2a960b11b6044820152606490fd5b0390fd5b9060ff90620000fc565b90620001ac620000986200013292151590565b82546200018f565b62000098906200008c906001600160a01b031682565b6200009890620001b4565b6200009890620001ca565b906001600160a01b0390620000fc565b9062000204620000986200013292620001d5565b8254620001e0565b620002676200008a9162000220336200026f565b6200022e601e600562000116565b62000261600062000259620002476200008c8362000146565b6001600160a01b038516141562000151565b600762000199565b620001d5565b600c620001f0565b6200008a9062000286565b62000098600162000106565b6200029190620002a7565b6200008a6200029f6200027a565b600162000116565b620002b3600062000146565b6001600160a01b0381166001600160a01b03831614620002d957506200008a9062000323565b6200018b90620002e860405190565b631e4fbdf760e01b8152918291600483016001600160a01b03909116815260200190565b62000098906200008c565b6200009890546200030c565b6200032f600062000317565b906200033d816000620001f0565b620003746200036d7f8be0079c531659141344cd1fd0a4f28419497f9722a3daafe3b4186f6b6457e093620001d5565b91620001d5565b916200037f60405190565b600090a356fe608060405260043610156200001357600080fd5b60003560e01c8063180b0d7e14620001c8578063181d989b14620002705780631e3dd18b146200026a5780633f4ba83a1462000264578063476343ee146200025e5780634bfc2e0b1462000258578063574f2ba314620002525780635c975abb146200024c57806363a599a41462000246578063715018a61462000240578063788f737d146200023a5780637935f9a314620002345780637b84fda5146200022e5780638456cb5914620002285780638da5cb5b146200022257806392f6576e146200021c5780639759164a1462000216578063978bbdb91462000210578063a293e03c146200020a578063a5e90eee1462000204578063ac44962914620001fe578063ad1329d114620001f8578063b4f69a2f14620001f2578063be8796c114620001ec578063c73d7c7b14620001e6578063c9c6539614620001e0578063ce3b527314620001da578063d01dd6d214620001d4578063d5749d4214620001ce578063d73792a914620001c8578063e6a4390514620001c2578063f2fde38b14620001bc578063f3ae241514620001b65763ff255efb03620002825762000d0b565b62000cdc565b62000caa565b62000c88565b6200028d565b62000c50565b62000c1d565b62000bfb565b62000b93565b62000b76565b62000b41565b62000b1f565b62000ad9565b62000a82565b620009ab565b62000990565b620007e8565b62000793565b62000747565b620006ff565b620006e2565b620006c5565b620006a4565b62000655565b620005f8565b620005d7565b620005a8565b62000587565b62000569565b62000524565b62000502565b620004b9565b620003b2565b60009103126200028257565b600080fd5b9052565b565b346200028257620002a036600462000276565b620002be620002ae62000c7e565b6040519182918290815260200190565b0390f35b73ffffffffffffffffffffffffffffffffffffffff1690565b90565b73ffffffffffffffffffffffffffffffffffffffff81165b036200028257565b905035906200028b82620002de565b906020828203126200028257620002db91620002fe565b620002c2620002db620002db9273ffffffffffffffffffffffffffffffffffffffff1690565b620002db9062000324565b620002db906200034a565b906200036c9062000355565b600052602052604060002090565b620002db916008021c5b60ff1690565b90620002db91546200037a565b620002db90620003ac60089160009262000360565b6200038a565b346200028257620002be620003d3620003cd3660046200030d565b62000397565b6040515b91829182901515815260200190565b80620002f6565b905035906200028b82620003e6565b906020828203126200028257620002db91620003ed565b7f4e487b7100000000000000000000000000000000000000000000000000000000600052603260045260246000fd5b805482101562000467576200045e600191600052602060002090565b91020190600090565b62000413565b620002db916008021c620002c2565b90620002db91546200046d565b6004600062000496825490565b831015620004b65750620002db91620004af9162000442565b906200047c565b80fd5b346200028257620002be620004da620004d4366004620003fc565b62000489565b6040515b9182918273ffffffffffffffffffffffffffffffffffffffff909116815260200190565b3462000282576200051536600462000276565b6200051f62002bc9565b604051005b3462000282576200053736600462000276565b6200051f62002dad565b91906040838203126200028257620002db906200055f8185620002fe565b93602001620003ed565b3462000282576200051f6200058036600462000541565b906200264f565b3462000282576200059a36600462000276565b620002be620002ae60045490565b346200028257620005bb36600462000276565b620002be620003d362000f95565b620002db600060076200038a565b346200028257620005ea36600462000276565b620002be620003d3620005c9565b3462000282576200060b36600462000276565b6200051f62000d94565b801515620002f6565b905035906200028b8262000615565b91906040838203126200028257620002db906200064b8185620002fe565b936020016200061e565b3462000282576200051f6200066c3660046200062d565b9062002a50565b620002db9062000384565b620002db905462000673565b60006200069d620002db92600a62000360565b016200067e565b346200028257620002be620003d3620006bf3660046200030d565b6200068a565b3462000282576200051f620006dc366004620003fc565b62002979565b346200028257620006f536600462000276565b6200051f62002b42565b3462000282576200071236600462000276565b620002be620004da62000d43565b620002db620002db620002db9290565b620002db6103e862000720565b620002db62000730565b3462000282576200075a36600462000276565b620002be620002ae6200073d565b620002db6000600c6200047c565b620002879062000355565b6020810192916200028b919062000776565b346200028257620007a636600462000276565b620002be620007b462000768565b6040519182918262000781565b620002db916008021c81565b90620002db9154620007c1565b620002db60006005620007cd565b346200028257620007fb36600462000276565b620002be620002ae620007da565b7f4e487b7100000000000000000000000000000000000000000000000000000000600052604160045260246000fd5b90601f017fffffffffffffffffffffffffffffffffffffffffffffffffffffffffffffffe016810190811067ffffffffffffffff8211176200087957604052565b62000809565b906200028b6200088e60405190565b928362000838565b67ffffffffffffffff81116200087957602090601f017fffffffffffffffffffffffffffffffffffffffffffffffffffffffffffffffe0160190565b0190565b90826000939282370152565b90929192620008fb620008f58262000896565b6200087f565b9381855260208501908284011162000282576200028b92620008d6565b9080601f830112156200028257816020620002db93359101620008e2565b9060808282031262000282576200094e8183620002fe565b926200095e8260208501620003ed565b926200096e8360408301620003ed565b92606082013567ffffffffffffffff81116200028257620002db920162000918565b6200051f620009a136600462000936565b929190916200208b565b3462000282576200051f620009c23660046200062d565b9062002aae565b9060e0828203126200028257620009e18183620002fe565b92620009f18260208501620002fe565b9262000a018360408301620003ed565b9262000a118160608401620003ed565b9262000a2182608085016200061e565b9262000a318360a08301620003ed565b9260c082013567ffffffffffffffff81116200028257620002db920162000918565b73ffffffffffffffffffffffffffffffffffffffff90911681526040810192916200028b9160200152565b0152565b34620002825762000a95366004620009c9565b9594909493919362003015565b90916060828403126200028257620002db62000abf8484620002fe565b9362000acf8160208601620002fe565b93604001620003ed565b3462000282576200051f62000af036600462000aa2565b9162002ea7565b91906040838203126200028257620002db9062000b158185620002fe565b93602001620002fe565b346200028257620002be620004da62000b3a36600462000af7565b9062002766565b3462000282576200051f62000b5836600462000541565b906200249f565b906020828203126200028257620002db916200061e565b3462000282576200051f62000b8d36600462000b5f565b620029e4565b346200028257620002be620004da62000bae36600462000af7565b9062001adb565b90816020910312620002825790565b90916060828403126200028257620002db62000be18484620002fe565b9362000bf18160208601620002fe565b9360400162000bb5565b346200028257620002be620004da62000c1636600462000bc4565b916200192e565b3462000282576200051f62000c343660046200062d565b9062002b15565b620002db90620003ac60099160009262000360565b346200028257620002be620003d362000c6b3660046200030d565b62000c3b565b620002db61271062000720565b620002db62000c71565b346200028257620002be620004da62000ca336600462000af7565b90620026df565b3462000282576200051f62000cc13660046200030d565b62000ee4565b620002db90620003ac600b9160009262000360565b346200028257620002be620003d362000cf73660046200030d565b62000cc7565b620002db60006006620007cd565b34620002825762000d1e36600462000276565b620002be620002ae62000cfd565b620002db90620002c2565b620002db905462000d2c565b620002db600062000d37565b62000d5962000d9e565b6200028b62000d7e565b620002c2620002db620002db9290565b620002db9062000d63565b6200028b62000d8e600062000d73565b62000f31565b6200028b62000d4f565b62000da862000d43565b339062000dca825b9173ffffffffffffffffffffffffffffffffffffffff1690565b0362000dd35750565b62000e2c9062000de260405190565b9182917f118cdaa70000000000000000000000000000000000000000000000000000000083526004830173ffffffffffffffffffffffffffffffffffffffff909116815260200190565b0390fd5b6200028b9062000e3f62000d9e565b62000e4b600062000d73565b73ffffffffffffffffffffffffffffffffffffffff811673ffffffffffffffffffffffffffffffffffffffff83161462000e8b57506200028b9062000f31565b62000e2c9062000e9a60405190565b9182917f1e4fbdf70000000000000000000000000000000000000000000000000000000083526004830173ffffffffffffffffffffffffffffffffffffffff909116815260200190565b6200028b9062000e30565b9073ffffffffffffffffffffffffffffffffffffffff905b9181191691161790565b9062000f25620002db62000f2d9262000355565b825462000eef565b9055565b62000f3d600062000d37565b9062000f4b81600062000f11565b62000f8262000f7b7f8be0079c531659141344cd1fd0a4f28419497f9722a3daafe3b4186f6b6457e09362000355565b9162000355565b9162000f8d60405190565b80805b0390a3565b620002db60026200067e565b90620002db93929162000fb36200193d565b62001020565b1562000fc157565b6040517f08c379a000000000000000000000000000000000000000000000000000000000815260206004820152601360248201527f4445583a20454d455247454e43595f53544f50000000000000000000000000006044820152606490fd5b90620002db93929162001046620010406200103c60076200067e565b1590565b62000fb9565b620010b3565b156200105457565b6040517f08c379a000000000000000000000000000000000000000000000000000000000815260206004820152601060248201527f4445583a20424c41434b4c4953544544000000000000000000000000000000006044820152606490fd5b90620002db939291620010e0620010da6200103c620010d433600962000360565b6200067e565b6200104c565b6200158e565b15620010ee57565b6040517f08c379a000000000000000000000000000000000000000000000000000000000815260206004820152601860248201527f4445583a204944454e544943414c5f41444452455353455300000000000000006044820152606490fd5b156200115557565b6040517f08c379a000000000000000000000000000000000000000000000000000000000815260206004820152601160248201527f4445583a205a45524f5f414444524553530000000000000000000000000000006044820152606490fd5b15620011bc57565b6040517f08c379a000000000000000000000000000000000000000000000000000000000815260206004820152601160248201527f4445583a204e4f545f434f4e54524143540000000000000000000000000000006044820152606490fd5b156200122357565b6040517f08c379a000000000000000000000000000000000000000000000000000000000815260206004820152601060248201527f4445583a20504149525f455849535453000000000000000000000000000000006044820152606490fd5b620002879073ffffffffffffffffffffffffffffffffffffffff1660601b90565b601481620012b8620008d29383969562001282565b01809262001282565b15620012c957565b6040517f08c379a000000000000000000000000000000000000000000000000000000000815260206004820152601360248201527f4445583a20435245415445325f4641494c4544000000000000000000000000006044820152606490fd5b50620002db9060208101906200061e565b6200028b91906000906200134e908062001328565b1515910152565b73ffffffffffffffffffffffffffffffffffffffff90911681526060810193926200028b929091604091620013a2905b73ffffffffffffffffffffffffffffffffffffffff166020830152565b019062001339565b6040513d6000823e3d90fd5b35620002db8162000615565b9060ff9062000f07565b90620013df620002db62000f2d92151590565b8254620013c2565b6200028b91620013f790620013b6565b90620013cc565b906200028b91620013e7565b9190600862000f079102916200143373ffffffffffffffffffffffffffffffffffffffff841b90565b921b90565b91906200144d620002db62000f2d9362000355565b9083546200140a565b9081549168010000000000000000831015620008795782620014829160016200028b9501815562000442565b9062001438565b620002db9081565b620002db905462001489565b7f4e487b7100000000000000000000000000000000000000000000000000000000600052601160045260246000fd5b7fffffffffffffffffffffffffffffffffffffffffffffffffffffffffffffffff8114620014fa5760010190565b6200149d565b907fffffffffffffffffffffffffffffffffffffffffffffffffffffffffffffffff9062000f07565b906200153d620002db62000f2d9262000720565b825462001500565b620013a26200028b946200158760609498979562001580608086019a600087019073ffffffffffffffffffffffffffffffffffffffff169052565b6020850152565b6040830152565b50929190620015cc73ffffffffffffffffffffffffffffffffffffffff821673ffffffffffffffffffffffffffffffffffffffff86161415620010e6565b600090620015da8262000d73565b9473ffffffffffffffffffffffffffffffffffffffff861673ffffffffffffffffffffffffffffffffffffffff82161415806200190a575b6200161d906200114d565b803b620016326200162e8562000720565b9190565b1180620018eb575b6200164590620011b4565b73ffffffffffffffffffffffffffffffffffffffff821673ffffffffffffffffffffffffffffffffffffffff82161015620018e45790915b600390620016cd620016a56200169f8662001699878762000360565b62000360565b62000d37565b620016c673ffffffffffffffffffffffffffffffffffffffff8a1662000db0565b146200121b565b62001770620017516131a8620016e6602082016200087f565b908082526200307560208301396040516200171981602081016200170c8b8b83620012a3565b9081038252038262000838565b6200172d62001726825190565b9160200190565b209060208151910185f59873ffffffffffffffffffffffffffffffffffffffff1690565b73ffffffffffffffffffffffffffffffffffffffff89161415620012c1565b620017856200177f8862000355565b62000355565b9163820d25a892803b156200028257620017ae938391620017a560405190565b95869260e01b90565b8252818381620017c48c8c8c6004850162001355565b03925af1918215620018de576200169986620018199387936200181f978d97620018aa575b5050620018038a620017fd88600a62000360565b620013fe565b6200169986620018198462001699888662000360565b62000f11565b62001857600462001831878262001456565b620018536200184b62001845600662001491565b620014cc565b600662001529565b5490565b429062000f90620018946200188d7f51896478037ff16b2c1085711156bd706fc275ca11914222527eb160248755e99562000355565b9562000355565b956200189f60405190565b9384938a8562001545565b81620018ce92903d10620018d6575b620018c5818362000838565b81019062000276565b3880620017e9565b503d620018b9565b620013aa565b916200167d565b5062001645823b620019016200162e8662000720565b1190506200163a565b5073ffffffffffffffffffffffffffffffffffffffff828116908716141562001612565b620002db929190600062000fa1565b6200194762000f95565b6200194e57565b6040517fd93c0665000000000000000000000000000000000000000000000000000000008152600490fd5b90620002db92916200198a6200193d565b90620002db9291620019a5620010406200103c60076200067e565b90620002db9291620019c5620010da6200103c620010d433600962000360565b62001a3b565b620002db60206200087f565b905051906200028b82620002de565b906020828203126200028257620002db91620019d7565b73ffffffffffffffffffffffffffffffffffffffff90911681526060810193926200028b92909160409162001a329062001385565b01905115159052565b50602090600162001a5662001a4f620019cb565b9115158252565b62001a89600062001a673062000355565b9262001a9563ce3b52739162001a7c60405190565b9889978896879560e01b90565b855260048501620019fd565b03925af1908115620018de5760009162001aad575090565b620002db915060203d811162001ad3575b62001aca818362000838565b810190620019e6565b503d62001abe565b620002db9190600062001979565b1562001af157565b6040517f08c379a000000000000000000000000000000000000000000000000000000000815260206004820152600860248201527f494e565f504149520000000000000000000000000000000000000000000000006044820152606490fd5b1562001b5857565b6040517f08c379a000000000000000000000000000000000000000000000000000000000815260206004820152600760248201527f494e565f414d54000000000000000000000000000000000000000000000000006044820152606490fd5b1562001bbf57565b6040517f08c379a000000000000000000000000000000000000000000000000000000000815260206004820152600760248201527f494e565f445552000000000000000000000000000000000000000000000000006044820152606490fd5b1562001c2657565b6040517f08c379a00000000000000000000000000000000000000000000000000000000081528062000e2c6004820160208082526004908201527f4c4f4e4700000000000000000000000000000000000000000000000000000000604082015260600190565b1562001c9457565b6040517f08c379a00000000000000000000000000000000000000000000000000000000081528062000e2c6004820160208082526004908201527f4e464e4400000000000000000000000000000000000000000000000000000000604082015260600190565b81810292918115918404141715620014fa57565b7f4e487b7100000000000000000000000000000000000000000000000000000000600052601260045260246000fd5b811562001d48570490565b62001d0e565b905051906200028b8262000615565b906020828203126200028257620002db9162001d4e565b73ffffffffffffffffffffffffffffffffffffffff90911681526060810193926200028b92909160409162000a7e9062001385565b1562001db157565b6040517f08c379a000000000000000000000000000000000000000000000000000000000815260206004820152600660248201527f4645455f544600000000000000000000000000000000000000000000000000006044820152606490fd5b1562001e1857565b6040517f08c379a000000000000000000000000000000000000000000000000000000000815260206004820152600360248201527f46454500000000000000000000000000000000000000000000000000000000006044820152606490fd5b91908203918211620014fa57565b9062001e95620008f58362000896565b918252565b3d1562001eb75762001eac3d62001e85565b903d6000602084013e565b606090565b1562001ec457565b6040517f08c379a000000000000000000000000000000000000000000000000000000000815260206004820152600560248201527f5245464e440000000000000000000000000000000000000000000000000000006044820152606490fd5b1562001f2b57565b6040517f08c379a000000000000000000000000000000000000000000000000000000000815260206004820152600260248201527f54460000000000000000000000000000000000000000000000000000000000006044820152606490fd5b60005b83811062001f9e5750506000910152565b818101518382015260200162001f8d565b62001fd462001fde602093620008d29362001fc8815190565b80835293849260200190565b9586910162001f8a565b601f017fffffffffffffffffffffffffffffffffffffffffffffffffffffffffffffffe01690565b96959394620020786200028b966200207160a0966200206a620020869760208e6200204e60c082019a600083019073ffffffffffffffffffffffffffffffffffffffff169052565b019073ffffffffffffffffffffffffffffffffffffffff169052565b60408c0152565b60608a0152565b878203608089015262001faf565b940152565b600093620020c0620020a1620002c28762000d73565b73ffffffffffffffffffffffffffffffffffffffff8416141562001ae9565b620020d7620020cf8662000720565b841162001b50565b620020ee620020e68662000720565b851162001bb7565b6200210a620021016301e1338062000720565b85111562001c1e565b60036200211b6200177f8462000355565b630dfe168191620021366200212f60405190565b9360e01b90565b8352602083600481855afa928315620018de57620021809360209262002166926000926200244d575b5062000360565b9163d21220a7906200217760405190565b94859260e01b90565b825260049082905afa918215620018de57620021d792620021af926200169f9260009262002428575062000360565b620021d073ffffffffffffffffffffffffffffffffffffffff851662000db0565b1462001c8c565b62002203620021f2620021eb600562001491565b8562001cfa565b620021fc62000c71565b9062001d3d565b928334620022118862000720565b8111156200238f576200223f92906200222d8382101562001e10565b8883821162002359575b505062001e77565b906200224f6200177f8462000355565b946323b872dd60203380986200227a8b6200226a3062000355565b95620022868a62001a7c60405190565b85526004850162001d74565b03925af18015620018de57620022a69160009162002324575b5062001f23565b620022b66200177f600c62000d37565b926344e5550f90843b1562000282578896620022ea948894620022f693620022dd60405190565b9b8c9a8b998a9860e01b90565b88526004880162002006565b03925af18015620018de576200230a575050565b816200028b92903d10620018d657620018c5818362000838565b6200234a915060203d811162002351575b62002341818362000838565b81019062001d5d565b386200229f565b503d62002335565b8062002387926200236c86339262001e77565b60405190818003925af16200238062001e9a565b5062001ebc565b388862002237565b5050620023a06200177f8462000355565b9060206323b872dd9233906200227a8a620023bb3062000355565b96620023d88b620023cb60405190565b998a978896879560e01b90565b03925af1908115620018de57620023ff86926200223f9460009162002405575b5062001da9565b62001e77565b62002421915060203d8111620023515762002341818362000838565b38620023f8565b6200244591925060203d811162001ad35762001aca818362000838565b90386200215f565b62002445919250843d811162001ad35762001aca818362000838565b73ffffffffffffffffffffffffffffffffffffffff90911681526060810193926200028b9290916040916200204e906020830152565b620024af6200177f600c62000d37565b33919063573044e3813b1562000282576000620024d691620024e2829662001a7c60405190565b85526004850162002469565b03925af18015620018de57620024f55750565b6200028b906000620018c5818362000838565b906200251e916200251862002667565b62002556565b6200028b620026c9565b620002879062000720565b9081526060810193926200028b92909160409162000a7e90602083019062002528565b6003620025676200177f8362000355565b630dfe1681916200257b6200212f60405190565b8352602083600481855afa928315620018de57620025aa9360209262002166926000926200244d575062000360565b825260049082905afa918215620018de576200260192620025d9926200169f9260009262002428575062000360565b620025fa73ffffffffffffffffffffffffffffffffffffffff841662000db0565b1462001ae9565b600042926200264a620026357f188ae8c4a730b5b9aa94fe78353d0493b8d62cc6c7f90897da6987a8d42458599462000355565b946200264060405190565b9384938462002533565b0390a2565b906200028b9162002508565b620002db600262000720565b62002673600162001491565b6200267d6200265b565b90811462002692576200028b90600162001529565b6040517f3ee5aeb5000000000000000000000000000000000000000000000000000000008152600490fd5b620002db600162000720565b6200028b620026d7620026bd565b600162001529565b620002db916200169f9173ffffffffffffffffffffffffffffffffffffffff821673ffffffffffffffffffffffffffffffffffffffff821610156200272c5762001699905b600362000360565b90620016999062002724565b73ffffffffffffffffffffffffffffffffffffffff90911681526040810192916200028b916020906200204e565b602090620027743062000355565b6200279863e6a43905620027a46200278b60405190565b9687958694859460e01b90565b84526004840162002738565b03915afa908115620018de5760009162001aad575090565b15620027c457565b6040517f08c379a000000000000000000000000000000000000000000000000000000000815260206004820152601160248201527f4445583a204d414e414745525f4f4e4c590000000000000000000000000000006044820152606490fd5b6200028b9062002863336200283b620002c262000d43565b73ffffffffffffffffffffffffffffffffffffffff82161490811562002869575b50620027bc565b620028fe565b6200287c9150620010d490600b62000360565b386200285c565b156200288b57565b6040517f08c379a000000000000000000000000000000000000000000000000000000000815260206004820152601160248201527f4445583a204645455f544f4f5f484947480000000000000000000000000000006044820152606490fd5b9081526040810192916200028b9160200152565b6200291962002910620002db62000730565b82111562002883565b62002925600562001491565b906200293381600562001529565b7f8d6ad40ad37637106f0ca2d682205c774e73f8cf7789162ce1c0b6ac0791a48490620029603362000355565b926200264a6200296f60405190565b92839283620028ea565b6200028b9062002823565b6200028b906200299c336200283b620002c262000d43565b620029a9816007620013cc565b7f15e19397fdb558931f7e7a6f81ead6c2b575d5553e63ac39db41d1a802e678bc6200264a620029d93362000355565b92620003d760405190565b6200028b9062002984565b906200028b9162002a08336200283b620002c262000d43565b62002a208262002a1a83600862000360565b620013cc565b6200264a620029d97fc176fcf7d48a6aca0d96d3b3201f7add47c4af04ce9a51f5f4eb15d528c46e219262000355565b906200028b91620029ef565b906200028b9162002a6c62000d9e565b62002a7e8262002a1a83600b62000360565b6200264a620029d97fdbb9ed174593e4f785d50b5333b66e44e8ccfb28737fa34896411100a93d100e9262000355565b906200028b9162002a5c565b906200028b9162002ad3336200283b620002c262000d43565b62002ae58262002a1a83600962000360565b6200264a620029d97f6a12b3df6cba4203bd7fd06b816789f87de8c594299aed5717ae070fac781bac9262000355565b906200028b9162002aba565b62002b34336200283b620002c262000d43565b6200028b6200028b62002b9e565b6200028b62002b21565b62002b566200193d565b6200028b62002b6860016002620013cc565b3362002b997f62e78cea01bee320cd4e420270b5ea74000d11b0c9f74754ebdbfc544b05a25891620004de60405190565b0390a1565b6200028b62002b4c565b62002bbb336200283b620002c262000d43565b6200028b6200028b62002c20565b6200028b62002ba8565b62002bdd62002c2a565b6200028b62002bef60006002620013cc565b3362002b997f5db9ee0a495bf2e6ff9c91a7834c1ba4fdd244a5e8aa4e537bd38aeae4b073aa91620004de60405190565b6200028b62002bd3565b62002c386200103c62000f95565b62002c3f57565b6040517f8dfc202b000000000000000000000000000000000000000000000000000000008152600490fd5b62002c7d336200283b620002c262000d43565b6200028b62002d55565b1562002c8f57565b6040517f08c379a000000000000000000000000000000000000000000000000000000000815260206004820152600c60248201527f4445583a204e4f5f4645455300000000000000000000000000000000000000006044820152606490fd5b1562002cf657565b6040517f08c379a000000000000000000000000000000000000000000000000000000000815260206004820152601660248201527f4445583a205749544844524157414c5f4641494c4544000000000000000000006044820152606490fd5b6200028b62002d643062000355565b316000809162002d8062002d788362000720565b821162002c87565b62002d8a62000d43565b9062002d9560405190565b90818003925af162002da662001e9a565b5062002cee565b6200028b62002c6a565b906200028b929162002dc862000d9e565b62002e35565b1562002dd657565b6040517f08c379a000000000000000000000000000000000000000000000000000000000815260206004820152601860248201527f4445583a204554485f5452414e534645525f4641494c454400000000000000006044820152606490fd5b9060009162002e48620002c28462000d73565b73ffffffffffffffffffffffffffffffffffffffff82160362002e8f575081906200028b9362002e7760405190565b90818003925af162002e8862001e9a565b5062002dce565b6200028b93925062002ea19062000355565b62002ef5565b906200028b929162002db7565b62002ed062002eca620002db9263ffffffff1690565b60e01b90565b7fffffffff000000000000000000000000000000000000000000000000000000001690565b62002f4060049262002f306200028b9562002f1463a9059cbb62002eb4565b9262002f1f60405190565b968794602086019081520162000a53565b6020820181038252038362000838565b90600060209162002f4f600090565b50828151910182855af115620013aa57600080513d62002f736200162e8462000720565b0362002ffb575062002f956200162e62002f8d8462000355565b3b9262000720565b145b62002f9f5750565b62002fae62000e2c9162000355565b6040519182917f5274afe70000000000000000000000000000000000000000000000000000000083526004830173ffffffffffffffffffffffffffffffffffffffff909116815260200190565b90506200300d6200162e600162000720565b141562002f97565b6040517f08c379a000000000000000000000000000000000000000000000000000000000815260206004820152600f60248201527f4e4f545f494d504c454d454e54454400000000000000000000000000000000006044820152606490fdfe6080604052346200002657620000146200009b565b60405161308c6200011c823961308c90f35b600080fd5b906001600160a01b03905b9181191691161790565b620000569062000059906001600160a01b031682565b90565b6001600160a01b031690565b620000569062000040565b620000569062000065565b906200008f62000056620000979262000070565b82546200002b565b9055565b620000a5620000b4565b620000b23360046200007b565b565b620000b2620000b262000105565b6200005662000056620000569290565b620000566001620000c2565b906000199062000036565b90620000fd620000566200009792620000c2565b8254620000de565b620000b262000113620000d2565b6000620000e956fe6080604052600436101561001257600080fd5b60003560e01c8063022c0d9f1461021257806306fdde031461020d5780630902f1ac14610208578063095ea7b3146102035780630dfe1681146101fe57806318160ddd146101f957806323b872dd146101f457806330adf81f146101ef578063313ce567146101ea5780633566414c146101e55780633644e515146101e0578063485cc955146101db5780635909c0d5146101d65780635a3d5493146101d15780635c975abb146101cc5780636a627842146101c757806370a08231146101c25780637174b568146101bd5780637464fc3d146101b85780637ecebe00146101b3578063820d25a8146101ae57806389afcb44146101a957806395d89b41146101a4578063a9059cbb1461019f578063ba9a7a561461019a578063bc25cf7714610195578063be11b1d014610190578063c45a01551461018b578063d21220a714610186578063d505accf14610181578063dd62ed3e1461017c5763fff6cae90361022057610ac0565b610aa4565b610a6b565b6109d4565b6109ad565b610986565b610951565b610936565b6108fa565b6108df565b6108b1565b610881565b610828565b6107fb565b6107e0565b6107b3565b610742565b610713565b6106f8565b6106d1565b6106ac565b61066e565b610653565b6105cf565b610596565b61057a565b61051e565b6104ba565b610455565b6103e2565b6103b7565b6102fd565b805b0361022057565b600080fd5b9050359061023282610217565b565b73ffffffffffffffffffffffffffffffffffffffff1690565b90565b73ffffffffffffffffffffffffffffffffffffffff8116610219565b9050359061023282610250565b909182601f830112156102205781359167ffffffffffffffff831161022057602001926001830284011161022057565b90608082820312610220576102be8183610225565b926102cc8260208501610225565b926102da836040830161026c565b92606082013567ffffffffffffffff8111610220576102f99201610279565b9091565b34610220576103196103103660046102a9565b9392909261253a565b604051005b0390f35b600091031261022057565b60005b8381106103405750506000910152565b8181015183820152602001610330565b61037161037a6020936103a293610365815190565b80835293849260200190565b9586910161032d565b601f017fffffffffffffffffffffffffffffffffffffffffffffffffffffffffffffffe01690565b0190565b602080825261024d92910190610350565b34610220576103c7366004610322565b61031e6103d2612951565b604051918291826103a6565b9052565b34610220576103f2366004610322565b61031e6103fd610e80565b604080516dffffffffffffffffffffffffffff948516815293909216602084015263ffffffff16908201529081906060820190565b91906040838203126102205761024d9061044c818561026c565b93602001610225565b346102205761031e61047161046b366004610432565b906127a1565b60405191829182901515815260200190565b61024d916008021c73ffffffffffffffffffffffffffffffffffffffff1690565b9061024d9154610483565b61024d6001806104a4565b34610220576104ca366004610322565b61031e6104d56104af565b6040519182918273ffffffffffffffffffffffffffffffffffffffff909116815260200190565b61024d916008021c81565b9061024d91546104fc565b61024d60006008610507565b346102205761052e366004610322565b61031e610539610512565b6040515b9182918290815260200190565b90916060828403126102205761024d610563848461026c565b93610571816020860161026c565b93604001610225565b346102205761031e61047161059036600461054a565b91612863565b34610220576105a6366004610322565b61031e7f6e71edae12b1b97f4d1f60370fef10105fa2faae0126114a169c64845d6126c9610539565b34610220576105df366004610322565b61031e6105ea6129a9565b6040519182918260ff909116815260200190565b906020828203126102205761024d91610225565b905b600052602052604060002090565b61024d916008021c5b60ff1690565b9061024d9154610622565b61024d9061064e600b91600092610612565b610631565b346102205761031e6104716106693660046105fe565b61063c565b346102205761067e366004610322565b61031e6105396129b3565b91906040838203126102205761024d906106a3818561026c565b9360200161026c565b34610220576103196106bf366004610689565b90610b74565b61024d60006005610507565b34610220576106e1366004610322565b61031e6105396106c5565b61024d60006006610507565b3461022057610708366004610322565b61031e6105396106ec565b3461022057610723366004610322565b61031e610471610ad8565b906020828203126102205761024d9161026c565b346102205761031e61053961075836600461072e565b611504565b61023461024d61024d9273ffffffffffffffffffffffffffffffffffffffff1690565b61024d9061075d565b61024d90610780565b9061061490610789565b61024d906107ae600791600092610792565b610507565b346102205761031e6105396107c936600461072e565b61079c565b61024d906107ae600a91600092610612565b346102205761031e6105396107f63660046105fe565b6107ce565b346102205761080b366004610322565b61031e610539612f2d565b61024d906107ae600d91600092610792565b346102205761031e61053961083e36600461072e565b610816565b908160209103126102205790565b90916060828403126102205761024d61086a848461026c565b93610878816020860161026c565b93604001610843565b3461022057610319610894366004610851565b91610e75565b9081526040810192916102329160200152565b0152565b34610220576108c96108c436600461072e565b611d20565b9061031e6108d660405190565b9283928361089a565b34610220576108ef366004610322565b61031e6103d2612994565b346102205761031e610471610910366004610432565b90612802565b61024d61024d61024d9290565b61024d6103e8610916565b61024d610923565b3461022057610946366004610322565b61031e61053961092e565b346102205761031961096436600461072e565b612df7565b61024d9061062b565b61024d9054610969565b61024d6009610972565b3461022057610996366004610322565b61031e61047161097c565b61024d600060046104a4565b34610220576109bd366004610322565b61031e6104d56109a1565b61024d600060026104a4565b34610220576109e4366004610322565b61031e6104d56109c8565b60ff8116610219565b90503590610232826109ef565b60e08183031261022057610a19828261026c565b92610a27836020840161026c565b92610a358160408501610225565b92610a438260608301610225565b9261024d610a5484608085016109f8565b93610a628160a08601610225565b9360c001610225565b3461022057610319610a7e366004610a05565b95949094939193612caf565b6107ae61024d92610a9f600c93600094610792565b610792565b346102205761031e610539610aba366004610689565b90610a8a565b3461022057610ad0366004610322565b610319612626565b61024d6001610972565b7f4e487b7100000000000000000000000000000000000000000000000000000000600052604160045260246000fd5b90601f017fffffffffffffffffffffffffffffffffffffffffffffffffffffffffffffffe016810190811067ffffffffffffffff821117610b5157604052565b610ae2565b90610232610b6360405190565b9283610b11565b61024d6020610b56565b61023291600191610b8d610b86610b6a565b9315158452565b610cda565b61024d9060081c610234565b61024d9054610b92565b61023461024d61024d9290565b61024d90610ba8565b15610bc557565b6040517f08c379a000000000000000000000000000000000000000000000000000000000815260206004820152601c60248201527f444558506169723a20414c52454144595f494e495449414c495a4544000000006044820152606490fd5b0390fd5b9074ffffffffffffffffffffffffffffffffffffffff009060081b5b9181191691161790565b90610c5e61024d610c6592610789565b8254610c28565b9055565b9073ffffffffffffffffffffffffffffffffffffffff90610c44565b90610c9561024d610c6592610789565b8254610c69565b9060ff90610c44565b90610cb561024d610c6592151590565b8254610c9c565b61023291610cca9051151590565b90610ca5565b9061023291610cbc565b90610d26610d2d92610d1f610cef6001610b9e565b610d19610cff6102346000610bb5565b9173ffffffffffffffffffffffffffffffffffffffff1690565b14610bbe565b6001610c4e565b6002610c85565b610d38816009610cd0565b610d767fb1102bf8599badf4360419344e57744751c4d685c0864e807454e60f8e6addbc91610d6660405190565b9182918290511515815260200190565b0390a1565b61024d90610234565b61024d9054610d7b565b15610d9557565b6040517f08c379a000000000000000000000000000000000000000000000000000000000815260206004820152601260248201527f444558506169723a20464f5242494444454e00000000000000000000000000006044820152606490fd5b906102329291610e1433610e0e610cff6102346004610d84565b14610d8e565b610e62565b801515610219565b9050359061023282610e19565b91909160208184031261022057610e51610e486020610b56565b93600092610e21565b90830152565b61024d903690610e2e565b90610e6f61023293610e57565b91610cda565b906102329291610df4565b610e88610ee2565b9192909190565b61024d905b6dffffffffffffffffffffffffffff1690565b61024d9054610e8f565b61024d9060701c610e94565b61024d9054610eb1565b61024d9060e01c5b63ffffffff1690565b61024d9054610ec7565b610eec6003610ea7565b90610ef76003610ebd565b9061024d6003610ed8565b90610f1491610f0f611591565b610f1d565b906102326115ea565b9061024d91610f2a61150f565b9061024d91611220565b9050519061023282610217565b906020828203126102205761024d91610f34565b6040513d6000823e3d90fd5b61024d61024d61024d926dffffffffffffffffffffffffffff1690565b7f4e487b7100000000000000000000000000000000000000000000000000000000600052601160045260246000fd5b91908203918211610fba57565b610f7e565b15610fc657565b6040517f08c379a000000000000000000000000000000000000000000000000000000000815260206004820152602260248201527f444558506169723a20494e53554646494349454e545f494e5055545f414d4f5560448201527f4e540000000000000000000000000000000000000000000000000000000000006064820152608490fd5b61024d9081565b61024d905461104b565b610e9461024d61024d9290565b1561107057565b6040517f08c379a000000000000000000000000000000000000000000000000000000000815260206004820152601e60248201527f444558506169723a20494e53554646494349454e545f524553455256455300006044820152606490fd5b9190918083025b928184041490151715610fba57565b7f4e487b7100000000000000000000000000000000000000000000000000000000600052601260045260246000fd5b9061111e565b9190565b908115611129570490565b6110e5565b1561113557565b6040517f08c379a000000000000000000000000000000000000000000000000000000000815260206004820152602660248201527f444558506169723a20494e53554646494349454e545f4c49515549444954595f60448201527f4d494e54454400000000000000000000000000000000000000000000000000006064820152608490fd5b156111c157565b6040517f08c379a000000000000000000000000000000000000000000000000000000000815260206004820152601c60248201527f444558506169723a204c49515549444954595f544f4f5f4c41524745000000006044820152606490fd5b509061122a610ee2565b509061124161123c61123c6001610b9e565b610789565b6370a0823161124f30610789565b602061125a60405190565b80946112668560e01b90565b825273ffffffffffffffffffffffffffffffffffffffff8416600483015260249082905afa9081156114df576112f1936000926114e4575b50602091926112cd6112b661123c61123c6002610d84565b916112c060405190565b9687948593849360e01b90565b835273ffffffffffffffffffffffffffffffffffffffff1660048301526024820190565b03915afa9182156114df576000926114af575b5061131761131184610f61565b82610fad565b61132961132386610f61565b84610fad565b906113346000610916565b811180611498575b61134590610fbf565b61134f6008611052565b6113596000610916565b810361140057506113a59761138061137b61023298979695946113fb946110cf565b6126f5565b9061139361138c610923565b8093610fad565b998a926113a06000610bb5565b61262e565b6113b96113b26000610916565b831161112e565b6113a06113f361024d7fffffffffffffffffffffffffffffffffffffffffffffffffffffffffffffffff6113ed6008611052565b90610fad565b8311156111ba565b6117e6565b8594939261147561146c8361146661145761147b966113fb986114526102329f9e8f90611444611430600061105c565b916dffffffffffffffffffffffffffff1690565b119081611482575b50611069565b6110cf565b6114608b610f61565b90611114565b936110cf565b61146089610f61565b906126e3565b80986113a5565b9050611491611430600061105c565b118f61144c565b506113456114a66000610916565b8311905061133c565b6114d191925060203d81116114d8575b6114c98183610b11565b810190610f41565b9038611304565b503d6114bf565b610f55565b602092506114fe90833d81116114d8576114c98183610b11565b9161129e565b61024d906000610f02565b611517610ad8565b61151d57565b6040517fd93c0665000000000000000000000000000000000000000000000000000000008152600490fd5b61024d6002610916565b907fffffffffffffffffffffffffffffffffffffffffffffffffffffffffffffffff90610c44565b9061158a61024d610c6592610916565b8254611552565b61159b6000611052565b6115a3611548565b9081146115b55761023290600061157a565b6040517f3ee5aeb5000000000000000000000000000000000000000000000000000000008152600490fd5b61024d6001610916565b6102326115f56115e0565b600061157a565b1561160357565b6040517f08c379a000000000000000000000000000000000000000000000000000000000815260206004820152601160248201527f444558506169723a204f564552464c4f570000000000000000000000000000006044820152606490fd5b8115611129570690565b610ecf61024d61024d9290565b63ffffffff908116911690039063ffffffff8211610fba57565b61024d61024d61024d927bffffffffffffffffffffffffffffffffffffffffffffffffffffffff1690565b61024d61024d61024d9263ffffffff1690565b91908201809211610fba57565b906dffffffffffffffffffffffffffff90610c44565b610e9461024d61024d926dffffffffffffffffffffffffffff1690565b9061172161024d610c65926116f4565b82546116de565b907bffffffffffffffffffffffffffff00000000000000000000000000009060701b610c44565b9061175f61024d610c65926116f4565b8254611728565b907fffffffff000000000000000000000000000000000000000000000000000000009060e01b610c44565b610ecf61024d61024d9263ffffffff1690565b906117b461024d610c6592611791565b8254611766565b6103de90610f61565b9160206102329294936117df604082019660008301906117bb565b01906117bb565b6118999161188d611886611892936118a0976118236dffffffffffffffffffffffffffff61181381610f61565b84111590816119b6575b506115fc565b61184361183e42611838640100000000610916565b90611662565b61166c565b976118576118516003610ed8565b8a611679565b9160006118638161166c565b63ffffffff8516119081611992575b8161196f575b506118eb575b50505061105c565b6003611711565b61105c565b600361174f565b60036117a4565b6118aa6003610ea7565b6118b46003610ebd565b7fcf2aa50876cdfbb541206f89af0ee78d44a2abf8d328e37fa4917f982149848a91610d766118e260405190565b928392836117c4565b6119679261192f6119506119218461191c8761194b6119446119356119266119216119609d61191c6119569e612ff7565b613041565b611693565b61192f8b6116be565b906110cf565b61193f6005611052565b6116d1565b600561157a565b612ff7565b916116be565b61193f6006611052565b600661157a565b38808061187e565b611979915061105c565b6dffffffffffffffffffffffffffff8216141538611878565b905061199d8161105c565b6dffffffffffffffffffffffffffff8416141590611872565b6119c09150610f61565b8611153861181d565b906119dc92916119d7611591565b6119e6565b90916102326115ea565b906102f992916119f461150f565b906102f99291611a8b565b15611a0657565b6040517f08c379a000000000000000000000000000000000000000000000000000000000815260206004820152602660248201527f444558506169723a20494e53554646494349454e545f4c49515549444954595f60448201527f4255524e454400000000000000000000000000000000000000000000000000006064820152608490fd5b9291925050611a98610ee2565b509190611aa56001610b9e565b92611ab9611ab36002610d84565b94610789565b91611ac383610789565b926370a0823190611ad330610789565b60405197611ae18460e01b90565b895273ffffffffffffffffffffffffffffffffffffffff821660048a01526020896024818a5afa9889156114df57600099611cfc575b50611b2190610789565b611b2a81610789565b92611b3460405190565b9a611b3f8660e01b90565b8c5273ffffffffffffffffffffffffffffffffffffffff841660048d015260208c602481885afa9b8c156114df5760009c611cdc575b50611b81846007610792565b611b8a90611052565b92611b956008611052565b611ba0819d866110cf565b90611baa91611114565b9b8c9d611bb790866110cf565b90611bc191611114565b92839c83600092611bd184610916565b83118098611bef611bfa9a611bf597611bf594611cca575b506119ff565b8a6126b7565b611d94565b6020611c0560405190565b8097611c118660e01b90565b825273ffffffffffffffffffffffffffffffffffffffff8416600483015260249082905afa9182156114df57611c6996600093611ca6575b506112cd839460209450611c5c60405190565b9889948593849360e01b90565b03915afa9081156114df5761023294600092611c86575b506117e6565b611c9f91925060203d81116114d8576114c98183610b11565b9038611c80565b60209350611cc36112cd91853d81116114d8576114c98183610b11565b9350611c49565b611cd49150610916565b8a1138611be9565b611cf5919c5060203d81116114d8576114c98183610b11565b9a38611b75565b611b21919950611d199060203d81116114d8576114c98183610b11565b9890611b17565b6102f9906000806119c9565b611d45611d3f61024d9263ffffffff1690565b60e01b90565b7fffffffff000000000000000000000000000000000000000000000000000000001690565b73ffffffffffffffffffffffffffffffffffffffff90911681526040810192916102329160200152565b611dd7600492611dc861023295611dae63a9059cbb611d2c565b92611db860405190565b9687946020860190815201611d6a565b60208201810382520383610b11565b906000602091611de5600090565b50828151910182855af115610f5557600080513d611e0561111a84610916565b03611e835750611e2161111a611e1a84610789565b3b92610916565b145b611e2a5750565b611e36610c2491610789565b6040519182917f5274afe70000000000000000000000000000000000000000000000000000000083526004830173ffffffffffffffffffffffffffffffffffffffff909116815260200190565b9050611e9261111a6001610916565b1415611e23565b90611eae94939291611ea9611591565b611eb6565b6102326115ea565b9061023294939291611ec661150f565b906102329493929161210c565b15611eda57565b6040517f08c379a000000000000000000000000000000000000000000000000000000000815260206004820152602360248201527f444558506169723a20494e53554646494349454e545f4f55545055545f414d4f60448201527f554e5400000000000000000000000000000000000000000000000000000000006064820152608490fd5b15611f6657565b6040517f08c379a000000000000000000000000000000000000000000000000000000000815260206004820152601f60248201527f444558506169723a20494e53554646494349454e545f4c4951554944495459006044820152606490fd5b15611fcc57565b6040517f08c379a000000000000000000000000000000000000000000000000000000000815260206004820152601360248201527f444558506169723a20494e56414c49445f544f000000000000000000000000006044820152606490fd5b90826000939282370152565b919061037a8161204e816103a29560209181520190565b809561202b565b90939161024d95936120926120999261208b6080860198600087019073ffffffffffffffffffffffffffffffffffffffff169052565b6020850152565b6040830152565b6060818503910152612037565b156120ad57565b6040517f08c379a000000000000000000000000000000000000000000000000000000000815260206004820152600a60248201527f444558506169723a204b000000000000000000000000000000000000000000006044820152606490fd5b93929192600061211b81610916565b861191828315612524575b61212f90611ed3565b612137610ee2565b5096909561214487610f61565b89108061250e575b61215590611f5f565b61215f6001610b9e565b9161216a6002610d84565b9573ffffffffffffffffffffffffffffffffffffffff841673ffffffffffffffffffffffffffffffffffffffff83161415806124eb575b6121aa90611fc5565b6124d8575b6121b885610916565b87116124c5575b836121cc61111a87610916565b1161242f575b50506121e2915061123c90610789565b956370a082316121f130610789565b9060206121fd60405190565b809a6122098460e01b90565b825273ffffffffffffffffffffffffffffffffffffffff8516600483015260249082905afa9485156114df5761226c996000966123fd575b50906112cd61225561123c60209594610789565b9161225f60405190565b9b8c948593849360e01b90565b03915afa9384156114df57858792610232996000976123c5575b50926123166113fb959361192f9361235c96826122ae61024d836122a986610f61565b610fad565b8b11156123af576122a96122d46122ce61024d946122a96122da97610f61565b8d610fad565b96610f61565b6000908a111561239f57506122f56122fb916122a98d610f61565b89610fad565b935b61230681610916565b831190811561238d575b50610fbf565b6113ed6103e89361192f61235661235061234a61233b6123358a610916565b8d6110cf565b6113ed60039861192f8a610916565b97610916565b8b6110cf565b93610916565b61238661111a61024d61237a61237189610f61565b61192f8b610f61565b61192f620f4240610916565b10156120a6565b6123979150610916565b841138612310565b6123a99150610916565b936122fd565b6122da925061024d91506122a96122d489610916565b61235c949197506113fb959361192f936123ef6123169360203d81116114d8576114c98183610b11565b999396509350939550612286565b6020939291965061225561123c6124236112cd93873d81116114d8576114c98183610b11565b98939495505050612241565b61123c61243b91610789565b9063bea9cf36913391813b15610220578680946124798e9861246e948d61246160405190565b9b8c998a98899760e01b90565b875260048701612055565b03925af19081156114df576121e29261123c92612499575b8192506121d2565b6124b890853d87116124be575b6124b08183610b11565b810190610322565b38612491565b503d6124a6565b6124d38782611bf589610789565b6121bf565b6124e68a82611bf586610789565b6121af565b5073ffffffffffffffffffffffffffffffffffffffff82811690881614156121a1565b5061215561251b89610f61565b8710905061214c565b5061212f61253183610916565b85119050612126565b9061023294939291611e99565b61254f611591565b611eae61256261123c61123c6001610b9e565b6370a0823161257030610789565b602061257b60405190565b80946125878560e01b90565b825273ffffffffffffffffffffffffffffffffffffffff8416600483015260249082905afa9081156114df576125d6936000926114e45750602091926112cd6112b661123c61123c6002610d84565b03915afa80156114df5761023292600091612608575b506125f76003610ea7565b906126026003610ebd565b926117e6565b612620915060203d81116114d8576114c98183610b11565b386125ec565b610232612547565b906126b16126a76102329361266161264a8561193f6008611052565b61265a61111a61024d6008611052565b10156115fc565b600761268f61267c8661193f6126778686610792565b611052565b61265a61111a61024d6126778787610792565b610a9f6126a08661193f6008611052565b600861157a565b9161193f83611052565b9061157a565b610232916126d96126cc6126a0936007610792565b6126b1836122a983611052565b6122a96008611052565b90808210156126f0575090565b905090565b9060006127026003610916565b831115612780575061273782600261272261271c82610916565b83611114565b91600193849361273185610916565b906116d1565b935b612744575b50505050565b9091929461274f8190565b86101561277a57506127716127688661193f8185611114565b61146084610916565b92919082612739565b9461273e565b9161278e61111a6000610916565b0361279557565b905061024d6001610916565b336127ba836127b584610a9f85600c610792565b61157a565b6127fa6127f06127ea7f8c5be1e5ebec7d5bd14f71427d1e84f3dd0314c0f7b2291e5b200ac8c7c3b92593610789565b93610789565b9361053d60405190565b0390a3600190565b33612833612826836007610a9f6128198683610792565b6126b1896122a983611052565b6126b18561193f83611052565b6127fa6127f06127ea7fddf252ad1be2c89b69c2b068fc378daa952ba7f163c4a11628f55a4df523b3ef93610789565b600c816128708183610792565b61287e612677338093610792565b60010161289f575b505050612833612826836007610a9f6128198683610792565b610a9f6128af926128bc94610792565b6126b1856122a983611052565b388181612886565b67ffffffffffffffff8111610b5157602090601f017fffffffffffffffffffffffffffffffffffffffffffffffffffffffffffffffe0160190565b9061291161290c836128c4565b610b56565b918252565b612920600c6128ff565b7f444558204c5020546f6b656e0000000000000000000000000000000000000000602082015290565b61024d612916565b61024d612949565b61296360026128ff565b7f4c50000000000000000000000000000000000000000000000000000000000000602082015290565b61024d612959565b61024d61298c565b61062b61024d61024d9290565b61024d601261299c565b61024d612a4b565b6129c560016128ff565b7f3100000000000000000000000000000000000000000000000000000000000000602082015290565b61024d6129bb565b9095949261023294612a28612a2f92612a21608096612a1a60a088019c6000890152565b6020870152565b6040850152565b6060830152565b019073ffffffffffffffffffffffffffffffffffffffff169052565b7f8b73c3c69bb8fe3d512ecc4cf759cc79239f7b179b0ffacaa9a75d522b39400f612ad0612a77612949565b612a89612a82825190565b9160200190565b20612a926129ee565b612a9d612a82825190565b2092612ac446612aac30610789565b90612ab660405190565b9687956020870195866129f6565b90810382520382610b11565b612adb612a82825190565b2090565b15612ae657565b6040517f08c379a000000000000000000000000000000000000000000000000000000000815260206004820152601060248201527f444558506169723a2045585049524544000000000000000000000000000000006044820152606490fd5b7fffffffffffffffffffffffffffffffffffffffffffffffffffffffffffffffff8114610fba5760010190565b9194612bdb6108ad92989795612bd460a096612bb76102329a612b9a60c08a019e60008b0152565b73ffffffffffffffffffffffffffffffffffffffff166020890152565b73ffffffffffffffffffffffffffffffffffffffff166040870152565b6060850152565b6080830152565b6020809392612c1a6129116103a2947f1901000000000000000000000000000000000000000000000000000000000000815260020190565b01918252565b6108ad61023294612092606094989795612c3f608086019a6000870152565b60ff166020850152565b15612c5057565b6040517f08c379a000000000000000000000000000000000000000000000000000000000815260206004820152601a60248201527f444558506169723a20494e56414c49445f5349474e41545552450000000000006044820152606490fd5b939094612d758397612ac4612d5689612d328a600099612ac460209c612cdd612cd54290565b821015612adf565b7f6e71edae12b1b97f4d1f60370fef10105fa2faae0126114a169c64845d6126c992612d0a85600d610792565b90612d21612d1783611052565b926126b184612b45565b604051978896602088019687612b72565b612d3d612a82825190565b20612d46612a4b565b6040519384928b84019283612be2565b612d61612a82825190565b2092612d6c60405190565b94859485612c20565b838052039060015afa156114df57600051612daf90612da973ffffffffffffffffffffffffffffffffffffffff8416610cff565b14612c49565b612dc2836127b584610a9f85600c610792565b612df26127f06127ea7f8c5be1e5ebec7d5bd14f71427d1e84f3dd0314c0f7b2291e5b200ac8c7c3b92593610789565b0390a3565b612e016001610b9e565b612e14612e0e6002610d84565b91610789565b91612e1e83610789565b926370a0823192612e2e30610789565b906020612e3a60405190565b8097612e468860e01b90565b825273ffffffffffffffffffffffffffffffffffffffff8516600483015260249082905afa9081156114df5761123c60209486612e9f612ea595612ec99b600091612f10575b506113ed612e9a6003610ea7565b610f61565b91611d94565b936112cd612eb286610789565b91612ebc60405190565b9788948593849360e01b90565b03915afa9283156114df5761023293612e9f91600091612ef2575b506113ed612e9a6003610ebd565b612f0a915060203d81116114d8576114c98183610b11565b38612ee4565b612f279150893d81116114d8576114c98183610b11565b38612e8c565b61024d612f3d612e9a6003610ea7565b61192f612e9a6003610ebd565b612f6761024d61024d926dffffffffffffffffffffffffffff1690565b7bffffffffffffffffffffffffffffffffffffffffffffffffffffffff1690565b612f6761024d61024d9290565b61024d6e010000000000000000000000000000612f88565b7bffffffffffffffffffffffffffffffffffffffffffffffffffffffff908116929116917bffffffffffffffffffffffffffffffffffffffffffffffffffffffff818402166110d6565b61300c61024d91613006600090565b50612f4a565b613014612f95565b90612fad565b7bffffffffffffffffffffffffffffffffffffffffffffffffffffffff908116911661111e565b61305061024d92613006600090565b9061301a56fea2646970667358221220f97c6b03d65fa8a1506faf19a15a9d4f78db4f4f2bacd67ae49e023b274442a664736f6c63430008140033a26469706673582212206d1d9550b45eb5b36d7ef519cc435425ad50c10627d92f641a4f629568a9e3fc64736f6c63430008140033","opcodes":"PUSH1 0x80 PUSH1 0x40 MSTORE CALLVALUE PUSH3 0x30 JUMPI PUSH3 0x1E PUSH3 0x18 PUSH3 0xD3 JUMP JUMPDEST PUSH3 0x20C JUMP JUMPDEST PUSH1 0x40 MLOAD PUSH2 0x6252 PUSH3 0x386 DUP3 CODECOPY PUSH2 0x6252 SWAP1 RETURN JUMPDEST PUSH1 0x0 DUP1 REVERT JUMPDEST PUSH4 0x4E487B71 PUSH1 0xE0 SHL PUSH1 0x0 MSTORE PUSH1 0x41 PUSH1 0x4 MSTORE PUSH1 0x24 PUSH1 0x0 REVERT JUMPDEST SWAP1 PUSH1 0x1F ADD PUSH1 0x1F NOT AND DUP2 ADD SWAP1 DUP2 LT PUSH1 0x1 PUSH1 0x1 PUSH1 0x40 SHL SUB DUP3 GT OR PUSH3 0x6D JUMPI PUSH1 0x40 MSTORE JUMP JUMPDEST PUSH3 0x35 JUMP JUMPDEST SWAP1 PUSH3 0x8A PUSH3 0x82 PUSH1 0x40 MLOAD SWAP1 JUMP JUMPDEST SWAP3 DUP4 PUSH3 0x4B JUMP JUMPDEST JUMP JUMPDEST PUSH1 0x1 PUSH1 0x1 PUSH1 0xA0 SHL SUB AND SWAP1 JUMP JUMPDEST SWAP1 JUMP JUMPDEST PUSH1 0x1 PUSH1 0x1 PUSH1 0xA0 SHL SUB DUP2 AND SUB PUSH3 0x30 JUMPI JUMP JUMPDEST SWAP1 POP MLOAD SWAP1 PUSH3 0x8A DUP3 PUSH3 0x9B JUMP JUMPDEST SWAP1 PUSH1 0x20 DUP3 DUP3 SUB SLT PUSH3 0x30 JUMPI PUSH3 0x98 SWAP2 PUSH3 0xAD JUMP JUMPDEST PUSH3 0x98 PUSH3 0x65D8 DUP1 CODESIZE SUB DUP1 PUSH3 0xEA DUP2 PUSH3 0x73 JUMP JUMPDEST SWAP3 DUP4 CODECOPY DUP2 ADD SWAP1 PUSH3 0xBC JUMP JUMPDEST SWAP1 PUSH1 0x0 NOT SWAP1 JUMPDEST SWAP2 DUP2 NOT AND SWAP2 AND OR SWAP1 JUMP JUMPDEST PUSH3 0x98 PUSH3 0x98 PUSH3 0x98 SWAP3 SWAP1 JUMP JUMPDEST SWAP1 PUSH3 0x12A PUSH3 0x98 PUSH3 0x132 SWAP3 PUSH3 0x106 JUMP JUMPDEST DUP3 SLOAD PUSH3 0xF6 JUMP JUMPDEST SWAP1 SSTORE JUMP JUMPDEST PUSH3 0x8C PUSH3 0x98 PUSH3 0x98 SWAP3 SWAP1 JUMP JUMPDEST PUSH3 0x98 SWAP1 PUSH3 0x136 JUMP JUMPDEST ISZERO PUSH3 0x159 JUMPI JUMP JUMPDEST PUSH1 0x40 MLOAD PUSH3 0x461BCD PUSH1 0xE5 SHL DUP2 MSTORE PUSH1 0x20 PUSH1 0x4 DUP3 ADD MSTORE PUSH1 0xA PUSH1 0x24 DUP3 ADD MSTORE PUSH10 0x24A72B2FA627A1A5A2A9 PUSH1 0xB1 SHL PUSH1 0x44 DUP3 ADD MSTORE PUSH1 0x64 SWAP1 REVERT JUMPDEST SUB SWAP1 REVERT JUMPDEST SWAP1 PUSH1 0xFF SWAP1 PUSH3 0xFC JUMP JUMPDEST SWAP1 PUSH3 0x1AC PUSH3 0x98 PUSH3 0x132 SWAP3 ISZERO ISZERO SWAP1 JUMP JUMPDEST DUP3 SLOAD PUSH3 0x18F JUMP JUMPDEST PUSH3 0x98 SWAP1 PUSH3 0x8C SWAP1 PUSH1 0x1 PUSH1 0x1 PUSH1 0xA0 SHL SUB AND DUP3 JUMP JUMPDEST PUSH3 0x98 SWAP1 PUSH3 0x1B4 JUMP JUMPDEST PUSH3 0x98 SWAP1 PUSH3 0x1CA JUMP JUMPDEST SWAP1 PUSH1 0x1 PUSH1 0x1 PUSH1 0xA0 SHL SUB SWAP1 PUSH3 0xFC JUMP JUMPDEST SWAP1 PUSH3 0x204 PUSH3 0x98 PUSH3 0x132 SWAP3 PUSH3 0x1D5 JUMP JUMPDEST DUP3 SLOAD PUSH3 0x1E0 JUMP JUMPDEST PUSH3 0x267 PUSH3 0x8A SWAP2 PUSH3 0x220 CALLER PUSH3 0x26F JUMP JUMPDEST PUSH3 0x22E PUSH1 0x1E PUSH1 0x5 PUSH3 0x116 JUMP JUMPDEST PUSH3 0x261 PUSH1 0x0 PUSH3 0x259 PUSH3 0x247 PUSH3 0x8C DUP4 PUSH3 0x146 JUMP JUMPDEST PUSH1 0x1 PUSH1 0x1 PUSH1 0xA0 SHL SUB DUP6 AND EQ ISZERO PUSH3 0x151 JUMP JUMPDEST PUSH1 0x7 PUSH3 0x199 JUMP JUMPDEST PUSH3 0x1D5 JUMP JUMPDEST PUSH1 0xC PUSH3 0x1F0 JUMP JUMPDEST PUSH3 0x8A SWAP1 PUSH3 0x286 JUMP JUMPDEST PUSH3 0x98 PUSH1 0x1 PUSH3 0x106 JUMP JUMPDEST PUSH3 0x291 SWAP1 PUSH3 0x2A7 JUMP JUMPDEST PUSH3 0x8A PUSH3 0x29F PUSH3 0x27A JUMP JUMPDEST PUSH1 0x1 PUSH3 0x116 JUMP JUMPDEST PUSH3 0x2B3 PUSH1 0x0 PUSH3 0x146 JUMP JUMPDEST PUSH1 0x1 PUSH1 0x1 PUSH1 0xA0 SHL SUB DUP2 AND PUSH1 0x1 PUSH1 0x1 PUSH1 0xA0 SHL SUB DUP4 AND EQ PUSH3 0x2D9 JUMPI POP PUSH3 0x8A SWAP1 PUSH3 0x323 JUMP JUMPDEST PUSH3 0x18B SWAP1 PUSH3 0x2E8 PUSH1 0x40 MLOAD SWAP1 JUMP JUMPDEST PUSH4 0x1E4FBDF7 PUSH1 0xE0 SHL DUP2 MSTORE SWAP2 DUP3 SWAP2 PUSH1 0x4 DUP4 ADD PUSH1 0x1 PUSH1 0x1 PUSH1 0xA0 SHL SUB SWAP1 SWAP2 AND DUP2 MSTORE PUSH1 0x20 ADD SWAP1 JUMP JUMPDEST PUSH3 0x98 SWAP1 PUSH3 0x8C JUMP JUMPDEST PUSH3 0x98 SWAP1 SLOAD PUSH3 0x30C JUMP JUMPDEST PUSH3 0x32F PUSH1 0x0 PUSH3 0x317 JUMP JUMPDEST SWAP1 PUSH3 0x33D DUP2 PUSH1 0x0 PUSH3 0x1F0 JUMP JUMPDEST PUSH3 0x374 PUSH3 0x36D PUSH32 0x8BE0079C531659141344CD1FD0A4F28419497F9722A3DAAFE3B4186F6B6457E0 SWAP4 PUSH3 0x1D5 JUMP JUMPDEST SWAP2 PUSH3 0x1D5 JUMP JUMPDEST SWAP2 PUSH3 0x37F PUSH1 0x40 MLOAD SWAP1 JUMP JUMPDEST PUSH1 0x0 SWAP1 LOG3 JUMP INVALID PUSH1 0x80 PUSH1 0x40 MSTORE PUSH1 0x4 CALLDATASIZE LT ISZERO PUSH3 0x13 JUMPI PUSH1 0x0 DUP1 REVERT JUMPDEST PUSH1 0x0 CALLDATALOAD PUSH1 0xE0 SHR DUP1 PUSH4 0x180B0D7E EQ PUSH3 0x1C8 JUMPI DUP1 PUSH4 0x181D989B EQ PUSH3 0x270 JUMPI DUP1 PUSH4 0x1E3DD18B EQ PUSH3 0x26A JUMPI DUP1 PUSH4 0x3F4BA83A EQ PUSH3 0x264 JUMPI DUP1 PUSH4 0x476343EE EQ PUSH3 0x25E JUMPI DUP1 PUSH4 0x4BFC2E0B EQ PUSH3 0x258 JUMPI DUP1 PUSH4 0x574F2BA3 EQ PUSH3 0x252 JUMPI DUP1 PUSH4 0x5C975ABB EQ PUSH3 0x24C JUMPI DUP1 PUSH4 0x63A599A4 EQ PUSH3 0x246 JUMPI DUP1 PUSH4 0x715018A6 EQ PUSH3 0x240 JUMPI DUP1 PUSH4 0x788F737D EQ PUSH3 0x23A JUMPI DUP1 PUSH4 0x7935F9A3 EQ PUSH3 0x234 JUMPI DUP1 PUSH4 0x7B84FDA5 EQ PUSH3 0x22E JUMPI DUP1 PUSH4 0x8456CB59 EQ PUSH3 0x228 JUMPI DUP1 PUSH4 0x8DA5CB5B EQ PUSH3 0x222 JUMPI DUP1 PUSH4 0x92F6576E EQ PUSH3 0x21C JUMPI DUP1 PUSH4 0x9759164A EQ PUSH3 0x216 JUMPI DUP1 PUSH4 0x978BBDB9 EQ PUSH3 0x210 JUMPI DUP1 PUSH4 0xA293E03C EQ PUSH3 0x20A JUMPI DUP1 PUSH4 0xA5E90EEE EQ PUSH3 0x204 JUMPI DUP1 PUSH4 0xAC449629 EQ PUSH3 0x1FE JUMPI DUP1 PUSH4 0xAD1329D1 EQ PUSH3 0x1F8 JUMPI DUP1 PUSH4 0xB4F69A2F EQ PUSH3 0x1F2 JUMPI DUP1 PUSH4 0xBE8796C1 EQ PUSH3 0x1EC JUMPI DUP1 PUSH4 0xC73D7C7B EQ PUSH3 0x1E6 JUMPI DUP1 PUSH4 0xC9C65396 EQ PUSH3 0x1E0 JUMPI DUP1 PUSH4 0xCE3B5273 EQ PUSH3 0x1DA JUMPI DUP1 PUSH4 0xD01DD6D2 EQ PUSH3 0x1D4 JUMPI DUP1 PUSH4 0xD5749D42 EQ PUSH3 0x1CE JUMPI DUP1 PUSH4 0xD73792A9 EQ PUSH3 0x1C8 JUMPI DUP1 PUSH4 0xE6A43905 EQ PUSH3 0x1C2 JUMPI DUP1 PUSH4 0xF2FDE38B EQ PUSH3 0x1BC JUMPI DUP1 PUSH4 0xF3AE2415 EQ PUSH3 0x1B6 JUMPI PUSH4 0xFF255EFB SUB PUSH3 0x282 JUMPI PUSH3 0xD0B JUMP JUMPDEST PUSH3 0xCDC JUMP JUMPDEST PUSH3 0xCAA JUMP JUMPDEST PUSH3 0xC88 JUMP JUMPDEST PUSH3 0x28D JUMP JUMPDEST PUSH3 0xC50 JUMP JUMPDEST PUSH3 0xC1D JUMP JUMPDEST PUSH3 0xBFB JUMP JUMPDEST PUSH3 0xB93 JUMP JUMPDEST PUSH3 0xB76 JUMP JUMPDEST PUSH3 0xB41 JUMP JUMPDEST PUSH3 0xB1F JUMP JUMPDEST PUSH3 0xAD9 JUMP JUMPDEST PUSH3 0xA82 JUMP JUMPDEST PUSH3 0x9AB JUMP JUMPDEST PUSH3 0x990 JUMP JUMPDEST PUSH3 0x7E8 JUMP JUMPDEST PUSH3 0x793 JUMP JUMPDEST PUSH3 0x747 JUMP JUMPDEST PUSH3 0x6FF JUMP JUMPDEST PUSH3 0x6E2 JUMP JUMPDEST PUSH3 0x6C5 JUMP JUMPDEST PUSH3 0x6A4 JUMP JUMPDEST PUSH3 0x655 JUMP JUMPDEST PUSH3 0x5F8 JUMP JUMPDEST PUSH3 0x5D7 JUMP JUMPDEST PUSH3 0x5A8 JUMP JUMPDEST PUSH3 0x587 JUMP JUMPDEST PUSH3 0x569 JUMP JUMPDEST PUSH3 0x524 JUMP JUMPDEST PUSH3 0x502 JUMP JUMPDEST PUSH3 0x4B9 JUMP JUMPDEST PUSH3 0x3B2 JUMP JUMPDEST PUSH1 0x0 SWAP2 SUB SLT PUSH3 0x282 JUMPI JUMP JUMPDEST PUSH1 0x0 DUP1 REVERT JUMPDEST SWAP1 MSTORE JUMP JUMPDEST JUMP JUMPDEST CALLVALUE PUSH3 0x282 JUMPI PUSH3 0x2A0 CALLDATASIZE PUSH1 0x4 PUSH3 0x276 JUMP JUMPDEST PUSH3 0x2BE PUSH3 0x2AE PUSH3 0xC7E JUMP JUMPDEST PUSH1 0x40 MLOAD SWAP2 DUP3 SWAP2 DUP3 SWAP1 DUP2 MSTORE PUSH1 0x20 ADD SWAP1 JUMP JUMPDEST SUB SWAP1 RETURN JUMPDEST PUSH20 0xFFFFFFFFFFFFFFFFFFFFFFFFFFFFFFFFFFFFFFFF AND SWAP1 JUMP JUMPDEST SWAP1 JUMP JUMPDEST PUSH20 0xFFFFFFFFFFFFFFFFFFFFFFFFFFFFFFFFFFFFFFFF DUP2 AND JUMPDEST SUB PUSH3 0x282 JUMPI JUMP JUMPDEST SWAP1 POP CALLDATALOAD SWAP1 PUSH3 0x28B DUP3 PUSH3 0x2DE JUMP JUMPDEST SWAP1 PUSH1 0x20 DUP3 DUP3 SUB SLT PUSH3 0x282 JUMPI PUSH3 0x2DB SWAP2 PUSH3 0x2FE JUMP JUMPDEST PUSH3 0x2C2 PUSH3 0x2DB PUSH3 0x2DB SWAP3 PUSH20 0xFFFFFFFFFFFFFFFFFFFFFFFFFFFFFFFFFFFFFFFF AND SWAP1 JUMP JUMPDEST PUSH3 0x2DB SWAP1 PUSH3 0x324 JUMP JUMPDEST PUSH3 0x2DB SWAP1 PUSH3 0x34A JUMP JUMPDEST SWAP1 PUSH3 0x36C SWAP1 PUSH3 0x355 JUMP JUMPDEST PUSH1 0x0 MSTORE PUSH1 0x20 MSTORE PUSH1 0x40 PUSH1 0x0 KECCAK256 SWAP1 JUMP JUMPDEST PUSH3 0x2DB SWAP2 PUSH1 0x8 MUL SHR JUMPDEST PUSH1 0xFF AND SWAP1 JUMP JUMPDEST SWAP1 PUSH3 0x2DB SWAP2 SLOAD PUSH3 0x37A JUMP JUMPDEST PUSH3 0x2DB SWAP1 PUSH3 0x3AC PUSH1 0x8 SWAP2 PUSH1 0x0 SWAP3 PUSH3 0x360 JUMP JUMPDEST PUSH3 0x38A JUMP JUMPDEST CALLVALUE PUSH3 0x282 JUMPI PUSH3 0x2BE PUSH3 0x3D3 PUSH3 0x3CD CALLDATASIZE PUSH1 0x4 PUSH3 0x30D JUMP JUMPDEST PUSH3 0x397 JUMP JUMPDEST PUSH1 0x40 MLOAD JUMPDEST SWAP2 DUP3 SWAP2 DUP3 SWAP1 ISZERO ISZERO DUP2 MSTORE PUSH1 0x20 ADD SWAP1 JUMP JUMPDEST DUP1 PUSH3 0x2F6 JUMP JUMPDEST SWAP1 POP CALLDATALOAD SWAP1 PUSH3 0x28B DUP3 PUSH3 0x3E6 JUMP JUMPDEST SWAP1 PUSH1 0x20 DUP3 DUP3 SUB SLT PUSH3 0x282 JUMPI PUSH3 0x2DB SWAP2 PUSH3 0x3ED JUMP JUMPDEST PUSH32 0x4E487B7100000000000000000000000000000000000000000000000000000000 PUSH1 0x0 MSTORE PUSH1 0x32 PUSH1 0x4 MSTORE PUSH1 0x24 PUSH1 0x0 REVERT JUMPDEST DUP1 SLOAD DUP3 LT ISZERO PUSH3 0x467 JUMPI PUSH3 0x45E PUSH1 0x1 SWAP2 PUSH1 0x0 MSTORE PUSH1 0x20 PUSH1 0x0 KECCAK256 SWAP1 JUMP JUMPDEST SWAP2 MUL ADD SWAP1 PUSH1 0x0 SWAP1 JUMP JUMPDEST PUSH3 0x413 JUMP JUMPDEST PUSH3 0x2DB SWAP2 PUSH1 0x8 MUL SHR PUSH3 0x2C2 JUMP JUMPDEST SWAP1 PUSH3 0x2DB SWAP2 SLOAD PUSH3 0x46D JUMP JUMPDEST PUSH1 0x4 PUSH1 0x0 PUSH3 0x496 DUP3 SLOAD SWAP1 JUMP JUMPDEST DUP4 LT ISZERO PUSH3 0x4B6 JUMPI POP PUSH3 0x2DB SWAP2 PUSH3 0x4AF SWAP2 PUSH3 0x442 JUMP JUMPDEST SWAP1 PUSH3 0x47C JUMP JUMPDEST DUP1 REVERT JUMPDEST CALLVALUE PUSH3 0x282 JUMPI PUSH3 0x2BE PUSH3 0x4DA PUSH3 0x4D4 CALLDATASIZE PUSH1 0x4 PUSH3 0x3FC JUMP JUMPDEST PUSH3 0x489 JUMP JUMPDEST PUSH1 0x40 MLOAD JUMPDEST SWAP2 DUP3 SWAP2 DUP3 PUSH20 0xFFFFFFFFFFFFFFFFFFFFFFFFFFFFFFFFFFFFFFFF SWAP1 SWAP2 AND DUP2 MSTORE PUSH1 0x20 ADD SWAP1 JUMP JUMPDEST CALLVALUE PUSH3 0x282 JUMPI PUSH3 0x515 CALLDATASIZE PUSH1 0x4 PUSH3 0x276 JUMP JUMPDEST PUSH3 0x51F PUSH3 0x2BC9 JUMP JUMPDEST PUSH1 0x40 MLOAD STOP JUMPDEST CALLVALUE PUSH3 0x282 JUMPI PUSH3 0x537 CALLDATASIZE PUSH1 0x4 PUSH3 0x276 JUMP JUMPDEST PUSH3 0x51F PUSH3 0x2DAD JUMP JUMPDEST SWAP2 SWAP1 PUSH1 0x40 DUP4 DUP3 SUB SLT PUSH3 0x282 JUMPI PUSH3 0x2DB SWAP1 PUSH3 0x55F DUP2 DUP6 PUSH3 0x2FE JUMP JUMPDEST SWAP4 PUSH1 0x20 ADD PUSH3 0x3ED JUMP JUMPDEST CALLVALUE PUSH3 0x282 JUMPI PUSH3 0x51F PUSH3 0x580 CALLDATASIZE PUSH1 0x4 PUSH3 0x541 JUMP JUMPDEST SWAP1 PUSH3 0x264F JUMP JUMPDEST CALLVALUE PUSH3 0x282 JUMPI PUSH3 0x59A CALLDATASIZE PUSH1 0x4 PUSH3 0x276 JUMP JUMPDEST PUSH3 0x2BE PUSH3 0x2AE PUSH1 0x4 SLOAD SWAP1 JUMP JUMPDEST CALLVALUE PUSH3 0x282 JUMPI PUSH3 0x5BB CALLDATASIZE PUSH1 0x4 PUSH3 0x276 JUMP JUMPDEST PUSH3 0x2BE PUSH3 0x3D3 PUSH3 0xF95 JUMP JUMPDEST PUSH3 0x2DB PUSH1 0x0 PUSH1 0x7 PUSH3 0x38A JUMP JUMPDEST CALLVALUE PUSH3 0x282 JUMPI PUSH3 0x5EA CALLDATASIZE PUSH1 0x4 PUSH3 0x276 JUMP JUMPDEST PUSH3 0x2BE PUSH3 0x3D3 PUSH3 0x5C9 JUMP JUMPDEST CALLVALUE PUSH3 0x282 JUMPI PUSH3 0x60B CALLDATASIZE PUSH1 0x4 PUSH3 0x276 JUMP JUMPDEST PUSH3 0x51F PUSH3 0xD94 JUMP JUMPDEST DUP1 ISZERO ISZERO PUSH3 0x2F6 JUMP JUMPDEST SWAP1 POP CALLDATALOAD SWAP1 PUSH3 0x28B DUP3 PUSH3 0x615 JUMP JUMPDEST SWAP2 SWAP1 PUSH1 0x40 DUP4 DUP3 SUB SLT PUSH3 0x282 JUMPI PUSH3 0x2DB SWAP1 PUSH3 0x64B DUP2 DUP6 PUSH3 0x2FE JUMP JUMPDEST SWAP4 PUSH1 0x20 ADD PUSH3 0x61E JUMP JUMPDEST CALLVALUE PUSH3 0x282 JUMPI PUSH3 0x51F PUSH3 0x66C CALLDATASIZE PUSH1 0x4 PUSH3 0x62D JUMP JUMPDEST SWAP1 PUSH3 0x2A50 JUMP JUMPDEST PUSH3 0x2DB SWAP1 PUSH3 0x384 JUMP JUMPDEST PUSH3 0x2DB SWAP1 SLOAD PUSH3 0x673 JUMP JUMPDEST PUSH1 0x0 PUSH3 0x69D PUSH3 0x2DB SWAP3 PUSH1 0xA PUSH3 0x360 JUMP JUMPDEST ADD PUSH3 0x67E JUMP JUMPDEST CALLVALUE PUSH3 0x282 JUMPI PUSH3 0x2BE PUSH3 0x3D3 PUSH3 0x6BF CALLDATASIZE PUSH1 0x4 PUSH3 0x30D JUMP JUMPDEST PUSH3 0x68A JUMP JUMPDEST CALLVALUE PUSH3 0x282 JUMPI PUSH3 0x51F PUSH3 0x6DC CALLDATASIZE PUSH1 0x4 PUSH3 0x3FC JUMP JUMPDEST PUSH3 0x2979 JUMP JUMPDEST CALLVALUE PUSH3 0x282 JUMPI PUSH3 0x6F5 CALLDATASIZE PUSH1 0x4 PUSH3 0x276 JUMP JUMPDEST PUSH3 0x51F PUSH3 0x2B42 JUMP JUMPDEST CALLVALUE PUSH3 0x282 JUMPI PUSH3 0x712 CALLDATASIZE PUSH1 0x4 PUSH3 0x276 JUMP JUMPDEST PUSH3 0x2BE PUSH3 0x4DA PUSH3 0xD43 JUMP JUMPDEST PUSH3 0x2DB PUSH3 0x2DB PUSH3 0x2DB SWAP3 SWAP1 JUMP JUMPDEST PUSH3 0x2DB PUSH2 0x3E8 PUSH3 0x720 JUMP JUMPDEST PUSH3 0x2DB PUSH3 0x730 JUMP JUMPDEST CALLVALUE PUSH3 0x282 JUMPI PUSH3 0x75A CALLDATASIZE PUSH1 0x4 PUSH3 0x276 JUMP JUMPDEST PUSH3 0x2BE PUSH3 0x2AE PUSH3 0x73D JUMP JUMPDEST PUSH3 0x2DB PUSH1 0x0 PUSH1 0xC PUSH3 0x47C JUMP JUMPDEST PUSH3 0x287 SWAP1 PUSH3 0x355 JUMP JUMPDEST PUSH1 0x20 DUP2 ADD SWAP3 SWAP2 PUSH3 0x28B SWAP2 SWAP1 PUSH3 0x776 JUMP JUMPDEST CALLVALUE PUSH3 0x282 JUMPI PUSH3 0x7A6 CALLDATASIZE PUSH1 0x4 PUSH3 0x276 JUMP JUMPDEST PUSH3 0x2BE PUSH3 0x7B4 PUSH3 0x768 JUMP JUMPDEST PUSH1 0x40 MLOAD SWAP2 DUP3 SWAP2 DUP3 PUSH3 0x781 JUMP JUMPDEST PUSH3 0x2DB SWAP2 PUSH1 0x8 MUL SHR DUP2 JUMP JUMPDEST SWAP1 PUSH3 0x2DB SWAP2 SLOAD PUSH3 0x7C1 JUMP JUMPDEST PUSH3 0x2DB PUSH1 0x0 PUSH1 0x5 PUSH3 0x7CD JUMP JUMPDEST CALLVALUE PUSH3 0x282 JUMPI PUSH3 0x7FB CALLDATASIZE PUSH1 0x4 PUSH3 0x276 JUMP JUMPDEST PUSH3 0x2BE PUSH3 0x2AE PUSH3 0x7DA JUMP JUMPDEST PUSH32 0x4E487B7100000000000000000000000000000000000000000000000000000000 PUSH1 0x0 MSTORE PUSH1 0x41 PUSH1 0x4 MSTORE PUSH1 0x24 PUSH1 0x0 REVERT JUMPDEST SWAP1 PUSH1 0x1F ADD PUSH32 0xFFFFFFFFFFFFFFFFFFFFFFFFFFFFFFFFFFFFFFFFFFFFFFFFFFFFFFFFFFFFFFE0 AND DUP2 ADD SWAP1 DUP2 LT PUSH8 0xFFFFFFFFFFFFFFFF DUP3 GT OR PUSH3 0x879 JUMPI PUSH1 0x40 MSTORE JUMP JUMPDEST PUSH3 0x809 JUMP JUMPDEST SWAP1 PUSH3 0x28B PUSH3 0x88E PUSH1 0x40 MLOAD SWAP1 JUMP JUMPDEST SWAP3 DUP4 PUSH3 0x838 JUMP JUMPDEST PUSH8 0xFFFFFFFFFFFFFFFF DUP2 GT PUSH3 0x879 JUMPI PUSH1 0x20 SWAP1 PUSH1 0x1F ADD PUSH32 0xFFFFFFFFFFFFFFFFFFFFFFFFFFFFFFFFFFFFFFFFFFFFFFFFFFFFFFFFFFFFFFE0 AND ADD SWAP1 JUMP JUMPDEST ADD SWAP1 JUMP JUMPDEST SWAP1 DUP3 PUSH1 0x0 SWAP4 SWAP3 DUP3 CALLDATACOPY ADD MSTORE JUMP JUMPDEST SWAP1 SWAP3 SWAP2 SWAP3 PUSH3 0x8FB PUSH3 0x8F5 DUP3 PUSH3 0x896 JUMP JUMPDEST PUSH3 0x87F JUMP JUMPDEST SWAP4 DUP2 DUP6 MSTORE PUSH1 0x20 DUP6 ADD SWAP1 DUP3 DUP5 ADD GT PUSH3 0x282 JUMPI PUSH3 0x28B SWAP3 PUSH3 0x8D6 JUMP JUMPDEST SWAP1 DUP1 PUSH1 0x1F DUP4 ADD SLT ISZERO PUSH3 0x282 JUMPI DUP2 PUSH1 0x20 PUSH3 0x2DB SWAP4 CALLDATALOAD SWAP2 ADD PUSH3 0x8E2 JUMP JUMPDEST SWAP1 PUSH1 0x80 DUP3 DUP3 SUB SLT PUSH3 0x282 JUMPI PUSH3 0x94E DUP2 DUP4 PUSH3 0x2FE JUMP JUMPDEST SWAP3 PUSH3 0x95E DUP3 PUSH1 0x20 DUP6 ADD PUSH3 0x3ED JUMP JUMPDEST SWAP3 PUSH3 0x96E DUP4 PUSH1 0x40 DUP4 ADD PUSH3 0x3ED JUMP JUMPDEST SWAP3 PUSH1 0x60 DUP3 ADD CALLDATALOAD PUSH8 0xFFFFFFFFFFFFFFFF DUP2 GT PUSH3 0x282 JUMPI PUSH3 0x2DB SWAP3 ADD PUSH3 0x918 JUMP JUMPDEST PUSH3 0x51F PUSH3 0x9A1 CALLDATASIZE PUSH1 0x4 PUSH3 0x936 JUMP JUMPDEST SWAP3 SWAP2 SWAP1 SWAP2 PUSH3 0x208B JUMP JUMPDEST CALLVALUE PUSH3 0x282 JUMPI PUSH3 0x51F PUSH3 0x9C2 CALLDATASIZE PUSH1 0x4 PUSH3 0x62D JUMP JUMPDEST SWAP1 PUSH3 0x2AAE JUMP JUMPDEST SWAP1 PUSH1 0xE0 DUP3 DUP3 SUB SLT PUSH3 0x282 JUMPI PUSH3 0x9E1 DUP2 DUP4 PUSH3 0x2FE JUMP JUMPDEST SWAP3 PUSH3 0x9F1 DUP3 PUSH1 0x20 DUP6 ADD PUSH3 0x2FE JUMP JUMPDEST SWAP3 PUSH3 0xA01 DUP4 PUSH1 0x40 DUP4 ADD PUSH3 0x3ED JUMP JUMPDEST SWAP3 PUSH3 0xA11 DUP2 PUSH1 0x60 DUP5 ADD PUSH3 0x3ED JUMP JUMPDEST SWAP3 PUSH3 0xA21 DUP3 PUSH1 0x80 DUP6 ADD PUSH3 0x61E JUMP JUMPDEST SWAP3 PUSH3 0xA31 DUP4 PUSH1 0xA0 DUP4 ADD PUSH3 0x3ED JUMP JUMPDEST SWAP3 PUSH1 0xC0 DUP3 ADD CALLDATALOAD PUSH8 0xFFFFFFFFFFFFFFFF DUP2 GT PUSH3 0x282 JUMPI PUSH3 0x2DB SWAP3 ADD PUSH3 0x918 JUMP JUMPDEST PUSH20 0xFFFFFFFFFFFFFFFFFFFFFFFFFFFFFFFFFFFFFFFF SWAP1 SWAP2 AND DUP2 MSTORE PUSH1 0x40 DUP2 ADD SWAP3 SWAP2 PUSH3 0x28B SWAP2 PUSH1 0x20 ADD MSTORE JUMP JUMPDEST ADD MSTORE JUMP JUMPDEST CALLVALUE PUSH3 0x282 JUMPI PUSH3 0xA95 CALLDATASIZE PUSH1 0x4 PUSH3 0x9C9 JUMP JUMPDEST SWAP6 SWAP5 SWAP1 SWAP5 SWAP4 SWAP2 SWAP4 PUSH3 0x3015 JUMP JUMPDEST SWAP1 SWAP2 PUSH1 0x60 DUP3 DUP5 SUB SLT PUSH3 0x282 JUMPI PUSH3 0x2DB PUSH3 0xABF DUP5 DUP5 PUSH3 0x2FE JUMP JUMPDEST SWAP4 PUSH3 0xACF DUP2 PUSH1 0x20 DUP7 ADD PUSH3 0x2FE JUMP JUMPDEST SWAP4 PUSH1 0x40 ADD PUSH3 0x3ED JUMP JUMPDEST CALLVALUE PUSH3 0x282 JUMPI PUSH3 0x51F PUSH3 0xAF0 CALLDATASIZE PUSH1 0x4 PUSH3 0xAA2 JUMP JUMPDEST SWAP2 PUSH3 0x2EA7 JUMP JUMPDEST SWAP2 SWAP1 PUSH1 0x40 DUP4 DUP3 SUB SLT PUSH3 0x282 JUMPI PUSH3 0x2DB SWAP1 PUSH3 0xB15 DUP2 DUP6 PUSH3 0x2FE JUMP JUMPDEST SWAP4 PUSH1 0x20 ADD PUSH3 0x2FE JUMP JUMPDEST CALLVALUE PUSH3 0x282 JUMPI PUSH3 0x2BE PUSH3 0x4DA PUSH3 0xB3A CALLDATASIZE PUSH1 0x4 PUSH3 0xAF7 JUMP JUMPDEST SWAP1 PUSH3 0x2766 JUMP JUMPDEST CALLVALUE PUSH3 0x282 JUMPI PUSH3 0x51F PUSH3 0xB58 CALLDATASIZE PUSH1 0x4 PUSH3 0x541 JUMP JUMPDEST SWAP1 PUSH3 0x249F JUMP JUMPDEST SWAP1 PUSH1 0x20 DUP3 DUP3 SUB SLT PUSH3 0x282 JUMPI PUSH3 0x2DB SWAP2 PUSH3 0x61E JUMP JUMPDEST CALLVALUE PUSH3 0x282 JUMPI PUSH3 0x51F PUSH3 0xB8D CALLDATASIZE PUSH1 0x4 PUSH3 0xB5F JUMP JUMPDEST PUSH3 0x29E4 JUMP JUMPDEST CALLVALUE PUSH3 0x282 JUMPI PUSH3 0x2BE PUSH3 0x4DA PUSH3 0xBAE CALLDATASIZE PUSH1 0x4 PUSH3 0xAF7 JUMP JUMPDEST SWAP1 PUSH3 0x1ADB JUMP JUMPDEST SWAP1 DUP2 PUSH1 0x20 SWAP2 SUB SLT PUSH3 0x282 JUMPI SWAP1 JUMP JUMPDEST SWAP1 SWAP2 PUSH1 0x60 DUP3 DUP5 SUB SLT PUSH3 0x282 JUMPI PUSH3 0x2DB PUSH3 0xBE1 DUP5 DUP5 PUSH3 0x2FE JUMP JUMPDEST SWAP4 PUSH3 0xBF1 DUP2 PUSH1 0x20 DUP7 ADD PUSH3 0x2FE JUMP JUMPDEST SWAP4 PUSH1 0x40 ADD PUSH3 0xBB5 JUMP JUMPDEST CALLVALUE PUSH3 0x282 JUMPI PUSH3 0x2BE PUSH3 0x4DA PUSH3 0xC16 CALLDATASIZE PUSH1 0x4 PUSH3 0xBC4 JUMP JUMPDEST SWAP2 PUSH3 0x192E JUMP JUMPDEST CALLVALUE PUSH3 0x282 JUMPI PUSH3 0x51F PUSH3 0xC34 CALLDATASIZE PUSH1 0x4 PUSH3 0x62D JUMP JUMPDEST SWAP1 PUSH3 0x2B15 JUMP JUMPDEST PUSH3 0x2DB SWAP1 PUSH3 0x3AC PUSH1 0x9 SWAP2 PUSH1 0x0 SWAP3 PUSH3 0x360 JUMP JUMPDEST CALLVALUE PUSH3 0x282 JUMPI PUSH3 0x2BE PUSH3 0x3D3 PUSH3 0xC6B CALLDATASIZE PUSH1 0x4 PUSH3 0x30D JUMP JUMPDEST PUSH3 0xC3B JUMP JUMPDEST PUSH3 0x2DB PUSH2 0x2710 PUSH3 0x720 JUMP JUMPDEST PUSH3 0x2DB PUSH3 0xC71 JUMP JUMPDEST CALLVALUE PUSH3 0x282 JUMPI PUSH3 0x2BE PUSH3 0x4DA PUSH3 0xCA3 CALLDATASIZE PUSH1 0x4 PUSH3 0xAF7 JUMP JUMPDEST SWAP1 PUSH3 0x26DF JUMP JUMPDEST CALLVALUE PUSH3 0x282 JUMPI PUSH3 0x51F PUSH3 0xCC1 CALLDATASIZE PUSH1 0x4 PUSH3 0x30D JUMP JUMPDEST PUSH3 0xEE4 JUMP JUMPDEST PUSH3 0x2DB SWAP1 PUSH3 0x3AC PUSH1 0xB SWAP2 PUSH1 0x0 SWAP3 PUSH3 0x360 JUMP JUMPDEST CALLVALUE PUSH3 0x282 JUMPI PUSH3 0x2BE PUSH3 0x3D3 PUSH3 0xCF7 CALLDATASIZE PUSH1 0x4 PUSH3 0x30D JUMP JUMPDEST PUSH3 0xCC7 JUMP JUMPDEST PUSH3 0x2DB PUSH1 0x0 PUSH1 0x6 PUSH3 0x7CD JUMP JUMPDEST CALLVALUE PUSH3 0x282 JUMPI PUSH3 0xD1E CALLDATASIZE PUSH1 0x4 PUSH3 0x276 JUMP JUMPDEST PUSH3 0x2BE PUSH3 0x2AE PUSH3 0xCFD JUMP JUMPDEST PUSH3 0x2DB SWAP1 PUSH3 0x2C2 JUMP JUMPDEST PUSH3 0x2DB SWAP1 SLOAD PUSH3 0xD2C JUMP JUMPDEST PUSH3 0x2DB PUSH1 0x0 PUSH3 0xD37 JUMP JUMPDEST PUSH3 0xD59 PUSH3 0xD9E JUMP JUMPDEST PUSH3 0x28B PUSH3 0xD7E JUMP JUMPDEST PUSH3 0x2C2 PUSH3 0x2DB PUSH3 0x2DB SWAP3 SWAP1 JUMP JUMPDEST PUSH3 0x2DB SWAP1 PUSH3 0xD63 JUMP JUMPDEST PUSH3 0x28B PUSH3 0xD8E PUSH1 0x0 PUSH3 0xD73 JUMP JUMPDEST PUSH3 0xF31 JUMP JUMPDEST PUSH3 0x28B PUSH3 0xD4F JUMP JUMPDEST PUSH3 0xDA8 PUSH3 0xD43 JUMP JUMPDEST CALLER SWAP1 PUSH3 0xDCA DUP3 JUMPDEST SWAP2 PUSH20 0xFFFFFFFFFFFFFFFFFFFFFFFFFFFFFFFFFFFFFFFF AND SWAP1 JUMP JUMPDEST SUB PUSH3 0xDD3 JUMPI POP JUMP JUMPDEST PUSH3 0xE2C SWAP1 PUSH3 0xDE2 PUSH1 0x40 MLOAD SWAP1 JUMP JUMPDEST SWAP2 DUP3 SWAP2 PUSH32 0x118CDAA700000000000000000000000000000000000000000000000000000000 DUP4 MSTORE PUSH1 0x4 DUP4 ADD PUSH20 0xFFFFFFFFFFFFFFFFFFFFFFFFFFFFFFFFFFFFFFFF SWAP1 SWAP2 AND DUP2 MSTORE PUSH1 0x20 ADD SWAP1 JUMP JUMPDEST SUB SWAP1 REVERT JUMPDEST PUSH3 0x28B SWAP1 PUSH3 0xE3F PUSH3 0xD9E JUMP JUMPDEST PUSH3 0xE4B PUSH1 0x0 PUSH3 0xD73 JUMP JUMPDEST PUSH20 0xFFFFFFFFFFFFFFFFFFFFFFFFFFFFFFFFFFFFFFFF DUP2 AND PUSH20 0xFFFFFFFFFFFFFFFFFFFFFFFFFFFFFFFFFFFFFFFF DUP4 AND EQ PUSH3 0xE8B JUMPI POP PUSH3 0x28B SWAP1 PUSH3 0xF31 JUMP JUMPDEST PUSH3 0xE2C SWAP1 PUSH3 0xE9A PUSH1 0x40 MLOAD SWAP1 JUMP JUMPDEST SWAP2 DUP3 SWAP2 PUSH32 0x1E4FBDF700000000000000000000000000000000000000000000000000000000 DUP4 MSTORE PUSH1 0x4 DUP4 ADD PUSH20 0xFFFFFFFFFFFFFFFFFFFFFFFFFFFFFFFFFFFFFFFF SWAP1 SWAP2 AND DUP2 MSTORE PUSH1 0x20 ADD SWAP1 JUMP JUMPDEST PUSH3 0x28B SWAP1 PUSH3 0xE30 JUMP JUMPDEST SWAP1 PUSH20 0xFFFFFFFFFFFFFFFFFFFFFFFFFFFFFFFFFFFFFFFF SWAP1 JUMPDEST SWAP2 DUP2 NOT AND SWAP2 AND OR SWAP1 JUMP JUMPDEST SWAP1 PUSH3 0xF25 PUSH3 0x2DB PUSH3 0xF2D SWAP3 PUSH3 0x355 JUMP JUMPDEST DUP3 SLOAD PUSH3 0xEEF JUMP JUMPDEST SWAP1 SSTORE JUMP JUMPDEST PUSH3 0xF3D PUSH1 0x0 PUSH3 0xD37 JUMP JUMPDEST SWAP1 PUSH3 0xF4B DUP2 PUSH1 0x0 PUSH3 0xF11 JUMP JUMPDEST PUSH3 0xF82 PUSH3 0xF7B PUSH32 0x8BE0079C531659141344CD1FD0A4F28419497F9722A3DAAFE3B4186F6B6457E0 SWAP4 PUSH3 0x355 JUMP JUMPDEST SWAP2 PUSH3 0x355 JUMP JUMPDEST SWAP2 PUSH3 0xF8D PUSH1 0x40 MLOAD SWAP1 JUMP JUMPDEST DUP1 DUP1 JUMPDEST SUB SWAP1 LOG3 JUMP JUMPDEST PUSH3 0x2DB PUSH1 0x2 PUSH3 0x67E JUMP JUMPDEST SWAP1 PUSH3 0x2DB SWAP4 SWAP3 SWAP2 PUSH3 0xFB3 PUSH3 0x193D JUMP JUMPDEST PUSH3 0x1020 JUMP JUMPDEST ISZERO PUSH3 0xFC1 JUMPI JUMP JUMPDEST PUSH1 0x40 MLOAD PUSH32 0x8C379A000000000000000000000000000000000000000000000000000000000 DUP2 MSTORE PUSH1 0x20 PUSH1 0x4 DUP3 ADD MSTORE PUSH1 0x13 PUSH1 0x24 DUP3 ADD MSTORE PUSH32 0x4445583A20454D455247454E43595F53544F5000000000000000000000000000 PUSH1 0x44 DUP3 ADD MSTORE PUSH1 0x64 SWAP1 REVERT JUMPDEST SWAP1 PUSH3 0x2DB SWAP4 SWAP3 SWAP2 PUSH3 0x1046 PUSH3 0x1040 PUSH3 0x103C PUSH1 0x7 PUSH3 0x67E JUMP JUMPDEST ISZERO SWAP1 JUMP JUMPDEST PUSH3 0xFB9 JUMP JUMPDEST PUSH3 0x10B3 JUMP JUMPDEST ISZERO PUSH3 0x1054 JUMPI JUMP JUMPDEST PUSH1 0x40 MLOAD PUSH32 0x8C379A000000000000000000000000000000000000000000000000000000000 DUP2 MSTORE PUSH1 0x20 PUSH1 0x4 DUP3 ADD MSTORE PUSH1 0x10 PUSH1 0x24 DUP3 ADD MSTORE PUSH32 0x4445583A20424C41434B4C495354454400000000000000000000000000000000 PUSH1 0x44 DUP3 ADD MSTORE PUSH1 0x64 SWAP1 REVERT JUMPDEST SWAP1 PUSH3 0x2DB SWAP4 SWAP3 SWAP2 PUSH3 0x10E0 PUSH3 0x10DA PUSH3 0x103C PUSH3 0x10D4 CALLER PUSH1 0x9 PUSH3 0x360 JUMP JUMPDEST PUSH3 0x67E JUMP JUMPDEST PUSH3 0x104C JUMP JUMPDEST PUSH3 0x158E JUMP JUMPDEST ISZERO PUSH3 0x10EE JUMPI JUMP JUMPDEST PUSH1 0x40 MLOAD PUSH32 0x8C379A000000000000000000000000000000000000000000000000000000000 DUP2 MSTORE PUSH1 0x20 PUSH1 0x4 DUP3 ADD MSTORE PUSH1 0x18 PUSH1 0x24 DUP3 ADD MSTORE PUSH32 0x4445583A204944454E544943414C5F4144445245535345530000000000000000 PUSH1 0x44 DUP3 ADD MSTORE PUSH1 0x64 SWAP1 REVERT JUMPDEST ISZERO PUSH3 0x1155 JUMPI JUMP JUMPDEST PUSH1 0x40 MLOAD PUSH32 0x8C379A000000000000000000000000000000000000000000000000000000000 DUP2 MSTORE PUSH1 0x20 PUSH1 0x4 DUP3 ADD MSTORE PUSH1 0x11 PUSH1 0x24 DUP3 ADD MSTORE PUSH32 0x4445583A205A45524F5F41444452455353000000000000000000000000000000 PUSH1 0x44 DUP3 ADD MSTORE PUSH1 0x64 SWAP1 REVERT JUMPDEST ISZERO PUSH3 0x11BC JUMPI JUMP JUMPDEST PUSH1 0x40 MLOAD PUSH32 0x8C379A000000000000000000000000000000000000000000000000000000000 DUP2 MSTORE PUSH1 0x20 PUSH1 0x4 DUP3 ADD MSTORE PUSH1 0x11 PUSH1 0x24 DUP3 ADD MSTORE PUSH32 0x4445583A204E4F545F434F4E5452414354000000000000000000000000000000 PUSH1 0x44 DUP3 ADD MSTORE PUSH1 0x64 SWAP1 REVERT JUMPDEST ISZERO PUSH3 0x1223 JUMPI JUMP JUMPDEST PUSH1 0x40 MLOAD PUSH32 0x8C379A000000000000000000000000000000000000000000000000000000000 DUP2 MSTORE PUSH1 0x20 PUSH1 0x4 DUP3 ADD MSTORE PUSH1 0x10 PUSH1 0x24 DUP3 ADD MSTORE PUSH32 0x4445583A20504149525F45584953545300000000000000000000000000000000 PUSH1 0x44 DUP3 ADD MSTORE PUSH1 0x64 SWAP1 REVERT JUMPDEST PUSH3 0x287 SWAP1 PUSH20 0xFFFFFFFFFFFFFFFFFFFFFFFFFFFFFFFFFFFFFFFF AND PUSH1 0x60 SHL SWAP1 JUMP JUMPDEST PUSH1 0x14 DUP2 PUSH3 0x12B8 PUSH3 0x8D2 SWAP4 DUP4 SWAP7 SWAP6 PUSH3 0x1282 JUMP JUMPDEST ADD DUP1 SWAP3 PUSH3 0x1282 JUMP JUMPDEST ISZERO PUSH3 0x12C9 JUMPI JUMP JUMPDEST PUSH1 0x40 MLOAD PUSH32 0x8C379A000000000000000000000000000000000000000000000000000000000 DUP2 MSTORE PUSH1 0x20 PUSH1 0x4 DUP3 ADD MSTORE PUSH1 0x13 PUSH1 0x24 DUP3 ADD MSTORE PUSH32 0x4445583A20435245415445325F4641494C454400000000000000000000000000 PUSH1 0x44 DUP3 ADD MSTORE PUSH1 0x64 SWAP1 REVERT JUMPDEST POP PUSH3 0x2DB SWAP1 PUSH1 0x20 DUP2 ADD SWAP1 PUSH3 0x61E JUMP JUMPDEST PUSH3 0x28B SWAP2 SWAP1 PUSH1 0x0 SWAP1 PUSH3 0x134E SWAP1 DUP1 PUSH3 0x1328 JUMP JUMPDEST ISZERO ISZERO SWAP2 ADD MSTORE JUMP JUMPDEST PUSH20 0xFFFFFFFFFFFFFFFFFFFFFFFFFFFFFFFFFFFFFFFF SWAP1 SWAP2 AND DUP2 MSTORE PUSH1 0x60 DUP2 ADD SWAP4 SWAP3 PUSH3 0x28B SWAP3 SWAP1 SWAP2 PUSH1 0x40 SWAP2 PUSH3 0x13A2 SWAP1 JUMPDEST PUSH20 0xFFFFFFFFFFFFFFFFFFFFFFFFFFFFFFFFFFFFFFFF AND PUSH1 0x20 DUP4 ADD MSTORE JUMP JUMPDEST ADD SWAP1 PUSH3 0x1339 JUMP JUMPDEST PUSH1 0x40 MLOAD RETURNDATASIZE PUSH1 0x0 DUP3 RETURNDATACOPY RETURNDATASIZE SWAP1 REVERT JUMPDEST CALLDATALOAD PUSH3 0x2DB DUP2 PUSH3 0x615 JUMP JUMPDEST SWAP1 PUSH1 0xFF SWAP1 PUSH3 0xF07 JUMP JUMPDEST SWAP1 PUSH3 0x13DF PUSH3 0x2DB PUSH3 0xF2D SWAP3 ISZERO ISZERO SWAP1 JUMP JUMPDEST DUP3 SLOAD PUSH3 0x13C2 JUMP JUMPDEST PUSH3 0x28B SWAP2 PUSH3 0x13F7 SWAP1 PUSH3 0x13B6 JUMP JUMPDEST SWAP1 PUSH3 0x13CC JUMP JUMPDEST SWAP1 PUSH3 0x28B SWAP2 PUSH3 0x13E7 JUMP JUMPDEST SWAP2 SWAP1 PUSH1 0x8 PUSH3 0xF07 SWAP2 MUL SWAP2 PUSH3 0x1433 PUSH20 0xFFFFFFFFFFFFFFFFFFFFFFFFFFFFFFFFFFFFFFFF DUP5 SHL SWAP1 JUMP JUMPDEST SWAP3 SHL SWAP1 JUMP JUMPDEST SWAP2 SWAP1 PUSH3 0x144D PUSH3 0x2DB PUSH3 0xF2D SWAP4 PUSH3 0x355 JUMP JUMPDEST SWAP1 DUP4 SLOAD PUSH3 0x140A JUMP JUMPDEST SWAP1 DUP2 SLOAD SWAP2 PUSH9 0x10000000000000000 DUP4 LT ISZERO PUSH3 0x879 JUMPI DUP3 PUSH3 0x1482 SWAP2 PUSH1 0x1 PUSH3 0x28B SWAP6 ADD DUP2 SSTORE PUSH3 0x442 JUMP JUMPDEST SWAP1 PUSH3 0x1438 JUMP JUMPDEST PUSH3 0x2DB SWAP1 DUP2 JUMP JUMPDEST PUSH3 0x2DB SWAP1 SLOAD PUSH3 0x1489 JUMP JUMPDEST PUSH32 0x4E487B7100000000000000000000000000000000000000000000000000000000 PUSH1 0x0 MSTORE PUSH1 0x11 PUSH1 0x4 MSTORE PUSH1 0x24 PUSH1 0x0 REVERT JUMPDEST PUSH32 0xFFFFFFFFFFFFFFFFFFFFFFFFFFFFFFFFFFFFFFFFFFFFFFFFFFFFFFFFFFFFFFFF DUP2 EQ PUSH3 0x14FA JUMPI PUSH1 0x1 ADD SWAP1 JUMP JUMPDEST PUSH3 0x149D JUMP JUMPDEST SWAP1 PUSH32 0xFFFFFFFFFFFFFFFFFFFFFFFFFFFFFFFFFFFFFFFFFFFFFFFFFFFFFFFFFFFFFFFF SWAP1 PUSH3 0xF07 JUMP JUMPDEST SWAP1 PUSH3 0x153D PUSH3 0x2DB PUSH3 0xF2D SWAP3 PUSH3 0x720 JUMP JUMPDEST DUP3 SLOAD PUSH3 0x1500 JUMP JUMPDEST PUSH3 0x13A2 PUSH3 0x28B SWAP5 PUSH3 0x1587 PUSH1 0x60 SWAP5 SWAP9 SWAP8 SWAP6 PUSH3 0x1580 PUSH1 0x80 DUP7 ADD SWAP11 PUSH1 0x0 DUP8 ADD SWAP1 PUSH20 0xFFFFFFFFFFFFFFFFFFFFFFFFFFFFFFFFFFFFFFFF AND SWAP1 MSTORE JUMP JUMPDEST PUSH1 0x20 DUP6 ADD MSTORE JUMP JUMPDEST PUSH1 0x40 DUP4 ADD MSTORE JUMP JUMPDEST POP SWAP3 SWAP2 SWAP1 PUSH3 0x15CC PUSH20 0xFFFFFFFFFFFFFFFFFFFFFFFFFFFFFFFFFFFFFFFF DUP3 AND PUSH20 0xFFFFFFFFFFFFFFFFFFFFFFFFFFFFFFFFFFFFFFFF DUP7 AND EQ ISZERO PUSH3 0x10E6 JUMP JUMPDEST PUSH1 0x0 SWAP1 PUSH3 0x15DA DUP3 PUSH3 0xD73 JUMP JUMPDEST SWAP5 PUSH20 0xFFFFFFFFFFFFFFFFFFFFFFFFFFFFFFFFFFFFFFFF DUP7 AND PUSH20 0xFFFFFFFFFFFFFFFFFFFFFFFFFFFFFFFFFFFFFFFF DUP3 AND EQ ISZERO DUP1 PUSH3 0x190A JUMPI JUMPDEST PUSH3 0x161D SWAP1 PUSH3 0x114D JUMP JUMPDEST DUP1 EXTCODESIZE PUSH3 0x1632 PUSH3 0x162E DUP6 PUSH3 0x720 JUMP JUMPDEST SWAP2 SWAP1 JUMP JUMPDEST GT DUP1 PUSH3 0x18EB JUMPI JUMPDEST PUSH3 0x1645 SWAP1 PUSH3 0x11B4 JUMP JUMPDEST PUSH20 0xFFFFFFFFFFFFFFFFFFFFFFFFFFFFFFFFFFFFFFFF DUP3 AND PUSH20 0xFFFFFFFFFFFFFFFFFFFFFFFFFFFFFFFFFFFFFFFF DUP3 AND LT ISZERO PUSH3 0x18E4 JUMPI SWAP1 SWAP2 JUMPDEST PUSH1 0x3 SWAP1 PUSH3 0x16CD PUSH3 0x16A5 PUSH3 0x169F DUP7 PUSH3 0x1699 DUP8 DUP8 PUSH3 0x360 JUMP JUMPDEST PUSH3 0x360 JUMP JUMPDEST PUSH3 0xD37 JUMP JUMPDEST PUSH3 0x16C6 PUSH20 0xFFFFFFFFFFFFFFFFFFFFFFFFFFFFFFFFFFFFFFFF DUP11 AND PUSH3 0xDB0 JUMP JUMPDEST EQ PUSH3 0x121B JUMP JUMPDEST PUSH3 0x1770 PUSH3 0x1751 PUSH2 0x31A8 PUSH3 0x16E6 PUSH1 0x20 DUP3 ADD PUSH3 0x87F JUMP JUMPDEST SWAP1 DUP1 DUP3 MSTORE PUSH3 0x3075 PUSH1 0x20 DUP4 ADD CODECOPY PUSH1 0x40 MLOAD PUSH3 0x1719 DUP2 PUSH1 0x20 DUP2 ADD PUSH3 0x170C DUP12 DUP12 DUP4 PUSH3 0x12A3 JUMP JUMPDEST SWAP1 DUP2 SUB DUP3 MSTORE SUB DUP3 PUSH3 0x838 JUMP JUMPDEST PUSH3 0x172D PUSH3 0x1726 DUP3 MLOAD SWAP1 JUMP JUMPDEST SWAP2 PUSH1 0x20 ADD SWAP1 JUMP JUMPDEST KECCAK256 SWAP1 PUSH1 0x20 DUP2 MLOAD SWAP2 ADD DUP6 CREATE2 SWAP9 PUSH20 0xFFFFFFFFFFFFFFFFFFFFFFFFFFFFFFFFFFFFFFFF AND SWAP1 JUMP JUMPDEST PUSH20 0xFFFFFFFFFFFFFFFFFFFFFFFFFFFFFFFFFFFFFFFF DUP10 AND EQ ISZERO PUSH3 0x12C1 JUMP JUMPDEST PUSH3 0x1785 PUSH3 0x177F DUP9 PUSH3 0x355 JUMP JUMPDEST PUSH3 0x355 JUMP JUMPDEST SWAP2 PUSH4 0x820D25A8 SWAP3 DUP1 EXTCODESIZE ISZERO PUSH3 0x282 JUMPI PUSH3 0x17AE SWAP4 DUP4 SWAP2 PUSH3 0x17A5 PUSH1 0x40 MLOAD SWAP1 JUMP JUMPDEST SWAP6 DUP7 SWAP3 PUSH1 0xE0 SHL SWAP1 JUMP JUMPDEST DUP3 MSTORE DUP2 DUP4 DUP2 PUSH3 0x17C4 DUP13 DUP13 DUP13 PUSH1 0x4 DUP6 ADD PUSH3 0x1355 JUMP JUMPDEST SUB SWAP3 GAS CALL SWAP2 DUP3 ISZERO PUSH3 0x18DE JUMPI PUSH3 0x1699 DUP7 PUSH3 0x1819 SWAP4 DUP8 SWAP4 PUSH3 0x181F SWAP8 DUP14 SWAP8 PUSH3 0x18AA JUMPI JUMPDEST POP POP PUSH3 0x1803 DUP11 PUSH3 0x17FD DUP9 PUSH1 0xA PUSH3 0x360 JUMP JUMPDEST PUSH3 0x13FE JUMP JUMPDEST PUSH3 0x1699 DUP7 PUSH3 0x1819 DUP5 PUSH3 0x1699 DUP9 DUP7 PUSH3 0x360 JUMP JUMPDEST PUSH3 0xF11 JUMP JUMPDEST PUSH3 0x1857 PUSH1 0x4 PUSH3 0x1831 DUP8 DUP3 PUSH3 0x1456 JUMP JUMPDEST PUSH3 0x1853 PUSH3 0x184B PUSH3 0x1845 PUSH1 0x6 PUSH3 0x1491 JUMP JUMPDEST PUSH3 0x14CC JUMP JUMPDEST PUSH1 0x6 PUSH3 0x1529 JUMP JUMPDEST SLOAD SWAP1 JUMP JUMPDEST TIMESTAMP SWAP1 PUSH3 0xF90 PUSH3 0x1894 PUSH3 0x188D PUSH32 0x51896478037FF16B2C1085711156BD706FC275CA11914222527EB160248755E9 SWAP6 PUSH3 0x355 JUMP JUMPDEST SWAP6 PUSH3 0x355 JUMP JUMPDEST SWAP6 PUSH3 0x189F PUSH1 0x40 MLOAD SWAP1 JUMP JUMPDEST SWAP4 DUP5 SWAP4 DUP11 DUP6 PUSH3 0x1545 JUMP JUMPDEST DUP2 PUSH3 0x18CE SWAP3 SWAP1 RETURNDATASIZE LT PUSH3 0x18D6 JUMPI JUMPDEST PUSH3 0x18C5 DUP2 DUP4 PUSH3 0x838 JUMP JUMPDEST DUP2 ADD SWAP1 PUSH3 0x276 JUMP JUMPDEST CODESIZE DUP1 PUSH3 0x17E9 JUMP JUMPDEST POP RETURNDATASIZE PUSH3 0x18B9 JUMP JUMPDEST PUSH3 0x13AA JUMP JUMPDEST SWAP2 PUSH3 0x167D JUMP JUMPDEST POP PUSH3 0x1645 DUP3 EXTCODESIZE PUSH3 0x1901 PUSH3 0x162E DUP7 PUSH3 0x720 JUMP JUMPDEST GT SWAP1 POP PUSH3 0x163A JUMP JUMPDEST POP PUSH20 0xFFFFFFFFFFFFFFFFFFFFFFFFFFFFFFFFFFFFFFFF DUP3 DUP2 AND SWAP1 DUP8 AND EQ ISZERO PUSH3 0x1612 JUMP JUMPDEST PUSH3 0x2DB SWAP3 SWAP2 SWAP1 PUSH1 0x0 PUSH3 0xFA1 JUMP JUMPDEST PUSH3 0x1947 PUSH3 0xF95 JUMP JUMPDEST PUSH3 0x194E JUMPI JUMP JUMPDEST PUSH1 0x40 MLOAD PUSH32 0xD93C066500000000000000000000000000000000000000000000000000000000 DUP2 MSTORE PUSH1 0x4 SWAP1 REVERT JUMPDEST SWAP1 PUSH3 0x2DB SWAP3 SWAP2 PUSH3 0x198A PUSH3 0x193D JUMP JUMPDEST SWAP1 PUSH3 0x2DB SWAP3 SWAP2 PUSH3 0x19A5 PUSH3 0x1040 PUSH3 0x103C PUSH1 0x7 PUSH3 0x67E JUMP JUMPDEST SWAP1 PUSH3 0x2DB SWAP3 SWAP2 PUSH3 0x19C5 PUSH3 0x10DA PUSH3 0x103C PUSH3 0x10D4 CALLER PUSH1 0x9 PUSH3 0x360 JUMP JUMPDEST PUSH3 0x1A3B JUMP JUMPDEST PUSH3 0x2DB PUSH1 0x20 PUSH3 0x87F JUMP JUMPDEST SWAP1 POP MLOAD SWAP1 PUSH3 0x28B DUP3 PUSH3 0x2DE JUMP JUMPDEST SWAP1 PUSH1 0x20 DUP3 DUP3 SUB SLT PUSH3 0x282 JUMPI PUSH3 0x2DB SWAP2 PUSH3 0x19D7 JUMP JUMPDEST PUSH20 0xFFFFFFFFFFFFFFFFFFFFFFFFFFFFFFFFFFFFFFFF SWAP1 SWAP2 AND DUP2 MSTORE PUSH1 0x60 DUP2 ADD SWAP4 SWAP3 PUSH3 0x28B SWAP3 SWAP1 SWAP2 PUSH1 0x40 SWAP2 PUSH3 0x1A32 SWAP1 PUSH3 0x1385 JUMP JUMPDEST ADD SWAP1 MLOAD ISZERO ISZERO SWAP1 MSTORE JUMP JUMPDEST POP PUSH1 0x20 SWAP1 PUSH1 0x1 PUSH3 0x1A56 PUSH3 0x1A4F PUSH3 0x19CB JUMP JUMPDEST SWAP2 ISZERO ISZERO DUP3 MSTORE JUMP JUMPDEST PUSH3 0x1A89 PUSH1 0x0 PUSH3 0x1A67 ADDRESS PUSH3 0x355 JUMP JUMPDEST SWAP3 PUSH3 0x1A95 PUSH4 0xCE3B5273 SWAP2 PUSH3 0x1A7C PUSH1 0x40 MLOAD SWAP1 JUMP JUMPDEST SWAP9 DUP10 SWAP8 DUP9 SWAP7 DUP8 SWAP6 PUSH1 0xE0 SHL SWAP1 JUMP JUMPDEST DUP6 MSTORE PUSH1 0x4 DUP6 ADD PUSH3 0x19FD JUMP JUMPDEST SUB SWAP3 GAS CALL SWAP1 DUP2 ISZERO PUSH3 0x18DE JUMPI PUSH1 0x0 SWAP2 PUSH3 0x1AAD JUMPI POP SWAP1 JUMP JUMPDEST PUSH3 0x2DB SWAP2 POP PUSH1 0x20 RETURNDATASIZE DUP2 GT PUSH3 0x1AD3 JUMPI JUMPDEST PUSH3 0x1ACA DUP2 DUP4 PUSH3 0x838 JUMP JUMPDEST DUP2 ADD SWAP1 PUSH3 0x19E6 JUMP JUMPDEST POP RETURNDATASIZE PUSH3 0x1ABE JUMP JUMPDEST PUSH3 0x2DB SWAP2 SWAP1 PUSH1 0x0 PUSH3 0x1979 JUMP JUMPDEST ISZERO PUSH3 0x1AF1 JUMPI JUMP JUMPDEST PUSH1 0x40 MLOAD PUSH32 0x8C379A000000000000000000000000000000000000000000000000000000000 DUP2 MSTORE PUSH1 0x20 PUSH1 0x4 DUP3 ADD MSTORE PUSH1 0x8 PUSH1 0x24 DUP3 ADD MSTORE PUSH32 0x494E565F50414952000000000000000000000000000000000000000000000000 PUSH1 0x44 DUP3 ADD MSTORE PUSH1 0x64 SWAP1 REVERT JUMPDEST ISZERO PUSH3 0x1B58 JUMPI JUMP JUMPDEST PUSH1 0x40 MLOAD PUSH32 0x8C379A000000000000000000000000000000000000000000000000000000000 DUP2 MSTORE PUSH1 0x20 PUSH1 0x4 DUP3 ADD MSTORE PUSH1 0x7 PUSH1 0x24 DUP3 ADD MSTORE PUSH32 0x494E565F414D5400000000000000000000000000000000000000000000000000 PUSH1 0x44 DUP3 ADD MSTORE PUSH1 0x64 SWAP1 REVERT JUMPDEST ISZERO PUSH3 0x1BBF JUMPI JUMP JUMPDEST PUSH1 0x40 MLOAD PUSH32 0x8C379A000000000000000000000000000000000000000000000000000000000 DUP2 MSTORE PUSH1 0x20 PUSH1 0x4 DUP3 ADD MSTORE PUSH1 0x7 PUSH1 0x24 DUP3 ADD MSTORE PUSH32 0x494E565F44555200000000000000000000000000000000000000000000000000 PUSH1 0x44 DUP3 ADD MSTORE PUSH1 0x64 SWAP1 REVERT JUMPDEST ISZERO PUSH3 0x1C26 JUMPI JUMP JUMPDEST PUSH1 0x40 MLOAD PUSH32 0x8C379A000000000000000000000000000000000000000000000000000000000 DUP2 MSTORE DUP1 PUSH3 0xE2C PUSH1 0x4 DUP3 ADD PUSH1 0x20 DUP1 DUP3 MSTORE PUSH1 0x4 SWAP1 DUP3 ADD MSTORE PUSH32 0x4C4F4E4700000000000000000000000000000000000000000000000000000000 PUSH1 0x40 DUP3 ADD MSTORE PUSH1 0x60 ADD SWAP1 JUMP JUMPDEST ISZERO PUSH3 0x1C94 JUMPI JUMP JUMPDEST PUSH1 0x40 MLOAD PUSH32 0x8C379A000000000000000000000000000000000000000000000000000000000 DUP2 MSTORE DUP1 PUSH3 0xE2C PUSH1 0x4 DUP3 ADD PUSH1 0x20 DUP1 DUP3 MSTORE PUSH1 0x4 SWAP1 DUP3 ADD MSTORE PUSH32 0x4E464E4400000000000000000000000000000000000000000000000000000000 PUSH1 0x40 DUP3 ADD MSTORE PUSH1 0x60 ADD SWAP1 JUMP JUMPDEST DUP2 DUP2 MUL SWAP3 SWAP2 DUP2 ISZERO SWAP2 DUP5 DIV EQ OR ISZERO PUSH3 0x14FA JUMPI JUMP JUMPDEST PUSH32 0x4E487B7100000000000000000000000000000000000000000000000000000000 PUSH1 0x0 MSTORE PUSH1 0x12 PUSH1 0x4 MSTORE PUSH1 0x24 PUSH1 0x0 REVERT JUMPDEST DUP2 ISZERO PUSH3 0x1D48 JUMPI DIV SWAP1 JUMP JUMPDEST PUSH3 0x1D0E JUMP JUMPDEST SWAP1 POP MLOAD SWAP1 PUSH3 0x28B DUP3 PUSH3 0x615 JUMP JUMPDEST SWAP1 PUSH1 0x20 DUP3 DUP3 SUB SLT PUSH3 0x282 JUMPI PUSH3 0x2DB SWAP2 PUSH3 0x1D4E JUMP JUMPDEST PUSH20 0xFFFFFFFFFFFFFFFFFFFFFFFFFFFFFFFFFFFFFFFF SWAP1 SWAP2 AND DUP2 MSTORE PUSH1 0x60 DUP2 ADD SWAP4 SWAP3 PUSH3 0x28B SWAP3 SWAP1 SWAP2 PUSH1 0x40 SWAP2 PUSH3 0xA7E SWAP1 PUSH3 0x1385 JUMP JUMPDEST ISZERO PUSH3 0x1DB1 JUMPI JUMP JUMPDEST PUSH1 0x40 MLOAD PUSH32 0x8C379A000000000000000000000000000000000000000000000000000000000 DUP2 MSTORE PUSH1 0x20 PUSH1 0x4 DUP3 ADD MSTORE PUSH1 0x6 PUSH1 0x24 DUP3 ADD MSTORE PUSH32 0x4645455F54460000000000000000000000000000000000000000000000000000 PUSH1 0x44 DUP3 ADD MSTORE PUSH1 0x64 SWAP1 REVERT JUMPDEST ISZERO PUSH3 0x1E18 JUMPI JUMP JUMPDEST PUSH1 0x40 MLOAD PUSH32 0x8C379A000000000000000000000000000000000000000000000000000000000 DUP2 MSTORE PUSH1 0x20 PUSH1 0x4 DUP3 ADD MSTORE PUSH1 0x3 PUSH1 0x24 DUP3 ADD MSTORE PUSH32 0x4645450000000000000000000000000000000000000000000000000000000000 PUSH1 0x44 DUP3 ADD MSTORE PUSH1 0x64 SWAP1 REVERT JUMPDEST SWAP2 SWAP1 DUP3 SUB SWAP2 DUP3 GT PUSH3 0x14FA JUMPI JUMP JUMPDEST SWAP1 PUSH3 0x1E95 PUSH3 0x8F5 DUP4 PUSH3 0x896 JUMP JUMPDEST SWAP2 DUP3 MSTORE JUMP JUMPDEST RETURNDATASIZE ISZERO PUSH3 0x1EB7 JUMPI PUSH3 0x1EAC RETURNDATASIZE PUSH3 0x1E85 JUMP JUMPDEST SWAP1 RETURNDATASIZE PUSH1 0x0 PUSH1 0x20 DUP5 ADD RETURNDATACOPY JUMP JUMPDEST PUSH1 0x60 SWAP1 JUMP JUMPDEST ISZERO PUSH3 0x1EC4 JUMPI JUMP JUMPDEST PUSH1 0x40 MLOAD PUSH32 0x8C379A000000000000000000000000000000000000000000000000000000000 DUP2 MSTORE PUSH1 0x20 PUSH1 0x4 DUP3 ADD MSTORE PUSH1 0x5 PUSH1 0x24 DUP3 ADD MSTORE PUSH32 0x5245464E44000000000000000000000000000000000000000000000000000000 PUSH1 0x44 DUP3 ADD MSTORE PUSH1 0x64 SWAP1 REVERT JUMPDEST ISZERO PUSH3 0x1F2B JUMPI JUMP JUMPDEST PUSH1 0x40 MLOAD PUSH32 0x8C379A000000000000000000000000000000000000000000000000000000000 DUP2 MSTORE PUSH1 0x20 PUSH1 0x4 DUP3 ADD MSTORE PUSH1 0x2 PUSH1 0x24 DUP3 ADD MSTORE PUSH32 0x5446000000000000000000000000000000000000000000000000000000000000 PUSH1 0x44 DUP3 ADD MSTORE PUSH1 0x64 SWAP1 REVERT JUMPDEST PUSH1 0x0 JUMPDEST DUP4 DUP2 LT PUSH3 0x1F9E JUMPI POP POP PUSH1 0x0 SWAP2 ADD MSTORE JUMP JUMPDEST DUP2 DUP2 ADD MLOAD DUP4 DUP3 ADD MSTORE PUSH1 0x20 ADD PUSH3 0x1F8D JUMP JUMPDEST PUSH3 0x1FD4 PUSH3 0x1FDE PUSH1 0x20 SWAP4 PUSH3 0x8D2 SWAP4 PUSH3 0x1FC8 DUP2 MLOAD SWAP1 JUMP JUMPDEST DUP1 DUP4 MSTORE SWAP4 DUP5 SWAP3 PUSH1 0x20 ADD SWAP1 JUMP JUMPDEST SWAP6 DUP7 SWAP2 ADD PUSH3 0x1F8A JUMP JUMPDEST PUSH1 0x1F ADD PUSH32 0xFFFFFFFFFFFFFFFFFFFFFFFFFFFFFFFFFFFFFFFFFFFFFFFFFFFFFFFFFFFFFFE0 AND SWAP1 JUMP JUMPDEST SWAP7 SWAP6 SWAP4 SWAP5 PUSH3 0x2078 PUSH3 0x28B SWAP7 PUSH3 0x2071 PUSH1 0xA0 SWAP7 PUSH3 0x206A PUSH3 0x2086 SWAP8 PUSH1 0x20 DUP15 PUSH3 0x204E PUSH1 0xC0 DUP3 ADD SWAP11 PUSH1 0x0 DUP4 ADD SWAP1 PUSH20 0xFFFFFFFFFFFFFFFFFFFFFFFFFFFFFFFFFFFFFFFF AND SWAP1 MSTORE JUMP JUMPDEST ADD SWAP1 PUSH20 0xFFFFFFFFFFFFFFFFFFFFFFFFFFFFFFFFFFFFFFFF AND SWAP1 MSTORE JUMP JUMPDEST PUSH1 0x40 DUP13 ADD MSTORE JUMP JUMPDEST PUSH1 0x60 DUP11 ADD MSTORE JUMP JUMPDEST DUP8 DUP3 SUB PUSH1 0x80 DUP10 ADD MSTORE PUSH3 0x1FAF JUMP JUMPDEST SWAP5 ADD MSTORE JUMP JUMPDEST PUSH1 0x0 SWAP4 PUSH3 0x20C0 PUSH3 0x20A1 PUSH3 0x2C2 DUP8 PUSH3 0xD73 JUMP JUMPDEST PUSH20 0xFFFFFFFFFFFFFFFFFFFFFFFFFFFFFFFFFFFFFFFF DUP5 AND EQ ISZERO PUSH3 0x1AE9 JUMP JUMPDEST PUSH3 0x20D7 PUSH3 0x20CF DUP7 PUSH3 0x720 JUMP JUMPDEST DUP5 GT PUSH3 0x1B50 JUMP JUMPDEST PUSH3 0x20EE PUSH3 0x20E6 DUP7 PUSH3 0x720 JUMP JUMPDEST DUP6 GT PUSH3 0x1BB7 JUMP JUMPDEST PUSH3 0x210A PUSH3 0x2101 PUSH4 0x1E13380 PUSH3 0x720 JUMP JUMPDEST DUP6 GT ISZERO PUSH3 0x1C1E JUMP JUMPDEST PUSH1 0x3 PUSH3 0x211B PUSH3 0x177F DUP5 PUSH3 0x355 JUMP JUMPDEST PUSH4 0xDFE1681 SWAP2 PUSH3 0x2136 PUSH3 0x212F PUSH1 0x40 MLOAD SWAP1 JUMP JUMPDEST SWAP4 PUSH1 0xE0 SHL SWAP1 JUMP JUMPDEST DUP4 MSTORE PUSH1 0x20 DUP4 PUSH1 0x4 DUP2 DUP6 GAS STATICCALL SWAP3 DUP4 ISZERO PUSH3 0x18DE JUMPI PUSH3 0x2180 SWAP4 PUSH1 0x20 SWAP3 PUSH3 0x2166 SWAP3 PUSH1 0x0 SWAP3 PUSH3 0x244D JUMPI JUMPDEST POP PUSH3 0x360 JUMP JUMPDEST SWAP2 PUSH4 0xD21220A7 SWAP1 PUSH3 0x2177 PUSH1 0x40 MLOAD SWAP1 JUMP JUMPDEST SWAP5 DUP6 SWAP3 PUSH1 0xE0 SHL SWAP1 JUMP JUMPDEST DUP3 MSTORE PUSH1 0x4 SWAP1 DUP3 SWAP1 GAS STATICCALL SWAP2 DUP3 ISZERO PUSH3 0x18DE JUMPI PUSH3 0x21D7 SWAP3 PUSH3 0x21AF SWAP3 PUSH3 0x169F SWAP3 PUSH1 0x0 SWAP3 PUSH3 0x2428 JUMPI POP PUSH3 0x360 JUMP JUMPDEST PUSH3 0x21D0 PUSH20 0xFFFFFFFFFFFFFFFFFFFFFFFFFFFFFFFFFFFFFFFF DUP6 AND PUSH3 0xDB0 JUMP JUMPDEST EQ PUSH3 0x1C8C JUMP JUMPDEST PUSH3 0x2203 PUSH3 0x21F2 PUSH3 0x21EB PUSH1 0x5 PUSH3 0x1491 JUMP JUMPDEST DUP6 PUSH3 0x1CFA JUMP JUMPDEST PUSH3 0x21FC PUSH3 0xC71 JUMP JUMPDEST SWAP1 PUSH3 0x1D3D JUMP JUMPDEST SWAP3 DUP4 CALLVALUE PUSH3 0x2211 DUP9 PUSH3 0x720 JUMP JUMPDEST DUP2 GT ISZERO PUSH3 0x238F JUMPI PUSH3 0x223F SWAP3 SWAP1 PUSH3 0x222D DUP4 DUP3 LT ISZERO PUSH3 0x1E10 JUMP JUMPDEST DUP9 DUP4 DUP3 GT PUSH3 0x2359 JUMPI JUMPDEST POP POP PUSH3 0x1E77 JUMP JUMPDEST SWAP1 PUSH3 0x224F PUSH3 0x177F DUP5 PUSH3 0x355 JUMP JUMPDEST SWAP5 PUSH4 0x23B872DD PUSH1 0x20 CALLER DUP1 SWAP9 PUSH3 0x227A DUP12 PUSH3 0x226A ADDRESS PUSH3 0x355 JUMP JUMPDEST SWAP6 PUSH3 0x2286 DUP11 PUSH3 0x1A7C PUSH1 0x40 MLOAD SWAP1 JUMP JUMPDEST DUP6 MSTORE PUSH1 0x4 DUP6 ADD PUSH3 0x1D74 JUMP JUMPDEST SUB SWAP3 GAS CALL DUP1 ISZERO PUSH3 0x18DE JUMPI PUSH3 0x22A6 SWAP2 PUSH1 0x0 SWAP2 PUSH3 0x2324 JUMPI JUMPDEST POP PUSH3 0x1F23 JUMP JUMPDEST PUSH3 0x22B6 PUSH3 0x177F PUSH1 0xC PUSH3 0xD37 JUMP JUMPDEST SWAP3 PUSH4 0x44E5550F SWAP1 DUP5 EXTCODESIZE ISZERO PUSH3 0x282 JUMPI DUP9 SWAP7 PUSH3 0x22EA SWAP5 DUP9 SWAP5 PUSH3 0x22F6 SWAP4 PUSH3 0x22DD PUSH1 0x40 MLOAD SWAP1 JUMP JUMPDEST SWAP12 DUP13 SWAP11 DUP12 SWAP10 DUP11 SWAP9 PUSH1 0xE0 SHL SWAP1 JUMP JUMPDEST DUP9 MSTORE PUSH1 0x4 DUP9 ADD PUSH3 0x2006 JUMP JUMPDEST SUB SWAP3 GAS CALL DUP1 ISZERO PUSH3 0x18DE JUMPI PUSH3 0x230A JUMPI POP POP JUMP JUMPDEST DUP2 PUSH3 0x28B SWAP3 SWAP1 RETURNDATASIZE LT PUSH3 0x18D6 JUMPI PUSH3 0x18C5 DUP2 DUP4 PUSH3 0x838 JUMP JUMPDEST PUSH3 0x234A SWAP2 POP PUSH1 0x20 RETURNDATASIZE DUP2 GT PUSH3 0x2351 JUMPI JUMPDEST PUSH3 0x2341 DUP2 DUP4 PUSH3 0x838 JUMP JUMPDEST DUP2 ADD SWAP1 PUSH3 0x1D5D JUMP JUMPDEST CODESIZE PUSH3 0x229F JUMP JUMPDEST POP RETURNDATASIZE PUSH3 0x2335 JUMP JUMPDEST DUP1 PUSH3 0x2387 SWAP3 PUSH3 0x236C DUP7 CALLER SWAP3 PUSH3 0x1E77 JUMP JUMPDEST PUSH1 0x40 MLOAD SWAP1 DUP2 DUP1 SUB SWAP3 GAS CALL PUSH3 0x2380 PUSH3 0x1E9A JUMP JUMPDEST POP PUSH3 0x1EBC JUMP JUMPDEST CODESIZE DUP9 PUSH3 0x2237 JUMP JUMPDEST POP POP PUSH3 0x23A0 PUSH3 0x177F DUP5 PUSH3 0x355 JUMP JUMPDEST SWAP1 PUSH1 0x20 PUSH4 0x23B872DD SWAP3 CALLER SWAP1 PUSH3 0x227A DUP11 PUSH3 0x23BB ADDRESS PUSH3 0x355 JUMP JUMPDEST SWAP7 PUSH3 0x23D8 DUP12 PUSH3 0x23CB PUSH1 0x40 MLOAD SWAP1 JUMP JUMPDEST SWAP10 DUP11 SWAP8 DUP9 SWAP7 DUP8 SWAP6 PUSH1 0xE0 SHL SWAP1 JUMP JUMPDEST SUB SWAP3 GAS CALL SWAP1 DUP2 ISZERO PUSH3 0x18DE JUMPI PUSH3 0x23FF DUP7 SWAP3 PUSH3 0x223F SWAP5 PUSH1 0x0 SWAP2 PUSH3 0x2405 JUMPI JUMPDEST POP PUSH3 0x1DA9 JUMP JUMPDEST PUSH3 0x1E77 JUMP JUMPDEST PUSH3 0x2421 SWAP2 POP PUSH1 0x20 RETURNDATASIZE DUP2 GT PUSH3 0x2351 JUMPI PUSH3 0x2341 DUP2 DUP4 PUSH3 0x838 JUMP JUMPDEST CODESIZE PUSH3 0x23F8 JUMP JUMPDEST PUSH3 0x2445 SWAP2 SWAP3 POP PUSH1 0x20 RETURNDATASIZE DUP2 GT PUSH3 0x1AD3 JUMPI PUSH3 0x1ACA DUP2 DUP4 PUSH3 0x838 JUMP JUMPDEST SWAP1 CODESIZE PUSH3 0x215F JUMP JUMPDEST PUSH3 0x2445 SWAP2 SWAP3 POP DUP5 RETURNDATASIZE DUP2 GT PUSH3 0x1AD3 JUMPI PUSH3 0x1ACA DUP2 DUP4 PUSH3 0x838 JUMP JUMPDEST PUSH20 0xFFFFFFFFFFFFFFFFFFFFFFFFFFFFFFFFFFFFFFFF SWAP1 SWAP2 AND DUP2 MSTORE PUSH1 0x60 DUP2 ADD SWAP4 SWAP3 PUSH3 0x28B SWAP3 SWAP1 SWAP2 PUSH1 0x40 SWAP2 PUSH3 0x204E SWAP1 PUSH1 0x20 DUP4 ADD MSTORE JUMP JUMPDEST PUSH3 0x24AF PUSH3 0x177F PUSH1 0xC PUSH3 0xD37 JUMP JUMPDEST CALLER SWAP2 SWAP1 PUSH4 0x573044E3 DUP2 EXTCODESIZE ISZERO PUSH3 0x282 JUMPI PUSH1 0x0 PUSH3 0x24D6 SWAP2 PUSH3 0x24E2 DUP3 SWAP7 PUSH3 0x1A7C PUSH1 0x40 MLOAD SWAP1 JUMP JUMPDEST DUP6 MSTORE PUSH1 0x4 DUP6 ADD PUSH3 0x2469 JUMP JUMPDEST SUB SWAP3 GAS CALL DUP1 ISZERO PUSH3 0x18DE JUMPI PUSH3 0x24F5 JUMPI POP JUMP JUMPDEST PUSH3 0x28B SWAP1 PUSH1 0x0 PUSH3 0x18C5 DUP2 DUP4 PUSH3 0x838 JUMP JUMPDEST SWAP1 PUSH3 0x251E SWAP2 PUSH3 0x2518 PUSH3 0x2667 JUMP JUMPDEST PUSH3 0x2556 JUMP JUMPDEST PUSH3 0x28B PUSH3 0x26C9 JUMP JUMPDEST PUSH3 0x287 SWAP1 PUSH3 0x720 JUMP JUMPDEST SWAP1 DUP2 MSTORE PUSH1 0x60 DUP2 ADD SWAP4 SWAP3 PUSH3 0x28B SWAP3 SWAP1 SWAP2 PUSH1 0x40 SWAP2 PUSH3 0xA7E SWAP1 PUSH1 0x20 DUP4 ADD SWAP1 PUSH3 0x2528 JUMP JUMPDEST PUSH1 0x3 PUSH3 0x2567 PUSH3 0x177F DUP4 PUSH3 0x355 JUMP JUMPDEST PUSH4 0xDFE1681 SWAP2 PUSH3 0x257B PUSH3 0x212F PUSH1 0x40 MLOAD SWAP1 JUMP JUMPDEST DUP4 MSTORE PUSH1 0x20 DUP4 PUSH1 0x4 DUP2 DUP6 GAS STATICCALL SWAP3 DUP4 ISZERO PUSH3 0x18DE JUMPI PUSH3 0x25AA SWAP4 PUSH1 0x20 SWAP3 PUSH3 0x2166 SWAP3 PUSH1 0x0 SWAP3 PUSH3 0x244D JUMPI POP PUSH3 0x360 JUMP JUMPDEST DUP3 MSTORE PUSH1 0x4 SWAP1 DUP3 SWAP1 GAS STATICCALL SWAP2 DUP3 ISZERO PUSH3 0x18DE JUMPI PUSH3 0x2601 SWAP3 PUSH3 0x25D9 SWAP3 PUSH3 0x169F SWAP3 PUSH1 0x0 SWAP3 PUSH3 0x2428 JUMPI POP PUSH3 0x360 JUMP JUMPDEST PUSH3 0x25FA PUSH20 0xFFFFFFFFFFFFFFFFFFFFFFFFFFFFFFFFFFFFFFFF DUP5 AND PUSH3 0xDB0 JUMP JUMPDEST EQ PUSH3 0x1AE9 JUMP JUMPDEST PUSH1 0x0 TIMESTAMP SWAP3 PUSH3 0x264A PUSH3 0x2635 PUSH32 0x188AE8C4A730B5B9AA94FE78353D0493B8D62CC6C7F90897DA6987A8D4245859 SWAP5 PUSH3 0x355 JUMP JUMPDEST SWAP5 PUSH3 0x2640 PUSH1 0x40 MLOAD SWAP1 JUMP JUMPDEST SWAP4 DUP5 SWAP4 DUP5 PUSH3 0x2533 JUMP JUMPDEST SUB SWAP1 LOG2 JUMP JUMPDEST SWAP1 PUSH3 0x28B SWAP2 PUSH3 0x2508 JUMP JUMPDEST PUSH3 0x2DB PUSH1 0x2 PUSH3 0x720 JUMP JUMPDEST PUSH3 0x2673 PUSH1 0x1 PUSH3 0x1491 JUMP JUMPDEST PUSH3 0x267D PUSH3 0x265B JUMP JUMPDEST SWAP1 DUP2 EQ PUSH3 0x2692 JUMPI PUSH3 0x28B SWAP1 PUSH1 0x1 PUSH3 0x1529 JUMP JUMPDEST PUSH1 0x40 MLOAD PUSH32 0x3EE5AEB500000000000000000000000000000000000000000000000000000000 DUP2 MSTORE PUSH1 0x4 SWAP1 REVERT JUMPDEST PUSH3 0x2DB PUSH1 0x1 PUSH3 0x720 JUMP JUMPDEST PUSH3 0x28B PUSH3 0x26D7 PUSH3 0x26BD JUMP JUMPDEST PUSH1 0x1 PUSH3 0x1529 JUMP JUMPDEST PUSH3 0x2DB SWAP2 PUSH3 0x169F SWAP2 PUSH20 0xFFFFFFFFFFFFFFFFFFFFFFFFFFFFFFFFFFFFFFFF DUP3 AND PUSH20 0xFFFFFFFFFFFFFFFFFFFFFFFFFFFFFFFFFFFFFFFF DUP3 AND LT ISZERO PUSH3 0x272C JUMPI PUSH3 0x1699 SWAP1 JUMPDEST PUSH1 0x3 PUSH3 0x360 JUMP JUMPDEST SWAP1 PUSH3 0x1699 SWAP1 PUSH3 0x2724 JUMP JUMPDEST PUSH20 0xFFFFFFFFFFFFFFFFFFFFFFFFFFFFFFFFFFFFFFFF SWAP1 SWAP2 AND DUP2 MSTORE PUSH1 0x40 DUP2 ADD SWAP3 SWAP2 PUSH3 0x28B SWAP2 PUSH1 0x20 SWAP1 PUSH3 0x204E JUMP JUMPDEST PUSH1 0x20 SWAP1 PUSH3 0x2774 ADDRESS PUSH3 0x355 JUMP JUMPDEST PUSH3 0x2798 PUSH4 0xE6A43905 PUSH3 0x27A4 PUSH3 0x278B PUSH1 0x40 MLOAD SWAP1 JUMP JUMPDEST SWAP7 DUP8 SWAP6 DUP7 SWAP5 DUP6 SWAP5 PUSH1 0xE0 SHL SWAP1 JUMP JUMPDEST DUP5 MSTORE PUSH1 0x4 DUP5 ADD PUSH3 0x2738 JUMP JUMPDEST SUB SWAP2 GAS STATICCALL SWAP1 DUP2 ISZERO PUSH3 0x18DE JUMPI PUSH1 0x0 SWAP2 PUSH3 0x1AAD JUMPI POP SWAP1 JUMP JUMPDEST ISZERO PUSH3 0x27C4 JUMPI JUMP JUMPDEST PUSH1 0x40 MLOAD PUSH32 0x8C379A000000000000000000000000000000000000000000000000000000000 DUP2 MSTORE PUSH1 0x20 PUSH1 0x4 DUP3 ADD MSTORE PUSH1 0x11 PUSH1 0x24 DUP3 ADD MSTORE PUSH32 0x4445583A204D414E414745525F4F4E4C59000000000000000000000000000000 PUSH1 0x44 DUP3 ADD MSTORE PUSH1 0x64 SWAP1 REVERT JUMPDEST PUSH3 0x28B SWAP1 PUSH3 0x2863 CALLER PUSH3 0x283B PUSH3 0x2C2 PUSH3 0xD43 JUMP JUMPDEST PUSH20 0xFFFFFFFFFFFFFFFFFFFFFFFFFFFFFFFFFFFFFFFF DUP3 AND EQ SWAP1 DUP2 ISZERO PUSH3 0x2869 JUMPI JUMPDEST POP PUSH3 0x27BC JUMP JUMPDEST PUSH3 0x28FE JUMP JUMPDEST PUSH3 0x287C SWAP2 POP PUSH3 0x10D4 SWAP1 PUSH1 0xB PUSH3 0x360 JUMP JUMPDEST CODESIZE PUSH3 0x285C JUMP JUMPDEST ISZERO PUSH3 0x288B JUMPI JUMP JUMPDEST PUSH1 0x40 MLOAD PUSH32 0x8C379A000000000000000000000000000000000000000000000000000000000 DUP2 MSTORE PUSH1 0x20 PUSH1 0x4 DUP3 ADD MSTORE PUSH1 0x11 PUSH1 0x24 DUP3 ADD MSTORE PUSH32 0x4445583A204645455F544F4F5F48494748000000000000000000000000000000 PUSH1 0x44 DUP3 ADD MSTORE PUSH1 0x64 SWAP1 REVERT JUMPDEST SWAP1 DUP2 MSTORE PUSH1 0x40 DUP2 ADD SWAP3 SWAP2 PUSH3 0x28B SWAP2 PUSH1 0x20 ADD MSTORE JUMP JUMPDEST PUSH3 0x2919 PUSH3 0x2910 PUSH3 0x2DB PUSH3 0x730 JUMP JUMPDEST DUP3 GT ISZERO PUSH3 0x2883 JUMP JUMPDEST PUSH3 0x2925 PUSH1 0x5 PUSH3 0x1491 JUMP JUMPDEST SWAP1 PUSH3 0x2933 DUP2 PUSH1 0x5 PUSH3 0x1529 JUMP JUMPDEST PUSH32 0x8D6AD40AD37637106F0CA2D682205C774E73F8CF7789162CE1C0B6AC0791A484 SWAP1 PUSH3 0x2960 CALLER PUSH3 0x355 JUMP JUMPDEST SWAP3 PUSH3 0x264A PUSH3 0x296F PUSH1 0x40 MLOAD SWAP1 JUMP JUMPDEST SWAP3 DUP4 SWAP3 DUP4 PUSH3 0x28EA JUMP JUMPDEST PUSH3 0x28B SWAP1 PUSH3 0x2823 JUMP JUMPDEST PUSH3 0x28B SWAP1 PUSH3 0x299C CALLER PUSH3 0x283B PUSH3 0x2C2 PUSH3 0xD43 JUMP JUMPDEST PUSH3 0x29A9 DUP2 PUSH1 0x7 PUSH3 0x13CC JUMP JUMPDEST PUSH32 0x15E19397FDB558931F7E7A6F81EAD6C2B575D5553E63AC39DB41D1A802E678BC PUSH3 0x264A PUSH3 0x29D9 CALLER PUSH3 0x355 JUMP JUMPDEST SWAP3 PUSH3 0x3D7 PUSH1 0x40 MLOAD SWAP1 JUMP JUMPDEST PUSH3 0x28B SWAP1 PUSH3 0x2984 JUMP JUMPDEST SWAP1 PUSH3 0x28B SWAP2 PUSH3 0x2A08 CALLER PUSH3 0x283B PUSH3 0x2C2 PUSH3 0xD43 JUMP JUMPDEST PUSH3 0x2A20 DUP3 PUSH3 0x2A1A DUP4 PUSH1 0x8 PUSH3 0x360 JUMP JUMPDEST PUSH3 0x13CC JUMP JUMPDEST PUSH3 0x264A PUSH3 0x29D9 PUSH32 0xC176FCF7D48A6ACA0D96D3B3201F7ADD47C4AF04CE9A51F5F4EB15D528C46E21 SWAP3 PUSH3 0x355 JUMP JUMPDEST SWAP1 PUSH3 0x28B SWAP2 PUSH3 0x29EF JUMP JUMPDEST SWAP1 PUSH3 0x28B SWAP2 PUSH3 0x2A6C PUSH3 0xD9E JUMP JUMPDEST PUSH3 0x2A7E DUP3 PUSH3 0x2A1A DUP4 PUSH1 0xB PUSH3 0x360 JUMP JUMPDEST PUSH3 0x264A PUSH3 0x29D9 PUSH32 0xDBB9ED174593E4F785D50B5333B66E44E8CCFB28737FA34896411100A93D100E SWAP3 PUSH3 0x355 JUMP JUMPDEST SWAP1 PUSH3 0x28B SWAP2 PUSH3 0x2A5C JUMP JUMPDEST SWAP1 PUSH3 0x28B SWAP2 PUSH3 0x2AD3 CALLER PUSH3 0x283B PUSH3 0x2C2 PUSH3 0xD43 JUMP JUMPDEST PUSH3 0x2AE5 DUP3 PUSH3 0x2A1A DUP4 PUSH1 0x9 PUSH3 0x360 JUMP JUMPDEST PUSH3 0x264A PUSH3 0x29D9 PUSH32 0x6A12B3DF6CBA4203BD7FD06B816789F87DE8C594299AED5717AE070FAC781BAC SWAP3 PUSH3 0x355 JUMP JUMPDEST SWAP1 PUSH3 0x28B SWAP2 PUSH3 0x2ABA JUMP JUMPDEST PUSH3 0x2B34 CALLER PUSH3 0x283B PUSH3 0x2C2 PUSH3 0xD43 JUMP JUMPDEST PUSH3 0x28B PUSH3 0x28B PUSH3 0x2B9E JUMP JUMPDEST PUSH3 0x28B PUSH3 0x2B21 JUMP JUMPDEST PUSH3 0x2B56 PUSH3 0x193D JUMP JUMPDEST PUSH3 0x28B PUSH3 0x2B68 PUSH1 0x1 PUSH1 0x2 PUSH3 0x13CC JUMP JUMPDEST CALLER PUSH3 0x2B99 PUSH32 0x62E78CEA01BEE320CD4E420270B5EA74000D11B0C9F74754EBDBFC544B05A258 SWAP2 PUSH3 0x4DE PUSH1 0x40 MLOAD SWAP1 JUMP JUMPDEST SUB SWAP1 LOG1 JUMP JUMPDEST PUSH3 0x28B PUSH3 0x2B4C JUMP JUMPDEST PUSH3 0x2BBB CALLER PUSH3 0x283B PUSH3 0x2C2 PUSH3 0xD43 JUMP JUMPDEST PUSH3 0x28B PUSH3 0x28B PUSH3 0x2C20 JUMP JUMPDEST PUSH3 0x28B PUSH3 0x2BA8 JUMP JUMPDEST PUSH3 0x2BDD PUSH3 0x2C2A JUMP JUMPDEST PUSH3 0x28B PUSH3 0x2BEF PUSH1 0x0 PUSH1 0x2 PUSH3 0x13CC JUMP JUMPDEST CALLER PUSH3 0x2B99 PUSH32 0x5DB9EE0A495BF2E6FF9C91A7834C1BA4FDD244A5E8AA4E537BD38AEAE4B073AA SWAP2 PUSH3 0x4DE PUSH1 0x40 MLOAD SWAP1 JUMP JUMPDEST PUSH3 0x28B PUSH3 0x2BD3 JUMP JUMPDEST PUSH3 0x2C38 PUSH3 0x103C PUSH3 0xF95 JUMP JUMPDEST PUSH3 0x2C3F JUMPI JUMP JUMPDEST PUSH1 0x40 MLOAD PUSH32 0x8DFC202B00000000000000000000000000000000000000000000000000000000 DUP2 MSTORE PUSH1 0x4 SWAP1 REVERT JUMPDEST PUSH3 0x2C7D CALLER PUSH3 0x283B PUSH3 0x2C2 PUSH3 0xD43 JUMP JUMPDEST PUSH3 0x28B PUSH3 0x2D55 JUMP JUMPDEST ISZERO PUSH3 0x2C8F JUMPI JUMP JUMPDEST PUSH1 0x40 MLOAD PUSH32 0x8C379A000000000000000000000000000000000000000000000000000000000 DUP2 MSTORE PUSH1 0x20 PUSH1 0x4 DUP3 ADD MSTORE PUSH1 0xC PUSH1 0x24 DUP3 ADD MSTORE PUSH32 0x4445583A204E4F5F464545530000000000000000000000000000000000000000 PUSH1 0x44 DUP3 ADD MSTORE PUSH1 0x64 SWAP1 REVERT JUMPDEST ISZERO PUSH3 0x2CF6 JUMPI JUMP JUMPDEST PUSH1 0x40 MLOAD PUSH32 0x8C379A000000000000000000000000000000000000000000000000000000000 DUP2 MSTORE PUSH1 0x20 PUSH1 0x4 DUP3 ADD MSTORE PUSH1 0x16 PUSH1 0x24 DUP3 ADD MSTORE PUSH32 0x4445583A205749544844524157414C5F4641494C454400000000000000000000 PUSH1 0x44 DUP3 ADD MSTORE PUSH1 0x64 SWAP1 REVERT JUMPDEST PUSH3 0x28B PUSH3 0x2D64 ADDRESS PUSH3 0x355 JUMP JUMPDEST BALANCE PUSH1 0x0 DUP1 SWAP2 PUSH3 0x2D80 PUSH3 0x2D78 DUP4 PUSH3 0x720 JUMP JUMPDEST DUP3 GT PUSH3 0x2C87 JUMP JUMPDEST PUSH3 0x2D8A PUSH3 0xD43 JUMP JUMPDEST SWAP1 PUSH3 0x2D95 PUSH1 0x40 MLOAD SWAP1 JUMP JUMPDEST SWAP1 DUP2 DUP1 SUB SWAP3 GAS CALL PUSH3 0x2DA6 PUSH3 0x1E9A JUMP JUMPDEST POP PUSH3 0x2CEE JUMP JUMPDEST PUSH3 0x28B PUSH3 0x2C6A JUMP JUMPDEST SWAP1 PUSH3 0x28B SWAP3 SWAP2 PUSH3 0x2DC8 PUSH3 0xD9E JUMP JUMPDEST PUSH3 0x2E35 JUMP JUMPDEST ISZERO PUSH3 0x2DD6 JUMPI JUMP JUMPDEST PUSH1 0x40 MLOAD PUSH32 0x8C379A000000000000000000000000000000000000000000000000000000000 DUP2 MSTORE PUSH1 0x20 PUSH1 0x4 DUP3 ADD MSTORE PUSH1 0x18 PUSH1 0x24 DUP3 ADD MSTORE PUSH32 0x4445583A204554485F5452414E534645525F4641494C45440000000000000000 PUSH1 0x44 DUP3 ADD MSTORE PUSH1 0x64 SWAP1 REVERT JUMPDEST SWAP1 PUSH1 0x0 SWAP2 PUSH3 0x2E48 PUSH3 0x2C2 DUP5 PUSH3 0xD73 JUMP JUMPDEST PUSH20 0xFFFFFFFFFFFFFFFFFFFFFFFFFFFFFFFFFFFFFFFF DUP3 AND SUB PUSH3 0x2E8F JUMPI POP DUP2 SWAP1 PUSH3 0x28B SWAP4 PUSH3 0x2E77 PUSH1 0x40 MLOAD SWAP1 JUMP JUMPDEST SWAP1 DUP2 DUP1 SUB SWAP3 GAS CALL PUSH3 0x2E88 PUSH3 0x1E9A JUMP JUMPDEST POP PUSH3 0x2DCE JUMP JUMPDEST PUSH3 0x28B SWAP4 SWAP3 POP PUSH3 0x2EA1 SWAP1 PUSH3 0x355 JUMP JUMPDEST PUSH3 0x2EF5 JUMP JUMPDEST SWAP1 PUSH3 0x28B SWAP3 SWAP2 PUSH3 0x2DB7 JUMP JUMPDEST PUSH3 0x2ED0 PUSH3 0x2ECA PUSH3 0x2DB SWAP3 PUSH4 0xFFFFFFFF AND SWAP1 JUMP JUMPDEST PUSH1 0xE0 SHL SWAP1 JUMP JUMPDEST PUSH32 0xFFFFFFFF00000000000000000000000000000000000000000000000000000000 AND SWAP1 JUMP JUMPDEST PUSH3 0x2F40 PUSH1 0x4 SWAP3 PUSH3 0x2F30 PUSH3 0x28B SWAP6 PUSH3 0x2F14 PUSH4 0xA9059CBB PUSH3 0x2EB4 JUMP JUMPDEST SWAP3 PUSH3 0x2F1F PUSH1 0x40 MLOAD SWAP1 JUMP JUMPDEST SWAP7 DUP8 SWAP5 PUSH1 0x20 DUP7 ADD SWAP1 DUP2 MSTORE ADD PUSH3 0xA53 JUMP JUMPDEST PUSH1 0x20 DUP3 ADD DUP2 SUB DUP3 MSTORE SUB DUP4 PUSH3 0x838 JUMP JUMPDEST SWAP1 PUSH1 0x0 PUSH1 0x20 SWAP2 PUSH3 0x2F4F PUSH1 0x0 SWAP1 JUMP JUMPDEST POP DUP3 DUP2 MLOAD SWAP2 ADD DUP3 DUP6 GAS CALL ISZERO PUSH3 0x13AA JUMPI PUSH1 0x0 DUP1 MLOAD RETURNDATASIZE PUSH3 0x2F73 PUSH3 0x162E DUP5 PUSH3 0x720 JUMP JUMPDEST SUB PUSH3 0x2FFB JUMPI POP PUSH3 0x2F95 PUSH3 0x162E PUSH3 0x2F8D DUP5 PUSH3 0x355 JUMP JUMPDEST EXTCODESIZE SWAP3 PUSH3 0x720 JUMP JUMPDEST EQ JUMPDEST PUSH3 0x2F9F JUMPI POP JUMP JUMPDEST PUSH3 0x2FAE PUSH3 0xE2C SWAP2 PUSH3 0x355 JUMP JUMPDEST PUSH1 0x40 MLOAD SWAP2 DUP3 SWAP2 PUSH32 0x5274AFE700000000000000000000000000000000000000000000000000000000 DUP4 MSTORE PUSH1 0x4 DUP4 ADD PUSH20 0xFFFFFFFFFFFFFFFFFFFFFFFFFFFFFFFFFFFFFFFF SWAP1 SWAP2 AND DUP2 MSTORE PUSH1 0x20 ADD SWAP1 JUMP JUMPDEST SWAP1 POP PUSH3 0x300D PUSH3 0x162E PUSH1 0x1 PUSH3 0x720 JUMP JUMPDEST EQ ISZERO PUSH3 0x2F97 JUMP JUMPDEST PUSH1 0x40 MLOAD PUSH32 0x8C379A000000000000000000000000000000000000000000000000000000000 DUP2 MSTORE PUSH1 0x20 PUSH1 0x4 DUP3 ADD MSTORE PUSH1 0xF PUSH1 0x24 DUP3 ADD MSTORE PUSH32 0x4E4F545F494D504C454D454E5445440000000000000000000000000000000000 PUSH1 0x44 DUP3 ADD MSTORE PUSH1 0x64 SWAP1 REVERT INVALID PUSH1 0x80 PUSH1 0x40 MSTORE CALLVALUE PUSH3 0x26 JUMPI PUSH3 0x14 PUSH3 0x9B JUMP JUMPDEST PUSH1 0x40 MLOAD PUSH2 0x308C PUSH3 0x11C DUP3 CODECOPY PUSH2 0x308C SWAP1 RETURN JUMPDEST PUSH1 0x0 DUP1 REVERT JUMPDEST SWAP1 PUSH1 0x1 PUSH1 0x1 PUSH1 0xA0 SHL SUB SWAP1 JUMPDEST SWAP2 DUP2 NOT AND SWAP2 AND OR SWAP1 JUMP JUMPDEST PUSH3 0x56 SWAP1 PUSH3 0x59 SWAP1 PUSH1 0x1 PUSH1 0x1 PUSH1 0xA0 SHL SUB AND DUP3 JUMP JUMPDEST SWAP1 JUMP JUMPDEST PUSH1 0x1 PUSH1 0x1 PUSH1 0xA0 SHL SUB AND SWAP1 JUMP JUMPDEST PUSH3 0x56 SWAP1 PUSH3 0x40 JUMP JUMPDEST PUSH3 0x56 SWAP1 PUSH3 0x65 JUMP JUMPDEST SWAP1 PUSH3 0x8F PUSH3 0x56 PUSH3 0x97 SWAP3 PUSH3 0x70 JUMP JUMPDEST DUP3 SLOAD PUSH3 0x2B JUMP JUMPDEST SWAP1 SSTORE JUMP JUMPDEST PUSH3 0xA5 PUSH3 0xB4 JUMP JUMPDEST PUSH3 0xB2 CALLER PUSH1 0x4 PUSH3 0x7B JUMP JUMPDEST JUMP JUMPDEST PUSH3 0xB2 PUSH3 0xB2 PUSH3 0x105 JUMP JUMPDEST PUSH3 0x56 PUSH3 0x56 PUSH3 0x56 SWAP3 SWAP1 JUMP JUMPDEST PUSH3 0x56 PUSH1 0x1 PUSH3 0xC2 JUMP JUMPDEST SWAP1 PUSH1 0x0 NOT SWAP1 PUSH3 0x36 JUMP JUMPDEST SWAP1 PUSH3 0xFD PUSH3 0x56 PUSH3 0x97 SWAP3 PUSH3 0xC2 JUMP JUMPDEST DUP3 SLOAD PUSH3 0xDE JUMP JUMPDEST PUSH3 0xB2 PUSH3 0x113 PUSH3 0xD2 JUMP JUMPDEST PUSH1 0x0 PUSH3 0xE9 JUMP INVALID PUSH1 0x80 PUSH1 0x40 MSTORE PUSH1 0x4 CALLDATASIZE LT ISZERO PUSH2 0x12 JUMPI PUSH1 0x0 DUP1 REVERT JUMPDEST PUSH1 0x0 CALLDATALOAD PUSH1 0xE0 SHR DUP1 PUSH4 0x22C0D9F EQ PUSH2 0x212 JUMPI DUP1 PUSH4 0x6FDDE03 EQ PUSH2 0x20D JUMPI DUP1 PUSH4 0x902F1AC EQ PUSH2 0x208 JUMPI DUP1 PUSH4 0x95EA7B3 EQ PUSH2 0x203 JUMPI DUP1 PUSH4 0xDFE1681 EQ PUSH2 0x1FE JUMPI DUP1 PUSH4 0x18160DDD EQ PUSH2 0x1F9 JUMPI DUP1 PUSH4 0x23B872DD EQ PUSH2 0x1F4 JUMPI DUP1 PUSH4 0x30ADF81F EQ PUSH2 0x1EF JUMPI DUP1 PUSH4 0x313CE567 EQ PUSH2 0x1EA JUMPI DUP1 PUSH4 0x3566414C EQ PUSH2 0x1E5 JUMPI DUP1 PUSH4 0x3644E515 EQ PUSH2 0x1E0 JUMPI DUP1 PUSH4 0x485CC955 EQ PUSH2 0x1DB JUMPI DUP1 PUSH4 0x5909C0D5 EQ PUSH2 0x1D6 JUMPI DUP1 PUSH4 0x5A3D5493 EQ PUSH2 0x1D1 JUMPI DUP1 PUSH4 0x5C975ABB EQ PUSH2 0x1CC JUMPI DUP1 PUSH4 0x6A627842 EQ PUSH2 0x1C7 JUMPI DUP1 PUSH4 0x70A08231 EQ PUSH2 0x1C2 JUMPI DUP1 PUSH4 0x7174B568 EQ PUSH2 0x1BD JUMPI DUP1 PUSH4 0x7464FC3D EQ PUSH2 0x1B8 JUMPI DUP1 PUSH4 0x7ECEBE00 EQ PUSH2 0x1B3 JUMPI DUP1 PUSH4 0x820D25A8 EQ PUSH2 0x1AE JUMPI DUP1 PUSH4 0x89AFCB44 EQ PUSH2 0x1A9 JUMPI DUP1 PUSH4 0x95D89B41 EQ PUSH2 0x1A4 JUMPI DUP1 PUSH4 0xA9059CBB EQ PUSH2 0x19F JUMPI DUP1 PUSH4 0xBA9A7A56 EQ PUSH2 0x19A JUMPI DUP1 PUSH4 0xBC25CF77 EQ PUSH2 0x195 JUMPI DUP1 PUSH4 0xBE11B1D0 EQ PUSH2 0x190 JUMPI DUP1 PUSH4 0xC45A0155 EQ PUSH2 0x18B JUMPI DUP1 PUSH4 0xD21220A7 EQ PUSH2 0x186 JUMPI DUP1 PUSH4 0xD505ACCF EQ PUSH2 0x181 JUMPI DUP1 PUSH4 0xDD62ED3E EQ PUSH2 0x17C JUMPI PUSH4 0xFFF6CAE9 SUB PUSH2 0x220 JUMPI PUSH2 0xAC0 JUMP JUMPDEST PUSH2 0xAA4 JUMP JUMPDEST PUSH2 0xA6B JUMP JUMPDEST PUSH2 0x9D4 JUMP JUMPDEST PUSH2 0x9AD JUMP JUMPDEST PUSH2 0x986 JUMP JUMPDEST PUSH2 0x951 JUMP JUMPDEST PUSH2 0x936 JUMP JUMPDEST PUSH2 0x8FA JUMP JUMPDEST PUSH2 0x8DF JUMP JUMPDEST PUSH2 0x8B1 JUMP JUMPDEST PUSH2 0x881 JUMP JUMPDEST PUSH2 0x828 JUMP JUMPDEST PUSH2 0x7FB JUMP JUMPDEST PUSH2 0x7E0 JUMP JUMPDEST PUSH2 0x7B3 JUMP JUMPDEST PUSH2 0x742 JUMP JUMPDEST PUSH2 0x713 JUMP JUMPDEST PUSH2 0x6F8 JUMP JUMPDEST PUSH2 0x6D1 JUMP JUMPDEST PUSH2 0x6AC JUMP JUMPDEST PUSH2 0x66E JUMP JUMPDEST PUSH2 0x653 JUMP JUMPDEST PUSH2 0x5CF JUMP JUMPDEST PUSH2 0x596 JUMP JUMPDEST PUSH2 0x57A JUMP JUMPDEST PUSH2 0x51E JUMP JUMPDEST PUSH2 0x4BA JUMP JUMPDEST PUSH2 0x455 JUMP JUMPDEST PUSH2 0x3E2 JUMP JUMPDEST PUSH2 0x3B7 JUMP JUMPDEST PUSH2 0x2FD JUMP JUMPDEST DUP1 JUMPDEST SUB PUSH2 0x220 JUMPI JUMP JUMPDEST PUSH1 0x0 DUP1 REVERT JUMPDEST SWAP1 POP CALLDATALOAD SWAP1 PUSH2 0x232 DUP3 PUSH2 0x217 JUMP JUMPDEST JUMP JUMPDEST PUSH20 0xFFFFFFFFFFFFFFFFFFFFFFFFFFFFFFFFFFFFFFFF AND SWAP1 JUMP JUMPDEST SWAP1 JUMP JUMPDEST PUSH20 0xFFFFFFFFFFFFFFFFFFFFFFFFFFFFFFFFFFFFFFFF DUP2 AND PUSH2 0x219 JUMP JUMPDEST SWAP1 POP CALLDATALOAD SWAP1 PUSH2 0x232 DUP3 PUSH2 0x250 JUMP JUMPDEST SWAP1 SWAP2 DUP3 PUSH1 0x1F DUP4 ADD SLT ISZERO PUSH2 0x220 JUMPI DUP2 CALLDATALOAD SWAP2 PUSH8 0xFFFFFFFFFFFFFFFF DUP4 GT PUSH2 0x220 JUMPI PUSH1 0x20 ADD SWAP3 PUSH1 0x1 DUP4 MUL DUP5 ADD GT PUSH2 0x220 JUMPI JUMP JUMPDEST SWAP1 PUSH1 0x80 DUP3 DUP3 SUB SLT PUSH2 0x220 JUMPI PUSH2 0x2BE DUP2 DUP4 PUSH2 0x225 JUMP JUMPDEST SWAP3 PUSH2 0x2CC DUP3 PUSH1 0x20 DUP6 ADD PUSH2 0x225 JUMP JUMPDEST SWAP3 PUSH2 0x2DA DUP4 PUSH1 0x40 DUP4 ADD PUSH2 0x26C JUMP JUMPDEST SWAP3 PUSH1 0x60 DUP3 ADD CALLDATALOAD PUSH8 0xFFFFFFFFFFFFFFFF DUP2 GT PUSH2 0x220 JUMPI PUSH2 0x2F9 SWAP3 ADD PUSH2 0x279 JUMP JUMPDEST SWAP1 SWAP2 JUMP JUMPDEST CALLVALUE PUSH2 0x220 JUMPI PUSH2 0x319 PUSH2 0x310 CALLDATASIZE PUSH1 0x4 PUSH2 0x2A9 JUMP JUMPDEST SWAP4 SWAP3 SWAP1 SWAP3 PUSH2 0x253A JUMP JUMPDEST PUSH1 0x40 MLOAD STOP JUMPDEST SUB SWAP1 RETURN JUMPDEST PUSH1 0x0 SWAP2 SUB SLT PUSH2 0x220 JUMPI JUMP JUMPDEST PUSH1 0x0 JUMPDEST DUP4 DUP2 LT PUSH2 0x340 JUMPI POP POP PUSH1 0x0 SWAP2 ADD MSTORE JUMP JUMPDEST DUP2 DUP2 ADD MLOAD DUP4 DUP3 ADD MSTORE PUSH1 0x20 ADD PUSH2 0x330 JUMP JUMPDEST PUSH2 0x371 PUSH2 0x37A PUSH1 0x20 SWAP4 PUSH2 0x3A2 SWAP4 PUSH2 0x365 DUP2 MLOAD SWAP1 JUMP JUMPDEST DUP1 DUP4 MSTORE SWAP4 DUP5 SWAP3 PUSH1 0x20 ADD SWAP1 JUMP JUMPDEST SWAP6 DUP7 SWAP2 ADD PUSH2 0x32D JUMP JUMPDEST PUSH1 0x1F ADD PUSH32 0xFFFFFFFFFFFFFFFFFFFFFFFFFFFFFFFFFFFFFFFFFFFFFFFFFFFFFFFFFFFFFFE0 AND SWAP1 JUMP JUMPDEST ADD SWAP1 JUMP JUMPDEST PUSH1 0x20 DUP1 DUP3 MSTORE PUSH2 0x24D SWAP3 SWAP2 ADD SWAP1 PUSH2 0x350 JUMP JUMPDEST CALLVALUE PUSH2 0x220 JUMPI PUSH2 0x3C7 CALLDATASIZE PUSH1 0x4 PUSH2 0x322 JUMP JUMPDEST PUSH2 0x31E PUSH2 0x3D2 PUSH2 0x2951 JUMP JUMPDEST PUSH1 0x40 MLOAD SWAP2 DUP3 SWAP2 DUP3 PUSH2 0x3A6 JUMP JUMPDEST SWAP1 MSTORE JUMP JUMPDEST CALLVALUE PUSH2 0x220 JUMPI PUSH2 0x3F2 CALLDATASIZE PUSH1 0x4 PUSH2 0x322 JUMP JUMPDEST PUSH2 0x31E PUSH2 0x3FD PUSH2 0xE80 JUMP JUMPDEST PUSH1 0x40 DUP1 MLOAD PUSH14 0xFFFFFFFFFFFFFFFFFFFFFFFFFFFF SWAP5 DUP6 AND DUP2 MSTORE SWAP4 SWAP1 SWAP3 AND PUSH1 0x20 DUP5 ADD MSTORE PUSH4 0xFFFFFFFF AND SWAP1 DUP3 ADD MSTORE SWAP1 DUP2 SWAP1 PUSH1 0x60 DUP3 ADD SWAP1 JUMP JUMPDEST SWAP2 SWAP1 PUSH1 0x40 DUP4 DUP3 SUB SLT PUSH2 0x220 JUMPI PUSH2 0x24D SWAP1 PUSH2 0x44C DUP2 DUP6 PUSH2 0x26C JUMP JUMPDEST SWAP4 PUSH1 0x20 ADD PUSH2 0x225 JUMP JUMPDEST CALLVALUE PUSH2 0x220 JUMPI PUSH2 0x31E PUSH2 0x471 PUSH2 0x46B CALLDATASIZE PUSH1 0x4 PUSH2 0x432 JUMP JUMPDEST SWAP1 PUSH2 0x27A1 JUMP JUMPDEST PUSH1 0x40 MLOAD SWAP2 DUP3 SWAP2 DUP3 SWAP1 ISZERO ISZERO DUP2 MSTORE PUSH1 0x20 ADD SWAP1 JUMP JUMPDEST PUSH2 0x24D SWAP2 PUSH1 0x8 MUL SHR PUSH20 0xFFFFFFFFFFFFFFFFFFFFFFFFFFFFFFFFFFFFFFFF AND SWAP1 JUMP JUMPDEST SWAP1 PUSH2 0x24D SWAP2 SLOAD PUSH2 0x483 JUMP JUMPDEST PUSH2 0x24D PUSH1 0x1 DUP1 PUSH2 0x4A4 JUMP JUMPDEST CALLVALUE PUSH2 0x220 JUMPI PUSH2 0x4CA CALLDATASIZE PUSH1 0x4 PUSH2 0x322 JUMP JUMPDEST PUSH2 0x31E PUSH2 0x4D5 PUSH2 0x4AF JUMP JUMPDEST PUSH1 0x40 MLOAD SWAP2 DUP3 SWAP2 DUP3 PUSH20 0xFFFFFFFFFFFFFFFFFFFFFFFFFFFFFFFFFFFFFFFF SWAP1 SWAP2 AND DUP2 MSTORE PUSH1 0x20 ADD SWAP1 JUMP JUMPDEST PUSH2 0x24D SWAP2 PUSH1 0x8 MUL SHR DUP2 JUMP JUMPDEST SWAP1 PUSH2 0x24D SWAP2 SLOAD PUSH2 0x4FC JUMP JUMPDEST PUSH2 0x24D PUSH1 0x0 PUSH1 0x8 PUSH2 0x507 JUMP JUMPDEST CALLVALUE PUSH2 0x220 JUMPI PUSH2 0x52E CALLDATASIZE PUSH1 0x4 PUSH2 0x322 JUMP JUMPDEST PUSH2 0x31E PUSH2 0x539 PUSH2 0x512 JUMP JUMPDEST PUSH1 0x40 MLOAD JUMPDEST SWAP2 DUP3 SWAP2 DUP3 SWAP1 DUP2 MSTORE PUSH1 0x20 ADD SWAP1 JUMP JUMPDEST SWAP1 SWAP2 PUSH1 0x60 DUP3 DUP5 SUB SLT PUSH2 0x220 JUMPI PUSH2 0x24D PUSH2 0x563 DUP5 DUP5 PUSH2 0x26C JUMP JUMPDEST SWAP4 PUSH2 0x571 DUP2 PUSH1 0x20 DUP7 ADD PUSH2 0x26C JUMP JUMPDEST SWAP4 PUSH1 0x40 ADD PUSH2 0x225 JUMP JUMPDEST CALLVALUE PUSH2 0x220 JUMPI PUSH2 0x31E PUSH2 0x471 PUSH2 0x590 CALLDATASIZE PUSH1 0x4 PUSH2 0x54A JUMP JUMPDEST SWAP2 PUSH2 0x2863 JUMP JUMPDEST CALLVALUE PUSH2 0x220 JUMPI PUSH2 0x5A6 CALLDATASIZE PUSH1 0x4 PUSH2 0x322 JUMP JUMPDEST PUSH2 0x31E PUSH32 0x6E71EDAE12B1B97F4D1F60370FEF10105FA2FAAE0126114A169C64845D6126C9 PUSH2 0x539 JUMP JUMPDEST CALLVALUE PUSH2 0x220 JUMPI PUSH2 0x5DF CALLDATASIZE PUSH1 0x4 PUSH2 0x322 JUMP JUMPDEST PUSH2 0x31E PUSH2 0x5EA PUSH2 0x29A9 JUMP JUMPDEST PUSH1 0x40 MLOAD SWAP2 DUP3 SWAP2 DUP3 PUSH1 0xFF SWAP1 SWAP2 AND DUP2 MSTORE PUSH1 0x20 ADD SWAP1 JUMP JUMPDEST SWAP1 PUSH1 0x20 DUP3 DUP3 SUB SLT PUSH2 0x220 JUMPI PUSH2 0x24D SWAP2 PUSH2 0x225 JUMP JUMPDEST SWAP1 JUMPDEST PUSH1 0x0 MSTORE PUSH1 0x20 MSTORE PUSH1 0x40 PUSH1 0x0 KECCAK256 SWAP1 JUMP JUMPDEST PUSH2 0x24D SWAP2 PUSH1 0x8 MUL SHR JUMPDEST PUSH1 0xFF AND SWAP1 JUMP JUMPDEST SWAP1 PUSH2 0x24D SWAP2 SLOAD PUSH2 0x622 JUMP JUMPDEST PUSH2 0x24D SWAP1 PUSH2 0x64E PUSH1 0xB SWAP2 PUSH1 0x0 SWAP3 PUSH2 0x612 JUMP JUMPDEST PUSH2 0x631 JUMP JUMPDEST CALLVALUE PUSH2 0x220 JUMPI PUSH2 0x31E PUSH2 0x471 PUSH2 0x669 CALLDATASIZE PUSH1 0x4 PUSH2 0x5FE JUMP JUMPDEST PUSH2 0x63C JUMP JUMPDEST CALLVALUE PUSH2 0x220 JUMPI PUSH2 0x67E CALLDATASIZE PUSH1 0x4 PUSH2 0x322 JUMP JUMPDEST PUSH2 0x31E PUSH2 0x539 PUSH2 0x29B3 JUMP JUMPDEST SWAP2 SWAP1 PUSH1 0x40 DUP4 DUP3 SUB SLT PUSH2 0x220 JUMPI PUSH2 0x24D SWAP1 PUSH2 0x6A3 DUP2 DUP6 PUSH2 0x26C JUMP JUMPDEST SWAP4 PUSH1 0x20 ADD PUSH2 0x26C JUMP JUMPDEST CALLVALUE PUSH2 0x220 JUMPI PUSH2 0x319 PUSH2 0x6BF CALLDATASIZE PUSH1 0x4 PUSH2 0x689 JUMP JUMPDEST SWAP1 PUSH2 0xB74 JUMP JUMPDEST PUSH2 0x24D PUSH1 0x0 PUSH1 0x5 PUSH2 0x507 JUMP JUMPDEST CALLVALUE PUSH2 0x220 JUMPI PUSH2 0x6E1 CALLDATASIZE PUSH1 0x4 PUSH2 0x322 JUMP JUMPDEST PUSH2 0x31E PUSH2 0x539 PUSH2 0x6C5 JUMP JUMPDEST PUSH2 0x24D PUSH1 0x0 PUSH1 0x6 PUSH2 0x507 JUMP JUMPDEST CALLVALUE PUSH2 0x220 JUMPI PUSH2 0x708 CALLDATASIZE PUSH1 0x4 PUSH2 0x322 JUMP JUMPDEST PUSH2 0x31E PUSH2 0x539 PUSH2 0x6EC JUMP JUMPDEST CALLVALUE PUSH2 0x220 JUMPI PUSH2 0x723 CALLDATASIZE PUSH1 0x4 PUSH2 0x322 JUMP JUMPDEST PUSH2 0x31E PUSH2 0x471 PUSH2 0xAD8 JUMP JUMPDEST SWAP1 PUSH1 0x20 DUP3 DUP3 SUB SLT PUSH2 0x220 JUMPI PUSH2 0x24D SWAP2 PUSH2 0x26C JUMP JUMPDEST CALLVALUE PUSH2 0x220 JUMPI PUSH2 0x31E PUSH2 0x539 PUSH2 0x758 CALLDATASIZE PUSH1 0x4 PUSH2 0x72E JUMP JUMPDEST PUSH2 0x1504 JUMP JUMPDEST PUSH2 0x234 PUSH2 0x24D PUSH2 0x24D SWAP3 PUSH20 0xFFFFFFFFFFFFFFFFFFFFFFFFFFFFFFFFFFFFFFFF AND SWAP1 JUMP JUMPDEST PUSH2 0x24D SWAP1 PUSH2 0x75D JUMP JUMPDEST PUSH2 0x24D SWAP1 PUSH2 0x780 JUMP JUMPDEST SWAP1 PUSH2 0x614 SWAP1 PUSH2 0x789 JUMP JUMPDEST PUSH2 0x24D SWAP1 PUSH2 0x7AE PUSH1 0x7 SWAP2 PUSH1 0x0 SWAP3 PUSH2 0x792 JUMP JUMPDEST PUSH2 0x507 JUMP JUMPDEST CALLVALUE PUSH2 0x220 JUMPI PUSH2 0x31E PUSH2 0x539 PUSH2 0x7C9 CALLDATASIZE PUSH1 0x4 PUSH2 0x72E JUMP JUMPDEST PUSH2 0x79C JUMP JUMPDEST PUSH2 0x24D SWAP1 PUSH2 0x7AE PUSH1 0xA SWAP2 PUSH1 0x0 SWAP3 PUSH2 0x612 JUMP JUMPDEST CALLVALUE PUSH2 0x220 JUMPI PUSH2 0x31E PUSH2 0x539 PUSH2 0x7F6 CALLDATASIZE PUSH1 0x4 PUSH2 0x5FE JUMP JUMPDEST PUSH2 0x7CE JUMP JUMPDEST CALLVALUE PUSH2 0x220 JUMPI PUSH2 0x80B CALLDATASIZE PUSH1 0x4 PUSH2 0x322 JUMP JUMPDEST PUSH2 0x31E PUSH2 0x539 PUSH2 0x2F2D JUMP JUMPDEST PUSH2 0x24D SWAP1 PUSH2 0x7AE PUSH1 0xD SWAP2 PUSH1 0x0 SWAP3 PUSH2 0x792 JUMP JUMPDEST CALLVALUE PUSH2 0x220 JUMPI PUSH2 0x31E PUSH2 0x539 PUSH2 0x83E CALLDATASIZE PUSH1 0x4 PUSH2 0x72E JUMP JUMPDEST PUSH2 0x816 JUMP JUMPDEST SWAP1 DUP2 PUSH1 0x20 SWAP2 SUB SLT PUSH2 0x220 JUMPI SWAP1 JUMP JUMPDEST SWAP1 SWAP2 PUSH1 0x60 DUP3 DUP5 SUB SLT PUSH2 0x220 JUMPI PUSH2 0x24D PUSH2 0x86A DUP5 DUP5 PUSH2 0x26C JUMP JUMPDEST SWAP4 PUSH2 0x878 DUP2 PUSH1 0x20 DUP7 ADD PUSH2 0x26C JUMP JUMPDEST SWAP4 PUSH1 0x40 ADD PUSH2 0x843 JUMP JUMPDEST CALLVALUE PUSH2 0x220 JUMPI PUSH2 0x319 PUSH2 0x894 CALLDATASIZE PUSH1 0x4 PUSH2 0x851 JUMP JUMPDEST SWAP2 PUSH2 0xE75 JUMP JUMPDEST SWAP1 DUP2 MSTORE PUSH1 0x40 DUP2 ADD SWAP3 SWAP2 PUSH2 0x232 SWAP2 PUSH1 0x20 ADD MSTORE JUMP JUMPDEST ADD MSTORE JUMP JUMPDEST CALLVALUE PUSH2 0x220 JUMPI PUSH2 0x8C9 PUSH2 0x8C4 CALLDATASIZE PUSH1 0x4 PUSH2 0x72E JUMP JUMPDEST PUSH2 0x1D20 JUMP JUMPDEST SWAP1 PUSH2 0x31E PUSH2 0x8D6 PUSH1 0x40 MLOAD SWAP1 JUMP JUMPDEST SWAP3 DUP4 SWAP3 DUP4 PUSH2 0x89A JUMP JUMPDEST CALLVALUE PUSH2 0x220 JUMPI PUSH2 0x8EF CALLDATASIZE PUSH1 0x4 PUSH2 0x322 JUMP JUMPDEST PUSH2 0x31E PUSH2 0x3D2 PUSH2 0x2994 JUMP JUMPDEST CALLVALUE PUSH2 0x220 JUMPI PUSH2 0x31E PUSH2 0x471 PUSH2 0x910 CALLDATASIZE PUSH1 0x4 PUSH2 0x432 JUMP JUMPDEST SWAP1 PUSH2 0x2802 JUMP JUMPDEST PUSH2 0x24D PUSH2 0x24D PUSH2 0x24D SWAP3 SWAP1 JUMP JUMPDEST PUSH2 0x24D PUSH2 0x3E8 PUSH2 0x916 JUMP JUMPDEST PUSH2 0x24D PUSH2 0x923 JUMP JUMPDEST CALLVALUE PUSH2 0x220 JUMPI PUSH2 0x946 CALLDATASIZE PUSH1 0x4 PUSH2 0x322 JUMP JUMPDEST PUSH2 0x31E PUSH2 0x539 PUSH2 0x92E JUMP JUMPDEST CALLVALUE PUSH2 0x220 JUMPI PUSH2 0x319 PUSH2 0x964 CALLDATASIZE PUSH1 0x4 PUSH2 0x72E JUMP JUMPDEST PUSH2 0x2DF7 JUMP JUMPDEST PUSH2 0x24D SWAP1 PUSH2 0x62B JUMP JUMPDEST PUSH2 0x24D SWAP1 SLOAD PUSH2 0x969 JUMP JUMPDEST PUSH2 0x24D PUSH1 0x9 PUSH2 0x972 JUMP JUMPDEST CALLVALUE PUSH2 0x220 JUMPI PUSH2 0x996 CALLDATASIZE PUSH1 0x4 PUSH2 0x322 JUMP JUMPDEST PUSH2 0x31E PUSH2 0x471 PUSH2 0x97C JUMP JUMPDEST PUSH2 0x24D PUSH1 0x0 PUSH1 0x4 PUSH2 0x4A4 JUMP JUMPDEST CALLVALUE PUSH2 0x220 JUMPI PUSH2 0x9BD CALLDATASIZE PUSH1 0x4 PUSH2 0x322 JUMP JUMPDEST PUSH2 0x31E PUSH2 0x4D5 PUSH2 0x9A1 JUMP JUMPDEST PUSH2 0x24D PUSH1 0x0 PUSH1 0x2 PUSH2 0x4A4 JUMP JUMPDEST CALLVALUE PUSH2 0x220 JUMPI PUSH2 0x9E4 CALLDATASIZE PUSH1 0x4 PUSH2 0x322 JUMP JUMPDEST PUSH2 0x31E PUSH2 0x4D5 PUSH2 0x9C8 JUMP JUMPDEST PUSH1 0xFF DUP2 AND PUSH2 0x219 JUMP JUMPDEST SWAP1 POP CALLDATALOAD SWAP1 PUSH2 0x232 DUP3 PUSH2 0x9EF JUMP JUMPDEST PUSH1 0xE0 DUP2 DUP4 SUB SLT PUSH2 0x220 JUMPI PUSH2 0xA19 DUP3 DUP3 PUSH2 0x26C JUMP JUMPDEST SWAP3 PUSH2 0xA27 DUP4 PUSH1 0x20 DUP5 ADD PUSH2 0x26C JUMP JUMPDEST SWAP3 PUSH2 0xA35 DUP2 PUSH1 0x40 DUP6 ADD PUSH2 0x225 JUMP JUMPDEST SWAP3 PUSH2 0xA43 DUP3 PUSH1 0x60 DUP4 ADD PUSH2 0x225 JUMP JUMPDEST SWAP3 PUSH2 0x24D PUSH2 0xA54 DUP5 PUSH1 0x80 DUP6 ADD PUSH2 0x9F8 JUMP JUMPDEST SWAP4 PUSH2 0xA62 DUP2 PUSH1 0xA0 DUP7 ADD PUSH2 0x225 JUMP JUMPDEST SWAP4 PUSH1 0xC0 ADD PUSH2 0x225 JUMP JUMPDEST CALLVALUE PUSH2 0x220 JUMPI PUSH2 0x319 PUSH2 0xA7E CALLDATASIZE PUSH1 0x4 PUSH2 0xA05 JUMP JUMPDEST SWAP6 SWAP5 SWAP1 SWAP5 SWAP4 SWAP2 SWAP4 PUSH2 0x2CAF JUMP JUMPDEST PUSH2 0x7AE PUSH2 0x24D SWAP3 PUSH2 0xA9F PUSH1 0xC SWAP4 PUSH1 0x0 SWAP5 PUSH2 0x792 JUMP JUMPDEST PUSH2 0x792 JUMP JUMPDEST CALLVALUE PUSH2 0x220 JUMPI PUSH2 0x31E PUSH2 0x539 PUSH2 0xABA CALLDATASIZE PUSH1 0x4 PUSH2 0x689 JUMP JUMPDEST SWAP1 PUSH2 0xA8A JUMP JUMPDEST CALLVALUE PUSH2 0x220 JUMPI PUSH2 0xAD0 CALLDATASIZE PUSH1 0x4 PUSH2 0x322 JUMP JUMPDEST PUSH2 0x319 PUSH2 0x2626 JUMP JUMPDEST PUSH2 0x24D PUSH1 0x1 PUSH2 0x972 JUMP JUMPDEST PUSH32 0x4E487B7100000000000000000000000000000000000000000000000000000000 PUSH1 0x0 MSTORE PUSH1 0x41 PUSH1 0x4 MSTORE PUSH1 0x24 PUSH1 0x0 REVERT JUMPDEST SWAP1 PUSH1 0x1F ADD PUSH32 0xFFFFFFFFFFFFFFFFFFFFFFFFFFFFFFFFFFFFFFFFFFFFFFFFFFFFFFFFFFFFFFE0 AND DUP2 ADD SWAP1 DUP2 LT PUSH8 0xFFFFFFFFFFFFFFFF DUP3 GT OR PUSH2 0xB51 JUMPI PUSH1 0x40 MSTORE JUMP JUMPDEST PUSH2 0xAE2 JUMP JUMPDEST SWAP1 PUSH2 0x232 PUSH2 0xB63 PUSH1 0x40 MLOAD SWAP1 JUMP JUMPDEST SWAP3 DUP4 PUSH2 0xB11 JUMP JUMPDEST PUSH2 0x24D PUSH1 0x20 PUSH2 0xB56 JUMP JUMPDEST PUSH2 0x232 SWAP2 PUSH1 0x1 SWAP2 PUSH2 0xB8D PUSH2 0xB86 PUSH2 0xB6A JUMP JUMPDEST SWAP4 ISZERO ISZERO DUP5 MSTORE JUMP JUMPDEST PUSH2 0xCDA JUMP JUMPDEST PUSH2 0x24D SWAP1 PUSH1 0x8 SHR PUSH2 0x234 JUMP JUMPDEST PUSH2 0x24D SWAP1 SLOAD PUSH2 0xB92 JUMP JUMPDEST PUSH2 0x234 PUSH2 0x24D PUSH2 0x24D SWAP3 SWAP1 JUMP JUMPDEST PUSH2 0x24D SWAP1 PUSH2 0xBA8 JUMP JUMPDEST ISZERO PUSH2 0xBC5 JUMPI JUMP JUMPDEST PUSH1 0x40 MLOAD PUSH32 0x8C379A000000000000000000000000000000000000000000000000000000000 DUP2 MSTORE PUSH1 0x20 PUSH1 0x4 DUP3 ADD MSTORE PUSH1 0x1C PUSH1 0x24 DUP3 ADD MSTORE PUSH32 0x444558506169723A20414C52454144595F494E495449414C495A454400000000 PUSH1 0x44 DUP3 ADD MSTORE PUSH1 0x64 SWAP1 REVERT JUMPDEST SUB SWAP1 REVERT JUMPDEST SWAP1 PUSH21 0xFFFFFFFFFFFFFFFFFFFFFFFFFFFFFFFFFFFFFFFF00 SWAP1 PUSH1 0x8 SHL JUMPDEST SWAP2 DUP2 NOT AND SWAP2 AND OR SWAP1 JUMP JUMPDEST SWAP1 PUSH2 0xC5E PUSH2 0x24D PUSH2 0xC65 SWAP3 PUSH2 0x789 JUMP JUMPDEST DUP3 SLOAD PUSH2 0xC28 JUMP JUMPDEST SWAP1 SSTORE JUMP JUMPDEST SWAP1 PUSH20 0xFFFFFFFFFFFFFFFFFFFFFFFFFFFFFFFFFFFFFFFF SWAP1 PUSH2 0xC44 JUMP JUMPDEST SWAP1 PUSH2 0xC95 PUSH2 0x24D PUSH2 0xC65 SWAP3 PUSH2 0x789 JUMP JUMPDEST DUP3 SLOAD PUSH2 0xC69 JUMP JUMPDEST SWAP1 PUSH1 0xFF SWAP1 PUSH2 0xC44 JUMP JUMPDEST SWAP1 PUSH2 0xCB5 PUSH2 0x24D PUSH2 0xC65 SWAP3 ISZERO ISZERO SWAP1 JUMP JUMPDEST DUP3 SLOAD PUSH2 0xC9C JUMP JUMPDEST PUSH2 0x232 SWAP2 PUSH2 0xCCA SWAP1 MLOAD ISZERO ISZERO SWAP1 JUMP JUMPDEST SWAP1 PUSH2 0xCA5 JUMP JUMPDEST SWAP1 PUSH2 0x232 SWAP2 PUSH2 0xCBC JUMP JUMPDEST SWAP1 PUSH2 0xD26 PUSH2 0xD2D SWAP3 PUSH2 0xD1F PUSH2 0xCEF PUSH1 0x1 PUSH2 0xB9E JUMP JUMPDEST PUSH2 0xD19 PUSH2 0xCFF PUSH2 0x234 PUSH1 0x0 PUSH2 0xBB5 JUMP JUMPDEST SWAP2 PUSH20 0xFFFFFFFFFFFFFFFFFFFFFFFFFFFFFFFFFFFFFFFF AND SWAP1 JUMP JUMPDEST EQ PUSH2 0xBBE JUMP JUMPDEST PUSH1 0x1 PUSH2 0xC4E JUMP JUMPDEST PUSH1 0x2 PUSH2 0xC85 JUMP JUMPDEST PUSH2 0xD38 DUP2 PUSH1 0x9 PUSH2 0xCD0 JUMP JUMPDEST PUSH2 0xD76 PUSH32 0xB1102BF8599BADF4360419344E57744751C4D685C0864E807454E60F8E6ADDBC SWAP2 PUSH2 0xD66 PUSH1 0x40 MLOAD SWAP1 JUMP JUMPDEST SWAP2 DUP3 SWAP2 DUP3 SWAP1 MLOAD ISZERO ISZERO DUP2 MSTORE PUSH1 0x20 ADD SWAP1 JUMP JUMPDEST SUB SWAP1 LOG1 JUMP JUMPDEST PUSH2 0x24D SWAP1 PUSH2 0x234 JUMP JUMPDEST PUSH2 0x24D SWAP1 SLOAD PUSH2 0xD7B JUMP JUMPDEST ISZERO PUSH2 0xD95 JUMPI JUMP JUMPDEST PUSH1 0x40 MLOAD PUSH32 0x8C379A000000000000000000000000000000000000000000000000000000000 DUP2 MSTORE PUSH1 0x20 PUSH1 0x4 DUP3 ADD MSTORE PUSH1 0x12 PUSH1 0x24 DUP3 ADD MSTORE PUSH32 0x444558506169723A20464F5242494444454E0000000000000000000000000000 PUSH1 0x44 DUP3 ADD MSTORE PUSH1 0x64 SWAP1 REVERT JUMPDEST SWAP1 PUSH2 0x232 SWAP3 SWAP2 PUSH2 0xE14 CALLER PUSH2 0xE0E PUSH2 0xCFF PUSH2 0x234 PUSH1 0x4 PUSH2 0xD84 JUMP JUMPDEST EQ PUSH2 0xD8E JUMP JUMPDEST PUSH2 0xE62 JUMP JUMPDEST DUP1 ISZERO ISZERO PUSH2 0x219 JUMP JUMPDEST SWAP1 POP CALLDATALOAD SWAP1 PUSH2 0x232 DUP3 PUSH2 0xE19 JUMP JUMPDEST SWAP2 SWAP1 SWAP2 PUSH1 0x20 DUP2 DUP5 SUB SLT PUSH2 0x220 JUMPI PUSH2 0xE51 PUSH2 0xE48 PUSH1 0x20 PUSH2 0xB56 JUMP JUMPDEST SWAP4 PUSH1 0x0 SWAP3 PUSH2 0xE21 JUMP JUMPDEST SWAP1 DUP4 ADD MSTORE JUMP JUMPDEST PUSH2 0x24D SWAP1 CALLDATASIZE SWAP1 PUSH2 0xE2E JUMP JUMPDEST SWAP1 PUSH2 0xE6F PUSH2 0x232 SWAP4 PUSH2 0xE57 JUMP JUMPDEST SWAP2 PUSH2 0xCDA JUMP JUMPDEST SWAP1 PUSH2 0x232 SWAP3 SWAP2 PUSH2 0xDF4 JUMP JUMPDEST PUSH2 0xE88 PUSH2 0xEE2 JUMP JUMPDEST SWAP2 SWAP3 SWAP1 SWAP2 SWAP1 JUMP JUMPDEST PUSH2 0x24D SWAP1 JUMPDEST PUSH14 0xFFFFFFFFFFFFFFFFFFFFFFFFFFFF AND SWAP1 JUMP JUMPDEST PUSH2 0x24D SWAP1 SLOAD PUSH2 0xE8F JUMP JUMPDEST PUSH2 0x24D SWAP1 PUSH1 0x70 SHR PUSH2 0xE94 JUMP JUMPDEST PUSH2 0x24D SWAP1 SLOAD PUSH2 0xEB1 JUMP JUMPDEST PUSH2 0x24D SWAP1 PUSH1 0xE0 SHR JUMPDEST PUSH4 0xFFFFFFFF AND SWAP1 JUMP JUMPDEST PUSH2 0x24D SWAP1 SLOAD PUSH2 0xEC7 JUMP JUMPDEST PUSH2 0xEEC PUSH1 0x3 PUSH2 0xEA7 JUMP JUMPDEST SWAP1 PUSH2 0xEF7 PUSH1 0x3 PUSH2 0xEBD JUMP JUMPDEST SWAP1 PUSH2 0x24D PUSH1 0x3 PUSH2 0xED8 JUMP JUMPDEST SWAP1 PUSH2 0xF14 SWAP2 PUSH2 0xF0F PUSH2 0x1591 JUMP JUMPDEST PUSH2 0xF1D JUMP JUMPDEST SWAP1 PUSH2 0x232 PUSH2 0x15EA JUMP JUMPDEST SWAP1 PUSH2 0x24D SWAP2 PUSH2 0xF2A PUSH2 0x150F JUMP JUMPDEST SWAP1 PUSH2 0x24D SWAP2 PUSH2 0x1220 JUMP JUMPDEST SWAP1 POP MLOAD SWAP1 PUSH2 0x232 DUP3 PUSH2 0x217 JUMP JUMPDEST SWAP1 PUSH1 0x20 DUP3 DUP3 SUB SLT PUSH2 0x220 JUMPI PUSH2 0x24D SWAP2 PUSH2 0xF34 JUMP JUMPDEST PUSH1 0x40 MLOAD RETURNDATASIZE PUSH1 0x0 DUP3 RETURNDATACOPY RETURNDATASIZE SWAP1 REVERT JUMPDEST PUSH2 0x24D PUSH2 0x24D PUSH2 0x24D SWAP3 PUSH14 0xFFFFFFFFFFFFFFFFFFFFFFFFFFFF AND SWAP1 JUMP JUMPDEST PUSH32 0x4E487B7100000000000000000000000000000000000000000000000000000000 PUSH1 0x0 MSTORE PUSH1 0x11 PUSH1 0x4 MSTORE PUSH1 0x24 PUSH1 0x0 REVERT JUMPDEST SWAP2 SWAP1 DUP3 SUB SWAP2 DUP3 GT PUSH2 0xFBA JUMPI JUMP JUMPDEST PUSH2 0xF7E JUMP JUMPDEST ISZERO PUSH2 0xFC6 JUMPI JUMP JUMPDEST PUSH1 0x40 MLOAD PUSH32 0x8C379A000000000000000000000000000000000000000000000000000000000 DUP2 MSTORE PUSH1 0x20 PUSH1 0x4 DUP3 ADD MSTORE PUSH1 0x22 PUSH1 0x24 DUP3 ADD MSTORE PUSH32 0x444558506169723A20494E53554646494349454E545F494E5055545F414D4F55 PUSH1 0x44 DUP3 ADD MSTORE PUSH32 0x4E54000000000000000000000000000000000000000000000000000000000000 PUSH1 0x64 DUP3 ADD MSTORE PUSH1 0x84 SWAP1 REVERT JUMPDEST PUSH2 0x24D SWAP1 DUP2 JUMP JUMPDEST PUSH2 0x24D SWAP1 SLOAD PUSH2 0x104B JUMP JUMPDEST PUSH2 0xE94 PUSH2 0x24D PUSH2 0x24D SWAP3 SWAP1 JUMP JUMPDEST ISZERO PUSH2 0x1070 JUMPI JUMP JUMPDEST PUSH1 0x40 MLOAD PUSH32 0x8C379A000000000000000000000000000000000000000000000000000000000 DUP2 MSTORE PUSH1 0x20 PUSH1 0x4 DUP3 ADD MSTORE PUSH1 0x1E PUSH1 0x24 DUP3 ADD MSTORE PUSH32 0x444558506169723A20494E53554646494349454E545F52455345525645530000 PUSH1 0x44 DUP3 ADD MSTORE PUSH1 0x64 SWAP1 REVERT JUMPDEST SWAP2 SWAP1 SWAP2 DUP1 DUP4 MUL JUMPDEST SWAP3 DUP2 DUP5 DIV EQ SWAP1 ISZERO OR ISZERO PUSH2 0xFBA JUMPI JUMP JUMPDEST PUSH32 0x4E487B7100000000000000000000000000000000000000000000000000000000 PUSH1 0x0 MSTORE PUSH1 0x12 PUSH1 0x4 MSTORE PUSH1 0x24 PUSH1 0x0 REVERT JUMPDEST SWAP1 PUSH2 0x111E JUMP JUMPDEST SWAP2 SWAP1 JUMP JUMPDEST SWAP1 DUP2 ISZERO PUSH2 0x1129 JUMPI DIV SWAP1 JUMP JUMPDEST PUSH2 0x10E5 JUMP JUMPDEST ISZERO PUSH2 0x1135 JUMPI JUMP JUMPDEST PUSH1 0x40 MLOAD PUSH32 0x8C379A000000000000000000000000000000000000000000000000000000000 DUP2 MSTORE PUSH1 0x20 PUSH1 0x4 DUP3 ADD MSTORE PUSH1 0x26 PUSH1 0x24 DUP3 ADD MSTORE PUSH32 0x444558506169723A20494E53554646494349454E545F4C49515549444954595F PUSH1 0x44 DUP3 ADD MSTORE PUSH32 0x4D494E5445440000000000000000000000000000000000000000000000000000 PUSH1 0x64 DUP3 ADD MSTORE PUSH1 0x84 SWAP1 REVERT JUMPDEST ISZERO PUSH2 0x11C1 JUMPI JUMP JUMPDEST PUSH1 0x40 MLOAD PUSH32 0x8C379A000000000000000000000000000000000000000000000000000000000 DUP2 MSTORE PUSH1 0x20 PUSH1 0x4 DUP3 ADD MSTORE PUSH1 0x1C PUSH1 0x24 DUP3 ADD MSTORE PUSH32 0x444558506169723A204C49515549444954595F544F4F5F4C4152474500000000 PUSH1 0x44 DUP3 ADD MSTORE PUSH1 0x64 SWAP1 REVERT JUMPDEST POP SWAP1 PUSH2 0x122A PUSH2 0xEE2 JUMP JUMPDEST POP SWAP1 PUSH2 0x1241 PUSH2 0x123C PUSH2 0x123C PUSH1 0x1 PUSH2 0xB9E JUMP JUMPDEST PUSH2 0x789 JUMP JUMPDEST PUSH4 0x70A08231 PUSH2 0x124F ADDRESS PUSH2 0x789 JUMP JUMPDEST PUSH1 0x20 PUSH2 0x125A PUSH1 0x40 MLOAD SWAP1 JUMP JUMPDEST DUP1 SWAP5 PUSH2 0x1266 DUP6 PUSH1 0xE0 SHL SWAP1 JUMP JUMPDEST DUP3 MSTORE PUSH20 0xFFFFFFFFFFFFFFFFFFFFFFFFFFFFFFFFFFFFFFFF DUP5 AND PUSH1 0x4 DUP4 ADD MSTORE PUSH1 0x24 SWAP1 DUP3 SWAP1 GAS STATICCALL SWAP1 DUP2 ISZERO PUSH2 0x14DF JUMPI PUSH2 0x12F1 SWAP4 PUSH1 0x0 SWAP3 PUSH2 0x14E4 JUMPI JUMPDEST POP PUSH1 0x20 SWAP2 SWAP3 PUSH2 0x12CD PUSH2 0x12B6 PUSH2 0x123C PUSH2 0x123C PUSH1 0x2 PUSH2 0xD84 JUMP JUMPDEST SWAP2 PUSH2 0x12C0 PUSH1 0x40 MLOAD SWAP1 JUMP JUMPDEST SWAP7 DUP8 SWAP5 DUP6 SWAP4 DUP5 SWAP4 PUSH1 0xE0 SHL SWAP1 JUMP JUMPDEST DUP4 MSTORE PUSH20 0xFFFFFFFFFFFFFFFFFFFFFFFFFFFFFFFFFFFFFFFF AND PUSH1 0x4 DUP4 ADD MSTORE PUSH1 0x24 DUP3 ADD SWAP1 JUMP JUMPDEST SUB SWAP2 GAS STATICCALL SWAP2 DUP3 ISZERO PUSH2 0x14DF JUMPI PUSH1 0x0 SWAP3 PUSH2 0x14AF JUMPI JUMPDEST POP PUSH2 0x1317 PUSH2 0x1311 DUP5 PUSH2 0xF61 JUMP JUMPDEST DUP3 PUSH2 0xFAD JUMP JUMPDEST PUSH2 0x1329 PUSH2 0x1323 DUP7 PUSH2 0xF61 JUMP JUMPDEST DUP5 PUSH2 0xFAD JUMP JUMPDEST SWAP1 PUSH2 0x1334 PUSH1 0x0 PUSH2 0x916 JUMP JUMPDEST DUP2 GT DUP1 PUSH2 0x1498 JUMPI JUMPDEST PUSH2 0x1345 SWAP1 PUSH2 0xFBF JUMP JUMPDEST PUSH2 0x134F PUSH1 0x8 PUSH2 0x1052 JUMP JUMPDEST PUSH2 0x1359 PUSH1 0x0 PUSH2 0x916 JUMP JUMPDEST DUP2 SUB PUSH2 0x1400 JUMPI POP PUSH2 0x13A5 SWAP8 PUSH2 0x1380 PUSH2 0x137B PUSH2 0x232 SWAP9 SWAP8 SWAP7 SWAP6 SWAP5 PUSH2 0x13FB SWAP5 PUSH2 0x10CF JUMP JUMPDEST PUSH2 0x26F5 JUMP JUMPDEST SWAP1 PUSH2 0x1393 PUSH2 0x138C PUSH2 0x923 JUMP JUMPDEST DUP1 SWAP4 PUSH2 0xFAD JUMP JUMPDEST SWAP10 DUP11 SWAP3 PUSH2 0x13A0 PUSH1 0x0 PUSH2 0xBB5 JUMP JUMPDEST PUSH2 0x262E JUMP JUMPDEST PUSH2 0x13B9 PUSH2 0x13B2 PUSH1 0x0 PUSH2 0x916 JUMP JUMPDEST DUP4 GT PUSH2 0x112E JUMP JUMPDEST PUSH2 0x13A0 PUSH2 0x13F3 PUSH2 0x24D PUSH32 0xFFFFFFFFFFFFFFFFFFFFFFFFFFFFFFFFFFFFFFFFFFFFFFFFFFFFFFFFFFFFFFFF PUSH2 0x13ED PUSH1 0x8 PUSH2 0x1052 JUMP JUMPDEST SWAP1 PUSH2 0xFAD JUMP JUMPDEST DUP4 GT ISZERO PUSH2 0x11BA JUMP JUMPDEST PUSH2 0x17E6 JUMP JUMPDEST DUP6 SWAP5 SWAP4 SWAP3 PUSH2 0x1475 PUSH2 0x146C DUP4 PUSH2 0x1466 PUSH2 0x1457 PUSH2 0x147B SWAP7 PUSH2 0x13FB SWAP9 PUSH2 0x1452 PUSH2 0x232 SWAP16 SWAP15 DUP16 SWAP1 PUSH2 0x1444 PUSH2 0x1430 PUSH1 0x0 PUSH2 0x105C JUMP JUMPDEST SWAP2 PUSH14 0xFFFFFFFFFFFFFFFFFFFFFFFFFFFF AND SWAP1 JUMP JUMPDEST GT SWAP1 DUP2 PUSH2 0x1482 JUMPI JUMPDEST POP PUSH2 0x1069 JUMP JUMPDEST PUSH2 0x10CF JUMP JUMPDEST PUSH2 0x1460 DUP12 PUSH2 0xF61 JUMP JUMPDEST SWAP1 PUSH2 0x1114 JUMP JUMPDEST SWAP4 PUSH2 0x10CF JUMP JUMPDEST PUSH2 0x1460 DUP10 PUSH2 0xF61 JUMP JUMPDEST SWAP1 PUSH2 0x26E3 JUMP JUMPDEST DUP1 SWAP9 PUSH2 0x13A5 JUMP JUMPDEST SWAP1 POP PUSH2 0x1491 PUSH2 0x1430 PUSH1 0x0 PUSH2 0x105C JUMP JUMPDEST GT DUP16 PUSH2 0x144C JUMP JUMPDEST POP PUSH2 0x1345 PUSH2 0x14A6 PUSH1 0x0 PUSH2 0x916 JUMP JUMPDEST DUP4 GT SWAP1 POP PUSH2 0x133C JUMP JUMPDEST PUSH2 0x14D1 SWAP2 SWAP3 POP PUSH1 0x20 RETURNDATASIZE DUP2 GT PUSH2 0x14D8 JUMPI JUMPDEST PUSH2 0x14C9 DUP2 DUP4 PUSH2 0xB11 JUMP JUMPDEST DUP2 ADD SWAP1 PUSH2 0xF41 JUMP JUMPDEST SWAP1 CODESIZE PUSH2 0x1304 JUMP JUMPDEST POP RETURNDATASIZE PUSH2 0x14BF JUMP JUMPDEST PUSH2 0xF55 JUMP JUMPDEST PUSH1 0x20 SWAP3 POP PUSH2 0x14FE SWAP1 DUP4 RETURNDATASIZE DUP2 GT PUSH2 0x14D8 JUMPI PUSH2 0x14C9 DUP2 DUP4 PUSH2 0xB11 JUMP JUMPDEST SWAP2 PUSH2 0x129E JUMP JUMPDEST PUSH2 0x24D SWAP1 PUSH1 0x0 PUSH2 0xF02 JUMP JUMPDEST PUSH2 0x1517 PUSH2 0xAD8 JUMP JUMPDEST PUSH2 0x151D JUMPI JUMP JUMPDEST PUSH1 0x40 MLOAD PUSH32 0xD93C066500000000000000000000000000000000000000000000000000000000 DUP2 MSTORE PUSH1 0x4 SWAP1 REVERT JUMPDEST PUSH2 0x24D PUSH1 0x2 PUSH2 0x916 JUMP JUMPDEST SWAP1 PUSH32 0xFFFFFFFFFFFFFFFFFFFFFFFFFFFFFFFFFFFFFFFFFFFFFFFFFFFFFFFFFFFFFFFF SWAP1 PUSH2 0xC44 JUMP JUMPDEST SWAP1 PUSH2 0x158A PUSH2 0x24D PUSH2 0xC65 SWAP3 PUSH2 0x916 JUMP JUMPDEST DUP3 SLOAD PUSH2 0x1552 JUMP JUMPDEST PUSH2 0x159B PUSH1 0x0 PUSH2 0x1052 JUMP JUMPDEST PUSH2 0x15A3 PUSH2 0x1548 JUMP JUMPDEST SWAP1 DUP2 EQ PUSH2 0x15B5 JUMPI PUSH2 0x232 SWAP1 PUSH1 0x0 PUSH2 0x157A JUMP JUMPDEST PUSH1 0x40 MLOAD PUSH32 0x3EE5AEB500000000000000000000000000000000000000000000000000000000 DUP2 MSTORE PUSH1 0x4 SWAP1 REVERT JUMPDEST PUSH2 0x24D PUSH1 0x1 PUSH2 0x916 JUMP JUMPDEST PUSH2 0x232 PUSH2 0x15F5 PUSH2 0x15E0 JUMP JUMPDEST PUSH1 0x0 PUSH2 0x157A JUMP JUMPDEST ISZERO PUSH2 0x1603 JUMPI JUMP JUMPDEST PUSH1 0x40 MLOAD PUSH32 0x8C379A000000000000000000000000000000000000000000000000000000000 DUP2 MSTORE PUSH1 0x20 PUSH1 0x4 DUP3 ADD MSTORE PUSH1 0x11 PUSH1 0x24 DUP3 ADD MSTORE PUSH32 0x444558506169723A204F564552464C4F57000000000000000000000000000000 PUSH1 0x44 DUP3 ADD MSTORE PUSH1 0x64 SWAP1 REVERT JUMPDEST DUP2 ISZERO PUSH2 0x1129 JUMPI MOD SWAP1 JUMP JUMPDEST PUSH2 0xECF PUSH2 0x24D PUSH2 0x24D SWAP3 SWAP1 JUMP JUMPDEST PUSH4 0xFFFFFFFF SWAP1 DUP2 AND SWAP2 AND SWAP1 SUB SWAP1 PUSH4 0xFFFFFFFF DUP3 GT PUSH2 0xFBA JUMPI JUMP JUMPDEST PUSH2 0x24D PUSH2 0x24D PUSH2 0x24D SWAP3 PUSH28 0xFFFFFFFFFFFFFFFFFFFFFFFFFFFFFFFFFFFFFFFFFFFFFFFFFFFFFFFF AND SWAP1 JUMP JUMPDEST PUSH2 0x24D PUSH2 0x24D PUSH2 0x24D SWAP3 PUSH4 0xFFFFFFFF AND SWAP1 JUMP JUMPDEST SWAP2 SWAP1 DUP3 ADD DUP1 SWAP3 GT PUSH2 0xFBA JUMPI JUMP JUMPDEST SWAP1 PUSH14 0xFFFFFFFFFFFFFFFFFFFFFFFFFFFF SWAP1 PUSH2 0xC44 JUMP JUMPDEST PUSH2 0xE94 PUSH2 0x24D PUSH2 0x24D SWAP3 PUSH14 0xFFFFFFFFFFFFFFFFFFFFFFFFFFFF AND SWAP1 JUMP JUMPDEST SWAP1 PUSH2 0x1721 PUSH2 0x24D PUSH2 0xC65 SWAP3 PUSH2 0x16F4 JUMP JUMPDEST DUP3 SLOAD PUSH2 0x16DE JUMP JUMPDEST SWAP1 PUSH28 0xFFFFFFFFFFFFFFFFFFFFFFFFFFFF0000000000000000000000000000 SWAP1 PUSH1 0x70 SHL PUSH2 0xC44 JUMP JUMPDEST SWAP1 PUSH2 0x175F PUSH2 0x24D PUSH2 0xC65 SWAP3 PUSH2 0x16F4 JUMP JUMPDEST DUP3 SLOAD PUSH2 0x1728 JUMP JUMPDEST SWAP1 PUSH32 0xFFFFFFFF00000000000000000000000000000000000000000000000000000000 SWAP1 PUSH1 0xE0 SHL PUSH2 0xC44 JUMP JUMPDEST PUSH2 0xECF PUSH2 0x24D PUSH2 0x24D SWAP3 PUSH4 0xFFFFFFFF AND SWAP1 JUMP JUMPDEST SWAP1 PUSH2 0x17B4 PUSH2 0x24D PUSH2 0xC65 SWAP3 PUSH2 0x1791 JUMP JUMPDEST DUP3 SLOAD PUSH2 0x1766 JUMP JUMPDEST PUSH2 0x3DE SWAP1 PUSH2 0xF61 JUMP JUMPDEST SWAP2 PUSH1 0x20 PUSH2 0x232 SWAP3 SWAP5 SWAP4 PUSH2 0x17DF PUSH1 0x40 DUP3 ADD SWAP7 PUSH1 0x0 DUP4 ADD SWAP1 PUSH2 0x17BB JUMP JUMPDEST ADD SWAP1 PUSH2 0x17BB JUMP JUMPDEST PUSH2 0x1899 SWAP2 PUSH2 0x188D PUSH2 0x1886 PUSH2 0x1892 SWAP4 PUSH2 0x18A0 SWAP8 PUSH2 0x1823 PUSH14 0xFFFFFFFFFFFFFFFFFFFFFFFFFFFF PUSH2 0x1813 DUP2 PUSH2 0xF61 JUMP JUMPDEST DUP5 GT ISZERO SWAP1 DUP2 PUSH2 0x19B6 JUMPI JUMPDEST POP PUSH2 0x15FC JUMP JUMPDEST PUSH2 0x1843 PUSH2 0x183E TIMESTAMP PUSH2 0x1838 PUSH5 0x100000000 PUSH2 0x916 JUMP JUMPDEST SWAP1 PUSH2 0x1662 JUMP JUMPDEST PUSH2 0x166C JUMP JUMPDEST SWAP8 PUSH2 0x1857 PUSH2 0x1851 PUSH1 0x3 PUSH2 0xED8 JUMP JUMPDEST DUP11 PUSH2 0x1679 JUMP JUMPDEST SWAP2 PUSH1 0x0 PUSH2 0x1863 DUP2 PUSH2 0x166C JUMP JUMPDEST PUSH4 0xFFFFFFFF DUP6 AND GT SWAP1 DUP2 PUSH2 0x1992 JUMPI JUMPDEST DUP2 PUSH2 0x196F JUMPI JUMPDEST POP PUSH2 0x18EB JUMPI JUMPDEST POP POP POP PUSH2 0x105C JUMP JUMPDEST PUSH1 0x3 PUSH2 0x1711 JUMP JUMPDEST PUSH2 0x105C JUMP JUMPDEST PUSH1 0x3 PUSH2 0x174F JUMP JUMPDEST PUSH1 0x3 PUSH2 0x17A4 JUMP JUMPDEST PUSH2 0x18AA PUSH1 0x3 PUSH2 0xEA7 JUMP JUMPDEST PUSH2 0x18B4 PUSH1 0x3 PUSH2 0xEBD JUMP JUMPDEST PUSH32 0xCF2AA50876CDFBB541206F89AF0EE78D44A2ABF8D328E37FA4917F982149848A SWAP2 PUSH2 0xD76 PUSH2 0x18E2 PUSH1 0x40 MLOAD SWAP1 JUMP JUMPDEST SWAP3 DUP4 SWAP3 DUP4 PUSH2 0x17C4 JUMP JUMPDEST PUSH2 0x1967 SWAP3 PUSH2 0x192F PUSH2 0x1950 PUSH2 0x1921 DUP5 PUSH2 0x191C DUP8 PUSH2 0x194B PUSH2 0x1944 PUSH2 0x1935 PUSH2 0x1926 PUSH2 0x1921 PUSH2 0x1960 SWAP14 PUSH2 0x191C PUSH2 0x1956 SWAP15 PUSH2 0x2FF7 JUMP JUMPDEST PUSH2 0x3041 JUMP JUMPDEST PUSH2 0x1693 JUMP JUMPDEST PUSH2 0x192F DUP12 PUSH2 0x16BE JUMP JUMPDEST SWAP1 PUSH2 0x10CF JUMP JUMPDEST PUSH2 0x193F PUSH1 0x5 PUSH2 0x1052 JUMP JUMPDEST PUSH2 0x16D1 JUMP JUMPDEST PUSH1 0x5 PUSH2 0x157A JUMP JUMPDEST PUSH2 0x2FF7 JUMP JUMPDEST SWAP2 PUSH2 0x16BE JUMP JUMPDEST PUSH2 0x193F PUSH1 0x6 PUSH2 0x1052 JUMP JUMPDEST PUSH1 0x6 PUSH2 0x157A JUMP JUMPDEST CODESIZE DUP1 DUP1 PUSH2 0x187E JUMP JUMPDEST PUSH2 0x1979 SWAP2 POP PUSH2 0x105C JUMP JUMPDEST PUSH14 0xFFFFFFFFFFFFFFFFFFFFFFFFFFFF DUP3 AND EQ ISZERO CODESIZE PUSH2 0x1878 JUMP JUMPDEST SWAP1 POP PUSH2 0x199D DUP2 PUSH2 0x105C JUMP JUMPDEST PUSH14 0xFFFFFFFFFFFFFFFFFFFFFFFFFFFF DUP5 AND EQ ISZERO SWAP1 PUSH2 0x1872 JUMP JUMPDEST PUSH2 0x19C0 SWAP2 POP PUSH2 0xF61 JUMP JUMPDEST DUP7 GT ISZERO CODESIZE PUSH2 0x181D JUMP JUMPDEST SWAP1 PUSH2 0x19DC SWAP3 SWAP2 PUSH2 0x19D7 PUSH2 0x1591 JUMP JUMPDEST PUSH2 0x19E6 JUMP JUMPDEST SWAP1 SWAP2 PUSH2 0x232 PUSH2 0x15EA JUMP JUMPDEST SWAP1 PUSH2 0x2F9 SWAP3 SWAP2 PUSH2 0x19F4 PUSH2 0x150F JUMP JUMPDEST SWAP1 PUSH2 0x2F9 SWAP3 SWAP2 PUSH2 0x1A8B JUMP JUMPDEST ISZERO PUSH2 0x1A06 JUMPI JUMP JUMPDEST PUSH1 0x40 MLOAD PUSH32 0x8C379A000000000000000000000000000000000000000000000000000000000 DUP2 MSTORE PUSH1 0x20 PUSH1 0x4 DUP3 ADD MSTORE PUSH1 0x26 PUSH1 0x24 DUP3 ADD MSTORE PUSH32 0x444558506169723A20494E53554646494349454E545F4C49515549444954595F PUSH1 0x44 DUP3 ADD MSTORE PUSH32 0x4255524E45440000000000000000000000000000000000000000000000000000 PUSH1 0x64 DUP3 ADD MSTORE PUSH1 0x84 SWAP1 REVERT JUMPDEST SWAP3 SWAP2 SWAP3 POP POP PUSH2 0x1A98 PUSH2 0xEE2 JUMP JUMPDEST POP SWAP2 SWAP1 PUSH2 0x1AA5 PUSH1 0x1 PUSH2 0xB9E JUMP JUMPDEST SWAP3 PUSH2 0x1AB9 PUSH2 0x1AB3 PUSH1 0x2 PUSH2 0xD84 JUMP JUMPDEST SWAP5 PUSH2 0x789 JUMP JUMPDEST SWAP2 PUSH2 0x1AC3 DUP4 PUSH2 0x789 JUMP JUMPDEST SWAP3 PUSH4 0x70A08231 SWAP1 PUSH2 0x1AD3 ADDRESS PUSH2 0x789 JUMP JUMPDEST PUSH1 0x40 MLOAD SWAP8 PUSH2 0x1AE1 DUP5 PUSH1 0xE0 SHL SWAP1 JUMP JUMPDEST DUP10 MSTORE PUSH20 0xFFFFFFFFFFFFFFFFFFFFFFFFFFFFFFFFFFFFFFFF DUP3 AND PUSH1 0x4 DUP11 ADD MSTORE PUSH1 0x20 DUP10 PUSH1 0x24 DUP2 DUP11 GAS STATICCALL SWAP9 DUP10 ISZERO PUSH2 0x14DF JUMPI PUSH1 0x0 SWAP10 PUSH2 0x1CFC JUMPI JUMPDEST POP PUSH2 0x1B21 SWAP1 PUSH2 0x789 JUMP JUMPDEST PUSH2 0x1B2A DUP2 PUSH2 0x789 JUMP JUMPDEST SWAP3 PUSH2 0x1B34 PUSH1 0x40 MLOAD SWAP1 JUMP JUMPDEST SWAP11 PUSH2 0x1B3F DUP7 PUSH1 0xE0 SHL SWAP1 JUMP JUMPDEST DUP13 MSTORE PUSH20 0xFFFFFFFFFFFFFFFFFFFFFFFFFFFFFFFFFFFFFFFF DUP5 AND PUSH1 0x4 DUP14 ADD MSTORE PUSH1 0x20 DUP13 PUSH1 0x24 DUP2 DUP9 GAS STATICCALL SWAP12 DUP13 ISZERO PUSH2 0x14DF JUMPI PUSH1 0x0 SWAP13 PUSH2 0x1CDC JUMPI JUMPDEST POP PUSH2 0x1B81 DUP5 PUSH1 0x7 PUSH2 0x792 JUMP JUMPDEST PUSH2 0x1B8A SWAP1 PUSH2 0x1052 JUMP JUMPDEST SWAP3 PUSH2 0x1B95 PUSH1 0x8 PUSH2 0x1052 JUMP JUMPDEST PUSH2 0x1BA0 DUP2 SWAP14 DUP7 PUSH2 0x10CF JUMP JUMPDEST SWAP1 PUSH2 0x1BAA SWAP2 PUSH2 0x1114 JUMP JUMPDEST SWAP12 DUP13 SWAP14 PUSH2 0x1BB7 SWAP1 DUP7 PUSH2 0x10CF JUMP JUMPDEST SWAP1 PUSH2 0x1BC1 SWAP2 PUSH2 0x1114 JUMP JUMPDEST SWAP3 DUP4 SWAP13 DUP4 PUSH1 0x0 SWAP3 PUSH2 0x1BD1 DUP5 PUSH2 0x916 JUMP JUMPDEST DUP4 GT DUP1 SWAP9 PUSH2 0x1BEF PUSH2 0x1BFA SWAP11 PUSH2 0x1BF5 SWAP8 PUSH2 0x1BF5 SWAP5 PUSH2 0x1CCA JUMPI JUMPDEST POP PUSH2 0x19FF JUMP JUMPDEST DUP11 PUSH2 0x26B7 JUMP JUMPDEST PUSH2 0x1D94 JUMP JUMPDEST PUSH1 0x20 PUSH2 0x1C05 PUSH1 0x40 MLOAD SWAP1 JUMP JUMPDEST DUP1 SWAP8 PUSH2 0x1C11 DUP7 PUSH1 0xE0 SHL SWAP1 JUMP JUMPDEST DUP3 MSTORE PUSH20 0xFFFFFFFFFFFFFFFFFFFFFFFFFFFFFFFFFFFFFFFF DUP5 AND PUSH1 0x4 DUP4 ADD MSTORE PUSH1 0x24 SWAP1 DUP3 SWAP1 GAS STATICCALL SWAP2 DUP3 ISZERO PUSH2 0x14DF JUMPI PUSH2 0x1C69 SWAP7 PUSH1 0x0 SWAP4 PUSH2 0x1CA6 JUMPI JUMPDEST POP PUSH2 0x12CD DUP4 SWAP5 PUSH1 0x20 SWAP5 POP PUSH2 0x1C5C PUSH1 0x40 MLOAD SWAP1 JUMP JUMPDEST SWAP9 DUP10 SWAP5 DUP6 SWAP4 DUP5 SWAP4 PUSH1 0xE0 SHL SWAP1 JUMP JUMPDEST SUB SWAP2 GAS STATICCALL SWAP1 DUP2 ISZERO PUSH2 0x14DF JUMPI PUSH2 0x232 SWAP5 PUSH1 0x0 SWAP3 PUSH2 0x1C86 JUMPI JUMPDEST POP PUSH2 0x17E6 JUMP JUMPDEST PUSH2 0x1C9F SWAP2 SWAP3 POP PUSH1 0x20 RETURNDATASIZE DUP2 GT PUSH2 0x14D8 JUMPI PUSH2 0x14C9 DUP2 DUP4 PUSH2 0xB11 JUMP JUMPDEST SWAP1 CODESIZE PUSH2 0x1C80 JUMP JUMPDEST PUSH1 0x20 SWAP4 POP PUSH2 0x1CC3 PUSH2 0x12CD SWAP2 DUP6 RETURNDATASIZE DUP2 GT PUSH2 0x14D8 JUMPI PUSH2 0x14C9 DUP2 DUP4 PUSH2 0xB11 JUMP JUMPDEST SWAP4 POP PUSH2 0x1C49 JUMP JUMPDEST PUSH2 0x1CD4 SWAP2 POP PUSH2 0x916 JUMP JUMPDEST DUP11 GT CODESIZE PUSH2 0x1BE9 JUMP JUMPDEST PUSH2 0x1CF5 SWAP2 SWAP13 POP PUSH1 0x20 RETURNDATASIZE DUP2 GT PUSH2 0x14D8 JUMPI PUSH2 0x14C9 DUP2 DUP4 PUSH2 0xB11 JUMP JUMPDEST SWAP11 CODESIZE PUSH2 0x1B75 JUMP JUMPDEST PUSH2 0x1B21 SWAP2 SWAP10 POP PUSH2 0x1D19 SWAP1 PUSH1 0x20 RETURNDATASIZE DUP2 GT PUSH2 0x14D8 JUMPI PUSH2 0x14C9 DUP2 DUP4 PUSH2 0xB11 JUMP JUMPDEST SWAP9 SWAP1 PUSH2 0x1B17 JUMP JUMPDEST PUSH2 0x2F9 SWAP1 PUSH1 0x0 DUP1 PUSH2 0x19C9 JUMP JUMPDEST PUSH2 0x1D45 PUSH2 0x1D3F PUSH2 0x24D SWAP3 PUSH4 0xFFFFFFFF AND SWAP1 JUMP JUMPDEST PUSH1 0xE0 SHL SWAP1 JUMP JUMPDEST PUSH32 0xFFFFFFFF00000000000000000000000000000000000000000000000000000000 AND SWAP1 JUMP JUMPDEST PUSH20 0xFFFFFFFFFFFFFFFFFFFFFFFFFFFFFFFFFFFFFFFF SWAP1 SWAP2 AND DUP2 MSTORE PUSH1 0x40 DUP2 ADD SWAP3 SWAP2 PUSH2 0x232 SWAP2 PUSH1 0x20 ADD MSTORE JUMP JUMPDEST PUSH2 0x1DD7 PUSH1 0x4 SWAP3 PUSH2 0x1DC8 PUSH2 0x232 SWAP6 PUSH2 0x1DAE PUSH4 0xA9059CBB PUSH2 0x1D2C JUMP JUMPDEST SWAP3 PUSH2 0x1DB8 PUSH1 0x40 MLOAD SWAP1 JUMP JUMPDEST SWAP7 DUP8 SWAP5 PUSH1 0x20 DUP7 ADD SWAP1 DUP2 MSTORE ADD PUSH2 0x1D6A JUMP JUMPDEST PUSH1 0x20 DUP3 ADD DUP2 SUB DUP3 MSTORE SUB DUP4 PUSH2 0xB11 JUMP JUMPDEST SWAP1 PUSH1 0x0 PUSH1 0x20 SWAP2 PUSH2 0x1DE5 PUSH1 0x0 SWAP1 JUMP JUMPDEST POP DUP3 DUP2 MLOAD SWAP2 ADD DUP3 DUP6 GAS CALL ISZERO PUSH2 0xF55 JUMPI PUSH1 0x0 DUP1 MLOAD RETURNDATASIZE PUSH2 0x1E05 PUSH2 0x111A DUP5 PUSH2 0x916 JUMP JUMPDEST SUB PUSH2 0x1E83 JUMPI POP PUSH2 0x1E21 PUSH2 0x111A PUSH2 0x1E1A DUP5 PUSH2 0x789 JUMP JUMPDEST EXTCODESIZE SWAP3 PUSH2 0x916 JUMP JUMPDEST EQ JUMPDEST PUSH2 0x1E2A JUMPI POP JUMP JUMPDEST PUSH2 0x1E36 PUSH2 0xC24 SWAP2 PUSH2 0x789 JUMP JUMPDEST PUSH1 0x40 MLOAD SWAP2 DUP3 SWAP2 PUSH32 0x5274AFE700000000000000000000000000000000000000000000000000000000 DUP4 MSTORE PUSH1 0x4 DUP4 ADD PUSH20 0xFFFFFFFFFFFFFFFFFFFFFFFFFFFFFFFFFFFFFFFF SWAP1 SWAP2 AND DUP2 MSTORE PUSH1 0x20 ADD SWAP1 JUMP JUMPDEST SWAP1 POP PUSH2 0x1E92 PUSH2 0x111A PUSH1 0x1 PUSH2 0x916 JUMP JUMPDEST EQ ISZERO PUSH2 0x1E23 JUMP JUMPDEST SWAP1 PUSH2 0x1EAE SWAP5 SWAP4 SWAP3 SWAP2 PUSH2 0x1EA9 PUSH2 0x1591 JUMP JUMPDEST PUSH2 0x1EB6 JUMP JUMPDEST PUSH2 0x232 PUSH2 0x15EA JUMP JUMPDEST SWAP1 PUSH2 0x232 SWAP5 SWAP4 SWAP3 SWAP2 PUSH2 0x1EC6 PUSH2 0x150F JUMP JUMPDEST SWAP1 PUSH2 0x232 SWAP5 SWAP4 SWAP3 SWAP2 PUSH2 0x210C JUMP JUMPDEST ISZERO PUSH2 0x1EDA JUMPI JUMP JUMPDEST PUSH1 0x40 MLOAD PUSH32 0x8C379A000000000000000000000000000000000000000000000000000000000 DUP2 MSTORE PUSH1 0x20 PUSH1 0x4 DUP3 ADD MSTORE PUSH1 0x23 PUSH1 0x24 DUP3 ADD MSTORE PUSH32 0x444558506169723A20494E53554646494349454E545F4F55545055545F414D4F PUSH1 0x44 DUP3 ADD MSTORE PUSH32 0x554E540000000000000000000000000000000000000000000000000000000000 PUSH1 0x64 DUP3 ADD MSTORE PUSH1 0x84 SWAP1 REVERT JUMPDEST ISZERO PUSH2 0x1F66 JUMPI JUMP JUMPDEST PUSH1 0x40 MLOAD PUSH32 0x8C379A000000000000000000000000000000000000000000000000000000000 DUP2 MSTORE PUSH1 0x20 PUSH1 0x4 DUP3 ADD MSTORE PUSH1 0x1F PUSH1 0x24 DUP3 ADD MSTORE PUSH32 0x444558506169723A20494E53554646494349454E545F4C495155494449545900 PUSH1 0x44 DUP3 ADD MSTORE PUSH1 0x64 SWAP1 REVERT JUMPDEST ISZERO PUSH2 0x1FCC JUMPI JUMP JUMPDEST PUSH1 0x40 MLOAD PUSH32 0x8C379A000000000000000000000000000000000000000000000000000000000 DUP2 MSTORE PUSH1 0x20 PUSH1 0x4 DUP3 ADD MSTORE PUSH1 0x13 PUSH1 0x24 DUP3 ADD MSTORE PUSH32 0x444558506169723A20494E56414C49445F544F00000000000000000000000000 PUSH1 0x44 DUP3 ADD MSTORE PUSH1 0x64 SWAP1 REVERT JUMPDEST SWAP1 DUP3 PUSH1 0x0 SWAP4 SWAP3 DUP3 CALLDATACOPY ADD MSTORE JUMP JUMPDEST SWAP2 SWAP1 PUSH2 0x37A DUP2 PUSH2 0x204E DUP2 PUSH2 0x3A2 SWAP6 PUSH1 0x20 SWAP2 DUP2 MSTORE ADD SWAP1 JUMP JUMPDEST DUP1 SWAP6 PUSH2 0x202B JUMP JUMPDEST SWAP1 SWAP4 SWAP2 PUSH2 0x24D SWAP6 SWAP4 PUSH2 0x2092 PUSH2 0x2099 SWAP3 PUSH2 0x208B PUSH1 0x80 DUP7 ADD SWAP9 PUSH1 0x0 DUP8 ADD SWAP1 PUSH20 0xFFFFFFFFFFFFFFFFFFFFFFFFFFFFFFFFFFFFFFFF AND SWAP1 MSTORE JUMP JUMPDEST PUSH1 0x20 DUP6 ADD MSTORE JUMP JUMPDEST PUSH1 0x40 DUP4 ADD MSTORE JUMP JUMPDEST PUSH1 0x60 DUP2 DUP6 SUB SWAP2 ADD MSTORE PUSH2 0x2037 JUMP JUMPDEST ISZERO PUSH2 0x20AD JUMPI JUMP JUMPDEST PUSH1 0x40 MLOAD PUSH32 0x8C379A000000000000000000000000000000000000000000000000000000000 DUP2 MSTORE PUSH1 0x20 PUSH1 0x4 DUP3 ADD MSTORE PUSH1 0xA PUSH1 0x24 DUP3 ADD MSTORE PUSH32 0x444558506169723A204B00000000000000000000000000000000000000000000 PUSH1 0x44 DUP3 ADD MSTORE PUSH1 0x64 SWAP1 REVERT JUMPDEST SWAP4 SWAP3 SWAP2 SWAP3 PUSH1 0x0 PUSH2 0x211B DUP2 PUSH2 0x916 JUMP JUMPDEST DUP7 GT SWAP2 DUP3 DUP4 ISZERO PUSH2 0x2524 JUMPI JUMPDEST PUSH2 0x212F SWAP1 PUSH2 0x1ED3 JUMP JUMPDEST PUSH2 0x2137 PUSH2 0xEE2 JUMP JUMPDEST POP SWAP7 SWAP1 SWAP6 PUSH2 0x2144 DUP8 PUSH2 0xF61 JUMP JUMPDEST DUP10 LT DUP1 PUSH2 0x250E JUMPI JUMPDEST PUSH2 0x2155 SWAP1 PUSH2 0x1F5F JUMP JUMPDEST PUSH2 0x215F PUSH1 0x1 PUSH2 0xB9E JUMP JUMPDEST SWAP2 PUSH2 0x216A PUSH1 0x2 PUSH2 0xD84 JUMP JUMPDEST SWAP6 PUSH20 0xFFFFFFFFFFFFFFFFFFFFFFFFFFFFFFFFFFFFFFFF DUP5 AND PUSH20 0xFFFFFFFFFFFFFFFFFFFFFFFFFFFFFFFFFFFFFFFF DUP4 AND EQ ISZERO DUP1 PUSH2 0x24EB JUMPI JUMPDEST PUSH2 0x21AA SWAP1 PUSH2 0x1FC5 JUMP JUMPDEST PUSH2 0x24D8 JUMPI JUMPDEST PUSH2 0x21B8 DUP6 PUSH2 0x916 JUMP JUMPDEST DUP8 GT PUSH2 0x24C5 JUMPI JUMPDEST DUP4 PUSH2 0x21CC PUSH2 0x111A DUP8 PUSH2 0x916 JUMP JUMPDEST GT PUSH2 0x242F JUMPI JUMPDEST POP POP PUSH2 0x21E2 SWAP2 POP PUSH2 0x123C SWAP1 PUSH2 0x789 JUMP JUMPDEST SWAP6 PUSH4 0x70A08231 PUSH2 0x21F1 ADDRESS PUSH2 0x789 JUMP JUMPDEST SWAP1 PUSH1 0x20 PUSH2 0x21FD PUSH1 0x40 MLOAD SWAP1 JUMP JUMPDEST DUP1 SWAP11 PUSH2 0x2209 DUP5 PUSH1 0xE0 SHL SWAP1 JUMP JUMPDEST DUP3 MSTORE PUSH20 0xFFFFFFFFFFFFFFFFFFFFFFFFFFFFFFFFFFFFFFFF DUP6 AND PUSH1 0x4 DUP4 ADD MSTORE PUSH1 0x24 SWAP1 DUP3 SWAP1 GAS STATICCALL SWAP5 DUP6 ISZERO PUSH2 0x14DF JUMPI PUSH2 0x226C SWAP10 PUSH1 0x0 SWAP7 PUSH2 0x23FD JUMPI JUMPDEST POP SWAP1 PUSH2 0x12CD PUSH2 0x2255 PUSH2 0x123C PUSH1 0x20 SWAP6 SWAP5 PUSH2 0x789 JUMP JUMPDEST SWAP2 PUSH2 0x225F PUSH1 0x40 MLOAD SWAP1 JUMP JUMPDEST SWAP12 DUP13 SWAP5 DUP6 SWAP4 DUP5 SWAP4 PUSH1 0xE0 SHL SWAP1 JUMP JUMPDEST SUB SWAP2 GAS STATICCALL SWAP4 DUP5 ISZERO PUSH2 0x14DF JUMPI DUP6 DUP8 SWAP3 PUSH2 0x232 SWAP10 PUSH1 0x0 SWAP8 PUSH2 0x23C5 JUMPI JUMPDEST POP SWAP3 PUSH2 0x2316 PUSH2 0x13FB SWAP6 SWAP4 PUSH2 0x192F SWAP4 PUSH2 0x235C SWAP7 DUP3 PUSH2 0x22AE PUSH2 0x24D DUP4 PUSH2 0x22A9 DUP7 PUSH2 0xF61 JUMP JUMPDEST PUSH2 0xFAD JUMP JUMPDEST DUP12 GT ISZERO PUSH2 0x23AF JUMPI PUSH2 0x22A9 PUSH2 0x22D4 PUSH2 0x22CE PUSH2 0x24D SWAP5 PUSH2 0x22A9 PUSH2 0x22DA SWAP8 PUSH2 0xF61 JUMP JUMPDEST DUP14 PUSH2 0xFAD JUMP JUMPDEST SWAP7 PUSH2 0xF61 JUMP JUMPDEST PUSH1 0x0 SWAP1 DUP11 GT ISZERO PUSH2 0x239F JUMPI POP PUSH2 0x22F5 PUSH2 0x22FB SWAP2 PUSH2 0x22A9 DUP14 PUSH2 0xF61 JUMP JUMPDEST DUP10 PUSH2 0xFAD JUMP JUMPDEST SWAP4 JUMPDEST PUSH2 0x2306 DUP2 PUSH2 0x916 JUMP JUMPDEST DUP4 GT SWAP1 DUP2 ISZERO PUSH2 0x238D JUMPI JUMPDEST POP PUSH2 0xFBF JUMP JUMPDEST PUSH2 0x13ED PUSH2 0x3E8 SWAP4 PUSH2 0x192F PUSH2 0x2356 PUSH2 0x2350 PUSH2 0x234A PUSH2 0x233B PUSH2 0x2335 DUP11 PUSH2 0x916 JUMP JUMPDEST DUP14 PUSH2 0x10CF JUMP JUMPDEST PUSH2 0x13ED PUSH1 0x3 SWAP9 PUSH2 0x192F DUP11 PUSH2 0x916 JUMP JUMPDEST SWAP8 PUSH2 0x916 JUMP JUMPDEST DUP12 PUSH2 0x10CF JUMP JUMPDEST SWAP4 PUSH2 0x916 JUMP JUMPDEST PUSH2 0x2386 PUSH2 0x111A PUSH2 0x24D PUSH2 0x237A PUSH2 0x2371 DUP10 PUSH2 0xF61 JUMP JUMPDEST PUSH2 0x192F DUP12 PUSH2 0xF61 JUMP JUMPDEST PUSH2 0x192F PUSH3 0xF4240 PUSH2 0x916 JUMP JUMPDEST LT ISZERO PUSH2 0x20A6 JUMP JUMPDEST PUSH2 0x2397 SWAP2 POP PUSH2 0x916 JUMP JUMPDEST DUP5 GT CODESIZE PUSH2 0x2310 JUMP JUMPDEST PUSH2 0x23A9 SWAP2 POP PUSH2 0x916 JUMP JUMPDEST SWAP4 PUSH2 0x22FD JUMP JUMPDEST PUSH2 0x22DA SWAP3 POP PUSH2 0x24D SWAP2 POP PUSH2 0x22A9 PUSH2 0x22D4 DUP10 PUSH2 0x916 JUMP JUMPDEST PUSH2 0x235C SWAP5 SWAP2 SWAP8 POP PUSH2 0x13FB SWAP6 SWAP4 PUSH2 0x192F SWAP4 PUSH2 0x23EF PUSH2 0x2316 SWAP4 PUSH1 0x20 RETURNDATASIZE DUP2 GT PUSH2 0x14D8 JUMPI PUSH2 0x14C9 DUP2 DUP4 PUSH2 0xB11 JUMP JUMPDEST SWAP10 SWAP4 SWAP7 POP SWAP4 POP SWAP4 SWAP6 POP PUSH2 0x2286 JUMP JUMPDEST PUSH1 0x20 SWAP4 SWAP3 SWAP2 SWAP7 POP PUSH2 0x2255 PUSH2 0x123C PUSH2 0x2423 PUSH2 0x12CD SWAP4 DUP8 RETURNDATASIZE DUP2 GT PUSH2 0x14D8 JUMPI PUSH2 0x14C9 DUP2 DUP4 PUSH2 0xB11 JUMP JUMPDEST SWAP9 SWAP4 SWAP5 SWAP6 POP POP POP PUSH2 0x2241 JUMP JUMPDEST PUSH2 0x123C PUSH2 0x243B SWAP2 PUSH2 0x789 JUMP JUMPDEST SWAP1 PUSH4 0xBEA9CF36 SWAP2 CALLER SWAP2 DUP2 EXTCODESIZE ISZERO PUSH2 0x220 JUMPI DUP7 DUP1 SWAP5 PUSH2 0x2479 DUP15 SWAP9 PUSH2 0x246E SWAP5 DUP14 PUSH2 0x2461 PUSH1 0x40 MLOAD SWAP1 JUMP JUMPDEST SWAP12 DUP13 SWAP10 DUP11 SWAP9 DUP10 SWAP8 PUSH1 0xE0 SHL SWAP1 JUMP JUMPDEST DUP8 MSTORE PUSH1 0x4 DUP8 ADD PUSH2 0x2055 JUMP JUMPDEST SUB SWAP3 GAS CALL SWAP1 DUP2 ISZERO PUSH2 0x14DF JUMPI PUSH2 0x21E2 SWAP3 PUSH2 0x123C SWAP3 PUSH2 0x2499 JUMPI JUMPDEST DUP2 SWAP3 POP PUSH2 0x21D2 JUMP JUMPDEST PUSH2 0x24B8 SWAP1 DUP6 RETURNDATASIZE DUP8 GT PUSH2 0x24BE JUMPI JUMPDEST PUSH2 0x24B0 DUP2 DUP4 PUSH2 0xB11 JUMP JUMPDEST DUP2 ADD SWAP1 PUSH2 0x322 JUMP JUMPDEST CODESIZE PUSH2 0x2491 JUMP JUMPDEST POP RETURNDATASIZE PUSH2 0x24A6 JUMP JUMPDEST PUSH2 0x24D3 DUP8 DUP3 PUSH2 0x1BF5 DUP10 PUSH2 0x789 JUMP JUMPDEST PUSH2 0x21BF JUMP JUMPDEST PUSH2 0x24E6 DUP11 DUP3 PUSH2 0x1BF5 DUP7 PUSH2 0x789 JUMP JUMPDEST PUSH2 0x21AF JUMP JUMPDEST POP PUSH20 0xFFFFFFFFFFFFFFFFFFFFFFFFFFFFFFFFFFFFFFFF DUP3 DUP2 AND SWAP1 DUP9 AND EQ ISZERO PUSH2 0x21A1 JUMP JUMPDEST POP PUSH2 0x2155 PUSH2 0x251B DUP10 PUSH2 0xF61 JUMP JUMPDEST DUP8 LT SWAP1 POP PUSH2 0x214C JUMP JUMPDEST POP PUSH2 0x212F PUSH2 0x2531 DUP4 PUSH2 0x916 JUMP JUMPDEST DUP6 GT SWAP1 POP PUSH2 0x2126 JUMP JUMPDEST SWAP1 PUSH2 0x232 SWAP5 SWAP4 SWAP3 SWAP2 PUSH2 0x1E99 JUMP JUMPDEST PUSH2 0x254F PUSH2 0x1591 JUMP JUMPDEST PUSH2 0x1EAE PUSH2 0x2562 PUSH2 0x123C PUSH2 0x123C PUSH1 0x1 PUSH2 0xB9E JUMP JUMPDEST PUSH4 0x70A08231 PUSH2 0x2570 ADDRESS PUSH2 0x789 JUMP JUMPDEST PUSH1 0x20 PUSH2 0x257B PUSH1 0x40 MLOAD SWAP1 JUMP JUMPDEST DUP1 SWAP5 PUSH2 0x2587 DUP6 PUSH1 0xE0 SHL SWAP1 JUMP JUMPDEST DUP3 MSTORE PUSH20 0xFFFFFFFFFFFFFFFFFFFFFFFFFFFFFFFFFFFFFFFF DUP5 AND PUSH1 0x4 DUP4 ADD MSTORE PUSH1 0x24 SWAP1 DUP3 SWAP1 GAS STATICCALL SWAP1 DUP2 ISZERO PUSH2 0x14DF JUMPI PUSH2 0x25D6 SWAP4 PUSH1 0x0 SWAP3 PUSH2 0x14E4 JUMPI POP PUSH1 0x20 SWAP2 SWAP3 PUSH2 0x12CD PUSH2 0x12B6 PUSH2 0x123C PUSH2 0x123C PUSH1 0x2 PUSH2 0xD84 JUMP JUMPDEST SUB SWAP2 GAS STATICCALL DUP1 ISZERO PUSH2 0x14DF JUMPI PUSH2 0x232 SWAP3 PUSH1 0x0 SWAP2 PUSH2 0x2608 JUMPI JUMPDEST POP PUSH2 0x25F7 PUSH1 0x3 PUSH2 0xEA7 JUMP JUMPDEST SWAP1 PUSH2 0x2602 PUSH1 0x3 PUSH2 0xEBD JUMP JUMPDEST SWAP3 PUSH2 0x17E6 JUMP JUMPDEST PUSH2 0x2620 SWAP2 POP PUSH1 0x20 RETURNDATASIZE DUP2 GT PUSH2 0x14D8 JUMPI PUSH2 0x14C9 DUP2 DUP4 PUSH2 0xB11 JUMP JUMPDEST CODESIZE PUSH2 0x25EC JUMP JUMPDEST PUSH2 0x232 PUSH2 0x2547 JUMP JUMPDEST SWAP1 PUSH2 0x26B1 PUSH2 0x26A7 PUSH2 0x232 SWAP4 PUSH2 0x2661 PUSH2 0x264A DUP6 PUSH2 0x193F PUSH1 0x8 PUSH2 0x1052 JUMP JUMPDEST PUSH2 0x265A PUSH2 0x111A PUSH2 0x24D PUSH1 0x8 PUSH2 0x1052 JUMP JUMPDEST LT ISZERO PUSH2 0x15FC JUMP JUMPDEST PUSH1 0x7 PUSH2 0x268F PUSH2 0x267C DUP7 PUSH2 0x193F PUSH2 0x2677 DUP7 DUP7 PUSH2 0x792 JUMP JUMPDEST PUSH2 0x1052 JUMP JUMPDEST PUSH2 0x265A PUSH2 0x111A PUSH2 0x24D PUSH2 0x2677 DUP8 DUP8 PUSH2 0x792 JUMP JUMPDEST PUSH2 0xA9F PUSH2 0x26A0 DUP7 PUSH2 0x193F PUSH1 0x8 PUSH2 0x1052 JUMP JUMPDEST PUSH1 0x8 PUSH2 0x157A JUMP JUMPDEST SWAP2 PUSH2 0x193F DUP4 PUSH2 0x1052 JUMP JUMPDEST SWAP1 PUSH2 0x157A JUMP JUMPDEST PUSH2 0x232 SWAP2 PUSH2 0x26D9 PUSH2 0x26CC PUSH2 0x26A0 SWAP4 PUSH1 0x7 PUSH2 0x792 JUMP JUMPDEST PUSH2 0x26B1 DUP4 PUSH2 0x22A9 DUP4 PUSH2 0x1052 JUMP JUMPDEST PUSH2 0x22A9 PUSH1 0x8 PUSH2 0x1052 JUMP JUMPDEST SWAP1 DUP1 DUP3 LT ISZERO PUSH2 0x26F0 JUMPI POP SWAP1 JUMP JUMPDEST SWAP1 POP SWAP1 JUMP JUMPDEST SWAP1 PUSH1 0x0 PUSH2 0x2702 PUSH1 0x3 PUSH2 0x916 JUMP JUMPDEST DUP4 GT ISZERO PUSH2 0x2780 JUMPI POP PUSH2 0x2737 DUP3 PUSH1 0x2 PUSH2 0x2722 PUSH2 0x271C DUP3 PUSH2 0x916 JUMP JUMPDEST DUP4 PUSH2 0x1114 JUMP JUMPDEST SWAP2 PUSH1 0x1 SWAP4 DUP5 SWAP4 PUSH2 0x2731 DUP6 PUSH2 0x916 JUMP JUMPDEST SWAP1 PUSH2 0x16D1 JUMP JUMPDEST SWAP4 JUMPDEST PUSH2 0x2744 JUMPI JUMPDEST POP POP POP POP JUMP JUMPDEST SWAP1 SWAP2 SWAP3 SWAP5 PUSH2 0x274F DUP2 SWAP1 JUMP JUMPDEST DUP7 LT ISZERO PUSH2 0x277A JUMPI POP PUSH2 0x2771 PUSH2 0x2768 DUP7 PUSH2 0x193F DUP2 DUP6 PUSH2 0x1114 JUMP JUMPDEST PUSH2 0x1460 DUP5 PUSH2 0x916 JUMP JUMPDEST SWAP3 SWAP2 SWAP1 DUP3 PUSH2 0x2739 JUMP JUMPDEST SWAP5 PUSH2 0x273E JUMP JUMPDEST SWAP2 PUSH2 0x278E PUSH2 0x111A PUSH1 0x0 PUSH2 0x916 JUMP JUMPDEST SUB PUSH2 0x2795 JUMPI JUMP JUMPDEST SWAP1 POP PUSH2 0x24D PUSH1 0x1 PUSH2 0x916 JUMP JUMPDEST CALLER PUSH2 0x27BA DUP4 PUSH2 0x27B5 DUP5 PUSH2 0xA9F DUP6 PUSH1 0xC PUSH2 0x792 JUMP JUMPDEST PUSH2 0x157A JUMP JUMPDEST PUSH2 0x27FA PUSH2 0x27F0 PUSH2 0x27EA PUSH32 0x8C5BE1E5EBEC7D5BD14F71427D1E84F3DD0314C0F7B2291E5B200AC8C7C3B925 SWAP4 PUSH2 0x789 JUMP JUMPDEST SWAP4 PUSH2 0x789 JUMP JUMPDEST SWAP4 PUSH2 0x53D PUSH1 0x40 MLOAD SWAP1 JUMP JUMPDEST SUB SWAP1 LOG3 PUSH1 0x1 SWAP1 JUMP JUMPDEST CALLER PUSH2 0x2833 PUSH2 0x2826 DUP4 PUSH1 0x7 PUSH2 0xA9F PUSH2 0x2819 DUP7 DUP4 PUSH2 0x792 JUMP JUMPDEST PUSH2 0x26B1 DUP10 PUSH2 0x22A9 DUP4 PUSH2 0x1052 JUMP JUMPDEST PUSH2 0x26B1 DUP6 PUSH2 0x193F DUP4 PUSH2 0x1052 JUMP JUMPDEST PUSH2 0x27FA PUSH2 0x27F0 PUSH2 0x27EA PUSH32 0xDDF252AD1BE2C89B69C2B068FC378DAA952BA7F163C4A11628F55A4DF523B3EF SWAP4 PUSH2 0x789 JUMP JUMPDEST PUSH1 0xC DUP2 PUSH2 0x2870 DUP2 DUP4 PUSH2 0x792 JUMP JUMPDEST PUSH2 0x287E PUSH2 0x2677 CALLER DUP1 SWAP4 PUSH2 0x792 JUMP JUMPDEST PUSH1 0x1 ADD PUSH2 0x289F JUMPI JUMPDEST POP POP POP PUSH2 0x2833 PUSH2 0x2826 DUP4 PUSH1 0x7 PUSH2 0xA9F PUSH2 0x2819 DUP7 DUP4 PUSH2 0x792 JUMP JUMPDEST PUSH2 0xA9F PUSH2 0x28AF SWAP3 PUSH2 0x28BC SWAP5 PUSH2 0x792 JUMP JUMPDEST PUSH2 0x26B1 DUP6 PUSH2 0x22A9 DUP4 PUSH2 0x1052 JUMP JUMPDEST CODESIZE DUP2 DUP2 PUSH2 0x2886 JUMP JUMPDEST PUSH8 0xFFFFFFFFFFFFFFFF DUP2 GT PUSH2 0xB51 JUMPI PUSH1 0x20 SWAP1 PUSH1 0x1F ADD PUSH32 0xFFFFFFFFFFFFFFFFFFFFFFFFFFFFFFFFFFFFFFFFFFFFFFFFFFFFFFFFFFFFFFE0 AND ADD SWAP1 JUMP JUMPDEST SWAP1 PUSH2 0x2911 PUSH2 0x290C DUP4 PUSH2 0x28C4 JUMP JUMPDEST PUSH2 0xB56 JUMP JUMPDEST SWAP2 DUP3 MSTORE JUMP JUMPDEST PUSH2 0x2920 PUSH1 0xC PUSH2 0x28FF JUMP JUMPDEST PUSH32 0x444558204C5020546F6B656E0000000000000000000000000000000000000000 PUSH1 0x20 DUP3 ADD MSTORE SWAP1 JUMP JUMPDEST PUSH2 0x24D PUSH2 0x2916 JUMP JUMPDEST PUSH2 0x24D PUSH2 0x2949 JUMP JUMPDEST PUSH2 0x2963 PUSH1 0x2 PUSH2 0x28FF JUMP JUMPDEST PUSH32 0x4C50000000000000000000000000000000000000000000000000000000000000 PUSH1 0x20 DUP3 ADD MSTORE SWAP1 JUMP JUMPDEST PUSH2 0x24D PUSH2 0x2959 JUMP JUMPDEST PUSH2 0x24D PUSH2 0x298C JUMP JUMPDEST PUSH2 0x62B PUSH2 0x24D PUSH2 0x24D SWAP3 SWAP1 JUMP JUMPDEST PUSH2 0x24D PUSH1 0x12 PUSH2 0x299C JUMP JUMPDEST PUSH2 0x24D PUSH2 0x2A4B JUMP JUMPDEST PUSH2 0x29C5 PUSH1 0x1 PUSH2 0x28FF JUMP JUMPDEST PUSH32 0x3100000000000000000000000000000000000000000000000000000000000000 PUSH1 0x20 DUP3 ADD MSTORE SWAP1 JUMP JUMPDEST PUSH2 0x24D PUSH2 0x29BB JUMP JUMPDEST SWAP1 SWAP6 SWAP5 SWAP3 PUSH2 0x232 SWAP5 PUSH2 0x2A28 PUSH2 0x2A2F SWAP3 PUSH2 0x2A21 PUSH1 0x80 SWAP7 PUSH2 0x2A1A PUSH1 0xA0 DUP9 ADD SWAP13 PUSH1 0x0 DUP10 ADD MSTORE JUMP JUMPDEST PUSH1 0x20 DUP8 ADD MSTORE JUMP JUMPDEST PUSH1 0x40 DUP6 ADD MSTORE JUMP JUMPDEST PUSH1 0x60 DUP4 ADD MSTORE JUMP JUMPDEST ADD SWAP1 PUSH20 0xFFFFFFFFFFFFFFFFFFFFFFFFFFFFFFFFFFFFFFFF AND SWAP1 MSTORE JUMP JUMPDEST PUSH32 0x8B73C3C69BB8FE3D512ECC4CF759CC79239F7B179B0FFACAA9A75D522B39400F PUSH2 0x2AD0 PUSH2 0x2A77 PUSH2 0x2949 JUMP JUMPDEST PUSH2 0x2A89 PUSH2 0x2A82 DUP3 MLOAD SWAP1 JUMP JUMPDEST SWAP2 PUSH1 0x20 ADD SWAP1 JUMP JUMPDEST KECCAK256 PUSH2 0x2A92 PUSH2 0x29EE JUMP JUMPDEST PUSH2 0x2A9D PUSH2 0x2A82 DUP3 MLOAD SWAP1 JUMP JUMPDEST KECCAK256 SWAP3 PUSH2 0x2AC4 CHAINID PUSH2 0x2AAC ADDRESS PUSH2 0x789 JUMP JUMPDEST SWAP1 PUSH2 0x2AB6 PUSH1 0x40 MLOAD SWAP1 JUMP JUMPDEST SWAP7 DUP8 SWAP6 PUSH1 0x20 DUP8 ADD SWAP6 DUP7 PUSH2 0x29F6 JUMP JUMPDEST SWAP1 DUP2 SUB DUP3 MSTORE SUB DUP3 PUSH2 0xB11 JUMP JUMPDEST PUSH2 0x2ADB PUSH2 0x2A82 DUP3 MLOAD SWAP1 JUMP JUMPDEST KECCAK256 SWAP1 JUMP JUMPDEST ISZERO PUSH2 0x2AE6 JUMPI JUMP JUMPDEST PUSH1 0x40 MLOAD PUSH32 0x8C379A000000000000000000000000000000000000000000000000000000000 DUP2 MSTORE PUSH1 0x20 PUSH1 0x4 DUP3 ADD MSTORE PUSH1 0x10 PUSH1 0x24 DUP3 ADD MSTORE PUSH32 0x444558506169723A204558504952454400000000000000000000000000000000 PUSH1 0x44 DUP3 ADD MSTORE PUSH1 0x64 SWAP1 REVERT JUMPDEST PUSH32 0xFFFFFFFFFFFFFFFFFFFFFFFFFFFFFFFFFFFFFFFFFFFFFFFFFFFFFFFFFFFFFFFF DUP2 EQ PUSH2 0xFBA JUMPI PUSH1 0x1 ADD SWAP1 JUMP JUMPDEST SWAP2 SWAP5 PUSH2 0x2BDB PUSH2 0x8AD SWAP3 SWAP9 SWAP8 SWAP6 PUSH2 0x2BD4 PUSH1 0xA0 SWAP7 PUSH2 0x2BB7 PUSH2 0x232 SWAP11 PUSH2 0x2B9A PUSH1 0xC0 DUP11 ADD SWAP15 PUSH1 0x0 DUP12 ADD MSTORE JUMP JUMPDEST PUSH20 0xFFFFFFFFFFFFFFFFFFFFFFFFFFFFFFFFFFFFFFFF AND PUSH1 0x20 DUP10 ADD MSTORE JUMP JUMPDEST PUSH20 0xFFFFFFFFFFFFFFFFFFFFFFFFFFFFFFFFFFFFFFFF AND PUSH1 0x40 DUP8 ADD MSTORE JUMP JUMPDEST PUSH1 0x60 DUP6 ADD MSTORE JUMP JUMPDEST PUSH1 0x80 DUP4 ADD MSTORE JUMP JUMPDEST PUSH1 0x20 DUP1 SWAP4 SWAP3 PUSH2 0x2C1A PUSH2 0x2911 PUSH2 0x3A2 SWAP5 PUSH32 0x1901000000000000000000000000000000000000000000000000000000000000 DUP2 MSTORE PUSH1 0x2 ADD SWAP1 JUMP JUMPDEST ADD SWAP2 DUP3 MSTORE JUMP JUMPDEST PUSH2 0x8AD PUSH2 0x232 SWAP5 PUSH2 0x2092 PUSH1 0x60 SWAP5 SWAP9 SWAP8 SWAP6 PUSH2 0x2C3F PUSH1 0x80 DUP7 ADD SWAP11 PUSH1 0x0 DUP8 ADD MSTORE JUMP JUMPDEST PUSH1 0xFF AND PUSH1 0x20 DUP6 ADD MSTORE JUMP JUMPDEST ISZERO PUSH2 0x2C50 JUMPI JUMP JUMPDEST PUSH1 0x40 MLOAD PUSH32 0x8C379A000000000000000000000000000000000000000000000000000000000 DUP2 MSTORE PUSH1 0x20 PUSH1 0x4 DUP3 ADD MSTORE PUSH1 0x1A PUSH1 0x24 DUP3 ADD MSTORE PUSH32 0x444558506169723A20494E56414C49445F5349474E4154555245000000000000 PUSH1 0x44 DUP3 ADD MSTORE PUSH1 0x64 SWAP1 REVERT JUMPDEST SWAP4 SWAP1 SWAP5 PUSH2 0x2D75 DUP4 SWAP8 PUSH2 0x2AC4 PUSH2 0x2D56 DUP10 PUSH2 0x2D32 DUP11 PUSH1 0x0 SWAP10 PUSH2 0x2AC4 PUSH1 0x20 SWAP13 PUSH2 0x2CDD PUSH2 0x2CD5 TIMESTAMP SWAP1 JUMP JUMPDEST DUP3 LT ISZERO PUSH2 0x2ADF JUMP JUMPDEST PUSH32 0x6E71EDAE12B1B97F4D1F60370FEF10105FA2FAAE0126114A169C64845D6126C9 SWAP3 PUSH2 0x2D0A DUP6 PUSH1 0xD PUSH2 0x792 JUMP JUMPDEST SWAP1 PUSH2 0x2D21 PUSH2 0x2D17 DUP4 PUSH2 0x1052 JUMP JUMPDEST SWAP3 PUSH2 0x26B1 DUP5 PUSH2 0x2B45 JUMP JUMPDEST PUSH1 0x40 MLOAD SWAP8 DUP9 SWAP7 PUSH1 0x20 DUP9 ADD SWAP7 DUP8 PUSH2 0x2B72 JUMP JUMPDEST PUSH2 0x2D3D PUSH2 0x2A82 DUP3 MLOAD SWAP1 JUMP JUMPDEST KECCAK256 PUSH2 0x2D46 PUSH2 0x2A4B JUMP JUMPDEST PUSH1 0x40 MLOAD SWAP4 DUP5 SWAP3 DUP12 DUP5 ADD SWAP3 DUP4 PUSH2 0x2BE2 JUMP JUMPDEST PUSH2 0x2D61 PUSH2 0x2A82 DUP3 MLOAD SWAP1 JUMP JUMPDEST KECCAK256 SWAP3 PUSH2 0x2D6C PUSH1 0x40 MLOAD SWAP1 JUMP JUMPDEST SWAP5 DUP6 SWAP5 DUP6 PUSH2 0x2C20 JUMP JUMPDEST DUP4 DUP1 MSTORE SUB SWAP1 PUSH1 0x1 GAS STATICCALL ISZERO PUSH2 0x14DF JUMPI PUSH1 0x0 MLOAD PUSH2 0x2DAF SWAP1 PUSH2 0x2DA9 PUSH20 0xFFFFFFFFFFFFFFFFFFFFFFFFFFFFFFFFFFFFFFFF DUP5 AND PUSH2 0xCFF JUMP JUMPDEST EQ PUSH2 0x2C49 JUMP JUMPDEST PUSH2 0x2DC2 DUP4 PUSH2 0x27B5 DUP5 PUSH2 0xA9F DUP6 PUSH1 0xC PUSH2 0x792 JUMP JUMPDEST PUSH2 0x2DF2 PUSH2 0x27F0 PUSH2 0x27EA PUSH32 0x8C5BE1E5EBEC7D5BD14F71427D1E84F3DD0314C0F7B2291E5B200AC8C7C3B925 SWAP4 PUSH2 0x789 JUMP JUMPDEST SUB SWAP1 LOG3 JUMP JUMPDEST PUSH2 0x2E01 PUSH1 0x1 PUSH2 0xB9E JUMP JUMPDEST PUSH2 0x2E14 PUSH2 0x2E0E PUSH1 0x2 PUSH2 0xD84 JUMP JUMPDEST SWAP2 PUSH2 0x789 JUMP JUMPDEST SWAP2 PUSH2 0x2E1E DUP4 PUSH2 0x789 JUMP JUMPDEST SWAP3 PUSH4 0x70A08231 SWAP3 PUSH2 0x2E2E ADDRESS PUSH2 0x789 JUMP JUMPDEST SWAP1 PUSH1 0x20 PUSH2 0x2E3A PUSH1 0x40 MLOAD SWAP1 JUMP JUMPDEST DUP1 SWAP8 PUSH2 0x2E46 DUP9 PUSH1 0xE0 SHL SWAP1 JUMP JUMPDEST DUP3 MSTORE PUSH20 0xFFFFFFFFFFFFFFFFFFFFFFFFFFFFFFFFFFFFFFFF DUP6 AND PUSH1 0x4 DUP4 ADD MSTORE PUSH1 0x24 SWAP1 DUP3 SWAP1 GAS STATICCALL SWAP1 DUP2 ISZERO PUSH2 0x14DF JUMPI PUSH2 0x123C PUSH1 0x20 SWAP5 DUP7 PUSH2 0x2E9F PUSH2 0x2EA5 SWAP6 PUSH2 0x2EC9 SWAP12 PUSH1 0x0 SWAP2 PUSH2 0x2F10 JUMPI JUMPDEST POP PUSH2 0x13ED PUSH2 0x2E9A PUSH1 0x3 PUSH2 0xEA7 JUMP JUMPDEST PUSH2 0xF61 JUMP JUMPDEST SWAP2 PUSH2 0x1D94 JUMP JUMPDEST SWAP4 PUSH2 0x12CD PUSH2 0x2EB2 DUP7 PUSH2 0x789 JUMP JUMPDEST SWAP2 PUSH2 0x2EBC PUSH1 0x40 MLOAD SWAP1 JUMP JUMPDEST SWAP8 DUP9 SWAP5 DUP6 SWAP4 DUP5 SWAP4 PUSH1 0xE0 SHL SWAP1 JUMP JUMPDEST SUB SWAP2 GAS STATICCALL SWAP3 DUP4 ISZERO PUSH2 0x14DF JUMPI PUSH2 0x232 SWAP4 PUSH2 0x2E9F SWAP2 PUSH1 0x0 SWAP2 PUSH2 0x2EF2 JUMPI JUMPDEST POP PUSH2 0x13ED PUSH2 0x2E9A PUSH1 0x3 PUSH2 0xEBD JUMP JUMPDEST PUSH2 0x2F0A SWAP2 POP PUSH1 0x20 RETURNDATASIZE DUP2 GT PUSH2 0x14D8 JUMPI PUSH2 0x14C9 DUP2 DUP4 PUSH2 0xB11 JUMP JUMPDEST CODESIZE PUSH2 0x2EE4 JUMP JUMPDEST PUSH2 0x2F27 SWAP2 POP DUP10 RETURNDATASIZE DUP2 GT PUSH2 0x14D8 JUMPI PUSH2 0x14C9 DUP2 DUP4 PUSH2 0xB11 JUMP JUMPDEST CODESIZE PUSH2 0x2E8C JUMP JUMPDEST PUSH2 0x24D PUSH2 0x2F3D PUSH2 0x2E9A PUSH1 0x3 PUSH2 0xEA7 JUMP JUMPDEST PUSH2 0x192F PUSH2 0x2E9A PUSH1 0x3 PUSH2 0xEBD JUMP JUMPDEST PUSH2 0x2F67 PUSH2 0x24D PUSH2 0x24D SWAP3 PUSH14 0xFFFFFFFFFFFFFFFFFFFFFFFFFFFF AND SWAP1 JUMP JUMPDEST PUSH28 0xFFFFFFFFFFFFFFFFFFFFFFFFFFFFFFFFFFFFFFFFFFFFFFFFFFFFFFFF AND SWAP1 JUMP JUMPDEST PUSH2 0x2F67 PUSH2 0x24D PUSH2 0x24D SWAP3 SWAP1 JUMP JUMPDEST PUSH2 0x24D PUSH15 0x10000000000000000000000000000 PUSH2 0x2F88 JUMP JUMPDEST PUSH28 0xFFFFFFFFFFFFFFFFFFFFFFFFFFFFFFFFFFFFFFFFFFFFFFFFFFFFFFFF SWAP1 DUP2 AND SWAP3 SWAP2 AND SWAP2 PUSH28 0xFFFFFFFFFFFFFFFFFFFFFFFFFFFFFFFFFFFFFFFFFFFFFFFFFFFFFFFF DUP2 DUP5 MUL AND PUSH2 0x10D6 JUMP JUMPDEST PUSH2 0x300C PUSH2 0x24D SWAP2 PUSH2 0x3006 PUSH1 0x0 SWAP1 JUMP JUMPDEST POP PUSH2 0x2F4A JUMP JUMPDEST PUSH2 0x3014 PUSH2 0x2F95 JUMP JUMPDEST SWAP1 PUSH2 0x2FAD JUMP JUMPDEST PUSH28 0xFFFFFFFFFFFFFFFFFFFFFFFFFFFFFFFFFFFFFFFFFFFFFFFFFFFFFFFF SWAP1 DUP2 AND SWAP2 AND PUSH2 0x111E JUMP JUMPDEST PUSH2 0x3050 PUSH2 0x24D SWAP3 PUSH2 0x3006 PUSH1 0x0 SWAP1 JUMP JUMPDEST SWAP1 PUSH2 0x301A JUMP INVALID LOG2 PUSH5 0x6970667358 0x22 SLT KECCAK256 0xF9 PUSH29 0x6B03D65FA8A1506FAF19A15A9D4F78DB4F4F2BACD67AE49E023B274442 0xA6 PUSH5 0x736F6C6343 STOP ADDMOD EQ STOP CALLER LOG2 PUSH5 0x6970667358 0x22 SLT KECCAK256 PUSH14 0x1D9550B45EB5B36D7EF519CC4354 0x25 0xAD POP 0xC1 MOD 0x27 0xD9 0x2F PUSH5 0x1A4F629568 0xA9 0xE3 0xFC PUSH5 0x736F6C6343 STOP ADDMOD EQ STOP CALLER "},"methodIdentifiers":{"FEE_DENOMINATOR()":"d73792a9","MAX_FEE_RATE()":"92f6576e","allPairs(uint256)":"1e3dd18b","allPairsLength()":"574f2ba3","authorizedOperators(address)":"181d989b","blacklistedAddresses(address)":"d5749d42","collectTradingFees(address,uint256)":"4bfc2e0b","createPair(address,address)":"c9c65396","createPair(address,address,(bool))":"ce3b5273","createPairWithLiquidity(address,address,uint256,uint256,bool,uint256,string)":"ac449629","emergencyRecover(address,address,uint256)":"ad1329d1","emergencyStop()":"63a599a4","feeDenominator()":"180b0d7e","feeRate()":"978bbdb9","getPair(address,address)":"e6a43905","getPairAddress(address,address)":"b4f69a2f","isManager(address)":"f3ae2415","liquidityLocker()":"9759164a","lockLiquidity(address,uint256,uint256,string)":"a293e03c","owner()":"8da5cb5b","pause()":"8456cb59","paused()":"5c975abb","poolSecurityConfigs(address)":"7935f9a3","renounceOwnership()":"715018a6","setAuthorizedOperator(address,bool)":"788f737d","setBlacklisted(address,bool)":"d01dd6d2","setEmergencyStop(bool)":"c73d7c7b","setManager(address,bool)":"a5e90eee","totalPairsCreated()":"ff255efb","transferOwnership(address)":"f2fde38b","unlockLiquidity(address,uint256)":"be8796c1","unpause()":"3f4ba83a","updateFeeRate(uint256)":"7b84fda5","withdrawFees()":"476343ee"}}}}}