{"contracts/LiquidityLocker.sol":{"LiquidityLocker":{"abi":[{"inputs":[{"internalType":"address","name":"_factory","type":"address"}],"stateMutability":"nonpayable","type":"constructor"},{"inputs":[{"internalType":"address","name":"owner","type":"address"}],"name":"OwnableInvalidOwner","type":"error"},{"inputs":[{"internalType":"address","name":"account","type":"address"}],"name":"OwnableUnauthorizedAccount","type":"error"},{"anonymous":false,"inputs":[{"indexed":true,"internalType":"address","name":"pair","type":"address"},{"indexed":true,"internalType":"address","name":"owner","type":"address"},{"indexed":false,"internalType":"uint256","name":"amount","type":"uint256"},{"indexed":false,"internalType":"uint256","name":"unlockTime","type":"uint256"},{"indexed":false,"internalType":"string","name":"description","type":"string"},{"indexed":false,"internalType":"uint256","name":"lockFee","type":"uint256"}],"name":"LiquidityLocked","type":"event"},{"anonymous":false,"inputs":[{"indexed":true,"internalType":"address","name":"pair","type":"address"},{"indexed":true,"internalType":"address","name":"owner","type":"address"},{"indexed":false,"internalType":"uint256","name":"amount","type":"uint256"},{"indexed":false,"internalType":"uint256","name":"timestamp","type":"uint256"}],"name":"LiquidityUnlocked","type":"event"},{"anonymous":false,"inputs":[{"indexed":true,"internalType":"address","name":"user","type":"address"},{"indexed":false,"internalType":"uint256","name":"amount","type":"uint256"},{"indexed":false,"internalType":"uint256","name":"timestamp","type":"uint256"}],"name":"LockFeeCollected","type":"event"},{"anonymous":false,"inputs":[{"indexed":true,"internalType":"address","name":"previousOwner","type":"address"},{"indexed":true,"internalType":"address","name":"newOwner","type":"address"}],"name":"OwnershipTransferred","type":"event"},{"inputs":[],"name":"factory","outputs":[{"internalType":"address","name":"","type":"address"}],"stateMutability":"view","type":"function"},{"inputs":[{"internalType":"address","name":"pair","type":"address"}],"name":"getLocks","outputs":[{"components":[{"internalType":"address","name":"owner","type":"address"},{"internalType":"uint256","name":"amount","type":"uint256"},{"internalType":"uint256","name":"unlockTime","type":"uint256"},{"internalType":"bool","name":"isLocked","type":"bool"}],"internalType":"struct LiquidityLocker.LiquidityLock[]","name":"","type":"tuple[]"}],"stateMutability":"view","type":"function"},{"inputs":[{"internalType":"address","name":"pair","type":"address"}],"name":"getTotalLocked","outputs":[{"internalType":"uint256","name":"","type":"uint256"}],"stateMutability":"view","type":"function"},{"inputs":[{"internalType":"address","name":"","type":"address"},{"internalType":"uint256","name":"","type":"uint256"}],"name":"liquidityLocks","outputs":[{"internalType":"address","name":"owner","type":"address"},{"internalType":"uint256","name":"amount","type":"uint256"},{"internalType":"uint256","name":"unlockTime","type":"uint256"},{"internalType":"bool","name":"isLocked","type":"bool"}],"stateMutability":"view","type":"function"},{"inputs":[{"internalType":"address","name":"pair","type":"address"},{"internalType":"address","name":"user","type":"address"},{"internalType":"uint256","name":"amount","type":"uint256"},{"internalType":"uint256","name":"lockDuration","type":"uint256"},{"internalType":"string","name":"description","type":"string"},{"internalType":"uint256","name":"lockFee","type":"uint256"}],"name":"lockLiquidity","outputs":[],"stateMutability":"nonpayable","type":"function"},{"inputs":[],"name":"owner","outputs":[{"internalType":"address","name":"","type":"address"}],"stateMutability":"view","type":"function"},{"inputs":[],"name":"renounceOwnership","outputs":[],"stateMutability":"nonpayable","type":"function"},{"inputs":[{"internalType":"address","name":"_factory","type":"address"}],"name":"setFactory","outputs":[],"stateMutability":"nonpayable","type":"function"},{"inputs":[],"name":"totalLiquidityLocked","outputs":[{"internalType":"uint256","name":"","type":"uint256"}],"stateMutability":"view","type":"function"},{"inputs":[{"internalType":"address","name":"","type":"address"}],"name":"totalLockedLiquidity","outputs":[{"internalType":"uint256","name":"","type":"uint256"}],"stateMutability":"view","type":"function"},{"inputs":[{"internalType":"address","name":"newOwner","type":"address"}],"name":"transferOwnership","outputs":[],"stateMutability":"nonpayable","type":"function"},{"inputs":[{"internalType":"address","name":"pair","type":"address"},{"internalType":"uint256","name":"lockIndex","type":"uint256"},{"internalType":"address","name":"user","type":"address"}],"name":"unlockLiquidity","outputs":[],"stateMutability":"nonpayable","type":"function"}],"evm":{"bytecode":{"linkReferences":{},"object":"60806040523462000030576200001e62000018620000d3565b620001b0565b604051611517620002cd823961151790f35b600080fd5b634e487b7160e01b600052604160045260246000fd5b90601f01601f191681019081106001600160401b038211176200006d57604052565b62000035565b906200008a6200008260405190565b92836200004b565b565b6001600160a01b031690565b90565b6001600160a01b038116036200003057565b905051906200008a826200009b565b9060208282031262000030576200009891620000ad565b62000098620017e480380380620000ea8162000073565b928339810190620000bc565b6200008c62000098620000989290565b6200009890620000f6565b156200011957565b60405162461bcd60e51b815260206004820152600b60248201526a494e565f464143544f525960a81b6044820152606490fd5b0390fd5b62000098906200008c906001600160a01b031682565b620000989062000150565b620000989062000166565b906200019062000098620001ac9262000171565b82546001600160a01b0319166001600160a01b03919091161790565b9055565b6200008a90620001c033620001ee565b620001e6620001d46200008c600062000106565b6001600160a01b038316141562000111565b60046200017c565b620001fa600062000106565b6001600160a01b0381166001600160a01b038316146200022057506200008a906200026a565b6200014c906200022f60405190565b631e4fbdf760e01b8152918291600483016001600160a01b03909116815260200190565b62000098906200008c565b62000098905462000253565b6200027660006200025e565b90620002848160006200017c565b620002bb620002b47f8be0079c531659141344cd1fd0a4f28419497f9722a3daafe3b4186f6b6457e09362000171565b9162000171565b91620002c660405190565b600090a356fe6080604052600436101561001257600080fd5b60003560e01c806305c77a3c146100d257806344e5550f146100cd578063573044e3146100c85780635bb47808146100c3578063715018a6146100be578063719f3089146100b95780637b74811a146100b45780638517e0e1146100af5780638da5cb5b146100aa578063c45a0155146100a5578063e01f62bf146100a05763f2fde38b0361011257610747565b61072c565b610705565b61069f565b61066d565b61050c565b61046b565b610397565b610374565b61035b565b610307565b61013a565b73ffffffffffffffffffffffffffffffffffffffff1690565b90565b73ffffffffffffffffffffffffffffffffffffffff81165b0361011257565b600080fd5b90503590610124826100f3565b565b90602082820312610112576100f091610117565b3461011257610165610155610150366004610126565b6114ca565b6040519182918290815260200190565b0390f35b8061010b565b9050359061012482610169565b7f4e487b7100000000000000000000000000000000000000000000000000000000600052604160045260246000fd5b90601f017fffffffffffffffffffffffffffffffffffffffffffffffffffffffffffffffe016810190811067ffffffffffffffff8211176101eb57604052565b61017c565b906101246101fd60405190565b92836101ab565b67ffffffffffffffff81116101eb57602090601f017fffffffffffffffffffffffffffffffffffffffffffffffffffffffffffffffe0160190565b0190565b90826000939282370152565b9092919261026461025f82610204565b6101f0565b938185526020850190828401116101125761012492610243565b9080601f83011215610112578160206100f09335910161024f565b909160c082840312610112576102af8383610117565b926102bd8160208501610117565b926102cb826040830161016f565b926102d9836060840161016f565b9260808301359067ffffffffffffffff8211610112576102fe816100f093860161027e565b9360a00161016f565b346101125761032661031a366004610299565b94939093929192611066565b604051005b9091606082840312610112576100f06103448484610117565b93610352816020860161016f565b93604001610117565b346101125761032661036e36600461032b565b9161139d565b3461011257610326610387366004610126565b610a30565b600091031261011257565b34610112576103a736600461038c565b6103266107a1565b805173ffffffffffffffffffffffffffffffffffffffff168252610124919060609081906103e260208201516020860152565b6103f160408201516040860152565b01511515910152565b9061023f816080936103af565b90610427610420610416845190565b8084529260200190565b9260200190565b9060005b8181106104385750505090565b90919261045261044b60019286516103fa565b9460200190565b92910161042b565b60208082526100f092910190610407565b3461011257610165610486610481366004610126565b6114ae565b6040519182918261045a565b6100d76100f06100f09273ffffffffffffffffffffffffffffffffffffffff1690565b6100f090610492565b6100f0906104b5565b906104d1906104be565b600052602052604060002090565b6100f0916008021c81565b906100f091546104df565b6100f0906105076002916000926104c7565b6104ea565b3461011257610165610155610522366004610126565b6104f5565b9190604083820312610112576100f0906105418185610117565b9360200161016f565b7f4e487b7100000000000000000000000000000000000000000000000000000000600052603260045260246000fd5b805482101561059c57610593600491600052602060002090565b91020190600090565b61054a565b6100f0906100d7565b6100f090546105a1565b6100f09081565b6100f090546105b4565b91906105d56001936000946104c7565b805482101561061c576105e9929350610579565b50906105f4826105aa565b91610601600182016105bb565b916100f06003610613600285016105bb565b93015460ff1690565b8380fd5b6106656101249461065e606094989795610657608086019a600087019073ffffffffffffffffffffffffffffffffffffffff169052565b6020850152565b6040830152565b019015159052565b3461011257610165610689610683366004610527565b906105c5565b9061069694929460405190565b94859485610620565b34610112576106af36600461038c565b6101656106ba61075f565b6040519182918273ffffffffffffffffffffffffffffffffffffffff909116815260200190565b6100f0916008021c6100d7565b906100f091546106e1565b6100f0600060046106ee565b346101125761071536600461038c565b6101656106ba6106f9565b6100f0600060036104ea565b346101125761073c36600461038c565b610165610155610720565b346101125761032661075a366004610126565b6108df565b6100f060006105aa565b6107716107a9565b61012461078f565b6100d76100f06100f09290565b6100f090610779565b61012461079c6000610786565b610925565b610124610769565b6107b161075f565b33906107d2825b9173ffffffffffffffffffffffffffffffffffffffff1690565b036107da5750565b610831906107e760405190565b9182917f118cdaa70000000000000000000000000000000000000000000000000000000083526004830173ffffffffffffffffffffffffffffffffffffffff909116815260200190565b0390fd5b610124906108416107a9565b61084b6000610786565b73ffffffffffffffffffffffffffffffffffffffff811673ffffffffffffffffffffffffffffffffffffffff831614610888575061012490610925565b6108319061089560405190565b9182917f1e4fbdf70000000000000000000000000000000000000000000000000000000083526004830173ffffffffffffffffffffffffffffffffffffffff909116815260200190565b61012490610835565b9073ffffffffffffffffffffffffffffffffffffffff905b9181191691161790565b9061091a6100f0610921926104be565b82546108e8565b9055565b61092f60006105aa565b9061093b81600061090a565b61096e6109687f8be0079c531659141344cd1fd0a4f28419497f9722a3daafe3b4186f6b6457e0936104be565b916104be565b9161097860405190565b80805b0390a3565b6101249061098c6107a9565b6109f7565b1561099857565b6040517f08c379a000000000000000000000000000000000000000000000000000000000815260206004820152600b60248201527f494e565f464143544f52590000000000000000000000000000000000000000006044820152606490fd5b61012490610a29610a0b6100d76000610786565b73ffffffffffffffffffffffffffffffffffffffff83161415610991565b600461090a565b61012490610980565b15610a4057565b6040517f08c379a000000000000000000000000000000000000000000000000000000000815260206004820152600c60248201527f4f4e4c595f464143544f525900000000000000000000000000000000000000006044820152606490fd5b906101249594939291610ac233610abc6107b86100d760046105aa565b14610a39565b610ebe565b15610ace57565b6040517f08c379a000000000000000000000000000000000000000000000000000000000815260206004820152600860248201527f494e565f504149520000000000000000000000000000000000000000000000006044820152606490fd5b6100f06100f06100f09290565b15610b4157565b6040517f08c379a000000000000000000000000000000000000000000000000000000000815260206004820152600760248201527f494e565f414d54000000000000000000000000000000000000000000000000006044820152606490fd5b15610ba757565b6040517f08c379a000000000000000000000000000000000000000000000000000000000815260206004820152600760248201527f494e565f445552000000000000000000000000000000000000000000000000006044820152606490fd5b15610c0d57565b6040517f08c379a0000000000000000000000000000000000000000000000000000000008152806108316004820160208082526004908201527f4c4f4e4700000000000000000000000000000000000000000000000000000000604082015260600190565b7f4e487b7100000000000000000000000000000000000000000000000000000000600052601160045260246000fd5b91908201809211610cae57565b610c72565b6100f060806101f0565b7f4e487b7100000000000000000000000000000000000000000000000000000000600052600060045260246000fd5b907fffffffffffffffffffffffffffffffffffffffffffffffffffffffffffffffff90610900565b90610d246100f061092192610b2d565b8254610cec565b9060ff90610900565b90610d446100f061092192151590565b8254610d2b565b6101249190610db590606090600390610d8281610d7c875173ffffffffffffffffffffffffffffffffffffffff1690565b9061090a565b610d9a60018201610d94602088015190565b90610d14565b610dac60028201610d94604088015190565b01920151151590565b90610d34565b9190610dca5761012491610d4b565b610cbd565b90815491680100000000000000008310156101eb5782610df791600161012495018155610579565b90610dbb565b60005b838110610e105750506000910152565b8181015183820152602001610e00565b610e41610e4a60209361023f93610e35815190565b80835293849260200190565b95869101610dfd565b601f017fffffffffffffffffffffffffffffffffffffffffffffffffffffffffffffffe01690565b94939160609161012494610e99610ea693610e9260808b019460008c0152565b60208a0152565b8782036040890152610e20565b940152565b9081526040810192916101249160200152565b859492610fdb604084610f9e6000610efa610edb6100d783610786565b73ffffffffffffffffffffffffffffffffffffffff89165b1415610ac7565b610f0d610f0682610b2d565b8711610b3a565b610f20610f1982610b2d565b8b11610ba0565b610f38610f306301e13380610b2d565b8b1115610c06565b610f996100f088610f4a429d8e610ca1565b610f8c600191610f7b610f5b610cb3565b998a9889019073ffffffffffffffffffffffffffffffffffffffff169052565b610f868c6020890152565b89870152565b80151560608601526104c7565b610dcf565b610fbe610fac8660026104c7565b610d9486610fb9836105bb565b610ca1565b610fd6610fcf85610fb960036105bb565b6003610d14565b015190565b9061102761101261100c7fa45b42ac0191d9fbb31a6f3153bbfbdf25752c562611938d75a7e0b03410a172956104be565b956104be565b98899661101e60405190565b94859485610e72565b0390a37fdea7f500102b57954ce349711b5317687d0eb726afc638faf5df8700ca52ebe59161106161105860405190565b92839283610eab565b0390a2565b906101249594939291610a9f565b90610124929161108e33610abc6107b86100d760046105aa565b611238565b1561109a57565b6040517f08c379a000000000000000000000000000000000000000000000000000000000815260206004820152600760248201527f494e565f494458000000000000000000000000000000000000000000000000006044820152606490fd5b1561110057565b6040517f08c379a000000000000000000000000000000000000000000000000000000000815260206004820152600960248201527f4e4f545f4f574e455200000000000000000000000000000000000000000000006044820152606490fd5b1561116657565b6040517f08c379a000000000000000000000000000000000000000000000000000000000815260206004820152600860248201527f554e4c4f434b45440000000000000000000000000000000000000000000000006044820152606490fd5b156111cc57565b6040517f08c379a000000000000000000000000000000000000000000000000000000000815260206004820152600b60248201527f4e4f545f455850495245440000000000000000000000000000000000000000006044820152606490fd5b91908203918211610cae57565b6000929161135c9061126b61124f6100d787610786565b73ffffffffffffffffffffffffffffffffffffffff8516610ef3565b6112a56112a160019261129261128b6100f061128789886104c7565b5490565b8210611093565b61129c86856104c7565b610579565b5090565b6112d86112b38783016105aa565b6112d273ffffffffffffffffffffffffffffffffffffffff88166107b8565b146110f9565b61131460038201966112f36112ee895460ff1690565b61115f565b429761130f6113076100f0600287016105bb565b8a10156111c5565b610d34565b0161133e611321826105bb565b610d9461132f8660026104c7565b91611339836105bb565b61122b565b611357610fcf61134d836105bb565b61133960036105bb565b6105bb565b9261139061138a7fffccce2b5511147422ec66220e1efd4cdb22f23b396ca3603b0e3dc22a70b528936104be565b936104be565b9361097b61105860405190565b906101249291611074565b67ffffffffffffffff81116101eb5760208091020190565b906113cd61025f836113a8565b918252565b9061012461143e60036113e3610cb3565b9461140a6113f0826105aa565b73ffffffffffffffffffffffffffffffffffffffff168752565b611420611419600183016105bb565b6020880152565b61143661142f600283016105bb565b6040880152565b015460ff1690565b15156060840152565b6100f0906113d2565b90611459825490565b611462816113c0565b926114766020850191600052602060002090565b6000915b8383106114875750505050565b6004602060019261149785611447565b81520192019201919061147a565b6100f090611450565b6114c56100f0916114bd606090565b5060016104c7565b6114a5565b6113576100f0916114d9600090565b5060026104c756fea2646970667358221220abbe914b05c2e741189a467c3a8fe168bb0453edbba85d999f5f0d76794bb33e64736f6c63430008140033","opcodes":"PUSH1 0x80 PUSH1 0x40 MSTORE CALLVALUE PUSH3 0x30 JUMPI PUSH3 0x1E PUSH3 0x18 PUSH3 0xD3 JUMP JUMPDEST PUSH3 0x1B0 JUMP JUMPDEST PUSH1 0x40 MLOAD PUSH2 0x1517 PUSH3 0x2CD DUP3 CODECOPY PUSH2 0x1517 SWAP1 RETURN JUMPDEST PUSH1 0x0 DUP1 REVERT JUMPDEST PUSH4 0x4E487B71 PUSH1 0xE0 SHL PUSH1 0x0 MSTORE PUSH1 0x41 PUSH1 0x4 MSTORE PUSH1 0x24 PUSH1 0x0 REVERT JUMPDEST SWAP1 PUSH1 0x1F ADD PUSH1 0x1F NOT AND DUP2 ADD SWAP1 DUP2 LT PUSH1 0x1 PUSH1 0x1 PUSH1 0x40 SHL SUB DUP3 GT OR PUSH3 0x6D JUMPI PUSH1 0x40 MSTORE JUMP JUMPDEST PUSH3 0x35 JUMP JUMPDEST SWAP1 PUSH3 0x8A PUSH3 0x82 PUSH1 0x40 MLOAD SWAP1 JUMP JUMPDEST SWAP3 DUP4 PUSH3 0x4B JUMP JUMPDEST JUMP JUMPDEST PUSH1 0x1 PUSH1 0x1 PUSH1 0xA0 SHL SUB AND SWAP1 JUMP JUMPDEST SWAP1 JUMP JUMPDEST PUSH1 0x1 PUSH1 0x1 PUSH1 0xA0 SHL SUB DUP2 AND SUB PUSH3 0x30 JUMPI JUMP JUMPDEST SWAP1 POP MLOAD SWAP1 PUSH3 0x8A DUP3 PUSH3 0x9B JUMP JUMPDEST SWAP1 PUSH1 0x20 DUP3 DUP3 SUB SLT PUSH3 0x30 JUMPI PUSH3 0x98 SWAP2 PUSH3 0xAD JUMP JUMPDEST PUSH3 0x98 PUSH3 0x17E4 DUP1 CODESIZE SUB DUP1 PUSH3 0xEA DUP2 PUSH3 0x73 JUMP JUMPDEST SWAP3 DUP4 CODECOPY DUP2 ADD SWAP1 PUSH3 0xBC JUMP JUMPDEST PUSH3 0x8C PUSH3 0x98 PUSH3 0x98 SWAP3 SWAP1 JUMP JUMPDEST PUSH3 0x98 SWAP1 PUSH3 0xF6 JUMP JUMPDEST ISZERO PUSH3 0x119 JUMPI JUMP JUMPDEST PUSH1 0x40 MLOAD PUSH3 0x461BCD PUSH1 0xE5 SHL DUP2 MSTORE PUSH1 0x20 PUSH1 0x4 DUP3 ADD MSTORE PUSH1 0xB PUSH1 0x24 DUP3 ADD MSTORE PUSH11 0x494E565F464143544F5259 PUSH1 0xA8 SHL PUSH1 0x44 DUP3 ADD MSTORE PUSH1 0x64 SWAP1 REVERT JUMPDEST SUB SWAP1 REVERT JUMPDEST PUSH3 0x98 SWAP1 PUSH3 0x8C SWAP1 PUSH1 0x1 PUSH1 0x1 PUSH1 0xA0 SHL SUB AND DUP3 JUMP JUMPDEST PUSH3 0x98 SWAP1 PUSH3 0x150 JUMP JUMPDEST PUSH3 0x98 SWAP1 PUSH3 0x166 JUMP JUMPDEST SWAP1 PUSH3 0x190 PUSH3 0x98 PUSH3 0x1AC SWAP3 PUSH3 0x171 JUMP JUMPDEST DUP3 SLOAD PUSH1 0x1 PUSH1 0x1 PUSH1 0xA0 SHL SUB NOT AND PUSH1 0x1 PUSH1 0x1 PUSH1 0xA0 SHL SUB SWAP2 SWAP1 SWAP2 AND OR SWAP1 JUMP JUMPDEST SWAP1 SSTORE JUMP JUMPDEST PUSH3 0x8A SWAP1 PUSH3 0x1C0 CALLER PUSH3 0x1EE JUMP JUMPDEST PUSH3 0x1E6 PUSH3 0x1D4 PUSH3 0x8C PUSH1 0x0 PUSH3 0x106 JUMP JUMPDEST PUSH1 0x1 PUSH1 0x1 PUSH1 0xA0 SHL SUB DUP4 AND EQ ISZERO PUSH3 0x111 JUMP JUMPDEST PUSH1 0x4 PUSH3 0x17C JUMP JUMPDEST PUSH3 0x1FA PUSH1 0x0 PUSH3 0x106 JUMP JUMPDEST PUSH1 0x1 PUSH1 0x1 PUSH1 0xA0 SHL SUB DUP2 AND PUSH1 0x1 PUSH1 0x1 PUSH1 0xA0 SHL SUB DUP4 AND EQ PUSH3 0x220 JUMPI POP PUSH3 0x8A SWAP1 PUSH3 0x26A JUMP JUMPDEST PUSH3 0x14C SWAP1 PUSH3 0x22F PUSH1 0x40 MLOAD SWAP1 JUMP JUMPDEST PUSH4 0x1E4FBDF7 PUSH1 0xE0 SHL DUP2 MSTORE SWAP2 DUP3 SWAP2 PUSH1 0x4 DUP4 ADD PUSH1 0x1 PUSH1 0x1 PUSH1 0xA0 SHL SUB SWAP1 SWAP2 AND DUP2 MSTORE PUSH1 0x20 ADD SWAP1 JUMP JUMPDEST PUSH3 0x98 SWAP1 PUSH3 0x8C JUMP JUMPDEST PUSH3 0x98 SWAP1 SLOAD PUSH3 0x253 JUMP JUMPDEST PUSH3 0x276 PUSH1 0x0 PUSH3 0x25E JUMP JUMPDEST SWAP1 PUSH3 0x284 DUP2 PUSH1 0x0 PUSH3 0x17C JUMP JUMPDEST PUSH3 0x2BB PUSH3 0x2B4 PUSH32 0x8BE0079C531659141344CD1FD0A4F28419497F9722A3DAAFE3B4186F6B6457E0 SWAP4 PUSH3 0x171 JUMP JUMPDEST SWAP2 PUSH3 0x171 JUMP JUMPDEST SWAP2 PUSH3 0x2C6 PUSH1 0x40 MLOAD SWAP1 JUMP JUMPDEST PUSH1 0x0 SWAP1 LOG3 JUMP INVALID PUSH1 0x80 PUSH1 0x40 MSTORE PUSH1 0x4 CALLDATASIZE LT ISZERO PUSH2 0x12 JUMPI PUSH1 0x0 DUP1 REVERT JUMPDEST PUSH1 0x0 CALLDATALOAD PUSH1 0xE0 SHR DUP1 PUSH4 0x5C77A3C EQ PUSH2 0xD2 JUMPI DUP1 PUSH4 0x44E5550F EQ PUSH2 0xCD JUMPI DUP1 PUSH4 0x573044E3 EQ PUSH2 0xC8 JUMPI DUP1 PUSH4 0x5BB47808 EQ PUSH2 0xC3 JUMPI DUP1 PUSH4 0x715018A6 EQ PUSH2 0xBE JUMPI DUP1 PUSH4 0x719F3089 EQ PUSH2 0xB9 JUMPI DUP1 PUSH4 0x7B74811A EQ PUSH2 0xB4 JUMPI DUP1 PUSH4 0x8517E0E1 EQ PUSH2 0xAF JUMPI DUP1 PUSH4 0x8DA5CB5B EQ PUSH2 0xAA JUMPI DUP1 PUSH4 0xC45A0155 EQ PUSH2 0xA5 JUMPI DUP1 PUSH4 0xE01F62BF EQ PUSH2 0xA0 JUMPI PUSH4 0xF2FDE38B SUB PUSH2 0x112 JUMPI PUSH2 0x747 JUMP JUMPDEST PUSH2 0x72C JUMP JUMPDEST PUSH2 0x705 JUMP JUMPDEST PUSH2 0x69F JUMP JUMPDEST PUSH2 0x66D JUMP JUMPDEST PUSH2 0x50C JUMP JUMPDEST PUSH2 0x46B JUMP JUMPDEST PUSH2 0x397 JUMP JUMPDEST PUSH2 0x374 JUMP JUMPDEST PUSH2 0x35B JUMP JUMPDEST PUSH2 0x307 JUMP JUMPDEST PUSH2 0x13A JUMP JUMPDEST PUSH20 0xFFFFFFFFFFFFFFFFFFFFFFFFFFFFFFFFFFFFFFFF AND SWAP1 JUMP JUMPDEST SWAP1 JUMP JUMPDEST PUSH20 0xFFFFFFFFFFFFFFFFFFFFFFFFFFFFFFFFFFFFFFFF DUP2 AND JUMPDEST SUB PUSH2 0x112 JUMPI JUMP JUMPDEST PUSH1 0x0 DUP1 REVERT JUMPDEST SWAP1 POP CALLDATALOAD SWAP1 PUSH2 0x124 DUP3 PUSH2 0xF3 JUMP JUMPDEST JUMP JUMPDEST SWAP1 PUSH1 0x20 DUP3 DUP3 SUB SLT PUSH2 0x112 JUMPI PUSH2 0xF0 SWAP2 PUSH2 0x117 JUMP JUMPDEST CALLVALUE PUSH2 0x112 JUMPI PUSH2 0x165 PUSH2 0x155 PUSH2 0x150 CALLDATASIZE PUSH1 0x4 PUSH2 0x126 JUMP JUMPDEST PUSH2 0x14CA JUMP JUMPDEST PUSH1 0x40 MLOAD SWAP2 DUP3 SWAP2 DUP3 SWAP1 DUP2 MSTORE PUSH1 0x20 ADD SWAP1 JUMP JUMPDEST SUB SWAP1 RETURN JUMPDEST DUP1 PUSH2 0x10B JUMP JUMPDEST SWAP1 POP CALLDATALOAD SWAP1 PUSH2 0x124 DUP3 PUSH2 0x169 JUMP JUMPDEST PUSH32 0x4E487B7100000000000000000000000000000000000000000000000000000000 PUSH1 0x0 MSTORE PUSH1 0x41 PUSH1 0x4 MSTORE PUSH1 0x24 PUSH1 0x0 REVERT JUMPDEST SWAP1 PUSH1 0x1F ADD PUSH32 0xFFFFFFFFFFFFFFFFFFFFFFFFFFFFFFFFFFFFFFFFFFFFFFFFFFFFFFFFFFFFFFE0 AND DUP2 ADD SWAP1 DUP2 LT PUSH8 0xFFFFFFFFFFFFFFFF DUP3 GT OR PUSH2 0x1EB JUMPI PUSH1 0x40 MSTORE JUMP JUMPDEST PUSH2 0x17C JUMP JUMPDEST SWAP1 PUSH2 0x124 PUSH2 0x1FD PUSH1 0x40 MLOAD SWAP1 JUMP JUMPDEST SWAP3 DUP4 PUSH2 0x1AB JUMP JUMPDEST PUSH8 0xFFFFFFFFFFFFFFFF DUP2 GT PUSH2 0x1EB JUMPI PUSH1 0x20 SWAP1 PUSH1 0x1F ADD PUSH32 0xFFFFFFFFFFFFFFFFFFFFFFFFFFFFFFFFFFFFFFFFFFFFFFFFFFFFFFFFFFFFFFE0 AND ADD SWAP1 JUMP JUMPDEST ADD SWAP1 JUMP JUMPDEST SWAP1 DUP3 PUSH1 0x0 SWAP4 SWAP3 DUP3 CALLDATACOPY ADD MSTORE JUMP JUMPDEST SWAP1 SWAP3 SWAP2 SWAP3 PUSH2 0x264 PUSH2 0x25F DUP3 PUSH2 0x204 JUMP JUMPDEST PUSH2 0x1F0 JUMP JUMPDEST SWAP4 DUP2 DUP6 MSTORE PUSH1 0x20 DUP6 ADD SWAP1 DUP3 DUP5 ADD GT PUSH2 0x112 JUMPI PUSH2 0x124 SWAP3 PUSH2 0x243 JUMP JUMPDEST SWAP1 DUP1 PUSH1 0x1F DUP4 ADD SLT ISZERO PUSH2 0x112 JUMPI DUP2 PUSH1 0x20 PUSH2 0xF0 SWAP4 CALLDATALOAD SWAP2 ADD PUSH2 0x24F JUMP JUMPDEST SWAP1 SWAP2 PUSH1 0xC0 DUP3 DUP5 SUB SLT PUSH2 0x112 JUMPI PUSH2 0x2AF DUP4 DUP4 PUSH2 0x117 JUMP JUMPDEST SWAP3 PUSH2 0x2BD DUP2 PUSH1 0x20 DUP6 ADD PUSH2 0x117 JUMP JUMPDEST SWAP3 PUSH2 0x2CB DUP3 PUSH1 0x40 DUP4 ADD PUSH2 0x16F JUMP JUMPDEST SWAP3 PUSH2 0x2D9 DUP4 PUSH1 0x60 DUP5 ADD PUSH2 0x16F JUMP JUMPDEST SWAP3 PUSH1 0x80 DUP4 ADD CALLDATALOAD SWAP1 PUSH8 0xFFFFFFFFFFFFFFFF DUP3 GT PUSH2 0x112 JUMPI PUSH2 0x2FE DUP2 PUSH2 0xF0 SWAP4 DUP7 ADD PUSH2 0x27E JUMP JUMPDEST SWAP4 PUSH1 0xA0 ADD PUSH2 0x16F JUMP JUMPDEST CALLVALUE PUSH2 0x112 JUMPI PUSH2 0x326 PUSH2 0x31A CALLDATASIZE PUSH1 0x4 PUSH2 0x299 JUMP JUMPDEST SWAP5 SWAP4 SWAP1 SWAP4 SWAP3 SWAP2 SWAP3 PUSH2 0x1066 JUMP JUMPDEST PUSH1 0x40 MLOAD STOP JUMPDEST SWAP1 SWAP2 PUSH1 0x60 DUP3 DUP5 SUB SLT PUSH2 0x112 JUMPI PUSH2 0xF0 PUSH2 0x344 DUP5 DUP5 PUSH2 0x117 JUMP JUMPDEST SWAP4 PUSH2 0x352 DUP2 PUSH1 0x20 DUP7 ADD PUSH2 0x16F JUMP JUMPDEST SWAP4 PUSH1 0x40 ADD PUSH2 0x117 JUMP JUMPDEST CALLVALUE PUSH2 0x112 JUMPI PUSH2 0x326 PUSH2 0x36E CALLDATASIZE PUSH1 0x4 PUSH2 0x32B JUMP JUMPDEST SWAP2 PUSH2 0x139D JUMP JUMPDEST CALLVALUE PUSH2 0x112 JUMPI PUSH2 0x326 PUSH2 0x387 CALLDATASIZE PUSH1 0x4 PUSH2 0x126 JUMP JUMPDEST PUSH2 0xA30 JUMP JUMPDEST PUSH1 0x0 SWAP2 SUB SLT PUSH2 0x112 JUMPI JUMP JUMPDEST CALLVALUE PUSH2 0x112 JUMPI PUSH2 0x3A7 CALLDATASIZE PUSH1 0x4 PUSH2 0x38C JUMP JUMPDEST PUSH2 0x326 PUSH2 0x7A1 JUMP JUMPDEST DUP1 MLOAD PUSH20 0xFFFFFFFFFFFFFFFFFFFFFFFFFFFFFFFFFFFFFFFF AND DUP3 MSTORE PUSH2 0x124 SWAP2 SWAP1 PUSH1 0x60 SWAP1 DUP2 SWAP1 PUSH2 0x3E2 PUSH1 0x20 DUP3 ADD MLOAD PUSH1 0x20 DUP7 ADD MSTORE JUMP JUMPDEST PUSH2 0x3F1 PUSH1 0x40 DUP3 ADD MLOAD PUSH1 0x40 DUP7 ADD MSTORE JUMP JUMPDEST ADD MLOAD ISZERO ISZERO SWAP2 ADD MSTORE JUMP JUMPDEST SWAP1 PUSH2 0x23F DUP2 PUSH1 0x80 SWAP4 PUSH2 0x3AF JUMP JUMPDEST SWAP1 PUSH2 0x427 PUSH2 0x420 PUSH2 0x416 DUP5 MLOAD SWAP1 JUMP JUMPDEST DUP1 DUP5 MSTORE SWAP3 PUSH1 0x20 ADD SWAP1 JUMP JUMPDEST SWAP3 PUSH1 0x20 ADD SWAP1 JUMP JUMPDEST SWAP1 PUSH1 0x0 JUMPDEST DUP2 DUP2 LT PUSH2 0x438 JUMPI POP POP POP SWAP1 JUMP JUMPDEST SWAP1 SWAP2 SWAP3 PUSH2 0x452 PUSH2 0x44B PUSH1 0x1 SWAP3 DUP7 MLOAD PUSH2 0x3FA JUMP JUMPDEST SWAP5 PUSH1 0x20 ADD SWAP1 JUMP JUMPDEST SWAP3 SWAP2 ADD PUSH2 0x42B JUMP JUMPDEST PUSH1 0x20 DUP1 DUP3 MSTORE PUSH2 0xF0 SWAP3 SWAP2 ADD SWAP1 PUSH2 0x407 JUMP JUMPDEST CALLVALUE PUSH2 0x112 JUMPI PUSH2 0x165 PUSH2 0x486 PUSH2 0x481 CALLDATASIZE PUSH1 0x4 PUSH2 0x126 JUMP JUMPDEST PUSH2 0x14AE JUMP JUMPDEST PUSH1 0x40 MLOAD SWAP2 DUP3 SWAP2 DUP3 PUSH2 0x45A JUMP JUMPDEST PUSH2 0xD7 PUSH2 0xF0 PUSH2 0xF0 SWAP3 PUSH20 0xFFFFFFFFFFFFFFFFFFFFFFFFFFFFFFFFFFFFFFFF AND SWAP1 JUMP JUMPDEST PUSH2 0xF0 SWAP1 PUSH2 0x492 JUMP JUMPDEST PUSH2 0xF0 SWAP1 PUSH2 0x4B5 JUMP JUMPDEST SWAP1 PUSH2 0x4D1 SWAP1 PUSH2 0x4BE JUMP JUMPDEST PUSH1 0x0 MSTORE PUSH1 0x20 MSTORE PUSH1 0x40 PUSH1 0x0 KECCAK256 SWAP1 JUMP JUMPDEST PUSH2 0xF0 SWAP2 PUSH1 0x8 MUL SHR DUP2 JUMP JUMPDEST SWAP1 PUSH2 0xF0 SWAP2 SLOAD PUSH2 0x4DF JUMP JUMPDEST PUSH2 0xF0 SWAP1 PUSH2 0x507 PUSH1 0x2 SWAP2 PUSH1 0x0 SWAP3 PUSH2 0x4C7 JUMP JUMPDEST PUSH2 0x4EA JUMP JUMPDEST CALLVALUE PUSH2 0x112 JUMPI PUSH2 0x165 PUSH2 0x155 PUSH2 0x522 CALLDATASIZE PUSH1 0x4 PUSH2 0x126 JUMP JUMPDEST PUSH2 0x4F5 JUMP JUMPDEST SWAP2 SWAP1 PUSH1 0x40 DUP4 DUP3 SUB SLT PUSH2 0x112 JUMPI PUSH2 0xF0 SWAP1 PUSH2 0x541 DUP2 DUP6 PUSH2 0x117 JUMP JUMPDEST SWAP4 PUSH1 0x20 ADD PUSH2 0x16F JUMP JUMPDEST PUSH32 0x4E487B7100000000000000000000000000000000000000000000000000000000 PUSH1 0x0 MSTORE PUSH1 0x32 PUSH1 0x4 MSTORE PUSH1 0x24 PUSH1 0x0 REVERT JUMPDEST DUP1 SLOAD DUP3 LT ISZERO PUSH2 0x59C JUMPI PUSH2 0x593 PUSH1 0x4 SWAP2 PUSH1 0x0 MSTORE PUSH1 0x20 PUSH1 0x0 KECCAK256 SWAP1 JUMP JUMPDEST SWAP2 MUL ADD SWAP1 PUSH1 0x0 SWAP1 JUMP JUMPDEST PUSH2 0x54A JUMP JUMPDEST PUSH2 0xF0 SWAP1 PUSH2 0xD7 JUMP JUMPDEST PUSH2 0xF0 SWAP1 SLOAD PUSH2 0x5A1 JUMP JUMPDEST PUSH2 0xF0 SWAP1 DUP2 JUMP JUMPDEST PUSH2 0xF0 SWAP1 SLOAD PUSH2 0x5B4 JUMP JUMPDEST SWAP2 SWAP1 PUSH2 0x5D5 PUSH1 0x1 SWAP4 PUSH1 0x0 SWAP5 PUSH2 0x4C7 JUMP JUMPDEST DUP1 SLOAD DUP3 LT ISZERO PUSH2 0x61C JUMPI PUSH2 0x5E9 SWAP3 SWAP4 POP PUSH2 0x579 JUMP JUMPDEST POP SWAP1 PUSH2 0x5F4 DUP3 PUSH2 0x5AA JUMP JUMPDEST SWAP2 PUSH2 0x601 PUSH1 0x1 DUP3 ADD PUSH2 0x5BB JUMP JUMPDEST SWAP2 PUSH2 0xF0 PUSH1 0x3 PUSH2 0x613 PUSH1 0x2 DUP6 ADD PUSH2 0x5BB JUMP JUMPDEST SWAP4 ADD SLOAD PUSH1 0xFF AND SWAP1 JUMP JUMPDEST DUP4 DUP1 REVERT JUMPDEST PUSH2 0x665 PUSH2 0x124 SWAP5 PUSH2 0x65E PUSH1 0x60 SWAP5 SWAP9 SWAP8 SWAP6 PUSH2 0x657 PUSH1 0x80 DUP7 ADD SWAP11 PUSH1 0x0 DUP8 ADD SWAP1 PUSH20 0xFFFFFFFFFFFFFFFFFFFFFFFFFFFFFFFFFFFFFFFF AND SWAP1 MSTORE JUMP JUMPDEST PUSH1 0x20 DUP6 ADD MSTORE JUMP JUMPDEST PUSH1 0x40 DUP4 ADD MSTORE JUMP JUMPDEST ADD SWAP1 ISZERO ISZERO SWAP1 MSTORE JUMP JUMPDEST CALLVALUE PUSH2 0x112 JUMPI PUSH2 0x165 PUSH2 0x689 PUSH2 0x683 CALLDATASIZE PUSH1 0x4 PUSH2 0x527 JUMP JUMPDEST SWAP1 PUSH2 0x5C5 JUMP JUMPDEST SWAP1 PUSH2 0x696 SWAP5 SWAP3 SWAP5 PUSH1 0x40 MLOAD SWAP1 JUMP JUMPDEST SWAP5 DUP6 SWAP5 DUP6 PUSH2 0x620 JUMP JUMPDEST CALLVALUE PUSH2 0x112 JUMPI PUSH2 0x6AF CALLDATASIZE PUSH1 0x4 PUSH2 0x38C JUMP JUMPDEST PUSH2 0x165 PUSH2 0x6BA PUSH2 0x75F JUMP JUMPDEST PUSH1 0x40 MLOAD SWAP2 DUP3 SWAP2 DUP3 PUSH20 0xFFFFFFFFFFFFFFFFFFFFFFFFFFFFFFFFFFFFFFFF SWAP1 SWAP2 AND DUP2 MSTORE PUSH1 0x20 ADD SWAP1 JUMP JUMPDEST PUSH2 0xF0 SWAP2 PUSH1 0x8 MUL SHR PUSH2 0xD7 JUMP JUMPDEST SWAP1 PUSH2 0xF0 SWAP2 SLOAD PUSH2 0x6E1 JUMP JUMPDEST PUSH2 0xF0 PUSH1 0x0 PUSH1 0x4 PUSH2 0x6EE JUMP JUMPDEST CALLVALUE PUSH2 0x112 JUMPI PUSH2 0x715 CALLDATASIZE PUSH1 0x4 PUSH2 0x38C JUMP JUMPDEST PUSH2 0x165 PUSH2 0x6BA PUSH2 0x6F9 JUMP JUMPDEST PUSH2 0xF0 PUSH1 0x0 PUSH1 0x3 PUSH2 0x4EA JUMP JUMPDEST CALLVALUE PUSH2 0x112 JUMPI PUSH2 0x73C CALLDATASIZE PUSH1 0x4 PUSH2 0x38C JUMP JUMPDEST PUSH2 0x165 PUSH2 0x155 PUSH2 0x720 JUMP JUMPDEST CALLVALUE PUSH2 0x112 JUMPI PUSH2 0x326 PUSH2 0x75A CALLDATASIZE PUSH1 0x4 PUSH2 0x126 JUMP JUMPDEST PUSH2 0x8DF JUMP JUMPDEST PUSH2 0xF0 PUSH1 0x0 PUSH2 0x5AA JUMP JUMPDEST PUSH2 0x771 PUSH2 0x7A9 JUMP JUMPDEST PUSH2 0x124 PUSH2 0x78F JUMP JUMPDEST PUSH2 0xD7 PUSH2 0xF0 PUSH2 0xF0 SWAP3 SWAP1 JUMP JUMPDEST PUSH2 0xF0 SWAP1 PUSH2 0x779 JUMP JUMPDEST PUSH2 0x124 PUSH2 0x79C PUSH1 0x0 PUSH2 0x786 JUMP JUMPDEST PUSH2 0x925 JUMP JUMPDEST PUSH2 0x124 PUSH2 0x769 JUMP JUMPDEST PUSH2 0x7B1 PUSH2 0x75F JUMP JUMPDEST CALLER SWAP1 PUSH2 0x7D2 DUP3 JUMPDEST SWAP2 PUSH20 0xFFFFFFFFFFFFFFFFFFFFFFFFFFFFFFFFFFFFFFFF AND SWAP1 JUMP JUMPDEST SUB PUSH2 0x7DA JUMPI POP JUMP JUMPDEST PUSH2 0x831 SWAP1 PUSH2 0x7E7 PUSH1 0x40 MLOAD SWAP1 JUMP JUMPDEST SWAP2 DUP3 SWAP2 PUSH32 0x118CDAA700000000000000000000000000000000000000000000000000000000 DUP4 MSTORE PUSH1 0x4 DUP4 ADD PUSH20 0xFFFFFFFFFFFFFFFFFFFFFFFFFFFFFFFFFFFFFFFF SWAP1 SWAP2 AND DUP2 MSTORE PUSH1 0x20 ADD SWAP1 JUMP JUMPDEST SUB SWAP1 REVERT JUMPDEST PUSH2 0x124 SWAP1 PUSH2 0x841 PUSH2 0x7A9 JUMP JUMPDEST PUSH2 0x84B PUSH1 0x0 PUSH2 0x786 JUMP JUMPDEST PUSH20 0xFFFFFFFFFFFFFFFFFFFFFFFFFFFFFFFFFFFFFFFF DUP2 AND PUSH20 0xFFFFFFFFFFFFFFFFFFFFFFFFFFFFFFFFFFFFFFFF DUP4 AND EQ PUSH2 0x888 JUMPI POP PUSH2 0x124 SWAP1 PUSH2 0x925 JUMP JUMPDEST PUSH2 0x831 SWAP1 PUSH2 0x895 PUSH1 0x40 MLOAD SWAP1 JUMP JUMPDEST SWAP2 DUP3 SWAP2 PUSH32 0x1E4FBDF700000000000000000000000000000000000000000000000000000000 DUP4 MSTORE PUSH1 0x4 DUP4 ADD PUSH20 0xFFFFFFFFFFFFFFFFFFFFFFFFFFFFFFFFFFFFFFFF SWAP1 SWAP2 AND DUP2 MSTORE PUSH1 0x20 ADD SWAP1 JUMP JUMPDEST PUSH2 0x124 SWAP1 PUSH2 0x835 JUMP JUMPDEST SWAP1 PUSH20 0xFFFFFFFFFFFFFFFFFFFFFFFFFFFFFFFFFFFFFFFF SWAP1 JUMPDEST SWAP2 DUP2 NOT AND SWAP2 AND OR SWAP1 JUMP JUMPDEST SWAP1 PUSH2 0x91A PUSH2 0xF0 PUSH2 0x921 SWAP3 PUSH2 0x4BE JUMP JUMPDEST DUP3 SLOAD PUSH2 0x8E8 JUMP JUMPDEST SWAP1 SSTORE JUMP JUMPDEST PUSH2 0x92F PUSH1 0x0 PUSH2 0x5AA JUMP JUMPDEST SWAP1 PUSH2 0x93B DUP2 PUSH1 0x0 PUSH2 0x90A JUMP JUMPDEST PUSH2 0x96E PUSH2 0x968 PUSH32 0x8BE0079C531659141344CD1FD0A4F28419497F9722A3DAAFE3B4186F6B6457E0 SWAP4 PUSH2 0x4BE JUMP JUMPDEST SWAP2 PUSH2 0x4BE JUMP JUMPDEST SWAP2 PUSH2 0x978 PUSH1 0x40 MLOAD SWAP1 JUMP JUMPDEST DUP1 DUP1 JUMPDEST SUB SWAP1 LOG3 JUMP JUMPDEST PUSH2 0x124 SWAP1 PUSH2 0x98C PUSH2 0x7A9 JUMP JUMPDEST PUSH2 0x9F7 JUMP JUMPDEST ISZERO PUSH2 0x998 JUMPI JUMP JUMPDEST PUSH1 0x40 MLOAD PUSH32 0x8C379A000000000000000000000000000000000000000000000000000000000 DUP2 MSTORE PUSH1 0x20 PUSH1 0x4 DUP3 ADD MSTORE PUSH1 0xB PUSH1 0x24 DUP3 ADD MSTORE PUSH32 0x494E565F464143544F5259000000000000000000000000000000000000000000 PUSH1 0x44 DUP3 ADD MSTORE PUSH1 0x64 SWAP1 REVERT JUMPDEST PUSH2 0x124 SWAP1 PUSH2 0xA29 PUSH2 0xA0B PUSH2 0xD7 PUSH1 0x0 PUSH2 0x786 JUMP JUMPDEST PUSH20 0xFFFFFFFFFFFFFFFFFFFFFFFFFFFFFFFFFFFFFFFF DUP4 AND EQ ISZERO PUSH2 0x991 JUMP JUMPDEST PUSH1 0x4 PUSH2 0x90A JUMP JUMPDEST PUSH2 0x124 SWAP1 PUSH2 0x980 JUMP JUMPDEST ISZERO PUSH2 0xA40 JUMPI JUMP JUMPDEST PUSH1 0x40 MLOAD PUSH32 0x8C379A000000000000000000000000000000000000000000000000000000000 DUP2 MSTORE PUSH1 0x20 PUSH1 0x4 DUP3 ADD MSTORE PUSH1 0xC PUSH1 0x24 DUP3 ADD MSTORE PUSH32 0x4F4E4C595F464143544F52590000000000000000000000000000000000000000 PUSH1 0x44 DUP3 ADD MSTORE PUSH1 0x64 SWAP1 REVERT JUMPDEST SWAP1 PUSH2 0x124 SWAP6 SWAP5 SWAP4 SWAP3 SWAP2 PUSH2 0xAC2 CALLER PUSH2 0xABC PUSH2 0x7B8 PUSH2 0xD7 PUSH1 0x4 PUSH2 0x5AA JUMP JUMPDEST EQ PUSH2 0xA39 JUMP JUMPDEST PUSH2 0xEBE JUMP JUMPDEST ISZERO PUSH2 0xACE JUMPI JUMP JUMPDEST PUSH1 0x40 MLOAD PUSH32 0x8C379A000000000000000000000000000000000000000000000000000000000 DUP2 MSTORE PUSH1 0x20 PUSH1 0x4 DUP3 ADD MSTORE PUSH1 0x8 PUSH1 0x24 DUP3 ADD MSTORE PUSH32 0x494E565F50414952000000000000000000000000000000000000000000000000 PUSH1 0x44 DUP3 ADD MSTORE PUSH1 0x64 SWAP1 REVERT JUMPDEST PUSH2 0xF0 PUSH2 0xF0 PUSH2 0xF0 SWAP3 SWAP1 JUMP JUMPDEST ISZERO PUSH2 0xB41 JUMPI JUMP JUMPDEST PUSH1 0x40 MLOAD PUSH32 0x8C379A000000000000000000000000000000000000000000000000000000000 DUP2 MSTORE PUSH1 0x20 PUSH1 0x4 DUP3 ADD MSTORE PUSH1 0x7 PUSH1 0x24 DUP3 ADD MSTORE PUSH32 0x494E565F414D5400000000000000000000000000000000000000000000000000 PUSH1 0x44 DUP3 ADD MSTORE PUSH1 0x64 SWAP1 REVERT JUMPDEST ISZERO PUSH2 0xBA7 JUMPI JUMP JUMPDEST PUSH1 0x40 MLOAD PUSH32 0x8C379A000000000000000000000000000000000000000000000000000000000 DUP2 MSTORE PUSH1 0x20 PUSH1 0x4 DUP3 ADD MSTORE PUSH1 0x7 PUSH1 0x24 DUP3 ADD MSTORE PUSH32 0x494E565F44555200000000000000000000000000000000000000000000000000 PUSH1 0x44 DUP3 ADD MSTORE PUSH1 0x64 SWAP1 REVERT JUMPDEST ISZERO PUSH2 0xC0D JUMPI JUMP JUMPDEST PUSH1 0x40 MLOAD PUSH32 0x8C379A000000000000000000000000000000000000000000000000000000000 DUP2 MSTORE DUP1 PUSH2 0x831 PUSH1 0x4 DUP3 ADD PUSH1 0x20 DUP1 DUP3 MSTORE PUSH1 0x4 SWAP1 DUP3 ADD MSTORE PUSH32 0x4C4F4E4700000000000000000000000000000000000000000000000000000000 PUSH1 0x40 DUP3 ADD MSTORE PUSH1 0x60 ADD SWAP1 JUMP JUMPDEST PUSH32 0x4E487B7100000000000000000000000000000000000000000000000000000000 PUSH1 0x0 MSTORE PUSH1 0x11 PUSH1 0x4 MSTORE PUSH1 0x24 PUSH1 0x0 REVERT JUMPDEST SWAP2 SWAP1 DUP3 ADD DUP1 SWAP3 GT PUSH2 0xCAE JUMPI JUMP JUMPDEST PUSH2 0xC72 JUMP JUMPDEST PUSH2 0xF0 PUSH1 0x80 PUSH2 0x1F0 JUMP JUMPDEST PUSH32 0x4E487B7100000000000000000000000000000000000000000000000000000000 PUSH1 0x0 MSTORE PUSH1 0x0 PUSH1 0x4 MSTORE PUSH1 0x24 PUSH1 0x0 REVERT JUMPDEST SWAP1 PUSH32 0xFFFFFFFFFFFFFFFFFFFFFFFFFFFFFFFFFFFFFFFFFFFFFFFFFFFFFFFFFFFFFFFF SWAP1 PUSH2 0x900 JUMP JUMPDEST SWAP1 PUSH2 0xD24 PUSH2 0xF0 PUSH2 0x921 SWAP3 PUSH2 0xB2D JUMP JUMPDEST DUP3 SLOAD PUSH2 0xCEC JUMP JUMPDEST SWAP1 PUSH1 0xFF SWAP1 PUSH2 0x900 JUMP JUMPDEST SWAP1 PUSH2 0xD44 PUSH2 0xF0 PUSH2 0x921 SWAP3 ISZERO ISZERO SWAP1 JUMP JUMPDEST DUP3 SLOAD PUSH2 0xD2B JUMP JUMPDEST PUSH2 0x124 SWAP2 SWAP1 PUSH2 0xDB5 SWAP1 PUSH1 0x60 SWAP1 PUSH1 0x3 SWAP1 PUSH2 0xD82 DUP2 PUSH2 0xD7C DUP8 MLOAD PUSH20 0xFFFFFFFFFFFFFFFFFFFFFFFFFFFFFFFFFFFFFFFF AND SWAP1 JUMP JUMPDEST SWAP1 PUSH2 0x90A JUMP JUMPDEST PUSH2 0xD9A PUSH1 0x1 DUP3 ADD PUSH2 0xD94 PUSH1 0x20 DUP9 ADD MLOAD SWAP1 JUMP JUMPDEST SWAP1 PUSH2 0xD14 JUMP JUMPDEST PUSH2 0xDAC PUSH1 0x2 DUP3 ADD PUSH2 0xD94 PUSH1 0x40 DUP9 ADD MLOAD SWAP1 JUMP JUMPDEST ADD SWAP3 ADD MLOAD ISZERO ISZERO SWAP1 JUMP JUMPDEST SWAP1 PUSH2 0xD34 JUMP JUMPDEST SWAP2 SWAP1 PUSH2 0xDCA JUMPI PUSH2 0x124 SWAP2 PUSH2 0xD4B JUMP JUMPDEST PUSH2 0xCBD JUMP JUMPDEST SWAP1 DUP2 SLOAD SWAP2 PUSH9 0x10000000000000000 DUP4 LT ISZERO PUSH2 0x1EB JUMPI DUP3 PUSH2 0xDF7 SWAP2 PUSH1 0x1 PUSH2 0x124 SWAP6 ADD DUP2 SSTORE PUSH2 0x579 JUMP JUMPDEST SWAP1 PUSH2 0xDBB JUMP JUMPDEST PUSH1 0x0 JUMPDEST DUP4 DUP2 LT PUSH2 0xE10 JUMPI POP POP PUSH1 0x0 SWAP2 ADD MSTORE JUMP JUMPDEST DUP2 DUP2 ADD MLOAD DUP4 DUP3 ADD MSTORE PUSH1 0x20 ADD PUSH2 0xE00 JUMP JUMPDEST PUSH2 0xE41 PUSH2 0xE4A PUSH1 0x20 SWAP4 PUSH2 0x23F SWAP4 PUSH2 0xE35 DUP2 MLOAD SWAP1 JUMP JUMPDEST DUP1 DUP4 MSTORE SWAP4 DUP5 SWAP3 PUSH1 0x20 ADD SWAP1 JUMP JUMPDEST SWAP6 DUP7 SWAP2 ADD PUSH2 0xDFD JUMP JUMPDEST PUSH1 0x1F ADD PUSH32 0xFFFFFFFFFFFFFFFFFFFFFFFFFFFFFFFFFFFFFFFFFFFFFFFFFFFFFFFFFFFFFFE0 AND SWAP1 JUMP JUMPDEST SWAP5 SWAP4 SWAP2 PUSH1 0x60 SWAP2 PUSH2 0x124 SWAP5 PUSH2 0xE99 PUSH2 0xEA6 SWAP4 PUSH2 0xE92 PUSH1 0x80 DUP12 ADD SWAP5 PUSH1 0x0 DUP13 ADD MSTORE JUMP JUMPDEST PUSH1 0x20 DUP11 ADD MSTORE JUMP JUMPDEST DUP8 DUP3 SUB PUSH1 0x40 DUP10 ADD MSTORE PUSH2 0xE20 JUMP JUMPDEST SWAP5 ADD MSTORE JUMP JUMPDEST SWAP1 DUP2 MSTORE PUSH1 0x40 DUP2 ADD SWAP3 SWAP2 PUSH2 0x124 SWAP2 PUSH1 0x20 ADD MSTORE JUMP JUMPDEST DUP6 SWAP5 SWAP3 PUSH2 0xFDB PUSH1 0x40 DUP5 PUSH2 0xF9E PUSH1 0x0 PUSH2 0xEFA PUSH2 0xEDB PUSH2 0xD7 DUP4 PUSH2 0x786 JUMP JUMPDEST PUSH20 0xFFFFFFFFFFFFFFFFFFFFFFFFFFFFFFFFFFFFFFFF DUP10 AND JUMPDEST EQ ISZERO PUSH2 0xAC7 JUMP JUMPDEST PUSH2 0xF0D PUSH2 0xF06 DUP3 PUSH2 0xB2D JUMP JUMPDEST DUP8 GT PUSH2 0xB3A JUMP JUMPDEST PUSH2 0xF20 PUSH2 0xF19 DUP3 PUSH2 0xB2D JUMP JUMPDEST DUP12 GT PUSH2 0xBA0 JUMP JUMPDEST PUSH2 0xF38 PUSH2 0xF30 PUSH4 0x1E13380 PUSH2 0xB2D JUMP JUMPDEST DUP12 GT ISZERO PUSH2 0xC06 JUMP JUMPDEST PUSH2 0xF99 PUSH2 0xF0 DUP9 PUSH2 0xF4A TIMESTAMP SWAP14 DUP15 PUSH2 0xCA1 JUMP JUMPDEST PUSH2 0xF8C PUSH1 0x1 SWAP2 PUSH2 0xF7B PUSH2 0xF5B PUSH2 0xCB3 JUMP JUMPDEST SWAP10 DUP11 SWAP9 DUP10 ADD SWAP1 PUSH20 0xFFFFFFFFFFFFFFFFFFFFFFFFFFFFFFFFFFFFFFFF AND SWAP1 MSTORE JUMP JUMPDEST PUSH2 0xF86 DUP13 PUSH1 0x20 DUP10 ADD MSTORE JUMP JUMPDEST DUP10 DUP8 ADD MSTORE JUMP JUMPDEST DUP1 ISZERO ISZERO PUSH1 0x60 DUP7 ADD MSTORE PUSH2 0x4C7 JUMP JUMPDEST PUSH2 0xDCF JUMP JUMPDEST PUSH2 0xFBE PUSH2 0xFAC DUP7 PUSH1 0x2 PUSH2 0x4C7 JUMP JUMPDEST PUSH2 0xD94 DUP7 PUSH2 0xFB9 DUP4 PUSH2 0x5BB JUMP JUMPDEST PUSH2 0xCA1 JUMP JUMPDEST PUSH2 0xFD6 PUSH2 0xFCF DUP6 PUSH2 0xFB9 PUSH1 0x3 PUSH2 0x5BB JUMP JUMPDEST PUSH1 0x3 PUSH2 0xD14 JUMP JUMPDEST ADD MLOAD SWAP1 JUMP JUMPDEST SWAP1 PUSH2 0x1027 PUSH2 0x1012 PUSH2 0x100C PUSH32 0xA45B42AC0191D9FBB31A6F3153BBFBDF25752C562611938D75A7E0B03410A172 SWAP6 PUSH2 0x4BE JUMP JUMPDEST SWAP6 PUSH2 0x4BE JUMP JUMPDEST SWAP9 DUP10 SWAP7 PUSH2 0x101E PUSH1 0x40 MLOAD SWAP1 JUMP JUMPDEST SWAP5 DUP6 SWAP5 DUP6 PUSH2 0xE72 JUMP JUMPDEST SUB SWAP1 LOG3 PUSH32 0xDEA7F500102B57954CE349711B5317687D0EB726AFC638FAF5DF8700CA52EBE5 SWAP2 PUSH2 0x1061 PUSH2 0x1058 PUSH1 0x40 MLOAD SWAP1 JUMP JUMPDEST SWAP3 DUP4 SWAP3 DUP4 PUSH2 0xEAB JUMP JUMPDEST SUB SWAP1 LOG2 JUMP JUMPDEST SWAP1 PUSH2 0x124 SWAP6 SWAP5 SWAP4 SWAP3 SWAP2 PUSH2 0xA9F JUMP JUMPDEST SWAP1 PUSH2 0x124 SWAP3 SWAP2 PUSH2 0x108E CALLER PUSH2 0xABC PUSH2 0x7B8 PUSH2 0xD7 PUSH1 0x4 PUSH2 0x5AA JUMP JUMPDEST PUSH2 0x1238 JUMP JUMPDEST ISZERO PUSH2 0x109A JUMPI JUMP JUMPDEST PUSH1 0x40 MLOAD PUSH32 0x8C379A000000000000000000000000000000000000000000000000000000000 DUP2 MSTORE PUSH1 0x20 PUSH1 0x4 DUP3 ADD MSTORE PUSH1 0x7 PUSH1 0x24 DUP3 ADD MSTORE PUSH32 0x494E565F49445800000000000000000000000000000000000000000000000000 PUSH1 0x44 DUP3 ADD MSTORE PUSH1 0x64 SWAP1 REVERT JUMPDEST ISZERO PUSH2 0x1100 JUMPI JUMP JUMPDEST PUSH1 0x40 MLOAD PUSH32 0x8C379A000000000000000000000000000000000000000000000000000000000 DUP2 MSTORE PUSH1 0x20 PUSH1 0x4 DUP3 ADD MSTORE PUSH1 0x9 PUSH1 0x24 DUP3 ADD MSTORE PUSH32 0x4E4F545F4F574E45520000000000000000000000000000000000000000000000 PUSH1 0x44 DUP3 ADD MSTORE PUSH1 0x64 SWAP1 REVERT JUMPDEST ISZERO PUSH2 0x1166 JUMPI JUMP JUMPDEST PUSH1 0x40 MLOAD PUSH32 0x8C379A000000000000000000000000000000000000000000000000000000000 DUP2 MSTORE PUSH1 0x20 PUSH1 0x4 DUP3 ADD MSTORE PUSH1 0x8 PUSH1 0x24 DUP3 ADD MSTORE PUSH32 0x554E4C4F434B4544000000000000000000000000000000000000000000000000 PUSH1 0x44 DUP3 ADD MSTORE PUSH1 0x64 SWAP1 REVERT JUMPDEST ISZERO PUSH2 0x11CC JUMPI JUMP JUMPDEST PUSH1 0x40 MLOAD PUSH32 0x8C379A000000000000000000000000000000000000000000000000000000000 DUP2 MSTORE PUSH1 0x20 PUSH1 0x4 DUP3 ADD MSTORE PUSH1 0xB PUSH1 0x24 DUP3 ADD MSTORE PUSH32 0x4E4F545F45585049524544000000000000000000000000000000000000000000 PUSH1 0x44 DUP3 ADD MSTORE PUSH1 0x64 SWAP1 REVERT JUMPDEST SWAP2 SWAP1 DUP3 SUB SWAP2 DUP3 GT PUSH2 0xCAE JUMPI JUMP JUMPDEST PUSH1 0x0 SWAP3 SWAP2 PUSH2 0x135C SWAP1 PUSH2 0x126B PUSH2 0x124F PUSH2 0xD7 DUP8 PUSH2 0x786 JUMP JUMPDEST PUSH20 0xFFFFFFFFFFFFFFFFFFFFFFFFFFFFFFFFFFFFFFFF DUP6 AND PUSH2 0xEF3 JUMP JUMPDEST PUSH2 0x12A5 PUSH2 0x12A1 PUSH1 0x1 SWAP3 PUSH2 0x1292 PUSH2 0x128B PUSH2 0xF0 PUSH2 0x1287 DUP10 DUP9 PUSH2 0x4C7 JUMP JUMPDEST SLOAD SWAP1 JUMP JUMPDEST DUP3 LT PUSH2 0x1093 JUMP JUMPDEST PUSH2 0x129C DUP7 DUP6 PUSH2 0x4C7 JUMP JUMPDEST PUSH2 0x579 JUMP JUMPDEST POP SWAP1 JUMP JUMPDEST PUSH2 0x12D8 PUSH2 0x12B3 DUP8 DUP4 ADD PUSH2 0x5AA JUMP JUMPDEST PUSH2 0x12D2 PUSH20 0xFFFFFFFFFFFFFFFFFFFFFFFFFFFFFFFFFFFFFFFF DUP9 AND PUSH2 0x7B8 JUMP JUMPDEST EQ PUSH2 0x10F9 JUMP JUMPDEST PUSH2 0x1314 PUSH1 0x3 DUP3 ADD SWAP7 PUSH2 0x12F3 PUSH2 0x12EE DUP10 SLOAD PUSH1 0xFF AND SWAP1 JUMP JUMPDEST PUSH2 0x115F JUMP JUMPDEST TIMESTAMP SWAP8 PUSH2 0x130F PUSH2 0x1307 PUSH2 0xF0 PUSH1 0x2 DUP8 ADD PUSH2 0x5BB JUMP JUMPDEST DUP11 LT ISZERO PUSH2 0x11C5 JUMP JUMPDEST PUSH2 0xD34 JUMP JUMPDEST ADD PUSH2 0x133E PUSH2 0x1321 DUP3 PUSH2 0x5BB JUMP JUMPDEST PUSH2 0xD94 PUSH2 0x132F DUP7 PUSH1 0x2 PUSH2 0x4C7 JUMP JUMPDEST SWAP2 PUSH2 0x1339 DUP4 PUSH2 0x5BB JUMP JUMPDEST PUSH2 0x122B JUMP JUMPDEST PUSH2 0x1357 PUSH2 0xFCF PUSH2 0x134D DUP4 PUSH2 0x5BB JUMP JUMPDEST PUSH2 0x1339 PUSH1 0x3 PUSH2 0x5BB JUMP JUMPDEST PUSH2 0x5BB JUMP JUMPDEST SWAP3 PUSH2 0x1390 PUSH2 0x138A PUSH32 0xFFCCCE2B5511147422EC66220E1EFD4CDB22F23B396CA3603B0E3DC22A70B528 SWAP4 PUSH2 0x4BE JUMP JUMPDEST SWAP4 PUSH2 0x4BE JUMP JUMPDEST SWAP4 PUSH2 0x97B PUSH2 0x1058 PUSH1 0x40 MLOAD SWAP1 JUMP JUMPDEST SWAP1 PUSH2 0x124 SWAP3 SWAP2 PUSH2 0x1074 JUMP JUMPDEST PUSH8 0xFFFFFFFFFFFFFFFF DUP2 GT PUSH2 0x1EB JUMPI PUSH1 0x20 DUP1 SWAP2 MUL ADD SWAP1 JUMP JUMPDEST SWAP1 PUSH2 0x13CD PUSH2 0x25F DUP4 PUSH2 0x13A8 JUMP JUMPDEST SWAP2 DUP3 MSTORE JUMP JUMPDEST SWAP1 PUSH2 0x124 PUSH2 0x143E PUSH1 0x3 PUSH2 0x13E3 PUSH2 0xCB3 JUMP JUMPDEST SWAP5 PUSH2 0x140A PUSH2 0x13F0 DUP3 PUSH2 0x5AA JUMP JUMPDEST PUSH20 0xFFFFFFFFFFFFFFFFFFFFFFFFFFFFFFFFFFFFFFFF AND DUP8 MSTORE JUMP JUMPDEST PUSH2 0x1420 PUSH2 0x1419 PUSH1 0x1 DUP4 ADD PUSH2 0x5BB JUMP JUMPDEST PUSH1 0x20 DUP9 ADD MSTORE JUMP JUMPDEST PUSH2 0x1436 PUSH2 0x142F PUSH1 0x2 DUP4 ADD PUSH2 0x5BB JUMP JUMPDEST PUSH1 0x40 DUP9 ADD MSTORE JUMP JUMPDEST ADD SLOAD PUSH1 0xFF AND SWAP1 JUMP JUMPDEST ISZERO ISZERO PUSH1 0x60 DUP5 ADD MSTORE JUMP JUMPDEST PUSH2 0xF0 SWAP1 PUSH2 0x13D2 JUMP JUMPDEST SWAP1 PUSH2 0x1459 DUP3 SLOAD SWAP1 JUMP JUMPDEST PUSH2 0x1462 DUP2 PUSH2 0x13C0 JUMP JUMPDEST SWAP3 PUSH2 0x1476 PUSH1 0x20 DUP6 ADD SWAP2 PUSH1 0x0 MSTORE PUSH1 0x20 PUSH1 0x0 KECCAK256 SWAP1 JUMP JUMPDEST PUSH1 0x0 SWAP2 JUMPDEST DUP4 DUP4 LT PUSH2 0x1487 JUMPI POP POP POP POP JUMP JUMPDEST PUSH1 0x4 PUSH1 0x20 PUSH1 0x1 SWAP3 PUSH2 0x1497 DUP6 PUSH2 0x1447 JUMP JUMPDEST DUP2 MSTORE ADD SWAP3 ADD SWAP3 ADD SWAP2 SWAP1 PUSH2 0x147A JUMP JUMPDEST PUSH2 0xF0 SWAP1 PUSH2 0x1450 JUMP JUMPDEST PUSH2 0x14C5 PUSH2 0xF0 SWAP2 PUSH2 0x14BD PUSH1 0x60 SWAP1 JUMP JUMPDEST POP PUSH1 0x1 PUSH2 0x4C7 JUMP JUMPDEST PUSH2 0x14A5 JUMP JUMPDEST PUSH2 0x1357 PUSH2 0xF0 SWAP2 PUSH2 0x14D9 PUSH1 0x0 SWAP1 JUMP JUMPDEST POP PUSH1 0x2 PUSH2 0x4C7 JUMP INVALID LOG2 PUSH5 0x6970667358 0x22 SLT KECCAK256 0xAB 0xBE SWAP2 0x4B SDIV 0xC2 0xE7 COINBASE XOR SWAP11 CHAINID PUSH29 0x3A8FE168BB0453EDBBA85D999F5F0D76794BB33E64736F6C6343000814 STOP CALLER "},"methodIdentifiers":{"factory()":"c45a0155","getLocks(address)":"719f3089","getTotalLocked(address)":"05c77a3c","liquidityLocks(address,uint256)":"8517e0e1","lockLiquidity(address,address,uint256,uint256,string,uint256)":"44e5550f","owner()":"8da5cb5b","renounceOwnership()":"715018a6","setFactory(address)":"5bb47808","totalLiquidityLocked()":"e01f62bf","totalLockedLiquidity(address)":"7b74811a","transferOwnership(address)":"f2fde38b","unlockLiquidity(address,uint256,address)":"573044e3"}}}}}