{"contracts/LiquidityLocker.sol":{"LiquidityLocker":{"abi":[{"inputs":[{"internalType":"address","name":"_factory","type":"address"}],"stateMutability":"nonpayable","type":"constructor"},{"inputs":[],"name":"AlreadyUnlocked","type":"error"},{"inputs":[],"name":"DurationTooLong","type":"error"},{"inputs":[],"name":"InvalidAmount","type":"error"},{"inputs":[],"name":"InvalidDuration","type":"error"},{"inputs":[],"name":"InvalidFactory","type":"error"},{"inputs":[],"name":"InvalidIndex","type":"error"},{"inputs":[],"name":"InvalidPair","type":"error"},{"inputs":[],"name":"NotExpired","type":"error"},{"inputs":[],"name":"NotOwner","type":"error"},{"inputs":[],"name":"OnlyFactory","type":"error"},{"inputs":[{"internalType":"address","name":"owner","type":"address"}],"name":"OwnableInvalidOwner","type":"error"},{"inputs":[{"internalType":"address","name":"account","type":"address"}],"name":"OwnableUnauthorizedAccount","type":"error"},{"inputs":[],"name":"ReentrancyGuardReentrantCall","type":"error"},{"inputs":[{"internalType":"address","name":"token","type":"address"}],"name":"SafeERC20FailedOperation","type":"error"},{"anonymous":false,"inputs":[{"indexed":true,"internalType":"address","name":"pair","type":"address"},{"indexed":true,"internalType":"address","name":"owner","type":"address"},{"indexed":false,"internalType":"uint256","name":"amount","type":"uint256"},{"indexed":false,"internalType":"uint256","name":"unlockTime","type":"uint256"},{"indexed":false,"internalType":"string","name":"description","type":"string"},{"indexed":false,"internalType":"uint256","name":"lockFee","type":"uint256"}],"name":"LiquidityLocked","type":"event"},{"anonymous":false,"inputs":[{"indexed":true,"internalType":"address","name":"pair","type":"address"},{"indexed":true,"internalType":"address","name":"owner","type":"address"},{"indexed":false,"internalType":"uint256","name":"amount","type":"uint256"},{"indexed":false,"internalType":"uint256","name":"timestamp","type":"uint256"}],"name":"LiquidityUnlocked","type":"event"},{"anonymous":false,"inputs":[{"indexed":true,"internalType":"address","name":"user","type":"address"},{"indexed":false,"internalType":"uint256","name":"amount","type":"uint256"},{"indexed":false,"internalType":"uint256","name":"timestamp","type":"uint256"}],"name":"LockFeeCollected","type":"event"},{"anonymous":false,"inputs":[{"indexed":true,"internalType":"address","name":"previousOwner","type":"address"},{"indexed":true,"internalType":"address","name":"newOwner","type":"address"}],"name":"OwnershipTransferred","type":"event"},{"inputs":[],"name":"factory","outputs":[{"internalType":"address","name":"","type":"address"}],"stateMutability":"view","type":"function"},{"inputs":[{"internalType":"address","name":"pair","type":"address"}],"name":"getLocks","outputs":[{"components":[{"internalType":"address","name":"owner","type":"address"},{"internalType":"uint256","name":"amount","type":"uint256"},{"internalType":"uint256","name":"unlockTime","type":"uint256"},{"internalType":"bool","name":"isLocked","type":"bool"}],"internalType":"struct LiquidityLocker.LiquidityLock[]","name":"","type":"tuple[]"}],"stateMutability":"view","type":"function"},{"inputs":[{"internalType":"address","name":"pair","type":"address"}],"name":"getTotalLocked","outputs":[{"internalType":"uint256","name":"","type":"uint256"}],"stateMutability":"view","type":"function"},{"inputs":[{"internalType":"address","name":"","type":"address"},{"internalType":"uint256","name":"","type":"uint256"}],"name":"liquidityLocks","outputs":[{"internalType":"address","name":"owner","type":"address"},{"internalType":"uint256","name":"amount","type":"uint256"},{"internalType":"uint256","name":"unlockTime","type":"uint256"},{"internalType":"bool","name":"isLocked","type":"bool"}],"stateMutability":"view","type":"function"},{"inputs":[{"internalType":"address","name":"pair","type":"address"},{"internalType":"address","name":"user","type":"address"},{"internalType":"uint256","name":"amount","type":"uint256"},{"internalType":"uint256","name":"lockDuration","type":"uint256"},{"internalType":"string","name":"description","type":"string"},{"internalType":"uint256","name":"lockFee","type":"uint256"}],"name":"lockLiquidity","outputs":[],"stateMutability":"nonpayable","type":"function"},{"inputs":[],"name":"owner","outputs":[{"internalType":"address","name":"","type":"address"}],"stateMutability":"view","type":"function"},{"inputs":[],"name":"renounceOwnership","outputs":[],"stateMutability":"nonpayable","type":"function"},{"inputs":[{"internalType":"address","name":"_factory","type":"address"}],"name":"setFactory","outputs":[],"stateMutability":"nonpayable","type":"function"},{"inputs":[],"name":"totalLiquidityLocked","outputs":[{"internalType":"uint256","name":"","type":"uint256"}],"stateMutability":"view","type":"function"},{"inputs":[{"internalType":"address","name":"","type":"address"}],"name":"totalLockedLiquidity","outputs":[{"internalType":"uint256","name":"","type":"uint256"}],"stateMutability":"view","type":"function"},{"inputs":[{"internalType":"address","name":"newOwner","type":"address"}],"name":"transferOwnership","outputs":[],"stateMutability":"nonpayable","type":"function"},{"inputs":[{"internalType":"address","name":"pair","type":"address"},{"internalType":"uint256","name":"lockIndex","type":"uint256"},{"internalType":"address","name":"user","type":"address"}],"name":"unlockLiquidity","outputs":[],"stateMutability":"nonpayable","type":"function"}],"evm":{"bytecode":{"linkReferences":{},"object":"60806040523462000030576200001e62000018620000d3565b62000172565b60405161155662000309823961155690f35b600080fd5b634e487b7160e01b600052604160045260246000fd5b90601f01601f191681019081106001600160401b038211176200006d57604052565b62000035565b906200008a6200008260405190565b92836200004b565b565b6001600160a01b031690565b90565b6001600160a01b038116036200003057565b905051906200008a826200009b565b9060208282031262000030576200009891620000ad565b620000986200185f80380380620000ea8162000073565b928339810190620000bc565b6200008c62000098620000989290565b6200009890620000f6565b906001600160a01b03905b9181191691161790565b62000098906200008c906001600160a01b031682565b620000989062000126565b62000098906200013c565b9062000166620000986200016e9262000147565b825462000111565b9055565b6200017d3362000203565b6200018d6200008c600062000106565b6001600160a01b03821614620001aa576200008a90600562000152565b604051637a44db9560e01b8152600490fd5b0390fd5b6200009862000098620000989290565b620000986001620001c0565b90600019906200011c565b90620001fb620000986200016e92620001c0565b8254620001dc565b6200020e9062000237565b6200008a6200021c620001d0565b6001620001e7565b6001600160a01b03909116815260200190565b62000243600062000106565b6001600160a01b0381166001600160a01b038316146200026957506200008a90620002a6565b620001bc906200027860405190565b631e4fbdf760e01b81529182916004830162000224565b62000098906200008c565b6200009890546200028f565b620002b260006200029a565b90620002c081600062000152565b620002f7620002f07f8be0079c531659141344cd1fd0a4f28419497f9722a3daafe3b4186f6b6457e09362000147565b9162000147565b916200030260405190565b600090a356fe6080604052600436101561001257600080fd5b60003560e01c806305c77a3c146100d257806344e5550f146100cd578063573044e3146100c85780635bb47808146100c3578063715018a6146100be578063719f3089146100b95780637b74811a146100b45780638517e0e1146100af5780638da5cb5b146100aa578063c45a0155146100a5578063e01f62bf146100a05763f2fde38b0361011257610747565b61072c565b610705565b61069f565b61066d565b61050c565b61046b565b610397565b610374565b61035b565b610307565b61013a565b73ffffffffffffffffffffffffffffffffffffffff1690565b90565b73ffffffffffffffffffffffffffffffffffffffff81165b0361011257565b600080fd5b90503590610124826100f3565b565b90602082820312610112576100f091610117565b3461011257610165610155610150366004610126565b611504565b6040519182918290815260200190565b0390f35b8061010b565b9050359061012482610169565b7f4e487b7100000000000000000000000000000000000000000000000000000000600052604160045260246000fd5b90601f017fffffffffffffffffffffffffffffffffffffffffffffffffffffffffffffffe016810190811067ffffffffffffffff8211176101eb57604052565b61017c565b906101246101fd60405190565b92836101ab565b67ffffffffffffffff81116101eb57602090601f017fffffffffffffffffffffffffffffffffffffffffffffffffffffffffffffffe0160190565b0190565b90826000939282370152565b9092919261026461025f82610204565b6101f0565b938185526020850190828401116101125761012492610243565b9080601f83011215610112578160206100f09335910161024f565b909160c082840312610112576102af8383610117565b926102bd8160208501610117565b926102cb826040830161016f565b926102d9836060840161016f565b9260808301359067ffffffffffffffff8211610112576102fe816100f093860161027e565b9360a00161016f565b346101125761032661031a366004610299565b94939093929192610f1e565b604051005b9091606082840312610112576100f06103448484610117565b93610352816020860161016f565b93604001610117565b346101125761032661036e36600461032b565b91611379565b3461011257610326610387366004610126565b6109eb565b600091031261011257565b34610112576103a736600461038c565b6103266107a1565b805173ffffffffffffffffffffffffffffffffffffffff168252610124919060609081906103e260208201516020860152565b6103f160408201516040860152565b01511515910152565b9061023f816080936103af565b90610427610420610416845190565b8084529260200190565b9260200190565b9060005b8181106104385750505090565b90919261045261044b60019286516103fa565b9460200190565b92910161042b565b60208082526100f092910190610407565b3461011257610165610486610481366004610126565b6114e8565b6040519182918261045a565b6100d76100f06100f09273ffffffffffffffffffffffffffffffffffffffff1690565b6100f090610492565b6100f0906104b5565b906104d1906104be565b600052602052604060002090565b6100f0916008021c81565b906100f091546104df565b6100f0906105076003916000926104c7565b6104ea565b3461011257610165610155610522366004610126565b6104f5565b9190604083820312610112576100f0906105418185610117565b9360200161016f565b7f4e487b7100000000000000000000000000000000000000000000000000000000600052603260045260246000fd5b805482101561059c57610593600491600052602060002090565b91020190600090565b61054a565b6100f0906100d7565b6100f090546105a1565b6100f09081565b6100f090546105b4565b91906105d56002936000946104c7565b805482101561061c576105e9929350610579565b50906105f4826105aa565b91610601600182016105bb565b916100f06003610613600285016105bb565b93015460ff1690565b8380fd5b6106656101249461065e606094989795610657608086019a600087019073ffffffffffffffffffffffffffffffffffffffff169052565b6020850152565b6040830152565b019015159052565b3461011257610165610689610683366004610527565b906105c5565b9061069694929460405190565b94859485610620565b34610112576106af36600461038c565b6101656106ba61075f565b6040519182918273ffffffffffffffffffffffffffffffffffffffff909116815260200190565b6100f0916008021c6100d7565b906100f091546106e1565b6100f0600060056106ee565b346101125761071536600461038c565b6101656106ba6106f9565b6100f0600060046104ea565b346101125761073c36600461038c565b610165610155610720565b346101125761032661075a366004610126565b6108df565b6100f060006105aa565b6107716107a9565b61012461078f565b6100d76100f06100f09290565b6100f090610779565b61012461079c6000610786565b610925565b610124610769565b6107b161075f565b33906107d2825b9173ffffffffffffffffffffffffffffffffffffffff1690565b036107da5750565b610831906107e760405190565b9182917f118cdaa70000000000000000000000000000000000000000000000000000000083526004830173ffffffffffffffffffffffffffffffffffffffff909116815260200190565b0390fd5b610124906108416107a9565b61084b6000610786565b73ffffffffffffffffffffffffffffffffffffffff811673ffffffffffffffffffffffffffffffffffffffff831614610888575061012490610925565b6108319061089560405190565b9182917f1e4fbdf70000000000000000000000000000000000000000000000000000000083526004830173ffffffffffffffffffffffffffffffffffffffff909116815260200190565b61012490610835565b9073ffffffffffffffffffffffffffffffffffffffff905b9181191691161790565b9061091a6100f0610921926104be565b82546108e8565b9055565b61092f60006105aa565b9061093b81600061090a565b61096e6109687f8be0079c531659141344cd1fd0a4f28419497f9722a3daafe3b4186f6b6457e0936104be565b916104be565b9161097860405190565b80805b0390a3565b6101249061098c6107a9565b6109996100d76000610786565b73ffffffffffffffffffffffffffffffffffffffff8216146109c05761012490600561090a565b6040517f7a44db95000000000000000000000000000000000000000000000000000000008152600490fd5b61012490610980565b949392919033610a0a6107b86100d760056105aa565b03610a185761012495610a43565b6040517f0c6d42ae000000000000000000000000000000000000000000000000000000008152600490fd5b90610a599594939291610a546110bc565b610cba565b610124611115565b6100f06100f06100f09290565b7f4e487b7100000000000000000000000000000000000000000000000000000000600052601160045260246000fd5b91908201809211610aaa57565b610a6e565b6100f060806101f0565b7f4e487b7100000000000000000000000000000000000000000000000000000000600052600060045260246000fd5b907fffffffffffffffffffffffffffffffffffffffffffffffffffffffffffffffff90610900565b90610b206100f061092192610a61565b8254610ae8565b9060ff90610900565b90610b406100f061092192151590565b8254610b27565b6101249190610bb190606090600390610b7e81610b78875173ffffffffffffffffffffffffffffffffffffffff1690565b9061090a565b610b9660018201610b90602088015190565b90610b10565b610ba860028201610b90604088015190565b01920151151590565b90610b30565b9190610bc65761012491610b47565b610ab9565b90815491680100000000000000008310156101eb5782610bf391600161012495018155610579565b90610bb7565b60005b838110610c0c5750506000910152565b8181015183820152602001610bfc565b610c3d610c4660209361023f93610c31815190565b80835293849260200190565b95869101610bf9565b601f017fffffffffffffffffffffffffffffffffffffffffffffffffffffffffffffffe01690565b94939160609161012494610c95610ca293610c8e60808b019460008c0152565b60208a0152565b8782036040890152610c1c565b940152565b9081526040810192916101249160200152565b60009492610cca6100d787610786565b73ffffffffffffffffffffffffffffffffffffffff831614610ef357610cef86610a61565b8114610ec857610cfe86610a61565b8514610e9d57610d116301e13380610a61565b8511610e7257610de760408897610d3b84610d2b876104be565b33610d35306104be565b91610f9b565b610d93610d4942998a610a9d565b610d8a600191610d798a610d5b610aaf565b9687019073ffffffffffffffffffffffffffffffffffffffff169052565b610d84886020870152565b85850152565b15156060830152565b610daa81610da56100f08860026104c7565b610bcb565b610dca610db88660036104c7565b610b9086610dc5836105bb565b610a9d565b610de2610ddb85610dc560046105bb565b6004610b10565b015190565b90610e33610e1e610e187fa45b42ac0191d9fbb31a6f3153bbfbdf25752c562611938d75a7e0b03410a172956104be565b956104be565b988996610e2a60405190565b94859485610c6e565b0390a37fdea7f500102b57954ce349711b5317687d0eb726afc638faf5df8700ca52ebe591610e6d610e6460405190565b92839283610ca7565b0390a2565b6040517f9529f506000000000000000000000000000000000000000000000000000000008152600490fd5b6040517f76166401000000000000000000000000000000000000000000000000000000008152600490fd5b6040517f2c5211c6000000000000000000000000000000000000000000000000000000008152600490fd5b6040517f1e4f7d8c000000000000000000000000000000000000000000000000000000008152600490fd5b9061012495949392916109f4565b610f45610f3f6100f09263ffffffff1690565b60e01b90565b7fffffffff000000000000000000000000000000000000000000000000000000001690565b73ffffffffffffffffffffffffffffffffffffffff9182168152911660208201526060810192916101249160400152565b90610fe090610fd161012495600495610fb76323b872dd610f2c565b93610fc160405190565b9788956020870190815201610f6a565b602082018103825203836101ab565b906000602091610fee600090565b50828151910182855af1156110a657600080513d61101261100e84610a61565b9190565b03611090575061102e61100e611027846104be565b3b92610a61565b145b6110375750565b611043610831916104be565b6040519182917f5274afe70000000000000000000000000000000000000000000000000000000083526004830173ffffffffffffffffffffffffffffffffffffffff909116815260200190565b905061109f61100e6001610a61565b1415611030565b6040513d6000823e3d90fd5b6100f06002610a61565b6110c660016105bb565b6110ce6110b2565b9081146110e057610124906001610b10565b6040517f3ee5aeb5000000000000000000000000000000000000000000000000000000008152600490fd5b6100f06001610a61565b61012461112061110b565b6001610b10565b91903361113a6107b86100d760056105aa565b03610a18576101249290610a5992916111516110bc565b611163565b91908203918211610aaa57565b600092916111736100d785610786565b73ffffffffffffffffffffffffffffffffffffffff831614610ef3576002906111a66100f06111a285856104c7565b5490565b81101561134e576111c36111c7916111be85856104c7565b610579565b5090565b6111d28582016105aa565b6111f173ffffffffffffffffffffffffffffffffffffffff86166107b8565b0361132357600381019461120d611209875460ff1690565b1590565b6112f8576112206100f0429484016105bb565b83106112cd57610b9060016112499301916112448161123e856105bb565b99610b30565b610a61565b6112696112578360036104c7565b610b9086611264836105bb565b611156565b61127a610ddb8561126460046105bb565b61128d8484611288856104be565b6113ae565b6112c06112ba7fffccce2b5511147422ec66220e1efd4cdb22f23b396ca3603b0e3dc22a70b528936104be565b936104be565b9361097b610e6460405190565b6040517fd0404f85000000000000000000000000000000000000000000000000000000008152600490fd5b6040517f5090d6c6000000000000000000000000000000000000000000000000000000008152600490fd5b6040517f30cd7471000000000000000000000000000000000000000000000000000000008152600490fd5b6040517f63df8171000000000000000000000000000000000000000000000000000000008152600490fd5b906101249291611127565b73ffffffffffffffffffffffffffffffffffffffff90911681526040810192916101249160200152565b610fe0600492610fd1610124956113c863a9059cbb610f2c565b926113d260405190565b9687946020860190815201611384565b67ffffffffffffffff81116101eb5760208091020190565b9061140761025f836113e2565b918252565b90610124611478600361141d610aaf565b9461144461142a826105aa565b73ffffffffffffffffffffffffffffffffffffffff168752565b61145a611453600183016105bb565b6020880152565b611470611469600283016105bb565b6040880152565b015460ff1690565b15156060840152565b6100f09061140c565b90611493825490565b61149c816113fa565b926114b06020850191600052602060002090565b6000915b8383106114c15750505050565b600460206001926114d185611481565b8152019201920191906114b4565b6100f09061148a565b6114ff6100f0916114f7606090565b5060026104c7565b6114df565b61151b6100f091611513600090565b5060036104c7565b6105bb56fea2646970667358221220e671d62377d5a46c47c556e9bb5aab9ea61b3321082828d28b76d9908c9c5b7564736f6c63430008140033","opcodes":"PUSH1 0x80 PUSH1 0x40 MSTORE CALLVALUE PUSH3 0x30 JUMPI PUSH3 0x1E PUSH3 0x18 PUSH3 0xD3 JUMP JUMPDEST PUSH3 0x172 JUMP JUMPDEST PUSH1 0x40 MLOAD PUSH2 0x1556 PUSH3 0x309 DUP3 CODECOPY PUSH2 0x1556 SWAP1 RETURN JUMPDEST PUSH1 0x0 DUP1 REVERT JUMPDEST PUSH4 0x4E487B71 PUSH1 0xE0 SHL PUSH1 0x0 MSTORE PUSH1 0x41 PUSH1 0x4 MSTORE PUSH1 0x24 PUSH1 0x0 REVERT JUMPDEST SWAP1 PUSH1 0x1F ADD PUSH1 0x1F NOT AND DUP2 ADD SWAP1 DUP2 LT PUSH1 0x1 PUSH1 0x1 PUSH1 0x40 SHL SUB DUP3 GT OR PUSH3 0x6D JUMPI PUSH1 0x40 MSTORE JUMP JUMPDEST PUSH3 0x35 JUMP JUMPDEST SWAP1 PUSH3 0x8A PUSH3 0x82 PUSH1 0x40 MLOAD SWAP1 JUMP JUMPDEST SWAP3 DUP4 PUSH3 0x4B JUMP JUMPDEST JUMP JUMPDEST PUSH1 0x1 PUSH1 0x1 PUSH1 0xA0 SHL SUB AND SWAP1 JUMP JUMPDEST SWAP1 JUMP JUMPDEST PUSH1 0x1 PUSH1 0x1 PUSH1 0xA0 SHL SUB DUP2 AND SUB PUSH3 0x30 JUMPI JUMP JUMPDEST SWAP1 POP MLOAD SWAP1 PUSH3 0x8A DUP3 PUSH3 0x9B JUMP JUMPDEST SWAP1 PUSH1 0x20 DUP3 DUP3 SUB SLT PUSH3 0x30 JUMPI PUSH3 0x98 SWAP2 PUSH3 0xAD JUMP JUMPDEST PUSH3 0x98 PUSH3 0x185F DUP1 CODESIZE SUB DUP1 PUSH3 0xEA DUP2 PUSH3 0x73 JUMP JUMPDEST SWAP3 DUP4 CODECOPY DUP2 ADD SWAP1 PUSH3 0xBC JUMP JUMPDEST PUSH3 0x8C PUSH3 0x98 PUSH3 0x98 SWAP3 SWAP1 JUMP JUMPDEST PUSH3 0x98 SWAP1 PUSH3 0xF6 JUMP JUMPDEST SWAP1 PUSH1 0x1 PUSH1 0x1 PUSH1 0xA0 SHL SUB SWAP1 JUMPDEST SWAP2 DUP2 NOT AND SWAP2 AND OR SWAP1 JUMP JUMPDEST PUSH3 0x98 SWAP1 PUSH3 0x8C SWAP1 PUSH1 0x1 PUSH1 0x1 PUSH1 0xA0 SHL SUB AND DUP3 JUMP JUMPDEST PUSH3 0x98 SWAP1 PUSH3 0x126 JUMP JUMPDEST PUSH3 0x98 SWAP1 PUSH3 0x13C JUMP JUMPDEST SWAP1 PUSH3 0x166 PUSH3 0x98 PUSH3 0x16E SWAP3 PUSH3 0x147 JUMP JUMPDEST DUP3 SLOAD PUSH3 0x111 JUMP JUMPDEST SWAP1 SSTORE JUMP JUMPDEST PUSH3 0x17D CALLER PUSH3 0x203 JUMP JUMPDEST PUSH3 0x18D PUSH3 0x8C PUSH1 0x0 PUSH3 0x106 JUMP JUMPDEST PUSH1 0x1 PUSH1 0x1 PUSH1 0xA0 SHL SUB DUP3 AND EQ PUSH3 0x1AA JUMPI PUSH3 0x8A SWAP1 PUSH1 0x5 PUSH3 0x152 JUMP JUMPDEST PUSH1 0x40 MLOAD PUSH4 0x7A44DB95 PUSH1 0xE0 SHL DUP2 MSTORE PUSH1 0x4 SWAP1 REVERT JUMPDEST SUB SWAP1 REVERT JUMPDEST PUSH3 0x98 PUSH3 0x98 PUSH3 0x98 SWAP3 SWAP1 JUMP JUMPDEST PUSH3 0x98 PUSH1 0x1 PUSH3 0x1C0 JUMP JUMPDEST SWAP1 PUSH1 0x0 NOT SWAP1 PUSH3 0x11C JUMP JUMPDEST SWAP1 PUSH3 0x1FB PUSH3 0x98 PUSH3 0x16E SWAP3 PUSH3 0x1C0 JUMP JUMPDEST DUP3 SLOAD PUSH3 0x1DC JUMP JUMPDEST PUSH3 0x20E SWAP1 PUSH3 0x237 JUMP JUMPDEST PUSH3 0x8A PUSH3 0x21C PUSH3 0x1D0 JUMP JUMPDEST PUSH1 0x1 PUSH3 0x1E7 JUMP JUMPDEST PUSH1 0x1 PUSH1 0x1 PUSH1 0xA0 SHL SUB SWAP1 SWAP2 AND DUP2 MSTORE PUSH1 0x20 ADD SWAP1 JUMP JUMPDEST PUSH3 0x243 PUSH1 0x0 PUSH3 0x106 JUMP JUMPDEST PUSH1 0x1 PUSH1 0x1 PUSH1 0xA0 SHL SUB DUP2 AND PUSH1 0x1 PUSH1 0x1 PUSH1 0xA0 SHL SUB DUP4 AND EQ PUSH3 0x269 JUMPI POP PUSH3 0x8A SWAP1 PUSH3 0x2A6 JUMP JUMPDEST PUSH3 0x1BC SWAP1 PUSH3 0x278 PUSH1 0x40 MLOAD SWAP1 JUMP JUMPDEST PUSH4 0x1E4FBDF7 PUSH1 0xE0 SHL DUP2 MSTORE SWAP2 DUP3 SWAP2 PUSH1 0x4 DUP4 ADD PUSH3 0x224 JUMP JUMPDEST PUSH3 0x98 SWAP1 PUSH3 0x8C JUMP JUMPDEST PUSH3 0x98 SWAP1 SLOAD PUSH3 0x28F JUMP JUMPDEST PUSH3 0x2B2 PUSH1 0x0 PUSH3 0x29A JUMP JUMPDEST SWAP1 PUSH3 0x2C0 DUP2 PUSH1 0x0 PUSH3 0x152 JUMP JUMPDEST PUSH3 0x2F7 PUSH3 0x2F0 PUSH32 0x8BE0079C531659141344CD1FD0A4F28419497F9722A3DAAFE3B4186F6B6457E0 SWAP4 PUSH3 0x147 JUMP JUMPDEST SWAP2 PUSH3 0x147 JUMP JUMPDEST SWAP2 PUSH3 0x302 PUSH1 0x40 MLOAD SWAP1 JUMP JUMPDEST PUSH1 0x0 SWAP1 LOG3 JUMP INVALID PUSH1 0x80 PUSH1 0x40 MSTORE PUSH1 0x4 CALLDATASIZE LT ISZERO PUSH2 0x12 JUMPI PUSH1 0x0 DUP1 REVERT JUMPDEST PUSH1 0x0 CALLDATALOAD PUSH1 0xE0 SHR DUP1 PUSH4 0x5C77A3C EQ PUSH2 0xD2 JUMPI DUP1 PUSH4 0x44E5550F EQ PUSH2 0xCD JUMPI DUP1 PUSH4 0x573044E3 EQ PUSH2 0xC8 JUMPI DUP1 PUSH4 0x5BB47808 EQ PUSH2 0xC3 JUMPI DUP1 PUSH4 0x715018A6 EQ PUSH2 0xBE JUMPI DUP1 PUSH4 0x719F3089 EQ PUSH2 0xB9 JUMPI DUP1 PUSH4 0x7B74811A EQ PUSH2 0xB4 JUMPI DUP1 PUSH4 0x8517E0E1 EQ PUSH2 0xAF JUMPI DUP1 PUSH4 0x8DA5CB5B EQ PUSH2 0xAA JUMPI DUP1 PUSH4 0xC45A0155 EQ PUSH2 0xA5 JUMPI DUP1 PUSH4 0xE01F62BF EQ PUSH2 0xA0 JUMPI PUSH4 0xF2FDE38B SUB PUSH2 0x112 JUMPI PUSH2 0x747 JUMP JUMPDEST PUSH2 0x72C JUMP JUMPDEST PUSH2 0x705 JUMP JUMPDEST PUSH2 0x69F JUMP JUMPDEST PUSH2 0x66D JUMP JUMPDEST PUSH2 0x50C JUMP JUMPDEST PUSH2 0x46B JUMP JUMPDEST PUSH2 0x397 JUMP JUMPDEST PUSH2 0x374 JUMP JUMPDEST PUSH2 0x35B JUMP JUMPDEST PUSH2 0x307 JUMP JUMPDEST PUSH2 0x13A JUMP JUMPDEST PUSH20 0xFFFFFFFFFFFFFFFFFFFFFFFFFFFFFFFFFFFFFFFF AND SWAP1 JUMP JUMPDEST SWAP1 JUMP JUMPDEST PUSH20 0xFFFFFFFFFFFFFFFFFFFFFFFFFFFFFFFFFFFFFFFF DUP2 AND JUMPDEST SUB PUSH2 0x112 JUMPI JUMP JUMPDEST PUSH1 0x0 DUP1 REVERT JUMPDEST SWAP1 POP CALLDATALOAD SWAP1 PUSH2 0x124 DUP3 PUSH2 0xF3 JUMP JUMPDEST JUMP JUMPDEST SWAP1 PUSH1 0x20 DUP3 DUP3 SUB SLT PUSH2 0x112 JUMPI PUSH2 0xF0 SWAP2 PUSH2 0x117 JUMP JUMPDEST CALLVALUE PUSH2 0x112 JUMPI PUSH2 0x165 PUSH2 0x155 PUSH2 0x150 CALLDATASIZE PUSH1 0x4 PUSH2 0x126 JUMP JUMPDEST PUSH2 0x1504 JUMP JUMPDEST PUSH1 0x40 MLOAD SWAP2 DUP3 SWAP2 DUP3 SWAP1 DUP2 MSTORE PUSH1 0x20 ADD SWAP1 JUMP JUMPDEST SUB SWAP1 RETURN JUMPDEST DUP1 PUSH2 0x10B JUMP JUMPDEST SWAP1 POP CALLDATALOAD SWAP1 PUSH2 0x124 DUP3 PUSH2 0x169 JUMP JUMPDEST PUSH32 0x4E487B7100000000000000000000000000000000000000000000000000000000 PUSH1 0x0 MSTORE PUSH1 0x41 PUSH1 0x4 MSTORE PUSH1 0x24 PUSH1 0x0 REVERT JUMPDEST SWAP1 PUSH1 0x1F ADD PUSH32 0xFFFFFFFFFFFFFFFFFFFFFFFFFFFFFFFFFFFFFFFFFFFFFFFFFFFFFFFFFFFFFFE0 AND DUP2 ADD SWAP1 DUP2 LT PUSH8 0xFFFFFFFFFFFFFFFF DUP3 GT OR PUSH2 0x1EB JUMPI PUSH1 0x40 MSTORE JUMP JUMPDEST PUSH2 0x17C JUMP JUMPDEST SWAP1 PUSH2 0x124 PUSH2 0x1FD PUSH1 0x40 MLOAD SWAP1 JUMP JUMPDEST SWAP3 DUP4 PUSH2 0x1AB JUMP JUMPDEST PUSH8 0xFFFFFFFFFFFFFFFF DUP2 GT PUSH2 0x1EB JUMPI PUSH1 0x20 SWAP1 PUSH1 0x1F ADD PUSH32 0xFFFFFFFFFFFFFFFFFFFFFFFFFFFFFFFFFFFFFFFFFFFFFFFFFFFFFFFFFFFFFFE0 AND ADD SWAP1 JUMP JUMPDEST ADD SWAP1 JUMP JUMPDEST SWAP1 DUP3 PUSH1 0x0 SWAP4 SWAP3 DUP3 CALLDATACOPY ADD MSTORE JUMP JUMPDEST SWAP1 SWAP3 SWAP2 SWAP3 PUSH2 0x264 PUSH2 0x25F DUP3 PUSH2 0x204 JUMP JUMPDEST PUSH2 0x1F0 JUMP JUMPDEST SWAP4 DUP2 DUP6 MSTORE PUSH1 0x20 DUP6 ADD SWAP1 DUP3 DUP5 ADD GT PUSH2 0x112 JUMPI PUSH2 0x124 SWAP3 PUSH2 0x243 JUMP JUMPDEST SWAP1 DUP1 PUSH1 0x1F DUP4 ADD SLT ISZERO PUSH2 0x112 JUMPI DUP2 PUSH1 0x20 PUSH2 0xF0 SWAP4 CALLDATALOAD SWAP2 ADD PUSH2 0x24F JUMP JUMPDEST SWAP1 SWAP2 PUSH1 0xC0 DUP3 DUP5 SUB SLT PUSH2 0x112 JUMPI PUSH2 0x2AF DUP4 DUP4 PUSH2 0x117 JUMP JUMPDEST SWAP3 PUSH2 0x2BD DUP2 PUSH1 0x20 DUP6 ADD PUSH2 0x117 JUMP JUMPDEST SWAP3 PUSH2 0x2CB DUP3 PUSH1 0x40 DUP4 ADD PUSH2 0x16F JUMP JUMPDEST SWAP3 PUSH2 0x2D9 DUP4 PUSH1 0x60 DUP5 ADD PUSH2 0x16F JUMP JUMPDEST SWAP3 PUSH1 0x80 DUP4 ADD CALLDATALOAD SWAP1 PUSH8 0xFFFFFFFFFFFFFFFF DUP3 GT PUSH2 0x112 JUMPI PUSH2 0x2FE DUP2 PUSH2 0xF0 SWAP4 DUP7 ADD PUSH2 0x27E JUMP JUMPDEST SWAP4 PUSH1 0xA0 ADD PUSH2 0x16F JUMP JUMPDEST CALLVALUE PUSH2 0x112 JUMPI PUSH2 0x326 PUSH2 0x31A CALLDATASIZE PUSH1 0x4 PUSH2 0x299 JUMP JUMPDEST SWAP5 SWAP4 SWAP1 SWAP4 SWAP3 SWAP2 SWAP3 PUSH2 0xF1E JUMP JUMPDEST PUSH1 0x40 MLOAD STOP JUMPDEST SWAP1 SWAP2 PUSH1 0x60 DUP3 DUP5 SUB SLT PUSH2 0x112 JUMPI PUSH2 0xF0 PUSH2 0x344 DUP5 DUP5 PUSH2 0x117 JUMP JUMPDEST SWAP4 PUSH2 0x352 DUP2 PUSH1 0x20 DUP7 ADD PUSH2 0x16F JUMP JUMPDEST SWAP4 PUSH1 0x40 ADD PUSH2 0x117 JUMP JUMPDEST CALLVALUE PUSH2 0x112 JUMPI PUSH2 0x326 PUSH2 0x36E CALLDATASIZE PUSH1 0x4 PUSH2 0x32B JUMP JUMPDEST SWAP2 PUSH2 0x1379 JUMP JUMPDEST CALLVALUE PUSH2 0x112 JUMPI PUSH2 0x326 PUSH2 0x387 CALLDATASIZE PUSH1 0x4 PUSH2 0x126 JUMP JUMPDEST PUSH2 0x9EB JUMP JUMPDEST PUSH1 0x0 SWAP2 SUB SLT PUSH2 0x112 JUMPI JUMP JUMPDEST CALLVALUE PUSH2 0x112 JUMPI PUSH2 0x3A7 CALLDATASIZE PUSH1 0x4 PUSH2 0x38C JUMP JUMPDEST PUSH2 0x326 PUSH2 0x7A1 JUMP JUMPDEST DUP1 MLOAD PUSH20 0xFFFFFFFFFFFFFFFFFFFFFFFFFFFFFFFFFFFFFFFF AND DUP3 MSTORE PUSH2 0x124 SWAP2 SWAP1 PUSH1 0x60 SWAP1 DUP2 SWAP1 PUSH2 0x3E2 PUSH1 0x20 DUP3 ADD MLOAD PUSH1 0x20 DUP7 ADD MSTORE JUMP JUMPDEST PUSH2 0x3F1 PUSH1 0x40 DUP3 ADD MLOAD PUSH1 0x40 DUP7 ADD MSTORE JUMP JUMPDEST ADD MLOAD ISZERO ISZERO SWAP2 ADD MSTORE JUMP JUMPDEST SWAP1 PUSH2 0x23F DUP2 PUSH1 0x80 SWAP4 PUSH2 0x3AF JUMP JUMPDEST SWAP1 PUSH2 0x427 PUSH2 0x420 PUSH2 0x416 DUP5 MLOAD SWAP1 JUMP JUMPDEST DUP1 DUP5 MSTORE SWAP3 PUSH1 0x20 ADD SWAP1 JUMP JUMPDEST SWAP3 PUSH1 0x20 ADD SWAP1 JUMP JUMPDEST SWAP1 PUSH1 0x0 JUMPDEST DUP2 DUP2 LT PUSH2 0x438 JUMPI POP POP POP SWAP1 JUMP JUMPDEST SWAP1 SWAP2 SWAP3 PUSH2 0x452 PUSH2 0x44B PUSH1 0x1 SWAP3 DUP7 MLOAD PUSH2 0x3FA JUMP JUMPDEST SWAP5 PUSH1 0x20 ADD SWAP1 JUMP JUMPDEST SWAP3 SWAP2 ADD PUSH2 0x42B JUMP JUMPDEST PUSH1 0x20 DUP1 DUP3 MSTORE PUSH2 0xF0 SWAP3 SWAP2 ADD SWAP1 PUSH2 0x407 JUMP JUMPDEST CALLVALUE PUSH2 0x112 JUMPI PUSH2 0x165 PUSH2 0x486 PUSH2 0x481 CALLDATASIZE PUSH1 0x4 PUSH2 0x126 JUMP JUMPDEST PUSH2 0x14E8 JUMP JUMPDEST PUSH1 0x40 MLOAD SWAP2 DUP3 SWAP2 DUP3 PUSH2 0x45A JUMP JUMPDEST PUSH2 0xD7 PUSH2 0xF0 PUSH2 0xF0 SWAP3 PUSH20 0xFFFFFFFFFFFFFFFFFFFFFFFFFFFFFFFFFFFFFFFF AND SWAP1 JUMP JUMPDEST PUSH2 0xF0 SWAP1 PUSH2 0x492 JUMP JUMPDEST PUSH2 0xF0 SWAP1 PUSH2 0x4B5 JUMP JUMPDEST SWAP1 PUSH2 0x4D1 SWAP1 PUSH2 0x4BE JUMP JUMPDEST PUSH1 0x0 MSTORE PUSH1 0x20 MSTORE PUSH1 0x40 PUSH1 0x0 KECCAK256 SWAP1 JUMP JUMPDEST PUSH2 0xF0 SWAP2 PUSH1 0x8 MUL SHR DUP2 JUMP JUMPDEST SWAP1 PUSH2 0xF0 SWAP2 SLOAD PUSH2 0x4DF JUMP JUMPDEST PUSH2 0xF0 SWAP1 PUSH2 0x507 PUSH1 0x3 SWAP2 PUSH1 0x0 SWAP3 PUSH2 0x4C7 JUMP JUMPDEST PUSH2 0x4EA JUMP JUMPDEST CALLVALUE PUSH2 0x112 JUMPI PUSH2 0x165 PUSH2 0x155 PUSH2 0x522 CALLDATASIZE PUSH1 0x4 PUSH2 0x126 JUMP JUMPDEST PUSH2 0x4F5 JUMP JUMPDEST SWAP2 SWAP1 PUSH1 0x40 DUP4 DUP3 SUB SLT PUSH2 0x112 JUMPI PUSH2 0xF0 SWAP1 PUSH2 0x541 DUP2 DUP6 PUSH2 0x117 JUMP JUMPDEST SWAP4 PUSH1 0x20 ADD PUSH2 0x16F JUMP JUMPDEST PUSH32 0x4E487B7100000000000000000000000000000000000000000000000000000000 PUSH1 0x0 MSTORE PUSH1 0x32 PUSH1 0x4 MSTORE PUSH1 0x24 PUSH1 0x0 REVERT JUMPDEST DUP1 SLOAD DUP3 LT ISZERO PUSH2 0x59C JUMPI PUSH2 0x593 PUSH1 0x4 SWAP2 PUSH1 0x0 MSTORE PUSH1 0x20 PUSH1 0x0 KECCAK256 SWAP1 JUMP JUMPDEST SWAP2 MUL ADD SWAP1 PUSH1 0x0 SWAP1 JUMP JUMPDEST PUSH2 0x54A JUMP JUMPDEST PUSH2 0xF0 SWAP1 PUSH2 0xD7 JUMP JUMPDEST PUSH2 0xF0 SWAP1 SLOAD PUSH2 0x5A1 JUMP JUMPDEST PUSH2 0xF0 SWAP1 DUP2 JUMP JUMPDEST PUSH2 0xF0 SWAP1 SLOAD PUSH2 0x5B4 JUMP JUMPDEST SWAP2 SWAP1 PUSH2 0x5D5 PUSH1 0x2 SWAP4 PUSH1 0x0 SWAP5 PUSH2 0x4C7 JUMP JUMPDEST DUP1 SLOAD DUP3 LT ISZERO PUSH2 0x61C JUMPI PUSH2 0x5E9 SWAP3 SWAP4 POP PUSH2 0x579 JUMP JUMPDEST POP SWAP1 PUSH2 0x5F4 DUP3 PUSH2 0x5AA JUMP JUMPDEST SWAP2 PUSH2 0x601 PUSH1 0x1 DUP3 ADD PUSH2 0x5BB JUMP JUMPDEST SWAP2 PUSH2 0xF0 PUSH1 0x3 PUSH2 0x613 PUSH1 0x2 DUP6 ADD PUSH2 0x5BB JUMP JUMPDEST SWAP4 ADD SLOAD PUSH1 0xFF AND SWAP1 JUMP JUMPDEST DUP4 DUP1 REVERT JUMPDEST PUSH2 0x665 PUSH2 0x124 SWAP5 PUSH2 0x65E PUSH1 0x60 SWAP5 SWAP9 SWAP8 SWAP6 PUSH2 0x657 PUSH1 0x80 DUP7 ADD SWAP11 PUSH1 0x0 DUP8 ADD SWAP1 PUSH20 0xFFFFFFFFFFFFFFFFFFFFFFFFFFFFFFFFFFFFFFFF AND SWAP1 MSTORE JUMP JUMPDEST PUSH1 0x20 DUP6 ADD MSTORE JUMP JUMPDEST PUSH1 0x40 DUP4 ADD MSTORE JUMP JUMPDEST ADD SWAP1 ISZERO ISZERO SWAP1 MSTORE JUMP JUMPDEST CALLVALUE PUSH2 0x112 JUMPI PUSH2 0x165 PUSH2 0x689 PUSH2 0x683 CALLDATASIZE PUSH1 0x4 PUSH2 0x527 JUMP JUMPDEST SWAP1 PUSH2 0x5C5 JUMP JUMPDEST SWAP1 PUSH2 0x696 SWAP5 SWAP3 SWAP5 PUSH1 0x40 MLOAD SWAP1 JUMP JUMPDEST SWAP5 DUP6 SWAP5 DUP6 PUSH2 0x620 JUMP JUMPDEST CALLVALUE PUSH2 0x112 JUMPI PUSH2 0x6AF CALLDATASIZE PUSH1 0x4 PUSH2 0x38C JUMP JUMPDEST PUSH2 0x165 PUSH2 0x6BA PUSH2 0x75F JUMP JUMPDEST PUSH1 0x40 MLOAD SWAP2 DUP3 SWAP2 DUP3 PUSH20 0xFFFFFFFFFFFFFFFFFFFFFFFFFFFFFFFFFFFFFFFF SWAP1 SWAP2 AND DUP2 MSTORE PUSH1 0x20 ADD SWAP1 JUMP JUMPDEST PUSH2 0xF0 SWAP2 PUSH1 0x8 MUL SHR PUSH2 0xD7 JUMP JUMPDEST SWAP1 PUSH2 0xF0 SWAP2 SLOAD PUSH2 0x6E1 JUMP JUMPDEST PUSH2 0xF0 PUSH1 0x0 PUSH1 0x5 PUSH2 0x6EE JUMP JUMPDEST CALLVALUE PUSH2 0x112 JUMPI PUSH2 0x715 CALLDATASIZE PUSH1 0x4 PUSH2 0x38C JUMP JUMPDEST PUSH2 0x165 PUSH2 0x6BA PUSH2 0x6F9 JUMP JUMPDEST PUSH2 0xF0 PUSH1 0x0 PUSH1 0x4 PUSH2 0x4EA JUMP JUMPDEST CALLVALUE PUSH2 0x112 JUMPI PUSH2 0x73C CALLDATASIZE PUSH1 0x4 PUSH2 0x38C JUMP JUMPDEST PUSH2 0x165 PUSH2 0x155 PUSH2 0x720 JUMP JUMPDEST CALLVALUE PUSH2 0x112 JUMPI PUSH2 0x326 PUSH2 0x75A CALLDATASIZE PUSH1 0x4 PUSH2 0x126 JUMP JUMPDEST PUSH2 0x8DF JUMP JUMPDEST PUSH2 0xF0 PUSH1 0x0 PUSH2 0x5AA JUMP JUMPDEST PUSH2 0x771 PUSH2 0x7A9 JUMP JUMPDEST PUSH2 0x124 PUSH2 0x78F JUMP JUMPDEST PUSH2 0xD7 PUSH2 0xF0 PUSH2 0xF0 SWAP3 SWAP1 JUMP JUMPDEST PUSH2 0xF0 SWAP1 PUSH2 0x779 JUMP JUMPDEST PUSH2 0x124 PUSH2 0x79C PUSH1 0x0 PUSH2 0x786 JUMP JUMPDEST PUSH2 0x925 JUMP JUMPDEST PUSH2 0x124 PUSH2 0x769 JUMP JUMPDEST PUSH2 0x7B1 PUSH2 0x75F JUMP JUMPDEST CALLER SWAP1 PUSH2 0x7D2 DUP3 JUMPDEST SWAP2 PUSH20 0xFFFFFFFFFFFFFFFFFFFFFFFFFFFFFFFFFFFFFFFF AND SWAP1 JUMP JUMPDEST SUB PUSH2 0x7DA JUMPI POP JUMP JUMPDEST PUSH2 0x831 SWAP1 PUSH2 0x7E7 PUSH1 0x40 MLOAD SWAP1 JUMP JUMPDEST SWAP2 DUP3 SWAP2 PUSH32 0x118CDAA700000000000000000000000000000000000000000000000000000000 DUP4 MSTORE PUSH1 0x4 DUP4 ADD PUSH20 0xFFFFFFFFFFFFFFFFFFFFFFFFFFFFFFFFFFFFFFFF SWAP1 SWAP2 AND DUP2 MSTORE PUSH1 0x20 ADD SWAP1 JUMP JUMPDEST SUB SWAP1 REVERT JUMPDEST PUSH2 0x124 SWAP1 PUSH2 0x841 PUSH2 0x7A9 JUMP JUMPDEST PUSH2 0x84B PUSH1 0x0 PUSH2 0x786 JUMP JUMPDEST PUSH20 0xFFFFFFFFFFFFFFFFFFFFFFFFFFFFFFFFFFFFFFFF DUP2 AND PUSH20 0xFFFFFFFFFFFFFFFFFFFFFFFFFFFFFFFFFFFFFFFF DUP4 AND EQ PUSH2 0x888 JUMPI POP PUSH2 0x124 SWAP1 PUSH2 0x925 JUMP JUMPDEST PUSH2 0x831 SWAP1 PUSH2 0x895 PUSH1 0x40 MLOAD SWAP1 JUMP JUMPDEST SWAP2 DUP3 SWAP2 PUSH32 0x1E4FBDF700000000000000000000000000000000000000000000000000000000 DUP4 MSTORE PUSH1 0x4 DUP4 ADD PUSH20 0xFFFFFFFFFFFFFFFFFFFFFFFFFFFFFFFFFFFFFFFF SWAP1 SWAP2 AND DUP2 MSTORE PUSH1 0x20 ADD SWAP1 JUMP JUMPDEST PUSH2 0x124 SWAP1 PUSH2 0x835 JUMP JUMPDEST SWAP1 PUSH20 0xFFFFFFFFFFFFFFFFFFFFFFFFFFFFFFFFFFFFFFFF SWAP1 JUMPDEST SWAP2 DUP2 NOT AND SWAP2 AND OR SWAP1 JUMP JUMPDEST SWAP1 PUSH2 0x91A PUSH2 0xF0 PUSH2 0x921 SWAP3 PUSH2 0x4BE JUMP JUMPDEST DUP3 SLOAD PUSH2 0x8E8 JUMP JUMPDEST SWAP1 SSTORE JUMP JUMPDEST PUSH2 0x92F PUSH1 0x0 PUSH2 0x5AA JUMP JUMPDEST SWAP1 PUSH2 0x93B DUP2 PUSH1 0x0 PUSH2 0x90A JUMP JUMPDEST PUSH2 0x96E PUSH2 0x968 PUSH32 0x8BE0079C531659141344CD1FD0A4F28419497F9722A3DAAFE3B4186F6B6457E0 SWAP4 PUSH2 0x4BE JUMP JUMPDEST SWAP2 PUSH2 0x4BE JUMP JUMPDEST SWAP2 PUSH2 0x978 PUSH1 0x40 MLOAD SWAP1 JUMP JUMPDEST DUP1 DUP1 JUMPDEST SUB SWAP1 LOG3 JUMP JUMPDEST PUSH2 0x124 SWAP1 PUSH2 0x98C PUSH2 0x7A9 JUMP JUMPDEST PUSH2 0x999 PUSH2 0xD7 PUSH1 0x0 PUSH2 0x786 JUMP JUMPDEST PUSH20 0xFFFFFFFFFFFFFFFFFFFFFFFFFFFFFFFFFFFFFFFF DUP3 AND EQ PUSH2 0x9C0 JUMPI PUSH2 0x124 SWAP1 PUSH1 0x5 PUSH2 0x90A JUMP JUMPDEST PUSH1 0x40 MLOAD PUSH32 0x7A44DB9500000000000000000000000000000000000000000000000000000000 DUP2 MSTORE PUSH1 0x4 SWAP1 REVERT JUMPDEST PUSH2 0x124 SWAP1 PUSH2 0x980 JUMP JUMPDEST SWAP5 SWAP4 SWAP3 SWAP2 SWAP1 CALLER PUSH2 0xA0A PUSH2 0x7B8 PUSH2 0xD7 PUSH1 0x5 PUSH2 0x5AA JUMP JUMPDEST SUB PUSH2 0xA18 JUMPI PUSH2 0x124 SWAP6 PUSH2 0xA43 JUMP JUMPDEST PUSH1 0x40 MLOAD PUSH32 0xC6D42AE00000000000000000000000000000000000000000000000000000000 DUP2 MSTORE PUSH1 0x4 SWAP1 REVERT JUMPDEST SWAP1 PUSH2 0xA59 SWAP6 SWAP5 SWAP4 SWAP3 SWAP2 PUSH2 0xA54 PUSH2 0x10BC JUMP JUMPDEST PUSH2 0xCBA JUMP JUMPDEST PUSH2 0x124 PUSH2 0x1115 JUMP JUMPDEST PUSH2 0xF0 PUSH2 0xF0 PUSH2 0xF0 SWAP3 SWAP1 JUMP JUMPDEST PUSH32 0x4E487B7100000000000000000000000000000000000000000000000000000000 PUSH1 0x0 MSTORE PUSH1 0x11 PUSH1 0x4 MSTORE PUSH1 0x24 PUSH1 0x0 REVERT JUMPDEST SWAP2 SWAP1 DUP3 ADD DUP1 SWAP3 GT PUSH2 0xAAA JUMPI JUMP JUMPDEST PUSH2 0xA6E JUMP JUMPDEST PUSH2 0xF0 PUSH1 0x80 PUSH2 0x1F0 JUMP JUMPDEST PUSH32 0x4E487B7100000000000000000000000000000000000000000000000000000000 PUSH1 0x0 MSTORE PUSH1 0x0 PUSH1 0x4 MSTORE PUSH1 0x24 PUSH1 0x0 REVERT JUMPDEST SWAP1 PUSH32 0xFFFFFFFFFFFFFFFFFFFFFFFFFFFFFFFFFFFFFFFFFFFFFFFFFFFFFFFFFFFFFFFF SWAP1 PUSH2 0x900 JUMP JUMPDEST SWAP1 PUSH2 0xB20 PUSH2 0xF0 PUSH2 0x921 SWAP3 PUSH2 0xA61 JUMP JUMPDEST DUP3 SLOAD PUSH2 0xAE8 JUMP JUMPDEST SWAP1 PUSH1 0xFF SWAP1 PUSH2 0x900 JUMP JUMPDEST SWAP1 PUSH2 0xB40 PUSH2 0xF0 PUSH2 0x921 SWAP3 ISZERO ISZERO SWAP1 JUMP JUMPDEST DUP3 SLOAD PUSH2 0xB27 JUMP JUMPDEST PUSH2 0x124 SWAP2 SWAP1 PUSH2 0xBB1 SWAP1 PUSH1 0x60 SWAP1 PUSH1 0x3 SWAP1 PUSH2 0xB7E DUP2 PUSH2 0xB78 DUP8 MLOAD PUSH20 0xFFFFFFFFFFFFFFFFFFFFFFFFFFFFFFFFFFFFFFFF AND SWAP1 JUMP JUMPDEST SWAP1 PUSH2 0x90A JUMP JUMPDEST PUSH2 0xB96 PUSH1 0x1 DUP3 ADD PUSH2 0xB90 PUSH1 0x20 DUP9 ADD MLOAD SWAP1 JUMP JUMPDEST SWAP1 PUSH2 0xB10 JUMP JUMPDEST PUSH2 0xBA8 PUSH1 0x2 DUP3 ADD PUSH2 0xB90 PUSH1 0x40 DUP9 ADD MLOAD SWAP1 JUMP JUMPDEST ADD SWAP3 ADD MLOAD ISZERO ISZERO SWAP1 JUMP JUMPDEST SWAP1 PUSH2 0xB30 JUMP JUMPDEST SWAP2 SWAP1 PUSH2 0xBC6 JUMPI PUSH2 0x124 SWAP2 PUSH2 0xB47 JUMP JUMPDEST PUSH2 0xAB9 JUMP JUMPDEST SWAP1 DUP2 SLOAD SWAP2 PUSH9 0x10000000000000000 DUP4 LT ISZERO PUSH2 0x1EB JUMPI DUP3 PUSH2 0xBF3 SWAP2 PUSH1 0x1 PUSH2 0x124 SWAP6 ADD DUP2 SSTORE PUSH2 0x579 JUMP JUMPDEST SWAP1 PUSH2 0xBB7 JUMP JUMPDEST PUSH1 0x0 JUMPDEST DUP4 DUP2 LT PUSH2 0xC0C JUMPI POP POP PUSH1 0x0 SWAP2 ADD MSTORE JUMP JUMPDEST DUP2 DUP2 ADD MLOAD DUP4 DUP3 ADD MSTORE PUSH1 0x20 ADD PUSH2 0xBFC JUMP JUMPDEST PUSH2 0xC3D PUSH2 0xC46 PUSH1 0x20 SWAP4 PUSH2 0x23F SWAP4 PUSH2 0xC31 DUP2 MLOAD SWAP1 JUMP JUMPDEST DUP1 DUP4 MSTORE SWAP4 DUP5 SWAP3 PUSH1 0x20 ADD SWAP1 JUMP JUMPDEST SWAP6 DUP7 SWAP2 ADD PUSH2 0xBF9 JUMP JUMPDEST PUSH1 0x1F ADD PUSH32 0xFFFFFFFFFFFFFFFFFFFFFFFFFFFFFFFFFFFFFFFFFFFFFFFFFFFFFFFFFFFFFFE0 AND SWAP1 JUMP JUMPDEST SWAP5 SWAP4 SWAP2 PUSH1 0x60 SWAP2 PUSH2 0x124 SWAP5 PUSH2 0xC95 PUSH2 0xCA2 SWAP4 PUSH2 0xC8E PUSH1 0x80 DUP12 ADD SWAP5 PUSH1 0x0 DUP13 ADD MSTORE JUMP JUMPDEST PUSH1 0x20 DUP11 ADD MSTORE JUMP JUMPDEST DUP8 DUP3 SUB PUSH1 0x40 DUP10 ADD MSTORE PUSH2 0xC1C JUMP JUMPDEST SWAP5 ADD MSTORE JUMP JUMPDEST SWAP1 DUP2 MSTORE PUSH1 0x40 DUP2 ADD SWAP3 SWAP2 PUSH2 0x124 SWAP2 PUSH1 0x20 ADD MSTORE JUMP JUMPDEST PUSH1 0x0 SWAP5 SWAP3 PUSH2 0xCCA PUSH2 0xD7 DUP8 PUSH2 0x786 JUMP JUMPDEST PUSH20 0xFFFFFFFFFFFFFFFFFFFFFFFFFFFFFFFFFFFFFFFF DUP4 AND EQ PUSH2 0xEF3 JUMPI PUSH2 0xCEF DUP7 PUSH2 0xA61 JUMP JUMPDEST DUP2 EQ PUSH2 0xEC8 JUMPI PUSH2 0xCFE DUP7 PUSH2 0xA61 JUMP JUMPDEST DUP6 EQ PUSH2 0xE9D JUMPI PUSH2 0xD11 PUSH4 0x1E13380 PUSH2 0xA61 JUMP JUMPDEST DUP6 GT PUSH2 0xE72 JUMPI PUSH2 0xDE7 PUSH1 0x40 DUP9 SWAP8 PUSH2 0xD3B DUP5 PUSH2 0xD2B DUP8 PUSH2 0x4BE JUMP JUMPDEST CALLER PUSH2 0xD35 ADDRESS PUSH2 0x4BE JUMP JUMPDEST SWAP2 PUSH2 0xF9B JUMP JUMPDEST PUSH2 0xD93 PUSH2 0xD49 TIMESTAMP SWAP10 DUP11 PUSH2 0xA9D JUMP JUMPDEST PUSH2 0xD8A PUSH1 0x1 SWAP2 PUSH2 0xD79 DUP11 PUSH2 0xD5B PUSH2 0xAAF JUMP JUMPDEST SWAP7 DUP8 ADD SWAP1 PUSH20 0xFFFFFFFFFFFFFFFFFFFFFFFFFFFFFFFFFFFFFFFF AND SWAP1 MSTORE JUMP JUMPDEST PUSH2 0xD84 DUP9 PUSH1 0x20 DUP8 ADD MSTORE JUMP JUMPDEST DUP6 DUP6 ADD MSTORE JUMP JUMPDEST ISZERO ISZERO PUSH1 0x60 DUP4 ADD MSTORE JUMP JUMPDEST PUSH2 0xDAA DUP2 PUSH2 0xDA5 PUSH2 0xF0 DUP9 PUSH1 0x2 PUSH2 0x4C7 JUMP JUMPDEST PUSH2 0xBCB JUMP JUMPDEST PUSH2 0xDCA PUSH2 0xDB8 DUP7 PUSH1 0x3 PUSH2 0x4C7 JUMP JUMPDEST PUSH2 0xB90 DUP7 PUSH2 0xDC5 DUP4 PUSH2 0x5BB JUMP JUMPDEST PUSH2 0xA9D JUMP JUMPDEST PUSH2 0xDE2 PUSH2 0xDDB DUP6 PUSH2 0xDC5 PUSH1 0x4 PUSH2 0x5BB JUMP JUMPDEST PUSH1 0x4 PUSH2 0xB10 JUMP JUMPDEST ADD MLOAD SWAP1 JUMP JUMPDEST SWAP1 PUSH2 0xE33 PUSH2 0xE1E PUSH2 0xE18 PUSH32 0xA45B42AC0191D9FBB31A6F3153BBFBDF25752C562611938D75A7E0B03410A172 SWAP6 PUSH2 0x4BE JUMP JUMPDEST SWAP6 PUSH2 0x4BE JUMP JUMPDEST SWAP9 DUP10 SWAP7 PUSH2 0xE2A PUSH1 0x40 MLOAD SWAP1 JUMP JUMPDEST SWAP5 DUP6 SWAP5 DUP6 PUSH2 0xC6E JUMP JUMPDEST SUB SWAP1 LOG3 PUSH32 0xDEA7F500102B57954CE349711B5317687D0EB726AFC638FAF5DF8700CA52EBE5 SWAP2 PUSH2 0xE6D PUSH2 0xE64 PUSH1 0x40 MLOAD SWAP1 JUMP JUMPDEST SWAP3 DUP4 SWAP3 DUP4 PUSH2 0xCA7 JUMP JUMPDEST SUB SWAP1 LOG2 JUMP JUMPDEST PUSH1 0x40 MLOAD PUSH32 0x9529F50600000000000000000000000000000000000000000000000000000000 DUP2 MSTORE PUSH1 0x4 SWAP1 REVERT JUMPDEST PUSH1 0x40 MLOAD PUSH32 0x7616640100000000000000000000000000000000000000000000000000000000 DUP2 MSTORE PUSH1 0x4 SWAP1 REVERT JUMPDEST PUSH1 0x40 MLOAD PUSH32 0x2C5211C600000000000000000000000000000000000000000000000000000000 DUP2 MSTORE PUSH1 0x4 SWAP1 REVERT JUMPDEST PUSH1 0x40 MLOAD PUSH32 0x1E4F7D8C00000000000000000000000000000000000000000000000000000000 DUP2 MSTORE PUSH1 0x4 SWAP1 REVERT JUMPDEST SWAP1 PUSH2 0x124 SWAP6 SWAP5 SWAP4 SWAP3 SWAP2 PUSH2 0x9F4 JUMP JUMPDEST PUSH2 0xF45 PUSH2 0xF3F PUSH2 0xF0 SWAP3 PUSH4 0xFFFFFFFF AND SWAP1 JUMP JUMPDEST PUSH1 0xE0 SHL SWAP1 JUMP JUMPDEST PUSH32 0xFFFFFFFF00000000000000000000000000000000000000000000000000000000 AND SWAP1 JUMP JUMPDEST PUSH20 0xFFFFFFFFFFFFFFFFFFFFFFFFFFFFFFFFFFFFFFFF SWAP2 DUP3 AND DUP2 MSTORE SWAP2 AND PUSH1 0x20 DUP3 ADD MSTORE PUSH1 0x60 DUP2 ADD SWAP3 SWAP2 PUSH2 0x124 SWAP2 PUSH1 0x40 ADD MSTORE JUMP JUMPDEST SWAP1 PUSH2 0xFE0 SWAP1 PUSH2 0xFD1 PUSH2 0x124 SWAP6 PUSH1 0x4 SWAP6 PUSH2 0xFB7 PUSH4 0x23B872DD PUSH2 0xF2C JUMP JUMPDEST SWAP4 PUSH2 0xFC1 PUSH1 0x40 MLOAD SWAP1 JUMP JUMPDEST SWAP8 DUP9 SWAP6 PUSH1 0x20 DUP8 ADD SWAP1 DUP2 MSTORE ADD PUSH2 0xF6A JUMP JUMPDEST PUSH1 0x20 DUP3 ADD DUP2 SUB DUP3 MSTORE SUB DUP4 PUSH2 0x1AB JUMP JUMPDEST SWAP1 PUSH1 0x0 PUSH1 0x20 SWAP2 PUSH2 0xFEE PUSH1 0x0 SWAP1 JUMP JUMPDEST POP DUP3 DUP2 MLOAD SWAP2 ADD DUP3 DUP6 GAS CALL ISZERO PUSH2 0x10A6 JUMPI PUSH1 0x0 DUP1 MLOAD RETURNDATASIZE PUSH2 0x1012 PUSH2 0x100E DUP5 PUSH2 0xA61 JUMP JUMPDEST SWAP2 SWAP1 JUMP JUMPDEST SUB PUSH2 0x1090 JUMPI POP PUSH2 0x102E PUSH2 0x100E PUSH2 0x1027 DUP5 PUSH2 0x4BE JUMP JUMPDEST EXTCODESIZE SWAP3 PUSH2 0xA61 JUMP JUMPDEST EQ JUMPDEST PUSH2 0x1037 JUMPI POP JUMP JUMPDEST PUSH2 0x1043 PUSH2 0x831 SWAP2 PUSH2 0x4BE JUMP JUMPDEST PUSH1 0x40 MLOAD SWAP2 DUP3 SWAP2 PUSH32 0x5274AFE700000000000000000000000000000000000000000000000000000000 DUP4 MSTORE PUSH1 0x4 DUP4 ADD PUSH20 0xFFFFFFFFFFFFFFFFFFFFFFFFFFFFFFFFFFFFFFFF SWAP1 SWAP2 AND DUP2 MSTORE PUSH1 0x20 ADD SWAP1 JUMP JUMPDEST SWAP1 POP PUSH2 0x109F PUSH2 0x100E PUSH1 0x1 PUSH2 0xA61 JUMP JUMPDEST EQ ISZERO PUSH2 0x1030 JUMP JUMPDEST PUSH1 0x40 MLOAD RETURNDATASIZE PUSH1 0x0 DUP3 RETURNDATACOPY RETURNDATASIZE SWAP1 REVERT JUMPDEST PUSH2 0xF0 PUSH1 0x2 PUSH2 0xA61 JUMP JUMPDEST PUSH2 0x10C6 PUSH1 0x1 PUSH2 0x5BB JUMP JUMPDEST PUSH2 0x10CE PUSH2 0x10B2 JUMP JUMPDEST SWAP1 DUP2 EQ PUSH2 0x10E0 JUMPI PUSH2 0x124 SWAP1 PUSH1 0x1 PUSH2 0xB10 JUMP JUMPDEST PUSH1 0x40 MLOAD PUSH32 0x3EE5AEB500000000000000000000000000000000000000000000000000000000 DUP2 MSTORE PUSH1 0x4 SWAP1 REVERT JUMPDEST PUSH2 0xF0 PUSH1 0x1 PUSH2 0xA61 JUMP JUMPDEST PUSH2 0x124 PUSH2 0x1120 PUSH2 0x110B JUMP JUMPDEST PUSH1 0x1 PUSH2 0xB10 JUMP JUMPDEST SWAP2 SWAP1 CALLER PUSH2 0x113A PUSH2 0x7B8 PUSH2 0xD7 PUSH1 0x5 PUSH2 0x5AA JUMP JUMPDEST SUB PUSH2 0xA18 JUMPI PUSH2 0x124 SWAP3 SWAP1 PUSH2 0xA59 SWAP3 SWAP2 PUSH2 0x1151 PUSH2 0x10BC JUMP JUMPDEST PUSH2 0x1163 JUMP JUMPDEST SWAP2 SWAP1 DUP3 SUB SWAP2 DUP3 GT PUSH2 0xAAA JUMPI JUMP JUMPDEST PUSH1 0x0 SWAP3 SWAP2 PUSH2 0x1173 PUSH2 0xD7 DUP6 PUSH2 0x786 JUMP JUMPDEST PUSH20 0xFFFFFFFFFFFFFFFFFFFFFFFFFFFFFFFFFFFFFFFF DUP4 AND EQ PUSH2 0xEF3 JUMPI PUSH1 0x2 SWAP1 PUSH2 0x11A6 PUSH2 0xF0 PUSH2 0x11A2 DUP6 DUP6 PUSH2 0x4C7 JUMP JUMPDEST SLOAD SWAP1 JUMP JUMPDEST DUP2 LT ISZERO PUSH2 0x134E JUMPI PUSH2 0x11C3 PUSH2 0x11C7 SWAP2 PUSH2 0x11BE DUP6 DUP6 PUSH2 0x4C7 JUMP JUMPDEST PUSH2 0x579 JUMP JUMPDEST POP SWAP1 JUMP JUMPDEST PUSH2 0x11D2 DUP6 DUP3 ADD PUSH2 0x5AA JUMP JUMPDEST PUSH2 0x11F1 PUSH20 0xFFFFFFFFFFFFFFFFFFFFFFFFFFFFFFFFFFFFFFFF DUP7 AND PUSH2 0x7B8 JUMP JUMPDEST SUB PUSH2 0x1323 JUMPI PUSH1 0x3 DUP2 ADD SWAP5 PUSH2 0x120D PUSH2 0x1209 DUP8 SLOAD PUSH1 0xFF AND SWAP1 JUMP JUMPDEST ISZERO SWAP1 JUMP JUMPDEST PUSH2 0x12F8 JUMPI PUSH2 0x1220 PUSH2 0xF0 TIMESTAMP SWAP5 DUP5 ADD PUSH2 0x5BB JUMP JUMPDEST DUP4 LT PUSH2 0x12CD JUMPI PUSH2 0xB90 PUSH1 0x1 PUSH2 0x1249 SWAP4 ADD SWAP2 PUSH2 0x1244 DUP2 PUSH2 0x123E DUP6 PUSH2 0x5BB JUMP JUMPDEST SWAP10 PUSH2 0xB30 JUMP JUMPDEST PUSH2 0xA61 JUMP JUMPDEST PUSH2 0x1269 PUSH2 0x1257 DUP4 PUSH1 0x3 PUSH2 0x4C7 JUMP JUMPDEST PUSH2 0xB90 DUP7 PUSH2 0x1264 DUP4 PUSH2 0x5BB JUMP JUMPDEST PUSH2 0x1156 JUMP JUMPDEST PUSH2 0x127A PUSH2 0xDDB DUP6 PUSH2 0x1264 PUSH1 0x4 PUSH2 0x5BB JUMP JUMPDEST PUSH2 0x128D DUP5 DUP5 PUSH2 0x1288 DUP6 PUSH2 0x4BE JUMP JUMPDEST PUSH2 0x13AE JUMP JUMPDEST PUSH2 0x12C0 PUSH2 0x12BA PUSH32 0xFFCCCE2B5511147422EC66220E1EFD4CDB22F23B396CA3603B0E3DC22A70B528 SWAP4 PUSH2 0x4BE JUMP JUMPDEST SWAP4 PUSH2 0x4BE JUMP JUMPDEST SWAP4 PUSH2 0x97B PUSH2 0xE64 PUSH1 0x40 MLOAD SWAP1 JUMP JUMPDEST PUSH1 0x40 MLOAD PUSH32 0xD0404F8500000000000000000000000000000000000000000000000000000000 DUP2 MSTORE PUSH1 0x4 SWAP1 REVERT JUMPDEST PUSH1 0x40 MLOAD PUSH32 0x5090D6C600000000000000000000000000000000000000000000000000000000 DUP2 MSTORE PUSH1 0x4 SWAP1 REVERT JUMPDEST PUSH1 0x40 MLOAD PUSH32 0x30CD747100000000000000000000000000000000000000000000000000000000 DUP2 MSTORE PUSH1 0x4 SWAP1 REVERT JUMPDEST PUSH1 0x40 MLOAD PUSH32 0x63DF817100000000000000000000000000000000000000000000000000000000 DUP2 MSTORE PUSH1 0x4 SWAP1 REVERT JUMPDEST SWAP1 PUSH2 0x124 SWAP3 SWAP2 PUSH2 0x1127 JUMP JUMPDEST PUSH20 0xFFFFFFFFFFFFFFFFFFFFFFFFFFFFFFFFFFFFFFFF SWAP1 SWAP2 AND DUP2 MSTORE PUSH1 0x40 DUP2 ADD SWAP3 SWAP2 PUSH2 0x124 SWAP2 PUSH1 0x20 ADD MSTORE JUMP JUMPDEST PUSH2 0xFE0 PUSH1 0x4 SWAP3 PUSH2 0xFD1 PUSH2 0x124 SWAP6 PUSH2 0x13C8 PUSH4 0xA9059CBB PUSH2 0xF2C JUMP JUMPDEST SWAP3 PUSH2 0x13D2 PUSH1 0x40 MLOAD SWAP1 JUMP JUMPDEST SWAP7 DUP8 SWAP5 PUSH1 0x20 DUP7 ADD SWAP1 DUP2 MSTORE ADD PUSH2 0x1384 JUMP JUMPDEST PUSH8 0xFFFFFFFFFFFFFFFF DUP2 GT PUSH2 0x1EB JUMPI PUSH1 0x20 DUP1 SWAP2 MUL ADD SWAP1 JUMP JUMPDEST SWAP1 PUSH2 0x1407 PUSH2 0x25F DUP4 PUSH2 0x13E2 JUMP JUMPDEST SWAP2 DUP3 MSTORE JUMP JUMPDEST SWAP1 PUSH2 0x124 PUSH2 0x1478 PUSH1 0x3 PUSH2 0x141D PUSH2 0xAAF JUMP JUMPDEST SWAP5 PUSH2 0x1444 PUSH2 0x142A DUP3 PUSH2 0x5AA JUMP JUMPDEST PUSH20 0xFFFFFFFFFFFFFFFFFFFFFFFFFFFFFFFFFFFFFFFF AND DUP8 MSTORE JUMP JUMPDEST PUSH2 0x145A PUSH2 0x1453 PUSH1 0x1 DUP4 ADD PUSH2 0x5BB JUMP JUMPDEST PUSH1 0x20 DUP9 ADD MSTORE JUMP JUMPDEST PUSH2 0x1470 PUSH2 0x1469 PUSH1 0x2 DUP4 ADD PUSH2 0x5BB JUMP JUMPDEST PUSH1 0x40 DUP9 ADD MSTORE JUMP JUMPDEST ADD SLOAD PUSH1 0xFF AND SWAP1 JUMP JUMPDEST ISZERO ISZERO PUSH1 0x60 DUP5 ADD MSTORE JUMP JUMPDEST PUSH2 0xF0 SWAP1 PUSH2 0x140C JUMP JUMPDEST SWAP1 PUSH2 0x1493 DUP3 SLOAD SWAP1 JUMP JUMPDEST PUSH2 0x149C DUP2 PUSH2 0x13FA JUMP JUMPDEST SWAP3 PUSH2 0x14B0 PUSH1 0x20 DUP6 ADD SWAP2 PUSH1 0x0 MSTORE PUSH1 0x20 PUSH1 0x0 KECCAK256 SWAP1 JUMP JUMPDEST PUSH1 0x0 SWAP2 JUMPDEST DUP4 DUP4 LT PUSH2 0x14C1 JUMPI POP POP POP POP JUMP JUMPDEST PUSH1 0x4 PUSH1 0x20 PUSH1 0x1 SWAP3 PUSH2 0x14D1 DUP6 PUSH2 0x1481 JUMP JUMPDEST DUP2 MSTORE ADD SWAP3 ADD SWAP3 ADD SWAP2 SWAP1 PUSH2 0x14B4 JUMP JUMPDEST PUSH2 0xF0 SWAP1 PUSH2 0x148A JUMP JUMPDEST PUSH2 0x14FF PUSH2 0xF0 SWAP2 PUSH2 0x14F7 PUSH1 0x60 SWAP1 JUMP JUMPDEST POP PUSH1 0x2 PUSH2 0x4C7 JUMP JUMPDEST PUSH2 0x14DF JUMP JUMPDEST PUSH2 0x151B PUSH2 0xF0 SWAP2 PUSH2 0x1513 PUSH1 0x0 SWAP1 JUMP JUMPDEST POP PUSH1 0x3 PUSH2 0x4C7 JUMP JUMPDEST PUSH2 0x5BB JUMP INVALID LOG2 PUSH5 0x6970667358 0x22 SLT KECCAK256 0xE6 PUSH18 0xD62377D5A46C47C556E9BB5AAB9EA61B3321 ADDMOD 0x28 0x28 0xD2 DUP12 PUSH23 0xD9908C9C5B7564736F6C63430008140033000000000000 "},"methodIdentifiers":{"factory()":"c45a0155","getLocks(address)":"719f3089","getTotalLocked(address)":"05c77a3c","liquidityLocks(address,uint256)":"8517e0e1","lockLiquidity(address,address,uint256,uint256,string,uint256)":"44e5550f","owner()":"8da5cb5b","renounceOwnership()":"715018a6","setFactory(address)":"5bb47808","totalLiquidityLocked()":"e01f62bf","totalLockedLiquidity(address)":"7b74811a","transferOwnership(address)":"f2fde38b","unlockLiquidity(address,uint256,address)":"573044e3"}}}}}