{"contracts/DEXPair.sol":{"DEXPair":{"abi":[{"inputs":[],"stateMutability":"nonpayable","type":"constructor"},{"inputs":[],"name":"EnforcedPause","type":"error"},{"inputs":[],"name":"ExpectedPause","type":"error"},{"inputs":[],"name":"ReentrancyGuardReentrantCall","type":"error"},{"inputs":[{"internalType":"address","name":"token","type":"address"}],"name":"SafeERC20FailedOperation","type":"error"},{"anonymous":false,"inputs":[{"indexed":true,"internalType":"address","name":"owner","type":"address"},{"indexed":true,"internalType":"address","name":"spender","type":"address"},{"indexed":false,"internalType":"uint256","name":"value","type":"uint256"}],"name":"Approval","type":"event"},{"anonymous":false,"inputs":[{"indexed":true,"internalType":"address","name":"sender","type":"address"},{"indexed":false,"internalType":"uint256","name":"amount0","type":"uint256"},{"indexed":false,"internalType":"uint256","name":"amount1","type":"uint256"},{"indexed":true,"internalType":"address","name":"to","type":"address"}],"name":"Burn","type":"event"},{"anonymous":false,"inputs":[{"indexed":true,"internalType":"address","name":"sender","type":"address"},{"indexed":false,"internalType":"uint256","name":"amount0","type":"uint256"},{"indexed":false,"internalType":"uint256","name":"amount1","type":"uint256"}],"name":"Mint","type":"event"},{"anonymous":false,"inputs":[{"indexed":false,"internalType":"address","name":"account","type":"address"}],"name":"Paused","type":"event"},{"anonymous":false,"inputs":[{"components":[{"internalType":"bool","name":"emergencyStop","type":"bool"}],"indexed":false,"internalType":"struct IDEXFactory.PoolSecurityConfig","name":"config","type":"tuple"}],"name":"SecurityConfigUpdated","type":"event"},{"anonymous":false,"inputs":[{"indexed":true,"internalType":"address","name":"sender","type":"address"},{"indexed":false,"internalType":"uint256","name":"amount0In","type":"uint256"},{"indexed":false,"internalType":"uint256","name":"amount1In","type":"uint256"},{"indexed":false,"internalType":"uint256","name":"amount0Out","type":"uint256"},{"indexed":false,"internalType":"uint256","name":"amount1Out","type":"uint256"},{"indexed":true,"internalType":"address","name":"to","type":"address"}],"name":"Swap","type":"event"},{"anonymous":false,"inputs":[{"indexed":false,"internalType":"uint256","name":"reserve0","type":"uint256"},{"indexed":false,"internalType":"uint256","name":"reserve1","type":"uint256"}],"name":"Sync","type":"event"},{"anonymous":false,"inputs":[{"indexed":true,"internalType":"bytes32","name":"proposalId","type":"bytes32"},{"indexed":true,"internalType":"address","name":"proposer","type":"address"},{"indexed":false,"internalType":"uint256","name":"executionTime","type":"uint256"}],"name":"TimelockProposalCreated","type":"event"},{"anonymous":false,"inputs":[{"indexed":true,"internalType":"bytes32","name":"proposalId","type":"bytes32"}],"name":"TimelockProposalExecuted","type":"event"},{"anonymous":false,"inputs":[{"indexed":true,"internalType":"address","name":"from","type":"address"},{"indexed":true,"internalType":"address","name":"to","type":"address"},{"indexed":false,"internalType":"uint256","name":"value","type":"uint256"}],"name":"Transfer","type":"event"},{"anonymous":false,"inputs":[{"indexed":false,"internalType":"address","name":"account","type":"address"}],"name":"Unpaused","type":"event"},{"inputs":[],"name":"DOMAIN_SEPARATOR","outputs":[{"internalType":"bytes32","name":"","type":"bytes32"}],"stateMutability":"view","type":"function"},{"inputs":[],"name":"MINIMUM_LIQUIDITY","outputs":[{"internalType":"uint256","name":"","type":"uint256"}],"stateMutability":"view","type":"function"},{"inputs":[],"name":"PERMIT_TYPEHASH","outputs":[{"internalType":"bytes32","name":"","type":"bytes32"}],"stateMutability":"view","type":"function"},{"inputs":[{"internalType":"address","name":"","type":"address"},{"internalType":"address","name":"","type":"address"}],"name":"allowance","outputs":[{"internalType":"uint256","name":"","type":"uint256"}],"stateMutability":"view","type":"function"},{"inputs":[{"internalType":"address","name":"spender","type":"address"},{"internalType":"uint256","name":"value","type":"uint256"}],"name":"approve","outputs":[{"internalType":"bool","name":"","type":"bool"}],"stateMutability":"nonpayable","type":"function"},{"inputs":[{"internalType":"address","name":"","type":"address"}],"name":"balanceOf","outputs":[{"internalType":"uint256","name":"","type":"uint256"}],"stateMutability":"view","type":"function"},{"inputs":[{"internalType":"address","name":"to","type":"address"}],"name":"burn","outputs":[{"internalType":"uint256","name":"amount0","type":"uint256"},{"internalType":"uint256","name":"amount1","type":"uint256"}],"stateMutability":"nonpayable","type":"function"},{"inputs":[],"name":"decimals","outputs":[{"internalType":"uint8","name":"","type":"uint8"}],"stateMutability":"pure","type":"function"},{"inputs":[{"internalType":"bytes32","name":"","type":"bytes32"}],"name":"executedProposals","outputs":[{"internalType":"bool","name":"","type":"bool"}],"stateMutability":"view","type":"function"},{"inputs":[],"name":"factory","outputs":[{"internalType":"address","name":"","type":"address"}],"stateMutability":"view","type":"function"},{"inputs":[],"name":"getReserves","outputs":[{"internalType":"uint112","name":"_reserve0","type":"uint112"},{"internalType":"uint112","name":"_reserve1","type":"uint112"},{"internalType":"uint32","name":"_blockTimestampLast","type":"uint32"}],"stateMutability":"view","type":"function"},{"inputs":[{"internalType":"address","name":"_token0","type":"address"},{"internalType":"address","name":"_token1","type":"address"}],"name":"initialize","outputs":[],"stateMutability":"nonpayable","type":"function"},{"inputs":[{"internalType":"address","name":"_token0","type":"address"},{"internalType":"address","name":"_token1","type":"address"},{"components":[{"internalType":"bool","name":"emergencyStop","type":"bool"}],"internalType":"struct IDEXFactory.PoolSecurityConfig","name":"_securityConfig","type":"tuple"}],"name":"initialize","outputs":[],"stateMutability":"nonpayable","type":"function"},{"inputs":[],"name":"kLast","outputs":[{"internalType":"uint256","name":"","type":"uint256"}],"stateMutability":"view","type":"function"},{"inputs":[{"internalType":"address","name":"to","type":"address"}],"name":"mint","outputs":[{"internalType":"uint256","name":"liquidity","type":"uint256"}],"stateMutability":"nonpayable","type":"function"},{"inputs":[],"name":"name","outputs":[{"internalType":"string","name":"","type":"string"}],"stateMutability":"pure","type":"function"},{"inputs":[{"internalType":"address","name":"","type":"address"}],"name":"nonces","outputs":[{"internalType":"uint256","name":"","type":"uint256"}],"stateMutability":"view","type":"function"},{"inputs":[],"name":"paused","outputs":[{"internalType":"bool","name":"","type":"bool"}],"stateMutability":"view","type":"function"},{"inputs":[{"internalType":"address","name":"owner","type":"address"},{"internalType":"address","name":"spender","type":"address"},{"internalType":"uint256","name":"value","type":"uint256"},{"internalType":"uint256","name":"deadline","type":"uint256"},{"internalType":"uint8","name":"v","type":"uint8"},{"internalType":"bytes32","name":"r","type":"bytes32"},{"internalType":"bytes32","name":"s","type":"bytes32"}],"name":"permit","outputs":[],"stateMutability":"nonpayable","type":"function"},{"inputs":[],"name":"price0CumulativeLast","outputs":[{"internalType":"uint256","name":"","type":"uint256"}],"stateMutability":"view","type":"function"},{"inputs":[],"name":"price1CumulativeLast","outputs":[{"internalType":"uint256","name":"","type":"uint256"}],"stateMutability":"view","type":"function"},{"inputs":[],"name":"securityConfig","outputs":[{"internalType":"bool","name":"emergencyStop","type":"bool"}],"stateMutability":"view","type":"function"},{"inputs":[{"internalType":"address","name":"to","type":"address"}],"name":"skim","outputs":[],"stateMutability":"nonpayable","type":"function"},{"inputs":[{"internalType":"uint256","name":"amount0Out","type":"uint256"},{"internalType":"uint256","name":"amount1Out","type":"uint256"},{"internalType":"address","name":"to","type":"address"},{"internalType":"bytes","name":"data","type":"bytes"}],"name":"swap","outputs":[],"stateMutability":"nonpayable","type":"function"},{"inputs":[],"name":"symbol","outputs":[{"internalType":"string","name":"","type":"string"}],"stateMutability":"pure","type":"function"},{"inputs":[],"name":"sync","outputs":[],"stateMutability":"nonpayable","type":"function"},{"inputs":[{"internalType":"bytes32","name":"","type":"bytes32"}],"name":"timelockProposals","outputs":[{"internalType":"uint256","name":"","type":"uint256"}],"stateMutability":"view","type":"function"},{"inputs":[],"name":"token0","outputs":[{"internalType":"address","name":"","type":"address"}],"stateMutability":"view","type":"function"},{"inputs":[],"name":"token1","outputs":[{"internalType":"address","name":"","type":"address"}],"stateMutability":"view","type":"function"},{"inputs":[],"name":"totalSupply","outputs":[{"internalType":"uint256","name":"","type":"uint256"}],"stateMutability":"view","type":"function"},{"inputs":[{"internalType":"address","name":"to","type":"address"},{"internalType":"uint256","name":"value","type":"uint256"}],"name":"transfer","outputs":[{"internalType":"bool","name":"","type":"bool"}],"stateMutability":"nonpayable","type":"function"},{"inputs":[{"internalType":"address","name":"from","type":"address"},{"internalType":"address","name":"to","type":"address"},{"internalType":"uint256","name":"value","type":"uint256"}],"name":"transferFrom","outputs":[{"internalType":"bool","name":"","type":"bool"}],"stateMutability":"nonpayable","type":"function"}],"evm":{"bytecode":{"linkReferences":{},"object":"6080604052346200002657620000146200009b565b60405161308c6200011c823961308c90f35b600080fd5b906001600160a01b03905b9181191691161790565b620000569062000059906001600160a01b031682565b90565b6001600160a01b031690565b620000569062000040565b620000569062000065565b906200008f62000056620000979262000070565b82546200002b565b9055565b620000a5620000b4565b620000b23360046200007b565b565b620000b2620000b262000105565b6200005662000056620000569290565b620000566001620000c2565b906000199062000036565b90620000fd620000566200009792620000c2565b8254620000de565b620000b262000113620000d2565b6000620000e956fe6080604052600436101561001257600080fd5b60003560e01c8063022c0d9f1461021257806306fdde031461020d5780630902f1ac14610208578063095ea7b3146102035780630dfe1681146101fe57806318160ddd146101f957806323b872dd146101f457806330adf81f146101ef578063313ce567146101ea5780633566414c146101e55780633644e515146101e0578063485cc955146101db5780635909c0d5146101d65780635a3d5493146101d15780635c975abb146101cc5780636a627842146101c757806370a08231146101c25780637174b568146101bd5780637464fc3d146101b85780637ecebe00146101b3578063820d25a8146101ae57806389afcb44146101a957806395d89b41146101a4578063a9059cbb1461019f578063ba9a7a561461019a578063bc25cf7714610195578063be11b1d014610190578063c45a01551461018b578063d21220a714610186578063d505accf14610181578063dd62ed3e1461017c5763fff6cae90361022057610ac0565b610aa4565b610a6b565b6109d4565b6109ad565b610986565b610951565b610936565b6108fa565b6108df565b6108b1565b610881565b610828565b6107fb565b6107e0565b6107b3565b610742565b610713565b6106f8565b6106d1565b6106ac565b61066e565b610653565b6105cf565b610596565b61057a565b61051e565b6104ba565b610455565b6103e2565b6103b7565b6102fd565b805b0361022057565b600080fd5b9050359061023282610217565b565b73ffffffffffffffffffffffffffffffffffffffff1690565b90565b73ffffffffffffffffffffffffffffffffffffffff8116610219565b9050359061023282610250565b909182601f830112156102205781359167ffffffffffffffff831161022057602001926001830284011161022057565b90608082820312610220576102be8183610225565b926102cc8260208501610225565b926102da836040830161026c565b92606082013567ffffffffffffffff8111610220576102f99201610279565b9091565b34610220576103196103103660046102a9565b9392909261253a565b604051005b0390f35b600091031261022057565b60005b8381106103405750506000910152565b8181015183820152602001610330565b61037161037a6020936103a293610365815190565b80835293849260200190565b9586910161032d565b601f017fffffffffffffffffffffffffffffffffffffffffffffffffffffffffffffffe01690565b0190565b602080825261024d92910190610350565b34610220576103c7366004610322565b61031e6103d2612951565b604051918291826103a6565b9052565b34610220576103f2366004610322565b61031e6103fd610e80565b604080516dffffffffffffffffffffffffffff948516815293909216602084015263ffffffff16908201529081906060820190565b91906040838203126102205761024d9061044c818561026c565b93602001610225565b346102205761031e61047161046b366004610432565b906127a1565b60405191829182901515815260200190565b61024d916008021c73ffffffffffffffffffffffffffffffffffffffff1690565b9061024d9154610483565b61024d6001806104a4565b34610220576104ca366004610322565b61031e6104d56104af565b6040519182918273ffffffffffffffffffffffffffffffffffffffff909116815260200190565b61024d916008021c81565b9061024d91546104fc565b61024d60006008610507565b346102205761052e366004610322565b61031e610539610512565b6040515b9182918290815260200190565b90916060828403126102205761024d610563848461026c565b93610571816020860161026c565b93604001610225565b346102205761031e61047161059036600461054a565b91612863565b34610220576105a6366004610322565b61031e7f6e71edae12b1b97f4d1f60370fef10105fa2faae0126114a169c64845d6126c9610539565b34610220576105df366004610322565b61031e6105ea6129a9565b6040519182918260ff909116815260200190565b906020828203126102205761024d91610225565b905b600052602052604060002090565b61024d916008021c5b60ff1690565b9061024d9154610622565b61024d9061064e600b91600092610612565b610631565b346102205761031e6104716106693660046105fe565b61063c565b346102205761067e366004610322565b61031e6105396129b3565b91906040838203126102205761024d906106a3818561026c565b9360200161026c565b34610220576103196106bf366004610689565b90610b74565b61024d60006005610507565b34610220576106e1366004610322565b61031e6105396106c5565b61024d60006006610507565b3461022057610708366004610322565b61031e6105396106ec565b3461022057610723366004610322565b61031e610471610ad8565b906020828203126102205761024d9161026c565b346102205761031e61053961075836600461072e565b611504565b61023461024d61024d9273ffffffffffffffffffffffffffffffffffffffff1690565b61024d9061075d565b61024d90610780565b9061061490610789565b61024d906107ae600791600092610792565b610507565b346102205761031e6105396107c936600461072e565b61079c565b61024d906107ae600a91600092610612565b346102205761031e6105396107f63660046105fe565b6107ce565b346102205761080b366004610322565b61031e610539612f2d565b61024d906107ae600d91600092610792565b346102205761031e61053961083e36600461072e565b610816565b908160209103126102205790565b90916060828403126102205761024d61086a848461026c565b93610878816020860161026c565b93604001610843565b3461022057610319610894366004610851565b91610e75565b9081526040810192916102329160200152565b0152565b34610220576108c96108c436600461072e565b611d20565b9061031e6108d660405190565b9283928361089a565b34610220576108ef366004610322565b61031e6103d2612994565b346102205761031e610471610910366004610432565b90612802565b61024d61024d61024d9290565b61024d6103e8610916565b61024d610923565b3461022057610946366004610322565b61031e61053961092e565b346102205761031961096436600461072e565b612df7565b61024d9061062b565b61024d9054610969565b61024d6009610972565b3461022057610996366004610322565b61031e61047161097c565b61024d600060046104a4565b34610220576109bd366004610322565b61031e6104d56109a1565b61024d600060026104a4565b34610220576109e4366004610322565b61031e6104d56109c8565b60ff8116610219565b90503590610232826109ef565b60e08183031261022057610a19828261026c565b92610a27836020840161026c565b92610a358160408501610225565b92610a438260608301610225565b9261024d610a5484608085016109f8565b93610a628160a08601610225565b9360c001610225565b3461022057610319610a7e366004610a05565b95949094939193612caf565b6107ae61024d92610a9f600c93600094610792565b610792565b346102205761031e610539610aba366004610689565b90610a8a565b3461022057610ad0366004610322565b610319612626565b61024d6001610972565b7f4e487b7100000000000000000000000000000000000000000000000000000000600052604160045260246000fd5b90601f017fffffffffffffffffffffffffffffffffffffffffffffffffffffffffffffffe016810190811067ffffffffffffffff821117610b5157604052565b610ae2565b90610232610b6360405190565b9283610b11565b61024d6020610b56565b61023291600191610b8d610b86610b6a565b9315158452565b610cda565b61024d9060081c610234565b61024d9054610b92565b61023461024d61024d9290565b61024d90610ba8565b15610bc557565b6040517f08c379a000000000000000000000000000000000000000000000000000000000815260206004820152601c60248201527f444558506169723a20414c52454144595f494e495449414c495a4544000000006044820152606490fd5b0390fd5b9074ffffffffffffffffffffffffffffffffffffffff009060081b5b9181191691161790565b90610c5e61024d610c6592610789565b8254610c28565b9055565b9073ffffffffffffffffffffffffffffffffffffffff90610c44565b90610c9561024d610c6592610789565b8254610c69565b9060ff90610c44565b90610cb561024d610c6592151590565b8254610c9c565b61023291610cca9051151590565b90610ca5565b9061023291610cbc565b90610d26610d2d92610d1f610cef6001610b9e565b610d19610cff6102346000610bb5565b9173ffffffffffffffffffffffffffffffffffffffff1690565b14610bbe565b6001610c4e565b6002610c85565b610d38816009610cd0565b610d767fb1102bf8599badf4360419344e57744751c4d685c0864e807454e60f8e6addbc91610d6660405190565b9182918290511515815260200190565b0390a1565b61024d90610234565b61024d9054610d7b565b15610d9557565b6040517f08c379a000000000000000000000000000000000000000000000000000000000815260206004820152601260248201527f444558506169723a20464f5242494444454e00000000000000000000000000006044820152606490fd5b906102329291610e1433610e0e610cff6102346004610d84565b14610d8e565b610e62565b801515610219565b9050359061023282610e19565b91909160208184031261022057610e51610e486020610b56565b93600092610e21565b90830152565b61024d903690610e2e565b90610e6f61023293610e57565b91610cda565b906102329291610df4565b610e88610ee2565b9192909190565b61024d905b6dffffffffffffffffffffffffffff1690565b61024d9054610e8f565b61024d9060701c610e94565b61024d9054610eb1565b61024d9060e01c5b63ffffffff1690565b61024d9054610ec7565b610eec6003610ea7565b90610ef76003610ebd565b9061024d6003610ed8565b90610f1491610f0f611591565b610f1d565b906102326115ea565b9061024d91610f2a61150f565b9061024d91611220565b9050519061023282610217565b906020828203126102205761024d91610f34565b6040513d6000823e3d90fd5b61024d61024d61024d926dffffffffffffffffffffffffffff1690565b7f4e487b7100000000000000000000000000000000000000000000000000000000600052601160045260246000fd5b91908203918211610fba57565b610f7e565b15610fc657565b6040517f08c379a000000000000000000000000000000000000000000000000000000000815260206004820152602260248201527f444558506169723a20494e53554646494349454e545f494e5055545f414d4f5560448201527f4e540000000000000000000000000000000000000000000000000000000000006064820152608490fd5b61024d9081565b61024d905461104b565b610e9461024d61024d9290565b1561107057565b6040517f08c379a000000000000000000000000000000000000000000000000000000000815260206004820152601e60248201527f444558506169723a20494e53554646494349454e545f524553455256455300006044820152606490fd5b9190918083025b928184041490151715610fba57565b7f4e487b7100000000000000000000000000000000000000000000000000000000600052601260045260246000fd5b9061111e565b9190565b908115611129570490565b6110e5565b1561113557565b6040517f08c379a000000000000000000000000000000000000000000000000000000000815260206004820152602660248201527f444558506169723a20494e53554646494349454e545f4c49515549444954595f60448201527f4d494e54454400000000000000000000000000000000000000000000000000006064820152608490fd5b156111c157565b6040517f08c379a000000000000000000000000000000000000000000000000000000000815260206004820152601c60248201527f444558506169723a204c49515549444954595f544f4f5f4c41524745000000006044820152606490fd5b509061122a610ee2565b509061124161123c61123c6001610b9e565b610789565b6370a0823161124f30610789565b602061125a60405190565b80946112668560e01b90565b825273ffffffffffffffffffffffffffffffffffffffff8416600483015260249082905afa9081156114df576112f1936000926114e4575b50602091926112cd6112b661123c61123c6002610d84565b916112c060405190565b9687948593849360e01b90565b835273ffffffffffffffffffffffffffffffffffffffff1660048301526024820190565b03915afa9182156114df576000926114af575b5061131761131184610f61565b82610fad565b61132961132386610f61565b84610fad565b906113346000610916565b811180611498575b61134590610fbf565b61134f6008611052565b6113596000610916565b810361140057506113a59761138061137b61023298979695946113fb946110cf565b6126f5565b9061139361138c610923565b8093610fad565b998a926113a06000610bb5565b61262e565b6113b96113b26000610916565b831161112e565b6113a06113f361024d7fffffffffffffffffffffffffffffffffffffffffffffffffffffffffffffffff6113ed6008611052565b90610fad565b8311156111ba565b6117e6565b8594939261147561146c8361146661145761147b966113fb986114526102329f9e8f90611444611430600061105c565b916dffffffffffffffffffffffffffff1690565b119081611482575b50611069565b6110cf565b6114608b610f61565b90611114565b936110cf565b61146089610f61565b906126e3565b80986113a5565b9050611491611430600061105c565b118f61144c565b506113456114a66000610916565b8311905061133c565b6114d191925060203d81116114d8575b6114c98183610b11565b810190610f41565b9038611304565b503d6114bf565b610f55565b602092506114fe90833d81116114d8576114c98183610b11565b9161129e565b61024d906000610f02565b611517610ad8565b61151d57565b6040517fd93c0665000000000000000000000000000000000000000000000000000000008152600490fd5b61024d6002610916565b907fffffffffffffffffffffffffffffffffffffffffffffffffffffffffffffffff90610c44565b9061158a61024d610c6592610916565b8254611552565b61159b6000611052565b6115a3611548565b9081146115b55761023290600061157a565b6040517f3ee5aeb5000000000000000000000000000000000000000000000000000000008152600490fd5b61024d6001610916565b6102326115f56115e0565b600061157a565b1561160357565b6040517f08c379a000000000000000000000000000000000000000000000000000000000815260206004820152601160248201527f444558506169723a204f564552464c4f570000000000000000000000000000006044820152606490fd5b8115611129570690565b610ecf61024d61024d9290565b63ffffffff908116911690039063ffffffff8211610fba57565b61024d61024d61024d927bffffffffffffffffffffffffffffffffffffffffffffffffffffffff1690565b61024d61024d61024d9263ffffffff1690565b91908201809211610fba57565b906dffffffffffffffffffffffffffff90610c44565b610e9461024d61024d926dffffffffffffffffffffffffffff1690565b9061172161024d610c65926116f4565b82546116de565b907bffffffffffffffffffffffffffff00000000000000000000000000009060701b610c44565b9061175f61024d610c65926116f4565b8254611728565b907fffffffff000000000000000000000000000000000000000000000000000000009060e01b610c44565b610ecf61024d61024d9263ffffffff1690565b906117b461024d610c6592611791565b8254611766565b6103de90610f61565b9160206102329294936117df604082019660008301906117bb565b01906117bb565b6118999161188d611886611892936118a0976118236dffffffffffffffffffffffffffff61181381610f61565b84111590816119b6575b506115fc565b61184361183e42611838640100000000610916565b90611662565b61166c565b976118576118516003610ed8565b8a611679565b9160006118638161166c565b63ffffffff8516119081611992575b8161196f575b506118eb575b50505061105c565b6003611711565b61105c565b600361174f565b60036117a4565b6118aa6003610ea7565b6118b46003610ebd565b7fcf2aa50876cdfbb541206f89af0ee78d44a2abf8d328e37fa4917f982149848a91610d766118e260405190565b928392836117c4565b6119679261192f6119506119218461191c8761194b6119446119356119266119216119609d61191c6119569e612ff7565b613041565b611693565b61192f8b6116be565b906110cf565b61193f6005611052565b6116d1565b600561157a565b612ff7565b916116be565b61193f6006611052565b600661157a565b38808061187e565b611979915061105c565b6dffffffffffffffffffffffffffff8216141538611878565b905061199d8161105c565b6dffffffffffffffffffffffffffff8416141590611872565b6119c09150610f61565b8611153861181d565b906119dc92916119d7611591565b6119e6565b90916102326115ea565b906102f992916119f461150f565b906102f99291611a8b565b15611a0657565b6040517f08c379a000000000000000000000000000000000000000000000000000000000815260206004820152602660248201527f444558506169723a20494e53554646494349454e545f4c49515549444954595f60448201527f4255524e454400000000000000000000000000000000000000000000000000006064820152608490fd5b9291925050611a98610ee2565b509190611aa56001610b9e565b92611ab9611ab36002610d84565b94610789565b91611ac383610789565b926370a0823190611ad330610789565b60405197611ae18460e01b90565b895273ffffffffffffffffffffffffffffffffffffffff821660048a01526020896024818a5afa9889156114df57600099611cfc575b50611b2190610789565b611b2a81610789565b92611b3460405190565b9a611b3f8660e01b90565b8c5273ffffffffffffffffffffffffffffffffffffffff841660048d015260208c602481885afa9b8c156114df5760009c611cdc575b50611b81846007610792565b611b8a90611052565b92611b956008611052565b611ba0819d866110cf565b90611baa91611114565b9b8c9d611bb790866110cf565b90611bc191611114565b92839c83600092611bd184610916565b83118098611bef611bfa9a611bf597611bf594611cca575b506119ff565b8a6126b7565b611d94565b6020611c0560405190565b8097611c118660e01b90565b825273ffffffffffffffffffffffffffffffffffffffff8416600483015260249082905afa9182156114df57611c6996600093611ca6575b506112cd839460209450611c5c60405190565b9889948593849360e01b90565b03915afa9081156114df5761023294600092611c86575b506117e6565b611c9f91925060203d81116114d8576114c98183610b11565b9038611c80565b60209350611cc36112cd91853d81116114d8576114c98183610b11565b9350611c49565b611cd49150610916565b8a1138611be9565b611cf5919c5060203d81116114d8576114c98183610b11565b9a38611b75565b611b21919950611d199060203d81116114d8576114c98183610b11565b9890611b17565b6102f9906000806119c9565b611d45611d3f61024d9263ffffffff1690565b60e01b90565b7fffffffff000000000000000000000000000000000000000000000000000000001690565b73ffffffffffffffffffffffffffffffffffffffff90911681526040810192916102329160200152565b611dd7600492611dc861023295611dae63a9059cbb611d2c565b92611db860405190565b9687946020860190815201611d6a565b60208201810382520383610b11565b906000602091611de5600090565b50828151910182855af115610f5557600080513d611e0561111a84610916565b03611e835750611e2161111a611e1a84610789565b3b92610916565b145b611e2a5750565b611e36610c2491610789565b6040519182917f5274afe70000000000000000000000000000000000000000000000000000000083526004830173ffffffffffffffffffffffffffffffffffffffff909116815260200190565b9050611e9261111a6001610916565b1415611e23565b90611eae94939291611ea9611591565b611eb6565b6102326115ea565b9061023294939291611ec661150f565b906102329493929161210c565b15611eda57565b6040517f08c379a000000000000000000000000000000000000000000000000000000000815260206004820152602360248201527f444558506169723a20494e53554646494349454e545f4f55545055545f414d4f60448201527f554e5400000000000000000000000000000000000000000000000000000000006064820152608490fd5b15611f6657565b6040517f08c379a000000000000000000000000000000000000000000000000000000000815260206004820152601f60248201527f444558506169723a20494e53554646494349454e545f4c4951554944495459006044820152606490fd5b15611fcc57565b6040517f08c379a000000000000000000000000000000000000000000000000000000000815260206004820152601360248201527f444558506169723a20494e56414c49445f544f000000000000000000000000006044820152606490fd5b90826000939282370152565b919061037a8161204e816103a29560209181520190565b809561202b565b90939161024d95936120926120999261208b6080860198600087019073ffffffffffffffffffffffffffffffffffffffff169052565b6020850152565b6040830152565b6060818503910152612037565b156120ad57565b6040517f08c379a000000000000000000000000000000000000000000000000000000000815260206004820152600a60248201527f444558506169723a204b000000000000000000000000000000000000000000006044820152606490fd5b93929192600061211b81610916565b861191828315612524575b61212f90611ed3565b612137610ee2565b5096909561214487610f61565b89108061250e575b61215590611f5f565b61215f6001610b9e565b9161216a6002610d84565b9573ffffffffffffffffffffffffffffffffffffffff841673ffffffffffffffffffffffffffffffffffffffff83161415806124eb575b6121aa90611fc5565b6124d8575b6121b885610916565b87116124c5575b836121cc61111a87610916565b1161242f575b50506121e2915061123c90610789565b956370a082316121f130610789565b9060206121fd60405190565b809a6122098460e01b90565b825273ffffffffffffffffffffffffffffffffffffffff8516600483015260249082905afa9485156114df5761226c996000966123fd575b50906112cd61225561123c60209594610789565b9161225f60405190565b9b8c948593849360e01b90565b03915afa9384156114df57858792610232996000976123c5575b50926123166113fb959361192f9361235c96826122ae61024d836122a986610f61565b610fad565b8b11156123af576122a96122d46122ce61024d946122a96122da97610f61565b8d610fad565b96610f61565b6000908a111561239f57506122f56122fb916122a98d610f61565b89610fad565b935b61230681610916565b831190811561238d575b50610fbf565b6113ed6103e89361192f61235661235061234a61233b6123358a610916565b8d6110cf565b6113ed60039861192f8a610916565b97610916565b8b6110cf565b93610916565b61238661111a61024d61237a61237189610f61565b61192f8b610f61565b61192f620f4240610916565b10156120a6565b6123979150610916565b841138612310565b6123a99150610916565b936122fd565b6122da925061024d91506122a96122d489610916565b61235c949197506113fb959361192f936123ef6123169360203d81116114d8576114c98183610b11565b999396509350939550612286565b6020939291965061225561123c6124236112cd93873d81116114d8576114c98183610b11565b98939495505050612241565b61123c61243b91610789565b9063bea9cf36913391813b15610220578680946124798e9861246e948d61246160405190565b9b8c998a98899760e01b90565b875260048701612055565b03925af19081156114df576121e29261123c92612499575b8192506121d2565b6124b890853d87116124be575b6124b08183610b11565b810190610322565b38612491565b503d6124a6565b6124d38782611bf589610789565b6121bf565b6124e68a82611bf586610789565b6121af565b5073ffffffffffffffffffffffffffffffffffffffff82811690881614156121a1565b5061215561251b89610f61565b8710905061214c565b5061212f61253183610916565b85119050612126565b9061023294939291611e99565b61254f611591565b611eae61256261123c61123c6001610b9e565b6370a0823161257030610789565b602061257b60405190565b80946125878560e01b90565b825273ffffffffffffffffffffffffffffffffffffffff8416600483015260249082905afa9081156114df576125d6936000926114e45750602091926112cd6112b661123c61123c6002610d84565b03915afa80156114df5761023292600091612608575b506125f76003610ea7565b906126026003610ebd565b926117e6565b612620915060203d81116114d8576114c98183610b11565b386125ec565b610232612547565b906126b16126a76102329361266161264a8561193f6008611052565b61265a61111a61024d6008611052565b10156115fc565b600761268f61267c8661193f6126778686610792565b611052565b61265a61111a61024d6126778787610792565b610a9f6126a08661193f6008611052565b600861157a565b9161193f83611052565b9061157a565b610232916126d96126cc6126a0936007610792565b6126b1836122a983611052565b6122a96008611052565b90808210156126f0575090565b905090565b9060006127026003610916565b831115612780575061273782600261272261271c82610916565b83611114565b91600193849361273185610916565b906116d1565b935b612744575b50505050565b9091929461274f8190565b86101561277a57506127716127688661193f8185611114565b61146084610916565b92919082612739565b9461273e565b9161278e61111a6000610916565b0361279557565b905061024d6001610916565b336127ba836127b584610a9f85600c610792565b61157a565b6127fa6127f06127ea7f8c5be1e5ebec7d5bd14f71427d1e84f3dd0314c0f7b2291e5b200ac8c7c3b92593610789565b93610789565b9361053d60405190565b0390a3600190565b33612833612826836007610a9f6128198683610792565b6126b1896122a983611052565b6126b18561193f83611052565b6127fa6127f06127ea7fddf252ad1be2c89b69c2b068fc378daa952ba7f163c4a11628f55a4df523b3ef93610789565b600c816128708183610792565b61287e612677338093610792565b60010161289f575b505050612833612826836007610a9f6128198683610792565b610a9f6128af926128bc94610792565b6126b1856122a983611052565b388181612886565b67ffffffffffffffff8111610b5157602090601f017fffffffffffffffffffffffffffffffffffffffffffffffffffffffffffffffe0160190565b9061291161290c836128c4565b610b56565b918252565b612920600c6128ff565b7f444558204c5020546f6b656e0000000000000000000000000000000000000000602082015290565b61024d612916565b61024d612949565b61296360026128ff565b7f4c50000000000000000000000000000000000000000000000000000000000000602082015290565b61024d612959565b61024d61298c565b61062b61024d61024d9290565b61024d601261299c565b61024d612a4b565b6129c560016128ff565b7f3100000000000000000000000000000000000000000000000000000000000000602082015290565b61024d6129bb565b9095949261023294612a28612a2f92612a21608096612a1a60a088019c6000890152565b6020870152565b6040850152565b6060830152565b019073ffffffffffffffffffffffffffffffffffffffff169052565b7f8b73c3c69bb8fe3d512ecc4cf759cc79239f7b179b0ffacaa9a75d522b39400f612ad0612a77612949565b612a89612a82825190565b9160200190565b20612a926129ee565b612a9d612a82825190565b2092612ac446612aac30610789565b90612ab660405190565b9687956020870195866129f6565b90810382520382610b11565b612adb612a82825190565b2090565b15612ae657565b6040517f08c379a000000000000000000000000000000000000000000000000000000000815260206004820152601060248201527f444558506169723a2045585049524544000000000000000000000000000000006044820152606490fd5b7fffffffffffffffffffffffffffffffffffffffffffffffffffffffffffffffff8114610fba5760010190565b9194612bdb6108ad92989795612bd460a096612bb76102329a612b9a60c08a019e60008b0152565b73ffffffffffffffffffffffffffffffffffffffff166020890152565b73ffffffffffffffffffffffffffffffffffffffff166040870152565b6060850152565b6080830152565b6020809392612c1a6129116103a2947f1901000000000000000000000000000000000000000000000000000000000000815260020190565b01918252565b6108ad61023294612092606094989795612c3f608086019a6000870152565b60ff166020850152565b15612c5057565b6040517f08c379a000000000000000000000000000000000000000000000000000000000815260206004820152601a60248201527f444558506169723a20494e56414c49445f5349474e41545552450000000000006044820152606490fd5b939094612d758397612ac4612d5689612d328a600099612ac460209c612cdd612cd54290565b821015612adf565b7f6e71edae12b1b97f4d1f60370fef10105fa2faae0126114a169c64845d6126c992612d0a85600d610792565b90612d21612d1783611052565b926126b184612b45565b604051978896602088019687612b72565b612d3d612a82825190565b20612d46612a4b565b6040519384928b84019283612be2565b612d61612a82825190565b2092612d6c60405190565b94859485612c20565b838052039060015afa156114df57600051612daf90612da973ffffffffffffffffffffffffffffffffffffffff8416610cff565b14612c49565b612dc2836127b584610a9f85600c610792565b612df26127f06127ea7f8c5be1e5ebec7d5bd14f71427d1e84f3dd0314c0f7b2291e5b200ac8c7c3b92593610789565b0390a3565b612e016001610b9e565b612e14612e0e6002610d84565b91610789565b91612e1e83610789565b926370a0823192612e2e30610789565b906020612e3a60405190565b8097612e468860e01b90565b825273ffffffffffffffffffffffffffffffffffffffff8516600483015260249082905afa9081156114df5761123c60209486612e9f612ea595612ec99b600091612f10575b506113ed612e9a6003610ea7565b610f61565b91611d94565b936112cd612eb286610789565b91612ebc60405190565b9788948593849360e01b90565b03915afa9283156114df5761023293612e9f91600091612ef2575b506113ed612e9a6003610ebd565b612f0a915060203d81116114d8576114c98183610b11565b38612ee4565b612f279150893d81116114d8576114c98183610b11565b38612e8c565b61024d612f3d612e9a6003610ea7565b61192f612e9a6003610ebd565b612f6761024d61024d926dffffffffffffffffffffffffffff1690565b7bffffffffffffffffffffffffffffffffffffffffffffffffffffffff1690565b612f6761024d61024d9290565b61024d6e010000000000000000000000000000612f88565b7bffffffffffffffffffffffffffffffffffffffffffffffffffffffff908116929116917bffffffffffffffffffffffffffffffffffffffffffffffffffffffff818402166110d6565b61300c61024d91613006600090565b50612f4a565b613014612f95565b90612fad565b7bffffffffffffffffffffffffffffffffffffffffffffffffffffffff908116911661111e565b61305061024d92613006600090565b9061301a56fea2646970667358221220bc07547ce93b5eefc2a44cc97239c5c29b9d030c031b9421b34cda2c3ad7b9e764736f6c63430008140033","opcodes":"PUSH1 0x80 PUSH1 0x40 MSTORE CALLVALUE PUSH3 0x26 JUMPI PUSH3 0x14 PUSH3 0x9B JUMP JUMPDEST PUSH1 0x40 MLOAD PUSH2 0x308C PUSH3 0x11C DUP3 CODECOPY PUSH2 0x308C SWAP1 RETURN JUMPDEST PUSH1 0x0 DUP1 REVERT JUMPDEST SWAP1 PUSH1 0x1 PUSH1 0x1 PUSH1 0xA0 SHL SUB SWAP1 JUMPDEST SWAP2 DUP2 NOT AND SWAP2 AND OR SWAP1 JUMP JUMPDEST PUSH3 0x56 SWAP1 PUSH3 0x59 SWAP1 PUSH1 0x1 PUSH1 0x1 PUSH1 0xA0 SHL SUB AND DUP3 JUMP JUMPDEST SWAP1 JUMP JUMPDEST PUSH1 0x1 PUSH1 0x1 PUSH1 0xA0 SHL SUB AND SWAP1 JUMP JUMPDEST PUSH3 0x56 SWAP1 PUSH3 0x40 JUMP JUMPDEST PUSH3 0x56 SWAP1 PUSH3 0x65 JUMP JUMPDEST SWAP1 PUSH3 0x8F PUSH3 0x56 PUSH3 0x97 SWAP3 PUSH3 0x70 JUMP JUMPDEST DUP3 SLOAD PUSH3 0x2B JUMP JUMPDEST SWAP1 SSTORE JUMP JUMPDEST PUSH3 0xA5 PUSH3 0xB4 JUMP JUMPDEST PUSH3 0xB2 CALLER PUSH1 0x4 PUSH3 0x7B JUMP JUMPDEST JUMP JUMPDEST PUSH3 0xB2 PUSH3 0xB2 PUSH3 0x105 JUMP JUMPDEST PUSH3 0x56 PUSH3 0x56 PUSH3 0x56 SWAP3 SWAP1 JUMP JUMPDEST PUSH3 0x56 PUSH1 0x1 PUSH3 0xC2 JUMP JUMPDEST SWAP1 PUSH1 0x0 NOT SWAP1 PUSH3 0x36 JUMP JUMPDEST SWAP1 PUSH3 0xFD PUSH3 0x56 PUSH3 0x97 SWAP3 PUSH3 0xC2 JUMP JUMPDEST DUP3 SLOAD PUSH3 0xDE JUMP JUMPDEST PUSH3 0xB2 PUSH3 0x113 PUSH3 0xD2 JUMP JUMPDEST PUSH1 0x0 PUSH3 0xE9 JUMP INVALID PUSH1 0x80 PUSH1 0x40 MSTORE PUSH1 0x4 CALLDATASIZE LT ISZERO PUSH2 0x12 JUMPI PUSH1 0x0 DUP1 REVERT JUMPDEST PUSH1 0x0 CALLDATALOAD PUSH1 0xE0 SHR DUP1 PUSH4 0x22C0D9F EQ PUSH2 0x212 JUMPI DUP1 PUSH4 0x6FDDE03 EQ PUSH2 0x20D JUMPI DUP1 PUSH4 0x902F1AC EQ PUSH2 0x208 JUMPI DUP1 PUSH4 0x95EA7B3 EQ PUSH2 0x203 JUMPI DUP1 PUSH4 0xDFE1681 EQ PUSH2 0x1FE JUMPI DUP1 PUSH4 0x18160DDD EQ PUSH2 0x1F9 JUMPI DUP1 PUSH4 0x23B872DD EQ PUSH2 0x1F4 JUMPI DUP1 PUSH4 0x30ADF81F EQ PUSH2 0x1EF JUMPI DUP1 PUSH4 0x313CE567 EQ PUSH2 0x1EA JUMPI DUP1 PUSH4 0x3566414C EQ PUSH2 0x1E5 JUMPI DUP1 PUSH4 0x3644E515 EQ PUSH2 0x1E0 JUMPI DUP1 PUSH4 0x485CC955 EQ PUSH2 0x1DB JUMPI DUP1 PUSH4 0x5909C0D5 EQ PUSH2 0x1D6 JUMPI DUP1 PUSH4 0x5A3D5493 EQ PUSH2 0x1D1 JUMPI DUP1 PUSH4 0x5C975ABB EQ PUSH2 0x1CC JUMPI DUP1 PUSH4 0x6A627842 EQ PUSH2 0x1C7 JUMPI DUP1 PUSH4 0x70A08231 EQ PUSH2 0x1C2 JUMPI DUP1 PUSH4 0x7174B568 EQ PUSH2 0x1BD JUMPI DUP1 PUSH4 0x7464FC3D EQ PUSH2 0x1B8 JUMPI DUP1 PUSH4 0x7ECEBE00 EQ PUSH2 0x1B3 JUMPI DUP1 PUSH4 0x820D25A8 EQ PUSH2 0x1AE JUMPI DUP1 PUSH4 0x89AFCB44 EQ PUSH2 0x1A9 JUMPI DUP1 PUSH4 0x95D89B41 EQ PUSH2 0x1A4 JUMPI DUP1 PUSH4 0xA9059CBB EQ PUSH2 0x19F JUMPI DUP1 PUSH4 0xBA9A7A56 EQ PUSH2 0x19A JUMPI DUP1 PUSH4 0xBC25CF77 EQ PUSH2 0x195 JUMPI DUP1 PUSH4 0xBE11B1D0 EQ PUSH2 0x190 JUMPI DUP1 PUSH4 0xC45A0155 EQ PUSH2 0x18B JUMPI DUP1 PUSH4 0xD21220A7 EQ PUSH2 0x186 JUMPI DUP1 PUSH4 0xD505ACCF EQ PUSH2 0x181 JUMPI DUP1 PUSH4 0xDD62ED3E EQ PUSH2 0x17C JUMPI PUSH4 0xFFF6CAE9 SUB PUSH2 0x220 JUMPI PUSH2 0xAC0 JUMP JUMPDEST PUSH2 0xAA4 JUMP JUMPDEST PUSH2 0xA6B JUMP JUMPDEST PUSH2 0x9D4 JUMP JUMPDEST PUSH2 0x9AD JUMP JUMPDEST PUSH2 0x986 JUMP JUMPDEST PUSH2 0x951 JUMP JUMPDEST PUSH2 0x936 JUMP JUMPDEST PUSH2 0x8FA JUMP JUMPDEST PUSH2 0x8DF JUMP JUMPDEST PUSH2 0x8B1 JUMP JUMPDEST PUSH2 0x881 JUMP JUMPDEST PUSH2 0x828 JUMP JUMPDEST PUSH2 0x7FB JUMP JUMPDEST PUSH2 0x7E0 JUMP JUMPDEST PUSH2 0x7B3 JUMP JUMPDEST PUSH2 0x742 JUMP JUMPDEST PUSH2 0x713 JUMP JUMPDEST PUSH2 0x6F8 JUMP JUMPDEST PUSH2 0x6D1 JUMP JUMPDEST PUSH2 0x6AC JUMP JUMPDEST PUSH2 0x66E JUMP JUMPDEST PUSH2 0x653 JUMP JUMPDEST PUSH2 0x5CF JUMP JUMPDEST PUSH2 0x596 JUMP JUMPDEST PUSH2 0x57A JUMP JUMPDEST PUSH2 0x51E JUMP JUMPDEST PUSH2 0x4BA JUMP JUMPDEST PUSH2 0x455 JUMP JUMPDEST PUSH2 0x3E2 JUMP JUMPDEST PUSH2 0x3B7 JUMP JUMPDEST PUSH2 0x2FD JUMP JUMPDEST DUP1 JUMPDEST SUB PUSH2 0x220 JUMPI JUMP JUMPDEST PUSH1 0x0 DUP1 REVERT JUMPDEST SWAP1 POP CALLDATALOAD SWAP1 PUSH2 0x232 DUP3 PUSH2 0x217 JUMP JUMPDEST JUMP JUMPDEST PUSH20 0xFFFFFFFFFFFFFFFFFFFFFFFFFFFFFFFFFFFFFFFF AND SWAP1 JUMP JUMPDEST SWAP1 JUMP JUMPDEST PUSH20 0xFFFFFFFFFFFFFFFFFFFFFFFFFFFFFFFFFFFFFFFF DUP2 AND PUSH2 0x219 JUMP JUMPDEST SWAP1 POP CALLDATALOAD SWAP1 PUSH2 0x232 DUP3 PUSH2 0x250 JUMP JUMPDEST SWAP1 SWAP2 DUP3 PUSH1 0x1F DUP4 ADD SLT ISZERO PUSH2 0x220 JUMPI DUP2 CALLDATALOAD SWAP2 PUSH8 0xFFFFFFFFFFFFFFFF DUP4 GT PUSH2 0x220 JUMPI PUSH1 0x20 ADD SWAP3 PUSH1 0x1 DUP4 MUL DUP5 ADD GT PUSH2 0x220 JUMPI JUMP JUMPDEST SWAP1 PUSH1 0x80 DUP3 DUP3 SUB SLT PUSH2 0x220 JUMPI PUSH2 0x2BE DUP2 DUP4 PUSH2 0x225 JUMP JUMPDEST SWAP3 PUSH2 0x2CC DUP3 PUSH1 0x20 DUP6 ADD PUSH2 0x225 JUMP JUMPDEST SWAP3 PUSH2 0x2DA DUP4 PUSH1 0x40 DUP4 ADD PUSH2 0x26C JUMP JUMPDEST SWAP3 PUSH1 0x60 DUP3 ADD CALLDATALOAD PUSH8 0xFFFFFFFFFFFFFFFF DUP2 GT PUSH2 0x220 JUMPI PUSH2 0x2F9 SWAP3 ADD PUSH2 0x279 JUMP JUMPDEST SWAP1 SWAP2 JUMP JUMPDEST CALLVALUE PUSH2 0x220 JUMPI PUSH2 0x319 PUSH2 0x310 CALLDATASIZE PUSH1 0x4 PUSH2 0x2A9 JUMP JUMPDEST SWAP4 SWAP3 SWAP1 SWAP3 PUSH2 0x253A JUMP JUMPDEST PUSH1 0x40 MLOAD STOP JUMPDEST SUB SWAP1 RETURN JUMPDEST PUSH1 0x0 SWAP2 SUB SLT PUSH2 0x220 JUMPI JUMP JUMPDEST PUSH1 0x0 JUMPDEST DUP4 DUP2 LT PUSH2 0x340 JUMPI POP POP PUSH1 0x0 SWAP2 ADD MSTORE JUMP JUMPDEST DUP2 DUP2 ADD MLOAD DUP4 DUP3 ADD MSTORE PUSH1 0x20 ADD PUSH2 0x330 JUMP JUMPDEST PUSH2 0x371 PUSH2 0x37A PUSH1 0x20 SWAP4 PUSH2 0x3A2 SWAP4 PUSH2 0x365 DUP2 MLOAD SWAP1 JUMP JUMPDEST DUP1 DUP4 MSTORE SWAP4 DUP5 SWAP3 PUSH1 0x20 ADD SWAP1 JUMP JUMPDEST SWAP6 DUP7 SWAP2 ADD PUSH2 0x32D JUMP JUMPDEST PUSH1 0x1F ADD PUSH32 0xFFFFFFFFFFFFFFFFFFFFFFFFFFFFFFFFFFFFFFFFFFFFFFFFFFFFFFFFFFFFFFE0 AND SWAP1 JUMP JUMPDEST ADD SWAP1 JUMP JUMPDEST PUSH1 0x20 DUP1 DUP3 MSTORE PUSH2 0x24D SWAP3 SWAP2 ADD SWAP1 PUSH2 0x350 JUMP JUMPDEST CALLVALUE PUSH2 0x220 JUMPI PUSH2 0x3C7 CALLDATASIZE PUSH1 0x4 PUSH2 0x322 JUMP JUMPDEST PUSH2 0x31E PUSH2 0x3D2 PUSH2 0x2951 JUMP JUMPDEST PUSH1 0x40 MLOAD SWAP2 DUP3 SWAP2 DUP3 PUSH2 0x3A6 JUMP JUMPDEST SWAP1 MSTORE JUMP JUMPDEST CALLVALUE PUSH2 0x220 JUMPI PUSH2 0x3F2 CALLDATASIZE PUSH1 0x4 PUSH2 0x322 JUMP JUMPDEST PUSH2 0x31E PUSH2 0x3FD PUSH2 0xE80 JUMP JUMPDEST PUSH1 0x40 DUP1 MLOAD PUSH14 0xFFFFFFFFFFFFFFFFFFFFFFFFFFFF SWAP5 DUP6 AND DUP2 MSTORE SWAP4 SWAP1 SWAP3 AND PUSH1 0x20 DUP5 ADD MSTORE PUSH4 0xFFFFFFFF AND SWAP1 DUP3 ADD MSTORE SWAP1 DUP2 SWAP1 PUSH1 0x60 DUP3 ADD SWAP1 JUMP JUMPDEST SWAP2 SWAP1 PUSH1 0x40 DUP4 DUP3 SUB SLT PUSH2 0x220 JUMPI PUSH2 0x24D SWAP1 PUSH2 0x44C DUP2 DUP6 PUSH2 0x26C JUMP JUMPDEST SWAP4 PUSH1 0x20 ADD PUSH2 0x225 JUMP JUMPDEST CALLVALUE PUSH2 0x220 JUMPI PUSH2 0x31E PUSH2 0x471 PUSH2 0x46B CALLDATASIZE PUSH1 0x4 PUSH2 0x432 JUMP JUMPDEST SWAP1 PUSH2 0x27A1 JUMP JUMPDEST PUSH1 0x40 MLOAD SWAP2 DUP3 SWAP2 DUP3 SWAP1 ISZERO ISZERO DUP2 MSTORE PUSH1 0x20 ADD SWAP1 JUMP JUMPDEST PUSH2 0x24D SWAP2 PUSH1 0x8 MUL SHR PUSH20 0xFFFFFFFFFFFFFFFFFFFFFFFFFFFFFFFFFFFFFFFF AND SWAP1 JUMP JUMPDEST SWAP1 PUSH2 0x24D SWAP2 SLOAD PUSH2 0x483 JUMP JUMPDEST PUSH2 0x24D PUSH1 0x1 DUP1 PUSH2 0x4A4 JUMP JUMPDEST CALLVALUE PUSH2 0x220 JUMPI PUSH2 0x4CA CALLDATASIZE PUSH1 0x4 PUSH2 0x322 JUMP JUMPDEST PUSH2 0x31E PUSH2 0x4D5 PUSH2 0x4AF JUMP JUMPDEST PUSH1 0x40 MLOAD SWAP2 DUP3 SWAP2 DUP3 PUSH20 0xFFFFFFFFFFFFFFFFFFFFFFFFFFFFFFFFFFFFFFFF SWAP1 SWAP2 AND DUP2 MSTORE PUSH1 0x20 ADD SWAP1 JUMP JUMPDEST PUSH2 0x24D SWAP2 PUSH1 0x8 MUL SHR DUP2 JUMP JUMPDEST SWAP1 PUSH2 0x24D SWAP2 SLOAD PUSH2 0x4FC JUMP JUMPDEST PUSH2 0x24D PUSH1 0x0 PUSH1 0x8 PUSH2 0x507 JUMP JUMPDEST CALLVALUE PUSH2 0x220 JUMPI PUSH2 0x52E CALLDATASIZE PUSH1 0x4 PUSH2 0x322 JUMP JUMPDEST PUSH2 0x31E PUSH2 0x539 PUSH2 0x512 JUMP JUMPDEST PUSH1 0x40 MLOAD JUMPDEST SWAP2 DUP3 SWAP2 DUP3 SWAP1 DUP2 MSTORE PUSH1 0x20 ADD SWAP1 JUMP JUMPDEST SWAP1 SWAP2 PUSH1 0x60 DUP3 DUP5 SUB SLT PUSH2 0x220 JUMPI PUSH2 0x24D PUSH2 0x563 DUP5 DUP5 PUSH2 0x26C JUMP JUMPDEST SWAP4 PUSH2 0x571 DUP2 PUSH1 0x20 DUP7 ADD PUSH2 0x26C JUMP JUMPDEST SWAP4 PUSH1 0x40 ADD PUSH2 0x225 JUMP JUMPDEST CALLVALUE PUSH2 0x220 JUMPI PUSH2 0x31E PUSH2 0x471 PUSH2 0x590 CALLDATASIZE PUSH1 0x4 PUSH2 0x54A JUMP JUMPDEST SWAP2 PUSH2 0x2863 JUMP JUMPDEST CALLVALUE PUSH2 0x220 JUMPI PUSH2 0x5A6 CALLDATASIZE PUSH1 0x4 PUSH2 0x322 JUMP JUMPDEST PUSH2 0x31E PUSH32 0x6E71EDAE12B1B97F4D1F60370FEF10105FA2FAAE0126114A169C64845D6126C9 PUSH2 0x539 JUMP JUMPDEST CALLVALUE PUSH2 0x220 JUMPI PUSH2 0x5DF CALLDATASIZE PUSH1 0x4 PUSH2 0x322 JUMP JUMPDEST PUSH2 0x31E PUSH2 0x5EA PUSH2 0x29A9 JUMP JUMPDEST PUSH1 0x40 MLOAD SWAP2 DUP3 SWAP2 DUP3 PUSH1 0xFF SWAP1 SWAP2 AND DUP2 MSTORE PUSH1 0x20 ADD SWAP1 JUMP JUMPDEST SWAP1 PUSH1 0x20 DUP3 DUP3 SUB SLT PUSH2 0x220 JUMPI PUSH2 0x24D SWAP2 PUSH2 0x225 JUMP JUMPDEST SWAP1 JUMPDEST PUSH1 0x0 MSTORE PUSH1 0x20 MSTORE PUSH1 0x40 PUSH1 0x0 KECCAK256 SWAP1 JUMP JUMPDEST PUSH2 0x24D SWAP2 PUSH1 0x8 MUL SHR JUMPDEST PUSH1 0xFF AND SWAP1 JUMP JUMPDEST SWAP1 PUSH2 0x24D SWAP2 SLOAD PUSH2 0x622 JUMP JUMPDEST PUSH2 0x24D SWAP1 PUSH2 0x64E PUSH1 0xB SWAP2 PUSH1 0x0 SWAP3 PUSH2 0x612 JUMP JUMPDEST PUSH2 0x631 JUMP JUMPDEST CALLVALUE PUSH2 0x220 JUMPI PUSH2 0x31E PUSH2 0x471 PUSH2 0x669 CALLDATASIZE PUSH1 0x4 PUSH2 0x5FE JUMP JUMPDEST PUSH2 0x63C JUMP JUMPDEST CALLVALUE PUSH2 0x220 JUMPI PUSH2 0x67E CALLDATASIZE PUSH1 0x4 PUSH2 0x322 JUMP JUMPDEST PUSH2 0x31E PUSH2 0x539 PUSH2 0x29B3 JUMP JUMPDEST SWAP2 SWAP1 PUSH1 0x40 DUP4 DUP3 SUB SLT PUSH2 0x220 JUMPI PUSH2 0x24D SWAP1 PUSH2 0x6A3 DUP2 DUP6 PUSH2 0x26C JUMP JUMPDEST SWAP4 PUSH1 0x20 ADD PUSH2 0x26C JUMP JUMPDEST CALLVALUE PUSH2 0x220 JUMPI PUSH2 0x319 PUSH2 0x6BF CALLDATASIZE PUSH1 0x4 PUSH2 0x689 JUMP JUMPDEST SWAP1 PUSH2 0xB74 JUMP JUMPDEST PUSH2 0x24D PUSH1 0x0 PUSH1 0x5 PUSH2 0x507 JUMP JUMPDEST CALLVALUE PUSH2 0x220 JUMPI PUSH2 0x6E1 CALLDATASIZE PUSH1 0x4 PUSH2 0x322 JUMP JUMPDEST PUSH2 0x31E PUSH2 0x539 PUSH2 0x6C5 JUMP JUMPDEST PUSH2 0x24D PUSH1 0x0 PUSH1 0x6 PUSH2 0x507 JUMP JUMPDEST CALLVALUE PUSH2 0x220 JUMPI PUSH2 0x708 CALLDATASIZE PUSH1 0x4 PUSH2 0x322 JUMP JUMPDEST PUSH2 0x31E PUSH2 0x539 PUSH2 0x6EC JUMP JUMPDEST CALLVALUE PUSH2 0x220 JUMPI PUSH2 0x723 CALLDATASIZE PUSH1 0x4 PUSH2 0x322 JUMP JUMPDEST PUSH2 0x31E PUSH2 0x471 PUSH2 0xAD8 JUMP JUMPDEST SWAP1 PUSH1 0x20 DUP3 DUP3 SUB SLT PUSH2 0x220 JUMPI PUSH2 0x24D SWAP2 PUSH2 0x26C JUMP JUMPDEST CALLVALUE PUSH2 0x220 JUMPI PUSH2 0x31E PUSH2 0x539 PUSH2 0x758 CALLDATASIZE PUSH1 0x4 PUSH2 0x72E JUMP JUMPDEST PUSH2 0x1504 JUMP JUMPDEST PUSH2 0x234 PUSH2 0x24D PUSH2 0x24D SWAP3 PUSH20 0xFFFFFFFFFFFFFFFFFFFFFFFFFFFFFFFFFFFFFFFF AND SWAP1 JUMP JUMPDEST PUSH2 0x24D SWAP1 PUSH2 0x75D JUMP JUMPDEST PUSH2 0x24D SWAP1 PUSH2 0x780 JUMP JUMPDEST SWAP1 PUSH2 0x614 SWAP1 PUSH2 0x789 JUMP JUMPDEST PUSH2 0x24D SWAP1 PUSH2 0x7AE PUSH1 0x7 SWAP2 PUSH1 0x0 SWAP3 PUSH2 0x792 JUMP JUMPDEST PUSH2 0x507 JUMP JUMPDEST CALLVALUE PUSH2 0x220 JUMPI PUSH2 0x31E PUSH2 0x539 PUSH2 0x7C9 CALLDATASIZE PUSH1 0x4 PUSH2 0x72E JUMP JUMPDEST PUSH2 0x79C JUMP JUMPDEST PUSH2 0x24D SWAP1 PUSH2 0x7AE PUSH1 0xA SWAP2 PUSH1 0x0 SWAP3 PUSH2 0x612 JUMP JUMPDEST CALLVALUE PUSH2 0x220 JUMPI PUSH2 0x31E PUSH2 0x539 PUSH2 0x7F6 CALLDATASIZE PUSH1 0x4 PUSH2 0x5FE JUMP JUMPDEST PUSH2 0x7CE JUMP JUMPDEST CALLVALUE PUSH2 0x220 JUMPI PUSH2 0x80B CALLDATASIZE PUSH1 0x4 PUSH2 0x322 JUMP JUMPDEST PUSH2 0x31E PUSH2 0x539 PUSH2 0x2F2D JUMP JUMPDEST PUSH2 0x24D SWAP1 PUSH2 0x7AE PUSH1 0xD SWAP2 PUSH1 0x0 SWAP3 PUSH2 0x792 JUMP JUMPDEST CALLVALUE PUSH2 0x220 JUMPI PUSH2 0x31E PUSH2 0x539 PUSH2 0x83E CALLDATASIZE PUSH1 0x4 PUSH2 0x72E JUMP JUMPDEST PUSH2 0x816 JUMP JUMPDEST SWAP1 DUP2 PUSH1 0x20 SWAP2 SUB SLT PUSH2 0x220 JUMPI SWAP1 JUMP JUMPDEST SWAP1 SWAP2 PUSH1 0x60 DUP3 DUP5 SUB SLT PUSH2 0x220 JUMPI PUSH2 0x24D PUSH2 0x86A DUP5 DUP5 PUSH2 0x26C JUMP JUMPDEST SWAP4 PUSH2 0x878 DUP2 PUSH1 0x20 DUP7 ADD PUSH2 0x26C JUMP JUMPDEST SWAP4 PUSH1 0x40 ADD PUSH2 0x843 JUMP JUMPDEST CALLVALUE PUSH2 0x220 JUMPI PUSH2 0x319 PUSH2 0x894 CALLDATASIZE PUSH1 0x4 PUSH2 0x851 JUMP JUMPDEST SWAP2 PUSH2 0xE75 JUMP JUMPDEST SWAP1 DUP2 MSTORE PUSH1 0x40 DUP2 ADD SWAP3 SWAP2 PUSH2 0x232 SWAP2 PUSH1 0x20 ADD MSTORE JUMP JUMPDEST ADD MSTORE JUMP JUMPDEST CALLVALUE PUSH2 0x220 JUMPI PUSH2 0x8C9 PUSH2 0x8C4 CALLDATASIZE PUSH1 0x4 PUSH2 0x72E JUMP JUMPDEST PUSH2 0x1D20 JUMP JUMPDEST SWAP1 PUSH2 0x31E PUSH2 0x8D6 PUSH1 0x40 MLOAD SWAP1 JUMP JUMPDEST SWAP3 DUP4 SWAP3 DUP4 PUSH2 0x89A JUMP JUMPDEST CALLVALUE PUSH2 0x220 JUMPI PUSH2 0x8EF CALLDATASIZE PUSH1 0x4 PUSH2 0x322 JUMP JUMPDEST PUSH2 0x31E PUSH2 0x3D2 PUSH2 0x2994 JUMP JUMPDEST CALLVALUE PUSH2 0x220 JUMPI PUSH2 0x31E PUSH2 0x471 PUSH2 0x910 CALLDATASIZE PUSH1 0x4 PUSH2 0x432 JUMP JUMPDEST SWAP1 PUSH2 0x2802 JUMP JUMPDEST PUSH2 0x24D PUSH2 0x24D PUSH2 0x24D SWAP3 SWAP1 JUMP JUMPDEST PUSH2 0x24D PUSH2 0x3E8 PUSH2 0x916 JUMP JUMPDEST PUSH2 0x24D PUSH2 0x923 JUMP JUMPDEST CALLVALUE PUSH2 0x220 JUMPI PUSH2 0x946 CALLDATASIZE PUSH1 0x4 PUSH2 0x322 JUMP JUMPDEST PUSH2 0x31E PUSH2 0x539 PUSH2 0x92E JUMP JUMPDEST CALLVALUE PUSH2 0x220 JUMPI PUSH2 0x319 PUSH2 0x964 CALLDATASIZE PUSH1 0x4 PUSH2 0x72E JUMP JUMPDEST PUSH2 0x2DF7 JUMP JUMPDEST PUSH2 0x24D SWAP1 PUSH2 0x62B JUMP JUMPDEST PUSH2 0x24D SWAP1 SLOAD PUSH2 0x969 JUMP JUMPDEST PUSH2 0x24D PUSH1 0x9 PUSH2 0x972 JUMP JUMPDEST CALLVALUE PUSH2 0x220 JUMPI PUSH2 0x996 CALLDATASIZE PUSH1 0x4 PUSH2 0x322 JUMP JUMPDEST PUSH2 0x31E PUSH2 0x471 PUSH2 0x97C JUMP JUMPDEST PUSH2 0x24D PUSH1 0x0 PUSH1 0x4 PUSH2 0x4A4 JUMP JUMPDEST CALLVALUE PUSH2 0x220 JUMPI PUSH2 0x9BD CALLDATASIZE PUSH1 0x4 PUSH2 0x322 JUMP JUMPDEST PUSH2 0x31E PUSH2 0x4D5 PUSH2 0x9A1 JUMP JUMPDEST PUSH2 0x24D PUSH1 0x0 PUSH1 0x2 PUSH2 0x4A4 JUMP JUMPDEST CALLVALUE PUSH2 0x220 JUMPI PUSH2 0x9E4 CALLDATASIZE PUSH1 0x4 PUSH2 0x322 JUMP JUMPDEST PUSH2 0x31E PUSH2 0x4D5 PUSH2 0x9C8 JUMP JUMPDEST PUSH1 0xFF DUP2 AND PUSH2 0x219 JUMP JUMPDEST SWAP1 POP CALLDATALOAD SWAP1 PUSH2 0x232 DUP3 PUSH2 0x9EF JUMP JUMPDEST PUSH1 0xE0 DUP2 DUP4 SUB SLT PUSH2 0x220 JUMPI PUSH2 0xA19 DUP3 DUP3 PUSH2 0x26C JUMP JUMPDEST SWAP3 PUSH2 0xA27 DUP4 PUSH1 0x20 DUP5 ADD PUSH2 0x26C JUMP JUMPDEST SWAP3 PUSH2 0xA35 DUP2 PUSH1 0x40 DUP6 ADD PUSH2 0x225 JUMP JUMPDEST SWAP3 PUSH2 0xA43 DUP3 PUSH1 0x60 DUP4 ADD PUSH2 0x225 JUMP JUMPDEST SWAP3 PUSH2 0x24D PUSH2 0xA54 DUP5 PUSH1 0x80 DUP6 ADD PUSH2 0x9F8 JUMP JUMPDEST SWAP4 PUSH2 0xA62 DUP2 PUSH1 0xA0 DUP7 ADD PUSH2 0x225 JUMP JUMPDEST SWAP4 PUSH1 0xC0 ADD PUSH2 0x225 JUMP JUMPDEST CALLVALUE PUSH2 0x220 JUMPI PUSH2 0x319 PUSH2 0xA7E CALLDATASIZE PUSH1 0x4 PUSH2 0xA05 JUMP JUMPDEST SWAP6 SWAP5 SWAP1 SWAP5 SWAP4 SWAP2 SWAP4 PUSH2 0x2CAF JUMP JUMPDEST PUSH2 0x7AE PUSH2 0x24D SWAP3 PUSH2 0xA9F PUSH1 0xC SWAP4 PUSH1 0x0 SWAP5 PUSH2 0x792 JUMP JUMPDEST PUSH2 0x792 JUMP JUMPDEST CALLVALUE PUSH2 0x220 JUMPI PUSH2 0x31E PUSH2 0x539 PUSH2 0xABA CALLDATASIZE PUSH1 0x4 PUSH2 0x689 JUMP JUMPDEST SWAP1 PUSH2 0xA8A JUMP JUMPDEST CALLVALUE PUSH2 0x220 JUMPI PUSH2 0xAD0 CALLDATASIZE PUSH1 0x4 PUSH2 0x322 JUMP JUMPDEST PUSH2 0x319 PUSH2 0x2626 JUMP JUMPDEST PUSH2 0x24D PUSH1 0x1 PUSH2 0x972 JUMP JUMPDEST PUSH32 0x4E487B7100000000000000000000000000000000000000000000000000000000 PUSH1 0x0 MSTORE PUSH1 0x41 PUSH1 0x4 MSTORE PUSH1 0x24 PUSH1 0x0 REVERT JUMPDEST SWAP1 PUSH1 0x1F ADD PUSH32 0xFFFFFFFFFFFFFFFFFFFFFFFFFFFFFFFFFFFFFFFFFFFFFFFFFFFFFFFFFFFFFFE0 AND DUP2 ADD SWAP1 DUP2 LT PUSH8 0xFFFFFFFFFFFFFFFF DUP3 GT OR PUSH2 0xB51 JUMPI PUSH1 0x40 MSTORE JUMP JUMPDEST PUSH2 0xAE2 JUMP JUMPDEST SWAP1 PUSH2 0x232 PUSH2 0xB63 PUSH1 0x40 MLOAD SWAP1 JUMP JUMPDEST SWAP3 DUP4 PUSH2 0xB11 JUMP JUMPDEST PUSH2 0x24D PUSH1 0x20 PUSH2 0xB56 JUMP JUMPDEST PUSH2 0x232 SWAP2 PUSH1 0x1 SWAP2 PUSH2 0xB8D PUSH2 0xB86 PUSH2 0xB6A JUMP JUMPDEST SWAP4 ISZERO ISZERO DUP5 MSTORE JUMP JUMPDEST PUSH2 0xCDA JUMP JUMPDEST PUSH2 0x24D SWAP1 PUSH1 0x8 SHR PUSH2 0x234 JUMP JUMPDEST PUSH2 0x24D SWAP1 SLOAD PUSH2 0xB92 JUMP JUMPDEST PUSH2 0x234 PUSH2 0x24D PUSH2 0x24D SWAP3 SWAP1 JUMP JUMPDEST PUSH2 0x24D SWAP1 PUSH2 0xBA8 JUMP JUMPDEST ISZERO PUSH2 0xBC5 JUMPI JUMP JUMPDEST PUSH1 0x40 MLOAD PUSH32 0x8C379A000000000000000000000000000000000000000000000000000000000 DUP2 MSTORE PUSH1 0x20 PUSH1 0x4 DUP3 ADD MSTORE PUSH1 0x1C PUSH1 0x24 DUP3 ADD MSTORE PUSH32 0x444558506169723A20414C52454144595F494E495449414C495A454400000000 PUSH1 0x44 DUP3 ADD MSTORE PUSH1 0x64 SWAP1 REVERT JUMPDEST SUB SWAP1 REVERT JUMPDEST SWAP1 PUSH21 0xFFFFFFFFFFFFFFFFFFFFFFFFFFFFFFFFFFFFFFFF00 SWAP1 PUSH1 0x8 SHL JUMPDEST SWAP2 DUP2 NOT AND SWAP2 AND OR SWAP1 JUMP JUMPDEST SWAP1 PUSH2 0xC5E PUSH2 0x24D PUSH2 0xC65 SWAP3 PUSH2 0x789 JUMP JUMPDEST DUP3 SLOAD PUSH2 0xC28 JUMP JUMPDEST SWAP1 SSTORE JUMP JUMPDEST SWAP1 PUSH20 0xFFFFFFFFFFFFFFFFFFFFFFFFFFFFFFFFFFFFFFFF SWAP1 PUSH2 0xC44 JUMP JUMPDEST SWAP1 PUSH2 0xC95 PUSH2 0x24D PUSH2 0xC65 SWAP3 PUSH2 0x789 JUMP JUMPDEST DUP3 SLOAD PUSH2 0xC69 JUMP JUMPDEST SWAP1 PUSH1 0xFF SWAP1 PUSH2 0xC44 JUMP JUMPDEST SWAP1 PUSH2 0xCB5 PUSH2 0x24D PUSH2 0xC65 SWAP3 ISZERO ISZERO SWAP1 JUMP JUMPDEST DUP3 SLOAD PUSH2 0xC9C JUMP JUMPDEST PUSH2 0x232 SWAP2 PUSH2 0xCCA SWAP1 MLOAD ISZERO ISZERO SWAP1 JUMP JUMPDEST SWAP1 PUSH2 0xCA5 JUMP JUMPDEST SWAP1 PUSH2 0x232 SWAP2 PUSH2 0xCBC JUMP JUMPDEST SWAP1 PUSH2 0xD26 PUSH2 0xD2D SWAP3 PUSH2 0xD1F PUSH2 0xCEF PUSH1 0x1 PUSH2 0xB9E JUMP JUMPDEST PUSH2 0xD19 PUSH2 0xCFF PUSH2 0x234 PUSH1 0x0 PUSH2 0xBB5 JUMP JUMPDEST SWAP2 PUSH20 0xFFFFFFFFFFFFFFFFFFFFFFFFFFFFFFFFFFFFFFFF AND SWAP1 JUMP JUMPDEST EQ PUSH2 0xBBE JUMP JUMPDEST PUSH1 0x1 PUSH2 0xC4E JUMP JUMPDEST PUSH1 0x2 PUSH2 0xC85 JUMP JUMPDEST PUSH2 0xD38 DUP2 PUSH1 0x9 PUSH2 0xCD0 JUMP JUMPDEST PUSH2 0xD76 PUSH32 0xB1102BF8599BADF4360419344E57744751C4D685C0864E807454E60F8E6ADDBC SWAP2 PUSH2 0xD66 PUSH1 0x40 MLOAD SWAP1 JUMP JUMPDEST SWAP2 DUP3 SWAP2 DUP3 SWAP1 MLOAD ISZERO ISZERO DUP2 MSTORE PUSH1 0x20 ADD SWAP1 JUMP JUMPDEST SUB SWAP1 LOG1 JUMP JUMPDEST PUSH2 0x24D SWAP1 PUSH2 0x234 JUMP JUMPDEST PUSH2 0x24D SWAP1 SLOAD PUSH2 0xD7B JUMP JUMPDEST ISZERO PUSH2 0xD95 JUMPI JUMP JUMPDEST PUSH1 0x40 MLOAD PUSH32 0x8C379A000000000000000000000000000000000000000000000000000000000 DUP2 MSTORE PUSH1 0x20 PUSH1 0x4 DUP3 ADD MSTORE PUSH1 0x12 PUSH1 0x24 DUP3 ADD MSTORE PUSH32 0x444558506169723A20464F5242494444454E0000000000000000000000000000 PUSH1 0x44 DUP3 ADD MSTORE PUSH1 0x64 SWAP1 REVERT JUMPDEST SWAP1 PUSH2 0x232 SWAP3 SWAP2 PUSH2 0xE14 CALLER PUSH2 0xE0E PUSH2 0xCFF PUSH2 0x234 PUSH1 0x4 PUSH2 0xD84 JUMP JUMPDEST EQ PUSH2 0xD8E JUMP JUMPDEST PUSH2 0xE62 JUMP JUMPDEST DUP1 ISZERO ISZERO PUSH2 0x219 JUMP JUMPDEST SWAP1 POP CALLDATALOAD SWAP1 PUSH2 0x232 DUP3 PUSH2 0xE19 JUMP JUMPDEST SWAP2 SWAP1 SWAP2 PUSH1 0x20 DUP2 DUP5 SUB SLT PUSH2 0x220 JUMPI PUSH2 0xE51 PUSH2 0xE48 PUSH1 0x20 PUSH2 0xB56 JUMP JUMPDEST SWAP4 PUSH1 0x0 SWAP3 PUSH2 0xE21 JUMP JUMPDEST SWAP1 DUP4 ADD MSTORE JUMP JUMPDEST PUSH2 0x24D SWAP1 CALLDATASIZE SWAP1 PUSH2 0xE2E JUMP JUMPDEST SWAP1 PUSH2 0xE6F PUSH2 0x232 SWAP4 PUSH2 0xE57 JUMP JUMPDEST SWAP2 PUSH2 0xCDA JUMP JUMPDEST SWAP1 PUSH2 0x232 SWAP3 SWAP2 PUSH2 0xDF4 JUMP JUMPDEST PUSH2 0xE88 PUSH2 0xEE2 JUMP JUMPDEST SWAP2 SWAP3 SWAP1 SWAP2 SWAP1 JUMP JUMPDEST PUSH2 0x24D SWAP1 JUMPDEST PUSH14 0xFFFFFFFFFFFFFFFFFFFFFFFFFFFF AND SWAP1 JUMP JUMPDEST PUSH2 0x24D SWAP1 SLOAD PUSH2 0xE8F JUMP JUMPDEST PUSH2 0x24D SWAP1 PUSH1 0x70 SHR PUSH2 0xE94 JUMP JUMPDEST PUSH2 0x24D SWAP1 SLOAD PUSH2 0xEB1 JUMP JUMPDEST PUSH2 0x24D SWAP1 PUSH1 0xE0 SHR JUMPDEST PUSH4 0xFFFFFFFF AND SWAP1 JUMP JUMPDEST PUSH2 0x24D SWAP1 SLOAD PUSH2 0xEC7 JUMP JUMPDEST PUSH2 0xEEC PUSH1 0x3 PUSH2 0xEA7 JUMP JUMPDEST SWAP1 PUSH2 0xEF7 PUSH1 0x3 PUSH2 0xEBD JUMP JUMPDEST SWAP1 PUSH2 0x24D PUSH1 0x3 PUSH2 0xED8 JUMP JUMPDEST SWAP1 PUSH2 0xF14 SWAP2 PUSH2 0xF0F PUSH2 0x1591 JUMP JUMPDEST PUSH2 0xF1D JUMP JUMPDEST SWAP1 PUSH2 0x232 PUSH2 0x15EA JUMP JUMPDEST SWAP1 PUSH2 0x24D SWAP2 PUSH2 0xF2A PUSH2 0x150F JUMP JUMPDEST SWAP1 PUSH2 0x24D SWAP2 PUSH2 0x1220 JUMP JUMPDEST SWAP1 POP MLOAD SWAP1 PUSH2 0x232 DUP3 PUSH2 0x217 JUMP JUMPDEST SWAP1 PUSH1 0x20 DUP3 DUP3 SUB SLT PUSH2 0x220 JUMPI PUSH2 0x24D SWAP2 PUSH2 0xF34 JUMP JUMPDEST PUSH1 0x40 MLOAD RETURNDATASIZE PUSH1 0x0 DUP3 RETURNDATACOPY RETURNDATASIZE SWAP1 REVERT JUMPDEST PUSH2 0x24D PUSH2 0x24D PUSH2 0x24D SWAP3 PUSH14 0xFFFFFFFFFFFFFFFFFFFFFFFFFFFF AND SWAP1 JUMP JUMPDEST PUSH32 0x4E487B7100000000000000000000000000000000000000000000000000000000 PUSH1 0x0 MSTORE PUSH1 0x11 PUSH1 0x4 MSTORE PUSH1 0x24 PUSH1 0x0 REVERT JUMPDEST SWAP2 SWAP1 DUP3 SUB SWAP2 DUP3 GT PUSH2 0xFBA JUMPI JUMP JUMPDEST PUSH2 0xF7E JUMP JUMPDEST ISZERO PUSH2 0xFC6 JUMPI JUMP JUMPDEST PUSH1 0x40 MLOAD PUSH32 0x8C379A000000000000000000000000000000000000000000000000000000000 DUP2 MSTORE PUSH1 0x20 PUSH1 0x4 DUP3 ADD MSTORE PUSH1 0x22 PUSH1 0x24 DUP3 ADD MSTORE PUSH32 0x444558506169723A20494E53554646494349454E545F494E5055545F414D4F55 PUSH1 0x44 DUP3 ADD MSTORE PUSH32 0x4E54000000000000000000000000000000000000000000000000000000000000 PUSH1 0x64 DUP3 ADD MSTORE PUSH1 0x84 SWAP1 REVERT JUMPDEST PUSH2 0x24D SWAP1 DUP2 JUMP JUMPDEST PUSH2 0x24D SWAP1 SLOAD PUSH2 0x104B JUMP JUMPDEST PUSH2 0xE94 PUSH2 0x24D PUSH2 0x24D SWAP3 SWAP1 JUMP JUMPDEST ISZERO PUSH2 0x1070 JUMPI JUMP JUMPDEST PUSH1 0x40 MLOAD PUSH32 0x8C379A000000000000000000000000000000000000000000000000000000000 DUP2 MSTORE PUSH1 0x20 PUSH1 0x4 DUP3 ADD MSTORE PUSH1 0x1E PUSH1 0x24 DUP3 ADD MSTORE PUSH32 0x444558506169723A20494E53554646494349454E545F52455345525645530000 PUSH1 0x44 DUP3 ADD MSTORE PUSH1 0x64 SWAP1 REVERT JUMPDEST SWAP2 SWAP1 SWAP2 DUP1 DUP4 MUL JUMPDEST SWAP3 DUP2 DUP5 DIV EQ SWAP1 ISZERO OR ISZERO PUSH2 0xFBA JUMPI JUMP JUMPDEST PUSH32 0x4E487B7100000000000000000000000000000000000000000000000000000000 PUSH1 0x0 MSTORE PUSH1 0x12 PUSH1 0x4 MSTORE PUSH1 0x24 PUSH1 0x0 REVERT JUMPDEST SWAP1 PUSH2 0x111E JUMP JUMPDEST SWAP2 SWAP1 JUMP JUMPDEST SWAP1 DUP2 ISZERO PUSH2 0x1129 JUMPI DIV SWAP1 JUMP JUMPDEST PUSH2 0x10E5 JUMP JUMPDEST ISZERO PUSH2 0x1135 JUMPI JUMP JUMPDEST PUSH1 0x40 MLOAD PUSH32 0x8C379A000000000000000000000000000000000000000000000000000000000 DUP2 MSTORE PUSH1 0x20 PUSH1 0x4 DUP3 ADD MSTORE PUSH1 0x26 PUSH1 0x24 DUP3 ADD MSTORE PUSH32 0x444558506169723A20494E53554646494349454E545F4C49515549444954595F PUSH1 0x44 DUP3 ADD MSTORE PUSH32 0x4D494E5445440000000000000000000000000000000000000000000000000000 PUSH1 0x64 DUP3 ADD MSTORE PUSH1 0x84 SWAP1 REVERT JUMPDEST ISZERO PUSH2 0x11C1 JUMPI JUMP JUMPDEST PUSH1 0x40 MLOAD PUSH32 0x8C379A000000000000000000000000000000000000000000000000000000000 DUP2 MSTORE PUSH1 0x20 PUSH1 0x4 DUP3 ADD MSTORE PUSH1 0x1C PUSH1 0x24 DUP3 ADD MSTORE PUSH32 0x444558506169723A204C49515549444954595F544F4F5F4C4152474500000000 PUSH1 0x44 DUP3 ADD MSTORE PUSH1 0x64 SWAP1 REVERT JUMPDEST POP SWAP1 PUSH2 0x122A PUSH2 0xEE2 JUMP JUMPDEST POP SWAP1 PUSH2 0x1241 PUSH2 0x123C PUSH2 0x123C PUSH1 0x1 PUSH2 0xB9E JUMP JUMPDEST PUSH2 0x789 JUMP JUMPDEST PUSH4 0x70A08231 PUSH2 0x124F ADDRESS PUSH2 0x789 JUMP JUMPDEST PUSH1 0x20 PUSH2 0x125A PUSH1 0x40 MLOAD SWAP1 JUMP JUMPDEST DUP1 SWAP5 PUSH2 0x1266 DUP6 PUSH1 0xE0 SHL SWAP1 JUMP JUMPDEST DUP3 MSTORE PUSH20 0xFFFFFFFFFFFFFFFFFFFFFFFFFFFFFFFFFFFFFFFF DUP5 AND PUSH1 0x4 DUP4 ADD MSTORE PUSH1 0x24 SWAP1 DUP3 SWAP1 GAS STATICCALL SWAP1 DUP2 ISZERO PUSH2 0x14DF JUMPI PUSH2 0x12F1 SWAP4 PUSH1 0x0 SWAP3 PUSH2 0x14E4 JUMPI JUMPDEST POP PUSH1 0x20 SWAP2 SWAP3 PUSH2 0x12CD PUSH2 0x12B6 PUSH2 0x123C PUSH2 0x123C PUSH1 0x2 PUSH2 0xD84 JUMP JUMPDEST SWAP2 PUSH2 0x12C0 PUSH1 0x40 MLOAD SWAP1 JUMP JUMPDEST SWAP7 DUP8 SWAP5 DUP6 SWAP4 DUP5 SWAP4 PUSH1 0xE0 SHL SWAP1 JUMP JUMPDEST DUP4 MSTORE PUSH20 0xFFFFFFFFFFFFFFFFFFFFFFFFFFFFFFFFFFFFFFFF AND PUSH1 0x4 DUP4 ADD MSTORE PUSH1 0x24 DUP3 ADD SWAP1 JUMP JUMPDEST SUB SWAP2 GAS STATICCALL SWAP2 DUP3 ISZERO PUSH2 0x14DF JUMPI PUSH1 0x0 SWAP3 PUSH2 0x14AF JUMPI JUMPDEST POP PUSH2 0x1317 PUSH2 0x1311 DUP5 PUSH2 0xF61 JUMP JUMPDEST DUP3 PUSH2 0xFAD JUMP JUMPDEST PUSH2 0x1329 PUSH2 0x1323 DUP7 PUSH2 0xF61 JUMP JUMPDEST DUP5 PUSH2 0xFAD JUMP JUMPDEST SWAP1 PUSH2 0x1334 PUSH1 0x0 PUSH2 0x916 JUMP JUMPDEST DUP2 GT DUP1 PUSH2 0x1498 JUMPI JUMPDEST PUSH2 0x1345 SWAP1 PUSH2 0xFBF JUMP JUMPDEST PUSH2 0x134F PUSH1 0x8 PUSH2 0x1052 JUMP JUMPDEST PUSH2 0x1359 PUSH1 0x0 PUSH2 0x916 JUMP JUMPDEST DUP2 SUB PUSH2 0x1400 JUMPI POP PUSH2 0x13A5 SWAP8 PUSH2 0x1380 PUSH2 0x137B PUSH2 0x232 SWAP9 SWAP8 SWAP7 SWAP6 SWAP5 PUSH2 0x13FB SWAP5 PUSH2 0x10CF JUMP JUMPDEST PUSH2 0x26F5 JUMP JUMPDEST SWAP1 PUSH2 0x1393 PUSH2 0x138C PUSH2 0x923 JUMP JUMPDEST DUP1 SWAP4 PUSH2 0xFAD JUMP JUMPDEST SWAP10 DUP11 SWAP3 PUSH2 0x13A0 PUSH1 0x0 PUSH2 0xBB5 JUMP JUMPDEST PUSH2 0x262E JUMP JUMPDEST PUSH2 0x13B9 PUSH2 0x13B2 PUSH1 0x0 PUSH2 0x916 JUMP JUMPDEST DUP4 GT PUSH2 0x112E JUMP JUMPDEST PUSH2 0x13A0 PUSH2 0x13F3 PUSH2 0x24D PUSH32 0xFFFFFFFFFFFFFFFFFFFFFFFFFFFFFFFFFFFFFFFFFFFFFFFFFFFFFFFFFFFFFFFF PUSH2 0x13ED PUSH1 0x8 PUSH2 0x1052 JUMP JUMPDEST SWAP1 PUSH2 0xFAD JUMP JUMPDEST DUP4 GT ISZERO PUSH2 0x11BA JUMP JUMPDEST PUSH2 0x17E6 JUMP JUMPDEST DUP6 SWAP5 SWAP4 SWAP3 PUSH2 0x1475 PUSH2 0x146C DUP4 PUSH2 0x1466 PUSH2 0x1457 PUSH2 0x147B SWAP7 PUSH2 0x13FB SWAP9 PUSH2 0x1452 PUSH2 0x232 SWAP16 SWAP15 DUP16 SWAP1 PUSH2 0x1444 PUSH2 0x1430 PUSH1 0x0 PUSH2 0x105C JUMP JUMPDEST SWAP2 PUSH14 0xFFFFFFFFFFFFFFFFFFFFFFFFFFFF AND SWAP1 JUMP JUMPDEST GT SWAP1 DUP2 PUSH2 0x1482 JUMPI JUMPDEST POP PUSH2 0x1069 JUMP JUMPDEST PUSH2 0x10CF JUMP JUMPDEST PUSH2 0x1460 DUP12 PUSH2 0xF61 JUMP JUMPDEST SWAP1 PUSH2 0x1114 JUMP JUMPDEST SWAP4 PUSH2 0x10CF JUMP JUMPDEST PUSH2 0x1460 DUP10 PUSH2 0xF61 JUMP JUMPDEST SWAP1 PUSH2 0x26E3 JUMP JUMPDEST DUP1 SWAP9 PUSH2 0x13A5 JUMP JUMPDEST SWAP1 POP PUSH2 0x1491 PUSH2 0x1430 PUSH1 0x0 PUSH2 0x105C JUMP JUMPDEST GT DUP16 PUSH2 0x144C JUMP JUMPDEST POP PUSH2 0x1345 PUSH2 0x14A6 PUSH1 0x0 PUSH2 0x916 JUMP JUMPDEST DUP4 GT SWAP1 POP PUSH2 0x133C JUMP JUMPDEST PUSH2 0x14D1 SWAP2 SWAP3 POP PUSH1 0x20 RETURNDATASIZE DUP2 GT PUSH2 0x14D8 JUMPI JUMPDEST PUSH2 0x14C9 DUP2 DUP4 PUSH2 0xB11 JUMP JUMPDEST DUP2 ADD SWAP1 PUSH2 0xF41 JUMP JUMPDEST SWAP1 CODESIZE PUSH2 0x1304 JUMP JUMPDEST POP RETURNDATASIZE PUSH2 0x14BF JUMP JUMPDEST PUSH2 0xF55 JUMP JUMPDEST PUSH1 0x20 SWAP3 POP PUSH2 0x14FE SWAP1 DUP4 RETURNDATASIZE DUP2 GT PUSH2 0x14D8 JUMPI PUSH2 0x14C9 DUP2 DUP4 PUSH2 0xB11 JUMP JUMPDEST SWAP2 PUSH2 0x129E JUMP JUMPDEST PUSH2 0x24D SWAP1 PUSH1 0x0 PUSH2 0xF02 JUMP JUMPDEST PUSH2 0x1517 PUSH2 0xAD8 JUMP JUMPDEST PUSH2 0x151D JUMPI JUMP JUMPDEST PUSH1 0x40 MLOAD PUSH32 0xD93C066500000000000000000000000000000000000000000000000000000000 DUP2 MSTORE PUSH1 0x4 SWAP1 REVERT JUMPDEST PUSH2 0x24D PUSH1 0x2 PUSH2 0x916 JUMP JUMPDEST SWAP1 PUSH32 0xFFFFFFFFFFFFFFFFFFFFFFFFFFFFFFFFFFFFFFFFFFFFFFFFFFFFFFFFFFFFFFFF SWAP1 PUSH2 0xC44 JUMP JUMPDEST SWAP1 PUSH2 0x158A PUSH2 0x24D PUSH2 0xC65 SWAP3 PUSH2 0x916 JUMP JUMPDEST DUP3 SLOAD PUSH2 0x1552 JUMP JUMPDEST PUSH2 0x159B PUSH1 0x0 PUSH2 0x1052 JUMP JUMPDEST PUSH2 0x15A3 PUSH2 0x1548 JUMP JUMPDEST SWAP1 DUP2 EQ PUSH2 0x15B5 JUMPI PUSH2 0x232 SWAP1 PUSH1 0x0 PUSH2 0x157A JUMP JUMPDEST PUSH1 0x40 MLOAD PUSH32 0x3EE5AEB500000000000000000000000000000000000000000000000000000000 DUP2 MSTORE PUSH1 0x4 SWAP1 REVERT JUMPDEST PUSH2 0x24D PUSH1 0x1 PUSH2 0x916 JUMP JUMPDEST PUSH2 0x232 PUSH2 0x15F5 PUSH2 0x15E0 JUMP JUMPDEST PUSH1 0x0 PUSH2 0x157A JUMP JUMPDEST ISZERO PUSH2 0x1603 JUMPI JUMP JUMPDEST PUSH1 0x40 MLOAD PUSH32 0x8C379A000000000000000000000000000000000000000000000000000000000 DUP2 MSTORE PUSH1 0x20 PUSH1 0x4 DUP3 ADD MSTORE PUSH1 0x11 PUSH1 0x24 DUP3 ADD MSTORE PUSH32 0x444558506169723A204F564552464C4F57000000000000000000000000000000 PUSH1 0x44 DUP3 ADD MSTORE PUSH1 0x64 SWAP1 REVERT JUMPDEST DUP2 ISZERO PUSH2 0x1129 JUMPI MOD SWAP1 JUMP JUMPDEST PUSH2 0xECF PUSH2 0x24D PUSH2 0x24D SWAP3 SWAP1 JUMP JUMPDEST PUSH4 0xFFFFFFFF SWAP1 DUP2 AND SWAP2 AND SWAP1 SUB SWAP1 PUSH4 0xFFFFFFFF DUP3 GT PUSH2 0xFBA JUMPI JUMP JUMPDEST PUSH2 0x24D PUSH2 0x24D PUSH2 0x24D SWAP3 PUSH28 0xFFFFFFFFFFFFFFFFFFFFFFFFFFFFFFFFFFFFFFFFFFFFFFFFFFFFFFFF AND SWAP1 JUMP JUMPDEST PUSH2 0x24D PUSH2 0x24D PUSH2 0x24D SWAP3 PUSH4 0xFFFFFFFF AND SWAP1 JUMP JUMPDEST SWAP2 SWAP1 DUP3 ADD DUP1 SWAP3 GT PUSH2 0xFBA JUMPI JUMP JUMPDEST SWAP1 PUSH14 0xFFFFFFFFFFFFFFFFFFFFFFFFFFFF SWAP1 PUSH2 0xC44 JUMP JUMPDEST PUSH2 0xE94 PUSH2 0x24D PUSH2 0x24D SWAP3 PUSH14 0xFFFFFFFFFFFFFFFFFFFFFFFFFFFF AND SWAP1 JUMP JUMPDEST SWAP1 PUSH2 0x1721 PUSH2 0x24D PUSH2 0xC65 SWAP3 PUSH2 0x16F4 JUMP JUMPDEST DUP3 SLOAD PUSH2 0x16DE JUMP JUMPDEST SWAP1 PUSH28 0xFFFFFFFFFFFFFFFFFFFFFFFFFFFF0000000000000000000000000000 SWAP1 PUSH1 0x70 SHL PUSH2 0xC44 JUMP JUMPDEST SWAP1 PUSH2 0x175F PUSH2 0x24D PUSH2 0xC65 SWAP3 PUSH2 0x16F4 JUMP JUMPDEST DUP3 SLOAD PUSH2 0x1728 JUMP JUMPDEST SWAP1 PUSH32 0xFFFFFFFF00000000000000000000000000000000000000000000000000000000 SWAP1 PUSH1 0xE0 SHL PUSH2 0xC44 JUMP JUMPDEST PUSH2 0xECF PUSH2 0x24D PUSH2 0x24D SWAP3 PUSH4 0xFFFFFFFF AND SWAP1 JUMP JUMPDEST SWAP1 PUSH2 0x17B4 PUSH2 0x24D PUSH2 0xC65 SWAP3 PUSH2 0x1791 JUMP JUMPDEST DUP3 SLOAD PUSH2 0x1766 JUMP JUMPDEST PUSH2 0x3DE SWAP1 PUSH2 0xF61 JUMP JUMPDEST SWAP2 PUSH1 0x20 PUSH2 0x232 SWAP3 SWAP5 SWAP4 PUSH2 0x17DF PUSH1 0x40 DUP3 ADD SWAP7 PUSH1 0x0 DUP4 ADD SWAP1 PUSH2 0x17BB JUMP JUMPDEST ADD SWAP1 PUSH2 0x17BB JUMP JUMPDEST PUSH2 0x1899 SWAP2 PUSH2 0x188D PUSH2 0x1886 PUSH2 0x1892 SWAP4 PUSH2 0x18A0 SWAP8 PUSH2 0x1823 PUSH14 0xFFFFFFFFFFFFFFFFFFFFFFFFFFFF PUSH2 0x1813 DUP2 PUSH2 0xF61 JUMP JUMPDEST DUP5 GT ISZERO SWAP1 DUP2 PUSH2 0x19B6 JUMPI JUMPDEST POP PUSH2 0x15FC JUMP JUMPDEST PUSH2 0x1843 PUSH2 0x183E TIMESTAMP PUSH2 0x1838 PUSH5 0x100000000 PUSH2 0x916 JUMP JUMPDEST SWAP1 PUSH2 0x1662 JUMP JUMPDEST PUSH2 0x166C JUMP JUMPDEST SWAP8 PUSH2 0x1857 PUSH2 0x1851 PUSH1 0x3 PUSH2 0xED8 JUMP JUMPDEST DUP11 PUSH2 0x1679 JUMP JUMPDEST SWAP2 PUSH1 0x0 PUSH2 0x1863 DUP2 PUSH2 0x166C JUMP JUMPDEST PUSH4 0xFFFFFFFF DUP6 AND GT SWAP1 DUP2 PUSH2 0x1992 JUMPI JUMPDEST DUP2 PUSH2 0x196F JUMPI JUMPDEST POP PUSH2 0x18EB JUMPI JUMPDEST POP POP POP PUSH2 0x105C JUMP JUMPDEST PUSH1 0x3 PUSH2 0x1711 JUMP JUMPDEST PUSH2 0x105C JUMP JUMPDEST PUSH1 0x3 PUSH2 0x174F JUMP JUMPDEST PUSH1 0x3 PUSH2 0x17A4 JUMP JUMPDEST PUSH2 0x18AA PUSH1 0x3 PUSH2 0xEA7 JUMP JUMPDEST PUSH2 0x18B4 PUSH1 0x3 PUSH2 0xEBD JUMP JUMPDEST PUSH32 0xCF2AA50876CDFBB541206F89AF0EE78D44A2ABF8D328E37FA4917F982149848A SWAP2 PUSH2 0xD76 PUSH2 0x18E2 PUSH1 0x40 MLOAD SWAP1 JUMP JUMPDEST SWAP3 DUP4 SWAP3 DUP4 PUSH2 0x17C4 JUMP JUMPDEST PUSH2 0x1967 SWAP3 PUSH2 0x192F PUSH2 0x1950 PUSH2 0x1921 DUP5 PUSH2 0x191C DUP8 PUSH2 0x194B PUSH2 0x1944 PUSH2 0x1935 PUSH2 0x1926 PUSH2 0x1921 PUSH2 0x1960 SWAP14 PUSH2 0x191C PUSH2 0x1956 SWAP15 PUSH2 0x2FF7 JUMP JUMPDEST PUSH2 0x3041 JUMP JUMPDEST PUSH2 0x1693 JUMP JUMPDEST PUSH2 0x192F DUP12 PUSH2 0x16BE JUMP JUMPDEST SWAP1 PUSH2 0x10CF JUMP JUMPDEST PUSH2 0x193F PUSH1 0x5 PUSH2 0x1052 JUMP JUMPDEST PUSH2 0x16D1 JUMP JUMPDEST PUSH1 0x5 PUSH2 0x157A JUMP JUMPDEST PUSH2 0x2FF7 JUMP JUMPDEST SWAP2 PUSH2 0x16BE JUMP JUMPDEST PUSH2 0x193F PUSH1 0x6 PUSH2 0x1052 JUMP JUMPDEST PUSH1 0x6 PUSH2 0x157A JUMP JUMPDEST CODESIZE DUP1 DUP1 PUSH2 0x187E JUMP JUMPDEST PUSH2 0x1979 SWAP2 POP PUSH2 0x105C JUMP JUMPDEST PUSH14 0xFFFFFFFFFFFFFFFFFFFFFFFFFFFF DUP3 AND EQ ISZERO CODESIZE PUSH2 0x1878 JUMP JUMPDEST SWAP1 POP PUSH2 0x199D DUP2 PUSH2 0x105C JUMP JUMPDEST PUSH14 0xFFFFFFFFFFFFFFFFFFFFFFFFFFFF DUP5 AND EQ ISZERO SWAP1 PUSH2 0x1872 JUMP JUMPDEST PUSH2 0x19C0 SWAP2 POP PUSH2 0xF61 JUMP JUMPDEST DUP7 GT ISZERO CODESIZE PUSH2 0x181D JUMP JUMPDEST SWAP1 PUSH2 0x19DC SWAP3 SWAP2 PUSH2 0x19D7 PUSH2 0x1591 JUMP JUMPDEST PUSH2 0x19E6 JUMP JUMPDEST SWAP1 SWAP2 PUSH2 0x232 PUSH2 0x15EA JUMP JUMPDEST SWAP1 PUSH2 0x2F9 SWAP3 SWAP2 PUSH2 0x19F4 PUSH2 0x150F JUMP JUMPDEST SWAP1 PUSH2 0x2F9 SWAP3 SWAP2 PUSH2 0x1A8B JUMP JUMPDEST ISZERO PUSH2 0x1A06 JUMPI JUMP JUMPDEST PUSH1 0x40 MLOAD PUSH32 0x8C379A000000000000000000000000000000000000000000000000000000000 DUP2 MSTORE PUSH1 0x20 PUSH1 0x4 DUP3 ADD MSTORE PUSH1 0x26 PUSH1 0x24 DUP3 ADD MSTORE PUSH32 0x444558506169723A20494E53554646494349454E545F4C49515549444954595F PUSH1 0x44 DUP3 ADD MSTORE PUSH32 0x4255524E45440000000000000000000000000000000000000000000000000000 PUSH1 0x64 DUP3 ADD MSTORE PUSH1 0x84 SWAP1 REVERT JUMPDEST SWAP3 SWAP2 SWAP3 POP POP PUSH2 0x1A98 PUSH2 0xEE2 JUMP JUMPDEST POP SWAP2 SWAP1 PUSH2 0x1AA5 PUSH1 0x1 PUSH2 0xB9E JUMP JUMPDEST SWAP3 PUSH2 0x1AB9 PUSH2 0x1AB3 PUSH1 0x2 PUSH2 0xD84 JUMP JUMPDEST SWAP5 PUSH2 0x789 JUMP JUMPDEST SWAP2 PUSH2 0x1AC3 DUP4 PUSH2 0x789 JUMP JUMPDEST SWAP3 PUSH4 0x70A08231 SWAP1 PUSH2 0x1AD3 ADDRESS PUSH2 0x789 JUMP JUMPDEST PUSH1 0x40 MLOAD SWAP8 PUSH2 0x1AE1 DUP5 PUSH1 0xE0 SHL SWAP1 JUMP JUMPDEST DUP10 MSTORE PUSH20 0xFFFFFFFFFFFFFFFFFFFFFFFFFFFFFFFFFFFFFFFF DUP3 AND PUSH1 0x4 DUP11 ADD MSTORE PUSH1 0x20 DUP10 PUSH1 0x24 DUP2 DUP11 GAS STATICCALL SWAP9 DUP10 ISZERO PUSH2 0x14DF JUMPI PUSH1 0x0 SWAP10 PUSH2 0x1CFC JUMPI JUMPDEST POP PUSH2 0x1B21 SWAP1 PUSH2 0x789 JUMP JUMPDEST PUSH2 0x1B2A DUP2 PUSH2 0x789 JUMP JUMPDEST SWAP3 PUSH2 0x1B34 PUSH1 0x40 MLOAD SWAP1 JUMP JUMPDEST SWAP11 PUSH2 0x1B3F DUP7 PUSH1 0xE0 SHL SWAP1 JUMP JUMPDEST DUP13 MSTORE PUSH20 0xFFFFFFFFFFFFFFFFFFFFFFFFFFFFFFFFFFFFFFFF DUP5 AND PUSH1 0x4 DUP14 ADD MSTORE PUSH1 0x20 DUP13 PUSH1 0x24 DUP2 DUP9 GAS STATICCALL SWAP12 DUP13 ISZERO PUSH2 0x14DF JUMPI PUSH1 0x0 SWAP13 PUSH2 0x1CDC JUMPI JUMPDEST POP PUSH2 0x1B81 DUP5 PUSH1 0x7 PUSH2 0x792 JUMP JUMPDEST PUSH2 0x1B8A SWAP1 PUSH2 0x1052 JUMP JUMPDEST SWAP3 PUSH2 0x1B95 PUSH1 0x8 PUSH2 0x1052 JUMP JUMPDEST PUSH2 0x1BA0 DUP2 SWAP14 DUP7 PUSH2 0x10CF JUMP JUMPDEST SWAP1 PUSH2 0x1BAA SWAP2 PUSH2 0x1114 JUMP JUMPDEST SWAP12 DUP13 SWAP14 PUSH2 0x1BB7 SWAP1 DUP7 PUSH2 0x10CF JUMP JUMPDEST SWAP1 PUSH2 0x1BC1 SWAP2 PUSH2 0x1114 JUMP JUMPDEST SWAP3 DUP4 SWAP13 DUP4 PUSH1 0x0 SWAP3 PUSH2 0x1BD1 DUP5 PUSH2 0x916 JUMP JUMPDEST DUP4 GT DUP1 SWAP9 PUSH2 0x1BEF PUSH2 0x1BFA SWAP11 PUSH2 0x1BF5 SWAP8 PUSH2 0x1BF5 SWAP5 PUSH2 0x1CCA JUMPI JUMPDEST POP PUSH2 0x19FF JUMP JUMPDEST DUP11 PUSH2 0x26B7 JUMP JUMPDEST PUSH2 0x1D94 JUMP JUMPDEST PUSH1 0x20 PUSH2 0x1C05 PUSH1 0x40 MLOAD SWAP1 JUMP JUMPDEST DUP1 SWAP8 PUSH2 0x1C11 DUP7 PUSH1 0xE0 SHL SWAP1 JUMP JUMPDEST DUP3 MSTORE PUSH20 0xFFFFFFFFFFFFFFFFFFFFFFFFFFFFFFFFFFFFFFFF DUP5 AND PUSH1 0x4 DUP4 ADD MSTORE PUSH1 0x24 SWAP1 DUP3 SWAP1 GAS STATICCALL SWAP2 DUP3 ISZERO PUSH2 0x14DF JUMPI PUSH2 0x1C69 SWAP7 PUSH1 0x0 SWAP4 PUSH2 0x1CA6 JUMPI JUMPDEST POP PUSH2 0x12CD DUP4 SWAP5 PUSH1 0x20 SWAP5 POP PUSH2 0x1C5C PUSH1 0x40 MLOAD SWAP1 JUMP JUMPDEST SWAP9 DUP10 SWAP5 DUP6 SWAP4 DUP5 SWAP4 PUSH1 0xE0 SHL SWAP1 JUMP JUMPDEST SUB SWAP2 GAS STATICCALL SWAP1 DUP2 ISZERO PUSH2 0x14DF JUMPI PUSH2 0x232 SWAP5 PUSH1 0x0 SWAP3 PUSH2 0x1C86 JUMPI JUMPDEST POP PUSH2 0x17E6 JUMP JUMPDEST PUSH2 0x1C9F SWAP2 SWAP3 POP PUSH1 0x20 RETURNDATASIZE DUP2 GT PUSH2 0x14D8 JUMPI PUSH2 0x14C9 DUP2 DUP4 PUSH2 0xB11 JUMP JUMPDEST SWAP1 CODESIZE PUSH2 0x1C80 JUMP JUMPDEST PUSH1 0x20 SWAP4 POP PUSH2 0x1CC3 PUSH2 0x12CD SWAP2 DUP6 RETURNDATASIZE DUP2 GT PUSH2 0x14D8 JUMPI PUSH2 0x14C9 DUP2 DUP4 PUSH2 0xB11 JUMP JUMPDEST SWAP4 POP PUSH2 0x1C49 JUMP JUMPDEST PUSH2 0x1CD4 SWAP2 POP PUSH2 0x916 JUMP JUMPDEST DUP11 GT CODESIZE PUSH2 0x1BE9 JUMP JUMPDEST PUSH2 0x1CF5 SWAP2 SWAP13 POP PUSH1 0x20 RETURNDATASIZE DUP2 GT PUSH2 0x14D8 JUMPI PUSH2 0x14C9 DUP2 DUP4 PUSH2 0xB11 JUMP JUMPDEST SWAP11 CODESIZE PUSH2 0x1B75 JUMP JUMPDEST PUSH2 0x1B21 SWAP2 SWAP10 POP PUSH2 0x1D19 SWAP1 PUSH1 0x20 RETURNDATASIZE DUP2 GT PUSH2 0x14D8 JUMPI PUSH2 0x14C9 DUP2 DUP4 PUSH2 0xB11 JUMP JUMPDEST SWAP9 SWAP1 PUSH2 0x1B17 JUMP JUMPDEST PUSH2 0x2F9 SWAP1 PUSH1 0x0 DUP1 PUSH2 0x19C9 JUMP JUMPDEST PUSH2 0x1D45 PUSH2 0x1D3F PUSH2 0x24D SWAP3 PUSH4 0xFFFFFFFF AND SWAP1 JUMP JUMPDEST PUSH1 0xE0 SHL SWAP1 JUMP JUMPDEST PUSH32 0xFFFFFFFF00000000000000000000000000000000000000000000000000000000 AND SWAP1 JUMP JUMPDEST PUSH20 0xFFFFFFFFFFFFFFFFFFFFFFFFFFFFFFFFFFFFFFFF SWAP1 SWAP2 AND DUP2 MSTORE PUSH1 0x40 DUP2 ADD SWAP3 SWAP2 PUSH2 0x232 SWAP2 PUSH1 0x20 ADD MSTORE JUMP JUMPDEST PUSH2 0x1DD7 PUSH1 0x4 SWAP3 PUSH2 0x1DC8 PUSH2 0x232 SWAP6 PUSH2 0x1DAE PUSH4 0xA9059CBB PUSH2 0x1D2C JUMP JUMPDEST SWAP3 PUSH2 0x1DB8 PUSH1 0x40 MLOAD SWAP1 JUMP JUMPDEST SWAP7 DUP8 SWAP5 PUSH1 0x20 DUP7 ADD SWAP1 DUP2 MSTORE ADD PUSH2 0x1D6A JUMP JUMPDEST PUSH1 0x20 DUP3 ADD DUP2 SUB DUP3 MSTORE SUB DUP4 PUSH2 0xB11 JUMP JUMPDEST SWAP1 PUSH1 0x0 PUSH1 0x20 SWAP2 PUSH2 0x1DE5 PUSH1 0x0 SWAP1 JUMP JUMPDEST POP DUP3 DUP2 MLOAD SWAP2 ADD DUP3 DUP6 GAS CALL ISZERO PUSH2 0xF55 JUMPI PUSH1 0x0 DUP1 MLOAD RETURNDATASIZE PUSH2 0x1E05 PUSH2 0x111A DUP5 PUSH2 0x916 JUMP JUMPDEST SUB PUSH2 0x1E83 JUMPI POP PUSH2 0x1E21 PUSH2 0x111A PUSH2 0x1E1A DUP5 PUSH2 0x789 JUMP JUMPDEST EXTCODESIZE SWAP3 PUSH2 0x916 JUMP JUMPDEST EQ JUMPDEST PUSH2 0x1E2A JUMPI POP JUMP JUMPDEST PUSH2 0x1E36 PUSH2 0xC24 SWAP2 PUSH2 0x789 JUMP JUMPDEST PUSH1 0x40 MLOAD SWAP2 DUP3 SWAP2 PUSH32 0x5274AFE700000000000000000000000000000000000000000000000000000000 DUP4 MSTORE PUSH1 0x4 DUP4 ADD PUSH20 0xFFFFFFFFFFFFFFFFFFFFFFFFFFFFFFFFFFFFFFFF SWAP1 SWAP2 AND DUP2 MSTORE PUSH1 0x20 ADD SWAP1 JUMP JUMPDEST SWAP1 POP PUSH2 0x1E92 PUSH2 0x111A PUSH1 0x1 PUSH2 0x916 JUMP JUMPDEST EQ ISZERO PUSH2 0x1E23 JUMP JUMPDEST SWAP1 PUSH2 0x1EAE SWAP5 SWAP4 SWAP3 SWAP2 PUSH2 0x1EA9 PUSH2 0x1591 JUMP JUMPDEST PUSH2 0x1EB6 JUMP JUMPDEST PUSH2 0x232 PUSH2 0x15EA JUMP JUMPDEST SWAP1 PUSH2 0x232 SWAP5 SWAP4 SWAP3 SWAP2 PUSH2 0x1EC6 PUSH2 0x150F JUMP JUMPDEST SWAP1 PUSH2 0x232 SWAP5 SWAP4 SWAP3 SWAP2 PUSH2 0x210C JUMP JUMPDEST ISZERO PUSH2 0x1EDA JUMPI JUMP JUMPDEST PUSH1 0x40 MLOAD PUSH32 0x8C379A000000000000000000000000000000000000000000000000000000000 DUP2 MSTORE PUSH1 0x20 PUSH1 0x4 DUP3 ADD MSTORE PUSH1 0x23 PUSH1 0x24 DUP3 ADD MSTORE PUSH32 0x444558506169723A20494E53554646494349454E545F4F55545055545F414D4F PUSH1 0x44 DUP3 ADD MSTORE PUSH32 0x554E540000000000000000000000000000000000000000000000000000000000 PUSH1 0x64 DUP3 ADD MSTORE PUSH1 0x84 SWAP1 REVERT JUMPDEST ISZERO PUSH2 0x1F66 JUMPI JUMP JUMPDEST PUSH1 0x40 MLOAD PUSH32 0x8C379A000000000000000000000000000000000000000000000000000000000 DUP2 MSTORE PUSH1 0x20 PUSH1 0x4 DUP3 ADD MSTORE PUSH1 0x1F PUSH1 0x24 DUP3 ADD MSTORE PUSH32 0x444558506169723A20494E53554646494349454E545F4C495155494449545900 PUSH1 0x44 DUP3 ADD MSTORE PUSH1 0x64 SWAP1 REVERT JUMPDEST ISZERO PUSH2 0x1FCC JUMPI JUMP JUMPDEST PUSH1 0x40 MLOAD PUSH32 0x8C379A000000000000000000000000000000000000000000000000000000000 DUP2 MSTORE PUSH1 0x20 PUSH1 0x4 DUP3 ADD MSTORE PUSH1 0x13 PUSH1 0x24 DUP3 ADD MSTORE PUSH32 0x444558506169723A20494E56414C49445F544F00000000000000000000000000 PUSH1 0x44 DUP3 ADD MSTORE PUSH1 0x64 SWAP1 REVERT JUMPDEST SWAP1 DUP3 PUSH1 0x0 SWAP4 SWAP3 DUP3 CALLDATACOPY ADD MSTORE JUMP JUMPDEST SWAP2 SWAP1 PUSH2 0x37A DUP2 PUSH2 0x204E DUP2 PUSH2 0x3A2 SWAP6 PUSH1 0x20 SWAP2 DUP2 MSTORE ADD SWAP1 JUMP JUMPDEST DUP1 SWAP6 PUSH2 0x202B JUMP JUMPDEST SWAP1 SWAP4 SWAP2 PUSH2 0x24D SWAP6 SWAP4 PUSH2 0x2092 PUSH2 0x2099 SWAP3 PUSH2 0x208B PUSH1 0x80 DUP7 ADD SWAP9 PUSH1 0x0 DUP8 ADD SWAP1 PUSH20 0xFFFFFFFFFFFFFFFFFFFFFFFFFFFFFFFFFFFFFFFF AND SWAP1 MSTORE JUMP JUMPDEST PUSH1 0x20 DUP6 ADD MSTORE JUMP JUMPDEST PUSH1 0x40 DUP4 ADD MSTORE JUMP JUMPDEST PUSH1 0x60 DUP2 DUP6 SUB SWAP2 ADD MSTORE PUSH2 0x2037 JUMP JUMPDEST ISZERO PUSH2 0x20AD JUMPI JUMP JUMPDEST PUSH1 0x40 MLOAD PUSH32 0x8C379A000000000000000000000000000000000000000000000000000000000 DUP2 MSTORE PUSH1 0x20 PUSH1 0x4 DUP3 ADD MSTORE PUSH1 0xA PUSH1 0x24 DUP3 ADD MSTORE PUSH32 0x444558506169723A204B00000000000000000000000000000000000000000000 PUSH1 0x44 DUP3 ADD MSTORE PUSH1 0x64 SWAP1 REVERT JUMPDEST SWAP4 SWAP3 SWAP2 SWAP3 PUSH1 0x0 PUSH2 0x211B DUP2 PUSH2 0x916 JUMP JUMPDEST DUP7 GT SWAP2 DUP3 DUP4 ISZERO PUSH2 0x2524 JUMPI JUMPDEST PUSH2 0x212F SWAP1 PUSH2 0x1ED3 JUMP JUMPDEST PUSH2 0x2137 PUSH2 0xEE2 JUMP JUMPDEST POP SWAP7 SWAP1 SWAP6 PUSH2 0x2144 DUP8 PUSH2 0xF61 JUMP JUMPDEST DUP10 LT DUP1 PUSH2 0x250E JUMPI JUMPDEST PUSH2 0x2155 SWAP1 PUSH2 0x1F5F JUMP JUMPDEST PUSH2 0x215F PUSH1 0x1 PUSH2 0xB9E JUMP JUMPDEST SWAP2 PUSH2 0x216A PUSH1 0x2 PUSH2 0xD84 JUMP JUMPDEST SWAP6 PUSH20 0xFFFFFFFFFFFFFFFFFFFFFFFFFFFFFFFFFFFFFFFF DUP5 AND PUSH20 0xFFFFFFFFFFFFFFFFFFFFFFFFFFFFFFFFFFFFFFFF DUP4 AND EQ ISZERO DUP1 PUSH2 0x24EB JUMPI JUMPDEST PUSH2 0x21AA SWAP1 PUSH2 0x1FC5 JUMP JUMPDEST PUSH2 0x24D8 JUMPI JUMPDEST PUSH2 0x21B8 DUP6 PUSH2 0x916 JUMP JUMPDEST DUP8 GT PUSH2 0x24C5 JUMPI JUMPDEST DUP4 PUSH2 0x21CC PUSH2 0x111A DUP8 PUSH2 0x916 JUMP JUMPDEST GT PUSH2 0x242F JUMPI JUMPDEST POP POP PUSH2 0x21E2 SWAP2 POP PUSH2 0x123C SWAP1 PUSH2 0x789 JUMP JUMPDEST SWAP6 PUSH4 0x70A08231 PUSH2 0x21F1 ADDRESS PUSH2 0x789 JUMP JUMPDEST SWAP1 PUSH1 0x20 PUSH2 0x21FD PUSH1 0x40 MLOAD SWAP1 JUMP JUMPDEST DUP1 SWAP11 PUSH2 0x2209 DUP5 PUSH1 0xE0 SHL SWAP1 JUMP JUMPDEST DUP3 MSTORE PUSH20 0xFFFFFFFFFFFFFFFFFFFFFFFFFFFFFFFFFFFFFFFF DUP6 AND PUSH1 0x4 DUP4 ADD MSTORE PUSH1 0x24 SWAP1 DUP3 SWAP1 GAS STATICCALL SWAP5 DUP6 ISZERO PUSH2 0x14DF JUMPI PUSH2 0x226C SWAP10 PUSH1 0x0 SWAP7 PUSH2 0x23FD JUMPI JUMPDEST POP SWAP1 PUSH2 0x12CD PUSH2 0x2255 PUSH2 0x123C PUSH1 0x20 SWAP6 SWAP5 PUSH2 0x789 JUMP JUMPDEST SWAP2 PUSH2 0x225F PUSH1 0x40 MLOAD SWAP1 JUMP JUMPDEST SWAP12 DUP13 SWAP5 DUP6 SWAP4 DUP5 SWAP4 PUSH1 0xE0 SHL SWAP1 JUMP JUMPDEST SUB SWAP2 GAS STATICCALL SWAP4 DUP5 ISZERO PUSH2 0x14DF JUMPI DUP6 DUP8 SWAP3 PUSH2 0x232 SWAP10 PUSH1 0x0 SWAP8 PUSH2 0x23C5 JUMPI JUMPDEST POP SWAP3 PUSH2 0x2316 PUSH2 0x13FB SWAP6 SWAP4 PUSH2 0x192F SWAP4 PUSH2 0x235C SWAP7 DUP3 PUSH2 0x22AE PUSH2 0x24D DUP4 PUSH2 0x22A9 DUP7 PUSH2 0xF61 JUMP JUMPDEST PUSH2 0xFAD JUMP JUMPDEST DUP12 GT ISZERO PUSH2 0x23AF JUMPI PUSH2 0x22A9 PUSH2 0x22D4 PUSH2 0x22CE PUSH2 0x24D SWAP5 PUSH2 0x22A9 PUSH2 0x22DA SWAP8 PUSH2 0xF61 JUMP JUMPDEST DUP14 PUSH2 0xFAD JUMP JUMPDEST SWAP7 PUSH2 0xF61 JUMP JUMPDEST PUSH1 0x0 SWAP1 DUP11 GT ISZERO PUSH2 0x239F JUMPI POP PUSH2 0x22F5 PUSH2 0x22FB SWAP2 PUSH2 0x22A9 DUP14 PUSH2 0xF61 JUMP JUMPDEST DUP10 PUSH2 0xFAD JUMP JUMPDEST SWAP4 JUMPDEST PUSH2 0x2306 DUP2 PUSH2 0x916 JUMP JUMPDEST DUP4 GT SWAP1 DUP2 ISZERO PUSH2 0x238D JUMPI JUMPDEST POP PUSH2 0xFBF JUMP JUMPDEST PUSH2 0x13ED PUSH2 0x3E8 SWAP4 PUSH2 0x192F PUSH2 0x2356 PUSH2 0x2350 PUSH2 0x234A PUSH2 0x233B PUSH2 0x2335 DUP11 PUSH2 0x916 JUMP JUMPDEST DUP14 PUSH2 0x10CF JUMP JUMPDEST PUSH2 0x13ED PUSH1 0x3 SWAP9 PUSH2 0x192F DUP11 PUSH2 0x916 JUMP JUMPDEST SWAP8 PUSH2 0x916 JUMP JUMPDEST DUP12 PUSH2 0x10CF JUMP JUMPDEST SWAP4 PUSH2 0x916 JUMP JUMPDEST PUSH2 0x2386 PUSH2 0x111A PUSH2 0x24D PUSH2 0x237A PUSH2 0x2371 DUP10 PUSH2 0xF61 JUMP JUMPDEST PUSH2 0x192F DUP12 PUSH2 0xF61 JUMP JUMPDEST PUSH2 0x192F PUSH3 0xF4240 PUSH2 0x916 JUMP JUMPDEST LT ISZERO PUSH2 0x20A6 JUMP JUMPDEST PUSH2 0x2397 SWAP2 POP PUSH2 0x916 JUMP JUMPDEST DUP5 GT CODESIZE PUSH2 0x2310 JUMP JUMPDEST PUSH2 0x23A9 SWAP2 POP PUSH2 0x916 JUMP JUMPDEST SWAP4 PUSH2 0x22FD JUMP JUMPDEST PUSH2 0x22DA SWAP3 POP PUSH2 0x24D SWAP2 POP PUSH2 0x22A9 PUSH2 0x22D4 DUP10 PUSH2 0x916 JUMP JUMPDEST PUSH2 0x235C SWAP5 SWAP2 SWAP8 POP PUSH2 0x13FB SWAP6 SWAP4 PUSH2 0x192F SWAP4 PUSH2 0x23EF PUSH2 0x2316 SWAP4 PUSH1 0x20 RETURNDATASIZE DUP2 GT PUSH2 0x14D8 JUMPI PUSH2 0x14C9 DUP2 DUP4 PUSH2 0xB11 JUMP JUMPDEST SWAP10 SWAP4 SWAP7 POP SWAP4 POP SWAP4 SWAP6 POP PUSH2 0x2286 JUMP JUMPDEST PUSH1 0x20 SWAP4 SWAP3 SWAP2 SWAP7 POP PUSH2 0x2255 PUSH2 0x123C PUSH2 0x2423 PUSH2 0x12CD SWAP4 DUP8 RETURNDATASIZE DUP2 GT PUSH2 0x14D8 JUMPI PUSH2 0x14C9 DUP2 DUP4 PUSH2 0xB11 JUMP JUMPDEST SWAP9 SWAP4 SWAP5 SWAP6 POP POP POP PUSH2 0x2241 JUMP JUMPDEST PUSH2 0x123C PUSH2 0x243B SWAP2 PUSH2 0x789 JUMP JUMPDEST SWAP1 PUSH4 0xBEA9CF36 SWAP2 CALLER SWAP2 DUP2 EXTCODESIZE ISZERO PUSH2 0x220 JUMPI DUP7 DUP1 SWAP5 PUSH2 0x2479 DUP15 SWAP9 PUSH2 0x246E SWAP5 DUP14 PUSH2 0x2461 PUSH1 0x40 MLOAD SWAP1 JUMP JUMPDEST SWAP12 DUP13 SWAP10 DUP11 SWAP9 DUP10 SWAP8 PUSH1 0xE0 SHL SWAP1 JUMP JUMPDEST DUP8 MSTORE PUSH1 0x4 DUP8 ADD PUSH2 0x2055 JUMP JUMPDEST SUB SWAP3 GAS CALL SWAP1 DUP2 ISZERO PUSH2 0x14DF JUMPI PUSH2 0x21E2 SWAP3 PUSH2 0x123C SWAP3 PUSH2 0x2499 JUMPI JUMPDEST DUP2 SWAP3 POP PUSH2 0x21D2 JUMP JUMPDEST PUSH2 0x24B8 SWAP1 DUP6 RETURNDATASIZE DUP8 GT PUSH2 0x24BE JUMPI JUMPDEST PUSH2 0x24B0 DUP2 DUP4 PUSH2 0xB11 JUMP JUMPDEST DUP2 ADD SWAP1 PUSH2 0x322 JUMP JUMPDEST CODESIZE PUSH2 0x2491 JUMP JUMPDEST POP RETURNDATASIZE PUSH2 0x24A6 JUMP JUMPDEST PUSH2 0x24D3 DUP8 DUP3 PUSH2 0x1BF5 DUP10 PUSH2 0x789 JUMP JUMPDEST PUSH2 0x21BF JUMP JUMPDEST PUSH2 0x24E6 DUP11 DUP3 PUSH2 0x1BF5 DUP7 PUSH2 0x789 JUMP JUMPDEST PUSH2 0x21AF JUMP JUMPDEST POP PUSH20 0xFFFFFFFFFFFFFFFFFFFFFFFFFFFFFFFFFFFFFFFF DUP3 DUP2 AND SWAP1 DUP9 AND EQ ISZERO PUSH2 0x21A1 JUMP JUMPDEST POP PUSH2 0x2155 PUSH2 0x251B DUP10 PUSH2 0xF61 JUMP JUMPDEST DUP8 LT SWAP1 POP PUSH2 0x214C JUMP JUMPDEST POP PUSH2 0x212F PUSH2 0x2531 DUP4 PUSH2 0x916 JUMP JUMPDEST DUP6 GT SWAP1 POP PUSH2 0x2126 JUMP JUMPDEST SWAP1 PUSH2 0x232 SWAP5 SWAP4 SWAP3 SWAP2 PUSH2 0x1E99 JUMP JUMPDEST PUSH2 0x254F PUSH2 0x1591 JUMP JUMPDEST PUSH2 0x1EAE PUSH2 0x2562 PUSH2 0x123C PUSH2 0x123C PUSH1 0x1 PUSH2 0xB9E JUMP JUMPDEST PUSH4 0x70A08231 PUSH2 0x2570 ADDRESS PUSH2 0x789 JUMP JUMPDEST PUSH1 0x20 PUSH2 0x257B PUSH1 0x40 MLOAD SWAP1 JUMP JUMPDEST DUP1 SWAP5 PUSH2 0x2587 DUP6 PUSH1 0xE0 SHL SWAP1 JUMP JUMPDEST DUP3 MSTORE PUSH20 0xFFFFFFFFFFFFFFFFFFFFFFFFFFFFFFFFFFFFFFFF DUP5 AND PUSH1 0x4 DUP4 ADD MSTORE PUSH1 0x24 SWAP1 DUP3 SWAP1 GAS STATICCALL SWAP1 DUP2 ISZERO PUSH2 0x14DF JUMPI PUSH2 0x25D6 SWAP4 PUSH1 0x0 SWAP3 PUSH2 0x14E4 JUMPI POP PUSH1 0x20 SWAP2 SWAP3 PUSH2 0x12CD PUSH2 0x12B6 PUSH2 0x123C PUSH2 0x123C PUSH1 0x2 PUSH2 0xD84 JUMP JUMPDEST SUB SWAP2 GAS STATICCALL DUP1 ISZERO PUSH2 0x14DF JUMPI PUSH2 0x232 SWAP3 PUSH1 0x0 SWAP2 PUSH2 0x2608 JUMPI JUMPDEST POP PUSH2 0x25F7 PUSH1 0x3 PUSH2 0xEA7 JUMP JUMPDEST SWAP1 PUSH2 0x2602 PUSH1 0x3 PUSH2 0xEBD JUMP JUMPDEST SWAP3 PUSH2 0x17E6 JUMP JUMPDEST PUSH2 0x2620 SWAP2 POP PUSH1 0x20 RETURNDATASIZE DUP2 GT PUSH2 0x14D8 JUMPI PUSH2 0x14C9 DUP2 DUP4 PUSH2 0xB11 JUMP JUMPDEST CODESIZE PUSH2 0x25EC JUMP JUMPDEST PUSH2 0x232 PUSH2 0x2547 JUMP JUMPDEST SWAP1 PUSH2 0x26B1 PUSH2 0x26A7 PUSH2 0x232 SWAP4 PUSH2 0x2661 PUSH2 0x264A DUP6 PUSH2 0x193F PUSH1 0x8 PUSH2 0x1052 JUMP JUMPDEST PUSH2 0x265A PUSH2 0x111A PUSH2 0x24D PUSH1 0x8 PUSH2 0x1052 JUMP JUMPDEST LT ISZERO PUSH2 0x15FC JUMP JUMPDEST PUSH1 0x7 PUSH2 0x268F PUSH2 0x267C DUP7 PUSH2 0x193F PUSH2 0x2677 DUP7 DUP7 PUSH2 0x792 JUMP JUMPDEST PUSH2 0x1052 JUMP JUMPDEST PUSH2 0x265A PUSH2 0x111A PUSH2 0x24D PUSH2 0x2677 DUP8 DUP8 PUSH2 0x792 JUMP JUMPDEST PUSH2 0xA9F PUSH2 0x26A0 DUP7 PUSH2 0x193F PUSH1 0x8 PUSH2 0x1052 JUMP JUMPDEST PUSH1 0x8 PUSH2 0x157A JUMP JUMPDEST SWAP2 PUSH2 0x193F DUP4 PUSH2 0x1052 JUMP JUMPDEST SWAP1 PUSH2 0x157A JUMP JUMPDEST PUSH2 0x232 SWAP2 PUSH2 0x26D9 PUSH2 0x26CC PUSH2 0x26A0 SWAP4 PUSH1 0x7 PUSH2 0x792 JUMP JUMPDEST PUSH2 0x26B1 DUP4 PUSH2 0x22A9 DUP4 PUSH2 0x1052 JUMP JUMPDEST PUSH2 0x22A9 PUSH1 0x8 PUSH2 0x1052 JUMP JUMPDEST SWAP1 DUP1 DUP3 LT ISZERO PUSH2 0x26F0 JUMPI POP SWAP1 JUMP JUMPDEST SWAP1 POP SWAP1 JUMP JUMPDEST SWAP1 PUSH1 0x0 PUSH2 0x2702 PUSH1 0x3 PUSH2 0x916 JUMP JUMPDEST DUP4 GT ISZERO PUSH2 0x2780 JUMPI POP PUSH2 0x2737 DUP3 PUSH1 0x2 PUSH2 0x2722 PUSH2 0x271C DUP3 PUSH2 0x916 JUMP JUMPDEST DUP4 PUSH2 0x1114 JUMP JUMPDEST SWAP2 PUSH1 0x1 SWAP4 DUP5 SWAP4 PUSH2 0x2731 DUP6 PUSH2 0x916 JUMP JUMPDEST SWAP1 PUSH2 0x16D1 JUMP JUMPDEST SWAP4 JUMPDEST PUSH2 0x2744 JUMPI JUMPDEST POP POP POP POP JUMP JUMPDEST SWAP1 SWAP2 SWAP3 SWAP5 PUSH2 0x274F DUP2 SWAP1 JUMP JUMPDEST DUP7 LT ISZERO PUSH2 0x277A JUMPI POP PUSH2 0x2771 PUSH2 0x2768 DUP7 PUSH2 0x193F DUP2 DUP6 PUSH2 0x1114 JUMP JUMPDEST PUSH2 0x1460 DUP5 PUSH2 0x916 JUMP JUMPDEST SWAP3 SWAP2 SWAP1 DUP3 PUSH2 0x2739 JUMP JUMPDEST SWAP5 PUSH2 0x273E JUMP JUMPDEST SWAP2 PUSH2 0x278E PUSH2 0x111A PUSH1 0x0 PUSH2 0x916 JUMP JUMPDEST SUB PUSH2 0x2795 JUMPI JUMP JUMPDEST SWAP1 POP PUSH2 0x24D PUSH1 0x1 PUSH2 0x916 JUMP JUMPDEST CALLER PUSH2 0x27BA DUP4 PUSH2 0x27B5 DUP5 PUSH2 0xA9F DUP6 PUSH1 0xC PUSH2 0x792 JUMP JUMPDEST PUSH2 0x157A JUMP JUMPDEST PUSH2 0x27FA PUSH2 0x27F0 PUSH2 0x27EA PUSH32 0x8C5BE1E5EBEC7D5BD14F71427D1E84F3DD0314C0F7B2291E5B200AC8C7C3B925 SWAP4 PUSH2 0x789 JUMP JUMPDEST SWAP4 PUSH2 0x789 JUMP JUMPDEST SWAP4 PUSH2 0x53D PUSH1 0x40 MLOAD SWAP1 JUMP JUMPDEST SUB SWAP1 LOG3 PUSH1 0x1 SWAP1 JUMP JUMPDEST CALLER PUSH2 0x2833 PUSH2 0x2826 DUP4 PUSH1 0x7 PUSH2 0xA9F PUSH2 0x2819 DUP7 DUP4 PUSH2 0x792 JUMP JUMPDEST PUSH2 0x26B1 DUP10 PUSH2 0x22A9 DUP4 PUSH2 0x1052 JUMP JUMPDEST PUSH2 0x26B1 DUP6 PUSH2 0x193F DUP4 PUSH2 0x1052 JUMP JUMPDEST PUSH2 0x27FA PUSH2 0x27F0 PUSH2 0x27EA PUSH32 0xDDF252AD1BE2C89B69C2B068FC378DAA952BA7F163C4A11628F55A4DF523B3EF SWAP4 PUSH2 0x789 JUMP JUMPDEST PUSH1 0xC DUP2 PUSH2 0x2870 DUP2 DUP4 PUSH2 0x792 JUMP JUMPDEST PUSH2 0x287E PUSH2 0x2677 CALLER DUP1 SWAP4 PUSH2 0x792 JUMP JUMPDEST PUSH1 0x1 ADD PUSH2 0x289F JUMPI JUMPDEST POP POP POP PUSH2 0x2833 PUSH2 0x2826 DUP4 PUSH1 0x7 PUSH2 0xA9F PUSH2 0x2819 DUP7 DUP4 PUSH2 0x792 JUMP JUMPDEST PUSH2 0xA9F PUSH2 0x28AF SWAP3 PUSH2 0x28BC SWAP5 PUSH2 0x792 JUMP JUMPDEST PUSH2 0x26B1 DUP6 PUSH2 0x22A9 DUP4 PUSH2 0x1052 JUMP JUMPDEST CODESIZE DUP2 DUP2 PUSH2 0x2886 JUMP JUMPDEST PUSH8 0xFFFFFFFFFFFFFFFF DUP2 GT PUSH2 0xB51 JUMPI PUSH1 0x20 SWAP1 PUSH1 0x1F ADD PUSH32 0xFFFFFFFFFFFFFFFFFFFFFFFFFFFFFFFFFFFFFFFFFFFFFFFFFFFFFFFFFFFFFFE0 AND ADD SWAP1 JUMP JUMPDEST SWAP1 PUSH2 0x2911 PUSH2 0x290C DUP4 PUSH2 0x28C4 JUMP JUMPDEST PUSH2 0xB56 JUMP JUMPDEST SWAP2 DUP3 MSTORE JUMP JUMPDEST PUSH2 0x2920 PUSH1 0xC PUSH2 0x28FF JUMP JUMPDEST PUSH32 0x444558204C5020546F6B656E0000000000000000000000000000000000000000 PUSH1 0x20 DUP3 ADD MSTORE SWAP1 JUMP JUMPDEST PUSH2 0x24D PUSH2 0x2916 JUMP JUMPDEST PUSH2 0x24D PUSH2 0x2949 JUMP JUMPDEST PUSH2 0x2963 PUSH1 0x2 PUSH2 0x28FF JUMP JUMPDEST PUSH32 0x4C50000000000000000000000000000000000000000000000000000000000000 PUSH1 0x20 DUP3 ADD MSTORE SWAP1 JUMP JUMPDEST PUSH2 0x24D PUSH2 0x2959 JUMP JUMPDEST PUSH2 0x24D PUSH2 0x298C JUMP JUMPDEST PUSH2 0x62B PUSH2 0x24D PUSH2 0x24D SWAP3 SWAP1 JUMP JUMPDEST PUSH2 0x24D PUSH1 0x12 PUSH2 0x299C JUMP JUMPDEST PUSH2 0x24D PUSH2 0x2A4B JUMP JUMPDEST PUSH2 0x29C5 PUSH1 0x1 PUSH2 0x28FF JUMP JUMPDEST PUSH32 0x3100000000000000000000000000000000000000000000000000000000000000 PUSH1 0x20 DUP3 ADD MSTORE SWAP1 JUMP JUMPDEST PUSH2 0x24D PUSH2 0x29BB JUMP JUMPDEST SWAP1 SWAP6 SWAP5 SWAP3 PUSH2 0x232 SWAP5 PUSH2 0x2A28 PUSH2 0x2A2F SWAP3 PUSH2 0x2A21 PUSH1 0x80 SWAP7 PUSH2 0x2A1A PUSH1 0xA0 DUP9 ADD SWAP13 PUSH1 0x0 DUP10 ADD MSTORE JUMP JUMPDEST PUSH1 0x20 DUP8 ADD MSTORE JUMP JUMPDEST PUSH1 0x40 DUP6 ADD MSTORE JUMP JUMPDEST PUSH1 0x60 DUP4 ADD MSTORE JUMP JUMPDEST ADD SWAP1 PUSH20 0xFFFFFFFFFFFFFFFFFFFFFFFFFFFFFFFFFFFFFFFF AND SWAP1 MSTORE JUMP JUMPDEST PUSH32 0x8B73C3C69BB8FE3D512ECC4CF759CC79239F7B179B0FFACAA9A75D522B39400F PUSH2 0x2AD0 PUSH2 0x2A77 PUSH2 0x2949 JUMP JUMPDEST PUSH2 0x2A89 PUSH2 0x2A82 DUP3 MLOAD SWAP1 JUMP JUMPDEST SWAP2 PUSH1 0x20 ADD SWAP1 JUMP JUMPDEST KECCAK256 PUSH2 0x2A92 PUSH2 0x29EE JUMP JUMPDEST PUSH2 0x2A9D PUSH2 0x2A82 DUP3 MLOAD SWAP1 JUMP JUMPDEST KECCAK256 SWAP3 PUSH2 0x2AC4 CHAINID PUSH2 0x2AAC ADDRESS PUSH2 0x789 JUMP JUMPDEST SWAP1 PUSH2 0x2AB6 PUSH1 0x40 MLOAD SWAP1 JUMP JUMPDEST SWAP7 DUP8 SWAP6 PUSH1 0x20 DUP8 ADD SWAP6 DUP7 PUSH2 0x29F6 JUMP JUMPDEST SWAP1 DUP2 SUB DUP3 MSTORE SUB DUP3 PUSH2 0xB11 JUMP JUMPDEST PUSH2 0x2ADB PUSH2 0x2A82 DUP3 MLOAD SWAP1 JUMP JUMPDEST KECCAK256 SWAP1 JUMP JUMPDEST ISZERO PUSH2 0x2AE6 JUMPI JUMP JUMPDEST PUSH1 0x40 MLOAD PUSH32 0x8C379A000000000000000000000000000000000000000000000000000000000 DUP2 MSTORE PUSH1 0x20 PUSH1 0x4 DUP3 ADD MSTORE PUSH1 0x10 PUSH1 0x24 DUP3 ADD MSTORE PUSH32 0x444558506169723A204558504952454400000000000000000000000000000000 PUSH1 0x44 DUP3 ADD MSTORE PUSH1 0x64 SWAP1 REVERT JUMPDEST PUSH32 0xFFFFFFFFFFFFFFFFFFFFFFFFFFFFFFFFFFFFFFFFFFFFFFFFFFFFFFFFFFFFFFFF DUP2 EQ PUSH2 0xFBA JUMPI PUSH1 0x1 ADD SWAP1 JUMP JUMPDEST SWAP2 SWAP5 PUSH2 0x2BDB PUSH2 0x8AD SWAP3 SWAP9 SWAP8 SWAP6 PUSH2 0x2BD4 PUSH1 0xA0 SWAP7 PUSH2 0x2BB7 PUSH2 0x232 SWAP11 PUSH2 0x2B9A PUSH1 0xC0 DUP11 ADD SWAP15 PUSH1 0x0 DUP12 ADD MSTORE JUMP JUMPDEST PUSH20 0xFFFFFFFFFFFFFFFFFFFFFFFFFFFFFFFFFFFFFFFF AND PUSH1 0x20 DUP10 ADD MSTORE JUMP JUMPDEST PUSH20 0xFFFFFFFFFFFFFFFFFFFFFFFFFFFFFFFFFFFFFFFF AND PUSH1 0x40 DUP8 ADD MSTORE JUMP JUMPDEST PUSH1 0x60 DUP6 ADD MSTORE JUMP JUMPDEST PUSH1 0x80 DUP4 ADD MSTORE JUMP JUMPDEST PUSH1 0x20 DUP1 SWAP4 SWAP3 PUSH2 0x2C1A PUSH2 0x2911 PUSH2 0x3A2 SWAP5 PUSH32 0x1901000000000000000000000000000000000000000000000000000000000000 DUP2 MSTORE PUSH1 0x2 ADD SWAP1 JUMP JUMPDEST ADD SWAP2 DUP3 MSTORE JUMP JUMPDEST PUSH2 0x8AD PUSH2 0x232 SWAP5 PUSH2 0x2092 PUSH1 0x60 SWAP5 SWAP9 SWAP8 SWAP6 PUSH2 0x2C3F PUSH1 0x80 DUP7 ADD SWAP11 PUSH1 0x0 DUP8 ADD MSTORE JUMP JUMPDEST PUSH1 0xFF AND PUSH1 0x20 DUP6 ADD MSTORE JUMP JUMPDEST ISZERO PUSH2 0x2C50 JUMPI JUMP JUMPDEST PUSH1 0x40 MLOAD PUSH32 0x8C379A000000000000000000000000000000000000000000000000000000000 DUP2 MSTORE PUSH1 0x20 PUSH1 0x4 DUP3 ADD MSTORE PUSH1 0x1A PUSH1 0x24 DUP3 ADD MSTORE PUSH32 0x444558506169723A20494E56414C49445F5349474E4154555245000000000000 PUSH1 0x44 DUP3 ADD MSTORE PUSH1 0x64 SWAP1 REVERT JUMPDEST SWAP4 SWAP1 SWAP5 PUSH2 0x2D75 DUP4 SWAP8 PUSH2 0x2AC4 PUSH2 0x2D56 DUP10 PUSH2 0x2D32 DUP11 PUSH1 0x0 SWAP10 PUSH2 0x2AC4 PUSH1 0x20 SWAP13 PUSH2 0x2CDD PUSH2 0x2CD5 TIMESTAMP SWAP1 JUMP JUMPDEST DUP3 LT ISZERO PUSH2 0x2ADF JUMP JUMPDEST PUSH32 0x6E71EDAE12B1B97F4D1F60370FEF10105FA2FAAE0126114A169C64845D6126C9 SWAP3 PUSH2 0x2D0A DUP6 PUSH1 0xD PUSH2 0x792 JUMP JUMPDEST SWAP1 PUSH2 0x2D21 PUSH2 0x2D17 DUP4 PUSH2 0x1052 JUMP JUMPDEST SWAP3 PUSH2 0x26B1 DUP5 PUSH2 0x2B45 JUMP JUMPDEST PUSH1 0x40 MLOAD SWAP8 DUP9 SWAP7 PUSH1 0x20 DUP9 ADD SWAP7 DUP8 PUSH2 0x2B72 JUMP JUMPDEST PUSH2 0x2D3D PUSH2 0x2A82 DUP3 MLOAD SWAP1 JUMP JUMPDEST KECCAK256 PUSH2 0x2D46 PUSH2 0x2A4B JUMP JUMPDEST PUSH1 0x40 MLOAD SWAP4 DUP5 SWAP3 DUP12 DUP5 ADD SWAP3 DUP4 PUSH2 0x2BE2 JUMP JUMPDEST PUSH2 0x2D61 PUSH2 0x2A82 DUP3 MLOAD SWAP1 JUMP JUMPDEST KECCAK256 SWAP3 PUSH2 0x2D6C PUSH1 0x40 MLOAD SWAP1 JUMP JUMPDEST SWAP5 DUP6 SWAP5 DUP6 PUSH2 0x2C20 JUMP JUMPDEST DUP4 DUP1 MSTORE SUB SWAP1 PUSH1 0x1 GAS STATICCALL ISZERO PUSH2 0x14DF JUMPI PUSH1 0x0 MLOAD PUSH2 0x2DAF SWAP1 PUSH2 0x2DA9 PUSH20 0xFFFFFFFFFFFFFFFFFFFFFFFFFFFFFFFFFFFFFFFF DUP5 AND PUSH2 0xCFF JUMP JUMPDEST EQ PUSH2 0x2C49 JUMP JUMPDEST PUSH2 0x2DC2 DUP4 PUSH2 0x27B5 DUP5 PUSH2 0xA9F DUP6 PUSH1 0xC PUSH2 0x792 JUMP JUMPDEST PUSH2 0x2DF2 PUSH2 0x27F0 PUSH2 0x27EA PUSH32 0x8C5BE1E5EBEC7D5BD14F71427D1E84F3DD0314C0F7B2291E5B200AC8C7C3B925 SWAP4 PUSH2 0x789 JUMP JUMPDEST SUB SWAP1 LOG3 JUMP JUMPDEST PUSH2 0x2E01 PUSH1 0x1 PUSH2 0xB9E JUMP JUMPDEST PUSH2 0x2E14 PUSH2 0x2E0E PUSH1 0x2 PUSH2 0xD84 JUMP JUMPDEST SWAP2 PUSH2 0x789 JUMP JUMPDEST SWAP2 PUSH2 0x2E1E DUP4 PUSH2 0x789 JUMP JUMPDEST SWAP3 PUSH4 0x70A08231 SWAP3 PUSH2 0x2E2E ADDRESS PUSH2 0x789 JUMP JUMPDEST SWAP1 PUSH1 0x20 PUSH2 0x2E3A PUSH1 0x40 MLOAD SWAP1 JUMP JUMPDEST DUP1 SWAP8 PUSH2 0x2E46 DUP9 PUSH1 0xE0 SHL SWAP1 JUMP JUMPDEST DUP3 MSTORE PUSH20 0xFFFFFFFFFFFFFFFFFFFFFFFFFFFFFFFFFFFFFFFF DUP6 AND PUSH1 0x4 DUP4 ADD MSTORE PUSH1 0x24 SWAP1 DUP3 SWAP1 GAS STATICCALL SWAP1 DUP2 ISZERO PUSH2 0x14DF JUMPI PUSH2 0x123C PUSH1 0x20 SWAP5 DUP7 PUSH2 0x2E9F PUSH2 0x2EA5 SWAP6 PUSH2 0x2EC9 SWAP12 PUSH1 0x0 SWAP2 PUSH2 0x2F10 JUMPI JUMPDEST POP PUSH2 0x13ED PUSH2 0x2E9A PUSH1 0x3 PUSH2 0xEA7 JUMP JUMPDEST PUSH2 0xF61 JUMP JUMPDEST SWAP2 PUSH2 0x1D94 JUMP JUMPDEST SWAP4 PUSH2 0x12CD PUSH2 0x2EB2 DUP7 PUSH2 0x789 JUMP JUMPDEST SWAP2 PUSH2 0x2EBC PUSH1 0x40 MLOAD SWAP1 JUMP JUMPDEST SWAP8 DUP9 SWAP5 DUP6 SWAP4 DUP5 SWAP4 PUSH1 0xE0 SHL SWAP1 JUMP JUMPDEST SUB SWAP2 GAS STATICCALL SWAP3 DUP4 ISZERO PUSH2 0x14DF JUMPI PUSH2 0x232 SWAP4 PUSH2 0x2E9F SWAP2 PUSH1 0x0 SWAP2 PUSH2 0x2EF2 JUMPI JUMPDEST POP PUSH2 0x13ED PUSH2 0x2E9A PUSH1 0x3 PUSH2 0xEBD JUMP JUMPDEST PUSH2 0x2F0A SWAP2 POP PUSH1 0x20 RETURNDATASIZE DUP2 GT PUSH2 0x14D8 JUMPI PUSH2 0x14C9 DUP2 DUP4 PUSH2 0xB11 JUMP JUMPDEST CODESIZE PUSH2 0x2EE4 JUMP JUMPDEST PUSH2 0x2F27 SWAP2 POP DUP10 RETURNDATASIZE DUP2 GT PUSH2 0x14D8 JUMPI PUSH2 0x14C9 DUP2 DUP4 PUSH2 0xB11 JUMP JUMPDEST CODESIZE PUSH2 0x2E8C JUMP JUMPDEST PUSH2 0x24D PUSH2 0x2F3D PUSH2 0x2E9A PUSH1 0x3 PUSH2 0xEA7 JUMP JUMPDEST PUSH2 0x192F PUSH2 0x2E9A PUSH1 0x3 PUSH2 0xEBD JUMP JUMPDEST PUSH2 0x2F67 PUSH2 0x24D PUSH2 0x24D SWAP3 PUSH14 0xFFFFFFFFFFFFFFFFFFFFFFFFFFFF AND SWAP1 JUMP JUMPDEST PUSH28 0xFFFFFFFFFFFFFFFFFFFFFFFFFFFFFFFFFFFFFFFFFFFFFFFFFFFFFFFF AND SWAP1 JUMP JUMPDEST PUSH2 0x2F67 PUSH2 0x24D PUSH2 0x24D SWAP3 SWAP1 JUMP JUMPDEST PUSH2 0x24D PUSH15 0x10000000000000000000000000000 PUSH2 0x2F88 JUMP JUMPDEST PUSH28 0xFFFFFFFFFFFFFFFFFFFFFFFFFFFFFFFFFFFFFFFFFFFFFFFFFFFFFFFF SWAP1 DUP2 AND SWAP3 SWAP2 AND SWAP2 PUSH28 0xFFFFFFFFFFFFFFFFFFFFFFFFFFFFFFFFFFFFFFFFFFFFFFFFFFFFFFFF DUP2 DUP5 MUL AND PUSH2 0x10D6 JUMP JUMPDEST PUSH2 0x300C PUSH2 0x24D SWAP2 PUSH2 0x3006 PUSH1 0x0 SWAP1 JUMP JUMPDEST POP PUSH2 0x2F4A JUMP JUMPDEST PUSH2 0x3014 PUSH2 0x2F95 JUMP JUMPDEST SWAP1 PUSH2 0x2FAD JUMP JUMPDEST PUSH28 0xFFFFFFFFFFFFFFFFFFFFFFFFFFFFFFFFFFFFFFFFFFFFFFFFFFFFFFFF SWAP1 DUP2 AND SWAP2 AND PUSH2 0x111E JUMP JUMPDEST PUSH2 0x3050 PUSH2 0x24D SWAP3 PUSH2 0x3006 PUSH1 0x0 SWAP1 JUMP JUMPDEST SWAP1 PUSH2 0x301A JUMP INVALID LOG2 PUSH5 0x6970667358 0x22 SLT KECCAK256 0xBC SMOD SLOAD PUSH29 0xE93B5EEFC2A44CC97239C5C29B9D030C031B9421B34CDA2C3AD7B9E764 PUSH20 0x6F6C634300081400330000000000000000000000 "},"methodIdentifiers":{"DOMAIN_SEPARATOR()":"3644e515","MINIMUM_LIQUIDITY()":"ba9a7a56","PERMIT_TYPEHASH()":"30adf81f","allowance(address,address)":"dd62ed3e","approve(address,uint256)":"095ea7b3","balanceOf(address)":"70a08231","burn(address)":"89afcb44","decimals()":"313ce567","executedProposals(bytes32)":"3566414c","factory()":"c45a0155","getReserves()":"0902f1ac","initialize(address,address)":"485cc955","initialize(address,address,(bool))":"820d25a8","kLast()":"7464fc3d","mint(address)":"6a627842","name()":"06fdde03","nonces(address)":"7ecebe00","paused()":"5c975abb","permit(address,address,uint256,uint256,uint8,bytes32,bytes32)":"d505accf","price0CumulativeLast()":"5909c0d5","price1CumulativeLast()":"5a3d5493","securityConfig()":"be11b1d0","skim(address)":"bc25cf77","swap(uint256,uint256,address,bytes)":"022c0d9f","symbol()":"95d89b41","sync()":"fff6cae9","timelockProposals(bytes32)":"7174b568","token0()":"0dfe1681","token1()":"d21220a7","totalSupply()":"18160ddd","transfer(address,uint256)":"a9059cbb","transferFrom(address,address,uint256)":"23b872dd"}}}}}