{"contracts/DEXFactoryProxy.sol":{"DEXFactoryProxy":{"abi":[{"inputs":[{"internalType":"address","name":"_implementation","type":"address"},{"internalType":"address","name":"_admin","type":"address"},{"internalType":"bytes","name":"_data","type":"bytes"}],"stateMutability":"nonpayable","type":"constructor"},{"anonymous":false,"inputs":[{"indexed":false,"internalType":"address","name":"previousAdmin","type":"address"},{"indexed":false,"internalType":"address","name":"newAdmin","type":"address"}],"name":"AdminChanged","type":"event"},{"anonymous":false,"inputs":[{"indexed":true,"internalType":"address","name":"implementation","type":"address"}],"name":"ImplementationUpgraded","type":"event"},{"stateMutability":"payable","type":"fallback"},{"inputs":[],"name":"admin","outputs":[{"internalType":"address","name":"admin_","type":"address"}],"stateMutability":"nonpayable","type":"function"},{"inputs":[{"internalType":"address","name":"newAdmin","type":"address"}],"name":"changeAdmin","outputs":[],"stateMutability":"nonpayable","type":"function"},{"inputs":[],"name":"implementation","outputs":[{"internalType":"address","name":"implementation_","type":"address"}],"stateMutability":"nonpayable","type":"function"},{"inputs":[{"internalType":"address","name":"newImplementation","type":"address"}],"name":"upgradeTo","outputs":[],"stateMutability":"nonpayable","type":"function"},{"inputs":[{"internalType":"address","name":"newImplementation","type":"address"},{"internalType":"bytes","name":"data","type":"bytes"}],"name":"upgradeToAndCall","outputs":[],"stateMutability":"payable","type":"function"}],"evm":{"bytecode":{"linkReferences":{},"object":"60806040523462000031576200001f62000018620001a1565b91620001d9565b604051610a6a620006aa8239610a6a90f35b600080fd5b634e487b7160e01b600052604160045260246000fd5b90601f01601f191681019081106001600160401b038211176200006e57604052565b62000036565b906200008b6200008360405190565b92836200004c565b565b6001600160a01b031690565b90565b6001600160a01b038116036200003157565b905051906200008b826200009c565b6001600160401b0381116200006e57602090601f01601f19160190565b0190565b60005b838110620000f25750506000910152565b8181015183820152602001620000e1565b909291926200011c6200011682620000bd565b62000074565b9381855260208501908284011162000031576200008b92620000de565b9080601f8301121562000031578151620000999260200162000103565b9160608383031262000031576200016e8284620000ae565b926200017e8360208301620000ae565b60408201519093906001600160401b038111620000315762000099920162000139565b620001c46200111480380380620001b88162000074565b92833981019062000156565b909192565b6200009962000099620000999290565b9190620001e6906200047f565b620001f18262000367565b805162000207620002036000620001c9565b9190565b1162000211575050565b6200021c9162000532565b50565b156200022757565b60405162461bcd60e51b815260206004820152602d60248201527f455243313936373a206e657720696d706c656d656e746174696f6e206973206e60448201526c1bdd08184818dbdb9d1c9858dd609a1b6064820152608490fd5b0390fd5b6200009990620001c9565b634e487b7160e01b600052601160045260246000fd5b91908203918211620002b557565b62000291565b6200009962000301620002ee7f360894a13ba1a3210667c828492db98dca3e2076cc3735a920a3ca505d382bbd62000286565b620002fa6001620001c9565b90620002a7565b620001c9565b62000099906200008d906001600160a01b031682565b620000999062000307565b62000099906200031d565b906200034762000099620003639262000328565b82546001600160a01b0319166001600160a01b03919091161790565b9055565b6200037c6200037682620004b9565b6200021f565b620003988160006200039162000099620002bb565b0162000333565b620003c47f51ea6ffdc9909d5ca341259f7221902e0676585d833e2bb21fa923c85e8628869162000328565b90620003cf60405190565b600090a2565b6200008d62000099620000999290565b6200009990620003d5565b15620003f857565b60405162461bcd60e51b815260206004820152602660248201527f455243313936373a206e65772061646d696e20697320746865207a65726f206160448201526564647265737360d01b6064820152608490fd5b6200009962000301620002ee7fb53127684a568b3173ae13b9f8a6016e243e63b6e8ee1178d6a717850b5d610462000286565b6200008b906000620004ab620004996200008d83620003e5565b6001600160a01b0384161415620003f0565b62000391620000996200044c565b3b620004ca620002036000620001c9565b1190565b90620004de6200011683620000bd565b918252565b620004ef6027620004ce565b7f416464726573733a206c6f772d6c6576656c2064656c65676174652063616c6c6020820152660819985a5b195960ca1b604082015290565b62000099620004e3565b62000099916200054162000528565b91620005c6565b156200055057565b60405162461bcd60e51b815260206004820152602660248201527f416464726573733a2064656c65676174652063616c6c20746f206e6f6e2d636f6044820152651b9d1c9858dd60d21b6064820152608490fd5b3d15620005c157620005b63d620004ce565b903d6000602084013e565b606090565b60008091620000999493620005d9606090565b50620005ef620005e983620004b9565b62000548565b602081019051915af462000602620005a4565b9062000655565b6200062e62000638602093620000da9362000622815190565b80835293849260200190565b95869101620000de565b601f01601f191690565b6020808252620000999291019062000609565b9091901562000662575090565b815162000674620002036000620001c9565b1115620006845750805190602001fd5b62000282906200069360405190565b62461bcd60e51b8152918291600483016200064256fe6080604052600436106102cb5760003560e01c80633659cfe61461005c5780634f1ef286146100575780635c60da1b146100525780638f2839701461004d5763f851a440036102cb576102b0565b610298565b610256565b610237565b6100c3565b73ffffffffffffffffffffffffffffffffffffffff1690565b90565b73ffffffffffffffffffffffffffffffffffffffff81160361009b57565b600080fd5b905035906100ad8261007d565b565b9060208282031261009b5761007a916100a0565b3461009b576100db6100d63660046100af565b61069e565b604051005b0390f35b7f4e487b7100000000000000000000000000000000000000000000000000000000600052604160045260246000fd5b90601f017fffffffffffffffffffffffffffffffffffffffffffffffffffffffffffffffe016810190811067ffffffffffffffff82111761015357604052565b6100e4565b906100ad61016560405190565b9283610113565b67ffffffffffffffff811161015357602090601f017fffffffffffffffffffffffffffffffffffffffffffffffffffffffffffffffe0160190565b0190565b90826000939282370152565b909291926101cc6101c78261016c565b610158565b9381855260208501908284011161009b576100ad926101ab565b9080601f8301121561009b5781602061007a933591016101b7565b91909160408184031261009b5761021883826100a0565b92602082013567ffffffffffffffff811161009b5761007a92016101e6565b6100db610245366004610201565b906107be565b600091031261009b57565b3461009b5761026636600461024b565b6100e0610271610466565b6040519182918273ffffffffffffffffffffffffffffffffffffffff909116815260200190565b3461009b576100db6102ab3660046100af565b610500565b3461009b576102c036600461024b565b6100e06102716103ff565b6102d361038f565b60008091368280378136915af43d6000803e156102ef573d6000f35b3d6000fd5b61007a61007a61007a9290565b61007a906102f4565b7f4e487b7100000000000000000000000000000000000000000000000000000000600052601160045260246000fd5b9190820391821161034657565b61030a565b61007a61038a61037a7f360894a13ba1a3210667c828492db98dca3e2076cc3735a920a3ca505d382bbd610301565b61038460016102f4565b90610339565b6102f4565b61007a600061039f61007a61034b565b015473ffffffffffffffffffffffffffffffffffffffff1690565b336103e36103c9610061610438565b9173ffffffffffffffffffffffffffffffffffffffff1690565b036103f15761007a906103f6565b6102cb565b5061007a610438565b61007a60006103ba565b61007a61038a61037a7fb53127684a568b3173ae13b9f8a6016e243e63b6e8ee1178d6a717850b5d6104610301565b61007a600061039f61007a610409565b336104576103c9610061610438565b036103f1575061007a8061038f565b61007a6000610448565b3361047f6103c9610061610438565b036103f1576100ad906104b4565b73ffffffffffffffffffffffffffffffffffffffff91821681529116602082015260400190565b6100ad906104c0610438565b817f7e644d79422f17c01e4894b5f4f588d331ebfa28653d42ae832dc59e38c9798f916104f86104ef60405190565b9283928361048d565b0390a1610639565b6100ad90610470565b61006161007a61007a9290565b61007a90610509565b1561052657565b6040517f08c379a000000000000000000000000000000000000000000000000000000000815260206004820152602660248201527f455243313936373a206e65772061646d696e20697320746865207a65726f206160448201527f64647265737300000000000000000000000000000000000000000000000000006064820152608490fd5b0390fd5b61006161007a61007a9273ffffffffffffffffffffffffffffffffffffffff1690565b61007a906105af565b61007a906105d2565b906105f461007a610635926105db565b82547fffffffffffffffffffffffff00000000000000000000000000000000000000001673ffffffffffffffffffffffffffffffffffffffff919091161790565b9055565b6100ad90600061066c61064e61006183610516565b73ffffffffffffffffffffffffffffffffffffffff8416141561051f565b61067761007a610409565b016105e4565b3361068c6103c9610061610438565b036103f1576100ad906100ad90610733565b6100ad9061067d565b156106ae57565b6040517f08c379a000000000000000000000000000000000000000000000000000000000815260206004820152602d60248201527f455243313936373a206e657720696d706c656d656e746174696f6e206973206e60448201527f6f74206120636f6e7472616374000000000000000000000000000000000000006064820152608490fd5b61074461073f826107c8565b6106a7565b61075581600061067761007a61034b565b61077f7f51ea6ffdc9909d5ca341259f7221902e0676585d833e2bb21fa923c85e862886916105db565b9061078960405190565b600090a2565b903361079f6103c9610061610438565b036103f1576100ad91906107bb916107b681610733565b610851565b50565b906100ad9161078f565b3b6107da6107d660006102f4565b9190565b1190565b906107eb6101c78361016c565b918252565b6107fa60276107de565b7f416464726573733a206c6f772d6c6576656c2064656c65676174652063616c6c60208201527f206661696c656400000000000000000000000000000000000000000000000000604082015290565b61007a6107f0565b61007a9161085d610849565b9161090e565b1561086a57565b6040517f08c379a000000000000000000000000000000000000000000000000000000000815260206004820152602660248201527f416464726573733a2064656c65676174652063616c6c20746f206e6f6e2d636f60448201527f6e747261637400000000000000000000000000000000000000000000000000006064820152608490fd5b3d15610909576108fe3d6107de565b903d6000602084013e565b606090565b6000809161007a949361091f606090565b5061093161092c836107c8565b610863565b602081019051915af46109426108ef565b906109ce565b60005b83811061095b5750506000910152565b818101518382015260200161094b565b61098c6109956020936101a793610980815190565b80835293849260200190565b95869101610948565b601f017fffffffffffffffffffffffffffffffffffffffffffffffffffffffffffffffe01690565b602080825261007a9291019061096b565b909190156109da575090565b81516109e96107d660006102f4565b11156109f85750805190602001fd5b6105ab90610a0560405190565b9182917f08c379a0000000000000000000000000000000000000000000000000000000008352600483016109bd56fea2646970667358221220c2d95ad5a170356c93f1fc7f971862a3225f251048c1804313319795e45bd9e064736f6c63430008140033","opcodes":"PUSH1 0x80 PUSH1 0x40 MSTORE CALLVALUE PUSH3 0x31 JUMPI PUSH3 0x1F PUSH3 0x18 PUSH3 0x1A1 JUMP JUMPDEST SWAP2 PUSH3 0x1D9 JUMP JUMPDEST PUSH1 0x40 MLOAD PUSH2 0xA6A PUSH3 0x6AA DUP3 CODECOPY PUSH2 0xA6A SWAP1 RETURN JUMPDEST PUSH1 0x0 DUP1 REVERT JUMPDEST PUSH4 0x4E487B71 PUSH1 0xE0 SHL PUSH1 0x0 MSTORE PUSH1 0x41 PUSH1 0x4 MSTORE PUSH1 0x24 PUSH1 0x0 REVERT JUMPDEST SWAP1 PUSH1 0x1F ADD PUSH1 0x1F NOT AND DUP2 ADD SWAP1 DUP2 LT PUSH1 0x1 PUSH1 0x1 PUSH1 0x40 SHL SUB DUP3 GT OR PUSH3 0x6E JUMPI PUSH1 0x40 MSTORE JUMP JUMPDEST PUSH3 0x36 JUMP JUMPDEST SWAP1 PUSH3 0x8B PUSH3 0x83 PUSH1 0x40 MLOAD SWAP1 JUMP JUMPDEST SWAP3 DUP4 PUSH3 0x4C JUMP JUMPDEST JUMP JUMPDEST PUSH1 0x1 PUSH1 0x1 PUSH1 0xA0 SHL SUB AND SWAP1 JUMP JUMPDEST SWAP1 JUMP JUMPDEST PUSH1 0x1 PUSH1 0x1 PUSH1 0xA0 SHL SUB DUP2 AND SUB PUSH3 0x31 JUMPI JUMP JUMPDEST SWAP1 POP MLOAD SWAP1 PUSH3 0x8B DUP3 PUSH3 0x9C JUMP JUMPDEST PUSH1 0x1 PUSH1 0x1 PUSH1 0x40 SHL SUB DUP2 GT PUSH3 0x6E JUMPI PUSH1 0x20 SWAP1 PUSH1 0x1F ADD PUSH1 0x1F NOT AND ADD SWAP1 JUMP JUMPDEST ADD SWAP1 JUMP JUMPDEST PUSH1 0x0 JUMPDEST DUP4 DUP2 LT PUSH3 0xF2 JUMPI POP POP PUSH1 0x0 SWAP2 ADD MSTORE JUMP JUMPDEST DUP2 DUP2 ADD MLOAD DUP4 DUP3 ADD MSTORE PUSH1 0x20 ADD PUSH3 0xE1 JUMP JUMPDEST SWAP1 SWAP3 SWAP2 SWAP3 PUSH3 0x11C PUSH3 0x116 DUP3 PUSH3 0xBD JUMP JUMPDEST PUSH3 0x74 JUMP JUMPDEST SWAP4 DUP2 DUP6 MSTORE PUSH1 0x20 DUP6 ADD SWAP1 DUP3 DUP5 ADD GT PUSH3 0x31 JUMPI PUSH3 0x8B SWAP3 PUSH3 0xDE JUMP JUMPDEST SWAP1 DUP1 PUSH1 0x1F DUP4 ADD SLT ISZERO PUSH3 0x31 JUMPI DUP2 MLOAD PUSH3 0x99 SWAP3 PUSH1 0x20 ADD PUSH3 0x103 JUMP JUMPDEST SWAP2 PUSH1 0x60 DUP4 DUP4 SUB SLT PUSH3 0x31 JUMPI PUSH3 0x16E DUP3 DUP5 PUSH3 0xAE JUMP JUMPDEST SWAP3 PUSH3 0x17E DUP4 PUSH1 0x20 DUP4 ADD PUSH3 0xAE JUMP JUMPDEST PUSH1 0x40 DUP3 ADD MLOAD SWAP1 SWAP4 SWAP1 PUSH1 0x1 PUSH1 0x1 PUSH1 0x40 SHL SUB DUP2 GT PUSH3 0x31 JUMPI PUSH3 0x99 SWAP3 ADD PUSH3 0x139 JUMP JUMPDEST PUSH3 0x1C4 PUSH3 0x1114 DUP1 CODESIZE SUB DUP1 PUSH3 0x1B8 DUP2 PUSH3 0x74 JUMP JUMPDEST SWAP3 DUP4 CODECOPY DUP2 ADD SWAP1 PUSH3 0x156 JUMP JUMPDEST SWAP1 SWAP2 SWAP3 JUMP JUMPDEST PUSH3 0x99 PUSH3 0x99 PUSH3 0x99 SWAP3 SWAP1 JUMP JUMPDEST SWAP2 SWAP1 PUSH3 0x1E6 SWAP1 PUSH3 0x47F JUMP JUMPDEST PUSH3 0x1F1 DUP3 PUSH3 0x367 JUMP JUMPDEST DUP1 MLOAD PUSH3 0x207 PUSH3 0x203 PUSH1 0x0 PUSH3 0x1C9 JUMP JUMPDEST SWAP2 SWAP1 JUMP JUMPDEST GT PUSH3 0x211 JUMPI POP POP JUMP JUMPDEST PUSH3 0x21C SWAP2 PUSH3 0x532 JUMP JUMPDEST POP JUMP JUMPDEST ISZERO PUSH3 0x227 JUMPI JUMP JUMPDEST PUSH1 0x40 MLOAD PUSH3 0x461BCD PUSH1 0xE5 SHL DUP2 MSTORE PUSH1 0x20 PUSH1 0x4 DUP3 ADD MSTORE PUSH1 0x2D PUSH1 0x24 DUP3 ADD MSTORE PUSH32 0x455243313936373A206E657720696D706C656D656E746174696F6E206973206E PUSH1 0x44 DUP3 ADD MSTORE PUSH13 0x1BDD08184818DBDB9D1C9858DD PUSH1 0x9A SHL PUSH1 0x64 DUP3 ADD MSTORE PUSH1 0x84 SWAP1 REVERT JUMPDEST SUB SWAP1 REVERT JUMPDEST PUSH3 0x99 SWAP1 PUSH3 0x1C9 JUMP JUMPDEST PUSH4 0x4E487B71 PUSH1 0xE0 SHL PUSH1 0x0 MSTORE PUSH1 0x11 PUSH1 0x4 MSTORE PUSH1 0x24 PUSH1 0x0 REVERT JUMPDEST SWAP2 SWAP1 DUP3 SUB SWAP2 DUP3 GT PUSH3 0x2B5 JUMPI JUMP JUMPDEST PUSH3 0x291 JUMP JUMPDEST PUSH3 0x99 PUSH3 0x301 PUSH3 0x2EE PUSH32 0x360894A13BA1A3210667C828492DB98DCA3E2076CC3735A920A3CA505D382BBD PUSH3 0x286 JUMP JUMPDEST PUSH3 0x2FA PUSH1 0x1 PUSH3 0x1C9 JUMP JUMPDEST SWAP1 PUSH3 0x2A7 JUMP JUMPDEST PUSH3 0x1C9 JUMP JUMPDEST PUSH3 0x99 SWAP1 PUSH3 0x8D SWAP1 PUSH1 0x1 PUSH1 0x1 PUSH1 0xA0 SHL SUB AND DUP3 JUMP JUMPDEST PUSH3 0x99 SWAP1 PUSH3 0x307 JUMP JUMPDEST PUSH3 0x99 SWAP1 PUSH3 0x31D JUMP JUMPDEST SWAP1 PUSH3 0x347 PUSH3 0x99 PUSH3 0x363 SWAP3 PUSH3 0x328 JUMP JUMPDEST DUP3 SLOAD PUSH1 0x1 PUSH1 0x1 PUSH1 0xA0 SHL SUB NOT AND PUSH1 0x1 PUSH1 0x1 PUSH1 0xA0 SHL SUB SWAP2 SWAP1 SWAP2 AND OR SWAP1 JUMP JUMPDEST SWAP1 SSTORE JUMP JUMPDEST PUSH3 0x37C PUSH3 0x376 DUP3 PUSH3 0x4B9 JUMP JUMPDEST PUSH3 0x21F JUMP JUMPDEST PUSH3 0x398 DUP2 PUSH1 0x0 PUSH3 0x391 PUSH3 0x99 PUSH3 0x2BB JUMP JUMPDEST ADD PUSH3 0x333 JUMP JUMPDEST PUSH3 0x3C4 PUSH32 0x51EA6FFDC9909D5CA341259F7221902E0676585D833E2BB21FA923C85E862886 SWAP2 PUSH3 0x328 JUMP JUMPDEST SWAP1 PUSH3 0x3CF PUSH1 0x40 MLOAD SWAP1 JUMP JUMPDEST PUSH1 0x0 SWAP1 LOG2 JUMP JUMPDEST PUSH3 0x8D PUSH3 0x99 PUSH3 0x99 SWAP3 SWAP1 JUMP JUMPDEST PUSH3 0x99 SWAP1 PUSH3 0x3D5 JUMP JUMPDEST ISZERO PUSH3 0x3F8 JUMPI JUMP JUMPDEST PUSH1 0x40 MLOAD PUSH3 0x461BCD PUSH1 0xE5 SHL DUP2 MSTORE PUSH1 0x20 PUSH1 0x4 DUP3 ADD MSTORE PUSH1 0x26 PUSH1 0x24 DUP3 ADD MSTORE PUSH32 0x455243313936373A206E65772061646D696E20697320746865207A65726F2061 PUSH1 0x44 DUP3 ADD MSTORE PUSH6 0x646472657373 PUSH1 0xD0 SHL PUSH1 0x64 DUP3 ADD MSTORE PUSH1 0x84 SWAP1 REVERT JUMPDEST PUSH3 0x99 PUSH3 0x301 PUSH3 0x2EE PUSH32 0xB53127684A568B3173AE13B9F8A6016E243E63B6E8EE1178D6A717850B5D6104 PUSH3 0x286 JUMP JUMPDEST PUSH3 0x8B SWAP1 PUSH1 0x0 PUSH3 0x4AB PUSH3 0x499 PUSH3 0x8D DUP4 PUSH3 0x3E5 JUMP JUMPDEST PUSH1 0x1 PUSH1 0x1 PUSH1 0xA0 SHL SUB DUP5 AND EQ ISZERO PUSH3 0x3F0 JUMP JUMPDEST PUSH3 0x391 PUSH3 0x99 PUSH3 0x44C JUMP JUMPDEST EXTCODESIZE PUSH3 0x4CA PUSH3 0x203 PUSH1 0x0 PUSH3 0x1C9 JUMP JUMPDEST GT SWAP1 JUMP JUMPDEST SWAP1 PUSH3 0x4DE PUSH3 0x116 DUP4 PUSH3 0xBD JUMP JUMPDEST SWAP2 DUP3 MSTORE JUMP JUMPDEST PUSH3 0x4EF PUSH1 0x27 PUSH3 0x4CE JUMP JUMPDEST PUSH32 0x416464726573733A206C6F772D6C6576656C2064656C65676174652063616C6C PUSH1 0x20 DUP3 ADD MSTORE PUSH7 0x819985A5B1959 PUSH1 0xCA SHL PUSH1 0x40 DUP3 ADD MSTORE SWAP1 JUMP JUMPDEST PUSH3 0x99 PUSH3 0x4E3 JUMP JUMPDEST PUSH3 0x99 SWAP2 PUSH3 0x541 PUSH3 0x528 JUMP JUMPDEST SWAP2 PUSH3 0x5C6 JUMP JUMPDEST ISZERO PUSH3 0x550 JUMPI JUMP JUMPDEST PUSH1 0x40 MLOAD PUSH3 0x461BCD PUSH1 0xE5 SHL DUP2 MSTORE PUSH1 0x20 PUSH1 0x4 DUP3 ADD MSTORE PUSH1 0x26 PUSH1 0x24 DUP3 ADD MSTORE PUSH32 0x416464726573733A2064656C65676174652063616C6C20746F206E6F6E2D636F PUSH1 0x44 DUP3 ADD MSTORE PUSH6 0x1B9D1C9858DD PUSH1 0xD2 SHL PUSH1 0x64 DUP3 ADD MSTORE PUSH1 0x84 SWAP1 REVERT JUMPDEST RETURNDATASIZE ISZERO PUSH3 0x5C1 JUMPI PUSH3 0x5B6 RETURNDATASIZE PUSH3 0x4CE JUMP JUMPDEST SWAP1 RETURNDATASIZE PUSH1 0x0 PUSH1 0x20 DUP5 ADD RETURNDATACOPY JUMP JUMPDEST PUSH1 0x60 SWAP1 JUMP JUMPDEST PUSH1 0x0 DUP1 SWAP2 PUSH3 0x99 SWAP5 SWAP4 PUSH3 0x5D9 PUSH1 0x60 SWAP1 JUMP JUMPDEST POP PUSH3 0x5EF PUSH3 0x5E9 DUP4 PUSH3 0x4B9 JUMP JUMPDEST PUSH3 0x548 JUMP JUMPDEST PUSH1 0x20 DUP2 ADD SWAP1 MLOAD SWAP2 GAS DELEGATECALL PUSH3 0x602 PUSH3 0x5A4 JUMP JUMPDEST SWAP1 PUSH3 0x655 JUMP JUMPDEST PUSH3 0x62E PUSH3 0x638 PUSH1 0x20 SWAP4 PUSH3 0xDA SWAP4 PUSH3 0x622 DUP2 MLOAD SWAP1 JUMP JUMPDEST DUP1 DUP4 MSTORE SWAP4 DUP5 SWAP3 PUSH1 0x20 ADD SWAP1 JUMP JUMPDEST SWAP6 DUP7 SWAP2 ADD PUSH3 0xDE JUMP JUMPDEST PUSH1 0x1F ADD PUSH1 0x1F NOT AND SWAP1 JUMP JUMPDEST PUSH1 0x20 DUP1 DUP3 MSTORE PUSH3 0x99 SWAP3 SWAP2 ADD SWAP1 PUSH3 0x609 JUMP JUMPDEST SWAP1 SWAP2 SWAP1 ISZERO PUSH3 0x662 JUMPI POP SWAP1 JUMP JUMPDEST DUP2 MLOAD PUSH3 0x674 PUSH3 0x203 PUSH1 0x0 PUSH3 0x1C9 JUMP JUMPDEST GT ISZERO PUSH3 0x684 JUMPI POP DUP1 MLOAD SWAP1 PUSH1 0x20 ADD REVERT JUMPDEST PUSH3 0x282 SWAP1 PUSH3 0x693 PUSH1 0x40 MLOAD SWAP1 JUMP JUMPDEST PUSH3 0x461BCD PUSH1 0xE5 SHL DUP2 MSTORE SWAP2 DUP3 SWAP2 PUSH1 0x4 DUP4 ADD PUSH3 0x642 JUMP INVALID PUSH1 0x80 PUSH1 0x40 MSTORE PUSH1 0x4 CALLDATASIZE LT PUSH2 0x2CB JUMPI PUSH1 0x0 CALLDATALOAD PUSH1 0xE0 SHR DUP1 PUSH4 0x3659CFE6 EQ PUSH2 0x5C JUMPI DUP1 PUSH4 0x4F1EF286 EQ PUSH2 0x57 JUMPI DUP1 PUSH4 0x5C60DA1B EQ PUSH2 0x52 JUMPI DUP1 PUSH4 0x8F283970 EQ PUSH2 0x4D JUMPI PUSH4 0xF851A440 SUB PUSH2 0x2CB JUMPI PUSH2 0x2B0 JUMP JUMPDEST PUSH2 0x298 JUMP JUMPDEST PUSH2 0x256 JUMP JUMPDEST PUSH2 0x237 JUMP JUMPDEST PUSH2 0xC3 JUMP JUMPDEST PUSH20 0xFFFFFFFFFFFFFFFFFFFFFFFFFFFFFFFFFFFFFFFF AND SWAP1 JUMP JUMPDEST SWAP1 JUMP JUMPDEST PUSH20 0xFFFFFFFFFFFFFFFFFFFFFFFFFFFFFFFFFFFFFFFF DUP2 AND SUB PUSH2 0x9B JUMPI JUMP JUMPDEST PUSH1 0x0 DUP1 REVERT JUMPDEST SWAP1 POP CALLDATALOAD SWAP1 PUSH2 0xAD DUP3 PUSH2 0x7D JUMP JUMPDEST JUMP JUMPDEST SWAP1 PUSH1 0x20 DUP3 DUP3 SUB SLT PUSH2 0x9B JUMPI PUSH2 0x7A SWAP2 PUSH2 0xA0 JUMP JUMPDEST CALLVALUE PUSH2 0x9B JUMPI PUSH2 0xDB PUSH2 0xD6 CALLDATASIZE PUSH1 0x4 PUSH2 0xAF JUMP JUMPDEST PUSH2 0x69E JUMP JUMPDEST PUSH1 0x40 MLOAD STOP JUMPDEST SUB SWAP1 RETURN JUMPDEST PUSH32 0x4E487B7100000000000000000000000000000000000000000000000000000000 PUSH1 0x0 MSTORE PUSH1 0x41 PUSH1 0x4 MSTORE PUSH1 0x24 PUSH1 0x0 REVERT JUMPDEST SWAP1 PUSH1 0x1F ADD PUSH32 0xFFFFFFFFFFFFFFFFFFFFFFFFFFFFFFFFFFFFFFFFFFFFFFFFFFFFFFFFFFFFFFE0 AND DUP2 ADD SWAP1 DUP2 LT PUSH8 0xFFFFFFFFFFFFFFFF DUP3 GT OR PUSH2 0x153 JUMPI PUSH1 0x40 MSTORE JUMP JUMPDEST PUSH2 0xE4 JUMP JUMPDEST SWAP1 PUSH2 0xAD PUSH2 0x165 PUSH1 0x40 MLOAD SWAP1 JUMP JUMPDEST SWAP3 DUP4 PUSH2 0x113 JUMP JUMPDEST PUSH8 0xFFFFFFFFFFFFFFFF DUP2 GT PUSH2 0x153 JUMPI PUSH1 0x20 SWAP1 PUSH1 0x1F ADD PUSH32 0xFFFFFFFFFFFFFFFFFFFFFFFFFFFFFFFFFFFFFFFFFFFFFFFFFFFFFFFFFFFFFFE0 AND ADD SWAP1 JUMP JUMPDEST ADD SWAP1 JUMP JUMPDEST SWAP1 DUP3 PUSH1 0x0 SWAP4 SWAP3 DUP3 CALLDATACOPY ADD MSTORE JUMP JUMPDEST SWAP1 SWAP3 SWAP2 SWAP3 PUSH2 0x1CC PUSH2 0x1C7 DUP3 PUSH2 0x16C JUMP JUMPDEST PUSH2 0x158 JUMP JUMPDEST SWAP4 DUP2 DUP6 MSTORE PUSH1 0x20 DUP6 ADD SWAP1 DUP3 DUP5 ADD GT PUSH2 0x9B JUMPI PUSH2 0xAD SWAP3 PUSH2 0x1AB JUMP JUMPDEST SWAP1 DUP1 PUSH1 0x1F DUP4 ADD SLT ISZERO PUSH2 0x9B JUMPI DUP2 PUSH1 0x20 PUSH2 0x7A SWAP4 CALLDATALOAD SWAP2 ADD PUSH2 0x1B7 JUMP JUMPDEST SWAP2 SWAP1 SWAP2 PUSH1 0x40 DUP2 DUP5 SUB SLT PUSH2 0x9B JUMPI PUSH2 0x218 DUP4 DUP3 PUSH2 0xA0 JUMP JUMPDEST SWAP3 PUSH1 0x20 DUP3 ADD CALLDATALOAD PUSH8 0xFFFFFFFFFFFFFFFF DUP2 GT PUSH2 0x9B JUMPI PUSH2 0x7A SWAP3 ADD PUSH2 0x1E6 JUMP JUMPDEST PUSH2 0xDB PUSH2 0x245 CALLDATASIZE PUSH1 0x4 PUSH2 0x201 JUMP JUMPDEST SWAP1 PUSH2 0x7BE JUMP JUMPDEST PUSH1 0x0 SWAP2 SUB SLT PUSH2 0x9B JUMPI JUMP JUMPDEST CALLVALUE PUSH2 0x9B JUMPI PUSH2 0x266 CALLDATASIZE PUSH1 0x4 PUSH2 0x24B JUMP JUMPDEST PUSH2 0xE0 PUSH2 0x271 PUSH2 0x466 JUMP JUMPDEST PUSH1 0x40 MLOAD SWAP2 DUP3 SWAP2 DUP3 PUSH20 0xFFFFFFFFFFFFFFFFFFFFFFFFFFFFFFFFFFFFFFFF SWAP1 SWAP2 AND DUP2 MSTORE PUSH1 0x20 ADD SWAP1 JUMP JUMPDEST CALLVALUE PUSH2 0x9B JUMPI PUSH2 0xDB PUSH2 0x2AB CALLDATASIZE PUSH1 0x4 PUSH2 0xAF JUMP JUMPDEST PUSH2 0x500 JUMP JUMPDEST CALLVALUE PUSH2 0x9B JUMPI PUSH2 0x2C0 CALLDATASIZE PUSH1 0x4 PUSH2 0x24B JUMP JUMPDEST PUSH2 0xE0 PUSH2 0x271 PUSH2 0x3FF JUMP JUMPDEST PUSH2 0x2D3 PUSH2 0x38F JUMP JUMPDEST PUSH1 0x0 DUP1 SWAP2 CALLDATASIZE DUP3 DUP1 CALLDATACOPY DUP2 CALLDATASIZE SWAP2 GAS DELEGATECALL RETURNDATASIZE PUSH1 0x0 DUP1 RETURNDATACOPY ISZERO PUSH2 0x2EF JUMPI RETURNDATASIZE PUSH1 0x0 RETURN JUMPDEST RETURNDATASIZE PUSH1 0x0 REVERT JUMPDEST PUSH2 0x7A PUSH2 0x7A PUSH2 0x7A SWAP3 SWAP1 JUMP JUMPDEST PUSH2 0x7A SWAP1 PUSH2 0x2F4 JUMP JUMPDEST PUSH32 0x4E487B7100000000000000000000000000000000000000000000000000000000 PUSH1 0x0 MSTORE PUSH1 0x11 PUSH1 0x4 MSTORE PUSH1 0x24 PUSH1 0x0 REVERT JUMPDEST SWAP2 SWAP1 DUP3 SUB SWAP2 DUP3 GT PUSH2 0x346 JUMPI JUMP JUMPDEST PUSH2 0x30A JUMP JUMPDEST PUSH2 0x7A PUSH2 0x38A PUSH2 0x37A PUSH32 0x360894A13BA1A3210667C828492DB98DCA3E2076CC3735A920A3CA505D382BBD PUSH2 0x301 JUMP JUMPDEST PUSH2 0x384 PUSH1 0x1 PUSH2 0x2F4 JUMP JUMPDEST SWAP1 PUSH2 0x339 JUMP JUMPDEST PUSH2 0x2F4 JUMP JUMPDEST PUSH2 0x7A PUSH1 0x0 PUSH2 0x39F PUSH2 0x7A PUSH2 0x34B JUMP JUMPDEST ADD SLOAD PUSH20 0xFFFFFFFFFFFFFFFFFFFFFFFFFFFFFFFFFFFFFFFF AND SWAP1 JUMP JUMPDEST CALLER PUSH2 0x3E3 PUSH2 0x3C9 PUSH2 0x61 PUSH2 0x438 JUMP JUMPDEST SWAP2 PUSH20 0xFFFFFFFFFFFFFFFFFFFFFFFFFFFFFFFFFFFFFFFF AND SWAP1 JUMP JUMPDEST SUB PUSH2 0x3F1 JUMPI PUSH2 0x7A SWAP1 PUSH2 0x3F6 JUMP JUMPDEST PUSH2 0x2CB JUMP JUMPDEST POP PUSH2 0x7A PUSH2 0x438 JUMP JUMPDEST PUSH2 0x7A PUSH1 0x0 PUSH2 0x3BA JUMP JUMPDEST PUSH2 0x7A PUSH2 0x38A PUSH2 0x37A PUSH32 0xB53127684A568B3173AE13B9F8A6016E243E63B6E8EE1178D6A717850B5D6104 PUSH2 0x301 JUMP JUMPDEST PUSH2 0x7A PUSH1 0x0 PUSH2 0x39F PUSH2 0x7A PUSH2 0x409 JUMP JUMPDEST CALLER PUSH2 0x457 PUSH2 0x3C9 PUSH2 0x61 PUSH2 0x438 JUMP JUMPDEST SUB PUSH2 0x3F1 JUMPI POP PUSH2 0x7A DUP1 PUSH2 0x38F JUMP JUMPDEST PUSH2 0x7A PUSH1 0x0 PUSH2 0x448 JUMP JUMPDEST CALLER PUSH2 0x47F PUSH2 0x3C9 PUSH2 0x61 PUSH2 0x438 JUMP JUMPDEST SUB PUSH2 0x3F1 JUMPI PUSH2 0xAD SWAP1 PUSH2 0x4B4 JUMP JUMPDEST PUSH20 0xFFFFFFFFFFFFFFFFFFFFFFFFFFFFFFFFFFFFFFFF SWAP2 DUP3 AND DUP2 MSTORE SWAP2 AND PUSH1 0x20 DUP3 ADD MSTORE PUSH1 0x40 ADD SWAP1 JUMP JUMPDEST PUSH2 0xAD SWAP1 PUSH2 0x4C0 PUSH2 0x438 JUMP JUMPDEST DUP2 PUSH32 0x7E644D79422F17C01E4894B5F4F588D331EBFA28653D42AE832DC59E38C9798F SWAP2 PUSH2 0x4F8 PUSH2 0x4EF PUSH1 0x40 MLOAD SWAP1 JUMP JUMPDEST SWAP3 DUP4 SWAP3 DUP4 PUSH2 0x48D JUMP JUMPDEST SUB SWAP1 LOG1 PUSH2 0x639 JUMP JUMPDEST PUSH2 0xAD SWAP1 PUSH2 0x470 JUMP JUMPDEST PUSH2 0x61 PUSH2 0x7A PUSH2 0x7A SWAP3 SWAP1 JUMP JUMPDEST PUSH2 0x7A SWAP1 PUSH2 0x509 JUMP JUMPDEST ISZERO PUSH2 0x526 JUMPI JUMP JUMPDEST PUSH1 0x40 MLOAD PUSH32 0x8C379A000000000000000000000000000000000000000000000000000000000 DUP2 MSTORE PUSH1 0x20 PUSH1 0x4 DUP3 ADD MSTORE PUSH1 0x26 PUSH1 0x24 DUP3 ADD MSTORE PUSH32 0x455243313936373A206E65772061646D696E20697320746865207A65726F2061 PUSH1 0x44 DUP3 ADD MSTORE PUSH32 0x6464726573730000000000000000000000000000000000000000000000000000 PUSH1 0x64 DUP3 ADD MSTORE PUSH1 0x84 SWAP1 REVERT JUMPDEST SUB SWAP1 REVERT JUMPDEST PUSH2 0x61 PUSH2 0x7A PUSH2 0x7A SWAP3 PUSH20 0xFFFFFFFFFFFFFFFFFFFFFFFFFFFFFFFFFFFFFFFF AND SWAP1 JUMP JUMPDEST PUSH2 0x7A SWAP1 PUSH2 0x5AF JUMP JUMPDEST PUSH2 0x7A SWAP1 PUSH2 0x5D2 JUMP JUMPDEST SWAP1 PUSH2 0x5F4 PUSH2 0x7A PUSH2 0x635 SWAP3 PUSH2 0x5DB JUMP JUMPDEST DUP3 SLOAD PUSH32 0xFFFFFFFFFFFFFFFFFFFFFFFF0000000000000000000000000000000000000000 AND PUSH20 0xFFFFFFFFFFFFFFFFFFFFFFFFFFFFFFFFFFFFFFFF SWAP2 SWAP1 SWAP2 AND OR SWAP1 JUMP JUMPDEST SWAP1 SSTORE JUMP JUMPDEST PUSH2 0xAD SWAP1 PUSH1 0x0 PUSH2 0x66C PUSH2 0x64E PUSH2 0x61 DUP4 PUSH2 0x516 JUMP JUMPDEST PUSH20 0xFFFFFFFFFFFFFFFFFFFFFFFFFFFFFFFFFFFFFFFF DUP5 AND EQ ISZERO PUSH2 0x51F JUMP JUMPDEST PUSH2 0x677 PUSH2 0x7A PUSH2 0x409 JUMP JUMPDEST ADD PUSH2 0x5E4 JUMP JUMPDEST CALLER PUSH2 0x68C PUSH2 0x3C9 PUSH2 0x61 PUSH2 0x438 JUMP JUMPDEST SUB PUSH2 0x3F1 JUMPI PUSH2 0xAD SWAP1 PUSH2 0xAD SWAP1 PUSH2 0x733 JUMP JUMPDEST PUSH2 0xAD SWAP1 PUSH2 0x67D JUMP JUMPDEST ISZERO PUSH2 0x6AE JUMPI JUMP JUMPDEST PUSH1 0x40 MLOAD PUSH32 0x8C379A000000000000000000000000000000000000000000000000000000000 DUP2 MSTORE PUSH1 0x20 PUSH1 0x4 DUP3 ADD MSTORE PUSH1 0x2D PUSH1 0x24 DUP3 ADD MSTORE PUSH32 0x455243313936373A206E657720696D706C656D656E746174696F6E206973206E PUSH1 0x44 DUP3 ADD MSTORE PUSH32 0x6F74206120636F6E747261637400000000000000000000000000000000000000 PUSH1 0x64 DUP3 ADD MSTORE PUSH1 0x84 SWAP1 REVERT JUMPDEST PUSH2 0x744 PUSH2 0x73F DUP3 PUSH2 0x7C8 JUMP JUMPDEST PUSH2 0x6A7 JUMP JUMPDEST PUSH2 0x755 DUP2 PUSH1 0x0 PUSH2 0x677 PUSH2 0x7A PUSH2 0x34B JUMP JUMPDEST PUSH2 0x77F PUSH32 0x51EA6FFDC9909D5CA341259F7221902E0676585D833E2BB21FA923C85E862886 SWAP2 PUSH2 0x5DB JUMP JUMPDEST SWAP1 PUSH2 0x789 PUSH1 0x40 MLOAD SWAP1 JUMP JUMPDEST PUSH1 0x0 SWAP1 LOG2 JUMP JUMPDEST SWAP1 CALLER PUSH2 0x79F PUSH2 0x3C9 PUSH2 0x61 PUSH2 0x438 JUMP JUMPDEST SUB PUSH2 0x3F1 JUMPI PUSH2 0xAD SWAP2 SWAP1 PUSH2 0x7BB SWAP2 PUSH2 0x7B6 DUP2 PUSH2 0x733 JUMP JUMPDEST PUSH2 0x851 JUMP JUMPDEST POP JUMP JUMPDEST SWAP1 PUSH2 0xAD SWAP2 PUSH2 0x78F JUMP JUMPDEST EXTCODESIZE PUSH2 0x7DA PUSH2 0x7D6 PUSH1 0x0 PUSH2 0x2F4 JUMP JUMPDEST SWAP2 SWAP1 JUMP JUMPDEST GT SWAP1 JUMP JUMPDEST SWAP1 PUSH2 0x7EB PUSH2 0x1C7 DUP4 PUSH2 0x16C JUMP JUMPDEST SWAP2 DUP3 MSTORE JUMP JUMPDEST PUSH2 0x7FA PUSH1 0x27 PUSH2 0x7DE JUMP JUMPDEST PUSH32 0x416464726573733A206C6F772D6C6576656C2064656C65676174652063616C6C PUSH1 0x20 DUP3 ADD MSTORE PUSH32 0x206661696C656400000000000000000000000000000000000000000000000000 PUSH1 0x40 DUP3 ADD MSTORE SWAP1 JUMP JUMPDEST PUSH2 0x7A PUSH2 0x7F0 JUMP JUMPDEST PUSH2 0x7A SWAP2 PUSH2 0x85D PUSH2 0x849 JUMP JUMPDEST SWAP2 PUSH2 0x90E JUMP JUMPDEST ISZERO PUSH2 0x86A JUMPI JUMP JUMPDEST PUSH1 0x40 MLOAD PUSH32 0x8C379A000000000000000000000000000000000000000000000000000000000 DUP2 MSTORE PUSH1 0x20 PUSH1 0x4 DUP3 ADD MSTORE PUSH1 0x26 PUSH1 0x24 DUP3 ADD MSTORE PUSH32 0x416464726573733A2064656C65676174652063616C6C20746F206E6F6E2D636F PUSH1 0x44 DUP3 ADD MSTORE PUSH32 0x6E74726163740000000000000000000000000000000000000000000000000000 PUSH1 0x64 DUP3 ADD MSTORE PUSH1 0x84 SWAP1 REVERT JUMPDEST RETURNDATASIZE ISZERO PUSH2 0x909 JUMPI PUSH2 0x8FE RETURNDATASIZE PUSH2 0x7DE JUMP JUMPDEST SWAP1 RETURNDATASIZE PUSH1 0x0 PUSH1 0x20 DUP5 ADD RETURNDATACOPY JUMP JUMPDEST PUSH1 0x60 SWAP1 JUMP JUMPDEST PUSH1 0x0 DUP1 SWAP2 PUSH2 0x7A SWAP5 SWAP4 PUSH2 0x91F PUSH1 0x60 SWAP1 JUMP JUMPDEST POP PUSH2 0x931 PUSH2 0x92C DUP4 PUSH2 0x7C8 JUMP JUMPDEST PUSH2 0x863 JUMP JUMPDEST PUSH1 0x20 DUP2 ADD SWAP1 MLOAD SWAP2 GAS DELEGATECALL PUSH2 0x942 PUSH2 0x8EF JUMP JUMPDEST SWAP1 PUSH2 0x9CE JUMP JUMPDEST PUSH1 0x0 JUMPDEST DUP4 DUP2 LT PUSH2 0x95B JUMPI POP POP PUSH1 0x0 SWAP2 ADD MSTORE JUMP JUMPDEST DUP2 DUP2 ADD MLOAD DUP4 DUP3 ADD MSTORE PUSH1 0x20 ADD PUSH2 0x94B JUMP JUMPDEST PUSH2 0x98C PUSH2 0x995 PUSH1 0x20 SWAP4 PUSH2 0x1A7 SWAP4 PUSH2 0x980 DUP2 MLOAD SWAP1 JUMP JUMPDEST DUP1 DUP4 MSTORE SWAP4 DUP5 SWAP3 PUSH1 0x20 ADD SWAP1 JUMP JUMPDEST SWAP6 DUP7 SWAP2 ADD PUSH2 0x948 JUMP JUMPDEST PUSH1 0x1F ADD PUSH32 0xFFFFFFFFFFFFFFFFFFFFFFFFFFFFFFFFFFFFFFFFFFFFFFFFFFFFFFFFFFFFFFE0 AND SWAP1 JUMP JUMPDEST PUSH1 0x20 DUP1 DUP3 MSTORE PUSH2 0x7A SWAP3 SWAP2 ADD SWAP1 PUSH2 0x96B JUMP JUMPDEST SWAP1 SWAP2 SWAP1 ISZERO PUSH2 0x9DA JUMPI POP SWAP1 JUMP JUMPDEST DUP2 MLOAD PUSH2 0x9E9 PUSH2 0x7D6 PUSH1 0x0 PUSH2 0x2F4 JUMP JUMPDEST GT ISZERO PUSH2 0x9F8 JUMPI POP DUP1 MLOAD SWAP1 PUSH1 0x20 ADD REVERT JUMPDEST PUSH2 0x5AB SWAP1 PUSH2 0xA05 PUSH1 0x40 MLOAD SWAP1 JUMP JUMPDEST SWAP2 DUP3 SWAP2 PUSH32 0x8C379A000000000000000000000000000000000000000000000000000000000 DUP4 MSTORE PUSH1 0x4 DUP4 ADD PUSH2 0x9BD JUMP INVALID LOG2 PUSH5 0x6970667358 0x22 SLT KECCAK256 0xC2 0xD9 GAS 0xD5 LOG1 PUSH17 0x356C93F1FC7F971862A3225F251048C180 NUMBER SGT BALANCE SWAP8 SWAP6 0xE4 JUMPDEST 0xD9 0xE0 PUSH5 0x736F6C6343 STOP ADDMOD EQ STOP CALLER "},"methodIdentifiers":{"admin()":"f851a440","changeAdmin(address)":"8f283970","implementation()":"5c60da1b","upgradeTo(address)":"3659cfe6","upgradeToAndCall(address,bytes)":"4f1ef286"}}}}}