{"contracts/PriceOracle.sol":{"PriceOracle":{"abi":[{"inputs":[],"stateMutability":"nonpayable","type":"constructor"},{"inputs":[],"name":"EnforcedPause","type":"error"},{"inputs":[],"name":"ExpectedPause","type":"error"},{"inputs":[],"name":"InvalidPrice","type":"error"},{"inputs":[],"name":"InvalidPriceFeedAddress","type":"error"},{"inputs":[],"name":"NoPriceFeedAvailable","type":"error"},{"inputs":[{"internalType":"address","name":"owner","type":"address"}],"name":"OwnableInvalidOwner","type":"error"},{"inputs":[{"internalType":"address","name":"account","type":"address"}],"name":"OwnableUnauthorizedAccount","type":"error"},{"inputs":[],"name":"StalePrice","type":"error"},{"inputs":[],"name":"StaleRound","type":"error"},{"inputs":[],"name":"UpdateTooFrequent","type":"error"},{"anonymous":false,"inputs":[{"indexed":true,"internalType":"address","name":"token","type":"address"},{"indexed":false,"internalType":"uint256","name":"price","type":"uint256"}],"name":"FallbackPriceUpdated","type":"event"},{"anonymous":false,"inputs":[{"indexed":true,"internalType":"address","name":"previousOwner","type":"address"},{"indexed":true,"internalType":"address","name":"newOwner","type":"address"}],"name":"OwnershipTransferred","type":"event"},{"anonymous":false,"inputs":[{"indexed":false,"internalType":"address","name":"account","type":"address"}],"name":"Paused","type":"event"},{"anonymous":false,"inputs":[{"indexed":true,"internalType":"address","name":"token","type":"address"},{"indexed":true,"internalType":"address","name":"priceFeed","type":"address"}],"name":"PriceFeedUpdated","type":"event"},{"anonymous":false,"inputs":[{"indexed":true,"internalType":"address","name":"token","type":"address"},{"indexed":false,"internalType":"uint256","name":"price","type":"uint256"},{"indexed":false,"internalType":"uint256","name":"timestamp","type":"uint256"}],"name":"PriceUpdated","type":"event"},{"anonymous":false,"inputs":[{"indexed":false,"internalType":"address","name":"account","type":"address"}],"name":"Unpaused","type":"event"},{"inputs":[],"name":"MAX_PRICE_AGE","outputs":[{"internalType":"uint256","name":"","type":"uint256"}],"stateMutability":"view","type":"function"},{"inputs":[],"name":"MIN_UPDATE_INTERVAL","outputs":[{"internalType":"uint256","name":"","type":"uint256"}],"stateMutability":"view","type":"function"},{"inputs":[{"internalType":"address","name":"tokenIn","type":"address"},{"internalType":"address","name":"tokenOut","type":"address"},{"internalType":"uint256","name":"amountIn","type":"uint256"},{"internalType":"uint256","name":"amountOut","type":"uint256"}],"name":"calculatePriceImpact","outputs":[{"internalType":"uint256","name":"impact","type":"uint256"}],"stateMutability":"view","type":"function"},{"inputs":[{"internalType":"address","name":"","type":"address"}],"name":"fallbackPrices","outputs":[{"internalType":"uint256","name":"","type":"uint256"}],"stateMutability":"view","type":"function"},{"inputs":[{"internalType":"address","name":"token","type":"address"}],"name":"getChainlinkPrice","outputs":[{"internalType":"uint256","name":"","type":"uint256"}],"stateMutability":"view","type":"function"},{"inputs":[{"internalType":"address[]","name":"tokens","type":"address[]"}],"name":"getMultiplePrices","outputs":[{"internalType":"uint256[]","name":"prices","type":"uint256[]"}],"stateMutability":"view","type":"function"},{"inputs":[{"internalType":"address","name":"token","type":"address"}],"name":"getPrice","outputs":[{"internalType":"uint256","name":"","type":"uint256"}],"stateMutability":"view","type":"function"},{"inputs":[{"internalType":"address","name":"token","type":"address"}],"name":"getPriceFeedAddress","outputs":[{"internalType":"address","name":"","type":"address"}],"stateMutability":"view","type":"function"},{"inputs":[{"internalType":"address","name":"token","type":"address"}],"name":"getPriceWithDecimals","outputs":[{"internalType":"uint256","name":"price","type":"uint256"},{"internalType":"uint8","name":"decimals","type":"uint8"}],"stateMutability":"view","type":"function"},{"inputs":[{"internalType":"address","name":"token","type":"address"}],"name":"hasPriceFeed","outputs":[{"internalType":"bool","name":"","type":"bool"}],"stateMutability":"view","type":"function"},{"inputs":[{"internalType":"address","name":"","type":"address"}],"name":"lastUpdateTime","outputs":[{"internalType":"uint256","name":"","type":"uint256"}],"stateMutability":"view","type":"function"},{"inputs":[],"name":"owner","outputs":[{"internalType":"address","name":"","type":"address"}],"stateMutability":"view","type":"function"},{"inputs":[],"name":"pause","outputs":[],"stateMutability":"nonpayable","type":"function"},{"inputs":[],"name":"paused","outputs":[{"internalType":"bool","name":"","type":"bool"}],"stateMutability":"view","type":"function"},{"inputs":[{"internalType":"address","name":"","type":"address"}],"name":"priceFeeds","outputs":[{"internalType":"address","name":"","type":"address"}],"stateMutability":"view","type":"function"},{"inputs":[{"internalType":"address","name":"token","type":"address"}],"name":"removePriceFeed","outputs":[],"stateMutability":"nonpayable","type":"function"},{"inputs":[],"name":"renounceOwnership","outputs":[],"stateMutability":"nonpayable","type":"function"},{"inputs":[{"internalType":"address","name":"token","type":"address"},{"internalType":"uint256","name":"price","type":"uint256"}],"name":"setFallbackPrice","outputs":[],"stateMutability":"nonpayable","type":"function"},{"inputs":[{"internalType":"address","name":"token","type":"address"},{"internalType":"address","name":"priceFeed","type":"address"}],"name":"setPriceFeed","outputs":[],"stateMutability":"nonpayable","type":"function"},{"inputs":[{"internalType":"address","name":"newOwner","type":"address"}],"name":"transferOwnership","outputs":[],"stateMutability":"nonpayable","type":"function"},{"inputs":[],"name":"unpause","outputs":[],"stateMutability":"nonpayable","type":"function"},{"inputs":[{"internalType":"address","name":"token","type":"address"},{"internalType":"uint256","name":"price","type":"uint256"}],"name":"updateFallbackPrice","outputs":[],"stateMutability":"nonpayable","type":"function"}],"evm":{"bytecode":{"linkReferences":{},"object":"6080604052346200002657620000146200002b565b6040516115d1620001c682396115d190f35b600080fd5b620000363362000038565b565b62000036906200008e565b6200005662000053620000539290565b90565b6001600160a01b031690565b620000539062000043565b620000789062000056565b9052565b6020810192916200003691906200006d565b6200009a600062000062565b620000a58162000056565b620000b08362000056565b14620000c25750620000369062000163565b620000e890620000d160405190565b631e4fbdf760e01b8152918291600483016200007c565b0390fd5b620000539062000056565b620000539054620000ec565b620000539062000056906001600160a01b031682565b620000539062000103565b620000539062000119565b9062000143620000536200015f9262000124565b82546001600160a01b0319166001600160a01b03919091161790565b9055565b6200016f6000620000f7565b906200017d8160006200012f565b620001b4620001ad7f8be0079c531659141344cd1fd0a4f28419497f9722a3daafe3b4186f6b6457e09362000124565b9162000124565b91620001bf60405190565b600090a356fe6080604052600436101561001257600080fd5b60003560e01c80630b7983a21461016d5780631c1ec22b14610168578063241d3a0b146101635780632ce9aead1461015e5780633f4ba83a1461015957806341976e09146101545780635c975abb1461014f578063715018a61461014a57806376e112861461014557806380536e1c146101405780638456cb591461013b5780638da5cb5b146101365780639d7f7e861461011d5780639dcb511a14610131578063a1c7ffb31461012c578063b21eb1e614610127578063badcdc9f14610122578063bd3be27c1461011d578063bd58fe5614610118578063d9113d7114610113578063f2fde38b1461010e5763fceb0024036101ad576106a0565b610688565b61066f565b610654565b610490565b610635565b6105de565b6105b6565b6104da565b61042d565b610415565b6103d9565b6103c0565b610385565b61036a565b61034f565b610337565b610311565b6102d4565b61023c565b6101d5565b73ffffffffffffffffffffffffffffffffffffffff1690565b90565b73ffffffffffffffffffffffffffffffffffffffff81165b036101ad57565b600080fd5b905035906101bf8261018e565b565b906020828203126101ad5761018b916101b2565b346101ad576102026101f06101eb3660046101c1565b611039565b60405191829182901515815260200190565b0390f35b806101a6565b905035906101bf82610206565b91906040838203126101ad5761018b9061023381856101b2565b9360200161020c565b346101ad5761025561024f366004610219565b90611001565b604051005b61017261018b61018b9273ffffffffffffffffffffffffffffffffffffffff1690565b61018b9061025a565b61018b9061027d565b9061029990610286565b600052602052604060002090565b61018b916008021c81565b9061018b91546102a7565b61018b906102cf60029160009261028f565b6102b2565b346101ad576102026102ef6102ea3660046101c1565b6102bd565b6040519182918290815260200190565b61018b906102cf60039160009261028f565b346101ad576102026102ef6103273660046101c1565b6102ff565b60009103126101ad57565b346101ad5761034736600461032c565b610255611187565b346101ad576102026102ef6103653660046101c1565b61091d565b346101ad5761037a36600461032c565b6102026101f0610902565b346101ad5761039536600461032c565b61025561070d565b91906040838203126101ad5761018b906103b781856101b2565b936020016101b2565b346101ad576102556103d336600461039d565b90610e3a565b346101ad576103f16103ec3660046101c1565b610cde565b906102026103fe60405190565b9283928390815260ff909116602082015260400190565b346101ad5761042536600461032c565b6102556110a4565b346101ad5761043d36600461032c565b6102026104486106cb565b6040515b9182918273ffffffffffffffffffffffffffffffffffffffff909116815260200190565b61018b61018b61018b9290565b61018b610e10610470565b61018b61047d565b346101ad576104a036600461032c565b6102026102ef610488565b61018b916008021c610172565b9061018b91546104ab565b61018b906104d560019160009261028f565b6104b8565b346101ad576102026104486104f03660046101c1565b6104c3565b909182601f830112156101ad5781359167ffffffffffffffff83116101ad5760200192602083028401116101ad57565b906020828203126101ad57813567ffffffffffffffff81116101ad5761054b92016104f5565b9091565b9061056f61056861055e845190565b8084529260200190565b9260200190565b9060005b8181106105805750505090565b90919261059d6105966001928651815260200190565b9460200190565b929101610573565b602080825261018b9291019061054f565b346101ad576102026105d26105cc366004610525565b9061134e565b604051918291826105a5565b346101ad576102026104486105f43660046101c1565b611082565b6080818303126101ad5761060d82826101b2565b9261018b61061e84602085016101b2565b9361062c816040860161020c565b9360600161020c565b346101ad576102026102ef61064b3660046105f9565b92919091611494565b346101ad576102026102ef61066a3660046101c1565b610b43565b346101ad57610255610682366004610219565b90610f55565b346101ad5761025561069b3660046101c1565b61084b565b346101ad576102556106b33660046101c1565b611030565b61018b90610172565b61018b90546106b8565b61018b60006106c1565b6106dd610715565b6101bf6106fb565b61017261018b61018b9290565b61018b906106e5565b6101bf61070860006106f2565b610891565b6101bf6106d5565b61071d6106cb565b339061073e825b9173ffffffffffffffffffffffffffffffffffffffff1690565b036107465750565b61079d9061075360405190565b9182917f118cdaa70000000000000000000000000000000000000000000000000000000083526004830173ffffffffffffffffffffffffffffffffffffffff909116815260200190565b0390fd5b6101bf906107ad610715565b6107b760006106f2565b73ffffffffffffffffffffffffffffffffffffffff811673ffffffffffffffffffffffffffffffffffffffff8316146107f457506101bf90610891565b61079d9061080160405190565b9182917f1e4fbdf70000000000000000000000000000000000000000000000000000000083526004830173ffffffffffffffffffffffffffffffffffffffff909116815260200190565b6101bf906107a1565b9073ffffffffffffffffffffffffffffffffffffffff905b9181191691161790565b9061088661018b61088d92610286565b8254610854565b9055565b61089b60006106c1565b906108a7816000610876565b6108da6108d47f8be0079c531659141344cd1fd0a4f28419497f9722a3daafe3b4186f6b6457e093610286565b91610286565b916108e460405190565b600090a3565b61018b9060a01c5b60ff1690565b61018b90546108ea565b61018b60006108f8565b61018b9081565b61018b905461090c565b600161093161092c838361028f565b6106c1565b90600061093d816106f2565b9261095d73ffffffffffffffffffffffffffffffffffffffff8516610724565b1490816109e3575b506109b85761072461097d61092c856109979461028f565b9273ffffffffffffffffffffffffffffffffffffffff1690565b146109a55761018b90610b43565b6109b361018b91600261028f565b610913565b6040517fc2f41ade000000000000000000000000000000000000000000000000000000008152600490fd5b9050610a036109ff6109f96109b387600261028f565b92610470565b9190565b1438610965565b7f4e487b7100000000000000000000000000000000000000000000000000000000600052604160045260246000fd5b90601f017fffffffffffffffffffffffffffffffffffffffffffffffffffffffffffffffe016810190811067ffffffffffffffff821117610a7957604052565b610a0a565b69ffffffffffffffffffff81166101a6565b905051906101bf82610a7e565b905051906101bf82610206565b919060a0838203126101ad57610ac08184610a90565b92610ace8260208301610a9d565b9261018b610adf8460408501610a9d565b93610aed8160608601610a9d565b93608001610a90565b6040513d6000823e3d90fd5b7f4e487b7100000000000000000000000000000000000000000000000000000000600052601160045260246000fd5b91908203918211610b3e57565b610b02565b60a0610b6a610b65610b6561092c610b8295610b5d600090565b50600161028f565b610286565b63feaf968c90610b7960405190565b93849260e01b90565b825260049082905afa8015610ca257600091829182918291610c6c575b50610baa6000610470565b841315610c425769ffffffffffffffffffff908116911610610c1757610bd09042610b31565b610bde6109ff61018b61047d565b11610bec5761018b90610470565b6040517f19abf40e000000000000000000000000000000000000000000000000000000008152600490fd5b6040517f04d28871000000000000000000000000000000000000000000000000000000008152600490fd5b6040517ebfc921000000000000000000000000000000000000000000000000000000008152600490fd5b92505050610c91915060a03d8111610c9b575b610c898183610a39565b810190610aaa565b9193909293610b9f565b503d610c7f565b610af6565b6108f261018b61018b9290565b60ff81166101a6565b905051906101bf82610cb4565b906020828203126101ad5761018b91610cbd565b806001610cee61092c838361028f565b610cfe61072461017260006106f2565b14610d7d57610d1b610b65610b6561092c610d2a9560209561028f565b63313ce56790610b7960405190565b825260049082905afa8015610ca257610d4c91600091610d4f575b5091610b43565b91565b610d70915060203d8111610d76575b610d688183610a39565b810190610cca565b38610d45565b503d610d5e565b5050610d4c6109b3610d8f6008610ca7565b92600261028f565b906101bf91610da4610715565b90610db261017260006106f2565b73ffffffffffffffffffffffffffffffffffffffff821614610e0f57610de281610ddd84600161028f565b610876565b6108da6108d47fa8abe0398416476db5b05737cd4da3b3cbde5012d978a6a6c3fd49d32175353693610286565b6040517fe3588063000000000000000000000000000000000000000000000000000000008152600490fd5b906101bf91610d97565b906101bf91610e51610715565b610ea8565b907fffffffffffffffffffffffffffffffffffffffffffffffffffffffffffffffff9061086c565b90610e8e61018b61088d92610470565b8254610e56565b9081526040810192916101bf9160200152565b90610eb36000610470565b8114610c4257610ecd81610ec884600261028f565b610e7e565b42610edd81610ec885600361028f565b610f077ff6942a0ab6b8d3d0b0f1042e35382d5faf2aae67de271b8171f1ac0567c4803493610286565b8093610f1260405190565b848152602090a27fb556fac599c3c70efb9ab1fa725ecace6c81cc48d1455f886607def065f3e0c091610f50610f4760405190565b92839283610e95565b0390a2565b906101bf91610e44565b906101bf91610f6c610715565b610f7e565b91908201809211610b3e57565b90610f896000610470565b8114610c4257426003610fb361018b610fa56109b3878561028f565b610fad61047d565b90610f71565b8210610fd65781610ec885610edd93610fd187610ec884600261028f565b61028f565b6040517f53f7a6ee000000000000000000000000000000000000000000000000000000008152600490fd5b906101bf91610f5f565b6101bf90611017610715565b61102160006106f2565b610de281610ddd84600161028f565b6101bf9061100b565b61104761092c82600161028f565b600090611059610724610172846106f2565b141591821561106757505090565b61107e9192506109f96109b36109ff92600261028f565b1190565b61092c61018b91610b5d600090565b611099610715565b6101bf6101bf611133565b6101bf611091565b6110b461113b565b6101bf6110f3565b9074ff00000000000000000000000000000000000000009060a01b61086c565b906110ec61018b61088d92151590565b82546110bc565b6110ff600160006110dc565b3361112e7f62e78cea01bee320cd4e420270b5ea74000d11b0c9f74754ebdbfc544b05a2589161044c60405190565b0390a1565b6101bf6110ac565b611143610902565b61114957565b6040517fd93c0665000000000000000000000000000000000000000000000000000000008152600490fd5b61117c610715565b6101bf6101bf6111d4565b6101bf611174565b6111976111dc565b6101bf6111a56000806110dc565b3361112e7f5db9ee0a495bf2e6ff9c91a7834c1ba4fdd244a5e8aa4e537bd38aeae4b073aa9161044c60405190565b6101bf61118f565b6111eb6111e7610902565b1590565b6111f157565b6040517f8dfc202b000000000000000000000000000000000000000000000000000000008152600490fd5b906101bf61122960405190565b9283610a39565b67ffffffffffffffff8111610a795760208091020190565b9061125a61125583611230565b61121c565b918252565b369037565b906101bf61127a61127484611248565b93611230565b7fffffffffffffffffffffffffffffffffffffffffffffffffffffffffffffffe0016020840161125f565b7fffffffffffffffffffffffffffffffffffffffffffffffffffffffffffffffff8114610b3e5760010190565b7f4e487b7100000000000000000000000000000000000000000000000000000000600052603260045260246000fd5b9190811015611311576020020190565b6112d2565b3561018b8161018e565b906020828203126101ad5761018b91610a9d565b9061133d825190565b811015611311576020809102010190565b8161135883611264565b9384906113656000610470565b855b81101561143a576113d490602061137d30610286565b6341976e09906113b0611399611394868b8d611301565b611316565b926113a360405190565b9687948593849360e01b90565b835273ffffffffffffffffffffffffffffffffffffffff1660048301526024820190565b03915afa908115610ca257611400611405926113679460009161140c575b506113fd838c611334565b52565b6112a5565b9050611365565b61142d915060203d8111611433575b6114258183610a39565b810190611320565b386113f2565b503d61141b565b50935093505050565b81810292918115918404141715610b3e57565b7f4e487b7100000000000000000000000000000000000000000000000000000000600052601260045260246000fd5b811561148f570490565b611456565b909392916114c8916000956114a830610286565b9060206341976e09936114ba60405190565b809781926113b08860e01b90565b0381855afa918215610ca2576114fe95600093611577575b506113b0602093946114f160405190565b9788948593849360e01b90565b03915afa908115610ca25761152593600092611555575b506115209192611443565b611485565b90808211611531575050565b61018b9293506115446115209183610b31565b61154f612710610470565b90611443565b61152092506115719060203d8111611433576114258183610a39565b91611515565b602093506115946113b091853d8111611433576114258183610a39565b93506114e056fea26469706673582212200011ead04cef37bfefc2266c75b4c80e43a7fdd73089a6a27f132e3e9a03c66a64736f6c63430008140033","opcodes":"PUSH1 0x80 PUSH1 0x40 MSTORE CALLVALUE PUSH3 0x26 JUMPI PUSH3 0x14 PUSH3 0x2B JUMP JUMPDEST PUSH1 0x40 MLOAD PUSH2 0x15D1 PUSH3 0x1C6 DUP3 CODECOPY PUSH2 0x15D1 SWAP1 RETURN JUMPDEST PUSH1 0x0 DUP1 REVERT JUMPDEST PUSH3 0x36 CALLER PUSH3 0x38 JUMP JUMPDEST JUMP JUMPDEST PUSH3 0x36 SWAP1 PUSH3 0x8E JUMP JUMPDEST PUSH3 0x56 PUSH3 0x53 PUSH3 0x53 SWAP3 SWAP1 JUMP JUMPDEST SWAP1 JUMP JUMPDEST PUSH1 0x1 PUSH1 0x1 PUSH1 0xA0 SHL SUB AND SWAP1 JUMP JUMPDEST PUSH3 0x53 SWAP1 PUSH3 0x43 JUMP JUMPDEST PUSH3 0x78 SWAP1 PUSH3 0x56 JUMP JUMPDEST SWAP1 MSTORE JUMP JUMPDEST PUSH1 0x20 DUP2 ADD SWAP3 SWAP2 PUSH3 0x36 SWAP2 SWAP1 PUSH3 0x6D JUMP JUMPDEST PUSH3 0x9A PUSH1 0x0 PUSH3 0x62 JUMP JUMPDEST PUSH3 0xA5 DUP2 PUSH3 0x56 JUMP JUMPDEST PUSH3 0xB0 DUP4 PUSH3 0x56 JUMP JUMPDEST EQ PUSH3 0xC2 JUMPI POP PUSH3 0x36 SWAP1 PUSH3 0x163 JUMP JUMPDEST PUSH3 0xE8 SWAP1 PUSH3 0xD1 PUSH1 0x40 MLOAD SWAP1 JUMP JUMPDEST PUSH4 0x1E4FBDF7 PUSH1 0xE0 SHL DUP2 MSTORE SWAP2 DUP3 SWAP2 PUSH1 0x4 DUP4 ADD PUSH3 0x7C JUMP JUMPDEST SUB SWAP1 REVERT JUMPDEST PUSH3 0x53 SWAP1 PUSH3 0x56 JUMP JUMPDEST PUSH3 0x53 SWAP1 SLOAD PUSH3 0xEC JUMP JUMPDEST PUSH3 0x53 SWAP1 PUSH3 0x56 SWAP1 PUSH1 0x1 PUSH1 0x1 PUSH1 0xA0 SHL SUB AND DUP3 JUMP JUMPDEST PUSH3 0x53 SWAP1 PUSH3 0x103 JUMP JUMPDEST PUSH3 0x53 SWAP1 PUSH3 0x119 JUMP JUMPDEST SWAP1 PUSH3 0x143 PUSH3 0x53 PUSH3 0x15F SWAP3 PUSH3 0x124 JUMP JUMPDEST DUP3 SLOAD PUSH1 0x1 PUSH1 0x1 PUSH1 0xA0 SHL SUB NOT AND PUSH1 0x1 PUSH1 0x1 PUSH1 0xA0 SHL SUB SWAP2 SWAP1 SWAP2 AND OR SWAP1 JUMP JUMPDEST SWAP1 SSTORE JUMP JUMPDEST PUSH3 0x16F PUSH1 0x0 PUSH3 0xF7 JUMP JUMPDEST SWAP1 PUSH3 0x17D DUP2 PUSH1 0x0 PUSH3 0x12F JUMP JUMPDEST PUSH3 0x1B4 PUSH3 0x1AD PUSH32 0x8BE0079C531659141344CD1FD0A4F28419497F9722A3DAAFE3B4186F6B6457E0 SWAP4 PUSH3 0x124 JUMP JUMPDEST SWAP2 PUSH3 0x124 JUMP JUMPDEST SWAP2 PUSH3 0x1BF PUSH1 0x40 MLOAD SWAP1 JUMP JUMPDEST PUSH1 0x0 SWAP1 LOG3 JUMP INVALID PUSH1 0x80 PUSH1 0x40 MSTORE PUSH1 0x4 CALLDATASIZE LT ISZERO PUSH2 0x12 JUMPI PUSH1 0x0 DUP1 REVERT JUMPDEST PUSH1 0x0 CALLDATALOAD PUSH1 0xE0 SHR DUP1 PUSH4 0xB7983A2 EQ PUSH2 0x16D JUMPI DUP1 PUSH4 0x1C1EC22B EQ PUSH2 0x168 JUMPI DUP1 PUSH4 0x241D3A0B EQ PUSH2 0x163 JUMPI DUP1 PUSH4 0x2CE9AEAD EQ PUSH2 0x15E JUMPI DUP1 PUSH4 0x3F4BA83A EQ PUSH2 0x159 JUMPI DUP1 PUSH4 0x41976E09 EQ PUSH2 0x154 JUMPI DUP1 PUSH4 0x5C975ABB EQ PUSH2 0x14F JUMPI DUP1 PUSH4 0x715018A6 EQ PUSH2 0x14A JUMPI DUP1 PUSH4 0x76E11286 EQ PUSH2 0x145 JUMPI DUP1 PUSH4 0x80536E1C EQ PUSH2 0x140 JUMPI DUP1 PUSH4 0x8456CB59 EQ PUSH2 0x13B JUMPI DUP1 PUSH4 0x8DA5CB5B EQ PUSH2 0x136 JUMPI DUP1 PUSH4 0x9D7F7E86 EQ PUSH2 0x11D JUMPI DUP1 PUSH4 0x9DCB511A EQ PUSH2 0x131 JUMPI DUP1 PUSH4 0xA1C7FFB3 EQ PUSH2 0x12C JUMPI DUP1 PUSH4 0xB21EB1E6 EQ PUSH2 0x127 JUMPI DUP1 PUSH4 0xBADCDC9F EQ PUSH2 0x122 JUMPI DUP1 PUSH4 0xBD3BE27C EQ PUSH2 0x11D JUMPI DUP1 PUSH4 0xBD58FE56 EQ PUSH2 0x118 JUMPI DUP1 PUSH4 0xD9113D71 EQ PUSH2 0x113 JUMPI DUP1 PUSH4 0xF2FDE38B EQ PUSH2 0x10E JUMPI PUSH4 0xFCEB0024 SUB PUSH2 0x1AD JUMPI PUSH2 0x6A0 JUMP JUMPDEST PUSH2 0x688 JUMP JUMPDEST PUSH2 0x66F JUMP JUMPDEST PUSH2 0x654 JUMP JUMPDEST PUSH2 0x490 JUMP JUMPDEST PUSH2 0x635 JUMP JUMPDEST PUSH2 0x5DE JUMP JUMPDEST PUSH2 0x5B6 JUMP JUMPDEST PUSH2 0x4DA JUMP JUMPDEST PUSH2 0x42D JUMP JUMPDEST PUSH2 0x415 JUMP JUMPDEST PUSH2 0x3D9 JUMP JUMPDEST PUSH2 0x3C0 JUMP JUMPDEST PUSH2 0x385 JUMP JUMPDEST PUSH2 0x36A JUMP JUMPDEST PUSH2 0x34F JUMP JUMPDEST PUSH2 0x337 JUMP JUMPDEST PUSH2 0x311 JUMP JUMPDEST PUSH2 0x2D4 JUMP JUMPDEST PUSH2 0x23C JUMP JUMPDEST PUSH2 0x1D5 JUMP JUMPDEST PUSH20 0xFFFFFFFFFFFFFFFFFFFFFFFFFFFFFFFFFFFFFFFF AND SWAP1 JUMP JUMPDEST SWAP1 JUMP JUMPDEST PUSH20 0xFFFFFFFFFFFFFFFFFFFFFFFFFFFFFFFFFFFFFFFF DUP2 AND JUMPDEST SUB PUSH2 0x1AD JUMPI JUMP JUMPDEST PUSH1 0x0 DUP1 REVERT JUMPDEST SWAP1 POP CALLDATALOAD SWAP1 PUSH2 0x1BF DUP3 PUSH2 0x18E JUMP JUMPDEST JUMP JUMPDEST SWAP1 PUSH1 0x20 DUP3 DUP3 SUB SLT PUSH2 0x1AD JUMPI PUSH2 0x18B SWAP2 PUSH2 0x1B2 JUMP JUMPDEST CALLVALUE PUSH2 0x1AD JUMPI PUSH2 0x202 PUSH2 0x1F0 PUSH2 0x1EB CALLDATASIZE PUSH1 0x4 PUSH2 0x1C1 JUMP JUMPDEST PUSH2 0x1039 JUMP JUMPDEST PUSH1 0x40 MLOAD SWAP2 DUP3 SWAP2 DUP3 SWAP1 ISZERO ISZERO DUP2 MSTORE PUSH1 0x20 ADD SWAP1 JUMP JUMPDEST SUB SWAP1 RETURN JUMPDEST DUP1 PUSH2 0x1A6 JUMP JUMPDEST SWAP1 POP CALLDATALOAD SWAP1 PUSH2 0x1BF DUP3 PUSH2 0x206 JUMP JUMPDEST SWAP2 SWAP1 PUSH1 0x40 DUP4 DUP3 SUB SLT PUSH2 0x1AD JUMPI PUSH2 0x18B SWAP1 PUSH2 0x233 DUP2 DUP6 PUSH2 0x1B2 JUMP JUMPDEST SWAP4 PUSH1 0x20 ADD PUSH2 0x20C JUMP JUMPDEST CALLVALUE PUSH2 0x1AD JUMPI PUSH2 0x255 PUSH2 0x24F CALLDATASIZE PUSH1 0x4 PUSH2 0x219 JUMP JUMPDEST SWAP1 PUSH2 0x1001 JUMP JUMPDEST PUSH1 0x40 MLOAD STOP JUMPDEST PUSH2 0x172 PUSH2 0x18B PUSH2 0x18B SWAP3 PUSH20 0xFFFFFFFFFFFFFFFFFFFFFFFFFFFFFFFFFFFFFFFF AND SWAP1 JUMP JUMPDEST PUSH2 0x18B SWAP1 PUSH2 0x25A JUMP JUMPDEST PUSH2 0x18B SWAP1 PUSH2 0x27D JUMP JUMPDEST SWAP1 PUSH2 0x299 SWAP1 PUSH2 0x286 JUMP JUMPDEST PUSH1 0x0 MSTORE PUSH1 0x20 MSTORE PUSH1 0x40 PUSH1 0x0 KECCAK256 SWAP1 JUMP JUMPDEST PUSH2 0x18B SWAP2 PUSH1 0x8 MUL SHR DUP2 JUMP JUMPDEST SWAP1 PUSH2 0x18B SWAP2 SLOAD PUSH2 0x2A7 JUMP JUMPDEST PUSH2 0x18B SWAP1 PUSH2 0x2CF PUSH1 0x2 SWAP2 PUSH1 0x0 SWAP3 PUSH2 0x28F JUMP JUMPDEST PUSH2 0x2B2 JUMP JUMPDEST CALLVALUE PUSH2 0x1AD JUMPI PUSH2 0x202 PUSH2 0x2EF PUSH2 0x2EA CALLDATASIZE PUSH1 0x4 PUSH2 0x1C1 JUMP JUMPDEST PUSH2 0x2BD JUMP JUMPDEST PUSH1 0x40 MLOAD SWAP2 DUP3 SWAP2 DUP3 SWAP1 DUP2 MSTORE PUSH1 0x20 ADD SWAP1 JUMP JUMPDEST PUSH2 0x18B SWAP1 PUSH2 0x2CF PUSH1 0x3 SWAP2 PUSH1 0x0 SWAP3 PUSH2 0x28F JUMP JUMPDEST CALLVALUE PUSH2 0x1AD JUMPI PUSH2 0x202 PUSH2 0x2EF PUSH2 0x327 CALLDATASIZE PUSH1 0x4 PUSH2 0x1C1 JUMP JUMPDEST PUSH2 0x2FF JUMP JUMPDEST PUSH1 0x0 SWAP2 SUB SLT PUSH2 0x1AD JUMPI JUMP JUMPDEST CALLVALUE PUSH2 0x1AD JUMPI PUSH2 0x347 CALLDATASIZE PUSH1 0x4 PUSH2 0x32C JUMP JUMPDEST PUSH2 0x255 PUSH2 0x1187 JUMP JUMPDEST CALLVALUE PUSH2 0x1AD JUMPI PUSH2 0x202 PUSH2 0x2EF PUSH2 0x365 CALLDATASIZE PUSH1 0x4 PUSH2 0x1C1 JUMP JUMPDEST PUSH2 0x91D JUMP JUMPDEST CALLVALUE PUSH2 0x1AD JUMPI PUSH2 0x37A CALLDATASIZE PUSH1 0x4 PUSH2 0x32C JUMP JUMPDEST PUSH2 0x202 PUSH2 0x1F0 PUSH2 0x902 JUMP JUMPDEST CALLVALUE PUSH2 0x1AD JUMPI PUSH2 0x395 CALLDATASIZE PUSH1 0x4 PUSH2 0x32C JUMP JUMPDEST PUSH2 0x255 PUSH2 0x70D JUMP JUMPDEST SWAP2 SWAP1 PUSH1 0x40 DUP4 DUP3 SUB SLT PUSH2 0x1AD JUMPI PUSH2 0x18B SWAP1 PUSH2 0x3B7 DUP2 DUP6 PUSH2 0x1B2 JUMP JUMPDEST SWAP4 PUSH1 0x20 ADD PUSH2 0x1B2 JUMP JUMPDEST CALLVALUE PUSH2 0x1AD JUMPI PUSH2 0x255 PUSH2 0x3D3 CALLDATASIZE PUSH1 0x4 PUSH2 0x39D JUMP JUMPDEST SWAP1 PUSH2 0xE3A JUMP JUMPDEST CALLVALUE PUSH2 0x1AD JUMPI PUSH2 0x3F1 PUSH2 0x3EC CALLDATASIZE PUSH1 0x4 PUSH2 0x1C1 JUMP JUMPDEST PUSH2 0xCDE JUMP JUMPDEST SWAP1 PUSH2 0x202 PUSH2 0x3FE PUSH1 0x40 MLOAD SWAP1 JUMP JUMPDEST SWAP3 DUP4 SWAP3 DUP4 SWAP1 DUP2 MSTORE PUSH1 0xFF SWAP1 SWAP2 AND PUSH1 0x20 DUP3 ADD MSTORE PUSH1 0x40 ADD SWAP1 JUMP JUMPDEST CALLVALUE PUSH2 0x1AD JUMPI PUSH2 0x425 CALLDATASIZE PUSH1 0x4 PUSH2 0x32C JUMP JUMPDEST PUSH2 0x255 PUSH2 0x10A4 JUMP JUMPDEST CALLVALUE PUSH2 0x1AD JUMPI PUSH2 0x43D CALLDATASIZE PUSH1 0x4 PUSH2 0x32C JUMP JUMPDEST PUSH2 0x202 PUSH2 0x448 PUSH2 0x6CB JUMP JUMPDEST PUSH1 0x40 MLOAD JUMPDEST SWAP2 DUP3 SWAP2 DUP3 PUSH20 0xFFFFFFFFFFFFFFFFFFFFFFFFFFFFFFFFFFFFFFFF SWAP1 SWAP2 AND DUP2 MSTORE PUSH1 0x20 ADD SWAP1 JUMP JUMPDEST PUSH2 0x18B PUSH2 0x18B PUSH2 0x18B SWAP3 SWAP1 JUMP JUMPDEST PUSH2 0x18B PUSH2 0xE10 PUSH2 0x470 JUMP JUMPDEST PUSH2 0x18B PUSH2 0x47D JUMP JUMPDEST CALLVALUE PUSH2 0x1AD JUMPI PUSH2 0x4A0 CALLDATASIZE PUSH1 0x4 PUSH2 0x32C JUMP JUMPDEST PUSH2 0x202 PUSH2 0x2EF PUSH2 0x488 JUMP JUMPDEST PUSH2 0x18B SWAP2 PUSH1 0x8 MUL SHR PUSH2 0x172 JUMP JUMPDEST SWAP1 PUSH2 0x18B SWAP2 SLOAD PUSH2 0x4AB JUMP JUMPDEST PUSH2 0x18B SWAP1 PUSH2 0x4D5 PUSH1 0x1 SWAP2 PUSH1 0x0 SWAP3 PUSH2 0x28F JUMP JUMPDEST PUSH2 0x4B8 JUMP JUMPDEST CALLVALUE PUSH2 0x1AD JUMPI PUSH2 0x202 PUSH2 0x448 PUSH2 0x4F0 CALLDATASIZE PUSH1 0x4 PUSH2 0x1C1 JUMP JUMPDEST PUSH2 0x4C3 JUMP JUMPDEST SWAP1 SWAP2 DUP3 PUSH1 0x1F DUP4 ADD SLT ISZERO PUSH2 0x1AD JUMPI DUP2 CALLDATALOAD SWAP2 PUSH8 0xFFFFFFFFFFFFFFFF DUP4 GT PUSH2 0x1AD JUMPI PUSH1 0x20 ADD SWAP3 PUSH1 0x20 DUP4 MUL DUP5 ADD GT PUSH2 0x1AD JUMPI JUMP JUMPDEST SWAP1 PUSH1 0x20 DUP3 DUP3 SUB SLT PUSH2 0x1AD JUMPI DUP2 CALLDATALOAD PUSH8 0xFFFFFFFFFFFFFFFF DUP2 GT PUSH2 0x1AD JUMPI PUSH2 0x54B SWAP3 ADD PUSH2 0x4F5 JUMP JUMPDEST SWAP1 SWAP2 JUMP JUMPDEST SWAP1 PUSH2 0x56F PUSH2 0x568 PUSH2 0x55E DUP5 MLOAD SWAP1 JUMP JUMPDEST DUP1 DUP5 MSTORE SWAP3 PUSH1 0x20 ADD SWAP1 JUMP JUMPDEST SWAP3 PUSH1 0x20 ADD SWAP1 JUMP JUMPDEST SWAP1 PUSH1 0x0 JUMPDEST DUP2 DUP2 LT PUSH2 0x580 JUMPI POP POP POP SWAP1 JUMP JUMPDEST SWAP1 SWAP2 SWAP3 PUSH2 0x59D PUSH2 0x596 PUSH1 0x1 SWAP3 DUP7 MLOAD DUP2 MSTORE PUSH1 0x20 ADD SWAP1 JUMP JUMPDEST SWAP5 PUSH1 0x20 ADD SWAP1 JUMP JUMPDEST SWAP3 SWAP2 ADD PUSH2 0x573 JUMP JUMPDEST PUSH1 0x20 DUP1 DUP3 MSTORE PUSH2 0x18B SWAP3 SWAP2 ADD SWAP1 PUSH2 0x54F JUMP JUMPDEST CALLVALUE PUSH2 0x1AD JUMPI PUSH2 0x202 PUSH2 0x5D2 PUSH2 0x5CC CALLDATASIZE PUSH1 0x4 PUSH2 0x525 JUMP JUMPDEST SWAP1 PUSH2 0x134E JUMP JUMPDEST PUSH1 0x40 MLOAD SWAP2 DUP3 SWAP2 DUP3 PUSH2 0x5A5 JUMP JUMPDEST CALLVALUE PUSH2 0x1AD JUMPI PUSH2 0x202 PUSH2 0x448 PUSH2 0x5F4 CALLDATASIZE PUSH1 0x4 PUSH2 0x1C1 JUMP JUMPDEST PUSH2 0x1082 JUMP JUMPDEST PUSH1 0x80 DUP2 DUP4 SUB SLT PUSH2 0x1AD JUMPI PUSH2 0x60D DUP3 DUP3 PUSH2 0x1B2 JUMP JUMPDEST SWAP3 PUSH2 0x18B PUSH2 0x61E DUP5 PUSH1 0x20 DUP6 ADD PUSH2 0x1B2 JUMP JUMPDEST SWAP4 PUSH2 0x62C DUP2 PUSH1 0x40 DUP7 ADD PUSH2 0x20C JUMP JUMPDEST SWAP4 PUSH1 0x60 ADD PUSH2 0x20C JUMP JUMPDEST CALLVALUE PUSH2 0x1AD JUMPI PUSH2 0x202 PUSH2 0x2EF PUSH2 0x64B CALLDATASIZE PUSH1 0x4 PUSH2 0x5F9 JUMP JUMPDEST SWAP3 SWAP2 SWAP1 SWAP2 PUSH2 0x1494 JUMP JUMPDEST CALLVALUE PUSH2 0x1AD JUMPI PUSH2 0x202 PUSH2 0x2EF PUSH2 0x66A CALLDATASIZE PUSH1 0x4 PUSH2 0x1C1 JUMP JUMPDEST PUSH2 0xB43 JUMP JUMPDEST CALLVALUE PUSH2 0x1AD JUMPI PUSH2 0x255 PUSH2 0x682 CALLDATASIZE PUSH1 0x4 PUSH2 0x219 JUMP JUMPDEST SWAP1 PUSH2 0xF55 JUMP JUMPDEST CALLVALUE PUSH2 0x1AD JUMPI PUSH2 0x255 PUSH2 0x69B CALLDATASIZE PUSH1 0x4 PUSH2 0x1C1 JUMP JUMPDEST PUSH2 0x84B JUMP JUMPDEST CALLVALUE PUSH2 0x1AD JUMPI PUSH2 0x255 PUSH2 0x6B3 CALLDATASIZE PUSH1 0x4 PUSH2 0x1C1 JUMP JUMPDEST PUSH2 0x1030 JUMP JUMPDEST PUSH2 0x18B SWAP1 PUSH2 0x172 JUMP JUMPDEST PUSH2 0x18B SWAP1 SLOAD PUSH2 0x6B8 JUMP JUMPDEST PUSH2 0x18B PUSH1 0x0 PUSH2 0x6C1 JUMP JUMPDEST PUSH2 0x6DD PUSH2 0x715 JUMP JUMPDEST PUSH2 0x1BF PUSH2 0x6FB JUMP JUMPDEST PUSH2 0x172 PUSH2 0x18B PUSH2 0x18B SWAP3 SWAP1 JUMP JUMPDEST PUSH2 0x18B SWAP1 PUSH2 0x6E5 JUMP JUMPDEST PUSH2 0x1BF PUSH2 0x708 PUSH1 0x0 PUSH2 0x6F2 JUMP JUMPDEST PUSH2 0x891 JUMP JUMPDEST PUSH2 0x1BF PUSH2 0x6D5 JUMP JUMPDEST PUSH2 0x71D PUSH2 0x6CB JUMP JUMPDEST CALLER SWAP1 PUSH2 0x73E DUP3 JUMPDEST SWAP2 PUSH20 0xFFFFFFFFFFFFFFFFFFFFFFFFFFFFFFFFFFFFFFFF AND SWAP1 JUMP JUMPDEST SUB PUSH2 0x746 JUMPI POP JUMP JUMPDEST PUSH2 0x79D SWAP1 PUSH2 0x753 PUSH1 0x40 MLOAD SWAP1 JUMP JUMPDEST SWAP2 DUP3 SWAP2 PUSH32 0x118CDAA700000000000000000000000000000000000000000000000000000000 DUP4 MSTORE PUSH1 0x4 DUP4 ADD PUSH20 0xFFFFFFFFFFFFFFFFFFFFFFFFFFFFFFFFFFFFFFFF SWAP1 SWAP2 AND DUP2 MSTORE PUSH1 0x20 ADD SWAP1 JUMP JUMPDEST SUB SWAP1 REVERT JUMPDEST PUSH2 0x1BF SWAP1 PUSH2 0x7AD PUSH2 0x715 JUMP JUMPDEST PUSH2 0x7B7 PUSH1 0x0 PUSH2 0x6F2 JUMP JUMPDEST PUSH20 0xFFFFFFFFFFFFFFFFFFFFFFFFFFFFFFFFFFFFFFFF DUP2 AND PUSH20 0xFFFFFFFFFFFFFFFFFFFFFFFFFFFFFFFFFFFFFFFF DUP4 AND EQ PUSH2 0x7F4 JUMPI POP PUSH2 0x1BF SWAP1 PUSH2 0x891 JUMP JUMPDEST PUSH2 0x79D SWAP1 PUSH2 0x801 PUSH1 0x40 MLOAD SWAP1 JUMP JUMPDEST SWAP2 DUP3 SWAP2 PUSH32 0x1E4FBDF700000000000000000000000000000000000000000000000000000000 DUP4 MSTORE PUSH1 0x4 DUP4 ADD PUSH20 0xFFFFFFFFFFFFFFFFFFFFFFFFFFFFFFFFFFFFFFFF SWAP1 SWAP2 AND DUP2 MSTORE PUSH1 0x20 ADD SWAP1 JUMP JUMPDEST PUSH2 0x1BF SWAP1 PUSH2 0x7A1 JUMP JUMPDEST SWAP1 PUSH20 0xFFFFFFFFFFFFFFFFFFFFFFFFFFFFFFFFFFFFFFFF SWAP1 JUMPDEST SWAP2 DUP2 NOT AND SWAP2 AND OR SWAP1 JUMP JUMPDEST SWAP1 PUSH2 0x886 PUSH2 0x18B PUSH2 0x88D SWAP3 PUSH2 0x286 JUMP JUMPDEST DUP3 SLOAD PUSH2 0x854 JUMP JUMPDEST SWAP1 SSTORE JUMP JUMPDEST PUSH2 0x89B PUSH1 0x0 PUSH2 0x6C1 JUMP JUMPDEST SWAP1 PUSH2 0x8A7 DUP2 PUSH1 0x0 PUSH2 0x876 JUMP JUMPDEST PUSH2 0x8DA PUSH2 0x8D4 PUSH32 0x8BE0079C531659141344CD1FD0A4F28419497F9722A3DAAFE3B4186F6B6457E0 SWAP4 PUSH2 0x286 JUMP JUMPDEST SWAP2 PUSH2 0x286 JUMP JUMPDEST SWAP2 PUSH2 0x8E4 PUSH1 0x40 MLOAD SWAP1 JUMP JUMPDEST PUSH1 0x0 SWAP1 LOG3 JUMP JUMPDEST PUSH2 0x18B SWAP1 PUSH1 0xA0 SHR JUMPDEST PUSH1 0xFF AND SWAP1 JUMP JUMPDEST PUSH2 0x18B SWAP1 SLOAD PUSH2 0x8EA JUMP JUMPDEST PUSH2 0x18B PUSH1 0x0 PUSH2 0x8F8 JUMP JUMPDEST PUSH2 0x18B SWAP1 DUP2 JUMP JUMPDEST PUSH2 0x18B SWAP1 SLOAD PUSH2 0x90C JUMP JUMPDEST PUSH1 0x1 PUSH2 0x931 PUSH2 0x92C DUP4 DUP4 PUSH2 0x28F JUMP JUMPDEST PUSH2 0x6C1 JUMP JUMPDEST SWAP1 PUSH1 0x0 PUSH2 0x93D DUP2 PUSH2 0x6F2 JUMP JUMPDEST SWAP3 PUSH2 0x95D PUSH20 0xFFFFFFFFFFFFFFFFFFFFFFFFFFFFFFFFFFFFFFFF DUP6 AND PUSH2 0x724 JUMP JUMPDEST EQ SWAP1 DUP2 PUSH2 0x9E3 JUMPI JUMPDEST POP PUSH2 0x9B8 JUMPI PUSH2 0x724 PUSH2 0x97D PUSH2 0x92C DUP6 PUSH2 0x997 SWAP5 PUSH2 0x28F JUMP JUMPDEST SWAP3 PUSH20 0xFFFFFFFFFFFFFFFFFFFFFFFFFFFFFFFFFFFFFFFF AND SWAP1 JUMP JUMPDEST EQ PUSH2 0x9A5 JUMPI PUSH2 0x18B SWAP1 PUSH2 0xB43 JUMP JUMPDEST PUSH2 0x9B3 PUSH2 0x18B SWAP2 PUSH1 0x2 PUSH2 0x28F JUMP JUMPDEST PUSH2 0x913 JUMP JUMPDEST PUSH1 0x40 MLOAD PUSH32 0xC2F41ADE00000000000000000000000000000000000000000000000000000000 DUP2 MSTORE PUSH1 0x4 SWAP1 REVERT JUMPDEST SWAP1 POP PUSH2 0xA03 PUSH2 0x9FF PUSH2 0x9F9 PUSH2 0x9B3 DUP8 PUSH1 0x2 PUSH2 0x28F JUMP JUMPDEST SWAP3 PUSH2 0x470 JUMP JUMPDEST SWAP2 SWAP1 JUMP JUMPDEST EQ CODESIZE PUSH2 0x965 JUMP JUMPDEST PUSH32 0x4E487B7100000000000000000000000000000000000000000000000000000000 PUSH1 0x0 MSTORE PUSH1 0x41 PUSH1 0x4 MSTORE PUSH1 0x24 PUSH1 0x0 REVERT JUMPDEST SWAP1 PUSH1 0x1F ADD PUSH32 0xFFFFFFFFFFFFFFFFFFFFFFFFFFFFFFFFFFFFFFFFFFFFFFFFFFFFFFFFFFFFFFE0 AND DUP2 ADD SWAP1 DUP2 LT PUSH8 0xFFFFFFFFFFFFFFFF DUP3 GT OR PUSH2 0xA79 JUMPI PUSH1 0x40 MSTORE JUMP JUMPDEST PUSH2 0xA0A JUMP JUMPDEST PUSH10 0xFFFFFFFFFFFFFFFFFFFF DUP2 AND PUSH2 0x1A6 JUMP JUMPDEST SWAP1 POP MLOAD SWAP1 PUSH2 0x1BF DUP3 PUSH2 0xA7E JUMP JUMPDEST SWAP1 POP MLOAD SWAP1 PUSH2 0x1BF DUP3 PUSH2 0x206 JUMP JUMPDEST SWAP2 SWAP1 PUSH1 0xA0 DUP4 DUP3 SUB SLT PUSH2 0x1AD JUMPI PUSH2 0xAC0 DUP2 DUP5 PUSH2 0xA90 JUMP JUMPDEST SWAP3 PUSH2 0xACE DUP3 PUSH1 0x20 DUP4 ADD PUSH2 0xA9D JUMP JUMPDEST SWAP3 PUSH2 0x18B PUSH2 0xADF DUP5 PUSH1 0x40 DUP6 ADD PUSH2 0xA9D JUMP JUMPDEST SWAP4 PUSH2 0xAED DUP2 PUSH1 0x60 DUP7 ADD PUSH2 0xA9D JUMP JUMPDEST SWAP4 PUSH1 0x80 ADD PUSH2 0xA90 JUMP JUMPDEST PUSH1 0x40 MLOAD RETURNDATASIZE PUSH1 0x0 DUP3 RETURNDATACOPY RETURNDATASIZE SWAP1 REVERT JUMPDEST PUSH32 0x4E487B7100000000000000000000000000000000000000000000000000000000 PUSH1 0x0 MSTORE PUSH1 0x11 PUSH1 0x4 MSTORE PUSH1 0x24 PUSH1 0x0 REVERT JUMPDEST SWAP2 SWAP1 DUP3 SUB SWAP2 DUP3 GT PUSH2 0xB3E JUMPI JUMP JUMPDEST PUSH2 0xB02 JUMP JUMPDEST PUSH1 0xA0 PUSH2 0xB6A PUSH2 0xB65 PUSH2 0xB65 PUSH2 0x92C PUSH2 0xB82 SWAP6 PUSH2 0xB5D PUSH1 0x0 SWAP1 JUMP JUMPDEST POP PUSH1 0x1 PUSH2 0x28F JUMP JUMPDEST PUSH2 0x286 JUMP JUMPDEST PUSH4 0xFEAF968C SWAP1 PUSH2 0xB79 PUSH1 0x40 MLOAD SWAP1 JUMP JUMPDEST SWAP4 DUP5 SWAP3 PUSH1 0xE0 SHL SWAP1 JUMP JUMPDEST DUP3 MSTORE PUSH1 0x4 SWAP1 DUP3 SWAP1 GAS STATICCALL DUP1 ISZERO PUSH2 0xCA2 JUMPI PUSH1 0x0 SWAP2 DUP3 SWAP2 DUP3 SWAP2 DUP3 SWAP2 PUSH2 0xC6C JUMPI JUMPDEST POP PUSH2 0xBAA PUSH1 0x0 PUSH2 0x470 JUMP JUMPDEST DUP5 SGT ISZERO PUSH2 0xC42 JUMPI PUSH10 0xFFFFFFFFFFFFFFFFFFFF SWAP1 DUP2 AND SWAP2 AND LT PUSH2 0xC17 JUMPI PUSH2 0xBD0 SWAP1 TIMESTAMP PUSH2 0xB31 JUMP JUMPDEST PUSH2 0xBDE PUSH2 0x9FF PUSH2 0x18B PUSH2 0x47D JUMP JUMPDEST GT PUSH2 0xBEC JUMPI PUSH2 0x18B SWAP1 PUSH2 0x470 JUMP JUMPDEST PUSH1 0x40 MLOAD PUSH32 0x19ABF40E00000000000000000000000000000000000000000000000000000000 DUP2 MSTORE PUSH1 0x4 SWAP1 REVERT JUMPDEST PUSH1 0x40 MLOAD PUSH32 0x4D2887100000000000000000000000000000000000000000000000000000000 DUP2 MSTORE PUSH1 0x4 SWAP1 REVERT JUMPDEST PUSH1 0x40 MLOAD PUSH31 0xBFC92100000000000000000000000000000000000000000000000000000000 DUP2 MSTORE PUSH1 0x4 SWAP1 REVERT JUMPDEST SWAP3 POP POP POP PUSH2 0xC91 SWAP2 POP PUSH1 0xA0 RETURNDATASIZE DUP2 GT PUSH2 0xC9B JUMPI JUMPDEST PUSH2 0xC89 DUP2 DUP4 PUSH2 0xA39 JUMP JUMPDEST DUP2 ADD SWAP1 PUSH2 0xAAA JUMP JUMPDEST SWAP2 SWAP4 SWAP1 SWAP3 SWAP4 PUSH2 0xB9F JUMP JUMPDEST POP RETURNDATASIZE PUSH2 0xC7F JUMP JUMPDEST PUSH2 0xAF6 JUMP JUMPDEST PUSH2 0x8F2 PUSH2 0x18B PUSH2 0x18B SWAP3 SWAP1 JUMP JUMPDEST PUSH1 0xFF DUP2 AND PUSH2 0x1A6 JUMP JUMPDEST SWAP1 POP MLOAD SWAP1 PUSH2 0x1BF DUP3 PUSH2 0xCB4 JUMP JUMPDEST SWAP1 PUSH1 0x20 DUP3 DUP3 SUB SLT PUSH2 0x1AD JUMPI PUSH2 0x18B SWAP2 PUSH2 0xCBD JUMP JUMPDEST DUP1 PUSH1 0x1 PUSH2 0xCEE PUSH2 0x92C DUP4 DUP4 PUSH2 0x28F JUMP JUMPDEST PUSH2 0xCFE PUSH2 0x724 PUSH2 0x172 PUSH1 0x0 PUSH2 0x6F2 JUMP JUMPDEST EQ PUSH2 0xD7D JUMPI PUSH2 0xD1B PUSH2 0xB65 PUSH2 0xB65 PUSH2 0x92C PUSH2 0xD2A SWAP6 PUSH1 0x20 SWAP6 PUSH2 0x28F JUMP JUMPDEST PUSH4 0x313CE567 SWAP1 PUSH2 0xB79 PUSH1 0x40 MLOAD SWAP1 JUMP JUMPDEST DUP3 MSTORE PUSH1 0x4 SWAP1 DUP3 SWAP1 GAS STATICCALL DUP1 ISZERO PUSH2 0xCA2 JUMPI PUSH2 0xD4C SWAP2 PUSH1 0x0 SWAP2 PUSH2 0xD4F JUMPI JUMPDEST POP SWAP2 PUSH2 0xB43 JUMP JUMPDEST SWAP2 JUMP JUMPDEST PUSH2 0xD70 SWAP2 POP PUSH1 0x20 RETURNDATASIZE DUP2 GT PUSH2 0xD76 JUMPI JUMPDEST PUSH2 0xD68 DUP2 DUP4 PUSH2 0xA39 JUMP JUMPDEST DUP2 ADD SWAP1 PUSH2 0xCCA JUMP JUMPDEST CODESIZE PUSH2 0xD45 JUMP JUMPDEST POP RETURNDATASIZE PUSH2 0xD5E JUMP JUMPDEST POP POP PUSH2 0xD4C PUSH2 0x9B3 PUSH2 0xD8F PUSH1 0x8 PUSH2 0xCA7 JUMP JUMPDEST SWAP3 PUSH1 0x2 PUSH2 0x28F JUMP JUMPDEST SWAP1 PUSH2 0x1BF SWAP2 PUSH2 0xDA4 PUSH2 0x715 JUMP JUMPDEST SWAP1 PUSH2 0xDB2 PUSH2 0x172 PUSH1 0x0 PUSH2 0x6F2 JUMP JUMPDEST PUSH20 0xFFFFFFFFFFFFFFFFFFFFFFFFFFFFFFFFFFFFFFFF DUP3 AND EQ PUSH2 0xE0F JUMPI PUSH2 0xDE2 DUP2 PUSH2 0xDDD DUP5 PUSH1 0x1 PUSH2 0x28F JUMP JUMPDEST PUSH2 0x876 JUMP JUMPDEST PUSH2 0x8DA PUSH2 0x8D4 PUSH32 0xA8ABE0398416476DB5B05737CD4DA3B3CBDE5012D978A6A6C3FD49D321753536 SWAP4 PUSH2 0x286 JUMP JUMPDEST PUSH1 0x40 MLOAD PUSH32 0xE358806300000000000000000000000000000000000000000000000000000000 DUP2 MSTORE PUSH1 0x4 SWAP1 REVERT JUMPDEST SWAP1 PUSH2 0x1BF SWAP2 PUSH2 0xD97 JUMP JUMPDEST SWAP1 PUSH2 0x1BF SWAP2 PUSH2 0xE51 PUSH2 0x715 JUMP JUMPDEST PUSH2 0xEA8 JUMP JUMPDEST SWAP1 PUSH32 0xFFFFFFFFFFFFFFFFFFFFFFFFFFFFFFFFFFFFFFFFFFFFFFFFFFFFFFFFFFFFFFFF SWAP1 PUSH2 0x86C JUMP JUMPDEST SWAP1 PUSH2 0xE8E PUSH2 0x18B PUSH2 0x88D SWAP3 PUSH2 0x470 JUMP JUMPDEST DUP3 SLOAD PUSH2 0xE56 JUMP JUMPDEST SWAP1 DUP2 MSTORE PUSH1 0x40 DUP2 ADD SWAP3 SWAP2 PUSH2 0x1BF SWAP2 PUSH1 0x20 ADD MSTORE JUMP JUMPDEST SWAP1 PUSH2 0xEB3 PUSH1 0x0 PUSH2 0x470 JUMP JUMPDEST DUP2 EQ PUSH2 0xC42 JUMPI PUSH2 0xECD DUP2 PUSH2 0xEC8 DUP5 PUSH1 0x2 PUSH2 0x28F JUMP JUMPDEST PUSH2 0xE7E JUMP JUMPDEST TIMESTAMP PUSH2 0xEDD DUP2 PUSH2 0xEC8 DUP6 PUSH1 0x3 PUSH2 0x28F JUMP JUMPDEST PUSH2 0xF07 PUSH32 0xF6942A0AB6B8D3D0B0F1042E35382D5FAF2AAE67DE271B8171F1AC0567C48034 SWAP4 PUSH2 0x286 JUMP JUMPDEST DUP1 SWAP4 PUSH2 0xF12 PUSH1 0x40 MLOAD SWAP1 JUMP JUMPDEST DUP5 DUP2 MSTORE PUSH1 0x20 SWAP1 LOG2 PUSH32 0xB556FAC599C3C70EFB9AB1FA725ECACE6C81CC48D1455F886607DEF065F3E0C0 SWAP2 PUSH2 0xF50 PUSH2 0xF47 PUSH1 0x40 MLOAD SWAP1 JUMP JUMPDEST SWAP3 DUP4 SWAP3 DUP4 PUSH2 0xE95 JUMP JUMPDEST SUB SWAP1 LOG2 JUMP JUMPDEST SWAP1 PUSH2 0x1BF SWAP2 PUSH2 0xE44 JUMP JUMPDEST SWAP1 PUSH2 0x1BF SWAP2 PUSH2 0xF6C PUSH2 0x715 JUMP JUMPDEST PUSH2 0xF7E JUMP JUMPDEST SWAP2 SWAP1 DUP3 ADD DUP1 SWAP3 GT PUSH2 0xB3E JUMPI JUMP JUMPDEST SWAP1 PUSH2 0xF89 PUSH1 0x0 PUSH2 0x470 JUMP JUMPDEST DUP2 EQ PUSH2 0xC42 JUMPI TIMESTAMP PUSH1 0x3 PUSH2 0xFB3 PUSH2 0x18B PUSH2 0xFA5 PUSH2 0x9B3 DUP8 DUP6 PUSH2 0x28F JUMP JUMPDEST PUSH2 0xFAD PUSH2 0x47D JUMP JUMPDEST SWAP1 PUSH2 0xF71 JUMP JUMPDEST DUP3 LT PUSH2 0xFD6 JUMPI DUP2 PUSH2 0xEC8 DUP6 PUSH2 0xEDD SWAP4 PUSH2 0xFD1 DUP8 PUSH2 0xEC8 DUP5 PUSH1 0x2 PUSH2 0x28F JUMP JUMPDEST PUSH2 0x28F JUMP JUMPDEST PUSH1 0x40 MLOAD PUSH32 0x53F7A6EE00000000000000000000000000000000000000000000000000000000 DUP2 MSTORE PUSH1 0x4 SWAP1 REVERT JUMPDEST SWAP1 PUSH2 0x1BF SWAP2 PUSH2 0xF5F JUMP JUMPDEST PUSH2 0x1BF SWAP1 PUSH2 0x1017 PUSH2 0x715 JUMP JUMPDEST PUSH2 0x1021 PUSH1 0x0 PUSH2 0x6F2 JUMP JUMPDEST PUSH2 0xDE2 DUP2 PUSH2 0xDDD DUP5 PUSH1 0x1 PUSH2 0x28F JUMP JUMPDEST PUSH2 0x1BF SWAP1 PUSH2 0x100B JUMP JUMPDEST PUSH2 0x1047 PUSH2 0x92C DUP3 PUSH1 0x1 PUSH2 0x28F JUMP JUMPDEST PUSH1 0x0 SWAP1 PUSH2 0x1059 PUSH2 0x724 PUSH2 0x172 DUP5 PUSH2 0x6F2 JUMP JUMPDEST EQ ISZERO SWAP2 DUP3 ISZERO PUSH2 0x1067 JUMPI POP POP SWAP1 JUMP JUMPDEST PUSH2 0x107E SWAP2 SWAP3 POP PUSH2 0x9F9 PUSH2 0x9B3 PUSH2 0x9FF SWAP3 PUSH1 0x2 PUSH2 0x28F JUMP JUMPDEST GT SWAP1 JUMP JUMPDEST PUSH2 0x92C PUSH2 0x18B SWAP2 PUSH2 0xB5D PUSH1 0x0 SWAP1 JUMP JUMPDEST PUSH2 0x1099 PUSH2 0x715 JUMP JUMPDEST PUSH2 0x1BF PUSH2 0x1BF PUSH2 0x1133 JUMP JUMPDEST PUSH2 0x1BF PUSH2 0x1091 JUMP JUMPDEST PUSH2 0x10B4 PUSH2 0x113B JUMP JUMPDEST PUSH2 0x1BF PUSH2 0x10F3 JUMP JUMPDEST SWAP1 PUSH21 0xFF0000000000000000000000000000000000000000 SWAP1 PUSH1 0xA0 SHL PUSH2 0x86C JUMP JUMPDEST SWAP1 PUSH2 0x10EC PUSH2 0x18B PUSH2 0x88D SWAP3 ISZERO ISZERO SWAP1 JUMP JUMPDEST DUP3 SLOAD PUSH2 0x10BC JUMP JUMPDEST PUSH2 0x10FF PUSH1 0x1 PUSH1 0x0 PUSH2 0x10DC JUMP JUMPDEST CALLER PUSH2 0x112E PUSH32 0x62E78CEA01BEE320CD4E420270B5EA74000D11B0C9F74754EBDBFC544B05A258 SWAP2 PUSH2 0x44C PUSH1 0x40 MLOAD SWAP1 JUMP JUMPDEST SUB SWAP1 LOG1 JUMP JUMPDEST PUSH2 0x1BF PUSH2 0x10AC JUMP JUMPDEST PUSH2 0x1143 PUSH2 0x902 JUMP JUMPDEST PUSH2 0x1149 JUMPI JUMP JUMPDEST PUSH1 0x40 MLOAD PUSH32 0xD93C066500000000000000000000000000000000000000000000000000000000 DUP2 MSTORE PUSH1 0x4 SWAP1 REVERT JUMPDEST PUSH2 0x117C PUSH2 0x715 JUMP JUMPDEST PUSH2 0x1BF PUSH2 0x1BF PUSH2 0x11D4 JUMP JUMPDEST PUSH2 0x1BF PUSH2 0x1174 JUMP JUMPDEST PUSH2 0x1197 PUSH2 0x11DC JUMP JUMPDEST PUSH2 0x1BF PUSH2 0x11A5 PUSH1 0x0 DUP1 PUSH2 0x10DC JUMP JUMPDEST CALLER PUSH2 0x112E PUSH32 0x5DB9EE0A495BF2E6FF9C91A7834C1BA4FDD244A5E8AA4E537BD38AEAE4B073AA SWAP2 PUSH2 0x44C PUSH1 0x40 MLOAD SWAP1 JUMP JUMPDEST PUSH2 0x1BF PUSH2 0x118F JUMP JUMPDEST PUSH2 0x11EB PUSH2 0x11E7 PUSH2 0x902 JUMP JUMPDEST ISZERO SWAP1 JUMP JUMPDEST PUSH2 0x11F1 JUMPI JUMP JUMPDEST PUSH1 0x40 MLOAD PUSH32 0x8DFC202B00000000000000000000000000000000000000000000000000000000 DUP2 MSTORE PUSH1 0x4 SWAP1 REVERT JUMPDEST SWAP1 PUSH2 0x1BF PUSH2 0x1229 PUSH1 0x40 MLOAD SWAP1 JUMP JUMPDEST SWAP3 DUP4 PUSH2 0xA39 JUMP JUMPDEST PUSH8 0xFFFFFFFFFFFFFFFF DUP2 GT PUSH2 0xA79 JUMPI PUSH1 0x20 DUP1 SWAP2 MUL ADD SWAP1 JUMP JUMPDEST SWAP1 PUSH2 0x125A PUSH2 0x1255 DUP4 PUSH2 0x1230 JUMP JUMPDEST PUSH2 0x121C JUMP JUMPDEST SWAP2 DUP3 MSTORE JUMP JUMPDEST CALLDATASIZE SWAP1 CALLDATACOPY JUMP JUMPDEST SWAP1 PUSH2 0x1BF PUSH2 0x127A PUSH2 0x1274 DUP5 PUSH2 0x1248 JUMP JUMPDEST SWAP4 PUSH2 0x1230 JUMP JUMPDEST PUSH32 0xFFFFFFFFFFFFFFFFFFFFFFFFFFFFFFFFFFFFFFFFFFFFFFFFFFFFFFFFFFFFFFE0 ADD PUSH1 0x20 DUP5 ADD PUSH2 0x125F JUMP JUMPDEST PUSH32 0xFFFFFFFFFFFFFFFFFFFFFFFFFFFFFFFFFFFFFFFFFFFFFFFFFFFFFFFFFFFFFFFF DUP2 EQ PUSH2 0xB3E JUMPI PUSH1 0x1 ADD SWAP1 JUMP JUMPDEST PUSH32 0x4E487B7100000000000000000000000000000000000000000000000000000000 PUSH1 0x0 MSTORE PUSH1 0x32 PUSH1 0x4 MSTORE PUSH1 0x24 PUSH1 0x0 REVERT JUMPDEST SWAP2 SWAP1 DUP2 LT ISZERO PUSH2 0x1311 JUMPI PUSH1 0x20 MUL ADD SWAP1 JUMP JUMPDEST PUSH2 0x12D2 JUMP JUMPDEST CALLDATALOAD PUSH2 0x18B DUP2 PUSH2 0x18E JUMP JUMPDEST SWAP1 PUSH1 0x20 DUP3 DUP3 SUB SLT PUSH2 0x1AD JUMPI PUSH2 0x18B SWAP2 PUSH2 0xA9D JUMP JUMPDEST SWAP1 PUSH2 0x133D DUP3 MLOAD SWAP1 JUMP JUMPDEST DUP2 LT ISZERO PUSH2 0x1311 JUMPI PUSH1 0x20 DUP1 SWAP2 MUL ADD ADD SWAP1 JUMP JUMPDEST DUP2 PUSH2 0x1358 DUP4 PUSH2 0x1264 JUMP JUMPDEST SWAP4 DUP5 SWAP1 PUSH2 0x1365 PUSH1 0x0 PUSH2 0x470 JUMP JUMPDEST DUP6 JUMPDEST DUP2 LT ISZERO PUSH2 0x143A JUMPI PUSH2 0x13D4 SWAP1 PUSH1 0x20 PUSH2 0x137D ADDRESS PUSH2 0x286 JUMP JUMPDEST PUSH4 0x41976E09 SWAP1 PUSH2 0x13B0 PUSH2 0x1399 PUSH2 0x1394 DUP7 DUP12 DUP14 PUSH2 0x1301 JUMP JUMPDEST PUSH2 0x1316 JUMP JUMPDEST SWAP3 PUSH2 0x13A3 PUSH1 0x40 MLOAD SWAP1 JUMP JUMPDEST SWAP7 DUP8 SWAP5 DUP6 SWAP4 DUP5 SWAP4 PUSH1 0xE0 SHL SWAP1 JUMP JUMPDEST DUP4 MSTORE PUSH20 0xFFFFFFFFFFFFFFFFFFFFFFFFFFFFFFFFFFFFFFFF AND PUSH1 0x4 DUP4 ADD MSTORE PUSH1 0x24 DUP3 ADD SWAP1 JUMP JUMPDEST SUB SWAP2 GAS STATICCALL SWAP1 DUP2 ISZERO PUSH2 0xCA2 JUMPI PUSH2 0x1400 PUSH2 0x1405 SWAP3 PUSH2 0x1367 SWAP5 PUSH1 0x0 SWAP2 PUSH2 0x140C JUMPI JUMPDEST POP PUSH2 0x13FD DUP4 DUP13 PUSH2 0x1334 JUMP JUMPDEST MSTORE JUMP JUMPDEST PUSH2 0x12A5 JUMP JUMPDEST SWAP1 POP PUSH2 0x1365 JUMP JUMPDEST PUSH2 0x142D SWAP2 POP PUSH1 0x20 RETURNDATASIZE DUP2 GT PUSH2 0x1433 JUMPI JUMPDEST PUSH2 0x1425 DUP2 DUP4 PUSH2 0xA39 JUMP JUMPDEST DUP2 ADD SWAP1 PUSH2 0x1320 JUMP JUMPDEST CODESIZE PUSH2 0x13F2 JUMP JUMPDEST POP RETURNDATASIZE PUSH2 0x141B JUMP JUMPDEST POP SWAP4 POP SWAP4 POP POP POP JUMP JUMPDEST DUP2 DUP2 MUL SWAP3 SWAP2 DUP2 ISZERO SWAP2 DUP5 DIV EQ OR ISZERO PUSH2 0xB3E JUMPI JUMP JUMPDEST PUSH32 0x4E487B7100000000000000000000000000000000000000000000000000000000 PUSH1 0x0 MSTORE PUSH1 0x12 PUSH1 0x4 MSTORE PUSH1 0x24 PUSH1 0x0 REVERT JUMPDEST DUP2 ISZERO PUSH2 0x148F JUMPI DIV SWAP1 JUMP JUMPDEST PUSH2 0x1456 JUMP JUMPDEST SWAP1 SWAP4 SWAP3 SWAP2 PUSH2 0x14C8 SWAP2 PUSH1 0x0 SWAP6 PUSH2 0x14A8 ADDRESS PUSH2 0x286 JUMP JUMPDEST SWAP1 PUSH1 0x20 PUSH4 0x41976E09 SWAP4 PUSH2 0x14BA PUSH1 0x40 MLOAD SWAP1 JUMP JUMPDEST DUP1 SWAP8 DUP2 SWAP3 PUSH2 0x13B0 DUP9 PUSH1 0xE0 SHL SWAP1 JUMP JUMPDEST SUB DUP2 DUP6 GAS STATICCALL SWAP2 DUP3 ISZERO PUSH2 0xCA2 JUMPI PUSH2 0x14FE SWAP6 PUSH1 0x0 SWAP4 PUSH2 0x1577 JUMPI JUMPDEST POP PUSH2 0x13B0 PUSH1 0x20 SWAP4 SWAP5 PUSH2 0x14F1 PUSH1 0x40 MLOAD SWAP1 JUMP JUMPDEST SWAP8 DUP9 SWAP5 DUP6 SWAP4 DUP5 SWAP4 PUSH1 0xE0 SHL SWAP1 JUMP JUMPDEST SUB SWAP2 GAS STATICCALL SWAP1 DUP2 ISZERO PUSH2 0xCA2 JUMPI PUSH2 0x1525 SWAP4 PUSH1 0x0 SWAP3 PUSH2 0x1555 JUMPI JUMPDEST POP PUSH2 0x1520 SWAP2 SWAP3 PUSH2 0x1443 JUMP JUMPDEST PUSH2 0x1485 JUMP JUMPDEST SWAP1 DUP1 DUP3 GT PUSH2 0x1531 JUMPI POP POP JUMP JUMPDEST PUSH2 0x18B SWAP3 SWAP4 POP PUSH2 0x1544 PUSH2 0x1520 SWAP2 DUP4 PUSH2 0xB31 JUMP JUMPDEST PUSH2 0x154F PUSH2 0x2710 PUSH2 0x470 JUMP JUMPDEST SWAP1 PUSH2 0x1443 JUMP JUMPDEST PUSH2 0x1520 SWAP3 POP PUSH2 0x1571 SWAP1 PUSH1 0x20 RETURNDATASIZE DUP2 GT PUSH2 0x1433 JUMPI PUSH2 0x1425 DUP2 DUP4 PUSH2 0xA39 JUMP JUMPDEST SWAP2 PUSH2 0x1515 JUMP JUMPDEST PUSH1 0x20 SWAP4 POP PUSH2 0x1594 PUSH2 0x13B0 SWAP2 DUP6 RETURNDATASIZE DUP2 GT PUSH2 0x1433 JUMPI PUSH2 0x1425 DUP2 DUP4 PUSH2 0xA39 JUMP JUMPDEST SWAP4 POP PUSH2 0x14E0 JUMP INVALID LOG2 PUSH5 0x6970667358 0x22 SLT KECCAK256 STOP GT 0xEA 0xD0 0x4C 0xEF CALLDATACOPY 0xBF 0xEF 0xC2 0x26 PUSH13 0x75B4C80E43A7FDD73089A6A27F SGT 0x2E RETURNDATACOPY SWAP11 SUB 0xC6 PUSH11 0x64736F6C63430008140033 "},"methodIdentifiers":{"MAX_PRICE_AGE()":"9d7f7e86","MIN_UPDATE_INTERVAL()":"bd3be27c","calculatePriceImpact(address,address,uint256,uint256)":"badcdc9f","fallbackPrices(address)":"241d3a0b","getChainlinkPrice(address)":"bd58fe56","getMultiplePrices(address[])":"a1c7ffb3","getPrice(address)":"41976e09","getPriceFeedAddress(address)":"b21eb1e6","getPriceWithDecimals(address)":"80536e1c","hasPriceFeed(address)":"0b7983a2","lastUpdateTime(address)":"2ce9aead","owner()":"8da5cb5b","pause()":"8456cb59","paused()":"5c975abb","priceFeeds(address)":"9dcb511a","removePriceFeed(address)":"fceb0024","renounceOwnership()":"715018a6","setFallbackPrice(address,uint256)":"d9113d71","setPriceFeed(address,address)":"76e11286","transferOwnership(address)":"f2fde38b","unpause()":"3f4ba83a","updateFallbackPrice(address,uint256)":"1c1ec22b"}}}}}