{
  "_format": "hh-sol-artifact-1",
  "contractName": "CrossChainBridge",
  "sourceName": "contracts/CrossChainBridge.sol",
  "abi": [
    {
      "inputs": [],
      "stateMutability": "nonpayable",
      "type": "constructor"
    },
    {
      "inputs": [],
      "name": "ECDSAInvalidSignature",
      "type": "error"
    },
    {
      "inputs": [
        {
          "internalType": "uint256",
          "name": "length",
          "type": "uint256"
        }
      ],
      "name": "ECDSAInvalidSignatureLength",
      "type": "error"
    },
    {
      "inputs": [
        {
          "internalType": "bytes32",
          "name": "s",
          "type": "bytes32"
        }
      ],
      "name": "ECDSAInvalidSignatureS",
      "type": "error"
    },
    {
      "inputs": [],
      "name": "EnforcedPause",
      "type": "error"
    },
    {
      "inputs": [],
      "name": "ExpectedPause",
      "type": "error"
    },
    {
      "inputs": [],
      "name": "InvalidShortString",
      "type": "error"
    },
    {
      "inputs": [
        {
          "internalType": "address",
          "name": "owner",
          "type": "address"
        }
      ],
      "name": "OwnableInvalidOwner",
      "type": "error"
    },
    {
      "inputs": [
        {
          "internalType": "address",
          "name": "account",
          "type": "address"
        }
      ],
      "name": "OwnableUnauthorizedAccount",
      "type": "error"
    },
    {
      "inputs": [],
      "name": "ReentrancyGuardReentrantCall",
      "type": "error"
    },
    {
      "inputs": [
        {
          "internalType": "address",
          "name": "token",
          "type": "address"
        }
      ],
      "name": "SafeERC20FailedOperation",
      "type": "error"
    },
    {
      "inputs": [
        {
          "internalType": "string",
          "name": "str",
          "type": "string"
        }
      ],
      "name": "StringTooLong",
      "type": "error"
    },
    {
      "anonymous": false,
      "inputs": [
        {
          "indexed": true,
          "internalType": "uint256",
          "name": "chainId",
          "type": "uint256"
        },
        {
          "indexed": false,
          "internalType": "bool",
          "name": "supported",
          "type": "bool"
        }
      ],
      "name": "ChainSupported",
      "type": "event"
    },
    {
      "anonymous": false,
      "inputs": [],
      "name": "EIP712DomainChanged",
      "type": "event"
    },
    {
      "anonymous": false,
      "inputs": [
        {
          "indexed": true,
          "internalType": "uint256",
          "name": "chainId",
          "type": "uint256"
        },
        {
          "indexed": false,
          "internalType": "uint256",
          "name": "fee",
          "type": "uint256"
        }
      ],
      "name": "FeeUpdated",
      "type": "event"
    },
    {
      "anonymous": false,
      "inputs": [
        {
          "indexed": true,
          "internalType": "uint256",
          "name": "chainId",
          "type": "uint256"
        },
        {
          "indexed": false,
          "internalType": "uint256",
          "name": "maxAmount",
          "type": "uint256"
        }
      ],
      "name": "MaxAmountUpdated",
      "type": "event"
    },
    {
      "anonymous": false,
      "inputs": [
        {
          "indexed": true,
          "internalType": "uint256",
          "name": "chainId",
          "type": "uint256"
        },
        {
          "indexed": false,
          "internalType": "uint256",
          "name": "minAmount",
          "type": "uint256"
        }
      ],
      "name": "MinAmountUpdated",
      "type": "event"
    },
    {
      "anonymous": false,
      "inputs": [
        {
          "indexed": true,
          "internalType": "address",
          "name": "previousOwner",
          "type": "address"
        },
        {
          "indexed": true,
          "internalType": "address",
          "name": "newOwner",
          "type": "address"
        }
      ],
      "name": "OwnershipTransferred",
      "type": "event"
    },
    {
      "anonymous": false,
      "inputs": [
        {
          "indexed": false,
          "internalType": "address",
          "name": "account",
          "type": "address"
        }
      ],
      "name": "Paused",
      "type": "event"
    },
    {
      "anonymous": false,
      "inputs": [
        {
          "indexed": true,
          "internalType": "address",
          "name": "token",
          "type": "address"
        },
        {
          "indexed": true,
          "internalType": "address",
          "name": "sender",
          "type": "address"
        },
        {
          "indexed": false,
          "internalType": "uint256",
          "name": "amount",
          "type": "uint256"
        },
        {
          "indexed": false,
          "internalType": "uint256",
          "name": "targetChainId",
          "type": "uint256"
        },
        {
          "indexed": false,
          "internalType": "address",
          "name": "targetRecipient",
          "type": "address"
        },
        {
          "indexed": true,
          "internalType": "bytes32",
          "name": "transferId",
          "type": "bytes32"
        },
        {
          "indexed": false,
          "internalType": "uint256",
          "name": "timestamp",
          "type": "uint256"
        }
      ],
      "name": "TokenLocked",
      "type": "event"
    },
    {
      "anonymous": false,
      "inputs": [
        {
          "indexed": true,
          "internalType": "address",
          "name": "token",
          "type": "address"
        },
        {
          "indexed": false,
          "internalType": "bool",
          "name": "supported",
          "type": "bool"
        }
      ],
      "name": "TokenSupported",
      "type": "event"
    },
    {
      "anonymous": false,
      "inputs": [
        {
          "indexed": true,
          "internalType": "address",
          "name": "token",
          "type": "address"
        },
        {
          "indexed": true,
          "internalType": "address",
          "name": "recipient",
          "type": "address"
        },
        {
          "indexed": false,
          "internalType": "uint256",
          "name": "amount",
          "type": "uint256"
        },
        {
          "indexed": false,
          "internalType": "uint256",
          "name": "sourceChainId",
          "type": "uint256"
        },
        {
          "indexed": true,
          "internalType": "bytes32",
          "name": "transferId",
          "type": "bytes32"
        },
        {
          "indexed": false,
          "internalType": "uint256",
          "name": "timestamp",
          "type": "uint256"
        }
      ],
      "name": "TokenUnlocked",
      "type": "event"
    },
    {
      "anonymous": false,
      "inputs": [
        {
          "indexed": false,
          "internalType": "address",
          "name": "account",
          "type": "address"
        }
      ],
      "name": "Unpaused",
      "type": "event"
    },
    {
      "anonymous": false,
      "inputs": [
        {
          "indexed": true,
          "internalType": "address",
          "name": "validator",
          "type": "address"
        }
      ],
      "name": "ValidatorAdded",
      "type": "event"
    },
    {
      "anonymous": false,
      "inputs": [
        {
          "indexed": true,
          "internalType": "address",
          "name": "validator",
          "type": "address"
        }
      ],
      "name": "ValidatorRemoved",
      "type": "event"
    },
    {
      "inputs": [],
      "name": "GAS_LIMIT_BUFFER",
      "outputs": [
        {
          "internalType": "uint256",
          "name": "",
          "type": "uint256"
        }
      ],
      "stateMutability": "view",
      "type": "function"
    },
    {
      "inputs": [],
      "name": "MAX_BATCH_SIZE",
      "outputs": [
        {
          "internalType": "uint256",
          "name": "",
          "type": "uint256"
        }
      ],
      "stateMutability": "view",
      "type": "function"
    },
    {
      "inputs": [],
      "name": "TRANSFER_TYPEHASH",
      "outputs": [
        {
          "internalType": "bytes32",
          "name": "",
          "type": "bytes32"
        }
      ],
      "stateMutability": "view",
      "type": "function"
    },
    {
      "inputs": [
        {
          "internalType": "address",
          "name": "validator",
          "type": "address"
        }
      ],
      "name": "addValidator",
      "outputs": [],
      "stateMutability": "nonpayable",
      "type": "function"
    },
    {
      "inputs": [
        {
          "internalType": "address[]",
          "name": "tokens",
          "type": "address[]"
        },
        {
          "internalType": "address[]",
          "name": "recipients",
          "type": "address[]"
        },
        {
          "internalType": "uint256[]",
          "name": "amounts",
          "type": "uint256[]"
        },
        {
          "internalType": "uint256[]",
          "name": "sourceChainIds",
          "type": "uint256[]"
        },
        {
          "internalType": "bytes32[]",
          "name": "transferIds",
          "type": "bytes32[]"
        },
        {
          "internalType": "bytes[]",
          "name": "signatures",
          "type": "bytes[]"
        }
      ],
      "name": "batchUnlockTokens",
      "outputs": [],
      "stateMutability": "nonpayable",
      "type": "function"
    },
    {
      "inputs": [
        {
          "internalType": "uint256",
          "name": "",
          "type": "uint256"
        }
      ],
      "name": "chainConfigs",
      "outputs": [
        {
          "internalType": "bool",
          "name": "supported",
          "type": "bool"
        },
        {
          "internalType": "uint256",
          "name": "fee",
          "type": "uint256"
        },
        {
          "internalType": "uint256",
          "name": "minAmount",
          "type": "uint256"
        },
        {
          "internalType": "uint256",
          "name": "maxAmount",
          "type": "uint256"
        },
        {
          "internalType": "uint256",
          "name": "gasLimit",
          "type": "uint256"
        },
        {
          "internalType": "uint256",
          "name": "blockTime",
          "type": "uint256"
        },
        {
          "internalType": "bool",
          "name": "requiresMultipleSignatures",
          "type": "bool"
        },
        {
          "internalType": "uint256",
          "name": "maxDailyVolume",
          "type": "uint256"
        },
        {
          "internalType": "uint256",
          "name": "dailyVolume",
          "type": "uint256"
        },
        {
          "internalType": "uint256",
          "name": "lastVolumeReset",
          "type": "uint256"
        }
      ],
      "stateMutability": "view",
      "type": "function"
    },
    {
      "inputs": [
        {
          "internalType": "uint256",
          "name": "chainId",
          "type": "uint256"
        },
        {
          "internalType": "bool",
          "name": "supported",
          "type": "bool"
        },
        {
          "internalType": "uint256",
          "name": "fee",
          "type": "uint256"
        },
        {
          "internalType": "uint256",
          "name": "minAmount",
          "type": "uint256"
        },
        {
          "internalType": "uint256",
          "name": "maxAmount",
          "type": "uint256"
        },
        {
          "internalType": "uint256",
          "name": "gasLimit",
          "type": "uint256"
        },
        {
          "internalType": "uint256",
          "name": "blockTime",
          "type": "uint256"
        },
        {
          "internalType": "bool",
          "name": "requiresMultipleSignatures",
          "type": "bool"
        },
        {
          "internalType": "uint256",
          "name": "maxDailyVolume",
          "type": "uint256"
        }
      ],
      "name": "configureChain",
      "outputs": [],
      "stateMutability": "nonpayable",
      "type": "function"
    },
    {
      "inputs": [
        {
          "internalType": "address",
          "name": "token",
          "type": "address"
        },
        {
          "internalType": "bool",
          "name": "supported",
          "type": "bool"
        },
        {
          "internalType": "uint256",
          "name": "decimals",
          "type": "uint256"
        },
        {
          "internalType": "bool",
          "name": "isNative",
          "type": "bool"
        },
        {
          "internalType": "uint256",
          "name": "maxDailyVolume",
          "type": "uint256"
        }
      ],
      "name": "configureToken",
      "outputs": [],
      "stateMutability": "nonpayable",
      "type": "function"
    },
    {
      "inputs": [],
      "name": "eip712Domain",
      "outputs": [
        {
          "internalType": "bytes1",
          "name": "fields",
          "type": "bytes1"
        },
        {
          "internalType": "string",
          "name": "name",
          "type": "string"
        },
        {
          "internalType": "string",
          "name": "version",
          "type": "string"
        },
        {
          "internalType": "uint256",
          "name": "chainId",
          "type": "uint256"
        },
        {
          "internalType": "address",
          "name": "verifyingContract",
          "type": "address"
        },
        {
          "internalType": "bytes32",
          "name": "salt",
          "type": "bytes32"
        },
        {
          "internalType": "uint256[]",
          "name": "extensions",
          "type": "uint256[]"
        }
      ],
      "stateMutability": "view",
      "type": "function"
    },
    {
      "inputs": [
        {
          "internalType": "address",
          "name": "token",
          "type": "address"
        },
        {
          "internalType": "address",
          "name": "to",
          "type": "address"
        },
        {
          "internalType": "uint256",
          "name": "amount",
          "type": "uint256"
        }
      ],
      "name": "emergencyWithdraw",
      "outputs": [],
      "stateMutability": "nonpayable",
      "type": "function"
    },
    {
      "inputs": [
        {
          "internalType": "uint256",
          "name": "chainId",
          "type": "uint256"
        }
      ],
      "name": "estimateGasForUnlock",
      "outputs": [
        {
          "internalType": "uint256",
          "name": "",
          "type": "uint256"
        }
      ],
      "stateMutability": "view",
      "type": "function"
    },
    {
      "inputs": [
        {
          "internalType": "address",
          "name": "token",
          "type": "address"
        }
      ],
      "name": "getBridgeBalance",
      "outputs": [
        {
          "internalType": "uint256",
          "name": "",
          "type": "uint256"
        }
      ],
      "stateMutability": "view",
      "type": "function"
    },
    {
      "inputs": [
        {
          "internalType": "uint256",
          "name": "chainId",
          "type": "uint256"
        }
      ],
      "name": "getChainConfig",
      "outputs": [
        {
          "components": [
            {
              "internalType": "bool",
              "name": "supported",
              "type": "bool"
            },
            {
              "internalType": "uint256",
              "name": "fee",
              "type": "uint256"
            },
            {
              "internalType": "uint256",
              "name": "minAmount",
              "type": "uint256"
            },
            {
              "internalType": "uint256",
              "name": "maxAmount",
              "type": "uint256"
            },
            {
              "internalType": "uint256",
              "name": "gasLimit",
              "type": "uint256"
            },
            {
              "internalType": "uint256",
              "name": "blockTime",
              "type": "uint256"
            },
            {
              "internalType": "bool",
              "name": "requiresMultipleSignatures",
              "type": "bool"
            },
            {
              "internalType": "uint256",
              "name": "maxDailyVolume",
              "type": "uint256"
            },
            {
              "internalType": "uint256",
              "name": "dailyVolume",
              "type": "uint256"
            },
            {
              "internalType": "uint256",
              "name": "lastVolumeReset",
              "type": "uint256"
            }
          ],
          "internalType": "struct CrossChainBridge.ChainConfig",
          "name": "",
          "type": "tuple"
        }
      ],
      "stateMutability": "view",
      "type": "function"
    },
    {
      "inputs": [
        {
          "internalType": "address",
          "name": "token",
          "type": "address"
        }
      ],
      "name": "getTokenConfig",
      "outputs": [
        {
          "components": [
            {
              "internalType": "bool",
              "name": "supported",
              "type": "bool"
            },
            {
              "internalType": "uint256",
              "name": "decimals",
              "type": "uint256"
            },
            {
              "internalType": "bool",
              "name": "isNative",
              "type": "bool"
            },
            {
              "internalType": "uint256",
              "name": "maxDailyVolume",
              "type": "uint256"
            },
            {
              "internalType": "uint256",
              "name": "dailyVolume",
              "type": "uint256"
            },
            {
              "internalType": "uint256",
              "name": "lastVolumeReset",
              "type": "uint256"
            }
          ],
          "internalType": "struct CrossChainBridge.TokenConfig",
          "name": "",
          "type": "tuple"
        }
      ],
      "stateMutability": "view",
      "type": "function"
    },
    {
      "inputs": [
        {
          "internalType": "bytes32",
          "name": "transferId",
          "type": "bytes32"
        }
      ],
      "name": "isTransferProcessed",
      "outputs": [
        {
          "internalType": "bool",
          "name": "",
          "type": "bool"
        }
      ],
      "stateMutability": "view",
      "type": "function"
    },
    {
      "inputs": [
        {
          "internalType": "address",
          "name": "token",
          "type": "address"
        },
        {
          "internalType": "uint256",
          "name": "amount",
          "type": "uint256"
        },
        {
          "internalType": "uint256",
          "name": "targetChainId",
          "type": "uint256"
        },
        {
          "internalType": "address",
          "name": "targetRecipient",
          "type": "address"
        }
      ],
      "name": "lockTokens",
      "outputs": [],
      "stateMutability": "nonpayable",
      "type": "function"
    },
    {
      "inputs": [],
      "name": "owner",
      "outputs": [
        {
          "internalType": "address",
          "name": "",
          "type": "address"
        }
      ],
      "stateMutability": "view",
      "type": "function"
    },
    {
      "inputs": [],
      "name": "pause",
      "outputs": [],
      "stateMutability": "nonpayable",
      "type": "function"
    },
    {
      "inputs": [],
      "name": "paused",
      "outputs": [
        {
          "internalType": "bool",
          "name": "",
          "type": "bool"
        }
      ],
      "stateMutability": "view",
      "type": "function"
    },
    {
      "inputs": [
        {
          "internalType": "bytes32",
          "name": "",
          "type": "bytes32"
        }
      ],
      "name": "processedTransfers",
      "outputs": [
        {
          "internalType": "bool",
          "name": "",
          "type": "bool"
        }
      ],
      "stateMutability": "view",
      "type": "function"
    },
    {
      "inputs": [
        {
          "internalType": "address",
          "name": "validator",
          "type": "address"
        }
      ],
      "name": "removeValidator",
      "outputs": [],
      "stateMutability": "nonpayable",
      "type": "function"
    },
    {
      "inputs": [],
      "name": "renounceOwnership",
      "outputs": [],
      "stateMutability": "nonpayable",
      "type": "function"
    },
    {
      "inputs": [],
      "name": "requiredSignatures",
      "outputs": [
        {
          "internalType": "uint256",
          "name": "",
          "type": "uint256"
        }
      ],
      "stateMutability": "view",
      "type": "function"
    },
    {
      "inputs": [
        {
          "internalType": "uint256",
          "name": "_requiredSignatures",
          "type": "uint256"
        }
      ],
      "name": "setRequiredSignatures",
      "outputs": [],
      "stateMutability": "nonpayable",
      "type": "function"
    },
    {
      "inputs": [
        {
          "internalType": "address",
          "name": "",
          "type": "address"
        }
      ],
      "name": "tokenConfigs",
      "outputs": [
        {
          "internalType": "bool",
          "name": "supported",
          "type": "bool"
        },
        {
          "internalType": "uint256",
          "name": "decimals",
          "type": "uint256"
        },
        {
          "internalType": "bool",
          "name": "isNative",
          "type": "bool"
        },
        {
          "internalType": "uint256",
          "name": "maxDailyVolume",
          "type": "uint256"
        },
        {
          "internalType": "uint256",
          "name": "dailyVolume",
          "type": "uint256"
        },
        {
          "internalType": "uint256",
          "name": "lastVolumeReset",
          "type": "uint256"
        }
      ],
      "stateMutability": "view",
      "type": "function"
    },
    {
      "inputs": [
        {
          "internalType": "address",
          "name": "newOwner",
          "type": "address"
        }
      ],
      "name": "transferOwnership",
      "outputs": [],
      "stateMutability": "nonpayable",
      "type": "function"
    },
    {
      "inputs": [
        {
          "internalType": "address",
          "name": "token",
          "type": "address"
        },
        {
          "internalType": "address",
          "name": "recipient",
          "type": "address"
        },
        {
          "internalType": "uint256",
          "name": "amount",
          "type": "uint256"
        },
        {
          "internalType": "uint256",
          "name": "sourceChainId",
          "type": "uint256"
        },
        {
          "internalType": "bytes32",
          "name": "transferId",
          "type": "bytes32"
        },
        {
          "internalType": "bytes",
          "name": "signatures",
          "type": "bytes"
        }
      ],
      "name": "unlockTokens",
      "outputs": [],
      "stateMutability": "nonpayable",
      "type": "function"
    },
    {
      "inputs": [],
      "name": "unpause",
      "outputs": [],
      "stateMutability": "nonpayable",
      "type": "function"
    },
    {
      "inputs": [],
      "name": "validatorCount",
      "outputs": [
        {
          "internalType": "uint256",
          "name": "",
          "type": "uint256"
        }
      ],
      "stateMutability": "view",
      "type": "function"
    },
    {
      "inputs": [
        {
          "internalType": "address",
          "name": "",
          "type": "address"
        }
      ],
      "name": "validatorNonces",
      "outputs": [
        {
          "internalType": "uint256",
          "name": "",
          "type": "uint256"
        }
      ],
      "stateMutability": "view",
      "type": "function"
    },
    {
      "inputs": [
        {
          "internalType": "address",
          "name": "",
          "type": "address"
        }
      ],
      "name": "validators",
      "outputs": [
        {
          "internalType": "bool",
          "name": "",
          "type": "bool"
        }
      ],
      "stateMutability": "view",
      "type": "function"
    }
  ],
  "bytecode": "0x6103606040523462000069576200001562000212565b604051613c2b62000ee08239608051816136ea015260a05181613717015260c051816136b7015260e051816137b8015261010051816137940152610120518161127b015261014051816114e30152613c2b90f35b600080fd5b634e487b7160e01b600052604160045260246000fd5b90601f01601f191681019081106001600160401b03821117620000a657604052565b6200006e565b90620000c3620000bb60405190565b928362000084565b565b6001600160401b038111620000a657602090601f01601f19160190565b0190565b90620000fc620000f683620000c5565b620000ac565b918252565b6200010d6010620000e6565b6f43726f7373436861696e42726964676560801b602082015290565b6200013362000101565b90565b620001426003620000e6565b620312e360ec1b602082015290565b6200013362000136565b620001339062000171906001600160a01b031682565b6001600160a01b031690565b62000133906200015b565b62000133906200017d565b906200019f9062000188565b600052602052604060002090565b9060ff905b9181191691161790565b90620001cf62000133620001d792151590565b8254620001ad565b9055565b6200013362000133620001339290565b9060001990620001b2565b906200020a62000133620001d792620001db565b8254620001eb565b620002736200025e62000252620002586200022c62000129565b620002456200023a62000151565b91339283916200027d565b6001928391600762000193565b620001bc565b620001db565b6200026b81600a620001f6565b6009620001f6565b620000c3620008c3565b620002b69062000291620002d19462000304565b6200029e60028262000683565b61012052620002af60038462000683565b6101405290565b620002ca620002c3825190565b9160200190565b2060e05290565b620002de620002c3825190565b20610100524660a052620002f162000847565b608052620002ff3062000188565b60c052565b620000c3906200034b565b6200017162000133620001339290565b62000133906200030f565b620003359062000171565b9052565b602081019291620000c391906200032a565b62000355620003b3565b6200036160006200031f565b6200036c8162000171565b620003778362000171565b14620003895750620000c3906200042d565b620003af906200039860405190565b631e4fbdf760e01b81529182916004830162000339565b0390fd5b620000c3620000c3620003cd565b620001336001620001db565b620000c3620003db620003c1565b6000620001f6565b620001339060081c62000171565b620001339054620003e3565b90610100600160a81b039060081b620001b2565b906200042562000133620001d79262000188565b8254620003fd565b620004396001620003f1565b906200044781600162000411565b6200047e620004777f8be0079c531659141344cd1fd0a4f28419497f9722a3daafe3b4186f6b6457e09362000188565b9162000188565b916200048960405190565b600090a3565b634e487b7160e01b600052602260045260246000fd5b9060016002830492168015620004c8575b6020831014620004c257565b6200048f565b91607f1691620004b6565b9160001960089290920291821b911b620001b2565b9190620004fd62000133620001d793620001db565b908354620004d3565b620000c391600091620004e8565b81811062000520575050565b8062000530600060019362000506565b0162000514565b9190601f81116200054757505050565b6200055b620000c393600052602060002090565b906020601f8401819004830193106200057f575b6020601f90910104019062000514565b90915081906200056f565b9062000594815190565b906001600160401b038211620000a657620005bc82620005b58554620004a5565b8562000537565b602090601f8311600114620005fb57620001d7929160009183620005ef575b5050600019600883021c1916906002021790565b015190503880620005db565b601f198316916200061185600052602060002090565b9260005b818110620006525750916002939185600196941062000638575b50505002019055565b01516000196008601f8516021c191690553880806200062f565b9193602060018192878701518155019501920162000615565b90620000c3916200058a565b6200013360ff620001db565b805162000699620006956020620001db565b9190565b1015620006ac576200013391506200078c565b6000620006ba620006c19390565b016200066b565b620001336200013362000677565b60005b838110620006e35750506000910152565b8181015183820152602001620006d2565b6200071962000723602093620000e2936200070d815190565b80835293849260200190565b95869101620006cf565b601f01601f191690565b60208082526200013392910190620006f4565b6200075c6200075862000751835190565b9260200190565b5190565b90602081106200076a575090565b6200077d90600019906020036008021b90565b1690565b6200013390620001db565b8062000796825190565b620007a662000695601f620001db565b11620007db57506200013381620007d4620007cf620007c9620001339562000740565b62000781565b915190565b17620001db565b620003af90620007ea60405190565b63305a27a960e01b8152918291600483016200072d565b90959492620000c394620008386200083f92620008316080966200082a60a088019c6000890152565b6020870152565b6040850152565b6060830152565b01906200032a565b7f8b73c3c69bb8fe3d512ecc4cf759cc79239f7b179b0ffacaa9a75d522b39400f620008b26200087660e05190565b6101005192620008a5466200088b3062000188565b906200089660405190565b96879560208701958662000801565b9081038252038262000084565b620008bf620002c3825190565b2090565b620008cf6001620001db565b61030052620008df600a620001db565b6102e052620008f5662386f26fc10000620001db565b610340526200090d683635c9adc5dea00000620001db565b610320526200091f620493e0620001db565b610280526200092f600c620001db565b610260526200094869d3c21bcecceda1000000620001db565b6102c052620009766102c0516000610260516102805161032051610340516102e05160016103005162000e29565b620009826089620001db565b6102a052620009926005620001db565b61024052620009a26002620001db565b6101e052620009bc6a0422ca8b0a00a425000000620001db565b61020052620009ea6102005160006101e051610280516102c051610340516102405160016102a05162000e29565b620009f66038620001db565b6102205262000a066003620001db565b6101c05262000a346102005160006101c051610280516102c051610340516102405160016102205162000e29565b62000a4060fa620001db565b6101a05262000a526203d090620001db565b6101805262000a6c6a027b46536c66c8e3000000620001db565b6101605262000a9a61016051600061030051610180516102c051610340516101c05160016101a05162000e29565b62000ade620c3500600062000abc62000ab561a86a620001db565b92620001db565b9161016051926101e051916102c0519061034051906001610240519162000e29565b62000b1b620f4240600062000af962000ab561a4b1620001db565b91610200519261030051916102c05190610340519060016101c0519162000e29565b62000b456102005160006101e051610280516102c051610340516101c05160016102e05162000e29565b62000b7b62000b56610324620001db565b610200516101c051610280516102c05161034051939460009490849060019062000e29565b62000c30600062000bcb62000b916064620001db565b62000ba76a01a784379d99db42000000620001db565b928391610240519061028051906102c0519061034051906001610240519162000e29565b62000c0081600062000bdf612105620001db565b6101e0519061028051906102c0519061034051906001610240519162000e29565b600062000c0f61e708620001db565b610260519061028051906102c0519061034051906001610240519162000e29565b62000c6862000c4161044d620001db565b6101605161030051610280516102c051610340516101c05194956000959060019062000e29565b62000c7962000c41610144620001db565b62000cb262000c8b62082750620001db565b610160516101e051610280516102c051610340516101c05194956000959060019062000e29565b620000c362000cc3610504620001db565b62000cfa62000cd5620249f0620001db565b9160006102c051918461026051916102c0519061034051906001610240519162000e29565b600062000d09610505620001db565b6102c0519261026051916102c0519061034051906001610240519162000e29565b62000133610140620000ac565b906200019f90620001db565b620000c3919062000d80906101209060099062000d6c8162000d658751151590565b90620001bc565b62000d876001820162000d80602088015190565b90620001f6565b62000d9b6002820162000d80604088015190565b62000daf6003820162000d80606088015190565b62000dc36004820162000d80608088015190565b62000dd76005820162000d8060a088015190565b62000ded6006820162000d6560c0880151151590565b62000e016007820162000d8060e088015190565b62000e166008820162000d8061010088015190565b0192015190565b90620000c39162000d43565b96919590979294600094429662000e3f62000d2a565b8b1515888201529860208a015260408901526060880152608087015260a0860152151560c085015260e084015262000e7790620001db565b61010083015261012082015262000e9082600562000d37565b9062000e9c9162000e1d565b7fe78910fc1a08062969a9edf6b274d453a04a1734507fabbd5bb445d5cb8eaeae9062000ec990620001db565b9162000ed460405190565b9015158152602090a256fe60c0604052600436101561001257600080fd5b60003560e01c8062bf26f414610201578063032f42df146101fc578063035124db146101f7578063058c055f146101f25780630aa393f3146101ed5780630d171620146101e85780630f43a677146101e357806319ed16dc146101de5780631b69dc5f146101d957806327984a12146101d45780633f4ba83a146101cf57806340a141ff146101ca578063463c8c5f146101c55780634d238c8e146101c057806351bfbc32146101bb5780635c975abb146101b6578063715018a6146101b15780637d2b9cc0146101ac5780638456cb59146101a757806384b0196e146101a2578063878671581461019d5780638d068043146101985780638da5cb5b14610193578063b983b3631461018e578063cb67e3b114610189578063cfdbf25414610184578063da7869391461017f578063dd910d751461017a578063e63ea40814610175578063f2fde38b146101705763fa52c7d80361021157610eb7565b610e8d565b610e74565b610e29565b610dd9565b610dbe565b610d85565b610d0d565b610c2e565b610c13565b610beb565b610b6b565b6109e3565b6109cb565b6109b3565b610998565b61095e565b610868565b610840565b61071e565b610706565b6106e4565b610615565b610525565b61046a565b610430565b6103fb565b610391565b610376565b610288565b61021f565b600091031261021157565b600080fd5b90565b9052565b565b346102115761022f366004610206565b6102647f9d2aa5d95451107a2dc454868636064e34f1c672736063e4d7eb2141f86872c45b6040519182918290815260200190565b0390f35b6102166102166102169290565b61021661c350610268565b610216610275565b3461021157610298366004610206565b610264610254610280565b73ffffffffffffffffffffffffffffffffffffffff1690565b73ffffffffffffffffffffffffffffffffffffffff81165b0361021157565b9050359061021d826102bc565b9060208282031261021157610216916102db565b6102a36102166102169273ffffffffffffffffffffffffffffffffffffffff1690565b610216906102fc565b6102169061031f565b9061033b90610328565b600052602052604060002090565b610216916008021c81565b906102169154610349565b61021690610371600891600092610331565b610354565b346102115761026461025461038c3660046102e8565b61035f565b34610211576102646102546103a73660046102e8565b612f44565b806102d4565b9050359061021d826103ac565b608081830312610211576103d382826102db565b926102166103e484602085016103b2565b936103f281604086016103b2565b936060016102db565b346102115761041761040e3660046103bf565b92919091611c90565b604051005b9060208282031261021157610216916103b2565b346102115761026461044b61044636600461041c565b612f0c565b6040515b91829182901515815260200190565b6102166000600a610354565b346102115761047a366004610206565b61026461025461045e565b80511515825261021d91906101209081906104a560208201516020860152565b6104b460408201516040860152565b6104c360608201516060860152565b6104d260808201516080860152565b6104e160a082015160a0860152565b60c0818101511515908501526104fc60e082015160e0860152565b61050d610100820151610100860152565b0151910152565b6101408101929161021d9190610485565b346102115761026461054061053b36600461041c565b612e3c565b60405191829182610514565b610216905b60ff1690565b610216905461054c565b6102169081565b6102169054610561565b61057d906006610331565b9061058782610557565b9161059460018201610568565b916105a160028301610557565b916105ae60038201610568565b9161021660056105c060048501610568565b9301610568565b919461060a6106119298979561060360a0966105fa61021d9a6105f360c08a019e60008b019015159052565b6020890152565b15156040870152565b6060850152565b6080830152565b0152565b346102115761026461063061062b3660046102e8565b610572565b9261064096949692919260405190565b968796876105c7565b8015156102d4565b9050359061021d82610649565b9091610120828403126102115761067583836103b2565b926106838160208501610651565b9261069182604083016103b2565b9261069f83606084016103b2565b926106ad81608085016103b2565b926106bb8260a083016103b2565b926102166106cc8460c085016103b2565b936106da8160e08601610651565b93610100016103b2565b34610211576104176106f736600461065e565b9796909695919594929461152e565b3461021157610716366004610206565b610417613b63565b34610211576104176107313660046102e8565b612a59565b909182601f830112156102115781359167ffffffffffffffff831161021157602001926020830284011161021157565b909160c08284031261021157813567ffffffffffffffff8111610211578361078f918401610736565b929093602082013567ffffffffffffffff811161021157816107b2918401610736565b929093604082013567ffffffffffffffff811161021157836107d5918401610736565b929093606082013567ffffffffffffffff811161021157816107f8918401610736565b929093608082013567ffffffffffffffff8111610211578361081b918401610736565b92909360a082013567ffffffffffffffff81116102115761083c9201610736565b9091565b3461021157610417610853366004610766565b9a9990999891989792979693969594956126f3565b346102115761041761087b3660046102e8565b6128bc565b9061033b90610268565b610895906005610880565b9061089f82610557565b916108ac60018201610568565b916108b960028301610568565b916108c660038201610568565b916108d360048301610568565b916108e060058201610568565b916108ed60068301610557565b916108fa60078201610568565b9161021660096105c060088501610568565b979593919a9998969492909a61014089019b60008a0161092c9115159052565b602089015260408801526060870152608086015260a0850152151560c084015260e08301526101008201526101200152565b346102115761026461097961097436600461041c565b61088a565b9661098f9a989a96919695929594939460405190565b9a8b9a8b61090c565b34610211576109a8366004610206565b61026461044b61110b565b34610211576109c3366004610206565b610417610f2a565b34610211576104176109de36600461041c565b612bc1565b34610211576109f3366004610206565b610417613af6565b60005b838110610a0e5750506000910152565b81810151838201526020016109fe565b610a3f610a48602093610a7093610a33815190565b80835293849260200190565b958691016109fb565b601f017fffffffffffffffffffffffffffffffffffffffffffffffffffffffffffffffe01690565b0190565b90610a94610a8d610a83845190565b8084529260200190565b9260200190565b9060005b818110610aa55750505090565b909192610ac2610abb6001928651815260200190565b9460200190565b929101610a98565b93959194610b3a610b32610b5e95610b24610b57956102169c9a610b1760e08c019260008d01907fff00000000000000000000000000000000000000000000000000000000000000169052565b8a820360208c0152610a1e565b9088820360408a0152610a1e565b976060870152565b73ffffffffffffffffffffffffffffffffffffffff166080850152565b60a0830152565b60c0818403910152610a74565b3461021157610b7b366004610206565b610264610b86611212565b93610b9697959793919360405190565b97889788610aca565b919060a08382031261021157610bb581846102db565b92610bc38260208301610651565b92610216610bd484604085016103b2565b93610be28160608601610651565b936080016103b2565b3461021157610417610bfe366004610b9f565b93929092612cf6565b61021660006009610354565b3461021157610c23366004610206565b610264610254610c07565b3461021157610c3e366004610206565b610264610c49610ee8565b6040515b9182918273ffffffffffffffffffffffffffffffffffffffff909116815260200190565b909182601f830112156102115781359167ffffffffffffffff831161021157602001926001830284011161021157565b9160c08383031261021157610cb682846102db565b92610cc483602083016102db565b92610cd281604084016103b2565b92610ce082606085016103b2565b92610cee83608083016103b2565b9260a082013567ffffffffffffffff81116102115761083c9201610c71565b3461021157610417610d20366004610ca1565b95949094939193612222565b80511515825261021d919060a0908190610d4b60208201516020860152565b604081810151151590850152610d6660608201516060860152565b61050d60808201516080860152565b60c08101929161021d9190610d2c565b3461021157610264610da0610d9b3660046102e8565b612ef0565b60405191829182610d75565b610216600a610268565b610216610dac565b3461021157610dce366004610206565b610264610254610db6565b3461021157610264610254610def36600461041c565b612ffb565b9061033b565b610216916008021c610551565b906102169154610dfa565b61021690610e24600491600092610df4565b610e07565b346102115761026461044b610e3f36600461041c565b610e12565b909160608284031261021157610216610e5d84846102db565b93610e6b81602086016102db565b936040016103b2565b3461021157610417610e87366004610e44565b91613ad8565b3461021157610417610ea03660046102e8565b611068565b61021690610e24600791600092610331565b346102115761026461044b610ecd3660046102e8565b610ea5565b6102169060081c6102a3565b6102169054610ed2565b6102166001610ede565b610efa610f32565b61021d610f18565b6102a36102166102169290565b61021690610f02565b61021d610f256000610f0f565b6110b2565b61021d610ef2565b610f3a610ee8565b3390610f5b825b9173ffffffffffffffffffffffffffffffffffffffff1690565b03610f635750565b610fba90610f7060405190565b9182917f118cdaa70000000000000000000000000000000000000000000000000000000083526004830173ffffffffffffffffffffffffffffffffffffffff909116815260200190565b0390fd5b61021d90610fca610f32565b610fd46000610f0f565b73ffffffffffffffffffffffffffffffffffffffff811673ffffffffffffffffffffffffffffffffffffffff831614611011575061021d906110b2565b610fba9061101e60405190565b9182917f1e4fbdf70000000000000000000000000000000000000000000000000000000083526004830173ffffffffffffffffffffffffffffffffffffffff909116815260200190565b61021d90610fbe565b9074ffffffffffffffffffffffffffffffffffffffff009060081b5b9181191691161790565b906110a76102166110ae92610328565b8254611071565b9055565b6110bc6001610ede565b906110c8816001611097565b6110fb6110f57f8be0079c531659141344cd1fd0a4f28419497f9722a3daafe3b4186f6b6457e093610328565b91610328565b9161110560405190565b600090a3565b6102166001610557565b7f4e487b7100000000000000000000000000000000000000000000000000000000600052604160045260246000fd5b90601f017fffffffffffffffffffffffffffffffffffffffffffffffffffffffffffffffe016810190811067ffffffffffffffff82111761118457604052565b611115565b9061021d61119660405190565b9283611144565b67ffffffffffffffff81116111845760208091020190565b906111c76111c28361119d565b611189565b918252565b369037565b9061021d6111e76111e1846111b5565b9361119d565b7fffffffffffffffffffffffffffffffffffffffffffffffffffffffffffffffe001602084016111cc565b61121a611276565b906112236114de565b90469061122f30610328565b9060009061124d61124861124284610268565b93610268565b6111d1565b7f0f00000000000000000000000000000000000000000000000000000000000000969594939291565b6102167f000000000000000000000000000000000000000000000000000000000000000060025b906113be565b61021660ff610268565b7f4e487b7100000000000000000000000000000000000000000000000000000000600052602260045260246000fd5b90600160028304921680156112fc575b60208310146112f757565b6112ad565b91607f16916112ec565b80546000939291611323611319836112dc565b8085529360200190565b9160018116908115611375575060011461133c57505050565b61134f9192939450600052602060002090565b916000925b8184106113615750500190565b805484840152602090930192600101611354565b92949550505060ff1916825215156020020190565b9061021691611306565b9061021d6113ae926113a560405190565b9384809261138a565b0383611144565b61021690611394565b90816113d26113ce6102166112a3565b9190565b146113e1575061021690611449565b61021691506113b5565b67ffffffffffffffff811161118457602090601f017fffffffffffffffffffffffffffffffffffffffffffffffffffffffffffffffe0160190565b906111c76111c2836113eb565b9061021d6111e761144384611426565b936113eb565b6114528161147d565b90602061146661146182610268565b611433565b92835282015290565b61021690610268565b610268565b6114906114959161148c600090565b5090565b61146f565b61149f60ff610268565b166114aa601f610268565b81116114b35790565b6040517fb3512b0c000000000000000000000000000000000000000000000000000000008152600490fd5b6102167f0000000000000000000000000000000000000000000000000000000000000000600361129d565b9061021d989796959493929161151d610f32565b9061021d9897969594939291611677565b9061021d9897969594939291611509565b610216610140611189565b9060ff9061108d565b906115636102166110ae92151590565b825461154a565b907fffffffffffffffffffffffffffffffffffffffffffffffffffffffffffffffff9061108d565b906115a26102166110ae92610268565b825461156a565b61021d91906115df90610120906009906115cd816115c78751151590565b90611553565b6115e5600182016115df602088015190565b90611592565b6115f7600282016115df604088015190565b611609600382016115df606088015190565b61161b600482016115df608088015190565b61162d600582016115df60a088015190565b611641600682016115c760c0880151151590565b611653600782016115df60e088015190565b611666600882016115df61010088015190565b0192015190565b9061021d916115a9565b96919590979294600094429661168b61153f565b8b1515888201529860208a015260408901526060880152608087015260a0860152151560c085015260e08401526116c190610268565b6101008301526101208201526116d8826005610880565b906116e29161166d565b7fe78910fc1a08062969a9edf6b274d453a04a1734507fabbd5bb445d5cb8eaeae9061170d90610268565b9161171760405190565b901515815280602081015b0390a2565b9061173b939291611736611ec4565b611743565b61021d611f1d565b9061021d939291611752611e81565b611ab6565b1561175e57565b6040517f08c379a000000000000000000000000000000000000000000000000000000000815260206004820152601b60248201527f4272696467653a20546f6b656e206e6f7420737570706f7274656400000000006044820152606490fd5b156117c457565b6040517f08c379a000000000000000000000000000000000000000000000000000000000815260206004820152601b60248201527f4272696467653a20436861696e206e6f7420737570706f7274656400000000006044820152606490fd5b1561182a57565b6040517f08c379a000000000000000000000000000000000000000000000000000000000815260206004820152602560248201527f4272696467653a20416d6f756e74206d7573742062652067726561746572207460448201527f68616e20300000000000000000000000000000000000000000000000000000006064820152608490fd5b156118b657565b6040517f08c379a000000000000000000000000000000000000000000000000000000000815260206004820152601960248201527f4272696467653a20496e76616c696420726563697069656e74000000000000006044820152606490fd5b1561191c57565b6040517f08c379a000000000000000000000000000000000000000000000000000000000815260206004820152601c60248201527f4272696467653a20416d6f756e742062656c6f77206d696e696d756d000000006044820152606490fd5b1561198257565b6040517f08c379a000000000000000000000000000000000000000000000000000000000815260206004820152601c60248201527f4272696467653a20416d6f756e742061626f7665206d6178696d756d000000006044820152606490fd5b7f4e487b7100000000000000000000000000000000000000000000000000000000600052601160045260246000fd5b81810292918115918404141715611a2357565b6119e1565b7f4e487b7100000000000000000000000000000000000000000000000000000000600052601260045260246000fd5b8115611a61570490565b611a28565b91908203918211611a2357565b61061161021d94611a99606094989795611a92608086019a6000870152565b6020850152565b73ffffffffffffffffffffffffffffffffffffffff166040830152565b80926006611ac48382610331565b611acd90610557565b611ad690611757565b600590611ae38383610880565b611aec90610557565b611af5906117bd565b600091611b0183610268565b8611611b0c90611823565b83611b1684610f0f565b73ffffffffffffffffffffffffffffffffffffffff1673ffffffffffffffffffffffffffffffffffffffff8a161415611b4e906118af565b611b5791610880565b95611b6191610331565b90611b6e60028701610568565b851015611b7a90611915565b611b8660038701610568565b851115611b929061197b565b611b9d858388613968565b611ba960018701610568565b611bb39086611a10565b611bbe612710610268565b611bc791611a57565b90611bd28287611a66565b928391611bde87610328565b90339830611beb90610328565b90611bf7918b85611d7d565b611c0090610268565b841193611c2194611c77575b5050611c1b8986848a8a613081565b976139ee565b611c7242611c5f611c5b611c557ff8fd5db625e6d06107408fef5775ec85ad3cb85dc4f008a7768f3ca9afa12e1e97610328565b97610328565b9790565b97611c6960405190565b94859485611a73565b0390a4565b611c8991611c83610ee8565b90611d04565b3880611c0c565b9061021d939291611727565b611cb5611caf6102169263ffffffff1690565b60e01b90565b7fffffffff000000000000000000000000000000000000000000000000000000001690565b73ffffffffffffffffffffffffffffffffffffffff909116815260408101929161021d9160200152565b611d47600492611d3861021d95611d1e63a9059cbb611c9c565b92611d2860405190565b9687946020860190815201611cda565b60208201810382520383611144565b611db3565b73ffffffffffffffffffffffffffffffffffffffff91821681529116602082015260608101929161021d9160400152565b90611d4790611d3861021d95600495611d996323b872dd611c9c565b93611da360405190565b9788956020870190815201611d4c565b906000602091611dc1600090565b50828151910182855af115611e7557600080513d611de16113ce84610268565b03611e5f5750611dfd6113ce611df684610328565b3b92610268565b145b611e065750565b611e12610fba91610328565b6040519182917f5274afe70000000000000000000000000000000000000000000000000000000083526004830173ffffffffffffffffffffffffffffffffffffffff909116815260200190565b9050611e6e6113ce6001610268565b1415611dff565b6040513d6000823e3d90fd5b611e8961110b565b611e8f57565b6040517fd93c0665000000000000000000000000000000000000000000000000000000008152600490fd5b6102166002610268565b611ece6000610568565b611ed6611eba565b908114611ee85761021d906000611592565b6040517f3ee5aeb5000000000000000000000000000000000000000000000000000000008152600490fd5b6102166001610268565b61021d611f28611f13565b6000611592565b9061173b969594939291611f41611ec4565b9061021d969594939291611f53611e81565b6120f3565b15611f5f57565b6040517f08c379a000000000000000000000000000000000000000000000000000000000815260206004820152602260248201527f4272696467653a204f6e6c792076616c696461746f72732063616e20756e6c6f60448201527f636b0000000000000000000000000000000000000000000000000000000000006064820152608490fd5b15611feb57565b6040517f08c379a000000000000000000000000000000000000000000000000000000000815260206004820152602260248201527f4272696467653a205472616e7366657220616c72656164792070726f6365737360448201527f65640000000000000000000000000000000000000000000000000000000000006064820152608490fd5b1561207757565b6040517f08c379a000000000000000000000000000000000000000000000000000000000815260206004820152601a60248201527f4272696467653a20496e76616c6964207369676e6174757265730000000000006044820152606490fd5b90815260608101939261021d929091604091610611906020830152565b929195946121ac6121a76121bd93969761211f61211a61211560073390610331565b610557565b611f58565b60049361213e6121396121356121158d89610df4565b1590565b611fe4565b61215c61215760006121518b6006610331565b01610557565b611757565b6121a16121826102a3600061217d8f6121776113ce84610268565b11611823565b610f0f565b73ffffffffffffffffffffffffffffffffffffffff8b165b14156118af565b896131c6565b612070565b6121b886600192610df4565b611553565b6121d085846121cb85610328565b611d04565b4294611c7261220f61220b6122057f0f8a2b02085810d8a2b5dff01a0f5cf73199095e5fd3b341a91c911f4bf9ac2896610328565b96610328565b9690565b9661221960405190565b938493846120d6565b9061021d969594939291611f2f565b9061173b9b9a999897969594939291612248611ec4565b9061021d9b9a99989796959493929161225f611e81565b612485565b1561226b57565b6040517f08c379a000000000000000000000000000000000000000000000000000000000815260206004820152601760248201527f4272696467653a20426174636820746f6f206c617267650000000000000000006044820152606490fd5b156122d157565b6040517f08c379a000000000000000000000000000000000000000000000000000000000815260206004820152601d60248201527f4272696467653a204172726179206c656e677468206d69736d617463680000006044820152606490fd5b7fffffffffffffffffffffffffffffffffffffffffffffffffffffffffffffffff8114611a235760010190565b7f4e487b7100000000000000000000000000000000000000000000000000000000600052603260045260246000fd5b919081101561239c576020020190565b61235d565b35610216816103ac565b35610216816102bc565b9035907fffffffffffffffffffffffffffffffffffffffffffffffffffffffffffffffe13682900301821215610211570180359067ffffffffffffffff8211610211576020019136829003831361021157565b9082101561239c57602061083c92028101906123b5565b1561242657565b6040517f08c379a000000000000000000000000000000000000000000000000000000000815260206004820152601960248201527f4272696467653a20496e76616c6964207369676e6174757265000000000000006044820152606490fd5b92949b9a90939798959991966080526124a661211a61211560073390610331565b8360a0526124c26124b8610216610dac565b60a0511115612264565b8460a05114806126e8575b806126d2575b806126c7575b806126bc575b6124e8906122ca565b6124f26000610268565b60a0518110156126ad57808b8b8f8b61266a6125dd8f93978e6126648f8f8f8f8f6126a89f6126546125f18f8f988f6125f18e8b8f9b6125fc6125dd9f95849f9661265a9f6125dd9f879f8f6126426125f18b9f8f61264e9f6126378f97888f93848f8f986126489f6125dd9f6125dd8f8361262f8a9f8f9561263c9f8d6125f19f61261e8f836125fc9f9d8f6121b89f6125e29f6125f1859f61260e926125fc9461262a9f6126016126249f8b80966125fc946125dd9f6121578f8f6125dd976125f66125f1896125fc976125e96121396121356121156125e26125dd8760009d6121519d61238c565b6123a1565b6004610df4565b60069461238c565b6123ab565b90610331565b61238c565b6121776113ce6000610268565b61219a610f416102a36000610f0f565b93612408565b9161381d565b61241f565b60019561238c565b610328565b9961238c565b9461238c565b91611d04565b9f61238c565b9c61238c565b9a6080519061238c565b9661238c565b9242946126a061220f61220b6122057f0f8a2b02085810d8a2b5dff01a0f5cf73199095e5fd3b341a91c911f4bf9ac2896610328565b0390a4612330565b6124f2565b50505050505050505050509050565b5060a05181146124df565b508560a051146124d9565b506126df61021660805190565b60a051146124d3565b508b60a051146124cd565b9061021d9b9a999897969594939291612231565b61021d90612713610f32565b61280e565b1561271f57565b6040517f08c379a000000000000000000000000000000000000000000000000000000000815260206004820152602160248201527f4272696467653a20496e76616c69642076616c696461746f722061646472657360448201527f73000000000000000000000000000000000000000000000000000000000000006064820152608490fd5b156127ab57565b6040517f08c379a000000000000000000000000000000000000000000000000000000000815280610fba600482016020808252818101527f4272696467653a2056616c696461746f7220616c726561647920657869737473604082015260600190565b61283c61281e6102a36000610f0f565b73ffffffffffffffffffffffffffffffffffffffff83161415612718565b61286560076128596128546121356121158685610331565b6127a4565b6121b883600192610331565b61288161287a612875600a610568565b612330565b600a611592565b6128ab7fe366c1c0452ed8eec96861e9e54141ebff23c9ec89fe27b996b45f5ec388498791610328565b906128b560405190565b8080611722565b61021d90612707565b61021d906128d1610f32565b6129d1565b156128dd57565b6040517f08c379a000000000000000000000000000000000000000000000000000000000815280610fba600482016020808252818101527f4272696467653a2056616c696461746f7220646f6573206e6f74206578697374604082015260600190565b1561294757565b6040517f08c379a000000000000000000000000000000000000000000000000000000000815260206004820152601a60248201527f4272696467653a20546f6f206665772076616c696461746f72730000000000006044820152606490fd5b8015611a23577fffffffffffffffffffffffffffffffffffffffffffffffffffffffffffffffff0190565b612a1a60076129eb6129e66121158584610331565b6128d6565b612a0e6129f8600a610568565b612a086113ce6102166009610568565b11612940565b6121b883600092610331565b612a2f61287a612a2a600a610568565b6129a6565b6128ab7fe1434e25d6611e0db941968fdc97811c982ac1602e951637d206f5fdda9dd8f191610328565b61021d906128c5565b61021d90612a6e610f32565b612b8a565b15612a7a57565b6040517f08c379a0000000000000000000000000000000000000000000000000000000008152602060048201526024808201527f4272696467653a20546f6f206d616e79207265717569726564207369676e617460448201527f75726573000000000000000000000000000000000000000000000000000000006064820152608490fd5b15612b0557565b6040517f08c379a000000000000000000000000000000000000000000000000000000000815260206004820152602760248201527f4272696467653a204174206c65617374206f6e65207369676e6174757265207260448201527f65717569726564000000000000000000000000000000000000000000000000006064820152608490fd5b61021d90612ba6612b9e610216600a610568565b821115612a73565b612bba612bb36000610268565b8211612afe565b6009611592565b61021d90612a62565b9061021d94939291612bda610f32565b612c5a565b61021660c0611189565b61021d91906115df9060a090600590612c06816115c78751151590565b612c18600182016115df602088015190565b612c2c600282016115c76040880151151590565b612c3e600382016115df606088015190565b611666600482016115df608088015190565b9061021d91612be9565b9281610b57612ca8612cbf95611478612c989699612ca1612caf976000998a95612c91429a612c87612bdf565b9d8e019015159052565b60208c0152565b151560408a0152565b6060880152565b6080850152565b612cba836006610331565b612c50565b611722612cec7fd86c88b4a367d9b81a6e00c9d3f7d01657bffef358fa8968c91c045ae99f0d5292610328565b9261044f60405190565b9061021d94939291612bca565b612d0b61153f565b906000825260208080808080808080808b01600081520160008152016000815201600081520160005b8152016000815201600081520160008152016000905250565b610216612d03565b9061021d612e2b6009612d6661153f565b94612d79612d7382610557565b15158752565b612d8f612d8860018301610568565b6020880152565b612da5612d9e60028301610568565b6040880152565b612db4612ca160038301610568565b612dca612dc360048301610568565b6080880152565b612de0612dd960058301610568565b60a0880152565b612df8612def60068301610557565b151560c0880152565b612e0e612e0760078301610568565b60e0880152565b612e25612e1d60088301610568565b610100880152565b01610568565b610120840152565b61021690612d55565b612e5361021691612e4b612d4d565b506005610880565b612e33565b612e60612bdf565b90600082526020808080808087016000612d34565b610216612e58565b9061021d612ee06005612e8e612bdf565b94612e9b612d7382610557565b612eaa612d8860018301610568565b612ec2612eb960028301610557565b15156040880152565b612ed1612ca160038301610568565b612e25612dc360048301610568565b60a0840152565b61021690612e7d565b612f0761021691612eff612e75565b506006610331565b612ee7565b61211561021691612f1b600090565b506004610df4565b9050519061021d826103ac565b906020828203126102115761021691612f23565b6020612f5e612637612fab93612f58600090565b50610328565b6370a0823190612f87612f7030610328565b92612f7a60405190565b9586948593849360e01b90565b835273ffffffffffffffffffffffffffffffffffffffff1660048301526024820190565b03915afa908115612fe957600091612fc1575090565b610216915060203d8111612fe2575b612fda8183611144565b810190612f30565b503d612fd0565b611e75565b91908201809211611a2357565b6130126004612e2561021661021694612e4b600090565b61301a610275565b90612fee565b6102199073ffffffffffffffffffffffffffffffffffffffff1660601b90565b601460209998959661307b8b80996130738261307b9a61307b610a709f9a839c61307b8b8d61307361307b9f8396613020565b018092613020565b01918252565b9091936130d7936130cb91613094600090565b504642916130a3876008610331565b936130ba6130b086610568565b956115df87612330565b604051998a9860208a019889613040565b90810382520382611144565b6130e96130e2825190565b9160200190565b2090565b156130f457565b6040517f08c379a000000000000000000000000000000000000000000000000000000000815260206004820152601f60248201527f4272696467653a20496e73756666696369656e74207369676e617475726573006044820152606490fd5b90939293848311610211578411610211578101920390565b90826000939282370152565b909291926131876111c2826113eb565b938185526020850190828401116102115761021d9261316b565b610216913691613177565b906131b5825190565b81101561239c576020809102010190565b909261320283926131fd6131da6009610568565b946131f66113ce6102166041986131f08a610268565b90611a10565b10156130ed565b613650565b61320f6112486009610568565b9460009361321c85610268565b6132296102166009610568565b81101561335e5761324261323c83610268565b82611a10565b61328061327a61327460019361326c61326361325d87610268565b88612fee565b6131f089610268565b908c89613153565b906131a1565b8661336b565b90613292612135612115846007610331565b61335157806132a089610268565b905b6132db575b5050906128756132d6926132bb838c6131ac565b9073ffffffffffffffffffffffffffffffffffffffff169052565b61321c565b8381101561334c5761330a6132f0828d6131ac565b5173ffffffffffffffffffffffffffffffffffffffff1690565b61332973ffffffffffffffffffffffffffffffffffffffff8516610f41565b1461333e576133388291612330565b906132a2565b505050505050509250905090565b6132a7565b5050505050509250905090565b5050505092505050600190565b6102169161337891613381565b9092919261353c565b919060009261338e825190565b61339b6113ce6041610268565b036133cf576133c89293506133ae600090565b506020820151906060604084015193015160001a90613420565b9192909190565b5091506133dc6000610f0f565b906133ea6114786002945190565b91929190565b61061161021d9461341960609498979561340f608086019a6000870152565b60ff166020850152565b6040830152565b909161342b8461146f565b6134576113ce7f7fffffffffffffffffffffffffffffff5d576e7357a4501ddfe92f46681b20a0610268565b116134e057906134796020946000949361347060405190565b948594856133f0565b838052039060015afa15612fe95760005160009161349683610f0f565b73ffffffffffffffffffffffffffffffffffffffff811673ffffffffffffffffffffffffffffffffffffffff8416146134d357506133ea83610268565b91506133ea600193610268565b5050506134ed6000610f0f565b9160039190565b7f4e487b7100000000000000000000000000000000000000000000000000000000600052602160045260246000fd5b6004111561352d57565b6134f4565b9061021d82613523565b6135466000613532565b61354f82613532565b03613558575050565b6135626001613532565b61356b82613532565b0361359b576040517ff645eedf000000000000000000000000000000000000000000000000000000008152600490fd5b6135a56002613532565b6135ae82613532565b036135f557610fba6135bf8361146f565b6040519182917ffce698f70000000000000000000000000000000000000000000000000000000083526004830190815260200190565b6136086136026003613532565b91613532565b146136105750565b610fba9061361d60405190565b9182917fd78bce0c0000000000000000000000000000000000000000000000000000000083526004830190815260200190565b6102169061365c613694565b604291604051917f19010000000000000000000000000000000000000000000000000000000000008352600283015260228201522090565b61369d30610328565b6136dc73ffffffffffffffffffffffffffffffffffffffff7f000000000000000000000000000000000000000000000000000000000000000016610f41565b1480613714575b1561370c577f000000000000000000000000000000000000000000000000000000000000000090565b610216613792565b507f000000000000000000000000000000000000000000000000000000000000000046146136e3565b9095949261021d9461376f6137769261376860809661376160a088019c6000890152565b6020870152565b6040850152565b6060830152565b019073ffffffffffffffffffffffffffffffffffffffff169052565b7f00000000000000000000000000000000000000000000000000000000000000006130d77f00000000000000000000000000000000000000000000000000000000000000007f8b73c3c69bb8fe3d512ecc4cf759cc79239f7b179b0ffacaa9a75d522b39400f6130cb4661380530610328565b9061380f60405190565b96879560208701958661373d565b612115916138436102169461383d61384994613837600090565b50613650565b926131a1565b9061336b565b6007610331565b1561385757565b6040517f08c379a000000000000000000000000000000000000000000000000000000000815260206004820152602960248201527f4272696467653a20436861696e206461696c7920766f6c756d65206c696d697460448201527f20657863656564656400000000000000000000000000000000000000000000006064820152608490fd5b156138e357565b6040517f08c379a000000000000000000000000000000000000000000000000000000000815260206004820152602960248201527f4272696467653a20546f6b656e206461696c7920766f6c756d65206c696d697460448201527f20657863656564656400000000000000000000000000000000000000000000006064820152608490fd5b61397e4261397860098401610568565b90611a66565b61398d6113ce62015180610268565b1061399757505050565b6113ce61021660036139cd866139db866139d46113ce61021660076139cd61021d9e6139c860086139e79f01610568565b612fee565b9401610568565b1115613850565b6139c860048801610568565b11156138dc565b600461021d9392613a6c60086115df94426009820190613a16613a1083610568565b82611a66565b91816201518093613a296113ce86610268565b1015613a9c575b50506005860191613a556113ce613a4f613a4986610568565b85611a66565b92610268565b1015613a77575b5050016115df866139c883610568565b01916139c883610568565b613a9591613a90613a886000610268565b898901611592565b611592565b3880613a5c565b613ab591613a90613aad6000610268565b888801611592565b3881613a30565b9061021d9291613aca610f32565b906121cb61021d9392610328565b9061021d9291613abc565b613aeb610f32565b61021d61021d613b48565b61021d613ae3565b613b06611e81565b61021d613b14600180611553565b33613b437f62e78cea01bee320cd4e420270b5ea74000d11b0c9f74754ebdbfc544b05a25891610c4d60405190565b0390a1565b61021d613afe565b613b58610f32565b61021d61021d613bb1565b61021d613b50565b613b73613bb9565b61021d613b8260006001611553565b33613b437f5db9ee0a495bf2e6ff9c91a7834c1ba4fdd244a5e8aa4e537bd38aeae4b073aa91610c4d60405190565b61021d613b6b565b613bc461213561110b565b613bca57565b6040517f8dfc202b000000000000000000000000000000000000000000000000000000008152600490fdfea264697066735822122005e926fac77bf0b4c51a3d7fa9e62fabed0b72ea836792434c041ce42b6614aa64736f6c63430008140033",
  "linkReferences": {},
  "deployedLinkReferences": {}
}