{
  "_format": "hh-sol-artifact-1",
  "contractName": "CrossChainBridge",
  "sourceName": "contracts/CrossChainBridge.sol",
  "abi": [
    {
      "inputs": [],
      "stateMutability": "nonpayable",
      "type": "constructor"
    },
    {
      "inputs": [],
      "name": "ECDSAInvalidSignature",
      "type": "error"
    },
    {
      "inputs": [
        {
          "internalType": "uint256",
          "name": "length",
          "type": "uint256"
        }
      ],
      "name": "ECDSAInvalidSignatureLength",
      "type": "error"
    },
    {
      "inputs": [
        {
          "internalType": "bytes32",
          "name": "s",
          "type": "bytes32"
        }
      ],
      "name": "ECDSAInvalidSignatureS",
      "type": "error"
    },
    {
      "inputs": [],
      "name": "EnforcedPause",
      "type": "error"
    },
    {
      "inputs": [],
      "name": "ExpectedPause",
      "type": "error"
    },
    {
      "inputs": [],
      "name": "InvalidShortString",
      "type": "error"
    },
    {
      "inputs": [
        {
          "internalType": "address",
          "name": "owner",
          "type": "address"
        }
      ],
      "name": "OwnableInvalidOwner",
      "type": "error"
    },
    {
      "inputs": [
        {
          "internalType": "address",
          "name": "account",
          "type": "address"
        }
      ],
      "name": "OwnableUnauthorizedAccount",
      "type": "error"
    },
    {
      "inputs": [],
      "name": "ReentrancyGuardReentrantCall",
      "type": "error"
    },
    {
      "inputs": [
        {
          "internalType": "address",
          "name": "token",
          "type": "address"
        }
      ],
      "name": "SafeERC20FailedOperation",
      "type": "error"
    },
    {
      "inputs": [
        {
          "internalType": "string",
          "name": "str",
          "type": "string"
        }
      ],
      "name": "StringTooLong",
      "type": "error"
    },
    {
      "anonymous": false,
      "inputs": [
        {
          "indexed": true,
          "internalType": "uint256",
          "name": "chainId",
          "type": "uint256"
        },
        {
          "indexed": false,
          "internalType": "bool",
          "name": "supported",
          "type": "bool"
        }
      ],
      "name": "ChainSupported",
      "type": "event"
    },
    {
      "anonymous": false,
      "inputs": [],
      "name": "EIP712DomainChanged",
      "type": "event"
    },
    {
      "anonymous": false,
      "inputs": [
        {
          "indexed": true,
          "internalType": "uint256",
          "name": "chainId",
          "type": "uint256"
        },
        {
          "indexed": false,
          "internalType": "uint256",
          "name": "fee",
          "type": "uint256"
        }
      ],
      "name": "FeeUpdated",
      "type": "event"
    },
    {
      "anonymous": false,
      "inputs": [
        {
          "indexed": true,
          "internalType": "uint256",
          "name": "chainId",
          "type": "uint256"
        },
        {
          "indexed": false,
          "internalType": "uint256",
          "name": "maxAmount",
          "type": "uint256"
        }
      ],
      "name": "MaxAmountUpdated",
      "type": "event"
    },
    {
      "anonymous": false,
      "inputs": [
        {
          "indexed": true,
          "internalType": "uint256",
          "name": "chainId",
          "type": "uint256"
        },
        {
          "indexed": false,
          "internalType": "uint256",
          "name": "minAmount",
          "type": "uint256"
        }
      ],
      "name": "MinAmountUpdated",
      "type": "event"
    },
    {
      "anonymous": false,
      "inputs": [
        {
          "indexed": true,
          "internalType": "address",
          "name": "previousOwner",
          "type": "address"
        },
        {
          "indexed": true,
          "internalType": "address",
          "name": "newOwner",
          "type": "address"
        }
      ],
      "name": "OwnershipTransferred",
      "type": "event"
    },
    {
      "anonymous": false,
      "inputs": [
        {
          "indexed": false,
          "internalType": "address",
          "name": "account",
          "type": "address"
        }
      ],
      "name": "Paused",
      "type": "event"
    },
    {
      "anonymous": false,
      "inputs": [
        {
          "indexed": true,
          "internalType": "address",
          "name": "token",
          "type": "address"
        },
        {
          "indexed": true,
          "internalType": "address",
          "name": "sender",
          "type": "address"
        },
        {
          "indexed": false,
          "internalType": "uint256",
          "name": "amount",
          "type": "uint256"
        },
        {
          "indexed": false,
          "internalType": "uint256",
          "name": "targetChainId",
          "type": "uint256"
        },
        {
          "indexed": false,
          "internalType": "address",
          "name": "targetRecipient",
          "type": "address"
        },
        {
          "indexed": true,
          "internalType": "bytes32",
          "name": "transferId",
          "type": "bytes32"
        },
        {
          "indexed": false,
          "internalType": "uint256",
          "name": "timestamp",
          "type": "uint256"
        }
      ],
      "name": "TokenLocked",
      "type": "event"
    },
    {
      "anonymous": false,
      "inputs": [
        {
          "indexed": true,
          "internalType": "address",
          "name": "token",
          "type": "address"
        },
        {
          "indexed": false,
          "internalType": "bool",
          "name": "supported",
          "type": "bool"
        }
      ],
      "name": "TokenSupported",
      "type": "event"
    },
    {
      "anonymous": false,
      "inputs": [
        {
          "indexed": true,
          "internalType": "address",
          "name": "token",
          "type": "address"
        },
        {
          "indexed": true,
          "internalType": "address",
          "name": "recipient",
          "type": "address"
        },
        {
          "indexed": false,
          "internalType": "uint256",
          "name": "amount",
          "type": "uint256"
        },
        {
          "indexed": false,
          "internalType": "uint256",
          "name": "sourceChainId",
          "type": "uint256"
        },
        {
          "indexed": true,
          "internalType": "bytes32",
          "name": "transferId",
          "type": "bytes32"
        },
        {
          "indexed": false,
          "internalType": "uint256",
          "name": "timestamp",
          "type": "uint256"
        }
      ],
      "name": "TokenUnlocked",
      "type": "event"
    },
    {
      "anonymous": false,
      "inputs": [
        {
          "indexed": false,
          "internalType": "address",
          "name": "account",
          "type": "address"
        }
      ],
      "name": "Unpaused",
      "type": "event"
    },
    {
      "anonymous": false,
      "inputs": [
        {
          "indexed": true,
          "internalType": "address",
          "name": "validator",
          "type": "address"
        }
      ],
      "name": "ValidatorAdded",
      "type": "event"
    },
    {
      "anonymous": false,
      "inputs": [
        {
          "indexed": true,
          "internalType": "address",
          "name": "validator",
          "type": "address"
        }
      ],
      "name": "ValidatorRemoved",
      "type": "event"
    },
    {
      "inputs": [],
      "name": "GAS_LIMIT_BUFFER",
      "outputs": [
        {
          "internalType": "uint256",
          "name": "",
          "type": "uint256"
        }
      ],
      "stateMutability": "view",
      "type": "function"
    },
    {
      "inputs": [],
      "name": "MAX_BATCH_SIZE",
      "outputs": [
        {
          "internalType": "uint256",
          "name": "",
          "type": "uint256"
        }
      ],
      "stateMutability": "view",
      "type": "function"
    },
    {
      "inputs": [],
      "name": "TRANSFER_TYPEHASH",
      "outputs": [
        {
          "internalType": "bytes32",
          "name": "",
          "type": "bytes32"
        }
      ],
      "stateMutability": "view",
      "type": "function"
    },
    {
      "inputs": [
        {
          "internalType": "address",
          "name": "validator",
          "type": "address"
        }
      ],
      "name": "addValidator",
      "outputs": [],
      "stateMutability": "nonpayable",
      "type": "function"
    },
    {
      "inputs": [
        {
          "internalType": "address[]",
          "name": "tokens",
          "type": "address[]"
        },
        {
          "internalType": "address[]",
          "name": "recipients",
          "type": "address[]"
        },
        {
          "internalType": "uint256[]",
          "name": "amounts",
          "type": "uint256[]"
        },
        {
          "internalType": "uint256[]",
          "name": "sourceChainIds",
          "type": "uint256[]"
        },
        {
          "internalType": "bytes32[]",
          "name": "transferIds",
          "type": "bytes32[]"
        },
        {
          "internalType": "bytes[]",
          "name": "signatures",
          "type": "bytes[]"
        }
      ],
      "name": "batchUnlockTokens",
      "outputs": [],
      "stateMutability": "nonpayable",
      "type": "function"
    },
    {
      "inputs": [
        {
          "internalType": "uint256",
          "name": "",
          "type": "uint256"
        }
      ],
      "name": "chainConfigs",
      "outputs": [
        {
          "internalType": "bool",
          "name": "supported",
          "type": "bool"
        },
        {
          "internalType": "uint256",
          "name": "fee",
          "type": "uint256"
        },
        {
          "internalType": "uint256",
          "name": "minAmount",
          "type": "uint256"
        },
        {
          "internalType": "uint256",
          "name": "maxAmount",
          "type": "uint256"
        },
        {
          "internalType": "uint256",
          "name": "gasLimit",
          "type": "uint256"
        },
        {
          "internalType": "uint256",
          "name": "blockTime",
          "type": "uint256"
        },
        {
          "internalType": "bool",
          "name": "requiresMultipleSignatures",
          "type": "bool"
        },
        {
          "internalType": "uint256",
          "name": "maxDailyVolume",
          "type": "uint256"
        },
        {
          "internalType": "uint256",
          "name": "dailyVolume",
          "type": "uint256"
        },
        {
          "internalType": "uint256",
          "name": "lastVolumeReset",
          "type": "uint256"
        }
      ],
      "stateMutability": "view",
      "type": "function"
    },
    {
      "inputs": [
        {
          "internalType": "uint256",
          "name": "chainId",
          "type": "uint256"
        },
        {
          "internalType": "bool",
          "name": "supported",
          "type": "bool"
        },
        {
          "internalType": "uint256",
          "name": "fee",
          "type": "uint256"
        },
        {
          "internalType": "uint256",
          "name": "minAmount",
          "type": "uint256"
        },
        {
          "internalType": "uint256",
          "name": "maxAmount",
          "type": "uint256"
        },
        {
          "internalType": "uint256",
          "name": "gasLimit",
          "type": "uint256"
        },
        {
          "internalType": "uint256",
          "name": "blockTime",
          "type": "uint256"
        },
        {
          "internalType": "bool",
          "name": "requiresMultipleSignatures",
          "type": "bool"
        },
        {
          "internalType": "uint256",
          "name": "maxDailyVolume",
          "type": "uint256"
        }
      ],
      "name": "configureChain",
      "outputs": [],
      "stateMutability": "nonpayable",
      "type": "function"
    },
    {
      "inputs": [
        {
          "internalType": "address",
          "name": "token",
          "type": "address"
        },
        {
          "internalType": "bool",
          "name": "supported",
          "type": "bool"
        },
        {
          "internalType": "uint256",
          "name": "decimals",
          "type": "uint256"
        },
        {
          "internalType": "bool",
          "name": "isNative",
          "type": "bool"
        },
        {
          "internalType": "uint256",
          "name": "maxDailyVolume",
          "type": "uint256"
        }
      ],
      "name": "configureToken",
      "outputs": [],
      "stateMutability": "nonpayable",
      "type": "function"
    },
    {
      "inputs": [],
      "name": "eip712Domain",
      "outputs": [
        {
          "internalType": "bytes1",
          "name": "fields",
          "type": "bytes1"
        },
        {
          "internalType": "string",
          "name": "name",
          "type": "string"
        },
        {
          "internalType": "string",
          "name": "version",
          "type": "string"
        },
        {
          "internalType": "uint256",
          "name": "chainId",
          "type": "uint256"
        },
        {
          "internalType": "address",
          "name": "verifyingContract",
          "type": "address"
        },
        {
          "internalType": "bytes32",
          "name": "salt",
          "type": "bytes32"
        },
        {
          "internalType": "uint256[]",
          "name": "extensions",
          "type": "uint256[]"
        }
      ],
      "stateMutability": "view",
      "type": "function"
    },
    {
      "inputs": [
        {
          "internalType": "address",
          "name": "token",
          "type": "address"
        },
        {
          "internalType": "address",
          "name": "to",
          "type": "address"
        },
        {
          "internalType": "uint256",
          "name": "amount",
          "type": "uint256"
        }
      ],
      "name": "emergencyWithdraw",
      "outputs": [],
      "stateMutability": "nonpayable",
      "type": "function"
    },
    {
      "inputs": [
        {
          "internalType": "uint256",
          "name": "chainId",
          "type": "uint256"
        }
      ],
      "name": "estimateGasForUnlock",
      "outputs": [
        {
          "internalType": "uint256",
          "name": "",
          "type": "uint256"
        }
      ],
      "stateMutability": "view",
      "type": "function"
    },
    {
      "inputs": [
        {
          "internalType": "address",
          "name": "token",
          "type": "address"
        }
      ],
      "name": "getBridgeBalance",
      "outputs": [
        {
          "internalType": "uint256",
          "name": "",
          "type": "uint256"
        }
      ],
      "stateMutability": "view",
      "type": "function"
    },
    {
      "inputs": [
        {
          "internalType": "uint256",
          "name": "chainId",
          "type": "uint256"
        }
      ],
      "name": "getChainConfig",
      "outputs": [
        {
          "components": [
            {
              "internalType": "bool",
              "name": "supported",
              "type": "bool"
            },
            {
              "internalType": "uint256",
              "name": "fee",
              "type": "uint256"
            },
            {
              "internalType": "uint256",
              "name": "minAmount",
              "type": "uint256"
            },
            {
              "internalType": "uint256",
              "name": "maxAmount",
              "type": "uint256"
            },
            {
              "internalType": "uint256",
              "name": "gasLimit",
              "type": "uint256"
            },
            {
              "internalType": "uint256",
              "name": "blockTime",
              "type": "uint256"
            },
            {
              "internalType": "bool",
              "name": "requiresMultipleSignatures",
              "type": "bool"
            },
            {
              "internalType": "uint256",
              "name": "maxDailyVolume",
              "type": "uint256"
            },
            {
              "internalType": "uint256",
              "name": "dailyVolume",
              "type": "uint256"
            },
            {
              "internalType": "uint256",
              "name": "lastVolumeReset",
              "type": "uint256"
            }
          ],
          "internalType": "struct CrossChainBridge.ChainConfig",
          "name": "",
          "type": "tuple"
        }
      ],
      "stateMutability": "view",
      "type": "function"
    },
    {
      "inputs": [
        {
          "internalType": "address",
          "name": "token",
          "type": "address"
        }
      ],
      "name": "getTokenConfig",
      "outputs": [
        {
          "components": [
            {
              "internalType": "bool",
              "name": "supported",
              "type": "bool"
            },
            {
              "internalType": "uint256",
              "name": "decimals",
              "type": "uint256"
            },
            {
              "internalType": "bool",
              "name": "isNative",
              "type": "bool"
            },
            {
              "internalType": "uint256",
              "name": "maxDailyVolume",
              "type": "uint256"
            },
            {
              "internalType": "uint256",
              "name": "dailyVolume",
              "type": "uint256"
            },
            {
              "internalType": "uint256",
              "name": "lastVolumeReset",
              "type": "uint256"
            }
          ],
          "internalType": "struct CrossChainBridge.TokenConfig",
          "name": "",
          "type": "tuple"
        }
      ],
      "stateMutability": "view",
      "type": "function"
    },
    {
      "inputs": [
        {
          "internalType": "bytes32",
          "name": "transferId",
          "type": "bytes32"
        }
      ],
      "name": "isTransferProcessed",
      "outputs": [
        {
          "internalType": "bool",
          "name": "",
          "type": "bool"
        }
      ],
      "stateMutability": "view",
      "type": "function"
    },
    {
      "inputs": [
        {
          "internalType": "address",
          "name": "token",
          "type": "address"
        },
        {
          "internalType": "uint256",
          "name": "amount",
          "type": "uint256"
        },
        {
          "internalType": "uint256",
          "name": "targetChainId",
          "type": "uint256"
        },
        {
          "internalType": "address",
          "name": "targetRecipient",
          "type": "address"
        }
      ],
      "name": "lockTokens",
      "outputs": [],
      "stateMutability": "nonpayable",
      "type": "function"
    },
    {
      "inputs": [],
      "name": "owner",
      "outputs": [
        {
          "internalType": "address",
          "name": "",
          "type": "address"
        }
      ],
      "stateMutability": "view",
      "type": "function"
    },
    {
      "inputs": [],
      "name": "pause",
      "outputs": [],
      "stateMutability": "nonpayable",
      "type": "function"
    },
    {
      "inputs": [],
      "name": "paused",
      "outputs": [
        {
          "internalType": "bool",
          "name": "",
          "type": "bool"
        }
      ],
      "stateMutability": "view",
      "type": "function"
    },
    {
      "inputs": [
        {
          "internalType": "bytes32",
          "name": "",
          "type": "bytes32"
        }
      ],
      "name": "processedTransfers",
      "outputs": [
        {
          "internalType": "bool",
          "name": "",
          "type": "bool"
        }
      ],
      "stateMutability": "view",
      "type": "function"
    },
    {
      "inputs": [
        {
          "internalType": "address",
          "name": "validator",
          "type": "address"
        }
      ],
      "name": "removeValidator",
      "outputs": [],
      "stateMutability": "nonpayable",
      "type": "function"
    },
    {
      "inputs": [],
      "name": "renounceOwnership",
      "outputs": [],
      "stateMutability": "nonpayable",
      "type": "function"
    },
    {
      "inputs": [],
      "name": "requiredSignatures",
      "outputs": [
        {
          "internalType": "uint256",
          "name": "",
          "type": "uint256"
        }
      ],
      "stateMutability": "view",
      "type": "function"
    },
    {
      "inputs": [
        {
          "internalType": "uint256",
          "name": "_requiredSignatures",
          "type": "uint256"
        }
      ],
      "name": "setRequiredSignatures",
      "outputs": [],
      "stateMutability": "nonpayable",
      "type": "function"
    },
    {
      "inputs": [
        {
          "internalType": "address",
          "name": "",
          "type": "address"
        }
      ],
      "name": "tokenConfigs",
      "outputs": [
        {
          "internalType": "bool",
          "name": "supported",
          "type": "bool"
        },
        {
          "internalType": "uint256",
          "name": "decimals",
          "type": "uint256"
        },
        {
          "internalType": "bool",
          "name": "isNative",
          "type": "bool"
        },
        {
          "internalType": "uint256",
          "name": "maxDailyVolume",
          "type": "uint256"
        },
        {
          "internalType": "uint256",
          "name": "dailyVolume",
          "type": "uint256"
        },
        {
          "internalType": "uint256",
          "name": "lastVolumeReset",
          "type": "uint256"
        }
      ],
      "stateMutability": "view",
      "type": "function"
    },
    {
      "inputs": [
        {
          "internalType": "address",
          "name": "newOwner",
          "type": "address"
        }
      ],
      "name": "transferOwnership",
      "outputs": [],
      "stateMutability": "nonpayable",
      "type": "function"
    },
    {
      "inputs": [
        {
          "internalType": "address",
          "name": "token",
          "type": "address"
        },
        {
          "internalType": "address",
          "name": "recipient",
          "type": "address"
        },
        {
          "internalType": "uint256",
          "name": "amount",
          "type": "uint256"
        },
        {
          "internalType": "uint256",
          "name": "sourceChainId",
          "type": "uint256"
        },
        {
          "internalType": "bytes32",
          "name": "transferId",
          "type": "bytes32"
        },
        {
          "internalType": "bytes",
          "name": "signatures",
          "type": "bytes"
        }
      ],
      "name": "unlockTokens",
      "outputs": [],
      "stateMutability": "nonpayable",
      "type": "function"
    },
    {
      "inputs": [],
      "name": "unpause",
      "outputs": [],
      "stateMutability": "nonpayable",
      "type": "function"
    },
    {
      "inputs": [],
      "name": "validatorCount",
      "outputs": [
        {
          "internalType": "uint256",
          "name": "",
          "type": "uint256"
        }
      ],
      "stateMutability": "view",
      "type": "function"
    },
    {
      "inputs": [
        {
          "internalType": "address",
          "name": "",
          "type": "address"
        }
      ],
      "name": "validatorNonces",
      "outputs": [
        {
          "internalType": "uint256",
          "name": "",
          "type": "uint256"
        }
      ],
      "stateMutability": "view",
      "type": "function"
    },
    {
      "inputs": [
        {
          "internalType": "address",
          "name": "",
          "type": "address"
        }
      ],
      "name": "validators",
      "outputs": [
        {
          "internalType": "bool",
          "name": "",
          "type": "bool"
        }
      ],
      "stateMutability": "view",
      "type": "function"
    }
  ],
  "bytecode": "0x61016080604052346200146357620000178162001485565b6010815260208101906f43726f7373436861696e42726964676560801b825260405191620000458362001485565b600383526020830191620312e360ec1b8352600160005533156200144a5760018054610100600160a81b0319811633600881811b610100600160a81b0316929092179093551c6001600160a01b03167f8be0079c531659141344cd1fd0a4f28419497f9722a3daafe3b4186f6b6457e0600080a3620000c481620014a1565b61012052620000d3846200167e565b61014052519020918260e05251902080610100524660a052604051917f8b73c3c69bb8fe3d512ecc4cf759cc79239f7b179b0ffacaa9a75d522b39400f6020840152604083015260608201524660808201523060a082015260a081528060c081011060018060401b0360c083011117620014345760c08101604052805160208201206080523060c0523360005260076020526040600020600160ff198254161790556001600a5560016009556200018d60c0820162001468565b600160c0820152600a60e0820152662386f26fc10000610100820152683635c9adc5dea00000610120820152620493e0610140820152600c610160820152600061018082015269d3c21bcecceda10000006101a082015260006101c0820152426101e08201526001600052600560205260096101e06040600020926200022560c08201511515859060ff801983541691151516179055565b60e0810151600185015561010081015160028501556101208101516003850155610140810151600485015561016081015160058501556200027c6101808201511515600686019060ff801983541691151516179055565b6101a081015160078501556101c081015160088501550151910155600160008051602062003dce8339815191526020604051838152a2604051620002c08162001468565b6001815260056020820152662386f26fc10000604082015269d3c21bcecceda10000006060820152620493e06080820152600260a0820152600060c08201526a0422ca8b0a00a42500000060e08201526000610100820152426101208201526089600052600560205260096101206040600020926200034e81511515859060ff801983541691151516179055565b6020810151600185015560408101516002850155606081015160038501556080810151600485015560a08101516005850155620003a060c08201511515600686019060ff801983541691151516179055565b60e0810151600785015561010081015160088501550151910155608960008051602062003dce833981519152602060405160018152a2604051620003e48162001468565b6001815260056020820152662386f26fc10000604082015269d3c21bcecceda10000006060820152620493e06080820152600360a0820152600060c08201526a0422ca8b0a00a42500000060e08201526000610100820152426101208201526038600052600560205260096101206040600020926200047281511515859060ff801983541691151516179055565b6020810151600185015560408101516002850155606081015160038501556080810151600485015560a08101516005850155620004c460c08201511515600686019060ff801983541691151516179055565b60e0810151600785015561010081015160088501550151910155603860008051602062003dce833981519152602060405160018152a2604051620005088162001468565b6001815260036020820152662386f26fc10000604082015269d3c21bcecceda100000060608201526203d0906080820152600160a0820152600060c08201526a027b46536c66c8e300000060e082015260006101008201524261012082015260fa600052600560205260096101206040600020926200059681511515859060ff801983541691151516179055565b6020810151600185015560408101516002850155606081015160038501556080810151600485015560a08101516005850155620005e860c08201511515600686019060ff801983541691151516179055565b60e081015160078501556101008101516008850155015191015560fa60008051602062003dce833981519152602060405160018152a26040516200062c8162001468565b6001815260056020820152662386f26fc10000604082015269d3c21bcecceda10000006060820152620c35006080820152600260a0820152600060c08201526a027b46536c66c8e300000060e082015260006101008201524261012082015261a86a60005260056020526009610120604060002092620006bb81511515859060ff801983541691151516179055565b6020810151600185015560408101516002850155606081015160038501556080810151600485015560a081015160058501556200070d60c08201511515600686019060ff801983541691151516179055565b60e081015160078501556101008101516008850155015191015561a86a60008051602062003dce833981519152602060405160018152a2604051620007528162001468565b6001815260036020820152662386f26fc10000604082015269d3c21bcecceda10000006060820152620f42406080820152600160a0820152600060c08201526a0422ca8b0a00a42500000060e082015260006101008201524261012082015261a4b160005260056020526009610120604060002092620007e181511515859060ff801983541691151516179055565b6020810151600185015560408101516002850155606081015160038501556080810151600485015560a081015160058501556200083360c08201511515600686019060ff801983541691151516179055565b60e081015160078501556101008101516008850155015191015561a4b160008051602062003dce833981519152602060405160018152a2604051620008788162001468565b6001815260036020820152662386f26fc10000604082015269d3c21bcecceda10000006060820152620493e06080820152600260a0820152600060c08201526a0422ca8b0a00a42500000060e0820152600061010082015242610120820152600a600052600560205260096101206040600020926200090681511515859060ff801983541691151516179055565b6020810151600185015560408101516002850155606081015160038501556080810151600485015560a081015160058501556200095860c08201511515600686019060ff801983541691151516179055565b60e0810151600785015561010081015160088501550151910155600a60008051602062003dce833981519152602060405160018152a26040516200099c8162001468565b6001815260036020820152662386f26fc10000604082015269d3c21bcecceda10000006060820152620493e06080820152600360a0820152600060c08201526a0422ca8b0a00a42500000060e08201526000610100820152426101208201526103246000526005602052600961012060406000209262000a2b81511515859060ff801983541691151516179055565b6020810151600185015560408101516002850155606081015160038501556080810151600485015560a0810151600585015562000a7d60c08201511515600686019060ff801983541691151516179055565b60e081015160078501556101008101516008850155015191015561032460008051602062003dce833981519152602060405160018152a260405162000ac28162001468565b6001815260056020820152662386f26fc10000604082015269d3c21bcecceda10000006060820152620493e06080820152600560a0820152600060c08201526a01a784379d99db4200000060e082015260006101008201524261012082015260646000526005602052600961012060406000209262000b5081511515859060ff801983541691151516179055565b6020810151600185015560408101516002850155606081015160038501556080810151600485015560a0810151600585015562000ba260c08201511515600686019060ff801983541691151516179055565b60e0810151600785015561010081015160088501550151910155606460008051602062003dce833981519152602060405160018152a260405162000be68162001468565b6001815260056020820152662386f26fc10000604082015269d3c21bcecceda10000006060820152620493e06080820152600260a0820152600060c08201526a01a784379d99db4200000060e08201526000610100820152426101208201526121056000526005602052600961012060406000209262000c7581511515859060ff801983541691151516179055565b6020810151600185015560408101516002850155606081015160038501556080810151600485015560a0810151600585015562000cc760c08201511515600686019060ff801983541691151516179055565b60e081015160078501556101008101516008850155015191015561210560008051602062003dce833981519152602060405160018152a260405162000d0c8162001468565b6001815260056020820152662386f26fc10000604082015269d3c21bcecceda10000006060820152620493e06080820152600c60a0820152600060c08201526a01a784379d99db4200000060e082015260006101008201524261012082015261e7086000526005602052600961012060406000209262000d9b81511515859060ff801983541691151516179055565b6020810151600185015560408101516002850155606081015160038501556080810151600485015560a0810151600585015562000ded60c08201511515600686019060ff801983541691151516179055565b60e081015160078501556101008101516008850155015191015561e70860008051602062003dce833981519152602060405160018152a260405162000e328162001468565b6001815260036020820152662386f26fc10000604082015269d3c21bcecceda10000006060820152620493e06080820152600160a0820152600060c08201526a027b46536c66c8e300000060e082015260006101008201524261012082015261044d6000526005602052600961012060406000209262000ec181511515859060ff801983541691151516179055565b6020810151600185015560408101516002850155606081015160038501556080810151600485015560a0810151600585015562000f1360c08201511515600686019060ff801983541691151516179055565b60e081015160078501556101008101516008850155015191015561044d60008051602062003dce833981519152602060405160018152a260405162000f588162001468565b6001815260036020820152662386f26fc10000604082015269d3c21bcecceda10000006060820152620493e06080820152600160a0820152600060c08201526a027b46536c66c8e300000060e08201526000610100820152426101208201526101446000526005602052600961012060406000209262000fe781511515859060ff801983541691151516179055565b6020810151600185015560408101516002850155606081015160038501556080810151600485015560a081015160058501556200103960c08201511515600686019060ff801983541691151516179055565b60e081015160078501556101008101516008850155015191015561014460008051602062003dce833981519152602060405160018152a26040516200107e8162001468565b6001815260036020820152662386f26fc10000604082015269d3c21bcecceda10000006060820152620493e06080820152600260a0820152600060c08201526a027b46536c66c8e300000060e082015260006101008201524261012082015262082750600052600560205260096101206040600020926200110e81511515859060ff801983541691151516179055565b6020810151600185015560408101516002850155606081015160038501556080810151600485015560a081015160058501556200116060c08201511515600686019060ff801983541691151516179055565b60e08101516007850155610100810151600885015501519101556208275060008051602062003dce833981519152602060405160018152a2604051620011a68162001468565b6001815260056020820152662386f26fc10000604082015269d3c21bcecceda10000006060820152620249f06080820152600c60a0820152600060c082015269d3c21bcecceda100000060e0820152600061010082015242610120820152610504600052600560205260096101206040600020926200123481511515859060ff801983541691151516179055565b6020810151600185015560408101516002850155606081015160038501556080810151600485015560a081015160058501556200128660c08201511515600686019060ff801983541691151516179055565b60e081015160078501556101008101516008850155015191015561050460008051602062003dce833981519152602060405160018152a2604051620012cb8162001468565b6001815260056020820152662386f26fc10000604082015269d3c21bcecceda10000006060820152620249f06080820152600c60a0820152600060c082015269d3c21bcecceda100000060e0820152600061010082015242610120820152610505600052600560205260096101206040600020926200135981511515859060ff801983541691151516179055565b6020810151600185015560408101516002850155606081015160038501556080810151600485015560a08101516005850155620013ab60c08201511515600686019060ff801983541691151516179055565b60e081015160078501556101008101516008850155015191015561050560008051602062003dce833981519152602060405160018152a260405161259a908162001834823960805181612483015260a0518161253e015260c0518161244d015260e051816124d2015261010051816124f80152610120518161071f015261014051816107480152f35b634e487b7160e01b600052604160045260246000fd5b604051631e4fbdf760e01b815260006004820152602490fd5b600080fd5b61014081019081106001600160401b038211176200143457604052565b604081019081106001600160401b038211176200143457604052565b8051602090818110156200153e5750601f825111620014dd5780825192015190808310620014ce57501790565b82600019910360031b1b161790565b90604051809263305a27a960e01b82528060048301528251908160248401526000935b82851062001524575050604492506000838284010152601f80199101168101030190fd5b848101820151868601604401529381019385935062001500565b906001600160401b0382116200143457600254926001938481811c9116801562001673575b838210146200165d57601f811162001623575b5081601f8411600114620015b75750928293918392600094620015ab575b50501b916000199060031b1c19161760025560ff90565b01519250388062001594565b919083601f198116600260005284600020946000905b88838310620016085750505010620015ee575b505050811b0160025560ff90565b015160001960f88460031b161c19169055388080620015e0565b858701518855909601959485019487935090810190620015cd565b600260005284601f84600020920160051c820191601f860160051c015b8281106200165057505062001576565b6000815501859062001640565b634e487b7160e01b600052602260045260246000fd5b90607f169062001563565b805160209190828110156200170e575090601f825111620016ad5780825192015190808310620014ce57501790565b90604051809263305a27a960e01b82528060048301528251908160248401526000935b828510620016f4575050604492506000838284010152601f80199101168101030190fd5b8481018201518686016044015293810193859350620016d0565b6001600160401b03811162001434576003928354926001938481811c9116801562001828575b838210146200165d57601f8111620017ef575b5081601f84116001146200178657509282939183926000946200177a575b50501b9160001990841b1c191617905560ff90565b01519250388062001765565b919083601f1981168760005284600020946000905b88838310620017d45750505010620017bb575b505050811b01905560ff90565b015160001983861b60f8161c19169055388080620017ae565b8587015188559096019594850194879350908101906200179b565b8560005284601f84600020920160051c820191601f860160051c015b8281106200181b57505062001747565b600081550185906200180b565b90607f16906200173456fe608080604052600436101561001357600080fd5b60e0600035811c918262bf26f414611a8857508163032f42df14611a6b578163035124db14611a31578163058c055f146119a15781630aa393f3146114ec5781630d171620146102925781630f43a677146114ce57816319ed16dc1461138e5781631b69dc5f1461131357816327984a12146111dd5781633f4ba83a1461117357816340a141ff14611050578163463c8c5f14610b9b5781634d238c8e14610a7657816351bfbc32146109db5781635c975abb146109b8578163715018a6146109575781637d2b9cc0146108815781638456cb591461082857816384b0196e146107095750806387867158146106045780638d068043146105e65780638da5cb5b146105b9578063b983b3631461040f578063cb67e3b114610331578063cfdbf25414610315578063da786939146102c3578063dd910d7514610292578063e63ea40814610252578063f2fde38b146101b95763fa52c7d81461017557600080fd5b346101b45760203660031901126101b4576001600160a01b03610196611ac1565b166000526007602052602060ff604060002054166040519015158152f35b600080fd5b346101b45760203660031901126101b4576101d2611ac1565b6101da611b6c565b6001600160a01b038181169182156102395760018054610100600160a81b03198116600893841b610100600160a81b031617909155901c167f8be0079c531659141344cd1fd0a4f28419497f9722a3daafe3b4186f6b6457e0600080a3005b604051631e4fbdf760e01b815260006004820152602490fd5b346101b45760603660031901126101b45761029061026e611ac1565b610276611ad7565b61027e611b6c565b604435916001600160a01b0316611f24565b005b346101b45760203660031901126101b4576004356000526004602052602060ff604060002054166040519015158152f35b346101b45760203660031901126101b457600435600052600560205260046040600020015461c35081018091116102ff57602090604051908152f35b634e487b7160e01b600052601160045260246000fd5b346101b45760003660031901126101b4576020604051600a8152f35b346101b45760203660031901126101b45761034a611ac1565b600060a060405161035a81611bb7565b828152826020820152826040820152826060820152826080820152015260018060a01b0316600052600660205260c0604060002060405161039a81611bb7565b60ff82541615159182825260018101546020830190815260ff6002830154166040840190151581526003830154916060850192835260a06005600486015495608088019687520154950194855260405195865251602086015251151560408501525160608401525160808301525160a0820152f35b346101b45760c03660031901126101b457610428611ac1565b610430611ad7565b604435916084359260a435926001600160401b038085116101b457366023860112156101b45784600401359081116101b45736602482870101116101b4576104fe9061047a611fef565b610482611fd1565b33600052600760205261049c60ff60406000205416612012565b8660005260046020526104b760ff6040600020541615612069565b602460018060a01b03809616958660005260066020526104de60ff60406000205416611e25565b6104e9861515611e71565b8416966104f7881515611ecb565b018761215a565b15610574578161054c7f0f8a2b02085810d8a2b5dff01a0f5cf73199095e5fd3b341a91c911f4bf9ac289361056a938860005260046020526040600020600160ff1982541617905586611f24565b60408051918252606435602083015242908201529081906060820190565b0390a46001600055005b60405162461bcd60e51b815260206004820152601a60248201527f4272696467653a20496e76616c6964207369676e6174757265730000000000006044820152606490fd5b346101b45760003660031901126101b45760015460405160089190911c6001600160a01b03168152602090f35b346101b45760003660031901126101b4576020600954604051908152f35b346101b45760a03660031901126101b45761061d611ac1565b610625611aed565b90606435918215158093036101b4577fd86c88b4a367d9b81a6e00c9d3f7d01657bffef358fa8968c91c045ae99f0d5291602091610661611b6c565b60056040519161067083611bb7565b151592838352848301966044358852604084019081526060840160843581526106f060808601926000845260a087019442865260018060a01b03169a8b60005260068a526106d2604060002098511515899060ff801983541691151516179055565b516001880155511515600287019060ff801983541691151516179055565b51600385015551600484015551910155604051908152a2005b346101b45760003660031901126101b4576107437f0000000000000000000000000000000000000000000000000000000000000000611c25565b61076c7f0000000000000000000000000000000000000000000000000000000000000000611d4f565b60405190602090818301938385106001600160401b0386111761081257949392906107c5839185604052600084526107b7604051988998600f60f81b8a5280868b0152890190611b2c565b908782036040890152611b2c565b91466060870152306080870152600060a087015285830360c0870152519182815201929160005b8281106107fb57505050500390f35b8351855286955093810193928101926001016107ec565b634e487b7160e01b600052604160045260246000fd5b346101b45760003660031901126101b457610841611b6c565b610849611fd1565b600160ff19815416176001557f62e78cea01bee320cd4e420270b5ea74000d11b0c9f74754ebdbfc544b05a2586020604051338152a1005b346101b45760203660031901126101b45760043561089d611b6c565b600a5481116109065780156108b157600955005b60405162461bcd60e51b815260206004820152602760248201527f4272696467653a204174206c65617374206f6e65207369676e61747572652072604482015266195c5d5a5c995960ca1b6064820152608490fd5b60405162461bcd60e51b8152602060048201526024808201527f4272696467653a20546f6f206d616e79207265717569726564207369676e61746044820152637572657360e01b6064820152608490fd5b346101b45760003660031901126101b457610970611b6c565b60018054610100600160a81b0319811690915560009060081c6001600160a01b03167f8be0079c531659141344cd1fd0a4f28419497f9722a3daafe3b4186f6b6457e08280a3005b346101b45760003660031901126101b457602060ff600154166040519015158152f35b346101b45760203660031901126101b45761014090600435600052600560205260406000209060ff825416916001810154916002820154906003830154600484015460058501549060ff6006870154169260078701549560096008890154980154986040519a15158b5260208b015260408a01526060890152608088015260a0870152151560c0860152840152610100830152610120820152f35b346101b4576020806003193601126101b457610a90611ac1565b610a98611b6c565b6001600160a01b0316908115610b4d57816000526007815260ff60406000205416610b0a5760079082600052526040600020600160ff19825416179055610ae0600a546120c0565b600a557fe366c1c0452ed8eec96861e9e54141ebff23c9ec89fe27b996b45f5ec3884987600080a2005b6064906040519062461bcd60e51b825280600483015260248201527f4272696467653a2056616c696461746f7220616c7265616479206578697374736044820152fd5b6084906040519062461bcd60e51b82526004820152602160248201527f4272696467653a20496e76616c69642076616c696461746f72206164647265736044820152607360f81b6064820152fd5b346101b45760c03660031901126101b4576004356001600160401b0381116101b457610bcb903690600401611afc565b6024356001600160401b0381116101b457610bea903690600401611afc565b90916044356001600160401b0381116101b457610c0b903690600401611afc565b93906064356001600160401b0381116101b457610c2c903690600401611afc565b92906084356001600160401b0381116101b457610c4d903690600401611afc565b9590936001600160401b0360a435116101b457610c6f3660a435600401611afc565b610c7a9b919b611fef565b610c82611fd1565b336000526007602052610c9c60ff60406000205416612012565b600a841161100b5789841480611002575b80610ff9575b80610ff0575b80610fe7575b15610fa25760005b848110610cd5576001600055005b610d46610d3e828e610ce8828f8e6120cf565b356000526004602052610d0360ff6040600020541615612069565b6001600160a01b03610d1e610d19848c8b6120cf565b6120df565b166000526006602052610d3860ff60406000205416611e25565b876120cf565b351515611e71565b610d676001600160a01b03610d5f610d19848f8c6120cf565b161515611ecb565b610d72818b8a6120cf565b3582821015610f8c57600582901b8e0135368f9003601e19018112156101b4578e01906001600160401b038235116101b4578135360360208301136101b457610e0191610df2610de4610df893610dc761244a565b6042916040519161190160f01b8352600283015260228201522090565b913690602081359101612100565b906122f9565b909291926123c5565b6001600160a01b031660009081526007602052604090205460ff1615610f47578b8b8b8b8b858b818b8f82908f8e838092818f8f908f91610e458f859485916120cf565b356000908152600460205260409020805460ff191660011790556001600160a01b03610e7284878a6120cf565b610e7b906120df565b1693610e87918a6120cf565b610e90906120df565b91610e9b918b6120cf565b3590610ea692611f24565b610eaf926120cf565b610eb8906120df565b9a610ec2926120cf565b610ecb906120df565b99610ed5926120cf565b3594610ee0926120cf565b3593610eeb926120cf565b60408051928352602083019390935242928201929092529035926001600160a01b039081169216907f0f8a2b02085810d8a2b5dff01a0f5cf73199095e5fd3b341a91c911f4bf9ac2890606090a4610f42906120c0565b610cc7565b60405162461bcd60e51b815260206004820152601960248201527f4272696467653a20496e76616c6964207369676e6174757265000000000000006044820152606490fd5b634e487b7160e01b600052603260045260246000fd5b60405162461bcd60e51b815260206004820152601d60248201527f4272696467653a204172726179206c656e677468206d69736d617463680000006044820152606490fd5b50808414610cbf565b50888414610cb9565b50878414610cb3565b508a8414610cad565b60405162461bcd60e51b815260206004820152601760248201527f4272696467653a20426174636820746f6f206c617267650000000000000000006044820152606490fd5b346101b4576020806003193601126101b45761106a611ac1565b611072611b6c565b6001600160a01b0316600081815260078352604090205490919060ff161561113057600a5460095410156110ec576007908260005252604060002060ff198154169055600a5480156102ff5760001901600a557fe1434e25d6611e0db941968fdc97811c982ac1602e951637d206f5fdda9dd8f1600080a2005b6064906040519062461bcd60e51b82526004820152601a60248201527f4272696467653a20546f6f206665772076616c696461746f72730000000000006044820152fd5b6064906040519062461bcd60e51b825280600483015260248201527f4272696467653a2056616c696461746f7220646f6573206e6f742065786973746044820152fd5b346101b45760003660031901126101b45761118c611b6c565b60015460ff8116156111cb5760ff19166001557f5db9ee0a495bf2e6ff9c91a7834c1ba4fdd244a5e8aa4e537bd38aeae4b073aa6020604051338152a1005b604051638dfc202b60e01b8152600490fd5b346101b457610120806003193601126101b457600435916111fc611aed565b60e435908115158092036101b4576009857fe78910fc1a08062969a9edf6b274d453a04a1734507fabbd5bb445d5cb8eaeae9560209561123a611b6c565b6112fa6040519561124a87611b9b565b15159687875288870192604435845260408801606435815260608901608435815260808a019160a435835260a08b019360c435855260c08c019586528b01966101043588526101008c019860008a528c0199428b5260005260058e526112c460406000209c5115158d9060ff801983541691151516179055565b5160018c01555160028b01555160038a0155516004890155516005880155511515600687019060ff801983541691151516179055565b51600785015551600884015551910155604051908152a2005b346101b45760203660031901126101b4576001600160a01b03611334611ac1565b16600052600660205260c0604060002060ff8154169060018101549060ff600282015416600382015490600560048401549301549360405195151586526020860152151560408501526060840152608083015260a0820152f35b346101b45760203660031901126101b457610140906040516113af81611b9b565b6000815260006020820152600060408201526000606082015260006080820152600060a0820152600060c0820152600082820152610100916000838301526000610120809301526004356000526005602052604060002092604051809261141582611b9b565b60ff8654161515958683526001810154602084019081526002820154604085019081526003830154606086019081526004840154906080870191825260058501549260a0880193845260ff6006870154169460c0890195151586528b60096007890154988a8c01998a528c60088201549c019b8c5201549b019a8b526040519c8d525160208d01525160408c01525160608b01525160808a01525160a089015251151560c0880152519086015251908401525190820152f35b346101b45760003660031901126101b4576020600a54604051908152f35b346101b45760803660031901126101b457611505611ac1565b602435906064356001600160a01b03811690036101b457611524611fef565b61152c611fd1565b6001600160a01b0381166000908152600660205260409020546115519060ff16611e25565b604435600052600560205260ff604060002054161561195c57611575821515611e71565b61158b6064356001600160a01b03161515611ecb565b604435600052600560205260406000209160018060a01b038216600052600660205260406000206002840154821061191757600384015482116118d257620151806115da600986015442611f17565b106117f3575b60018401548083029083820414831517156102ff57611603612710820484611f17565b92604051906323b872dd60e01b60208301523360248301523060448301526064820152606481528060a08101106001600160401b0360a0830111176108125760a0810160405261165c906001600160a01b038616611f75565b61271081046117ca575b50336000526008602052604060002090815491611682836120c0565b90556040519160208301906bffffffffffffffffffffffff19808760601b1683523360601b6034860152856048860152604435606886015260643560601b16608885015246609c8501524260bc85015260dc84015260dc83526101008301908382106001600160401b03831117610812576004936008926040525190209562015180611712600983015442611f17565b10156117b9575b600583016201518061172c825442611f17565b10156117aa575b50016117408482546120f3565b90550161174e8282546120f3565b90556040805191825260443560208301526001600160a01b03606435811691830191909152426060830152339216907ff8fd5db625e6d06107408fef5775ec85ad3cb85dc4f008a7768f3ca9afa12e1e90608090a46001600055005b60008585015542905587611733565b600082820155426009820155611719565b6001546117ed9161271090049060081c6001600160a01b03908116908616611f24565b84611666565b6118018260088601546120f3565b60078501541061187b576118198260048301546120f3565b600382015410156115e05760405162461bcd60e51b815260206004820152602960248201527f4272696467653a20546f6b656e206461696c7920766f6c756d65206c696d697460448201526808195e18d95959195960ba1b6064820152608490fd5b60405162461bcd60e51b815260206004820152602960248201527f4272696467653a20436861696e206461696c7920766f6c756d65206c696d697460448201526808195e18d95959195960ba1b6064820152608490fd5b60405162461bcd60e51b815260206004820152601c60248201527f4272696467653a20416d6f756e742061626f7665206d6178696d756d000000006044820152606490fd5b60405162461bcd60e51b815260206004820152601c60248201527f4272696467653a20416d6f756e742062656c6f77206d696e696d756d000000006044820152606490fd5b60405162461bcd60e51b815260206004820152601b60248201527f4272696467653a20436861696e206e6f7420737570706f7274656400000000006044820152606490fd5b346101b4576020806003193601126101b4576024816001600160a01b036119c6611ac1565b16604051928380926370a0823160e01b82523060048301525afa908115611a25576000916119f8575b50604051908152f35b90508181813d8311611a1e575b611a0f8183611bed565b810103126101b45751826119ef565b503d611a05565b6040513d6000823e3d90fd5b346101b45760203660031901126101b4576001600160a01b03611a52611ac1565b1660005260086020526020604060002054604051908152f35b346101b45760003660031901126101b457602060405161c3508152f35b346101b45760003660031901126101b457807f9d2aa5d95451107a2dc454868636064e34f1c672736063e4d7eb2141f86872c460209252f35b600435906001600160a01b03821682036101b457565b602435906001600160a01b03821682036101b457565b6024359081151582036101b457565b9181601f840112156101b4578235916001600160401b0383116101b4576020808501948460051b0101116101b457565b919082519283825260005b848110611b58575050826000602080949584010152601f8019910116010190565b602081830181015184830182015201611b37565b60015460081c6001600160a01b03163303611b8357565b60405163118cdaa760e01b8152336004820152602490fd5b61014081019081106001600160401b0382111761081257604052565b60c081019081106001600160401b0382111761081257604052565b604081019081106001600160401b0382111761081257604052565b90601f801991011681019081106001600160401b0382111761081257604052565b6001600160401b0381116108125760051b60200190565b60ff8114611c635760ff811690601f8211611c515760405191611c4783611bd2565b8252602082015290565b604051632cd44ac360e21b8152600490fd5b50604051600060025490600182811c90808416938415611d45575b6020948584108114611d315783875286949392918115611d115750600114611cb2575b5050611caf92500382611bed565b90565b9093915060026000527f405787fa12a823e0f2b7631cc41b3ba8828b3321ca811111fa75cd3aa3bb5ace936000915b818310611cf9575050611caf93508201013880611ca1565b85548784018501529485019486945091830191611ce1565b915050611caf94925060ff191682840152151560051b8201013880611ca1565b634e487b7160e01b85526022600452602485fd5b91607f1691611c7e565b60ff8114611d715760ff811690601f8211611c515760405191611c4783611bd2565b50604051600060035490600182811c90808416938415611e1b575b6020948584108114611d315783875286949392918115611d115750600114611dbc575050611caf92500382611bed565b9093915060036000527fc2575a0e9e593c00f959f8c92f12db2869c3395a3b0502d05e2516446f71f85b936000915b818310611e03575050611caf93508201013880611ca1565b85548784018501529485019486945091830191611deb565b91607f1691611d8c565b15611e2c57565b60405162461bcd60e51b815260206004820152601b60248201527f4272696467653a20546f6b656e206e6f7420737570706f7274656400000000006044820152606490fd5b15611e7857565b60405162461bcd60e51b815260206004820152602560248201527f4272696467653a20416d6f756e74206d75737420626520677265617465722074604482015264068616e20360dc1b6064820152608490fd5b15611ed257565b60405162461bcd60e51b815260206004820152601960248201527f4272696467653a20496e76616c696420726563697069656e74000000000000006044820152606490fd5b919082039182116102ff57565b60405163a9059cbb60e01b60208201526001600160a01b03909216602483015260448083019390935291815260808101916001600160401b0383118284101761081257611f7392604052611f75565b565b906000602091828151910182855af115611a25576000513d611fc857506001600160a01b0381163b155b611fa65750565b604051635274afe760e01b81526001600160a01b039091166004820152602490fd5b60011415611f9f565b60ff60015416611fdd57565b60405163d93c066560e01b8152600490fd5b600260005414612000576002600055565b604051633ee5aeb560e01b8152600490fd5b1561201957565b60405162461bcd60e51b815260206004820152602260248201527f4272696467653a204f6e6c792076616c696461746f72732063616e20756e6c6f604482015261636b60f01b6064820152608490fd5b1561207057565b60405162461bcd60e51b815260206004820152602260248201527f4272696467653a205472616e7366657220616c72656164792070726f63657373604482015261195960f21b6064820152608490fd5b60001981146102ff5760010190565b9190811015610f8c5760051b0190565b356001600160a01b03811681036101b45790565b919082018092116102ff57565b9291926001600160401b0382116108125760405191612129601f8201601f191660200184611bed565b8294818452818301116101b4578281602093846000960137010152565b8051821015610f8c5760209160051b010190565b60095491926041918284028415858204851417156102ff5782106122b45761218490610dc761244a565b9161218e84611c0e565b9460409061219e82519788611bed565b858752601f196121ad87611c0e565b019460209536878a013760005b8781106121cf57505050505050505050600190565b8481028181048614821517156102ff57600182018083116102ff57868102908082048814901517156102ff578082116101b4578781116101b457612220610df8918361222694369203908801612100565b846122f9565b6001600160a01b03908116600081815260078a528690205490919060ff16156122a45760005b8b848210612272578493925061226791509361226d94612146565b526120c0565b6121ba565b8261227e838693612146565b5116146122935761228e906120c0565b61224c565b505050505050505050505050600090565b5050505050505050505050600090565b60405162461bcd60e51b815260206004820152601f60248201527f4272696467653a20496e73756666696369656e74207369676e617475726573006044820152606490fd5b815191906041830361232a5761232392506020820151906060604084015193015160001a90612335565b9192909190565b505060009160029190565b91907f7fffffffffffffffffffffffffffffff5d576e7357a4501ddfe92f46681b20a084116123b957926020929160ff608095604051948552168484015260408301526060820152600092839182805260015afa156123ad5780516001600160a01b038116156123a457918190565b50809160019190565b604051903d90823e3d90fd5b50505060009160039190565b600481101561243457806123d7575050565b600181036123f15760405163f645eedf60e01b8152600490fd5b600281036124125760405163fce698f760e01b815260048101839052602490fd5b60031461241c5750565b602490604051906335e2f38360e21b82526004820152fd5b634e487b7160e01b600052602160045260246000fd5b307f00000000000000000000000000000000000000000000000000000000000000006001600160a01b0316148061253b575b156124a5577f000000000000000000000000000000000000000000000000000000000000000090565b60405160208101907f8b73c3c69bb8fe3d512ecc4cf759cc79239f7b179b0ffacaa9a75d522b39400f82527f000000000000000000000000000000000000000000000000000000000000000060408201527f000000000000000000000000000000000000000000000000000000000000000060608201524660808201523060a082015260a0815261253581611bb7565b51902090565b507f0000000000000000000000000000000000000000000000000000000000000000461461247c56fea2646970667358221220170578f7cdd2877bd51319876b9a0af5ea58e4b3adbf8272ff67adf66086a9db64736f6c63430008140033e78910fc1a08062969a9edf6b274d453a04a1734507fabbd5bb445d5cb8eaeae",
  "linkReferences": {},
  "deployedLinkReferences": {}
}