{
  "_format": "hh-sol-artifact-1",
  "contractName": "WETH",
  "sourceName": "contracts/WETH.sol",
  "abi": [
    {
      "inputs": [],
      "stateMutability": "nonpayable",
      "type": "constructor"
    },
    {
      "inputs": [
        {
          "internalType": "address",
          "name": "spender",
          "type": "address"
        },
        {
          "internalType": "uint256",
          "name": "allowance",
          "type": "uint256"
        },
        {
          "internalType": "uint256",
          "name": "needed",
          "type": "uint256"
        }
      ],
      "name": "ERC20InsufficientAllowance",
      "type": "error"
    },
    {
      "inputs": [
        {
          "internalType": "address",
          "name": "sender",
          "type": "address"
        },
        {
          "internalType": "uint256",
          "name": "balance",
          "type": "uint256"
        },
        {
          "internalType": "uint256",
          "name": "needed",
          "type": "uint256"
        }
      ],
      "name": "ERC20InsufficientBalance",
      "type": "error"
    },
    {
      "inputs": [
        {
          "internalType": "address",
          "name": "approver",
          "type": "address"
        }
      ],
      "name": "ERC20InvalidApprover",
      "type": "error"
    },
    {
      "inputs": [
        {
          "internalType": "address",
          "name": "receiver",
          "type": "address"
        }
      ],
      "name": "ERC20InvalidReceiver",
      "type": "error"
    },
    {
      "inputs": [
        {
          "internalType": "address",
          "name": "sender",
          "type": "address"
        }
      ],
      "name": "ERC20InvalidSender",
      "type": "error"
    },
    {
      "inputs": [
        {
          "internalType": "address",
          "name": "spender",
          "type": "address"
        }
      ],
      "name": "ERC20InvalidSpender",
      "type": "error"
    },
    {
      "inputs": [
        {
          "internalType": "address",
          "name": "owner",
          "type": "address"
        }
      ],
      "name": "OwnableInvalidOwner",
      "type": "error"
    },
    {
      "inputs": [
        {
          "internalType": "address",
          "name": "account",
          "type": "address"
        }
      ],
      "name": "OwnableUnauthorizedAccount",
      "type": "error"
    },
    {
      "anonymous": false,
      "inputs": [
        {
          "indexed": true,
          "internalType": "address",
          "name": "owner",
          "type": "address"
        },
        {
          "indexed": true,
          "internalType": "address",
          "name": "spender",
          "type": "address"
        },
        {
          "indexed": false,
          "internalType": "uint256",
          "name": "value",
          "type": "uint256"
        }
      ],
      "name": "Approval",
      "type": "event"
    },
    {
      "anonymous": false,
      "inputs": [
        {
          "indexed": true,
          "internalType": "address",
          "name": "dst",
          "type": "address"
        },
        {
          "indexed": false,
          "internalType": "uint256",
          "name": "wad",
          "type": "uint256"
        }
      ],
      "name": "Deposit",
      "type": "event"
    },
    {
      "anonymous": false,
      "inputs": [
        {
          "indexed": true,
          "internalType": "address",
          "name": "previousOwner",
          "type": "address"
        },
        {
          "indexed": true,
          "internalType": "address",
          "name": "newOwner",
          "type": "address"
        }
      ],
      "name": "OwnershipTransferred",
      "type": "event"
    },
    {
      "anonymous": false,
      "inputs": [
        {
          "indexed": true,
          "internalType": "address",
          "name": "from",
          "type": "address"
        },
        {
          "indexed": true,
          "internalType": "address",
          "name": "to",
          "type": "address"
        },
        {
          "indexed": false,
          "internalType": "uint256",
          "name": "value",
          "type": "uint256"
        }
      ],
      "name": "Transfer",
      "type": "event"
    },
    {
      "anonymous": false,
      "inputs": [
        {
          "indexed": true,
          "internalType": "address",
          "name": "src",
          "type": "address"
        },
        {
          "indexed": false,
          "internalType": "uint256",
          "name": "wad",
          "type": "uint256"
        }
      ],
      "name": "Withdrawal",
      "type": "event"
    },
    {
      "inputs": [
        {
          "internalType": "address",
          "name": "owner",
          "type": "address"
        },
        {
          "internalType": "address",
          "name": "spender",
          "type": "address"
        }
      ],
      "name": "allowance",
      "outputs": [
        {
          "internalType": "uint256",
          "name": "",
          "type": "uint256"
        }
      ],
      "stateMutability": "view",
      "type": "function"
    },
    {
      "inputs": [
        {
          "internalType": "address",
          "name": "spender",
          "type": "address"
        },
        {
          "internalType": "uint256",
          "name": "value",
          "type": "uint256"
        }
      ],
      "name": "approve",
      "outputs": [
        {
          "internalType": "bool",
          "name": "",
          "type": "bool"
        }
      ],
      "stateMutability": "nonpayable",
      "type": "function"
    },
    {
      "inputs": [
        {
          "internalType": "address",
          "name": "account",
          "type": "address"
        }
      ],
      "name": "balanceOf",
      "outputs": [
        {
          "internalType": "uint256",
          "name": "",
          "type": "uint256"
        }
      ],
      "stateMutability": "view",
      "type": "function"
    },
    {
      "inputs": [],
      "name": "decimals",
      "outputs": [
        {
          "internalType": "uint8",
          "name": "",
          "type": "uint8"
        }
      ],
      "stateMutability": "view",
      "type": "function"
    },
    {
      "inputs": [],
      "name": "deposit",
      "outputs": [],
      "stateMutability": "payable",
      "type": "function"
    },
    {
      "inputs": [
        {
          "internalType": "address",
          "name": "token",
          "type": "address"
        },
        {
          "internalType": "address",
          "name": "to",
          "type": "address"
        },
        {
          "internalType": "uint256",
          "name": "amount",
          "type": "uint256"
        }
      ],
      "name": "emergencyWithdraw",
      "outputs": [],
      "stateMutability": "nonpayable",
      "type": "function"
    },
    {
      "inputs": [],
      "name": "getBalance",
      "outputs": [
        {
          "internalType": "uint256",
          "name": "",
          "type": "uint256"
        }
      ],
      "stateMutability": "view",
      "type": "function"
    },
    {
      "inputs": [],
      "name": "name",
      "outputs": [
        {
          "internalType": "string",
          "name": "",
          "type": "string"
        }
      ],
      "stateMutability": "view",
      "type": "function"
    },
    {
      "inputs": [],
      "name": "owner",
      "outputs": [
        {
          "internalType": "address",
          "name": "",
          "type": "address"
        }
      ],
      "stateMutability": "view",
      "type": "function"
    },
    {
      "inputs": [],
      "name": "renounceOwnership",
      "outputs": [],
      "stateMutability": "nonpayable",
      "type": "function"
    },
    {
      "inputs": [],
      "name": "symbol",
      "outputs": [
        {
          "internalType": "string",
          "name": "",
          "type": "string"
        }
      ],
      "stateMutability": "view",
      "type": "function"
    },
    {
      "inputs": [],
      "name": "totalSupply",
      "outputs": [
        {
          "internalType": "uint256",
          "name": "",
          "type": "uint256"
        }
      ],
      "stateMutability": "view",
      "type": "function"
    },
    {
      "inputs": [
        {
          "internalType": "address",
          "name": "to",
          "type": "address"
        },
        {
          "internalType": "uint256",
          "name": "value",
          "type": "uint256"
        }
      ],
      "name": "transfer",
      "outputs": [
        {
          "internalType": "bool",
          "name": "",
          "type": "bool"
        }
      ],
      "stateMutability": "nonpayable",
      "type": "function"
    },
    {
      "inputs": [
        {
          "internalType": "address",
          "name": "from",
          "type": "address"
        },
        {
          "internalType": "address",
          "name": "to",
          "type": "address"
        },
        {
          "internalType": "uint256",
          "name": "value",
          "type": "uint256"
        }
      ],
      "name": "transferFrom",
      "outputs": [
        {
          "internalType": "bool",
          "name": "",
          "type": "bool"
        }
      ],
      "stateMutability": "nonpayable",
      "type": "function"
    },
    {
      "inputs": [
        {
          "internalType": "address",
          "name": "newOwner",
          "type": "address"
        }
      ],
      "name": "transferOwnership",
      "outputs": [],
      "stateMutability": "nonpayable",
      "type": "function"
    },
    {
      "inputs": [
        {
          "internalType": "uint256",
          "name": "wad",
          "type": "uint256"
        }
      ],
      "name": "withdraw",
      "outputs": [],
      "stateMutability": "nonpayable",
      "type": "function"
    }
  ],
  "bytecode": "0x608034620003a0576040906001600160401b0390808301828111828210176200038a578352600d81526020916c2bb930b83832b21022ba3432b960991b83830152835192848401848110838211176200038a578552600493848152630ae8aa8960e31b8282015283519083821162000375576003928354926001968785811c951680156200036a575b8386101462000355578190601f95868111620002ff575b50839086831160011462000298576000926200028c575b505060001982871b1c191690871b1784555b8151948511620002775786548681811c911680156200026c575b8282101462000257578381116200020c575b50809285116001146200019e575093839491849260009562000192575b50501b92600019911b1c19161781555b33156200017c575060058054336001600160a01b0319821681179092559151916001600160a01b03167f8be0079c531659141344cd1fd0a4f28419497f9722a3daafe3b4186f6b6457e0600080a3610be39081620003a68239f35b60006024925191631e4fbdf760e01b8352820152fd5b01519350388062000111565b92919084601f1981168860005285600020956000905b89838310620001f15750505010620001d6575b50505050811b01815562000121565b01519060f884600019921b161c1916905538808080620001c7565b858701518955909701969485019488935090810190620001b4565b87600052816000208480880160051c8201928489106200024d575b0160051c019087905b82811062000240575050620000f4565b6000815501879062000230565b9250819262000227565b602288634e487b7160e01b6000525260246000fd5b90607f1690620000e2565b604187634e487b7160e01b6000525260246000fd5b015190503880620000b6565b90899350601f1983169188600052856000209260005b87828210620002e85750508411620002cf575b505050811b018455620000c8565b015160001983891b60f8161c19169055388080620002c1565b8385015186558d97909501949384019301620002ae565b90915086600052836000208680850160051c8201928686106200034b575b918b91869594930160051c01915b8281106200033b5750506200009f565b600081558594508b91016200032b565b925081926200031d565b602289634e487b7160e01b6000525260246000fd5b94607f169462000088565b604186634e487b7160e01b6000525260246000fd5b634e487b7160e01b600052604160045260246000fd5b600080fdfe6080604081815260048036101561001557600080fd5b600092833560e01c90816306fdde031461085057508063095ea7b3146107a757806312065fe01461078c57806318160ddd1461076d57806323b872dd1461068c5780632e1a7d4d14610547578063313ce5671461052b57806370a08231146104f4578063715018a6146104975780638da5cb5b1461046e57806395d89b411461036a578063a9059cbb14610339578063d0e30db014610284578063dd62ed3e1461023057838163e63ea40814610167575063f2fde38b146100d557600080fd5b34610163576020366003190112610163576100ee61098f565b906100f76109df565b6001600160a01b0391821692831561014d575050600554826bffffffffffffffffffffffff60a01b821617600555167f8be0079c531659141344cd1fd0a4f28419497f9722a3daafe3b4186f6b6457e08380a380f35b51631e4fbdf760e01b8152908101849052602490fd5b8280fd5b8281853461021b57610178366109aa565b94916101859391936109df565b6001600160a01b03908116806101b4575050505081806101b19481935af16101ab610b21565b50610b61565b80f35b94829560209592949760449451988996879563a9059cbb60e01b8752169085015260248401525af190811561022757506101ec575080f35b6020813d821161021f575b8161020460209383610a0b565b8101031261021b5751801515036102185780f35b80fd5b5080fd5b3d91506101f7565b513d84823e3d90fd5b50503461021b578060031936011261021b5761024a61098f565b6001600160a01b036024358181169290839003610280579160209491849316825260018552828220908252845220549051908152f35b8480fd5b508260031936011261016357331561032457600254903482018092116103115750600255338252816020528082203481540190558051348152827fddf252ad1be2c89b69c2b068fc378daa952ba7f163c4a11628f55a4df523b3ef60203393a3513481527fe1fffcc4923d04b559f4d29a8bfc6cda04eb5b0d3c460751c2402c5c5cc9109c60203392a280f35b634e487b7160e01b845260119052602483fd5b82602492519163ec442f0560e01b8352820152fd5b50503461021b578060031936011261021b5760209061036361035961098f565b6024359033610a43565b5160018152f35b5091903461021b578160031936011261021b57805191809380549160019083821c92828516948515610464575b60209586861081146104515785895290811561042d57506001146103d5575b6103d187876103c7828c0383610a0b565b5191829182610946565b0390f35b81529295507f8a35acfbc15ff81a39ae7d344fd709f28e8600b4aa8c65c6b64bfe7fe36bd19b5b82841061041a57505050826103d1946103c7928201019438806103b6565b80548685018801529286019281016103fc565b60ff19168887015250505050151560051b83010192506103c7826103d138806103b6565b634e487b7160e01b845260228352602484fd5b93607f1693610397565b50503461021b578160031936011261021b5760055490516001600160a01b039091168152602090f35b83346102185780600319360112610218576104b06109df565b600580546001600160a01b0319811690915581906001600160a01b03167f8be0079c531659141344cd1fd0a4f28419497f9722a3daafe3b4186f6b6457e08280a380f35b50503461021b57602036600319011261021b5760209181906001600160a01b0361051c61098f565b16815280845220549051908152f35b50503461021b578160031936011261021b576020905160128152f35b5091903461021b57602080600319360112610163578335913384528382528281852054106106495733156106335733845283825280842054948386106106085750827f7fcf532c15f0a6db0bd6d0e038bea71d30d808c7d98cb3bf7268a95bf5081b65939495338752868452038186205583600254036002558481518581527fddf252ad1be2c89b69c2b068fc378daa952ba7f163c4a11628f55a4df523b3ef843392a36105fe8580808088335af16101ab610b21565b519283523392a280f35b905163391434e360e21b81523391810191825260208201869052604082018490529081906060010390fd5b51634b637e8f60e11b8152808501849052602490fd5b5162461bcd60e51b815280850191909152601a60248201527f574554483a20494e53554646494349454e545f42414c414e43450000000000006044820152606490fd5b5082903461021b5761069d366109aa565b6001600160a01b038316808652600160209081528787203388529052868620549195929460001983106106d9575b602088610363898989610a43565b86831061074157811561072a57331561071357508252600160209081528683203384528152918690209085900390558290610363876106cb565b8751634a1406b160e11b8152908101849052602490fd5b875163e602df0560e01b8152908101849052602490fd5b8751637dc7a0d960e11b8152339181019182526020820193909352604081018790528291506060010390fd5b50503461021b578160031936011261021b576020906002549051908152f35b50503461021b578160031936011261021b5751478152602090f35b50346101635781600319360112610163576107c061098f565b602435903315610839576001600160a01b031691821561082257508083602095338152600187528181208582528752205582519081527f8c5be1e5ebec7d5bd14f71427d1e84f3dd0314c0f7b2291e5b200ac8c7c3b925843392a35160018152f35b8351634a1406b160e11b8152908101859052602490fd5b835163e602df0560e01b8152808401869052602490fd5b9291905034610942578360031936011261094257600354600181811c9186908281168015610938575b6020958686108214610925575084885290811561090357506001146108aa575b6103d186866103c7828b0383610a0b565b929550600383527fc2575a0e9e593c00f959f8c92f12db2869c3395a3b0502d05e2516446f71f85b5b8284106108f057505050826103d1946103c7928201019438610899565b80548685018801529286019281016108d3565b60ff191687860152505050151560051b83010192506103c7826103d138610899565b634e487b7160e01b845260229052602483fd5b93607f1693610879565b8380fd5b6020808252825181830181905290939260005b82811061097b57505060409293506000838284010152601f8019910116010190565b818101860151848201604001528501610959565b600435906001600160a01b03821682036109a557565b600080fd5b60609060031901126109a5576001600160a01b039060043582811681036109a5579160243590811681036109a5579060443590565b6005546001600160a01b031633036109f357565b60405163118cdaa760e01b8152336004820152602490fd5b90601f8019910116810190811067ffffffffffffffff821117610a2d57604052565b634e487b7160e01b600052604160045260246000fd5b916001600160a01b03808416928315610b085716928315610aef5760009083825281602052604082205490838210610abd575091604082827fddf252ad1be2c89b69c2b068fc378daa952ba7f163c4a11628f55a4df523b3ef958760209652828652038282205586815220818154019055604051908152a3565b60405163391434e360e21b81526001600160a01b03919091166004820152602481019190915260448101839052606490fd5b60405163ec442f0560e01b815260006004820152602490fd5b604051634b637e8f60e11b815260006004820152602490fd5b3d15610b5c573d9067ffffffffffffffff8211610a2d5760405191610b50601f8201601f191660200184610a0b565b82523d6000602084013e565b606090565b15610b6857565b60405162461bcd60e51b815260206004820152601960248201527f574554483a204554485f5452414e534645525f4641494c4544000000000000006044820152606490fdfea26469706673582212203d4d0c15bc7d2424f173830a542a138b282479214c63f4f3c71d97e884eb40f264736f6c63430008140033",
  "linkReferences": {},
  "deployedLinkReferences": {}
}