{
  "_format": "hh-sol-artifact-1",
  "contractName": "DEXPair",
  "sourceName": "contracts/DEXPair.sol",
  "abi": [
    {
      "inputs": [],
      "stateMutability": "nonpayable",
      "type": "constructor"
    },
    {
      "inputs": [],
      "name": "AlreadyInitialized",
      "type": "error"
    },
    {
      "inputs": [],
      "name": "EnforcedPause",
      "type": "error"
    },
    {
      "inputs": [],
      "name": "ExpectedPause",
      "type": "error"
    },
    {
      "inputs": [],
      "name": "Expired",
      "type": "error"
    },
    {
      "inputs": [],
      "name": "Forbidden",
      "type": "error"
    },
    {
      "inputs": [],
      "name": "InsufficientInputAmount",
      "type": "error"
    },
    {
      "inputs": [],
      "name": "InsufficientLiquidity",
      "type": "error"
    },
    {
      "inputs": [],
      "name": "InsufficientLiquidityBurned",
      "type": "error"
    },
    {
      "inputs": [],
      "name": "InsufficientLiquidityMinted",
      "type": "error"
    },
    {
      "inputs": [],
      "name": "InsufficientOutputAmount",
      "type": "error"
    },
    {
      "inputs": [],
      "name": "InsufficientReserves",
      "type": "error"
    },
    {
      "inputs": [],
      "name": "InvalidSignature",
      "type": "error"
    },
    {
      "inputs": [],
      "name": "InvalidTo",
      "type": "error"
    },
    {
      "inputs": [],
      "name": "K",
      "type": "error"
    },
    {
      "inputs": [],
      "name": "LiquidityTooLarge",
      "type": "error"
    },
    {
      "inputs": [],
      "name": "Overflow",
      "type": "error"
    },
    {
      "inputs": [],
      "name": "ReentrancyGuardReentrantCall",
      "type": "error"
    },
    {
      "inputs": [
        {
          "internalType": "address",
          "name": "token",
          "type": "address"
        }
      ],
      "name": "SafeERC20FailedOperation",
      "type": "error"
    },
    {
      "anonymous": false,
      "inputs": [
        {
          "indexed": true,
          "internalType": "address",
          "name": "owner",
          "type": "address"
        },
        {
          "indexed": true,
          "internalType": "address",
          "name": "spender",
          "type": "address"
        },
        {
          "indexed": false,
          "internalType": "uint256",
          "name": "value",
          "type": "uint256"
        }
      ],
      "name": "Approval",
      "type": "event"
    },
    {
      "anonymous": false,
      "inputs": [
        {
          "indexed": true,
          "internalType": "address",
          "name": "sender",
          "type": "address"
        },
        {
          "indexed": false,
          "internalType": "uint256",
          "name": "amount0",
          "type": "uint256"
        },
        {
          "indexed": false,
          "internalType": "uint256",
          "name": "amount1",
          "type": "uint256"
        },
        {
          "indexed": true,
          "internalType": "address",
          "name": "to",
          "type": "address"
        }
      ],
      "name": "Burn",
      "type": "event"
    },
    {
      "anonymous": false,
      "inputs": [
        {
          "indexed": true,
          "internalType": "address",
          "name": "sender",
          "type": "address"
        },
        {
          "indexed": false,
          "internalType": "uint256",
          "name": "amount0",
          "type": "uint256"
        },
        {
          "indexed": false,
          "internalType": "uint256",
          "name": "amount1",
          "type": "uint256"
        }
      ],
      "name": "Mint",
      "type": "event"
    },
    {
      "anonymous": false,
      "inputs": [
        {
          "indexed": false,
          "internalType": "address",
          "name": "account",
          "type": "address"
        }
      ],
      "name": "Paused",
      "type": "event"
    },
    {
      "anonymous": false,
      "inputs": [
        {
          "components": [
            {
              "internalType": "bool",
              "name": "emergencyStop",
              "type": "bool"
            }
          ],
          "indexed": false,
          "internalType": "struct IDEXFactory.PoolSecurityConfig",
          "name": "config",
          "type": "tuple"
        }
      ],
      "name": "SecurityConfigUpdated",
      "type": "event"
    },
    {
      "anonymous": false,
      "inputs": [
        {
          "indexed": true,
          "internalType": "address",
          "name": "sender",
          "type": "address"
        },
        {
          "indexed": false,
          "internalType": "uint256",
          "name": "amount0In",
          "type": "uint256"
        },
        {
          "indexed": false,
          "internalType": "uint256",
          "name": "amount1In",
          "type": "uint256"
        },
        {
          "indexed": false,
          "internalType": "uint256",
          "name": "amount0Out",
          "type": "uint256"
        },
        {
          "indexed": false,
          "internalType": "uint256",
          "name": "amount1Out",
          "type": "uint256"
        },
        {
          "indexed": true,
          "internalType": "address",
          "name": "to",
          "type": "address"
        }
      ],
      "name": "Swap",
      "type": "event"
    },
    {
      "anonymous": false,
      "inputs": [
        {
          "indexed": false,
          "internalType": "uint256",
          "name": "reserve0",
          "type": "uint256"
        },
        {
          "indexed": false,
          "internalType": "uint256",
          "name": "reserve1",
          "type": "uint256"
        }
      ],
      "name": "Sync",
      "type": "event"
    },
    {
      "anonymous": false,
      "inputs": [
        {
          "indexed": true,
          "internalType": "bytes32",
          "name": "proposalId",
          "type": "bytes32"
        },
        {
          "indexed": true,
          "internalType": "address",
          "name": "proposer",
          "type": "address"
        },
        {
          "indexed": false,
          "internalType": "uint256",
          "name": "executionTime",
          "type": "uint256"
        }
      ],
      "name": "TimelockProposalCreated",
      "type": "event"
    },
    {
      "anonymous": false,
      "inputs": [
        {
          "indexed": true,
          "internalType": "bytes32",
          "name": "proposalId",
          "type": "bytes32"
        }
      ],
      "name": "TimelockProposalExecuted",
      "type": "event"
    },
    {
      "anonymous": false,
      "inputs": [
        {
          "indexed": true,
          "internalType": "address",
          "name": "from",
          "type": "address"
        },
        {
          "indexed": true,
          "internalType": "address",
          "name": "to",
          "type": "address"
        },
        {
          "indexed": false,
          "internalType": "uint256",
          "name": "value",
          "type": "uint256"
        }
      ],
      "name": "Transfer",
      "type": "event"
    },
    {
      "anonymous": false,
      "inputs": [
        {
          "indexed": false,
          "internalType": "address",
          "name": "account",
          "type": "address"
        }
      ],
      "name": "Unpaused",
      "type": "event"
    },
    {
      "inputs": [],
      "name": "DOMAIN_SEPARATOR",
      "outputs": [
        {
          "internalType": "bytes32",
          "name": "",
          "type": "bytes32"
        }
      ],
      "stateMutability": "view",
      "type": "function"
    },
    {
      "inputs": [],
      "name": "MINIMUM_LIQUIDITY",
      "outputs": [
        {
          "internalType": "uint256",
          "name": "",
          "type": "uint256"
        }
      ],
      "stateMutability": "view",
      "type": "function"
    },
    {
      "inputs": [],
      "name": "PERMIT_TYPEHASH",
      "outputs": [
        {
          "internalType": "bytes32",
          "name": "",
          "type": "bytes32"
        }
      ],
      "stateMutability": "view",
      "type": "function"
    },
    {
      "inputs": [
        {
          "internalType": "address",
          "name": "",
          "type": "address"
        },
        {
          "internalType": "address",
          "name": "",
          "type": "address"
        }
      ],
      "name": "allowance",
      "outputs": [
        {
          "internalType": "uint256",
          "name": "",
          "type": "uint256"
        }
      ],
      "stateMutability": "view",
      "type": "function"
    },
    {
      "inputs": [
        {
          "internalType": "address",
          "name": "spender",
          "type": "address"
        },
        {
          "internalType": "uint256",
          "name": "value",
          "type": "uint256"
        }
      ],
      "name": "approve",
      "outputs": [
        {
          "internalType": "bool",
          "name": "",
          "type": "bool"
        }
      ],
      "stateMutability": "nonpayable",
      "type": "function"
    },
    {
      "inputs": [
        {
          "internalType": "address",
          "name": "",
          "type": "address"
        }
      ],
      "name": "balanceOf",
      "outputs": [
        {
          "internalType": "uint256",
          "name": "",
          "type": "uint256"
        }
      ],
      "stateMutability": "view",
      "type": "function"
    },
    {
      "inputs": [
        {
          "internalType": "address",
          "name": "to",
          "type": "address"
        }
      ],
      "name": "burn",
      "outputs": [
        {
          "internalType": "uint256",
          "name": "amount0",
          "type": "uint256"
        },
        {
          "internalType": "uint256",
          "name": "amount1",
          "type": "uint256"
        }
      ],
      "stateMutability": "nonpayable",
      "type": "function"
    },
    {
      "inputs": [],
      "name": "decimals",
      "outputs": [
        {
          "internalType": "uint8",
          "name": "",
          "type": "uint8"
        }
      ],
      "stateMutability": "pure",
      "type": "function"
    },
    {
      "inputs": [
        {
          "internalType": "bytes32",
          "name": "",
          "type": "bytes32"
        }
      ],
      "name": "executedProposals",
      "outputs": [
        {
          "internalType": "bool",
          "name": "",
          "type": "bool"
        }
      ],
      "stateMutability": "view",
      "type": "function"
    },
    {
      "inputs": [],
      "name": "factory",
      "outputs": [
        {
          "internalType": "address",
          "name": "",
          "type": "address"
        }
      ],
      "stateMutability": "view",
      "type": "function"
    },
    {
      "inputs": [],
      "name": "getReserves",
      "outputs": [
        {
          "internalType": "uint112",
          "name": "_reserve0",
          "type": "uint112"
        },
        {
          "internalType": "uint112",
          "name": "_reserve1",
          "type": "uint112"
        },
        {
          "internalType": "uint32",
          "name": "_blockTimestampLast",
          "type": "uint32"
        }
      ],
      "stateMutability": "view",
      "type": "function"
    },
    {
      "inputs": [
        {
          "internalType": "address",
          "name": "_token0",
          "type": "address"
        },
        {
          "internalType": "address",
          "name": "_token1",
          "type": "address"
        }
      ],
      "name": "initialize",
      "outputs": [],
      "stateMutability": "nonpayable",
      "type": "function"
    },
    {
      "inputs": [
        {
          "internalType": "address",
          "name": "_token0",
          "type": "address"
        },
        {
          "internalType": "address",
          "name": "_token1",
          "type": "address"
        },
        {
          "components": [
            {
              "internalType": "bool",
              "name": "emergencyStop",
              "type": "bool"
            }
          ],
          "internalType": "struct IDEXFactory.PoolSecurityConfig",
          "name": "_securityConfig",
          "type": "tuple"
        }
      ],
      "name": "initialize",
      "outputs": [],
      "stateMutability": "nonpayable",
      "type": "function"
    },
    {
      "inputs": [],
      "name": "kLast",
      "outputs": [
        {
          "internalType": "uint256",
          "name": "",
          "type": "uint256"
        }
      ],
      "stateMutability": "view",
      "type": "function"
    },
    {
      "inputs": [
        {
          "internalType": "address",
          "name": "to",
          "type": "address"
        }
      ],
      "name": "mint",
      "outputs": [
        {
          "internalType": "uint256",
          "name": "liquidity",
          "type": "uint256"
        }
      ],
      "stateMutability": "nonpayable",
      "type": "function"
    },
    {
      "inputs": [],
      "name": "name",
      "outputs": [
        {
          "internalType": "string",
          "name": "",
          "type": "string"
        }
      ],
      "stateMutability": "pure",
      "type": "function"
    },
    {
      "inputs": [
        {
          "internalType": "address",
          "name": "",
          "type": "address"
        }
      ],
      "name": "nonces",
      "outputs": [
        {
          "internalType": "uint256",
          "name": "",
          "type": "uint256"
        }
      ],
      "stateMutability": "view",
      "type": "function"
    },
    {
      "inputs": [],
      "name": "pause",
      "outputs": [],
      "stateMutability": "nonpayable",
      "type": "function"
    },
    {
      "inputs": [],
      "name": "paused",
      "outputs": [
        {
          "internalType": "bool",
          "name": "",
          "type": "bool"
        }
      ],
      "stateMutability": "view",
      "type": "function"
    },
    {
      "inputs": [
        {
          "internalType": "address",
          "name": "owner",
          "type": "address"
        },
        {
          "internalType": "address",
          "name": "spender",
          "type": "address"
        },
        {
          "internalType": "uint256",
          "name": "value",
          "type": "uint256"
        },
        {
          "internalType": "uint256",
          "name": "deadline",
          "type": "uint256"
        },
        {
          "internalType": "uint8",
          "name": "v",
          "type": "uint8"
        },
        {
          "internalType": "bytes32",
          "name": "r",
          "type": "bytes32"
        },
        {
          "internalType": "bytes32",
          "name": "s",
          "type": "bytes32"
        }
      ],
      "name": "permit",
      "outputs": [],
      "stateMutability": "nonpayable",
      "type": "function"
    },
    {
      "inputs": [],
      "name": "price0CumulativeLast",
      "outputs": [
        {
          "internalType": "uint256",
          "name": "",
          "type": "uint256"
        }
      ],
      "stateMutability": "view",
      "type": "function"
    },
    {
      "inputs": [],
      "name": "price1CumulativeLast",
      "outputs": [
        {
          "internalType": "uint256",
          "name": "",
          "type": "uint256"
        }
      ],
      "stateMutability": "view",
      "type": "function"
    },
    {
      "inputs": [],
      "name": "securityConfig",
      "outputs": [
        {
          "internalType": "bool",
          "name": "emergencyStop",
          "type": "bool"
        }
      ],
      "stateMutability": "view",
      "type": "function"
    },
    {
      "inputs": [
        {
          "internalType": "address",
          "name": "to",
          "type": "address"
        }
      ],
      "name": "skim",
      "outputs": [],
      "stateMutability": "nonpayable",
      "type": "function"
    },
    {
      "inputs": [
        {
          "internalType": "uint256",
          "name": "amount0Out",
          "type": "uint256"
        },
        {
          "internalType": "uint256",
          "name": "amount1Out",
          "type": "uint256"
        },
        {
          "internalType": "address",
          "name": "to",
          "type": "address"
        },
        {
          "internalType": "bytes",
          "name": "data",
          "type": "bytes"
        }
      ],
      "name": "swap",
      "outputs": [],
      "stateMutability": "nonpayable",
      "type": "function"
    },
    {
      "inputs": [],
      "name": "symbol",
      "outputs": [
        {
          "internalType": "string",
          "name": "",
          "type": "string"
        }
      ],
      "stateMutability": "pure",
      "type": "function"
    },
    {
      "inputs": [],
      "name": "sync",
      "outputs": [],
      "stateMutability": "nonpayable",
      "type": "function"
    },
    {
      "inputs": [
        {
          "internalType": "bytes32",
          "name": "",
          "type": "bytes32"
        }
      ],
      "name": "timelockProposals",
      "outputs": [
        {
          "internalType": "uint256",
          "name": "",
          "type": "uint256"
        }
      ],
      "stateMutability": "view",
      "type": "function"
    },
    {
      "inputs": [],
      "name": "token0",
      "outputs": [
        {
          "internalType": "address",
          "name": "",
          "type": "address"
        }
      ],
      "stateMutability": "view",
      "type": "function"
    },
    {
      "inputs": [],
      "name": "token1",
      "outputs": [
        {
          "internalType": "address",
          "name": "",
          "type": "address"
        }
      ],
      "stateMutability": "view",
      "type": "function"
    },
    {
      "inputs": [],
      "name": "totalSupply",
      "outputs": [
        {
          "internalType": "uint256",
          "name": "",
          "type": "uint256"
        }
      ],
      "stateMutability": "view",
      "type": "function"
    },
    {
      "inputs": [
        {
          "internalType": "address",
          "name": "to",
          "type": "address"
        },
        {
          "internalType": "uint256",
          "name": "value",
          "type": "uint256"
        }
      ],
      "name": "transfer",
      "outputs": [
        {
          "internalType": "bool",
          "name": "",
          "type": "bool"
        }
      ],
      "stateMutability": "nonpayable",
      "type": "function"
    },
    {
      "inputs": [
        {
          "internalType": "address",
          "name": "from",
          "type": "address"
        },
        {
          "internalType": "address",
          "name": "to",
          "type": "address"
        },
        {
          "internalType": "uint256",
          "name": "value",
          "type": "uint256"
        }
      ],
      "name": "transferFrom",
      "outputs": [
        {
          "internalType": "bool",
          "name": "",
          "type": "bool"
        }
      ],
      "stateMutability": "nonpayable",
      "type": "function"
    },
    {
      "inputs": [],
      "name": "unpause",
      "outputs": [],
      "stateMutability": "nonpayable",
      "type": "function"
    }
  ],
  "bytecode": "0x6080604052346200002657620000146200009b565b604051612e726200011c8239612e7290f35b600080fd5b906001600160a01b03905b9181191691161790565b620000569062000059906001600160a01b031682565b90565b6001600160a01b031690565b620000569062000040565b620000569062000065565b906200008f62000056620000979262000070565b82546200002b565b9055565b620000a5620000b4565b620000b23360046200007b565b565b620000b2620000b262000105565b6200005662000056620000569290565b620000566001620000c2565b906000199062000036565b90620000fd620000566200009792620000c2565b8254620000de565b620000b262000113620000d2565b6000620000e956fe6080604052600436101561001257600080fd5b60003560e01c8063022c0d9f1461023257806306fdde031461022d5780630902f1ac14610228578063095ea7b3146102235780630dfe16811461021e57806318160ddd1461021957806323b872dd1461021457806330adf81f1461020f578063313ce5671461020a5780633566414c146102055780633644e515146102005780633f4ba83a146101fb578063485cc955146101f65780635909c0d5146101f15780635a3d5493146101ec5780635c975abb146101e75780636a627842146101e257806370a08231146101dd5780637174b568146101d85780637464fc3d146101d35780637ecebe00146101ce578063820d25a8146101c95780638456cb59146101c457806389afcb44146101bf57806395d89b41146101ba578063a9059cbb146101b5578063ba9a7a56146101b0578063bc25cf77146101ab578063be11b1d0146101a6578063c45a0155146101a1578063d21220a71461019c578063d505accf14610197578063dd62ed3e146101925763fff6cae90361024057610b11565b610af5565b610abc565b610a25565b6109fe565b6109d7565b6109a2565b610987565b61094b565b610930565b610902565b6108d3565b6108ba565b610861565b610834565b610819565b6107ec565b61077b565b61074c565b610731565b61070a565b6106e5565b6106aa565b61068f565b610674565b6105f0565b6105b7565b61059b565b61053f565b6104da565b610475565b610402565b6103d7565b61031d565b805b0361024057565b600080fd5b9050359061025282610237565b565b73ffffffffffffffffffffffffffffffffffffffff1690565b90565b73ffffffffffffffffffffffffffffffffffffffff8116610239565b9050359061025282610270565b909182601f830112156102405781359167ffffffffffffffff831161024057602001926001830284011161024057565b90608082820312610240576102de8183610245565b926102ec8260208501610245565b926102fa836040830161028c565b92606082013567ffffffffffffffff8111610240576103199201610299565b9091565b34610240576103396103303660046102c9565b93929092612358565b604051005b0390f35b600091031261024057565b60005b8381106103605750506000910152565b8181015183820152602001610350565b61039161039a6020936103c293610385815190565b80835293849260200190565b9586910161034d565b601f017fffffffffffffffffffffffffffffffffffffffffffffffffffffffffffffffe01690565b0190565b602080825261026d92910190610370565b34610240576103e7366004610342565b61033e6103f26127af565b604051918291826103c6565b9052565b3461024057610412366004610342565b61033e61041d610fc3565b604080516dffffffffffffffffffffffffffff948516815293909216602084015263ffffffff16908201529081906060820190565b91906040838203126102405761026d9061046c818561028c565b93602001610245565b346102405761033e61049161048b366004610452565b906125ff565b60405191829182901515815260200190565b61026d916008021c73ffffffffffffffffffffffffffffffffffffffff1690565b9061026d91546104a3565b61026d6001806104c4565b34610240576104ea366004610342565b61033e6104f56104cf565b6040515b9182918273ffffffffffffffffffffffffffffffffffffffff909116815260200190565b61026d916008021c81565b9061026d915461051d565b61026d60006008610528565b346102405761054f366004610342565b61033e61055a610533565b6040515b9182918290815260200190565b90916060828403126102405761026d610584848461028c565b93610592816020860161028c565b93604001610245565b346102405761033e6104916105b136600461056b565b916126c1565b34610240576105c7366004610342565b61033e7f6e71edae12b1b97f4d1f60370fef10105fa2faae0126114a169c64845d6126c961055a565b3461024057610600366004610342565b61033e61060b612807565b6040519182918260ff909116815260200190565b906020828203126102405761026d91610245565b905b600052602052604060002090565b61026d916008021c5b60ff1690565b9061026d9154610643565b61026d9061066f600b91600092610633565b610652565b346102405761033e61049161068a36600461061f565b61065d565b346102405761069f366004610342565b61033e61055a612811565b34610240576106ba366004610342565b610339610c98565b91906040838203126102405761026d906106dc818561028c565b9360200161028c565b34610240576103396106f83660046106c2565b90610dc0565b61026d60006005610528565b346102405761071a366004610342565b61033e61055a6106fe565b61026d60006006610528565b3461024057610741366004610342565b61033e61055a610725565b346102405761075c366004610342565b61033e610491610b29565b906020828203126102405761026d9161028c565b346102405761033e61055a610791366004610767565b6114f7565b61025461026d61026d9273ffffffffffffffffffffffffffffffffffffffff1690565b61026d90610796565b61026d906107b9565b90610635906107c2565b61026d906107e76007916000926107cb565b610528565b346102405761033e61055a610802366004610767565b6107d5565b61026d906107e7600a91600092610633565b346102405761033e61055a61082f36600461061f565b610807565b3461024057610844366004610342565b61033e61055a612d13565b61026d906107e7600d916000926107cb565b346102405761033e61055a610877366004610767565b61084f565b908160209103126102405790565b90916060828403126102405761026d6108a3848461028c565b936108b1816020860161028c565b9360400161087c565b34610240576103396108cd36600461088a565b91610fb8565b34610240576108e3366004610342565b610339610bb5565b9081526040810192916102529160200152565b0152565b346102405761091a610915366004610767565b611c7c565b9061033e61092760405190565b928392836108eb565b3461024057610940366004610342565b61033e6103f26127f2565b346102405761033e610491610961366004610452565b90612660565b61026d61026d61026d9290565b61026d6103e8610967565b61026d610974565b3461024057610997366004610342565b61033e61055a61097f565b34610240576103396109b5366004610767565b612bdd565b61026d9061064c565b61026d90546109ba565b61026d60096109c3565b34610240576109e7366004610342565b61033e6104916109cd565b61026d600060046104c4565b3461024057610a0e366004610342565b61033e6104f56109f2565b61026d600060026104c4565b3461024057610a35366004610342565b61033e6104f5610a19565b60ff8116610239565b9050359061025282610a40565b60e08183031261024057610a6a828261028c565b92610a78836020840161028c565b92610a868160408501610245565b92610a948260608301610245565b9261026d610aa58460808501610a49565b93610ab38160a08601610245565b9360c001610245565b3461024057610339610acf366004610a56565b95949094939193612a41565b6107e761026d92610af0600c936000946107cb565b6107cb565b346102405761033e61055a610b0b3660046106c2565b90610adb565b3461024057610b21366004610342565b61033961247c565b61026d60016109c3565b61026d90610254565b61026d9054610b33565b33610b71610b576102546004610b3c565b9173ffffffffffffffffffffffffffffffffffffffff1690565b03610b7e57610252610bad565b6040517fee90c468000000000000000000000000000000000000000000000000000000008152600490fd5b0390fd5b610252610c36565b610252610b46565b610bc5610c3e565b610252610bf7565b9060ff905b9181191691161790565b90610bec61026d610bf392151590565b8254610bcd565b9055565b610c02600180610bdc565b33610c317f62e78cea01bee320cd4e420270b5ea74000d11b0c9f74754ebdbfc544b05a258916104f960405190565b0390a1565b610252610bbd565b610c46610b29565b610c4c57565b6040517fd93c0665000000000000000000000000000000000000000000000000000000008152600490fd5b33610c88610b576102546004610b3c565b03610b7e57610252610252610ce6565b610252610c77565b610ca8610cee565b610252610cb760006001610bdc565b33610c317f5db9ee0a495bf2e6ff9c91a7834c1ba4fdd244a5e8aa4e537bd38aeae4b073aa916104f960405190565b610252610ca0565b610cfd610cf9610b29565b1590565b610d0357565b6040517f8dfc202b000000000000000000000000000000000000000000000000000000008152600490fd5b7f4e487b7100000000000000000000000000000000000000000000000000000000600052604160045260246000fd5b90601f017fffffffffffffffffffffffffffffffffffffffffffffffffffffffffffffffe016810190811067ffffffffffffffff821117610d9d57604052565b610d2e565b90610252610daf60405190565b9283610d5d565b61026d6020610da2565b61025291600191610dd9610dd2610db6565b9315158452565b610e92565b61026d9060081c610254565b61026d9054610dde565b61025461026d61026d9290565b61026d90610df4565b9074ffffffffffffffffffffffffffffffffffffffff009060081b610bd2565b90610e3a61026d610bf3926107c2565b8254610e0a565b9073ffffffffffffffffffffffffffffffffffffffff90610bd2565b90610e6d61026d610bf3926107c2565b8254610e41565b61025291610e829051151590565b90610bdc565b9061025291610e74565b90610e9d6001610dea565b610ead610b576102546000610e01565b03610f1057610ec0610ec7926001610e2a565b6002610e5d565b610ed2816009610e88565b610c317fb1102bf8599badf4360419344e57744751c4d685c0864e807454e60f8e6addbc91610f0060405190565b9182918290511515815260200190565b6040517f0dc149f0000000000000000000000000000000000000000000000000000000008152600490fd5b919033610f4e610b576102546004610b3c565b03610b7e5761025292610fa5565b801515610239565b9050359061025282610f5c565b91909160208184031261024057610f94610f8b6020610da2565b93600092610f64565b90830152565b61026d903690610f71565b90610fb261025293610f9a565b91610e92565b906102529291610f3b565b610fcb611025565b9192909190565b61026d905b6dffffffffffffffffffffffffffff1690565b61026d9054610fd2565b61026d9060701c610fd7565b61026d9054610ff4565b61026d9060e01c5b63ffffffff1690565b61026d905461100a565b61102f6003610fea565b9061103a6003611000565b9061026d600361101b565b906110579161105261154b565b611060565b906102526115a4565b9061026d9161106d610c3e565b9061026d9161117f565b9050519061025282610237565b906020828203126102405761026d91611077565b6040513d6000823e3d90fd5b61026d61026d61026d926dffffffffffffffffffffffffffff1690565b7f4e487b7100000000000000000000000000000000000000000000000000000000600052601160045260246000fd5b919082039182116110fd57565b6110c1565b61026d9081565b61026d9054611102565b610fd761026d61026d9290565b9190918083025b9281840414901517156110fd57565b7f4e487b7100000000000000000000000000000000000000000000000000000000600052601260045260246000fd5b9061116f565b9190565b90811561117a570490565b611136565b5090611189611025565b506111a261119d61119d6001969496610dea565b6107c2565b936370a082316111b1306107c2565b9060206111bd60405190565b80986111c98460e01b90565b825273ffffffffffffffffffffffffffffffffffffffff8516600483015260249082905afa9687156114ca576000976114cf575b506112539160209161122f61121861119d61119d6002610b3c565b9161122260405190565b9586948593849360e01b90565b835273ffffffffffffffffffffffffffffffffffffffff1660048301526024820190565b03915afa9081156114ca5760009161149c575b50611279611273836110a4565b876110f0565b9561128c611286856110a4565b836110f0565b60009761129889610967565b8114801561148b575b611460576112af6008611109565b6112b88a610967565b81036113a957506112cf6112fe926112d492611120565b612553565b976112f96112ea6112e3610974565b809b6110f0565b996112f483610e01565b612484565b610967565b871461137e5761133b61026d7fffffffffffffffffffffffffffffffffffffffffffffffffffffffffffffffff6113356008611109565b906110f0565b87116113535761134e8761025296612484565b61173a565b6040517f2124ec45000000000000000000000000000000000000000000000000000000008152600490fd5b6040517fd226f9d4000000000000000000000000000000000000000000000000000000008152600490fd5b916113b38a611113565b6dffffffffffffffffffffffffffff871614801561143f575b611414576114086113ff846113f96113ea6112fe9761140e97611120565b6113f38b6110a4565b90611165565b93611120565b6113f3896110a4565b90612541565b97610967565b6040517f945e9268000000000000000000000000000000000000000000000000000000008152600490fd5b506114498a611113565b6dffffffffffffffffffffffffffff8816146113cc565b6040517f098fb561000000000000000000000000000000000000000000000000000000008152600490fd5b5061149589610967565b82146112a1565b6114bd915060203d81116114c3575b6114b58183610d5d565b810190611084565b38611266565b503d6114ab565b611098565b6020919750916114ee61125393833d81116114c3576114b58183610d5d565b979150916111fd565b61026d906000611045565b61026d6002610967565b907fffffffffffffffffffffffffffffffffffffffffffffffffffffffffffffffff90610bd2565b9061154461026d610bf392610967565b825461150c565b6115556000611109565b61155d611502565b90811461156f57610252906000611534565b6040517f3ee5aeb5000000000000000000000000000000000000000000000000000000008152600490fd5b61026d6001610967565b6102526115af61159a565b6000611534565b811561117a570690565b61101261026d61026d9290565b63ffffffff908116911690039063ffffffff82116110fd57565b61026d61026d61026d927bffffffffffffffffffffffffffffffffffffffffffffffffffffffff1690565b61026d61026d61026d9263ffffffff1690565b919082018092116110fd57565b906dffffffffffffffffffffffffffff90610bd2565b610fd761026d61026d926dffffffffffffffffffffffffffff1690565b9061167561026d610bf392611648565b8254611632565b907bffffffffffffffffffffffffffff00000000000000000000000000009060701b610bd2565b906116b361026d610bf392611648565b825461167c565b907fffffffff000000000000000000000000000000000000000000000000000000009060e01b610bd2565b61101261026d61026d9263ffffffff1690565b9061170861026d610bf3926116e5565b82546116ba565b6103fe906110a4565b9160206102529294936117336040820196600083019061170f565b019061170f565b90926dffffffffffffffffffffffffffff611754816110a4565b8311908115611933575b50611908576117f2936117df6117d86117eb946117e4946117956117904261178a640100000000610967565b906115b6565b6115c0565b976117a96117a3600361101b565b8a6115cd565b9160006117b5816115c0565b63ffffffff85161190816118e4575b816118c1575b5061183d575b505050611113565b6003611665565b611113565b60036116a3565b60036116f8565b6117fc6003610fea565b6118066003611000565b7fcf2aa50876cdfbb541206f89af0ee78d44a2abf8d328e37fa4917f982149848a91610c3161183460405190565b92839283611718565b6118b9926118816118a26118738461186e8761189d6118966118876118786118736118b29d61186e6118a89e612ddd565b612e27565b6115e7565b6118818b611612565b90611120565b6118916005611109565b611625565b6005611534565b612ddd565b91611612565b6118916006611109565b6006611534565b3880806117d0565b6118cb9150611113565b6dffffffffffffffffffffffffffff82161415386117ca565b90506118ef81611113565b6dffffffffffffffffffffffffffff84161415906117c4565b6040517f35278d12000000000000000000000000000000000000000000000000000000008152600490fd5b61193d91506110a4565b84113861175e565b90611958929161195361154b565b611962565b90916102526115a4565b906103199291611970610c3e565b5061031991905061197f611025565b50929061198c6001610dea565b936119a061199a6002610b3c565b956107c2565b916119aa836107c2565b926119b4306107c2565b6040517f70a0823100000000000000000000000000000000000000000000000000000000815273ffffffffffffffffffffffffffffffffffffffff8216600482015297602089602481895afa9889156114ca57600099611c58575b50611a19906107c2565b97611a23896107c2565b92611a2d60405190565b7f70a0823100000000000000000000000000000000000000000000000000000000815273ffffffffffffffffffffffffffffffffffffffff841660048201529860208a602481885afa998a156114ca5760009a611c36575b50899a611aba9a50611acb611abf611aa6611aa18860076107cb565b611109565b95611ab16008611109565b9d8e9188611120565b611165565b9b611aba8d9e87611120565b92839b6000611ad981610967565b8214908115611c24575b50611bf95783611afa92611afa611aff988a612515565b611cf0565b6020611b0a60405190565b7f70a0823100000000000000000000000000000000000000000000000000000000815273ffffffffffffffffffffffffffffffffffffffff8316600482015295869060249082905afa9081156114ca57611b9c95600092611bd9575b506040519192602092968792839182917f70a082310000000000000000000000000000000000000000000000000000000061122f565b03915afa9081156114ca5761025294600092611bb9575b5061173a565b611bd291925060203d81116114c3576114b58183610d5d565b9038611bb3565b60209250611bf390833d81116114c3576114b58183610d5d565b91611b66565b6040517f749383ad000000000000000000000000000000000000000000000000000000008152600490fd5b611c2e9150610967565b851438611ae3565b611aba9a50611c529060203d81116114c3576114b58183610d5d565b99611a85565b611a19919950611c759060203d81116114c3576114b58183610d5d565b9890611a0f565b61031990600080611945565b611ca1611c9b61026d9263ffffffff1690565b60e01b90565b7fffffffff000000000000000000000000000000000000000000000000000000001690565b73ffffffffffffffffffffffffffffffffffffffff90911681526040810192916102529160200152565b611d33600492611d2461025295611d0a63a9059cbb611c88565b92611d1460405190565b9687946020860190815201611cc6565b60208201810382520383610d5d565b906000602091611d41600090565b50828151910182855af11561109857600080513d611d6161116b84610967565b03611ddf5750611d7d61116b611d76846107c2565b3b92610967565b145b611d865750565b611d92610ba9916107c2565b6040519182917f5274afe70000000000000000000000000000000000000000000000000000000083526004830173ffffffffffffffffffffffffffffffffffffffff909116815260200190565b9050611dee61116b6001610967565b1415611d7f565b90611e0a94939291611e0561154b565b611e12565b6102526115a4565b9061025294939291611e22610c3e565b9061025294939291611eaa565b90826000939282370152565b919061039a81611e52816103c29560209181520190565b8095611e2f565b90939161026d9593611e96611e9d92611e8f6080860198600087019073ffffffffffffffffffffffffffffffffffffffff169052565b6020850152565b6040830152565b6060818503910152611e3b565b9290939193600090611ebb82610967565b851480612347575b61231c57611ecf611025565b50949093611edc856110a4565b871015801561230a575b6122df57611ef46001610dea565b90611eff6002610b3c565b9873ffffffffffffffffffffffffffffffffffffffff831673ffffffffffffffffffffffffffffffffffffffff82161480156122aa575b61227f57611f4386610967565b891161226c575b611f5386610967565b8511612259575b83611f6761116b88610967565b116121c3575b5050611f7d915061119d906107c2565b946370a08231611f8c306107c2565b906020611f9860405190565b8099611fa48460e01b90565b825273ffffffffffffffffffffffffffffffffffffffff8516600483015260249082905afa9788156114ca5760009861218b575b509060209161122f611ff461119d8b9c61200b9a9b9c506107c2565b91611ffe60405190565b9889948593849360e01b90565b03915afa9384156114ca5760009461216b575b5061203461026d8261202f886110a4565b6110f0565b87111561215b5761127361204b9161202f876110a4565b905b61205d61026d8261202f896110a4565b84111561214b5761207461207a9161202f886110a4565b846110f0565b915b61208581610967565b82149081612139575b506114605761188186916113356120d6946118816120d06120ca61140e6120bb6103e8996118818b610967565b6113356003986118818a610967565b89611120565b93610967565b61210061116b61026d6120f46120eb876110a4565b611881896110a4565b611881620f4240610967565b1061210e576102529361173a565b6040517fa932492f000000000000000000000000000000000000000000000000000000008152600490fd5b6121439150610967565b82143861208e565b5061215582610967565b9161207c565b5061216582610967565b9061204d565b61218491945060203d81116114c3576114b58183610d5d565b923861201e565b61200b969798509061122f611ff461119d6121b560209695873d81116114c3576114b58183610d5d565b9b9a99505050509091611fd8565b61119d6121cf916107c2565b9063bea9cf36913391813b156102405787809461220d8d98612202948b6121f560405190565b9b8c998a98899760e01b90565b875260048701611e59565b03925af19081156114ca57611f7d9261119d9261222d575b819250611f6d565b61224c90863d8811612252575b6122448183610d5d565b810190610342565b38612225565b503d61223a565b6122678582611afa8d6107c2565b611f5a565b61227a8982611afa866107c2565b611f4a565b6040517f290fa188000000000000000000000000000000000000000000000000000000008152600490fd5b5073ffffffffffffffffffffffffffffffffffffffff8a1673ffffffffffffffffffffffffffffffffffffffff821614611f36565b6040517fbb55fd27000000000000000000000000000000000000000000000000000000008152600490fd5b50612314866110a4565b831015611ee6565b6040517f42301c23000000000000000000000000000000000000000000000000000000008152600490fd5b5061235182610967565b8114611ec3565b9061025294939291611df5565b61236d61154b565b611e0a61238061119d61119d6001610dea565b6370a0823161238e306107c2565b602061239960405190565b80946123a58560e01b90565b825273ffffffffffffffffffffffffffffffffffffffff8416600483015260249082905afa9081156114ca5761240c9360009261245c575b506020919261122f6123f561119d61119d6002610b3c565b916123ff60405190565b9687948593849360e01b90565b03915afa80156114ca576102529260009161243e575b5061242d6003610fea565b906124386003611000565b9261173a565b612456915060203d81116114c3576114b58183610d5d565b38612422565b6020925061247690833d81116114c3576114b58183610d5d565b916123dd565b610252612365565b90612493816118916008611109565b6124a361116b61026d6008611109565b1080156124e8575b611908576124e26124d8610252936124d16124ca856118916008611109565b6008611534565b60076107cb565b9161189183611109565b90611534565b50600761250f61116b61026d611aa18661250987611891611aa1848a6107cb565b956107cb565b106124ab565b6102529161253761252a6124ca9360076107cb565b6124e28361202f83611109565b61202f6008611109565b908082101561254e575090565b905090565b9060006125606003610967565b8311156125de575061259582600261258061257a82610967565b83611165565b91600193849361258f85610967565b90611625565b935b6125a2575b50505050565b909192946125ad8190565b8610156125d857506125cf6125c6866118918185611165565b6113f384610967565b92919082612597565b9461259c565b916125ec61116b6000610967565b036125f357565b905061026d6001610967565b336126188361261384610af085600c6107cb565b611534565b61265861264e6126487f8c5be1e5ebec7d5bd14f71427d1e84f3dd0314c0f7b2291e5b200ac8c7c3b925936107c2565b936107c2565b9361055e60405190565b0390a3600190565b33612691612684836007610af061267786836107cb565b6124e28961202f83611109565b6124e28561189183611109565b61265861264e6126487fddf252ad1be2c89b69c2b068fc378daa952ba7f163c4a11628f55a4df523b3ef936107c2565b600c816126ce81836107cb565b6126dc611aa13380936107cb565b6001016126fd575b505050612691612684836007610af061267786836107cb565b610af061270d9261271a946107cb565b6124e28561202f83611109565b3881816126e4565b67ffffffffffffffff8111610d9d57602090601f017fffffffffffffffffffffffffffffffffffffffffffffffffffffffffffffffe0160190565b9061276f61276a83612722565b610da2565b918252565b61277e600c61275d565b7f444558204c5020546f6b656e0000000000000000000000000000000000000000602082015290565b61026d612774565b61026d6127a7565b6127c1600261275d565b7f4c50000000000000000000000000000000000000000000000000000000000000602082015290565b61026d6127b7565b61026d6127ea565b61064c61026d61026d9290565b61026d60126127fa565b61026d6128a9565b612823600161275d565b7f3100000000000000000000000000000000000000000000000000000000000000602082015290565b61026d612819565b909594926102529461288661288d9261287f60809661287860a088019c6000890152565b6020870152565b6040850152565b6060830152565b019073ffffffffffffffffffffffffffffffffffffffff169052565b7f8b73c3c69bb8fe3d512ecc4cf759cc79239f7b179b0ffacaa9a75d522b39400f61292e6128d56127a7565b6128e76128e0825190565b9160200190565b206128f061284c565b6128fb6128e0825190565b20926129224661290a306107c2565b9061291460405190565b968795602087019586612854565b90810382520382610d5d565b6129396128e0825190565b2090565b7fffffffffffffffffffffffffffffffffffffffffffffffffffffffffffffffff81146110fd5760010190565b91946129d36108fe929897956129cc60a0966129af6102529a61299260c08a019e60008b0152565b73ffffffffffffffffffffffffffffffffffffffff166020890152565b73ffffffffffffffffffffffffffffffffffffffff166040870152565b6060850152565b6080830152565b6020809392612a1261276f6103c2947f1901000000000000000000000000000000000000000000000000000000000000815260020190565b01918252565b6108fe61025294611e96606094989795612a37608086019a6000870152565b60ff166020850152565b939094959195612a4e4290565b8410612bb257612b0a600093612922612aeb89612ac78a8d61292260209c612a937f6e71edae12b1b97f4d1f60370fef10105fa2faae0126114a169c64845d6126c990565b92612a9f85600d6107cb565b90612ab6612aac83611109565b926124e28461293d565b60405197889660208801968761296a565b612ad26128e0825190565b20612adb6128a9565b6040519384928b840192836129da565b612af66128e0825190565b2092612b0160405190565b94859485612a18565b838052039060015afa156114ca57600051612b3a73ffffffffffffffffffffffffffffffffffffffff8316610b57565b03612b8757612b528361261384610af085600c6107cb565b612b8261264e6126487f8c5be1e5ebec7d5bd14f71427d1e84f3dd0314c0f7b2291e5b200ac8c7c3b925936107c2565b0390a3565b6040517f8baa579f000000000000000000000000000000000000000000000000000000008152600490fd5b6040517f203d82d8000000000000000000000000000000000000000000000000000000008152600490fd5b612be76001610dea565b612bfa612bf46002610b3c565b916107c2565b91612c04836107c2565b926370a0823192612c14306107c2565b906020612c2060405190565b8097612c2c8860e01b90565b825273ffffffffffffffffffffffffffffffffffffffff8516600483015260249082905afa9081156114ca5761119d60209486612c85612c8b95612caf9b600091612cf6575b50611335612c806003610fea565b6110a4565b91611cf0565b9361122f612c98866107c2565b91612ca260405190565b9788948593849360e01b90565b03915afa9283156114ca5761025293612c8591600091612cd8575b50611335612c806003611000565b612cf0915060203d81116114c3576114b58183610d5d565b38612cca565b612d0d9150893d81116114c3576114b58183610d5d565b38612c72565b61026d612d23612c806003610fea565b611881612c806003611000565b612d4d61026d61026d926dffffffffffffffffffffffffffff1690565b7bffffffffffffffffffffffffffffffffffffffffffffffffffffffff1690565b612d4d61026d61026d9290565b61026d6e010000000000000000000000000000612d6e565b7bffffffffffffffffffffffffffffffffffffffffffffffffffffffff908116929116917bffffffffffffffffffffffffffffffffffffffffffffffffffffffff81840216611127565b612df261026d91612dec600090565b50612d30565b612dfa612d7b565b90612d93565b7bffffffffffffffffffffffffffffffffffffffffffffffffffffffff908116911661116f565b612e3661026d92612dec600090565b90612e0056fea264697066735822122040833ec7d6d81c156c9619b4ff95619f685146fcb52d6c7b245e5c73813b2a0964736f6c63430008140033",
  "linkReferences": {},
  "deployedLinkReferences": {}
}