{
  "_format": "hh-sol-artifact-1",
  "contractName": "DEXPair",
  "sourceName": "contracts/DEXPair.sol",
  "abi": [
    {
      "inputs": [],
      "stateMutability": "nonpayable",
      "type": "constructor"
    },
    {
      "inputs": [],
      "name": "EnforcedPause",
      "type": "error"
    },
    {
      "inputs": [],
      "name": "ExpectedPause",
      "type": "error"
    },
    {
      "inputs": [],
      "name": "ReentrancyGuardReentrantCall",
      "type": "error"
    },
    {
      "inputs": [
        {
          "internalType": "address",
          "name": "token",
          "type": "address"
        }
      ],
      "name": "SafeERC20FailedOperation",
      "type": "error"
    },
    {
      "anonymous": false,
      "inputs": [
        {
          "indexed": true,
          "internalType": "address",
          "name": "owner",
          "type": "address"
        },
        {
          "indexed": true,
          "internalType": "address",
          "name": "spender",
          "type": "address"
        },
        {
          "indexed": false,
          "internalType": "uint256",
          "name": "value",
          "type": "uint256"
        }
      ],
      "name": "Approval",
      "type": "event"
    },
    {
      "anonymous": false,
      "inputs": [
        {
          "indexed": true,
          "internalType": "address",
          "name": "sender",
          "type": "address"
        },
        {
          "indexed": false,
          "internalType": "uint256",
          "name": "amount0",
          "type": "uint256"
        },
        {
          "indexed": false,
          "internalType": "uint256",
          "name": "amount1",
          "type": "uint256"
        },
        {
          "indexed": true,
          "internalType": "address",
          "name": "to",
          "type": "address"
        }
      ],
      "name": "Burn",
      "type": "event"
    },
    {
      "anonymous": false,
      "inputs": [
        {
          "indexed": true,
          "internalType": "address",
          "name": "sender",
          "type": "address"
        },
        {
          "indexed": false,
          "internalType": "uint256",
          "name": "amount0",
          "type": "uint256"
        },
        {
          "indexed": false,
          "internalType": "uint256",
          "name": "amount1",
          "type": "uint256"
        }
      ],
      "name": "Mint",
      "type": "event"
    },
    {
      "anonymous": false,
      "inputs": [
        {
          "indexed": false,
          "internalType": "address",
          "name": "account",
          "type": "address"
        }
      ],
      "name": "Paused",
      "type": "event"
    },
    {
      "anonymous": false,
      "inputs": [
        {
          "components": [
            {
              "internalType": "bool",
              "name": "emergencyStop",
              "type": "bool"
            }
          ],
          "indexed": false,
          "internalType": "struct IDEXFactory.PoolSecurityConfig",
          "name": "config",
          "type": "tuple"
        }
      ],
      "name": "SecurityConfigUpdated",
      "type": "event"
    },
    {
      "anonymous": false,
      "inputs": [
        {
          "indexed": true,
          "internalType": "address",
          "name": "sender",
          "type": "address"
        },
        {
          "indexed": false,
          "internalType": "uint256",
          "name": "amount0In",
          "type": "uint256"
        },
        {
          "indexed": false,
          "internalType": "uint256",
          "name": "amount1In",
          "type": "uint256"
        },
        {
          "indexed": false,
          "internalType": "uint256",
          "name": "amount0Out",
          "type": "uint256"
        },
        {
          "indexed": false,
          "internalType": "uint256",
          "name": "amount1Out",
          "type": "uint256"
        },
        {
          "indexed": true,
          "internalType": "address",
          "name": "to",
          "type": "address"
        }
      ],
      "name": "Swap",
      "type": "event"
    },
    {
      "anonymous": false,
      "inputs": [
        {
          "indexed": false,
          "internalType": "uint256",
          "name": "reserve0",
          "type": "uint256"
        },
        {
          "indexed": false,
          "internalType": "uint256",
          "name": "reserve1",
          "type": "uint256"
        }
      ],
      "name": "Sync",
      "type": "event"
    },
    {
      "anonymous": false,
      "inputs": [
        {
          "indexed": true,
          "internalType": "bytes32",
          "name": "proposalId",
          "type": "bytes32"
        },
        {
          "indexed": true,
          "internalType": "address",
          "name": "proposer",
          "type": "address"
        },
        {
          "indexed": false,
          "internalType": "uint256",
          "name": "executionTime",
          "type": "uint256"
        }
      ],
      "name": "TimelockProposalCreated",
      "type": "event"
    },
    {
      "anonymous": false,
      "inputs": [
        {
          "indexed": true,
          "internalType": "bytes32",
          "name": "proposalId",
          "type": "bytes32"
        }
      ],
      "name": "TimelockProposalExecuted",
      "type": "event"
    },
    {
      "anonymous": false,
      "inputs": [
        {
          "indexed": true,
          "internalType": "address",
          "name": "from",
          "type": "address"
        },
        {
          "indexed": true,
          "internalType": "address",
          "name": "to",
          "type": "address"
        },
        {
          "indexed": false,
          "internalType": "uint256",
          "name": "value",
          "type": "uint256"
        }
      ],
      "name": "Transfer",
      "type": "event"
    },
    {
      "anonymous": false,
      "inputs": [
        {
          "indexed": false,
          "internalType": "address",
          "name": "account",
          "type": "address"
        }
      ],
      "name": "Unpaused",
      "type": "event"
    },
    {
      "inputs": [],
      "name": "DOMAIN_SEPARATOR",
      "outputs": [
        {
          "internalType": "bytes32",
          "name": "",
          "type": "bytes32"
        }
      ],
      "stateMutability": "view",
      "type": "function"
    },
    {
      "inputs": [],
      "name": "MINIMUM_LIQUIDITY",
      "outputs": [
        {
          "internalType": "uint256",
          "name": "",
          "type": "uint256"
        }
      ],
      "stateMutability": "view",
      "type": "function"
    },
    {
      "inputs": [],
      "name": "PERMIT_TYPEHASH",
      "outputs": [
        {
          "internalType": "bytes32",
          "name": "",
          "type": "bytes32"
        }
      ],
      "stateMutability": "view",
      "type": "function"
    },
    {
      "inputs": [
        {
          "internalType": "address",
          "name": "",
          "type": "address"
        },
        {
          "internalType": "address",
          "name": "",
          "type": "address"
        }
      ],
      "name": "allowance",
      "outputs": [
        {
          "internalType": "uint256",
          "name": "",
          "type": "uint256"
        }
      ],
      "stateMutability": "view",
      "type": "function"
    },
    {
      "inputs": [
        {
          "internalType": "address",
          "name": "spender",
          "type": "address"
        },
        {
          "internalType": "uint256",
          "name": "value",
          "type": "uint256"
        }
      ],
      "name": "approve",
      "outputs": [
        {
          "internalType": "bool",
          "name": "",
          "type": "bool"
        }
      ],
      "stateMutability": "nonpayable",
      "type": "function"
    },
    {
      "inputs": [
        {
          "internalType": "address",
          "name": "",
          "type": "address"
        }
      ],
      "name": "balanceOf",
      "outputs": [
        {
          "internalType": "uint256",
          "name": "",
          "type": "uint256"
        }
      ],
      "stateMutability": "view",
      "type": "function"
    },
    {
      "inputs": [
        {
          "internalType": "address",
          "name": "to",
          "type": "address"
        }
      ],
      "name": "burn",
      "outputs": [
        {
          "internalType": "uint256",
          "name": "amount0",
          "type": "uint256"
        },
        {
          "internalType": "uint256",
          "name": "amount1",
          "type": "uint256"
        }
      ],
      "stateMutability": "nonpayable",
      "type": "function"
    },
    {
      "inputs": [],
      "name": "decimals",
      "outputs": [
        {
          "internalType": "uint8",
          "name": "",
          "type": "uint8"
        }
      ],
      "stateMutability": "pure",
      "type": "function"
    },
    {
      "inputs": [
        {
          "internalType": "bytes32",
          "name": "",
          "type": "bytes32"
        }
      ],
      "name": "executedProposals",
      "outputs": [
        {
          "internalType": "bool",
          "name": "",
          "type": "bool"
        }
      ],
      "stateMutability": "view",
      "type": "function"
    },
    {
      "inputs": [],
      "name": "factory",
      "outputs": [
        {
          "internalType": "address",
          "name": "",
          "type": "address"
        }
      ],
      "stateMutability": "view",
      "type": "function"
    },
    {
      "inputs": [],
      "name": "getReserves",
      "outputs": [
        {
          "internalType": "uint112",
          "name": "_reserve0",
          "type": "uint112"
        },
        {
          "internalType": "uint112",
          "name": "_reserve1",
          "type": "uint112"
        },
        {
          "internalType": "uint32",
          "name": "_blockTimestampLast",
          "type": "uint32"
        }
      ],
      "stateMutability": "view",
      "type": "function"
    },
    {
      "inputs": [
        {
          "internalType": "address",
          "name": "_token0",
          "type": "address"
        },
        {
          "internalType": "address",
          "name": "_token1",
          "type": "address"
        }
      ],
      "name": "initialize",
      "outputs": [],
      "stateMutability": "nonpayable",
      "type": "function"
    },
    {
      "inputs": [
        {
          "internalType": "address",
          "name": "_token0",
          "type": "address"
        },
        {
          "internalType": "address",
          "name": "_token1",
          "type": "address"
        },
        {
          "components": [
            {
              "internalType": "bool",
              "name": "emergencyStop",
              "type": "bool"
            }
          ],
          "internalType": "struct IDEXFactory.PoolSecurityConfig",
          "name": "_securityConfig",
          "type": "tuple"
        }
      ],
      "name": "initialize",
      "outputs": [],
      "stateMutability": "nonpayable",
      "type": "function"
    },
    {
      "inputs": [],
      "name": "kLast",
      "outputs": [
        {
          "internalType": "uint256",
          "name": "",
          "type": "uint256"
        }
      ],
      "stateMutability": "view",
      "type": "function"
    },
    {
      "inputs": [
        {
          "internalType": "address",
          "name": "to",
          "type": "address"
        }
      ],
      "name": "mint",
      "outputs": [
        {
          "internalType": "uint256",
          "name": "liquidity",
          "type": "uint256"
        }
      ],
      "stateMutability": "nonpayable",
      "type": "function"
    },
    {
      "inputs": [],
      "name": "name",
      "outputs": [
        {
          "internalType": "string",
          "name": "",
          "type": "string"
        }
      ],
      "stateMutability": "pure",
      "type": "function"
    },
    {
      "inputs": [
        {
          "internalType": "address",
          "name": "",
          "type": "address"
        }
      ],
      "name": "nonces",
      "outputs": [
        {
          "internalType": "uint256",
          "name": "",
          "type": "uint256"
        }
      ],
      "stateMutability": "view",
      "type": "function"
    },
    {
      "inputs": [],
      "name": "paused",
      "outputs": [
        {
          "internalType": "bool",
          "name": "",
          "type": "bool"
        }
      ],
      "stateMutability": "view",
      "type": "function"
    },
    {
      "inputs": [
        {
          "internalType": "address",
          "name": "owner",
          "type": "address"
        },
        {
          "internalType": "address",
          "name": "spender",
          "type": "address"
        },
        {
          "internalType": "uint256",
          "name": "value",
          "type": "uint256"
        },
        {
          "internalType": "uint256",
          "name": "deadline",
          "type": "uint256"
        },
        {
          "internalType": "uint8",
          "name": "v",
          "type": "uint8"
        },
        {
          "internalType": "bytes32",
          "name": "r",
          "type": "bytes32"
        },
        {
          "internalType": "bytes32",
          "name": "s",
          "type": "bytes32"
        }
      ],
      "name": "permit",
      "outputs": [],
      "stateMutability": "nonpayable",
      "type": "function"
    },
    {
      "inputs": [],
      "name": "price0CumulativeLast",
      "outputs": [
        {
          "internalType": "uint256",
          "name": "",
          "type": "uint256"
        }
      ],
      "stateMutability": "view",
      "type": "function"
    },
    {
      "inputs": [],
      "name": "price1CumulativeLast",
      "outputs": [
        {
          "internalType": "uint256",
          "name": "",
          "type": "uint256"
        }
      ],
      "stateMutability": "view",
      "type": "function"
    },
    {
      "inputs": [],
      "name": "securityConfig",
      "outputs": [
        {
          "internalType": "bool",
          "name": "emergencyStop",
          "type": "bool"
        }
      ],
      "stateMutability": "view",
      "type": "function"
    },
    {
      "inputs": [
        {
          "internalType": "address",
          "name": "to",
          "type": "address"
        }
      ],
      "name": "skim",
      "outputs": [],
      "stateMutability": "nonpayable",
      "type": "function"
    },
    {
      "inputs": [
        {
          "internalType": "uint256",
          "name": "amount0Out",
          "type": "uint256"
        },
        {
          "internalType": "uint256",
          "name": "amount1Out",
          "type": "uint256"
        },
        {
          "internalType": "address",
          "name": "to",
          "type": "address"
        },
        {
          "internalType": "bytes",
          "name": "data",
          "type": "bytes"
        }
      ],
      "name": "swap",
      "outputs": [],
      "stateMutability": "nonpayable",
      "type": "function"
    },
    {
      "inputs": [],
      "name": "symbol",
      "outputs": [
        {
          "internalType": "string",
          "name": "",
          "type": "string"
        }
      ],
      "stateMutability": "pure",
      "type": "function"
    },
    {
      "inputs": [],
      "name": "sync",
      "outputs": [],
      "stateMutability": "nonpayable",
      "type": "function"
    },
    {
      "inputs": [
        {
          "internalType": "bytes32",
          "name": "",
          "type": "bytes32"
        }
      ],
      "name": "timelockProposals",
      "outputs": [
        {
          "internalType": "uint256",
          "name": "",
          "type": "uint256"
        }
      ],
      "stateMutability": "view",
      "type": "function"
    },
    {
      "inputs": [],
      "name": "token0",
      "outputs": [
        {
          "internalType": "address",
          "name": "",
          "type": "address"
        }
      ],
      "stateMutability": "view",
      "type": "function"
    },
    {
      "inputs": [],
      "name": "token1",
      "outputs": [
        {
          "internalType": "address",
          "name": "",
          "type": "address"
        }
      ],
      "stateMutability": "view",
      "type": "function"
    },
    {
      "inputs": [],
      "name": "totalSupply",
      "outputs": [
        {
          "internalType": "uint256",
          "name": "",
          "type": "uint256"
        }
      ],
      "stateMutability": "view",
      "type": "function"
    },
    {
      "inputs": [
        {
          "internalType": "address",
          "name": "to",
          "type": "address"
        },
        {
          "internalType": "uint256",
          "name": "value",
          "type": "uint256"
        }
      ],
      "name": "transfer",
      "outputs": [
        {
          "internalType": "bool",
          "name": "",
          "type": "bool"
        }
      ],
      "stateMutability": "nonpayable",
      "type": "function"
    },
    {
      "inputs": [
        {
          "internalType": "address",
          "name": "from",
          "type": "address"
        },
        {
          "internalType": "address",
          "name": "to",
          "type": "address"
        },
        {
          "internalType": "uint256",
          "name": "value",
          "type": "uint256"
        }
      ],
      "name": "transferFrom",
      "outputs": [
        {
          "internalType": "bool",
          "name": "",
          "type": "bool"
        }
      ],
      "stateMutability": "nonpayable",
      "type": "function"
    }
  ],
  "bytecode": "0x6080604052346200002657620000146200009b565b60405161308c6200011c823961308c90f35b600080fd5b906001600160a01b03905b9181191691161790565b620000569062000059906001600160a01b031682565b90565b6001600160a01b031690565b620000569062000040565b620000569062000065565b906200008f62000056620000979262000070565b82546200002b565b9055565b620000a5620000b4565b620000b23360046200007b565b565b620000b2620000b262000105565b6200005662000056620000569290565b620000566001620000c2565b906000199062000036565b90620000fd620000566200009792620000c2565b8254620000de565b620000b262000113620000d2565b6000620000e956fe6080604052600436101561001257600080fd5b60003560e01c8063022c0d9f1461021257806306fdde031461020d5780630902f1ac14610208578063095ea7b3146102035780630dfe1681146101fe57806318160ddd146101f957806323b872dd146101f457806330adf81f146101ef578063313ce567146101ea5780633566414c146101e55780633644e515146101e0578063485cc955146101db5780635909c0d5146101d65780635a3d5493146101d15780635c975abb146101cc5780636a627842146101c757806370a08231146101c25780637174b568146101bd5780637464fc3d146101b85780637ecebe00146101b3578063820d25a8146101ae57806389afcb44146101a957806395d89b41146101a4578063a9059cbb1461019f578063ba9a7a561461019a578063bc25cf7714610195578063be11b1d014610190578063c45a01551461018b578063d21220a714610186578063d505accf14610181578063dd62ed3e1461017c5763fff6cae90361022057610ac0565b610aa4565b610a6b565b6109d4565b6109ad565b610986565b610951565b610936565b6108fa565b6108df565b6108b1565b610881565b610828565b6107fb565b6107e0565b6107b3565b610742565b610713565b6106f8565b6106d1565b6106ac565b61066e565b610653565b6105cf565b610596565b61057a565b61051e565b6104ba565b610455565b6103e2565b6103b7565b6102fd565b805b0361022057565b600080fd5b9050359061023282610217565b565b73ffffffffffffffffffffffffffffffffffffffff1690565b90565b73ffffffffffffffffffffffffffffffffffffffff8116610219565b9050359061023282610250565b909182601f830112156102205781359167ffffffffffffffff831161022057602001926001830284011161022057565b90608082820312610220576102be8183610225565b926102cc8260208501610225565b926102da836040830161026c565b92606082013567ffffffffffffffff8111610220576102f99201610279565b9091565b34610220576103196103103660046102a9565b9392909261253a565b604051005b0390f35b600091031261022057565b60005b8381106103405750506000910152565b8181015183820152602001610330565b61037161037a6020936103a293610365815190565b80835293849260200190565b9586910161032d565b601f017fffffffffffffffffffffffffffffffffffffffffffffffffffffffffffffffe01690565b0190565b602080825261024d92910190610350565b34610220576103c7366004610322565b61031e6103d2612951565b604051918291826103a6565b9052565b34610220576103f2366004610322565b61031e6103fd610e80565b604080516dffffffffffffffffffffffffffff948516815293909216602084015263ffffffff16908201529081906060820190565b91906040838203126102205761024d9061044c818561026c565b93602001610225565b346102205761031e61047161046b366004610432565b906127a1565b60405191829182901515815260200190565b61024d916008021c73ffffffffffffffffffffffffffffffffffffffff1690565b9061024d9154610483565b61024d6001806104a4565b34610220576104ca366004610322565b61031e6104d56104af565b6040519182918273ffffffffffffffffffffffffffffffffffffffff909116815260200190565b61024d916008021c81565b9061024d91546104fc565b61024d60006008610507565b346102205761052e366004610322565b61031e610539610512565b6040515b9182918290815260200190565b90916060828403126102205761024d610563848461026c565b93610571816020860161026c565b93604001610225565b346102205761031e61047161059036600461054a565b91612863565b34610220576105a6366004610322565b61031e7f6e71edae12b1b97f4d1f60370fef10105fa2faae0126114a169c64845d6126c9610539565b34610220576105df366004610322565b61031e6105ea6129a9565b6040519182918260ff909116815260200190565b906020828203126102205761024d91610225565b905b600052602052604060002090565b61024d916008021c5b60ff1690565b9061024d9154610622565b61024d9061064e600b91600092610612565b610631565b346102205761031e6104716106693660046105fe565b61063c565b346102205761067e366004610322565b61031e6105396129b3565b91906040838203126102205761024d906106a3818561026c565b9360200161026c565b34610220576103196106bf366004610689565b90610b74565b61024d60006005610507565b34610220576106e1366004610322565b61031e6105396106c5565b61024d60006006610507565b3461022057610708366004610322565b61031e6105396106ec565b3461022057610723366004610322565b61031e610471610ad8565b906020828203126102205761024d9161026c565b346102205761031e61053961075836600461072e565b611504565b61023461024d61024d9273ffffffffffffffffffffffffffffffffffffffff1690565b61024d9061075d565b61024d90610780565b9061061490610789565b61024d906107ae600791600092610792565b610507565b346102205761031e6105396107c936600461072e565b61079c565b61024d906107ae600a91600092610612565b346102205761031e6105396107f63660046105fe565b6107ce565b346102205761080b366004610322565b61031e610539612f2d565b61024d906107ae600d91600092610792565b346102205761031e61053961083e36600461072e565b610816565b908160209103126102205790565b90916060828403126102205761024d61086a848461026c565b93610878816020860161026c565b93604001610843565b3461022057610319610894366004610851565b91610e75565b9081526040810192916102329160200152565b0152565b34610220576108c96108c436600461072e565b611d20565b9061031e6108d660405190565b9283928361089a565b34610220576108ef366004610322565b61031e6103d2612994565b346102205761031e610471610910366004610432565b90612802565b61024d61024d61024d9290565b61024d6103e8610916565b61024d610923565b3461022057610946366004610322565b61031e61053961092e565b346102205761031961096436600461072e565b612df7565b61024d9061062b565b61024d9054610969565b61024d6009610972565b3461022057610996366004610322565b61031e61047161097c565b61024d600060046104a4565b34610220576109bd366004610322565b61031e6104d56109a1565b61024d600060026104a4565b34610220576109e4366004610322565b61031e6104d56109c8565b60ff8116610219565b90503590610232826109ef565b60e08183031261022057610a19828261026c565b92610a27836020840161026c565b92610a358160408501610225565b92610a438260608301610225565b9261024d610a5484608085016109f8565b93610a628160a08601610225565b9360c001610225565b3461022057610319610a7e366004610a05565b95949094939193612caf565b6107ae61024d92610a9f600c93600094610792565b610792565b346102205761031e610539610aba366004610689565b90610a8a565b3461022057610ad0366004610322565b610319612626565b61024d6001610972565b7f4e487b7100000000000000000000000000000000000000000000000000000000600052604160045260246000fd5b90601f017fffffffffffffffffffffffffffffffffffffffffffffffffffffffffffffffe016810190811067ffffffffffffffff821117610b5157604052565b610ae2565b90610232610b6360405190565b9283610b11565b61024d6020610b56565b61023291600191610b8d610b86610b6a565b9315158452565b610cda565b61024d9060081c610234565b61024d9054610b92565b61023461024d61024d9290565b61024d90610ba8565b15610bc557565b6040517f08c379a000000000000000000000000000000000000000000000000000000000815260206004820152601c60248201527f444558506169723a20414c52454144595f494e495449414c495a4544000000006044820152606490fd5b0390fd5b9074ffffffffffffffffffffffffffffffffffffffff009060081b5b9181191691161790565b90610c5e61024d610c6592610789565b8254610c28565b9055565b9073ffffffffffffffffffffffffffffffffffffffff90610c44565b90610c9561024d610c6592610789565b8254610c69565b9060ff90610c44565b90610cb561024d610c6592151590565b8254610c9c565b61023291610cca9051151590565b90610ca5565b9061023291610cbc565b90610d26610d2d92610d1f610cef6001610b9e565b610d19610cff6102346000610bb5565b9173ffffffffffffffffffffffffffffffffffffffff1690565b14610bbe565b6001610c4e565b6002610c85565b610d38816009610cd0565b610d767fb1102bf8599badf4360419344e57744751c4d685c0864e807454e60f8e6addbc91610d6660405190565b9182918290511515815260200190565b0390a1565b61024d90610234565b61024d9054610d7b565b15610d9557565b6040517f08c379a000000000000000000000000000000000000000000000000000000000815260206004820152601260248201527f444558506169723a20464f5242494444454e00000000000000000000000000006044820152606490fd5b906102329291610e1433610e0e610cff6102346004610d84565b14610d8e565b610e62565b801515610219565b9050359061023282610e19565b91909160208184031261022057610e51610e486020610b56565b93600092610e21565b90830152565b61024d903690610e2e565b90610e6f61023293610e57565b91610cda565b906102329291610df4565b610e88610ee2565b9192909190565b61024d905b6dffffffffffffffffffffffffffff1690565b61024d9054610e8f565b61024d9060701c610e94565b61024d9054610eb1565b61024d9060e01c5b63ffffffff1690565b61024d9054610ec7565b610eec6003610ea7565b90610ef76003610ebd565b9061024d6003610ed8565b90610f1491610f0f611591565b610f1d565b906102326115ea565b9061024d91610f2a61150f565b9061024d91611220565b9050519061023282610217565b906020828203126102205761024d91610f34565b6040513d6000823e3d90fd5b61024d61024d61024d926dffffffffffffffffffffffffffff1690565b7f4e487b7100000000000000000000000000000000000000000000000000000000600052601160045260246000fd5b91908203918211610fba57565b610f7e565b15610fc657565b6040517f08c379a000000000000000000000000000000000000000000000000000000000815260206004820152602260248201527f444558506169723a20494e53554646494349454e545f494e5055545f414d4f5560448201527f4e540000000000000000000000000000000000000000000000000000000000006064820152608490fd5b61024d9081565b61024d905461104b565b610e9461024d61024d9290565b1561107057565b6040517f08c379a000000000000000000000000000000000000000000000000000000000815260206004820152601e60248201527f444558506169723a20494e53554646494349454e545f524553455256455300006044820152606490fd5b9190918083025b928184041490151715610fba57565b7f4e487b7100000000000000000000000000000000000000000000000000000000600052601260045260246000fd5b9061111e565b9190565b908115611129570490565b6110e5565b1561113557565b6040517f08c379a000000000000000000000000000000000000000000000000000000000815260206004820152602660248201527f444558506169723a20494e53554646494349454e545f4c49515549444954595f60448201527f4d494e54454400000000000000000000000000000000000000000000000000006064820152608490fd5b156111c157565b6040517f08c379a000000000000000000000000000000000000000000000000000000000815260206004820152601c60248201527f444558506169723a204c49515549444954595f544f4f5f4c41524745000000006044820152606490fd5b509061122a610ee2565b509061124161123c61123c6001610b9e565b610789565b6370a0823161124f30610789565b602061125a60405190565b80946112668560e01b90565b825273ffffffffffffffffffffffffffffffffffffffff8416600483015260249082905afa9081156114df576112f1936000926114e4575b50602091926112cd6112b661123c61123c6002610d84565b916112c060405190565b9687948593849360e01b90565b835273ffffffffffffffffffffffffffffffffffffffff1660048301526024820190565b03915afa9182156114df576000926114af575b5061131761131184610f61565b82610fad565b61132961132386610f61565b84610fad565b906113346000610916565b811180611498575b61134590610fbf565b61134f6008611052565b6113596000610916565b810361140057506113a59761138061137b61023298979695946113fb946110cf565b6126f5565b9061139361138c610923565b8093610fad565b998a926113a06000610bb5565b61262e565b6113b96113b26000610916565b831161112e565b6113a06113f361024d7fffffffffffffffffffffffffffffffffffffffffffffffffffffffffffffffff6113ed6008611052565b90610fad565b8311156111ba565b6117e6565b8594939261147561146c8361146661145761147b966113fb986114526102329f9e8f90611444611430600061105c565b916dffffffffffffffffffffffffffff1690565b119081611482575b50611069565b6110cf565b6114608b610f61565b90611114565b936110cf565b61146089610f61565b906126e3565b80986113a5565b9050611491611430600061105c565b118f61144c565b506113456114a66000610916565b8311905061133c565b6114d191925060203d81116114d8575b6114c98183610b11565b810190610f41565b9038611304565b503d6114bf565b610f55565b602092506114fe90833d81116114d8576114c98183610b11565b9161129e565b61024d906000610f02565b611517610ad8565b61151d57565b6040517fd93c0665000000000000000000000000000000000000000000000000000000008152600490fd5b61024d6002610916565b907fffffffffffffffffffffffffffffffffffffffffffffffffffffffffffffffff90610c44565b9061158a61024d610c6592610916565b8254611552565b61159b6000611052565b6115a3611548565b9081146115b55761023290600061157a565b6040517f3ee5aeb5000000000000000000000000000000000000000000000000000000008152600490fd5b61024d6001610916565b6102326115f56115e0565b600061157a565b1561160357565b6040517f08c379a000000000000000000000000000000000000000000000000000000000815260206004820152601160248201527f444558506169723a204f564552464c4f570000000000000000000000000000006044820152606490fd5b8115611129570690565b610ecf61024d61024d9290565b63ffffffff908116911690039063ffffffff8211610fba57565b61024d61024d61024d927bffffffffffffffffffffffffffffffffffffffffffffffffffffffff1690565b61024d61024d61024d9263ffffffff1690565b91908201809211610fba57565b906dffffffffffffffffffffffffffff90610c44565b610e9461024d61024d926dffffffffffffffffffffffffffff1690565b9061172161024d610c65926116f4565b82546116de565b907bffffffffffffffffffffffffffff00000000000000000000000000009060701b610c44565b9061175f61024d610c65926116f4565b8254611728565b907fffffffff000000000000000000000000000000000000000000000000000000009060e01b610c44565b610ecf61024d61024d9263ffffffff1690565b906117b461024d610c6592611791565b8254611766565b6103de90610f61565b9160206102329294936117df604082019660008301906117bb565b01906117bb565b6118999161188d611886611892936118a0976118236dffffffffffffffffffffffffffff61181381610f61565b84111590816119b6575b506115fc565b61184361183e42611838640100000000610916565b90611662565b61166c565b976118576118516003610ed8565b8a611679565b9160006118638161166c565b63ffffffff8516119081611992575b8161196f575b506118eb575b50505061105c565b6003611711565b61105c565b600361174f565b60036117a4565b6118aa6003610ea7565b6118b46003610ebd565b7fcf2aa50876cdfbb541206f89af0ee78d44a2abf8d328e37fa4917f982149848a91610d766118e260405190565b928392836117c4565b6119679261192f6119506119218461191c8761194b6119446119356119266119216119609d61191c6119569e612ff7565b613041565b611693565b61192f8b6116be565b906110cf565b61193f6005611052565b6116d1565b600561157a565b612ff7565b916116be565b61193f6006611052565b600661157a565b38808061187e565b611979915061105c565b6dffffffffffffffffffffffffffff8216141538611878565b905061199d8161105c565b6dffffffffffffffffffffffffffff8416141590611872565b6119c09150610f61565b8611153861181d565b906119dc92916119d7611591565b6119e6565b90916102326115ea565b906102f992916119f461150f565b906102f99291611a8b565b15611a0657565b6040517f08c379a000000000000000000000000000000000000000000000000000000000815260206004820152602660248201527f444558506169723a20494e53554646494349454e545f4c49515549444954595f60448201527f4255524e454400000000000000000000000000000000000000000000000000006064820152608490fd5b9291925050611a98610ee2565b509190611aa56001610b9e565b92611ab9611ab36002610d84565b94610789565b91611ac383610789565b926370a0823190611ad330610789565b60405197611ae18460e01b90565b895273ffffffffffffffffffffffffffffffffffffffff821660048a01526020896024818a5afa9889156114df57600099611cfc575b50611b2190610789565b611b2a81610789565b92611b3460405190565b9a611b3f8660e01b90565b8c5273ffffffffffffffffffffffffffffffffffffffff841660048d015260208c602481885afa9b8c156114df5760009c611cdc575b50611b81846007610792565b611b8a90611052565b92611b956008611052565b611ba0819d866110cf565b90611baa91611114565b9b8c9d611bb790866110cf565b90611bc191611114565b92839c83600092611bd184610916565b83118098611bef611bfa9a611bf597611bf594611cca575b506119ff565b8a6126b7565b611d94565b6020611c0560405190565b8097611c118660e01b90565b825273ffffffffffffffffffffffffffffffffffffffff8416600483015260249082905afa9182156114df57611c6996600093611ca6575b506112cd839460209450611c5c60405190565b9889948593849360e01b90565b03915afa9081156114df5761023294600092611c86575b506117e6565b611c9f91925060203d81116114d8576114c98183610b11565b9038611c80565b60209350611cc36112cd91853d81116114d8576114c98183610b11565b9350611c49565b611cd49150610916565b8a1138611be9565b611cf5919c5060203d81116114d8576114c98183610b11565b9a38611b75565b611b21919950611d199060203d81116114d8576114c98183610b11565b9890611b17565b6102f9906000806119c9565b611d45611d3f61024d9263ffffffff1690565b60e01b90565b7fffffffff000000000000000000000000000000000000000000000000000000001690565b73ffffffffffffffffffffffffffffffffffffffff90911681526040810192916102329160200152565b611dd7600492611dc861023295611dae63a9059cbb611d2c565b92611db860405190565b9687946020860190815201611d6a565b60208201810382520383610b11565b906000602091611de5600090565b50828151910182855af115610f5557600080513d611e0561111a84610916565b03611e835750611e2161111a611e1a84610789565b3b92610916565b145b611e2a5750565b611e36610c2491610789565b6040519182917f5274afe70000000000000000000000000000000000000000000000000000000083526004830173ffffffffffffffffffffffffffffffffffffffff909116815260200190565b9050611e9261111a6001610916565b1415611e23565b90611eae94939291611ea9611591565b611eb6565b6102326115ea565b9061023294939291611ec661150f565b906102329493929161210c565b15611eda57565b6040517f08c379a000000000000000000000000000000000000000000000000000000000815260206004820152602360248201527f444558506169723a20494e53554646494349454e545f4f55545055545f414d4f60448201527f554e5400000000000000000000000000000000000000000000000000000000006064820152608490fd5b15611f6657565b6040517f08c379a000000000000000000000000000000000000000000000000000000000815260206004820152601f60248201527f444558506169723a20494e53554646494349454e545f4c4951554944495459006044820152606490fd5b15611fcc57565b6040517f08c379a000000000000000000000000000000000000000000000000000000000815260206004820152601360248201527f444558506169723a20494e56414c49445f544f000000000000000000000000006044820152606490fd5b90826000939282370152565b919061037a8161204e816103a29560209181520190565b809561202b565b90939161024d95936120926120999261208b6080860198600087019073ffffffffffffffffffffffffffffffffffffffff169052565b6020850152565b6040830152565b6060818503910152612037565b156120ad57565b6040517f08c379a000000000000000000000000000000000000000000000000000000000815260206004820152600a60248201527f444558506169723a204b000000000000000000000000000000000000000000006044820152606490fd5b93929192600061211b81610916565b861191828315612524575b61212f90611ed3565b612137610ee2565b5096909561214487610f61565b89108061250e575b61215590611f5f565b61215f6001610b9e565b9161216a6002610d84565b9573ffffffffffffffffffffffffffffffffffffffff841673ffffffffffffffffffffffffffffffffffffffff83161415806124eb575b6121aa90611fc5565b6124d8575b6121b885610916565b87116124c5575b836121cc61111a87610916565b1161242f575b50506121e2915061123c90610789565b956370a082316121f130610789565b9060206121fd60405190565b809a6122098460e01b90565b825273ffffffffffffffffffffffffffffffffffffffff8516600483015260249082905afa9485156114df5761226c996000966123fd575b50906112cd61225561123c60209594610789565b9161225f60405190565b9b8c948593849360e01b90565b03915afa9384156114df57858792610232996000976123c5575b50926123166113fb959361192f9361235c96826122ae61024d836122a986610f61565b610fad565b8b11156123af576122a96122d46122ce61024d946122a96122da97610f61565b8d610fad565b96610f61565b6000908a111561239f57506122f56122fb916122a98d610f61565b89610fad565b935b61230681610916565b831190811561238d575b50610fbf565b6113ed6103e89361192f61235661235061234a61233b6123358a610916565b8d6110cf565b6113ed60039861192f8a610916565b97610916565b8b6110cf565b93610916565b61238661111a61024d61237a61237189610f61565b61192f8b610f61565b61192f620f4240610916565b10156120a6565b6123979150610916565b841138612310565b6123a99150610916565b936122fd565b6122da925061024d91506122a96122d489610916565b61235c949197506113fb959361192f936123ef6123169360203d81116114d8576114c98183610b11565b999396509350939550612286565b6020939291965061225561123c6124236112cd93873d81116114d8576114c98183610b11565b98939495505050612241565b61123c61243b91610789565b9063bea9cf36913391813b15610220578680946124798e9861246e948d61246160405190565b9b8c998a98899760e01b90565b875260048701612055565b03925af19081156114df576121e29261123c92612499575b8192506121d2565b6124b890853d87116124be575b6124b08183610b11565b810190610322565b38612491565b503d6124a6565b6124d38782611bf589610789565b6121bf565b6124e68a82611bf586610789565b6121af565b5073ffffffffffffffffffffffffffffffffffffffff82811690881614156121a1565b5061215561251b89610f61565b8710905061214c565b5061212f61253183610916565b85119050612126565b9061023294939291611e99565b61254f611591565b611eae61256261123c61123c6001610b9e565b6370a0823161257030610789565b602061257b60405190565b80946125878560e01b90565b825273ffffffffffffffffffffffffffffffffffffffff8416600483015260249082905afa9081156114df576125d6936000926114e45750602091926112cd6112b661123c61123c6002610d84565b03915afa80156114df5761023292600091612608575b506125f76003610ea7565b906126026003610ebd565b926117e6565b612620915060203d81116114d8576114c98183610b11565b386125ec565b610232612547565b906126b16126a76102329361266161264a8561193f6008611052565b61265a61111a61024d6008611052565b10156115fc565b600761268f61267c8661193f6126778686610792565b611052565b61265a61111a61024d6126778787610792565b610a9f6126a08661193f6008611052565b600861157a565b9161193f83611052565b9061157a565b610232916126d96126cc6126a0936007610792565b6126b1836122a983611052565b6122a96008611052565b90808210156126f0575090565b905090565b9060006127026003610916565b831115612780575061273782600261272261271c82610916565b83611114565b91600193849361273185610916565b906116d1565b935b612744575b50505050565b9091929461274f8190565b86101561277a57506127716127688661193f8185611114565b61146084610916565b92919082612739565b9461273e565b9161278e61111a6000610916565b0361279557565b905061024d6001610916565b336127ba836127b584610a9f85600c610792565b61157a565b6127fa6127f06127ea7f8c5be1e5ebec7d5bd14f71427d1e84f3dd0314c0f7b2291e5b200ac8c7c3b92593610789565b93610789565b9361053d60405190565b0390a3600190565b33612833612826836007610a9f6128198683610792565b6126b1896122a983611052565b6126b18561193f83611052565b6127fa6127f06127ea7fddf252ad1be2c89b69c2b068fc378daa952ba7f163c4a11628f55a4df523b3ef93610789565b600c816128708183610792565b61287e612677338093610792565b60010161289f575b505050612833612826836007610a9f6128198683610792565b610a9f6128af926128bc94610792565b6126b1856122a983611052565b388181612886565b67ffffffffffffffff8111610b5157602090601f017fffffffffffffffffffffffffffffffffffffffffffffffffffffffffffffffe0160190565b9061291161290c836128c4565b610b56565b918252565b612920600c6128ff565b7f444558204c5020546f6b656e0000000000000000000000000000000000000000602082015290565b61024d612916565b61024d612949565b61296360026128ff565b7f4c50000000000000000000000000000000000000000000000000000000000000602082015290565b61024d612959565b61024d61298c565b61062b61024d61024d9290565b61024d601261299c565b61024d612a4b565b6129c560016128ff565b7f3100000000000000000000000000000000000000000000000000000000000000602082015290565b61024d6129bb565b9095949261023294612a28612a2f92612a21608096612a1a60a088019c6000890152565b6020870152565b6040850152565b6060830152565b019073ffffffffffffffffffffffffffffffffffffffff169052565b7f8b73c3c69bb8fe3d512ecc4cf759cc79239f7b179b0ffacaa9a75d522b39400f612ad0612a77612949565b612a89612a82825190565b9160200190565b20612a926129ee565b612a9d612a82825190565b2092612ac446612aac30610789565b90612ab660405190565b9687956020870195866129f6565b90810382520382610b11565b612adb612a82825190565b2090565b15612ae657565b6040517f08c379a000000000000000000000000000000000000000000000000000000000815260206004820152601060248201527f444558506169723a2045585049524544000000000000000000000000000000006044820152606490fd5b7fffffffffffffffffffffffffffffffffffffffffffffffffffffffffffffffff8114610fba5760010190565b9194612bdb6108ad92989795612bd460a096612bb76102329a612b9a60c08a019e60008b0152565b73ffffffffffffffffffffffffffffffffffffffff166020890152565b73ffffffffffffffffffffffffffffffffffffffff166040870152565b6060850152565b6080830152565b6020809392612c1a6129116103a2947f1901000000000000000000000000000000000000000000000000000000000000815260020190565b01918252565b6108ad61023294612092606094989795612c3f608086019a6000870152565b60ff166020850152565b15612c5057565b6040517f08c379a000000000000000000000000000000000000000000000000000000000815260206004820152601a60248201527f444558506169723a20494e56414c49445f5349474e41545552450000000000006044820152606490fd5b939094612d758397612ac4612d5689612d328a600099612ac460209c612cdd612cd54290565b821015612adf565b7f6e71edae12b1b97f4d1f60370fef10105fa2faae0126114a169c64845d6126c992612d0a85600d610792565b90612d21612d1783611052565b926126b184612b45565b604051978896602088019687612b72565b612d3d612a82825190565b20612d46612a4b565b6040519384928b84019283612be2565b612d61612a82825190565b2092612d6c60405190565b94859485612c20565b838052039060015afa156114df57600051612daf90612da973ffffffffffffffffffffffffffffffffffffffff8416610cff565b14612c49565b612dc2836127b584610a9f85600c610792565b612df26127f06127ea7f8c5be1e5ebec7d5bd14f71427d1e84f3dd0314c0f7b2291e5b200ac8c7c3b92593610789565b0390a3565b612e016001610b9e565b612e14612e0e6002610d84565b91610789565b91612e1e83610789565b926370a0823192612e2e30610789565b906020612e3a60405190565b8097612e468860e01b90565b825273ffffffffffffffffffffffffffffffffffffffff8516600483015260249082905afa9081156114df5761123c60209486612e9f612ea595612ec99b600091612f10575b506113ed612e9a6003610ea7565b610f61565b91611d94565b936112cd612eb286610789565b91612ebc60405190565b9788948593849360e01b90565b03915afa9283156114df5761023293612e9f91600091612ef2575b506113ed612e9a6003610ebd565b612f0a915060203d81116114d8576114c98183610b11565b38612ee4565b612f279150893d81116114d8576114c98183610b11565b38612e8c565b61024d612f3d612e9a6003610ea7565b61192f612e9a6003610ebd565b612f6761024d61024d926dffffffffffffffffffffffffffff1690565b7bffffffffffffffffffffffffffffffffffffffffffffffffffffffff1690565b612f6761024d61024d9290565b61024d6e010000000000000000000000000000612f88565b7bffffffffffffffffffffffffffffffffffffffffffffffffffffffff908116929116917bffffffffffffffffffffffffffffffffffffffffffffffffffffffff818402166110d6565b61300c61024d91613006600090565b50612f4a565b613014612f95565b90612fad565b7bffffffffffffffffffffffffffffffffffffffffffffffffffffffff908116911661111e565b61305061024d92613006600090565b9061301a56fea2646970667358221220f97c6b03d65fa8a1506faf19a15a9d4f78db4f4f2bacd67ae49e023b274442a664736f6c63430008140033",
  "linkReferences": {},
  "deployedLinkReferences": {}
}