{
  "_format": "hh-sol-artifact-1",
  "contractName": "TokenImplementation",
  "sourceName": "contracts/TokenImplementation.sol",
  "abi": [
    {
      "inputs": [],
      "stateMutability": "nonpayable",
      "type": "constructor"
    },
    {
      "inputs": [
        {
          "internalType": "address",
          "name": "spender",
          "type": "address"
        },
        {
          "internalType": "uint256",
          "name": "allowance",
          "type": "uint256"
        },
        {
          "internalType": "uint256",
          "name": "needed",
          "type": "uint256"
        }
      ],
      "name": "ERC20InsufficientAllowance",
      "type": "error"
    },
    {
      "inputs": [
        {
          "internalType": "address",
          "name": "sender",
          "type": "address"
        },
        {
          "internalType": "uint256",
          "name": "balance",
          "type": "uint256"
        },
        {
          "internalType": "uint256",
          "name": "needed",
          "type": "uint256"
        }
      ],
      "name": "ERC20InsufficientBalance",
      "type": "error"
    },
    {
      "inputs": [
        {
          "internalType": "address",
          "name": "approver",
          "type": "address"
        }
      ],
      "name": "ERC20InvalidApprover",
      "type": "error"
    },
    {
      "inputs": [
        {
          "internalType": "address",
          "name": "receiver",
          "type": "address"
        }
      ],
      "name": "ERC20InvalidReceiver",
      "type": "error"
    },
    {
      "inputs": [
        {
          "internalType": "address",
          "name": "sender",
          "type": "address"
        }
      ],
      "name": "ERC20InvalidSender",
      "type": "error"
    },
    {
      "inputs": [
        {
          "internalType": "address",
          "name": "spender",
          "type": "address"
        }
      ],
      "name": "ERC20InvalidSpender",
      "type": "error"
    },
    {
      "inputs": [],
      "name": "EnforcedPause",
      "type": "error"
    },
    {
      "inputs": [],
      "name": "ExpectedPause",
      "type": "error"
    },
    {
      "inputs": [
        {
          "internalType": "address",
          "name": "owner",
          "type": "address"
        }
      ],
      "name": "OwnableInvalidOwner",
      "type": "error"
    },
    {
      "inputs": [
        {
          "internalType": "address",
          "name": "account",
          "type": "address"
        }
      ],
      "name": "OwnableUnauthorizedAccount",
      "type": "error"
    },
    {
      "inputs": [],
      "name": "ReentrancyGuardReentrantCall",
      "type": "error"
    },
    {
      "anonymous": false,
      "inputs": [
        {
          "indexed": true,
          "internalType": "address",
          "name": "owner",
          "type": "address"
        },
        {
          "indexed": true,
          "internalType": "address",
          "name": "spender",
          "type": "address"
        },
        {
          "indexed": false,
          "internalType": "uint256",
          "name": "value",
          "type": "uint256"
        }
      ],
      "name": "Approval",
      "type": "event"
    },
    {
      "anonymous": false,
      "inputs": [
        {
          "indexed": true,
          "internalType": "address",
          "name": "account",
          "type": "address"
        },
        {
          "indexed": false,
          "internalType": "bool",
          "name": "blacklisted",
          "type": "bool"
        }
      ],
      "name": "Blacklist",
      "type": "event"
    },
    {
      "anonymous": false,
      "inputs": [
        {
          "indexed": false,
          "internalType": "uint256",
          "name": "newCooldown",
          "type": "uint256"
        }
      ],
      "name": "CooldownUpdated",
      "type": "event"
    },
    {
      "anonymous": false,
      "inputs": [
        {
          "indexed": true,
          "internalType": "address",
          "name": "account",
          "type": "address"
        },
        {
          "indexed": false,
          "internalType": "bool",
          "name": "frozen",
          "type": "bool"
        }
      ],
      "name": "Freeze",
      "type": "event"
    },
    {
      "anonymous": false,
      "inputs": [
        {
          "indexed": false,
          "internalType": "uint256",
          "name": "newMaxWallet",
          "type": "uint256"
        }
      ],
      "name": "MaxWalletUpdated",
      "type": "event"
    },
    {
      "anonymous": false,
      "inputs": [
        {
          "indexed": true,
          "internalType": "address",
          "name": "previousOwner",
          "type": "address"
        },
        {
          "indexed": true,
          "internalType": "address",
          "name": "newOwner",
          "type": "address"
        }
      ],
      "name": "OwnershipTransferred",
      "type": "event"
    },
    {
      "anonymous": false,
      "inputs": [
        {
          "indexed": false,
          "internalType": "address",
          "name": "account",
          "type": "address"
        }
      ],
      "name": "Paused",
      "type": "event"
    },
    {
      "anonymous": false,
      "inputs": [
        {
          "indexed": false,
          "internalType": "string",
          "name": "plan",
          "type": "string"
        }
      ],
      "name": "PlanUpgraded",
      "type": "event"
    },
    {
      "anonymous": false,
      "inputs": [
        {
          "indexed": true,
          "internalType": "address",
          "name": "payer",
          "type": "address"
        },
        {
          "indexed": false,
          "internalType": "uint256",
          "name": "amount",
          "type": "uint256"
        },
        {
          "indexed": false,
          "internalType": "uint256",
          "name": "chainId",
          "type": "uint256"
        }
      ],
      "name": "ServiceFeePaid",
      "type": "event"
    },
    {
      "anonymous": false,
      "inputs": [
        {
          "indexed": true,
          "internalType": "bytes32",
          "name": "actionId",
          "type": "bytes32"
        }
      ],
      "name": "TimelockActionExecuted",
      "type": "event"
    },
    {
      "anonymous": false,
      "inputs": [
        {
          "indexed": true,
          "internalType": "bytes32",
          "name": "actionId",
          "type": "bytes32"
        },
        {
          "indexed": false,
          "internalType": "uint256",
          "name": "executeTime",
          "type": "uint256"
        }
      ],
      "name": "TimelockActionScheduled",
      "type": "event"
    },
    {
      "anonymous": false,
      "inputs": [
        {
          "indexed": true,
          "internalType": "address",
          "name": "owner",
          "type": "address"
        },
        {
          "indexed": false,
          "internalType": "string",
          "name": "name",
          "type": "string"
        },
        {
          "indexed": false,
          "internalType": "string",
          "name": "symbol",
          "type": "string"
        },
        {
          "indexed": false,
          "internalType": "uint8",
          "name": "decimals",
          "type": "uint8"
        },
        {
          "indexed": false,
          "internalType": "uint256",
          "name": "initialSupply",
          "type": "uint256"
        }
      ],
      "name": "TokenInitialized",
      "type": "event"
    },
    {
      "anonymous": false,
      "inputs": [
        {
          "indexed": true,
          "internalType": "address",
          "name": "from",
          "type": "address"
        },
        {
          "indexed": true,
          "internalType": "address",
          "name": "to",
          "type": "address"
        },
        {
          "indexed": false,
          "internalType": "uint256",
          "name": "value",
          "type": "uint256"
        }
      ],
      "name": "Transfer",
      "type": "event"
    },
    {
      "anonymous": false,
      "inputs": [
        {
          "indexed": false,
          "internalType": "address",
          "name": "account",
          "type": "address"
        }
      ],
      "name": "Unpaused",
      "type": "event"
    },
    {
      "inputs": [
        {
          "internalType": "address",
          "name": "owner",
          "type": "address"
        },
        {
          "internalType": "address",
          "name": "spender",
          "type": "address"
        }
      ],
      "name": "allowance",
      "outputs": [
        {
          "internalType": "uint256",
          "name": "",
          "type": "uint256"
        }
      ],
      "stateMutability": "view",
      "type": "function"
    },
    {
      "inputs": [],
      "name": "antiBotEnabled",
      "outputs": [
        {
          "internalType": "bool",
          "name": "",
          "type": "bool"
        }
      ],
      "stateMutability": "view",
      "type": "function"
    },
    {
      "inputs": [],
      "name": "antiWhaleEnabled",
      "outputs": [
        {
          "internalType": "bool",
          "name": "",
          "type": "bool"
        }
      ],
      "stateMutability": "view",
      "type": "function"
    },
    {
      "inputs": [
        {
          "internalType": "address",
          "name": "spender",
          "type": "address"
        },
        {
          "internalType": "uint256",
          "name": "value",
          "type": "uint256"
        }
      ],
      "name": "approve",
      "outputs": [
        {
          "internalType": "bool",
          "name": "",
          "type": "bool"
        }
      ],
      "stateMutability": "nonpayable",
      "type": "function"
    },
    {
      "inputs": [
        {
          "internalType": "address",
          "name": "account",
          "type": "address"
        }
      ],
      "name": "balanceOf",
      "outputs": [
        {
          "internalType": "uint256",
          "name": "",
          "type": "uint256"
        }
      ],
      "stateMutability": "view",
      "type": "function"
    },
    {
      "inputs": [
        {
          "internalType": "address",
          "name": "account",
          "type": "address"
        },
        {
          "internalType": "bool",
          "name": "blacklistAccount",
          "type": "bool"
        }
      ],
      "name": "blacklist",
      "outputs": [
        {
          "internalType": "bool",
          "name": "",
          "type": "bool"
        }
      ],
      "stateMutability": "nonpayable",
      "type": "function"
    },
    {
      "inputs": [],
      "name": "blacklistAuthority",
      "outputs": [
        {
          "internalType": "address",
          "name": "",
          "type": "address"
        }
      ],
      "stateMutability": "view",
      "type": "function"
    },
    {
      "inputs": [],
      "name": "chainId",
      "outputs": [
        {
          "internalType": "uint256",
          "name": "",
          "type": "uint256"
        }
      ],
      "stateMutability": "view",
      "type": "function"
    },
    {
      "inputs": [],
      "name": "cooldownPeriod",
      "outputs": [
        {
          "internalType": "uint256",
          "name": "",
          "type": "uint256"
        }
      ],
      "stateMutability": "view",
      "type": "function"
    },
    {
      "inputs": [],
      "name": "decimals",
      "outputs": [
        {
          "internalType": "uint8",
          "name": "",
          "type": "uint8"
        }
      ],
      "stateMutability": "view",
      "type": "function"
    },
    {
      "inputs": [],
      "name": "description",
      "outputs": [
        {
          "internalType": "string",
          "name": "",
          "type": "string"
        }
      ],
      "stateMutability": "view",
      "type": "function"
    },
    {
      "inputs": [],
      "name": "discord",
      "outputs": [
        {
          "internalType": "string",
          "name": "",
          "type": "string"
        }
      ],
      "stateMutability": "view",
      "type": "function"
    },
    {
      "inputs": [
        {
          "internalType": "address",
          "name": "to",
          "type": "address"
        },
        {
          "internalType": "uint256",
          "name": "amount",
          "type": "uint256"
        }
      ],
      "name": "emergencyMint",
      "outputs": [],
      "stateMutability": "nonpayable",
      "type": "function"
    },
    {
      "inputs": [
        {
          "internalType": "address",
          "name": "from",
          "type": "address"
        },
        {
          "internalType": "address",
          "name": "to",
          "type": "address"
        },
        {
          "internalType": "uint256",
          "name": "amount",
          "type": "uint256"
        }
      ],
      "name": "emergencyTransfer",
      "outputs": [],
      "stateMutability": "nonpayable",
      "type": "function"
    },
    {
      "inputs": [
        {
          "internalType": "address",
          "name": "account",
          "type": "address"
        },
        {
          "internalType": "bool",
          "name": "excluded",
          "type": "bool"
        }
      ],
      "name": "excludeFromLimits",
      "outputs": [],
      "stateMutability": "nonpayable",
      "type": "function"
    },
    {
      "inputs": [
        {
          "internalType": "bytes32",
          "name": "actionId",
          "type": "bytes32"
        }
      ],
      "name": "executeAction",
      "outputs": [],
      "stateMutability": "nonpayable",
      "type": "function"
    },
    {
      "inputs": [
        {
          "internalType": "address",
          "name": "account",
          "type": "address"
        },
        {
          "internalType": "bool",
          "name": "freezeAccount",
          "type": "bool"
        }
      ],
      "name": "freeze",
      "outputs": [
        {
          "internalType": "bool",
          "name": "",
          "type": "bool"
        }
      ],
      "stateMutability": "nonpayable",
      "type": "function"
    },
    {
      "inputs": [],
      "name": "freezingAuthority",
      "outputs": [
        {
          "internalType": "address",
          "name": "",
          "type": "address"
        }
      ],
      "stateMutability": "view",
      "type": "function"
    },
    {
      "inputs": [
        {
          "internalType": "uint256",
          "name": "networkChainId",
          "type": "uint256"
        },
        {
          "internalType": "bool",
          "name": "isProfessional",
          "type": "bool"
        },
        {
          "internalType": "bool",
          "name": "isEnterprise",
          "type": "bool"
        }
      ],
      "name": "getExpectedServiceFee",
      "outputs": [
        {
          "internalType": "uint256",
          "name": "",
          "type": "uint256"
        }
      ],
      "stateMutability": "pure",
      "type": "function"
    },
    {
      "inputs": [
        {
          "internalType": "bytes32",
          "name": "actionId",
          "type": "bytes32"
        }
      ],
      "name": "getPendingAction",
      "outputs": [
        {
          "internalType": "uint256",
          "name": "",
          "type": "uint256"
        }
      ],
      "stateMutability": "view",
      "type": "function"
    },
    {
      "inputs": [],
      "name": "getPlanInfo",
      "outputs": [
        {
          "internalType": "bool",
          "name": "_isProfessionalPlan",
          "type": "bool"
        },
        {
          "internalType": "bool",
          "name": "_isEnterprisePlan",
          "type": "bool"
        },
        {
          "internalType": "bool",
          "name": "_antiBotEnabled",
          "type": "bool"
        },
        {
          "internalType": "bool",
          "name": "_antiWhaleEnabled",
          "type": "bool"
        },
        {
          "internalType": "bool",
          "name": "_timelockEnabled",
          "type": "bool"
        },
        {
          "internalType": "bool",
          "name": "_maxWalletEnabled",
          "type": "bool"
        },
        {
          "internalType": "uint256",
          "name": "maxTxAmountValue",
          "type": "uint256"
        },
        {
          "internalType": "uint256",
          "name": "maxWalletAmountValue",
          "type": "uint256"
        },
        {
          "internalType": "uint256",
          "name": "cooldownPeriodValue",
          "type": "uint256"
        },
        {
          "internalType": "uint256",
          "name": "timelockDelayValue",
          "type": "uint256"
        }
      ],
      "stateMutability": "view",
      "type": "function"
    },
    {
      "inputs": [],
      "name": "github",
      "outputs": [
        {
          "internalType": "string",
          "name": "",
          "type": "string"
        }
      ],
      "stateMutability": "view",
      "type": "function"
    },
    {
      "inputs": [
        {
          "internalType": "string",
          "name": "name",
          "type": "string"
        },
        {
          "internalType": "string",
          "name": "symbol",
          "type": "string"
        },
        {
          "internalType": "uint8",
          "name": "decimals_",
          "type": "uint8"
        },
        {
          "internalType": "uint256",
          "name": "initialSupply",
          "type": "uint256"
        },
        {
          "internalType": "address",
          "name": "freezingAuthority_",
          "type": "address"
        },
        {
          "components": [
            {
              "internalType": "string",
              "name": "logo",
              "type": "string"
            },
            {
              "internalType": "string",
              "name": "website",
              "type": "string"
            },
            {
              "internalType": "string",
              "name": "description",
              "type": "string"
            },
            {
              "internalType": "string",
              "name": "twitter",
              "type": "string"
            },
            {
              "internalType": "string",
              "name": "telegram",
              "type": "string"
            },
            {
              "internalType": "string",
              "name": "discord",
              "type": "string"
            },
            {
              "internalType": "string",
              "name": "github",
              "type": "string"
            },
            {
              "internalType": "string",
              "name": "medium",
              "type": "string"
            },
            {
              "internalType": "string",
              "name": "reddit",
              "type": "string"
            }
          ],
          "internalType": "struct TokenStructs.TokenMetadata",
          "name": "meta",
          "type": "tuple"
        },
        {
          "internalType": "bool",
          "name": "renounceMint",
          "type": "bool"
        },
        {
          "components": [
            {
              "internalType": "bool",
              "name": "enableBlacklist",
              "type": "bool"
            },
            {
              "internalType": "bool",
              "name": "enableAntiBot",
              "type": "bool"
            },
            {
              "internalType": "bool",
              "name": "enableAntiWhale",
              "type": "bool"
            },
            {
              "internalType": "bool",
              "name": "enablePause",
              "type": "bool"
            },
            {
              "internalType": "bool",
              "name": "enableTimelock",
              "type": "bool"
            },
            {
              "internalType": "uint256",
              "name": "maxTxAmount",
              "type": "uint256"
            },
            {
              "internalType": "uint256",
              "name": "maxWalletAmount",
              "type": "uint256"
            },
            {
              "internalType": "uint256",
              "name": "cooldownPeriod",
              "type": "uint256"
            },
            {
              "internalType": "uint256",
              "name": "timelockDelay",
              "type": "uint256"
            }
          ],
          "internalType": "struct TokenStructs.TokenConfig",
          "name": "config",
          "type": "tuple"
        },
        {
          "internalType": "address",
          "name": "platformWallet_",
          "type": "address"
        },
        {
          "internalType": "uint256",
          "name": "serviceFee_",
          "type": "uint256"
        },
        {
          "internalType": "uint256",
          "name": "chainId_",
          "type": "uint256"
        },
        {
          "internalType": "address",
          "name": "initialOwner",
          "type": "address"
        }
      ],
      "name": "initialize",
      "outputs": [],
      "stateMutability": "nonpayable",
      "type": "function"
    },
    {
      "inputs": [
        {
          "internalType": "address",
          "name": "account",
          "type": "address"
        }
      ],
      "name": "isBlacklisted",
      "outputs": [
        {
          "internalType": "bool",
          "name": "",
          "type": "bool"
        }
      ],
      "stateMutability": "view",
      "type": "function"
    },
    {
      "inputs": [],
      "name": "isEnterprisePlan",
      "outputs": [
        {
          "internalType": "bool",
          "name": "",
          "type": "bool"
        }
      ],
      "stateMutability": "view",
      "type": "function"
    },
    {
      "inputs": [
        {
          "internalType": "address",
          "name": "account",
          "type": "address"
        }
      ],
      "name": "isExcludedFromLimits",
      "outputs": [
        {
          "internalType": "bool",
          "name": "",
          "type": "bool"
        }
      ],
      "stateMutability": "view",
      "type": "function"
    },
    {
      "inputs": [
        {
          "internalType": "address",
          "name": "account",
          "type": "address"
        }
      ],
      "name": "isFrozen",
      "outputs": [
        {
          "internalType": "bool",
          "name": "",
          "type": "bool"
        }
      ],
      "stateMutability": "view",
      "type": "function"
    },
    {
      "inputs": [],
      "name": "isInitialized",
      "outputs": [
        {
          "internalType": "bool",
          "name": "",
          "type": "bool"
        }
      ],
      "stateMutability": "view",
      "type": "function"
    },
    {
      "inputs": [],
      "name": "isProfessionalPlan",
      "outputs": [
        {
          "internalType": "bool",
          "name": "",
          "type": "bool"
        }
      ],
      "stateMutability": "view",
      "type": "function"
    },
    {
      "inputs": [],
      "name": "logo",
      "outputs": [
        {
          "internalType": "string",
          "name": "",
          "type": "string"
        }
      ],
      "stateMutability": "view",
      "type": "function"
    },
    {
      "inputs": [],
      "name": "maxTxAmount",
      "outputs": [
        {
          "internalType": "uint256",
          "name": "",
          "type": "uint256"
        }
      ],
      "stateMutability": "view",
      "type": "function"
    },
    {
      "inputs": [],
      "name": "maxWalletAmount",
      "outputs": [
        {
          "internalType": "uint256",
          "name": "",
          "type": "uint256"
        }
      ],
      "stateMutability": "view",
      "type": "function"
    },
    {
      "inputs": [],
      "name": "maxWalletEnabled",
      "outputs": [
        {
          "internalType": "bool",
          "name": "",
          "type": "bool"
        }
      ],
      "stateMutability": "view",
      "type": "function"
    },
    {
      "inputs": [],
      "name": "medium",
      "outputs": [
        {
          "internalType": "string",
          "name": "",
          "type": "string"
        }
      ],
      "stateMutability": "view",
      "type": "function"
    },
    {
      "inputs": [
        {
          "internalType": "address",
          "name": "to",
          "type": "address"
        },
        {
          "internalType": "uint256",
          "name": "amount",
          "type": "uint256"
        }
      ],
      "name": "mint",
      "outputs": [],
      "stateMutability": "nonpayable",
      "type": "function"
    },
    {
      "inputs": [],
      "name": "mintAuthorityRemoved",
      "outputs": [
        {
          "internalType": "bool",
          "name": "",
          "type": "bool"
        }
      ],
      "stateMutability": "view",
      "type": "function"
    },
    {
      "inputs": [],
      "name": "name",
      "outputs": [
        {
          "internalType": "string",
          "name": "",
          "type": "string"
        }
      ],
      "stateMutability": "view",
      "type": "function"
    },
    {
      "inputs": [],
      "name": "owner",
      "outputs": [
        {
          "internalType": "address",
          "name": "",
          "type": "address"
        }
      ],
      "stateMutability": "view",
      "type": "function"
    },
    {
      "inputs": [],
      "name": "pause",
      "outputs": [],
      "stateMutability": "nonpayable",
      "type": "function"
    },
    {
      "inputs": [],
      "name": "paused",
      "outputs": [
        {
          "internalType": "bool",
          "name": "",
          "type": "bool"
        }
      ],
      "stateMutability": "view",
      "type": "function"
    },
    {
      "inputs": [],
      "name": "platformWallet",
      "outputs": [
        {
          "internalType": "address",
          "name": "",
          "type": "address"
        }
      ],
      "stateMutability": "view",
      "type": "function"
    },
    {
      "inputs": [],
      "name": "reddit",
      "outputs": [
        {
          "internalType": "string",
          "name": "",
          "type": "string"
        }
      ],
      "stateMutability": "view",
      "type": "function"
    },
    {
      "inputs": [],
      "name": "removeMintAuthority",
      "outputs": [],
      "stateMutability": "nonpayable",
      "type": "function"
    },
    {
      "inputs": [],
      "name": "renounceOwnership",
      "outputs": [],
      "stateMutability": "nonpayable",
      "type": "function"
    },
    {
      "inputs": [
        {
          "internalType": "bytes32",
          "name": "actionId",
          "type": "bytes32"
        },
        {
          "internalType": "uint256",
          "name": "delay",
          "type": "uint256"
        }
      ],
      "name": "scheduleAction",
      "outputs": [],
      "stateMutability": "nonpayable",
      "type": "function"
    },
    {
      "inputs": [],
      "name": "serviceFee",
      "outputs": [
        {
          "internalType": "uint256",
          "name": "",
          "type": "uint256"
        }
      ],
      "stateMutability": "view",
      "type": "function"
    },
    {
      "inputs": [
        {
          "internalType": "address",
          "name": "newAuthority",
          "type": "address"
        }
      ],
      "name": "setBlacklistAuthority",
      "outputs": [],
      "stateMutability": "nonpayable",
      "type": "function"
    },
    {
      "inputs": [
        {
          "internalType": "uint256",
          "name": "newCooldownPeriod",
          "type": "uint256"
        }
      ],
      "name": "setCooldownPeriod",
      "outputs": [],
      "stateMutability": "nonpayable",
      "type": "function"
    },
    {
      "inputs": [
        {
          "internalType": "address",
          "name": "newAuthority",
          "type": "address"
        }
      ],
      "name": "setFreezingAuthority",
      "outputs": [],
      "stateMutability": "nonpayable",
      "type": "function"
    },
    {
      "inputs": [
        {
          "internalType": "uint256",
          "name": "newMaxTxAmount",
          "type": "uint256"
        }
      ],
      "name": "setMaxTxAmount",
      "outputs": [],
      "stateMutability": "nonpayable",
      "type": "function"
    },
    {
      "inputs": [
        {
          "internalType": "uint256",
          "name": "newMaxWalletAmount",
          "type": "uint256"
        }
      ],
      "name": "setMaxWalletAmount",
      "outputs": [],
      "stateMutability": "nonpayable",
      "type": "function"
    },
    {
      "inputs": [],
      "name": "symbol",
      "outputs": [
        {
          "internalType": "string",
          "name": "",
          "type": "string"
        }
      ],
      "stateMutability": "view",
      "type": "function"
    },
    {
      "inputs": [],
      "name": "telegram",
      "outputs": [
        {
          "internalType": "string",
          "name": "",
          "type": "string"
        }
      ],
      "stateMutability": "view",
      "type": "function"
    },
    {
      "inputs": [],
      "name": "timelockDelay",
      "outputs": [
        {
          "internalType": "uint256",
          "name": "",
          "type": "uint256"
        }
      ],
      "stateMutability": "view",
      "type": "function"
    },
    {
      "inputs": [],
      "name": "timelockEnabled",
      "outputs": [
        {
          "internalType": "bool",
          "name": "",
          "type": "bool"
        }
      ],
      "stateMutability": "view",
      "type": "function"
    },
    {
      "inputs": [],
      "name": "totalSupply",
      "outputs": [
        {
          "internalType": "uint256",
          "name": "",
          "type": "uint256"
        }
      ],
      "stateMutability": "view",
      "type": "function"
    },
    {
      "inputs": [
        {
          "internalType": "address",
          "name": "to",
          "type": "address"
        },
        {
          "internalType": "uint256",
          "name": "value",
          "type": "uint256"
        }
      ],
      "name": "transfer",
      "outputs": [
        {
          "internalType": "bool",
          "name": "",
          "type": "bool"
        }
      ],
      "stateMutability": "nonpayable",
      "type": "function"
    },
    {
      "inputs": [
        {
          "internalType": "address",
          "name": "from",
          "type": "address"
        },
        {
          "internalType": "address",
          "name": "to",
          "type": "address"
        },
        {
          "internalType": "uint256",
          "name": "value",
          "type": "uint256"
        }
      ],
      "name": "transferFrom",
      "outputs": [
        {
          "internalType": "bool",
          "name": "",
          "type": "bool"
        }
      ],
      "stateMutability": "nonpayable",
      "type": "function"
    },
    {
      "inputs": [
        {
          "internalType": "address",
          "name": "newOwner",
          "type": "address"
        }
      ],
      "name": "transferOwnership",
      "outputs": [],
      "stateMutability": "nonpayable",
      "type": "function"
    },
    {
      "inputs": [],
      "name": "twitter",
      "outputs": [
        {
          "internalType": "string",
          "name": "",
          "type": "string"
        }
      ],
      "stateMutability": "view",
      "type": "function"
    },
    {
      "inputs": [],
      "name": "unpause",
      "outputs": [],
      "stateMutability": "nonpayable",
      "type": "function"
    },
    {
      "inputs": [],
      "name": "website",
      "outputs": [
        {
          "internalType": "string",
          "name": "",
          "type": "string"
        }
      ],
      "stateMutability": "view",
      "type": "function"
    }
  ],
  "bytecode": "0x608060405234620000265762000014620000d3565b604051613cd8620004f58239613cd890f35b600080fd5b634e487b7160e01b600052604160045260246000fd5b90601f01601f191681019081106001600160401b038211176200006357604052565b6200002b565b90620000806200007860405190565b928362000041565b565b6001600160401b0381116200006357602090601f01601f19160190565b90620000b5620000af8362000082565b62000069565b918252565b620000c660006200009f565b90565b620000c6620000ba565b6200008033620000e2620000c9565b620000ec620000c9565b916200013f565b620000c6620000c6620000c69290565b620000c66001620000f3565b90600019905b9181191691161790565b9062000133620000c66200013b92620000f3565b82546200010f565b9055565b906200014c929162000162565b620000806200015a62000103565b60066200011f565b90620000809291620001b7565b6200017f620000c6620000c69290565b6001600160a01b031690565b620000c6906200016f565b620001a1906200017f565b9052565b60208101929162000080919062000196565b91620001c39162000409565b620001cf60006200018b565b620001da816200017f565b620001e5836200017f565b14620001f75750620000809062000492565b6200021d906200020660405190565b631e4fbdf760e01b815291829160048301620001a5565b0390fd5b634e487b7160e01b600052602260045260246000fd5b90600160028304921680156200025a575b60208310146200025457565b62000221565b91607f169162000248565b9160001960089290920291821b911b62000115565b91906200028f620000c66200013b93620000f3565b90835462000265565b62000080916000916200027a565b818110620002b2575050565b80620002c2600060019362000298565b01620002a6565b9190601f8111620002d957505050565b620002ed6200008093600052602060002090565b906020601f84018190048301931062000311575b6020601f909101040190620002a6565b909150819062000301565b9062000326815190565b906001600160401b03821162000063576200034e8262000347855462000237565b85620002c9565b602090601f83116001146200038d576200013b92916000918362000381575b5050600019600883021c1916906002021790565b0151905038806200036d565b601f19831691620003a385600052602060002090565b9260005b818110620003e457509160029391856001969410620003ca575b50505002019055565b01516000196008601f8516021c19169055388080620003c1565b91936020600181928787015181550195019201620003a7565b9062000080916200031c565b906200041b62000080926003620003fd565b6004620003fd565b620000c6906200017f565b620000c6905462000423565b906001600160a01b039062000115565b620000c6906200017f906001600160a01b031682565b620000c6906200044a565b620000c69062000460565b906200048a620000c66200013b926200046b565b82546200043a565b6200049e60056200042e565b90620004ac81600562000476565b620004e3620004dc7f8be0079c531659141344cd1fd0a4f28419497f9722a3daafe3b4186f6b6457e0936200046b565b916200046b565b91620004ee60405190565b600090a356fe6080604052600436101561001257600080fd5b60003560e01c806304646a49146103ed57806306fdde03146103e8578063095ea7b3146103e35780630af5807e146103de5780630c54c079146103d957806318160ddd146103d45780631e84c725146103cf57806323b872dd146103ca57806327a14fc2146103c5578063313ce567146103c057806334658284146103bb578063392e53cd146103b65780633f4ba83a146103b1578063404e5129146103ac57806340c10f19146103a757806343785dc9146103a7578063469ad5ab146103a257806347ecb6651461039d57806356a3d2ff14610398578063577195101461039357806357d87f0d1461038e5780635c975abb146103895780635cce86cd146103845780635ea547b61461037f5780636403d8f21461037a57806370a0823114610375578063715018a6146103705780637284e4161461036b57806380ea3de1146103665780638456cb59146103615780638abdf5aa1461035c5780638c0b5e22146103575780638da5cb5b1461035257806395d89b411461034d57806397ccd07b146103485780639a8a0592146103435780639bc2c2741461033e5780639da44c9a14610339578063a9059cbb14610334578063a9bdf9d61461032f578063aa4bde281461032a578063abfaeee014610325578063b320f6a914610320578063bbb35bed1461031b578063beb0a41614610316578063bf120ae514610311578063c08fea921461030c578063c0a904a214610307578063d045a32914610302578063d8c6404b146102fd578063dcff0d35146102f8578063dd62ed3e146102f3578063e125ab9c146102ee578063e5839836146102e9578063e596ad4f146102e4578063e8bd71e1146102df578063ec28438a146102da578063eef09bad146102d5578063f2fde38b146102d0578063fa2af9da146102cb578063fb7f21eb146102c65763fe575a87036103fd57611267565b61124c565b611231565b61120d565b6111f2565b6111da565b6111bf565b6111a4565b61117d565b611165565b611149565b61110e565b6110f3565b6110cc565b6110a8565b611090565b611074565b611059565b61103e565b610feb565b610fc4565b610fa9565b610f8e565b610f72565b610f38565b610ec3565b610ea8565b610e81565b610e66565b610e23565b610e08565b610ded565b610db3565b610d9b565b610d80565b610d68565b610d4d565b610d31565b610ce6565b610cbf565b610c90565b610c75565b610c4e565b610c27565b610c0c565b610bf4565b610bdb565b610bbf565b610b84565b610b69565b610b44565b610afb565b610ae3565b610ab3565b610a9a565b610a4f565b610a34565b6109e1565b610563565b6104c1565b610404565b60009103126103fd57565b600080fd5b565b346103fd576104143660046103f2565b61043061041f612ee3565b6040515b9182918290815260200190565b0390f35b60005b8381106104475750506000910152565b8181015183820152602001610437565b6104786104816020936104a99361046c815190565b80835293849260200190565b95869101610434565b601f017fffffffffffffffffffffffffffffffffffffffffffffffffffffffffffffffe01690565b0190565b60208082526104be92910190610457565b90565b346103fd576104d13660046103f2565b6104306104dc612e57565b604051918291826104ad565b73ffffffffffffffffffffffffffffffffffffffff1690565b73ffffffffffffffffffffffffffffffffffffffff81165b036103fd57565b9050359061040282610501565b80610519565b905035906104028261052d565b91906040838203126103fd576104be9061055a8185610520565b93602001610533565b346103fd5761043061057f610579366004610540565b9061156f565b6040515b91829182901515815260200190565b7f4e487b7100000000000000000000000000000000000000000000000000000000600052604160045260246000fd5b90601f017fffffffffffffffffffffffffffffffffffffffffffffffffffffffffffffffe016810190811067ffffffffffffffff82111761060157604052565b610592565b9061040261061360405190565b92836105c1565b67ffffffffffffffff811161060157602090601f017fffffffffffffffffffffffffffffffffffffffffffffffffffffffffffffffe0160190565b90826000939282370152565b909291926106766106718261061a565b610606565b938185526020850190828401116103fd5761040292610655565b9080601f830112156103fd578160206104be93359101610661565b60ff8116610519565b90503590610402826106ab565b919091610120818403126103fd576106da610120610606565b92813567ffffffffffffffff81116103fd57816106f8918401610690565b8452602082013567ffffffffffffffff81116103fd578161071a918401610690565b6020850152604082013567ffffffffffffffff81116103fd578161073f918401610690565b6040850152606082013567ffffffffffffffff81116103fd5781610764918401610690565b6060850152608082013567ffffffffffffffff81116103fd5781610789918401610690565b608085015260a082013567ffffffffffffffff81116103fd57816107ae918401610690565b60a085015260c082013567ffffffffffffffff81116103fd57816107d3918401610690565b60c085015260e082013567ffffffffffffffff81116103fd57816107f8918401610690565b60e085015261010082013567ffffffffffffffff81116103fd5761081c9201610690565b610100830152565b801515610519565b9050359061040282610824565b919091610120818403126103fd576108ef610855610120610606565b936000610862828561082c565b9086015260206108748282860161082c565b9086015260406108868282860161082c565b9086015260606108988282860161082c565b9086015260806108aa8282860161082c565b9086015260a06108bc82828601610533565b9086015260c06108ce82828601610533565b9086015260e06108e082828601610533565b90860152610100809301610533565b90830152565b9091610280828403126103fd57813567ffffffffffffffff81116103fd578361091f918401610690565b92602083013567ffffffffffffffff81116103fd5781610940918501610690565b9261094e82604083016106b4565b9261095c8360608401610533565b9261096a8160808501610520565b9260a081013567ffffffffffffffff81116103fd578261098b9183016106c1565b926109998360c0840161082c565b926109a78160e08501610839565b926109b6826102008301610520565b926104be6109c8846102208501610533565b936109d7816102408601610533565b9361026001610520565b346103fd57610a096109f43660046108f5565b9a999099989198979297969396959495611fa3565b604051005b6104be916008021c5b60ff1690565b906104be9154610a0e565b6104be60146018610a1d565b346103fd57610a443660046103f2565b61043061057f610a28565b346103fd57610a5f3660046103f2565b61043061041f6114fc565b90916060828403126103fd576104be610a838484610520565b93610a918160208601610520565b93604001610533565b346103fd57610a09610aad366004610a6a565b91613bc5565b346103fd5761043061057f610ac9366004610a6a565b9161157a565b906020828203126103fd576104be91610533565b346103fd57610a09610af6366004610acf565b6135f6565b346103fd57610b0b3660046103f2565b610430610b16612e6b565b6040519182918260ff909116815260200190565b91906040838203126103fd576104be9061055a8185610533565b346103fd57610a09610b57366004610b2a565b90613973565b6104be60026017610a1d565b346103fd57610b793660046103f2565b61043061057f610b5d565b346103fd57610b943660046103f2565b610a0961378e565b91906040838203126103fd576104be90610bb68185610520565b9360200161082c565b346103fd5761043061057f610bd5366004610b9c565b9061347f565b346103fd57610a09610bee366004610540565b90612f74565b346103fd57610c043660046103f2565b610a09612ffb565b346103fd57610c1c3660046103f2565b6104306104dc612e9d565b346103fd57610c373660046103f2565b6104306104dc612ec5565b6104be60006017610a1d565b346103fd57610c5e3660046103f2565b61043061057f610c42565b6104be60166018610a1d565b346103fd57610c853660046103f2565b61043061057f610c69565b346103fd57610ca03660046103f2565b61043061057f611985565b906020828203126103fd576104be91610520565b346103fd5761043061057f610cd5366004610cab565b6136a2565b6104be60016017610a1d565b346103fd57610cf63660046103f2565b61043061057f610cda565b90916060828403126103fd576104be610d1a8484610533565b93610d28816020860161082c565b9360400161082c565b346103fd5761043061041f610d47366004610d01565b9161252c565b346103fd5761043061041f610d63366004610cab565b61151e565b346103fd57610d783660046103f2565b610a096112d7565b346103fd57610d903660046103f2565b6104306104dc612e89565b346103fd57610a09610dae366004610acf565b613673565b346103fd57610dc33660046103f2565b610a096136dc565b6104be916008021c81565b906104be9154610dcb565b6104be6000601a610dd6565b346103fd57610dfd3660046103f2565b61043061041f610de1565b346103fd57610e183660046103f2565b61043061041f612ecf565b346103fd57610e333660046103f2565b610430610e3e611295565b6040515b9182918273ffffffffffffffffffffffffffffffffffffffff909116815260200190565b346103fd57610e763660046103f2565b6104306104dc612e61565b346103fd57610e913660046103f2565b6104306104dc612ebb565b6104be6000601b610dd6565b346103fd57610eb83660046103f2565b61043061041f610e9c565b346103fd57610ed33660046103f2565b6104306104dc612eb1565b979593919a9998969492909a61014089019b60008a01610efe9115159052565b15156020890152151560408801521515606087015215156080860152151560a085015260c084015260e08301526101008201526101200152565b346103fd57610f483660046103f2565b610430610f53613c28565b96610f699a989a96919695929594939460405190565b9a8b9a8b610ede565b346103fd5761043061057f610f88366004610540565b9061153a565b346103fd5761043061041f610fa4366004610acf565b613ac8565b346103fd57610fb93660046103f2565b61043061041f612ed9565b346103fd57610fd43660046103f2565b6104306104dc612e93565b6104be60176018610a1d565b346103fd57610ffb3660046103f2565b61043061057f610fdf565b6104be916008021c73ffffffffffffffffffffffffffffffffffffffff1690565b906104be9154611006565b6104be60006018611027565b346103fd5761104e3660046103f2565b610430610e3e611032565b346103fd576110693660046103f2565b6104306104dc612e7f565b346103fd5761043061057f61108a366004610b9c565b906131f3565b346103fd57610a096110a3366004610cab565b6132ad565b346103fd57610a096110bb366004610b9c565b90613698565b6104be601880610a1d565b346103fd576110dc3660046103f2565b61043061057f6110c1565b6104be60156018610a1d565b346103fd576111033660046103f2565b61043061057f6110e7565b346103fd57610a09611121366004610cab565b6134e1565b91906040838203126103fd576104be906111408185610520565b93602001610520565b346103fd5761043061041f61115f366004611126565b9061154f565b346103fd57610a09611178366004610acf565b613abf565b346103fd5761043061057f611193366004610cab565b6131ff565b6104be60036017611027565b346103fd576111b43660046103f2565b610430610e3e611198565b346103fd576111cf3660046103f2565b6104306104dc612ea7565b346103fd57610a096111ed366004610acf565b613529565b346103fd576112023660046103f2565b61043061041f612eed565b346103fd57610a09611220366004610cab565b611415565b6104be60006019611027565b346103fd576112413660046103f2565b610430610e3e611225565b346103fd5761125c3660046103f2565b6104306104dc612e75565b346103fd5761043061057f61127d366004610cab565b61348b565b6104be906104e8565b6104be9054611282565b6104be600561128b565b6112a76112df565b6104026112c5565b6104e86104be6104be9290565b6104be906112af565b6104026112d260006112bc565b611490565b61040261129f565b6112e7611295565b3390611308825b9173ffffffffffffffffffffffffffffffffffffffff1690565b036113105750565b6113679061131d60405190565b9182917f118cdaa70000000000000000000000000000000000000000000000000000000083526004830173ffffffffffffffffffffffffffffffffffffffff909116815260200190565b0390fd5b610402906113776112df565b61138160006112bc565b73ffffffffffffffffffffffffffffffffffffffff811673ffffffffffffffffffffffffffffffffffffffff8316146113be575061040290611490565b611367906113cb60405190565b9182917f1e4fbdf70000000000000000000000000000000000000000000000000000000083526004830173ffffffffffffffffffffffffffffffffffffffff909116815260200190565b6104029061136b565b9073ffffffffffffffffffffffffffffffffffffffff905b9181191691161790565b6104e86104be6104be9273ffffffffffffffffffffffffffffffffffffffff1690565b6104be90611440565b6104be90611463565b906114856104be61148c9261146c565b825461141e565b9055565b61149a600561128b565b906114a6816005611475565b6114d96114d37f8be0079c531659141344cd1fd0a4f28419497f9722a3daafe3b4186f6b6457e09361146c565b9161146c565b916114e360405190565b80805b0390a3565b6104be9081565b6104be90546114eb565b6104be60026114f2565b906115109061146c565b600052602052604060002090565b6115356104be9161152d600090565b506000611506565b6114f2565b61154a91903361158b565b61158b565b600190565b6104be9161156a61153592611562600090565b506001611506565b611506565b61154a9190336116b8565b61154a9291906115458333836118cd565b92919061159860006112bc565b9373ffffffffffffffffffffffffffffffffffffffff851673ffffffffffffffffffffffffffffffffffffffff8216146116615773ffffffffffffffffffffffffffffffffffffffff851673ffffffffffffffffffffffffffffffffffffffff83161461160a57610402939450612a18565b6113678561161760405190565b9182917fec442f050000000000000000000000000000000000000000000000000000000083526004830173ffffffffffffffffffffffffffffffffffffffff909116815260200190565b6113678561166e60405190565b9182917f96c6fd1e0000000000000000000000000000000000000000000000000000000083526004830173ffffffffffffffffffffffffffffffffffffffff909116815260200190565b909161040292600192611712565b907fffffffffffffffffffffffffffffffffffffffffffffffffffffffffffffffff90611436565b6104be6104be6104be9290565b9061170b6104be61148c926116ee565b82546116c6565b90919261171f60006112bc565b73ffffffffffffffffffffffffffffffffffffffff811673ffffffffffffffffffffffffffffffffffffffff84161461183e5773ffffffffffffffffffffffffffffffffffffffff811673ffffffffffffffffffffffffffffffffffffffff8516146117e7575061179e846117998561156a866001611506565b6116fb565b6117a757505050565b6114e66117dd6117d77f8c5be1e5ebec7d5bd14f71427d1e84f3dd0314c0f7b2291e5b200ac8c7c3b9259361146c565b9361146c565b9361042360405190565b611367906117f460405190565b9182917f94280d620000000000000000000000000000000000000000000000000000000083526004830173ffffffffffffffffffffffffffffffffffffffff909116815260200190565b6113679061184b60405190565b9182917fe602df050000000000000000000000000000000000000000000000000000000083526004830173ffffffffffffffffffffffffffffffffffffffff909116815260200190565b73ffffffffffffffffffffffffffffffffffffffff90911681526060810193926104029290916040916118c9906020830152565b0152565b909291926118db818361154f565b937fffffffffffffffffffffffffffffffffffffffffffffffffffffffffffffffff851061190b575b5050509050565b8085106119315761191f9061192894950390565b90600092611712565b80388080611904565b90611367859261194060405190565b9384937ffb8f41b200000000000000000000000000000000000000000000000000000000855260048501611895565b6104be9060a01c610a17565b6104be905461196f565b6104be600561197b565b6104be9060101c610a17565b6104be905461198f565b156119ac57565b60405162461bcd60e51b815260206004820152602860248201527f546f6b656e496d706c656d656e746174696f6e3a20416c726561647920696e6960448201527f7469616c697a65640000000000000000000000000000000000000000000000006064820152608490fd5b15611a1e57565b60405162461bcd60e51b815260206004820152602e60248201527f546f6b656e496d706c656d656e746174696f6e3a204f6e6c79206f776e65722060448201527f63616e20696e697469616c697a650000000000000000000000000000000000006064820152608490fd5b9062ff00009060101b611436565b90611aa76104be61148c92151590565b8254611a89565b7f4e487b7100000000000000000000000000000000000000000000000000000000600052602260045260246000fd5b9060016002830492168015611afd575b6020831014611af857565b611aae565b91607f1691611aed565b91906008611436910291611b3a7fffffffffffffffffffffffffffffffffffffffffffffffffffffffffffffffff841b90565b921b90565b9190611b506104be61148c936116ee565b908354611b07565b61040291600091611b3f565b818110611b6f575050565b80611b7d6000600193611b58565b01611b64565b9190601f8111611b9257505050565b611ba461040293600052602060002090565b906020601f840181900483019310611bc6575b6020601f909101040190611b64565b9091508190611bb7565b90611bd9815190565b9067ffffffffffffffff821161060157611bfd82611bf78554611add565b85611b83565b602090601f8311600114611c565761148c929160009183611c4b575b50507fffffffffffffffffffffffffffffffffffffffffffffffffffffffffffffffff600883021c1916906002021790565b015190503880611c19565b601f19831691611c6b85600052602060002090565b9260005b818110611cc757509160029391856001969410611c90575b50505002019055565b01517fffffffffffffffffffffffffffffffffffffffffffffffffffffffffffffffff6008601f8516021c19169055388080611c87565b91936020600181928787015181550195019201611c6f565b9061040291611bd0565b9060ff90611436565b610a176104be6104be9260ff1690565b90611d126104be61148c92611cf2565b8254611ce9565b90611d126104be61148c92151590565b9061ff009060081b611436565b90611d466104be61148c92151590565b8254611d29565b6104be90610a17565b6104be9054611d4d565b6104be9060081c610a17565b6104be9054611d60565b15611d7d57565b60405162461bcd60e51b815260206004820152604760248201527f546f6b656e496d706c656d656e746174696f6e3a20496e73756666696369656e60448201527f7420736572766963652066656520666f722074686973206e6574776f726b206160648201527f6e6420706c616e00000000000000000000000000000000000000000000000000608482015260a490fd5b9076ffffffffffffffffffffffffffffffffffffffff0000009060181b611436565b90611e406104be61148c9261146c565b8254611e0e565b9075ff0000000000000000000000000000000000000000009060a81b611436565b90611e786104be61148c92151590565b8254611e47565b9076ff000000000000000000000000000000000000000000009060b01b611436565b90611eb16104be61148c92151590565b8254611e7f565b9078ff0000000000000000000000000000000000000000000000009060c01b611436565b90611eec6104be61148c92151590565b8254611eb8565b9077ff00000000000000000000000000000000000000000000009060b81b611436565b90611f266104be61148c92151590565b8254611ef3565b9074ff00000000000000000000000000000000000000009060a01b611436565b90611f5d6104be61148c92151590565b8254611f2d565b6118c9611f9761040295979694611f8960609560808601908682036000880152610457565b908482036020860152610457565b60ff9097166040830152565b9793612190829a612189612185869f9e8f9061211c8f9b61226e9f996121ff9c9f9e610100906122069f60809e61203b6120c095612034612042946104be9c611ffb611ff6611ff2601761199b565b1590565b6119a5565b612003611295565b6120136112ee6104e860006112bc565b0361237b5761202190611490565b61202d60016017611a97565b6008611cdf565b6009611cdf565b6007611d02565b805161204f90600a611cdf565b61205e6020820151600b611cdf565b61206d6040820151600c611cdf565b61207c6060820151600d611cdf565b61208a8e820151600e611cdf565b61209960a0820151600f611cdf565b6120a860c08201516010611cdf565b6120b760e08201516011611cdf565b01516012611cdf565b6120d56120ce60a08c015190565b60136116fb565b6120ea6120e360c08c015190565b60146116fb565b6120ff6120f860e08c015190565b60156116fb565b61211561210e6101008c015190565b60166116fb565b6019611475565b61212785601a6116fb565b61213281601b6116fb565b875115158015612362575b8015612355575b801561233c575b61232b575b60408801511515801561231e575b8015612312575b80156122f9575b6122dc575b61217b6017611d56565b610d476017611d6c565b9190565b1015611d76565b61219a6017611d56565b80156122cc575b612293575b506121be6121b76020830151151590565b6018611e68565b6121d56121ce6040830151151590565b6018611ea1565b6121f86121e360c083015190565b6121f061218560006116ee565b116018611edc565b0151151590565b6018611f16565b61221b6001612216886020611506565b611d19565b61222560006116ee565b8211612284575b612273575b61225b7f3642005bf8863e9721356ca0954aeab3e1ad262c3ab4a1407aa5afe2689d67489561146c565b9561226560405190565b94859485611f64565b0390a2565b61227f60016018611f4d565b612231565b61228e8287612399565b61222c565b61229e906017611e30565b8051600090156122bb57506122b58a5b6018611475565b386121a6565b6122c76122b5916112bc565b6122ae565b506122d76017611d6c565b6121a1565b6122e860016017611d36565b6122f460016017611d19565b612171565b5060c088015161230c61218560006116ee565b1161216c565b50878901511515612165565b506060880151151561215e565b61233760016017611d19565b612150565b5060e088015161234f61218560006116ee565b1161214b565b5060208801511515612144565b5060a088015161237561218560006116ee565b1161213d565b506123943361238e6112ee6104e8611295565b14611a17565b612021565b91906123a560006112bc565b9273ffffffffffffffffffffffffffffffffffffffff841673ffffffffffffffffffffffffffffffffffffffff8216146123e3576104029293612a18565b6113678461161760405190565b6104be66b1a2bc2ec500006116ee565b6104be68015af1d78b58c400006116ee565b6104be662386f26fc100006116ee565b6104be66354a6ba7a180006116ee565b6104be66038d7ea4c680006116ee565b6104be671bc16d674ec800006116ee565b6104be6611c37937e080006116ee565b6104be670214e8348c4f00006116ee565b6104be680410d586a20a4c00006116ee565b6104be666a94d74f4300006116ee565b6104be669fdf42f6e480006116ee565b6104be660aa87bee5380006116ee565b6104be6753444835ec5800006116ee565b6104be670429d069189e00006116ee565b6104be680821ab0d44149800006116ee565b6104be66d529ae9e8600006116ee565b6104be67013fbe85edc900006116ee565b6104be661550f7dca700006116ee565b6104be67a688906bd8b000006116ee565b9115612612575061253d60016116ee565b81146126005761254d60896116ee565b81146126095761255d60386116ee565b81146126005761256e61a4b16116ee565b81146125ee5761257e600a6116ee565b81146125f75761258f6121056116ee565b81146125ee576125a162aa36a76116ee565b81146125e5576125b3620138816116ee565b81146125dc576125c661218560616116ee565b146125d4575b6104be6123f0565b6104be612486565b506104be61251b565b506104be61250b565b506104be6124ea565b506104be6124fa565b506104be6124c7565b506104be6124d8565b156126ed5761262160016116ee565b81146126db5761263160896116ee565b81146126e45761264160386116ee565b81146126db5761265261a4b16116ee565b81146126c957612662600a6116ee565b81146126d2576126736121056116ee565b81146126c95761268562aa36a76116ee565b81146126c057612697620138816116ee565b81146126b7576126aa61218560616116ee565b036125cc576104be612422565b506104be6124b6565b506104be6124a6565b506104be612486565b506104be612496565b506104be612463565b506104be612474565b6126f760016116ee565b81146127b15761270760896116ee565b81146127ba5761271760386116ee565b81146127b15761272861a4b16116ee565b811461279f57612738600a6116ee565b81146127a8576127496121056116ee565b811461279f5761275b62aa36a76116ee565b81146127965761276d620138816116ee565b811461278d5761278061218560616116ee565b036125cc576104be612453565b506104be612442565b506104be612432565b506104be612412565b506104be612422565b506104be6123f0565b506104be612400565b156127ca57565b60405162461bcd60e51b815260206004820152600f60248201527f546f6b656e2069732070617573656400000000000000000000000000000000006044820152606490fd5b1561281657565b60405162461bcd60e51b815260206004820152601060248201527f496e76616c6964207472616e73666572000000000000000000000000000000006044820152606490fd5b1561286257565b60405162461bcd60e51b815260206004820152601160248201527f4163636f756e742069732066726f7a656e0000000000000000000000000000006044820152606490fd5b156128ae57565b60405162461bcd60e51b815260206004820152601660248201527f4163636f756e7420697320626c61636b6c6973746564000000000000000000006044820152606490fd5b156128fa57565b60405162461bcd60e51b815260206004820152602e60248201527f5472616e7366657220616d6f756e742065786365656473206d6178207472616e60448201527f73616374696f6e20616d6f756e740000000000000000000000000000000000006064820152608490fd5b7f4e487b7100000000000000000000000000000000000000000000000000000000600052601160045260246000fd5b919082018092116129a157565b612965565b156129ad57565b60405162461bcd60e51b815260206004820152602760248201527f5472616e7366657220776f756c6420657863656564206d61782077616c6c657460448201527f20616d6f756e74000000000000000000000000000000000000000000000000006064820152608490fd5b906104029291612a31612a2c611ff2611985565b6127c3565b6000612a3c816112bc565b73ffffffffffffffffffffffffffffffffffffffff811673ffffffffffffffffffffffffffffffffffffffff8416141590818215612c29575b612a7e9061280f565b81612bf2575b50612a90575b50612c4c565b612ab9601d84612aab611ff2612aa68785611506565b611d56565b9182612bd9575b505061285b565b612add601e84612acf611ff2612aa68785611506565b9182612bc0575b50506128a7565b612ae760136114f2565b612af3612185836116ee565b1180612ba9575b80612b92575b612b75575b612b1b612185612b1560146114f2565b926116ee565b1180612b5e575b612b2d575b38612a8a565b612b59612b4284612b3d8561151e565b612994565b612b526121856104be60146114f2565b11156129a6565b612b27565b50612b70611ff2612aa6846020611506565b612b22565b612b8d612b856104be60136114f2565b8511156128f3565b612b05565b50612ba4611ff2612aa6856020611506565b612b00565b50612bbb611ff2612aa6846020611506565b612afa565b612bd29250611ff291612aa691611506565b8438612ad6565b612beb9250611ff291612aa691611506565b8438612ab2565b73ffffffffffffffffffffffffffffffffffffffff16905073ffffffffffffffffffffffffffffffffffffffff8416141538612a84565b5073ffffffffffffffffffffffffffffffffffffffff8581169082161415612a75565b816000612c58816112bc565b73ffffffffffffffffffffffffffffffffffffffff811673ffffffffffffffffffffffffffffffffffffffff851603612d2f57612ca7906104e8612ca088612b3d60026114f2565b60026116fb565b73ffffffffffffffffffffffffffffffffffffffff831603612d0a575050612cda612ca084612cd660026114f2565b0390565b6114e66117dd6117d77fddf252ad1be2c89b69c2b068fc378daa952ba7f163c4a11628f55a4df523b3ef9361146c565b612d2a91612d1791611506565b612d24856104a9836114f2565b906116fb565b612cda565b909150612d3f6115358484611506565b858110612d62578492916104e8612d5888612ca7940390565b6117998786611506565b8361136787612d7060405190565b9384937fe450d38c00000000000000000000000000000000000000000000000000000000855260048501611895565b80546000939291612dbc612db283611add565b8085529360200190565b9160018116908115612e0e5750600114612dd557505050565b612de89192939450600052602060002090565b916000925b818410612dfa5750500190565b805484840152602090930192600101612ded565b92949550505060ff1916825215156020020190565b906104be91612d9f565b90610402612e4792612e3e60405190565b93848092612e23565b03836105c1565b6104be90612e2d565b6104be6008612e4e565b6104be6009612e4e565b6104be6007611d56565b6104be600a612e4e565b6104be600b612e4e565b6104be600c612e4e565b6104be600d612e4e565b6104be600e612e4e565b6104be600f612e4e565b6104be6010612e4e565b6104be6011612e4e565b6104be6012612e4e565b6104be60136114f2565b6104be60146114f2565b6104be60156114f2565b6104be60166114f2565b9061040291612f046112df565b612f55565b15612f1057565b60405162461bcd60e51b815260206004820152601660248201527f4d696e7420617574686f726974792072656d6f766564000000000000000000006044820152606490fd5b9061040291612f6f612f6a611ff2601861197b565b612f09565b612399565b9061040291612ef7565b612f866112df565b610402612fda565b15612f9557565b60405162461bcd60e51b815260206004820152601e60248201527f4d696e7420617574686f7269747920616c72656164792072656d6f76656400006044820152606490fd5b612fef612fea611ff2601861197b565b612f8e565b61040260016018611f4d565b610402612f7e565b1561300a57565b60405162461bcd60e51b8152602060048201526024808201527f467265657a696e67206e6f7420617661696c61626c6520696e2062617369632060448201527f706c616e000000000000000000000000000000000000000000000000000000006064820152608490fd5b6104be9060181c6104e8565b6104be9054613074565b1561309157565b60405162461bcd60e51b815260206004820152601660248201527f4e6f7420667265657a696e6720617574686f72697479000000000000000000006044820152606490fd5b906104be92916130e66017611d56565b8015613115575b6130f690613003565b6131103361310a6112ee6104e86017613080565b1461308a565b613176565b506130f66131236017611d6c565b90506130ed565b1561313157565b60405162461bcd60e51b815260206004820152601a60248201527f43616e6e6f7420667265657a65207a65726f20616464726573730000000000006044820152606490fd5b506131a56131876104e860006112bc565b73ffffffffffffffffffffffffffffffffffffffff8316141561312a565b6131b48261221683601d611506565b6131eb6131e17ff022c1fbc00daf4d2e6cdc62e0338b967bd3be38ccc3d7f8e0168bd668c7bcfe9261146c565b9261058360405190565b0390a2600190565b6104be919060006130d6565b612aa66104be9161320e600090565b50601d611506565b610402906132226112df565b613273565b1561322e57565b60405162461bcd60e51b815260206004820152601560248201527f506c616e207570677261646520726571756972656400000000000000000000006044820152606490fd5b610402906132816017611d56565b8015613298575b61329190613227565b6017611e30565b506132916132a66017611d6c565b9050613288565b61040290613216565b156132bd57565b60405162461bcd60e51b815260206004820152602560248201527f426c61636b6c697374206e6f7420617661696c61626c6520696e20626173696360448201527f20706c616e0000000000000000000000000000000000000000000000000000006064820152608490fd5b1561332f57565b60405162461bcd60e51b815260206004820152601760248201527f4e6f7420626c61636b6c69737420617574686f726974790000000000000000006044820152606490fd5b906104be92916133846017611d56565b80156133b3575b613394906132b6565b6133ae336133a86112ee6104e8601861128b565b14613328565b613414565b506133946133c16017611d6c565b905061338b565b156133cf57565b60405162461bcd60e51b815260206004820152601d60248201527f43616e6e6f7420626c61636b6c697374207a65726f20616464726573730000006044820152606490fd5b506134436134256104e860006112bc565b73ffffffffffffffffffffffffffffffffffffffff831614156133c8565b6134528261221683601e611506565b6131eb6131e17ff7e58a63a036e3a7ef7921f83b6ae47930cf5c293dd3bfe7a857c6863409046d9261146c565b6104be91906000613374565b612aa66104be9161349a600090565b50601e611506565b610402906134ae6112df565b610402906134bc6017611d56565b80156134cc575b6122ae90613227565b506122ae6134da6017611d6c565b90506134c3565b610402906134a2565b610402906134f66112df565b610402906135046017611d56565b8015613514575b6120ce90613227565b506120ce6135226017611d6c565b905061350b565b610402906134ea565b6104029061353e6112df565b61358f565b1561354a57565b60405162461bcd60e51b815260206004820152601860248201527f456e746572707269736520706c616e20726571756972656400000000000000006044820152606490fd5b610402906135a56135a06017611d6c565b613543565b6135b08160146116fb565b6135c36135bd60006116ee565b826121f0565b6135f17f12528a3c61e0f3b2d6fc707a9fc58b1af86e252cad0d7f4c154ebeabb162dace9161042360405190565b0390a1565b61040290613532565b6104029061360b6112df565b6136156017611d56565b801561365e575b61362590613227565b6136308160156116fb565b6135f17f583d8b24c5439ab7d810e51e37e8db41ba66f1168fd7b752ceae0c7681c5272c9161042360405190565b5061362561366c6017611d6c565b905061361c565b610402906135ff565b90610402916136896112df565b90612216610402926020611506565b906104029161367c565b612aa66104be916136b1600090565b506020611506565b6136c16112df565b6104026136d16135a06017611d6c565b61040261040261372a565b6104026136b9565b6136ec613732565b6104026136fb60016005611f4d565b336135f17f62e78cea01bee320cd4e420270b5ea74000d11b0c9f74754ebdbfc544b05a25891610e4260405190565b6104026136e4565b61373a611985565b61374057565b6040517fd93c0665000000000000000000000000000000000000000000000000000000008152600490fd5b6137736112df565b6104026137836135a06017611d6c565b6104026104026137dc565b61040261376b565b61379e6137e4565b6104026137ad60006005611f4d565b336135f17f5db9ee0a495bf2e6ff9c91a7834c1ba4fdd244a5e8aa4e537bd38aeae4b073aa91610e4260405190565b610402613796565b6137ef611ff2611985565b6137f557565b6040517f8dfc202b000000000000000000000000000000000000000000000000000000008152600490fd5b906104029161382d6112df565b906104029161383f6135a06017611d6c565b6138e2565b1561384b57565b60405162461bcd60e51b815260206004820152600f60248201527f44656c617920746f6f2073686f727400000000000000000000000000000000006044820152606490fd5b90611510565b1561389d57565b60405162461bcd60e51b815260206004820152601860248201527f416374696f6e20616c7265616479207363686564756c656400000000000000006044820152606490fd5b9061393d906138ff6138f76104be60166114f2565b821015613844565b60216139246139116115358684613890565b61391e61218560006116ee565b14613896565b612b3d4291611799866139378686612994565b92613890565b9061226e6139697f6b2185564015ad9f2aa720f7fba5cb208447d7d07cac8fad38fa0709eedb86019290565b9261042360405190565b9061040291613820565b610402906139896112df565b6104029061399a6135a06017611d6c565b613a37565b156139a657565b60405162461bcd60e51b815260206004820152601460248201527f416374696f6e206e6f74207363686564756c65640000000000000000000000006044820152606490fd5b156139f257565b60405162461bcd60e51b815260206004820152601160248201527f44656c6179206e6f7420656c61707365640000000000000000000000000000006044820152606490fd5b613a8e6021613a8983613a4d6115358285613890565b92613a66600094613a60612185876116ee565b1161399f565b613a8442613a7d6121856104be6115358787613890565b10156139eb565b613890565b611b58565b7fd41e77ef19d1471d6752564e522f060aa3dfe28c928162c6d39776b151994a1f613ab860405190565b808061226e565b6104029061397d565b6115356104be91613ad7600090565b506021613890565b906104029291613aed6112df565b613b3e565b15613af957565b60405162461bcd60e51b815260206004820152601160248201527f496e76616c6964206164647265737365730000000000000000000000000000006044820152606490fd5b906104029291611545613b5160006112bc565b73ffffffffffffffffffffffffffffffffffffffff811673ffffffffffffffffffffffffffffffffffffffff841614159081613b8e575b50613af2565b73ffffffffffffffffffffffffffffffffffffffff16905073ffffffffffffffffffffffffffffffffffffffff8416141538613b88565b906104029291613adf565b6104be9060a81c610a17565b6104be9054613bd0565b6104be9060b01c610a17565b6104be9054613be6565b6104be9060b81c610a17565b6104be9054613bfc565b6104be9060c01c610a17565b6104be9054613c12565b613c326017611d56565b90613c3d6017611d6c565b91613c486018613bdc565b91613c536018613bf2565b91613c5e6018613c08565b91613c696018613c1e565b91613c7460136114f2565b91613c7f60146114f2565b91613c8a60156114f2565b91613c9560166114f2565b919998979695949392919056fea264697066735822122036230de2770e2227a71abc318372edcecab23a1797bc195fad21e67534dc746664736f6c63430008140033",
  "linkReferences": {},
  "deployedLinkReferences": {}
}