{
  "_format": "hh-sol-artifact-1",
  "contractName": "BoingGovernorSimple",
  "sourceName": "contracts/BoingGovernorSimple.sol",
  "abi": [
    {
      "inputs": [
        {
          "internalType": "contract IVotes",
          "name": "_token",
          "type": "address"
        }
      ],
      "stateMutability": "nonpayable",
      "type": "constructor"
    },
    {
      "inputs": [],
      "name": "CheckpointUnorderedInsertion",
      "type": "error"
    },
    {
      "inputs": [],
      "name": "FailedCall",
      "type": "error"
    },
    {
      "inputs": [
        {
          "internalType": "address",
          "name": "voter",
          "type": "address"
        }
      ],
      "name": "GovernorAlreadyCastVote",
      "type": "error"
    },
    {
      "inputs": [
        {
          "internalType": "uint256",
          "name": "proposalId",
          "type": "uint256"
        }
      ],
      "name": "GovernorAlreadyQueuedProposal",
      "type": "error"
    },
    {
      "inputs": [],
      "name": "GovernorDisabledDeposit",
      "type": "error"
    },
    {
      "inputs": [
        {
          "internalType": "address",
          "name": "proposer",
          "type": "address"
        },
        {
          "internalType": "uint256",
          "name": "votes",
          "type": "uint256"
        },
        {
          "internalType": "uint256",
          "name": "threshold",
          "type": "uint256"
        }
      ],
      "name": "GovernorInsufficientProposerVotes",
      "type": "error"
    },
    {
      "inputs": [
        {
          "internalType": "uint256",
          "name": "targets",
          "type": "uint256"
        },
        {
          "internalType": "uint256",
          "name": "calldatas",
          "type": "uint256"
        },
        {
          "internalType": "uint256",
          "name": "values",
          "type": "uint256"
        }
      ],
      "name": "GovernorInvalidProposalLength",
      "type": "error"
    },
    {
      "inputs": [
        {
          "internalType": "uint256",
          "name": "quorumNumerator",
          "type": "uint256"
        },
        {
          "internalType": "uint256",
          "name": "quorumDenominator",
          "type": "uint256"
        }
      ],
      "name": "GovernorInvalidQuorumFraction",
      "type": "error"
    },
    {
      "inputs": [
        {
          "internalType": "address",
          "name": "voter",
          "type": "address"
        }
      ],
      "name": "GovernorInvalidSignature",
      "type": "error"
    },
    {
      "inputs": [],
      "name": "GovernorInvalidVoteParams",
      "type": "error"
    },
    {
      "inputs": [],
      "name": "GovernorInvalidVoteType",
      "type": "error"
    },
    {
      "inputs": [
        {
          "internalType": "uint256",
          "name": "votingPeriod",
          "type": "uint256"
        }
      ],
      "name": "GovernorInvalidVotingPeriod",
      "type": "error"
    },
    {
      "inputs": [
        {
          "internalType": "uint256",
          "name": "proposalId",
          "type": "uint256"
        }
      ],
      "name": "GovernorNonexistentProposal",
      "type": "error"
    },
    {
      "inputs": [
        {
          "internalType": "uint256",
          "name": "proposalId",
          "type": "uint256"
        }
      ],
      "name": "GovernorNotQueuedProposal",
      "type": "error"
    },
    {
      "inputs": [
        {
          "internalType": "address",
          "name": "account",
          "type": "address"
        }
      ],
      "name": "GovernorOnlyExecutor",
      "type": "error"
    },
    {
      "inputs": [],
      "name": "GovernorQueueNotImplemented",
      "type": "error"
    },
    {
      "inputs": [
        {
          "internalType": "address",
          "name": "proposer",
          "type": "address"
        }
      ],
      "name": "GovernorRestrictedProposer",
      "type": "error"
    },
    {
      "inputs": [
        {
          "internalType": "uint256",
          "name": "proposalId",
          "type": "uint256"
        },
        {
          "internalType": "address",
          "name": "account",
          "type": "address"
        }
      ],
      "name": "GovernorUnableToCancel",
      "type": "error"
    },
    {
      "inputs": [
        {
          "internalType": "uint256",
          "name": "proposalId",
          "type": "uint256"
        },
        {
          "internalType": "enum IGovernor.ProposalState",
          "name": "current",
          "type": "uint8"
        },
        {
          "internalType": "bytes32",
          "name": "expectedStates",
          "type": "bytes32"
        }
      ],
      "name": "GovernorUnexpectedProposalState",
      "type": "error"
    },
    {
      "inputs": [
        {
          "internalType": "address",
          "name": "account",
          "type": "address"
        },
        {
          "internalType": "uint256",
          "name": "currentNonce",
          "type": "uint256"
        }
      ],
      "name": "InvalidAccountNonce",
      "type": "error"
    },
    {
      "inputs": [],
      "name": "InvalidShortString",
      "type": "error"
    },
    {
      "inputs": [
        {
          "internalType": "uint8",
          "name": "bits",
          "type": "uint8"
        },
        {
          "internalType": "uint256",
          "name": "value",
          "type": "uint256"
        }
      ],
      "name": "SafeCastOverflowedUintDowncast",
      "type": "error"
    },
    {
      "inputs": [
        {
          "internalType": "string",
          "name": "str",
          "type": "string"
        }
      ],
      "name": "StringTooLong",
      "type": "error"
    },
    {
      "anonymous": false,
      "inputs": [],
      "name": "EIP712DomainChanged",
      "type": "event"
    },
    {
      "anonymous": false,
      "inputs": [
        {
          "indexed": false,
          "internalType": "uint256",
          "name": "proposalId",
          "type": "uint256"
        }
      ],
      "name": "ProposalCanceled",
      "type": "event"
    },
    {
      "anonymous": false,
      "inputs": [
        {
          "indexed": false,
          "internalType": "uint256",
          "name": "proposalId",
          "type": "uint256"
        },
        {
          "indexed": false,
          "internalType": "address",
          "name": "proposer",
          "type": "address"
        },
        {
          "indexed": false,
          "internalType": "address[]",
          "name": "targets",
          "type": "address[]"
        },
        {
          "indexed": false,
          "internalType": "uint256[]",
          "name": "values",
          "type": "uint256[]"
        },
        {
          "indexed": false,
          "internalType": "string[]",
          "name": "signatures",
          "type": "string[]"
        },
        {
          "indexed": false,
          "internalType": "bytes[]",
          "name": "calldatas",
          "type": "bytes[]"
        },
        {
          "indexed": false,
          "internalType": "uint256",
          "name": "voteStart",
          "type": "uint256"
        },
        {
          "indexed": false,
          "internalType": "uint256",
          "name": "voteEnd",
          "type": "uint256"
        },
        {
          "indexed": false,
          "internalType": "string",
          "name": "description",
          "type": "string"
        }
      ],
      "name": "ProposalCreated",
      "type": "event"
    },
    {
      "anonymous": false,
      "inputs": [
        {
          "indexed": false,
          "internalType": "uint256",
          "name": "proposalId",
          "type": "uint256"
        }
      ],
      "name": "ProposalExecuted",
      "type": "event"
    },
    {
      "anonymous": false,
      "inputs": [
        {
          "indexed": false,
          "internalType": "uint256",
          "name": "proposalId",
          "type": "uint256"
        },
        {
          "indexed": false,
          "internalType": "uint256",
          "name": "etaSeconds",
          "type": "uint256"
        }
      ],
      "name": "ProposalQueued",
      "type": "event"
    },
    {
      "anonymous": false,
      "inputs": [
        {
          "indexed": false,
          "internalType": "uint256",
          "name": "oldQuorumNumerator",
          "type": "uint256"
        },
        {
          "indexed": false,
          "internalType": "uint256",
          "name": "newQuorumNumerator",
          "type": "uint256"
        }
      ],
      "name": "QuorumNumeratorUpdated",
      "type": "event"
    },
    {
      "anonymous": false,
      "inputs": [
        {
          "indexed": true,
          "internalType": "address",
          "name": "voter",
          "type": "address"
        },
        {
          "indexed": false,
          "internalType": "uint256",
          "name": "proposalId",
          "type": "uint256"
        },
        {
          "indexed": false,
          "internalType": "uint8",
          "name": "support",
          "type": "uint8"
        },
        {
          "indexed": false,
          "internalType": "uint256",
          "name": "weight",
          "type": "uint256"
        },
        {
          "indexed": false,
          "internalType": "string",
          "name": "reason",
          "type": "string"
        }
      ],
      "name": "VoteCast",
      "type": "event"
    },
    {
      "anonymous": false,
      "inputs": [
        {
          "indexed": true,
          "internalType": "address",
          "name": "voter",
          "type": "address"
        },
        {
          "indexed": false,
          "internalType": "uint256",
          "name": "proposalId",
          "type": "uint256"
        },
        {
          "indexed": false,
          "internalType": "uint8",
          "name": "support",
          "type": "uint8"
        },
        {
          "indexed": false,
          "internalType": "uint256",
          "name": "weight",
          "type": "uint256"
        },
        {
          "indexed": false,
          "internalType": "string",
          "name": "reason",
          "type": "string"
        },
        {
          "indexed": false,
          "internalType": "bytes",
          "name": "params",
          "type": "bytes"
        }
      ],
      "name": "VoteCastWithParams",
      "type": "event"
    },
    {
      "inputs": [],
      "name": "BALLOT_TYPEHASH",
      "outputs": [
        {
          "internalType": "bytes32",
          "name": "",
          "type": "bytes32"
        }
      ],
      "stateMutability": "view",
      "type": "function"
    },
    {
      "inputs": [],
      "name": "CLOCK_MODE",
      "outputs": [
        {
          "internalType": "string",
          "name": "",
          "type": "string"
        }
      ],
      "stateMutability": "view",
      "type": "function"
    },
    {
      "inputs": [],
      "name": "COUNTING_MODE",
      "outputs": [
        {
          "internalType": "string",
          "name": "",
          "type": "string"
        }
      ],
      "stateMutability": "pure",
      "type": "function"
    },
    {
      "inputs": [],
      "name": "EXTENDED_BALLOT_TYPEHASH",
      "outputs": [
        {
          "internalType": "bytes32",
          "name": "",
          "type": "bytes32"
        }
      ],
      "stateMutability": "view",
      "type": "function"
    },
    {
      "inputs": [
        {
          "internalType": "address[]",
          "name": "targets",
          "type": "address[]"
        },
        {
          "internalType": "uint256[]",
          "name": "values",
          "type": "uint256[]"
        },
        {
          "internalType": "bytes[]",
          "name": "calldatas",
          "type": "bytes[]"
        },
        {
          "internalType": "bytes32",
          "name": "descriptionHash",
          "type": "bytes32"
        }
      ],
      "name": "cancel",
      "outputs": [
        {
          "internalType": "uint256",
          "name": "",
          "type": "uint256"
        }
      ],
      "stateMutability": "nonpayable",
      "type": "function"
    },
    {
      "inputs": [
        {
          "internalType": "uint256",
          "name": "proposalId",
          "type": "uint256"
        },
        {
          "internalType": "uint8",
          "name": "support",
          "type": "uint8"
        }
      ],
      "name": "castVote",
      "outputs": [
        {
          "internalType": "uint256",
          "name": "",
          "type": "uint256"
        }
      ],
      "stateMutability": "nonpayable",
      "type": "function"
    },
    {
      "inputs": [
        {
          "internalType": "uint256",
          "name": "proposalId",
          "type": "uint256"
        },
        {
          "internalType": "uint8",
          "name": "support",
          "type": "uint8"
        },
        {
          "internalType": "address",
          "name": "voter",
          "type": "address"
        },
        {
          "internalType": "bytes",
          "name": "signature",
          "type": "bytes"
        }
      ],
      "name": "castVoteBySig",
      "outputs": [
        {
          "internalType": "uint256",
          "name": "",
          "type": "uint256"
        }
      ],
      "stateMutability": "nonpayable",
      "type": "function"
    },
    {
      "inputs": [
        {
          "internalType": "uint256",
          "name": "proposalId",
          "type": "uint256"
        },
        {
          "internalType": "uint8",
          "name": "support",
          "type": "uint8"
        },
        {
          "internalType": "string",
          "name": "reason",
          "type": "string"
        }
      ],
      "name": "castVoteWithReason",
      "outputs": [
        {
          "internalType": "uint256",
          "name": "",
          "type": "uint256"
        }
      ],
      "stateMutability": "nonpayable",
      "type": "function"
    },
    {
      "inputs": [
        {
          "internalType": "uint256",
          "name": "proposalId",
          "type": "uint256"
        },
        {
          "internalType": "uint8",
          "name": "support",
          "type": "uint8"
        },
        {
          "internalType": "string",
          "name": "reason",
          "type": "string"
        },
        {
          "internalType": "bytes",
          "name": "params",
          "type": "bytes"
        }
      ],
      "name": "castVoteWithReasonAndParams",
      "outputs": [
        {
          "internalType": "uint256",
          "name": "",
          "type": "uint256"
        }
      ],
      "stateMutability": "nonpayable",
      "type": "function"
    },
    {
      "inputs": [
        {
          "internalType": "uint256",
          "name": "proposalId",
          "type": "uint256"
        },
        {
          "internalType": "uint8",
          "name": "support",
          "type": "uint8"
        },
        {
          "internalType": "address",
          "name": "voter",
          "type": "address"
        },
        {
          "internalType": "string",
          "name": "reason",
          "type": "string"
        },
        {
          "internalType": "bytes",
          "name": "params",
          "type": "bytes"
        },
        {
          "internalType": "bytes",
          "name": "signature",
          "type": "bytes"
        }
      ],
      "name": "castVoteWithReasonAndParamsBySig",
      "outputs": [
        {
          "internalType": "uint256",
          "name": "",
          "type": "uint256"
        }
      ],
      "stateMutability": "nonpayable",
      "type": "function"
    },
    {
      "inputs": [],
      "name": "clock",
      "outputs": [
        {
          "internalType": "uint48",
          "name": "",
          "type": "uint48"
        }
      ],
      "stateMutability": "view",
      "type": "function"
    },
    {
      "inputs": [],
      "name": "eip712Domain",
      "outputs": [
        {
          "internalType": "bytes1",
          "name": "fields",
          "type": "bytes1"
        },
        {
          "internalType": "string",
          "name": "name",
          "type": "string"
        },
        {
          "internalType": "string",
          "name": "version",
          "type": "string"
        },
        {
          "internalType": "uint256",
          "name": "chainId",
          "type": "uint256"
        },
        {
          "internalType": "address",
          "name": "verifyingContract",
          "type": "address"
        },
        {
          "internalType": "bytes32",
          "name": "salt",
          "type": "bytes32"
        },
        {
          "internalType": "uint256[]",
          "name": "extensions",
          "type": "uint256[]"
        }
      ],
      "stateMutability": "view",
      "type": "function"
    },
    {
      "inputs": [
        {
          "internalType": "address[]",
          "name": "targets",
          "type": "address[]"
        },
        {
          "internalType": "uint256[]",
          "name": "values",
          "type": "uint256[]"
        },
        {
          "internalType": "bytes[]",
          "name": "calldatas",
          "type": "bytes[]"
        },
        {
          "internalType": "bytes32",
          "name": "descriptionHash",
          "type": "bytes32"
        }
      ],
      "name": "execute",
      "outputs": [
        {
          "internalType": "uint256",
          "name": "",
          "type": "uint256"
        }
      ],
      "stateMutability": "payable",
      "type": "function"
    },
    {
      "inputs": [
        {
          "internalType": "address[]",
          "name": "targets",
          "type": "address[]"
        },
        {
          "internalType": "uint256[]",
          "name": "values",
          "type": "uint256[]"
        },
        {
          "internalType": "bytes[]",
          "name": "calldatas",
          "type": "bytes[]"
        },
        {
          "internalType": "bytes32",
          "name": "descriptionHash",
          "type": "bytes32"
        }
      ],
      "name": "getProposalId",
      "outputs": [
        {
          "internalType": "uint256",
          "name": "",
          "type": "uint256"
        }
      ],
      "stateMutability": "view",
      "type": "function"
    },
    {
      "inputs": [
        {
          "internalType": "address",
          "name": "account",
          "type": "address"
        },
        {
          "internalType": "uint256",
          "name": "timepoint",
          "type": "uint256"
        }
      ],
      "name": "getVotes",
      "outputs": [
        {
          "internalType": "uint256",
          "name": "",
          "type": "uint256"
        }
      ],
      "stateMutability": "view",
      "type": "function"
    },
    {
      "inputs": [
        {
          "internalType": "address",
          "name": "account",
          "type": "address"
        },
        {
          "internalType": "uint256",
          "name": "timepoint",
          "type": "uint256"
        },
        {
          "internalType": "bytes",
          "name": "params",
          "type": "bytes"
        }
      ],
      "name": "getVotesWithParams",
      "outputs": [
        {
          "internalType": "uint256",
          "name": "",
          "type": "uint256"
        }
      ],
      "stateMutability": "view",
      "type": "function"
    },
    {
      "inputs": [
        {
          "internalType": "uint256",
          "name": "proposalId",
          "type": "uint256"
        },
        {
          "internalType": "address",
          "name": "account",
          "type": "address"
        }
      ],
      "name": "hasVoted",
      "outputs": [
        {
          "internalType": "bool",
          "name": "",
          "type": "bool"
        }
      ],
      "stateMutability": "view",
      "type": "function"
    },
    {
      "inputs": [
        {
          "internalType": "address[]",
          "name": "targets",
          "type": "address[]"
        },
        {
          "internalType": "uint256[]",
          "name": "values",
          "type": "uint256[]"
        },
        {
          "internalType": "bytes[]",
          "name": "calldatas",
          "type": "bytes[]"
        },
        {
          "internalType": "bytes32",
          "name": "descriptionHash",
          "type": "bytes32"
        }
      ],
      "name": "hashProposal",
      "outputs": [
        {
          "internalType": "uint256",
          "name": "",
          "type": "uint256"
        }
      ],
      "stateMutability": "pure",
      "type": "function"
    },
    {
      "inputs": [],
      "name": "name",
      "outputs": [
        {
          "internalType": "string",
          "name": "",
          "type": "string"
        }
      ],
      "stateMutability": "view",
      "type": "function"
    },
    {
      "inputs": [
        {
          "internalType": "address",
          "name": "owner",
          "type": "address"
        }
      ],
      "name": "nonces",
      "outputs": [
        {
          "internalType": "uint256",
          "name": "",
          "type": "uint256"
        }
      ],
      "stateMutability": "view",
      "type": "function"
    },
    {
      "inputs": [
        {
          "internalType": "address",
          "name": "",
          "type": "address"
        },
        {
          "internalType": "address",
          "name": "",
          "type": "address"
        },
        {
          "internalType": "uint256[]",
          "name": "",
          "type": "uint256[]"
        },
        {
          "internalType": "uint256[]",
          "name": "",
          "type": "uint256[]"
        },
        {
          "internalType": "bytes",
          "name": "",
          "type": "bytes"
        }
      ],
      "name": "onERC1155BatchReceived",
      "outputs": [
        {
          "internalType": "bytes4",
          "name": "",
          "type": "bytes4"
        }
      ],
      "stateMutability": "nonpayable",
      "type": "function"
    },
    {
      "inputs": [
        {
          "internalType": "address",
          "name": "",
          "type": "address"
        },
        {
          "internalType": "address",
          "name": "",
          "type": "address"
        },
        {
          "internalType": "uint256",
          "name": "",
          "type": "uint256"
        },
        {
          "internalType": "uint256",
          "name": "",
          "type": "uint256"
        },
        {
          "internalType": "bytes",
          "name": "",
          "type": "bytes"
        }
      ],
      "name": "onERC1155Received",
      "outputs": [
        {
          "internalType": "bytes4",
          "name": "",
          "type": "bytes4"
        }
      ],
      "stateMutability": "nonpayable",
      "type": "function"
    },
    {
      "inputs": [
        {
          "internalType": "address",
          "name": "",
          "type": "address"
        },
        {
          "internalType": "address",
          "name": "",
          "type": "address"
        },
        {
          "internalType": "uint256",
          "name": "",
          "type": "uint256"
        },
        {
          "internalType": "bytes",
          "name": "",
          "type": "bytes"
        }
      ],
      "name": "onERC721Received",
      "outputs": [
        {
          "internalType": "bytes4",
          "name": "",
          "type": "bytes4"
        }
      ],
      "stateMutability": "nonpayable",
      "type": "function"
    },
    {
      "inputs": [
        {
          "internalType": "uint256",
          "name": "proposalId",
          "type": "uint256"
        }
      ],
      "name": "proposalDeadline",
      "outputs": [
        {
          "internalType": "uint256",
          "name": "",
          "type": "uint256"
        }
      ],
      "stateMutability": "view",
      "type": "function"
    },
    {
      "inputs": [
        {
          "internalType": "uint256",
          "name": "proposalId",
          "type": "uint256"
        }
      ],
      "name": "proposalEta",
      "outputs": [
        {
          "internalType": "uint256",
          "name": "",
          "type": "uint256"
        }
      ],
      "stateMutability": "view",
      "type": "function"
    },
    {
      "inputs": [
        {
          "internalType": "uint256",
          "name": "",
          "type": "uint256"
        }
      ],
      "name": "proposalNeedsQueuing",
      "outputs": [
        {
          "internalType": "bool",
          "name": "",
          "type": "bool"
        }
      ],
      "stateMutability": "view",
      "type": "function"
    },
    {
      "inputs": [
        {
          "internalType": "uint256",
          "name": "proposalId",
          "type": "uint256"
        }
      ],
      "name": "proposalProposer",
      "outputs": [
        {
          "internalType": "address",
          "name": "",
          "type": "address"
        }
      ],
      "stateMutability": "view",
      "type": "function"
    },
    {
      "inputs": [
        {
          "internalType": "uint256",
          "name": "proposalId",
          "type": "uint256"
        }
      ],
      "name": "proposalSnapshot",
      "outputs": [
        {
          "internalType": "uint256",
          "name": "",
          "type": "uint256"
        }
      ],
      "stateMutability": "view",
      "type": "function"
    },
    {
      "inputs": [],
      "name": "proposalThreshold",
      "outputs": [
        {
          "internalType": "uint256",
          "name": "",
          "type": "uint256"
        }
      ],
      "stateMutability": "pure",
      "type": "function"
    },
    {
      "inputs": [
        {
          "internalType": "uint256",
          "name": "proposalId",
          "type": "uint256"
        }
      ],
      "name": "proposalVotes",
      "outputs": [
        {
          "internalType": "uint256",
          "name": "againstVotes",
          "type": "uint256"
        },
        {
          "internalType": "uint256",
          "name": "forVotes",
          "type": "uint256"
        },
        {
          "internalType": "uint256",
          "name": "abstainVotes",
          "type": "uint256"
        }
      ],
      "stateMutability": "view",
      "type": "function"
    },
    {
      "inputs": [
        {
          "internalType": "address[]",
          "name": "targets",
          "type": "address[]"
        },
        {
          "internalType": "uint256[]",
          "name": "values",
          "type": "uint256[]"
        },
        {
          "internalType": "bytes[]",
          "name": "calldatas",
          "type": "bytes[]"
        },
        {
          "internalType": "string",
          "name": "description",
          "type": "string"
        }
      ],
      "name": "propose",
      "outputs": [
        {
          "internalType": "uint256",
          "name": "",
          "type": "uint256"
        }
      ],
      "stateMutability": "nonpayable",
      "type": "function"
    },
    {
      "inputs": [
        {
          "internalType": "address[]",
          "name": "targets",
          "type": "address[]"
        },
        {
          "internalType": "uint256[]",
          "name": "values",
          "type": "uint256[]"
        },
        {
          "internalType": "bytes[]",
          "name": "calldatas",
          "type": "bytes[]"
        },
        {
          "internalType": "bytes32",
          "name": "descriptionHash",
          "type": "bytes32"
        }
      ],
      "name": "queue",
      "outputs": [
        {
          "internalType": "uint256",
          "name": "",
          "type": "uint256"
        }
      ],
      "stateMutability": "nonpayable",
      "type": "function"
    },
    {
      "inputs": [
        {
          "internalType": "uint256",
          "name": "timepoint",
          "type": "uint256"
        }
      ],
      "name": "quorum",
      "outputs": [
        {
          "internalType": "uint256",
          "name": "",
          "type": "uint256"
        }
      ],
      "stateMutability": "view",
      "type": "function"
    },
    {
      "inputs": [],
      "name": "quorumDenominator",
      "outputs": [
        {
          "internalType": "uint256",
          "name": "",
          "type": "uint256"
        }
      ],
      "stateMutability": "view",
      "type": "function"
    },
    {
      "inputs": [
        {
          "internalType": "uint256",
          "name": "timepoint",
          "type": "uint256"
        }
      ],
      "name": "quorumNumerator",
      "outputs": [
        {
          "internalType": "uint256",
          "name": "",
          "type": "uint256"
        }
      ],
      "stateMutability": "view",
      "type": "function"
    },
    {
      "inputs": [],
      "name": "quorumNumerator",
      "outputs": [
        {
          "internalType": "uint256",
          "name": "",
          "type": "uint256"
        }
      ],
      "stateMutability": "view",
      "type": "function"
    },
    {
      "inputs": [
        {
          "internalType": "address",
          "name": "target",
          "type": "address"
        },
        {
          "internalType": "uint256",
          "name": "value",
          "type": "uint256"
        },
        {
          "internalType": "bytes",
          "name": "data",
          "type": "bytes"
        }
      ],
      "name": "relay",
      "outputs": [],
      "stateMutability": "payable",
      "type": "function"
    },
    {
      "inputs": [
        {
          "internalType": "uint256",
          "name": "proposalId",
          "type": "uint256"
        }
      ],
      "name": "state",
      "outputs": [
        {
          "internalType": "enum IGovernor.ProposalState",
          "name": "",
          "type": "uint8"
        }
      ],
      "stateMutability": "view",
      "type": "function"
    },
    {
      "inputs": [
        {
          "internalType": "bytes4",
          "name": "interfaceId",
          "type": "bytes4"
        }
      ],
      "name": "supportsInterface",
      "outputs": [
        {
          "internalType": "bool",
          "name": "",
          "type": "bool"
        }
      ],
      "stateMutability": "view",
      "type": "function"
    },
    {
      "inputs": [],
      "name": "token",
      "outputs": [
        {
          "internalType": "contract IERC5805",
          "name": "",
          "type": "address"
        }
      ],
      "stateMutability": "view",
      "type": "function"
    },
    {
      "inputs": [
        {
          "internalType": "uint256",
          "name": "newQuorumNumerator",
          "type": "uint256"
        }
      ],
      "name": "updateQuorumNumerator",
      "outputs": [],
      "stateMutability": "nonpayable",
      "type": "function"
    },
    {
      "inputs": [],
      "name": "version",
      "outputs": [
        {
          "internalType": "string",
          "name": "",
          "type": "string"
        }
      ],
      "stateMutability": "view",
      "type": "function"
    },
    {
      "inputs": [],
      "name": "votingDelay",
      "outputs": [
        {
          "internalType": "uint256",
          "name": "",
          "type": "uint256"
        }
      ],
      "stateMutability": "pure",
      "type": "function"
    },
    {
      "inputs": [],
      "name": "votingPeriod",
      "outputs": [
        {
          "internalType": "uint256",
          "name": "",
          "type": "uint256"
        }
      ],
      "stateMutability": "pure",
      "type": "function"
    },
    {
      "stateMutability": "payable",
      "type": "receive"
    }
  ],
  "bytecode": "0x6101806040523462000099576200001f620000196200013d565b620001dc565b604051614fab62000de7823960805181613bf0015260a05181613c1d015260c05181613bbd015260e05181613c9b01526101005181613c7701526101205181613db801526101405181613f4301526101605181818161130b01528181613251015281816133950152818161346b01526135590152614fab90f35b600080fd5b634e487b7160e01b600052604160045260246000fd5b90601f01601f191681019081106001600160401b03821117620000d657604052565b6200009e565b90620000f3620000eb60405190565b9283620000b4565b565b6001600160a01b031690565b90565b6001600160a01b0381165b036200009957565b90505190620000f38262000104565b906020828203126200009957620001019162000117565b6200010162005d92803803806200015481620000dc565b92833981019062000126565b6200010162000101620001019290565b6001600160401b038111620000d657602090601f01601f19160190565b0190565b90620001a7620001a18362000170565b620000dc565b918252565b620001b8600e62000191565b6d2137b4b7339023b7bb32b93737b960911b602082015290565b62000101620001ac565b620000f390620001ed600462000160565b90620001f8620001d2565b9190620000f3926200020a916200023c565b62000563565b6200010190620000f5906001600160a01b031682565b620001019062000210565b620001019062000226565b62000250906200025062000256936200025c565b62000231565b61016052565b620000f3906200046e565b634e487b7160e01b600052600060045260246000fd5b634e487b7160e01b600052602260045260246000fd5b9060016002830492168015620002b6575b6020831014620002b057565b6200027d565b91607f1691620002a4565b9160001960089290920291821b911b5b9181191691161790565b9190620002f062000101620002f99362000160565b908354620002c1565b9055565b620000f391600091620002db565b81811062000317575050565b80620003276000600193620002fd565b016200030b565b9190601f81116200033e57505050565b62000352620000f393600052602060002090565b906020601f84018190048301931062000376575b6020601f9091010401906200030b565b909150819062000366565b906200038b815190565b906001600160401b038211620000d657620003b382620003ac855462000293565b856200032e565b602090601f8311600114620003f257620002f9929160009183620003e6575b5050600019600883021c1916906002021790565b015190503880620003d2565b601f198316916200040885600052602060002090565b9260005b81811062000449575091600293918560019694106200042f575b50505002019055565b01516000196008601f8516021c1916905538808062000426565b919360206001819287870151815501950192016200040c565b90620000f39162000381565b620000f39062000488620004816200053d565b8262000490565b600362000462565b620000f3918291829182918291620004e791620004cc90620004b460008262000725565b61012052620004c560018462000725565b6101405290565b620004e0620004d9825190565b9160200190565b2060e05290565b620004f4620004d9825190565b20610100524660a05262000507620008f0565b608052620005153062000231565b60c052565b62000526600162000191565b603160f81b602082015290565b620001016200051a565b6200010162000533565b9052565b908152604081019291620000f39160200152565b0152565b6200056d6200070d565b808211620005e4575062000580620006f7565b90620005a360086200059162000643565b6200059c84620009c7565b9162000a12565b50507f0553476bf02ef2726e8ce5ced78d63e26e602e4a2257b1f559418e24b463399791620005df620005d560405190565b928392836200054b565b0390a1565b906200060a620005f360405190565b63243e544560e01b8152928392600484016200054b565b0390fd5b65ffffffffffff81166200010f565b90505190620000f3826200060e565b90602082820312620000995762000101916200061d565b6000906200067360206200065a62000250620006d4565b6391ddadf4906200066a60405190565b93849260e01b90565b825260049082905afa600091816200069d575b5062000699575090506200010162000d80565b9150565b620006c491925060203d8111620006cc575b620006bb8183620000b4565b8101906200062c565b903862000686565b503d620006af565b610160516001600160a01b031690565b620001019081906001600160d01b031681565b6200010162000707600862000a7b565b620006e4565b62000101606462000160565b6200010160ff62000160565b80516200073b62000737602062000160565b9190565b10156200074e576200010191506200082e565b60006200075c620007639390565b0162000462565b620001016200010162000719565b60005b838110620007855750506000910152565b818101518382015260200162000774565b620007bb620007c56020936200018d93620007af815190565b80835293849260200190565b9586910162000771565b601f01601f191690565b6020808252620001019291019062000796565b620007fe620007fa620007f3835190565b9260200190565b5190565b90602081106200080c575090565b6200081f90600019906020036008021b90565b1690565b620001019062000160565b8062000838825190565b6200084862000737601f62000160565b116200087d5750620001018162000876620008716200086b6200010195620007e2565b62000823565b915190565b1762000160565b6200060a906200088c60405190565b63305a27a960e01b815291829160048301620007cf565b90959492620000f394620008da620008e192620008d3608096620008cc60a088019c6000890152565b6020870152565b6040850152565b6060830152565b01906001600160a01b03169052565b7f8b73c3c69bb8fe3d512ecc4cf759cc79239f7b179b0ffacaa9a75d522b39400f6200095b6200091f60e05190565b61010051926200094e46620009343062000231565b906200093f60405190565b968795602087019586620008a3565b90810382520382620000b4565b62000968620004d9825190565b2090565b6200097c62000101620001019290565b60ff1690565b62000547906200096c565b916020620000f39294936200055f6040820196600083019062000982565b620009bb62000101620001019290565b6001600160d01b031690565b620009d96001600160d01b03620006e4565b8111620009eb576200010190620009ab565b60d06200060a620009fb60405190565b6306dfcc6560e41b8152928392600484016200098d565b9062000a2d600062000a33949362000a28600090565b500190565b62000c5b565b9091565b634e487b7160e01b600052601160045260246000fd5b9190820391821162000a5b57565b62000a37565b620001019060301c620009bb565b62000101905462000a61565b80549060009062000a8c8262000160565b830362000aa05750620001019150620009ab565b620001019262000ac8620007378462000ad494019262000ac1600162000160565b9062000a4d565b60005260206000200190565b0162000a6f565b620001016040620000dc565b634e487b7160e01b600052603260045260246000fd5b805482101562000b225762000b19600191600052602060002090565b91020190600090565b62000ae7565b9065ffffffffffff90620002d1565b62000b4f62000101620001019265ffffffffffff1690565b65ffffffffffff1690565b9062000b6e62000101620002f99262000b37565b825462000b28565b9065ffffffffffff199060301b620002d1565b6200010190620009bb906001600160d01b031682565b9062000bb362000101620002f99262000b89565b825462000b76565b620000f39162000bf29060209062000be462000bdd825165ffffffffffff1690565b8562000b5a565b01516001600160d01b031690565b9062000b9f565b919062000c0b57620000f39162000bbb565b62000267565b9081549168010000000000000000831015620000d6578262000c3d916001620000f39501815562000afd565b9062000bf9565b620001019062000b4f565b62000101905462000c44565b91929190815460009062000c6f8262000160565b81111562000d3b5762000c9a62000c8d839262000ac1600162000160565b8560005260206000200190565b0162000ca68162000c4f565b9162000cb28262000a6f565b9465ffffffffffff851665ffffffffffff85161162000d2957879365ffffffffffff86811691160362000ced57505062000737925062000b9f565b9150915062000d14620007379362000d0462000adb565b9384019065ffffffffffff169052565b6001600160d01b038616602083015262000c11565b604051632520601d60e01b8152600490fd5b509062000d7a90620007379362000d6562000d5562000adb565b65ffffffffffff90931685840152565b6001600160d01b038716602083015262000c11565b620009ab565b620001014362000db3565b6200010162000101620001019265ffffffffffff1690565b62000b4f62000101620001019290565b62000dc465ffffffffffff62000d8b565b811162000dd657620001019062000da3565b60306200060a620009fb6040519056fe60806040526004361015610023575b361561001957600080fd5b610021611330565b005b60003560e01c806301ffc9a7146102e357806302a251a3146102de57806306f3f9e6146102d957806306fdde03146102d4578063143489d0146102cf578063150b7a02146102ca578063160cbed7146102c55780632656227d146102c05780632d63f693146102bb5780632fe3e261146102b65780633932abb1146102b15780633e4f49e6146102ac57806343859632146102a7578063452115d6146102a25780634bf5d7e91461029d578063544ffc9c1461029857806354fd4d5014610293578063567813881461028e5780635b8d0e0d146102895780635f398a141461028457806360c4247f1461027f5780637b3c71d31461027a5780637d5e81e2146102755780637ecebe001461027057806384b0196e1461026b5780638ff262e31461026657806391ddadf41461026157806397c3d3341461025c5780639a802a6d14610257578063a7713a7014610252578063a8f8a6681461024d578063a9a9529414610248578063ab58fb8e14610243578063b58131b01461023e578063bc197c8114610239578063c01f9e3714610234578063c28bc2fa1461022f578063c59057e41461022a578063dd4e2ba514610225578063deaaa7cc14610220578063eb9019d41461021b578063f23a6e6114610216578063f8ce560a146102115763fc0c546a0361000e576112f2565b611289565b61126a565b61120d565b6111b1565b611196565b611177565b611160565b611122565b611103565b611062565b611047565b61102b565b61100c565b610ff1565b610fd5565b610f78565b610f44565b610f25565b610ec0565b610dae565b610d7b565b610cf2565b610c91565b610c72565b610bea565b610b09565b610ab5565b610a8b565b610a4e565b610a2f565b610a13565b6109c9565b610944565b61090b565b6108f0565b6108d6565b6108b7565b61068b565b6104b7565b610477565b6103d0565b61037e565b610342565b7fffffffff0000000000000000000000000000000000000000000000000000000081165b0361031357565b600080fd5b90503590610325826102e8565b565b906020828203126103135761033b91610318565b90565b9052565b346103135761036f61035d610358366004610327565b611397565b60405191829182901515815260200190565b0390f35b600091031261031357565b346103135761038e366004610373565b61036f610399614f57565b6040519182918290815260200190565b8061030c565b90503590610325826103a9565b906020828203126103135761033b916103af565b34610313576103e86103e33660046103bc565b613609565b604051005b60005b8381106104005750506000910152565b81810151838201526020016103f0565b61043161043a60209361046293610425815190565b80835293849260200190565b958691016103ed565b601f017fffffffffffffffffffffffffffffffffffffffffffffffffffffffffffffffe01690565b0190565b602080825261033b92910190610410565b3461031357610487366004610373565b61036f610492611619565b60405191829182610466565b73ffffffffffffffffffffffffffffffffffffffff1690565b346103135761036f6104d26104cd3660046103bc565b611aab565b6040519182918273ffffffffffffffffffffffffffffffffffffffff909116815260200190565b73ffffffffffffffffffffffffffffffffffffffff811661030c565b90503590610325826104f9565b7f4e487b7100000000000000000000000000000000000000000000000000000000600052604160045260246000fd5b90601f017fffffffffffffffffffffffffffffffffffffffffffffffffffffffffffffffe016810190811067ffffffffffffffff82111761059157604052565b610522565b906103256105a360405190565b9283610551565b67ffffffffffffffff811161059157602090601f017fffffffffffffffffffffffffffffffffffffffffffffffffffffffffffffffe0160190565b90826000939282370152565b90929192610606610601826105aa565b610596565b9381855260208501908284011161031357610325926105e5565b9080601f830112156103135781602061033b933591016105f1565b90608082820312610313576106508183610515565b9261065e8260208501610515565b9261066c83604083016103af565b92606082013567ffffffffffffffff81116103135761033b9201610620565b346103135761036f6106aa6106a136600461063b565b92919091612c69565b604051918291827fffffffff00000000000000000000000000000000000000000000000000000000909116815260200190565b67ffffffffffffffff81116105915760208091020190565b90929192610705610601826106dd565b938185526020808601920283019281841161031357915b8383106107295750505050565b602080916107378486610515565b81520192019161071c565b9080601f830112156103135781602061033b933591016106f5565b9092919261076d610601826106dd565b938185526020808601920283019281841161031357915b8383106107915750505050565b6020809161079f84866103af565b815201920191610784565b9080601f830112156103135781602061033b9335910161075d565b9291906107d4610601826106dd565b93818552602080860192028101918383116103135781905b8382106107fa575050505050565b813567ffffffffffffffff81116103135760209161081b8784938701610620565b8152019101906107ec565b9080601f830112156103135781602061033b933591016107c5565b60808183031261031357803567ffffffffffffffff81116103135782610868918301610742565b92602082013567ffffffffffffffff811161031357836108899184016107aa565b9260408301359067ffffffffffffffff8211610313576108ae8161033b938601610826565b936060016103af565b346103135761036f6103996108cd366004610841565b92919091612106565b61036f6103996108e7366004610841565b929190916122b8565b346103135761036f6103996109063660046103bc565b6119a7565b346103135761091b366004610373565b61036f7f3e83946653575f9a39005e1545185629e92736b7528ab20ca3816f315424a811610399565b3461031357610954366004610373565b61036f610399614f4c565b7f4e487b7100000000000000000000000000000000000000000000000000000000600052602160045260246000fd5b6008111561099857565b61095f565b906103258261098e565b61033b9061099d565b61033e906109a7565b60208101929161032591906109b0565b346103135761036f6109e46109df3660046103bc565b611850565b604051918291826109b9565b91906040838203126103135761033b90610a0a81856103af565b93602001610515565b346103135761036f61035d610a293660046109f0565b90612f63565b346103135761036f610399610a45366004610841565b92919091612516565b3461031357610a5e366004610373565b61036f610492613388565b908152606081019392610325929091604091610a87905b6020830152565b0152565b346103135761036f610aa6610aa13660046103bc565b612f9c565b60405191939193849384610a69565b3461031357610ac5366004610373565b61036f610492611670565b60ff811661030c565b9050359061032582610ad0565b91906040838203126103135761033b90610b0081856103af565b93602001610ad9565b346103135761036f610399610b1f366004610ae6565b906126fe565b909182601f830112156103135781359167ffffffffffffffff831161031357602001926001830284011161031357565b919060c08382031261031357610b6b81846103af565b92610b798260208301610ad9565b92610b878360408401610515565b92606083013567ffffffffffffffff81116103135781610ba8918501610b25565b929093608081013567ffffffffffffffff81116103135783610bcb918301610620565b9260a082013567ffffffffffffffff81116103135761033b9201610620565b346103135761036f610399610c00366004610b55565b9594909493919361287d565b919060808382031261031357610c2281846103af565b92610c308260208301610ad9565b92604082013567ffffffffffffffff81116103135783610c51918401610b25565b929093606082013567ffffffffffffffff81116103135761033b9201610620565b346103135761036f610399610c88366004610c0c565b93929092612734565b346103135761036f610399610ca73660046103bc565b613539565b9160608383031261031357610cc182846103af565b92610ccf8360208301610ad9565b92604082013567ffffffffffffffff811161031357610cee9201610b25565b9091565b346103135761036f610399610d08366004610cac565b9291909161271c565b9060808282031261031357813567ffffffffffffffff81116103135781610d39918401610742565b92602083013567ffffffffffffffff81116103135782610d5a9185016107aa565b92604081013567ffffffffffffffff8111610313578361066c918301610826565b346103135761036f610399610d91366004610d11565b92919091611b51565b906020828203126103135761033b91610515565b346103135761036f610399610dc4366004610d9a565b613759565b90610de9610de2610dd8845190565b8084529260200190565b9260200190565b9060005b818110610dfa5750505090565b909192610e17610e106001928651815260200190565b9460200190565b929101610ded565b93959194610e8f610e87610eb395610e79610eac9561033b9c9a610e6c60e08c019260008d01907fff00000000000000000000000000000000000000000000000000000000000000169052565b8a820360208c0152610410565b9088820360408a0152610410565b976060870152565b73ffffffffffffffffffffffffffffffffffffffff166080850152565b60a0830152565b60c0818403910152610dc9565b3461031357610ed0366004610373565b61036f610edb613d4f565b93610eeb97959793919360405190565b97889788610e1f565b9060808282031261031357610f0981836103af565b92610f178260208501610ad9565b9261066c8360408301610515565b346103135761036f610399610f3b366004610ef4565b9291909161279d565b3461031357610f54366004610373565b61036f610f5f613244565b6040519182918265ffffffffffff909116815260200190565b3461031357610f88366004610373565b61036f610399613544565b9160608383031261031357610fa88284610515565b92610fb683602083016103af565b92604082013567ffffffffffffffff81116103135761033b9201610620565b346103135761036f610399610feb366004610f93565b916126f3565b3461031357611001366004610373565b61036f610399613527565b346103135761036f610399611022366004610841565b929190916117e9565b346103135761036f61035d6110413660046103bc565b50600090565b346103135761036f61039961105d3660046103bc565b611ad5565b3461031357611072366004610373565b61036f610399614f62565b91909160a081840312610313576110948382610515565b926110a28160208401610515565b92604083013567ffffffffffffffff811161031357826110c39185016107aa565b92606081013567ffffffffffffffff811161031357836110e49183016107aa565b92608082013567ffffffffffffffff81116103135761033b9201610620565b346103135761036f6106aa61111936600461107d565b93929092612cd6565b346103135761036f6103996111383660046103bc565b611a55565b91606083830312610313576111528284610515565b92610ccf83602083016103af565b6103e861116e36600461113d565b92919091612b55565b346103135761036f61039961118d366004610841565b9291909161179f565b34610313576111a6366004610373565b61036f610492612f3e565b34610313576111c1366004610373565b61036f7ff2aad550cf55f045cb27e9c559f9889fdfb6e6cdaa032301d6ea397784ae51d7610399565b91906040838203126103135761033b906112048185610515565b936020016103af565b346103135761036f6103996112233660046111ea565b906126c7565b91909160a081840312610313576112408382610515565b9261124e8160208401610515565b9261125c82604085016103af565b926110e483606083016103af565b346103135761036f6106aa611280366004611229565b93929092612c9f565b346103135761036f61039961129f3660046103bc565b61354e565b61049e61033b61033b9273ffffffffffffffffffffffffffffffffffffffff1690565b61033b906112a4565b61033b906112c7565b61033e906112d0565b60208101929161032591906112d9565b3461031357611302366004610373565b6040518061036f7f0000000000000000000000000000000000000000000000000000000000000000826112e2565b611338612c22565b61136161134761049e306112d0565b9173ffffffffffffffffffffffffffffffffffffffff1690565b0361136857565b6040517fe90a651e000000000000000000000000000000000000000000000000000000008152600490fd5b0390fd5b7fcdbdfcee0000000000000000000000000000000000000000000000000000000090817fffffffff00000000000000000000000000000000000000000000000000000000821614918215611490575b508115611444575b81156113f8575090565b61033b91507fffffffff00000000000000000000000000000000000000000000000000000000167f01ffc9a7000000000000000000000000000000000000000000000000000000001490565b7fffffffff0000000000000000000000000000000000000000000000000000000081167f4e2312e0000000000000000000000000000000000000000000000000000000001491506113ee565b6114dd9192507fa8f8a66800000000000000000000000000000000000000000000000000000000187fffffffff000000000000000000000000000000000000000000000000000000001690565b7fffffffff0000000000000000000000000000000000000000000000000000000082161490386113e6565b7f4e487b7100000000000000000000000000000000000000000000000000000000600052602260045260246000fd5b9060016002830492168015611557575b602083101461155257565b611508565b91607f1691611547565b8054600093929161157e61157483611537565b8085529360200190565b91600181169081156115d0575060011461159757505050565b6115aa9192939450600052602060002090565b916000925b8184106115bc5750500190565b8054848401526020909301926001016115af565b92949550505060ff1916825215156020020190565b9061033b91611561565b906103256116099261160060405190565b938480926115e5565b0383610551565b61033b906115ef565b61033b6003611610565b90611630610601836105aa565b918252565b61163f6001611623565b7f3100000000000000000000000000000000000000000000000000000000000000602082015290565b61033b611635565b61033b611668565b90611687610de2610dd8845190565b9060005b8181106116985750505090565b9091926116c4610e10600192865173ffffffffffffffffffffffffffffffffffffffff16815260200190565b92910161168b565b9061033b91610410565b906116ec6116e2835190565b8083529160200190565b90816116fe6020830284019460200190565b926000915b83831061171257505050505090565b9091929394602061173561172e838560019503875289516116cc565b9760200190565b9301930191939290611703565b949391610325936117766117849261176860609560808b01908b820360008d0152611678565b9089820360208b0152610dc9565b9087820360408901526116d6565b940152565b61033b61033b61033b9290565b61033b90611789565b906117d1916117c561033b956117b3600090565b50604051958694602086019485611742565b90810382520382610551565b6117e36117dc825190565b9160200190565b20611796565b61033b9392919061179f565b906117ff90611789565b600052602052604060002090565b61033b9060f01c5b60ff1690565b61033b905461180d565b61033b9060f81c611815565b61033b9054611825565b61033b61033b61033b9265ffffffffffff1690565b600490600061186261033b83856117f5565b0161187561186f8261181b565b91611831565b906119825761197b57611887816119a7565b9060009161189483611789565b811461193c576118aa6118a5613244565b61183b565b9081906118b6565b9190565b1015611935576118cf6118b26118cb84611a55565b9290565b106118dc57505050600190565b6118ec6118e882612fd4565b1590565b8015611923575b1561190057505050600390565b6118b261190f61191592611ad5565b92611789565b0361191d5790565b50600590565b506119306118e88261301b565b6118f3565b5050905090565b508261139361194a60405190565b9283927f6ad06075000000000000000000000000000000000000000000000000000000008452830190815260200190565b5050600290565b505050600790565b61033b9060a01c5b65ffffffffffff1690565b61033b905461198a565b6118a560006119c361033b936119bb600090565b5060046117f5565b0161199d565b61033b9060d01c5b63ffffffff1690565b61033b90546119c9565b61199261033b61033b9263ffffffff1690565b7f4e487b7100000000000000000000000000000000000000000000000000000000600052601160045260246000fd5b611a3f9065ffffffffffff165b9165ffffffffffff1690565b019065ffffffffffff8211611a5057565b6119f7565b6118a561033b91611a64600090565b50611a92611a8d6000611a87600494611a81836119c383896117f5565b956117f5565b016119da565b6119e4565b90611a26565b61033b9061049e565b61033b9054611a98565b6000611abc61033b926119bb600090565b01611aa1565b61033b90611992565b61033b9054611ac2565b6118a56001611ae961033b936119bb600090565b01611acb565b61199261033b61033b9290565b611b0d9065ffffffffffff16611a33565b90039065ffffffffffff8211611a5057565b73ffffffffffffffffffffffffffffffffffffffff9091168152606081019392610325929091604091610a8790610a80565b939290913392611b646118e88486612db4565b611c0057611b70614f62565b95611b7b6000611789565b8711611b8d575b61033b959650611ed0565b611bb4611bae6118a5611b9e613244565b611ba86001611aef565b90611afc565b866126c7565b96808810611bc25750611b82565b856113938992611bd160405190565b9384937fc242ee1600000000000000000000000000000000000000000000000000000000855260048501611b1f565b61139384611c0d60405190565b9182917fd9b395570000000000000000000000000000000000000000000000000000000083526004830173ffffffffffffffffffffffffffffffffffffffff909116815260200190565b908152606081019392610325929091604091610a879060208301906109b0565b91908201809211611a5057565b9073ffffffffffffffffffffffffffffffffffffffff905b9181191691161790565b90611cb661033b611cbd926112d0565b8254611c84565b9055565b9079ffffffffffff00000000000000000000000000000000000000009060a01b611c9c565b61199261033b61033b9265ffffffffffff1690565b90611d0b61033b611cbd92611ce6565b8254611cc1565b907dffffffff00000000000000000000000000000000000000000000000000009060d01b611c9c565b6119d161033b61033b9263ffffffff1690565b90611d5e61033b611cbd92611d3b565b8254611d12565b90611630610601836106dd565b60005b828110611d8157505050565b606082820152602001611d75565b90610325611da5611d9f84611d65565b936106dd565b7fffffffffffffffffffffffffffffffffffffffffffffffffffffffffffffffe00160208401611d72565b90611ddc6116e2835190565b9081611dee6020830284019460200190565b926000915b838310611e0257505050505090565b90919293946020611e1e61172e838560019503875289516116cc565b9301930191939290611df3565b9590611ec295611e9761033b9b999a96611e89611ea594611ebb98611e7c611eb39960208f611e606101208201966000830152565b019073ffffffffffffffffffffffffffffffffffffffff169052565b8c820360408e0152611678565b908a820360608c0152610dc9565b9088820360808a0152611dd0565b9086820360a08801526116d6565b9560c0850152565b60e0830152565b610100818403910152610410565b9194939192611eed81611ee46117dc825190565b208784876117e9565b918296611ef8865190565b611f066118b261033b855190565b141580156120aa575b8015612094575b61204c57600490611f2c60006119c387856117f5565b91600092611f3c611a3385611aef565b03611ffd5790611ff894939291611fa9611f6d611f57613244565b611f68611f62614f4c565b9161183b565b611c77565b93611f7d61033b8a611a81614f57565b01611f888a82611ca6565b611f9a611f94866144c7565b82611cfb565b611fa383614513565b90611d4e565b611fc3611fbc611fb78b5190565b611d8f565b9184611c77565b937f7d84a6263ae0d98d3329bd7b46bb4e8d6f98cd35a7adb45c274c8b7fd5ebd5e099611fef60405190565b998a998a611e2b565b0390a1565b85906113938461201561200f85611850565b91611789565b9061201f60405190565b9485947f31b75e4d0000000000000000000000000000000000000000000000000000000086528501611c57565b61139361206261205d61205d895190565b935190565b6040519384937f447b05d000000000000000000000000000000000000000000000000000000000855260048501610a69565b5085516120a46118b26000611789565b14611f16565b5085516120bb6118b261033b845190565b1415611f0f565b9065ffffffffffff90611c9c565b906120e061033b611cbd92611ce6565b82546120c2565b61033e9061183b565b90815260408101929161032591602001906120e7565b919261213f9193612115600090565b50612122828287876117e9565b9460049461213861213287612d26565b88612d49565b50866121e4565b9061214a6000611aef565b65ffffffffffff8316146121ac578160016121688561216e946117f5565b016120d0565b6121a67f9a2e42fd6722813d69113e7d0079d3d940171428df7373df9c7f7617cfda28929161219c60405190565b91829185836120f0565b0390a190565b611393906121b960405190565b7f90884a46000000000000000000000000000000000000000000000000000000008152918291820190565b50505050506121f1600090565b5061033b6000611aef565b907eff0000000000000000000000000000000000000000000000000000000000009060f01b611c9c565b9061223661033b611cbd92151590565b82546121fc565b7fffffffffffffffffffffffffffffffffffffffffffffffffffffffffffffffff8114611a505760010190565b7f4e487b7100000000000000000000000000000000000000000000000000000000600052603260045260246000fd5b906122a2825190565b8110156122b3576020809102010190565b61226a565b91926122c6818584866117e9565b9384926004946123056122d887612d26565b966122ef6005986122e88a612d26565b1788612d49565b5060006122ff60019889936117f5565b01612226565b61230d612c22565b94612317306112d0565b9561233773ffffffffffffffffffffffffffffffffffffffff8816611347565b141595866123b3575b50509061234f93929187612481565b806123a1575b612392575b507f712ae1383f79ac853f8d882153778e0260ef8f03b504e2866e0593e04d2b291f61238560405190565b82815280602081016121a6565b61239b90614efa565b3861235a565b506123ae6118e882614f15565b612355565b816123be6000611789565b905b6123cb575b50612340565b6123d661033b855190565b81101561245d57806124086123ee6124319387612299565b5173ffffffffffffffffffffffffffffffffffffffff1690565b61242773ffffffffffffffffffffffffffffffffffffffff8516611347565b146124375761223d565b826123c0565b6124588a612445838a612299565b516124516117dc825190565b2090614d62565b61223d565b6123c5565b3d1561247c576124713d611623565b903d6000602084013e565b606090565b509392509060009361249285611789565b61249d61033b835190565b8110156124f957806124ee87806124ba6123ee6124f49688612299565b6124cb6124c7868b612299565b5190565b6124d5868a612299565b5190602082019151925af16124e8612462565b90613709565b5061223d565b612492565b505050509050565b90815260408101929161032591602090611e60565b93929190612526838383886117e9565b9433956125366118e88883612ec8565b612546575061033b949550612646565b869061139361255460405190565b9283927f8fe5d8a900000000000000000000000000000000000000000000000000000000845260048401612501565b61181561033b61033b9290565b61259f9060ff165b9160ff1690565b019060ff8211611a5057565b60ff1660ff8111611a505760020a90565b91908203918211611a5057565b61033b6125ff6125d960076109a7565b6125f961200f6125f46001936125ee85612583565b90612590565b6125ab565b906125bc565b611789565b907fff000000000000000000000000000000000000000000000000000000000000009060f81b611c9c565b9061263f61033b611cbd92151590565b8254612604565b612652939291906117e9565b61268461265d6125c9565b6126676002612d26565b186126726006612d26565b1861267d6007612d26565b1882612d49565b5061269d600160006126978460046117f5565b0161262f565b7f789cf55be980739dad1d0699b93b58e806b51c9d96619bfa8fe0a28abaa7b30c61238560405190565b61033b916126d36126eb565b91613458565b61033b6000611623565b61033b6126d9565b61033b6126e3565b61033b929190613458565b61033b913361270b6126e3565b9261297b565b61033b9136916105f1565b9161270b61033b9461272c600090565b503392612711565b9161274561033b959461272c600090565b92612a1e565b9095949261032594612780610a879261277660809661276f60a088019c6000890152565b6020870152565b60ff166040850152565b73ffffffffffffffffffffffffffffffffffffffff166060830152565b9193926118e8612815916127af600090565b5061280f6117c56127fe7ff2aad550cf55f045cb27e9c559f9889fdfb6e6cdaa032301d6ea397784ae51d76127e38b613775565b906127ed60405190565b9384928d8b8d60208701958661274b565b6128096117dc825190565b20613b56565b87613f7d565b6128265761033b929361270b6126e3565b6113938461283360405190565b9182917f94ab6c070000000000000000000000000000000000000000000000000000000083526004830173ffffffffffffffffffffffffffffffffffffffff909116815260200190565b939196956118e861295b91612955846127fe89886117c58f8e9c9a9c6128a1600090565b508b6128de6128d87f3e83946653575f9a39005e1545185629e92736b7528ab20ca3816f315424a811966128d486613775565b9391565b90612711565b6128e96117dc825190565b20916128f66117dc825190565b209261290160405190565b988997602089019788908152602081019190915260ff909116604082015273ffffffffffffffffffffffffffffffffffffffff909116606082015260e081019493929091608083015260a082015260c00152565b8a613f7d565b61296e5761033b95969161274591612711565b6113938761283360405190565b9161033b9391612989600090565b506129926126eb565b93612a1e565b936129c861033b96946129c16129d5956129b760a08a019660008b0152565b60ff166020890152565b6040870152565b8482036060860152610410565b916080818403910152610410565b9092612a1190612a0a61033b9694612a0060808601976000870152565b60ff166020850152565b6040830152565b6060818403910152610410565b909190612a34612a2e6001612d26565b82612d49565b50612a5485612a4c81612a46856119a7565b87613458565b8486856130c1565b94612a5d815190565b612a6a6118b26000611789565b03612ab75750612ab1612a9d7fb8e138887d0aa13bab447e82de9d5c1777041ecd21ca36ba824ff1e6c07ddda4946112d0565b9486612aa860405190565b948594856129e3565b0390a290565b612ab190612ae57fe2babfbac5889a709b63bb7f598b324e08bc5a4fb9ec647fb3cbc9ec07eb8712956112d0565b9587612af060405190565b95869586612998565b90610325939291612b08612b61565b612b27565b909161046290839080936105e5565b909161033b92612b0d565b612b5293600093928493612b46612b3d60405190565b93849283612b1c565b03925af16124e8612462565b50565b90610325939291612af9565b612b69612c22565b3373ffffffffffffffffffffffffffffffffffffffff8216819003612bcb5750612b9861134761049e306112d0565b03612b9f57565b612baa6000366128d8565b612bb56117dc825190565b205b612bc16005614e70565b819003612bb75750565b61139390612bd860405190565b9182917f47096e470000000000000000000000000000000000000000000000000000000083526004830173ffffffffffffffffffffffffffffffffffffffff909116815260200190565b61033b306112d0565b612c44612c3e61033b9263ffffffff1690565b60e01b90565b7fffffffff000000000000000000000000000000000000000000000000000000001690565b50505050612c75600090565b50612c7e612c22565b612c8d61134761049e306112d0565b036113685761033b63150b7a02612c2b565b5050505050612cac600090565b50612cb5612c22565b612cc461134761049e306112d0565b036113685761033b63f23a6e61612c2b565b5050505050612ce3600090565b50612cec612c22565b612cfb61134761049e306112d0565b036113685761033b63bc197c81612c2b565b61033b90612d216118b261033b9460ff1690565b901b90565b6125ff61033b91612d35600090565b50612d4461200f6001926109a7565b612d0d565b612d5281611850565b9180612d5d84612d26565b16612d6e6118b261033b6000611789565b14612d7857505090565b61139390612d8560405190565b9384937f31b75e4d00000000000000000000000000000000000000000000000000000000855260048501611c57565b9080612dbe825190565b916034612dca81611789565b8410612ebe57612e1591612de8612de3612df093611789565b860390565b016020015190565b7fffffffffffffffffffff000000000000000000000000000000000000000000001690565b7f2370726f706f7365723d00000000000000000000000000000000000000000000907fffffffffffffffffffff000000000000000000000000000000000000000000001603612eb657612e8491612e7e91612e78612e73602a611789565b830390565b906137e4565b91901590565b918215612e9057505090565b909150612eb29073ffffffffffffffffffffffffffffffffffffffff16611347565b1490565b505050600190565b5050505050600190565b90612ed282611850565b612ee5612edf600061099d565b9161099d565b149182612ef157505090565b612eb291925061049e61134791611aab565b612f0d6020611623565b7f737570706f72743d627261766f2671756f72756d3d666f722c6162737461696e602082015290565b61033b612f03565b61033b612f36565b906117ff906112d0565b61033b90611815565b61033b9054612f50565b61033b916003612f80612f8693612f78600090565b5060076117f5565b01612f46565b612f59565b61033b9081565b61033b9054612f8b565b61033b612fab91612f78600090565b90612fb582612f92565b90612fce6002612fc760018601612f92565b9401612f92565b91929190565b6130166118b261033b612ff761129f612ff161033b8760076117f5565b956119a7565b93613010600261300960018401612f92565b9201612f92565b90611c77565b111590565b61033b61302a91612f78600090565b6130416118b261033b6000612fc760018601612f92565b1190565b9060ff90611c9c565b9061305e61033b611cbd92151590565b8254613045565b6003111561099857565b9061032582613065565b61033b9061306f565b907fffffffffffffffffffffffffffffffffffffffffffffffffffffffffffffffff90611c9c565b906130ba61033b611cbd92611789565b8254613082565b6130d49193945061033b90612f78600090565b91600383016130e6612f868383612f46565b6131b257613100906130fb6001938492612f46565b61304e565b60009161310f61181584613079565b60ff82160361313257505061033b910161312c83611f6883612f92565b906130aa565b90915061314161181583613079565b60ff82160361315d575061033b910161312c83611f6883612f92565b6002915061317061259861181584613079565b036131875761033b910161312c83611f6883612f92565b6040517f06b337c2000000000000000000000000000000000000000000000000000000008152600490fd5b611393826131bf60405190565b9182917f71c6af490000000000000000000000000000000000000000000000000000000083526004830173ffffffffffffffffffffffffffffffffffffffff909116815260200190565b65ffffffffffff811661030c565b9050519061032582613209565b906020828203126103135761033b91613217565b6040513d6000823e3d90fd5b60009061328d60206132757f00000000000000000000000000000000000000000000000000000000000000006112d0565b6391ddadf49061328460405190565b93849260e01b90565b825260049082905afa600091816132b3575b506132af5750905061033b614f43565b9150565b6132d591925060203d81116132dc575b6132cd8183610551565b810190613224565b903861329f565b503d6132c3565b909291926132f3610601826105aa565b9381855260208501908284011161031357610325926103ed565b9080601f8301121561031357815161033b926020016132e3565b9060208282031261031357815167ffffffffffffffff81116103135761033b920161330d565b613357601d611623565b7f6d6f64653d626c6f636b6e756d6265722666726f6d3d64656661756c74000000602082015290565b61033b61334d565b6060906133c860006133b97f00000000000000000000000000000000000000000000000000000000000000006112d0565b634bf5d7e99061328460405190565b825260049082905afa600091816133ea575b506132af5750905061033b613380565b61340691923d8091833e6133fe8183610551565b810190613327565b90386133da565b90505190610325826103a9565b906020828203126103135761033b9161340d565b73ffffffffffffffffffffffffffffffffffffffff90911681526040810192916103259160200152565b6020919250613465600090565b5061348f7f00000000000000000000000000000000000000000000000000000000000000006112d0565b6134b0633a46b1a86134bb6134a360405190565b9687958694859460e01b90565b84526004840161342e565b03915afa9081156134f9576000916134d1575090565b61033b915060203d81116134f2575b6134ea8183610551565b81019061341a565b503d6134e0565b613238565b61033b61033b61033b9279ffffffffffffffffffffffffffffffffffffffffffffffffffff1690565b61033b61353460086148c1565b6134fe565b61033b9060086136cf565b61033b6064611789565b61359590602061357d7f00000000000000000000000000000000000000000000000000000000000000006112d0565b638e539e8c9061358c60405190565b94859260e01b90565b82526004820184905260249082905afa9081156134f95761033b926000926135d0575b506135c290613539565b6135ca613544565b91614277565b6135c29192506135ed9060203d81116134f2576134ea8183610551565b91906135b8565b61032590613600612b61565b61032590613625565b610325906135f4565b9081526040810192916103259160200152565b61362d613544565b808211613693575061363d613527565b9061365a600861364b613244565b61365484614458565b9161453d565b50507f0553476bf02ef2726e8ce5ced78d63e26e602e4a2257b1f559418e24b463399791611ff861368a60405190565b92839283613612565b906113936136a060405190565b9283927f243e544500000000000000000000000000000000000000000000000000000000845260048401613612565b61033b91906136dd81614903565b9391506136e982611f62565b116136f55750506134fe565b6135349250613703906144c7565b90614570565b909190610325575080516137206118b26000611789565b111561372e57805190602001fd5b6040517fd6bda275000000000000000000000000000000000000000000000000000000008152600490fd5b61377061033b91613768600090565b506002612f46565b612f92565b613780906000613768565b61033b61378c82612f92565b916001830161312c565b61049e61033b61033b9290565b61033b90613796565b7fffff0000000000000000000000000000000000000000000000000000000000001690565b81810292918115918404141715611a5057565b806137f061033b825190565b841180156138f9575b6138e957613844908361381861033b6138126001611789565b83611c77565b86119182613887575b5050611f6861200f613834602893151590565b61383e6002611789565b906137d1565b6138546118b26118cb85876125bc565b0361387857613873939261033b9261386b92613912565b939093613796565b6112c7565b50505060009061033b826137a3565b016020015161389691506137ac565b6138e17f30780000000000000000000000000000000000000000000000000000000000005b917fffff0000000000000000000000000000000000000000000000000000000000001690565b148338613821565b5050505060009061033b826137a3565b508383116137f9565b61033b61033b61033b9260ff1690565b909291906139219060005b5090565b600191829161393b61033b61393585611789565b88611c77565b821180613a1c575b61394e901515613834565b9161396460009361395e85611789565b98611c77565b935b613973575b505050509190565b9091929561397e8290565b871015613a16576139c26139bd6139988986016020015190565b7fff000000000000000000000000000000000000000000000000000000000000001690565b613a84565b906139cd600f612583565b60ff831611613a04576139f886959493926104626139f26139fe9461383e6010611789565b91613902565b9761223d565b93613966565b5050505080935061033b915092611789565b9561396b565b5061394e613834613a336137ac8985016020015190565b613a5f6138bb7f30780000000000000000000000000000000000000000000000000000000000006137ac565b14915050613943565b61181561033b61033b9260ff1690565b61033b9060f81c613a68565b613a8d90613a78565b80613a98602f612583565b60ff83161180613b41575b15613abf5761033b9150613ab76030612583565b900360ff1690565b613ac96060612583565b60ff83161180613b2c575b15613ae85761033b9150613ab76057612583565b50613af36040612583565b60ff82161180613b17575b15613b115761033b90613ab76037612583565b5060ff90565b50613b226047612583565b60ff821610613afe565b50613b376067612583565b60ff831610613ad4565b50613b4c603a612583565b60ff831610613aa3565b61033b90613b62613b9a565b604291604051917f19010000000000000000000000000000000000000000000000000000000000008352600283015260228201522090565b613ba3306112d0565b613be273ffffffffffffffffffffffffffffffffffffffff7f000000000000000000000000000000000000000000000000000000000000000016611347565b1480613c1a575b15613c12577f000000000000000000000000000000000000000000000000000000000000000090565b61033b613c75565b507f00000000000000000000000000000000000000000000000000000000000000004614613be9565b9095949261032594613c6e611e6092613c6760809661276f60a088019c6000890152565b6040850152565b6060830152565b7f0000000000000000000000000000000000000000000000000000000000000000613d007f00000000000000000000000000000000000000000000000000000000000000007f8b73c3c69bb8fe3d512ecc4cf759cc79239f7b179b0ffacaa9a75d522b39400f6117c546613ce8306112d0565b90613cf260405190565b968795602087019586613c43565b613d0b6117dc825190565b2090565b369037565b90610325613d24611d9f84611d65565b7fffffffffffffffffffffffffffffffffffffffffffffffffffffffffffffffe00160208401613d0f565b613d57613db3565b90613d60613f3e565b904690613d6c306112d0565b90600090613d8a613d85613d7f84611789565b93611789565b613d14565b7f0f00000000000000000000000000000000000000000000000000000000000000969594939291565b61033b7f000000000000000000000000000000000000000000000000000000000000000060005b90613e7c565b61033b60ff611789565b80546000939291613dfd61157483611537565b91600181169081156115d05750600114613e1657505050565b613e299192939450600052602060002090565b916000925b818410613e3b5750500190565b805484840152602090930192600101613e2e565b9061033b91613dea565b9061032561160992613e6a60405190565b93848092613e4f565b61033b90613e59565b9081613e8c6118b261033b613de0565b14613e9b575061033b90613ebb565b61033b9150613e73565b90610325613d24613eb584611623565b936105aa565b613ec481613ee1565b906020613ed8613ed382611789565b613ea5565b92835282015290565b613ef0613ef59161391d600090565b611796565b613eff60ff611789565b16613f0a601f611789565b8111613f135790565b6040517fb3512b0c000000000000000000000000000000000000000000000000000000008152600490fd5b61033b7f00000000000000000000000000000000000000000000000000000000000000006001613dda565b6004111561099857565b9061032582613f69565b91600091833b613f8f6118b285611789565b03613fbf57613fa4613fad92613fb392613fcb565b50929093613f73565b91613f73565b149182612e9057505090565b90915061033b9261413f565b9190600092613fd8825190565b613fe56118b26041611789565b0361401957614012929350613ff8600090565b506020820151906060604084015193015160001a90614053565b9192909190565b50915061402660006137a3565b90612fce6125ff6002945190565b610a8761032594612a0a606094989795612a00608086019a6000870152565b909161405e84611796565b61408a6118b27f7fffffffffffffffffffffffffffffff5d576e7357a4501ddfe92f46681b20a0611789565b1161411357906140ac602094600094936140a360405190565b94859485614034565b838052039060015afa156134f9576000516000916140c9836137a3565b73ffffffffffffffffffffffffffffffffffffffff811673ffffffffffffffffffffffffffffffffffffffff8416146141065750612fce83611789565b9150612fce600193611789565b50505061412060006137a3565b9160039190565b90815260406020820181905261033b92910190610410565b60009261419d849361414f600090565b5061418e61415c60405190565b9384926004602085017f1626ba7e00000000000000000000000000000000000000000000000000000000815201614127565b60208201810382520382610551565b602081019051915afa6141ae612462565b81614206575b816141bd575090565b6141d7915060206141cc825190565b81830101910161341a565b612eb26118b261033b7f1626ba7e00000000000000000000000000000000000000000000000000000000612c44565b9050614210815190565b61421d6118b26020611789565b1015906141b4565b7f4e487b7100000000000000000000000000000000000000000000000000000000600052601260045260246000fd5b811561425e570490565b614225565b61033b6012611789565b61033b6011611789565b9060009161428582826143ba565b92909160009461429486611789565b841461439a578387111561436e5786959361033b976142e4946142f7979460019450099083821190039203956142d1816142cd87611789565b0390565b8116908180928192049804950304010290565b17916142f76142fb826142f76003611789565b0290565b6142cd61200f61436861435961434a61433b61432c60029761431c89611789565b186142f78b82026142cd8b611789565b6142f78a82026142cd8a611789565b6142f78982026142cd89611789565b6142f78882026142cd88611789565b6142f78782026142cd87611789565b80950290565b6143958761437e6118b289611789565b14614387614263565b61438f61426d565b916143ec565b6143a9565b5050505061033b929150614254565b634e487b716000526020526024601cfd5b907fffffffffffffffffffffffffffffffffffffffffffffffffffffffffffffffff8183099102908180821091030391565b6142f783614404936143fc600090565b501891151590565b1890565b61033e90612583565b916020610325929493610a8760408201966000830190614408565b61443961033b61033b9290565b79ffffffffffffffffffffffffffffffffffffffffffffffffffff1690565b61447b79ffffffffffffffffffffffffffffffffffffffffffffffffffff6134fe565b811161448a5761033b9061442c565b60d061139361449860405190565b9283927f6dfcc65000000000000000000000000000000000000000000000000000000000845260048401614411565b6144d665ffffffffffff61183b565b81116144e55761033b90611aef565b603061139361449860405190565b61033b61033b61033b9263ffffffff1690565b6119d161033b61033b9290565b61452063ffffffff6144f3565b811161452f5761033b90614506565b602061139361449860405190565b906145556000610cee9493614550600090565b500190565b614aaf565b61033b9060301c614439565b61033b905461455a565b805460009161457e83611789565b9083839161458c6005611789565b85116145e8575b0192506145a291839586614bfd565b906145ac83611789565b82036145be57505061033b915061442c565b926145d56145e29261033b95506125f96001611789565b9060005260206000200190565b01614566565b9193806125f96145f792614666565b9361461361199283611ae9888783015b60005260206000200190565b65ffffffffffff8816101561463257506145a29293915b849350614593565b91936145a29350614647906130106001611789565b9361462a565b61033b906146616118b261033b9460ff1690565b901c90565b600161467181611789565b82111561391d57906147cc6147c761033b6147c061478c61478c6147b661479161478c6147ac61478c61478c8c61046261033b9f61478261478c61479b6147a59361477261476c886146c284611789565b906146dd700100000000000000000000000000000000611789565b8b1015614899575b6146f768010000000000000000611789565b811015614877575b61470d640100000000611789565b811015614855575b61472162010000611789565b811015614833575b614734610100611789565b811015614811575b6147466010611789565b8110156147e9575b61475b6118b26004611789565b10156147d1575b6142f76003611789565b91612583565b9e8f9c8d809b819782809661464d565b610462818d614254565b61464d565b610462818a614254565b6104628187614254565b8092614254565b610462818c614254565b6104628189614254565b8094614254565b821190565b900390565b6147e4906147de85612583565b90612d0d565b614762565b61480061480b916147fa6004612583565b9061464d565b916147de6002612583565b9061474e565b61482261482d916147fa6008612583565b916147de6004612583565b9061473c565b61484461484f916147fa6010612583565b916147de6008612583565b90614729565b614866614871916147fa6020612583565b916147de6010612583565b90614715565b614888614893916147fa6040612583565b916147de6020612583565b906146ff565b506148bb6148b06148aa6080612583565b8c61464d565b916147de6040612583565b906146e5565b8054906000916148d083611789565b8160009391036148e65750505061033b9061442c565b61033b9350906146076118b2846145e29401926125f96001611789565b80549060009061491282611789565b830361492f57508091509161033b61492983611aef565b9261442c565b8161494791016146076118b26001956125f987611789565b0191612fce61495584611acb565b93614566565b61033b6040610596565b80548210156122b35761497f600191600052602060002090565b91020190600090565b7f4e487b7100000000000000000000000000000000000000000000000000000000600052600060045260246000fd5b907fffffffffffffffffffffffffffffffffffffffffffffffffffff0000000000009060301b611c9c565b61443961033b61033b9279ffffffffffffffffffffffffffffffffffffffffffffffffffff1690565b90614a1b61033b611cbd926149e2565b82546149b7565b61032591614a6790602090614a46614a40825165ffffffffffff1690565b856120d0565b015179ffffffffffffffffffffffffffffffffffffffffffffffffffff1690565b90614a0b565b9190614a7c5761032591614a22565b614988565b90815491680100000000000000008310156105915782614aa991600161032595018155614965565b90614a6d565b919291908154600090614ac182611789565b811115614bac57614ae7614ada83926125f96001611789565b8560005260206000200190565b01614af181611acb565b91614afb82614566565b9465ffffffffffff851665ffffffffffff851611614b81578793614b2665ffffffffffff8716611a33565b03614b375750506118b29250614a0b565b91509150614b5a6118b293614b4a61495b565b9384019065ffffffffffff169052565b79ffffffffffffffffffffffffffffffffffffffffffffffffffff86166020830152614a81565b6040517f2520601d000000000000000000000000000000000000000000000000000000008152600490fd5b5090614bf8906118b293614bd1614bc161495b565b65ffffffffffff90931685840152565b79ffffffffffffffffffffffffffffffffffffffffffffffffffff87166020830152614a81565b61442c565b93919092614c09600090565b505b80821015614c6b57614c1d8183614c73565b90614c346000611ae9848960005260206000200190565b614c4565ffffffffffff8716611a33565b1115614c545750915b91614c0b565b929150614c65906130106001611789565b90614c4e565b925050915090565b61301061033b92614c82600090565b508083169218614c926002611789565b90614254565b61033b9060801c5b6fffffffffffffffffffffffffffffffff1690565b61033b9054614c98565b614ca061033b61033b9290565b61033b90614ca0565b61033b9054614ccc565b61033b6041611789565b614ca061033b61033b926fffffffffffffffffffffffffffffffff1690565b906117ff90614ce9565b906130ba61033b611cbd9290565b907fffffffffffffffffffffffffffffffff000000000000000000000000000000009060801b611c9c565b90614d5b61033b611cbd92614ce9565b8254614d20565b80614d6c81614cb5565b92600190614d93614d7c83614cbf565b86016fffffffffffffffffffffffffffffffff1690565b93614da0614ca085614cd5565b6fffffffffffffffffffffffffffffffff861614614dd45761032595614dcf93614dca9201614d08565b614d12565b614d4b565b614395614cdf565b61033b6031611789565b91906008611c9c910291614e197fffffffffffffffffffffffffffffffffffffffffffffffffffffffffffffffff841b90565b921b90565b9190614e2d61033b611cbd9390565b908354614de6565b61032591600091614e1e565b906fffffffffffffffffffffffffffffffff90611c9c565b90614e6961033b611cbd92614ce9565b8254614e41565b9081614e7b81614cd5565b92614e88614ca082614cb5565b6fffffffffffffffffffffffffffffffff851614614ef257614eec6001610325930194614ecc6000614ec783614ec1613770828c614d08565b99614d08565b614e35565b614ed66001614cbf565b016fffffffffffffffffffffffffffffffff1690565b90614e59565b614395614ddc565b610325906000614f0981614cbf565b9101614dcf8282614e59565b612eb2614f2d614ca0614f2784614cb5565b93614cd5565b916fffffffffffffffffffffffffffffffff1690565b61033b436144c7565b61033b611c20611789565b61033b61c4e0611789565b61033b69152d02c7e14af680000061178956fea26469706673582212201d92d3fed3d7fd0787c216942b900be28b3918c4b708e5c668e98081174a150564736f6c63430008140033",
  "linkReferences": {},
  "deployedLinkReferences": {}
}