{
  "_format": "hh-sol-artifact-1",
  "contractName": "PriceOracle",
  "sourceName": "contracts/PriceOracle.sol",
  "abi": [
    {
      "inputs": [],
      "stateMutability": "nonpayable",
      "type": "constructor"
    },
    {
      "inputs": [],
      "name": "EnforcedPause",
      "type": "error"
    },
    {
      "inputs": [],
      "name": "ExpectedPause",
      "type": "error"
    },
    {
      "inputs": [
        {
          "internalType": "address",
          "name": "owner",
          "type": "address"
        }
      ],
      "name": "OwnableInvalidOwner",
      "type": "error"
    },
    {
      "inputs": [
        {
          "internalType": "address",
          "name": "account",
          "type": "address"
        }
      ],
      "name": "OwnableUnauthorizedAccount",
      "type": "error"
    },
    {
      "anonymous": false,
      "inputs": [
        {
          "indexed": true,
          "internalType": "address",
          "name": "token",
          "type": "address"
        },
        {
          "indexed": false,
          "internalType": "uint256",
          "name": "price",
          "type": "uint256"
        }
      ],
      "name": "FallbackPriceUpdated",
      "type": "event"
    },
    {
      "anonymous": false,
      "inputs": [
        {
          "indexed": true,
          "internalType": "address",
          "name": "previousOwner",
          "type": "address"
        },
        {
          "indexed": true,
          "internalType": "address",
          "name": "newOwner",
          "type": "address"
        }
      ],
      "name": "OwnershipTransferred",
      "type": "event"
    },
    {
      "anonymous": false,
      "inputs": [
        {
          "indexed": false,
          "internalType": "address",
          "name": "account",
          "type": "address"
        }
      ],
      "name": "Paused",
      "type": "event"
    },
    {
      "anonymous": false,
      "inputs": [
        {
          "indexed": true,
          "internalType": "address",
          "name": "token",
          "type": "address"
        },
        {
          "indexed": true,
          "internalType": "address",
          "name": "priceFeed",
          "type": "address"
        }
      ],
      "name": "PriceFeedUpdated",
      "type": "event"
    },
    {
      "anonymous": false,
      "inputs": [
        {
          "indexed": true,
          "internalType": "address",
          "name": "token",
          "type": "address"
        },
        {
          "indexed": false,
          "internalType": "uint256",
          "name": "price",
          "type": "uint256"
        },
        {
          "indexed": false,
          "internalType": "uint256",
          "name": "timestamp",
          "type": "uint256"
        }
      ],
      "name": "PriceUpdated",
      "type": "event"
    },
    {
      "anonymous": false,
      "inputs": [
        {
          "indexed": false,
          "internalType": "address",
          "name": "account",
          "type": "address"
        }
      ],
      "name": "Unpaused",
      "type": "event"
    },
    {
      "inputs": [],
      "name": "MIN_UPDATE_INTERVAL",
      "outputs": [
        {
          "internalType": "uint256",
          "name": "",
          "type": "uint256"
        }
      ],
      "stateMutability": "view",
      "type": "function"
    },
    {
      "inputs": [
        {
          "internalType": "address",
          "name": "tokenIn",
          "type": "address"
        },
        {
          "internalType": "address",
          "name": "tokenOut",
          "type": "address"
        },
        {
          "internalType": "uint256",
          "name": "amountIn",
          "type": "uint256"
        },
        {
          "internalType": "uint256",
          "name": "amountOut",
          "type": "uint256"
        }
      ],
      "name": "calculatePriceImpact",
      "outputs": [
        {
          "internalType": "uint256",
          "name": "impact",
          "type": "uint256"
        }
      ],
      "stateMutability": "view",
      "type": "function"
    },
    {
      "inputs": [
        {
          "internalType": "address",
          "name": "",
          "type": "address"
        }
      ],
      "name": "fallbackPrices",
      "outputs": [
        {
          "internalType": "uint256",
          "name": "",
          "type": "uint256"
        }
      ],
      "stateMutability": "view",
      "type": "function"
    },
    {
      "inputs": [
        {
          "internalType": "address",
          "name": "token",
          "type": "address"
        }
      ],
      "name": "getChainlinkPrice",
      "outputs": [
        {
          "internalType": "uint256",
          "name": "",
          "type": "uint256"
        }
      ],
      "stateMutability": "view",
      "type": "function"
    },
    {
      "inputs": [
        {
          "internalType": "address[]",
          "name": "tokens",
          "type": "address[]"
        }
      ],
      "name": "getMultiplePrices",
      "outputs": [
        {
          "internalType": "uint256[]",
          "name": "prices",
          "type": "uint256[]"
        }
      ],
      "stateMutability": "view",
      "type": "function"
    },
    {
      "inputs": [
        {
          "internalType": "address",
          "name": "token",
          "type": "address"
        }
      ],
      "name": "getPrice",
      "outputs": [
        {
          "internalType": "uint256",
          "name": "",
          "type": "uint256"
        }
      ],
      "stateMutability": "view",
      "type": "function"
    },
    {
      "inputs": [
        {
          "internalType": "address",
          "name": "token",
          "type": "address"
        }
      ],
      "name": "getPriceFeedAddress",
      "outputs": [
        {
          "internalType": "address",
          "name": "",
          "type": "address"
        }
      ],
      "stateMutability": "view",
      "type": "function"
    },
    {
      "inputs": [
        {
          "internalType": "address",
          "name": "token",
          "type": "address"
        }
      ],
      "name": "getPriceWithDecimals",
      "outputs": [
        {
          "internalType": "uint256",
          "name": "price",
          "type": "uint256"
        },
        {
          "internalType": "uint8",
          "name": "decimals",
          "type": "uint8"
        }
      ],
      "stateMutability": "view",
      "type": "function"
    },
    {
      "inputs": [
        {
          "internalType": "address",
          "name": "token",
          "type": "address"
        }
      ],
      "name": "hasPriceFeed",
      "outputs": [
        {
          "internalType": "bool",
          "name": "",
          "type": "bool"
        }
      ],
      "stateMutability": "view",
      "type": "function"
    },
    {
      "inputs": [
        {
          "internalType": "address",
          "name": "",
          "type": "address"
        }
      ],
      "name": "lastUpdateTime",
      "outputs": [
        {
          "internalType": "uint256",
          "name": "",
          "type": "uint256"
        }
      ],
      "stateMutability": "view",
      "type": "function"
    },
    {
      "inputs": [],
      "name": "owner",
      "outputs": [
        {
          "internalType": "address",
          "name": "",
          "type": "address"
        }
      ],
      "stateMutability": "view",
      "type": "function"
    },
    {
      "inputs": [],
      "name": "pause",
      "outputs": [],
      "stateMutability": "nonpayable",
      "type": "function"
    },
    {
      "inputs": [],
      "name": "paused",
      "outputs": [
        {
          "internalType": "bool",
          "name": "",
          "type": "bool"
        }
      ],
      "stateMutability": "view",
      "type": "function"
    },
    {
      "inputs": [
        {
          "internalType": "address",
          "name": "",
          "type": "address"
        }
      ],
      "name": "priceFeeds",
      "outputs": [
        {
          "internalType": "address",
          "name": "",
          "type": "address"
        }
      ],
      "stateMutability": "view",
      "type": "function"
    },
    {
      "inputs": [
        {
          "internalType": "address",
          "name": "token",
          "type": "address"
        }
      ],
      "name": "removePriceFeed",
      "outputs": [],
      "stateMutability": "nonpayable",
      "type": "function"
    },
    {
      "inputs": [],
      "name": "renounceOwnership",
      "outputs": [],
      "stateMutability": "nonpayable",
      "type": "function"
    },
    {
      "inputs": [
        {
          "internalType": "address",
          "name": "token",
          "type": "address"
        },
        {
          "internalType": "uint256",
          "name": "price",
          "type": "uint256"
        }
      ],
      "name": "setFallbackPrice",
      "outputs": [],
      "stateMutability": "nonpayable",
      "type": "function"
    },
    {
      "inputs": [
        {
          "internalType": "address",
          "name": "token",
          "type": "address"
        },
        {
          "internalType": "address",
          "name": "priceFeed",
          "type": "address"
        }
      ],
      "name": "setPriceFeed",
      "outputs": [],
      "stateMutability": "nonpayable",
      "type": "function"
    },
    {
      "inputs": [
        {
          "internalType": "address",
          "name": "newOwner",
          "type": "address"
        }
      ],
      "name": "transferOwnership",
      "outputs": [],
      "stateMutability": "nonpayable",
      "type": "function"
    },
    {
      "inputs": [],
      "name": "unpause",
      "outputs": [],
      "stateMutability": "nonpayable",
      "type": "function"
    },
    {
      "inputs": [
        {
          "internalType": "address",
          "name": "token",
          "type": "address"
        },
        {
          "internalType": "uint256",
          "name": "price",
          "type": "uint256"
        }
      ],
      "name": "updateFallbackPrice",
      "outputs": [],
      "stateMutability": "nonpayable",
      "type": "function"
    }
  ],
  "bytecode": "0x6080604052346200002657620000146200002b565b604051611649620001c6823961164990f35b600080fd5b620000363362000038565b565b62000036906200008e565b6200005662000053620000539290565b90565b6001600160a01b031690565b620000539062000043565b620000789062000056565b9052565b6020810192916200003691906200006d565b6200009a600062000062565b620000a58162000056565b620000b08362000056565b14620000c25750620000369062000163565b620000e890620000d160405190565b631e4fbdf760e01b8152918291600483016200007c565b0390fd5b620000539062000056565b620000539054620000ec565b620000539062000056906001600160a01b031682565b620000539062000103565b620000539062000119565b9062000143620000536200015f9262000124565b82546001600160a01b0319166001600160a01b03919091161790565b9055565b6200016f6000620000f7565b906200017d8160006200012f565b620001b4620001ad7f8be0079c531659141344cd1fd0a4f28419497f9722a3daafe3b4186f6b6457e09362000124565b9162000124565b91620001bf60405190565b600090a356fe6080604052600436101561001257600080fd5b60003560e01c80630b7983a2146101625780631c1ec22b1461015d578063241d3a0b146101585780632ce9aead146101535780633f4ba83a1461014e57806341976e09146101495780635c975abb14610144578063715018a61461013f57806376e112861461013a57806380536e1c146101355780638456cb59146101305780638da5cb5b1461012b5780639dcb511a14610126578063a1c7ffb314610121578063b21eb1e61461011c578063badcdc9f14610117578063bd3be27c14610112578063bd58fe561461010d578063d9113d7114610108578063f2fde38b146101035763fceb0024036101a257610695565b61067d565b610664565b610649565b61062e565b6105ef565b610598565b610570565b610494565b610422565b61040a565b6103ce565b6103b5565b61037a565b61035f565b610344565b61032c565b610306565b6102c9565b610231565b6101ca565b73ffffffffffffffffffffffffffffffffffffffff1690565b90565b73ffffffffffffffffffffffffffffffffffffffff81165b036101a257565b600080fd5b905035906101b482610183565b565b906020828203126101a257610180916101a7565b346101a2576101f76101e56101e03660046101b6565b6110a4565b60405191829182901515815260200190565b0390f35b8061019b565b905035906101b4826101fb565b91906040838203126101a2576101809061022881856101a7565b93602001610201565b346101a25761024a61024436600461020e565b9061107b565b604051005b6101676101806101809273ffffffffffffffffffffffffffffffffffffffff1690565b6101809061024f565b61018090610272565b9061028e9061027b565b600052602052604060002090565b610180916008021c81565b90610180915461029c565b610180906102c4600291600092610284565b6102a7565b346101a2576101f76102e46102df3660046101b6565b6102b2565b6040519182918290815260200190565b610180906102c4600391600092610284565b346101a2576101f76102e461031c3660046101b6565b6102f4565b60009103126101a257565b346101a25761033c366004610321565b61024a6111f2565b346101a2576101f76102e461035a3660046101b6565b610978565b346101a25761036f366004610321565b6101f76101e56108f7565b346101a25761038a366004610321565b61024a610702565b91906040838203126101a257610180906103ac81856101a7565b936020016101a7565b346101a25761024a6103c8366004610392565b90610e45565b346101a2576103e66103e13660046101b6565b610c7e565b906101f76103f360405190565b9283928390815260ff909116602082015260400190565b346101a25761041a366004610321565b61024a61110f565b346101a257610432366004610321565b6101f761043d6106c0565b6040515b9182918273ffffffffffffffffffffffffffffffffffffffff909116815260200190565b610180916008021c610167565b906101809154610465565b6101809061048f600191600092610284565b610472565b346101a2576101f761043d6104aa3660046101b6565b61047d565b909182601f830112156101a25781359167ffffffffffffffff83116101a25760200192602083028401116101a257565b906020828203126101a257813567ffffffffffffffff81116101a25761050592016104af565b9091565b90610529610522610518845190565b8084529260200190565b9260200190565b9060005b81811061053a5750505090565b9091926105576105506001928651815260200190565b9460200190565b92910161052d565b602080825261018092910190610509565b346101a2576101f761058c6105863660046104df565b906113b9565b6040519182918261055f565b346101a2576101f761043d6105ae3660046101b6565b6110ed565b6080818303126101a2576105c782826101a7565b926101806105d884602085016101a7565b936105e68160408601610201565b93606001610201565b346101a2576101f76102e46106053660046105b3565b9291909161150c565b6101806101806101809290565b610180610e1061060e565b61018061061b565b346101a25761063e366004610321565b6101f76102e4610626565b346101a2576101f76102e461065f3660046101b6565b610b9d565b346101a25761024a61067736600461020e565b90610f64565b346101a25761024a6106903660046101b6565b610840565b346101a25761024a6106a83660046101b6565b61109b565b61018090610167565b61018090546106ad565b61018060006106b6565b6106d261070a565b6101b46106f0565b6101676101806101809290565b610180906106da565b6101b46106fd60006106e7565b610886565b6101b46106ca565b6107126106c0565b3390610733825b9173ffffffffffffffffffffffffffffffffffffffff1690565b0361073b5750565b6107929061074860405190565b9182917f118cdaa70000000000000000000000000000000000000000000000000000000083526004830173ffffffffffffffffffffffffffffffffffffffff909116815260200190565b0390fd5b6101b4906107a261070a565b6107ac60006106e7565b73ffffffffffffffffffffffffffffffffffffffff811673ffffffffffffffffffffffffffffffffffffffff8316146107e957506101b490610886565b610792906107f660405190565b9182917f1e4fbdf70000000000000000000000000000000000000000000000000000000083526004830173ffffffffffffffffffffffffffffffffffffffff909116815260200190565b6101b490610796565b9073ffffffffffffffffffffffffffffffffffffffff905b9181191691161790565b9061087b6101806108829261027b565b8254610849565b9055565b61089060006106b6565b9061089c81600061086b565b6108cf6108c97f8be0079c531659141344cd1fd0a4f28419497f9722a3daafe3b4186f6b6457e09361027b565b9161027b565b916108d960405190565b600090a3565b6101809060a01c5b60ff1690565b61018090546108df565b61018060006108ed565b6101809081565b6101809054610901565b1561091957565b6040517f08c379a000000000000000000000000000000000000000000000000000000000815260206004820152601f60248201527f4f7261636c653a204e6f207072696365206665656420617661696c61626c65006044820152606490fd5b60016109f76107196109dd610994856109996109948288610284565b6106b6565b956109d860006109a8816106e7565b986109c873ffffffffffffffffffffffffffffffffffffffff8b16610719565b1415908115610a18575b50610912565b610284565b9273ffffffffffffffffffffffffffffffffffffffff1690565b14610a055761018090610b9d565b610a13610180916002610284565b610908565b9050610a38610a34610a2e610a13876002610284565b9261060e565b9190565b11386109d2565b7f4e487b7100000000000000000000000000000000000000000000000000000000600052604160045260246000fd5b90601f017fffffffffffffffffffffffffffffffffffffffffffffffffffffffffffffffe016810190811067ffffffffffffffff821117610aae57604052565b610a3f565b69ffffffffffffffffffff811661019b565b905051906101b482610ab3565b905051906101b4826101fb565b919060a0838203126101a257610af58184610ac5565b92610b038260208301610ad2565b92610180610b148460408501610ad2565b93610b228160608601610ad2565b93608001610ac5565b6040513d6000823e3d90fd5b15610b3e57565b6040517f08c379a000000000000000000000000000000000000000000000000000000000815260206004820152601560248201527f4f7261636c653a20496e76616c696420707269636500000000000000000000006044820152606490fd5b60a0610bc4610bbf610bbf610994610bdc95610bb7600090565b506001610284565b61027b565b63feaf968c90610bd360405190565b93849260e01b90565b825260049082905afa8015610c425761018091600091610c11575b50610c0c610c05600061060e565b8213610b37565b61060e565b610c32915060a03d8111610c3b575b610c2a8183610a6e565b810190610adf565b50505090610bf7565b503d610c20565b610b2b565b6108e76101806101809290565b60ff811661019b565b905051906101b482610c54565b906020828203126101a25761018091610c5d565b806001610c8e6109948383610284565b610c9e61071961016760006106e7565b14610d1d57610cbb610bbf610bbf610994610cca95602095610284565b63313ce56790610bd360405190565b825260049082905afa8015610c4257610cec91600091610cef575b5091610b9d565b91565b610d10915060203d8111610d16575b610d088183610a6e565b810190610c6a565b38610ce5565b503d610cfe565b5050610cec610a13610d2f6008610c47565b926002610284565b906101b491610d4461070a565b610dd5565b15610d5057565b6040517f08c379a000000000000000000000000000000000000000000000000000000000815260206004820152602260248201527f4f7261636c653a20496e76616c6964207072696365206665656420616464726560448201527f73730000000000000000000000000000000000000000000000000000000000006064820152608490fd5b90610e04610de661016760006106e7565b73ffffffffffffffffffffffffffffffffffffffff83161415610d49565b610e1881610e13846001610284565b61086b565b6108cf6108c97fa8abe0398416476db5b05737cd4da3b3cbde5012d978a6a6c3fd49d3217535369361027b565b906101b491610d37565b906101b491610e5c61070a565b610eb3565b907fffffffffffffffffffffffffffffffffffffffffffffffffffffffffffffffff90610861565b90610e996101806108829261060e565b8254610e61565b9081526040810192916101b49160200152565b90610ec8610ec1600061060e565b8211610b37565b610edc81610ed7846002610284565b610e89565b42610eec81610ed7856003610284565b610f167ff6942a0ab6b8d3d0b0f1042e35382d5faf2aae67de271b8171f1ac0567c480349361027b565b8093610f2160405190565b848152602090a27fb556fac599c3c70efb9ab1fa725ecace6c81cc48d1455f886607def065f3e0c091610f5f610f5660405190565b92839283610ea0565b0390a2565b906101b491610e4f565b906101b491610f7b61070a565b611027565b7f4e487b7100000000000000000000000000000000000000000000000000000000600052601160045260246000fd5b91908201809211610fbc57565b610f80565b15610fc857565b6040517f08c379a000000000000000000000000000000000000000000000000000000000815260206004820152601b60248201527f4f7261636c653a2055706461746520746f6f206672657175656e7400000000006044820152606490fd5b90611035610ec1600061060e565b42610eec81610ed785600361106c611064610180611056610a138686610284565b61105e61061b565b90610faf565b851015610fc1565b6109d887610ed7846002610284565b906101b491610f6e565b6101b49061109161070a565b610e0460006106e7565b6101b490611085565b6110b2610994826001610284565b6000906110c4610719610167846106e7565b14159182156110d257505090565b6110e9919250610a2e610a13610a34926002610284565b1190565b61099461018091610bb7600090565b61110461070a565b6101b46101b461119e565b6101b46110fc565b61111f6111a6565b6101b461115e565b9074ff00000000000000000000000000000000000000009060a01b610861565b9061115761018061088292151590565b8254611127565b61116a60016000611147565b336111997f62e78cea01bee320cd4e420270b5ea74000d11b0c9f74754ebdbfc544b05a2589161044160405190565b0390a1565b6101b4611117565b6111ae6108f7565b6111b457565b6040517fd93c0665000000000000000000000000000000000000000000000000000000008152600490fd5b6111e761070a565b6101b46101b461123f565b6101b46111df565b611202611247565b6101b4611210600080611147565b336111997f5db9ee0a495bf2e6ff9c91a7834c1ba4fdd244a5e8aa4e537bd38aeae4b073aa9161044160405190565b6101b46111fa565b6112566112526108f7565b1590565b61125c57565b6040517f8dfc202b000000000000000000000000000000000000000000000000000000008152600490fd5b906101b461129460405190565b9283610a6e565b67ffffffffffffffff8111610aae5760208091020190565b906112c56112c08361129b565b611287565b918252565b369037565b906101b46112e56112df846112b3565b9361129b565b7fffffffffffffffffffffffffffffffffffffffffffffffffffffffffffffffe001602084016112ca565b7fffffffffffffffffffffffffffffffffffffffffffffffffffffffffffffffff8114610fbc5760010190565b7f4e487b7100000000000000000000000000000000000000000000000000000000600052603260045260246000fd5b919081101561137c576020020190565b61133d565b3561018081610183565b906020828203126101a25761018091610ad2565b906113a8825190565b81101561137c576020809102010190565b816113c3836112cf565b9384906113d0600061060e565b855b8110156114a55761143f9060206113e83061027b565b6341976e099061141b6114046113ff868b8d61136c565b611381565b9261140e60405190565b9687948593849360e01b90565b835273ffffffffffffffffffffffffffffffffffffffff1660048301526024820190565b03915afa908115610c425761146b611470926113d294600091611477575b50611468838c61139f565b52565b611310565b90506113d0565b611498915060203d811161149e575b6114908183610a6e565b81019061138b565b3861145d565b503d611486565b50935093505050565b81810292918115918404141715610fbc57565b7f4e487b7100000000000000000000000000000000000000000000000000000000600052601260045260246000fd5b81156114fa570490565b6114c1565b91908203918211610fbc57565b90939291611540916000956115203061027b565b9060206341976e099361153260405190565b8097819261141b8860e01b90565b0381855afa918215610c4257611576956000936115ef575b5061141b6020939461156960405190565b9788948593849360e01b90565b03915afa908115610c425761159d936000926115cd575b5061159891926114ae565b6114f0565b908082116115a9575050565b6101809293506115bc61159891836114ff565b6115c761271061060e565b906114ae565b61159892506115e99060203d811161149e576114908183610a6e565b9161158d565b6020935061160c61141b91853d811161149e576114908183610a6e565b935061155856fea2646970667358221220462163f5fe422accb500f7329c88e496252bfd668910055daf2ba4700519650264736f6c63430008140033",
  "linkReferences": {},
  "deployedLinkReferences": {}
}