{
  "_format": "hh-sol-artifact-1",
  "contractName": "PriceOracle",
  "sourceName": "contracts/PriceOracle.sol",
  "abi": [
    {
      "inputs": [],
      "stateMutability": "nonpayable",
      "type": "constructor"
    },
    {
      "inputs": [],
      "name": "EnforcedPause",
      "type": "error"
    },
    {
      "inputs": [],
      "name": "ExpectedPause",
      "type": "error"
    },
    {
      "inputs": [],
      "name": "InvalidPrice",
      "type": "error"
    },
    {
      "inputs": [],
      "name": "InvalidPriceFeedAddress",
      "type": "error"
    },
    {
      "inputs": [],
      "name": "NoPriceFeedAvailable",
      "type": "error"
    },
    {
      "inputs": [
        {
          "internalType": "address",
          "name": "owner",
          "type": "address"
        }
      ],
      "name": "OwnableInvalidOwner",
      "type": "error"
    },
    {
      "inputs": [
        {
          "internalType": "address",
          "name": "account",
          "type": "address"
        }
      ],
      "name": "OwnableUnauthorizedAccount",
      "type": "error"
    },
    {
      "inputs": [],
      "name": "StalePrice",
      "type": "error"
    },
    {
      "inputs": [],
      "name": "StaleRound",
      "type": "error"
    },
    {
      "inputs": [],
      "name": "UpdateTooFrequent",
      "type": "error"
    },
    {
      "anonymous": false,
      "inputs": [
        {
          "indexed": true,
          "internalType": "address",
          "name": "token",
          "type": "address"
        },
        {
          "indexed": false,
          "internalType": "uint256",
          "name": "price",
          "type": "uint256"
        }
      ],
      "name": "FallbackPriceUpdated",
      "type": "event"
    },
    {
      "anonymous": false,
      "inputs": [
        {
          "indexed": true,
          "internalType": "address",
          "name": "previousOwner",
          "type": "address"
        },
        {
          "indexed": true,
          "internalType": "address",
          "name": "newOwner",
          "type": "address"
        }
      ],
      "name": "OwnershipTransferred",
      "type": "event"
    },
    {
      "anonymous": false,
      "inputs": [
        {
          "indexed": false,
          "internalType": "address",
          "name": "account",
          "type": "address"
        }
      ],
      "name": "Paused",
      "type": "event"
    },
    {
      "anonymous": false,
      "inputs": [
        {
          "indexed": true,
          "internalType": "address",
          "name": "token",
          "type": "address"
        },
        {
          "indexed": true,
          "internalType": "address",
          "name": "priceFeed",
          "type": "address"
        }
      ],
      "name": "PriceFeedUpdated",
      "type": "event"
    },
    {
      "anonymous": false,
      "inputs": [
        {
          "indexed": true,
          "internalType": "address",
          "name": "token",
          "type": "address"
        },
        {
          "indexed": false,
          "internalType": "uint256",
          "name": "price",
          "type": "uint256"
        },
        {
          "indexed": false,
          "internalType": "uint256",
          "name": "timestamp",
          "type": "uint256"
        }
      ],
      "name": "PriceUpdated",
      "type": "event"
    },
    {
      "anonymous": false,
      "inputs": [
        {
          "indexed": false,
          "internalType": "address",
          "name": "account",
          "type": "address"
        }
      ],
      "name": "Unpaused",
      "type": "event"
    },
    {
      "inputs": [],
      "name": "MAX_PRICE_AGE",
      "outputs": [
        {
          "internalType": "uint256",
          "name": "",
          "type": "uint256"
        }
      ],
      "stateMutability": "view",
      "type": "function"
    },
    {
      "inputs": [],
      "name": "MIN_UPDATE_INTERVAL",
      "outputs": [
        {
          "internalType": "uint256",
          "name": "",
          "type": "uint256"
        }
      ],
      "stateMutability": "view",
      "type": "function"
    },
    {
      "inputs": [
        {
          "internalType": "address",
          "name": "tokenIn",
          "type": "address"
        },
        {
          "internalType": "address",
          "name": "tokenOut",
          "type": "address"
        },
        {
          "internalType": "uint256",
          "name": "amountIn",
          "type": "uint256"
        },
        {
          "internalType": "uint256",
          "name": "amountOut",
          "type": "uint256"
        }
      ],
      "name": "calculatePriceImpact",
      "outputs": [
        {
          "internalType": "uint256",
          "name": "impact",
          "type": "uint256"
        }
      ],
      "stateMutability": "view",
      "type": "function"
    },
    {
      "inputs": [
        {
          "internalType": "address",
          "name": "",
          "type": "address"
        }
      ],
      "name": "fallbackPrices",
      "outputs": [
        {
          "internalType": "uint256",
          "name": "",
          "type": "uint256"
        }
      ],
      "stateMutability": "view",
      "type": "function"
    },
    {
      "inputs": [
        {
          "internalType": "address",
          "name": "token",
          "type": "address"
        }
      ],
      "name": "getChainlinkPrice",
      "outputs": [
        {
          "internalType": "uint256",
          "name": "",
          "type": "uint256"
        }
      ],
      "stateMutability": "view",
      "type": "function"
    },
    {
      "inputs": [
        {
          "internalType": "address[]",
          "name": "tokens",
          "type": "address[]"
        }
      ],
      "name": "getMultiplePrices",
      "outputs": [
        {
          "internalType": "uint256[]",
          "name": "prices",
          "type": "uint256[]"
        }
      ],
      "stateMutability": "view",
      "type": "function"
    },
    {
      "inputs": [
        {
          "internalType": "address",
          "name": "token",
          "type": "address"
        }
      ],
      "name": "getPrice",
      "outputs": [
        {
          "internalType": "uint256",
          "name": "",
          "type": "uint256"
        }
      ],
      "stateMutability": "view",
      "type": "function"
    },
    {
      "inputs": [
        {
          "internalType": "address",
          "name": "token",
          "type": "address"
        }
      ],
      "name": "getPriceFeedAddress",
      "outputs": [
        {
          "internalType": "address",
          "name": "",
          "type": "address"
        }
      ],
      "stateMutability": "view",
      "type": "function"
    },
    {
      "inputs": [
        {
          "internalType": "address",
          "name": "token",
          "type": "address"
        }
      ],
      "name": "getPriceWithDecimals",
      "outputs": [
        {
          "internalType": "uint256",
          "name": "price",
          "type": "uint256"
        },
        {
          "internalType": "uint8",
          "name": "decimals",
          "type": "uint8"
        }
      ],
      "stateMutability": "view",
      "type": "function"
    },
    {
      "inputs": [
        {
          "internalType": "address",
          "name": "token",
          "type": "address"
        }
      ],
      "name": "hasPriceFeed",
      "outputs": [
        {
          "internalType": "bool",
          "name": "",
          "type": "bool"
        }
      ],
      "stateMutability": "view",
      "type": "function"
    },
    {
      "inputs": [
        {
          "internalType": "address",
          "name": "",
          "type": "address"
        }
      ],
      "name": "lastUpdateTime",
      "outputs": [
        {
          "internalType": "uint256",
          "name": "",
          "type": "uint256"
        }
      ],
      "stateMutability": "view",
      "type": "function"
    },
    {
      "inputs": [],
      "name": "owner",
      "outputs": [
        {
          "internalType": "address",
          "name": "",
          "type": "address"
        }
      ],
      "stateMutability": "view",
      "type": "function"
    },
    {
      "inputs": [],
      "name": "pause",
      "outputs": [],
      "stateMutability": "nonpayable",
      "type": "function"
    },
    {
      "inputs": [],
      "name": "paused",
      "outputs": [
        {
          "internalType": "bool",
          "name": "",
          "type": "bool"
        }
      ],
      "stateMutability": "view",
      "type": "function"
    },
    {
      "inputs": [
        {
          "internalType": "address",
          "name": "",
          "type": "address"
        }
      ],
      "name": "priceFeeds",
      "outputs": [
        {
          "internalType": "address",
          "name": "",
          "type": "address"
        }
      ],
      "stateMutability": "view",
      "type": "function"
    },
    {
      "inputs": [
        {
          "internalType": "address",
          "name": "token",
          "type": "address"
        }
      ],
      "name": "removePriceFeed",
      "outputs": [],
      "stateMutability": "nonpayable",
      "type": "function"
    },
    {
      "inputs": [],
      "name": "renounceOwnership",
      "outputs": [],
      "stateMutability": "nonpayable",
      "type": "function"
    },
    {
      "inputs": [
        {
          "internalType": "address",
          "name": "token",
          "type": "address"
        },
        {
          "internalType": "uint256",
          "name": "price",
          "type": "uint256"
        }
      ],
      "name": "setFallbackPrice",
      "outputs": [],
      "stateMutability": "nonpayable",
      "type": "function"
    },
    {
      "inputs": [
        {
          "internalType": "address",
          "name": "token",
          "type": "address"
        },
        {
          "internalType": "address",
          "name": "priceFeed",
          "type": "address"
        }
      ],
      "name": "setPriceFeed",
      "outputs": [],
      "stateMutability": "nonpayable",
      "type": "function"
    },
    {
      "inputs": [
        {
          "internalType": "address",
          "name": "newOwner",
          "type": "address"
        }
      ],
      "name": "transferOwnership",
      "outputs": [],
      "stateMutability": "nonpayable",
      "type": "function"
    },
    {
      "inputs": [],
      "name": "unpause",
      "outputs": [],
      "stateMutability": "nonpayable",
      "type": "function"
    },
    {
      "inputs": [
        {
          "internalType": "address",
          "name": "token",
          "type": "address"
        },
        {
          "internalType": "uint256",
          "name": "price",
          "type": "uint256"
        }
      ],
      "name": "updateFallbackPrice",
      "outputs": [],
      "stateMutability": "nonpayable",
      "type": "function"
    }
  ],
  "bytecode": "0x6080604052346200002657620000146200002b565b6040516115d1620001c682396115d190f35b600080fd5b620000363362000038565b565b62000036906200008e565b6200005662000053620000539290565b90565b6001600160a01b031690565b620000539062000043565b620000789062000056565b9052565b6020810192916200003691906200006d565b6200009a600062000062565b620000a58162000056565b620000b08362000056565b14620000c25750620000369062000163565b620000e890620000d160405190565b631e4fbdf760e01b8152918291600483016200007c565b0390fd5b620000539062000056565b620000539054620000ec565b620000539062000056906001600160a01b031682565b620000539062000103565b620000539062000119565b9062000143620000536200015f9262000124565b82546001600160a01b0319166001600160a01b03919091161790565b9055565b6200016f6000620000f7565b906200017d8160006200012f565b620001b4620001ad7f8be0079c531659141344cd1fd0a4f28419497f9722a3daafe3b4186f6b6457e09362000124565b9162000124565b91620001bf60405190565b600090a356fe6080604052600436101561001257600080fd5b60003560e01c80630b7983a21461016d5780631c1ec22b14610168578063241d3a0b146101635780632ce9aead1461015e5780633f4ba83a1461015957806341976e09146101545780635c975abb1461014f578063715018a61461014a57806376e112861461014557806380536e1c146101405780638456cb591461013b5780638da5cb5b146101365780639d7f7e861461011d5780639dcb511a14610131578063a1c7ffb31461012c578063b21eb1e614610127578063badcdc9f14610122578063bd3be27c1461011d578063bd58fe5614610118578063d9113d7114610113578063f2fde38b1461010e5763fceb0024036101ad576106a0565b610688565b61066f565b610654565b610490565b610635565b6105de565b6105b6565b6104da565b61042d565b610415565b6103d9565b6103c0565b610385565b61036a565b61034f565b610337565b610311565b6102d4565b61023c565b6101d5565b73ffffffffffffffffffffffffffffffffffffffff1690565b90565b73ffffffffffffffffffffffffffffffffffffffff81165b036101ad57565b600080fd5b905035906101bf8261018e565b565b906020828203126101ad5761018b916101b2565b346101ad576102026101f06101eb3660046101c1565b611039565b60405191829182901515815260200190565b0390f35b806101a6565b905035906101bf82610206565b91906040838203126101ad5761018b9061023381856101b2565b9360200161020c565b346101ad5761025561024f366004610219565b90611001565b604051005b61017261018b61018b9273ffffffffffffffffffffffffffffffffffffffff1690565b61018b9061025a565b61018b9061027d565b9061029990610286565b600052602052604060002090565b61018b916008021c81565b9061018b91546102a7565b61018b906102cf60029160009261028f565b6102b2565b346101ad576102026102ef6102ea3660046101c1565b6102bd565b6040519182918290815260200190565b61018b906102cf60039160009261028f565b346101ad576102026102ef6103273660046101c1565b6102ff565b60009103126101ad57565b346101ad5761034736600461032c565b610255611187565b346101ad576102026102ef6103653660046101c1565b61091d565b346101ad5761037a36600461032c565b6102026101f0610902565b346101ad5761039536600461032c565b61025561070d565b91906040838203126101ad5761018b906103b781856101b2565b936020016101b2565b346101ad576102556103d336600461039d565b90610e3a565b346101ad576103f16103ec3660046101c1565b610cde565b906102026103fe60405190565b9283928390815260ff909116602082015260400190565b346101ad5761042536600461032c565b6102556110a4565b346101ad5761043d36600461032c565b6102026104486106cb565b6040515b9182918273ffffffffffffffffffffffffffffffffffffffff909116815260200190565b61018b61018b61018b9290565b61018b610e10610470565b61018b61047d565b346101ad576104a036600461032c565b6102026102ef610488565b61018b916008021c610172565b9061018b91546104ab565b61018b906104d560019160009261028f565b6104b8565b346101ad576102026104486104f03660046101c1565b6104c3565b909182601f830112156101ad5781359167ffffffffffffffff83116101ad5760200192602083028401116101ad57565b906020828203126101ad57813567ffffffffffffffff81116101ad5761054b92016104f5565b9091565b9061056f61056861055e845190565b8084529260200190565b9260200190565b9060005b8181106105805750505090565b90919261059d6105966001928651815260200190565b9460200190565b929101610573565b602080825261018b9291019061054f565b346101ad576102026105d26105cc366004610525565b9061134e565b604051918291826105a5565b346101ad576102026104486105f43660046101c1565b611082565b6080818303126101ad5761060d82826101b2565b9261018b61061e84602085016101b2565b9361062c816040860161020c565b9360600161020c565b346101ad576102026102ef61064b3660046105f9565b92919091611494565b346101ad576102026102ef61066a3660046101c1565b610b43565b346101ad57610255610682366004610219565b90610f55565b346101ad5761025561069b3660046101c1565b61084b565b346101ad576102556106b33660046101c1565b611030565b61018b90610172565b61018b90546106b8565b61018b60006106c1565b6106dd610715565b6101bf6106fb565b61017261018b61018b9290565b61018b906106e5565b6101bf61070860006106f2565b610891565b6101bf6106d5565b61071d6106cb565b339061073e825b9173ffffffffffffffffffffffffffffffffffffffff1690565b036107465750565b61079d9061075360405190565b9182917f118cdaa70000000000000000000000000000000000000000000000000000000083526004830173ffffffffffffffffffffffffffffffffffffffff909116815260200190565b0390fd5b6101bf906107ad610715565b6107b760006106f2565b73ffffffffffffffffffffffffffffffffffffffff811673ffffffffffffffffffffffffffffffffffffffff8316146107f457506101bf90610891565b61079d9061080160405190565b9182917f1e4fbdf70000000000000000000000000000000000000000000000000000000083526004830173ffffffffffffffffffffffffffffffffffffffff909116815260200190565b6101bf906107a1565b9073ffffffffffffffffffffffffffffffffffffffff905b9181191691161790565b9061088661018b61088d92610286565b8254610854565b9055565b61089b60006106c1565b906108a7816000610876565b6108da6108d47f8be0079c531659141344cd1fd0a4f28419497f9722a3daafe3b4186f6b6457e093610286565b91610286565b916108e460405190565b600090a3565b61018b9060a01c5b60ff1690565b61018b90546108ea565b61018b60006108f8565b61018b9081565b61018b905461090c565b600161093161092c838361028f565b6106c1565b90600061093d816106f2565b9261095d73ffffffffffffffffffffffffffffffffffffffff8516610724565b1490816109e3575b506109b85761072461097d61092c856109979461028f565b9273ffffffffffffffffffffffffffffffffffffffff1690565b146109a55761018b90610b43565b6109b361018b91600261028f565b610913565b6040517fc2f41ade000000000000000000000000000000000000000000000000000000008152600490fd5b9050610a036109ff6109f96109b387600261028f565b92610470565b9190565b1438610965565b7f4e487b7100000000000000000000000000000000000000000000000000000000600052604160045260246000fd5b90601f017fffffffffffffffffffffffffffffffffffffffffffffffffffffffffffffffe016810190811067ffffffffffffffff821117610a7957604052565b610a0a565b69ffffffffffffffffffff81166101a6565b905051906101bf82610a7e565b905051906101bf82610206565b919060a0838203126101ad57610ac08184610a90565b92610ace8260208301610a9d565b9261018b610adf8460408501610a9d565b93610aed8160608601610a9d565b93608001610a90565b6040513d6000823e3d90fd5b7f4e487b7100000000000000000000000000000000000000000000000000000000600052601160045260246000fd5b91908203918211610b3e57565b610b02565b60a0610b6a610b65610b6561092c610b8295610b5d600090565b50600161028f565b610286565b63feaf968c90610b7960405190565b93849260e01b90565b825260049082905afa8015610ca257600091829182918291610c6c575b50610baa6000610470565b841315610c425769ffffffffffffffffffff908116911610610c1757610bd09042610b31565b610bde6109ff61018b61047d565b11610bec5761018b90610470565b6040517f19abf40e000000000000000000000000000000000000000000000000000000008152600490fd5b6040517f04d28871000000000000000000000000000000000000000000000000000000008152600490fd5b6040517ebfc921000000000000000000000000000000000000000000000000000000008152600490fd5b92505050610c91915060a03d8111610c9b575b610c898183610a39565b810190610aaa565b9193909293610b9f565b503d610c7f565b610af6565b6108f261018b61018b9290565b60ff81166101a6565b905051906101bf82610cb4565b906020828203126101ad5761018b91610cbd565b806001610cee61092c838361028f565b610cfe61072461017260006106f2565b14610d7d57610d1b610b65610b6561092c610d2a9560209561028f565b63313ce56790610b7960405190565b825260049082905afa8015610ca257610d4c91600091610d4f575b5091610b43565b91565b610d70915060203d8111610d76575b610d688183610a39565b810190610cca565b38610d45565b503d610d5e565b5050610d4c6109b3610d8f6008610ca7565b92600261028f565b906101bf91610da4610715565b90610db261017260006106f2565b73ffffffffffffffffffffffffffffffffffffffff821614610e0f57610de281610ddd84600161028f565b610876565b6108da6108d47fa8abe0398416476db5b05737cd4da3b3cbde5012d978a6a6c3fd49d32175353693610286565b6040517fe3588063000000000000000000000000000000000000000000000000000000008152600490fd5b906101bf91610d97565b906101bf91610e51610715565b610ea8565b907fffffffffffffffffffffffffffffffffffffffffffffffffffffffffffffffff9061086c565b90610e8e61018b61088d92610470565b8254610e56565b9081526040810192916101bf9160200152565b90610eb36000610470565b8114610c4257610ecd81610ec884600261028f565b610e7e565b42610edd81610ec885600361028f565b610f077ff6942a0ab6b8d3d0b0f1042e35382d5faf2aae67de271b8171f1ac0567c4803493610286565b8093610f1260405190565b848152602090a27fb556fac599c3c70efb9ab1fa725ecace6c81cc48d1455f886607def065f3e0c091610f50610f4760405190565b92839283610e95565b0390a2565b906101bf91610e44565b906101bf91610f6c610715565b610f7e565b91908201809211610b3e57565b90610f896000610470565b8114610c4257426003610fb361018b610fa56109b3878561028f565b610fad61047d565b90610f71565b8210610fd65781610ec885610edd93610fd187610ec884600261028f565b61028f565b6040517f53f7a6ee000000000000000000000000000000000000000000000000000000008152600490fd5b906101bf91610f5f565b6101bf90611017610715565b61102160006106f2565b610de281610ddd84600161028f565b6101bf9061100b565b61104761092c82600161028f565b600090611059610724610172846106f2565b141591821561106757505090565b61107e9192506109f96109b36109ff92600261028f565b1190565b61092c61018b91610b5d600090565b611099610715565b6101bf6101bf611133565b6101bf611091565b6110b461113b565b6101bf6110f3565b9074ff00000000000000000000000000000000000000009060a01b61086c565b906110ec61018b61088d92151590565b82546110bc565b6110ff600160006110dc565b3361112e7f62e78cea01bee320cd4e420270b5ea74000d11b0c9f74754ebdbfc544b05a2589161044c60405190565b0390a1565b6101bf6110ac565b611143610902565b61114957565b6040517fd93c0665000000000000000000000000000000000000000000000000000000008152600490fd5b61117c610715565b6101bf6101bf6111d4565b6101bf611174565b6111976111dc565b6101bf6111a56000806110dc565b3361112e7f5db9ee0a495bf2e6ff9c91a7834c1ba4fdd244a5e8aa4e537bd38aeae4b073aa9161044c60405190565b6101bf61118f565b6111eb6111e7610902565b1590565b6111f157565b6040517f8dfc202b000000000000000000000000000000000000000000000000000000008152600490fd5b906101bf61122960405190565b9283610a39565b67ffffffffffffffff8111610a795760208091020190565b9061125a61125583611230565b61121c565b918252565b369037565b906101bf61127a61127484611248565b93611230565b7fffffffffffffffffffffffffffffffffffffffffffffffffffffffffffffffe0016020840161125f565b7fffffffffffffffffffffffffffffffffffffffffffffffffffffffffffffffff8114610b3e5760010190565b7f4e487b7100000000000000000000000000000000000000000000000000000000600052603260045260246000fd5b9190811015611311576020020190565b6112d2565b3561018b8161018e565b906020828203126101ad5761018b91610a9d565b9061133d825190565b811015611311576020809102010190565b8161135883611264565b9384906113656000610470565b855b81101561143a576113d490602061137d30610286565b6341976e09906113b0611399611394868b8d611301565b611316565b926113a360405190565b9687948593849360e01b90565b835273ffffffffffffffffffffffffffffffffffffffff1660048301526024820190565b03915afa908115610ca257611400611405926113679460009161140c575b506113fd838c611334565b52565b6112a5565b9050611365565b61142d915060203d8111611433575b6114258183610a39565b810190611320565b386113f2565b503d61141b565b50935093505050565b81810292918115918404141715610b3e57565b7f4e487b7100000000000000000000000000000000000000000000000000000000600052601260045260246000fd5b811561148f570490565b611456565b909392916114c8916000956114a830610286565b9060206341976e09936114ba60405190565b809781926113b08860e01b90565b0381855afa918215610ca2576114fe95600093611577575b506113b0602093946114f160405190565b9788948593849360e01b90565b03915afa908115610ca25761152593600092611555575b506115209192611443565b611485565b90808211611531575050565b61018b9293506115446115209183610b31565b61154f612710610470565b90611443565b61152092506115719060203d8111611433576114258183610a39565b91611515565b602093506115946113b091853d8111611433576114258183610a39565b93506114e056fea26469706673582212200011ead04cef37bfefc2266c75b4c80e43a7fdd73089a6a27f132e3e9a03c66a64736f6c63430008140033",
  "linkReferences": {},
  "deployedLinkReferences": {}
}