{
  "_format": "hh-sol-artifact-1",
  "contractName": "PriceOracle",
  "sourceName": "contracts/PriceOracle.sol",
  "abi": [
    {
      "inputs": [],
      "stateMutability": "nonpayable",
      "type": "constructor"
    },
    {
      "inputs": [],
      "name": "EnforcedPause",
      "type": "error"
    },
    {
      "inputs": [],
      "name": "ExpectedPause",
      "type": "error"
    },
    {
      "inputs": [
        {
          "internalType": "address",
          "name": "owner",
          "type": "address"
        }
      ],
      "name": "OwnableInvalidOwner",
      "type": "error"
    },
    {
      "inputs": [
        {
          "internalType": "address",
          "name": "account",
          "type": "address"
        }
      ],
      "name": "OwnableUnauthorizedAccount",
      "type": "error"
    },
    {
      "anonymous": false,
      "inputs": [
        {
          "indexed": true,
          "internalType": "address",
          "name": "token",
          "type": "address"
        },
        {
          "indexed": false,
          "internalType": "uint256",
          "name": "price",
          "type": "uint256"
        }
      ],
      "name": "FallbackPriceUpdated",
      "type": "event"
    },
    {
      "anonymous": false,
      "inputs": [
        {
          "indexed": true,
          "internalType": "address",
          "name": "previousOwner",
          "type": "address"
        },
        {
          "indexed": true,
          "internalType": "address",
          "name": "newOwner",
          "type": "address"
        }
      ],
      "name": "OwnershipTransferred",
      "type": "event"
    },
    {
      "anonymous": false,
      "inputs": [
        {
          "indexed": false,
          "internalType": "address",
          "name": "account",
          "type": "address"
        }
      ],
      "name": "Paused",
      "type": "event"
    },
    {
      "anonymous": false,
      "inputs": [
        {
          "indexed": true,
          "internalType": "address",
          "name": "token",
          "type": "address"
        },
        {
          "indexed": true,
          "internalType": "address",
          "name": "priceFeed",
          "type": "address"
        }
      ],
      "name": "PriceFeedUpdated",
      "type": "event"
    },
    {
      "anonymous": false,
      "inputs": [
        {
          "indexed": true,
          "internalType": "address",
          "name": "token",
          "type": "address"
        },
        {
          "indexed": false,
          "internalType": "uint256",
          "name": "price",
          "type": "uint256"
        },
        {
          "indexed": false,
          "internalType": "uint256",
          "name": "timestamp",
          "type": "uint256"
        }
      ],
      "name": "PriceUpdated",
      "type": "event"
    },
    {
      "anonymous": false,
      "inputs": [
        {
          "indexed": false,
          "internalType": "address",
          "name": "account",
          "type": "address"
        }
      ],
      "name": "Unpaused",
      "type": "event"
    },
    {
      "inputs": [],
      "name": "MIN_UPDATE_INTERVAL",
      "outputs": [
        {
          "internalType": "uint256",
          "name": "",
          "type": "uint256"
        }
      ],
      "stateMutability": "view",
      "type": "function"
    },
    {
      "inputs": [
        {
          "internalType": "address",
          "name": "tokenIn",
          "type": "address"
        },
        {
          "internalType": "address",
          "name": "tokenOut",
          "type": "address"
        },
        {
          "internalType": "uint256",
          "name": "amountIn",
          "type": "uint256"
        },
        {
          "internalType": "uint256",
          "name": "amountOut",
          "type": "uint256"
        }
      ],
      "name": "calculatePriceImpact",
      "outputs": [
        {
          "internalType": "uint256",
          "name": "impact",
          "type": "uint256"
        }
      ],
      "stateMutability": "view",
      "type": "function"
    },
    {
      "inputs": [
        {
          "internalType": "address",
          "name": "",
          "type": "address"
        }
      ],
      "name": "fallbackPrices",
      "outputs": [
        {
          "internalType": "uint256",
          "name": "",
          "type": "uint256"
        }
      ],
      "stateMutability": "view",
      "type": "function"
    },
    {
      "inputs": [
        {
          "internalType": "address",
          "name": "token",
          "type": "address"
        }
      ],
      "name": "getChainlinkPrice",
      "outputs": [
        {
          "internalType": "uint256",
          "name": "",
          "type": "uint256"
        }
      ],
      "stateMutability": "view",
      "type": "function"
    },
    {
      "inputs": [
        {
          "internalType": "address[]",
          "name": "tokens",
          "type": "address[]"
        }
      ],
      "name": "getMultiplePrices",
      "outputs": [
        {
          "internalType": "uint256[]",
          "name": "prices",
          "type": "uint256[]"
        }
      ],
      "stateMutability": "view",
      "type": "function"
    },
    {
      "inputs": [
        {
          "internalType": "address",
          "name": "token",
          "type": "address"
        }
      ],
      "name": "getPrice",
      "outputs": [
        {
          "internalType": "uint256",
          "name": "",
          "type": "uint256"
        }
      ],
      "stateMutability": "view",
      "type": "function"
    },
    {
      "inputs": [
        {
          "internalType": "address",
          "name": "token",
          "type": "address"
        }
      ],
      "name": "getPriceFeedAddress",
      "outputs": [
        {
          "internalType": "address",
          "name": "",
          "type": "address"
        }
      ],
      "stateMutability": "view",
      "type": "function"
    },
    {
      "inputs": [
        {
          "internalType": "address",
          "name": "token",
          "type": "address"
        }
      ],
      "name": "getPriceWithDecimals",
      "outputs": [
        {
          "internalType": "uint256",
          "name": "price",
          "type": "uint256"
        },
        {
          "internalType": "uint8",
          "name": "decimals",
          "type": "uint8"
        }
      ],
      "stateMutability": "view",
      "type": "function"
    },
    {
      "inputs": [
        {
          "internalType": "address",
          "name": "token",
          "type": "address"
        }
      ],
      "name": "hasPriceFeed",
      "outputs": [
        {
          "internalType": "bool",
          "name": "",
          "type": "bool"
        }
      ],
      "stateMutability": "view",
      "type": "function"
    },
    {
      "inputs": [
        {
          "internalType": "address",
          "name": "",
          "type": "address"
        }
      ],
      "name": "lastUpdateTime",
      "outputs": [
        {
          "internalType": "uint256",
          "name": "",
          "type": "uint256"
        }
      ],
      "stateMutability": "view",
      "type": "function"
    },
    {
      "inputs": [],
      "name": "owner",
      "outputs": [
        {
          "internalType": "address",
          "name": "",
          "type": "address"
        }
      ],
      "stateMutability": "view",
      "type": "function"
    },
    {
      "inputs": [],
      "name": "pause",
      "outputs": [],
      "stateMutability": "nonpayable",
      "type": "function"
    },
    {
      "inputs": [],
      "name": "paused",
      "outputs": [
        {
          "internalType": "bool",
          "name": "",
          "type": "bool"
        }
      ],
      "stateMutability": "view",
      "type": "function"
    },
    {
      "inputs": [
        {
          "internalType": "address",
          "name": "",
          "type": "address"
        }
      ],
      "name": "priceFeeds",
      "outputs": [
        {
          "internalType": "address",
          "name": "",
          "type": "address"
        }
      ],
      "stateMutability": "view",
      "type": "function"
    },
    {
      "inputs": [
        {
          "internalType": "address",
          "name": "token",
          "type": "address"
        }
      ],
      "name": "removePriceFeed",
      "outputs": [],
      "stateMutability": "nonpayable",
      "type": "function"
    },
    {
      "inputs": [],
      "name": "renounceOwnership",
      "outputs": [],
      "stateMutability": "nonpayable",
      "type": "function"
    },
    {
      "inputs": [
        {
          "internalType": "address",
          "name": "token",
          "type": "address"
        },
        {
          "internalType": "uint256",
          "name": "price",
          "type": "uint256"
        }
      ],
      "name": "setFallbackPrice",
      "outputs": [],
      "stateMutability": "nonpayable",
      "type": "function"
    },
    {
      "inputs": [
        {
          "internalType": "address",
          "name": "token",
          "type": "address"
        },
        {
          "internalType": "address",
          "name": "priceFeed",
          "type": "address"
        }
      ],
      "name": "setPriceFeed",
      "outputs": [],
      "stateMutability": "nonpayable",
      "type": "function"
    },
    {
      "inputs": [
        {
          "internalType": "address",
          "name": "newOwner",
          "type": "address"
        }
      ],
      "name": "transferOwnership",
      "outputs": [],
      "stateMutability": "nonpayable",
      "type": "function"
    },
    {
      "inputs": [],
      "name": "unpause",
      "outputs": [],
      "stateMutability": "nonpayable",
      "type": "function"
    },
    {
      "inputs": [
        {
          "internalType": "address",
          "name": "token",
          "type": "address"
        },
        {
          "internalType": "uint256",
          "name": "price",
          "type": "uint256"
        }
      ],
      "name": "updateFallbackPrice",
      "outputs": [],
      "stateMutability": "nonpayable",
      "type": "function"
    }
  ],
  "bytecode": "0x6080806040523461007a5733156100645760008054336001600160a01b03198216811783556040519290916001600160a01b0316907f8be0079c531659141344cd1fd0a4f28419497f9722a3daafe3b4186f6b6457e09080a3610e9490816100808239f35b631e4fbdf760e01b815260006004820152602490fd5b600080fdfe608060408181526004918236101561001657600080fd5b600092833560e01c9182630b7983a214610b7e575081631c1ec22b14610a5c578163241d3a0b14610a245781632ce9aead146109ec5781633f4ba83a1461097e57816341976e09146109585781635c975abb14610933578163715018a6146108d957816376e112861461080957816380536e1c146107205781638456cb59146106ad5781638da5cb5b146106855781639dcb511a146104a3578163a1c7ffb3146104de578163b21eb1e6146104a3578163badcdc9f14610300578163bd3be27c146102e3578163bd58fe56146102b6578163d9113d7114610206578163f2fde38b1461017b575063fceb00241461010c57600080fd5b81903461017857602036600319011261017857610127610bd6565b61012f610c07565b6001600160a01b0316808352600160205290822080546001600160a01b03191690557fa8abe0398416476db5b05737cd4da3b3cbde5012d978a6a6c3fd49d3217535368280a380f35b50fd5b90503461020257602036600319011261020257610196610bd6565b9061019f610c07565b6001600160a01b039182169283156101ec57505082546001600160a01b0319811683178455167f8be0079c531659141344cd1fd0a4f28419497f9722a3daafe3b4186f6b6457e08380a380f35b51631e4fbdf760e01b8152908101849052602490fd5b8280fd5b5050346102b257806003193601126102b2577fb556fac599c3c70efb9ab1fa725ecace6c81cc48d1455f886607def065f3e0c0610241610bd6565b916024359261024e610c07565b610259841515610d34565b60018060a01b0316928385526002602052808286205560036020524282862055837ff6942a0ab6b8d3d0b0f1042e35382d5faf2aae67de271b8171f1ac0567c4803460208451848152a28151908152426020820152a280f35b5080fd5b5050346102b25760203660031901126102b2576020906102dc6102d7610bd6565b610d78565b9051908152f35b5050346102b257816003193601126102b25760209051610e108152f35b919050346102025760803660031901126102025761031c610bd6565b91610325610bf1565b82516341976e0960e01b8082526001600160a01b03958616848301526020969586936064359391604435918a84602481305afa938415610499578794610466575b50885194855216868401528883602481305afa92831561045c578593610429575b5081810291818304149015171561041657906103a291610e3e565b918183116103b5575b5050505051908152f35b90828193949796500391838311610403576127108084029384041490841417156103f057506103e692939450610e3e565b90388080806103ab565b634e487b7160e01b815260118652602490fd5b634e487b7160e01b825260118752602482fd5b634e487b7160e01b845260118552602484fd5b9092508881813d8311610455575b6104418183610ce5565b8101031261045157519138610387565b8480fd5b503d610437565b87513d87823e3d90fd5b9093508a81813d8311610492575b61047e8183610ce5565b8101031261048e57519238610366565b8680fd5b503d610474565b89513d89823e3d90fd5b5050346102b25760203660031901126102b2576020916001600160a01b03908290826104cd610bd6565b168152600185522054169051908152f35b90508234610682576020806003193601126102b25782359167ffffffffffffffff8084116102b257366023850112156102b257838501359081116102b257602490600595368383891b8801011161067e5761053e82989796949598610e26565b9361054b88519586610ce5565b82855261055783610e26565b858a019790601f1901368937865b8481106105ad5750505050505083519485948186019282875251809352850193925b82811061059657505050500390f35b835185528695509381019392810192600101610587565b98999798959796956001600160a01b0381831b84810188013591821691829003610669578c51916341976e0960e01b83528683015289828981305afa918215610674578992610641575b508a5183101561062f578a01890152600019811461061d57600101999897959699610565565b634e487b7160e01b8752601184528587fd5b634e487b7160e01b8952603286528789fd5b9091508981813d831161066d575b6106598183610ce5565b810103126106695751908d6105f7565b8880fd5b503d61064f565b8d513d8b823e3d90fd5b8380fd5b80fd5b5050346102b257816003193601126102b257905490516001600160a01b039091168152602090f35b9050346102025782600319360112610202576106c7610c07565b82549060ff8260a01c16610712575060ff60a01b1916600160a01b178255513381527f62e78cea01bee320cd4e420270b5ea74000d11b0c9f74754ebdbfc544b05a25890602090a180f35b825163d93c066560e01b8152fd5b839150346102b257602090816003193601126102025761073e610bd6565b6001600160a01b0380821680865260018552868620549295928216156107f25782526001845285822054865163313ce56760e01b815293859285928391165afa9182156107e65781926107a8575b505061079a60ff9193610d78565b925b84519384521690820152f35b9091508281813d83116107df575b6107c08183610ce5565b810103126102b257519060ff82168203610682575061079a60ff61078c565b503d6107b6565b508451903d90823e3d90fd5b505092505060ff836008936002845220549261079c565b91905034610202578060031936011261020257610824610bd6565b61082c610bf1565b90610835610c07565b6001600160a01b0391821693841561088b575016808452600160205290832080546001600160a01b031916831790557fa8abe0398416476db5b05737cd4da3b3cbde5012d978a6a6c3fd49d3217535368380a380f35b608490602085519162461bcd60e51b8352820152602260248201527f4f7261636c653a20496e76616c69642070726963652066656564206164647265604482015261737360f01b6064820152fd5b83346106825780600319360112610682576108f2610c07565b80546001600160a01b03198116825581906001600160a01b03167f8be0079c531659141344cd1fd0a4f28419497f9722a3daafe3b4186f6b6457e08280a380f35b5050346102b257816003193601126102b25760ff6020925460a01c1690519015158152f35b5050346102b25760203660031901126102b2576020906102dc610979610bd6565b610c33565b905034610202578260031936011261020257610998610c07565b82549060ff8260a01c16156109de575060ff60a01b19168255513381527f5db9ee0a495bf2e6ff9c91a7834c1ba4fdd244a5e8aa4e537bd38aeae4b073aa90602090a180f35b8251638dfc202b60e01b8152fd5b5050346102b25760203660031901126102b25760209181906001600160a01b03610a14610bd6565b1681526003845220549051908152f35b5050346102b25760203660031901126102b25760209181906001600160a01b03610a4c610bd6565b1681526002845220549051908152f35b8383346102b257806003193601126102b257610a76610bd6565b9060243591610a83610c07565b610a8e831515610d34565b60018060a01b0316918284526020946003865282852054610e108101809111610b6b574210610b2857508394837fb556fac599c3c70efb9ab1fa725ecace6c81cc48d1455f886607def065f3e0c0949552600281528183872055600381524283872055847ff6942a0ab6b8d3d0b0f1042e35382d5faf2aae67de271b8171f1ac0567c48034828551858152a282519182524290820152a280f35b825162461bcd60e51b8152908101869052601b60248201527f4f7261636c653a2055706461746520746f6f206672657175656e7400000000006044820152606490fd5b634e487b7160e01b865260118252602486fd5b8490843461020257602036600319011261020257602092906001600160a01b0380610ba7610bd6565b1683526001855281832054161591821592610bc5575b505015158152f35b600285522054151590508380610bbd565b600435906001600160a01b0382168203610bec57565b600080fd5b602435906001600160a01b0382168203610bec57565b6000546001600160a01b03163303610c1b57565b60405163118cdaa760e01b8152336004820152602490fd5b6001600160a01b0381811660008181526001602052604081205490929190821615801590610cd3575b15610c8e578252600160205260408220541615610c805750610c7d90610d78565b90565b604091506002602052205490565b60405162461bcd60e51b815260206004820152601f60248201527f4f7261636c653a204e6f207072696365206665656420617661696c61626c65006044820152606490fd5b50600260205260408320541515610c5c565b90601f8019910116810190811067ffffffffffffffff821117610d0757604052565b634e487b7160e01b600052604160045260246000fd5b519069ffffffffffffffffffff82168203610bec57565b15610d3b57565b60405162461bcd60e51b81526020600482015260156024820152744f7261636c653a20496e76616c696420707269636560581b6044820152606490fd5b6001600160a01b03908116600090815260016020526040808220549051633fabe5a360e21b81529260a09184916004918391165afa918215610e19578192610dc7575b50610c7d908213610d34565b90915060a0813d8211610e11575b81610de260a09383610ce5565b810103126102b25780610df7610c7d92610d1d565b50610e09608060208301519201610d1d565b509190610dbb565b3d9150610dd5565b50604051903d90823e3d90fd5b67ffffffffffffffff8111610d075760051b60200190565b8115610e48570490565b634e487b7160e01b600052601260045260246000fdfea26469706673582212205c74adf46ad4f27aa66f63ba099e7236ebf8457b98aa6e38a3c7fa35077fab5264736f6c63430008140033",
  "linkReferences": {},
  "deployedLinkReferences": {}
}