{
  "_format": "hh-sol-artifact-1",
  "contractName": "TimelockController",
  "sourceName": "@openzeppelin/contracts/governance/TimelockController.sol",
  "abi": [
    {
      "inputs": [
        {
          "internalType": "uint256",
          "name": "minDelay",
          "type": "uint256"
        },
        {
          "internalType": "address[]",
          "name": "proposers",
          "type": "address[]"
        },
        {
          "internalType": "address[]",
          "name": "executors",
          "type": "address[]"
        },
        {
          "internalType": "address",
          "name": "admin",
          "type": "address"
        }
      ],
      "stateMutability": "nonpayable",
      "type": "constructor"
    },
    {
      "inputs": [],
      "name": "AccessControlBadConfirmation",
      "type": "error"
    },
    {
      "inputs": [
        {
          "internalType": "address",
          "name": "account",
          "type": "address"
        },
        {
          "internalType": "bytes32",
          "name": "neededRole",
          "type": "bytes32"
        }
      ],
      "name": "AccessControlUnauthorizedAccount",
      "type": "error"
    },
    {
      "inputs": [],
      "name": "FailedCall",
      "type": "error"
    },
    {
      "inputs": [
        {
          "internalType": "uint256",
          "name": "delay",
          "type": "uint256"
        },
        {
          "internalType": "uint256",
          "name": "minDelay",
          "type": "uint256"
        }
      ],
      "name": "TimelockInsufficientDelay",
      "type": "error"
    },
    {
      "inputs": [
        {
          "internalType": "uint256",
          "name": "targets",
          "type": "uint256"
        },
        {
          "internalType": "uint256",
          "name": "payloads",
          "type": "uint256"
        },
        {
          "internalType": "uint256",
          "name": "values",
          "type": "uint256"
        }
      ],
      "name": "TimelockInvalidOperationLength",
      "type": "error"
    },
    {
      "inputs": [
        {
          "internalType": "address",
          "name": "caller",
          "type": "address"
        }
      ],
      "name": "TimelockUnauthorizedCaller",
      "type": "error"
    },
    {
      "inputs": [
        {
          "internalType": "bytes32",
          "name": "predecessorId",
          "type": "bytes32"
        }
      ],
      "name": "TimelockUnexecutedPredecessor",
      "type": "error"
    },
    {
      "inputs": [
        {
          "internalType": "bytes32",
          "name": "operationId",
          "type": "bytes32"
        },
        {
          "internalType": "bytes32",
          "name": "expectedStates",
          "type": "bytes32"
        }
      ],
      "name": "TimelockUnexpectedOperationState",
      "type": "error"
    },
    {
      "anonymous": false,
      "inputs": [
        {
          "indexed": true,
          "internalType": "bytes32",
          "name": "id",
          "type": "bytes32"
        },
        {
          "indexed": true,
          "internalType": "uint256",
          "name": "index",
          "type": "uint256"
        },
        {
          "indexed": false,
          "internalType": "address",
          "name": "target",
          "type": "address"
        },
        {
          "indexed": false,
          "internalType": "uint256",
          "name": "value",
          "type": "uint256"
        },
        {
          "indexed": false,
          "internalType": "bytes",
          "name": "data",
          "type": "bytes"
        }
      ],
      "name": "CallExecuted",
      "type": "event"
    },
    {
      "anonymous": false,
      "inputs": [
        {
          "indexed": true,
          "internalType": "bytes32",
          "name": "id",
          "type": "bytes32"
        },
        {
          "indexed": false,
          "internalType": "bytes32",
          "name": "salt",
          "type": "bytes32"
        }
      ],
      "name": "CallSalt",
      "type": "event"
    },
    {
      "anonymous": false,
      "inputs": [
        {
          "indexed": true,
          "internalType": "bytes32",
          "name": "id",
          "type": "bytes32"
        },
        {
          "indexed": true,
          "internalType": "uint256",
          "name": "index",
          "type": "uint256"
        },
        {
          "indexed": false,
          "internalType": "address",
          "name": "target",
          "type": "address"
        },
        {
          "indexed": false,
          "internalType": "uint256",
          "name": "value",
          "type": "uint256"
        },
        {
          "indexed": false,
          "internalType": "bytes",
          "name": "data",
          "type": "bytes"
        },
        {
          "indexed": false,
          "internalType": "bytes32",
          "name": "predecessor",
          "type": "bytes32"
        },
        {
          "indexed": false,
          "internalType": "uint256",
          "name": "delay",
          "type": "uint256"
        }
      ],
      "name": "CallScheduled",
      "type": "event"
    },
    {
      "anonymous": false,
      "inputs": [
        {
          "indexed": true,
          "internalType": "bytes32",
          "name": "id",
          "type": "bytes32"
        }
      ],
      "name": "Cancelled",
      "type": "event"
    },
    {
      "anonymous": false,
      "inputs": [
        {
          "indexed": false,
          "internalType": "uint256",
          "name": "oldDuration",
          "type": "uint256"
        },
        {
          "indexed": false,
          "internalType": "uint256",
          "name": "newDuration",
          "type": "uint256"
        }
      ],
      "name": "MinDelayChange",
      "type": "event"
    },
    {
      "anonymous": false,
      "inputs": [
        {
          "indexed": true,
          "internalType": "bytes32",
          "name": "role",
          "type": "bytes32"
        },
        {
          "indexed": true,
          "internalType": "bytes32",
          "name": "previousAdminRole",
          "type": "bytes32"
        },
        {
          "indexed": true,
          "internalType": "bytes32",
          "name": "newAdminRole",
          "type": "bytes32"
        }
      ],
      "name": "RoleAdminChanged",
      "type": "event"
    },
    {
      "anonymous": false,
      "inputs": [
        {
          "indexed": true,
          "internalType": "bytes32",
          "name": "role",
          "type": "bytes32"
        },
        {
          "indexed": true,
          "internalType": "address",
          "name": "account",
          "type": "address"
        },
        {
          "indexed": true,
          "internalType": "address",
          "name": "sender",
          "type": "address"
        }
      ],
      "name": "RoleGranted",
      "type": "event"
    },
    {
      "anonymous": false,
      "inputs": [
        {
          "indexed": true,
          "internalType": "bytes32",
          "name": "role",
          "type": "bytes32"
        },
        {
          "indexed": true,
          "internalType": "address",
          "name": "account",
          "type": "address"
        },
        {
          "indexed": true,
          "internalType": "address",
          "name": "sender",
          "type": "address"
        }
      ],
      "name": "RoleRevoked",
      "type": "event"
    },
    {
      "inputs": [],
      "name": "CANCELLER_ROLE",
      "outputs": [
        {
          "internalType": "bytes32",
          "name": "",
          "type": "bytes32"
        }
      ],
      "stateMutability": "view",
      "type": "function"
    },
    {
      "inputs": [],
      "name": "DEFAULT_ADMIN_ROLE",
      "outputs": [
        {
          "internalType": "bytes32",
          "name": "",
          "type": "bytes32"
        }
      ],
      "stateMutability": "view",
      "type": "function"
    },
    {
      "inputs": [],
      "name": "EXECUTOR_ROLE",
      "outputs": [
        {
          "internalType": "bytes32",
          "name": "",
          "type": "bytes32"
        }
      ],
      "stateMutability": "view",
      "type": "function"
    },
    {
      "inputs": [],
      "name": "PROPOSER_ROLE",
      "outputs": [
        {
          "internalType": "bytes32",
          "name": "",
          "type": "bytes32"
        }
      ],
      "stateMutability": "view",
      "type": "function"
    },
    {
      "inputs": [
        {
          "internalType": "bytes32",
          "name": "id",
          "type": "bytes32"
        }
      ],
      "name": "cancel",
      "outputs": [],
      "stateMutability": "nonpayable",
      "type": "function"
    },
    {
      "inputs": [
        {
          "internalType": "address",
          "name": "target",
          "type": "address"
        },
        {
          "internalType": "uint256",
          "name": "value",
          "type": "uint256"
        },
        {
          "internalType": "bytes",
          "name": "payload",
          "type": "bytes"
        },
        {
          "internalType": "bytes32",
          "name": "predecessor",
          "type": "bytes32"
        },
        {
          "internalType": "bytes32",
          "name": "salt",
          "type": "bytes32"
        }
      ],
      "name": "execute",
      "outputs": [],
      "stateMutability": "payable",
      "type": "function"
    },
    {
      "inputs": [
        {
          "internalType": "address[]",
          "name": "targets",
          "type": "address[]"
        },
        {
          "internalType": "uint256[]",
          "name": "values",
          "type": "uint256[]"
        },
        {
          "internalType": "bytes[]",
          "name": "payloads",
          "type": "bytes[]"
        },
        {
          "internalType": "bytes32",
          "name": "predecessor",
          "type": "bytes32"
        },
        {
          "internalType": "bytes32",
          "name": "salt",
          "type": "bytes32"
        }
      ],
      "name": "executeBatch",
      "outputs": [],
      "stateMutability": "payable",
      "type": "function"
    },
    {
      "inputs": [],
      "name": "getMinDelay",
      "outputs": [
        {
          "internalType": "uint256",
          "name": "",
          "type": "uint256"
        }
      ],
      "stateMutability": "view",
      "type": "function"
    },
    {
      "inputs": [
        {
          "internalType": "bytes32",
          "name": "id",
          "type": "bytes32"
        }
      ],
      "name": "getOperationState",
      "outputs": [
        {
          "internalType": "enum TimelockController.OperationState",
          "name": "",
          "type": "uint8"
        }
      ],
      "stateMutability": "view",
      "type": "function"
    },
    {
      "inputs": [
        {
          "internalType": "bytes32",
          "name": "role",
          "type": "bytes32"
        }
      ],
      "name": "getRoleAdmin",
      "outputs": [
        {
          "internalType": "bytes32",
          "name": "",
          "type": "bytes32"
        }
      ],
      "stateMutability": "view",
      "type": "function"
    },
    {
      "inputs": [
        {
          "internalType": "bytes32",
          "name": "id",
          "type": "bytes32"
        }
      ],
      "name": "getTimestamp",
      "outputs": [
        {
          "internalType": "uint256",
          "name": "",
          "type": "uint256"
        }
      ],
      "stateMutability": "view",
      "type": "function"
    },
    {
      "inputs": [
        {
          "internalType": "bytes32",
          "name": "role",
          "type": "bytes32"
        },
        {
          "internalType": "address",
          "name": "account",
          "type": "address"
        }
      ],
      "name": "grantRole",
      "outputs": [],
      "stateMutability": "nonpayable",
      "type": "function"
    },
    {
      "inputs": [
        {
          "internalType": "bytes32",
          "name": "role",
          "type": "bytes32"
        },
        {
          "internalType": "address",
          "name": "account",
          "type": "address"
        }
      ],
      "name": "hasRole",
      "outputs": [
        {
          "internalType": "bool",
          "name": "",
          "type": "bool"
        }
      ],
      "stateMutability": "view",
      "type": "function"
    },
    {
      "inputs": [
        {
          "internalType": "address",
          "name": "target",
          "type": "address"
        },
        {
          "internalType": "uint256",
          "name": "value",
          "type": "uint256"
        },
        {
          "internalType": "bytes",
          "name": "data",
          "type": "bytes"
        },
        {
          "internalType": "bytes32",
          "name": "predecessor",
          "type": "bytes32"
        },
        {
          "internalType": "bytes32",
          "name": "salt",
          "type": "bytes32"
        }
      ],
      "name": "hashOperation",
      "outputs": [
        {
          "internalType": "bytes32",
          "name": "",
          "type": "bytes32"
        }
      ],
      "stateMutability": "pure",
      "type": "function"
    },
    {
      "inputs": [
        {
          "internalType": "address[]",
          "name": "targets",
          "type": "address[]"
        },
        {
          "internalType": "uint256[]",
          "name": "values",
          "type": "uint256[]"
        },
        {
          "internalType": "bytes[]",
          "name": "payloads",
          "type": "bytes[]"
        },
        {
          "internalType": "bytes32",
          "name": "predecessor",
          "type": "bytes32"
        },
        {
          "internalType": "bytes32",
          "name": "salt",
          "type": "bytes32"
        }
      ],
      "name": "hashOperationBatch",
      "outputs": [
        {
          "internalType": "bytes32",
          "name": "",
          "type": "bytes32"
        }
      ],
      "stateMutability": "pure",
      "type": "function"
    },
    {
      "inputs": [
        {
          "internalType": "bytes32",
          "name": "id",
          "type": "bytes32"
        }
      ],
      "name": "isOperation",
      "outputs": [
        {
          "internalType": "bool",
          "name": "",
          "type": "bool"
        }
      ],
      "stateMutability": "view",
      "type": "function"
    },
    {
      "inputs": [
        {
          "internalType": "bytes32",
          "name": "id",
          "type": "bytes32"
        }
      ],
      "name": "isOperationDone",
      "outputs": [
        {
          "internalType": "bool",
          "name": "",
          "type": "bool"
        }
      ],
      "stateMutability": "view",
      "type": "function"
    },
    {
      "inputs": [
        {
          "internalType": "bytes32",
          "name": "id",
          "type": "bytes32"
        }
      ],
      "name": "isOperationPending",
      "outputs": [
        {
          "internalType": "bool",
          "name": "",
          "type": "bool"
        }
      ],
      "stateMutability": "view",
      "type": "function"
    },
    {
      "inputs": [
        {
          "internalType": "bytes32",
          "name": "id",
          "type": "bytes32"
        }
      ],
      "name": "isOperationReady",
      "outputs": [
        {
          "internalType": "bool",
          "name": "",
          "type": "bool"
        }
      ],
      "stateMutability": "view",
      "type": "function"
    },
    {
      "inputs": [
        {
          "internalType": "address",
          "name": "",
          "type": "address"
        },
        {
          "internalType": "address",
          "name": "",
          "type": "address"
        },
        {
          "internalType": "uint256[]",
          "name": "",
          "type": "uint256[]"
        },
        {
          "internalType": "uint256[]",
          "name": "",
          "type": "uint256[]"
        },
        {
          "internalType": "bytes",
          "name": "",
          "type": "bytes"
        }
      ],
      "name": "onERC1155BatchReceived",
      "outputs": [
        {
          "internalType": "bytes4",
          "name": "",
          "type": "bytes4"
        }
      ],
      "stateMutability": "nonpayable",
      "type": "function"
    },
    {
      "inputs": [
        {
          "internalType": "address",
          "name": "",
          "type": "address"
        },
        {
          "internalType": "address",
          "name": "",
          "type": "address"
        },
        {
          "internalType": "uint256",
          "name": "",
          "type": "uint256"
        },
        {
          "internalType": "uint256",
          "name": "",
          "type": "uint256"
        },
        {
          "internalType": "bytes",
          "name": "",
          "type": "bytes"
        }
      ],
      "name": "onERC1155Received",
      "outputs": [
        {
          "internalType": "bytes4",
          "name": "",
          "type": "bytes4"
        }
      ],
      "stateMutability": "nonpayable",
      "type": "function"
    },
    {
      "inputs": [
        {
          "internalType": "address",
          "name": "",
          "type": "address"
        },
        {
          "internalType": "address",
          "name": "",
          "type": "address"
        },
        {
          "internalType": "uint256",
          "name": "",
          "type": "uint256"
        },
        {
          "internalType": "bytes",
          "name": "",
          "type": "bytes"
        }
      ],
      "name": "onERC721Received",
      "outputs": [
        {
          "internalType": "bytes4",
          "name": "",
          "type": "bytes4"
        }
      ],
      "stateMutability": "nonpayable",
      "type": "function"
    },
    {
      "inputs": [
        {
          "internalType": "bytes32",
          "name": "role",
          "type": "bytes32"
        },
        {
          "internalType": "address",
          "name": "callerConfirmation",
          "type": "address"
        }
      ],
      "name": "renounceRole",
      "outputs": [],
      "stateMutability": "nonpayable",
      "type": "function"
    },
    {
      "inputs": [
        {
          "internalType": "bytes32",
          "name": "role",
          "type": "bytes32"
        },
        {
          "internalType": "address",
          "name": "account",
          "type": "address"
        }
      ],
      "name": "revokeRole",
      "outputs": [],
      "stateMutability": "nonpayable",
      "type": "function"
    },
    {
      "inputs": [
        {
          "internalType": "address",
          "name": "target",
          "type": "address"
        },
        {
          "internalType": "uint256",
          "name": "value",
          "type": "uint256"
        },
        {
          "internalType": "bytes",
          "name": "data",
          "type": "bytes"
        },
        {
          "internalType": "bytes32",
          "name": "predecessor",
          "type": "bytes32"
        },
        {
          "internalType": "bytes32",
          "name": "salt",
          "type": "bytes32"
        },
        {
          "internalType": "uint256",
          "name": "delay",
          "type": "uint256"
        }
      ],
      "name": "schedule",
      "outputs": [],
      "stateMutability": "nonpayable",
      "type": "function"
    },
    {
      "inputs": [
        {
          "internalType": "address[]",
          "name": "targets",
          "type": "address[]"
        },
        {
          "internalType": "uint256[]",
          "name": "values",
          "type": "uint256[]"
        },
        {
          "internalType": "bytes[]",
          "name": "payloads",
          "type": "bytes[]"
        },
        {
          "internalType": "bytes32",
          "name": "predecessor",
          "type": "bytes32"
        },
        {
          "internalType": "bytes32",
          "name": "salt",
          "type": "bytes32"
        },
        {
          "internalType": "uint256",
          "name": "delay",
          "type": "uint256"
        }
      ],
      "name": "scheduleBatch",
      "outputs": [],
      "stateMutability": "nonpayable",
      "type": "function"
    },
    {
      "inputs": [
        {
          "internalType": "bytes4",
          "name": "interfaceId",
          "type": "bytes4"
        }
      ],
      "name": "supportsInterface",
      "outputs": [
        {
          "internalType": "bool",
          "name": "",
          "type": "bool"
        }
      ],
      "stateMutability": "view",
      "type": "function"
    },
    {
      "inputs": [
        {
          "internalType": "uint256",
          "name": "newDelay",
          "type": "uint256"
        }
      ],
      "name": "updateDelay",
      "outputs": [],
      "stateMutability": "nonpayable",
      "type": "function"
    },
    {
      "stateMutability": "payable",
      "type": "receive"
    }
  ],
  "bytecode": "0x60806040523462000034576200002262000018620001d5565b9291909162000326565b604051611fcc620005dc8239611fcc90f35b600080fd5b634e487b7160e01b600052604160045260246000fd5b90601f01601f191681019081106001600160401b038211176200007157604052565b62000039565b906200008e6200008660405190565b92836200004f565b565b805b036200003457565b905051906200008e8262000090565b6001600160401b038111620000715760208091020190565b6001600160a01b031690565b90565b6001600160a01b03811662000092565b905051906200008e82620000d0565b90929192620001086200010282620000a9565b62000077565b93818552602080860192028301928184116200003457915b8383106200012e5750505050565b602080916200013e8486620000e0565b81520192019162000120565b9080601f8301121562000034578151620000cd92602001620000ef565b60808183031262000034576200017e82826200009a565b60208201519093906001600160401b038111620000345783620001a39184016200014a565b604083015190936001600160401b0382116200003457620001cb81620000cd9386016200014a565b93606001620000e0565b620001f8620025a880380380620001ec8162000077565b92833981019062000167565b90919293565b620000cd620000cd620000cd9290565b620000cd6000620001fe565b620000cd90620000c1906001600160a01b031682565b620000cd906200021a565b620000cd9062000230565b620000c1620000cd620000cd9290565b620000cd9062000246565b634e487b7160e01b600052601160045260246000fd5b6000198114620002875760010190565b62000261565b634e487b7160e01b600052603260045260246000fd5b90620002ad825190565b811015620002bf576020809102010190565b6200028d565b90600019905b9181191691161790565b90620002e9620000cd620002f192620001fe565b8254620002c5565b9055565b6200030090620001fe565b9052565b9160206200008e9294936200032260408201966000830190620002f5565b0152565b9093620003326200020e565b6200034862000341306200023b565b8262000521565b506000946200035b620000c18762000256565b6001600160a01b03821603620004cc575b50506200037984620001fe565b62000386620000cd875190565b81101562000416576200041090620003dd7fb09aa5aeb3702cfd50b6b62bc4532604938f21248a27a1d5ca736082b6819cc15b620003d6620003c9848b620002a3565b516001600160a01b031690565b9062000521565b50620004097ffd643c72710c63c0180259aba6b2d05451e3591a24e58b62239378085726f783620003b9565b5062000277565b62000379565b50919350916200042681620001fe565b62000433620000cd865190565b8110156200047b576200047590620004097fd8aa0f3194971a2a116679f7c2090f6939c8d4e01a2a8d7e41d55e5351469e63620003d6620003c9848a620002a3565b62000426565b50919092506200048d816002620002d5565b7f11c24f4ead16507c69ac467fbd5e4eed5fb5c699626d2cc6d66421df253886d591620004c7620004bd60405190565b9283928362000304565b0390a1565b620004d79162000521565b5038806200036c565b905b600052602052604060002090565b90620004e2906200023b565b9060ff90620002cb565b9062000519620000cd620002f192151590565b8254620004fc565b62000535620005318383620005bd565b1590565b15620005af5760019162000563836200055d836000620005568782620004e0565b01620004f0565b62000506565b33906200059d62000596620005967f2f8788117e7eff1d82e926ec794901d17c78024a50270940304540a733656f0d9590565b926200023b565b92620005a860405190565b600090a490565b5050600090565b5460ff1690565b620000cd91620005d5916200055660009182620004e0565b620005b656fe6080604052600436101561001b575b361561001957600080fd5b005b60003560e01c806301d5062a146101db57806301ffc9a7146101d657806307bd0265146101d1578063134008d3146101cc57806313bc9f20146101c7578063150b7a02146101c2578063248a9ca3146101bd5780632ab0f529146101b85780632f2ff15d146101b357806331d50750146101ae57806336568abe146101a9578063584b153e146101a457806364d623531461019f5780637958004c1461019a5780638065657f146101955780638f2a0bb0146101905780638f61f4f51461018b57806391d1485414610186578063a217fddf14610181578063b08e51c01461017c578063b1c5f42714610177578063bc197c8114610172578063c4d252f51461016d578063d45c443514610168578063d547741f14610163578063e38335e51461015e578063f23a6e61146101595763f27a0c920361000e57610bd7565b610bb8565b610b5a565b610b41565b610b26565b610b0e565b610aef565b6109c4565b610917565b6108fc565b6108c1565b610888565b610866565b6107a6565b61077f565b6106fd565b6106e2565b6106c9565b6106ae565b610695565b610657565b61063c565b6105ea565b610462565b610434565b61038d565b610355565b6102e0565b73ffffffffffffffffffffffffffffffffffffffff1690565b90565b73ffffffffffffffffffffffffffffffffffffffff81165b0361021b57565b600080fd5b9050359061022d826101fc565b565b80610214565b9050359061022d8261022f565b909182601f8301121561021b5781359167ffffffffffffffff831161021b57602001926001830284011161021b57565b9160c08383031261021b576102878284610220565b926102958360208301610235565b92604082013567ffffffffffffffff811161021b57816102b6918401610242565b9290936101f96102c98460608501610235565b936102d78160808601610235565b9360a001610235565b3461021b576102ff6102f3366004610272565b959490949391936113b7565b604051005b0390f35b7fffffffff000000000000000000000000000000000000000000000000000000008116610214565b9050359061022d82610308565b9060208282031261021b576101f991610330565b9052565b3461021b5761030461037061036b36600461033d565b610ede565b60405191829182901515815260200190565b600091031261021b57565b3461021b5761039d366004610382565b6103047fd8aa0f3194971a2a116679f7c2090f6939c8d4e01a2a8d7e41d55e5351469e635b6040515b9182918290815260200190565b9060a08282031261021b576103e88183610220565b926103f68260208501610235565b9260408101359167ffffffffffffffff831161021b5761041b846101f9948401610242565b93909461042b8160608601610235565b93608001610235565b6102ff6104423660046103d3565b94939093929192611a2a565b9060208282031261021b576101f991610235565b3461021b5761030461037061047836600461044e565b610f49565b7f4e487b7100000000000000000000000000000000000000000000000000000000600052604160045260246000fd5b90601f017fffffffffffffffffffffffffffffffffffffffffffffffffffffffffffffffe016810190811067ffffffffffffffff8211176104ec57604052565b61047d565b9061022d6104fe60405190565b92836104ac565b67ffffffffffffffff81116104ec57602090601f017fffffffffffffffffffffffffffffffffffffffffffffffffffffffffffffffe0160190565b0190565b90826000939282370152565b9092919261056561056082610505565b6104f1565b9381855260208501908284011161021b5761022d92610544565b9080601f8301121561021b578160206101f993359101610550565b9060808282031261021b576105af8183610220565b926105bd8260208501610220565b926105cb8360408301610235565b92606082013567ffffffffffffffff811161021b576101f9920161057f565b3461021b5761030461060961060036600461059a565b92919091611f2c565b604051918291827fffffffff00000000000000000000000000000000000000000000000000000000909116815260200190565b3461021b576103046103c261065236600461044e565b610c73565b3461021b5761030461037061066d36600461044e565b610f61565b919060408382031261021b576101f99061068c8185610235565b93602001610220565b3461021b576102ff6106a8366004610672565b90610cb5565b3461021b576103046103706106c436600461044e565b610ee7565b3461021b576102ff6106dc366004610672565b90610d77565b3461021b576103046103706106f836600461044e565b610f0c565b3461021b576102ff61071036600461044e565b611caf565b7f4e487b7100000000000000000000000000000000000000000000000000000000600052602160045260246000fd5b6004111561074e57565b610715565b9061022d82610744565b6101f990610753565b6103519061075d565b60208101929161022d9190610766565b3461021b5761030461079a61079536600461044e565b610f9f565b6040519182918261076f565b3461021b576103046103c26107bc3660046103d3565b9493909392919261109b565b909182601f8301121561021b5781359167ffffffffffffffff831161021b57602001926020830284011161021b57565b9060c08282031261021b57813567ffffffffffffffff811161021b57816108209184016107c8565b929093602082013567ffffffffffffffff811161021b57836108439184016107c8565b929093604082013567ffffffffffffffff811161021b57816102b69184016107c8565b3461021b576102ff6108793660046107f8565b979690969591959492946116be565b3461021b57610898366004610382565b6103047fb09aa5aeb3702cfd50b6b62bc4532604938f21248a27a1d5ca736082b6819cc16103c2565b3461021b576103046103706108d7366004610672565b90610c41565b6101f96101f96101f99290565b6101f960006108dd565b6101f96108ea565b3461021b5761090c366004610382565b6103046103c26108f4565b3461021b57610927366004610382565b6103047ffd643c72710c63c0180259aba6b2d05451e3591a24e58b62239378085726f7836103c2565b91909160a08184031261021b57803567ffffffffffffffff811161021b578361097a9183016107c8565b929093602083013567ffffffffffffffff811161021b578161099d9185016107c8565b92909360408101359167ffffffffffffffff831161021b5761041b846101f99484016107c8565b3461021b576103046103c26109da366004610950565b969590959491949392936112a4565b67ffffffffffffffff81116104ec5760208091020190565b90929192610a11610560826109e9565b938185526020808601920283019281841161021b57915b838310610a355750505050565b60208091610a438486610235565b815201920191610a28565b9080601f8301121561021b578160206101f993359101610a01565b91909160a08184031261021b57610a808382610220565b92610a8e8160208401610220565b92604083013567ffffffffffffffff811161021b5782610aaf918501610a4e565b92606081013567ffffffffffffffff811161021b5783610ad0918301610a4e565b92608082013567ffffffffffffffff811161021b576101f9920161057f565b3461021b57610304610609610b05366004610a69565b93929092611f11565b3461021b576102ff610b2136600461044e565b6118f4565b3461021b576103046103c2610b3c36600461044e565b610f79565b3461021b576102ff610b54366004610672565b90610d6d565b6102ff610b68366004610950565b96959095949194939293611b7a565b91909160a08184031261021b57610b8e8382610220565b92610b9c8160208401610220565b92610baa8260408501610235565b92610ad08360608301610235565b3461021b57610304610609610bce366004610b77565b93929092611ef6565b3461021b57610be7366004610382565b6103046103c2610ff2565b905b600052602052604060002090565b6101e06101f96101f99273ffffffffffffffffffffffffffffffffffffffff1690565b6101f990610c02565b6101f990610c25565b90610bf490610c2e565b6101f991610c5b91610c5560009182610bf2565b01610c37565b5460ff1690565b6101f99081565b6101f99054610c62565b6001610c8c6101f992610c84600090565b506000610bf2565b01610c69565b9061022d91610ca8610ca382610c73565b610cbf565b90610cb291610dfb565b50565b9061022d91610c92565b61022d90335b90610cf9565b73ffffffffffffffffffffffffffffffffffffffff909116815260408101929161022d9160200152565b0152565b90610d0b610d078284610c41565b1590565b610d13575050565b610d4e610d1f60405190565b9283927fe2517d3f00000000000000000000000000000000000000000000000000000000845260048401610ccb565b0390fd5b9061022d91610d63610ca382610c73565b90610cb291610e77565b9061022d91610d52565b90610d81336101e0565b73ffffffffffffffffffffffffffffffffffffffff821603610da657610cb291610e77565b6040517f6697b232000000000000000000000000000000000000000000000000000000008152600490fd5b9060ff905b9181191691161790565b90610df06101f9610df792151590565b8254610dd1565b9055565b610e08610d078383610c41565b15610e7057600191610e2983610e24836000610c558782610bf2565b610de0565b3390610e5f610e59610e597f2f8788117e7eff1d82e926ec794901d17c78024a50270940304540a733656f0d9590565b92610c2e565b92610e6960405190565b600090a490565b5050600090565b90610e828183610c41565b15610e7057610e9b6000610e248382610c558782610bf2565b3390610ecb610e59610e597ff6391f5c32d9c69d2a47ea670b442974b53935d1edc7fd64eb21e047a839171b9590565b92610ed560405190565b600090a4600190565b6101f990611dc7565b610ef49060005b50610f9f565b610f07610f016000610753565b91610753565b141590565b610f17906000610eee565b610f216001610753565b610f2a82610753565b14908115610f36575090565b9050610f45610f016002610753565b1490565b610f54906000610eee565b610f45610f016002610753565b610f6c906000610eee565b610f45610f016003610753565b610f906101f991610f88600090565b506001610bf2565b610c69565b6101f960016108dd565b610fa890610f79565b600090610fb4826108dd565b8103610fbe575090565b9050610fcb6101f9610f95565b8103610fd75750600390565b4290610fe2565b9190565b1115610fed57600190565b600290565b6101f96002610c69565b919061101a81611013816105409560209181520190565b8095610544565b601f017fffffffffffffffffffffffffffffffffffffffffffffffffffffffffffffffe01690565b91610cf59161022d969897956080956110866110939461107f60a089019560008a019073ffffffffffffffffffffffffffffffffffffffff169052565b6020880152565b8583036040870152610ffc565b966060830152565b91946110cc946110c092946110ae600090565b50604051978896602088019687611042565b908103825203826104ac565b6110de6110d7825190565b9160200190565b2090565b506101f9906020810190610220565b818352602090920191906000825b82821061110d575050505090565b9091929361114961114260019261112488866110e2565b73ffffffffffffffffffffffffffffffffffffffff16815260200190565b9560200190565b939201906110ff565b9037565b8183529091602001917f07ffffffffffffffffffffffffffffffffffffffffffffffffffffffffffffff811161021b57829160206105409202938491611152565b906101f99291610ffc565b90357fffffffffffffffffffffffffffffffffffffffffffffffffffffffffffffffe1368390030181121561021b57016020813591019167ffffffffffffffff821161021b5736829003831361021b57565b81835291602001908161120a6020830284019490565b92836000925b8484106112205750505050505090565b909192939495602061124d61124683856001950388526112408b886111a2565b90611197565b9860200190565b940194019294939190611210565b9395611296610cf59461022d999b9a98611288608099956110939760a08b01918b830360008d01526110f1565b9188830360208a0152611156565b9185830360408701526111f4565b93946110cc9691956110c0949893986112bb600090565b50604051998a9860208a01988961125b565b61022d969594939291906113007fb09aa5aeb3702cfd50b6b62bc4532604938f21248a27a1d5ca736082b6819cc1610cbf565b926101f99361137a9597939261131a888a8587858761109b565b91611325868461172e565b6113726000966113537f4cf4410cc57040e44862ef0f45f3dd5a5e02db8eb8add648d4b0e236f1d07dca9590565b9b8c9661135f8a6108dd565b9861136960405190565b96879687611042565b0390a36108dd565b8103611384575050565b6113b27f20fda5fd27a1ea7bf5b9567f143ac5470bb059374a27e8f67cb44f946f6d0387916103c660405190565b0390a2565b9061022d9695949392916112cd565b61022d9897969594939291906113fb7fb09aa5aeb3702cfd50b6b62bc4532604938f21248a27a1d5ca736082b6819cc1610cbf565b611545565b90815260608101939261022d929091604091610cf5905b6020830152565b7f4e487b7100000000000000000000000000000000000000000000000000000000600052601160045260246000fd5b7fffffffffffffffffffffffffffffffffffffffffffffffffffffffffffffffff811461147a5760010190565b61141e565b7f4e487b7100000000000000000000000000000000000000000000000000000000600052603260045260246000fd5b91908110156114be576020020190565b61147f565b356101f9816101fc565b356101f98161022f565b9035907fffffffffffffffffffffffffffffffffffffffffffffffffffffffffffffffe1368290030182121561021b570180359067ffffffffffffffff821161021b576020019136829003831361021b57565b908210156114be57602061154192028101906114d7565b9091565b949897959694919291819883808b141580156116b4575b6116755750611571878a8d89888a89896112a4565b9661157c898961172e565b6000611587816108dd565b8c5b81101561161b57611614818f8d8f918d8f9161160c8f918f998f918f6115cc836115899e6115c66115c1836115d7996115d1976114ae565b6114c3565b986114ae565b6114cd565b9561152a565b9590966116027f4cf4410cc57040e44862ef0f45f3dd5a5e02db8eb8add648d4b0e236f1d07dca9690565b9661135f8a6108dd565b0390a361144d565b9050611587565b50965099509950505050506101f991935061163692506108dd565b8203611640575050565b6113b261166b7f20fda5fd27a1ea7bf5b9567f143ac5470bb059374a27e8f67cb44f946f6d03879290565b926103c660405190565b8a610d4e8d5b9261168560405190565b9384937fffb0321100000000000000000000000000000000000000000000000000000000855260048501611400565b508b8b141561155c565b9061022d98979695949392916113c6565b90815260408101929161022d9160200152565b9190820180921161147a57565b907fffffffffffffffffffffffffffffffffffffffffffffffffffffffffffffffff90610dd6565b906117276101f9610df7926108dd565b82546116ef565b9061173882610ee7565b6117a657611744610ff2565b80821061176a57509061176561175d61022d93426116e2565b916001610bf2565b611717565b90610d4e61177760405190565b9283927f54336609000000000000000000000000000000000000000000000000000000008452600484016116cf565b506117b16000611d99565b90610d4e6117be60405190565b9283927f5ead8eb5000000000000000000000000000000000000000000000000000000008452600484016116cf565b61022d9061181a7ffd643c72710c63c0180259aba6b2d05451e3591a24e58b62239378085726f783610cbf565b61187c565b91906008610dd69102916118527fffffffffffffffffffffffffffffffffffffffffffffffffffffffffffffffff841b90565b921b90565b91906118686101f9610df7936108dd565b90835461181f565b61022d91600091611857565b611888610d0782610f0c565b6118d2576118a1600061189c836001610bf2565b611870565b7fbaa1eb22f2a492ba1a5fea61b8df4d27c6c8b5f3971e63bb58fa14ff72eedb706118cb60405190565b80806113b2565b6118dc6001611d99565b6118e66002611d99565b1790610d4e6117be60405190565b61022d906117ed565b6101e06101f96101f99290565b6101f9906118fd565b61022d9594939291907fd8aa0f3194971a2a116679f7c2090f6939c8d4e01a2a8d7e41d55e5351469e63611953610d0761194d600061190a565b83610c41565b61195e575b506119ad565b6119689033610cc5565b38611958565b6119a06101f995939492946114176060840196600085019073ffffffffffffffffffffffffffffffffffffffff169052565b6040818503910152610ffc565b9192906119cb6119c461022d97878588868961109b565b9586611c06565b6119d782858386611bd5565b600092611a227fc2617efa69bab66782fa219543714338489c4e9e178271560a91b82c3f612b5893611a0f611a098990565b966108dd565b96611a1960405190565b9485948561196e565b0390a3611c90565b9061022d9594939291611913565b61022d97969594939291907fd8aa0f3194971a2a116679f7c2090f6939c8d4e01a2a8d7e41d55e5351469e63611a74610d0761194d600061190a565b611a7f575b50611a8f565b611a899033610cc5565b38611a79565b909195939497611a9c8390565b9784808a14158015611b70575b611b6657506119c4611ac191878c8a898d8a8a6112a4565b611acb60006108dd565b885b811015611b5357611b4c81898989611b088f96611acd97611b026115cc838f8f8f83611afc926115c1926114ae565b996114ae565b9461152a565b929093611b1784868484611bd5565b61160c611b427fc2617efa69bab66782fa219543714338489c4e9e178271560a91b82c3f612b589490565b94611a0f886108dd565b9050611acb565b50975050505091505061022d9150611c90565b89610d4e8c61167b565b508a8a1415611aa9565b9061022d97969594939291611a38565b90916105409083908093610544565b90916101f992611b8a565b90611bb161056083610505565b918252565b3d15611bd057611bc53d611ba4565b903d6000602084013e565b606090565b610cb293600093928493611bf4611beb60405190565b93849283611b99565b03925af1611c00611bb6565b90611f46565b611c12610d0782610f49565b611c865750611c246101f960006108dd565b81141580611c74575b611c345750565b610d4e90611c4160405190565b9182917f90a9a6180000000000000000000000000000000000000000000000000000000083526004830190815260200190565b50611c81610d0782610f61565b611c2d565b6117b16002611d99565b611c9c610d0782610f49565b611c865761022d9061176561175d610f95565b33611cbc6101e030610c2e565b73ffffffffffffffffffffffffffffffffffffffff821603611d29575061022d90611ce76002610c69565b817f11c24f4ead16507c69ac467fbd5e4eed5fb5c699626d2cc6d66421df253886d591611d1f611d1660405190565b928392836116cf565b0390a16002611717565b610d4e90611d3660405190565b9182917fe2850c590000000000000000000000000000000000000000000000000000000083526004830173ffffffffffffffffffffffffffffffffffffffff909116815260200190565b6101f990611d94610fde6101f99460ff1690565b901b90565b611dc26101f991611da8600090565b50611dbd611db760019261075d565b916108dd565b611d80565b6108dd565b7f4e2312e0000000000000000000000000000000000000000000000000000000007fffffffff00000000000000000000000000000000000000000000000000000000821614908115611e17575090565b6101f991507f7965db0b000000000000000000000000000000000000000000000000000000007fffffffff00000000000000000000000000000000000000000000000000000000821614908115611e6c575090565b6101f991507fffffffff00000000000000000000000000000000000000000000000000000000167f01ffc9a7000000000000000000000000000000000000000000000000000000001490565b611ed1611ecb6101f99263ffffffff1690565b60e01b90565b7fffffffff000000000000000000000000000000000000000000000000000000001690565b5050505050611f03600090565b506101f963f23a6e61611eb8565b5050505050611f1e600090565b506101f963bc197c81611eb8565b50505050611f38600090565b506101f963150b7a02611eb8565b90919061022d57508051611f5d610fde60006108dd565b1115611f6b57805190602001fd5b6040517fd6bda275000000000000000000000000000000000000000000000000000000008152600490fdfea2646970667358221220b5c6a27661982db2ae7632d073fca1994a48c3fd09294dd30b0e6f259e70168164736f6c63430008140033",
  "linkReferences": {},
  "deployedLinkReferences": {}
}