{
  "_format": "hh-sol-artifact-1",
  "contractName": "BoingNFTStaking",
  "sourceName": "contracts/BoingNFTStaking.sol",
  "abi": [
    {
      "inputs": [
        {
          "internalType": "address",
          "name": "_nftToken",
          "type": "address"
        },
        {
          "internalType": "address",
          "name": "_rewardToken",
          "type": "address"
        },
        {
          "internalType": "address",
          "name": "initialOwner",
          "type": "address"
        }
      ],
      "stateMutability": "nonpayable",
      "type": "constructor"
    },
    {
      "inputs": [
        {
          "internalType": "address",
          "name": "owner",
          "type": "address"
        }
      ],
      "name": "OwnableInvalidOwner",
      "type": "error"
    },
    {
      "inputs": [
        {
          "internalType": "address",
          "name": "account",
          "type": "address"
        }
      ],
      "name": "OwnableUnauthorizedAccount",
      "type": "error"
    },
    {
      "inputs": [],
      "name": "ReentrancyGuardReentrantCall",
      "type": "error"
    },
    {
      "inputs": [
        {
          "internalType": "address",
          "name": "token",
          "type": "address"
        }
      ],
      "name": "SafeERC20FailedOperation",
      "type": "error"
    },
    {
      "anonymous": false,
      "inputs": [
        {
          "indexed": true,
          "internalType": "address",
          "name": "previousOwner",
          "type": "address"
        },
        {
          "indexed": true,
          "internalType": "address",
          "name": "newOwner",
          "type": "address"
        }
      ],
      "name": "OwnershipTransferred",
      "type": "event"
    },
    {
      "anonymous": false,
      "inputs": [
        {
          "indexed": true,
          "internalType": "address",
          "name": "user",
          "type": "address"
        },
        {
          "indexed": false,
          "internalType": "uint256",
          "name": "amount",
          "type": "uint256"
        }
      ],
      "name": "RewardClaimed",
      "type": "event"
    },
    {
      "anonymous": false,
      "inputs": [
        {
          "indexed": false,
          "internalType": "uint256",
          "name": "oldRate",
          "type": "uint256"
        },
        {
          "indexed": false,
          "internalType": "uint256",
          "name": "newRate",
          "type": "uint256"
        }
      ],
      "name": "RewardRateUpdated",
      "type": "event"
    },
    {
      "anonymous": false,
      "inputs": [
        {
          "indexed": false,
          "internalType": "uint256",
          "name": "amount",
          "type": "uint256"
        }
      ],
      "name": "RewardTokensDeposited",
      "type": "event"
    },
    {
      "anonymous": false,
      "inputs": [
        {
          "indexed": true,
          "internalType": "address",
          "name": "user",
          "type": "address"
        },
        {
          "indexed": false,
          "internalType": "uint256[]",
          "name": "tokenIds",
          "type": "uint256[]"
        }
      ],
      "name": "Staked",
      "type": "event"
    },
    {
      "anonymous": false,
      "inputs": [
        {
          "indexed": true,
          "internalType": "address",
          "name": "user",
          "type": "address"
        },
        {
          "indexed": false,
          "internalType": "uint256[]",
          "name": "tokenIds",
          "type": "uint256[]"
        }
      ],
      "name": "Unstaked",
      "type": "event"
    },
    {
      "inputs": [],
      "name": "claimReward",
      "outputs": [],
      "stateMutability": "nonpayable",
      "type": "function"
    },
    {
      "inputs": [
        {
          "internalType": "uint256",
          "name": "amount",
          "type": "uint256"
        }
      ],
      "name": "depositRewardTokens",
      "outputs": [],
      "stateMutability": "nonpayable",
      "type": "function"
    },
    {
      "inputs": [
        {
          "internalType": "address",
          "name": "account",
          "type": "address"
        }
      ],
      "name": "earned",
      "outputs": [
        {
          "internalType": "uint256",
          "name": "",
          "type": "uint256"
        }
      ],
      "stateMutability": "view",
      "type": "function"
    },
    {
      "inputs": [],
      "name": "lastUpdateTime",
      "outputs": [
        {
          "internalType": "uint256",
          "name": "",
          "type": "uint256"
        }
      ],
      "stateMutability": "view",
      "type": "function"
    },
    {
      "inputs": [],
      "name": "nftToken",
      "outputs": [
        {
          "internalType": "contract IERC721",
          "name": "",
          "type": "address"
        }
      ],
      "stateMutability": "view",
      "type": "function"
    },
    {
      "inputs": [
        {
          "internalType": "address",
          "name": "",
          "type": "address"
        },
        {
          "internalType": "address",
          "name": "",
          "type": "address"
        },
        {
          "internalType": "uint256",
          "name": "",
          "type": "uint256"
        },
        {
          "internalType": "bytes",
          "name": "",
          "type": "bytes"
        }
      ],
      "name": "onERC721Received",
      "outputs": [
        {
          "internalType": "bytes4",
          "name": "",
          "type": "bytes4"
        }
      ],
      "stateMutability": "nonpayable",
      "type": "function"
    },
    {
      "inputs": [],
      "name": "owner",
      "outputs": [
        {
          "internalType": "address",
          "name": "",
          "type": "address"
        }
      ],
      "stateMutability": "view",
      "type": "function"
    },
    {
      "inputs": [
        {
          "internalType": "address",
          "name": "account",
          "type": "address"
        }
      ],
      "name": "pendingReward",
      "outputs": [
        {
          "internalType": "uint256",
          "name": "",
          "type": "uint256"
        }
      ],
      "stateMutability": "view",
      "type": "function"
    },
    {
      "inputs": [],
      "name": "renounceOwnership",
      "outputs": [],
      "stateMutability": "nonpayable",
      "type": "function"
    },
    {
      "inputs": [],
      "name": "rewardPerToken",
      "outputs": [
        {
          "internalType": "uint256",
          "name": "",
          "type": "uint256"
        }
      ],
      "stateMutability": "view",
      "type": "function"
    },
    {
      "inputs": [],
      "name": "rewardPerTokenStored",
      "outputs": [
        {
          "internalType": "uint256",
          "name": "",
          "type": "uint256"
        }
      ],
      "stateMutability": "view",
      "type": "function"
    },
    {
      "inputs": [],
      "name": "rewardRatePerToken",
      "outputs": [
        {
          "internalType": "uint256",
          "name": "",
          "type": "uint256"
        }
      ],
      "stateMutability": "view",
      "type": "function"
    },
    {
      "inputs": [],
      "name": "rewardToken",
      "outputs": [
        {
          "internalType": "contract IERC20",
          "name": "",
          "type": "address"
        }
      ],
      "stateMutability": "view",
      "type": "function"
    },
    {
      "inputs": [
        {
          "internalType": "address",
          "name": "",
          "type": "address"
        }
      ],
      "name": "rewards",
      "outputs": [
        {
          "internalType": "uint256",
          "name": "",
          "type": "uint256"
        }
      ],
      "stateMutability": "view",
      "type": "function"
    },
    {
      "inputs": [
        {
          "internalType": "uint256",
          "name": "_ratePerToken",
          "type": "uint256"
        }
      ],
      "name": "setRewardRate",
      "outputs": [],
      "stateMutability": "nonpayable",
      "type": "function"
    },
    {
      "inputs": [
        {
          "internalType": "uint256[]",
          "name": "tokenIds",
          "type": "uint256[]"
        }
      ],
      "name": "stake",
      "outputs": [],
      "stateMutability": "nonpayable",
      "type": "function"
    },
    {
      "inputs": [
        {
          "internalType": "address",
          "name": "",
          "type": "address"
        }
      ],
      "name": "stakedBalance",
      "outputs": [
        {
          "internalType": "uint256",
          "name": "",
          "type": "uint256"
        }
      ],
      "stateMutability": "view",
      "type": "function"
    },
    {
      "inputs": [
        {
          "internalType": "uint256",
          "name": "",
          "type": "uint256"
        }
      ],
      "name": "stakerOfTokenId",
      "outputs": [
        {
          "internalType": "address",
          "name": "",
          "type": "address"
        }
      ],
      "stateMutability": "view",
      "type": "function"
    },
    {
      "inputs": [],
      "name": "totalStaked",
      "outputs": [
        {
          "internalType": "uint256",
          "name": "",
          "type": "uint256"
        }
      ],
      "stateMutability": "view",
      "type": "function"
    },
    {
      "inputs": [
        {
          "internalType": "address",
          "name": "newOwner",
          "type": "address"
        }
      ],
      "name": "transferOwnership",
      "outputs": [],
      "stateMutability": "nonpayable",
      "type": "function"
    },
    {
      "inputs": [
        {
          "internalType": "uint256[]",
          "name": "tokenIds",
          "type": "uint256[]"
        }
      ],
      "name": "unstake",
      "outputs": [],
      "stateMutability": "nonpayable",
      "type": "function"
    },
    {
      "inputs": [
        {
          "internalType": "address",
          "name": "",
          "type": "address"
        }
      ],
      "name": "userRewardPerTokenPaid",
      "outputs": [
        {
          "internalType": "uint256",
          "name": "",
          "type": "uint256"
        }
      ],
      "stateMutability": "view",
      "type": "function"
    }
  ],
  "bytecode": "0x60c0604052346200005f576200001f6200001862000122565b9162000176565b6040516116b76200033b823960805181818161072601528181610d0b015261105b015260a0518181816107da015281816111dc01526115dc01526116b790f35b600080fd5b634e487b7160e01b600052604160045260246000fd5b90601f01601f191681019081106001600160401b038211176200009c57604052565b62000064565b90620000b9620000b160405190565b92836200007a565b565b6001600160a01b031690565b90565b6001600160a01b038116036200005f57565b90505190620000b982620000ca565b90916060828403126200005f57620000c7620001088484620000dc565b93620001188160208601620000dc565b93604001620000dc565b62000145620019f2803803806200013981620000a2565b928339810190620000eb565b909192565b620000c790620000bb906001600160a01b031682565b620000c7906200014a565b620000c79062000160565b62000190906200018a6200019994620001ea565b6200016b565b6080526200016b565b60a052565b620000c7620000c7620000c79290565b620000c760016200019e565b90600019905b9181191691161790565b90620001de620000c7620001e6926200019e565b8254620001ba565b9055565b620001f59062000239565b620000b962000203620001ae565b6001620001ca565b620000bb620000c7620000c79290565b620000c7906200020b565b6001600160a01b03909116815260200190565b6200024560006200021b565b6001600160a01b0381166001600160a01b038316146200026b5750620000b990620002d8565b62000291906200027a60405190565b631e4fbdf760e01b81529182916004830162000226565b0390fd5b620000c790620000bb565b620000c7905462000295565b906001600160a01b0390620001c0565b90620002d0620000c7620001e6926200016b565b8254620002ac565b620002e46000620002a0565b90620002f2816000620002bc565b62000329620003227f8be0079c531659141344cd1fd0a4f28419497f9722a3daafe3b4186f6b6457e0936200016b565b916200016b565b916200033460405190565b600090a356fe6080604052600436101561001257600080fd5b60003560e01c80628cc262146101715780630700037d1461016c5780630fbf0a9314610167578063150b7a021461016257806316c621e01461015d578063563b75cc146101585780636021726714610153578063715018a61461014e578063817b1cd2146101495780638b876347146101445780638da5cb5b1461013f5780639e447fc61461013a578063b13b92e914610135578063b88a802f14610130578063c8f33c911461012b578063cd3daf9d14610126578063d06fcba814610121578063df136d651461011c578063e449f34114610117578063f2fde38b14610112578063f40f0f521461010d5763f7c618c1036101b1576107c5565b6107aa565b610792565b610779565b61075e565b610711565b6106dd565b6106c2565b61069e565b610683565b61065f565b610644565b610629565b6105fc565b6105d8565b6105b2565b61055e565b610500565b61049a565b6102fc565b610287565b6101dd565b73ffffffffffffffffffffffffffffffffffffffff1690565b90565b73ffffffffffffffffffffffffffffffffffffffff81165b036101b157565b600080fd5b905035906101c382610192565b565b906020828203126101b15761018f916101b6565b9052565b346101b1576102096101f86101f33660046101c5565b611527565b6040515b9182918290815260200190565b0390f35b61017661018f61018f9273ffffffffffffffffffffffffffffffffffffffff1690565b61018f9061020d565b61018f90610230565b9061024c90610239565b600052602052604060002090565b61018f916008021c81565b9061018f915461025a565b61018f90610282600991600092610242565b610265565b346101b1576102096101f861029d3660046101c5565b610270565b909182601f830112156101b15781359167ffffffffffffffff83116101b15760200192602083028401116101b157565b906020828203126101b157813567ffffffffffffffff81116101b1576102f892016102a2565b9091565b346101b15761031561030f3660046102d2565b90610e79565b604051005b806101aa565b905035906101c38261031a565b7f4e487b7100000000000000000000000000000000000000000000000000000000600052604160045260246000fd5b90601f017fffffffffffffffffffffffffffffffffffffffffffffffffffffffffffffffe016810190811067ffffffffffffffff82111761039c57604052565b61032d565b906101c36103ae60405190565b928361035c565b67ffffffffffffffff811161039c57602090601f017fffffffffffffffffffffffffffffffffffffffffffffffffffffffffffffffe0160190565b0190565b90826000939282370152565b90929192610415610410826103b5565b6103a1565b938185526020850190828401116101b1576101c3926103f4565b9080601f830112156101b15781602061018f93359101610400565b906080828203126101b15761045f81836101b6565b9261046d82602085016101b6565b9261047b8360408301610320565b92606082013567ffffffffffffffff81116101b15761018f920161042f565b346101b1576102096104b96104b036600461044a565b92919091610a6e565b604051918291827fffffffff00000000000000000000000000000000000000000000000000000000909116815260200190565b906020828203126101b15761018f91610320565b346101b1576103156105133660046104ec565b611639565b61018f61018f61018f9290565b9061024c90610518565b61018f916008021c610176565b9061018f915461052f565b61018f90610559600791600092610525565b61053c565b346101b1576102096105796105743660046104ec565b610547565b6040519182918273ffffffffffffffffffffffffffffffffffffffff909116815260200190565b61018f90610282600691600092610242565b346101b1576102096101f86105c83660046101c5565b6105a0565b60009103126101b157565b346101b1576105e83660046105cd565b610315610853565b61018f60006005610265565b346101b15761060c3660046105cd565b6102096101f86105f0565b61018f90610282600891600092610242565b346101b1576102096101f861063f3660046101c5565b610617565b346101b1576106543660046105cd565b610209610579610811565b346101b1576103156106723660046104ec565b6115c1565b61018f60006002610265565b346101b1576106933660046105cd565b6102096101f8610677565b346101b1576106ae3660046105cd565b610315611243565b61018f60006004610265565b346101b1576106d23660046105cd565b6102096101f86106b6565b346101b1576106ed3660046105cd565b6102096101f861144e565b6101d990610239565b6020810192916101c391906106f8565b346101b1576107213660046105cd565b6102097f00000000000000000000000000000000000000000000000000000000000000005b60405191829182610701565b61018f60006003610265565b346101b15761076e3660046105cd565b6102096101f8610752565b346101b15761031561078c3660046102d2565b9061116c565b346101b1576103156107a53660046101c5565b610991565b346101b1576102096101f86107c03660046101c5565b611678565b346101b1576107d53660046105cd565b6102097f0000000000000000000000000000000000000000000000000000000000000000610746565b61018f90610176565b61018f90546107fe565b61018f6000610807565b61082361085b565b6101c3610841565b61017661018f61018f9290565b61018f9061082b565b6101c361084e6000610838565b6109d7565b6101c361081b565b610863610811565b3390610884825b9173ffffffffffffffffffffffffffffffffffffffff1690565b0361088c5750565b6108e39061089960405190565b9182917f118cdaa70000000000000000000000000000000000000000000000000000000083526004830173ffffffffffffffffffffffffffffffffffffffff909116815260200190565b0390fd5b6101c3906108f361085b565b6108fd6000610838565b73ffffffffffffffffffffffffffffffffffffffff811673ffffffffffffffffffffffffffffffffffffffff83161461093a57506101c3906109d7565b6108e39061094760405190565b9182917f1e4fbdf70000000000000000000000000000000000000000000000000000000083526004830173ffffffffffffffffffffffffffffffffffffffff909116815260200190565b6101c3906108e7565b9073ffffffffffffffffffffffffffffffffffffffff905b9181191691161790565b906109cc61018f6109d392610239565b825461099a565b9055565b6109e16000610807565b906109ed8160006109bc565b610a20610a1a7f8be0079c531659141344cd1fd0a4f28419497f9722a3daafe3b4186f6b6457e093610239565b91610239565b91610a2a60405190565b600090a3565b610a49610a4361018f9263ffffffff1690565b60e01b90565b7fffffffff000000000000000000000000000000000000000000000000000000001690565b50505050610a7a600090565b5061018f63150b7a02610a30565b90610a9a91610a95610e8d565b610ca7565b6101c3610ef0565b7f4e487b7100000000000000000000000000000000000000000000000000000000600052601160045260246000fd5b7fffffffffffffffffffffffffffffffffffffffffffffffffffffffffffffffff8114610afe5760010190565b610aa2565b7f4e487b7100000000000000000000000000000000000000000000000000000000600052603260045260246000fd5b9190811015610b42576020020190565b610b03565b3561018f8161031a565b15610b5857565b6040517f08c379a000000000000000000000000000000000000000000000000000000000815260206004820152601f60248201527f426f696e674e46545374616b696e673a20616c7265616479207374616b6564006044820152606490fd5b73ffffffffffffffffffffffffffffffffffffffff9182168152911660208201526060810192916101c39160400152565b6040513d6000823e3d90fd5b61018f9081565b61018f9054610bf4565b91908201809211610afe57565b907fffffffffffffffffffffffffffffffffffffffffffffffffffffffffffffffff906109b2565b90610c4a61018f6109d392610518565b8254610c12565b9037565b8183529091602001917f07ffffffffffffffffffffffffffffffffffffffffffffffffffffffffffffff81116101b157829160206103f09202938491610c51565b602080825261018f93910191610c55565b919033610cb38161137a565b600093610cbf85610518565b83811015610df157600790610d06610cf1610cec610ce6610ce1858a89610b32565b610b47565b85610525565b610807565b610d0061086a6101768b610838565b14610b51565b610d2f7f0000000000000000000000000000000000000000000000000000000000000000610239565b916342842e0e610d3e30610239565b610d4c610ce1858a89610b32565b94803b156101b157610d738b8094610d7f610d6660405190565b998a968795869460e01b90565b84528d60048501610bb7565b03925af1928315610dec57610db1610db6928792610dbb96610dc0575b50610dab610ce1868b8a610b32565b90610525565b6109bc565b610ad1565b610cbf565b610ddf908c8d3d10610de5575b610dd7818361035c565b8101906105cd565b38610d9c565b503d610dcd565b610be8565b5092935090610e34610e2d82610e23610e0b866006610242565b610e1d83610e1883610bfb565b610c05565b90610c3a565b610e186005610bfb565b6005610c3a565b610e5e7f134b166c6094cc1ccbf1e3353ce5c3cd9fd29869051bdb999895854d77cc5ef692610239565b92610e74610e6b60405190565b92839283610c96565b0390a2565b906101c391610a88565b61018f6002610518565b610e976001610bfb565b610e9f610e83565b908190610eab565b9190565b14610ebb576101c3906001610c3a565b6040517f3ee5aeb5000000000000000000000000000000000000000000000000000000008152600490fd5b61018f6001610518565b6101c3610efb610ee6565b6001610c3a565b90610a9a91610f0f610e8d565b610fd8565b15610f1b57565b6040517f08c379a000000000000000000000000000000000000000000000000000000000815260206004820152601d60248201527f426f696e674e46545374616b696e673a206e6f7420796f7572204e46540000006044820152606490fd5b919060086109b2910291610fa173ffffffffffffffffffffffffffffffffffffffff841b90565b921b90565b9190610fb761018f6109d393610239565b908354610f7a565b6101c391600091610fa6565b91908203918211610afe57565b339291610fe48461137a565b600091610ff083610518565b8281101561110c5761105684611051600761104361101e610cec611018610ce1898c8c610b32565b84610525565b61103d73ffffffffffffffffffffffffffffffffffffffff8d1661086a565b14610f14565b610dab610ce1868989610b32565b610fbf565b61107f7f0000000000000000000000000000000000000000000000000000000000000000610239565b906323b872dd9161108f30610239565b61109d610ce1848888610b32565b91803b156101b1576110c6888b966110d182966110b960405190565b998a978896879560e01b90565b855260048501610bb7565b03925af1918215610dec576110eb926110f0575b50610ad1565b610ff0565b61110690863d8811610de557610dd7818361035c565b386110e5565b5092939150611142610e2d82611138611126866006610242565b610e1d8361113383610bfb565b610fcb565b6111336005610bfb565b610e5e7f20748b935fd9f21155c2e98cb2bd5df6fe86f21b193cebaae8d9ad7db0ba541692610239565b906101c391610f02565b61117e610e8d565b610a9a3361118b8161137a565b6009906111a061119b8284610242565b610bfb565b916000906111ad82610518565b84116111ba575b50505050565b6111d0836111ca6111d594610518565b92610242565b610c3a565b61120082827f0000000000000000000000000000000000000000000000000000000000000000611275565b61123761122d7f106f923f993c2149d49b4255ff723acafa1f2d94393f561d3eda32ae348f724192610239565b926101fc60405190565b0390a2388080806111b4565b6101c3611176565b73ffffffffffffffffffffffffffffffffffffffff90911681526040810192916101c39160200152565b6112b86004926112a96101c39561128f63a9059cbb610a30565b9261129960405190565b968794602086019081520161124b565b6020820181038252038361035c565b9060006020916112c6600090565b50828151910182855af115610be857600080513d6112e6610ea784610518565b036113645750611302610ea76112fb84610239565b3b92610518565b145b61130b5750565b6113176108e391610239565b6040519182917f5274afe70000000000000000000000000000000000000000000000000000000083526004830173ffffffffffffffffffffffffffffffffffffffff909116815260200190565b9050611373610ea76001610518565b1415611304565b61138c61138561144e565b6003610c3a565b611397426004610c3a565b6113a46101766000610838565b73ffffffffffffffffffffffffffffffffffffffff8216036113c35750565b6101c3906113e86113dd6113d76003610bfb565b836114d5565b6111d0836009610242565b6111d06113f56003610bfb565b916008610242565b81810292918115918404141715610afe57565b7f4e487b7100000000000000000000000000000000000000000000000000000000600052601260045260246000fd5b8115611449570490565b611410565b6114586005610bfb565b611465610ea76000610518565b146114cb5761018f6114776003610bfb565b6114c56114b56114a46114944261148e6004610bfb565b90610fcb565b61149e6002610bfb565b906113fd565b61149e670de0b6b3a7640000610518565b6114bf6005610bfb565b9061143f565b90610c05565b61018f6003610bfb565b6114c561119b61151f61150e61018f956114ed600090565b5061149e6114ff61119b886006610242565b9161148e61119b896008610242565b6114bf670de0b6b3a7640000610518565b926009610242565b61018f9061153361144e565b906114d5565b6101c39061154561085b565b61155d565b9081526040810192916101c39160200152565b61156f61156a6000610838565b61137a565b6115796002610bfb565b90611585816002610c3a565b7fc390a98ace15a7bb6bab611eedfdbb2685043b241a869420043cdfb23ccfee50916115bc6115b360405190565b9283928361154a565b0390a1565b6101c390611539565b6101c3906115d661085b565b61160b817f00000000000000000000000000000000000000000000000000000000000000003361160530610239565b91611642565b6115bc7f031e8ddfca29bb852fd2bd8bfb91e2443466365ed389569af92a70c77138149b916101fc60405190565b6101c3906115ca565b906112b8906112a96101c39560049561165e6323b872dd610a30565b9361166860405190565b9788956020870190815201610bb7565b61018f9061152756fea2646970667358221220adc5cd76a487f263d0b9818b390a6c9b006f15660cf1ca18f88d7aa9792cc5e164736f6c63430008140033",
  "linkReferences": {},
  "deployedLinkReferences": {}
}