{
  "_format": "hh-sol-artifact-1",
  "contractName": "LiquidityLocker",
  "sourceName": "contracts/LiquidityLocker.sol",
  "abi": [
    {
      "inputs": [
        {
          "internalType": "address",
          "name": "_factory",
          "type": "address"
        }
      ],
      "stateMutability": "nonpayable",
      "type": "constructor"
    },
    {
      "inputs": [
        {
          "internalType": "address",
          "name": "owner",
          "type": "address"
        }
      ],
      "name": "OwnableInvalidOwner",
      "type": "error"
    },
    {
      "inputs": [
        {
          "internalType": "address",
          "name": "account",
          "type": "address"
        }
      ],
      "name": "OwnableUnauthorizedAccount",
      "type": "error"
    },
    {
      "anonymous": false,
      "inputs": [
        {
          "indexed": true,
          "internalType": "address",
          "name": "pair",
          "type": "address"
        },
        {
          "indexed": true,
          "internalType": "address",
          "name": "owner",
          "type": "address"
        },
        {
          "indexed": false,
          "internalType": "uint256",
          "name": "amount",
          "type": "uint256"
        },
        {
          "indexed": false,
          "internalType": "uint256",
          "name": "unlockTime",
          "type": "uint256"
        },
        {
          "indexed": false,
          "internalType": "string",
          "name": "description",
          "type": "string"
        },
        {
          "indexed": false,
          "internalType": "uint256",
          "name": "lockFee",
          "type": "uint256"
        }
      ],
      "name": "LiquidityLocked",
      "type": "event"
    },
    {
      "anonymous": false,
      "inputs": [
        {
          "indexed": true,
          "internalType": "address",
          "name": "pair",
          "type": "address"
        },
        {
          "indexed": true,
          "internalType": "address",
          "name": "owner",
          "type": "address"
        },
        {
          "indexed": false,
          "internalType": "uint256",
          "name": "amount",
          "type": "uint256"
        },
        {
          "indexed": false,
          "internalType": "uint256",
          "name": "timestamp",
          "type": "uint256"
        }
      ],
      "name": "LiquidityUnlocked",
      "type": "event"
    },
    {
      "anonymous": false,
      "inputs": [
        {
          "indexed": true,
          "internalType": "address",
          "name": "user",
          "type": "address"
        },
        {
          "indexed": false,
          "internalType": "uint256",
          "name": "amount",
          "type": "uint256"
        },
        {
          "indexed": false,
          "internalType": "uint256",
          "name": "timestamp",
          "type": "uint256"
        }
      ],
      "name": "LockFeeCollected",
      "type": "event"
    },
    {
      "anonymous": false,
      "inputs": [
        {
          "indexed": true,
          "internalType": "address",
          "name": "previousOwner",
          "type": "address"
        },
        {
          "indexed": true,
          "internalType": "address",
          "name": "newOwner",
          "type": "address"
        }
      ],
      "name": "OwnershipTransferred",
      "type": "event"
    },
    {
      "inputs": [],
      "name": "factory",
      "outputs": [
        {
          "internalType": "address",
          "name": "",
          "type": "address"
        }
      ],
      "stateMutability": "view",
      "type": "function"
    },
    {
      "inputs": [
        {
          "internalType": "address",
          "name": "pair",
          "type": "address"
        }
      ],
      "name": "getLocks",
      "outputs": [
        {
          "components": [
            {
              "internalType": "address",
              "name": "owner",
              "type": "address"
            },
            {
              "internalType": "uint256",
              "name": "amount",
              "type": "uint256"
            },
            {
              "internalType": "uint256",
              "name": "unlockTime",
              "type": "uint256"
            },
            {
              "internalType": "bool",
              "name": "isLocked",
              "type": "bool"
            }
          ],
          "internalType": "struct LiquidityLocker.LiquidityLock[]",
          "name": "",
          "type": "tuple[]"
        }
      ],
      "stateMutability": "view",
      "type": "function"
    },
    {
      "inputs": [
        {
          "internalType": "address",
          "name": "pair",
          "type": "address"
        }
      ],
      "name": "getTotalLocked",
      "outputs": [
        {
          "internalType": "uint256",
          "name": "",
          "type": "uint256"
        }
      ],
      "stateMutability": "view",
      "type": "function"
    },
    {
      "inputs": [
        {
          "internalType": "address",
          "name": "",
          "type": "address"
        },
        {
          "internalType": "uint256",
          "name": "",
          "type": "uint256"
        }
      ],
      "name": "liquidityLocks",
      "outputs": [
        {
          "internalType": "address",
          "name": "owner",
          "type": "address"
        },
        {
          "internalType": "uint256",
          "name": "amount",
          "type": "uint256"
        },
        {
          "internalType": "uint256",
          "name": "unlockTime",
          "type": "uint256"
        },
        {
          "internalType": "bool",
          "name": "isLocked",
          "type": "bool"
        }
      ],
      "stateMutability": "view",
      "type": "function"
    },
    {
      "inputs": [
        {
          "internalType": "address",
          "name": "pair",
          "type": "address"
        },
        {
          "internalType": "address",
          "name": "user",
          "type": "address"
        },
        {
          "internalType": "uint256",
          "name": "amount",
          "type": "uint256"
        },
        {
          "internalType": "uint256",
          "name": "lockDuration",
          "type": "uint256"
        },
        {
          "internalType": "string",
          "name": "description",
          "type": "string"
        },
        {
          "internalType": "uint256",
          "name": "lockFee",
          "type": "uint256"
        }
      ],
      "name": "lockLiquidity",
      "outputs": [],
      "stateMutability": "nonpayable",
      "type": "function"
    },
    {
      "inputs": [],
      "name": "owner",
      "outputs": [
        {
          "internalType": "address",
          "name": "",
          "type": "address"
        }
      ],
      "stateMutability": "view",
      "type": "function"
    },
    {
      "inputs": [],
      "name": "renounceOwnership",
      "outputs": [],
      "stateMutability": "nonpayable",
      "type": "function"
    },
    {
      "inputs": [
        {
          "internalType": "address",
          "name": "_factory",
          "type": "address"
        }
      ],
      "name": "setFactory",
      "outputs": [],
      "stateMutability": "nonpayable",
      "type": "function"
    },
    {
      "inputs": [],
      "name": "totalLiquidityLocked",
      "outputs": [
        {
          "internalType": "uint256",
          "name": "",
          "type": "uint256"
        }
      ],
      "stateMutability": "view",
      "type": "function"
    },
    {
      "inputs": [
        {
          "internalType": "address",
          "name": "",
          "type": "address"
        }
      ],
      "name": "totalLockedLiquidity",
      "outputs": [
        {
          "internalType": "uint256",
          "name": "",
          "type": "uint256"
        }
      ],
      "stateMutability": "view",
      "type": "function"
    },
    {
      "inputs": [
        {
          "internalType": "address",
          "name": "newOwner",
          "type": "address"
        }
      ],
      "name": "transferOwnership",
      "outputs": [],
      "stateMutability": "nonpayable",
      "type": "function"
    },
    {
      "inputs": [
        {
          "internalType": "address",
          "name": "pair",
          "type": "address"
        },
        {
          "internalType": "uint256",
          "name": "lockIndex",
          "type": "uint256"
        },
        {
          "internalType": "address",
          "name": "user",
          "type": "address"
        }
      ],
      "name": "unlockLiquidity",
      "outputs": [],
      "stateMutability": "nonpayable",
      "type": "function"
    }
  ],
  "bytecode": "0x60806040523462000030576200001e62000018620000d3565b620001b0565b604051611517620002cd823961151790f35b600080fd5b634e487b7160e01b600052604160045260246000fd5b90601f01601f191681019081106001600160401b038211176200006d57604052565b62000035565b906200008a6200008260405190565b92836200004b565b565b6001600160a01b031690565b90565b6001600160a01b038116036200003057565b905051906200008a826200009b565b9060208282031262000030576200009891620000ad565b62000098620017e480380380620000ea8162000073565b928339810190620000bc565b6200008c62000098620000989290565b6200009890620000f6565b156200011957565b60405162461bcd60e51b815260206004820152600b60248201526a494e565f464143544f525960a81b6044820152606490fd5b0390fd5b62000098906200008c906001600160a01b031682565b620000989062000150565b620000989062000166565b906200019062000098620001ac9262000171565b82546001600160a01b0319166001600160a01b03919091161790565b9055565b6200008a90620001c033620001ee565b620001e6620001d46200008c600062000106565b6001600160a01b038316141562000111565b60046200017c565b620001fa600062000106565b6001600160a01b0381166001600160a01b038316146200022057506200008a906200026a565b6200014c906200022f60405190565b631e4fbdf760e01b8152918291600483016001600160a01b03909116815260200190565b62000098906200008c565b62000098905462000253565b6200027660006200025e565b90620002848160006200017c565b620002bb620002b47f8be0079c531659141344cd1fd0a4f28419497f9722a3daafe3b4186f6b6457e09362000171565b9162000171565b91620002c660405190565b600090a356fe6080604052600436101561001257600080fd5b60003560e01c806305c77a3c146100d257806344e5550f146100cd578063573044e3146100c85780635bb47808146100c3578063715018a6146100be578063719f3089146100b95780637b74811a146100b45780638517e0e1146100af5780638da5cb5b146100aa578063c45a0155146100a5578063e01f62bf146100a05763f2fde38b0361011257610747565b61072c565b610705565b61069f565b61066d565b61050c565b61046b565b610397565b610374565b61035b565b610307565b61013a565b73ffffffffffffffffffffffffffffffffffffffff1690565b90565b73ffffffffffffffffffffffffffffffffffffffff81165b0361011257565b600080fd5b90503590610124826100f3565b565b90602082820312610112576100f091610117565b3461011257610165610155610150366004610126565b6114ca565b6040519182918290815260200190565b0390f35b8061010b565b9050359061012482610169565b7f4e487b7100000000000000000000000000000000000000000000000000000000600052604160045260246000fd5b90601f017fffffffffffffffffffffffffffffffffffffffffffffffffffffffffffffffe016810190811067ffffffffffffffff8211176101eb57604052565b61017c565b906101246101fd60405190565b92836101ab565b67ffffffffffffffff81116101eb57602090601f017fffffffffffffffffffffffffffffffffffffffffffffffffffffffffffffffe0160190565b0190565b90826000939282370152565b9092919261026461025f82610204565b6101f0565b938185526020850190828401116101125761012492610243565b9080601f83011215610112578160206100f09335910161024f565b909160c082840312610112576102af8383610117565b926102bd8160208501610117565b926102cb826040830161016f565b926102d9836060840161016f565b9260808301359067ffffffffffffffff8211610112576102fe816100f093860161027e565b9360a00161016f565b346101125761032661031a366004610299565b94939093929192611066565b604051005b9091606082840312610112576100f06103448484610117565b93610352816020860161016f565b93604001610117565b346101125761032661036e36600461032b565b9161139d565b3461011257610326610387366004610126565b610a30565b600091031261011257565b34610112576103a736600461038c565b6103266107a1565b805173ffffffffffffffffffffffffffffffffffffffff168252610124919060609081906103e260208201516020860152565b6103f160408201516040860152565b01511515910152565b9061023f816080936103af565b90610427610420610416845190565b8084529260200190565b9260200190565b9060005b8181106104385750505090565b90919261045261044b60019286516103fa565b9460200190565b92910161042b565b60208082526100f092910190610407565b3461011257610165610486610481366004610126565b6114ae565b6040519182918261045a565b6100d76100f06100f09273ffffffffffffffffffffffffffffffffffffffff1690565b6100f090610492565b6100f0906104b5565b906104d1906104be565b600052602052604060002090565b6100f0916008021c81565b906100f091546104df565b6100f0906105076002916000926104c7565b6104ea565b3461011257610165610155610522366004610126565b6104f5565b9190604083820312610112576100f0906105418185610117565b9360200161016f565b7f4e487b7100000000000000000000000000000000000000000000000000000000600052603260045260246000fd5b805482101561059c57610593600491600052602060002090565b91020190600090565b61054a565b6100f0906100d7565b6100f090546105a1565b6100f09081565b6100f090546105b4565b91906105d56001936000946104c7565b805482101561061c576105e9929350610579565b50906105f4826105aa565b91610601600182016105bb565b916100f06003610613600285016105bb565b93015460ff1690565b8380fd5b6106656101249461065e606094989795610657608086019a600087019073ffffffffffffffffffffffffffffffffffffffff169052565b6020850152565b6040830152565b019015159052565b3461011257610165610689610683366004610527565b906105c5565b9061069694929460405190565b94859485610620565b34610112576106af36600461038c565b6101656106ba61075f565b6040519182918273ffffffffffffffffffffffffffffffffffffffff909116815260200190565b6100f0916008021c6100d7565b906100f091546106e1565b6100f0600060046106ee565b346101125761071536600461038c565b6101656106ba6106f9565b6100f0600060036104ea565b346101125761073c36600461038c565b610165610155610720565b346101125761032661075a366004610126565b6108df565b6100f060006105aa565b6107716107a9565b61012461078f565b6100d76100f06100f09290565b6100f090610779565b61012461079c6000610786565b610925565b610124610769565b6107b161075f565b33906107d2825b9173ffffffffffffffffffffffffffffffffffffffff1690565b036107da5750565b610831906107e760405190565b9182917f118cdaa70000000000000000000000000000000000000000000000000000000083526004830173ffffffffffffffffffffffffffffffffffffffff909116815260200190565b0390fd5b610124906108416107a9565b61084b6000610786565b73ffffffffffffffffffffffffffffffffffffffff811673ffffffffffffffffffffffffffffffffffffffff831614610888575061012490610925565b6108319061089560405190565b9182917f1e4fbdf70000000000000000000000000000000000000000000000000000000083526004830173ffffffffffffffffffffffffffffffffffffffff909116815260200190565b61012490610835565b9073ffffffffffffffffffffffffffffffffffffffff905b9181191691161790565b9061091a6100f0610921926104be565b82546108e8565b9055565b61092f60006105aa565b9061093b81600061090a565b61096e6109687f8be0079c531659141344cd1fd0a4f28419497f9722a3daafe3b4186f6b6457e0936104be565b916104be565b9161097860405190565b80805b0390a3565b6101249061098c6107a9565b6109f7565b1561099857565b6040517f08c379a000000000000000000000000000000000000000000000000000000000815260206004820152600b60248201527f494e565f464143544f52590000000000000000000000000000000000000000006044820152606490fd5b61012490610a29610a0b6100d76000610786565b73ffffffffffffffffffffffffffffffffffffffff83161415610991565b600461090a565b61012490610980565b15610a4057565b6040517f08c379a000000000000000000000000000000000000000000000000000000000815260206004820152600c60248201527f4f4e4c595f464143544f525900000000000000000000000000000000000000006044820152606490fd5b906101249594939291610ac233610abc6107b86100d760046105aa565b14610a39565b610ebe565b15610ace57565b6040517f08c379a000000000000000000000000000000000000000000000000000000000815260206004820152600860248201527f494e565f504149520000000000000000000000000000000000000000000000006044820152606490fd5b6100f06100f06100f09290565b15610b4157565b6040517f08c379a000000000000000000000000000000000000000000000000000000000815260206004820152600760248201527f494e565f414d54000000000000000000000000000000000000000000000000006044820152606490fd5b15610ba757565b6040517f08c379a000000000000000000000000000000000000000000000000000000000815260206004820152600760248201527f494e565f445552000000000000000000000000000000000000000000000000006044820152606490fd5b15610c0d57565b6040517f08c379a0000000000000000000000000000000000000000000000000000000008152806108316004820160208082526004908201527f4c4f4e4700000000000000000000000000000000000000000000000000000000604082015260600190565b7f4e487b7100000000000000000000000000000000000000000000000000000000600052601160045260246000fd5b91908201809211610cae57565b610c72565b6100f060806101f0565b7f4e487b7100000000000000000000000000000000000000000000000000000000600052600060045260246000fd5b907fffffffffffffffffffffffffffffffffffffffffffffffffffffffffffffffff90610900565b90610d246100f061092192610b2d565b8254610cec565b9060ff90610900565b90610d446100f061092192151590565b8254610d2b565b6101249190610db590606090600390610d8281610d7c875173ffffffffffffffffffffffffffffffffffffffff1690565b9061090a565b610d9a60018201610d94602088015190565b90610d14565b610dac60028201610d94604088015190565b01920151151590565b90610d34565b9190610dca5761012491610d4b565b610cbd565b90815491680100000000000000008310156101eb5782610df791600161012495018155610579565b90610dbb565b60005b838110610e105750506000910152565b8181015183820152602001610e00565b610e41610e4a60209361023f93610e35815190565b80835293849260200190565b95869101610dfd565b601f017fffffffffffffffffffffffffffffffffffffffffffffffffffffffffffffffe01690565b94939160609161012494610e99610ea693610e9260808b019460008c0152565b60208a0152565b8782036040890152610e20565b940152565b9081526040810192916101249160200152565b859492610fdb604084610f9e6000610efa610edb6100d783610786565b73ffffffffffffffffffffffffffffffffffffffff89165b1415610ac7565b610f0d610f0682610b2d565b8711610b3a565b610f20610f1982610b2d565b8b11610ba0565b610f38610f306301e13380610b2d565b8b1115610c06565b610f996100f088610f4a429d8e610ca1565b610f8c600191610f7b610f5b610cb3565b998a9889019073ffffffffffffffffffffffffffffffffffffffff169052565b610f868c6020890152565b89870152565b80151560608601526104c7565b610dcf565b610fbe610fac8660026104c7565b610d9486610fb9836105bb565b610ca1565b610fd6610fcf85610fb960036105bb565b6003610d14565b015190565b9061102761101261100c7fa45b42ac0191d9fbb31a6f3153bbfbdf25752c562611938d75a7e0b03410a172956104be565b956104be565b98899661101e60405190565b94859485610e72565b0390a37fdea7f500102b57954ce349711b5317687d0eb726afc638faf5df8700ca52ebe59161106161105860405190565b92839283610eab565b0390a2565b906101249594939291610a9f565b90610124929161108e33610abc6107b86100d760046105aa565b611238565b1561109a57565b6040517f08c379a000000000000000000000000000000000000000000000000000000000815260206004820152600760248201527f494e565f494458000000000000000000000000000000000000000000000000006044820152606490fd5b1561110057565b6040517f08c379a000000000000000000000000000000000000000000000000000000000815260206004820152600960248201527f4e4f545f4f574e455200000000000000000000000000000000000000000000006044820152606490fd5b1561116657565b6040517f08c379a000000000000000000000000000000000000000000000000000000000815260206004820152600860248201527f554e4c4f434b45440000000000000000000000000000000000000000000000006044820152606490fd5b156111cc57565b6040517f08c379a000000000000000000000000000000000000000000000000000000000815260206004820152600b60248201527f4e4f545f455850495245440000000000000000000000000000000000000000006044820152606490fd5b91908203918211610cae57565b6000929161135c9061126b61124f6100d787610786565b73ffffffffffffffffffffffffffffffffffffffff8516610ef3565b6112a56112a160019261129261128b6100f061128789886104c7565b5490565b8210611093565b61129c86856104c7565b610579565b5090565b6112d86112b38783016105aa565b6112d273ffffffffffffffffffffffffffffffffffffffff88166107b8565b146110f9565b61131460038201966112f36112ee895460ff1690565b61115f565b429761130f6113076100f0600287016105bb565b8a10156111c5565b610d34565b0161133e611321826105bb565b610d9461132f8660026104c7565b91611339836105bb565b61122b565b611357610fcf61134d836105bb565b61133960036105bb565b6105bb565b9261139061138a7fffccce2b5511147422ec66220e1efd4cdb22f23b396ca3603b0e3dc22a70b528936104be565b936104be565b9361097b61105860405190565b906101249291611074565b67ffffffffffffffff81116101eb5760208091020190565b906113cd61025f836113a8565b918252565b9061012461143e60036113e3610cb3565b9461140a6113f0826105aa565b73ffffffffffffffffffffffffffffffffffffffff168752565b611420611419600183016105bb565b6020880152565b61143661142f600283016105bb565b6040880152565b015460ff1690565b15156060840152565b6100f0906113d2565b90611459825490565b611462816113c0565b926114766020850191600052602060002090565b6000915b8383106114875750505050565b6004602060019261149785611447565b81520192019201919061147a565b6100f090611450565b6114c56100f0916114bd606090565b5060016104c7565b6114a5565b6113576100f0916114d9600090565b5060026104c756fea2646970667358221220abbe914b05c2e741189a467c3a8fe168bb0453edbba85d999f5f0d76794bb33e64736f6c63430008140033",
  "linkReferences": {},
  "deployedLinkReferences": {}
}