{
  "_format": "hh-sol-artifact-1",
  "contractName": "LiquidityLocker",
  "sourceName": "contracts/LiquidityLocker.sol",
  "abi": [
    {
      "inputs": [
        {
          "internalType": "address",
          "name": "_factory",
          "type": "address"
        }
      ],
      "stateMutability": "nonpayable",
      "type": "constructor"
    },
    {
      "inputs": [],
      "name": "AlreadyUnlocked",
      "type": "error"
    },
    {
      "inputs": [],
      "name": "DurationTooLong",
      "type": "error"
    },
    {
      "inputs": [],
      "name": "InvalidAmount",
      "type": "error"
    },
    {
      "inputs": [],
      "name": "InvalidDuration",
      "type": "error"
    },
    {
      "inputs": [],
      "name": "InvalidFactory",
      "type": "error"
    },
    {
      "inputs": [],
      "name": "InvalidIndex",
      "type": "error"
    },
    {
      "inputs": [],
      "name": "InvalidPair",
      "type": "error"
    },
    {
      "inputs": [],
      "name": "NotExpired",
      "type": "error"
    },
    {
      "inputs": [],
      "name": "NotOwner",
      "type": "error"
    },
    {
      "inputs": [],
      "name": "OnlyFactory",
      "type": "error"
    },
    {
      "inputs": [
        {
          "internalType": "address",
          "name": "owner",
          "type": "address"
        }
      ],
      "name": "OwnableInvalidOwner",
      "type": "error"
    },
    {
      "inputs": [
        {
          "internalType": "address",
          "name": "account",
          "type": "address"
        }
      ],
      "name": "OwnableUnauthorizedAccount",
      "type": "error"
    },
    {
      "inputs": [],
      "name": "ReentrancyGuardReentrantCall",
      "type": "error"
    },
    {
      "inputs": [
        {
          "internalType": "address",
          "name": "token",
          "type": "address"
        }
      ],
      "name": "SafeERC20FailedOperation",
      "type": "error"
    },
    {
      "anonymous": false,
      "inputs": [
        {
          "indexed": true,
          "internalType": "address",
          "name": "pair",
          "type": "address"
        },
        {
          "indexed": true,
          "internalType": "address",
          "name": "owner",
          "type": "address"
        },
        {
          "indexed": false,
          "internalType": "uint256",
          "name": "amount",
          "type": "uint256"
        },
        {
          "indexed": false,
          "internalType": "uint256",
          "name": "unlockTime",
          "type": "uint256"
        },
        {
          "indexed": false,
          "internalType": "string",
          "name": "description",
          "type": "string"
        },
        {
          "indexed": false,
          "internalType": "uint256",
          "name": "lockFee",
          "type": "uint256"
        }
      ],
      "name": "LiquidityLocked",
      "type": "event"
    },
    {
      "anonymous": false,
      "inputs": [
        {
          "indexed": true,
          "internalType": "address",
          "name": "pair",
          "type": "address"
        },
        {
          "indexed": true,
          "internalType": "address",
          "name": "owner",
          "type": "address"
        },
        {
          "indexed": false,
          "internalType": "uint256",
          "name": "amount",
          "type": "uint256"
        },
        {
          "indexed": false,
          "internalType": "uint256",
          "name": "timestamp",
          "type": "uint256"
        }
      ],
      "name": "LiquidityUnlocked",
      "type": "event"
    },
    {
      "anonymous": false,
      "inputs": [
        {
          "indexed": true,
          "internalType": "address",
          "name": "user",
          "type": "address"
        },
        {
          "indexed": false,
          "internalType": "uint256",
          "name": "amount",
          "type": "uint256"
        },
        {
          "indexed": false,
          "internalType": "uint256",
          "name": "timestamp",
          "type": "uint256"
        }
      ],
      "name": "LockFeeCollected",
      "type": "event"
    },
    {
      "anonymous": false,
      "inputs": [
        {
          "indexed": true,
          "internalType": "address",
          "name": "previousOwner",
          "type": "address"
        },
        {
          "indexed": true,
          "internalType": "address",
          "name": "newOwner",
          "type": "address"
        }
      ],
      "name": "OwnershipTransferred",
      "type": "event"
    },
    {
      "inputs": [],
      "name": "factory",
      "outputs": [
        {
          "internalType": "address",
          "name": "",
          "type": "address"
        }
      ],
      "stateMutability": "view",
      "type": "function"
    },
    {
      "inputs": [
        {
          "internalType": "address",
          "name": "pair",
          "type": "address"
        }
      ],
      "name": "getLocks",
      "outputs": [
        {
          "components": [
            {
              "internalType": "address",
              "name": "owner",
              "type": "address"
            },
            {
              "internalType": "uint256",
              "name": "amount",
              "type": "uint256"
            },
            {
              "internalType": "uint256",
              "name": "unlockTime",
              "type": "uint256"
            },
            {
              "internalType": "bool",
              "name": "isLocked",
              "type": "bool"
            }
          ],
          "internalType": "struct LiquidityLocker.LiquidityLock[]",
          "name": "",
          "type": "tuple[]"
        }
      ],
      "stateMutability": "view",
      "type": "function"
    },
    {
      "inputs": [
        {
          "internalType": "address",
          "name": "pair",
          "type": "address"
        }
      ],
      "name": "getTotalLocked",
      "outputs": [
        {
          "internalType": "uint256",
          "name": "",
          "type": "uint256"
        }
      ],
      "stateMutability": "view",
      "type": "function"
    },
    {
      "inputs": [
        {
          "internalType": "address",
          "name": "",
          "type": "address"
        },
        {
          "internalType": "uint256",
          "name": "",
          "type": "uint256"
        }
      ],
      "name": "liquidityLocks",
      "outputs": [
        {
          "internalType": "address",
          "name": "owner",
          "type": "address"
        },
        {
          "internalType": "uint256",
          "name": "amount",
          "type": "uint256"
        },
        {
          "internalType": "uint256",
          "name": "unlockTime",
          "type": "uint256"
        },
        {
          "internalType": "bool",
          "name": "isLocked",
          "type": "bool"
        }
      ],
      "stateMutability": "view",
      "type": "function"
    },
    {
      "inputs": [
        {
          "internalType": "address",
          "name": "pair",
          "type": "address"
        },
        {
          "internalType": "address",
          "name": "user",
          "type": "address"
        },
        {
          "internalType": "uint256",
          "name": "amount",
          "type": "uint256"
        },
        {
          "internalType": "uint256",
          "name": "lockDuration",
          "type": "uint256"
        },
        {
          "internalType": "string",
          "name": "description",
          "type": "string"
        },
        {
          "internalType": "uint256",
          "name": "lockFee",
          "type": "uint256"
        }
      ],
      "name": "lockLiquidity",
      "outputs": [],
      "stateMutability": "nonpayable",
      "type": "function"
    },
    {
      "inputs": [],
      "name": "owner",
      "outputs": [
        {
          "internalType": "address",
          "name": "",
          "type": "address"
        }
      ],
      "stateMutability": "view",
      "type": "function"
    },
    {
      "inputs": [],
      "name": "renounceOwnership",
      "outputs": [],
      "stateMutability": "nonpayable",
      "type": "function"
    },
    {
      "inputs": [
        {
          "internalType": "address",
          "name": "_factory",
          "type": "address"
        }
      ],
      "name": "setFactory",
      "outputs": [],
      "stateMutability": "nonpayable",
      "type": "function"
    },
    {
      "inputs": [],
      "name": "totalLiquidityLocked",
      "outputs": [
        {
          "internalType": "uint256",
          "name": "",
          "type": "uint256"
        }
      ],
      "stateMutability": "view",
      "type": "function"
    },
    {
      "inputs": [
        {
          "internalType": "address",
          "name": "",
          "type": "address"
        }
      ],
      "name": "totalLockedLiquidity",
      "outputs": [
        {
          "internalType": "uint256",
          "name": "",
          "type": "uint256"
        }
      ],
      "stateMutability": "view",
      "type": "function"
    },
    {
      "inputs": [
        {
          "internalType": "address",
          "name": "newOwner",
          "type": "address"
        }
      ],
      "name": "transferOwnership",
      "outputs": [],
      "stateMutability": "nonpayable",
      "type": "function"
    },
    {
      "inputs": [
        {
          "internalType": "address",
          "name": "pair",
          "type": "address"
        },
        {
          "internalType": "uint256",
          "name": "lockIndex",
          "type": "uint256"
        },
        {
          "internalType": "address",
          "name": "user",
          "type": "address"
        }
      ],
      "name": "unlockLiquidity",
      "outputs": [],
      "stateMutability": "nonpayable",
      "type": "function"
    }
  ],
  "bytecode": "0x60806040523462000030576200001e62000018620000d3565b62000172565b60405161155662000309823961155690f35b600080fd5b634e487b7160e01b600052604160045260246000fd5b90601f01601f191681019081106001600160401b038211176200006d57604052565b62000035565b906200008a6200008260405190565b92836200004b565b565b6001600160a01b031690565b90565b6001600160a01b038116036200003057565b905051906200008a826200009b565b9060208282031262000030576200009891620000ad565b620000986200185f80380380620000ea8162000073565b928339810190620000bc565b6200008c62000098620000989290565b6200009890620000f6565b906001600160a01b03905b9181191691161790565b62000098906200008c906001600160a01b031682565b620000989062000126565b62000098906200013c565b9062000166620000986200016e9262000147565b825462000111565b9055565b6200017d3362000203565b6200018d6200008c600062000106565b6001600160a01b03821614620001aa576200008a90600562000152565b604051637a44db9560e01b8152600490fd5b0390fd5b6200009862000098620000989290565b620000986001620001c0565b90600019906200011c565b90620001fb620000986200016e92620001c0565b8254620001dc565b6200020e9062000237565b6200008a6200021c620001d0565b6001620001e7565b6001600160a01b03909116815260200190565b62000243600062000106565b6001600160a01b0381166001600160a01b038316146200026957506200008a90620002a6565b620001bc906200027860405190565b631e4fbdf760e01b81529182916004830162000224565b62000098906200008c565b6200009890546200028f565b620002b260006200029a565b90620002c081600062000152565b620002f7620002f07f8be0079c531659141344cd1fd0a4f28419497f9722a3daafe3b4186f6b6457e09362000147565b9162000147565b916200030260405190565b600090a356fe6080604052600436101561001257600080fd5b60003560e01c806305c77a3c146100d257806344e5550f146100cd578063573044e3146100c85780635bb47808146100c3578063715018a6146100be578063719f3089146100b95780637b74811a146100b45780638517e0e1146100af5780638da5cb5b146100aa578063c45a0155146100a5578063e01f62bf146100a05763f2fde38b0361011257610747565b61072c565b610705565b61069f565b61066d565b61050c565b61046b565b610397565b610374565b61035b565b610307565b61013a565b73ffffffffffffffffffffffffffffffffffffffff1690565b90565b73ffffffffffffffffffffffffffffffffffffffff81165b0361011257565b600080fd5b90503590610124826100f3565b565b90602082820312610112576100f091610117565b3461011257610165610155610150366004610126565b611504565b6040519182918290815260200190565b0390f35b8061010b565b9050359061012482610169565b7f4e487b7100000000000000000000000000000000000000000000000000000000600052604160045260246000fd5b90601f017fffffffffffffffffffffffffffffffffffffffffffffffffffffffffffffffe016810190811067ffffffffffffffff8211176101eb57604052565b61017c565b906101246101fd60405190565b92836101ab565b67ffffffffffffffff81116101eb57602090601f017fffffffffffffffffffffffffffffffffffffffffffffffffffffffffffffffe0160190565b0190565b90826000939282370152565b9092919261026461025f82610204565b6101f0565b938185526020850190828401116101125761012492610243565b9080601f83011215610112578160206100f09335910161024f565b909160c082840312610112576102af8383610117565b926102bd8160208501610117565b926102cb826040830161016f565b926102d9836060840161016f565b9260808301359067ffffffffffffffff8211610112576102fe816100f093860161027e565b9360a00161016f565b346101125761032661031a366004610299565b94939093929192610f1e565b604051005b9091606082840312610112576100f06103448484610117565b93610352816020860161016f565b93604001610117565b346101125761032661036e36600461032b565b91611379565b3461011257610326610387366004610126565b6109eb565b600091031261011257565b34610112576103a736600461038c565b6103266107a1565b805173ffffffffffffffffffffffffffffffffffffffff168252610124919060609081906103e260208201516020860152565b6103f160408201516040860152565b01511515910152565b9061023f816080936103af565b90610427610420610416845190565b8084529260200190565b9260200190565b9060005b8181106104385750505090565b90919261045261044b60019286516103fa565b9460200190565b92910161042b565b60208082526100f092910190610407565b3461011257610165610486610481366004610126565b6114e8565b6040519182918261045a565b6100d76100f06100f09273ffffffffffffffffffffffffffffffffffffffff1690565b6100f090610492565b6100f0906104b5565b906104d1906104be565b600052602052604060002090565b6100f0916008021c81565b906100f091546104df565b6100f0906105076003916000926104c7565b6104ea565b3461011257610165610155610522366004610126565b6104f5565b9190604083820312610112576100f0906105418185610117565b9360200161016f565b7f4e487b7100000000000000000000000000000000000000000000000000000000600052603260045260246000fd5b805482101561059c57610593600491600052602060002090565b91020190600090565b61054a565b6100f0906100d7565b6100f090546105a1565b6100f09081565b6100f090546105b4565b91906105d56002936000946104c7565b805482101561061c576105e9929350610579565b50906105f4826105aa565b91610601600182016105bb565b916100f06003610613600285016105bb565b93015460ff1690565b8380fd5b6106656101249461065e606094989795610657608086019a600087019073ffffffffffffffffffffffffffffffffffffffff169052565b6020850152565b6040830152565b019015159052565b3461011257610165610689610683366004610527565b906105c5565b9061069694929460405190565b94859485610620565b34610112576106af36600461038c565b6101656106ba61075f565b6040519182918273ffffffffffffffffffffffffffffffffffffffff909116815260200190565b6100f0916008021c6100d7565b906100f091546106e1565b6100f0600060056106ee565b346101125761071536600461038c565b6101656106ba6106f9565b6100f0600060046104ea565b346101125761073c36600461038c565b610165610155610720565b346101125761032661075a366004610126565b6108df565b6100f060006105aa565b6107716107a9565b61012461078f565b6100d76100f06100f09290565b6100f090610779565b61012461079c6000610786565b610925565b610124610769565b6107b161075f565b33906107d2825b9173ffffffffffffffffffffffffffffffffffffffff1690565b036107da5750565b610831906107e760405190565b9182917f118cdaa70000000000000000000000000000000000000000000000000000000083526004830173ffffffffffffffffffffffffffffffffffffffff909116815260200190565b0390fd5b610124906108416107a9565b61084b6000610786565b73ffffffffffffffffffffffffffffffffffffffff811673ffffffffffffffffffffffffffffffffffffffff831614610888575061012490610925565b6108319061089560405190565b9182917f1e4fbdf70000000000000000000000000000000000000000000000000000000083526004830173ffffffffffffffffffffffffffffffffffffffff909116815260200190565b61012490610835565b9073ffffffffffffffffffffffffffffffffffffffff905b9181191691161790565b9061091a6100f0610921926104be565b82546108e8565b9055565b61092f60006105aa565b9061093b81600061090a565b61096e6109687f8be0079c531659141344cd1fd0a4f28419497f9722a3daafe3b4186f6b6457e0936104be565b916104be565b9161097860405190565b80805b0390a3565b6101249061098c6107a9565b6109996100d76000610786565b73ffffffffffffffffffffffffffffffffffffffff8216146109c05761012490600561090a565b6040517f7a44db95000000000000000000000000000000000000000000000000000000008152600490fd5b61012490610980565b949392919033610a0a6107b86100d760056105aa565b03610a185761012495610a43565b6040517f0c6d42ae000000000000000000000000000000000000000000000000000000008152600490fd5b90610a599594939291610a546110bc565b610cba565b610124611115565b6100f06100f06100f09290565b7f4e487b7100000000000000000000000000000000000000000000000000000000600052601160045260246000fd5b91908201809211610aaa57565b610a6e565b6100f060806101f0565b7f4e487b7100000000000000000000000000000000000000000000000000000000600052600060045260246000fd5b907fffffffffffffffffffffffffffffffffffffffffffffffffffffffffffffffff90610900565b90610b206100f061092192610a61565b8254610ae8565b9060ff90610900565b90610b406100f061092192151590565b8254610b27565b6101249190610bb190606090600390610b7e81610b78875173ffffffffffffffffffffffffffffffffffffffff1690565b9061090a565b610b9660018201610b90602088015190565b90610b10565b610ba860028201610b90604088015190565b01920151151590565b90610b30565b9190610bc65761012491610b47565b610ab9565b90815491680100000000000000008310156101eb5782610bf391600161012495018155610579565b90610bb7565b60005b838110610c0c5750506000910152565b8181015183820152602001610bfc565b610c3d610c4660209361023f93610c31815190565b80835293849260200190565b95869101610bf9565b601f017fffffffffffffffffffffffffffffffffffffffffffffffffffffffffffffffe01690565b94939160609161012494610c95610ca293610c8e60808b019460008c0152565b60208a0152565b8782036040890152610c1c565b940152565b9081526040810192916101249160200152565b60009492610cca6100d787610786565b73ffffffffffffffffffffffffffffffffffffffff831614610ef357610cef86610a61565b8114610ec857610cfe86610a61565b8514610e9d57610d116301e13380610a61565b8511610e7257610de760408897610d3b84610d2b876104be565b33610d35306104be565b91610f9b565b610d93610d4942998a610a9d565b610d8a600191610d798a610d5b610aaf565b9687019073ffffffffffffffffffffffffffffffffffffffff169052565b610d84886020870152565b85850152565b15156060830152565b610daa81610da56100f08860026104c7565b610bcb565b610dca610db88660036104c7565b610b9086610dc5836105bb565b610a9d565b610de2610ddb85610dc560046105bb565b6004610b10565b015190565b90610e33610e1e610e187fa45b42ac0191d9fbb31a6f3153bbfbdf25752c562611938d75a7e0b03410a172956104be565b956104be565b988996610e2a60405190565b94859485610c6e565b0390a37fdea7f500102b57954ce349711b5317687d0eb726afc638faf5df8700ca52ebe591610e6d610e6460405190565b92839283610ca7565b0390a2565b6040517f9529f506000000000000000000000000000000000000000000000000000000008152600490fd5b6040517f76166401000000000000000000000000000000000000000000000000000000008152600490fd5b6040517f2c5211c6000000000000000000000000000000000000000000000000000000008152600490fd5b6040517f1e4f7d8c000000000000000000000000000000000000000000000000000000008152600490fd5b9061012495949392916109f4565b610f45610f3f6100f09263ffffffff1690565b60e01b90565b7fffffffff000000000000000000000000000000000000000000000000000000001690565b73ffffffffffffffffffffffffffffffffffffffff9182168152911660208201526060810192916101249160400152565b90610fe090610fd161012495600495610fb76323b872dd610f2c565b93610fc160405190565b9788956020870190815201610f6a565b602082018103825203836101ab565b906000602091610fee600090565b50828151910182855af1156110a657600080513d61101261100e84610a61565b9190565b03611090575061102e61100e611027846104be565b3b92610a61565b145b6110375750565b611043610831916104be565b6040519182917f5274afe70000000000000000000000000000000000000000000000000000000083526004830173ffffffffffffffffffffffffffffffffffffffff909116815260200190565b905061109f61100e6001610a61565b1415611030565b6040513d6000823e3d90fd5b6100f06002610a61565b6110c660016105bb565b6110ce6110b2565b9081146110e057610124906001610b10565b6040517f3ee5aeb5000000000000000000000000000000000000000000000000000000008152600490fd5b6100f06001610a61565b61012461112061110b565b6001610b10565b91903361113a6107b86100d760056105aa565b03610a18576101249290610a5992916111516110bc565b611163565b91908203918211610aaa57565b600092916111736100d785610786565b73ffffffffffffffffffffffffffffffffffffffff831614610ef3576002906111a66100f06111a285856104c7565b5490565b81101561134e576111c36111c7916111be85856104c7565b610579565b5090565b6111d28582016105aa565b6111f173ffffffffffffffffffffffffffffffffffffffff86166107b8565b0361132357600381019461120d611209875460ff1690565b1590565b6112f8576112206100f0429484016105bb565b83106112cd57610b9060016112499301916112448161123e856105bb565b99610b30565b610a61565b6112696112578360036104c7565b610b9086611264836105bb565b611156565b61127a610ddb8561126460046105bb565b61128d8484611288856104be565b6113ae565b6112c06112ba7fffccce2b5511147422ec66220e1efd4cdb22f23b396ca3603b0e3dc22a70b528936104be565b936104be565b9361097b610e6460405190565b6040517fd0404f85000000000000000000000000000000000000000000000000000000008152600490fd5b6040517f5090d6c6000000000000000000000000000000000000000000000000000000008152600490fd5b6040517f30cd7471000000000000000000000000000000000000000000000000000000008152600490fd5b6040517f63df8171000000000000000000000000000000000000000000000000000000008152600490fd5b906101249291611127565b73ffffffffffffffffffffffffffffffffffffffff90911681526040810192916101249160200152565b610fe0600492610fd1610124956113c863a9059cbb610f2c565b926113d260405190565b9687946020860190815201611384565b67ffffffffffffffff81116101eb5760208091020190565b9061140761025f836113e2565b918252565b90610124611478600361141d610aaf565b9461144461142a826105aa565b73ffffffffffffffffffffffffffffffffffffffff168752565b61145a611453600183016105bb565b6020880152565b611470611469600283016105bb565b6040880152565b015460ff1690565b15156060840152565b6100f09061140c565b90611493825490565b61149c816113fa565b926114b06020850191600052602060002090565b6000915b8383106114c15750505050565b600460206001926114d185611481565b8152019201920191906114b4565b6100f09061148a565b6114ff6100f0916114f7606090565b5060026104c7565b6114df565b61151b6100f091611513600090565b5060036104c7565b6105bb56fea2646970667358221220e671d62377d5a46c47c556e9bb5aab9ea61b3321082828d28b76d9908c9c5b7564736f6c63430008140033",
  "linkReferences": {},
  "deployedLinkReferences": {}
}